{
	"Contracts/Lending.sol": {
		"Lending": {
			"abi": [
				{
					"inputs": [],
					"stateMutability": "nonpayable",
					"type": "constructor"
				},
				{
					"inputs": [
						{
							"internalType": "uint256",
							"name": "",
							"type": "uint256"
						}
					],
					"name": "Products",
					"outputs": [
						{
							"internalType": "string",
							"name": "userId",
							"type": "string"
						},
						{
							"internalType": "string",
							"name": "lat",
							"type": "string"
						},
						{
							"internalType": "string",
							"name": "lng",
							"type": "string"
						},
						{
							"internalType": "string",
							"name": "name",
							"type": "string"
						},
						{
							"internalType": "string",
							"name": "description",
							"type": "string"
						},
						{
							"internalType": "uint256",
							"name": "prodValue",
							"type": "uint256"
						},
						{
							"internalType": "uint256",
							"name": "price",
							"type": "uint256"
						},
						{
							"internalType": "string",
							"name": "image",
							"type": "string"
						}
					],
					"stateMutability": "view",
					"type": "function"
				},
				{
					"inputs": [
						{
							"internalType": "string",
							"name": "",
							"type": "string"
						}
					],
					"name": "Users",
					"outputs": [
						{
							"internalType": "string",
							"name": "userId",
							"type": "string"
						},
						{
							"internalType": "string",
							"name": "worldCoinId",
							"type": "string"
						},
						{
							"internalType": "string",
							"name": "lensHandle",
							"type": "string"
						}
					],
					"stateMutability": "view",
					"type": "function"
				},
				{
					"inputs": [
						{
							"internalType": "string",
							"name": "_lens",
							"type": "string"
						},
						{
							"internalType": "string",
							"name": "userId",
							"type": "string"
						}
					],
					"name": "assignLensToUser",
					"outputs": [],
					"stateMutability": "nonpayable",
					"type": "function"
				},
				{
					"inputs": [
						{
							"internalType": "string[]",
							"name": "_addresses",
							"type": "string[]"
						},
						{
							"internalType": "string",
							"name": "userId",
							"type": "string"
						}
					],
					"name": "assignWalletsToUser",
					"outputs": [],
					"stateMutability": "nonpayable",
					"type": "function"
				},
				{
					"inputs": [
						{
							"internalType": "string",
							"name": "WCID",
							"type": "string"
						},
						{
							"internalType": "string",
							"name": "userId",
							"type": "string"
						}
					],
					"name": "assignWorldCoinIdToUser",
					"outputs": [],
					"stateMutability": "nonpayable",
					"type": "function"
				},
				{
					"inputs": [
						{
							"internalType": "string",
							"name": "a",
							"type": "string"
						},
						{
							"internalType": "string",
							"name": "b",
							"type": "string"
						}
					],
					"name": "compareStrings",
					"outputs": [
						{
							"internalType": "bool",
							"name": "",
							"type": "bool"
						}
					],
					"stateMutability": "pure",
					"type": "function"
				},
				{
					"inputs": [
						{
							"internalType": "string",
							"name": "_userId",
							"type": "string"
						},
						{
							"internalType": "string",
							"name": "_lat",
							"type": "string"
						},
						{
							"internalType": "string",
							"name": "_lng",
							"type": "string"
						},
						{
							"internalType": "string",
							"name": "_name",
							"type": "string"
						},
						{
							"internalType": "string",
							"name": "_description",
							"type": "string"
						},
						{
							"internalType": "uint256",
							"name": "_productValue",
							"type": "uint256"
						},
						{
							"internalType": "uint256",
							"name": "_price",
							"type": "uint256"
						},
						{
							"internalType": "string",
							"name": "_image",
							"type": "string"
						}
					],
					"name": "createProduct",
					"outputs": [],
					"stateMutability": "nonpayable",
					"type": "function"
				},
				{
					"inputs": [
						{
							"internalType": "string",
							"name": "username",
							"type": "string"
						},
						{
							"internalType": "string[]",
							"name": "_addresses",
							"type": "string[]"
						}
					],
					"name": "createUserAccount",
					"outputs": [
						{
							"components": [
								{
									"internalType": "string",
									"name": "userId",
									"type": "string"
								},
								{
									"internalType": "string",
									"name": "worldCoinId",
									"type": "string"
								},
								{
									"internalType": "string",
									"name": "lensHandle",
									"type": "string"
								},
								{
									"internalType": "string[]",
									"name": "wallets",
									"type": "string[]"
								},
								{
									"internalType": "uint256[]",
									"name": "products",
									"type": "uint256[]"
								}
							],
							"internalType": "struct Lending.User",
							"name": "",
							"type": "tuple"
						}
					],
					"stateMutability": "nonpayable",
					"type": "function"
				},
				{
					"inputs": [
						{
							"internalType": "string",
							"name": "key",
							"type": "string"
						},
						{
							"internalType": "string",
							"name": "variable",
							"type": "string"
						}
					],
					"name": "doesKeyExist",
					"outputs": [
						{
							"internalType": "bool",
							"name": "",
							"type": "bool"
						}
					],
					"stateMutability": "view",
					"type": "function"
				},
				{
					"inputs": [],
					"name": "getOwner",
					"outputs": [
						{
							"internalType": "address",
							"name": "",
							"type": "address"
						}
					],
					"stateMutability": "view",
					"type": "function"
				},
				{
					"inputs": [
						{
							"internalType": "string",
							"name": "userId",
							"type": "string"
						}
					],
					"name": "getUserById",
					"outputs": [
						{
							"components": [
								{
									"internalType": "string",
									"name": "userId",
									"type": "string"
								},
								{
									"internalType": "string",
									"name": "worldCoinId",
									"type": "string"
								},
								{
									"internalType": "string",
									"name": "lensHandle",
									"type": "string"
								},
								{
									"internalType": "string[]",
									"name": "wallets",
									"type": "string[]"
								},
								{
									"internalType": "uint256[]",
									"name": "products",
									"type": "uint256[]"
								}
							],
							"internalType": "struct Lending.User",
							"name": "",
							"type": "tuple"
						}
					],
					"stateMutability": "view",
					"type": "function"
				},
				{
					"inputs": [
						{
							"internalType": "string",
							"name": "lens",
							"type": "string"
						}
					],
					"name": "getUserByLens",
					"outputs": [
						{
							"components": [
								{
									"internalType": "string",
									"name": "userId",
									"type": "string"
								},
								{
									"internalType": "string",
									"name": "worldCoinId",
									"type": "string"
								},
								{
									"internalType": "string",
									"name": "lensHandle",
									"type": "string"
								},
								{
									"internalType": "string[]",
									"name": "wallets",
									"type": "string[]"
								},
								{
									"internalType": "uint256[]",
									"name": "products",
									"type": "uint256[]"
								}
							],
							"internalType": "struct Lending.User",
							"name": "",
							"type": "tuple"
						}
					],
					"stateMutability": "view",
					"type": "function"
				},
				{
					"inputs": [
						{
							"internalType": "string",
							"name": "addr",
							"type": "string"
						}
					],
					"name": "getUserByWallet",
					"outputs": [
						{
							"components": [
								{
									"internalType": "string",
									"name": "userId",
									"type": "string"
								},
								{
									"internalType": "string",
									"name": "worldCoinId",
									"type": "string"
								},
								{
									"internalType": "string",
									"name": "lensHandle",
									"type": "string"
								},
								{
									"internalType": "string[]",
									"name": "wallets",
									"type": "string[]"
								},
								{
									"internalType": "uint256[]",
									"name": "products",
									"type": "uint256[]"
								}
							],
							"internalType": "struct Lending.User",
							"name": "",
							"type": "tuple"
						}
					],
					"stateMutability": "view",
					"type": "function"
				},
				{
					"inputs": [
						{
							"internalType": "string",
							"name": "WCID",
							"type": "string"
						}
					],
					"name": "getUserByWorldCoin",
					"outputs": [
						{
							"components": [
								{
									"internalType": "string",
									"name": "userId",
									"type": "string"
								},
								{
									"internalType": "string",
									"name": "worldCoinId",
									"type": "string"
								},
								{
									"internalType": "string",
									"name": "lensHandle",
									"type": "string"
								},
								{
									"internalType": "string[]",
									"name": "wallets",
									"type": "string[]"
								},
								{
									"internalType": "uint256[]",
									"name": "products",
									"type": "uint256[]"
								}
							],
							"internalType": "struct Lending.User",
							"name": "",
							"type": "tuple"
						}
					],
					"stateMutability": "view",
					"type": "function"
				},
				{
					"inputs": [],
					"name": "lasProductId",
					"outputs": [
						{
							"internalType": "uint256",
							"name": "",
							"type": "uint256"
						}
					],
					"stateMutability": "view",
					"type": "function"
				},
				{
					"inputs": [],
					"name": "makeRentRequest",
					"outputs": [],
					"stateMutability": "nonpayable",
					"type": "function"
				},
				{
					"inputs": [],
					"name": "rentsNonce",
					"outputs": [
						{
							"internalType": "uint256",
							"name": "",
							"type": "uint256"
						}
					],
					"stateMutability": "view",
					"type": "function"
				}
			],
			"devdoc": {
				"kind": "dev",
				"methods": {},
				"version": 1
			},
			"evm": {
				"assembly": "    /* \"Contracts/Lending.sol\":70:5592  contract Lending {... */\n  mstore(0x40, 0x80)\n    /* \"Contracts/Lending.sol\":152:153  0 */\n  0x00\n    /* \"Contracts/Lending.sol\":122:153  uint256 public lasProductId = 0 */\n  0x01\n  sstore\n    /* \"Contracts/Lending.sol\":187:188  0 */\n  0x00\n    /* \"Contracts/Lending.sol\":159:188  uint256 public rentsNonce = 0 */\n  0x02\n  sstore\n    /* \"Contracts/Lending.sol\":1510:1559  constructor() {... */\n  callvalue\n  dup1\n  iszero\n  tag_1\n  jumpi\n  0x00\n  dup1\n  revert\ntag_1:\n  pop\n    /* \"Contracts/Lending.sol\":1542:1552  msg.sender */\n  caller\n    /* \"Contracts/Lending.sol\":1534:1539  owner */\n  0x00\n  dup1\n    /* \"Contracts/Lending.sol\":1534:1552  owner = msg.sender */\n  0x0100\n  exp\n  dup2\n  sload\n  dup2\n  0xffffffffffffffffffffffffffffffffffffffff\n  mul\n  not\n  and\n  swap1\n  dup4\n  0xffffffffffffffffffffffffffffffffffffffff\n  and\n  mul\n  or\n  swap1\n  sstore\n  pop\n    /* \"Contracts/Lending.sol\":70:5592  contract Lending {... */\n  dataSize(sub_0)\n  dup1\n  dataOffset(sub_0)\n  0x00\n  codecopy\n  0x00\n  return\nstop\n\nsub_0: assembly {\n        /* \"Contracts/Lending.sol\":70:5592  contract Lending {... */\n      mstore(0x40, 0x80)\n      callvalue\n      dup1\n      iszero\n      tag_1\n      jumpi\n      0x00\n      dup1\n      revert\n    tag_1:\n      pop\n      jumpi(tag_2, lt(calldatasize, 0x04))\n      shr(0xe0, calldataload(0x00))\n      dup1\n      0x7198ed1a\n      gt\n      tag_20\n      jumpi\n      dup1\n      0xbed34bba\n      gt\n      tag_21\n      jumpi\n      dup1\n      0xbed34bba\n      eq\n      tag_15\n      jumpi\n      dup1\n      0xc77cfeeb\n      eq\n      tag_16\n      jumpi\n      dup1\n      0xd430e05a\n      eq\n      tag_17\n      jumpi\n      dup1\n      0xdba3f6aa\n      eq\n      tag_18\n      jumpi\n      dup1\n      0xf70e1c5e\n      eq\n      tag_19\n      jumpi\n      jump(tag_2)\n    tag_21:\n      dup1\n      0x7198ed1a\n      eq\n      tag_11\n      jumpi\n      dup1\n      0x893d20e8\n      eq\n      tag_12\n      jumpi\n      dup1\n      0x8d5fa841\n      eq\n      tag_13\n      jumpi\n      dup1\n      0xbb44563f\n      eq\n      tag_14\n      jumpi\n      jump(tag_2)\n    tag_20:\n      dup1\n      0x51f40dd6\n      gt\n      tag_22\n      jumpi\n      dup1\n      0x51f40dd6\n      eq\n      tag_7\n      jumpi\n      dup1\n      0x63c60bd5\n      eq\n      tag_8\n      jumpi\n      dup1\n      0x63fbe5b3\n      eq\n      tag_9\n      jumpi\n      dup1\n      0x6bd562f3\n      eq\n      tag_10\n      jumpi\n      jump(tag_2)\n    tag_22:\n      dup1\n      0x076faab4\n      eq\n      tag_3\n      jumpi\n      dup1\n      0x081396eb\n      eq\n      tag_4\n      jumpi\n      dup1\n      0x15c19c1d\n      eq\n      tag_5\n      jumpi\n      dup1\n      0x379f8fc2\n      eq\n      tag_6\n      jumpi\n    tag_2:\n      0x00\n      dup1\n      revert\n        /* \"Contracts/Lending.sol\":892:929  mapping (string => User) public Users */\n    tag_3:\n      tag_23\n      0x04\n      dup1\n      calldatasize\n      sub\n      dup2\n      add\n      swap1\n      tag_24\n      swap2\n      swap1\n      tag_25\n      jump\t// in\n    tag_24:\n      tag_26\n      jump\t// in\n    tag_23:\n      mload(0x40)\n      tag_27\n      swap4\n      swap3\n      swap2\n      swap1\n      tag_28\n      jump\t// in\n    tag_27:\n      mload(0x40)\n      dup1\n      swap2\n      sub\n      swap1\n      return\n        /* \"Contracts/Lending.sol\":3098:3330  function assignLensToUser(string memory _lens, string memory userId) public {... */\n    tag_4:\n      tag_29\n      0x04\n      dup1\n      calldatasize\n      sub\n      dup2\n      add\n      swap1\n      tag_30\n      swap2\n      swap1\n      tag_31\n      jump\t// in\n    tag_30:\n      tag_32\n      jump\t// in\n    tag_29:\n      stop\n        /* \"Contracts/Lending.sol\":3336:3573  function assignWorldCoinIdToUser(string memory WCID, string memory userId) public {... */\n    tag_5:\n      tag_33\n      0x04\n      dup1\n      calldatasize\n      sub\n      dup2\n      add\n      swap1\n      tag_34\n      swap2\n      swap1\n      tag_31\n      jump\t// in\n    tag_34:\n      tag_35\n      jump\t// in\n    tag_33:\n      stop\n        /* \"Contracts/Lending.sol\":4051:4165  function getUserById(string memory userId) public view returns (User memory) {... */\n    tag_6:\n      tag_36\n      0x04\n      dup1\n      calldatasize\n      sub\n      dup2\n      add\n      swap1\n      tag_37\n      swap2\n      swap1\n      tag_25\n      jump\t// in\n    tag_37:\n      tag_38\n      jump\t// in\n    tag_36:\n      mload(0x40)\n      tag_39\n      swap2\n      swap1\n      tag_40\n      jump\t// in\n    tag_39:\n      mload(0x40)\n      dup1\n      swap2\n      sub\n      swap1\n      return\n        /* \"Contracts/Lending.sol\":3579:4044  function createUserAccount(string memory username, string[] memory _addresses) public returns (User memory) {... */\n    tag_7:\n      tag_41\n      0x04\n      dup1\n      calldatasize\n      sub\n      dup2\n      add\n      swap1\n      tag_42\n      swap2\n      swap1\n      tag_43\n      jump\t// in\n    tag_42:\n      tag_44\n      jump\t// in\n    tag_41:\n      mload(0x40)\n      tag_45\n      swap2\n      swap1\n      tag_40\n      jump\t// in\n    tag_45:\n      mload(0x40)\n      dup1\n      swap2\n      sub\n      swap1\n      return\n        /* \"Contracts/Lending.sol\":2720:3092  function assignWalletsToUser(string[] memory _addresses, string memory userId) public {... */\n    tag_8:\n      tag_46\n      0x04\n      dup1\n      calldatasize\n      sub\n      dup2\n      add\n      swap1\n      tag_47\n      swap2\n      swap1\n      tag_48\n      jump\t// in\n    tag_47:\n      tag_49\n      jump\t// in\n    tag_46:\n      stop\n        /* \"Contracts/Lending.sol\":122:153  uint256 public lasProductId = 0 */\n    tag_9:\n      tag_50\n      tag_51\n      jump\t// in\n    tag_50:\n      mload(0x40)\n      tag_52\n      swap2\n      swap1\n      tag_53\n      jump\t// in\n    tag_52:\n      mload(0x40)\n      dup1\n      swap2\n      sub\n      swap1\n      return\n        /* \"Contracts/Lending.sol\":4831:5589  function createProduct(... */\n    tag_10:\n      tag_54\n      0x04\n      dup1\n      calldatasize\n      sub\n      dup2\n      add\n      swap1\n      tag_55\n      swap2\n      swap1\n      tag_56\n      jump\t// in\n    tag_55:\n      tag_57\n      jump\t// in\n    tag_54:\n      stop\n        /* \"Contracts/Lending.sol\":4525:4691  function getUserByWallet(string memory addr) public view returns (User memory) {... */\n    tag_11:\n      tag_58\n      0x04\n      dup1\n      calldatasize\n      sub\n      dup2\n      add\n      swap1\n      tag_59\n      swap2\n      swap1\n      tag_25\n      jump\t// in\n    tag_59:\n      tag_60\n      jump\t// in\n    tag_58:\n      mload(0x40)\n      tag_61\n      swap2\n      swap1\n      tag_40\n      jump\t// in\n    tag_61:\n      mload(0x40)\n      dup1\n      swap2\n      sub\n      swap1\n      return\n        /* \"Contracts/Lending.sol\":4697:4778  function getOwner() external view returns (address) {... */\n    tag_12:\n      tag_62\n      tag_63\n      jump\t// in\n    tag_62:\n      mload(0x40)\n      tag_64\n      swap2\n      swap1\n      tag_65\n      jump\t// in\n    tag_64:\n      mload(0x40)\n      dup1\n      swap2\n      sub\n      swap1\n      return\n        /* \"Contracts/Lending.sol\":4784:4825  function makeRentRequest() public {... */\n    tag_13:\n      tag_66\n      tag_67\n      jump\t// in\n    tag_66:\n      stop\n        /* \"Contracts/Lending.sol\":159:188  uint256 public rentsNonce = 0 */\n    tag_14:\n      tag_68\n      tag_69\n      jump\t// in\n    tag_68:\n      mload(0x40)\n      tag_70\n      swap2\n      swap1\n      tag_53\n      jump\t// in\n    tag_70:\n      mload(0x40)\n      dup1\n      swap2\n      sub\n      swap1\n      return\n        /* \"Contracts/Lending.sol\":1566:1962  function compareStrings(string memory a, string memory b) public pure returns (bool) {... */\n    tag_15:\n      tag_71\n      0x04\n      dup1\n      calldatasize\n      sub\n      dup2\n      add\n      swap1\n      tag_72\n      swap2\n      swap1\n      tag_31\n      jump\t// in\n    tag_72:\n      tag_73\n      jump\t// in\n    tag_71:\n      mload(0x40)\n      tag_74\n      swap2\n      swap1\n      tag_75\n      jump\t// in\n    tag_74:\n      mload(0x40)\n      dup1\n      swap2\n      sub\n      swap1\n      return\n        /* \"Contracts/Lending.sol\":4171:4339  function getUserByLens(string memory lens) public view returns (User memory) {... */\n    tag_16:\n      tag_76\n      0x04\n      dup1\n      calldatasize\n      sub\n      dup2\n      add\n      swap1\n      tag_77\n      swap2\n      swap1\n      tag_25\n      jump\t// in\n    tag_77:\n      tag_78\n      jump\t// in\n    tag_76:\n      mload(0x40)\n      tag_79\n      swap2\n      swap1\n      tag_40\n      jump\t// in\n    tag_79:\n      mload(0x40)\n      dup1\n      swap2\n      sub\n      swap1\n      return\n        /* \"Contracts/Lending.sol\":2024:2650  function doesKeyExist(string memory key, string memory variable) public view returns (bool) {... */\n    tag_17:\n      tag_80\n      0x04\n      dup1\n      calldatasize\n      sub\n      dup2\n      add\n      swap1\n      tag_81\n      swap2\n      swap1\n      tag_31\n      jump\t// in\n    tag_81:\n      tag_82\n      jump\t// in\n    tag_80:\n      mload(0x40)\n      tag_83\n      swap2\n      swap1\n      tag_75\n      jump\t// in\n    tag_83:\n      mload(0x40)\n      dup1\n      swap2\n      sub\n      swap1\n      return\n        /* \"Contracts/Lending.sol\":816:857  mapping (uint => Product) public Products */\n    tag_18:\n      tag_84\n      0x04\n      dup1\n      calldatasize\n      sub\n      dup2\n      add\n      swap1\n      tag_85\n      swap2\n      swap1\n      tag_86\n      jump\t// in\n    tag_85:\n      tag_87\n      jump\t// in\n    tag_84:\n      mload(0x40)\n      tag_88\n      swap9\n      swap8\n      swap7\n      swap6\n      swap5\n      swap4\n      swap3\n      swap2\n      swap1\n      tag_89\n      jump\t// in\n    tag_88:\n      mload(0x40)\n      dup1\n      swap2\n      sub\n      swap1\n      return\n        /* \"Contracts/Lending.sol\":4345:4519  function getUserByWorldCoin(string memory WCID) public view returns (User memory) {... */\n    tag_19:\n      tag_90\n      0x04\n      dup1\n      calldatasize\n      sub\n      dup2\n      add\n      swap1\n      tag_91\n      swap2\n      swap1\n      tag_25\n      jump\t// in\n    tag_91:\n      tag_92\n      jump\t// in\n    tag_90:\n      mload(0x40)\n      tag_93\n      swap2\n      swap1\n      tag_40\n      jump\t// in\n    tag_93:\n      mload(0x40)\n      dup1\n      swap2\n      sub\n      swap1\n      return\n        /* \"Contracts/Lending.sol\":892:929  mapping (string => User) public Users */\n    tag_26:\n      0x04\n      dup2\n      dup1\n      mload\n      0x20\n      dup2\n      add\n      dup3\n      add\n      dup1\n      mload\n      dup5\n      dup3\n      mstore\n      0x20\n      dup4\n      add\n      0x20\n      dup6\n      add\n      keccak256\n      dup2\n      dup4\n      mstore\n      dup1\n      swap6\n      pop\n      pop\n      pop\n      pop\n      pop\n      pop\n      0x00\n      swap2\n      pop\n      swap1\n      pop\n      dup1\n      0x00\n      add\n      dup1\n      sload\n      tag_94\n      swap1\n      tag_95\n      jump\t// in\n    tag_94:\n      dup1\n      0x1f\n      add\n      0x20\n      dup1\n      swap2\n      div\n      mul\n      0x20\n      add\n      mload(0x40)\n      swap1\n      dup2\n      add\n      0x40\n      mstore\n      dup1\n      swap3\n      swap2\n      swap1\n      dup2\n      dup2\n      mstore\n      0x20\n      add\n      dup3\n      dup1\n      sload\n      tag_96\n      swap1\n      tag_95\n      jump\t// in\n    tag_96:\n      dup1\n      iszero\n      tag_97\n      jumpi\n      dup1\n      0x1f\n      lt\n      tag_98\n      jumpi\n      0x0100\n      dup1\n      dup4\n      sload\n      div\n      mul\n      dup4\n      mstore\n      swap2\n      0x20\n      add\n      swap2\n      jump(tag_97)\n    tag_98:\n      dup3\n      add\n      swap2\n      swap1\n      0x00\n      mstore\n      keccak256(0x00, 0x20)\n      swap1\n    tag_99:\n      dup2\n      sload\n      dup2\n      mstore\n      swap1\n      0x01\n      add\n      swap1\n      0x20\n      add\n      dup1\n      dup4\n      gt\n      tag_99\n      jumpi\n      dup3\n      swap1\n      sub\n      0x1f\n      and\n      dup3\n      add\n      swap2\n    tag_97:\n      pop\n      pop\n      pop\n      pop\n      pop\n      swap1\n      dup1\n      0x01\n      add\n      dup1\n      sload\n      tag_100\n      swap1\n      tag_95\n      jump\t// in\n    tag_100:\n      dup1\n      0x1f\n      add\n      0x20\n      dup1\n      swap2\n      div\n      mul\n      0x20\n      add\n      mload(0x40)\n      swap1\n      dup2\n      add\n      0x40\n      mstore\n      dup1\n      swap3\n      swap2\n      swap1\n      dup2\n      dup2\n      mstore\n      0x20\n      add\n      dup3\n      dup1\n      sload\n      tag_101\n      swap1\n      tag_95\n      jump\t// in\n    tag_101:\n      dup1\n      iszero\n      tag_102\n      jumpi\n      dup1\n      0x1f\n      lt\n      tag_103\n      jumpi\n      0x0100\n      dup1\n      dup4\n      sload\n      div\n      mul\n      dup4\n      mstore\n      swap2\n      0x20\n      add\n      swap2\n      jump(tag_102)\n    tag_103:\n      dup3\n      add\n      swap2\n      swap1\n      0x00\n      mstore\n      keccak256(0x00, 0x20)\n      swap1\n    tag_104:\n      dup2\n      sload\n      dup2\n      mstore\n      swap1\n      0x01\n      add\n      swap1\n      0x20\n      add\n      dup1\n      dup4\n      gt\n      tag_104\n      jumpi\n      dup3\n      swap1\n      sub\n      0x1f\n      and\n      dup3\n      add\n      swap2\n    tag_102:\n      pop\n      pop\n      pop\n      pop\n      pop\n      swap1\n      dup1\n      0x02\n      add\n      dup1\n      sload\n      tag_105\n      swap1\n      tag_95\n      jump\t// in\n    tag_105:\n      dup1\n      0x1f\n      add\n      0x20\n      dup1\n      swap2\n      div\n      mul\n      0x20\n      add\n      mload(0x40)\n      swap1\n      dup2\n      add\n      0x40\n      mstore\n      dup1\n      swap3\n      swap2\n      swap1\n      dup2\n      dup2\n      mstore\n      0x20\n      add\n      dup3\n      dup1\n      sload\n      tag_106\n      swap1\n      tag_95\n      jump\t// in\n    tag_106:\n      dup1\n      iszero\n      tag_107\n      jumpi\n      dup1\n      0x1f\n      lt\n      tag_108\n      jumpi\n      0x0100\n      dup1\n      dup4\n      sload\n      div\n      mul\n      dup4\n      mstore\n      swap2\n      0x20\n      add\n      swap2\n      jump(tag_107)\n    tag_108:\n      dup3\n      add\n      swap2\n      swap1\n      0x00\n      mstore\n      keccak256(0x00, 0x20)\n      swap1\n    tag_109:\n      dup2\n      sload\n      dup2\n      mstore\n      swap1\n      0x01\n      add\n      swap1\n      0x20\n      add\n      dup1\n      dup4\n      gt\n      tag_109\n      jumpi\n      dup3\n      swap1\n      sub\n      0x1f\n      and\n      dup3\n      add\n      swap2\n    tag_107:\n      pop\n      pop\n      pop\n      pop\n      pop\n      swap1\n      pop\n      dup4\n      jump\t// out\n        /* \"Contracts/Lending.sol\":3098:3330  function assignLensToUser(string memory _lens, string memory userId) public {... */\n    tag_32:\n        /* \"Contracts/Lending.sol\":3189:3220  doesKeyExist(_lens, 'userLens') */\n      tag_111\n        /* \"Contracts/Lending.sol\":3202:3207  _lens */\n      dup3\n        /* \"Contracts/Lending.sol\":3189:3220  doesKeyExist(_lens, 'userLens') */\n      mload(0x40)\n      dup1\n      0x40\n      add\n      0x40\n      mstore\n      dup1\n      0x08\n      dup2\n      mstore\n      0x20\n      add\n      0x757365724c656e73000000000000000000000000000000000000000000000000\n      dup2\n      mstore\n      pop\n        /* \"Contracts/Lending.sol\":3189:3201  doesKeyExist */\n      tag_82\n        /* \"Contracts/Lending.sol\":3189:3220  doesKeyExist(_lens, 'userLens') */\n      jump\t// in\n    tag_111:\n        /* \"Contracts/Lending.sol\":3184:3324  if (!doesKeyExist(_lens, 'userLens')) {... */\n      tag_112\n      jumpi\n        /* \"Contracts/Lending.sol\":3261:3267  userId */\n      dup1\n        /* \"Contracts/Lending.sol\":3236:3251  UserLensHandles */\n      0x0a\n        /* \"Contracts/Lending.sol\":3252:3257  _lens */\n      dup4\n        /* \"Contracts/Lending.sol\":3236:3258  UserLensHandles[_lens] */\n      mload(0x40)\n      tag_113\n      swap2\n      swap1\n      tag_114\n      jump\t// in\n    tag_113:\n      swap1\n      dup2\n      mstore\n      0x20\n      add\n      mload(0x40)\n      dup1\n      swap2\n      sub\n      swap1\n      keccak256\n        /* \"Contracts/Lending.sol\":3236:3267  UserLensHandles[_lens] = userId */\n      swap1\n      dup2\n      tag_115\n      swap2\n      swap1\n      tag_116\n      jump\t// in\n    tag_115:\n      pop\n        /* \"Contracts/Lending.sol\":3308:3313  _lens */\n      dup2\n        /* \"Contracts/Lending.sol\":3281:3286  Users */\n      0x04\n        /* \"Contracts/Lending.sol\":3287:3293  userId */\n      dup3\n        /* \"Contracts/Lending.sol\":3281:3294  Users[userId] */\n      mload(0x40)\n      tag_117\n      swap2\n      swap1\n      tag_114\n      jump\t// in\n    tag_117:\n      swap1\n      dup2\n      mstore\n      0x20\n      add\n      mload(0x40)\n      dup1\n      swap2\n      sub\n      swap1\n      keccak256\n        /* \"Contracts/Lending.sol\":3281:3305  Users[userId].lensHandle */\n      0x02\n      add\n        /* \"Contracts/Lending.sol\":3281:3313  Users[userId].lensHandle = _lens */\n      swap1\n      dup2\n      tag_118\n      swap2\n      swap1\n      tag_116\n      jump\t// in\n    tag_118:\n      pop\n        /* \"Contracts/Lending.sol\":3184:3324  if (!doesKeyExist(_lens, 'userLens')) {... */\n    tag_112:\n        /* \"Contracts/Lending.sol\":3098:3330  function assignLensToUser(string memory _lens, string memory userId) public {... */\n      pop\n      pop\n      jump\t// out\n        /* \"Contracts/Lending.sol\":3336:3573  function assignWorldCoinIdToUser(string memory WCID, string memory userId) public {... */\n    tag_35:\n        /* \"Contracts/Lending.sol\":3433:3463  doesKeyExist(WCID, 'userWCID') */\n      tag_120\n        /* \"Contracts/Lending.sol\":3446:3450  WCID */\n      dup3\n        /* \"Contracts/Lending.sol\":3433:3463  doesKeyExist(WCID, 'userWCID') */\n      mload(0x40)\n      dup1\n      0x40\n      add\n      0x40\n      mstore\n      dup1\n      0x08\n      dup2\n      mstore\n      0x20\n      add\n      0x7573657257434944000000000000000000000000000000000000000000000000\n      dup2\n      mstore\n      pop\n        /* \"Contracts/Lending.sol\":3433:3445  doesKeyExist */\n      tag_82\n        /* \"Contracts/Lending.sol\":3433:3463  doesKeyExist(WCID, 'userWCID') */\n      jump\t// in\n    tag_120:\n        /* \"Contracts/Lending.sol\":3428:3567  if (!doesKeyExist(WCID, 'userWCID')) {... */\n      tag_121\n      jumpi\n        /* \"Contracts/Lending.sol\":3504:3510  userId */\n      dup1\n        /* \"Contracts/Lending.sol\":3479:3495  UserWorldCoinIds */\n      0x08\n        /* \"Contracts/Lending.sol\":3496:3500  WCID */\n      dup4\n        /* \"Contracts/Lending.sol\":3479:3501  UserWorldCoinIds[WCID] */\n      mload(0x40)\n      tag_122\n      swap2\n      swap1\n      tag_114\n      jump\t// in\n    tag_122:\n      swap1\n      dup2\n      mstore\n      0x20\n      add\n      mload(0x40)\n      dup1\n      swap2\n      sub\n      swap1\n      keccak256\n        /* \"Contracts/Lending.sol\":3479:3510  UserWorldCoinIds[WCID] = userId */\n      swap1\n      dup2\n      tag_123\n      swap2\n      swap1\n      tag_116\n      jump\t// in\n    tag_123:\n      pop\n        /* \"Contracts/Lending.sol\":3552:3556  WCID */\n      dup2\n        /* \"Contracts/Lending.sol\":3524:3529  Users */\n      0x04\n        /* \"Contracts/Lending.sol\":3530:3536  userId */\n      dup3\n        /* \"Contracts/Lending.sol\":3524:3537  Users[userId] */\n      mload(0x40)\n      tag_124\n      swap2\n      swap1\n      tag_114\n      jump\t// in\n    tag_124:\n      swap1\n      dup2\n      mstore\n      0x20\n      add\n      mload(0x40)\n      dup1\n      swap2\n      sub\n      swap1\n      keccak256\n        /* \"Contracts/Lending.sol\":3524:3549  Users[userId].worldCoinId */\n      0x01\n      add\n        /* \"Contracts/Lending.sol\":3524:3556  Users[userId].worldCoinId = WCID */\n      swap1\n      dup2\n      tag_125\n      swap2\n      swap1\n      tag_116\n      jump\t// in\n    tag_125:\n      pop\n        /* \"Contracts/Lending.sol\":3428:3567  if (!doesKeyExist(WCID, 'userWCID')) {... */\n    tag_121:\n        /* \"Contracts/Lending.sol\":3336:3573  function assignWorldCoinIdToUser(string memory WCID, string memory userId) public {... */\n      pop\n      pop\n      jump\t// out\n        /* \"Contracts/Lending.sol\":4051:4165  function getUserById(string memory userId) public view returns (User memory) {... */\n    tag_38:\n        /* \"Contracts/Lending.sol\":4115:4126  User memory */\n      tag_126\n      tag_127\n      jump\t// in\n    tag_126:\n        /* \"Contracts/Lending.sol\":4145:4150  Users */\n      0x04\n        /* \"Contracts/Lending.sol\":4151:4157  userId */\n      dup3\n        /* \"Contracts/Lending.sol\":4145:4158  Users[userId] */\n      mload(0x40)\n      tag_129\n      swap2\n      swap1\n      tag_114\n      jump\t// in\n    tag_129:\n      swap1\n      dup2\n      mstore\n      0x20\n      add\n      mload(0x40)\n      dup1\n      swap2\n      sub\n      swap1\n      keccak256\n        /* \"Contracts/Lending.sol\":4138:4158  return Users[userId] */\n      mload(0x40)\n      dup1\n      0xa0\n      add\n      0x40\n      mstore\n      swap1\n      dup2\n      0x00\n      dup3\n      add\n      dup1\n      sload\n      tag_130\n      swap1\n      tag_95\n      jump\t// in\n    tag_130:\n      dup1\n      0x1f\n      add\n      0x20\n      dup1\n      swap2\n      div\n      mul\n      0x20\n      add\n      mload(0x40)\n      swap1\n      dup2\n      add\n      0x40\n      mstore\n      dup1\n      swap3\n      swap2\n      swap1\n      dup2\n      dup2\n      mstore\n      0x20\n      add\n      dup3\n      dup1\n      sload\n      tag_131\n      swap1\n      tag_95\n      jump\t// in\n    tag_131:\n      dup1\n      iszero\n      tag_132\n      jumpi\n      dup1\n      0x1f\n      lt\n      tag_133\n      jumpi\n      0x0100\n      dup1\n      dup4\n      sload\n      div\n      mul\n      dup4\n      mstore\n      swap2\n      0x20\n      add\n      swap2\n      jump(tag_132)\n    tag_133:\n      dup3\n      add\n      swap2\n      swap1\n      0x00\n      mstore\n      keccak256(0x00, 0x20)\n      swap1\n    tag_134:\n      dup2\n      sload\n      dup2\n      mstore\n      swap1\n      0x01\n      add\n      swap1\n      0x20\n      add\n      dup1\n      dup4\n      gt\n      tag_134\n      jumpi\n      dup3\n      swap1\n      sub\n      0x1f\n      and\n      dup3\n      add\n      swap2\n    tag_132:\n      pop\n      pop\n      pop\n      pop\n      pop\n      dup2\n      mstore\n      0x20\n      add\n      0x01\n      dup3\n      add\n      dup1\n      sload\n      tag_135\n      swap1\n      tag_95\n      jump\t// in\n    tag_135:\n      dup1\n      0x1f\n      add\n      0x20\n      dup1\n      swap2\n      div\n      mul\n      0x20\n      add\n      mload(0x40)\n      swap1\n      dup2\n      add\n      0x40\n      mstore\n      dup1\n      swap3\n      swap2\n      swap1\n      dup2\n      dup2\n      mstore\n      0x20\n      add\n      dup3\n      dup1\n      sload\n      tag_136\n      swap1\n      tag_95\n      jump\t// in\n    tag_136:\n      dup1\n      iszero\n      tag_137\n      jumpi\n      dup1\n      0x1f\n      lt\n      tag_138\n      jumpi\n      0x0100\n      dup1\n      dup4\n      sload\n      div\n      mul\n      dup4\n      mstore\n      swap2\n      0x20\n      add\n      swap2\n      jump(tag_137)\n    tag_138:\n      dup3\n      add\n      swap2\n      swap1\n      0x00\n      mstore\n      keccak256(0x00, 0x20)\n      swap1\n    tag_139:\n      dup2\n      sload\n      dup2\n      mstore\n      swap1\n      0x01\n      add\n      swap1\n      0x20\n      add\n      dup1\n      dup4\n      gt\n      tag_139\n      jumpi\n      dup3\n      swap1\n      sub\n      0x1f\n      and\n      dup3\n      add\n      swap2\n    tag_137:\n      pop\n      pop\n      pop\n      pop\n      pop\n      dup2\n      mstore\n      0x20\n      add\n      0x02\n      dup3\n      add\n      dup1\n      sload\n      tag_140\n      swap1\n      tag_95\n      jump\t// in\n    tag_140:\n      dup1\n      0x1f\n      add\n      0x20\n      dup1\n      swap2\n      div\n      mul\n      0x20\n      add\n      mload(0x40)\n      swap1\n      dup2\n      add\n      0x40\n      mstore\n      dup1\n      swap3\n      swap2\n      swap1\n      dup2\n      dup2\n      mstore\n      0x20\n      add\n      dup3\n      dup1\n      sload\n      tag_141\n      swap1\n      tag_95\n      jump\t// in\n    tag_141:\n      dup1\n      iszero\n      tag_142\n      jumpi\n      dup1\n      0x1f\n      lt\n      tag_143\n      jumpi\n      0x0100\n      dup1\n      dup4\n      sload\n      div\n      mul\n      dup4\n      mstore\n      swap2\n      0x20\n      add\n      swap2\n      jump(tag_142)\n    tag_143:\n      dup3\n      add\n      swap2\n      swap1\n      0x00\n      mstore\n      keccak256(0x00, 0x20)\n      swap1\n    tag_144:\n      dup2\n      sload\n      dup2\n      mstore\n      swap1\n      0x01\n      add\n      swap1\n      0x20\n      add\n      dup1\n      dup4\n      gt\n      tag_144\n      jumpi\n      dup3\n      swap1\n      sub\n      0x1f\n      and\n      dup3\n      add\n      swap2\n    tag_142:\n      pop\n      pop\n      pop\n      pop\n      pop\n      dup2\n      mstore\n      0x20\n      add\n      0x03\n      dup3\n      add\n      dup1\n      sload\n      dup1\n      0x20\n      mul\n      0x20\n      add\n      mload(0x40)\n      swap1\n      dup2\n      add\n      0x40\n      mstore\n      dup1\n      swap3\n      swap2\n      swap1\n      dup2\n      dup2\n      mstore\n      0x20\n      add\n      0x00\n      swap1\n    tag_145:\n      dup3\n      dup3\n      lt\n      iszero\n      tag_146\n      jumpi\n      dup4\n      dup3\n      swap1\n      0x00\n      mstore\n      keccak256(0x00, 0x20)\n      add\n      dup1\n      sload\n      tag_148\n      swap1\n      tag_95\n      jump\t// in\n    tag_148:\n      dup1\n      0x1f\n      add\n      0x20\n      dup1\n      swap2\n      div\n      mul\n      0x20\n      add\n      mload(0x40)\n      swap1\n      dup2\n      add\n      0x40\n      mstore\n      dup1\n      swap3\n      swap2\n      swap1\n      dup2\n      dup2\n      mstore\n      0x20\n      add\n      dup3\n      dup1\n      sload\n      tag_149\n      swap1\n      tag_95\n      jump\t// in\n    tag_149:\n      dup1\n      iszero\n      tag_150\n      jumpi\n      dup1\n      0x1f\n      lt\n      tag_151\n      jumpi\n      0x0100\n      dup1\n      dup4\n      sload\n      div\n      mul\n      dup4\n      mstore\n      swap2\n      0x20\n      add\n      swap2\n      jump(tag_150)\n    tag_151:\n      dup3\n      add\n      swap2\n      swap1\n      0x00\n      mstore\n      keccak256(0x00, 0x20)\n      swap1\n    tag_152:\n      dup2\n      sload\n      dup2\n      mstore\n      swap1\n      0x01\n      add\n      swap1\n      0x20\n      add\n      dup1\n      dup4\n      gt\n      tag_152\n      jumpi\n      dup3\n      swap1\n      sub\n      0x1f\n      and\n      dup3\n      add\n      swap2\n    tag_150:\n      pop\n      pop\n      pop\n      pop\n      pop\n      dup2\n      mstore\n      0x20\n      add\n      swap1\n      0x01\n      add\n      swap1\n      jump(tag_145)\n    tag_146:\n      pop\n      pop\n      pop\n      pop\n      dup2\n      mstore\n      0x20\n      add\n      0x04\n      dup3\n      add\n      dup1\n      sload\n      dup1\n      0x20\n      mul\n      0x20\n      add\n      mload(0x40)\n      swap1\n      dup2\n      add\n      0x40\n      mstore\n      dup1\n      swap3\n      swap2\n      swap1\n      dup2\n      dup2\n      mstore\n      0x20\n      add\n      dup3\n      dup1\n      sload\n      dup1\n      iszero\n      tag_153\n      jumpi\n      0x20\n      mul\n      dup3\n      add\n      swap2\n      swap1\n      0x00\n      mstore\n      keccak256(0x00, 0x20)\n      swap1\n    tag_154:\n      dup2\n      sload\n      dup2\n      mstore\n      0x20\n      add\n      swap1\n      0x01\n      add\n      swap1\n      dup1\n      dup4\n      gt\n      tag_154\n      jumpi\n    tag_153:\n      pop\n      pop\n      pop\n      pop\n      pop\n      dup2\n      mstore\n      pop\n      pop\n      swap1\n      pop\n        /* \"Contracts/Lending.sol\":4051:4165  function getUserById(string memory userId) public view returns (User memory) {... */\n      swap2\n      swap1\n      pop\n      jump\t// out\n        /* \"Contracts/Lending.sol\":3579:4044  function createUserAccount(string memory username, string[] memory _addresses) public returns (User memory) {... */\n    tag_44:\n        /* \"Contracts/Lending.sol\":3674:3685  User memory */\n      tag_155\n      tag_127\n      jump\t// in\n    tag_155:\n        /* \"Contracts/Lending.sol\":3697:3719  uint[] memory products */\n      0x60\n        /* \"Contracts/Lending.sol\":3795:3838  User(username,'', '', _addresses, products) */\n      mload(0x40)\n      dup1\n      0xa0\n      add\n      0x40\n      mstore\n      dup1\n        /* \"Contracts/Lending.sol\":3800:3808  username */\n      dup6\n        /* \"Contracts/Lending.sol\":3795:3838  User(username,'', '', _addresses, products) */\n      dup2\n      mstore\n      0x20\n      add\n      mload(0x40)\n      dup1\n      0x20\n      add\n      0x40\n      mstore\n      dup1\n      0x00\n      dup2\n      mstore\n      pop\n      dup2\n      mstore\n      0x20\n      add\n      mload(0x40)\n      dup1\n      0x20\n      add\n      0x40\n      mstore\n      dup1\n      0x00\n      dup2\n      mstore\n      pop\n      dup2\n      mstore\n      0x20\n      add\n        /* \"Contracts/Lending.sol\":3817:3827  _addresses */\n      dup5\n        /* \"Contracts/Lending.sol\":3795:3838  User(username,'', '', _addresses, products) */\n      dup2\n      mstore\n      0x20\n      add\n        /* \"Contracts/Lending.sol\":3829:3837  products */\n      dup3\n        /* \"Contracts/Lending.sol\":3795:3838  User(username,'', '', _addresses, products) */\n      dup2\n      mstore\n      pop\n        /* \"Contracts/Lending.sol\":3777:3782  Users */\n      0x04\n        /* \"Contracts/Lending.sol\":3783:3791  username */\n      dup6\n        /* \"Contracts/Lending.sol\":3777:3792  Users[username] */\n      mload(0x40)\n      tag_157\n      swap2\n      swap1\n      tag_114\n      jump\t// in\n    tag_157:\n      swap1\n      dup2\n      mstore\n      0x20\n      add\n      mload(0x40)\n      dup1\n      swap2\n      sub\n      swap1\n      keccak256\n        /* \"Contracts/Lending.sol\":3777:3838  Users[username] = User(username,'', '', _addresses, products) */\n      0x00\n      dup3\n      add\n      mload\n      dup2\n      0x00\n      add\n      swap1\n      dup2\n      tag_158\n      swap2\n      swap1\n      tag_116\n      jump\t// in\n    tag_158:\n      pop\n      0x20\n      dup3\n      add\n      mload\n      dup2\n      0x01\n      add\n      swap1\n      dup2\n      tag_159\n      swap2\n      swap1\n      tag_116\n      jump\t// in\n    tag_159:\n      pop\n      0x40\n      dup3\n      add\n      mload\n      dup2\n      0x02\n      add\n      swap1\n      dup2\n      tag_160\n      swap2\n      swap1\n      tag_116\n      jump\t// in\n    tag_160:\n      pop\n      0x60\n      dup3\n      add\n      mload\n      dup2\n      0x03\n      add\n      swap1\n      dup1\n      mload\n      swap1\n      0x20\n      add\n      swap1\n      tag_161\n      swap3\n      swap2\n      swap1\n      tag_162\n      jump\t// in\n    tag_161:\n      pop\n      0x80\n      dup3\n      add\n      mload\n      dup2\n      0x04\n      add\n      swap1\n      dup1\n      mload\n      swap1\n      0x20\n      add\n      swap1\n      tag_163\n      swap3\n      swap2\n      swap1\n      tag_164\n      jump\t// in\n    tag_163:\n      pop\n      swap1\n      pop\n      pop\n        /* \"Contracts/Lending.sol\":3917:3958  assignWalletsToUser(_addresses, username) */\n      tag_165\n        /* \"Contracts/Lending.sol\":3937:3947  _addresses */\n      dup4\n        /* \"Contracts/Lending.sol\":3949:3957  username */\n      dup6\n        /* \"Contracts/Lending.sol\":3917:3936  assignWalletsToUser */\n      tag_49\n        /* \"Contracts/Lending.sol\":3917:3958  assignWalletsToUser(_addresses, username) */\n      jump\t// in\n    tag_165:\n        /* \"Contracts/Lending.sol\":4022:4027  Users */\n      0x04\n        /* \"Contracts/Lending.sol\":4028:4036  username */\n      dup5\n        /* \"Contracts/Lending.sol\":4022:4037  Users[username] */\n      mload(0x40)\n      tag_166\n      swap2\n      swap1\n      tag_114\n      jump\t// in\n    tag_166:\n      swap1\n      dup2\n      mstore\n      0x20\n      add\n      mload(0x40)\n      dup1\n      swap2\n      sub\n      swap1\n      keccak256\n        /* \"Contracts/Lending.sol\":4015:4037  return Users[username] */\n      mload(0x40)\n      dup1\n      0xa0\n      add\n      0x40\n      mstore\n      swap1\n      dup2\n      0x00\n      dup3\n      add\n      dup1\n      sload\n      tag_167\n      swap1\n      tag_95\n      jump\t// in\n    tag_167:\n      dup1\n      0x1f\n      add\n      0x20\n      dup1\n      swap2\n      div\n      mul\n      0x20\n      add\n      mload(0x40)\n      swap1\n      dup2\n      add\n      0x40\n      mstore\n      dup1\n      swap3\n      swap2\n      swap1\n      dup2\n      dup2\n      mstore\n      0x20\n      add\n      dup3\n      dup1\n      sload\n      tag_168\n      swap1\n      tag_95\n      jump\t// in\n    tag_168:\n      dup1\n      iszero\n      tag_169\n      jumpi\n      dup1\n      0x1f\n      lt\n      tag_170\n      jumpi\n      0x0100\n      dup1\n      dup4\n      sload\n      div\n      mul\n      dup4\n      mstore\n      swap2\n      0x20\n      add\n      swap2\n      jump(tag_169)\n    tag_170:\n      dup3\n      add\n      swap2\n      swap1\n      0x00\n      mstore\n      keccak256(0x00, 0x20)\n      swap1\n    tag_171:\n      dup2\n      sload\n      dup2\n      mstore\n      swap1\n      0x01\n      add\n      swap1\n      0x20\n      add\n      dup1\n      dup4\n      gt\n      tag_171\n      jumpi\n      dup3\n      swap1\n      sub\n      0x1f\n      and\n      dup3\n      add\n      swap2\n    tag_169:\n      pop\n      pop\n      pop\n      pop\n      pop\n      dup2\n      mstore\n      0x20\n      add\n      0x01\n      dup3\n      add\n      dup1\n      sload\n      tag_172\n      swap1\n      tag_95\n      jump\t// in\n    tag_172:\n      dup1\n      0x1f\n      add\n      0x20\n      dup1\n      swap2\n      div\n      mul\n      0x20\n      add\n      mload(0x40)\n      swap1\n      dup2\n      add\n      0x40\n      mstore\n      dup1\n      swap3\n      swap2\n      swap1\n      dup2\n      dup2\n      mstore\n      0x20\n      add\n      dup3\n      dup1\n      sload\n      tag_173\n      swap1\n      tag_95\n      jump\t// in\n    tag_173:\n      dup1\n      iszero\n      tag_174\n      jumpi\n      dup1\n      0x1f\n      lt\n      tag_175\n      jumpi\n      0x0100\n      dup1\n      dup4\n      sload\n      div\n      mul\n      dup4\n      mstore\n      swap2\n      0x20\n      add\n      swap2\n      jump(tag_174)\n    tag_175:\n      dup3\n      add\n      swap2\n      swap1\n      0x00\n      mstore\n      keccak256(0x00, 0x20)\n      swap1\n    tag_176:\n      dup2\n      sload\n      dup2\n      mstore\n      swap1\n      0x01\n      add\n      swap1\n      0x20\n      add\n      dup1\n      dup4\n      gt\n      tag_176\n      jumpi\n      dup3\n      swap1\n      sub\n      0x1f\n      and\n      dup3\n      add\n      swap2\n    tag_174:\n      pop\n      pop\n      pop\n      pop\n      pop\n      dup2\n      mstore\n      0x20\n      add\n      0x02\n      dup3\n      add\n      dup1\n      sload\n      tag_177\n      swap1\n      tag_95\n      jump\t// in\n    tag_177:\n      dup1\n      0x1f\n      add\n      0x20\n      dup1\n      swap2\n      div\n      mul\n      0x20\n      add\n      mload(0x40)\n      swap1\n      dup2\n      add\n      0x40\n      mstore\n      dup1\n      swap3\n      swap2\n      swap1\n      dup2\n      dup2\n      mstore\n      0x20\n      add\n      dup3\n      dup1\n      sload\n      tag_178\n      swap1\n      tag_95\n      jump\t// in\n    tag_178:\n      dup1\n      iszero\n      tag_179\n      jumpi\n      dup1\n      0x1f\n      lt\n      tag_180\n      jumpi\n      0x0100\n      dup1\n      dup4\n      sload\n      div\n      mul\n      dup4\n      mstore\n      swap2\n      0x20\n      add\n      swap2\n      jump(tag_179)\n    tag_180:\n      dup3\n      add\n      swap2\n      swap1\n      0x00\n      mstore\n      keccak256(0x00, 0x20)\n      swap1\n    tag_181:\n      dup2\n      sload\n      dup2\n      mstore\n      swap1\n      0x01\n      add\n      swap1\n      0x20\n      add\n      dup1\n      dup4\n      gt\n      tag_181\n      jumpi\n      dup3\n      swap1\n      sub\n      0x1f\n      and\n      dup3\n      add\n      swap2\n    tag_179:\n      pop\n      pop\n      pop\n      pop\n      pop\n      dup2\n      mstore\n      0x20\n      add\n      0x03\n      dup3\n      add\n      dup1\n      sload\n      dup1\n      0x20\n      mul\n      0x20\n      add\n      mload(0x40)\n      swap1\n      dup2\n      add\n      0x40\n      mstore\n      dup1\n      swap3\n      swap2\n      swap1\n      dup2\n      dup2\n      mstore\n      0x20\n      add\n      0x00\n      swap1\n    tag_182:\n      dup3\n      dup3\n      lt\n      iszero\n      tag_183\n      jumpi\n      dup4\n      dup3\n      swap1\n      0x00\n      mstore\n      keccak256(0x00, 0x20)\n      add\n      dup1\n      sload\n      tag_185\n      swap1\n      tag_95\n      jump\t// in\n    tag_185:\n      dup1\n      0x1f\n      add\n      0x20\n      dup1\n      swap2\n      div\n      mul\n      0x20\n      add\n      mload(0x40)\n      swap1\n      dup2\n      add\n      0x40\n      mstore\n      dup1\n      swap3\n      swap2\n      swap1\n      dup2\n      dup2\n      mstore\n      0x20\n      add\n      dup3\n      dup1\n      sload\n      tag_186\n      swap1\n      tag_95\n      jump\t// in\n    tag_186:\n      dup1\n      iszero\n      tag_187\n      jumpi\n      dup1\n      0x1f\n      lt\n      tag_188\n      jumpi\n      0x0100\n      dup1\n      dup4\n      sload\n      div\n      mul\n      dup4\n      mstore\n      swap2\n      0x20\n      add\n      swap2\n      jump(tag_187)\n    tag_188:\n      dup3\n      add\n      swap2\n      swap1\n      0x00\n      mstore\n      keccak256(0x00, 0x20)\n      swap1\n    tag_189:\n      dup2\n      sload\n      dup2\n      mstore\n      swap1\n      0x01\n      add\n      swap1\n      0x20\n      add\n      dup1\n      dup4\n      gt\n      tag_189\n      jumpi\n      dup3\n      swap1\n      sub\n      0x1f\n      and\n      dup3\n      add\n      swap2\n    tag_187:\n      pop\n      pop\n      pop\n      pop\n      pop\n      dup2\n      mstore\n      0x20\n      add\n      swap1\n      0x01\n      add\n      swap1\n      jump(tag_182)\n    tag_183:\n      pop\n      pop\n      pop\n      pop\n      dup2\n      mstore\n      0x20\n      add\n      0x04\n      dup3\n      add\n      dup1\n      sload\n      dup1\n      0x20\n      mul\n      0x20\n      add\n      mload(0x40)\n      swap1\n      dup2\n      add\n      0x40\n      mstore\n      dup1\n      swap3\n      swap2\n      swap1\n      dup2\n      dup2\n      mstore\n      0x20\n      add\n      dup3\n      dup1\n      sload\n      dup1\n      iszero\n      tag_190\n      jumpi\n      0x20\n      mul\n      dup3\n      add\n      swap2\n      swap1\n      0x00\n      mstore\n      keccak256(0x00, 0x20)\n      swap1\n    tag_191:\n      dup2\n      sload\n      dup2\n      mstore\n      0x20\n      add\n      swap1\n      0x01\n      add\n      swap1\n      dup1\n      dup4\n      gt\n      tag_191\n      jumpi\n    tag_190:\n      pop\n      pop\n      pop\n      pop\n      pop\n      dup2\n      mstore\n      pop\n      pop\n      swap2\n      pop\n      pop\n        /* \"Contracts/Lending.sol\":3579:4044  function createUserAccount(string memory username, string[] memory _addresses) public returns (User memory) {... */\n      swap3\n      swap2\n      pop\n      pop\n      jump\t// out\n        /* \"Contracts/Lending.sol\":2720:3092  function assignWalletsToUser(string[] memory _addresses, string memory userId) public {... */\n    tag_49:\n        /* \"Contracts/Lending.sol\":2820:2826  uint i */\n      0x00\n        /* \"Contracts/Lending.sol\":2816:3086  for(uint i=0; i< _addresses.length; i++) {... */\n    tag_193:\n        /* \"Contracts/Lending.sol\":2833:2843  _addresses */\n      dup3\n        /* \"Contracts/Lending.sol\":2833:2850  _addresses.length */\n      mload\n        /* \"Contracts/Lending.sol\":2830:2831  i */\n      dup2\n        /* \"Contracts/Lending.sol\":2830:2850  i< _addresses.length */\n      lt\n        /* \"Contracts/Lending.sol\":2816:3086  for(uint i=0; i< _addresses.length; i++) {... */\n      iszero\n      tag_194\n      jumpi\n        /* \"Contracts/Lending.sol\":2871:2891  string memory wallet */\n      0x00\n        /* \"Contracts/Lending.sol\":2894:2904  _addresses */\n      dup4\n        /* \"Contracts/Lending.sol\":2905:2906  i */\n      dup3\n        /* \"Contracts/Lending.sol\":2894:2907  _addresses[i] */\n      dup2\n      mload\n      dup2\n      lt\n      tag_196\n      jumpi\n      tag_197\n      tag_198\n      jump\t// in\n    tag_197:\n    tag_196:\n      0x20\n      mul\n      0x20\n      add\n      add\n      mload\n        /* \"Contracts/Lending.sol\":2871:2907  string memory wallet = _addresses[i] */\n      swap1\n      pop\n        /* \"Contracts/Lending.sol\":2926:2961  doesKeyExist(wallet, 'userWallets') */\n      tag_199\n        /* \"Contracts/Lending.sol\":2939:2945  wallet */\n      dup2\n        /* \"Contracts/Lending.sol\":2926:2961  doesKeyExist(wallet, 'userWallets') */\n      mload(0x40)\n      dup1\n      0x40\n      add\n      0x40\n      mstore\n      dup1\n      0x0b\n      dup2\n      mstore\n      0x20\n      add\n      0x7573657257616c6c657473000000000000000000000000000000000000000000\n      dup2\n      mstore\n      pop\n        /* \"Contracts/Lending.sol\":2926:2938  doesKeyExist */\n      tag_82\n        /* \"Contracts/Lending.sol\":2926:2961  doesKeyExist(wallet, 'userWallets') */\n      jump\t// in\n    tag_199:\n        /* \"Contracts/Lending.sol\":2921:3076  if (!doesKeyExist(wallet, 'userWallets')) {... */\n      tag_200\n      jumpi\n        /* \"Contracts/Lending.sol\":3003:3009  userId */\n      dup3\n        /* \"Contracts/Lending.sol\":2981:2992  UserWallets */\n      0x09\n        /* \"Contracts/Lending.sol\":2993:2999  wallet */\n      dup3\n        /* \"Contracts/Lending.sol\":2981:3000  UserWallets[wallet] */\n      mload(0x40)\n      tag_201\n      swap2\n      swap1\n      tag_114\n      jump\t// in\n    tag_201:\n      swap1\n      dup2\n      mstore\n      0x20\n      add\n      mload(0x40)\n      dup1\n      swap2\n      sub\n      swap1\n      keccak256\n        /* \"Contracts/Lending.sol\":2981:3009  UserWallets[wallet] = userId */\n      swap1\n      dup2\n      tag_202\n      swap2\n      swap1\n      tag_116\n      jump\t// in\n    tag_202:\n      pop\n        /* \"Contracts/Lending.sol\":3027:3032  Users */\n      0x04\n        /* \"Contracts/Lending.sol\":3033:3039  userId */\n      dup4\n        /* \"Contracts/Lending.sol\":3027:3040  Users[userId] */\n      mload(0x40)\n      tag_203\n      swap2\n      swap1\n      tag_114\n      jump\t// in\n    tag_203:\n      swap1\n      dup2\n      mstore\n      0x20\n      add\n      mload(0x40)\n      dup1\n      swap2\n      sub\n      swap1\n      keccak256\n        /* \"Contracts/Lending.sol\":3027:3048  Users[userId].wallets */\n      0x03\n      add\n        /* \"Contracts/Lending.sol\":3054:3060  wallet */\n      dup2\n        /* \"Contracts/Lending.sol\":3027:3061  Users[userId].wallets.push(wallet) */\n      swap1\n      dup1\n      0x01\n      dup2\n      sload\n      add\n      dup1\n      dup3\n      sstore\n      dup1\n      swap2\n      pop\n      pop\n      0x01\n      swap1\n      sub\n      swap1\n      0x00\n      mstore\n      keccak256(0x00, 0x20)\n      add\n      0x00\n      swap1\n      swap2\n      swap1\n      swap2\n      swap1\n      swap2\n      pop\n      swap1\n      dup2\n      tag_205\n      swap2\n      swap1\n      tag_116\n      jump\t// in\n    tag_205:\n      pop\n        /* \"Contracts/Lending.sol\":2921:3076  if (!doesKeyExist(wallet, 'userWallets')) {... */\n    tag_200:\n        /* \"Contracts/Lending.sol\":2857:3086  {... */\n      pop\n        /* \"Contracts/Lending.sol\":2852:2855  i++ */\n      dup1\n      dup1\n      tag_206\n      swap1\n      tag_207\n      jump\t// in\n    tag_206:\n      swap2\n      pop\n      pop\n        /* \"Contracts/Lending.sol\":2816:3086  for(uint i=0; i< _addresses.length; i++) {... */\n      jump(tag_193)\n    tag_194:\n      pop\n        /* \"Contracts/Lending.sol\":2720:3092  function assignWalletsToUser(string[] memory _addresses, string memory userId) public {... */\n      pop\n      pop\n      jump\t// out\n        /* \"Contracts/Lending.sol\":122:153  uint256 public lasProductId = 0 */\n    tag_51:\n      sload(0x01)\n      dup2\n      jump\t// out\n        /* \"Contracts/Lending.sol\":4831:5589  function createProduct(... */\n    tag_57:\n        /* \"Contracts/Lending.sol\":5317:5503  Product(... */\n      mload(0x40)\n      dup1\n      0x0100\n      add\n      0x40\n      mstore\n      dup1\n        /* \"Contracts/Lending.sol\":5338:5345  _userId */\n      dup10\n        /* \"Contracts/Lending.sol\":5317:5503  Product(... */\n      dup2\n      mstore\n      0x20\n      add\n        /* \"Contracts/Lending.sol\":5359:5363  _lat */\n      dup9\n        /* \"Contracts/Lending.sol\":5317:5503  Product(... */\n      dup2\n      mstore\n      0x20\n      add\n        /* \"Contracts/Lending.sol\":5377:5381  _lng */\n      dup8\n        /* \"Contracts/Lending.sol\":5317:5503  Product(... */\n      dup2\n      mstore\n      0x20\n      add\n        /* \"Contracts/Lending.sol\":5395:5400  _name */\n      dup7\n        /* \"Contracts/Lending.sol\":5317:5503  Product(... */\n      dup2\n      mstore\n      0x20\n      add\n        /* \"Contracts/Lending.sol\":5414:5426  _description */\n      dup6\n        /* \"Contracts/Lending.sol\":5317:5503  Product(... */\n      dup2\n      mstore\n      0x20\n      add\n        /* \"Contracts/Lending.sol\":5440:5453  _productValue */\n      dup5\n        /* \"Contracts/Lending.sol\":5317:5503  Product(... */\n      dup2\n      mstore\n      0x20\n      add\n        /* \"Contracts/Lending.sol\":5467:5473  _price */\n      dup4\n        /* \"Contracts/Lending.sol\":5317:5503  Product(... */\n      dup2\n      mstore\n      0x20\n      add\n        /* \"Contracts/Lending.sol\":5487:5493  _image */\n      dup3\n        /* \"Contracts/Lending.sol\":5317:5503  Product(... */\n      dup2\n      mstore\n      pop\n        /* \"Contracts/Lending.sol\":5292:5300  Products */\n      0x03\n        /* \"Contracts/Lending.sol\":5292:5314  Products[lasProductId] */\n      0x00\n        /* \"Contracts/Lending.sol\":5301:5313  lasProductId */\n      sload(0x01)\n        /* \"Contracts/Lending.sol\":5292:5314  Products[lasProductId] */\n      dup2\n      mstore\n      0x20\n      add\n      swap1\n      dup2\n      mstore\n      0x20\n      add\n      0x00\n      keccak256\n        /* \"Contracts/Lending.sol\":5292:5503  Products[lasProductId] = Product(... */\n      0x00\n      dup3\n      add\n      mload\n      dup2\n      0x00\n      add\n      swap1\n      dup2\n      tag_209\n      swap2\n      swap1\n      tag_116\n      jump\t// in\n    tag_209:\n      pop\n      0x20\n      dup3\n      add\n      mload\n      dup2\n      0x01\n      add\n      swap1\n      dup2\n      tag_210\n      swap2\n      swap1\n      tag_116\n      jump\t// in\n    tag_210:\n      pop\n      0x40\n      dup3\n      add\n      mload\n      dup2\n      0x02\n      add\n      swap1\n      dup2\n      tag_211\n      swap2\n      swap1\n      tag_116\n      jump\t// in\n    tag_211:\n      pop\n      0x60\n      dup3\n      add\n      mload\n      dup2\n      0x03\n      add\n      swap1\n      dup2\n      tag_212\n      swap2\n      swap1\n      tag_116\n      jump\t// in\n    tag_212:\n      pop\n      0x80\n      dup3\n      add\n      mload\n      dup2\n      0x04\n      add\n      swap1\n      dup2\n      tag_213\n      swap2\n      swap1\n      tag_116\n      jump\t// in\n    tag_213:\n      pop\n      0xa0\n      dup3\n      add\n      mload\n      dup2\n      0x05\n      add\n      sstore\n      0xc0\n      dup3\n      add\n      mload\n      dup2\n      0x06\n      add\n      sstore\n      0xe0\n      dup3\n      add\n      mload\n      dup2\n      0x07\n      add\n      swap1\n      dup2\n      tag_214\n      swap2\n      swap1\n      tag_116\n      jump\t// in\n    tag_214:\n      pop\n      swap1\n      pop\n      pop\n        /* \"Contracts/Lending.sol\":5514:5519  Users */\n      0x04\n        /* \"Contracts/Lending.sol\":5520:5527  _userId */\n      dup9\n        /* \"Contracts/Lending.sol\":5514:5528  Users[_userId] */\n      mload(0x40)\n      tag_215\n      swap2\n      swap1\n      tag_114\n      jump\t// in\n    tag_215:\n      swap1\n      dup2\n      mstore\n      0x20\n      add\n      mload(0x40)\n      dup1\n      swap2\n      sub\n      swap1\n      keccak256\n        /* \"Contracts/Lending.sol\":5514:5537  Users[_userId].products */\n      0x04\n      add\n        /* \"Contracts/Lending.sol\":5543:5555  lasProductId */\n      sload(0x01)\n        /* \"Contracts/Lending.sol\":5514:5556  Users[_userId].products.push(lasProductId) */\n      swap1\n      dup1\n      0x01\n      dup2\n      sload\n      add\n      dup1\n      dup3\n      sstore\n      dup1\n      swap2\n      pop\n      pop\n      0x01\n      swap1\n      sub\n      swap1\n      0x00\n      mstore\n      keccak256(0x00, 0x20)\n      add\n      0x00\n      swap1\n      swap2\n      swap1\n      swap2\n      swap1\n      swap2\n      pop\n      sstore\n        /* \"Contracts/Lending.sol\":5566:5578  lasProductId */\n      0x01\n      0x00\n        /* \"Contracts/Lending.sol\":5566:5581  lasProductId ++ */\n      dup2\n      sload\n      dup1\n      swap3\n      swap2\n      swap1\n      tag_217\n      swap1\n      tag_207\n      jump\t// in\n    tag_217:\n      swap2\n      swap1\n      pop\n      sstore\n      pop\n        /* \"Contracts/Lending.sol\":4831:5589  function createProduct(... */\n      pop\n      pop\n      pop\n      pop\n      pop\n      pop\n      pop\n      pop\n      jump\t// out\n        /* \"Contracts/Lending.sol\":4525:4691  function getUserByWallet(string memory addr) public view returns (User memory) {... */\n    tag_60:\n        /* \"Contracts/Lending.sol\":4591:4602  User memory */\n      tag_218\n      tag_127\n      jump\t// in\n    tag_218:\n        /* \"Contracts/Lending.sol\":4614:4634  string memory userId */\n      0x00\n        /* \"Contracts/Lending.sol\":4637:4648  UserWallets */\n      0x09\n        /* \"Contracts/Lending.sol\":4649:4653  addr */\n      dup4\n        /* \"Contracts/Lending.sol\":4637:4654  UserWallets[addr] */\n      mload(0x40)\n      tag_220\n      swap2\n      swap1\n      tag_114\n      jump\t// in\n    tag_220:\n      swap1\n      dup2\n      mstore\n      0x20\n      add\n      mload(0x40)\n      dup1\n      swap2\n      sub\n      swap1\n      keccak256\n        /* \"Contracts/Lending.sol\":4614:4654  string memory userId = UserWallets[addr] */\n      dup1\n      sload\n      tag_221\n      swap1\n      tag_95\n      jump\t// in\n    tag_221:\n      dup1\n      0x1f\n      add\n      0x20\n      dup1\n      swap2\n      div\n      mul\n      0x20\n      add\n      mload(0x40)\n      swap1\n      dup2\n      add\n      0x40\n      mstore\n      dup1\n      swap3\n      swap2\n      swap1\n      dup2\n      dup2\n      mstore\n      0x20\n      add\n      dup3\n      dup1\n      sload\n      tag_222\n      swap1\n      tag_95\n      jump\t// in\n    tag_222:\n      dup1\n      iszero\n      tag_223\n      jumpi\n      dup1\n      0x1f\n      lt\n      tag_224\n      jumpi\n      0x0100\n      dup1\n      dup4\n      sload\n      div\n      mul\n      dup4\n      mstore\n      swap2\n      0x20\n      add\n      swap2\n      jump(tag_223)\n    tag_224:\n      dup3\n      add\n      swap2\n      swap1\n      0x00\n      mstore\n      keccak256(0x00, 0x20)\n      swap1\n    tag_225:\n      dup2\n      sload\n      dup2\n      mstore\n      swap1\n      0x01\n      add\n      swap1\n      0x20\n      add\n      dup1\n      dup4\n      gt\n      tag_225\n      jumpi\n      dup3\n      swap1\n      sub\n      0x1f\n      and\n      dup3\n      add\n      swap2\n    tag_223:\n      pop\n      pop\n      pop\n      pop\n      pop\n      swap1\n      pop\n        /* \"Contracts/Lending.sol\":4671:4676  Users */\n      0x04\n        /* \"Contracts/Lending.sol\":4677:4683  userId */\n      dup2\n        /* \"Contracts/Lending.sol\":4671:4684  Users[userId] */\n      mload(0x40)\n      tag_226\n      swap2\n      swap1\n      tag_114\n      jump\t// in\n    tag_226:\n      swap1\n      dup2\n      mstore\n      0x20\n      add\n      mload(0x40)\n      dup1\n      swap2\n      sub\n      swap1\n      keccak256\n        /* \"Contracts/Lending.sol\":4664:4684  return Users[userId] */\n      mload(0x40)\n      dup1\n      0xa0\n      add\n      0x40\n      mstore\n      swap1\n      dup2\n      0x00\n      dup3\n      add\n      dup1\n      sload\n      tag_227\n      swap1\n      tag_95\n      jump\t// in\n    tag_227:\n      dup1\n      0x1f\n      add\n      0x20\n      dup1\n      swap2\n      div\n      mul\n      0x20\n      add\n      mload(0x40)\n      swap1\n      dup2\n      add\n      0x40\n      mstore\n      dup1\n      swap3\n      swap2\n      swap1\n      dup2\n      dup2\n      mstore\n      0x20\n      add\n      dup3\n      dup1\n      sload\n      tag_228\n      swap1\n      tag_95\n      jump\t// in\n    tag_228:\n      dup1\n      iszero\n      tag_229\n      jumpi\n      dup1\n      0x1f\n      lt\n      tag_230\n      jumpi\n      0x0100\n      dup1\n      dup4\n      sload\n      div\n      mul\n      dup4\n      mstore\n      swap2\n      0x20\n      add\n      swap2\n      jump(tag_229)\n    tag_230:\n      dup3\n      add\n      swap2\n      swap1\n      0x00\n      mstore\n      keccak256(0x00, 0x20)\n      swap1\n    tag_231:\n      dup2\n      sload\n      dup2\n      mstore\n      swap1\n      0x01\n      add\n      swap1\n      0x20\n      add\n      dup1\n      dup4\n      gt\n      tag_231\n      jumpi\n      dup3\n      swap1\n      sub\n      0x1f\n      and\n      dup3\n      add\n      swap2\n    tag_229:\n      pop\n      pop\n      pop\n      pop\n      pop\n      dup2\n      mstore\n      0x20\n      add\n      0x01\n      dup3\n      add\n      dup1\n      sload\n      tag_232\n      swap1\n      tag_95\n      jump\t// in\n    tag_232:\n      dup1\n      0x1f\n      add\n      0x20\n      dup1\n      swap2\n      div\n      mul\n      0x20\n      add\n      mload(0x40)\n      swap1\n      dup2\n      add\n      0x40\n      mstore\n      dup1\n      swap3\n      swap2\n      swap1\n      dup2\n      dup2\n      mstore\n      0x20\n      add\n      dup3\n      dup1\n      sload\n      tag_233\n      swap1\n      tag_95\n      jump\t// in\n    tag_233:\n      dup1\n      iszero\n      tag_234\n      jumpi\n      dup1\n      0x1f\n      lt\n      tag_235\n      jumpi\n      0x0100\n      dup1\n      dup4\n      sload\n      div\n      mul\n      dup4\n      mstore\n      swap2\n      0x20\n      add\n      swap2\n      jump(tag_234)\n    tag_235:\n      dup3\n      add\n      swap2\n      swap1\n      0x00\n      mstore\n      keccak256(0x00, 0x20)\n      swap1\n    tag_236:\n      dup2\n      sload\n      dup2\n      mstore\n      swap1\n      0x01\n      add\n      swap1\n      0x20\n      add\n      dup1\n      dup4\n      gt\n      tag_236\n      jumpi\n      dup3\n      swap1\n      sub\n      0x1f\n      and\n      dup3\n      add\n      swap2\n    tag_234:\n      pop\n      pop\n      pop\n      pop\n      pop\n      dup2\n      mstore\n      0x20\n      add\n      0x02\n      dup3\n      add\n      dup1\n      sload\n      tag_237\n      swap1\n      tag_95\n      jump\t// in\n    tag_237:\n      dup1\n      0x1f\n      add\n      0x20\n      dup1\n      swap2\n      div\n      mul\n      0x20\n      add\n      mload(0x40)\n      swap1\n      dup2\n      add\n      0x40\n      mstore\n      dup1\n      swap3\n      swap2\n      swap1\n      dup2\n      dup2\n      mstore\n      0x20\n      add\n      dup3\n      dup1\n      sload\n      tag_238\n      swap1\n      tag_95\n      jump\t// in\n    tag_238:\n      dup1\n      iszero\n      tag_239\n      jumpi\n      dup1\n      0x1f\n      lt\n      tag_240\n      jumpi\n      0x0100\n      dup1\n      dup4\n      sload\n      div\n      mul\n      dup4\n      mstore\n      swap2\n      0x20\n      add\n      swap2\n      jump(tag_239)\n    tag_240:\n      dup3\n      add\n      swap2\n      swap1\n      0x00\n      mstore\n      keccak256(0x00, 0x20)\n      swap1\n    tag_241:\n      dup2\n      sload\n      dup2\n      mstore\n      swap1\n      0x01\n      add\n      swap1\n      0x20\n      add\n      dup1\n      dup4\n      gt\n      tag_241\n      jumpi\n      dup3\n      swap1\n      sub\n      0x1f\n      and\n      dup3\n      add\n      swap2\n    tag_239:\n      pop\n      pop\n      pop\n      pop\n      pop\n      dup2\n      mstore\n      0x20\n      add\n      0x03\n      dup3\n      add\n      dup1\n      sload\n      dup1\n      0x20\n      mul\n      0x20\n      add\n      mload(0x40)\n      swap1\n      dup2\n      add\n      0x40\n      mstore\n      dup1\n      swap3\n      swap2\n      swap1\n      dup2\n      dup2\n      mstore\n      0x20\n      add\n      0x00\n      swap1\n    tag_242:\n      dup3\n      dup3\n      lt\n      iszero\n      tag_243\n      jumpi\n      dup4\n      dup3\n      swap1\n      0x00\n      mstore\n      keccak256(0x00, 0x20)\n      add\n      dup1\n      sload\n      tag_245\n      swap1\n      tag_95\n      jump\t// in\n    tag_245:\n      dup1\n      0x1f\n      add\n      0x20\n      dup1\n      swap2\n      div\n      mul\n      0x20\n      add\n      mload(0x40)\n      swap1\n      dup2\n      add\n      0x40\n      mstore\n      dup1\n      swap3\n      swap2\n      swap1\n      dup2\n      dup2\n      mstore\n      0x20\n      add\n      dup3\n      dup1\n      sload\n      tag_246\n      swap1\n      tag_95\n      jump\t// in\n    tag_246:\n      dup1\n      iszero\n      tag_247\n      jumpi\n      dup1\n      0x1f\n      lt\n      tag_248\n      jumpi\n      0x0100\n      dup1\n      dup4\n      sload\n      div\n      mul\n      dup4\n      mstore\n      swap2\n      0x20\n      add\n      swap2\n      jump(tag_247)\n    tag_248:\n      dup3\n      add\n      swap2\n      swap1\n      0x00\n      mstore\n      keccak256(0x00, 0x20)\n      swap1\n    tag_249:\n      dup2\n      sload\n      dup2\n      mstore\n      swap1\n      0x01\n      add\n      swap1\n      0x20\n      add\n      dup1\n      dup4\n      gt\n      tag_249\n      jumpi\n      dup3\n      swap1\n      sub\n      0x1f\n      and\n      dup3\n      add\n      swap2\n    tag_247:\n      pop\n      pop\n      pop\n      pop\n      pop\n      dup2\n      mstore\n      0x20\n      add\n      swap1\n      0x01\n      add\n      swap1\n      jump(tag_242)\n    tag_243:\n      pop\n      pop\n      pop\n      pop\n      dup2\n      mstore\n      0x20\n      add\n      0x04\n      dup3\n      add\n      dup1\n      sload\n      dup1\n      0x20\n      mul\n      0x20\n      add\n      mload(0x40)\n      swap1\n      dup2\n      add\n      0x40\n      mstore\n      dup1\n      swap3\n      swap2\n      swap1\n      dup2\n      dup2\n      mstore\n      0x20\n      add\n      dup3\n      dup1\n      sload\n      dup1\n      iszero\n      tag_250\n      jumpi\n      0x20\n      mul\n      dup3\n      add\n      swap2\n      swap1\n      0x00\n      mstore\n      keccak256(0x00, 0x20)\n      swap1\n    tag_251:\n      dup2\n      sload\n      dup2\n      mstore\n      0x20\n      add\n      swap1\n      0x01\n      add\n      swap1\n      dup1\n      dup4\n      gt\n      tag_251\n      jumpi\n    tag_250:\n      pop\n      pop\n      pop\n      pop\n      pop\n      dup2\n      mstore\n      pop\n      pop\n      swap2\n      pop\n      pop\n        /* \"Contracts/Lending.sol\":4525:4691  function getUserByWallet(string memory addr) public view returns (User memory) {... */\n      swap2\n      swap1\n      pop\n      jump\t// out\n        /* \"Contracts/Lending.sol\":4697:4778  function getOwner() external view returns (address) {... */\n    tag_63:\n        /* \"Contracts/Lending.sol\":4740:4747  address */\n      0x00\n        /* \"Contracts/Lending.sol\":4766:4771  owner */\n      dup1\n      0x00\n      swap1\n      sload\n      swap1\n      0x0100\n      exp\n      swap1\n      div\n      0xffffffffffffffffffffffffffffffffffffffff\n      and\n        /* \"Contracts/Lending.sol\":4759:4771  return owner */\n      swap1\n      pop\n        /* \"Contracts/Lending.sol\":4697:4778  function getOwner() external view returns (address) {... */\n      swap1\n      jump\t// out\n        /* \"Contracts/Lending.sol\":4784:4825  function makeRentRequest() public {... */\n    tag_67:\n      jump\t// out\n        /* \"Contracts/Lending.sol\":159:188  uint256 public rentsNonce = 0 */\n    tag_69:\n      sload(0x02)\n      dup2\n      jump\t// out\n        /* \"Contracts/Lending.sol\":1566:1962  function compareStrings(string memory a, string memory b) public pure returns (bool) {... */\n    tag_73:\n        /* \"Contracts/Lending.sol\":1645:1649  bool */\n      0x00\n        /* \"Contracts/Lending.sol\":1690:1691  b */\n      dup2\n        /* \"Contracts/Lending.sol\":1684:1699  bytes(b).length */\n      mload\n        /* \"Contracts/Lending.sol\":1671:1672  a */\n      dup4\n        /* \"Contracts/Lending.sol\":1665:1680  bytes(a).length */\n      mload\n        /* \"Contracts/Lending.sol\":1665:1699  bytes(a).length != bytes(b).length */\n      eq\n        /* \"Contracts/Lending.sol\":1661:1956  if (bytes(a).length != bytes(b).length) {... */\n      tag_255\n      jumpi\n        /* \"Contracts/Lending.sol\":1722:1727  false */\n      0x00\n        /* \"Contracts/Lending.sol\":1715:1727  return false */\n      swap1\n      pop\n      jump(tag_254)\n        /* \"Contracts/Lending.sol\":1661:1956  if (bytes(a).length != bytes(b).length) {... */\n    tag_255:\n        /* \"Contracts/Lending.sol\":1763:1772  uint256 i */\n      0x00\n        /* \"Contracts/Lending.sol\":1758:1921  for (uint256 i = 0; i < bytes(a).length; i++) {... */\n    tag_257:\n        /* \"Contracts/Lending.sol\":1788:1789  a */\n      dup4\n        /* \"Contracts/Lending.sol\":1782:1797  bytes(a).length */\n      mload\n        /* \"Contracts/Lending.sol\":1778:1779  i */\n      dup2\n        /* \"Contracts/Lending.sol\":1778:1797  i < bytes(a).length */\n      lt\n        /* \"Contracts/Lending.sol\":1758:1921  for (uint256 i = 0; i < bytes(a).length; i++) {... */\n      iszero\n      tag_258\n      jumpi\n        /* \"Contracts/Lending.sol\":1847:1848  b */\n      dup3\n        /* \"Contracts/Lending.sol\":1850:1851  i */\n      dup2\n        /* \"Contracts/Lending.sol\":1841:1852  bytes(b)[i] */\n      dup2\n      mload\n      dup2\n      lt\n      tag_260\n      jumpi\n      tag_261\n      tag_198\n      jump\t// in\n    tag_261:\n    tag_260:\n      0x20\n      add\n      add\n      mload\n      0xf8\n      shr\n      0xf8\n      shl\n        /* \"Contracts/Lending.sol\":1826:1852  bytes(a)[i] != bytes(b)[i] */\n      not(0xffffffffffffffffffffffffffffffffffffffffffffffffffffffffffffff)\n      and\n        /* \"Contracts/Lending.sol\":1832:1833  a */\n      dup5\n        /* \"Contracts/Lending.sol\":1835:1836  i */\n      dup3\n        /* \"Contracts/Lending.sol\":1826:1837  bytes(a)[i] */\n      dup2\n      mload\n      dup2\n      lt\n      tag_262\n      jumpi\n      tag_263\n      tag_198\n      jump\t// in\n    tag_263:\n    tag_262:\n      0x20\n      add\n      add\n      mload\n      0xf8\n      shr\n      0xf8\n      shl\n        /* \"Contracts/Lending.sol\":1826:1852  bytes(a)[i] != bytes(b)[i] */\n      not(0xffffffffffffffffffffffffffffffffffffffffffffffffffffffffffffff)\n      and\n      eq\n        /* \"Contracts/Lending.sol\":1822:1907  if (bytes(a)[i] != bytes(b)[i]) {... */\n      tag_264\n      jumpi\n        /* \"Contracts/Lending.sol\":1883:1888  false */\n      0x00\n        /* \"Contracts/Lending.sol\":1876:1888  return false */\n      swap2\n      pop\n      pop\n      jump(tag_254)\n        /* \"Contracts/Lending.sol\":1822:1907  if (bytes(a)[i] != bytes(b)[i]) {... */\n    tag_264:\n        /* \"Contracts/Lending.sol\":1799:1802  i++ */\n      dup1\n      dup1\n      tag_265\n      swap1\n      tag_207\n      jump\t// in\n    tag_265:\n      swap2\n      pop\n      pop\n        /* \"Contracts/Lending.sol\":1758:1921  for (uint256 i = 0; i < bytes(a).length; i++) {... */\n      jump(tag_257)\n    tag_258:\n      pop\n        /* \"Contracts/Lending.sol\":1941:1945  true */\n      0x01\n        /* \"Contracts/Lending.sol\":1934:1945  return true */\n      swap1\n      pop\n        /* \"Contracts/Lending.sol\":1566:1962  function compareStrings(string memory a, string memory b) public pure returns (bool) {... */\n    tag_254:\n      swap3\n      swap2\n      pop\n      pop\n      jump\t// out\n        /* \"Contracts/Lending.sol\":4171:4339  function getUserByLens(string memory lens) public view returns (User memory) {... */\n    tag_78:\n        /* \"Contracts/Lending.sol\":4235:4246  User memory */\n      tag_266\n      tag_127\n      jump\t// in\n    tag_266:\n        /* \"Contracts/Lending.sol\":4258:4278  string memory userId */\n      0x00\n        /* \"Contracts/Lending.sol\":4281:4296  UserLensHandles */\n      0x0a\n        /* \"Contracts/Lending.sol\":4297:4301  lens */\n      dup4\n        /* \"Contracts/Lending.sol\":4281:4302  UserLensHandles[lens] */\n      mload(0x40)\n      tag_268\n      swap2\n      swap1\n      tag_114\n      jump\t// in\n    tag_268:\n      swap1\n      dup2\n      mstore\n      0x20\n      add\n      mload(0x40)\n      dup1\n      swap2\n      sub\n      swap1\n      keccak256\n        /* \"Contracts/Lending.sol\":4258:4302  string memory userId = UserLensHandles[lens] */\n      dup1\n      sload\n      tag_269\n      swap1\n      tag_95\n      jump\t// in\n    tag_269:\n      dup1\n      0x1f\n      add\n      0x20\n      dup1\n      swap2\n      div\n      mul\n      0x20\n      add\n      mload(0x40)\n      swap1\n      dup2\n      add\n      0x40\n      mstore\n      dup1\n      swap3\n      swap2\n      swap1\n      dup2\n      dup2\n      mstore\n      0x20\n      add\n      dup3\n      dup1\n      sload\n      tag_270\n      swap1\n      tag_95\n      jump\t// in\n    tag_270:\n      dup1\n      iszero\n      tag_271\n      jumpi\n      dup1\n      0x1f\n      lt\n      tag_272\n      jumpi\n      0x0100\n      dup1\n      dup4\n      sload\n      div\n      mul\n      dup4\n      mstore\n      swap2\n      0x20\n      add\n      swap2\n      jump(tag_271)\n    tag_272:\n      dup3\n      add\n      swap2\n      swap1\n      0x00\n      mstore\n      keccak256(0x00, 0x20)\n      swap1\n    tag_273:\n      dup2\n      sload\n      dup2\n      mstore\n      swap1\n      0x01\n      add\n      swap1\n      0x20\n      add\n      dup1\n      dup4\n      gt\n      tag_273\n      jumpi\n      dup3\n      swap1\n      sub\n      0x1f\n      and\n      dup3\n      add\n      swap2\n    tag_271:\n      pop\n      pop\n      pop\n      pop\n      pop\n      swap1\n      pop\n        /* \"Contracts/Lending.sol\":4319:4324  Users */\n      0x04\n        /* \"Contracts/Lending.sol\":4325:4331  userId */\n      dup2\n        /* \"Contracts/Lending.sol\":4319:4332  Users[userId] */\n      mload(0x40)\n      tag_274\n      swap2\n      swap1\n      tag_114\n      jump\t// in\n    tag_274:\n      swap1\n      dup2\n      mstore\n      0x20\n      add\n      mload(0x40)\n      dup1\n      swap2\n      sub\n      swap1\n      keccak256\n        /* \"Contracts/Lending.sol\":4312:4332  return Users[userId] */\n      mload(0x40)\n      dup1\n      0xa0\n      add\n      0x40\n      mstore\n      swap1\n      dup2\n      0x00\n      dup3\n      add\n      dup1\n      sload\n      tag_275\n      swap1\n      tag_95\n      jump\t// in\n    tag_275:\n      dup1\n      0x1f\n      add\n      0x20\n      dup1\n      swap2\n      div\n      mul\n      0x20\n      add\n      mload(0x40)\n      swap1\n      dup2\n      add\n      0x40\n      mstore\n      dup1\n      swap3\n      swap2\n      swap1\n      dup2\n      dup2\n      mstore\n      0x20\n      add\n      dup3\n      dup1\n      sload\n      tag_276\n      swap1\n      tag_95\n      jump\t// in\n    tag_276:\n      dup1\n      iszero\n      tag_277\n      jumpi\n      dup1\n      0x1f\n      lt\n      tag_278\n      jumpi\n      0x0100\n      dup1\n      dup4\n      sload\n      div\n      mul\n      dup4\n      mstore\n      swap2\n      0x20\n      add\n      swap2\n      jump(tag_277)\n    tag_278:\n      dup3\n      add\n      swap2\n      swap1\n      0x00\n      mstore\n      keccak256(0x00, 0x20)\n      swap1\n    tag_279:\n      dup2\n      sload\n      dup2\n      mstore\n      swap1\n      0x01\n      add\n      swap1\n      0x20\n      add\n      dup1\n      dup4\n      gt\n      tag_279\n      jumpi\n      dup3\n      swap1\n      sub\n      0x1f\n      and\n      dup3\n      add\n      swap2\n    tag_277:\n      pop\n      pop\n      pop\n      pop\n      pop\n      dup2\n      mstore\n      0x20\n      add\n      0x01\n      dup3\n      add\n      dup1\n      sload\n      tag_280\n      swap1\n      tag_95\n      jump\t// in\n    tag_280:\n      dup1\n      0x1f\n      add\n      0x20\n      dup1\n      swap2\n      div\n      mul\n      0x20\n      add\n      mload(0x40)\n      swap1\n      dup2\n      add\n      0x40\n      mstore\n      dup1\n      swap3\n      swap2\n      swap1\n      dup2\n      dup2\n      mstore\n      0x20\n      add\n      dup3\n      dup1\n      sload\n      tag_281\n      swap1\n      tag_95\n      jump\t// in\n    tag_281:\n      dup1\n      iszero\n      tag_282\n      jumpi\n      dup1\n      0x1f\n      lt\n      tag_283\n      jumpi\n      0x0100\n      dup1\n      dup4\n      sload\n      div\n      mul\n      dup4\n      mstore\n      swap2\n      0x20\n      add\n      swap2\n      jump(tag_282)\n    tag_283:\n      dup3\n      add\n      swap2\n      swap1\n      0x00\n      mstore\n      keccak256(0x00, 0x20)\n      swap1\n    tag_284:\n      dup2\n      sload\n      dup2\n      mstore\n      swap1\n      0x01\n      add\n      swap1\n      0x20\n      add\n      dup1\n      dup4\n      gt\n      tag_284\n      jumpi\n      dup3\n      swap1\n      sub\n      0x1f\n      and\n      dup3\n      add\n      swap2\n    tag_282:\n      pop\n      pop\n      pop\n      pop\n      pop\n      dup2\n      mstore\n      0x20\n      add\n      0x02\n      dup3\n      add\n      dup1\n      sload\n      tag_285\n      swap1\n      tag_95\n      jump\t// in\n    tag_285:\n      dup1\n      0x1f\n      add\n      0x20\n      dup1\n      swap2\n      div\n      mul\n      0x20\n      add\n      mload(0x40)\n      swap1\n      dup2\n      add\n      0x40\n      mstore\n      dup1\n      swap3\n      swap2\n      swap1\n      dup2\n      dup2\n      mstore\n      0x20\n      add\n      dup3\n      dup1\n      sload\n      tag_286\n      swap1\n      tag_95\n      jump\t// in\n    tag_286:\n      dup1\n      iszero\n      tag_287\n      jumpi\n      dup1\n      0x1f\n      lt\n      tag_288\n      jumpi\n      0x0100\n      dup1\n      dup4\n      sload\n      div\n      mul\n      dup4\n      mstore\n      swap2\n      0x20\n      add\n      swap2\n      jump(tag_287)\n    tag_288:\n      dup3\n      add\n      swap2\n      swap1\n      0x00\n      mstore\n      keccak256(0x00, 0x20)\n      swap1\n    tag_289:\n      dup2\n      sload\n      dup2\n      mstore\n      swap1\n      0x01\n      add\n      swap1\n      0x20\n      add\n      dup1\n      dup4\n      gt\n      tag_289\n      jumpi\n      dup3\n      swap1\n      sub\n      0x1f\n      and\n      dup3\n      add\n      swap2\n    tag_287:\n      pop\n      pop\n      pop\n      pop\n      pop\n      dup2\n      mstore\n      0x20\n      add\n      0x03\n      dup3\n      add\n      dup1\n      sload\n      dup1\n      0x20\n      mul\n      0x20\n      add\n      mload(0x40)\n      swap1\n      dup2\n      add\n      0x40\n      mstore\n      dup1\n      swap3\n      swap2\n      swap1\n      dup2\n      dup2\n      mstore\n      0x20\n      add\n      0x00\n      swap1\n    tag_290:\n      dup3\n      dup3\n      lt\n      iszero\n      tag_291\n      jumpi\n      dup4\n      dup3\n      swap1\n      0x00\n      mstore\n      keccak256(0x00, 0x20)\n      add\n      dup1\n      sload\n      tag_293\n      swap1\n      tag_95\n      jump\t// in\n    tag_293:\n      dup1\n      0x1f\n      add\n      0x20\n      dup1\n      swap2\n      div\n      mul\n      0x20\n      add\n      mload(0x40)\n      swap1\n      dup2\n      add\n      0x40\n      mstore\n      dup1\n      swap3\n      swap2\n      swap1\n      dup2\n      dup2\n      mstore\n      0x20\n      add\n      dup3\n      dup1\n      sload\n      tag_294\n      swap1\n      tag_95\n      jump\t// in\n    tag_294:\n      dup1\n      iszero\n      tag_295\n      jumpi\n      dup1\n      0x1f\n      lt\n      tag_296\n      jumpi\n      0x0100\n      dup1\n      dup4\n      sload\n      div\n      mul\n      dup4\n      mstore\n      swap2\n      0x20\n      add\n      swap2\n      jump(tag_295)\n    tag_296:\n      dup3\n      add\n      swap2\n      swap1\n      0x00\n      mstore\n      keccak256(0x00, 0x20)\n      swap1\n    tag_297:\n      dup2\n      sload\n      dup2\n      mstore\n      swap1\n      0x01\n      add\n      swap1\n      0x20\n      add\n      dup1\n      dup4\n      gt\n      tag_297\n      jumpi\n      dup3\n      swap1\n      sub\n      0x1f\n      and\n      dup3\n      add\n      swap2\n    tag_295:\n      pop\n      pop\n      pop\n      pop\n      pop\n      dup2\n      mstore\n      0x20\n      add\n      swap1\n      0x01\n      add\n      swap1\n      jump(tag_290)\n    tag_291:\n      pop\n      pop\n      pop\n      pop\n      dup2\n      mstore\n      0x20\n      add\n      0x04\n      dup3\n      add\n      dup1\n      sload\n      dup1\n      0x20\n      mul\n      0x20\n      add\n      mload(0x40)\n      swap1\n      dup2\n      add\n      0x40\n      mstore\n      dup1\n      swap3\n      swap2\n      swap1\n      dup2\n      dup2\n      mstore\n      0x20\n      add\n      dup3\n      dup1\n      sload\n      dup1\n      iszero\n      tag_298\n      jumpi\n      0x20\n      mul\n      dup3\n      add\n      swap2\n      swap1\n      0x00\n      mstore\n      keccak256(0x00, 0x20)\n      swap1\n    tag_299:\n      dup2\n      sload\n      dup2\n      mstore\n      0x20\n      add\n      swap1\n      0x01\n      add\n      swap1\n      dup1\n      dup4\n      gt\n      tag_299\n      jumpi\n    tag_298:\n      pop\n      pop\n      pop\n      pop\n      pop\n      dup2\n      mstore\n      pop\n      pop\n      swap2\n      pop\n      pop\n        /* \"Contracts/Lending.sol\":4171:4339  function getUserByLens(string memory lens) public view returns (User memory) {... */\n      swap2\n      swap1\n      pop\n      jump\t// out\n        /* \"Contracts/Lending.sol\":2024:2650  function doesKeyExist(string memory key, string memory variable) public view returns (bool) {... */\n    tag_82:\n        /* \"Contracts/Lending.sol\":2110:2114  bool */\n      0x00\n        /* \"Contracts/Lending.sol\":2131:2170  compareStrings(variable, 'userWallets') */\n      tag_301\n        /* \"Contracts/Lending.sol\":2146:2154  variable */\n      dup3\n        /* \"Contracts/Lending.sol\":2131:2170  compareStrings(variable, 'userWallets') */\n      mload(0x40)\n      dup1\n      0x40\n      add\n      0x40\n      mstore\n      dup1\n      0x0b\n      dup2\n      mstore\n      0x20\n      add\n      0x7573657257616c6c657473000000000000000000000000000000000000000000\n      dup2\n      mstore\n      pop\n        /* \"Contracts/Lending.sol\":2131:2145  compareStrings */\n      tag_73\n        /* \"Contracts/Lending.sol\":2131:2170  compareStrings(variable, 'userWallets') */\n      jump\t// in\n    tag_301:\n        /* \"Contracts/Lending.sol\":2127:2284  if (compareStrings(variable, 'userWallets')) {... */\n      iszero\n      tag_302\n      jumpi\n        /* \"Contracts/Lending.sol\":2252:2272  abi.encodePacked(\"\") */\n      add(0x20, mload(0x40))\n      tag_303\n      swap1\n      tag_304\n      jump\t// in\n    tag_303:\n      mload(0x40)\n      0x20\n      dup2\n      dup4\n      sub\n      sub\n      dup2\n      mstore\n      swap1\n      0x40\n      mstore\n        /* \"Contracts/Lending.sol\":2242:2273  keccak256(abi.encodePacked(\"\")) */\n      dup1\n      mload\n      swap1\n      0x20\n      add\n      keccak256\n        /* \"Contracts/Lending.sol\":2220:2231  UserWallets */\n      0x09\n        /* \"Contracts/Lending.sol\":2232:2235  key */\n      dup5\n        /* \"Contracts/Lending.sol\":2220:2236  UserWallets[key] */\n      mload(0x40)\n      tag_305\n      swap2\n      swap1\n      tag_114\n      jump\t// in\n    tag_305:\n      swap1\n      dup2\n      mstore\n      0x20\n      add\n      mload(0x40)\n      dup1\n      swap2\n      sub\n      swap1\n      keccak256\n        /* \"Contracts/Lending.sol\":2203:2237  abi.encodePacked(UserWallets[key]) */\n      add(0x20, mload(0x40))\n      tag_306\n      swap2\n      swap1\n      tag_307\n      jump\t// in\n    tag_306:\n      mload(0x40)\n      0x20\n      dup2\n      dup4\n      sub\n      sub\n      dup2\n      mstore\n      swap1\n      0x40\n      mstore\n        /* \"Contracts/Lending.sol\":2193:2238  keccak256(abi.encodePacked(UserWallets[key])) */\n      dup1\n      mload\n      swap1\n      0x20\n      add\n      keccak256\n        /* \"Contracts/Lending.sol\":2193:2273  keccak256(abi.encodePacked(UserWallets[key])) != keccak256(abi.encodePacked(\"\")) */\n      eq\n      iszero\n        /* \"Contracts/Lending.sol\":2186:2273  return keccak256(abi.encodePacked(UserWallets[key])) != keccak256(abi.encodePacked(\"\")) */\n      swap1\n      pop\n      jump(tag_300)\n        /* \"Contracts/Lending.sol\":2127:2284  if (compareStrings(variable, 'userWallets')) {... */\n    tag_302:\n        /* \"Contracts/Lending.sol\":2298:2334  compareStrings(variable, 'userLens') */\n      tag_308\n        /* \"Contracts/Lending.sol\":2313:2321  variable */\n      dup3\n        /* \"Contracts/Lending.sol\":2298:2334  compareStrings(variable, 'userLens') */\n      mload(0x40)\n      dup1\n      0x40\n      add\n      0x40\n      mstore\n      dup1\n      0x08\n      dup2\n      mstore\n      0x20\n      add\n      0x757365724c656e73000000000000000000000000000000000000000000000000\n      dup2\n      mstore\n      pop\n        /* \"Contracts/Lending.sol\":2298:2312  compareStrings */\n      tag_73\n        /* \"Contracts/Lending.sol\":2298:2334  compareStrings(variable, 'userLens') */\n      jump\t// in\n    tag_308:\n        /* \"Contracts/Lending.sol\":2294:2452  if (compareStrings(variable, 'userLens')) {... */\n      iszero\n      tag_309\n      jumpi\n        /* \"Contracts/Lending.sol\":2420:2440  abi.encodePacked(\"\") */\n      add(0x20, mload(0x40))\n      tag_310\n      swap1\n      tag_304\n      jump\t// in\n    tag_310:\n      mload(0x40)\n      0x20\n      dup2\n      dup4\n      sub\n      sub\n      dup2\n      mstore\n      swap1\n      0x40\n      mstore\n        /* \"Contracts/Lending.sol\":2410:2441  keccak256(abi.encodePacked(\"\")) */\n      dup1\n      mload\n      swap1\n      0x20\n      add\n      keccak256\n        /* \"Contracts/Lending.sol\":2384:2399  UserLensHandles */\n      0x0a\n        /* \"Contracts/Lending.sol\":2400:2403  key */\n      dup5\n        /* \"Contracts/Lending.sol\":2384:2404  UserLensHandles[key] */\n      mload(0x40)\n      tag_311\n      swap2\n      swap1\n      tag_114\n      jump\t// in\n    tag_311:\n      swap1\n      dup2\n      mstore\n      0x20\n      add\n      mload(0x40)\n      dup1\n      swap2\n      sub\n      swap1\n      keccak256\n        /* \"Contracts/Lending.sol\":2367:2405  abi.encodePacked(UserLensHandles[key]) */\n      add(0x20, mload(0x40))\n      tag_312\n      swap2\n      swap1\n      tag_307\n      jump\t// in\n    tag_312:\n      mload(0x40)\n      0x20\n      dup2\n      dup4\n      sub\n      sub\n      dup2\n      mstore\n      swap1\n      0x40\n      mstore\n        /* \"Contracts/Lending.sol\":2357:2406  keccak256(abi.encodePacked(UserLensHandles[key])) */\n      dup1\n      mload\n      swap1\n      0x20\n      add\n      keccak256\n        /* \"Contracts/Lending.sol\":2357:2441  keccak256(abi.encodePacked(UserLensHandles[key])) != keccak256(abi.encodePacked(\"\")) */\n      eq\n      iszero\n        /* \"Contracts/Lending.sol\":2350:2441  return keccak256(abi.encodePacked(UserLensHandles[key])) != keccak256(abi.encodePacked(\"\")) */\n      swap1\n      pop\n      jump(tag_300)\n        /* \"Contracts/Lending.sol\":2294:2452  if (compareStrings(variable, 'userLens')) {... */\n    tag_309:\n        /* \"Contracts/Lending.sol\":2466:2502  compareStrings(variable, 'userWCID') */\n      tag_313\n        /* \"Contracts/Lending.sol\":2481:2489  variable */\n      dup3\n        /* \"Contracts/Lending.sol\":2466:2502  compareStrings(variable, 'userWCID') */\n      mload(0x40)\n      dup1\n      0x40\n      add\n      0x40\n      mstore\n      dup1\n      0x08\n      dup2\n      mstore\n      0x20\n      add\n      0x7573657257434944000000000000000000000000000000000000000000000000\n      dup2\n      mstore\n      pop\n        /* \"Contracts/Lending.sol\":2466:2480  compareStrings */\n      tag_73\n        /* \"Contracts/Lending.sol\":2466:2502  compareStrings(variable, 'userWCID') */\n      jump\t// in\n    tag_313:\n        /* \"Contracts/Lending.sol\":2462:2621  if (compareStrings(variable, 'userWCID')) {... */\n      iszero\n      tag_314\n      jumpi\n        /* \"Contracts/Lending.sol\":2589:2609  abi.encodePacked(\"\") */\n      add(0x20, mload(0x40))\n      tag_315\n      swap1\n      tag_304\n      jump\t// in\n    tag_315:\n      mload(0x40)\n      0x20\n      dup2\n      dup4\n      sub\n      sub\n      dup2\n      mstore\n      swap1\n      0x40\n      mstore\n        /* \"Contracts/Lending.sol\":2579:2610  keccak256(abi.encodePacked(\"\")) */\n      dup1\n      mload\n      swap1\n      0x20\n      add\n      keccak256\n        /* \"Contracts/Lending.sol\":2552:2568  UserWorldCoinIds */\n      0x08\n        /* \"Contracts/Lending.sol\":2569:2572  key */\n      dup5\n        /* \"Contracts/Lending.sol\":2552:2573  UserWorldCoinIds[key] */\n      mload(0x40)\n      tag_316\n      swap2\n      swap1\n      tag_114\n      jump\t// in\n    tag_316:\n      swap1\n      dup2\n      mstore\n      0x20\n      add\n      mload(0x40)\n      dup1\n      swap2\n      sub\n      swap1\n      keccak256\n        /* \"Contracts/Lending.sol\":2535:2574  abi.encodePacked(UserWorldCoinIds[key]) */\n      add(0x20, mload(0x40))\n      tag_317\n      swap2\n      swap1\n      tag_307\n      jump\t// in\n    tag_317:\n      mload(0x40)\n      0x20\n      dup2\n      dup4\n      sub\n      sub\n      dup2\n      mstore\n      swap1\n      0x40\n      mstore\n        /* \"Contracts/Lending.sol\":2525:2575  keccak256(abi.encodePacked(UserWorldCoinIds[key])) */\n      dup1\n      mload\n      swap1\n      0x20\n      add\n      keccak256\n        /* \"Contracts/Lending.sol\":2525:2610  keccak256(abi.encodePacked(UserWorldCoinIds[key])) != keccak256(abi.encodePacked(\"\")) */\n      eq\n      iszero\n        /* \"Contracts/Lending.sol\":2518:2610  return keccak256(abi.encodePacked(UserWorldCoinIds[key])) != keccak256(abi.encodePacked(\"\")) */\n      swap1\n      pop\n      jump(tag_300)\n        /* \"Contracts/Lending.sol\":2462:2621  if (compareStrings(variable, 'userWCID')) {... */\n    tag_314:\n        /* \"Contracts/Lending.sol\":2638:2643  false */\n      0x00\n        /* \"Contracts/Lending.sol\":2631:2643  return false */\n      swap1\n      pop\n        /* \"Contracts/Lending.sol\":2024:2650  function doesKeyExist(string memory key, string memory variable) public view returns (bool) {... */\n    tag_300:\n      swap3\n      swap2\n      pop\n      pop\n      jump\t// out\n        /* \"Contracts/Lending.sol\":816:857  mapping (uint => Product) public Products */\n    tag_87:\n      mstore(0x20, 0x03)\n      dup1\n      0x00\n      mstore\n      keccak256(0x00, 0x40)\n      0x00\n      swap2\n      pop\n      swap1\n      pop\n      dup1\n      0x00\n      add\n      dup1\n      sload\n      tag_318\n      swap1\n      tag_95\n      jump\t// in\n    tag_318:\n      dup1\n      0x1f\n      add\n      0x20\n      dup1\n      swap2\n      div\n      mul\n      0x20\n      add\n      mload(0x40)\n      swap1\n      dup2\n      add\n      0x40\n      mstore\n      dup1\n      swap3\n      swap2\n      swap1\n      dup2\n      dup2\n      mstore\n      0x20\n      add\n      dup3\n      dup1\n      sload\n      tag_319\n      swap1\n      tag_95\n      jump\t// in\n    tag_319:\n      dup1\n      iszero\n      tag_320\n      jumpi\n      dup1\n      0x1f\n      lt\n      tag_321\n      jumpi\n      0x0100\n      dup1\n      dup4\n      sload\n      div\n      mul\n      dup4\n      mstore\n      swap2\n      0x20\n      add\n      swap2\n      jump(tag_320)\n    tag_321:\n      dup3\n      add\n      swap2\n      swap1\n      0x00\n      mstore\n      keccak256(0x00, 0x20)\n      swap1\n    tag_322:\n      dup2\n      sload\n      dup2\n      mstore\n      swap1\n      0x01\n      add\n      swap1\n      0x20\n      add\n      dup1\n      dup4\n      gt\n      tag_322\n      jumpi\n      dup3\n      swap1\n      sub\n      0x1f\n      and\n      dup3\n      add\n      swap2\n    tag_320:\n      pop\n      pop\n      pop\n      pop\n      pop\n      swap1\n      dup1\n      0x01\n      add\n      dup1\n      sload\n      tag_323\n      swap1\n      tag_95\n      jump\t// in\n    tag_323:\n      dup1\n      0x1f\n      add\n      0x20\n      dup1\n      swap2\n      div\n      mul\n      0x20\n      add\n      mload(0x40)\n      swap1\n      dup2\n      add\n      0x40\n      mstore\n      dup1\n      swap3\n      swap2\n      swap1\n      dup2\n      dup2\n      mstore\n      0x20\n      add\n      dup3\n      dup1\n      sload\n      tag_324\n      swap1\n      tag_95\n      jump\t// in\n    tag_324:\n      dup1\n      iszero\n      tag_325\n      jumpi\n      dup1\n      0x1f\n      lt\n      tag_326\n      jumpi\n      0x0100\n      dup1\n      dup4\n      sload\n      div\n      mul\n      dup4\n      mstore\n      swap2\n      0x20\n      add\n      swap2\n      jump(tag_325)\n    tag_326:\n      dup3\n      add\n      swap2\n      swap1\n      0x00\n      mstore\n      keccak256(0x00, 0x20)\n      swap1\n    tag_327:\n      dup2\n      sload\n      dup2\n      mstore\n      swap1\n      0x01\n      add\n      swap1\n      0x20\n      add\n      dup1\n      dup4\n      gt\n      tag_327\n      jumpi\n      dup3\n      swap1\n      sub\n      0x1f\n      and\n      dup3\n      add\n      swap2\n    tag_325:\n      pop\n      pop\n      pop\n      pop\n      pop\n      swap1\n      dup1\n      0x02\n      add\n      dup1\n      sload\n      tag_328\n      swap1\n      tag_95\n      jump\t// in\n    tag_328:\n      dup1\n      0x1f\n      add\n      0x20\n      dup1\n      swap2\n      div\n      mul\n      0x20\n      add\n      mload(0x40)\n      swap1\n      dup2\n      add\n      0x40\n      mstore\n      dup1\n      swap3\n      swap2\n      swap1\n      dup2\n      dup2\n      mstore\n      0x20\n      add\n      dup3\n      dup1\n      sload\n      tag_329\n      swap1\n      tag_95\n      jump\t// in\n    tag_329:\n      dup1\n      iszero\n      tag_330\n      jumpi\n      dup1\n      0x1f\n      lt\n      tag_331\n      jumpi\n      0x0100\n      dup1\n      dup4\n      sload\n      div\n      mul\n      dup4\n      mstore\n      swap2\n      0x20\n      add\n      swap2\n      jump(tag_330)\n    tag_331:\n      dup3\n      add\n      swap2\n      swap1\n      0x00\n      mstore\n      keccak256(0x00, 0x20)\n      swap1\n    tag_332:\n      dup2\n      sload\n      dup2\n      mstore\n      swap1\n      0x01\n      add\n      swap1\n      0x20\n      add\n      dup1\n      dup4\n      gt\n      tag_332\n      jumpi\n      dup3\n      swap1\n      sub\n      0x1f\n      and\n      dup3\n      add\n      swap2\n    tag_330:\n      pop\n      pop\n      pop\n      pop\n      pop\n      swap1\n      dup1\n      0x03\n      add\n      dup1\n      sload\n      tag_333\n      swap1\n      tag_95\n      jump\t// in\n    tag_333:\n      dup1\n      0x1f\n      add\n      0x20\n      dup1\n      swap2\n      div\n      mul\n      0x20\n      add\n      mload(0x40)\n      swap1\n      dup2\n      add\n      0x40\n      mstore\n      dup1\n      swap3\n      swap2\n      swap1\n      dup2\n      dup2\n      mstore\n      0x20\n      add\n      dup3\n      dup1\n      sload\n      tag_334\n      swap1\n      tag_95\n      jump\t// in\n    tag_334:\n      dup1\n      iszero\n      tag_335\n      jumpi\n      dup1\n      0x1f\n      lt\n      tag_336\n      jumpi\n      0x0100\n      dup1\n      dup4\n      sload\n      div\n      mul\n      dup4\n      mstore\n      swap2\n      0x20\n      add\n      swap2\n      jump(tag_335)\n    tag_336:\n      dup3\n      add\n      swap2\n      swap1\n      0x00\n      mstore\n      keccak256(0x00, 0x20)\n      swap1\n    tag_337:\n      dup2\n      sload\n      dup2\n      mstore\n      swap1\n      0x01\n      add\n      swap1\n      0x20\n      add\n      dup1\n      dup4\n      gt\n      tag_337\n      jumpi\n      dup3\n      swap1\n      sub\n      0x1f\n      and\n      dup3\n      add\n      swap2\n    tag_335:\n      pop\n      pop\n      pop\n      pop\n      pop\n      swap1\n      dup1\n      0x04\n      add\n      dup1\n      sload\n      tag_338\n      swap1\n      tag_95\n      jump\t// in\n    tag_338:\n      dup1\n      0x1f\n      add\n      0x20\n      dup1\n      swap2\n      div\n      mul\n      0x20\n      add\n      mload(0x40)\n      swap1\n      dup2\n      add\n      0x40\n      mstore\n      dup1\n      swap3\n      swap2\n      swap1\n      dup2\n      dup2\n      mstore\n      0x20\n      add\n      dup3\n      dup1\n      sload\n      tag_339\n      swap1\n      tag_95\n      jump\t// in\n    tag_339:\n      dup1\n      iszero\n      tag_340\n      jumpi\n      dup1\n      0x1f\n      lt\n      tag_341\n      jumpi\n      0x0100\n      dup1\n      dup4\n      sload\n      div\n      mul\n      dup4\n      mstore\n      swap2\n      0x20\n      add\n      swap2\n      jump(tag_340)\n    tag_341:\n      dup3\n      add\n      swap2\n      swap1\n      0x00\n      mstore\n      keccak256(0x00, 0x20)\n      swap1\n    tag_342:\n      dup2\n      sload\n      dup2\n      mstore\n      swap1\n      0x01\n      add\n      swap1\n      0x20\n      add\n      dup1\n      dup4\n      gt\n      tag_342\n      jumpi\n      dup3\n      swap1\n      sub\n      0x1f\n      and\n      dup3\n      add\n      swap2\n    tag_340:\n      pop\n      pop\n      pop\n      pop\n      pop\n      swap1\n      dup1\n      0x05\n      add\n      sload\n      swap1\n      dup1\n      0x06\n      add\n      sload\n      swap1\n      dup1\n      0x07\n      add\n      dup1\n      sload\n      tag_343\n      swap1\n      tag_95\n      jump\t// in\n    tag_343:\n      dup1\n      0x1f\n      add\n      0x20\n      dup1\n      swap2\n      div\n      mul\n      0x20\n      add\n      mload(0x40)\n      swap1\n      dup2\n      add\n      0x40\n      mstore\n      dup1\n      swap3\n      swap2\n      swap1\n      dup2\n      dup2\n      mstore\n      0x20\n      add\n      dup3\n      dup1\n      sload\n      tag_344\n      swap1\n      tag_95\n      jump\t// in\n    tag_344:\n      dup1\n      iszero\n      tag_345\n      jumpi\n      dup1\n      0x1f\n      lt\n      tag_346\n      jumpi\n      0x0100\n      dup1\n      dup4\n      sload\n      div\n      mul\n      dup4\n      mstore\n      swap2\n      0x20\n      add\n      swap2\n      jump(tag_345)\n    tag_346:\n      dup3\n      add\n      swap2\n      swap1\n      0x00\n      mstore\n      keccak256(0x00, 0x20)\n      swap1\n    tag_347:\n      dup2\n      sload\n      dup2\n      mstore\n      swap1\n      0x01\n      add\n      swap1\n      0x20\n      add\n      dup1\n      dup4\n      gt\n      tag_347\n      jumpi\n      dup3\n      swap1\n      sub\n      0x1f\n      and\n      dup3\n      add\n      swap2\n    tag_345:\n      pop\n      pop\n      pop\n      pop\n      pop\n      swap1\n      pop\n      dup9\n      jump\t// out\n        /* \"Contracts/Lending.sol\":4345:4519  function getUserByWorldCoin(string memory WCID) public view returns (User memory) {... */\n    tag_92:\n        /* \"Contracts/Lending.sol\":4414:4425  User memory */\n      tag_348\n      tag_127\n      jump\t// in\n    tag_348:\n        /* \"Contracts/Lending.sol\":4437:4457  string memory userId */\n      0x00\n        /* \"Contracts/Lending.sol\":4460:4476  UserWorldCoinIds */\n      0x08\n        /* \"Contracts/Lending.sol\":4477:4481  WCID */\n      dup4\n        /* \"Contracts/Lending.sol\":4460:4482  UserWorldCoinIds[WCID] */\n      mload(0x40)\n      tag_350\n      swap2\n      swap1\n      tag_114\n      jump\t// in\n    tag_350:\n      swap1\n      dup2\n      mstore\n      0x20\n      add\n      mload(0x40)\n      dup1\n      swap2\n      sub\n      swap1\n      keccak256\n        /* \"Contracts/Lending.sol\":4437:4482  string memory userId = UserWorldCoinIds[WCID] */\n      dup1\n      sload\n      tag_351\n      swap1\n      tag_95\n      jump\t// in\n    tag_351:\n      dup1\n      0x1f\n      add\n      0x20\n      dup1\n      swap2\n      div\n      mul\n      0x20\n      add\n      mload(0x40)\n      swap1\n      dup2\n      add\n      0x40\n      mstore\n      dup1\n      swap3\n      swap2\n      swap1\n      dup2\n      dup2\n      mstore\n      0x20\n      add\n      dup3\n      dup1\n      sload\n      tag_352\n      swap1\n      tag_95\n      jump\t// in\n    tag_352:\n      dup1\n      iszero\n      tag_353\n      jumpi\n      dup1\n      0x1f\n      lt\n      tag_354\n      jumpi\n      0x0100\n      dup1\n      dup4\n      sload\n      div\n      mul\n      dup4\n      mstore\n      swap2\n      0x20\n      add\n      swap2\n      jump(tag_353)\n    tag_354:\n      dup3\n      add\n      swap2\n      swap1\n      0x00\n      mstore\n      keccak256(0x00, 0x20)\n      swap1\n    tag_355:\n      dup2\n      sload\n      dup2\n      mstore\n      swap1\n      0x01\n      add\n      swap1\n      0x20\n      add\n      dup1\n      dup4\n      gt\n      tag_355\n      jumpi\n      dup3\n      swap1\n      sub\n      0x1f\n      and\n      dup3\n      add\n      swap2\n    tag_353:\n      pop\n      pop\n      pop\n      pop\n      pop\n      swap1\n      pop\n        /* \"Contracts/Lending.sol\":4499:4504  Users */\n      0x04\n        /* \"Contracts/Lending.sol\":4505:4511  userId */\n      dup2\n        /* \"Contracts/Lending.sol\":4499:4512  Users[userId] */\n      mload(0x40)\n      tag_356\n      swap2\n      swap1\n      tag_114\n      jump\t// in\n    tag_356:\n      swap1\n      dup2\n      mstore\n      0x20\n      add\n      mload(0x40)\n      dup1\n      swap2\n      sub\n      swap1\n      keccak256\n        /* \"Contracts/Lending.sol\":4492:4512  return Users[userId] */\n      mload(0x40)\n      dup1\n      0xa0\n      add\n      0x40\n      mstore\n      swap1\n      dup2\n      0x00\n      dup3\n      add\n      dup1\n      sload\n      tag_357\n      swap1\n      tag_95\n      jump\t// in\n    tag_357:\n      dup1\n      0x1f\n      add\n      0x20\n      dup1\n      swap2\n      div\n      mul\n      0x20\n      add\n      mload(0x40)\n      swap1\n      dup2\n      add\n      0x40\n      mstore\n      dup1\n      swap3\n      swap2\n      swap1\n      dup2\n      dup2\n      mstore\n      0x20\n      add\n      dup3\n      dup1\n      sload\n      tag_358\n      swap1\n      tag_95\n      jump\t// in\n    tag_358:\n      dup1\n      iszero\n      tag_359\n      jumpi\n      dup1\n      0x1f\n      lt\n      tag_360\n      jumpi\n      0x0100\n      dup1\n      dup4\n      sload\n      div\n      mul\n      dup4\n      mstore\n      swap2\n      0x20\n      add\n      swap2\n      jump(tag_359)\n    tag_360:\n      dup3\n      add\n      swap2\n      swap1\n      0x00\n      mstore\n      keccak256(0x00, 0x20)\n      swap1\n    tag_361:\n      dup2\n      sload\n      dup2\n      mstore\n      swap1\n      0x01\n      add\n      swap1\n      0x20\n      add\n      dup1\n      dup4\n      gt\n      tag_361\n      jumpi\n      dup3\n      swap1\n      sub\n      0x1f\n      and\n      dup3\n      add\n      swap2\n    tag_359:\n      pop\n      pop\n      pop\n      pop\n      pop\n      dup2\n      mstore\n      0x20\n      add\n      0x01\n      dup3\n      add\n      dup1\n      sload\n      tag_362\n      swap1\n      tag_95\n      jump\t// in\n    tag_362:\n      dup1\n      0x1f\n      add\n      0x20\n      dup1\n      swap2\n      div\n      mul\n      0x20\n      add\n      mload(0x40)\n      swap1\n      dup2\n      add\n      0x40\n      mstore\n      dup1\n      swap3\n      swap2\n      swap1\n      dup2\n      dup2\n      mstore\n      0x20\n      add\n      dup3\n      dup1\n      sload\n      tag_363\n      swap1\n      tag_95\n      jump\t// in\n    tag_363:\n      dup1\n      iszero\n      tag_364\n      jumpi\n      dup1\n      0x1f\n      lt\n      tag_365\n      jumpi\n      0x0100\n      dup1\n      dup4\n      sload\n      div\n      mul\n      dup4\n      mstore\n      swap2\n      0x20\n      add\n      swap2\n      jump(tag_364)\n    tag_365:\n      dup3\n      add\n      swap2\n      swap1\n      0x00\n      mstore\n      keccak256(0x00, 0x20)\n      swap1\n    tag_366:\n      dup2\n      sload\n      dup2\n      mstore\n      swap1\n      0x01\n      add\n      swap1\n      0x20\n      add\n      dup1\n      dup4\n      gt\n      tag_366\n      jumpi\n      dup3\n      swap1\n      sub\n      0x1f\n      and\n      dup3\n      add\n      swap2\n    tag_364:\n      pop\n      pop\n      pop\n      pop\n      pop\n      dup2\n      mstore\n      0x20\n      add\n      0x02\n      dup3\n      add\n      dup1\n      sload\n      tag_367\n      swap1\n      tag_95\n      jump\t// in\n    tag_367:\n      dup1\n      0x1f\n      add\n      0x20\n      dup1\n      swap2\n      div\n      mul\n      0x20\n      add\n      mload(0x40)\n      swap1\n      dup2\n      add\n      0x40\n      mstore\n      dup1\n      swap3\n      swap2\n      swap1\n      dup2\n      dup2\n      mstore\n      0x20\n      add\n      dup3\n      dup1\n      sload\n      tag_368\n      swap1\n      tag_95\n      jump\t// in\n    tag_368:\n      dup1\n      iszero\n      tag_369\n      jumpi\n      dup1\n      0x1f\n      lt\n      tag_370\n      jumpi\n      0x0100\n      dup1\n      dup4\n      sload\n      div\n      mul\n      dup4\n      mstore\n      swap2\n      0x20\n      add\n      swap2\n      jump(tag_369)\n    tag_370:\n      dup3\n      add\n      swap2\n      swap1\n      0x00\n      mstore\n      keccak256(0x00, 0x20)\n      swap1\n    tag_371:\n      dup2\n      sload\n      dup2\n      mstore\n      swap1\n      0x01\n      add\n      swap1\n      0x20\n      add\n      dup1\n      dup4\n      gt\n      tag_371\n      jumpi\n      dup3\n      swap1\n      sub\n      0x1f\n      and\n      dup3\n      add\n      swap2\n    tag_369:\n      pop\n      pop\n      pop\n      pop\n      pop\n      dup2\n      mstore\n      0x20\n      add\n      0x03\n      dup3\n      add\n      dup1\n      sload\n      dup1\n      0x20\n      mul\n      0x20\n      add\n      mload(0x40)\n      swap1\n      dup2\n      add\n      0x40\n      mstore\n      dup1\n      swap3\n      swap2\n      swap1\n      dup2\n      dup2\n      mstore\n      0x20\n      add\n      0x00\n      swap1\n    tag_372:\n      dup3\n      dup3\n      lt\n      iszero\n      tag_373\n      jumpi\n      dup4\n      dup3\n      swap1\n      0x00\n      mstore\n      keccak256(0x00, 0x20)\n      add\n      dup1\n      sload\n      tag_375\n      swap1\n      tag_95\n      jump\t// in\n    tag_375:\n      dup1\n      0x1f\n      add\n      0x20\n      dup1\n      swap2\n      div\n      mul\n      0x20\n      add\n      mload(0x40)\n      swap1\n      dup2\n      add\n      0x40\n      mstore\n      dup1\n      swap3\n      swap2\n      swap1\n      dup2\n      dup2\n      mstore\n      0x20\n      add\n      dup3\n      dup1\n      sload\n      tag_376\n      swap1\n      tag_95\n      jump\t// in\n    tag_376:\n      dup1\n      iszero\n      tag_377\n      jumpi\n      dup1\n      0x1f\n      lt\n      tag_378\n      jumpi\n      0x0100\n      dup1\n      dup4\n      sload\n      div\n      mul\n      dup4\n      mstore\n      swap2\n      0x20\n      add\n      swap2\n      jump(tag_377)\n    tag_378:\n      dup3\n      add\n      swap2\n      swap1\n      0x00\n      mstore\n      keccak256(0x00, 0x20)\n      swap1\n    tag_379:\n      dup2\n      sload\n      dup2\n      mstore\n      swap1\n      0x01\n      add\n      swap1\n      0x20\n      add\n      dup1\n      dup4\n      gt\n      tag_379\n      jumpi\n      dup3\n      swap1\n      sub\n      0x1f\n      and\n      dup3\n      add\n      swap2\n    tag_377:\n      pop\n      pop\n      pop\n      pop\n      pop\n      dup2\n      mstore\n      0x20\n      add\n      swap1\n      0x01\n      add\n      swap1\n      jump(tag_372)\n    tag_373:\n      pop\n      pop\n      pop\n      pop\n      dup2\n      mstore\n      0x20\n      add\n      0x04\n      dup3\n      add\n      dup1\n      sload\n      dup1\n      0x20\n      mul\n      0x20\n      add\n      mload(0x40)\n      swap1\n      dup2\n      add\n      0x40\n      mstore\n      dup1\n      swap3\n      swap2\n      swap1\n      dup2\n      dup2\n      mstore\n      0x20\n      add\n      dup3\n      dup1\n      sload\n      dup1\n      iszero\n      tag_380\n      jumpi\n      0x20\n      mul\n      dup3\n      add\n      swap2\n      swap1\n      0x00\n      mstore\n      keccak256(0x00, 0x20)\n      swap1\n    tag_381:\n      dup2\n      sload\n      dup2\n      mstore\n      0x20\n      add\n      swap1\n      0x01\n      add\n      swap1\n      dup1\n      dup4\n      gt\n      tag_381\n      jumpi\n    tag_380:\n      pop\n      pop\n      pop\n      pop\n      pop\n      dup2\n      mstore\n      pop\n      pop\n      swap2\n      pop\n      pop\n        /* \"Contracts/Lending.sol\":4345:4519  function getUserByWorldCoin(string memory WCID) public view returns (User memory) {... */\n      swap2\n      swap1\n      pop\n      jump\t// out\n    tag_127:\n      mload(0x40)\n      dup1\n      0xa0\n      add\n      0x40\n      mstore\n      dup1\n      0x60\n      dup2\n      mstore\n      0x20\n      add\n      0x60\n      dup2\n      mstore\n      0x20\n      add\n      0x60\n      dup2\n      mstore\n      0x20\n      add\n      0x60\n      dup2\n      mstore\n      0x20\n      add\n      0x60\n      dup2\n      mstore\n      pop\n      swap1\n      jump\t// out\n    tag_162:\n      dup3\n      dup1\n      sload\n      dup3\n      dup3\n      sstore\n      swap1\n      0x00\n      mstore\n      keccak256(0x00, 0x20)\n      swap1\n      dup2\n      add\n      swap3\n      dup3\n      iszero\n      tag_382\n      jumpi\n      swap2\n      0x20\n      mul\n      dup3\n      add\n    tag_383:\n      dup3\n      dup2\n      gt\n      iszero\n      tag_384\n      jumpi\n      dup3\n      mload\n      dup3\n      swap1\n      dup2\n      tag_385\n      swap2\n      swap1\n      tag_116\n      jump\t// in\n    tag_385:\n      pop\n      swap2\n      0x20\n      add\n      swap2\n      swap1\n      0x01\n      add\n      swap1\n      jump(tag_383)\n    tag_384:\n    tag_382:\n      pop\n      swap1\n      pop\n      tag_386\n      swap2\n      swap1\n      tag_387\n      jump\t// in\n    tag_386:\n      pop\n      swap1\n      jump\t// out\n    tag_164:\n      dup3\n      dup1\n      sload\n      dup3\n      dup3\n      sstore\n      swap1\n      0x00\n      mstore\n      keccak256(0x00, 0x20)\n      swap1\n      dup2\n      add\n      swap3\n      dup3\n      iszero\n      tag_388\n      jumpi\n      swap2\n      0x20\n      mul\n      dup3\n      add\n    tag_389:\n      dup3\n      dup2\n      gt\n      iszero\n      tag_390\n      jumpi\n      dup3\n      mload\n      dup3\n      sstore\n      swap2\n      0x20\n      add\n      swap2\n      swap1\n      0x01\n      add\n      swap1\n      jump(tag_389)\n    tag_390:\n    tag_388:\n      pop\n      swap1\n      pop\n      tag_391\n      swap2\n      swap1\n      tag_392\n      jump\t// in\n    tag_391:\n      pop\n      swap1\n      jump\t// out\n    tag_387:\n    tag_393:\n      dup1\n      dup3\n      gt\n      iszero\n      tag_394\n      jumpi\n      0x00\n      dup2\n      dup2\n      tag_395\n      swap2\n      swap1\n      tag_396\n      jump\t// in\n    tag_395:\n      pop\n      0x01\n      add\n      jump(tag_393)\n    tag_394:\n      pop\n      swap1\n      jump\t// out\n    tag_392:\n    tag_397:\n      dup1\n      dup3\n      gt\n      iszero\n      tag_398\n      jumpi\n      0x00\n      dup2\n      0x00\n      swap1\n      sstore\n      pop\n      0x01\n      add\n      jump(tag_397)\n    tag_398:\n      pop\n      swap1\n      jump\t// out\n    tag_396:\n      pop\n      dup1\n      sload\n      tag_399\n      swap1\n      tag_95\n      jump\t// in\n    tag_399:\n      0x00\n      dup3\n      sstore\n      dup1\n      0x1f\n      lt\n      tag_401\n      jumpi\n      pop\n      jump(tag_400)\n    tag_401:\n      0x1f\n      add\n      0x20\n      swap1\n      div\n      swap1\n      0x00\n      mstore\n      keccak256(0x00, 0x20)\n      swap1\n      dup2\n      add\n      swap1\n      tag_402\n      swap2\n      swap1\n      tag_392\n      jump\t// in\n    tag_402:\n    tag_400:\n      pop\n      jump\t// out\n        /* \"#utility.yul\":7:82   */\n    tag_403:\n        /* \"#utility.yul\":40:46   */\n      0x00\n        /* \"#utility.yul\":73:75   */\n      0x40\n        /* \"#utility.yul\":67:76   */\n      mload\n        /* \"#utility.yul\":57:76   */\n      swap1\n      pop\n        /* \"#utility.yul\":7:82   */\n      swap1\n      jump\t// out\n        /* \"#utility.yul\":88:205   */\n    tag_404:\n        /* \"#utility.yul\":197:198   */\n      0x00\n        /* \"#utility.yul\":194:195   */\n      dup1\n        /* \"#utility.yul\":187:199   */\n      revert\n        /* \"#utility.yul\":211:328   */\n    tag_405:\n        /* \"#utility.yul\":320:321   */\n      0x00\n        /* \"#utility.yul\":317:318   */\n      dup1\n        /* \"#utility.yul\":310:322   */\n      revert\n        /* \"#utility.yul\":334:451   */\n    tag_406:\n        /* \"#utility.yul\":443:444   */\n      0x00\n        /* \"#utility.yul\":440:441   */\n      dup1\n        /* \"#utility.yul\":433:445   */\n      revert\n        /* \"#utility.yul\":457:574   */\n    tag_407:\n        /* \"#utility.yul\":566:567   */\n      0x00\n        /* \"#utility.yul\":563:564   */\n      dup1\n        /* \"#utility.yul\":556:568   */\n      revert\n        /* \"#utility.yul\":580:682   */\n    tag_408:\n        /* \"#utility.yul\":621:627   */\n      0x00\n        /* \"#utility.yul\":672:674   */\n      0x1f\n        /* \"#utility.yul\":668:675   */\n      not\n        /* \"#utility.yul\":663:665   */\n      0x1f\n        /* \"#utility.yul\":656:661   */\n      dup4\n        /* \"#utility.yul\":652:666   */\n      add\n        /* \"#utility.yul\":648:676   */\n      and\n        /* \"#utility.yul\":638:676   */\n      swap1\n      pop\n        /* \"#utility.yul\":580:682   */\n      swap2\n      swap1\n      pop\n      jump\t// out\n        /* \"#utility.yul\":688:868   */\n    tag_409:\n        /* \"#utility.yul\":736:813   */\n      0x4e487b7100000000000000000000000000000000000000000000000000000000\n        /* \"#utility.yul\":733:734   */\n      0x00\n        /* \"#utility.yul\":726:814   */\n      mstore\n        /* \"#utility.yul\":833:837   */\n      0x41\n        /* \"#utility.yul\":830:831   */\n      0x04\n        /* \"#utility.yul\":823:838   */\n      mstore\n        /* \"#utility.yul\":857:861   */\n      0x24\n        /* \"#utility.yul\":854:855   */\n      0x00\n        /* \"#utility.yul\":847:862   */\n      revert\n        /* \"#utility.yul\":874:1155   */\n    tag_410:\n        /* \"#utility.yul\":957:984   */\n      tag_480\n        /* \"#utility.yul\":979:983   */\n      dup3\n        /* \"#utility.yul\":957:984   */\n      tag_408\n      jump\t// in\n    tag_480:\n        /* \"#utility.yul\":949:955   */\n      dup2\n        /* \"#utility.yul\":945:985   */\n      add\n        /* \"#utility.yul\":1087:1093   */\n      dup2\n        /* \"#utility.yul\":1075:1085   */\n      dup2\n        /* \"#utility.yul\":1072:1094   */\n      lt\n        /* \"#utility.yul\":1051:1069   */\n      0xffffffffffffffff\n        /* \"#utility.yul\":1039:1049   */\n      dup3\n        /* \"#utility.yul\":1036:1070   */\n      gt\n        /* \"#utility.yul\":1033:1095   */\n      or\n        /* \"#utility.yul\":1030:1118   */\n      iszero\n      tag_481\n      jumpi\n        /* \"#utility.yul\":1098:1116   */\n      tag_482\n      tag_409\n      jump\t// in\n    tag_482:\n        /* \"#utility.yul\":1030:1118   */\n    tag_481:\n        /* \"#utility.yul\":1138:1148   */\n      dup1\n        /* \"#utility.yul\":1134:1136   */\n      0x40\n        /* \"#utility.yul\":1127:1149   */\n      mstore\n        /* \"#utility.yul\":917:1155   */\n      pop\n        /* \"#utility.yul\":874:1155   */\n      pop\n      pop\n      jump\t// out\n        /* \"#utility.yul\":1161:1290   */\n    tag_411:\n        /* \"#utility.yul\":1195:1201   */\n      0x00\n        /* \"#utility.yul\":1222:1242   */\n      tag_484\n      tag_403\n      jump\t// in\n    tag_484:\n        /* \"#utility.yul\":1212:1242   */\n      swap1\n      pop\n        /* \"#utility.yul\":1251:1284   */\n      tag_485\n        /* \"#utility.yul\":1279:1283   */\n      dup3\n        /* \"#utility.yul\":1271:1277   */\n      dup3\n        /* \"#utility.yul\":1251:1284   */\n      tag_410\n      jump\t// in\n    tag_485:\n        /* \"#utility.yul\":1161:1290   */\n      swap2\n      swap1\n      pop\n      jump\t// out\n        /* \"#utility.yul\":1296:1604   */\n    tag_412:\n        /* \"#utility.yul\":1358:1362   */\n      0x00\n        /* \"#utility.yul\":1448:1466   */\n      0xffffffffffffffff\n        /* \"#utility.yul\":1440:1446   */\n      dup3\n        /* \"#utility.yul\":1437:1467   */\n      gt\n        /* \"#utility.yul\":1434:1490   */\n      iszero\n      tag_487\n      jumpi\n        /* \"#utility.yul\":1470:1488   */\n      tag_488\n      tag_409\n      jump\t// in\n    tag_488:\n        /* \"#utility.yul\":1434:1490   */\n    tag_487:\n        /* \"#utility.yul\":1508:1537   */\n      tag_489\n        /* \"#utility.yul\":1530:1536   */\n      dup3\n        /* \"#utility.yul\":1508:1537   */\n      tag_408\n      jump\t// in\n    tag_489:\n        /* \"#utility.yul\":1500:1537   */\n      swap1\n      pop\n        /* \"#utility.yul\":1592:1596   */\n      0x20\n        /* \"#utility.yul\":1586:1590   */\n      dup2\n        /* \"#utility.yul\":1582:1597   */\n      add\n        /* \"#utility.yul\":1574:1597   */\n      swap1\n      pop\n        /* \"#utility.yul\":1296:1604   */\n      swap2\n      swap1\n      pop\n      jump\t// out\n        /* \"#utility.yul\":1610:1756   */\n    tag_413:\n        /* \"#utility.yul\":1707:1713   */\n      dup3\n        /* \"#utility.yul\":1702:1705   */\n      dup2\n        /* \"#utility.yul\":1697:1700   */\n      dup4\n        /* \"#utility.yul\":1684:1714   */\n      calldatacopy\n        /* \"#utility.yul\":1748:1749   */\n      0x00\n        /* \"#utility.yul\":1739:1745   */\n      dup4\n        /* \"#utility.yul\":1734:1737   */\n      dup4\n        /* \"#utility.yul\":1730:1746   */\n      add\n        /* \"#utility.yul\":1723:1750   */\n      mstore\n        /* \"#utility.yul\":1610:1756   */\n      pop\n      pop\n      pop\n      jump\t// out\n        /* \"#utility.yul\":1762:2187   */\n    tag_414:\n        /* \"#utility.yul\":1840:1845   */\n      0x00\n        /* \"#utility.yul\":1865:1931   */\n      tag_492\n        /* \"#utility.yul\":1881:1930   */\n      tag_493\n        /* \"#utility.yul\":1923:1929   */\n      dup5\n        /* \"#utility.yul\":1881:1930   */\n      tag_412\n      jump\t// in\n    tag_493:\n        /* \"#utility.yul\":1865:1931   */\n      tag_411\n      jump\t// in\n    tag_492:\n        /* \"#utility.yul\":1856:1931   */\n      swap1\n      pop\n        /* \"#utility.yul\":1954:1960   */\n      dup3\n        /* \"#utility.yul\":1947:1952   */\n      dup2\n        /* \"#utility.yul\":1940:1961   */\n      mstore\n        /* \"#utility.yul\":1992:1996   */\n      0x20\n        /* \"#utility.yul\":1985:1990   */\n      dup2\n        /* \"#utility.yul\":1981:1997   */\n      add\n        /* \"#utility.yul\":2030:2033   */\n      dup5\n        /* \"#utility.yul\":2021:2027   */\n      dup5\n        /* \"#utility.yul\":2016:2019   */\n      dup5\n        /* \"#utility.yul\":2012:2028   */\n      add\n        /* \"#utility.yul\":2009:2034   */\n      gt\n        /* \"#utility.yul\":2006:2118   */\n      iszero\n      tag_494\n      jumpi\n        /* \"#utility.yul\":2037:2116   */\n      tag_495\n      tag_407\n      jump\t// in\n    tag_495:\n        /* \"#utility.yul\":2006:2118   */\n    tag_494:\n        /* \"#utility.yul\":2127:2181   */\n      tag_496\n        /* \"#utility.yul\":2174:2180   */\n      dup5\n        /* \"#utility.yul\":2169:2172   */\n      dup3\n        /* \"#utility.yul\":2164:2167   */\n      dup6\n        /* \"#utility.yul\":2127:2181   */\n      tag_413\n      jump\t// in\n    tag_496:\n        /* \"#utility.yul\":1846:2187   */\n      pop\n        /* \"#utility.yul\":1762:2187   */\n      swap4\n      swap3\n      pop\n      pop\n      pop\n      jump\t// out\n        /* \"#utility.yul\":2207:2547   */\n    tag_415:\n        /* \"#utility.yul\":2263:2268   */\n      0x00\n        /* \"#utility.yul\":2312:2315   */\n      dup3\n        /* \"#utility.yul\":2305:2309   */\n      0x1f\n        /* \"#utility.yul\":2297:2303   */\n      dup4\n        /* \"#utility.yul\":2293:2310   */\n      add\n        /* \"#utility.yul\":2289:2316   */\n      slt\n        /* \"#utility.yul\":2279:2401   */\n      tag_498\n      jumpi\n        /* \"#utility.yul\":2320:2399   */\n      tag_499\n      tag_406\n      jump\t// in\n    tag_499:\n        /* \"#utility.yul\":2279:2401   */\n    tag_498:\n        /* \"#utility.yul\":2437:2443   */\n      dup2\n        /* \"#utility.yul\":2424:2444   */\n      calldataload\n        /* \"#utility.yul\":2462:2541   */\n      tag_500\n        /* \"#utility.yul\":2537:2540   */\n      dup5\n        /* \"#utility.yul\":2529:2535   */\n      dup3\n        /* \"#utility.yul\":2522:2526   */\n      0x20\n        /* \"#utility.yul\":2514:2520   */\n      dup7\n        /* \"#utility.yul\":2510:2527   */\n      add\n        /* \"#utility.yul\":2462:2541   */\n      tag_414\n      jump\t// in\n    tag_500:\n        /* \"#utility.yul\":2453:2541   */\n      swap2\n      pop\n        /* \"#utility.yul\":2269:2547   */\n      pop\n        /* \"#utility.yul\":2207:2547   */\n      swap3\n      swap2\n      pop\n      pop\n      jump\t// out\n        /* \"#utility.yul\":2553:3062   */\n    tag_25:\n        /* \"#utility.yul\":2622:2628   */\n      0x00\n        /* \"#utility.yul\":2671:2673   */\n      0x20\n        /* \"#utility.yul\":2659:2668   */\n      dup3\n        /* \"#utility.yul\":2650:2657   */\n      dup5\n        /* \"#utility.yul\":2646:2669   */\n      sub\n        /* \"#utility.yul\":2642:2674   */\n      slt\n        /* \"#utility.yul\":2639:2758   */\n      iszero\n      tag_502\n      jumpi\n        /* \"#utility.yul\":2677:2756   */\n      tag_503\n      tag_404\n      jump\t// in\n    tag_503:\n        /* \"#utility.yul\":2639:2758   */\n    tag_502:\n        /* \"#utility.yul\":2825:2826   */\n      0x00\n        /* \"#utility.yul\":2814:2823   */\n      dup3\n        /* \"#utility.yul\":2810:2827   */\n      add\n        /* \"#utility.yul\":2797:2828   */\n      calldataload\n        /* \"#utility.yul\":2855:2873   */\n      0xffffffffffffffff\n        /* \"#utility.yul\":2847:2853   */\n      dup2\n        /* \"#utility.yul\":2844:2874   */\n      gt\n        /* \"#utility.yul\":2841:2958   */\n      iszero\n      tag_504\n      jumpi\n        /* \"#utility.yul\":2877:2956   */\n      tag_505\n      tag_405\n      jump\t// in\n    tag_505:\n        /* \"#utility.yul\":2841:2958   */\n    tag_504:\n        /* \"#utility.yul\":2982:3045   */\n      tag_506\n        /* \"#utility.yul\":3037:3044   */\n      dup5\n        /* \"#utility.yul\":3028:3034   */\n      dup3\n        /* \"#utility.yul\":3017:3026   */\n      dup6\n        /* \"#utility.yul\":3013:3035   */\n      add\n        /* \"#utility.yul\":2982:3045   */\n      tag_415\n      jump\t// in\n    tag_506:\n        /* \"#utility.yul\":2972:3045   */\n      swap2\n      pop\n        /* \"#utility.yul\":2768:3055   */\n      pop\n        /* \"#utility.yul\":2553:3062   */\n      swap3\n      swap2\n      pop\n      pop\n      jump\t// out\n        /* \"#utility.yul\":3068:3167   */\n    tag_416:\n        /* \"#utility.yul\":3120:3126   */\n      0x00\n        /* \"#utility.yul\":3154:3159   */\n      dup2\n        /* \"#utility.yul\":3148:3160   */\n      mload\n        /* \"#utility.yul\":3138:3160   */\n      swap1\n      pop\n        /* \"#utility.yul\":3068:3167   */\n      swap2\n      swap1\n      pop\n      jump\t// out\n        /* \"#utility.yul\":3173:3342   */\n    tag_417:\n        /* \"#utility.yul\":3257:3268   */\n      0x00\n        /* \"#utility.yul\":3291:3297   */\n      dup3\n        /* \"#utility.yul\":3286:3289   */\n      dup3\n        /* \"#utility.yul\":3279:3298   */\n      mstore\n        /* \"#utility.yul\":3331:3335   */\n      0x20\n        /* \"#utility.yul\":3326:3329   */\n      dup3\n        /* \"#utility.yul\":3322:3336   */\n      add\n        /* \"#utility.yul\":3307:3336   */\n      swap1\n      pop\n        /* \"#utility.yul\":3173:3342   */\n      swap3\n      swap2\n      pop\n      pop\n      jump\t// out\n        /* \"#utility.yul\":3348:3594   */\n    tag_418:\n        /* \"#utility.yul\":3429:3430   */\n      0x00\n        /* \"#utility.yul\":3439:3552   */\n    tag_510:\n        /* \"#utility.yul\":3453:3459   */\n      dup4\n        /* \"#utility.yul\":3450:3451   */\n      dup2\n        /* \"#utility.yul\":3447:3460   */\n      lt\n        /* \"#utility.yul\":3439:3552   */\n      iszero\n      tag_512\n      jumpi\n        /* \"#utility.yul\":3538:3539   */\n      dup1\n        /* \"#utility.yul\":3533:3536   */\n      dup3\n        /* \"#utility.yul\":3529:3540   */\n      add\n        /* \"#utility.yul\":3523:3541   */\n      mload\n        /* \"#utility.yul\":3519:3520   */\n      dup2\n        /* \"#utility.yul\":3514:3517   */\n      dup5\n        /* \"#utility.yul\":3510:3521   */\n      add\n        /* \"#utility.yul\":3503:3542   */\n      mstore\n        /* \"#utility.yul\":3475:3477   */\n      0x20\n        /* \"#utility.yul\":3472:3473   */\n      dup2\n        /* \"#utility.yul\":3468:3478   */\n      add\n        /* \"#utility.yul\":3463:3478   */\n      swap1\n      pop\n        /* \"#utility.yul\":3439:3552   */\n      jump(tag_510)\n    tag_512:\n        /* \"#utility.yul\":3586:3587   */\n      0x00\n        /* \"#utility.yul\":3577:3583   */\n      dup5\n        /* \"#utility.yul\":3572:3575   */\n      dup5\n        /* \"#utility.yul\":3568:3584   */\n      add\n        /* \"#utility.yul\":3561:3588   */\n      mstore\n        /* \"#utility.yul\":3410:3594   */\n      pop\n        /* \"#utility.yul\":3348:3594   */\n      pop\n      pop\n      pop\n      jump\t// out\n        /* \"#utility.yul\":3600:3977   */\n    tag_419:\n        /* \"#utility.yul\":3688:3691   */\n      0x00\n        /* \"#utility.yul\":3716:3755   */\n      tag_514\n        /* \"#utility.yul\":3749:3754   */\n      dup3\n        /* \"#utility.yul\":3716:3755   */\n      tag_416\n      jump\t// in\n    tag_514:\n        /* \"#utility.yul\":3771:3842   */\n      tag_515\n        /* \"#utility.yul\":3835:3841   */\n      dup2\n        /* \"#utility.yul\":3830:3833   */\n      dup6\n        /* \"#utility.yul\":3771:3842   */\n      tag_417\n      jump\t// in\n    tag_515:\n        /* \"#utility.yul\":3764:3842   */\n      swap4\n      pop\n        /* \"#utility.yul\":3851:3916   */\n      tag_516\n        /* \"#utility.yul\":3909:3915   */\n      dup2\n        /* \"#utility.yul\":3904:3907   */\n      dup6\n        /* \"#utility.yul\":3897:3901   */\n      0x20\n        /* \"#utility.yul\":3890:3895   */\n      dup7\n        /* \"#utility.yul\":3886:3902   */\n      add\n        /* \"#utility.yul\":3851:3916   */\n      tag_418\n      jump\t// in\n    tag_516:\n        /* \"#utility.yul\":3941:3970   */\n      tag_517\n        /* \"#utility.yul\":3963:3969   */\n      dup2\n        /* \"#utility.yul\":3941:3970   */\n      tag_408\n      jump\t// in\n    tag_517:\n        /* \"#utility.yul\":3936:3939   */\n      dup5\n        /* \"#utility.yul\":3932:3971   */\n      add\n        /* \"#utility.yul\":3925:3971   */\n      swap2\n      pop\n        /* \"#utility.yul\":3692:3977   */\n      pop\n        /* \"#utility.yul\":3600:3977   */\n      swap3\n      swap2\n      pop\n      pop\n      jump\t// out\n        /* \"#utility.yul\":3983:4698   */\n    tag_28:\n        /* \"#utility.yul\":4192:4196   */\n      0x00\n        /* \"#utility.yul\":4230:4232   */\n      0x60\n        /* \"#utility.yul\":4219:4228   */\n      dup3\n        /* \"#utility.yul\":4215:4233   */\n      add\n        /* \"#utility.yul\":4207:4233   */\n      swap1\n      pop\n        /* \"#utility.yul\":4279:4288   */\n      dup2\n        /* \"#utility.yul\":4273:4277   */\n      dup2\n        /* \"#utility.yul\":4269:4289   */\n      sub\n        /* \"#utility.yul\":4265:4266   */\n      0x00\n        /* \"#utility.yul\":4254:4263   */\n      dup4\n        /* \"#utility.yul\":4250:4267   */\n      add\n        /* \"#utility.yul\":4243:4290   */\n      mstore\n        /* \"#utility.yul\":4307:4385   */\n      tag_519\n        /* \"#utility.yul\":4380:4384   */\n      dup2\n        /* \"#utility.yul\":4371:4377   */\n      dup7\n        /* \"#utility.yul\":4307:4385   */\n      tag_419\n      jump\t// in\n    tag_519:\n        /* \"#utility.yul\":4299:4385   */\n      swap1\n      pop\n        /* \"#utility.yul\":4432:4441   */\n      dup2\n        /* \"#utility.yul\":4426:4430   */\n      dup2\n        /* \"#utility.yul\":4422:4442   */\n      sub\n        /* \"#utility.yul\":4417:4419   */\n      0x20\n        /* \"#utility.yul\":4406:4415   */\n      dup4\n        /* \"#utility.yul\":4402:4420   */\n      add\n        /* \"#utility.yul\":4395:4443   */\n      mstore\n        /* \"#utility.yul\":4460:4538   */\n      tag_520\n        /* \"#utility.yul\":4533:4537   */\n      dup2\n        /* \"#utility.yul\":4524:4530   */\n      dup6\n        /* \"#utility.yul\":4460:4538   */\n      tag_419\n      jump\t// in\n    tag_520:\n        /* \"#utility.yul\":4452:4538   */\n      swap1\n      pop\n        /* \"#utility.yul\":4585:4594   */\n      dup2\n        /* \"#utility.yul\":4579:4583   */\n      dup2\n        /* \"#utility.yul\":4575:4595   */\n      sub\n        /* \"#utility.yul\":4570:4572   */\n      0x40\n        /* \"#utility.yul\":4559:4568   */\n      dup4\n        /* \"#utility.yul\":4555:4573   */\n      add\n        /* \"#utility.yul\":4548:4596   */\n      mstore\n        /* \"#utility.yul\":4613:4691   */\n      tag_521\n        /* \"#utility.yul\":4686:4690   */\n      dup2\n        /* \"#utility.yul\":4677:4683   */\n      dup5\n        /* \"#utility.yul\":4613:4691   */\n      tag_419\n      jump\t// in\n    tag_521:\n        /* \"#utility.yul\":4605:4691   */\n      swap1\n      pop\n        /* \"#utility.yul\":3983:4698   */\n      swap5\n      swap4\n      pop\n      pop\n      pop\n      pop\n      jump\t// out\n        /* \"#utility.yul\":4704:5538   */\n    tag_31:\n        /* \"#utility.yul\":4792:4798   */\n      0x00\n        /* \"#utility.yul\":4800:4806   */\n      dup1\n        /* \"#utility.yul\":4849:4851   */\n      0x40\n        /* \"#utility.yul\":4837:4846   */\n      dup4\n        /* \"#utility.yul\":4828:4835   */\n      dup6\n        /* \"#utility.yul\":4824:4847   */\n      sub\n        /* \"#utility.yul\":4820:4852   */\n      slt\n        /* \"#utility.yul\":4817:4936   */\n      iszero\n      tag_523\n      jumpi\n        /* \"#utility.yul\":4855:4934   */\n      tag_524\n      tag_404\n      jump\t// in\n    tag_524:\n        /* \"#utility.yul\":4817:4936   */\n    tag_523:\n        /* \"#utility.yul\":5003:5004   */\n      0x00\n        /* \"#utility.yul\":4992:5001   */\n      dup4\n        /* \"#utility.yul\":4988:5005   */\n      add\n        /* \"#utility.yul\":4975:5006   */\n      calldataload\n        /* \"#utility.yul\":5033:5051   */\n      0xffffffffffffffff\n        /* \"#utility.yul\":5025:5031   */\n      dup2\n        /* \"#utility.yul\":5022:5052   */\n      gt\n        /* \"#utility.yul\":5019:5136   */\n      iszero\n      tag_525\n      jumpi\n        /* \"#utility.yul\":5055:5134   */\n      tag_526\n      tag_405\n      jump\t// in\n    tag_526:\n        /* \"#utility.yul\":5019:5136   */\n    tag_525:\n        /* \"#utility.yul\":5160:5223   */\n      tag_527\n        /* \"#utility.yul\":5215:5222   */\n      dup6\n        /* \"#utility.yul\":5206:5212   */\n      dup3\n        /* \"#utility.yul\":5195:5204   */\n      dup7\n        /* \"#utility.yul\":5191:5213   */\n      add\n        /* \"#utility.yul\":5160:5223   */\n      tag_415\n      jump\t// in\n    tag_527:\n        /* \"#utility.yul\":5150:5223   */\n      swap3\n      pop\n        /* \"#utility.yul\":4946:5233   */\n      pop\n        /* \"#utility.yul\":5300:5302   */\n      0x20\n        /* \"#utility.yul\":5289:5298   */\n      dup4\n        /* \"#utility.yul\":5285:5303   */\n      add\n        /* \"#utility.yul\":5272:5304   */\n      calldataload\n        /* \"#utility.yul\":5331:5349   */\n      0xffffffffffffffff\n        /* \"#utility.yul\":5323:5329   */\n      dup2\n        /* \"#utility.yul\":5320:5350   */\n      gt\n        /* \"#utility.yul\":5317:5434   */\n      iszero\n      tag_528\n      jumpi\n        /* \"#utility.yul\":5353:5432   */\n      tag_529\n      tag_405\n      jump\t// in\n    tag_529:\n        /* \"#utility.yul\":5317:5434   */\n    tag_528:\n        /* \"#utility.yul\":5458:5521   */\n      tag_530\n        /* \"#utility.yul\":5513:5520   */\n      dup6\n        /* \"#utility.yul\":5504:5510   */\n      dup3\n        /* \"#utility.yul\":5493:5502   */\n      dup7\n        /* \"#utility.yul\":5489:5511   */\n      add\n        /* \"#utility.yul\":5458:5521   */\n      tag_415\n      jump\t// in\n    tag_530:\n        /* \"#utility.yul\":5448:5521   */\n      swap2\n      pop\n        /* \"#utility.yul\":5243:5531   */\n      pop\n        /* \"#utility.yul\":4704:5538   */\n      swap3\n      pop\n      swap3\n      swap1\n      pop\n      jump\t// out\n        /* \"#utility.yul\":5544:5703   */\n    tag_420:\n        /* \"#utility.yul\":5618:5629   */\n      0x00\n        /* \"#utility.yul\":5652:5658   */\n      dup3\n        /* \"#utility.yul\":5647:5650   */\n      dup3\n        /* \"#utility.yul\":5640:5659   */\n      mstore\n        /* \"#utility.yul\":5692:5696   */\n      0x20\n        /* \"#utility.yul\":5687:5690   */\n      dup3\n        /* \"#utility.yul\":5683:5697   */\n      add\n        /* \"#utility.yul\":5668:5697   */\n      swap1\n      pop\n        /* \"#utility.yul\":5544:5703   */\n      swap3\n      swap2\n      pop\n      pop\n      jump\t// out\n        /* \"#utility.yul\":5709:6066   */\n    tag_421:\n        /* \"#utility.yul\":5787:5790   */\n      0x00\n        /* \"#utility.yul\":5815:5854   */\n      tag_533\n        /* \"#utility.yul\":5848:5853   */\n      dup3\n        /* \"#utility.yul\":5815:5854   */\n      tag_416\n      jump\t// in\n    tag_533:\n        /* \"#utility.yul\":5870:5931   */\n      tag_534\n        /* \"#utility.yul\":5924:5930   */\n      dup2\n        /* \"#utility.yul\":5919:5922   */\n      dup6\n        /* \"#utility.yul\":5870:5931   */\n      tag_420\n      jump\t// in\n    tag_534:\n        /* \"#utility.yul\":5863:5931   */\n      swap4\n      pop\n        /* \"#utility.yul\":5940:6005   */\n      tag_535\n        /* \"#utility.yul\":5998:6004   */\n      dup2\n        /* \"#utility.yul\":5993:5996   */\n      dup6\n        /* \"#utility.yul\":5986:5990   */\n      0x20\n        /* \"#utility.yul\":5979:5984   */\n      dup7\n        /* \"#utility.yul\":5975:5991   */\n      add\n        /* \"#utility.yul\":5940:6005   */\n      tag_418\n      jump\t// in\n    tag_535:\n        /* \"#utility.yul\":6030:6059   */\n      tag_536\n        /* \"#utility.yul\":6052:6058   */\n      dup2\n        /* \"#utility.yul\":6030:6059   */\n      tag_408\n      jump\t// in\n    tag_536:\n        /* \"#utility.yul\":6025:6028   */\n      dup5\n        /* \"#utility.yul\":6021:6060   */\n      add\n        /* \"#utility.yul\":6014:6060   */\n      swap2\n      pop\n        /* \"#utility.yul\":5791:6066   */\n      pop\n        /* \"#utility.yul\":5709:6066   */\n      swap3\n      swap2\n      pop\n      pop\n      jump\t// out\n        /* \"#utility.yul\":6072:6196   */\n    tag_422:\n        /* \"#utility.yul\":6149:6155   */\n      0x00\n        /* \"#utility.yul\":6183:6188   */\n      dup2\n        /* \"#utility.yul\":6177:6189   */\n      mload\n        /* \"#utility.yul\":6167:6189   */\n      swap1\n      pop\n        /* \"#utility.yul\":6072:6196   */\n      swap2\n      swap1\n      pop\n      jump\t// out\n        /* \"#utility.yul\":6202:6386   */\n    tag_423:\n        /* \"#utility.yul\":6301:6312   */\n      0x00\n        /* \"#utility.yul\":6335:6341   */\n      dup3\n        /* \"#utility.yul\":6330:6333   */\n      dup3\n        /* \"#utility.yul\":6323:6342   */\n      mstore\n        /* \"#utility.yul\":6375:6379   */\n      0x20\n        /* \"#utility.yul\":6370:6373   */\n      dup3\n        /* \"#utility.yul\":6366:6380   */\n      add\n        /* \"#utility.yul\":6351:6380   */\n      swap1\n      pop\n        /* \"#utility.yul\":6202:6386   */\n      swap3\n      swap2\n      pop\n      pop\n      jump\t// out\n        /* \"#utility.yul\":6392:6534   */\n    tag_424:\n        /* \"#utility.yul\":6469:6473   */\n      0x00\n        /* \"#utility.yul\":6492:6495   */\n      dup2\n        /* \"#utility.yul\":6484:6495   */\n      swap1\n      pop\n        /* \"#utility.yul\":6522:6526   */\n      0x20\n        /* \"#utility.yul\":6517:6520   */\n      dup3\n        /* \"#utility.yul\":6513:6527   */\n      add\n        /* \"#utility.yul\":6505:6527   */\n      swap1\n      pop\n        /* \"#utility.yul\":6392:6534   */\n      swap2\n      swap1\n      pop\n      jump\t// out\n        /* \"#utility.yul\":6540:6736   */\n    tag_425:\n        /* \"#utility.yul\":6629:6639   */\n      0x00\n        /* \"#utility.yul\":6664:6730   */\n      tag_541\n        /* \"#utility.yul\":6726:6729   */\n      dup4\n        /* \"#utility.yul\":6718:6724   */\n      dup4\n        /* \"#utility.yul\":6664:6730   */\n      tag_421\n      jump\t// in\n    tag_541:\n        /* \"#utility.yul\":6650:6730   */\n      swap1\n      pop\n        /* \"#utility.yul\":6540:6736   */\n      swap3\n      swap2\n      pop\n      pop\n      jump\t// out\n        /* \"#utility.yul\":6742:6865   */\n    tag_426:\n        /* \"#utility.yul\":6822:6826   */\n      0x00\n        /* \"#utility.yul\":6854:6858   */\n      0x20\n        /* \"#utility.yul\":6849:6852   */\n      dup3\n        /* \"#utility.yul\":6845:6859   */\n      add\n        /* \"#utility.yul\":6837:6859   */\n      swap1\n      pop\n        /* \"#utility.yul\":6742:6865   */\n      swap2\n      swap1\n      pop\n      jump\t// out\n        /* \"#utility.yul\":6899:7870   */\n    tag_427:\n        /* \"#utility.yul\":7028:7031   */\n      0x00\n        /* \"#utility.yul\":7057:7121   */\n      tag_544\n        /* \"#utility.yul\":7115:7120   */\n      dup3\n        /* \"#utility.yul\":7057:7121   */\n      tag_422\n      jump\t// in\n    tag_544:\n        /* \"#utility.yul\":7137:7223   */\n      tag_545\n        /* \"#utility.yul\":7216:7222   */\n      dup2\n        /* \"#utility.yul\":7211:7214   */\n      dup6\n        /* \"#utility.yul\":7137:7223   */\n      tag_423\n      jump\t// in\n    tag_545:\n        /* \"#utility.yul\":7130:7223   */\n      swap4\n      pop\n        /* \"#utility.yul\":7249:7252   */\n      dup4\n        /* \"#utility.yul\":7294:7298   */\n      0x20\n        /* \"#utility.yul\":7286:7292   */\n      dup3\n        /* \"#utility.yul\":7282:7299   */\n      mul\n        /* \"#utility.yul\":7277:7280   */\n      dup6\n        /* \"#utility.yul\":7273:7300   */\n      add\n        /* \"#utility.yul\":7324:7390   */\n      tag_546\n        /* \"#utility.yul\":7384:7389   */\n      dup6\n        /* \"#utility.yul\":7324:7390   */\n      tag_424\n      jump\t// in\n    tag_546:\n        /* \"#utility.yul\":7413:7420   */\n      dup1\n        /* \"#utility.yul\":7444:7445   */\n      0x00\n        /* \"#utility.yul\":7429:7825   */\n    tag_547:\n        /* \"#utility.yul\":7454:7460   */\n      dup6\n        /* \"#utility.yul\":7451:7452   */\n      dup2\n        /* \"#utility.yul\":7448:7461   */\n      lt\n        /* \"#utility.yul\":7429:7825   */\n      iszero\n      tag_549\n      jumpi\n        /* \"#utility.yul\":7525:7534   */\n      dup5\n        /* \"#utility.yul\":7519:7523   */\n      dup5\n        /* \"#utility.yul\":7515:7535   */\n      sub\n        /* \"#utility.yul\":7510:7513   */\n      dup10\n        /* \"#utility.yul\":7503:7536   */\n      mstore\n        /* \"#utility.yul\":7576:7582   */\n      dup2\n        /* \"#utility.yul\":7570:7583   */\n      mload\n        /* \"#utility.yul\":7604:7688   */\n      tag_550\n        /* \"#utility.yul\":7683:7687   */\n      dup6\n        /* \"#utility.yul\":7668:7681   */\n      dup3\n        /* \"#utility.yul\":7604:7688   */\n      tag_425\n      jump\t// in\n    tag_550:\n        /* \"#utility.yul\":7596:7688   */\n      swap5\n      pop\n        /* \"#utility.yul\":7711:7781   */\n      tag_551\n        /* \"#utility.yul\":7774:7780   */\n      dup4\n        /* \"#utility.yul\":7711:7781   */\n      tag_426\n      jump\t// in\n    tag_551:\n        /* \"#utility.yul\":7701:7781   */\n      swap3\n      pop\n        /* \"#utility.yul\":7810:7814   */\n      0x20\n        /* \"#utility.yul\":7805:7808   */\n      dup11\n        /* \"#utility.yul\":7801:7815   */\n      add\n        /* \"#utility.yul\":7794:7815   */\n      swap10\n      pop\n        /* \"#utility.yul\":7489:7825   */\n      pop\n        /* \"#utility.yul\":7476:7477   */\n      0x01\n        /* \"#utility.yul\":7473:7474   */\n      dup2\n        /* \"#utility.yul\":7469:7478   */\n      add\n        /* \"#utility.yul\":7464:7478   */\n      swap1\n      pop\n        /* \"#utility.yul\":7429:7825   */\n      jump(tag_547)\n    tag_549:\n        /* \"#utility.yul\":7433:7447   */\n      pop\n        /* \"#utility.yul\":7841:7845   */\n      dup3\n        /* \"#utility.yul\":7834:7845   */\n      swap8\n      pop\n        /* \"#utility.yul\":7861:7864   */\n      dup8\n        /* \"#utility.yul\":7854:7864   */\n      swap6\n      pop\n        /* \"#utility.yul\":7033:7870   */\n      pop\n      pop\n      pop\n      pop\n      pop\n        /* \"#utility.yul\":6899:7870   */\n      swap3\n      swap2\n      pop\n      pop\n      jump\t// out\n        /* \"#utility.yul\":7876:7990   */\n    tag_428:\n        /* \"#utility.yul\":7943:7949   */\n      0x00\n        /* \"#utility.yul\":7977:7982   */\n      dup2\n        /* \"#utility.yul\":7971:7983   */\n      mload\n        /* \"#utility.yul\":7961:7983   */\n      swap1\n      pop\n        /* \"#utility.yul\":7876:7990   */\n      swap2\n      swap1\n      pop\n      jump\t// out\n        /* \"#utility.yul\":7996:8170   */\n    tag_429:\n        /* \"#utility.yul\":8085:8096   */\n      0x00\n        /* \"#utility.yul\":8119:8125   */\n      dup3\n        /* \"#utility.yul\":8114:8117   */\n      dup3\n        /* \"#utility.yul\":8107:8126   */\n      mstore\n        /* \"#utility.yul\":8159:8163   */\n      0x20\n        /* \"#utility.yul\":8154:8157   */\n      dup3\n        /* \"#utility.yul\":8150:8164   */\n      add\n        /* \"#utility.yul\":8135:8164   */\n      swap1\n      pop\n        /* \"#utility.yul\":7996:8170   */\n      swap3\n      swap2\n      pop\n      pop\n      jump\t// out\n        /* \"#utility.yul\":8176:8308   */\n    tag_430:\n        /* \"#utility.yul\":8243:8247   */\n      0x00\n        /* \"#utility.yul\":8266:8269   */\n      dup2\n        /* \"#utility.yul\":8258:8269   */\n      swap1\n      pop\n        /* \"#utility.yul\":8296:8300   */\n      0x20\n        /* \"#utility.yul\":8291:8294   */\n      dup3\n        /* \"#utility.yul\":8287:8301   */\n      add\n        /* \"#utility.yul\":8279:8301   */\n      swap1\n      pop\n        /* \"#utility.yul\":8176:8308   */\n      swap2\n      swap1\n      pop\n      jump\t// out\n        /* \"#utility.yul\":8314:8391   */\n    tag_431:\n        /* \"#utility.yul\":8351:8358   */\n      0x00\n        /* \"#utility.yul\":8380:8385   */\n      dup2\n        /* \"#utility.yul\":8369:8385   */\n      swap1\n      pop\n        /* \"#utility.yul\":8314:8391   */\n      swap2\n      swap1\n      pop\n      jump\t// out\n        /* \"#utility.yul\":8397:8505   */\n    tag_432:\n        /* \"#utility.yul\":8474:8498   */\n      tag_557\n        /* \"#utility.yul\":8492:8497   */\n      dup2\n        /* \"#utility.yul\":8474:8498   */\n      tag_431\n      jump\t// in\n    tag_557:\n        /* \"#utility.yul\":8469:8472   */\n      dup3\n        /* \"#utility.yul\":8462:8499   */\n      mstore\n        /* \"#utility.yul\":8397:8505   */\n      pop\n      pop\n      jump\t// out\n        /* \"#utility.yul\":8511:8690   */\n    tag_433:\n        /* \"#utility.yul\":8580:8590   */\n      0x00\n        /* \"#utility.yul\":8601:8647   */\n      tag_559\n        /* \"#utility.yul\":8643:8646   */\n      dup4\n        /* \"#utility.yul\":8635:8641   */\n      dup4\n        /* \"#utility.yul\":8601:8647   */\n      tag_432\n      jump\t// in\n    tag_559:\n        /* \"#utility.yul\":8679:8683   */\n      0x20\n        /* \"#utility.yul\":8674:8677   */\n      dup4\n        /* \"#utility.yul\":8670:8684   */\n      add\n        /* \"#utility.yul\":8656:8684   */\n      swap1\n      pop\n        /* \"#utility.yul\":8511:8690   */\n      swap3\n      swap2\n      pop\n      pop\n      jump\t// out\n        /* \"#utility.yul\":8696:8809   */\n    tag_434:\n        /* \"#utility.yul\":8766:8770   */\n      0x00\n        /* \"#utility.yul\":8798:8802   */\n      0x20\n        /* \"#utility.yul\":8793:8796   */\n      dup3\n        /* \"#utility.yul\":8789:8803   */\n      add\n        /* \"#utility.yul\":8781:8803   */\n      swap1\n      pop\n        /* \"#utility.yul\":8696:8809   */\n      swap2\n      swap1\n      pop\n      jump\t// out\n        /* \"#utility.yul\":8845:9557   */\n    tag_435:\n        /* \"#utility.yul\":8954:8957   */\n      0x00\n        /* \"#utility.yul\":8983:9037   */\n      tag_562\n        /* \"#utility.yul\":9031:9036   */\n      dup3\n        /* \"#utility.yul\":8983:9037   */\n      tag_428\n      jump\t// in\n    tag_562:\n        /* \"#utility.yul\":9053:9129   */\n      tag_563\n        /* \"#utility.yul\":9122:9128   */\n      dup2\n        /* \"#utility.yul\":9117:9120   */\n      dup6\n        /* \"#utility.yul\":9053:9129   */\n      tag_429\n      jump\t// in\n    tag_563:\n        /* \"#utility.yul\":9046:9129   */\n      swap4\n      pop\n        /* \"#utility.yul\":9153:9209   */\n      tag_564\n        /* \"#utility.yul\":9203:9208   */\n      dup4\n        /* \"#utility.yul\":9153:9209   */\n      tag_430\n      jump\t// in\n    tag_564:\n        /* \"#utility.yul\":9232:9239   */\n      dup1\n        /* \"#utility.yul\":9263:9264   */\n      0x00\n        /* \"#utility.yul\":9248:9532   */\n    tag_565:\n        /* \"#utility.yul\":9273:9279   */\n      dup4\n        /* \"#utility.yul\":9270:9271   */\n      dup2\n        /* \"#utility.yul\":9267:9280   */\n      lt\n        /* \"#utility.yul\":9248:9532   */\n      iszero\n      tag_567\n      jumpi\n        /* \"#utility.yul\":9349:9355   */\n      dup2\n        /* \"#utility.yul\":9343:9356   */\n      mload\n        /* \"#utility.yul\":9376:9439   */\n      tag_568\n        /* \"#utility.yul\":9435:9438   */\n      dup9\n        /* \"#utility.yul\":9420:9433   */\n      dup3\n        /* \"#utility.yul\":9376:9439   */\n      tag_433\n      jump\t// in\n    tag_568:\n        /* \"#utility.yul\":9369:9439   */\n      swap8\n      pop\n        /* \"#utility.yul\":9462:9522   */\n      tag_569\n        /* \"#utility.yul\":9515:9521   */\n      dup4\n        /* \"#utility.yul\":9462:9522   */\n      tag_434\n      jump\t// in\n    tag_569:\n        /* \"#utility.yul\":9452:9522   */\n      swap3\n      pop\n        /* \"#utility.yul\":9308:9532   */\n      pop\n        /* \"#utility.yul\":9295:9296   */\n      0x01\n        /* \"#utility.yul\":9292:9293   */\n      dup2\n        /* \"#utility.yul\":9288:9297   */\n      add\n        /* \"#utility.yul\":9283:9297   */\n      swap1\n      pop\n        /* \"#utility.yul\":9248:9532   */\n      jump(tag_565)\n    tag_567:\n        /* \"#utility.yul\":9252:9266   */\n      pop\n        /* \"#utility.yul\":9548:9551   */\n      dup6\n        /* \"#utility.yul\":9541:9551   */\n      swap4\n      pop\n        /* \"#utility.yul\":8959:9557   */\n      pop\n      pop\n      pop\n        /* \"#utility.yul\":8845:9557   */\n      swap3\n      swap2\n      pop\n      pop\n      jump\t// out\n        /* \"#utility.yul\":9613:11117   */\n    tag_436:\n        /* \"#utility.yul\":9722:9725   */\n      0x00\n        /* \"#utility.yul\":9758:9762   */\n      0xa0\n        /* \"#utility.yul\":9753:9756   */\n      dup4\n        /* \"#utility.yul\":9749:9763   */\n      add\n        /* \"#utility.yul\":9847:9851   */\n      0x00\n        /* \"#utility.yul\":9840:9845   */\n      dup4\n        /* \"#utility.yul\":9836:9852   */\n      add\n        /* \"#utility.yul\":9830:9853   */\n      mload\n        /* \"#utility.yul\":9900:9903   */\n      dup5\n        /* \"#utility.yul\":9894:9898   */\n      dup3\n        /* \"#utility.yul\":9890:9904   */\n      sub\n        /* \"#utility.yul\":9883:9887   */\n      0x00\n        /* \"#utility.yul\":9878:9881   */\n      dup7\n        /* \"#utility.yul\":9874:9888   */\n      add\n        /* \"#utility.yul\":9867:9905   */\n      mstore\n        /* \"#utility.yul\":9926:9999   */\n      tag_571\n        /* \"#utility.yul\":9994:9998   */\n      dup3\n        /* \"#utility.yul\":9980:9992   */\n      dup3\n        /* \"#utility.yul\":9926:9999   */\n      tag_421\n      jump\t// in\n    tag_571:\n        /* \"#utility.yul\":9918:9999   */\n      swap2\n      pop\n        /* \"#utility.yul\":9773:10010   */\n      pop\n        /* \"#utility.yul\":10099:10103   */\n      0x20\n        /* \"#utility.yul\":10092:10097   */\n      dup4\n        /* \"#utility.yul\":10088:10104   */\n      add\n        /* \"#utility.yul\":10082:10105   */\n      mload\n        /* \"#utility.yul\":10152:10155   */\n      dup5\n        /* \"#utility.yul\":10146:10150   */\n      dup3\n        /* \"#utility.yul\":10142:10156   */\n      sub\n        /* \"#utility.yul\":10135:10139   */\n      0x20\n        /* \"#utility.yul\":10130:10133   */\n      dup7\n        /* \"#utility.yul\":10126:10140   */\n      add\n        /* \"#utility.yul\":10119:10157   */\n      mstore\n        /* \"#utility.yul\":10178:10251   */\n      tag_572\n        /* \"#utility.yul\":10246:10250   */\n      dup3\n        /* \"#utility.yul\":10232:10244   */\n      dup3\n        /* \"#utility.yul\":10178:10251   */\n      tag_421\n      jump\t// in\n    tag_572:\n        /* \"#utility.yul\":10170:10251   */\n      swap2\n      pop\n        /* \"#utility.yul\":10020:10262   */\n      pop\n        /* \"#utility.yul\":10350:10354   */\n      0x40\n        /* \"#utility.yul\":10343:10348   */\n      dup4\n        /* \"#utility.yul\":10339:10355   */\n      add\n        /* \"#utility.yul\":10333:10356   */\n      mload\n        /* \"#utility.yul\":10403:10406   */\n      dup5\n        /* \"#utility.yul\":10397:10401   */\n      dup3\n        /* \"#utility.yul\":10393:10407   */\n      sub\n        /* \"#utility.yul\":10386:10390   */\n      0x40\n        /* \"#utility.yul\":10381:10384   */\n      dup7\n        /* \"#utility.yul\":10377:10391   */\n      add\n        /* \"#utility.yul\":10370:10408   */\n      mstore\n        /* \"#utility.yul\":10429:10502   */\n      tag_573\n        /* \"#utility.yul\":10497:10501   */\n      dup3\n        /* \"#utility.yul\":10483:10495   */\n      dup3\n        /* \"#utility.yul\":10429:10502   */\n      tag_421\n      jump\t// in\n    tag_573:\n        /* \"#utility.yul\":10421:10502   */\n      swap2\n      pop\n        /* \"#utility.yul\":10272:10513   */\n      pop\n        /* \"#utility.yul\":10598:10602   */\n      0x60\n        /* \"#utility.yul\":10591:10596   */\n      dup4\n        /* \"#utility.yul\":10587:10603   */\n      add\n        /* \"#utility.yul\":10581:10604   */\n      mload\n        /* \"#utility.yul\":10651:10654   */\n      dup5\n        /* \"#utility.yul\":10645:10649   */\n      dup3\n        /* \"#utility.yul\":10641:10655   */\n      sub\n        /* \"#utility.yul\":10634:10638   */\n      0x60\n        /* \"#utility.yul\":10629:10632   */\n      dup7\n        /* \"#utility.yul\":10625:10639   */\n      add\n        /* \"#utility.yul\":10618:10656   */\n      mstore\n        /* \"#utility.yul\":10677:10800   */\n      tag_574\n        /* \"#utility.yul\":10795:10799   */\n      dup3\n        /* \"#utility.yul\":10781:10793   */\n      dup3\n        /* \"#utility.yul\":10677:10800   */\n      tag_427\n      jump\t// in\n    tag_574:\n        /* \"#utility.yul\":10669:10800   */\n      swap2\n      pop\n        /* \"#utility.yul\":10523:10811   */\n      pop\n        /* \"#utility.yul\":10897:10901   */\n      0x80\n        /* \"#utility.yul\":10890:10895   */\n      dup4\n        /* \"#utility.yul\":10886:10902   */\n      add\n        /* \"#utility.yul\":10880:10903   */\n      mload\n        /* \"#utility.yul\":10950:10953   */\n      dup5\n        /* \"#utility.yul\":10944:10948   */\n      dup3\n        /* \"#utility.yul\":10940:10954   */\n      sub\n        /* \"#utility.yul\":10933:10937   */\n      0x80\n        /* \"#utility.yul\":10928:10931   */\n      dup7\n        /* \"#utility.yul\":10924:10938   */\n      add\n        /* \"#utility.yul\":10917:10955   */\n      mstore\n        /* \"#utility.yul\":10976:11079   */\n      tag_575\n        /* \"#utility.yul\":11074:11078   */\n      dup3\n        /* \"#utility.yul\":11060:11072   */\n      dup3\n        /* \"#utility.yul\":10976:11079   */\n      tag_435\n      jump\t// in\n    tag_575:\n        /* \"#utility.yul\":10968:11079   */\n      swap2\n      pop\n        /* \"#utility.yul\":10821:11090   */\n      pop\n        /* \"#utility.yul\":11107:11111   */\n      dup1\n        /* \"#utility.yul\":11100:11111   */\n      swap2\n      pop\n        /* \"#utility.yul\":9727:11117   */\n      pop\n        /* \"#utility.yul\":9613:11117   */\n      swap3\n      swap2\n      pop\n      pop\n      jump\t// out\n        /* \"#utility.yul\":11123:11476   */\n    tag_40:\n        /* \"#utility.yul\":11256:11260   */\n      0x00\n        /* \"#utility.yul\":11294:11296   */\n      0x20\n        /* \"#utility.yul\":11283:11292   */\n      dup3\n        /* \"#utility.yul\":11279:11297   */\n      add\n        /* \"#utility.yul\":11271:11297   */\n      swap1\n      pop\n        /* \"#utility.yul\":11343:11352   */\n      dup2\n        /* \"#utility.yul\":11337:11341   */\n      dup2\n        /* \"#utility.yul\":11333:11353   */\n      sub\n        /* \"#utility.yul\":11329:11330   */\n      0x00\n        /* \"#utility.yul\":11318:11327   */\n      dup4\n        /* \"#utility.yul\":11314:11331   */\n      add\n        /* \"#utility.yul\":11307:11354   */\n      mstore\n        /* \"#utility.yul\":11371:11469   */\n      tag_577\n        /* \"#utility.yul\":11464:11468   */\n      dup2\n        /* \"#utility.yul\":11455:11461   */\n      dup5\n        /* \"#utility.yul\":11371:11469   */\n      tag_436\n      jump\t// in\n    tag_577:\n        /* \"#utility.yul\":11363:11469   */\n      swap1\n      pop\n        /* \"#utility.yul\":11123:11476   */\n      swap3\n      swap2\n      pop\n      pop\n      jump\t// out\n        /* \"#utility.yul\":11482:11803   */\n    tag_437:\n        /* \"#utility.yul\":11569:11573   */\n      0x00\n        /* \"#utility.yul\":11659:11677   */\n      0xffffffffffffffff\n        /* \"#utility.yul\":11651:11657   */\n      dup3\n        /* \"#utility.yul\":11648:11678   */\n      gt\n        /* \"#utility.yul\":11645:11701   */\n      iszero\n      tag_579\n      jumpi\n        /* \"#utility.yul\":11681:11699   */\n      tag_580\n      tag_409\n      jump\t// in\n    tag_580:\n        /* \"#utility.yul\":11645:11701   */\n    tag_579:\n        /* \"#utility.yul\":11731:11735   */\n      0x20\n        /* \"#utility.yul\":11723:11729   */\n      dup3\n        /* \"#utility.yul\":11719:11736   */\n      mul\n        /* \"#utility.yul\":11711:11736   */\n      swap1\n      pop\n        /* \"#utility.yul\":11791:11795   */\n      0x20\n        /* \"#utility.yul\":11785:11789   */\n      dup2\n        /* \"#utility.yul\":11781:11796   */\n      add\n        /* \"#utility.yul\":11773:11796   */\n      swap1\n      pop\n        /* \"#utility.yul\":11482:11803   */\n      swap2\n      swap1\n      pop\n      jump\t// out\n        /* \"#utility.yul\":11809:11926   */\n    tag_438:\n        /* \"#utility.yul\":11918:11919   */\n      0x00\n        /* \"#utility.yul\":11915:11916   */\n      dup1\n        /* \"#utility.yul\":11908:11920   */\n      revert\n        /* \"#utility.yul\":11948:12893   */\n    tag_439:\n        /* \"#utility.yul\":12054:12059   */\n      0x00\n        /* \"#utility.yul\":12079:12170   */\n      tag_583\n        /* \"#utility.yul\":12095:12169   */\n      tag_584\n        /* \"#utility.yul\":12162:12168   */\n      dup5\n        /* \"#utility.yul\":12095:12169   */\n      tag_437\n      jump\t// in\n    tag_584:\n        /* \"#utility.yul\":12079:12170   */\n      tag_411\n      jump\t// in\n    tag_583:\n        /* \"#utility.yul\":12070:12170   */\n      swap1\n      pop\n        /* \"#utility.yul\":12190:12195   */\n      dup1\n        /* \"#utility.yul\":12219:12225   */\n      dup4\n        /* \"#utility.yul\":12212:12217   */\n      dup3\n        /* \"#utility.yul\":12205:12226   */\n      mstore\n        /* \"#utility.yul\":12253:12257   */\n      0x20\n        /* \"#utility.yul\":12246:12251   */\n      dup3\n        /* \"#utility.yul\":12242:12258   */\n      add\n        /* \"#utility.yul\":12235:12258   */\n      swap1\n      pop\n        /* \"#utility.yul\":12306:12310   */\n      0x20\n        /* \"#utility.yul\":12298:12304   */\n      dup5\n        /* \"#utility.yul\":12294:12311   */\n      mul\n        /* \"#utility.yul\":12286:12292   */\n      dup4\n        /* \"#utility.yul\":12282:12312   */\n      add\n        /* \"#utility.yul\":12335:12338   */\n      dup6\n        /* \"#utility.yul\":12327:12333   */\n      dup2\n        /* \"#utility.yul\":12324:12339   */\n      gt\n        /* \"#utility.yul\":12321:12443   */\n      iszero\n      tag_585\n      jumpi\n        /* \"#utility.yul\":12354:12433   */\n      tag_586\n      tag_438\n      jump\t// in\n    tag_586:\n        /* \"#utility.yul\":12321:12443   */\n    tag_585:\n        /* \"#utility.yul\":12469:12475   */\n      dup4\n        /* \"#utility.yul\":12452:12887   */\n    tag_587:\n        /* \"#utility.yul\":12486:12492   */\n      dup2\n        /* \"#utility.yul\":12481:12484   */\n      dup2\n        /* \"#utility.yul\":12478:12493   */\n      lt\n        /* \"#utility.yul\":12452:12887   */\n      iszero\n      tag_589\n      jumpi\n        /* \"#utility.yul\":12575:12578   */\n      dup1\n        /* \"#utility.yul\":12562:12579   */\n      calldataload\n        /* \"#utility.yul\":12611:12629   */\n      0xffffffffffffffff\n        /* \"#utility.yul\":12598:12609   */\n      dup2\n        /* \"#utility.yul\":12595:12630   */\n      gt\n        /* \"#utility.yul\":12592:12714   */\n      iszero\n      tag_590\n      jumpi\n        /* \"#utility.yul\":12633:12712   */\n      tag_591\n      tag_406\n      jump\t// in\n    tag_591:\n        /* \"#utility.yul\":12592:12714   */\n    tag_590:\n        /* \"#utility.yul\":12757:12768   */\n      dup1\n        /* \"#utility.yul\":12749:12755   */\n      dup7\n        /* \"#utility.yul\":12745:12769   */\n      add\n        /* \"#utility.yul\":12795:12842   */\n      tag_592\n        /* \"#utility.yul\":12838:12841   */\n      dup10\n        /* \"#utility.yul\":12826:12836   */\n      dup3\n        /* \"#utility.yul\":12795:12842   */\n      tag_415\n      jump\t// in\n    tag_592:\n        /* \"#utility.yul\":12790:12793   */\n      dup6\n        /* \"#utility.yul\":12783:12843   */\n      mstore\n        /* \"#utility.yul\":12872:12876   */\n      0x20\n        /* \"#utility.yul\":12867:12870   */\n      dup6\n        /* \"#utility.yul\":12863:12877   */\n      add\n        /* \"#utility.yul\":12856:12877   */\n      swap5\n      pop\n        /* \"#utility.yul\":12528:12887   */\n      pop\n      pop\n        /* \"#utility.yul\":12512:12516   */\n      0x20\n        /* \"#utility.yul\":12507:12510   */\n      dup2\n        /* \"#utility.yul\":12503:12517   */\n      add\n        /* \"#utility.yul\":12496:12517   */\n      swap1\n      pop\n        /* \"#utility.yul\":12452:12887   */\n      jump(tag_587)\n    tag_589:\n        /* \"#utility.yul\":12456:12477   */\n      pop\n        /* \"#utility.yul\":12060:12893   */\n      pop\n      pop\n        /* \"#utility.yul\":11948:12893   */\n      swap4\n      swap3\n      pop\n      pop\n      pop\n      jump\t// out\n        /* \"#utility.yul\":12915:13305   */\n    tag_440:\n        /* \"#utility.yul\":12996:13001   */\n      0x00\n        /* \"#utility.yul\":13045:13048   */\n      dup3\n        /* \"#utility.yul\":13038:13042   */\n      0x1f\n        /* \"#utility.yul\":13030:13036   */\n      dup4\n        /* \"#utility.yul\":13026:13043   */\n      add\n        /* \"#utility.yul\":13022:13049   */\n      slt\n        /* \"#utility.yul\":13012:13134   */\n      tag_594\n      jumpi\n        /* \"#utility.yul\":13053:13132   */\n      tag_595\n      tag_406\n      jump\t// in\n    tag_595:\n        /* \"#utility.yul\":13012:13134   */\n    tag_594:\n        /* \"#utility.yul\":13170:13176   */\n      dup2\n        /* \"#utility.yul\":13157:13177   */\n      calldataload\n        /* \"#utility.yul\":13195:13299   */\n      tag_596\n        /* \"#utility.yul\":13295:13298   */\n      dup5\n        /* \"#utility.yul\":13287:13293   */\n      dup3\n        /* \"#utility.yul\":13280:13284   */\n      0x20\n        /* \"#utility.yul\":13272:13278   */\n      dup7\n        /* \"#utility.yul\":13268:13285   */\n      add\n        /* \"#utility.yul\":13195:13299   */\n      tag_439\n      jump\t// in\n    tag_596:\n        /* \"#utility.yul\":13186:13299   */\n      swap2\n      pop\n        /* \"#utility.yul\":13002:13305   */\n      pop\n        /* \"#utility.yul\":12915:13305   */\n      swap3\n      swap2\n      pop\n      pop\n      jump\t// out\n        /* \"#utility.yul\":13311:14195   */\n    tag_43:\n        /* \"#utility.yul\":13424:13430   */\n      0x00\n        /* \"#utility.yul\":13432:13438   */\n      dup1\n        /* \"#utility.yul\":13481:13483   */\n      0x40\n        /* \"#utility.yul\":13469:13478   */\n      dup4\n        /* \"#utility.yul\":13460:13467   */\n      dup6\n        /* \"#utility.yul\":13456:13479   */\n      sub\n        /* \"#utility.yul\":13452:13484   */\n      slt\n        /* \"#utility.yul\":13449:13568   */\n      iszero\n      tag_598\n      jumpi\n        /* \"#utility.yul\":13487:13566   */\n      tag_599\n      tag_404\n      jump\t// in\n    tag_599:\n        /* \"#utility.yul\":13449:13568   */\n    tag_598:\n        /* \"#utility.yul\":13635:13636   */\n      0x00\n        /* \"#utility.yul\":13624:13633   */\n      dup4\n        /* \"#utility.yul\":13620:13637   */\n      add\n        /* \"#utility.yul\":13607:13638   */\n      calldataload\n        /* \"#utility.yul\":13665:13683   */\n      0xffffffffffffffff\n        /* \"#utility.yul\":13657:13663   */\n      dup2\n        /* \"#utility.yul\":13654:13684   */\n      gt\n        /* \"#utility.yul\":13651:13768   */\n      iszero\n      tag_600\n      jumpi\n        /* \"#utility.yul\":13687:13766   */\n      tag_601\n      tag_405\n      jump\t// in\n    tag_601:\n        /* \"#utility.yul\":13651:13768   */\n    tag_600:\n        /* \"#utility.yul\":13792:13855   */\n      tag_602\n        /* \"#utility.yul\":13847:13854   */\n      dup6\n        /* \"#utility.yul\":13838:13844   */\n      dup3\n        /* \"#utility.yul\":13827:13836   */\n      dup7\n        /* \"#utility.yul\":13823:13845   */\n      add\n        /* \"#utility.yul\":13792:13855   */\n      tag_415\n      jump\t// in\n    tag_602:\n        /* \"#utility.yul\":13782:13855   */\n      swap3\n      pop\n        /* \"#utility.yul\":13578:13865   */\n      pop\n        /* \"#utility.yul\":13932:13934   */\n      0x20\n        /* \"#utility.yul\":13921:13930   */\n      dup4\n        /* \"#utility.yul\":13917:13935   */\n      add\n        /* \"#utility.yul\":13904:13936   */\n      calldataload\n        /* \"#utility.yul\":13963:13981   */\n      0xffffffffffffffff\n        /* \"#utility.yul\":13955:13961   */\n      dup2\n        /* \"#utility.yul\":13952:13982   */\n      gt\n        /* \"#utility.yul\":13949:14066   */\n      iszero\n      tag_603\n      jumpi\n        /* \"#utility.yul\":13985:14064   */\n      tag_604\n      tag_405\n      jump\t// in\n    tag_604:\n        /* \"#utility.yul\":13949:14066   */\n    tag_603:\n        /* \"#utility.yul\":14090:14178   */\n      tag_605\n        /* \"#utility.yul\":14170:14177   */\n      dup6\n        /* \"#utility.yul\":14161:14167   */\n      dup3\n        /* \"#utility.yul\":14150:14159   */\n      dup7\n        /* \"#utility.yul\":14146:14168   */\n      add\n        /* \"#utility.yul\":14090:14178   */\n      tag_440\n      jump\t// in\n    tag_605:\n        /* \"#utility.yul\":14080:14178   */\n      swap2\n      pop\n        /* \"#utility.yul\":13875:14188   */\n      pop\n        /* \"#utility.yul\":13311:14195   */\n      swap3\n      pop\n      swap3\n      swap1\n      pop\n      jump\t// out\n        /* \"#utility.yul\":14201:15085   */\n    tag_48:\n        /* \"#utility.yul\":14314:14320   */\n      0x00\n        /* \"#utility.yul\":14322:14328   */\n      dup1\n        /* \"#utility.yul\":14371:14373   */\n      0x40\n        /* \"#utility.yul\":14359:14368   */\n      dup4\n        /* \"#utility.yul\":14350:14357   */\n      dup6\n        /* \"#utility.yul\":14346:14369   */\n      sub\n        /* \"#utility.yul\":14342:14374   */\n      slt\n        /* \"#utility.yul\":14339:14458   */\n      iszero\n      tag_607\n      jumpi\n        /* \"#utility.yul\":14377:14456   */\n      tag_608\n      tag_404\n      jump\t// in\n    tag_608:\n        /* \"#utility.yul\":14339:14458   */\n    tag_607:\n        /* \"#utility.yul\":14525:14526   */\n      0x00\n        /* \"#utility.yul\":14514:14523   */\n      dup4\n        /* \"#utility.yul\":14510:14527   */\n      add\n        /* \"#utility.yul\":14497:14528   */\n      calldataload\n        /* \"#utility.yul\":14555:14573   */\n      0xffffffffffffffff\n        /* \"#utility.yul\":14547:14553   */\n      dup2\n        /* \"#utility.yul\":14544:14574   */\n      gt\n        /* \"#utility.yul\":14541:14658   */\n      iszero\n      tag_609\n      jumpi\n        /* \"#utility.yul\":14577:14656   */\n      tag_610\n      tag_405\n      jump\t// in\n    tag_610:\n        /* \"#utility.yul\":14541:14658   */\n    tag_609:\n        /* \"#utility.yul\":14682:14770   */\n      tag_611\n        /* \"#utility.yul\":14762:14769   */\n      dup6\n        /* \"#utility.yul\":14753:14759   */\n      dup3\n        /* \"#utility.yul\":14742:14751   */\n      dup7\n        /* \"#utility.yul\":14738:14760   */\n      add\n        /* \"#utility.yul\":14682:14770   */\n      tag_440\n      jump\t// in\n    tag_611:\n        /* \"#utility.yul\":14672:14770   */\n      swap3\n      pop\n        /* \"#utility.yul\":14468:14780   */\n      pop\n        /* \"#utility.yul\":14847:14849   */\n      0x20\n        /* \"#utility.yul\":14836:14845   */\n      dup4\n        /* \"#utility.yul\":14832:14850   */\n      add\n        /* \"#utility.yul\":14819:14851   */\n      calldataload\n        /* \"#utility.yul\":14878:14896   */\n      0xffffffffffffffff\n        /* \"#utility.yul\":14870:14876   */\n      dup2\n        /* \"#utility.yul\":14867:14897   */\n      gt\n        /* \"#utility.yul\":14864:14981   */\n      iszero\n      tag_612\n      jumpi\n        /* \"#utility.yul\":14900:14979   */\n      tag_613\n      tag_405\n      jump\t// in\n    tag_613:\n        /* \"#utility.yul\":14864:14981   */\n    tag_612:\n        /* \"#utility.yul\":15005:15068   */\n      tag_614\n        /* \"#utility.yul\":15060:15067   */\n      dup6\n        /* \"#utility.yul\":15051:15057   */\n      dup3\n        /* \"#utility.yul\":15040:15049   */\n      dup7\n        /* \"#utility.yul\":15036:15058   */\n      add\n        /* \"#utility.yul\":15005:15068   */\n      tag_415\n      jump\t// in\n    tag_614:\n        /* \"#utility.yul\":14995:15068   */\n      swap2\n      pop\n        /* \"#utility.yul\":14790:15078   */\n      pop\n        /* \"#utility.yul\":14201:15085   */\n      swap3\n      pop\n      swap3\n      swap1\n      pop\n      jump\t// out\n        /* \"#utility.yul\":15091:15209   */\n    tag_441:\n        /* \"#utility.yul\":15178:15202   */\n      tag_616\n        /* \"#utility.yul\":15196:15201   */\n      dup2\n        /* \"#utility.yul\":15178:15202   */\n      tag_431\n      jump\t// in\n    tag_616:\n        /* \"#utility.yul\":15173:15176   */\n      dup3\n        /* \"#utility.yul\":15166:15203   */\n      mstore\n        /* \"#utility.yul\":15091:15209   */\n      pop\n      pop\n      jump\t// out\n        /* \"#utility.yul\":15215:15437   */\n    tag_53:\n        /* \"#utility.yul\":15308:15312   */\n      0x00\n        /* \"#utility.yul\":15346:15348   */\n      0x20\n        /* \"#utility.yul\":15335:15344   */\n      dup3\n        /* \"#utility.yul\":15331:15349   */\n      add\n        /* \"#utility.yul\":15323:15349   */\n      swap1\n      pop\n        /* \"#utility.yul\":15359:15430   */\n      tag_618\n        /* \"#utility.yul\":15427:15428   */\n      0x00\n        /* \"#utility.yul\":15416:15425   */\n      dup4\n        /* \"#utility.yul\":15412:15429   */\n      add\n        /* \"#utility.yul\":15403:15409   */\n      dup5\n        /* \"#utility.yul\":15359:15430   */\n      tag_441\n      jump\t// in\n    tag_618:\n        /* \"#utility.yul\":15215:15437   */\n      swap3\n      swap2\n      pop\n      pop\n      jump\t// out\n        /* \"#utility.yul\":15443:15565   */\n    tag_442:\n        /* \"#utility.yul\":15516:15540   */\n      tag_620\n        /* \"#utility.yul\":15534:15539   */\n      dup2\n        /* \"#utility.yul\":15516:15540   */\n      tag_431\n      jump\t// in\n    tag_620:\n        /* \"#utility.yul\":15509:15514   */\n      dup2\n        /* \"#utility.yul\":15506:15541   */\n      eq\n        /* \"#utility.yul\":15496:15559   */\n      tag_621\n      jumpi\n        /* \"#utility.yul\":15555:15556   */\n      0x00\n        /* \"#utility.yul\":15552:15553   */\n      dup1\n        /* \"#utility.yul\":15545:15557   */\n      revert\n        /* \"#utility.yul\":15496:15559   */\n    tag_621:\n        /* \"#utility.yul\":15443:15565   */\n      pop\n      jump\t// out\n        /* \"#utility.yul\":15571:15710   */\n    tag_443:\n        /* \"#utility.yul\":15617:15622   */\n      0x00\n        /* \"#utility.yul\":15655:15661   */\n      dup2\n        /* \"#utility.yul\":15642:15662   */\n      calldataload\n        /* \"#utility.yul\":15633:15662   */\n      swap1\n      pop\n        /* \"#utility.yul\":15671:15704   */\n      tag_623\n        /* \"#utility.yul\":15698:15703   */\n      dup2\n        /* \"#utility.yul\":15671:15704   */\n      tag_442\n      jump\t// in\n    tag_623:\n        /* \"#utility.yul\":15571:15710   */\n      swap3\n      swap2\n      pop\n      pop\n      jump\t// out\n        /* \"#utility.yul\":15716:18145   */\n    tag_56:\n        /* \"#utility.yul\":15898:15904   */\n      0x00\n        /* \"#utility.yul\":15906:15912   */\n      dup1\n        /* \"#utility.yul\":15914:15920   */\n      0x00\n        /* \"#utility.yul\":15922:15928   */\n      dup1\n        /* \"#utility.yul\":15930:15936   */\n      0x00\n        /* \"#utility.yul\":15938:15944   */\n      dup1\n        /* \"#utility.yul\":15946:15952   */\n      0x00\n        /* \"#utility.yul\":15954:15960   */\n      dup1\n        /* \"#utility.yul\":16003:16006   */\n      0x0100\n        /* \"#utility.yul\":15991:16000   */\n      dup10\n        /* \"#utility.yul\":15982:15989   */\n      dup12\n        /* \"#utility.yul\":15978:16001   */\n      sub\n        /* \"#utility.yul\":15974:16007   */\n      slt\n        /* \"#utility.yul\":15971:16091   */\n      iszero\n      tag_625\n      jumpi\n        /* \"#utility.yul\":16010:16089   */\n      tag_626\n      tag_404\n      jump\t// in\n    tag_626:\n        /* \"#utility.yul\":15971:16091   */\n    tag_625:\n        /* \"#utility.yul\":16158:16159   */\n      0x00\n        /* \"#utility.yul\":16147:16156   */\n      dup10\n        /* \"#utility.yul\":16143:16160   */\n      add\n        /* \"#utility.yul\":16130:16161   */\n      calldataload\n        /* \"#utility.yul\":16188:16206   */\n      0xffffffffffffffff\n        /* \"#utility.yul\":16180:16186   */\n      dup2\n        /* \"#utility.yul\":16177:16207   */\n      gt\n        /* \"#utility.yul\":16174:16291   */\n      iszero\n      tag_627\n      jumpi\n        /* \"#utility.yul\":16210:16289   */\n      tag_628\n      tag_405\n      jump\t// in\n    tag_628:\n        /* \"#utility.yul\":16174:16291   */\n    tag_627:\n        /* \"#utility.yul\":16315:16378   */\n      tag_629\n        /* \"#utility.yul\":16370:16377   */\n      dup12\n        /* \"#utility.yul\":16361:16367   */\n      dup3\n        /* \"#utility.yul\":16350:16359   */\n      dup13\n        /* \"#utility.yul\":16346:16368   */\n      add\n        /* \"#utility.yul\":16315:16378   */\n      tag_415\n      jump\t// in\n    tag_629:\n        /* \"#utility.yul\":16305:16378   */\n      swap9\n      pop\n        /* \"#utility.yul\":16101:16388   */\n      pop\n        /* \"#utility.yul\":16455:16457   */\n      0x20\n        /* \"#utility.yul\":16444:16453   */\n      dup10\n        /* \"#utility.yul\":16440:16458   */\n      add\n        /* \"#utility.yul\":16427:16459   */\n      calldataload\n        /* \"#utility.yul\":16486:16504   */\n      0xffffffffffffffff\n        /* \"#utility.yul\":16478:16484   */\n      dup2\n        /* \"#utility.yul\":16475:16505   */\n      gt\n        /* \"#utility.yul\":16472:16589   */\n      iszero\n      tag_630\n      jumpi\n        /* \"#utility.yul\":16508:16587   */\n      tag_631\n      tag_405\n      jump\t// in\n    tag_631:\n        /* \"#utility.yul\":16472:16589   */\n    tag_630:\n        /* \"#utility.yul\":16613:16676   */\n      tag_632\n        /* \"#utility.yul\":16668:16675   */\n      dup12\n        /* \"#utility.yul\":16659:16665   */\n      dup3\n        /* \"#utility.yul\":16648:16657   */\n      dup13\n        /* \"#utility.yul\":16644:16666   */\n      add\n        /* \"#utility.yul\":16613:16676   */\n      tag_415\n      jump\t// in\n    tag_632:\n        /* \"#utility.yul\":16603:16676   */\n      swap8\n      pop\n        /* \"#utility.yul\":16398:16686   */\n      pop\n        /* \"#utility.yul\":16753:16755   */\n      0x40\n        /* \"#utility.yul\":16742:16751   */\n      dup10\n        /* \"#utility.yul\":16738:16756   */\n      add\n        /* \"#utility.yul\":16725:16757   */\n      calldataload\n        /* \"#utility.yul\":16784:16802   */\n      0xffffffffffffffff\n        /* \"#utility.yul\":16776:16782   */\n      dup2\n        /* \"#utility.yul\":16773:16803   */\n      gt\n        /* \"#utility.yul\":16770:16887   */\n      iszero\n      tag_633\n      jumpi\n        /* \"#utility.yul\":16806:16885   */\n      tag_634\n      tag_405\n      jump\t// in\n    tag_634:\n        /* \"#utility.yul\":16770:16887   */\n    tag_633:\n        /* \"#utility.yul\":16911:16974   */\n      tag_635\n        /* \"#utility.yul\":16966:16973   */\n      dup12\n        /* \"#utility.yul\":16957:16963   */\n      dup3\n        /* \"#utility.yul\":16946:16955   */\n      dup13\n        /* \"#utility.yul\":16942:16964   */\n      add\n        /* \"#utility.yul\":16911:16974   */\n      tag_415\n      jump\t// in\n    tag_635:\n        /* \"#utility.yul\":16901:16974   */\n      swap7\n      pop\n        /* \"#utility.yul\":16696:16984   */\n      pop\n        /* \"#utility.yul\":17051:17053   */\n      0x60\n        /* \"#utility.yul\":17040:17049   */\n      dup10\n        /* \"#utility.yul\":17036:17054   */\n      add\n        /* \"#utility.yul\":17023:17055   */\n      calldataload\n        /* \"#utility.yul\":17082:17100   */\n      0xffffffffffffffff\n        /* \"#utility.yul\":17074:17080   */\n      dup2\n        /* \"#utility.yul\":17071:17101   */\n      gt\n        /* \"#utility.yul\":17068:17185   */\n      iszero\n      tag_636\n      jumpi\n        /* \"#utility.yul\":17104:17183   */\n      tag_637\n      tag_405\n      jump\t// in\n    tag_637:\n        /* \"#utility.yul\":17068:17185   */\n    tag_636:\n        /* \"#utility.yul\":17209:17272   */\n      tag_638\n        /* \"#utility.yul\":17264:17271   */\n      dup12\n        /* \"#utility.yul\":17255:17261   */\n      dup3\n        /* \"#utility.yul\":17244:17253   */\n      dup13\n        /* \"#utility.yul\":17240:17262   */\n      add\n        /* \"#utility.yul\":17209:17272   */\n      tag_415\n      jump\t// in\n    tag_638:\n        /* \"#utility.yul\":17199:17272   */\n      swap6\n      pop\n        /* \"#utility.yul\":16994:17282   */\n      pop\n        /* \"#utility.yul\":17349:17352   */\n      0x80\n        /* \"#utility.yul\":17338:17347   */\n      dup10\n        /* \"#utility.yul\":17334:17353   */\n      add\n        /* \"#utility.yul\":17321:17354   */\n      calldataload\n        /* \"#utility.yul\":17381:17399   */\n      0xffffffffffffffff\n        /* \"#utility.yul\":17373:17379   */\n      dup2\n        /* \"#utility.yul\":17370:17400   */\n      gt\n        /* \"#utility.yul\":17367:17484   */\n      iszero\n      tag_639\n      jumpi\n        /* \"#utility.yul\":17403:17482   */\n      tag_640\n      tag_405\n      jump\t// in\n    tag_640:\n        /* \"#utility.yul\":17367:17484   */\n    tag_639:\n        /* \"#utility.yul\":17508:17571   */\n      tag_641\n        /* \"#utility.yul\":17563:17570   */\n      dup12\n        /* \"#utility.yul\":17554:17560   */\n      dup3\n        /* \"#utility.yul\":17543:17552   */\n      dup13\n        /* \"#utility.yul\":17539:17561   */\n      add\n        /* \"#utility.yul\":17508:17571   */\n      tag_415\n      jump\t// in\n    tag_641:\n        /* \"#utility.yul\":17498:17571   */\n      swap5\n      pop\n        /* \"#utility.yul\":17292:17581   */\n      pop\n        /* \"#utility.yul\":17620:17623   */\n      0xa0\n        /* \"#utility.yul\":17647:17700   */\n      tag_642\n        /* \"#utility.yul\":17692:17699   */\n      dup12\n        /* \"#utility.yul\":17683:17689   */\n      dup3\n        /* \"#utility.yul\":17672:17681   */\n      dup13\n        /* \"#utility.yul\":17668:17690   */\n      add\n        /* \"#utility.yul\":17647:17700   */\n      tag_443\n      jump\t// in\n    tag_642:\n        /* \"#utility.yul\":17637:17700   */\n      swap4\n      pop\n        /* \"#utility.yul\":17591:17710   */\n      pop\n        /* \"#utility.yul\":17749:17752   */\n      0xc0\n        /* \"#utility.yul\":17776:17829   */\n      tag_643\n        /* \"#utility.yul\":17821:17828   */\n      dup12\n        /* \"#utility.yul\":17812:17818   */\n      dup3\n        /* \"#utility.yul\":17801:17810   */\n      dup13\n        /* \"#utility.yul\":17797:17819   */\n      add\n        /* \"#utility.yul\":17776:17829   */\n      tag_443\n      jump\t// in\n    tag_643:\n        /* \"#utility.yul\":17766:17829   */\n      swap3\n      pop\n        /* \"#utility.yul\":17720:17839   */\n      pop\n        /* \"#utility.yul\":17906:17909   */\n      0xe0\n        /* \"#utility.yul\":17895:17904   */\n      dup10\n        /* \"#utility.yul\":17891:17910   */\n      add\n        /* \"#utility.yul\":17878:17911   */\n      calldataload\n        /* \"#utility.yul\":17938:17956   */\n      0xffffffffffffffff\n        /* \"#utility.yul\":17930:17936   */\n      dup2\n        /* \"#utility.yul\":17927:17957   */\n      gt\n        /* \"#utility.yul\":17924:18041   */\n      iszero\n      tag_644\n      jumpi\n        /* \"#utility.yul\":17960:18039   */\n      tag_645\n      tag_405\n      jump\t// in\n    tag_645:\n        /* \"#utility.yul\":17924:18041   */\n    tag_644:\n        /* \"#utility.yul\":18065:18128   */\n      tag_646\n        /* \"#utility.yul\":18120:18127   */\n      dup12\n        /* \"#utility.yul\":18111:18117   */\n      dup3\n        /* \"#utility.yul\":18100:18109   */\n      dup13\n        /* \"#utility.yul\":18096:18118   */\n      add\n        /* \"#utility.yul\":18065:18128   */\n      tag_415\n      jump\t// in\n    tag_646:\n        /* \"#utility.yul\":18055:18128   */\n      swap2\n      pop\n        /* \"#utility.yul\":17849:18138   */\n      pop\n        /* \"#utility.yul\":15716:18145   */\n      swap3\n      swap6\n      swap9\n      pop\n      swap3\n      swap6\n      swap9\n      swap1\n      swap4\n      swap7\n      pop\n      jump\t// out\n        /* \"#utility.yul\":18151:18277   */\n    tag_444:\n        /* \"#utility.yul\":18188:18195   */\n      0x00\n        /* \"#utility.yul\":18228:18270   */\n      0xffffffffffffffffffffffffffffffffffffffff\n        /* \"#utility.yul\":18221:18226   */\n      dup3\n        /* \"#utility.yul\":18217:18271   */\n      and\n        /* \"#utility.yul\":18206:18271   */\n      swap1\n      pop\n        /* \"#utility.yul\":18151:18277   */\n      swap2\n      swap1\n      pop\n      jump\t// out\n        /* \"#utility.yul\":18283:18379   */\n    tag_445:\n        /* \"#utility.yul\":18320:18327   */\n      0x00\n        /* \"#utility.yul\":18349:18373   */\n      tag_649\n        /* \"#utility.yul\":18367:18372   */\n      dup3\n        /* \"#utility.yul\":18349:18373   */\n      tag_444\n      jump\t// in\n    tag_649:\n        /* \"#utility.yul\":18338:18373   */\n      swap1\n      pop\n        /* \"#utility.yul\":18283:18379   */\n      swap2\n      swap1\n      pop\n      jump\t// out\n        /* \"#utility.yul\":18385:18503   */\n    tag_446:\n        /* \"#utility.yul\":18472:18496   */\n      tag_651\n        /* \"#utility.yul\":18490:18495   */\n      dup2\n        /* \"#utility.yul\":18472:18496   */\n      tag_445\n      jump\t// in\n    tag_651:\n        /* \"#utility.yul\":18467:18470   */\n      dup3\n        /* \"#utility.yul\":18460:18497   */\n      mstore\n        /* \"#utility.yul\":18385:18503   */\n      pop\n      pop\n      jump\t// out\n        /* \"#utility.yul\":18509:18731   */\n    tag_65:\n        /* \"#utility.yul\":18602:18606   */\n      0x00\n        /* \"#utility.yul\":18640:18642   */\n      0x20\n        /* \"#utility.yul\":18629:18638   */\n      dup3\n        /* \"#utility.yul\":18625:18643   */\n      add\n        /* \"#utility.yul\":18617:18643   */\n      swap1\n      pop\n        /* \"#utility.yul\":18653:18724   */\n      tag_653\n        /* \"#utility.yul\":18721:18722   */\n      0x00\n        /* \"#utility.yul\":18710:18719   */\n      dup4\n        /* \"#utility.yul\":18706:18723   */\n      add\n        /* \"#utility.yul\":18697:18703   */\n      dup5\n        /* \"#utility.yul\":18653:18724   */\n      tag_446\n      jump\t// in\n    tag_653:\n        /* \"#utility.yul\":18509:18731   */\n      swap3\n      swap2\n      pop\n      pop\n      jump\t// out\n        /* \"#utility.yul\":18737:18827   */\n    tag_447:\n        /* \"#utility.yul\":18771:18778   */\n      0x00\n        /* \"#utility.yul\":18814:18819   */\n      dup2\n        /* \"#utility.yul\":18807:18820   */\n      iszero\n        /* \"#utility.yul\":18800:18821   */\n      iszero\n        /* \"#utility.yul\":18789:18821   */\n      swap1\n      pop\n        /* \"#utility.yul\":18737:18827   */\n      swap2\n      swap1\n      pop\n      jump\t// out\n        /* \"#utility.yul\":18833:18942   */\n    tag_448:\n        /* \"#utility.yul\":18914:18935   */\n      tag_656\n        /* \"#utility.yul\":18929:18934   */\n      dup2\n        /* \"#utility.yul\":18914:18935   */\n      tag_447\n      jump\t// in\n    tag_656:\n        /* \"#utility.yul\":18909:18912   */\n      dup3\n        /* \"#utility.yul\":18902:18936   */\n      mstore\n        /* \"#utility.yul\":18833:18942   */\n      pop\n      pop\n      jump\t// out\n        /* \"#utility.yul\":18948:19158   */\n    tag_75:\n        /* \"#utility.yul\":19035:19039   */\n      0x00\n        /* \"#utility.yul\":19073:19075   */\n      0x20\n        /* \"#utility.yul\":19062:19071   */\n      dup3\n        /* \"#utility.yul\":19058:19076   */\n      add\n        /* \"#utility.yul\":19050:19076   */\n      swap1\n      pop\n        /* \"#utility.yul\":19086:19151   */\n      tag_658\n        /* \"#utility.yul\":19148:19149   */\n      0x00\n        /* \"#utility.yul\":19137:19146   */\n      dup4\n        /* \"#utility.yul\":19133:19150   */\n      add\n        /* \"#utility.yul\":19124:19130   */\n      dup5\n        /* \"#utility.yul\":19086:19151   */\n      tag_448\n      jump\t// in\n    tag_658:\n        /* \"#utility.yul\":18948:19158   */\n      swap3\n      swap2\n      pop\n      pop\n      jump\t// out\n        /* \"#utility.yul\":19164:19493   */\n    tag_86:\n        /* \"#utility.yul\":19223:19229   */\n      0x00\n        /* \"#utility.yul\":19272:19274   */\n      0x20\n        /* \"#utility.yul\":19260:19269   */\n      dup3\n        /* \"#utility.yul\":19251:19258   */\n      dup5\n        /* \"#utility.yul\":19247:19270   */\n      sub\n        /* \"#utility.yul\":19243:19275   */\n      slt\n        /* \"#utility.yul\":19240:19359   */\n      iszero\n      tag_660\n      jumpi\n        /* \"#utility.yul\":19278:19357   */\n      tag_661\n      tag_404\n      jump\t// in\n    tag_661:\n        /* \"#utility.yul\":19240:19359   */\n    tag_660:\n        /* \"#utility.yul\":19398:19399   */\n      0x00\n        /* \"#utility.yul\":19423:19476   */\n      tag_662\n        /* \"#utility.yul\":19468:19475   */\n      dup5\n        /* \"#utility.yul\":19459:19465   */\n      dup3\n        /* \"#utility.yul\":19448:19457   */\n      dup6\n        /* \"#utility.yul\":19444:19466   */\n      add\n        /* \"#utility.yul\":19423:19476   */\n      tag_443\n      jump\t// in\n    tag_662:\n        /* \"#utility.yul\":19413:19476   */\n      swap2\n      pop\n        /* \"#utility.yul\":19369:19486   */\n      pop\n        /* \"#utility.yul\":19164:19493   */\n      swap3\n      swap2\n      pop\n      pop\n      jump\t// out\n        /* \"#utility.yul\":19499:21042   */\n    tag_89:\n        /* \"#utility.yul\":19908:19912   */\n      0x00\n        /* \"#utility.yul\":19946:19949   */\n      0x0100\n        /* \"#utility.yul\":19935:19944   */\n      dup3\n        /* \"#utility.yul\":19931:19950   */\n      add\n        /* \"#utility.yul\":19923:19950   */\n      swap1\n      pop\n        /* \"#utility.yul\":19996:20005   */\n      dup2\n        /* \"#utility.yul\":19990:19994   */\n      dup2\n        /* \"#utility.yul\":19986:20006   */\n      sub\n        /* \"#utility.yul\":19982:19983   */\n      0x00\n        /* \"#utility.yul\":19971:19980   */\n      dup4\n        /* \"#utility.yul\":19967:19984   */\n      add\n        /* \"#utility.yul\":19960:20007   */\n      mstore\n        /* \"#utility.yul\":20024:20102   */\n      tag_664\n        /* \"#utility.yul\":20097:20101   */\n      dup2\n        /* \"#utility.yul\":20088:20094   */\n      dup12\n        /* \"#utility.yul\":20024:20102   */\n      tag_419\n      jump\t// in\n    tag_664:\n        /* \"#utility.yul\":20016:20102   */\n      swap1\n      pop\n        /* \"#utility.yul\":20149:20158   */\n      dup2\n        /* \"#utility.yul\":20143:20147   */\n      dup2\n        /* \"#utility.yul\":20139:20159   */\n      sub\n        /* \"#utility.yul\":20134:20136   */\n      0x20\n        /* \"#utility.yul\":20123:20132   */\n      dup4\n        /* \"#utility.yul\":20119:20137   */\n      add\n        /* \"#utility.yul\":20112:20160   */\n      mstore\n        /* \"#utility.yul\":20177:20255   */\n      tag_665\n        /* \"#utility.yul\":20250:20254   */\n      dup2\n        /* \"#utility.yul\":20241:20247   */\n      dup11\n        /* \"#utility.yul\":20177:20255   */\n      tag_419\n      jump\t// in\n    tag_665:\n        /* \"#utility.yul\":20169:20255   */\n      swap1\n      pop\n        /* \"#utility.yul\":20302:20311   */\n      dup2\n        /* \"#utility.yul\":20296:20300   */\n      dup2\n        /* \"#utility.yul\":20292:20312   */\n      sub\n        /* \"#utility.yul\":20287:20289   */\n      0x40\n        /* \"#utility.yul\":20276:20285   */\n      dup4\n        /* \"#utility.yul\":20272:20290   */\n      add\n        /* \"#utility.yul\":20265:20313   */\n      mstore\n        /* \"#utility.yul\":20330:20408   */\n      tag_666\n        /* \"#utility.yul\":20403:20407   */\n      dup2\n        /* \"#utility.yul\":20394:20400   */\n      dup10\n        /* \"#utility.yul\":20330:20408   */\n      tag_419\n      jump\t// in\n    tag_666:\n        /* \"#utility.yul\":20322:20408   */\n      swap1\n      pop\n        /* \"#utility.yul\":20455:20464   */\n      dup2\n        /* \"#utility.yul\":20449:20453   */\n      dup2\n        /* \"#utility.yul\":20445:20465   */\n      sub\n        /* \"#utility.yul\":20440:20442   */\n      0x60\n        /* \"#utility.yul\":20429:20438   */\n      dup4\n        /* \"#utility.yul\":20425:20443   */\n      add\n        /* \"#utility.yul\":20418:20466   */\n      mstore\n        /* \"#utility.yul\":20483:20561   */\n      tag_667\n        /* \"#utility.yul\":20556:20560   */\n      dup2\n        /* \"#utility.yul\":20547:20553   */\n      dup9\n        /* \"#utility.yul\":20483:20561   */\n      tag_419\n      jump\t// in\n    tag_667:\n        /* \"#utility.yul\":20475:20561   */\n      swap1\n      pop\n        /* \"#utility.yul\":20609:20618   */\n      dup2\n        /* \"#utility.yul\":20603:20607   */\n      dup2\n        /* \"#utility.yul\":20599:20619   */\n      sub\n        /* \"#utility.yul\":20593:20596   */\n      0x80\n        /* \"#utility.yul\":20582:20591   */\n      dup4\n        /* \"#utility.yul\":20578:20597   */\n      add\n        /* \"#utility.yul\":20571:20620   */\n      mstore\n        /* \"#utility.yul\":20637:20715   */\n      tag_668\n        /* \"#utility.yul\":20710:20714   */\n      dup2\n        /* \"#utility.yul\":20701:20707   */\n      dup8\n        /* \"#utility.yul\":20637:20715   */\n      tag_419\n      jump\t// in\n    tag_668:\n        /* \"#utility.yul\":20629:20715   */\n      swap1\n      pop\n        /* \"#utility.yul\":20725:20798   */\n      tag_669\n        /* \"#utility.yul\":20793:20796   */\n      0xa0\n        /* \"#utility.yul\":20782:20791   */\n      dup4\n        /* \"#utility.yul\":20778:20797   */\n      add\n        /* \"#utility.yul\":20769:20775   */\n      dup7\n        /* \"#utility.yul\":20725:20798   */\n      tag_441\n      jump\t// in\n    tag_669:\n        /* \"#utility.yul\":20808:20881   */\n      tag_670\n        /* \"#utility.yul\":20876:20879   */\n      0xc0\n        /* \"#utility.yul\":20865:20874   */\n      dup4\n        /* \"#utility.yul\":20861:20880   */\n      add\n        /* \"#utility.yul\":20852:20858   */\n      dup6\n        /* \"#utility.yul\":20808:20881   */\n      tag_441\n      jump\t// in\n    tag_670:\n        /* \"#utility.yul\":20929:20938   */\n      dup2\n        /* \"#utility.yul\":20923:20927   */\n      dup2\n        /* \"#utility.yul\":20919:20939   */\n      sub\n        /* \"#utility.yul\":20913:20916   */\n      0xe0\n        /* \"#utility.yul\":20902:20911   */\n      dup4\n        /* \"#utility.yul\":20898:20917   */\n      add\n        /* \"#utility.yul\":20891:20940   */\n      mstore\n        /* \"#utility.yul\":20957:21035   */\n      tag_671\n        /* \"#utility.yul\":21030:21034   */\n      dup2\n        /* \"#utility.yul\":21021:21027   */\n      dup5\n        /* \"#utility.yul\":20957:21035   */\n      tag_419\n      jump\t// in\n    tag_671:\n        /* \"#utility.yul\":20949:21035   */\n      swap1\n      pop\n        /* \"#utility.yul\":19499:21042   */\n      swap10\n      swap9\n      pop\n      pop\n      pop\n      pop\n      pop\n      pop\n      pop\n      pop\n      pop\n      jump\t// out\n        /* \"#utility.yul\":21048:21228   */\n    tag_449:\n        /* \"#utility.yul\":21096:21173   */\n      0x4e487b7100000000000000000000000000000000000000000000000000000000\n        /* \"#utility.yul\":21093:21094   */\n      0x00\n        /* \"#utility.yul\":21086:21174   */\n      mstore\n        /* \"#utility.yul\":21193:21197   */\n      0x22\n        /* \"#utility.yul\":21190:21191   */\n      0x04\n        /* \"#utility.yul\":21183:21198   */\n      mstore\n        /* \"#utility.yul\":21217:21221   */\n      0x24\n        /* \"#utility.yul\":21214:21215   */\n      0x00\n        /* \"#utility.yul\":21207:21222   */\n      revert\n        /* \"#utility.yul\":21234:21554   */\n    tag_95:\n        /* \"#utility.yul\":21278:21284   */\n      0x00\n        /* \"#utility.yul\":21315:21316   */\n      0x02\n        /* \"#utility.yul\":21309:21313   */\n      dup3\n        /* \"#utility.yul\":21305:21317   */\n      div\n        /* \"#utility.yul\":21295:21317   */\n      swap1\n      pop\n        /* \"#utility.yul\":21362:21363   */\n      0x01\n        /* \"#utility.yul\":21356:21360   */\n      dup3\n        /* \"#utility.yul\":21352:21364   */\n      and\n        /* \"#utility.yul\":21383:21401   */\n      dup1\n        /* \"#utility.yul\":21373:21454   */\n      tag_674\n      jumpi\n        /* \"#utility.yul\":21439:21443   */\n      0x7f\n        /* \"#utility.yul\":21431:21437   */\n      dup3\n        /* \"#utility.yul\":21427:21444   */\n      and\n        /* \"#utility.yul\":21417:21444   */\n      swap2\n      pop\n        /* \"#utility.yul\":21373:21454   */\n    tag_674:\n        /* \"#utility.yul\":21501:21503   */\n      0x20\n        /* \"#utility.yul\":21493:21499   */\n      dup3\n        /* \"#utility.yul\":21490:21504   */\n      lt\n        /* \"#utility.yul\":21470:21488   */\n      dup2\n        /* \"#utility.yul\":21467:21505   */\n      sub\n        /* \"#utility.yul\":21464:21548   */\n      tag_675\n      jumpi\n        /* \"#utility.yul\":21520:21538   */\n      tag_676\n      tag_449\n      jump\t// in\n    tag_676:\n        /* \"#utility.yul\":21464:21548   */\n    tag_675:\n        /* \"#utility.yul\":21285:21554   */\n      pop\n        /* \"#utility.yul\":21234:21554   */\n      swap2\n      swap1\n      pop\n      jump\t// out\n        /* \"#utility.yul\":21560:21708   */\n    tag_450:\n        /* \"#utility.yul\":21662:21673   */\n      0x00\n        /* \"#utility.yul\":21699:21702   */\n      dup2\n        /* \"#utility.yul\":21684:21702   */\n      swap1\n      pop\n        /* \"#utility.yul\":21560:21708   */\n      swap3\n      swap2\n      pop\n      pop\n      jump\t// out\n        /* \"#utility.yul\":21714:22104   */\n    tag_451:\n        /* \"#utility.yul\":21820:21823   */\n      0x00\n        /* \"#utility.yul\":21848:21887   */\n      tag_679\n        /* \"#utility.yul\":21881:21886   */\n      dup3\n        /* \"#utility.yul\":21848:21887   */\n      tag_416\n      jump\t// in\n    tag_679:\n        /* \"#utility.yul\":21903:21992   */\n      tag_680\n        /* \"#utility.yul\":21985:21991   */\n      dup2\n        /* \"#utility.yul\":21980:21983   */\n      dup6\n        /* \"#utility.yul\":21903:21992   */\n      tag_450\n      jump\t// in\n    tag_680:\n        /* \"#utility.yul\":21896:21992   */\n      swap4\n      pop\n        /* \"#utility.yul\":22001:22066   */\n      tag_681\n        /* \"#utility.yul\":22059:22065   */\n      dup2\n        /* \"#utility.yul\":22054:22057   */\n      dup6\n        /* \"#utility.yul\":22047:22051   */\n      0x20\n        /* \"#utility.yul\":22040:22045   */\n      dup7\n        /* \"#utility.yul\":22036:22052   */\n      add\n        /* \"#utility.yul\":22001:22066   */\n      tag_418\n      jump\t// in\n    tag_681:\n        /* \"#utility.yul\":22091:22097   */\n      dup1\n        /* \"#utility.yul\":22086:22089   */\n      dup5\n        /* \"#utility.yul\":22082:22098   */\n      add\n        /* \"#utility.yul\":22075:22098   */\n      swap2\n      pop\n        /* \"#utility.yul\":21824:22104   */\n      pop\n        /* \"#utility.yul\":21714:22104   */\n      swap3\n      swap2\n      pop\n      pop\n      jump\t// out\n        /* \"#utility.yul\":22110:22385   */\n    tag_114:\n        /* \"#utility.yul\":22242:22245   */\n      0x00\n        /* \"#utility.yul\":22264:22359   */\n      tag_683\n        /* \"#utility.yul\":22355:22358   */\n      dup3\n        /* \"#utility.yul\":22346:22352   */\n      dup5\n        /* \"#utility.yul\":22264:22359   */\n      tag_451\n      jump\t// in\n    tag_683:\n        /* \"#utility.yul\":22257:22359   */\n      swap2\n      pop\n        /* \"#utility.yul\":22376:22379   */\n      dup2\n        /* \"#utility.yul\":22369:22379   */\n      swap1\n      pop\n        /* \"#utility.yul\":22110:22385   */\n      swap3\n      swap2\n      pop\n      pop\n      jump\t// out\n        /* \"#utility.yul\":22391:22532   */\n    tag_452:\n        /* \"#utility.yul\":22440:22444   */\n      0x00\n        /* \"#utility.yul\":22463:22466   */\n      dup2\n        /* \"#utility.yul\":22455:22466   */\n      swap1\n      pop\n        /* \"#utility.yul\":22486:22489   */\n      dup2\n        /* \"#utility.yul\":22483:22484   */\n      0x00\n        /* \"#utility.yul\":22476:22490   */\n      mstore\n        /* \"#utility.yul\":22520:22524   */\n      0x20\n        /* \"#utility.yul\":22517:22518   */\n      0x00\n        /* \"#utility.yul\":22507:22525   */\n      keccak256\n        /* \"#utility.yul\":22499:22525   */\n      swap1\n      pop\n        /* \"#utility.yul\":22391:22532   */\n      swap2\n      swap1\n      pop\n      jump\t// out\n        /* \"#utility.yul\":22538:22631   */\n    tag_453:\n        /* \"#utility.yul\":22575:22581   */\n      0x00\n        /* \"#utility.yul\":22622:22624   */\n      0x20\n        /* \"#utility.yul\":22617:22619   */\n      0x1f\n        /* \"#utility.yul\":22610:22615   */\n      dup4\n        /* \"#utility.yul\":22606:22620   */\n      add\n        /* \"#utility.yul\":22602:22625   */\n      div\n        /* \"#utility.yul\":22592:22625   */\n      swap1\n      pop\n        /* \"#utility.yul\":22538:22631   */\n      swap2\n      swap1\n      pop\n      jump\t// out\n        /* \"#utility.yul\":22637:22744   */\n    tag_454:\n        /* \"#utility.yul\":22681:22689   */\n      0x00\n        /* \"#utility.yul\":22731:22736   */\n      dup3\n        /* \"#utility.yul\":22725:22729   */\n      dup3\n        /* \"#utility.yul\":22721:22737   */\n      shl\n        /* \"#utility.yul\":22700:22737   */\n      swap1\n      pop\n        /* \"#utility.yul\":22637:22744   */\n      swap3\n      swap2\n      pop\n      pop\n      jump\t// out\n        /* \"#utility.yul\":22750:23143   */\n    tag_455:\n        /* \"#utility.yul\":22819:22825   */\n      0x00\n        /* \"#utility.yul\":22869:22870   */\n      0x08\n        /* \"#utility.yul\":22857:22867   */\n      dup4\n        /* \"#utility.yul\":22853:22871   */\n      mul\n        /* \"#utility.yul\":22892:22989   */\n      tag_688\n        /* \"#utility.yul\":22922:22988   */\n      0xffffffffffffffffffffffffffffffffffffffffffffffffffffffffffffffff\n        /* \"#utility.yul\":22911:22920   */\n      dup3\n        /* \"#utility.yul\":22892:22989   */\n      tag_454\n      jump\t// in\n    tag_688:\n        /* \"#utility.yul\":23010:23049   */\n      tag_689\n        /* \"#utility.yul\":23040:23048   */\n      dup7\n        /* \"#utility.yul\":23029:23038   */\n      dup4\n        /* \"#utility.yul\":23010:23049   */\n      tag_454\n      jump\t// in\n    tag_689:\n        /* \"#utility.yul\":22998:23049   */\n      swap6\n      pop\n        /* \"#utility.yul\":23082:23086   */\n      dup1\n        /* \"#utility.yul\":23078:23087   */\n      not\n        /* \"#utility.yul\":23071:23076   */\n      dup5\n        /* \"#utility.yul\":23067:23088   */\n      and\n        /* \"#utility.yul\":23058:23088   */\n      swap4\n      pop\n        /* \"#utility.yul\":23131:23135   */\n      dup1\n        /* \"#utility.yul\":23121:23129   */\n      dup7\n        /* \"#utility.yul\":23117:23136   */\n      and\n        /* \"#utility.yul\":23110:23115   */\n      dup5\n        /* \"#utility.yul\":23107:23137   */\n      or\n        /* \"#utility.yul\":23097:23137   */\n      swap3\n      pop\n        /* \"#utility.yul\":22826:23143   */\n      pop\n      pop\n        /* \"#utility.yul\":22750:23143   */\n      swap4\n      swap3\n      pop\n      pop\n      pop\n      jump\t// out\n        /* \"#utility.yul\":23149:23209   */\n    tag_456:\n        /* \"#utility.yul\":23177:23180   */\n      0x00\n        /* \"#utility.yul\":23198:23203   */\n      dup2\n        /* \"#utility.yul\":23191:23203   */\n      swap1\n      pop\n        /* \"#utility.yul\":23149:23209   */\n      swap2\n      swap1\n      pop\n      jump\t// out\n        /* \"#utility.yul\":23215:23357   */\n    tag_457:\n        /* \"#utility.yul\":23265:23274   */\n      0x00\n        /* \"#utility.yul\":23298:23351   */\n      tag_692\n        /* \"#utility.yul\":23316:23350   */\n      tag_693\n        /* \"#utility.yul\":23325:23349   */\n      tag_694\n        /* \"#utility.yul\":23343:23348   */\n      dup5\n        /* \"#utility.yul\":23325:23349   */\n      tag_431\n      jump\t// in\n    tag_694:\n        /* \"#utility.yul\":23316:23350   */\n      tag_456\n      jump\t// in\n    tag_693:\n        /* \"#utility.yul\":23298:23351   */\n      tag_431\n      jump\t// in\n    tag_692:\n        /* \"#utility.yul\":23285:23351   */\n      swap1\n      pop\n        /* \"#utility.yul\":23215:23357   */\n      swap2\n      swap1\n      pop\n      jump\t// out\n        /* \"#utility.yul\":23363:23438   */\n    tag_458:\n        /* \"#utility.yul\":23406:23409   */\n      0x00\n        /* \"#utility.yul\":23427:23432   */\n      dup2\n        /* \"#utility.yul\":23420:23432   */\n      swap1\n      pop\n        /* \"#utility.yul\":23363:23438   */\n      swap2\n      swap1\n      pop\n      jump\t// out\n        /* \"#utility.yul\":23444:23713   */\n    tag_459:\n        /* \"#utility.yul\":23554:23593   */\n      tag_697\n        /* \"#utility.yul\":23585:23592   */\n      dup4\n        /* \"#utility.yul\":23554:23593   */\n      tag_457\n      jump\t// in\n    tag_697:\n        /* \"#utility.yul\":23615:23706   */\n      tag_698\n        /* \"#utility.yul\":23664:23705   */\n      tag_699\n        /* \"#utility.yul\":23688:23704   */\n      dup3\n        /* \"#utility.yul\":23664:23705   */\n      tag_458\n      jump\t// in\n    tag_699:\n        /* \"#utility.yul\":23656:23662   */\n      dup5\n        /* \"#utility.yul\":23649:23653   */\n      dup5\n        /* \"#utility.yul\":23643:23654   */\n      sload\n        /* \"#utility.yul\":23615:23706   */\n      tag_455\n      jump\t// in\n    tag_698:\n        /* \"#utility.yul\":23609:23613   */\n      dup3\n        /* \"#utility.yul\":23602:23707   */\n      sstore\n        /* \"#utility.yul\":23520:23713   */\n      pop\n        /* \"#utility.yul\":23444:23713   */\n      pop\n      pop\n      pop\n      jump\t// out\n        /* \"#utility.yul\":23719:23792   */\n    tag_460:\n        /* \"#utility.yul\":23764:23767   */\n      0x00\n        /* \"#utility.yul\":23719:23792   */\n      swap1\n      jump\t// out\n        /* \"#utility.yul\":23798:23987   */\n    tag_461:\n        /* \"#utility.yul\":23875:23907   */\n      tag_702\n      tag_460\n      jump\t// in\n    tag_702:\n        /* \"#utility.yul\":23916:23981   */\n      tag_703\n        /* \"#utility.yul\":23974:23980   */\n      dup2\n        /* \"#utility.yul\":23966:23972   */\n      dup5\n        /* \"#utility.yul\":23960:23964   */\n      dup5\n        /* \"#utility.yul\":23916:23981   */\n      tag_459\n      jump\t// in\n    tag_703:\n        /* \"#utility.yul\":23851:23987   */\n      pop\n        /* \"#utility.yul\":23798:23987   */\n      pop\n      pop\n      jump\t// out\n        /* \"#utility.yul\":23993:24179   */\n    tag_462:\n        /* \"#utility.yul\":24053:24173   */\n    tag_705:\n        /* \"#utility.yul\":24070:24073   */\n      dup2\n        /* \"#utility.yul\":24063:24068   */\n      dup2\n        /* \"#utility.yul\":24060:24074   */\n      lt\n        /* \"#utility.yul\":24053:24173   */\n      iszero\n      tag_707\n      jumpi\n        /* \"#utility.yul\":24124:24163   */\n      tag_708\n        /* \"#utility.yul\":24161:24162   */\n      0x00\n        /* \"#utility.yul\":24154:24159   */\n      dup3\n        /* \"#utility.yul\":24124:24163   */\n      tag_461\n      jump\t// in\n    tag_708:\n        /* \"#utility.yul\":24097:24098   */\n      0x01\n        /* \"#utility.yul\":24090:24095   */\n      dup2\n        /* \"#utility.yul\":24086:24099   */\n      add\n        /* \"#utility.yul\":24077:24099   */\n      swap1\n      pop\n        /* \"#utility.yul\":24053:24173   */\n      jump(tag_705)\n    tag_707:\n        /* \"#utility.yul\":23993:24179   */\n      pop\n      pop\n      jump\t// out\n        /* \"#utility.yul\":24185:24728   */\n    tag_463:\n        /* \"#utility.yul\":24286:24288   */\n      0x1f\n        /* \"#utility.yul\":24281:24284   */\n      dup3\n        /* \"#utility.yul\":24278:24289   */\n      gt\n        /* \"#utility.yul\":24275:24721   */\n      iszero\n      tag_710\n      jumpi\n        /* \"#utility.yul\":24320:24358   */\n      tag_711\n        /* \"#utility.yul\":24352:24357   */\n      dup2\n        /* \"#utility.yul\":24320:24358   */\n      tag_452\n      jump\t// in\n    tag_711:\n        /* \"#utility.yul\":24404:24433   */\n      tag_712\n        /* \"#utility.yul\":24422:24432   */\n      dup5\n        /* \"#utility.yul\":24404:24433   */\n      tag_453\n      jump\t// in\n    tag_712:\n        /* \"#utility.yul\":24394:24402   */\n      dup2\n        /* \"#utility.yul\":24390:24434   */\n      add\n        /* \"#utility.yul\":24587:24589   */\n      0x20\n        /* \"#utility.yul\":24575:24585   */\n      dup6\n        /* \"#utility.yul\":24572:24590   */\n      lt\n        /* \"#utility.yul\":24569:24618   */\n      iszero\n      tag_713\n      jumpi\n        /* \"#utility.yul\":24608:24616   */\n      dup2\n        /* \"#utility.yul\":24593:24616   */\n      swap1\n      pop\n        /* \"#utility.yul\":24569:24618   */\n    tag_713:\n        /* \"#utility.yul\":24631:24711   */\n      tag_714\n        /* \"#utility.yul\":24687:24709   */\n      tag_715\n        /* \"#utility.yul\":24705:24708   */\n      dup6\n        /* \"#utility.yul\":24687:24709   */\n      tag_453\n      jump\t// in\n    tag_715:\n        /* \"#utility.yul\":24677:24685   */\n      dup4\n        /* \"#utility.yul\":24673:24710   */\n      add\n        /* \"#utility.yul\":24660:24671   */\n      dup3\n        /* \"#utility.yul\":24631:24711   */\n      tag_462\n      jump\t// in\n    tag_714:\n        /* \"#utility.yul\":24290:24721   */\n      pop\n      pop\n        /* \"#utility.yul\":24275:24721   */\n    tag_710:\n        /* \"#utility.yul\":24185:24728   */\n      pop\n      pop\n      pop\n      jump\t// out\n        /* \"#utility.yul\":24734:24851   */\n    tag_464:\n        /* \"#utility.yul\":24788:24796   */\n      0x00\n        /* \"#utility.yul\":24838:24843   */\n      dup3\n        /* \"#utility.yul\":24832:24836   */\n      dup3\n        /* \"#utility.yul\":24828:24844   */\n      shr\n        /* \"#utility.yul\":24807:24844   */\n      swap1\n      pop\n        /* \"#utility.yul\":24734:24851   */\n      swap3\n      swap2\n      pop\n      pop\n      jump\t// out\n        /* \"#utility.yul\":24857:25026   */\n    tag_465:\n        /* \"#utility.yul\":24901:24907   */\n      0x00\n        /* \"#utility.yul\":24934:24985   */\n      tag_718\n        /* \"#utility.yul\":24982:24983   */\n      0x00\n        /* \"#utility.yul\":24978:24984   */\n      not\n        /* \"#utility.yul\":24970:24975   */\n      dup5\n        /* \"#utility.yul\":24967:24968   */\n      0x08\n        /* \"#utility.yul\":24963:24976   */\n      mul\n        /* \"#utility.yul\":24934:24985   */\n      tag_464\n      jump\t// in\n    tag_718:\n        /* \"#utility.yul\":24930:24986   */\n      not\n        /* \"#utility.yul\":25015:25019   */\n      dup1\n        /* \"#utility.yul\":25009:25013   */\n      dup4\n        /* \"#utility.yul\":25005:25020   */\n      and\n        /* \"#utility.yul\":24995:25020   */\n      swap2\n      pop\n        /* \"#utility.yul\":24908:25026   */\n      pop\n        /* \"#utility.yul\":24857:25026   */\n      swap3\n      swap2\n      pop\n      pop\n      jump\t// out\n        /* \"#utility.yul\":25031:25326   */\n    tag_466:\n        /* \"#utility.yul\":25107:25111   */\n      0x00\n        /* \"#utility.yul\":25253:25282   */\n      tag_720\n        /* \"#utility.yul\":25278:25281   */\n      dup4\n        /* \"#utility.yul\":25272:25276   */\n      dup4\n        /* \"#utility.yul\":25253:25282   */\n      tag_465\n      jump\t// in\n    tag_720:\n        /* \"#utility.yul\":25245:25282   */\n      swap2\n      pop\n        /* \"#utility.yul\":25315:25318   */\n      dup3\n        /* \"#utility.yul\":25312:25313   */\n      0x02\n        /* \"#utility.yul\":25308:25319   */\n      mul\n        /* \"#utility.yul\":25302:25306   */\n      dup3\n        /* \"#utility.yul\":25299:25320   */\n      or\n        /* \"#utility.yul\":25291:25320   */\n      swap1\n      pop\n        /* \"#utility.yul\":25031:25326   */\n      swap3\n      swap2\n      pop\n      pop\n      jump\t// out\n        /* \"#utility.yul\":25331:26726   */\n    tag_116:\n        /* \"#utility.yul\":25448:25485   */\n      tag_722\n        /* \"#utility.yul\":25481:25484   */\n      dup3\n        /* \"#utility.yul\":25448:25485   */\n      tag_416\n      jump\t// in\n    tag_722:\n        /* \"#utility.yul\":25550:25568   */\n      0xffffffffffffffff\n        /* \"#utility.yul\":25542:25548   */\n      dup2\n        /* \"#utility.yul\":25539:25569   */\n      gt\n        /* \"#utility.yul\":25536:25592   */\n      iszero\n      tag_723\n      jumpi\n        /* \"#utility.yul\":25572:25590   */\n      tag_724\n      tag_409\n      jump\t// in\n    tag_724:\n        /* \"#utility.yul\":25536:25592   */\n    tag_723:\n        /* \"#utility.yul\":25616:25654   */\n      tag_725\n        /* \"#utility.yul\":25648:25652   */\n      dup3\n        /* \"#utility.yul\":25642:25653   */\n      sload\n        /* \"#utility.yul\":25616:25654   */\n      tag_95\n      jump\t// in\n    tag_725:\n        /* \"#utility.yul\":25701:25768   */\n      tag_726\n        /* \"#utility.yul\":25761:25767   */\n      dup3\n        /* \"#utility.yul\":25753:25759   */\n      dup3\n        /* \"#utility.yul\":25747:25751   */\n      dup6\n        /* \"#utility.yul\":25701:25768   */\n      tag_463\n      jump\t// in\n    tag_726:\n        /* \"#utility.yul\":25795:25796   */\n      0x00\n        /* \"#utility.yul\":25819:25823   */\n      0x20\n        /* \"#utility.yul\":25806:25823   */\n      swap1\n      pop\n        /* \"#utility.yul\":25851:25853   */\n      0x1f\n        /* \"#utility.yul\":25843:25849   */\n      dup4\n        /* \"#utility.yul\":25840:25854   */\n      gt\n        /* \"#utility.yul\":25868:25869   */\n      0x01\n        /* \"#utility.yul\":25863:26481   */\n      dup2\n      eq\n      tag_728\n      jumpi\n        /* \"#utility.yul\":26525:26526   */\n      0x00\n        /* \"#utility.yul\":26542:26548   */\n      dup5\n        /* \"#utility.yul\":26539:26616   */\n      iszero\n      tag_729\n      jumpi\n        /* \"#utility.yul\":26591:26600   */\n      dup3\n        /* \"#utility.yul\":26586:26589   */\n      dup8\n        /* \"#utility.yul\":26582:26601   */\n      add\n        /* \"#utility.yul\":26576:26602   */\n      mload\n        /* \"#utility.yul\":26567:26602   */\n      swap1\n      pop\n        /* \"#utility.yul\":26539:26616   */\n    tag_729:\n        /* \"#utility.yul\":26642:26709   */\n      tag_730\n        /* \"#utility.yul\":26702:26708   */\n      dup6\n        /* \"#utility.yul\":26695:26700   */\n      dup3\n        /* \"#utility.yul\":26642:26709   */\n      tag_466\n      jump\t// in\n    tag_730:\n        /* \"#utility.yul\":26636:26640   */\n      dup7\n        /* \"#utility.yul\":26629:26710   */\n      sstore\n        /* \"#utility.yul\":26498:26720   */\n      pop\n        /* \"#utility.yul\":25833:26720   */\n      jump(tag_727)\n        /* \"#utility.yul\":25863:26481   */\n    tag_728:\n        /* \"#utility.yul\":25915:25919   */\n      0x1f\n        /* \"#utility.yul\":25911:25920   */\n      not\n        /* \"#utility.yul\":25903:25909   */\n      dup5\n        /* \"#utility.yul\":25899:25921   */\n      and\n        /* \"#utility.yul\":25949:25986   */\n      tag_731\n        /* \"#utility.yul\":25981:25985   */\n      dup7\n        /* \"#utility.yul\":25949:25986   */\n      tag_452\n      jump\t// in\n    tag_731:\n        /* \"#utility.yul\":26008:26009   */\n      0x00\n        /* \"#utility.yul\":26022:26230   */\n    tag_732:\n        /* \"#utility.yul\":26036:26043   */\n      dup3\n        /* \"#utility.yul\":26033:26034   */\n      dup2\n        /* \"#utility.yul\":26030:26044   */\n      lt\n        /* \"#utility.yul\":26022:26230   */\n      iszero\n      tag_734\n      jumpi\n        /* \"#utility.yul\":26115:26124   */\n      dup5\n        /* \"#utility.yul\":26110:26113   */\n      dup10\n        /* \"#utility.yul\":26106:26125   */\n      add\n        /* \"#utility.yul\":26100:26126   */\n      mload\n        /* \"#utility.yul\":26092:26098   */\n      dup3\n        /* \"#utility.yul\":26085:26127   */\n      sstore\n        /* \"#utility.yul\":26166:26167   */\n      0x01\n        /* \"#utility.yul\":26158:26164   */\n      dup3\n        /* \"#utility.yul\":26154:26168   */\n      add\n        /* \"#utility.yul\":26144:26168   */\n      swap2\n      pop\n        /* \"#utility.yul\":26213:26215   */\n      0x20\n        /* \"#utility.yul\":26202:26211   */\n      dup6\n        /* \"#utility.yul\":26198:26216   */\n      add\n        /* \"#utility.yul\":26185:26216   */\n      swap5\n      pop\n        /* \"#utility.yul\":26059:26063   */\n      0x20\n        /* \"#utility.yul\":26056:26057   */\n      dup2\n        /* \"#utility.yul\":26052:26064   */\n      add\n        /* \"#utility.yul\":26047:26064   */\n      swap1\n      pop\n        /* \"#utility.yul\":26022:26230   */\n      jump(tag_732)\n    tag_734:\n        /* \"#utility.yul\":26258:26264   */\n      dup7\n        /* \"#utility.yul\":26249:26256   */\n      dup4\n        /* \"#utility.yul\":26246:26265   */\n      lt\n        /* \"#utility.yul\":26243:26422   */\n      iszero\n      tag_735\n      jumpi\n        /* \"#utility.yul\":26316:26325   */\n      dup5\n        /* \"#utility.yul\":26311:26314   */\n      dup10\n        /* \"#utility.yul\":26307:26326   */\n      add\n        /* \"#utility.yul\":26301:26327   */\n      mload\n        /* \"#utility.yul\":26359:26407   */\n      tag_736\n        /* \"#utility.yul\":26401:26405   */\n      0x1f\n        /* \"#utility.yul\":26393:26399   */\n      dup10\n        /* \"#utility.yul\":26389:26406   */\n      and\n        /* \"#utility.yul\":26378:26387   */\n      dup3\n        /* \"#utility.yul\":26359:26407   */\n      tag_465\n      jump\t// in\n    tag_736:\n        /* \"#utility.yul\":26351:26357   */\n      dup4\n        /* \"#utility.yul\":26344:26408   */\n      sstore\n        /* \"#utility.yul\":26266:26422   */\n      pop\n        /* \"#utility.yul\":26243:26422   */\n    tag_735:\n        /* \"#utility.yul\":26468:26469   */\n      0x01\n        /* \"#utility.yul\":26464:26465   */\n      0x02\n        /* \"#utility.yul\":26456:26462   */\n      dup9\n        /* \"#utility.yul\":26452:26466   */\n      mul\n        /* \"#utility.yul\":26448:26470   */\n      add\n        /* \"#utility.yul\":26442:26446   */\n      dup9\n        /* \"#utility.yul\":26435:26471   */\n      sstore\n        /* \"#utility.yul\":25870:26481   */\n      pop\n      pop\n      pop\n        /* \"#utility.yul\":25833:26720   */\n    tag_727:\n      pop\n        /* \"#utility.yul\":25423:26726   */\n      pop\n      pop\n      pop\n        /* \"#utility.yul\":25331:26726   */\n      pop\n      pop\n      jump\t// out\n        /* \"#utility.yul\":26732:26912   */\n    tag_198:\n        /* \"#utility.yul\":26780:26857   */\n      0x4e487b7100000000000000000000000000000000000000000000000000000000\n        /* \"#utility.yul\":26777:26778   */\n      0x00\n        /* \"#utility.yul\":26770:26858   */\n      mstore\n        /* \"#utility.yul\":26877:26881   */\n      0x32\n        /* \"#utility.yul\":26874:26875   */\n      0x04\n        /* \"#utility.yul\":26867:26882   */\n      mstore\n        /* \"#utility.yul\":26901:26905   */\n      0x24\n        /* \"#utility.yul\":26898:26899   */\n      0x00\n        /* \"#utility.yul\":26891:26906   */\n      revert\n        /* \"#utility.yul\":26918:27098   */\n    tag_467:\n        /* \"#utility.yul\":26966:27043   */\n      0x4e487b7100000000000000000000000000000000000000000000000000000000\n        /* \"#utility.yul\":26963:26964   */\n      0x00\n        /* \"#utility.yul\":26956:27044   */\n      mstore\n        /* \"#utility.yul\":27063:27067   */\n      0x11\n        /* \"#utility.yul\":27060:27061   */\n      0x04\n        /* \"#utility.yul\":27053:27068   */\n      mstore\n        /* \"#utility.yul\":27087:27091   */\n      0x24\n        /* \"#utility.yul\":27084:27085   */\n      0x00\n        /* \"#utility.yul\":27077:27092   */\n      revert\n        /* \"#utility.yul\":27104:27337   */\n    tag_207:\n        /* \"#utility.yul\":27143:27146   */\n      0x00\n        /* \"#utility.yul\":27166:27190   */\n      tag_740\n        /* \"#utility.yul\":27184:27189   */\n      dup3\n        /* \"#utility.yul\":27166:27190   */\n      tag_431\n      jump\t// in\n    tag_740:\n        /* \"#utility.yul\":27157:27190   */\n      swap2\n      pop\n        /* \"#utility.yul\":27212:27278   */\n      0xffffffffffffffffffffffffffffffffffffffffffffffffffffffffffffffff\n        /* \"#utility.yul\":27205:27210   */\n      dup3\n        /* \"#utility.yul\":27202:27279   */\n      sub\n        /* \"#utility.yul\":27199:27302   */\n      tag_741\n      jumpi\n        /* \"#utility.yul\":27282:27300   */\n      tag_742\n      tag_467\n      jump\t// in\n    tag_742:\n        /* \"#utility.yul\":27199:27302   */\n    tag_741:\n        /* \"#utility.yul\":27329:27330   */\n      0x01\n        /* \"#utility.yul\":27322:27327   */\n      dup3\n        /* \"#utility.yul\":27318:27331   */\n      add\n        /* \"#utility.yul\":27311:27331   */\n      swap1\n      pop\n        /* \"#utility.yul\":27104:27337   */\n      swap2\n      swap1\n      pop\n      jump\t// out\n        /* \"#utility.yul\":27343:27457   */\n    tag_468:\n      pop\n      jump\t// out\n        /* \"#utility.yul\":27463:27863   */\n    tag_469:\n        /* \"#utility.yul\":27623:27626   */\n      0x00\n        /* \"#utility.yul\":27644:27728   */\n      tag_745\n        /* \"#utility.yul\":27726:27727   */\n      0x00\n        /* \"#utility.yul\":27721:27724   */\n      dup4\n        /* \"#utility.yul\":27644:27728   */\n      tag_450\n      jump\t// in\n    tag_745:\n        /* \"#utility.yul\":27637:27728   */\n      swap2\n      pop\n        /* \"#utility.yul\":27737:27830   */\n      tag_746\n        /* \"#utility.yul\":27826:27829   */\n      dup3\n        /* \"#utility.yul\":27737:27830   */\n      tag_468\n      jump\t// in\n    tag_746:\n        /* \"#utility.yul\":27855:27856   */\n      0x00\n        /* \"#utility.yul\":27850:27853   */\n      dup3\n        /* \"#utility.yul\":27846:27857   */\n      add\n        /* \"#utility.yul\":27839:27857   */\n      swap1\n      pop\n        /* \"#utility.yul\":27463:27863   */\n      swap2\n      swap1\n      pop\n      jump\t// out\n        /* \"#utility.yul\":27869:28250   */\n    tag_304:\n        /* \"#utility.yul\":28054:28057   */\n      0x00\n        /* \"#utility.yul\":28076:28224   */\n      tag_748\n        /* \"#utility.yul\":28220:28223   */\n      dup3\n        /* \"#utility.yul\":28076:28224   */\n      tag_469\n      jump\t// in\n    tag_748:\n        /* \"#utility.yul\":28069:28224   */\n      swap2\n      pop\n        /* \"#utility.yul\":28241:28244   */\n      dup2\n        /* \"#utility.yul\":28234:28244   */\n      swap1\n      pop\n        /* \"#utility.yul\":27869:28250   */\n      swap2\n      swap1\n      pop\n      jump\t// out\n        /* \"#utility.yul\":28280:29154   */\n    tag_470:\n        /* \"#utility.yul\":28383:28386   */\n      0x00\n        /* \"#utility.yul\":28420:28425   */\n      dup2\n        /* \"#utility.yul\":28414:28426   */\n      sload\n        /* \"#utility.yul\":28449:28485   */\n      tag_750\n        /* \"#utility.yul\":28475:28484   */\n      dup2\n        /* \"#utility.yul\":28449:28485   */\n      tag_95\n      jump\t// in\n    tag_750:\n        /* \"#utility.yul\":28501:28590   */\n      tag_751\n        /* \"#utility.yul\":28583:28589   */\n      dup2\n        /* \"#utility.yul\":28578:28581   */\n      dup7\n        /* \"#utility.yul\":28501:28590   */\n      tag_450\n      jump\t// in\n    tag_751:\n        /* \"#utility.yul\":28494:28590   */\n      swap5\n      pop\n        /* \"#utility.yul\":28621:28622   */\n      0x01\n        /* \"#utility.yul\":28610:28619   */\n      dup3\n        /* \"#utility.yul\":28606:28623   */\n      and\n        /* \"#utility.yul\":28637:28638   */\n      0x00\n        /* \"#utility.yul\":28632:28798   */\n      dup2\n      eq\n      tag_753\n      jumpi\n        /* \"#utility.yul\":28812:28813   */\n      0x01\n        /* \"#utility.yul\":28807:29148   */\n      dup2\n      eq\n      tag_754\n      jumpi\n        /* \"#utility.yul\":28599:29148   */\n      jump(tag_752)\n        /* \"#utility.yul\":28632:28798   */\n    tag_753:\n        /* \"#utility.yul\":28716:28720   */\n      0xff\n        /* \"#utility.yul\":28712:28721   */\n      not\n        /* \"#utility.yul\":28701:28710   */\n      dup4\n        /* \"#utility.yul\":28697:28722   */\n      and\n        /* \"#utility.yul\":28692:28695   */\n      dup7\n        /* \"#utility.yul\":28685:28723   */\n      mstore\n        /* \"#utility.yul\":28778:28784   */\n      dup2\n        /* \"#utility.yul\":28771:28785   */\n      iszero\n        /* \"#utility.yul\":28764:28786   */\n      iszero\n        /* \"#utility.yul\":28756:28762   */\n      dup3\n        /* \"#utility.yul\":28752:28787   */\n      mul\n        /* \"#utility.yul\":28747:28750   */\n      dup7\n        /* \"#utility.yul\":28743:28788   */\n      add\n        /* \"#utility.yul\":28736:28788   */\n      swap4\n      pop\n        /* \"#utility.yul\":28632:28798   */\n      jump(tag_752)\n        /* \"#utility.yul\":28807:29148   */\n    tag_754:\n        /* \"#utility.yul\":28874:28912   */\n      tag_755\n        /* \"#utility.yul\":28906:28911   */\n      dup6\n        /* \"#utility.yul\":28874:28912   */\n      tag_452\n      jump\t// in\n    tag_755:\n        /* \"#utility.yul\":28934:28935   */\n      0x00\n        /* \"#utility.yul\":28948:29102   */\n    tag_756:\n        /* \"#utility.yul\":28962:28968   */\n      dup4\n        /* \"#utility.yul\":28959:28960   */\n      dup2\n        /* \"#utility.yul\":28956:28969   */\n      lt\n        /* \"#utility.yul\":28948:29102   */\n      iszero\n      tag_758\n      jumpi\n        /* \"#utility.yul\":29036:29043   */\n      dup2\n        /* \"#utility.yul\":29030:29044   */\n      sload\n        /* \"#utility.yul\":29026:29027   */\n      dup2\n        /* \"#utility.yul\":29021:29024   */\n      dup10\n        /* \"#utility.yul\":29017:29028   */\n      add\n        /* \"#utility.yul\":29010:29045   */\n      mstore\n        /* \"#utility.yul\":29086:29087   */\n      0x01\n        /* \"#utility.yul\":29077:29084   */\n      dup3\n        /* \"#utility.yul\":29073:29088   */\n      add\n        /* \"#utility.yul\":29062:29088   */\n      swap2\n      pop\n        /* \"#utility.yul\":28984:28988   */\n      0x20\n        /* \"#utility.yul\":28981:28982   */\n      dup2\n        /* \"#utility.yul\":28977:28989   */\n      add\n        /* \"#utility.yul\":28972:28989   */\n      swap1\n      pop\n        /* \"#utility.yul\":28948:29102   */\n      jump(tag_756)\n    tag_758:\n        /* \"#utility.yul\":29131:29137   */\n      dup4\n        /* \"#utility.yul\":29126:29129   */\n      dup9\n        /* \"#utility.yul\":29122:29138   */\n      add\n        /* \"#utility.yul\":29115:29138   */\n      swap6\n      pop\n        /* \"#utility.yul\":28814:29148   */\n      pop\n      pop\n        /* \"#utility.yul\":28599:29148   */\n    tag_752:\n      pop\n        /* \"#utility.yul\":28387:29154   */\n      pop\n      pop\n        /* \"#utility.yul\":28280:29154   */\n      swap3\n      swap2\n      pop\n      pop\n      jump\t// out\n        /* \"#utility.yul\":29160:29429   */\n    tag_307:\n        /* \"#utility.yul\":29289:29292   */\n      0x00\n        /* \"#utility.yul\":29311:29403   */\n      tag_760\n        /* \"#utility.yul\":29399:29402   */\n      dup3\n        /* \"#utility.yul\":29390:29396   */\n      dup5\n        /* \"#utility.yul\":29311:29403   */\n      tag_470\n      jump\t// in\n    tag_760:\n        /* \"#utility.yul\":29304:29403   */\n      swap2\n      pop\n        /* \"#utility.yul\":29420:29423   */\n      dup2\n        /* \"#utility.yul\":29413:29423   */\n      swap1\n      pop\n        /* \"#utility.yul\":29160:29429   */\n      swap3\n      swap2\n      pop\n      pop\n      jump\t// out\n\n    auxdata: 0xa26469706673582212205450842dbc0a7dcbfbf18d3213bf293c8536ea7a63d6658a68401ac55e25585f64736f6c63430008120033\n}\n",
				"bytecode": {
					"linkReferences": {},
					"object": "60806040526000600155600060025534801561001a57600080fd5b50336000806101000a81548173ffffffffffffffffffffffffffffffffffffffff021916908373ffffffffffffffffffffffffffffffffffffffff1602179055506132eb8061006a6000396000f3fe608060405234801561001057600080fd5b506004361061010b5760003560e01c80637198ed1a116100a2578063bed34bba11610071578063bed34bba146102a6578063c77cfeeb146102d6578063d430e05a14610306578063dba3f6aa14610336578063f70e1c5e1461036d5761010b565b80637198ed1a14610230578063893d20e8146102605780638d5fa8411461027e578063bb44563f146102885761010b565b806351f40dd6116100de57806351f40dd6146101aa57806363c60bd5146101da57806363fbe5b3146101f65780636bd562f3146102145761010b565b8063076faab414610110578063081396eb1461014257806315c19c1d1461015e578063379f8fc21461017a575b600080fd5b61012a60048036038101906101259190612504565b61039d565b604051610139939291906125cc565b60405180910390f35b61015c60048036038101906101579190612618565b610575565b005b61017860048036038101906101739190612618565b610618565b005b610194600480360381019061018f9190612504565b6106bb565b6040516101a191906128f6565b60405180910390f35b6101c460048036038101906101bf91906129fe565b6109da565b6040516101d191906128f6565b60405180910390f35b6101f460048036038101906101ef9190612a76565b610de9565b005b6101fe610ef1565b60405161020b9190612afd565b60405180910390f35b61022e60048036038101906102299190612b44565b610ef7565b005b61024a60048036038101906102459190612504565b61104d565b60405161025791906128f6565b60405180910390f35b610268611418565b6040516102759190612ce3565b60405180910390f35b610286611441565b005b610290611443565b60405161029d9190612afd565b60405180910390f35b6102c060048036038101906102bb9190612618565b611449565b6040516102cd9190612d19565b60405180910390f35b6102f060048036038101906102eb9190612504565b611517565b6040516102fd91906128f6565b60405180910390f35b610320600480360381019061031b9190612618565b6118e2565b60405161032d9190612d19565b60405180910390f35b610350600480360381019061034b9190612d34565b611b11565b604051610364989796959493929190612d61565b60405180910390f35b61038760048036038101906103829190612504565b611e89565b60405161039491906128f6565b60405180910390f35b6004818051602081018201805184825260208301602085012081835280955050505050506000915090508060000180546103d690612e38565b80601f016020809104026020016040519081016040528092919081815260200182805461040290612e38565b801561044f5780601f106104245761010080835404028352916020019161044f565b820191906000526020600020905b81548152906001019060200180831161043257829003601f168201915b50505050509080600101805461046490612e38565b80601f016020809104026020016040519081016040528092919081815260200182805461049090612e38565b80156104dd5780601f106104b2576101008083540402835291602001916104dd565b820191906000526020600020905b8154815290600101906020018083116104c057829003601f168201915b5050505050908060020180546104f290612e38565b80601f016020809104026020016040519081016040528092919081815260200182805461051e90612e38565b801561056b5780601f106105405761010080835404028352916020019161056b565b820191906000526020600020905b81548152906001019060200180831161054e57829003601f168201915b5050505050905083565b6105b4826040518060400160405280600881526020017f757365724c656e730000000000000000000000000000000000000000000000008152506118e2565b6106145780600a836040516105c99190612ea5565b908152602001604051809103902090816105e39190613068565b50816004826040516105f59190612ea5565b908152602001604051809103902060020190816106129190613068565b505b5050565b610657826040518060400160405280600881526020017f75736572574349440000000000000000000000000000000000000000000000008152506118e2565b6106b7578060088360405161066c9190612ea5565b908152602001604051809103902090816106869190613068565b50816004826040516106989190612ea5565b908152602001604051809103902060010190816106b59190613068565b505b5050565b6106c3612254565b6004826040516106d39190612ea5565b90815260200160405180910390206040518060a00160405290816000820180546106fc90612e38565b80601f016020809104026020016040519081016040528092919081815260200182805461072890612e38565b80156107755780601f1061074a57610100808354040283529160200191610775565b820191906000526020600020905b81548152906001019060200180831161075857829003601f168201915b5050505050815260200160018201805461078e90612e38565b80601f01602080910402602001604051908101604052809291908181526020018280546107ba90612e38565b80156108075780601f106107dc57610100808354040283529160200191610807565b820191906000526020600020905b8154815290600101906020018083116107ea57829003601f168201915b5050505050815260200160028201805461082090612e38565b80601f016020809104026020016040519081016040528092919081815260200182805461084c90612e38565b80156108995780601f1061086e57610100808354040283529160200191610899565b820191906000526020600020905b81548152906001019060200180831161087c57829003601f168201915b5050505050815260200160038201805480602002602001604051908101604052809291908181526020016000905b828210156109735783829060005260206000200180546108e690612e38565b80601f016020809104026020016040519081016040528092919081815260200182805461091290612e38565b801561095f5780601f106109345761010080835404028352916020019161095f565b820191906000526020600020905b81548152906001019060200180831161094257829003601f168201915b5050505050815260200190600101906108c7565b505050508152602001600482018054806020026020016040519081016040528092919081815260200182805480156109ca57602002820191906000526020600020905b8154815260200190600101908083116109b6575b5050505050815250509050919050565b6109e2612254565b60606040518060a0016040528085815260200160405180602001604052806000815250815260200160405180602001604052806000815250815260200184815260200182815250600485604051610a399190612ea5565b90815260200160405180910390206000820151816000019081610a5c9190613068565b506020820151816001019081610a729190613068565b506040820151816002019081610a889190613068565b506060820151816003019080519060200190610aa5929190612283565b506080820151816004019080519060200190610ac29291906122dc565b50905050610ad08385610de9565b600484604051610ae09190612ea5565b90815260200160405180910390206040518060a0016040529081600082018054610b0990612e38565b80601f0160208091040260200160405190810160405280929190818152602001828054610b3590612e38565b8015610b825780601f10610b5757610100808354040283529160200191610b82565b820191906000526020600020905b815481529060010190602001808311610b6557829003601f168201915b50505050508152602001600182018054610b9b90612e38565b80601f0160208091040260200160405190810160405280929190818152602001828054610bc790612e38565b8015610c145780601f10610be957610100808354040283529160200191610c14565b820191906000526020600020905b815481529060010190602001808311610bf757829003601f168201915b50505050508152602001600282018054610c2d90612e38565b80601f0160208091040260200160405190810160405280929190818152602001828054610c5990612e38565b8015610ca65780601f10610c7b57610100808354040283529160200191610ca6565b820191906000526020600020905b815481529060010190602001808311610c8957829003601f168201915b5050505050815260200160038201805480602002602001604051908101604052809291908181526020016000905b82821015610d80578382906000526020600020018054610cf390612e38565b80601f0160208091040260200160405190810160405280929190818152602001828054610d1f90612e38565b8015610d6c5780601f10610d4157610100808354040283529160200191610d6c565b820191906000526020600020905b815481529060010190602001808311610d4f57829003601f168201915b505050505081526020019060010190610cd4565b50505050815260200160048201805480602002602001604051908101604052809291908181526020018280548015610dd757602002820191906000526020600020905b815481526020019060010190808311610dc3575b50505050508152505091505092915050565b60005b8251811015610eec576000838281518110610e0a57610e0961313a565b5b60200260200101519050610e53816040518060400160405280600b81526020017f7573657257616c6c6574730000000000000000000000000000000000000000008152506118e2565b610ed85782600982604051610e689190612ea5565b90815260200160405180910390209081610e829190613068565b50600483604051610e939190612ea5565b908152602001604051809103902060030181908060018154018082558091505060019003906000526020600020016000909190919091509081610ed69190613068565b505b508080610ee490613198565b915050610dec565b505050565b60015481565b604051806101000160405280898152602001888152602001878152602001868152602001858152602001848152602001838152602001828152506003600060015481526020019081526020016000206000820151816000019081610f5b9190613068565b506020820151816001019081610f719190613068565b506040820151816002019081610f879190613068565b506060820151816003019081610f9d9190613068565b506080820151816004019081610fb39190613068565b5060a0820151816005015560c0820151816006015560e0820151816007019081610fdd9190613068565b50905050600488604051610ff19190612ea5565b908152602001604051809103902060040160015490806001815401808255809150506001900390600052602060002001600090919091909150556001600081548092919061103e90613198565b91905055505050505050505050565b611055612254565b60006009836040516110679190612ea5565b9081526020016040518091039020805461108090612e38565b80601f01602080910402602001604051908101604052809291908181526020018280546110ac90612e38565b80156110f95780601f106110ce576101008083540402835291602001916110f9565b820191906000526020600020905b8154815290600101906020018083116110dc57829003601f168201915b505050505090506004816040516111109190612ea5565b90815260200160405180910390206040518060a001604052908160008201805461113990612e38565b80601f016020809104026020016040519081016040528092919081815260200182805461116590612e38565b80156111b25780601f10611187576101008083540402835291602001916111b2565b820191906000526020600020905b81548152906001019060200180831161119557829003601f168201915b505050505081526020016001820180546111cb90612e38565b80601f01602080910402602001604051908101604052809291908181526020018280546111f790612e38565b80156112445780601f1061121957610100808354040283529160200191611244565b820191906000526020600020905b81548152906001019060200180831161122757829003601f168201915b5050505050815260200160028201805461125d90612e38565b80601f016020809104026020016040519081016040528092919081815260200182805461128990612e38565b80156112d65780601f106112ab576101008083540402835291602001916112d6565b820191906000526020600020905b8154815290600101906020018083116112b957829003601f168201915b5050505050815260200160038201805480602002602001604051908101604052809291908181526020016000905b828210156113b057838290600052602060002001805461132390612e38565b80601f016020809104026020016040519081016040528092919081815260200182805461134f90612e38565b801561139c5780601f106113715761010080835404028352916020019161139c565b820191906000526020600020905b81548152906001019060200180831161137f57829003601f168201915b505050505081526020019060010190611304565b5050505081526020016004820180548060200260200160405190810160405280929190818152602001828054801561140757602002820191906000526020600020905b8154815260200190600101908083116113f3575b505050505081525050915050919050565b60008060009054906101000a900473ffffffffffffffffffffffffffffffffffffffff16905090565b565b60025481565b6000815183511461145d5760009050611511565b60005b835181101561150b5782818151811061147c5761147b61313a565b5b602001015160f81c60f81b7effffffffffffffffffffffffffffffffffffffffffffffffffffffffffffff19168482815181106114bc576114bb61313a565b5b602001015160f81c60f81b7effffffffffffffffffffffffffffffffffffffffffffffffffffffffffffff1916146114f8576000915050611511565b808061150390613198565b915050611460565b50600190505b92915050565b61151f612254565b6000600a836040516115319190612ea5565b9081526020016040518091039020805461154a90612e38565b80601f016020809104026020016040519081016040528092919081815260200182805461157690612e38565b80156115c35780601f10611598576101008083540402835291602001916115c3565b820191906000526020600020905b8154815290600101906020018083116115a657829003601f168201915b505050505090506004816040516115da9190612ea5565b90815260200160405180910390206040518060a001604052908160008201805461160390612e38565b80601f016020809104026020016040519081016040528092919081815260200182805461162f90612e38565b801561167c5780601f106116515761010080835404028352916020019161167c565b820191906000526020600020905b81548152906001019060200180831161165f57829003601f168201915b5050505050815260200160018201805461169590612e38565b80601f01602080910402602001604051908101604052809291908181526020018280546116c190612e38565b801561170e5780601f106116e35761010080835404028352916020019161170e565b820191906000526020600020905b8154815290600101906020018083116116f157829003601f168201915b5050505050815260200160028201805461172790612e38565b80601f016020809104026020016040519081016040528092919081815260200182805461175390612e38565b80156117a05780601f10611775576101008083540402835291602001916117a0565b820191906000526020600020905b81548152906001019060200180831161178357829003601f168201915b5050505050815260200160038201805480602002602001604051908101604052809291908181526020016000905b8282101561187a5783829060005260206000200180546117ed90612e38565b80601f016020809104026020016040519081016040528092919081815260200182805461181990612e38565b80156118665780601f1061183b57610100808354040283529160200191611866565b820191906000526020600020905b81548152906001019060200180831161184957829003601f168201915b5050505050815260200190600101906117ce565b505050508152602001600482018054806020026020016040519081016040528092919081815260200182805480156118d157602002820191906000526020600020905b8154815260200190600101908083116118bd575b505050505081525050915050919050565b6000611923826040518060400160405280600b81526020017f7573657257616c6c657473000000000000000000000000000000000000000000815250611449565b1561199a5760405160200161193790613206565b6040516020818303038152906040528051906020012060098460405161195d9190612ea5565b908152602001604051809103902060405160200161197b919061329e565b6040516020818303038152906040528051906020012014159050611b0b565b6119d9826040518060400160405280600881526020017f757365724c656e73000000000000000000000000000000000000000000000000815250611449565b15611a50576040516020016119ed90613206565b60405160208183030381529060405280519060200120600a84604051611a139190612ea5565b9081526020016040518091039020604051602001611a31919061329e565b6040516020818303038152906040528051906020012014159050611b0b565b611a8f826040518060400160405280600881526020017f7573657257434944000000000000000000000000000000000000000000000000815250611449565b15611b0657604051602001611aa390613206565b60405160208183030381529060405280519060200120600884604051611ac99190612ea5565b9081526020016040518091039020604051602001611ae7919061329e565b6040516020818303038152906040528051906020012014159050611b0b565b600090505b92915050565b6003602052806000526040600020600091509050806000018054611b3490612e38565b80601f0160208091040260200160405190810160405280929190818152602001828054611b6090612e38565b8015611bad5780601f10611b8257610100808354040283529160200191611bad565b820191906000526020600020905b815481529060010190602001808311611b9057829003601f168201915b505050505090806001018054611bc290612e38565b80601f0160208091040260200160405190810160405280929190818152602001828054611bee90612e38565b8015611c3b5780601f10611c1057610100808354040283529160200191611c3b565b820191906000526020600020905b815481529060010190602001808311611c1e57829003601f168201915b505050505090806002018054611c5090612e38565b80601f0160208091040260200160405190810160405280929190818152602001828054611c7c90612e38565b8015611cc95780601f10611c9e57610100808354040283529160200191611cc9565b820191906000526020600020905b815481529060010190602001808311611cac57829003601f168201915b505050505090806003018054611cde90612e38565b80601f0160208091040260200160405190810160405280929190818152602001828054611d0a90612e38565b8015611d575780601f10611d2c57610100808354040283529160200191611d57565b820191906000526020600020905b815481529060010190602001808311611d3a57829003601f168201915b505050505090806004018054611d6c90612e38565b80601f0160208091040260200160405190810160405280929190818152602001828054611d9890612e38565b8015611de55780601f10611dba57610100808354040283529160200191611de5565b820191906000526020600020905b815481529060010190602001808311611dc857829003601f168201915b505050505090806005015490806006015490806007018054611e0690612e38565b80601f0160208091040260200160405190810160405280929190818152602001828054611e3290612e38565b8015611e7f5780601f10611e5457610100808354040283529160200191611e7f565b820191906000526020600020905b815481529060010190602001808311611e6257829003601f168201915b5050505050905088565b611e91612254565b6000600883604051611ea39190612ea5565b90815260200160405180910390208054611ebc90612e38565b80601f0160208091040260200160405190810160405280929190818152602001828054611ee890612e38565b8015611f355780601f10611f0a57610100808354040283529160200191611f35565b820191906000526020600020905b815481529060010190602001808311611f1857829003601f168201915b50505050509050600481604051611f4c9190612ea5565b90815260200160405180910390206040518060a0016040529081600082018054611f7590612e38565b80601f0160208091040260200160405190810160405280929190818152602001828054611fa190612e38565b8015611fee5780601f10611fc357610100808354040283529160200191611fee565b820191906000526020600020905b815481529060010190602001808311611fd157829003601f168201915b5050505050815260200160018201805461200790612e38565b80601f016020809104026020016040519081016040528092919081815260200182805461203390612e38565b80156120805780601f1061205557610100808354040283529160200191612080565b820191906000526020600020905b81548152906001019060200180831161206357829003601f168201915b5050505050815260200160028201805461209990612e38565b80601f01602080910402602001604051908101604052809291908181526020018280546120c590612e38565b80156121125780601f106120e757610100808354040283529160200191612112565b820191906000526020600020905b8154815290600101906020018083116120f557829003601f168201915b5050505050815260200160038201805480602002602001604051908101604052809291908181526020016000905b828210156121ec57838290600052602060002001805461215f90612e38565b80601f016020809104026020016040519081016040528092919081815260200182805461218b90612e38565b80156121d85780601f106121ad576101008083540402835291602001916121d8565b820191906000526020600020905b8154815290600101906020018083116121bb57829003601f168201915b505050505081526020019060010190612140565b5050505081526020016004820180548060200260200160405190810160405280929190818152602001828054801561224357602002820191906000526020600020905b81548152602001906001019080831161222f575b505050505081525050915050919050565b6040518060a0016040528060608152602001606081526020016060815260200160608152602001606081525090565b8280548282559060005260206000209081019282156122cb579160200282015b828111156122ca5782518290816122ba9190613068565b50916020019190600101906122a3565b5b5090506122d89190612329565b5090565b828054828255906000526020600020908101928215612318579160200282015b828111156123175782518255916020019190600101906122fc565b5b509050612325919061234d565b5090565b5b808211156123495760008181612340919061236a565b5060010161232a565b5090565b5b8082111561236657600081600090555060010161234e565b5090565b50805461237690612e38565b6000825580601f1061238857506123a7565b601f0160209004906000526020600020908101906123a6919061234d565b5b50565b6000604051905090565b600080fd5b600080fd5b600080fd5b600080fd5b6000601f19601f8301169050919050565b7f4e487b7100000000000000000000000000000000000000000000000000000000600052604160045260246000fd5b612411826123c8565b810181811067ffffffffffffffff821117156124305761242f6123d9565b5b80604052505050565b60006124436123aa565b905061244f8282612408565b919050565b600067ffffffffffffffff82111561246f5761246e6123d9565b5b612478826123c8565b9050602081019050919050565b82818337600083830152505050565b60006124a76124a284612454565b612439565b9050828152602081018484840111156124c3576124c26123c3565b5b6124ce848285612485565b509392505050565b600082601f8301126124eb576124ea6123be565b5b81356124fb848260208601612494565b91505092915050565b60006020828403121561251a576125196123b4565b5b600082013567ffffffffffffffff811115612538576125376123b9565b5b612544848285016124d6565b91505092915050565b600081519050919050565b600082825260208201905092915050565b60005b8381101561258757808201518184015260208101905061256c565b60008484015250505050565b600061259e8261254d565b6125a88185612558565b93506125b8818560208601612569565b6125c1816123c8565b840191505092915050565b600060608201905081810360008301526125e68186612593565b905081810360208301526125fa8185612593565b9050818103604083015261260e8184612593565b9050949350505050565b6000806040838503121561262f5761262e6123b4565b5b600083013567ffffffffffffffff81111561264d5761264c6123b9565b5b612659858286016124d6565b925050602083013567ffffffffffffffff81111561267a576126796123b9565b5b612686858286016124d6565b9150509250929050565b600082825260208201905092915050565b60006126ac8261254d565b6126b68185612690565b93506126c6818560208601612569565b6126cf816123c8565b840191505092915050565b600081519050919050565b600082825260208201905092915050565b6000819050602082019050919050565b600061271283836126a1565b905092915050565b6000602082019050919050565b6000612732826126da565b61273c81856126e5565b93508360208202850161274e856126f6565b8060005b8581101561278a578484038952815161276b8582612706565b94506127768361271a565b925060208a01995050600181019050612752565b50829750879550505050505092915050565b600081519050919050565b600082825260208201905092915050565b6000819050602082019050919050565b6000819050919050565b6127db816127c8565b82525050565b60006127ed83836127d2565b60208301905092915050565b6000602082019050919050565b60006128118261279c565b61281b81856127a7565b9350612826836127b8565b8060005b8381101561285757815161283e88826127e1565b9750612849836127f9565b92505060018101905061282a565b5085935050505092915050565b600060a083016000830151848203600086015261288182826126a1565b9150506020830151848203602086015261289b82826126a1565b915050604083015184820360408601526128b582826126a1565b915050606083015184820360608601526128cf8282612727565b915050608083015184820360808601526128e98282612806565b9150508091505092915050565b600060208201905081810360008301526129108184612864565b905092915050565b600067ffffffffffffffff821115612933576129326123d9565b5b602082029050602081019050919050565b600080fd5b600061295c61295784612918565b612439565b9050808382526020820190506020840283018581111561297f5761297e612944565b5b835b818110156129c657803567ffffffffffffffff8111156129a4576129a36123be565b5b8086016129b189826124d6565b85526020850194505050602081019050612981565b5050509392505050565b600082601f8301126129e5576129e46123be565b5b81356129f5848260208601612949565b91505092915050565b60008060408385031215612a1557612a146123b4565b5b600083013567ffffffffffffffff811115612a3357612a326123b9565b5b612a3f858286016124d6565b925050602083013567ffffffffffffffff811115612a6057612a5f6123b9565b5b612a6c858286016129d0565b9150509250929050565b60008060408385031215612a8d57612a8c6123b4565b5b600083013567ffffffffffffffff811115612aab57612aaa6123b9565b5b612ab7858286016129d0565b925050602083013567ffffffffffffffff811115612ad857612ad76123b9565b5b612ae4858286016124d6565b9150509250929050565b612af7816127c8565b82525050565b6000602082019050612b126000830184612aee565b92915050565b612b21816127c8565b8114612b2c57600080fd5b50565b600081359050612b3e81612b18565b92915050565b600080600080600080600080610100898b031215612b6557612b646123b4565b5b600089013567ffffffffffffffff811115612b8357612b826123b9565b5b612b8f8b828c016124d6565b985050602089013567ffffffffffffffff811115612bb057612baf6123b9565b5b612bbc8b828c016124d6565b975050604089013567ffffffffffffffff811115612bdd57612bdc6123b9565b5b612be98b828c016124d6565b965050606089013567ffffffffffffffff811115612c0a57612c096123b9565b5b612c168b828c016124d6565b955050608089013567ffffffffffffffff811115612c3757612c366123b9565b5b612c438b828c016124d6565b94505060a0612c548b828c01612b2f565b93505060c0612c658b828c01612b2f565b92505060e089013567ffffffffffffffff811115612c8657612c856123b9565b5b612c928b828c016124d6565b9150509295985092959890939650565b600073ffffffffffffffffffffffffffffffffffffffff82169050919050565b6000612ccd82612ca2565b9050919050565b612cdd81612cc2565b82525050565b6000602082019050612cf86000830184612cd4565b92915050565b60008115159050919050565b612d1381612cfe565b82525050565b6000602082019050612d2e6000830184612d0a565b92915050565b600060208284031215612d4a57612d496123b4565b5b6000612d5884828501612b2f565b91505092915050565b6000610100820190508181036000830152612d7c818b612593565b90508181036020830152612d90818a612593565b90508181036040830152612da48189612593565b90508181036060830152612db88188612593565b90508181036080830152612dcc8187612593565b9050612ddb60a0830186612aee565b612de860c0830185612aee565b81810360e0830152612dfa8184612593565b90509998505050505050505050565b7f4e487b7100000000000000000000000000000000000000000000000000000000600052602260045260246000fd5b60006002820490506001821680612e5057607f821691505b602082108103612e6357612e62612e09565b5b50919050565b600081905092915050565b6000612e7f8261254d565b612e898185612e69565b9350612e99818560208601612569565b80840191505092915050565b6000612eb18284612e74565b915081905092915050565b60008190508160005260206000209050919050565b60006020601f8301049050919050565b600082821b905092915050565b600060088302612f1e7fffffffffffffffffffffffffffffffffffffffffffffffffffffffffffffffff82612ee1565b612f288683612ee1565b95508019841693508086168417925050509392505050565b6000819050919050565b6000612f65612f60612f5b846127c8565b612f40565b6127c8565b9050919050565b6000819050919050565b612f7f83612f4a565b612f93612f8b82612f6c565b848454612eee565b825550505050565b600090565b612fa8612f9b565b612fb3818484612f76565b505050565b5b81811015612fd757612fcc600082612fa0565b600181019050612fb9565b5050565b601f82111561301c57612fed81612ebc565b612ff684612ed1565b81016020851015613005578190505b61301961301185612ed1565b830182612fb8565b50505b505050565b600082821c905092915050565b600061303f60001984600802613021565b1980831691505092915050565b6000613058838361302e565b9150826002028217905092915050565b6130718261254d565b67ffffffffffffffff81111561308a576130896123d9565b5b6130948254612e38565b61309f828285612fdb565b600060209050601f8311600181146130d257600084156130c0578287015190505b6130ca858261304c565b865550613132565b601f1984166130e086612ebc565b60005b82811015613108578489015182556001820191506020850194506020810190506130e3565b868310156131255784890151613121601f89168261302e565b8355505b6001600288020188555050505b505050505050565b7f4e487b7100000000000000000000000000000000000000000000000000000000600052603260045260246000fd5b7f4e487b7100000000000000000000000000000000000000000000000000000000600052601160045260246000fd5b60006131a3826127c8565b91507fffffffffffffffffffffffffffffffffffffffffffffffffffffffffffffffff82036131d5576131d4613169565b5b600182019050919050565b50565b60006131f0600083612e69565b91506131fb826131e0565b600082019050919050565b6000613211826131e3565b9150819050919050565b6000815461322881612e38565b6132328186612e69565b9450600182166000811461324d576001811461326257613295565b60ff1983168652811515820286019350613295565b61326b85612ebc565b60005b8381101561328d5781548189015260018201915060208101905061326e565b838801955050505b50505092915050565b60006132aa828461321b565b91508190509291505056fea26469706673582212205450842dbc0a7dcbfbf18d3213bf293c8536ea7a63d6658a68401ac55e25585f64736f6c63430008120033",
					"opcodes": "PUSH1 0x80 PUSH1 0x40 MSTORE PUSH1 0x0 PUSH1 0x1 SSTORE PUSH1 0x0 PUSH1 0x2 SSTORE CALLVALUE DUP1 ISZERO PUSH2 0x1A JUMPI PUSH1 0x0 DUP1 REVERT JUMPDEST POP CALLER PUSH1 0x0 DUP1 PUSH2 0x100 EXP DUP2 SLOAD DUP2 PUSH20 0xFFFFFFFFFFFFFFFFFFFFFFFFFFFFFFFFFFFFFFFF MUL NOT AND SWAP1 DUP4 PUSH20 0xFFFFFFFFFFFFFFFFFFFFFFFFFFFFFFFFFFFFFFFF AND MUL OR SWAP1 SSTORE POP PUSH2 0x32EB DUP1 PUSH2 0x6A PUSH1 0x0 CODECOPY PUSH1 0x0 RETURN INVALID PUSH1 0x80 PUSH1 0x40 MSTORE CALLVALUE DUP1 ISZERO PUSH2 0x10 JUMPI PUSH1 0x0 DUP1 REVERT JUMPDEST POP PUSH1 0x4 CALLDATASIZE LT PUSH2 0x10B JUMPI PUSH1 0x0 CALLDATALOAD PUSH1 0xE0 SHR DUP1 PUSH4 0x7198ED1A GT PUSH2 0xA2 JUMPI DUP1 PUSH4 0xBED34BBA GT PUSH2 0x71 JUMPI DUP1 PUSH4 0xBED34BBA EQ PUSH2 0x2A6 JUMPI DUP1 PUSH4 0xC77CFEEB EQ PUSH2 0x2D6 JUMPI DUP1 PUSH4 0xD430E05A EQ PUSH2 0x306 JUMPI DUP1 PUSH4 0xDBA3F6AA EQ PUSH2 0x336 JUMPI DUP1 PUSH4 0xF70E1C5E EQ PUSH2 0x36D JUMPI PUSH2 0x10B JUMP JUMPDEST DUP1 PUSH4 0x7198ED1A EQ PUSH2 0x230 JUMPI DUP1 PUSH4 0x893D20E8 EQ PUSH2 0x260 JUMPI DUP1 PUSH4 0x8D5FA841 EQ PUSH2 0x27E JUMPI DUP1 PUSH4 0xBB44563F EQ PUSH2 0x288 JUMPI PUSH2 0x10B JUMP JUMPDEST DUP1 PUSH4 0x51F40DD6 GT PUSH2 0xDE JUMPI DUP1 PUSH4 0x51F40DD6 EQ PUSH2 0x1AA JUMPI DUP1 PUSH4 0x63C60BD5 EQ PUSH2 0x1DA JUMPI DUP1 PUSH4 0x63FBE5B3 EQ PUSH2 0x1F6 JUMPI DUP1 PUSH4 0x6BD562F3 EQ PUSH2 0x214 JUMPI PUSH2 0x10B JUMP JUMPDEST DUP1 PUSH4 0x76FAAB4 EQ PUSH2 0x110 JUMPI DUP1 PUSH4 0x81396EB EQ PUSH2 0x142 JUMPI DUP1 PUSH4 0x15C19C1D EQ PUSH2 0x15E JUMPI DUP1 PUSH4 0x379F8FC2 EQ PUSH2 0x17A JUMPI JUMPDEST PUSH1 0x0 DUP1 REVERT JUMPDEST PUSH2 0x12A PUSH1 0x4 DUP1 CALLDATASIZE SUB DUP2 ADD SWAP1 PUSH2 0x125 SWAP2 SWAP1 PUSH2 0x2504 JUMP JUMPDEST PUSH2 0x39D JUMP JUMPDEST PUSH1 0x40 MLOAD PUSH2 0x139 SWAP4 SWAP3 SWAP2 SWAP1 PUSH2 0x25CC JUMP JUMPDEST PUSH1 0x40 MLOAD DUP1 SWAP2 SUB SWAP1 RETURN JUMPDEST PUSH2 0x15C PUSH1 0x4 DUP1 CALLDATASIZE SUB DUP2 ADD SWAP1 PUSH2 0x157 SWAP2 SWAP1 PUSH2 0x2618 JUMP JUMPDEST PUSH2 0x575 JUMP JUMPDEST STOP JUMPDEST PUSH2 0x178 PUSH1 0x4 DUP1 CALLDATASIZE SUB DUP2 ADD SWAP1 PUSH2 0x173 SWAP2 SWAP1 PUSH2 0x2618 JUMP JUMPDEST PUSH2 0x618 JUMP JUMPDEST STOP JUMPDEST PUSH2 0x194 PUSH1 0x4 DUP1 CALLDATASIZE SUB DUP2 ADD SWAP1 PUSH2 0x18F SWAP2 SWAP1 PUSH2 0x2504 JUMP JUMPDEST PUSH2 0x6BB JUMP JUMPDEST PUSH1 0x40 MLOAD PUSH2 0x1A1 SWAP2 SWAP1 PUSH2 0x28F6 JUMP JUMPDEST PUSH1 0x40 MLOAD DUP1 SWAP2 SUB SWAP1 RETURN JUMPDEST PUSH2 0x1C4 PUSH1 0x4 DUP1 CALLDATASIZE SUB DUP2 ADD SWAP1 PUSH2 0x1BF SWAP2 SWAP1 PUSH2 0x29FE JUMP JUMPDEST PUSH2 0x9DA JUMP JUMPDEST PUSH1 0x40 MLOAD PUSH2 0x1D1 SWAP2 SWAP1 PUSH2 0x28F6 JUMP JUMPDEST PUSH1 0x40 MLOAD DUP1 SWAP2 SUB SWAP1 RETURN JUMPDEST PUSH2 0x1F4 PUSH1 0x4 DUP1 CALLDATASIZE SUB DUP2 ADD SWAP1 PUSH2 0x1EF SWAP2 SWAP1 PUSH2 0x2A76 JUMP JUMPDEST PUSH2 0xDE9 JUMP JUMPDEST STOP JUMPDEST PUSH2 0x1FE PUSH2 0xEF1 JUMP JUMPDEST PUSH1 0x40 MLOAD PUSH2 0x20B SWAP2 SWAP1 PUSH2 0x2AFD JUMP JUMPDEST PUSH1 0x40 MLOAD DUP1 SWAP2 SUB SWAP1 RETURN JUMPDEST PUSH2 0x22E PUSH1 0x4 DUP1 CALLDATASIZE SUB DUP2 ADD SWAP1 PUSH2 0x229 SWAP2 SWAP1 PUSH2 0x2B44 JUMP JUMPDEST PUSH2 0xEF7 JUMP JUMPDEST STOP JUMPDEST PUSH2 0x24A PUSH1 0x4 DUP1 CALLDATASIZE SUB DUP2 ADD SWAP1 PUSH2 0x245 SWAP2 SWAP1 PUSH2 0x2504 JUMP JUMPDEST PUSH2 0x104D JUMP JUMPDEST PUSH1 0x40 MLOAD PUSH2 0x257 SWAP2 SWAP1 PUSH2 0x28F6 JUMP JUMPDEST PUSH1 0x40 MLOAD DUP1 SWAP2 SUB SWAP1 RETURN JUMPDEST PUSH2 0x268 PUSH2 0x1418 JUMP JUMPDEST PUSH1 0x40 MLOAD PUSH2 0x275 SWAP2 SWAP1 PUSH2 0x2CE3 JUMP JUMPDEST PUSH1 0x40 MLOAD DUP1 SWAP2 SUB SWAP1 RETURN JUMPDEST PUSH2 0x286 PUSH2 0x1441 JUMP JUMPDEST STOP JUMPDEST PUSH2 0x290 PUSH2 0x1443 JUMP JUMPDEST PUSH1 0x40 MLOAD PUSH2 0x29D SWAP2 SWAP1 PUSH2 0x2AFD JUMP JUMPDEST PUSH1 0x40 MLOAD DUP1 SWAP2 SUB SWAP1 RETURN JUMPDEST PUSH2 0x2C0 PUSH1 0x4 DUP1 CALLDATASIZE SUB DUP2 ADD SWAP1 PUSH2 0x2BB SWAP2 SWAP1 PUSH2 0x2618 JUMP JUMPDEST PUSH2 0x1449 JUMP JUMPDEST PUSH1 0x40 MLOAD PUSH2 0x2CD SWAP2 SWAP1 PUSH2 0x2D19 JUMP JUMPDEST PUSH1 0x40 MLOAD DUP1 SWAP2 SUB SWAP1 RETURN JUMPDEST PUSH2 0x2F0 PUSH1 0x4 DUP1 CALLDATASIZE SUB DUP2 ADD SWAP1 PUSH2 0x2EB SWAP2 SWAP1 PUSH2 0x2504 JUMP JUMPDEST PUSH2 0x1517 JUMP JUMPDEST PUSH1 0x40 MLOAD PUSH2 0x2FD SWAP2 SWAP1 PUSH2 0x28F6 JUMP JUMPDEST PUSH1 0x40 MLOAD DUP1 SWAP2 SUB SWAP1 RETURN JUMPDEST PUSH2 0x320 PUSH1 0x4 DUP1 CALLDATASIZE SUB DUP2 ADD SWAP1 PUSH2 0x31B SWAP2 SWAP1 PUSH2 0x2618 JUMP JUMPDEST PUSH2 0x18E2 JUMP JUMPDEST PUSH1 0x40 MLOAD PUSH2 0x32D SWAP2 SWAP1 PUSH2 0x2D19 JUMP JUMPDEST PUSH1 0x40 MLOAD DUP1 SWAP2 SUB SWAP1 RETURN JUMPDEST PUSH2 0x350 PUSH1 0x4 DUP1 CALLDATASIZE SUB DUP2 ADD SWAP1 PUSH2 0x34B SWAP2 SWAP1 PUSH2 0x2D34 JUMP JUMPDEST PUSH2 0x1B11 JUMP JUMPDEST PUSH1 0x40 MLOAD PUSH2 0x364 SWAP9 SWAP8 SWAP7 SWAP6 SWAP5 SWAP4 SWAP3 SWAP2 SWAP1 PUSH2 0x2D61 JUMP JUMPDEST PUSH1 0x40 MLOAD DUP1 SWAP2 SUB SWAP1 RETURN JUMPDEST PUSH2 0x387 PUSH1 0x4 DUP1 CALLDATASIZE SUB DUP2 ADD SWAP1 PUSH2 0x382 SWAP2 SWAP1 PUSH2 0x2504 JUMP JUMPDEST PUSH2 0x1E89 JUMP JUMPDEST PUSH1 0x40 MLOAD PUSH2 0x394 SWAP2 SWAP1 PUSH2 0x28F6 JUMP JUMPDEST PUSH1 0x40 MLOAD DUP1 SWAP2 SUB SWAP1 RETURN JUMPDEST PUSH1 0x4 DUP2 DUP1 MLOAD PUSH1 0x20 DUP2 ADD DUP3 ADD DUP1 MLOAD DUP5 DUP3 MSTORE PUSH1 0x20 DUP4 ADD PUSH1 0x20 DUP6 ADD KECCAK256 DUP2 DUP4 MSTORE DUP1 SWAP6 POP POP POP POP POP POP PUSH1 0x0 SWAP2 POP SWAP1 POP DUP1 PUSH1 0x0 ADD DUP1 SLOAD PUSH2 0x3D6 SWAP1 PUSH2 0x2E38 JUMP JUMPDEST DUP1 PUSH1 0x1F ADD PUSH1 0x20 DUP1 SWAP2 DIV MUL PUSH1 0x20 ADD PUSH1 0x40 MLOAD SWAP1 DUP2 ADD PUSH1 0x40 MSTORE DUP1 SWAP3 SWAP2 SWAP1 DUP2 DUP2 MSTORE PUSH1 0x20 ADD DUP3 DUP1 SLOAD PUSH2 0x402 SWAP1 PUSH2 0x2E38 JUMP JUMPDEST DUP1 ISZERO PUSH2 0x44F JUMPI DUP1 PUSH1 0x1F LT PUSH2 0x424 JUMPI PUSH2 0x100 DUP1 DUP4 SLOAD DIV MUL DUP4 MSTORE SWAP2 PUSH1 0x20 ADD SWAP2 PUSH2 0x44F JUMP JUMPDEST DUP3 ADD SWAP2 SWAP1 PUSH1 0x0 MSTORE PUSH1 0x20 PUSH1 0x0 KECCAK256 SWAP1 JUMPDEST DUP2 SLOAD DUP2 MSTORE SWAP1 PUSH1 0x1 ADD SWAP1 PUSH1 0x20 ADD DUP1 DUP4 GT PUSH2 0x432 JUMPI DUP3 SWAP1 SUB PUSH1 0x1F AND DUP3 ADD SWAP2 JUMPDEST POP POP POP POP POP SWAP1 DUP1 PUSH1 0x1 ADD DUP1 SLOAD PUSH2 0x464 SWAP1 PUSH2 0x2E38 JUMP JUMPDEST DUP1 PUSH1 0x1F ADD PUSH1 0x20 DUP1 SWAP2 DIV MUL PUSH1 0x20 ADD PUSH1 0x40 MLOAD SWAP1 DUP2 ADD PUSH1 0x40 MSTORE DUP1 SWAP3 SWAP2 SWAP1 DUP2 DUP2 MSTORE PUSH1 0x20 ADD DUP3 DUP1 SLOAD PUSH2 0x490 SWAP1 PUSH2 0x2E38 JUMP JUMPDEST DUP1 ISZERO PUSH2 0x4DD JUMPI DUP1 PUSH1 0x1F LT PUSH2 0x4B2 JUMPI PUSH2 0x100 DUP1 DUP4 SLOAD DIV MUL DUP4 MSTORE SWAP2 PUSH1 0x20 ADD SWAP2 PUSH2 0x4DD JUMP JUMPDEST DUP3 ADD SWAP2 SWAP1 PUSH1 0x0 MSTORE PUSH1 0x20 PUSH1 0x0 KECCAK256 SWAP1 JUMPDEST DUP2 SLOAD DUP2 MSTORE SWAP1 PUSH1 0x1 ADD SWAP1 PUSH1 0x20 ADD DUP1 DUP4 GT PUSH2 0x4C0 JUMPI DUP3 SWAP1 SUB PUSH1 0x1F AND DUP3 ADD SWAP2 JUMPDEST POP POP POP POP POP SWAP1 DUP1 PUSH1 0x2 ADD DUP1 SLOAD PUSH2 0x4F2 SWAP1 PUSH2 0x2E38 JUMP JUMPDEST DUP1 PUSH1 0x1F ADD PUSH1 0x20 DUP1 SWAP2 DIV MUL PUSH1 0x20 ADD PUSH1 0x40 MLOAD SWAP1 DUP2 ADD PUSH1 0x40 MSTORE DUP1 SWAP3 SWAP2 SWAP1 DUP2 DUP2 MSTORE PUSH1 0x20 ADD DUP3 DUP1 SLOAD PUSH2 0x51E SWAP1 PUSH2 0x2E38 JUMP JUMPDEST DUP1 ISZERO PUSH2 0x56B JUMPI DUP1 PUSH1 0x1F LT PUSH2 0x540 JUMPI PUSH2 0x100 DUP1 DUP4 SLOAD DIV MUL DUP4 MSTORE SWAP2 PUSH1 0x20 ADD SWAP2 PUSH2 0x56B JUMP JUMPDEST DUP3 ADD SWAP2 SWAP1 PUSH1 0x0 MSTORE PUSH1 0x20 PUSH1 0x0 KECCAK256 SWAP1 JUMPDEST DUP2 SLOAD DUP2 MSTORE SWAP1 PUSH1 0x1 ADD SWAP1 PUSH1 0x20 ADD DUP1 DUP4 GT PUSH2 0x54E JUMPI DUP3 SWAP1 SUB PUSH1 0x1F AND DUP3 ADD SWAP2 JUMPDEST POP POP POP POP POP SWAP1 POP DUP4 JUMP JUMPDEST PUSH2 0x5B4 DUP3 PUSH1 0x40 MLOAD DUP1 PUSH1 0x40 ADD PUSH1 0x40 MSTORE DUP1 PUSH1 0x8 DUP2 MSTORE PUSH1 0x20 ADD PUSH32 0x757365724C656E73000000000000000000000000000000000000000000000000 DUP2 MSTORE POP PUSH2 0x18E2 JUMP JUMPDEST PUSH2 0x614 JUMPI DUP1 PUSH1 0xA DUP4 PUSH1 0x40 MLOAD PUSH2 0x5C9 SWAP2 SWAP1 PUSH2 0x2EA5 JUMP JUMPDEST SWAP1 DUP2 MSTORE PUSH1 0x20 ADD PUSH1 0x40 MLOAD DUP1 SWAP2 SUB SWAP1 KECCAK256 SWAP1 DUP2 PUSH2 0x5E3 SWAP2 SWAP1 PUSH2 0x3068 JUMP JUMPDEST POP DUP2 PUSH1 0x4 DUP3 PUSH1 0x40 MLOAD PUSH2 0x5F5 SWAP2 SWAP1 PUSH2 0x2EA5 JUMP JUMPDEST SWAP1 DUP2 MSTORE PUSH1 0x20 ADD PUSH1 0x40 MLOAD DUP1 SWAP2 SUB SWAP1 KECCAK256 PUSH1 0x2 ADD SWAP1 DUP2 PUSH2 0x612 SWAP2 SWAP1 PUSH2 0x3068 JUMP JUMPDEST POP JUMPDEST POP POP JUMP JUMPDEST PUSH2 0x657 DUP3 PUSH1 0x40 MLOAD DUP1 PUSH1 0x40 ADD PUSH1 0x40 MSTORE DUP1 PUSH1 0x8 DUP2 MSTORE PUSH1 0x20 ADD PUSH32 0x7573657257434944000000000000000000000000000000000000000000000000 DUP2 MSTORE POP PUSH2 0x18E2 JUMP JUMPDEST PUSH2 0x6B7 JUMPI DUP1 PUSH1 0x8 DUP4 PUSH1 0x40 MLOAD PUSH2 0x66C SWAP2 SWAP1 PUSH2 0x2EA5 JUMP JUMPDEST SWAP1 DUP2 MSTORE PUSH1 0x20 ADD PUSH1 0x40 MLOAD DUP1 SWAP2 SUB SWAP1 KECCAK256 SWAP1 DUP2 PUSH2 0x686 SWAP2 SWAP1 PUSH2 0x3068 JUMP JUMPDEST POP DUP2 PUSH1 0x4 DUP3 PUSH1 0x40 MLOAD PUSH2 0x698 SWAP2 SWAP1 PUSH2 0x2EA5 JUMP JUMPDEST SWAP1 DUP2 MSTORE PUSH1 0x20 ADD PUSH1 0x40 MLOAD DUP1 SWAP2 SUB SWAP1 KECCAK256 PUSH1 0x1 ADD SWAP1 DUP2 PUSH2 0x6B5 SWAP2 SWAP1 PUSH2 0x3068 JUMP JUMPDEST POP JUMPDEST POP POP JUMP JUMPDEST PUSH2 0x6C3 PUSH2 0x2254 JUMP JUMPDEST PUSH1 0x4 DUP3 PUSH1 0x40 MLOAD PUSH2 0x6D3 SWAP2 SWAP1 PUSH2 0x2EA5 JUMP JUMPDEST SWAP1 DUP2 MSTORE PUSH1 0x20 ADD PUSH1 0x40 MLOAD DUP1 SWAP2 SUB SWAP1 KECCAK256 PUSH1 0x40 MLOAD DUP1 PUSH1 0xA0 ADD PUSH1 0x40 MSTORE SWAP1 DUP2 PUSH1 0x0 DUP3 ADD DUP1 SLOAD PUSH2 0x6FC SWAP1 PUSH2 0x2E38 JUMP JUMPDEST DUP1 PUSH1 0x1F ADD PUSH1 0x20 DUP1 SWAP2 DIV MUL PUSH1 0x20 ADD PUSH1 0x40 MLOAD SWAP1 DUP2 ADD PUSH1 0x40 MSTORE DUP1 SWAP3 SWAP2 SWAP1 DUP2 DUP2 MSTORE PUSH1 0x20 ADD DUP3 DUP1 SLOAD PUSH2 0x728 SWAP1 PUSH2 0x2E38 JUMP JUMPDEST DUP1 ISZERO PUSH2 0x775 JUMPI DUP1 PUSH1 0x1F LT PUSH2 0x74A JUMPI PUSH2 0x100 DUP1 DUP4 SLOAD DIV MUL DUP4 MSTORE SWAP2 PUSH1 0x20 ADD SWAP2 PUSH2 0x775 JUMP JUMPDEST DUP3 ADD SWAP2 SWAP1 PUSH1 0x0 MSTORE PUSH1 0x20 PUSH1 0x0 KECCAK256 SWAP1 JUMPDEST DUP2 SLOAD DUP2 MSTORE SWAP1 PUSH1 0x1 ADD SWAP1 PUSH1 0x20 ADD DUP1 DUP4 GT PUSH2 0x758 JUMPI DUP3 SWAP1 SUB PUSH1 0x1F AND DUP3 ADD SWAP2 JUMPDEST POP POP POP POP POP DUP2 MSTORE PUSH1 0x20 ADD PUSH1 0x1 DUP3 ADD DUP1 SLOAD PUSH2 0x78E SWAP1 PUSH2 0x2E38 JUMP JUMPDEST DUP1 PUSH1 0x1F ADD PUSH1 0x20 DUP1 SWAP2 DIV MUL PUSH1 0x20 ADD PUSH1 0x40 MLOAD SWAP1 DUP2 ADD PUSH1 0x40 MSTORE DUP1 SWAP3 SWAP2 SWAP1 DUP2 DUP2 MSTORE PUSH1 0x20 ADD DUP3 DUP1 SLOAD PUSH2 0x7BA SWAP1 PUSH2 0x2E38 JUMP JUMPDEST DUP1 ISZERO PUSH2 0x807 JUMPI DUP1 PUSH1 0x1F LT PUSH2 0x7DC JUMPI PUSH2 0x100 DUP1 DUP4 SLOAD DIV MUL DUP4 MSTORE SWAP2 PUSH1 0x20 ADD SWAP2 PUSH2 0x807 JUMP JUMPDEST DUP3 ADD SWAP2 SWAP1 PUSH1 0x0 MSTORE PUSH1 0x20 PUSH1 0x0 KECCAK256 SWAP1 JUMPDEST DUP2 SLOAD DUP2 MSTORE SWAP1 PUSH1 0x1 ADD SWAP1 PUSH1 0x20 ADD DUP1 DUP4 GT PUSH2 0x7EA JUMPI DUP3 SWAP1 SUB PUSH1 0x1F AND DUP3 ADD SWAP2 JUMPDEST POP POP POP POP POP DUP2 MSTORE PUSH1 0x20 ADD PUSH1 0x2 DUP3 ADD DUP1 SLOAD PUSH2 0x820 SWAP1 PUSH2 0x2E38 JUMP JUMPDEST DUP1 PUSH1 0x1F ADD PUSH1 0x20 DUP1 SWAP2 DIV MUL PUSH1 0x20 ADD PUSH1 0x40 MLOAD SWAP1 DUP2 ADD PUSH1 0x40 MSTORE DUP1 SWAP3 SWAP2 SWAP1 DUP2 DUP2 MSTORE PUSH1 0x20 ADD DUP3 DUP1 SLOAD PUSH2 0x84C SWAP1 PUSH2 0x2E38 JUMP JUMPDEST DUP1 ISZERO PUSH2 0x899 JUMPI DUP1 PUSH1 0x1F LT PUSH2 0x86E JUMPI PUSH2 0x100 DUP1 DUP4 SLOAD DIV MUL DUP4 MSTORE SWAP2 PUSH1 0x20 ADD SWAP2 PUSH2 0x899 JUMP JUMPDEST DUP3 ADD SWAP2 SWAP1 PUSH1 0x0 MSTORE PUSH1 0x20 PUSH1 0x0 KECCAK256 SWAP1 JUMPDEST DUP2 SLOAD DUP2 MSTORE SWAP1 PUSH1 0x1 ADD SWAP1 PUSH1 0x20 ADD DUP1 DUP4 GT PUSH2 0x87C JUMPI DUP3 SWAP1 SUB PUSH1 0x1F AND DUP3 ADD SWAP2 JUMPDEST POP POP POP POP POP DUP2 MSTORE PUSH1 0x20 ADD PUSH1 0x3 DUP3 ADD DUP1 SLOAD DUP1 PUSH1 0x20 MUL PUSH1 0x20 ADD PUSH1 0x40 MLOAD SWAP1 DUP2 ADD PUSH1 0x40 MSTORE DUP1 SWAP3 SWAP2 SWAP1 DUP2 DUP2 MSTORE PUSH1 0x20 ADD PUSH1 0x0 SWAP1 JUMPDEST DUP3 DUP3 LT ISZERO PUSH2 0x973 JUMPI DUP4 DUP3 SWAP1 PUSH1 0x0 MSTORE PUSH1 0x20 PUSH1 0x0 KECCAK256 ADD DUP1 SLOAD PUSH2 0x8E6 SWAP1 PUSH2 0x2E38 JUMP JUMPDEST DUP1 PUSH1 0x1F ADD PUSH1 0x20 DUP1 SWAP2 DIV MUL PUSH1 0x20 ADD PUSH1 0x40 MLOAD SWAP1 DUP2 ADD PUSH1 0x40 MSTORE DUP1 SWAP3 SWAP2 SWAP1 DUP2 DUP2 MSTORE PUSH1 0x20 ADD DUP3 DUP1 SLOAD PUSH2 0x912 SWAP1 PUSH2 0x2E38 JUMP JUMPDEST DUP1 ISZERO PUSH2 0x95F JUMPI DUP1 PUSH1 0x1F LT PUSH2 0x934 JUMPI PUSH2 0x100 DUP1 DUP4 SLOAD DIV MUL DUP4 MSTORE SWAP2 PUSH1 0x20 ADD SWAP2 PUSH2 0x95F JUMP JUMPDEST DUP3 ADD SWAP2 SWAP1 PUSH1 0x0 MSTORE PUSH1 0x20 PUSH1 0x0 KECCAK256 SWAP1 JUMPDEST DUP2 SLOAD DUP2 MSTORE SWAP1 PUSH1 0x1 ADD SWAP1 PUSH1 0x20 ADD DUP1 DUP4 GT PUSH2 0x942 JUMPI DUP3 SWAP1 SUB PUSH1 0x1F AND DUP3 ADD SWAP2 JUMPDEST POP POP POP POP POP DUP2 MSTORE PUSH1 0x20 ADD SWAP1 PUSH1 0x1 ADD SWAP1 PUSH2 0x8C7 JUMP JUMPDEST POP POP POP POP DUP2 MSTORE PUSH1 0x20 ADD PUSH1 0x4 DUP3 ADD DUP1 SLOAD DUP1 PUSH1 0x20 MUL PUSH1 0x20 ADD PUSH1 0x40 MLOAD SWAP1 DUP2 ADD PUSH1 0x40 MSTORE DUP1 SWAP3 SWAP2 SWAP1 DUP2 DUP2 MSTORE PUSH1 0x20 ADD DUP3 DUP1 SLOAD DUP1 ISZERO PUSH2 0x9CA JUMPI PUSH1 0x20 MUL DUP3 ADD SWAP2 SWAP1 PUSH1 0x0 MSTORE PUSH1 0x20 PUSH1 0x0 KECCAK256 SWAP1 JUMPDEST DUP2 SLOAD DUP2 MSTORE PUSH1 0x20 ADD SWAP1 PUSH1 0x1 ADD SWAP1 DUP1 DUP4 GT PUSH2 0x9B6 JUMPI JUMPDEST POP POP POP POP POP DUP2 MSTORE POP POP SWAP1 POP SWAP2 SWAP1 POP JUMP JUMPDEST PUSH2 0x9E2 PUSH2 0x2254 JUMP JUMPDEST PUSH1 0x60 PUSH1 0x40 MLOAD DUP1 PUSH1 0xA0 ADD PUSH1 0x40 MSTORE DUP1 DUP6 DUP2 MSTORE PUSH1 0x20 ADD PUSH1 0x40 MLOAD DUP1 PUSH1 0x20 ADD PUSH1 0x40 MSTORE DUP1 PUSH1 0x0 DUP2 MSTORE POP DUP2 MSTORE PUSH1 0x20 ADD PUSH1 0x40 MLOAD DUP1 PUSH1 0x20 ADD PUSH1 0x40 MSTORE DUP1 PUSH1 0x0 DUP2 MSTORE POP DUP2 MSTORE PUSH1 0x20 ADD DUP5 DUP2 MSTORE PUSH1 0x20 ADD DUP3 DUP2 MSTORE POP PUSH1 0x4 DUP6 PUSH1 0x40 MLOAD PUSH2 0xA39 SWAP2 SWAP1 PUSH2 0x2EA5 JUMP JUMPDEST SWAP1 DUP2 MSTORE PUSH1 0x20 ADD PUSH1 0x40 MLOAD DUP1 SWAP2 SUB SWAP1 KECCAK256 PUSH1 0x0 DUP3 ADD MLOAD DUP2 PUSH1 0x0 ADD SWAP1 DUP2 PUSH2 0xA5C SWAP2 SWAP1 PUSH2 0x3068 JUMP JUMPDEST POP PUSH1 0x20 DUP3 ADD MLOAD DUP2 PUSH1 0x1 ADD SWAP1 DUP2 PUSH2 0xA72 SWAP2 SWAP1 PUSH2 0x3068 JUMP JUMPDEST POP PUSH1 0x40 DUP3 ADD MLOAD DUP2 PUSH1 0x2 ADD SWAP1 DUP2 PUSH2 0xA88 SWAP2 SWAP1 PUSH2 0x3068 JUMP JUMPDEST POP PUSH1 0x60 DUP3 ADD MLOAD DUP2 PUSH1 0x3 ADD SWAP1 DUP1 MLOAD SWAP1 PUSH1 0x20 ADD SWAP1 PUSH2 0xAA5 SWAP3 SWAP2 SWAP1 PUSH2 0x2283 JUMP JUMPDEST POP PUSH1 0x80 DUP3 ADD MLOAD DUP2 PUSH1 0x4 ADD SWAP1 DUP1 MLOAD SWAP1 PUSH1 0x20 ADD SWAP1 PUSH2 0xAC2 SWAP3 SWAP2 SWAP1 PUSH2 0x22DC JUMP JUMPDEST POP SWAP1 POP POP PUSH2 0xAD0 DUP4 DUP6 PUSH2 0xDE9 JUMP JUMPDEST PUSH1 0x4 DUP5 PUSH1 0x40 MLOAD PUSH2 0xAE0 SWAP2 SWAP1 PUSH2 0x2EA5 JUMP JUMPDEST SWAP1 DUP2 MSTORE PUSH1 0x20 ADD PUSH1 0x40 MLOAD DUP1 SWAP2 SUB SWAP1 KECCAK256 PUSH1 0x40 MLOAD DUP1 PUSH1 0xA0 ADD PUSH1 0x40 MSTORE SWAP1 DUP2 PUSH1 0x0 DUP3 ADD DUP1 SLOAD PUSH2 0xB09 SWAP1 PUSH2 0x2E38 JUMP JUMPDEST DUP1 PUSH1 0x1F ADD PUSH1 0x20 DUP1 SWAP2 DIV MUL PUSH1 0x20 ADD PUSH1 0x40 MLOAD SWAP1 DUP2 ADD PUSH1 0x40 MSTORE DUP1 SWAP3 SWAP2 SWAP1 DUP2 DUP2 MSTORE PUSH1 0x20 ADD DUP3 DUP1 SLOAD PUSH2 0xB35 SWAP1 PUSH2 0x2E38 JUMP JUMPDEST DUP1 ISZERO PUSH2 0xB82 JUMPI DUP1 PUSH1 0x1F LT PUSH2 0xB57 JUMPI PUSH2 0x100 DUP1 DUP4 SLOAD DIV MUL DUP4 MSTORE SWAP2 PUSH1 0x20 ADD SWAP2 PUSH2 0xB82 JUMP JUMPDEST DUP3 ADD SWAP2 SWAP1 PUSH1 0x0 MSTORE PUSH1 0x20 PUSH1 0x0 KECCAK256 SWAP1 JUMPDEST DUP2 SLOAD DUP2 MSTORE SWAP1 PUSH1 0x1 ADD SWAP1 PUSH1 0x20 ADD DUP1 DUP4 GT PUSH2 0xB65 JUMPI DUP3 SWAP1 SUB PUSH1 0x1F AND DUP3 ADD SWAP2 JUMPDEST POP POP POP POP POP DUP2 MSTORE PUSH1 0x20 ADD PUSH1 0x1 DUP3 ADD DUP1 SLOAD PUSH2 0xB9B SWAP1 PUSH2 0x2E38 JUMP JUMPDEST DUP1 PUSH1 0x1F ADD PUSH1 0x20 DUP1 SWAP2 DIV MUL PUSH1 0x20 ADD PUSH1 0x40 MLOAD SWAP1 DUP2 ADD PUSH1 0x40 MSTORE DUP1 SWAP3 SWAP2 SWAP1 DUP2 DUP2 MSTORE PUSH1 0x20 ADD DUP3 DUP1 SLOAD PUSH2 0xBC7 SWAP1 PUSH2 0x2E38 JUMP JUMPDEST DUP1 ISZERO PUSH2 0xC14 JUMPI DUP1 PUSH1 0x1F LT PUSH2 0xBE9 JUMPI PUSH2 0x100 DUP1 DUP4 SLOAD DIV MUL DUP4 MSTORE SWAP2 PUSH1 0x20 ADD SWAP2 PUSH2 0xC14 JUMP JUMPDEST DUP3 ADD SWAP2 SWAP1 PUSH1 0x0 MSTORE PUSH1 0x20 PUSH1 0x0 KECCAK256 SWAP1 JUMPDEST DUP2 SLOAD DUP2 MSTORE SWAP1 PUSH1 0x1 ADD SWAP1 PUSH1 0x20 ADD DUP1 DUP4 GT PUSH2 0xBF7 JUMPI DUP3 SWAP1 SUB PUSH1 0x1F AND DUP3 ADD SWAP2 JUMPDEST POP POP POP POP POP DUP2 MSTORE PUSH1 0x20 ADD PUSH1 0x2 DUP3 ADD DUP1 SLOAD PUSH2 0xC2D SWAP1 PUSH2 0x2E38 JUMP JUMPDEST DUP1 PUSH1 0x1F ADD PUSH1 0x20 DUP1 SWAP2 DIV MUL PUSH1 0x20 ADD PUSH1 0x40 MLOAD SWAP1 DUP2 ADD PUSH1 0x40 MSTORE DUP1 SWAP3 SWAP2 SWAP1 DUP2 DUP2 MSTORE PUSH1 0x20 ADD DUP3 DUP1 SLOAD PUSH2 0xC59 SWAP1 PUSH2 0x2E38 JUMP JUMPDEST DUP1 ISZERO PUSH2 0xCA6 JUMPI DUP1 PUSH1 0x1F LT PUSH2 0xC7B JUMPI PUSH2 0x100 DUP1 DUP4 SLOAD DIV MUL DUP4 MSTORE SWAP2 PUSH1 0x20 ADD SWAP2 PUSH2 0xCA6 JUMP JUMPDEST DUP3 ADD SWAP2 SWAP1 PUSH1 0x0 MSTORE PUSH1 0x20 PUSH1 0x0 KECCAK256 SWAP1 JUMPDEST DUP2 SLOAD DUP2 MSTORE SWAP1 PUSH1 0x1 ADD SWAP1 PUSH1 0x20 ADD DUP1 DUP4 GT PUSH2 0xC89 JUMPI DUP3 SWAP1 SUB PUSH1 0x1F AND DUP3 ADD SWAP2 JUMPDEST POP POP POP POP POP DUP2 MSTORE PUSH1 0x20 ADD PUSH1 0x3 DUP3 ADD DUP1 SLOAD DUP1 PUSH1 0x20 MUL PUSH1 0x20 ADD PUSH1 0x40 MLOAD SWAP1 DUP2 ADD PUSH1 0x40 MSTORE DUP1 SWAP3 SWAP2 SWAP1 DUP2 DUP2 MSTORE PUSH1 0x20 ADD PUSH1 0x0 SWAP1 JUMPDEST DUP3 DUP3 LT ISZERO PUSH2 0xD80 JUMPI DUP4 DUP3 SWAP1 PUSH1 0x0 MSTORE PUSH1 0x20 PUSH1 0x0 KECCAK256 ADD DUP1 SLOAD PUSH2 0xCF3 SWAP1 PUSH2 0x2E38 JUMP JUMPDEST DUP1 PUSH1 0x1F ADD PUSH1 0x20 DUP1 SWAP2 DIV MUL PUSH1 0x20 ADD PUSH1 0x40 MLOAD SWAP1 DUP2 ADD PUSH1 0x40 MSTORE DUP1 SWAP3 SWAP2 SWAP1 DUP2 DUP2 MSTORE PUSH1 0x20 ADD DUP3 DUP1 SLOAD PUSH2 0xD1F SWAP1 PUSH2 0x2E38 JUMP JUMPDEST DUP1 ISZERO PUSH2 0xD6C JUMPI DUP1 PUSH1 0x1F LT PUSH2 0xD41 JUMPI PUSH2 0x100 DUP1 DUP4 SLOAD DIV MUL DUP4 MSTORE SWAP2 PUSH1 0x20 ADD SWAP2 PUSH2 0xD6C JUMP JUMPDEST DUP3 ADD SWAP2 SWAP1 PUSH1 0x0 MSTORE PUSH1 0x20 PUSH1 0x0 KECCAK256 SWAP1 JUMPDEST DUP2 SLOAD DUP2 MSTORE SWAP1 PUSH1 0x1 ADD SWAP1 PUSH1 0x20 ADD DUP1 DUP4 GT PUSH2 0xD4F JUMPI DUP3 SWAP1 SUB PUSH1 0x1F AND DUP3 ADD SWAP2 JUMPDEST POP POP POP POP POP DUP2 MSTORE PUSH1 0x20 ADD SWAP1 PUSH1 0x1 ADD SWAP1 PUSH2 0xCD4 JUMP JUMPDEST POP POP POP POP DUP2 MSTORE PUSH1 0x20 ADD PUSH1 0x4 DUP3 ADD DUP1 SLOAD DUP1 PUSH1 0x20 MUL PUSH1 0x20 ADD PUSH1 0x40 MLOAD SWAP1 DUP2 ADD PUSH1 0x40 MSTORE DUP1 SWAP3 SWAP2 SWAP1 DUP2 DUP2 MSTORE PUSH1 0x20 ADD DUP3 DUP1 SLOAD DUP1 ISZERO PUSH2 0xDD7 JUMPI PUSH1 0x20 MUL DUP3 ADD SWAP2 SWAP1 PUSH1 0x0 MSTORE PUSH1 0x20 PUSH1 0x0 KECCAK256 SWAP1 JUMPDEST DUP2 SLOAD DUP2 MSTORE PUSH1 0x20 ADD SWAP1 PUSH1 0x1 ADD SWAP1 DUP1 DUP4 GT PUSH2 0xDC3 JUMPI JUMPDEST POP POP POP POP POP DUP2 MSTORE POP POP SWAP2 POP POP SWAP3 SWAP2 POP POP JUMP JUMPDEST PUSH1 0x0 JUMPDEST DUP3 MLOAD DUP2 LT ISZERO PUSH2 0xEEC JUMPI PUSH1 0x0 DUP4 DUP3 DUP2 MLOAD DUP2 LT PUSH2 0xE0A JUMPI PUSH2 0xE09 PUSH2 0x313A JUMP JUMPDEST JUMPDEST PUSH1 0x20 MUL PUSH1 0x20 ADD ADD MLOAD SWAP1 POP PUSH2 0xE53 DUP2 PUSH1 0x40 MLOAD DUP1 PUSH1 0x40 ADD PUSH1 0x40 MSTORE DUP1 PUSH1 0xB DUP2 MSTORE PUSH1 0x20 ADD PUSH32 0x7573657257616C6C657473000000000000000000000000000000000000000000 DUP2 MSTORE POP PUSH2 0x18E2 JUMP JUMPDEST PUSH2 0xED8 JUMPI DUP3 PUSH1 0x9 DUP3 PUSH1 0x40 MLOAD PUSH2 0xE68 SWAP2 SWAP1 PUSH2 0x2EA5 JUMP JUMPDEST SWAP1 DUP2 MSTORE PUSH1 0x20 ADD PUSH1 0x40 MLOAD DUP1 SWAP2 SUB SWAP1 KECCAK256 SWAP1 DUP2 PUSH2 0xE82 SWAP2 SWAP1 PUSH2 0x3068 JUMP JUMPDEST POP PUSH1 0x4 DUP4 PUSH1 0x40 MLOAD PUSH2 0xE93 SWAP2 SWAP1 PUSH2 0x2EA5 JUMP JUMPDEST SWAP1 DUP2 MSTORE PUSH1 0x20 ADD PUSH1 0x40 MLOAD DUP1 SWAP2 SUB SWAP1 KECCAK256 PUSH1 0x3 ADD DUP2 SWAP1 DUP1 PUSH1 0x1 DUP2 SLOAD ADD DUP1 DUP3 SSTORE DUP1 SWAP2 POP POP PUSH1 0x1 SWAP1 SUB SWAP1 PUSH1 0x0 MSTORE PUSH1 0x20 PUSH1 0x0 KECCAK256 ADD PUSH1 0x0 SWAP1 SWAP2 SWAP1 SWAP2 SWAP1 SWAP2 POP SWAP1 DUP2 PUSH2 0xED6 SWAP2 SWAP1 PUSH2 0x3068 JUMP JUMPDEST POP JUMPDEST POP DUP1 DUP1 PUSH2 0xEE4 SWAP1 PUSH2 0x3198 JUMP JUMPDEST SWAP2 POP POP PUSH2 0xDEC JUMP JUMPDEST POP POP POP JUMP JUMPDEST PUSH1 0x1 SLOAD DUP2 JUMP JUMPDEST PUSH1 0x40 MLOAD DUP1 PUSH2 0x100 ADD PUSH1 0x40 MSTORE DUP1 DUP10 DUP2 MSTORE PUSH1 0x20 ADD DUP9 DUP2 MSTORE PUSH1 0x20 ADD DUP8 DUP2 MSTORE PUSH1 0x20 ADD DUP7 DUP2 MSTORE PUSH1 0x20 ADD DUP6 DUP2 MSTORE PUSH1 0x20 ADD DUP5 DUP2 MSTORE PUSH1 0x20 ADD DUP4 DUP2 MSTORE PUSH1 0x20 ADD DUP3 DUP2 MSTORE POP PUSH1 0x3 PUSH1 0x0 PUSH1 0x1 SLOAD DUP2 MSTORE PUSH1 0x20 ADD SWAP1 DUP2 MSTORE PUSH1 0x20 ADD PUSH1 0x0 KECCAK256 PUSH1 0x0 DUP3 ADD MLOAD DUP2 PUSH1 0x0 ADD SWAP1 DUP2 PUSH2 0xF5B SWAP2 SWAP1 PUSH2 0x3068 JUMP JUMPDEST POP PUSH1 0x20 DUP3 ADD MLOAD DUP2 PUSH1 0x1 ADD SWAP1 DUP2 PUSH2 0xF71 SWAP2 SWAP1 PUSH2 0x3068 JUMP JUMPDEST POP PUSH1 0x40 DUP3 ADD MLOAD DUP2 PUSH1 0x2 ADD SWAP1 DUP2 PUSH2 0xF87 SWAP2 SWAP1 PUSH2 0x3068 JUMP JUMPDEST POP PUSH1 0x60 DUP3 ADD MLOAD DUP2 PUSH1 0x3 ADD SWAP1 DUP2 PUSH2 0xF9D SWAP2 SWAP1 PUSH2 0x3068 JUMP JUMPDEST POP PUSH1 0x80 DUP3 ADD MLOAD DUP2 PUSH1 0x4 ADD SWAP1 DUP2 PUSH2 0xFB3 SWAP2 SWAP1 PUSH2 0x3068 JUMP JUMPDEST POP PUSH1 0xA0 DUP3 ADD MLOAD DUP2 PUSH1 0x5 ADD SSTORE PUSH1 0xC0 DUP3 ADD MLOAD DUP2 PUSH1 0x6 ADD SSTORE PUSH1 0xE0 DUP3 ADD MLOAD DUP2 PUSH1 0x7 ADD SWAP1 DUP2 PUSH2 0xFDD SWAP2 SWAP1 PUSH2 0x3068 JUMP JUMPDEST POP SWAP1 POP POP PUSH1 0x4 DUP9 PUSH1 0x40 MLOAD PUSH2 0xFF1 SWAP2 SWAP1 PUSH2 0x2EA5 JUMP JUMPDEST SWAP1 DUP2 MSTORE PUSH1 0x20 ADD PUSH1 0x40 MLOAD DUP1 SWAP2 SUB SWAP1 KECCAK256 PUSH1 0x4 ADD PUSH1 0x1 SLOAD SWAP1 DUP1 PUSH1 0x1 DUP2 SLOAD ADD DUP1 DUP3 SSTORE DUP1 SWAP2 POP POP PUSH1 0x1 SWAP1 SUB SWAP1 PUSH1 0x0 MSTORE PUSH1 0x20 PUSH1 0x0 KECCAK256 ADD PUSH1 0x0 SWAP1 SWAP2 SWAP1 SWAP2 SWAP1 SWAP2 POP SSTORE PUSH1 0x1 PUSH1 0x0 DUP2 SLOAD DUP1 SWAP3 SWAP2 SWAP1 PUSH2 0x103E SWAP1 PUSH2 0x3198 JUMP JUMPDEST SWAP2 SWAP1 POP SSTORE POP POP POP POP POP POP POP POP POP JUMP JUMPDEST PUSH2 0x1055 PUSH2 0x2254 JUMP JUMPDEST PUSH1 0x0 PUSH1 0x9 DUP4 PUSH1 0x40 MLOAD PUSH2 0x1067 SWAP2 SWAP1 PUSH2 0x2EA5 JUMP JUMPDEST SWAP1 DUP2 MSTORE PUSH1 0x20 ADD PUSH1 0x40 MLOAD DUP1 SWAP2 SUB SWAP1 KECCAK256 DUP1 SLOAD PUSH2 0x1080 SWAP1 PUSH2 0x2E38 JUMP JUMPDEST DUP1 PUSH1 0x1F ADD PUSH1 0x20 DUP1 SWAP2 DIV MUL PUSH1 0x20 ADD PUSH1 0x40 MLOAD SWAP1 DUP2 ADD PUSH1 0x40 MSTORE DUP1 SWAP3 SWAP2 SWAP1 DUP2 DUP2 MSTORE PUSH1 0x20 ADD DUP3 DUP1 SLOAD PUSH2 0x10AC SWAP1 PUSH2 0x2E38 JUMP JUMPDEST DUP1 ISZERO PUSH2 0x10F9 JUMPI DUP1 PUSH1 0x1F LT PUSH2 0x10CE JUMPI PUSH2 0x100 DUP1 DUP4 SLOAD DIV MUL DUP4 MSTORE SWAP2 PUSH1 0x20 ADD SWAP2 PUSH2 0x10F9 JUMP JUMPDEST DUP3 ADD SWAP2 SWAP1 PUSH1 0x0 MSTORE PUSH1 0x20 PUSH1 0x0 KECCAK256 SWAP1 JUMPDEST DUP2 SLOAD DUP2 MSTORE SWAP1 PUSH1 0x1 ADD SWAP1 PUSH1 0x20 ADD DUP1 DUP4 GT PUSH2 0x10DC JUMPI DUP3 SWAP1 SUB PUSH1 0x1F AND DUP3 ADD SWAP2 JUMPDEST POP POP POP POP POP SWAP1 POP PUSH1 0x4 DUP2 PUSH1 0x40 MLOAD PUSH2 0x1110 SWAP2 SWAP1 PUSH2 0x2EA5 JUMP JUMPDEST SWAP1 DUP2 MSTORE PUSH1 0x20 ADD PUSH1 0x40 MLOAD DUP1 SWAP2 SUB SWAP1 KECCAK256 PUSH1 0x40 MLOAD DUP1 PUSH1 0xA0 ADD PUSH1 0x40 MSTORE SWAP1 DUP2 PUSH1 0x0 DUP3 ADD DUP1 SLOAD PUSH2 0x1139 SWAP1 PUSH2 0x2E38 JUMP JUMPDEST DUP1 PUSH1 0x1F ADD PUSH1 0x20 DUP1 SWAP2 DIV MUL PUSH1 0x20 ADD PUSH1 0x40 MLOAD SWAP1 DUP2 ADD PUSH1 0x40 MSTORE DUP1 SWAP3 SWAP2 SWAP1 DUP2 DUP2 MSTORE PUSH1 0x20 ADD DUP3 DUP1 SLOAD PUSH2 0x1165 SWAP1 PUSH2 0x2E38 JUMP JUMPDEST DUP1 ISZERO PUSH2 0x11B2 JUMPI DUP1 PUSH1 0x1F LT PUSH2 0x1187 JUMPI PUSH2 0x100 DUP1 DUP4 SLOAD DIV MUL DUP4 MSTORE SWAP2 PUSH1 0x20 ADD SWAP2 PUSH2 0x11B2 JUMP JUMPDEST DUP3 ADD SWAP2 SWAP1 PUSH1 0x0 MSTORE PUSH1 0x20 PUSH1 0x0 KECCAK256 SWAP1 JUMPDEST DUP2 SLOAD DUP2 MSTORE SWAP1 PUSH1 0x1 ADD SWAP1 PUSH1 0x20 ADD DUP1 DUP4 GT PUSH2 0x1195 JUMPI DUP3 SWAP1 SUB PUSH1 0x1F AND DUP3 ADD SWAP2 JUMPDEST POP POP POP POP POP DUP2 MSTORE PUSH1 0x20 ADD PUSH1 0x1 DUP3 ADD DUP1 SLOAD PUSH2 0x11CB SWAP1 PUSH2 0x2E38 JUMP JUMPDEST DUP1 PUSH1 0x1F ADD PUSH1 0x20 DUP1 SWAP2 DIV MUL PUSH1 0x20 ADD PUSH1 0x40 MLOAD SWAP1 DUP2 ADD PUSH1 0x40 MSTORE DUP1 SWAP3 SWAP2 SWAP1 DUP2 DUP2 MSTORE PUSH1 0x20 ADD DUP3 DUP1 SLOAD PUSH2 0x11F7 SWAP1 PUSH2 0x2E38 JUMP JUMPDEST DUP1 ISZERO PUSH2 0x1244 JUMPI DUP1 PUSH1 0x1F LT PUSH2 0x1219 JUMPI PUSH2 0x100 DUP1 DUP4 SLOAD DIV MUL DUP4 MSTORE SWAP2 PUSH1 0x20 ADD SWAP2 PUSH2 0x1244 JUMP JUMPDEST DUP3 ADD SWAP2 SWAP1 PUSH1 0x0 MSTORE PUSH1 0x20 PUSH1 0x0 KECCAK256 SWAP1 JUMPDEST DUP2 SLOAD DUP2 MSTORE SWAP1 PUSH1 0x1 ADD SWAP1 PUSH1 0x20 ADD DUP1 DUP4 GT PUSH2 0x1227 JUMPI DUP3 SWAP1 SUB PUSH1 0x1F AND DUP3 ADD SWAP2 JUMPDEST POP POP POP POP POP DUP2 MSTORE PUSH1 0x20 ADD PUSH1 0x2 DUP3 ADD DUP1 SLOAD PUSH2 0x125D SWAP1 PUSH2 0x2E38 JUMP JUMPDEST DUP1 PUSH1 0x1F ADD PUSH1 0x20 DUP1 SWAP2 DIV MUL PUSH1 0x20 ADD PUSH1 0x40 MLOAD SWAP1 DUP2 ADD PUSH1 0x40 MSTORE DUP1 SWAP3 SWAP2 SWAP1 DUP2 DUP2 MSTORE PUSH1 0x20 ADD DUP3 DUP1 SLOAD PUSH2 0x1289 SWAP1 PUSH2 0x2E38 JUMP JUMPDEST DUP1 ISZERO PUSH2 0x12D6 JUMPI DUP1 PUSH1 0x1F LT PUSH2 0x12AB JUMPI PUSH2 0x100 DUP1 DUP4 SLOAD DIV MUL DUP4 MSTORE SWAP2 PUSH1 0x20 ADD SWAP2 PUSH2 0x12D6 JUMP JUMPDEST DUP3 ADD SWAP2 SWAP1 PUSH1 0x0 MSTORE PUSH1 0x20 PUSH1 0x0 KECCAK256 SWAP1 JUMPDEST DUP2 SLOAD DUP2 MSTORE SWAP1 PUSH1 0x1 ADD SWAP1 PUSH1 0x20 ADD DUP1 DUP4 GT PUSH2 0x12B9 JUMPI DUP3 SWAP1 SUB PUSH1 0x1F AND DUP3 ADD SWAP2 JUMPDEST POP POP POP POP POP DUP2 MSTORE PUSH1 0x20 ADD PUSH1 0x3 DUP3 ADD DUP1 SLOAD DUP1 PUSH1 0x20 MUL PUSH1 0x20 ADD PUSH1 0x40 MLOAD SWAP1 DUP2 ADD PUSH1 0x40 MSTORE DUP1 SWAP3 SWAP2 SWAP1 DUP2 DUP2 MSTORE PUSH1 0x20 ADD PUSH1 0x0 SWAP1 JUMPDEST DUP3 DUP3 LT ISZERO PUSH2 0x13B0 JUMPI DUP4 DUP3 SWAP1 PUSH1 0x0 MSTORE PUSH1 0x20 PUSH1 0x0 KECCAK256 ADD DUP1 SLOAD PUSH2 0x1323 SWAP1 PUSH2 0x2E38 JUMP JUMPDEST DUP1 PUSH1 0x1F ADD PUSH1 0x20 DUP1 SWAP2 DIV MUL PUSH1 0x20 ADD PUSH1 0x40 MLOAD SWAP1 DUP2 ADD PUSH1 0x40 MSTORE DUP1 SWAP3 SWAP2 SWAP1 DUP2 DUP2 MSTORE PUSH1 0x20 ADD DUP3 DUP1 SLOAD PUSH2 0x134F SWAP1 PUSH2 0x2E38 JUMP JUMPDEST DUP1 ISZERO PUSH2 0x139C JUMPI DUP1 PUSH1 0x1F LT PUSH2 0x1371 JUMPI PUSH2 0x100 DUP1 DUP4 SLOAD DIV MUL DUP4 MSTORE SWAP2 PUSH1 0x20 ADD SWAP2 PUSH2 0x139C JUMP JUMPDEST DUP3 ADD SWAP2 SWAP1 PUSH1 0x0 MSTORE PUSH1 0x20 PUSH1 0x0 KECCAK256 SWAP1 JUMPDEST DUP2 SLOAD DUP2 MSTORE SWAP1 PUSH1 0x1 ADD SWAP1 PUSH1 0x20 ADD DUP1 DUP4 GT PUSH2 0x137F JUMPI DUP3 SWAP1 SUB PUSH1 0x1F AND DUP3 ADD SWAP2 JUMPDEST POP POP POP POP POP DUP2 MSTORE PUSH1 0x20 ADD SWAP1 PUSH1 0x1 ADD SWAP1 PUSH2 0x1304 JUMP JUMPDEST POP POP POP POP DUP2 MSTORE PUSH1 0x20 ADD PUSH1 0x4 DUP3 ADD DUP1 SLOAD DUP1 PUSH1 0x20 MUL PUSH1 0x20 ADD PUSH1 0x40 MLOAD SWAP1 DUP2 ADD PUSH1 0x40 MSTORE DUP1 SWAP3 SWAP2 SWAP1 DUP2 DUP2 MSTORE PUSH1 0x20 ADD DUP3 DUP1 SLOAD DUP1 ISZERO PUSH2 0x1407 JUMPI PUSH1 0x20 MUL DUP3 ADD SWAP2 SWAP1 PUSH1 0x0 MSTORE PUSH1 0x20 PUSH1 0x0 KECCAK256 SWAP1 JUMPDEST DUP2 SLOAD DUP2 MSTORE PUSH1 0x20 ADD SWAP1 PUSH1 0x1 ADD SWAP1 DUP1 DUP4 GT PUSH2 0x13F3 JUMPI JUMPDEST POP POP POP POP POP DUP2 MSTORE POP POP SWAP2 POP POP SWAP2 SWAP1 POP JUMP JUMPDEST PUSH1 0x0 DUP1 PUSH1 0x0 SWAP1 SLOAD SWAP1 PUSH2 0x100 EXP SWAP1 DIV PUSH20 0xFFFFFFFFFFFFFFFFFFFFFFFFFFFFFFFFFFFFFFFF AND SWAP1 POP SWAP1 JUMP JUMPDEST JUMP JUMPDEST PUSH1 0x2 SLOAD DUP2 JUMP JUMPDEST PUSH1 0x0 DUP2 MLOAD DUP4 MLOAD EQ PUSH2 0x145D JUMPI PUSH1 0x0 SWAP1 POP PUSH2 0x1511 JUMP JUMPDEST PUSH1 0x0 JUMPDEST DUP4 MLOAD DUP2 LT ISZERO PUSH2 0x150B JUMPI DUP3 DUP2 DUP2 MLOAD DUP2 LT PUSH2 0x147C JUMPI PUSH2 0x147B PUSH2 0x313A JUMP JUMPDEST JUMPDEST PUSH1 0x20 ADD ADD MLOAD PUSH1 0xF8 SHR PUSH1 0xF8 SHL PUSH31 0xFFFFFFFFFFFFFFFFFFFFFFFFFFFFFFFFFFFFFFFFFFFFFFFFFFFFFFFFFFFFFF NOT AND DUP5 DUP3 DUP2 MLOAD DUP2 LT PUSH2 0x14BC JUMPI PUSH2 0x14BB PUSH2 0x313A JUMP JUMPDEST JUMPDEST PUSH1 0x20 ADD ADD MLOAD PUSH1 0xF8 SHR PUSH1 0xF8 SHL PUSH31 0xFFFFFFFFFFFFFFFFFFFFFFFFFFFFFFFFFFFFFFFFFFFFFFFFFFFFFFFFFFFFFF NOT AND EQ PUSH2 0x14F8 JUMPI PUSH1 0x0 SWAP2 POP POP PUSH2 0x1511 JUMP JUMPDEST DUP1 DUP1 PUSH2 0x1503 SWAP1 PUSH2 0x3198 JUMP JUMPDEST SWAP2 POP POP PUSH2 0x1460 JUMP JUMPDEST POP PUSH1 0x1 SWAP1 POP JUMPDEST SWAP3 SWAP2 POP POP JUMP JUMPDEST PUSH2 0x151F PUSH2 0x2254 JUMP JUMPDEST PUSH1 0x0 PUSH1 0xA DUP4 PUSH1 0x40 MLOAD PUSH2 0x1531 SWAP2 SWAP1 PUSH2 0x2EA5 JUMP JUMPDEST SWAP1 DUP2 MSTORE PUSH1 0x20 ADD PUSH1 0x40 MLOAD DUP1 SWAP2 SUB SWAP1 KECCAK256 DUP1 SLOAD PUSH2 0x154A SWAP1 PUSH2 0x2E38 JUMP JUMPDEST DUP1 PUSH1 0x1F ADD PUSH1 0x20 DUP1 SWAP2 DIV MUL PUSH1 0x20 ADD PUSH1 0x40 MLOAD SWAP1 DUP2 ADD PUSH1 0x40 MSTORE DUP1 SWAP3 SWAP2 SWAP1 DUP2 DUP2 MSTORE PUSH1 0x20 ADD DUP3 DUP1 SLOAD PUSH2 0x1576 SWAP1 PUSH2 0x2E38 JUMP JUMPDEST DUP1 ISZERO PUSH2 0x15C3 JUMPI DUP1 PUSH1 0x1F LT PUSH2 0x1598 JUMPI PUSH2 0x100 DUP1 DUP4 SLOAD DIV MUL DUP4 MSTORE SWAP2 PUSH1 0x20 ADD SWAP2 PUSH2 0x15C3 JUMP JUMPDEST DUP3 ADD SWAP2 SWAP1 PUSH1 0x0 MSTORE PUSH1 0x20 PUSH1 0x0 KECCAK256 SWAP1 JUMPDEST DUP2 SLOAD DUP2 MSTORE SWAP1 PUSH1 0x1 ADD SWAP1 PUSH1 0x20 ADD DUP1 DUP4 GT PUSH2 0x15A6 JUMPI DUP3 SWAP1 SUB PUSH1 0x1F AND DUP3 ADD SWAP2 JUMPDEST POP POP POP POP POP SWAP1 POP PUSH1 0x4 DUP2 PUSH1 0x40 MLOAD PUSH2 0x15DA SWAP2 SWAP1 PUSH2 0x2EA5 JUMP JUMPDEST SWAP1 DUP2 MSTORE PUSH1 0x20 ADD PUSH1 0x40 MLOAD DUP1 SWAP2 SUB SWAP1 KECCAK256 PUSH1 0x40 MLOAD DUP1 PUSH1 0xA0 ADD PUSH1 0x40 MSTORE SWAP1 DUP2 PUSH1 0x0 DUP3 ADD DUP1 SLOAD PUSH2 0x1603 SWAP1 PUSH2 0x2E38 JUMP JUMPDEST DUP1 PUSH1 0x1F ADD PUSH1 0x20 DUP1 SWAP2 DIV MUL PUSH1 0x20 ADD PUSH1 0x40 MLOAD SWAP1 DUP2 ADD PUSH1 0x40 MSTORE DUP1 SWAP3 SWAP2 SWAP1 DUP2 DUP2 MSTORE PUSH1 0x20 ADD DUP3 DUP1 SLOAD PUSH2 0x162F SWAP1 PUSH2 0x2E38 JUMP JUMPDEST DUP1 ISZERO PUSH2 0x167C JUMPI DUP1 PUSH1 0x1F LT PUSH2 0x1651 JUMPI PUSH2 0x100 DUP1 DUP4 SLOAD DIV MUL DUP4 MSTORE SWAP2 PUSH1 0x20 ADD SWAP2 PUSH2 0x167C JUMP JUMPDEST DUP3 ADD SWAP2 SWAP1 PUSH1 0x0 MSTORE PUSH1 0x20 PUSH1 0x0 KECCAK256 SWAP1 JUMPDEST DUP2 SLOAD DUP2 MSTORE SWAP1 PUSH1 0x1 ADD SWAP1 PUSH1 0x20 ADD DUP1 DUP4 GT PUSH2 0x165F JUMPI DUP3 SWAP1 SUB PUSH1 0x1F AND DUP3 ADD SWAP2 JUMPDEST POP POP POP POP POP DUP2 MSTORE PUSH1 0x20 ADD PUSH1 0x1 DUP3 ADD DUP1 SLOAD PUSH2 0x1695 SWAP1 PUSH2 0x2E38 JUMP JUMPDEST DUP1 PUSH1 0x1F ADD PUSH1 0x20 DUP1 SWAP2 DIV MUL PUSH1 0x20 ADD PUSH1 0x40 MLOAD SWAP1 DUP2 ADD PUSH1 0x40 MSTORE DUP1 SWAP3 SWAP2 SWAP1 DUP2 DUP2 MSTORE PUSH1 0x20 ADD DUP3 DUP1 SLOAD PUSH2 0x16C1 SWAP1 PUSH2 0x2E38 JUMP JUMPDEST DUP1 ISZERO PUSH2 0x170E JUMPI DUP1 PUSH1 0x1F LT PUSH2 0x16E3 JUMPI PUSH2 0x100 DUP1 DUP4 SLOAD DIV MUL DUP4 MSTORE SWAP2 PUSH1 0x20 ADD SWAP2 PUSH2 0x170E JUMP JUMPDEST DUP3 ADD SWAP2 SWAP1 PUSH1 0x0 MSTORE PUSH1 0x20 PUSH1 0x0 KECCAK256 SWAP1 JUMPDEST DUP2 SLOAD DUP2 MSTORE SWAP1 PUSH1 0x1 ADD SWAP1 PUSH1 0x20 ADD DUP1 DUP4 GT PUSH2 0x16F1 JUMPI DUP3 SWAP1 SUB PUSH1 0x1F AND DUP3 ADD SWAP2 JUMPDEST POP POP POP POP POP DUP2 MSTORE PUSH1 0x20 ADD PUSH1 0x2 DUP3 ADD DUP1 SLOAD PUSH2 0x1727 SWAP1 PUSH2 0x2E38 JUMP JUMPDEST DUP1 PUSH1 0x1F ADD PUSH1 0x20 DUP1 SWAP2 DIV MUL PUSH1 0x20 ADD PUSH1 0x40 MLOAD SWAP1 DUP2 ADD PUSH1 0x40 MSTORE DUP1 SWAP3 SWAP2 SWAP1 DUP2 DUP2 MSTORE PUSH1 0x20 ADD DUP3 DUP1 SLOAD PUSH2 0x1753 SWAP1 PUSH2 0x2E38 JUMP JUMPDEST DUP1 ISZERO PUSH2 0x17A0 JUMPI DUP1 PUSH1 0x1F LT PUSH2 0x1775 JUMPI PUSH2 0x100 DUP1 DUP4 SLOAD DIV MUL DUP4 MSTORE SWAP2 PUSH1 0x20 ADD SWAP2 PUSH2 0x17A0 JUMP JUMPDEST DUP3 ADD SWAP2 SWAP1 PUSH1 0x0 MSTORE PUSH1 0x20 PUSH1 0x0 KECCAK256 SWAP1 JUMPDEST DUP2 SLOAD DUP2 MSTORE SWAP1 PUSH1 0x1 ADD SWAP1 PUSH1 0x20 ADD DUP1 DUP4 GT PUSH2 0x1783 JUMPI DUP3 SWAP1 SUB PUSH1 0x1F AND DUP3 ADD SWAP2 JUMPDEST POP POP POP POP POP DUP2 MSTORE PUSH1 0x20 ADD PUSH1 0x3 DUP3 ADD DUP1 SLOAD DUP1 PUSH1 0x20 MUL PUSH1 0x20 ADD PUSH1 0x40 MLOAD SWAP1 DUP2 ADD PUSH1 0x40 MSTORE DUP1 SWAP3 SWAP2 SWAP1 DUP2 DUP2 MSTORE PUSH1 0x20 ADD PUSH1 0x0 SWAP1 JUMPDEST DUP3 DUP3 LT ISZERO PUSH2 0x187A JUMPI DUP4 DUP3 SWAP1 PUSH1 0x0 MSTORE PUSH1 0x20 PUSH1 0x0 KECCAK256 ADD DUP1 SLOAD PUSH2 0x17ED SWAP1 PUSH2 0x2E38 JUMP JUMPDEST DUP1 PUSH1 0x1F ADD PUSH1 0x20 DUP1 SWAP2 DIV MUL PUSH1 0x20 ADD PUSH1 0x40 MLOAD SWAP1 DUP2 ADD PUSH1 0x40 MSTORE DUP1 SWAP3 SWAP2 SWAP1 DUP2 DUP2 MSTORE PUSH1 0x20 ADD DUP3 DUP1 SLOAD PUSH2 0x1819 SWAP1 PUSH2 0x2E38 JUMP JUMPDEST DUP1 ISZERO PUSH2 0x1866 JUMPI DUP1 PUSH1 0x1F LT PUSH2 0x183B JUMPI PUSH2 0x100 DUP1 DUP4 SLOAD DIV MUL DUP4 MSTORE SWAP2 PUSH1 0x20 ADD SWAP2 PUSH2 0x1866 JUMP JUMPDEST DUP3 ADD SWAP2 SWAP1 PUSH1 0x0 MSTORE PUSH1 0x20 PUSH1 0x0 KECCAK256 SWAP1 JUMPDEST DUP2 SLOAD DUP2 MSTORE SWAP1 PUSH1 0x1 ADD SWAP1 PUSH1 0x20 ADD DUP1 DUP4 GT PUSH2 0x1849 JUMPI DUP3 SWAP1 SUB PUSH1 0x1F AND DUP3 ADD SWAP2 JUMPDEST POP POP POP POP POP DUP2 MSTORE PUSH1 0x20 ADD SWAP1 PUSH1 0x1 ADD SWAP1 PUSH2 0x17CE JUMP JUMPDEST POP POP POP POP DUP2 MSTORE PUSH1 0x20 ADD PUSH1 0x4 DUP3 ADD DUP1 SLOAD DUP1 PUSH1 0x20 MUL PUSH1 0x20 ADD PUSH1 0x40 MLOAD SWAP1 DUP2 ADD PUSH1 0x40 MSTORE DUP1 SWAP3 SWAP2 SWAP1 DUP2 DUP2 MSTORE PUSH1 0x20 ADD DUP3 DUP1 SLOAD DUP1 ISZERO PUSH2 0x18D1 JUMPI PUSH1 0x20 MUL DUP3 ADD SWAP2 SWAP1 PUSH1 0x0 MSTORE PUSH1 0x20 PUSH1 0x0 KECCAK256 SWAP1 JUMPDEST DUP2 SLOAD DUP2 MSTORE PUSH1 0x20 ADD SWAP1 PUSH1 0x1 ADD SWAP1 DUP1 DUP4 GT PUSH2 0x18BD JUMPI JUMPDEST POP POP POP POP POP DUP2 MSTORE POP POP SWAP2 POP POP SWAP2 SWAP1 POP JUMP JUMPDEST PUSH1 0x0 PUSH2 0x1923 DUP3 PUSH1 0x40 MLOAD DUP1 PUSH1 0x40 ADD PUSH1 0x40 MSTORE DUP1 PUSH1 0xB DUP2 MSTORE PUSH1 0x20 ADD PUSH32 0x7573657257616C6C657473000000000000000000000000000000000000000000 DUP2 MSTORE POP PUSH2 0x1449 JUMP JUMPDEST ISZERO PUSH2 0x199A JUMPI PUSH1 0x40 MLOAD PUSH1 0x20 ADD PUSH2 0x1937 SWAP1 PUSH2 0x3206 JUMP JUMPDEST PUSH1 0x40 MLOAD PUSH1 0x20 DUP2 DUP4 SUB SUB DUP2 MSTORE SWAP1 PUSH1 0x40 MSTORE DUP1 MLOAD SWAP1 PUSH1 0x20 ADD KECCAK256 PUSH1 0x9 DUP5 PUSH1 0x40 MLOAD PUSH2 0x195D SWAP2 SWAP1 PUSH2 0x2EA5 JUMP JUMPDEST SWAP1 DUP2 MSTORE PUSH1 0x20 ADD PUSH1 0x40 MLOAD DUP1 SWAP2 SUB SWAP1 KECCAK256 PUSH1 0x40 MLOAD PUSH1 0x20 ADD PUSH2 0x197B SWAP2 SWAP1 PUSH2 0x329E JUMP JUMPDEST PUSH1 0x40 MLOAD PUSH1 0x20 DUP2 DUP4 SUB SUB DUP2 MSTORE SWAP1 PUSH1 0x40 MSTORE DUP1 MLOAD SWAP1 PUSH1 0x20 ADD KECCAK256 EQ ISZERO SWAP1 POP PUSH2 0x1B0B JUMP JUMPDEST PUSH2 0x19D9 DUP3 PUSH1 0x40 MLOAD DUP1 PUSH1 0x40 ADD PUSH1 0x40 MSTORE DUP1 PUSH1 0x8 DUP2 MSTORE PUSH1 0x20 ADD PUSH32 0x757365724C656E73000000000000000000000000000000000000000000000000 DUP2 MSTORE POP PUSH2 0x1449 JUMP JUMPDEST ISZERO PUSH2 0x1A50 JUMPI PUSH1 0x40 MLOAD PUSH1 0x20 ADD PUSH2 0x19ED SWAP1 PUSH2 0x3206 JUMP JUMPDEST PUSH1 0x40 MLOAD PUSH1 0x20 DUP2 DUP4 SUB SUB DUP2 MSTORE SWAP1 PUSH1 0x40 MSTORE DUP1 MLOAD SWAP1 PUSH1 0x20 ADD KECCAK256 PUSH1 0xA DUP5 PUSH1 0x40 MLOAD PUSH2 0x1A13 SWAP2 SWAP1 PUSH2 0x2EA5 JUMP JUMPDEST SWAP1 DUP2 MSTORE PUSH1 0x20 ADD PUSH1 0x40 MLOAD DUP1 SWAP2 SUB SWAP1 KECCAK256 PUSH1 0x40 MLOAD PUSH1 0x20 ADD PUSH2 0x1A31 SWAP2 SWAP1 PUSH2 0x329E JUMP JUMPDEST PUSH1 0x40 MLOAD PUSH1 0x20 DUP2 DUP4 SUB SUB DUP2 MSTORE SWAP1 PUSH1 0x40 MSTORE DUP1 MLOAD SWAP1 PUSH1 0x20 ADD KECCAK256 EQ ISZERO SWAP1 POP PUSH2 0x1B0B JUMP JUMPDEST PUSH2 0x1A8F DUP3 PUSH1 0x40 MLOAD DUP1 PUSH1 0x40 ADD PUSH1 0x40 MSTORE DUP1 PUSH1 0x8 DUP2 MSTORE PUSH1 0x20 ADD PUSH32 0x7573657257434944000000000000000000000000000000000000000000000000 DUP2 MSTORE POP PUSH2 0x1449 JUMP JUMPDEST ISZERO PUSH2 0x1B06 JUMPI PUSH1 0x40 MLOAD PUSH1 0x20 ADD PUSH2 0x1AA3 SWAP1 PUSH2 0x3206 JUMP JUMPDEST PUSH1 0x40 MLOAD PUSH1 0x20 DUP2 DUP4 SUB SUB DUP2 MSTORE SWAP1 PUSH1 0x40 MSTORE DUP1 MLOAD SWAP1 PUSH1 0x20 ADD KECCAK256 PUSH1 0x8 DUP5 PUSH1 0x40 MLOAD PUSH2 0x1AC9 SWAP2 SWAP1 PUSH2 0x2EA5 JUMP JUMPDEST SWAP1 DUP2 MSTORE PUSH1 0x20 ADD PUSH1 0x40 MLOAD DUP1 SWAP2 SUB SWAP1 KECCAK256 PUSH1 0x40 MLOAD PUSH1 0x20 ADD PUSH2 0x1AE7 SWAP2 SWAP1 PUSH2 0x329E JUMP JUMPDEST PUSH1 0x40 MLOAD PUSH1 0x20 DUP2 DUP4 SUB SUB DUP2 MSTORE SWAP1 PUSH1 0x40 MSTORE DUP1 MLOAD SWAP1 PUSH1 0x20 ADD KECCAK256 EQ ISZERO SWAP1 POP PUSH2 0x1B0B JUMP JUMPDEST PUSH1 0x0 SWAP1 POP JUMPDEST SWAP3 SWAP2 POP POP JUMP JUMPDEST PUSH1 0x3 PUSH1 0x20 MSTORE DUP1 PUSH1 0x0 MSTORE PUSH1 0x40 PUSH1 0x0 KECCAK256 PUSH1 0x0 SWAP2 POP SWAP1 POP DUP1 PUSH1 0x0 ADD DUP1 SLOAD PUSH2 0x1B34 SWAP1 PUSH2 0x2E38 JUMP JUMPDEST DUP1 PUSH1 0x1F ADD PUSH1 0x20 DUP1 SWAP2 DIV MUL PUSH1 0x20 ADD PUSH1 0x40 MLOAD SWAP1 DUP2 ADD PUSH1 0x40 MSTORE DUP1 SWAP3 SWAP2 SWAP1 DUP2 DUP2 MSTORE PUSH1 0x20 ADD DUP3 DUP1 SLOAD PUSH2 0x1B60 SWAP1 PUSH2 0x2E38 JUMP JUMPDEST DUP1 ISZERO PUSH2 0x1BAD JUMPI DUP1 PUSH1 0x1F LT PUSH2 0x1B82 JUMPI PUSH2 0x100 DUP1 DUP4 SLOAD DIV MUL DUP4 MSTORE SWAP2 PUSH1 0x20 ADD SWAP2 PUSH2 0x1BAD JUMP JUMPDEST DUP3 ADD SWAP2 SWAP1 PUSH1 0x0 MSTORE PUSH1 0x20 PUSH1 0x0 KECCAK256 SWAP1 JUMPDEST DUP2 SLOAD DUP2 MSTORE SWAP1 PUSH1 0x1 ADD SWAP1 PUSH1 0x20 ADD DUP1 DUP4 GT PUSH2 0x1B90 JUMPI DUP3 SWAP1 SUB PUSH1 0x1F AND DUP3 ADD SWAP2 JUMPDEST POP POP POP POP POP SWAP1 DUP1 PUSH1 0x1 ADD DUP1 SLOAD PUSH2 0x1BC2 SWAP1 PUSH2 0x2E38 JUMP JUMPDEST DUP1 PUSH1 0x1F ADD PUSH1 0x20 DUP1 SWAP2 DIV MUL PUSH1 0x20 ADD PUSH1 0x40 MLOAD SWAP1 DUP2 ADD PUSH1 0x40 MSTORE DUP1 SWAP3 SWAP2 SWAP1 DUP2 DUP2 MSTORE PUSH1 0x20 ADD DUP3 DUP1 SLOAD PUSH2 0x1BEE SWAP1 PUSH2 0x2E38 JUMP JUMPDEST DUP1 ISZERO PUSH2 0x1C3B JUMPI DUP1 PUSH1 0x1F LT PUSH2 0x1C10 JUMPI PUSH2 0x100 DUP1 DUP4 SLOAD DIV MUL DUP4 MSTORE SWAP2 PUSH1 0x20 ADD SWAP2 PUSH2 0x1C3B JUMP JUMPDEST DUP3 ADD SWAP2 SWAP1 PUSH1 0x0 MSTORE PUSH1 0x20 PUSH1 0x0 KECCAK256 SWAP1 JUMPDEST DUP2 SLOAD DUP2 MSTORE SWAP1 PUSH1 0x1 ADD SWAP1 PUSH1 0x20 ADD DUP1 DUP4 GT PUSH2 0x1C1E JUMPI DUP3 SWAP1 SUB PUSH1 0x1F AND DUP3 ADD SWAP2 JUMPDEST POP POP POP POP POP SWAP1 DUP1 PUSH1 0x2 ADD DUP1 SLOAD PUSH2 0x1C50 SWAP1 PUSH2 0x2E38 JUMP JUMPDEST DUP1 PUSH1 0x1F ADD PUSH1 0x20 DUP1 SWAP2 DIV MUL PUSH1 0x20 ADD PUSH1 0x40 MLOAD SWAP1 DUP2 ADD PUSH1 0x40 MSTORE DUP1 SWAP3 SWAP2 SWAP1 DUP2 DUP2 MSTORE PUSH1 0x20 ADD DUP3 DUP1 SLOAD PUSH2 0x1C7C SWAP1 PUSH2 0x2E38 JUMP JUMPDEST DUP1 ISZERO PUSH2 0x1CC9 JUMPI DUP1 PUSH1 0x1F LT PUSH2 0x1C9E JUMPI PUSH2 0x100 DUP1 DUP4 SLOAD DIV MUL DUP4 MSTORE SWAP2 PUSH1 0x20 ADD SWAP2 PUSH2 0x1CC9 JUMP JUMPDEST DUP3 ADD SWAP2 SWAP1 PUSH1 0x0 MSTORE PUSH1 0x20 PUSH1 0x0 KECCAK256 SWAP1 JUMPDEST DUP2 SLOAD DUP2 MSTORE SWAP1 PUSH1 0x1 ADD SWAP1 PUSH1 0x20 ADD DUP1 DUP4 GT PUSH2 0x1CAC JUMPI DUP3 SWAP1 SUB PUSH1 0x1F AND DUP3 ADD SWAP2 JUMPDEST POP POP POP POP POP SWAP1 DUP1 PUSH1 0x3 ADD DUP1 SLOAD PUSH2 0x1CDE SWAP1 PUSH2 0x2E38 JUMP JUMPDEST DUP1 PUSH1 0x1F ADD PUSH1 0x20 DUP1 SWAP2 DIV MUL PUSH1 0x20 ADD PUSH1 0x40 MLOAD SWAP1 DUP2 ADD PUSH1 0x40 MSTORE DUP1 SWAP3 SWAP2 SWAP1 DUP2 DUP2 MSTORE PUSH1 0x20 ADD DUP3 DUP1 SLOAD PUSH2 0x1D0A SWAP1 PUSH2 0x2E38 JUMP JUMPDEST DUP1 ISZERO PUSH2 0x1D57 JUMPI DUP1 PUSH1 0x1F LT PUSH2 0x1D2C JUMPI PUSH2 0x100 DUP1 DUP4 SLOAD DIV MUL DUP4 MSTORE SWAP2 PUSH1 0x20 ADD SWAP2 PUSH2 0x1D57 JUMP JUMPDEST DUP3 ADD SWAP2 SWAP1 PUSH1 0x0 MSTORE PUSH1 0x20 PUSH1 0x0 KECCAK256 SWAP1 JUMPDEST DUP2 SLOAD DUP2 MSTORE SWAP1 PUSH1 0x1 ADD SWAP1 PUSH1 0x20 ADD DUP1 DUP4 GT PUSH2 0x1D3A JUMPI DUP3 SWAP1 SUB PUSH1 0x1F AND DUP3 ADD SWAP2 JUMPDEST POP POP POP POP POP SWAP1 DUP1 PUSH1 0x4 ADD DUP1 SLOAD PUSH2 0x1D6C SWAP1 PUSH2 0x2E38 JUMP JUMPDEST DUP1 PUSH1 0x1F ADD PUSH1 0x20 DUP1 SWAP2 DIV MUL PUSH1 0x20 ADD PUSH1 0x40 MLOAD SWAP1 DUP2 ADD PUSH1 0x40 MSTORE DUP1 SWAP3 SWAP2 SWAP1 DUP2 DUP2 MSTORE PUSH1 0x20 ADD DUP3 DUP1 SLOAD PUSH2 0x1D98 SWAP1 PUSH2 0x2E38 JUMP JUMPDEST DUP1 ISZERO PUSH2 0x1DE5 JUMPI DUP1 PUSH1 0x1F LT PUSH2 0x1DBA JUMPI PUSH2 0x100 DUP1 DUP4 SLOAD DIV MUL DUP4 MSTORE SWAP2 PUSH1 0x20 ADD SWAP2 PUSH2 0x1DE5 JUMP JUMPDEST DUP3 ADD SWAP2 SWAP1 PUSH1 0x0 MSTORE PUSH1 0x20 PUSH1 0x0 KECCAK256 SWAP1 JUMPDEST DUP2 SLOAD DUP2 MSTORE SWAP1 PUSH1 0x1 ADD SWAP1 PUSH1 0x20 ADD DUP1 DUP4 GT PUSH2 0x1DC8 JUMPI DUP3 SWAP1 SUB PUSH1 0x1F AND DUP3 ADD SWAP2 JUMPDEST POP POP POP POP POP SWAP1 DUP1 PUSH1 0x5 ADD SLOAD SWAP1 DUP1 PUSH1 0x6 ADD SLOAD SWAP1 DUP1 PUSH1 0x7 ADD DUP1 SLOAD PUSH2 0x1E06 SWAP1 PUSH2 0x2E38 JUMP JUMPDEST DUP1 PUSH1 0x1F ADD PUSH1 0x20 DUP1 SWAP2 DIV MUL PUSH1 0x20 ADD PUSH1 0x40 MLOAD SWAP1 DUP2 ADD PUSH1 0x40 MSTORE DUP1 SWAP3 SWAP2 SWAP1 DUP2 DUP2 MSTORE PUSH1 0x20 ADD DUP3 DUP1 SLOAD PUSH2 0x1E32 SWAP1 PUSH2 0x2E38 JUMP JUMPDEST DUP1 ISZERO PUSH2 0x1E7F JUMPI DUP1 PUSH1 0x1F LT PUSH2 0x1E54 JUMPI PUSH2 0x100 DUP1 DUP4 SLOAD DIV MUL DUP4 MSTORE SWAP2 PUSH1 0x20 ADD SWAP2 PUSH2 0x1E7F JUMP JUMPDEST DUP3 ADD SWAP2 SWAP1 PUSH1 0x0 MSTORE PUSH1 0x20 PUSH1 0x0 KECCAK256 SWAP1 JUMPDEST DUP2 SLOAD DUP2 MSTORE SWAP1 PUSH1 0x1 ADD SWAP1 PUSH1 0x20 ADD DUP1 DUP4 GT PUSH2 0x1E62 JUMPI DUP3 SWAP1 SUB PUSH1 0x1F AND DUP3 ADD SWAP2 JUMPDEST POP POP POP POP POP SWAP1 POP DUP9 JUMP JUMPDEST PUSH2 0x1E91 PUSH2 0x2254 JUMP JUMPDEST PUSH1 0x0 PUSH1 0x8 DUP4 PUSH1 0x40 MLOAD PUSH2 0x1EA3 SWAP2 SWAP1 PUSH2 0x2EA5 JUMP JUMPDEST SWAP1 DUP2 MSTORE PUSH1 0x20 ADD PUSH1 0x40 MLOAD DUP1 SWAP2 SUB SWAP1 KECCAK256 DUP1 SLOAD PUSH2 0x1EBC SWAP1 PUSH2 0x2E38 JUMP JUMPDEST DUP1 PUSH1 0x1F ADD PUSH1 0x20 DUP1 SWAP2 DIV MUL PUSH1 0x20 ADD PUSH1 0x40 MLOAD SWAP1 DUP2 ADD PUSH1 0x40 MSTORE DUP1 SWAP3 SWAP2 SWAP1 DUP2 DUP2 MSTORE PUSH1 0x20 ADD DUP3 DUP1 SLOAD PUSH2 0x1EE8 SWAP1 PUSH2 0x2E38 JUMP JUMPDEST DUP1 ISZERO PUSH2 0x1F35 JUMPI DUP1 PUSH1 0x1F LT PUSH2 0x1F0A JUMPI PUSH2 0x100 DUP1 DUP4 SLOAD DIV MUL DUP4 MSTORE SWAP2 PUSH1 0x20 ADD SWAP2 PUSH2 0x1F35 JUMP JUMPDEST DUP3 ADD SWAP2 SWAP1 PUSH1 0x0 MSTORE PUSH1 0x20 PUSH1 0x0 KECCAK256 SWAP1 JUMPDEST DUP2 SLOAD DUP2 MSTORE SWAP1 PUSH1 0x1 ADD SWAP1 PUSH1 0x20 ADD DUP1 DUP4 GT PUSH2 0x1F18 JUMPI DUP3 SWAP1 SUB PUSH1 0x1F AND DUP3 ADD SWAP2 JUMPDEST POP POP POP POP POP SWAP1 POP PUSH1 0x4 DUP2 PUSH1 0x40 MLOAD PUSH2 0x1F4C SWAP2 SWAP1 PUSH2 0x2EA5 JUMP JUMPDEST SWAP1 DUP2 MSTORE PUSH1 0x20 ADD PUSH1 0x40 MLOAD DUP1 SWAP2 SUB SWAP1 KECCAK256 PUSH1 0x40 MLOAD DUP1 PUSH1 0xA0 ADD PUSH1 0x40 MSTORE SWAP1 DUP2 PUSH1 0x0 DUP3 ADD DUP1 SLOAD PUSH2 0x1F75 SWAP1 PUSH2 0x2E38 JUMP JUMPDEST DUP1 PUSH1 0x1F ADD PUSH1 0x20 DUP1 SWAP2 DIV MUL PUSH1 0x20 ADD PUSH1 0x40 MLOAD SWAP1 DUP2 ADD PUSH1 0x40 MSTORE DUP1 SWAP3 SWAP2 SWAP1 DUP2 DUP2 MSTORE PUSH1 0x20 ADD DUP3 DUP1 SLOAD PUSH2 0x1FA1 SWAP1 PUSH2 0x2E38 JUMP JUMPDEST DUP1 ISZERO PUSH2 0x1FEE JUMPI DUP1 PUSH1 0x1F LT PUSH2 0x1FC3 JUMPI PUSH2 0x100 DUP1 DUP4 SLOAD DIV MUL DUP4 MSTORE SWAP2 PUSH1 0x20 ADD SWAP2 PUSH2 0x1FEE JUMP JUMPDEST DUP3 ADD SWAP2 SWAP1 PUSH1 0x0 MSTORE PUSH1 0x20 PUSH1 0x0 KECCAK256 SWAP1 JUMPDEST DUP2 SLOAD DUP2 MSTORE SWAP1 PUSH1 0x1 ADD SWAP1 PUSH1 0x20 ADD DUP1 DUP4 GT PUSH2 0x1FD1 JUMPI DUP3 SWAP1 SUB PUSH1 0x1F AND DUP3 ADD SWAP2 JUMPDEST POP POP POP POP POP DUP2 MSTORE PUSH1 0x20 ADD PUSH1 0x1 DUP3 ADD DUP1 SLOAD PUSH2 0x2007 SWAP1 PUSH2 0x2E38 JUMP JUMPDEST DUP1 PUSH1 0x1F ADD PUSH1 0x20 DUP1 SWAP2 DIV MUL PUSH1 0x20 ADD PUSH1 0x40 MLOAD SWAP1 DUP2 ADD PUSH1 0x40 MSTORE DUP1 SWAP3 SWAP2 SWAP1 DUP2 DUP2 MSTORE PUSH1 0x20 ADD DUP3 DUP1 SLOAD PUSH2 0x2033 SWAP1 PUSH2 0x2E38 JUMP JUMPDEST DUP1 ISZERO PUSH2 0x2080 JUMPI DUP1 PUSH1 0x1F LT PUSH2 0x2055 JUMPI PUSH2 0x100 DUP1 DUP4 SLOAD DIV MUL DUP4 MSTORE SWAP2 PUSH1 0x20 ADD SWAP2 PUSH2 0x2080 JUMP JUMPDEST DUP3 ADD SWAP2 SWAP1 PUSH1 0x0 MSTORE PUSH1 0x20 PUSH1 0x0 KECCAK256 SWAP1 JUMPDEST DUP2 SLOAD DUP2 MSTORE SWAP1 PUSH1 0x1 ADD SWAP1 PUSH1 0x20 ADD DUP1 DUP4 GT PUSH2 0x2063 JUMPI DUP3 SWAP1 SUB PUSH1 0x1F AND DUP3 ADD SWAP2 JUMPDEST POP POP POP POP POP DUP2 MSTORE PUSH1 0x20 ADD PUSH1 0x2 DUP3 ADD DUP1 SLOAD PUSH2 0x2099 SWAP1 PUSH2 0x2E38 JUMP JUMPDEST DUP1 PUSH1 0x1F ADD PUSH1 0x20 DUP1 SWAP2 DIV MUL PUSH1 0x20 ADD PUSH1 0x40 MLOAD SWAP1 DUP2 ADD PUSH1 0x40 MSTORE DUP1 SWAP3 SWAP2 SWAP1 DUP2 DUP2 MSTORE PUSH1 0x20 ADD DUP3 DUP1 SLOAD PUSH2 0x20C5 SWAP1 PUSH2 0x2E38 JUMP JUMPDEST DUP1 ISZERO PUSH2 0x2112 JUMPI DUP1 PUSH1 0x1F LT PUSH2 0x20E7 JUMPI PUSH2 0x100 DUP1 DUP4 SLOAD DIV MUL DUP4 MSTORE SWAP2 PUSH1 0x20 ADD SWAP2 PUSH2 0x2112 JUMP JUMPDEST DUP3 ADD SWAP2 SWAP1 PUSH1 0x0 MSTORE PUSH1 0x20 PUSH1 0x0 KECCAK256 SWAP1 JUMPDEST DUP2 SLOAD DUP2 MSTORE SWAP1 PUSH1 0x1 ADD SWAP1 PUSH1 0x20 ADD DUP1 DUP4 GT PUSH2 0x20F5 JUMPI DUP3 SWAP1 SUB PUSH1 0x1F AND DUP3 ADD SWAP2 JUMPDEST POP POP POP POP POP DUP2 MSTORE PUSH1 0x20 ADD PUSH1 0x3 DUP3 ADD DUP1 SLOAD DUP1 PUSH1 0x20 MUL PUSH1 0x20 ADD PUSH1 0x40 MLOAD SWAP1 DUP2 ADD PUSH1 0x40 MSTORE DUP1 SWAP3 SWAP2 SWAP1 DUP2 DUP2 MSTORE PUSH1 0x20 ADD PUSH1 0x0 SWAP1 JUMPDEST DUP3 DUP3 LT ISZERO PUSH2 0x21EC JUMPI DUP4 DUP3 SWAP1 PUSH1 0x0 MSTORE PUSH1 0x20 PUSH1 0x0 KECCAK256 ADD DUP1 SLOAD PUSH2 0x215F SWAP1 PUSH2 0x2E38 JUMP JUMPDEST DUP1 PUSH1 0x1F ADD PUSH1 0x20 DUP1 SWAP2 DIV MUL PUSH1 0x20 ADD PUSH1 0x40 MLOAD SWAP1 DUP2 ADD PUSH1 0x40 MSTORE DUP1 SWAP3 SWAP2 SWAP1 DUP2 DUP2 MSTORE PUSH1 0x20 ADD DUP3 DUP1 SLOAD PUSH2 0x218B SWAP1 PUSH2 0x2E38 JUMP JUMPDEST DUP1 ISZERO PUSH2 0x21D8 JUMPI DUP1 PUSH1 0x1F LT PUSH2 0x21AD JUMPI PUSH2 0x100 DUP1 DUP4 SLOAD DIV MUL DUP4 MSTORE SWAP2 PUSH1 0x20 ADD SWAP2 PUSH2 0x21D8 JUMP JUMPDEST DUP3 ADD SWAP2 SWAP1 PUSH1 0x0 MSTORE PUSH1 0x20 PUSH1 0x0 KECCAK256 SWAP1 JUMPDEST DUP2 SLOAD DUP2 MSTORE SWAP1 PUSH1 0x1 ADD SWAP1 PUSH1 0x20 ADD DUP1 DUP4 GT PUSH2 0x21BB JUMPI DUP3 SWAP1 SUB PUSH1 0x1F AND DUP3 ADD SWAP2 JUMPDEST POP POP POP POP POP DUP2 MSTORE PUSH1 0x20 ADD SWAP1 PUSH1 0x1 ADD SWAP1 PUSH2 0x2140 JUMP JUMPDEST POP POP POP POP DUP2 MSTORE PUSH1 0x20 ADD PUSH1 0x4 DUP3 ADD DUP1 SLOAD DUP1 PUSH1 0x20 MUL PUSH1 0x20 ADD PUSH1 0x40 MLOAD SWAP1 DUP2 ADD PUSH1 0x40 MSTORE DUP1 SWAP3 SWAP2 SWAP1 DUP2 DUP2 MSTORE PUSH1 0x20 ADD DUP3 DUP1 SLOAD DUP1 ISZERO PUSH2 0x2243 JUMPI PUSH1 0x20 MUL DUP3 ADD SWAP2 SWAP1 PUSH1 0x0 MSTORE PUSH1 0x20 PUSH1 0x0 KECCAK256 SWAP1 JUMPDEST DUP2 SLOAD DUP2 MSTORE PUSH1 0x20 ADD SWAP1 PUSH1 0x1 ADD SWAP1 DUP1 DUP4 GT PUSH2 0x222F JUMPI JUMPDEST POP POP POP POP POP DUP2 MSTORE POP POP SWAP2 POP POP SWAP2 SWAP1 POP JUMP JUMPDEST PUSH1 0x40 MLOAD DUP1 PUSH1 0xA0 ADD PUSH1 0x40 MSTORE DUP1 PUSH1 0x60 DUP2 MSTORE PUSH1 0x20 ADD PUSH1 0x60 DUP2 MSTORE PUSH1 0x20 ADD PUSH1 0x60 DUP2 MSTORE PUSH1 0x20 ADD PUSH1 0x60 DUP2 MSTORE PUSH1 0x20 ADD PUSH1 0x60 DUP2 MSTORE POP SWAP1 JUMP JUMPDEST DUP3 DUP1 SLOAD DUP3 DUP3 SSTORE SWAP1 PUSH1 0x0 MSTORE PUSH1 0x20 PUSH1 0x0 KECCAK256 SWAP1 DUP2 ADD SWAP3 DUP3 ISZERO PUSH2 0x22CB JUMPI SWAP2 PUSH1 0x20 MUL DUP3 ADD JUMPDEST DUP3 DUP2 GT ISZERO PUSH2 0x22CA JUMPI DUP3 MLOAD DUP3 SWAP1 DUP2 PUSH2 0x22BA SWAP2 SWAP1 PUSH2 0x3068 JUMP JUMPDEST POP SWAP2 PUSH1 0x20 ADD SWAP2 SWAP1 PUSH1 0x1 ADD SWAP1 PUSH2 0x22A3 JUMP JUMPDEST JUMPDEST POP SWAP1 POP PUSH2 0x22D8 SWAP2 SWAP1 PUSH2 0x2329 JUMP JUMPDEST POP SWAP1 JUMP JUMPDEST DUP3 DUP1 SLOAD DUP3 DUP3 SSTORE SWAP1 PUSH1 0x0 MSTORE PUSH1 0x20 PUSH1 0x0 KECCAK256 SWAP1 DUP2 ADD SWAP3 DUP3 ISZERO PUSH2 0x2318 JUMPI SWAP2 PUSH1 0x20 MUL DUP3 ADD JUMPDEST DUP3 DUP2 GT ISZERO PUSH2 0x2317 JUMPI DUP3 MLOAD DUP3 SSTORE SWAP2 PUSH1 0x20 ADD SWAP2 SWAP1 PUSH1 0x1 ADD SWAP1 PUSH2 0x22FC JUMP JUMPDEST JUMPDEST POP SWAP1 POP PUSH2 0x2325 SWAP2 SWAP1 PUSH2 0x234D JUMP JUMPDEST POP SWAP1 JUMP JUMPDEST JUMPDEST DUP1 DUP3 GT ISZERO PUSH2 0x2349 JUMPI PUSH1 0x0 DUP2 DUP2 PUSH2 0x2340 SWAP2 SWAP1 PUSH2 0x236A JUMP JUMPDEST POP PUSH1 0x1 ADD PUSH2 0x232A JUMP JUMPDEST POP SWAP1 JUMP JUMPDEST JUMPDEST DUP1 DUP3 GT ISZERO PUSH2 0x2366 JUMPI PUSH1 0x0 DUP2 PUSH1 0x0 SWAP1 SSTORE POP PUSH1 0x1 ADD PUSH2 0x234E JUMP JUMPDEST POP SWAP1 JUMP JUMPDEST POP DUP1 SLOAD PUSH2 0x2376 SWAP1 PUSH2 0x2E38 JUMP JUMPDEST PUSH1 0x0 DUP3 SSTORE DUP1 PUSH1 0x1F LT PUSH2 0x2388 JUMPI POP PUSH2 0x23A7 JUMP JUMPDEST PUSH1 0x1F ADD PUSH1 0x20 SWAP1 DIV SWAP1 PUSH1 0x0 MSTORE PUSH1 0x20 PUSH1 0x0 KECCAK256 SWAP1 DUP2 ADD SWAP1 PUSH2 0x23A6 SWAP2 SWAP1 PUSH2 0x234D JUMP JUMPDEST JUMPDEST POP JUMP JUMPDEST PUSH1 0x0 PUSH1 0x40 MLOAD SWAP1 POP SWAP1 JUMP JUMPDEST PUSH1 0x0 DUP1 REVERT JUMPDEST PUSH1 0x0 DUP1 REVERT JUMPDEST PUSH1 0x0 DUP1 REVERT JUMPDEST PUSH1 0x0 DUP1 REVERT JUMPDEST PUSH1 0x0 PUSH1 0x1F NOT PUSH1 0x1F DUP4 ADD AND SWAP1 POP SWAP2 SWAP1 POP JUMP JUMPDEST PUSH32 0x4E487B7100000000000000000000000000000000000000000000000000000000 PUSH1 0x0 MSTORE PUSH1 0x41 PUSH1 0x4 MSTORE PUSH1 0x24 PUSH1 0x0 REVERT JUMPDEST PUSH2 0x2411 DUP3 PUSH2 0x23C8 JUMP JUMPDEST DUP2 ADD DUP2 DUP2 LT PUSH8 0xFFFFFFFFFFFFFFFF DUP3 GT OR ISZERO PUSH2 0x2430 JUMPI PUSH2 0x242F PUSH2 0x23D9 JUMP JUMPDEST JUMPDEST DUP1 PUSH1 0x40 MSTORE POP POP POP JUMP JUMPDEST PUSH1 0x0 PUSH2 0x2443 PUSH2 0x23AA JUMP JUMPDEST SWAP1 POP PUSH2 0x244F DUP3 DUP3 PUSH2 0x2408 JUMP JUMPDEST SWAP2 SWAP1 POP JUMP JUMPDEST PUSH1 0x0 PUSH8 0xFFFFFFFFFFFFFFFF DUP3 GT ISZERO PUSH2 0x246F JUMPI PUSH2 0x246E PUSH2 0x23D9 JUMP JUMPDEST JUMPDEST PUSH2 0x2478 DUP3 PUSH2 0x23C8 JUMP JUMPDEST SWAP1 POP PUSH1 0x20 DUP2 ADD SWAP1 POP SWAP2 SWAP1 POP JUMP JUMPDEST DUP3 DUP2 DUP4 CALLDATACOPY PUSH1 0x0 DUP4 DUP4 ADD MSTORE POP POP POP JUMP JUMPDEST PUSH1 0x0 PUSH2 0x24A7 PUSH2 0x24A2 DUP5 PUSH2 0x2454 JUMP JUMPDEST PUSH2 0x2439 JUMP JUMPDEST SWAP1 POP DUP3 DUP2 MSTORE PUSH1 0x20 DUP2 ADD DUP5 DUP5 DUP5 ADD GT ISZERO PUSH2 0x24C3 JUMPI PUSH2 0x24C2 PUSH2 0x23C3 JUMP JUMPDEST JUMPDEST PUSH2 0x24CE DUP5 DUP3 DUP6 PUSH2 0x2485 JUMP JUMPDEST POP SWAP4 SWAP3 POP POP POP JUMP JUMPDEST PUSH1 0x0 DUP3 PUSH1 0x1F DUP4 ADD SLT PUSH2 0x24EB JUMPI PUSH2 0x24EA PUSH2 0x23BE JUMP JUMPDEST JUMPDEST DUP2 CALLDATALOAD PUSH2 0x24FB DUP5 DUP3 PUSH1 0x20 DUP7 ADD PUSH2 0x2494 JUMP JUMPDEST SWAP2 POP POP SWAP3 SWAP2 POP POP JUMP JUMPDEST PUSH1 0x0 PUSH1 0x20 DUP3 DUP5 SUB SLT ISZERO PUSH2 0x251A JUMPI PUSH2 0x2519 PUSH2 0x23B4 JUMP JUMPDEST JUMPDEST PUSH1 0x0 DUP3 ADD CALLDATALOAD PUSH8 0xFFFFFFFFFFFFFFFF DUP2 GT ISZERO PUSH2 0x2538 JUMPI PUSH2 0x2537 PUSH2 0x23B9 JUMP JUMPDEST JUMPDEST PUSH2 0x2544 DUP5 DUP3 DUP6 ADD PUSH2 0x24D6 JUMP JUMPDEST SWAP2 POP POP SWAP3 SWAP2 POP POP JUMP JUMPDEST PUSH1 0x0 DUP2 MLOAD SWAP1 POP SWAP2 SWAP1 POP JUMP JUMPDEST PUSH1 0x0 DUP3 DUP3 MSTORE PUSH1 0x20 DUP3 ADD SWAP1 POP SWAP3 SWAP2 POP POP JUMP JUMPDEST PUSH1 0x0 JUMPDEST DUP4 DUP2 LT ISZERO PUSH2 0x2587 JUMPI DUP1 DUP3 ADD MLOAD DUP2 DUP5 ADD MSTORE PUSH1 0x20 DUP2 ADD SWAP1 POP PUSH2 0x256C JUMP JUMPDEST PUSH1 0x0 DUP5 DUP5 ADD MSTORE POP POP POP POP JUMP JUMPDEST PUSH1 0x0 PUSH2 0x259E DUP3 PUSH2 0x254D JUMP JUMPDEST PUSH2 0x25A8 DUP2 DUP6 PUSH2 0x2558 JUMP JUMPDEST SWAP4 POP PUSH2 0x25B8 DUP2 DUP6 PUSH1 0x20 DUP7 ADD PUSH2 0x2569 JUMP JUMPDEST PUSH2 0x25C1 DUP2 PUSH2 0x23C8 JUMP JUMPDEST DUP5 ADD SWAP2 POP POP SWAP3 SWAP2 POP POP JUMP JUMPDEST PUSH1 0x0 PUSH1 0x60 DUP3 ADD SWAP1 POP DUP2 DUP2 SUB PUSH1 0x0 DUP4 ADD MSTORE PUSH2 0x25E6 DUP2 DUP7 PUSH2 0x2593 JUMP JUMPDEST SWAP1 POP DUP2 DUP2 SUB PUSH1 0x20 DUP4 ADD MSTORE PUSH2 0x25FA DUP2 DUP6 PUSH2 0x2593 JUMP JUMPDEST SWAP1 POP DUP2 DUP2 SUB PUSH1 0x40 DUP4 ADD MSTORE PUSH2 0x260E DUP2 DUP5 PUSH2 0x2593 JUMP JUMPDEST SWAP1 POP SWAP5 SWAP4 POP POP POP POP JUMP JUMPDEST PUSH1 0x0 DUP1 PUSH1 0x40 DUP4 DUP6 SUB SLT ISZERO PUSH2 0x262F JUMPI PUSH2 0x262E PUSH2 0x23B4 JUMP JUMPDEST JUMPDEST PUSH1 0x0 DUP4 ADD CALLDATALOAD PUSH8 0xFFFFFFFFFFFFFFFF DUP2 GT ISZERO PUSH2 0x264D JUMPI PUSH2 0x264C PUSH2 0x23B9 JUMP JUMPDEST JUMPDEST PUSH2 0x2659 DUP6 DUP3 DUP7 ADD PUSH2 0x24D6 JUMP JUMPDEST SWAP3 POP POP PUSH1 0x20 DUP4 ADD CALLDATALOAD PUSH8 0xFFFFFFFFFFFFFFFF DUP2 GT ISZERO PUSH2 0x267A JUMPI PUSH2 0x2679 PUSH2 0x23B9 JUMP JUMPDEST JUMPDEST PUSH2 0x2686 DUP6 DUP3 DUP7 ADD PUSH2 0x24D6 JUMP JUMPDEST SWAP2 POP POP SWAP3 POP SWAP3 SWAP1 POP JUMP JUMPDEST PUSH1 0x0 DUP3 DUP3 MSTORE PUSH1 0x20 DUP3 ADD SWAP1 POP SWAP3 SWAP2 POP POP JUMP JUMPDEST PUSH1 0x0 PUSH2 0x26AC DUP3 PUSH2 0x254D JUMP JUMPDEST PUSH2 0x26B6 DUP2 DUP6 PUSH2 0x2690 JUMP JUMPDEST SWAP4 POP PUSH2 0x26C6 DUP2 DUP6 PUSH1 0x20 DUP7 ADD PUSH2 0x2569 JUMP JUMPDEST PUSH2 0x26CF DUP2 PUSH2 0x23C8 JUMP JUMPDEST DUP5 ADD SWAP2 POP POP SWAP3 SWAP2 POP POP JUMP JUMPDEST PUSH1 0x0 DUP2 MLOAD SWAP1 POP SWAP2 SWAP1 POP JUMP JUMPDEST PUSH1 0x0 DUP3 DUP3 MSTORE PUSH1 0x20 DUP3 ADD SWAP1 POP SWAP3 SWAP2 POP POP JUMP JUMPDEST PUSH1 0x0 DUP2 SWAP1 POP PUSH1 0x20 DUP3 ADD SWAP1 POP SWAP2 SWAP1 POP JUMP JUMPDEST PUSH1 0x0 PUSH2 0x2712 DUP4 DUP4 PUSH2 0x26A1 JUMP JUMPDEST SWAP1 POP SWAP3 SWAP2 POP POP JUMP JUMPDEST PUSH1 0x0 PUSH1 0x20 DUP3 ADD SWAP1 POP SWAP2 SWAP1 POP JUMP JUMPDEST PUSH1 0x0 PUSH2 0x2732 DUP3 PUSH2 0x26DA JUMP JUMPDEST PUSH2 0x273C DUP2 DUP6 PUSH2 0x26E5 JUMP JUMPDEST SWAP4 POP DUP4 PUSH1 0x20 DUP3 MUL DUP6 ADD PUSH2 0x274E DUP6 PUSH2 0x26F6 JUMP JUMPDEST DUP1 PUSH1 0x0 JUMPDEST DUP6 DUP2 LT ISZERO PUSH2 0x278A JUMPI DUP5 DUP5 SUB DUP10 MSTORE DUP2 MLOAD PUSH2 0x276B DUP6 DUP3 PUSH2 0x2706 JUMP JUMPDEST SWAP5 POP PUSH2 0x2776 DUP4 PUSH2 0x271A JUMP JUMPDEST SWAP3 POP PUSH1 0x20 DUP11 ADD SWAP10 POP POP PUSH1 0x1 DUP2 ADD SWAP1 POP PUSH2 0x2752 JUMP JUMPDEST POP DUP3 SWAP8 POP DUP8 SWAP6 POP POP POP POP POP POP SWAP3 SWAP2 POP POP JUMP JUMPDEST PUSH1 0x0 DUP2 MLOAD SWAP1 POP SWAP2 SWAP1 POP JUMP JUMPDEST PUSH1 0x0 DUP3 DUP3 MSTORE PUSH1 0x20 DUP3 ADD SWAP1 POP SWAP3 SWAP2 POP POP JUMP JUMPDEST PUSH1 0x0 DUP2 SWAP1 POP PUSH1 0x20 DUP3 ADD SWAP1 POP SWAP2 SWAP1 POP JUMP JUMPDEST PUSH1 0x0 DUP2 SWAP1 POP SWAP2 SWAP1 POP JUMP JUMPDEST PUSH2 0x27DB DUP2 PUSH2 0x27C8 JUMP JUMPDEST DUP3 MSTORE POP POP JUMP JUMPDEST PUSH1 0x0 PUSH2 0x27ED DUP4 DUP4 PUSH2 0x27D2 JUMP JUMPDEST PUSH1 0x20 DUP4 ADD SWAP1 POP SWAP3 SWAP2 POP POP JUMP JUMPDEST PUSH1 0x0 PUSH1 0x20 DUP3 ADD SWAP1 POP SWAP2 SWAP1 POP JUMP JUMPDEST PUSH1 0x0 PUSH2 0x2811 DUP3 PUSH2 0x279C JUMP JUMPDEST PUSH2 0x281B DUP2 DUP6 PUSH2 0x27A7 JUMP JUMPDEST SWAP4 POP PUSH2 0x2826 DUP4 PUSH2 0x27B8 JUMP JUMPDEST DUP1 PUSH1 0x0 JUMPDEST DUP4 DUP2 LT ISZERO PUSH2 0x2857 JUMPI DUP2 MLOAD PUSH2 0x283E DUP9 DUP3 PUSH2 0x27E1 JUMP JUMPDEST SWAP8 POP PUSH2 0x2849 DUP4 PUSH2 0x27F9 JUMP JUMPDEST SWAP3 POP POP PUSH1 0x1 DUP2 ADD SWAP1 POP PUSH2 0x282A JUMP JUMPDEST POP DUP6 SWAP4 POP POP POP POP SWAP3 SWAP2 POP POP JUMP JUMPDEST PUSH1 0x0 PUSH1 0xA0 DUP4 ADD PUSH1 0x0 DUP4 ADD MLOAD DUP5 DUP3 SUB PUSH1 0x0 DUP7 ADD MSTORE PUSH2 0x2881 DUP3 DUP3 PUSH2 0x26A1 JUMP JUMPDEST SWAP2 POP POP PUSH1 0x20 DUP4 ADD MLOAD DUP5 DUP3 SUB PUSH1 0x20 DUP7 ADD MSTORE PUSH2 0x289B DUP3 DUP3 PUSH2 0x26A1 JUMP JUMPDEST SWAP2 POP POP PUSH1 0x40 DUP4 ADD MLOAD DUP5 DUP3 SUB PUSH1 0x40 DUP7 ADD MSTORE PUSH2 0x28B5 DUP3 DUP3 PUSH2 0x26A1 JUMP JUMPDEST SWAP2 POP POP PUSH1 0x60 DUP4 ADD MLOAD DUP5 DUP3 SUB PUSH1 0x60 DUP7 ADD MSTORE PUSH2 0x28CF DUP3 DUP3 PUSH2 0x2727 JUMP JUMPDEST SWAP2 POP POP PUSH1 0x80 DUP4 ADD MLOAD DUP5 DUP3 SUB PUSH1 0x80 DUP7 ADD MSTORE PUSH2 0x28E9 DUP3 DUP3 PUSH2 0x2806 JUMP JUMPDEST SWAP2 POP POP DUP1 SWAP2 POP POP SWAP3 SWAP2 POP POP JUMP JUMPDEST PUSH1 0x0 PUSH1 0x20 DUP3 ADD SWAP1 POP DUP2 DUP2 SUB PUSH1 0x0 DUP4 ADD MSTORE PUSH2 0x2910 DUP2 DUP5 PUSH2 0x2864 JUMP JUMPDEST SWAP1 POP SWAP3 SWAP2 POP POP JUMP JUMPDEST PUSH1 0x0 PUSH8 0xFFFFFFFFFFFFFFFF DUP3 GT ISZERO PUSH2 0x2933 JUMPI PUSH2 0x2932 PUSH2 0x23D9 JUMP JUMPDEST JUMPDEST PUSH1 0x20 DUP3 MUL SWAP1 POP PUSH1 0x20 DUP2 ADD SWAP1 POP SWAP2 SWAP1 POP JUMP JUMPDEST PUSH1 0x0 DUP1 REVERT JUMPDEST PUSH1 0x0 PUSH2 0x295C PUSH2 0x2957 DUP5 PUSH2 0x2918 JUMP JUMPDEST PUSH2 0x2439 JUMP JUMPDEST SWAP1 POP DUP1 DUP4 DUP3 MSTORE PUSH1 0x20 DUP3 ADD SWAP1 POP PUSH1 0x20 DUP5 MUL DUP4 ADD DUP6 DUP2 GT ISZERO PUSH2 0x297F JUMPI PUSH2 0x297E PUSH2 0x2944 JUMP JUMPDEST JUMPDEST DUP4 JUMPDEST DUP2 DUP2 LT ISZERO PUSH2 0x29C6 JUMPI DUP1 CALLDATALOAD PUSH8 0xFFFFFFFFFFFFFFFF DUP2 GT ISZERO PUSH2 0x29A4 JUMPI PUSH2 0x29A3 PUSH2 0x23BE JUMP JUMPDEST JUMPDEST DUP1 DUP7 ADD PUSH2 0x29B1 DUP10 DUP3 PUSH2 0x24D6 JUMP JUMPDEST DUP6 MSTORE PUSH1 0x20 DUP6 ADD SWAP5 POP POP POP PUSH1 0x20 DUP2 ADD SWAP1 POP PUSH2 0x2981 JUMP JUMPDEST POP POP POP SWAP4 SWAP3 POP POP POP JUMP JUMPDEST PUSH1 0x0 DUP3 PUSH1 0x1F DUP4 ADD SLT PUSH2 0x29E5 JUMPI PUSH2 0x29E4 PUSH2 0x23BE JUMP JUMPDEST JUMPDEST DUP2 CALLDATALOAD PUSH2 0x29F5 DUP5 DUP3 PUSH1 0x20 DUP7 ADD PUSH2 0x2949 JUMP JUMPDEST SWAP2 POP POP SWAP3 SWAP2 POP POP JUMP JUMPDEST PUSH1 0x0 DUP1 PUSH1 0x40 DUP4 DUP6 SUB SLT ISZERO PUSH2 0x2A15 JUMPI PUSH2 0x2A14 PUSH2 0x23B4 JUMP JUMPDEST JUMPDEST PUSH1 0x0 DUP4 ADD CALLDATALOAD PUSH8 0xFFFFFFFFFFFFFFFF DUP2 GT ISZERO PUSH2 0x2A33 JUMPI PUSH2 0x2A32 PUSH2 0x23B9 JUMP JUMPDEST JUMPDEST PUSH2 0x2A3F DUP6 DUP3 DUP7 ADD PUSH2 0x24D6 JUMP JUMPDEST SWAP3 POP POP PUSH1 0x20 DUP4 ADD CALLDATALOAD PUSH8 0xFFFFFFFFFFFFFFFF DUP2 GT ISZERO PUSH2 0x2A60 JUMPI PUSH2 0x2A5F PUSH2 0x23B9 JUMP JUMPDEST JUMPDEST PUSH2 0x2A6C DUP6 DUP3 DUP7 ADD PUSH2 0x29D0 JUMP JUMPDEST SWAP2 POP POP SWAP3 POP SWAP3 SWAP1 POP JUMP JUMPDEST PUSH1 0x0 DUP1 PUSH1 0x40 DUP4 DUP6 SUB SLT ISZERO PUSH2 0x2A8D JUMPI PUSH2 0x2A8C PUSH2 0x23B4 JUMP JUMPDEST JUMPDEST PUSH1 0x0 DUP4 ADD CALLDATALOAD PUSH8 0xFFFFFFFFFFFFFFFF DUP2 GT ISZERO PUSH2 0x2AAB JUMPI PUSH2 0x2AAA PUSH2 0x23B9 JUMP JUMPDEST JUMPDEST PUSH2 0x2AB7 DUP6 DUP3 DUP7 ADD PUSH2 0x29D0 JUMP JUMPDEST SWAP3 POP POP PUSH1 0x20 DUP4 ADD CALLDATALOAD PUSH8 0xFFFFFFFFFFFFFFFF DUP2 GT ISZERO PUSH2 0x2AD8 JUMPI PUSH2 0x2AD7 PUSH2 0x23B9 JUMP JUMPDEST JUMPDEST PUSH2 0x2AE4 DUP6 DUP3 DUP7 ADD PUSH2 0x24D6 JUMP JUMPDEST SWAP2 POP POP SWAP3 POP SWAP3 SWAP1 POP JUMP JUMPDEST PUSH2 0x2AF7 DUP2 PUSH2 0x27C8 JUMP JUMPDEST DUP3 MSTORE POP POP JUMP JUMPDEST PUSH1 0x0 PUSH1 0x20 DUP3 ADD SWAP1 POP PUSH2 0x2B12 PUSH1 0x0 DUP4 ADD DUP5 PUSH2 0x2AEE JUMP JUMPDEST SWAP3 SWAP2 POP POP JUMP JUMPDEST PUSH2 0x2B21 DUP2 PUSH2 0x27C8 JUMP JUMPDEST DUP2 EQ PUSH2 0x2B2C JUMPI PUSH1 0x0 DUP1 REVERT JUMPDEST POP JUMP JUMPDEST PUSH1 0x0 DUP2 CALLDATALOAD SWAP1 POP PUSH2 0x2B3E DUP2 PUSH2 0x2B18 JUMP JUMPDEST SWAP3 SWAP2 POP POP JUMP JUMPDEST PUSH1 0x0 DUP1 PUSH1 0x0 DUP1 PUSH1 0x0 DUP1 PUSH1 0x0 DUP1 PUSH2 0x100 DUP10 DUP12 SUB SLT ISZERO PUSH2 0x2B65 JUMPI PUSH2 0x2B64 PUSH2 0x23B4 JUMP JUMPDEST JUMPDEST PUSH1 0x0 DUP10 ADD CALLDATALOAD PUSH8 0xFFFFFFFFFFFFFFFF DUP2 GT ISZERO PUSH2 0x2B83 JUMPI PUSH2 0x2B82 PUSH2 0x23B9 JUMP JUMPDEST JUMPDEST PUSH2 0x2B8F DUP12 DUP3 DUP13 ADD PUSH2 0x24D6 JUMP JUMPDEST SWAP9 POP POP PUSH1 0x20 DUP10 ADD CALLDATALOAD PUSH8 0xFFFFFFFFFFFFFFFF DUP2 GT ISZERO PUSH2 0x2BB0 JUMPI PUSH2 0x2BAF PUSH2 0x23B9 JUMP JUMPDEST JUMPDEST PUSH2 0x2BBC DUP12 DUP3 DUP13 ADD PUSH2 0x24D6 JUMP JUMPDEST SWAP8 POP POP PUSH1 0x40 DUP10 ADD CALLDATALOAD PUSH8 0xFFFFFFFFFFFFFFFF DUP2 GT ISZERO PUSH2 0x2BDD JUMPI PUSH2 0x2BDC PUSH2 0x23B9 JUMP JUMPDEST JUMPDEST PUSH2 0x2BE9 DUP12 DUP3 DUP13 ADD PUSH2 0x24D6 JUMP JUMPDEST SWAP7 POP POP PUSH1 0x60 DUP10 ADD CALLDATALOAD PUSH8 0xFFFFFFFFFFFFFFFF DUP2 GT ISZERO PUSH2 0x2C0A JUMPI PUSH2 0x2C09 PUSH2 0x23B9 JUMP JUMPDEST JUMPDEST PUSH2 0x2C16 DUP12 DUP3 DUP13 ADD PUSH2 0x24D6 JUMP JUMPDEST SWAP6 POP POP PUSH1 0x80 DUP10 ADD CALLDATALOAD PUSH8 0xFFFFFFFFFFFFFFFF DUP2 GT ISZERO PUSH2 0x2C37 JUMPI PUSH2 0x2C36 PUSH2 0x23B9 JUMP JUMPDEST JUMPDEST PUSH2 0x2C43 DUP12 DUP3 DUP13 ADD PUSH2 0x24D6 JUMP JUMPDEST SWAP5 POP POP PUSH1 0xA0 PUSH2 0x2C54 DUP12 DUP3 DUP13 ADD PUSH2 0x2B2F JUMP JUMPDEST SWAP4 POP POP PUSH1 0xC0 PUSH2 0x2C65 DUP12 DUP3 DUP13 ADD PUSH2 0x2B2F JUMP JUMPDEST SWAP3 POP POP PUSH1 0xE0 DUP10 ADD CALLDATALOAD PUSH8 0xFFFFFFFFFFFFFFFF DUP2 GT ISZERO PUSH2 0x2C86 JUMPI PUSH2 0x2C85 PUSH2 0x23B9 JUMP JUMPDEST JUMPDEST PUSH2 0x2C92 DUP12 DUP3 DUP13 ADD PUSH2 0x24D6 JUMP JUMPDEST SWAP2 POP POP SWAP3 SWAP6 SWAP9 POP SWAP3 SWAP6 SWAP9 SWAP1 SWAP4 SWAP7 POP JUMP JUMPDEST PUSH1 0x0 PUSH20 0xFFFFFFFFFFFFFFFFFFFFFFFFFFFFFFFFFFFFFFFF DUP3 AND SWAP1 POP SWAP2 SWAP1 POP JUMP JUMPDEST PUSH1 0x0 PUSH2 0x2CCD DUP3 PUSH2 0x2CA2 JUMP JUMPDEST SWAP1 POP SWAP2 SWAP1 POP JUMP JUMPDEST PUSH2 0x2CDD DUP2 PUSH2 0x2CC2 JUMP JUMPDEST DUP3 MSTORE POP POP JUMP JUMPDEST PUSH1 0x0 PUSH1 0x20 DUP3 ADD SWAP1 POP PUSH2 0x2CF8 PUSH1 0x0 DUP4 ADD DUP5 PUSH2 0x2CD4 JUMP JUMPDEST SWAP3 SWAP2 POP POP JUMP JUMPDEST PUSH1 0x0 DUP2 ISZERO ISZERO SWAP1 POP SWAP2 SWAP1 POP JUMP JUMPDEST PUSH2 0x2D13 DUP2 PUSH2 0x2CFE JUMP JUMPDEST DUP3 MSTORE POP POP JUMP JUMPDEST PUSH1 0x0 PUSH1 0x20 DUP3 ADD SWAP1 POP PUSH2 0x2D2E PUSH1 0x0 DUP4 ADD DUP5 PUSH2 0x2D0A JUMP JUMPDEST SWAP3 SWAP2 POP POP JUMP JUMPDEST PUSH1 0x0 PUSH1 0x20 DUP3 DUP5 SUB SLT ISZERO PUSH2 0x2D4A JUMPI PUSH2 0x2D49 PUSH2 0x23B4 JUMP JUMPDEST JUMPDEST PUSH1 0x0 PUSH2 0x2D58 DUP5 DUP3 DUP6 ADD PUSH2 0x2B2F JUMP JUMPDEST SWAP2 POP POP SWAP3 SWAP2 POP POP JUMP JUMPDEST PUSH1 0x0 PUSH2 0x100 DUP3 ADD SWAP1 POP DUP2 DUP2 SUB PUSH1 0x0 DUP4 ADD MSTORE PUSH2 0x2D7C DUP2 DUP12 PUSH2 0x2593 JUMP JUMPDEST SWAP1 POP DUP2 DUP2 SUB PUSH1 0x20 DUP4 ADD MSTORE PUSH2 0x2D90 DUP2 DUP11 PUSH2 0x2593 JUMP JUMPDEST SWAP1 POP DUP2 DUP2 SUB PUSH1 0x40 DUP4 ADD MSTORE PUSH2 0x2DA4 DUP2 DUP10 PUSH2 0x2593 JUMP JUMPDEST SWAP1 POP DUP2 DUP2 SUB PUSH1 0x60 DUP4 ADD MSTORE PUSH2 0x2DB8 DUP2 DUP9 PUSH2 0x2593 JUMP JUMPDEST SWAP1 POP DUP2 DUP2 SUB PUSH1 0x80 DUP4 ADD MSTORE PUSH2 0x2DCC DUP2 DUP8 PUSH2 0x2593 JUMP JUMPDEST SWAP1 POP PUSH2 0x2DDB PUSH1 0xA0 DUP4 ADD DUP7 PUSH2 0x2AEE JUMP JUMPDEST PUSH2 0x2DE8 PUSH1 0xC0 DUP4 ADD DUP6 PUSH2 0x2AEE JUMP JUMPDEST DUP2 DUP2 SUB PUSH1 0xE0 DUP4 ADD MSTORE PUSH2 0x2DFA DUP2 DUP5 PUSH2 0x2593 JUMP JUMPDEST SWAP1 POP SWAP10 SWAP9 POP POP POP POP POP POP POP POP POP JUMP JUMPDEST PUSH32 0x4E487B7100000000000000000000000000000000000000000000000000000000 PUSH1 0x0 MSTORE PUSH1 0x22 PUSH1 0x4 MSTORE PUSH1 0x24 PUSH1 0x0 REVERT JUMPDEST PUSH1 0x0 PUSH1 0x2 DUP3 DIV SWAP1 POP PUSH1 0x1 DUP3 AND DUP1 PUSH2 0x2E50 JUMPI PUSH1 0x7F DUP3 AND SWAP2 POP JUMPDEST PUSH1 0x20 DUP3 LT DUP2 SUB PUSH2 0x2E63 JUMPI PUSH2 0x2E62 PUSH2 0x2E09 JUMP JUMPDEST JUMPDEST POP SWAP2 SWAP1 POP JUMP JUMPDEST PUSH1 0x0 DUP2 SWAP1 POP SWAP3 SWAP2 POP POP JUMP JUMPDEST PUSH1 0x0 PUSH2 0x2E7F DUP3 PUSH2 0x254D JUMP JUMPDEST PUSH2 0x2E89 DUP2 DUP6 PUSH2 0x2E69 JUMP JUMPDEST SWAP4 POP PUSH2 0x2E99 DUP2 DUP6 PUSH1 0x20 DUP7 ADD PUSH2 0x2569 JUMP JUMPDEST DUP1 DUP5 ADD SWAP2 POP POP SWAP3 SWAP2 POP POP JUMP JUMPDEST PUSH1 0x0 PUSH2 0x2EB1 DUP3 DUP5 PUSH2 0x2E74 JUMP JUMPDEST SWAP2 POP DUP2 SWAP1 POP SWAP3 SWAP2 POP POP JUMP JUMPDEST PUSH1 0x0 DUP2 SWAP1 POP DUP2 PUSH1 0x0 MSTORE PUSH1 0x20 PUSH1 0x0 KECCAK256 SWAP1 POP SWAP2 SWAP1 POP JUMP JUMPDEST PUSH1 0x0 PUSH1 0x20 PUSH1 0x1F DUP4 ADD DIV SWAP1 POP SWAP2 SWAP1 POP JUMP JUMPDEST PUSH1 0x0 DUP3 DUP3 SHL SWAP1 POP SWAP3 SWAP2 POP POP JUMP JUMPDEST PUSH1 0x0 PUSH1 0x8 DUP4 MUL PUSH2 0x2F1E PUSH32 0xFFFFFFFFFFFFFFFFFFFFFFFFFFFFFFFFFFFFFFFFFFFFFFFFFFFFFFFFFFFFFFFF DUP3 PUSH2 0x2EE1 JUMP JUMPDEST PUSH2 0x2F28 DUP7 DUP4 PUSH2 0x2EE1 JUMP JUMPDEST SWAP6 POP DUP1 NOT DUP5 AND SWAP4 POP DUP1 DUP7 AND DUP5 OR SWAP3 POP POP POP SWAP4 SWAP3 POP POP POP JUMP JUMPDEST PUSH1 0x0 DUP2 SWAP1 POP SWAP2 SWAP1 POP JUMP JUMPDEST PUSH1 0x0 PUSH2 0x2F65 PUSH2 0x2F60 PUSH2 0x2F5B DUP5 PUSH2 0x27C8 JUMP JUMPDEST PUSH2 0x2F40 JUMP JUMPDEST PUSH2 0x27C8 JUMP JUMPDEST SWAP1 POP SWAP2 SWAP1 POP JUMP JUMPDEST PUSH1 0x0 DUP2 SWAP1 POP SWAP2 SWAP1 POP JUMP JUMPDEST PUSH2 0x2F7F DUP4 PUSH2 0x2F4A JUMP JUMPDEST PUSH2 0x2F93 PUSH2 0x2F8B DUP3 PUSH2 0x2F6C JUMP JUMPDEST DUP5 DUP5 SLOAD PUSH2 0x2EEE JUMP JUMPDEST DUP3 SSTORE POP POP POP POP JUMP JUMPDEST PUSH1 0x0 SWAP1 JUMP JUMPDEST PUSH2 0x2FA8 PUSH2 0x2F9B JUMP JUMPDEST PUSH2 0x2FB3 DUP2 DUP5 DUP5 PUSH2 0x2F76 JUMP JUMPDEST POP POP POP JUMP JUMPDEST JUMPDEST DUP2 DUP2 LT ISZERO PUSH2 0x2FD7 JUMPI PUSH2 0x2FCC PUSH1 0x0 DUP3 PUSH2 0x2FA0 JUMP JUMPDEST PUSH1 0x1 DUP2 ADD SWAP1 POP PUSH2 0x2FB9 JUMP JUMPDEST POP POP JUMP JUMPDEST PUSH1 0x1F DUP3 GT ISZERO PUSH2 0x301C JUMPI PUSH2 0x2FED DUP2 PUSH2 0x2EBC JUMP JUMPDEST PUSH2 0x2FF6 DUP5 PUSH2 0x2ED1 JUMP JUMPDEST DUP2 ADD PUSH1 0x20 DUP6 LT ISZERO PUSH2 0x3005 JUMPI DUP2 SWAP1 POP JUMPDEST PUSH2 0x3019 PUSH2 0x3011 DUP6 PUSH2 0x2ED1 JUMP JUMPDEST DUP4 ADD DUP3 PUSH2 0x2FB8 JUMP JUMPDEST POP POP JUMPDEST POP POP POP JUMP JUMPDEST PUSH1 0x0 DUP3 DUP3 SHR SWAP1 POP SWAP3 SWAP2 POP POP JUMP JUMPDEST PUSH1 0x0 PUSH2 0x303F PUSH1 0x0 NOT DUP5 PUSH1 0x8 MUL PUSH2 0x3021 JUMP JUMPDEST NOT DUP1 DUP4 AND SWAP2 POP POP SWAP3 SWAP2 POP POP JUMP JUMPDEST PUSH1 0x0 PUSH2 0x3058 DUP4 DUP4 PUSH2 0x302E JUMP JUMPDEST SWAP2 POP DUP3 PUSH1 0x2 MUL DUP3 OR SWAP1 POP SWAP3 SWAP2 POP POP JUMP JUMPDEST PUSH2 0x3071 DUP3 PUSH2 0x254D JUMP JUMPDEST PUSH8 0xFFFFFFFFFFFFFFFF DUP2 GT ISZERO PUSH2 0x308A JUMPI PUSH2 0x3089 PUSH2 0x23D9 JUMP JUMPDEST JUMPDEST PUSH2 0x3094 DUP3 SLOAD PUSH2 0x2E38 JUMP JUMPDEST PUSH2 0x309F DUP3 DUP3 DUP6 PUSH2 0x2FDB JUMP JUMPDEST PUSH1 0x0 PUSH1 0x20 SWAP1 POP PUSH1 0x1F DUP4 GT PUSH1 0x1 DUP2 EQ PUSH2 0x30D2 JUMPI PUSH1 0x0 DUP5 ISZERO PUSH2 0x30C0 JUMPI DUP3 DUP8 ADD MLOAD SWAP1 POP JUMPDEST PUSH2 0x30CA DUP6 DUP3 PUSH2 0x304C JUMP JUMPDEST DUP7 SSTORE POP PUSH2 0x3132 JUMP JUMPDEST PUSH1 0x1F NOT DUP5 AND PUSH2 0x30E0 DUP7 PUSH2 0x2EBC JUMP JUMPDEST PUSH1 0x0 JUMPDEST DUP3 DUP2 LT ISZERO PUSH2 0x3108 JUMPI DUP5 DUP10 ADD MLOAD DUP3 SSTORE PUSH1 0x1 DUP3 ADD SWAP2 POP PUSH1 0x20 DUP6 ADD SWAP5 POP PUSH1 0x20 DUP2 ADD SWAP1 POP PUSH2 0x30E3 JUMP JUMPDEST DUP7 DUP4 LT ISZERO PUSH2 0x3125 JUMPI DUP5 DUP10 ADD MLOAD PUSH2 0x3121 PUSH1 0x1F DUP10 AND DUP3 PUSH2 0x302E JUMP JUMPDEST DUP4 SSTORE POP JUMPDEST PUSH1 0x1 PUSH1 0x2 DUP9 MUL ADD DUP9 SSTORE POP POP POP JUMPDEST POP POP POP POP POP POP JUMP JUMPDEST PUSH32 0x4E487B7100000000000000000000000000000000000000000000000000000000 PUSH1 0x0 MSTORE PUSH1 0x32 PUSH1 0x4 MSTORE PUSH1 0x24 PUSH1 0x0 REVERT JUMPDEST PUSH32 0x4E487B7100000000000000000000000000000000000000000000000000000000 PUSH1 0x0 MSTORE PUSH1 0x11 PUSH1 0x4 MSTORE PUSH1 0x24 PUSH1 0x0 REVERT JUMPDEST PUSH1 0x0 PUSH2 0x31A3 DUP3 PUSH2 0x27C8 JUMP JUMPDEST SWAP2 POP PUSH32 0xFFFFFFFFFFFFFFFFFFFFFFFFFFFFFFFFFFFFFFFFFFFFFFFFFFFFFFFFFFFFFFFF DUP3 SUB PUSH2 0x31D5 JUMPI PUSH2 0x31D4 PUSH2 0x3169 JUMP JUMPDEST JUMPDEST PUSH1 0x1 DUP3 ADD SWAP1 POP SWAP2 SWAP1 POP JUMP JUMPDEST POP JUMP JUMPDEST PUSH1 0x0 PUSH2 0x31F0 PUSH1 0x0 DUP4 PUSH2 0x2E69 JUMP JUMPDEST SWAP2 POP PUSH2 0x31FB DUP3 PUSH2 0x31E0 JUMP JUMPDEST PUSH1 0x0 DUP3 ADD SWAP1 POP SWAP2 SWAP1 POP JUMP JUMPDEST PUSH1 0x0 PUSH2 0x3211 DUP3 PUSH2 0x31E3 JUMP JUMPDEST SWAP2 POP DUP2 SWAP1 POP SWAP2 SWAP1 POP JUMP JUMPDEST PUSH1 0x0 DUP2 SLOAD PUSH2 0x3228 DUP2 PUSH2 0x2E38 JUMP JUMPDEST PUSH2 0x3232 DUP2 DUP7 PUSH2 0x2E69 JUMP JUMPDEST SWAP5 POP PUSH1 0x1 DUP3 AND PUSH1 0x0 DUP2 EQ PUSH2 0x324D JUMPI PUSH1 0x1 DUP2 EQ PUSH2 0x3262 JUMPI PUSH2 0x3295 JUMP JUMPDEST PUSH1 0xFF NOT DUP4 AND DUP7 MSTORE DUP2 ISZERO ISZERO DUP3 MUL DUP7 ADD SWAP4 POP PUSH2 0x3295 JUMP JUMPDEST PUSH2 0x326B DUP6 PUSH2 0x2EBC JUMP JUMPDEST PUSH1 0x0 JUMPDEST DUP4 DUP2 LT ISZERO PUSH2 0x328D JUMPI DUP2 SLOAD DUP2 DUP10 ADD MSTORE PUSH1 0x1 DUP3 ADD SWAP2 POP PUSH1 0x20 DUP2 ADD SWAP1 POP PUSH2 0x326E JUMP JUMPDEST DUP4 DUP9 ADD SWAP6 POP POP POP JUMPDEST POP POP POP SWAP3 SWAP2 POP POP JUMP JUMPDEST PUSH1 0x0 PUSH2 0x32AA DUP3 DUP5 PUSH2 0x321B JUMP JUMPDEST SWAP2 POP DUP2 SWAP1 POP SWAP3 SWAP2 POP POP JUMP INVALID LOG2 PUSH5 0x6970667358 0x22 SLT KECCAK256 SLOAD POP DUP5 0x2D 0xBC EXP PUSH30 0xCBFBF18D3213BF293C8536EA7A63D6658A68401AC55E25585F64736F6C63 NUMBER STOP ADDMOD SLT STOP CALLER "
				},
				"gasEstimates": {
					"creation": {
						"codeDepositCost": "2607000",
						"executionCost": "37102",
						"totalCost": "2644102"
					},
					"external": {
						"Products(uint256)": "infinite",
						"Users(string)": "infinite",
						"assignLensToUser(string,string)": "infinite",
						"assignWalletsToUser(string[],string)": "infinite",
						"assignWorldCoinIdToUser(string,string)": "infinite",
						"compareStrings(string,string)": "infinite",
						"createProduct(string,string,string,string,string,uint256,uint256,string)": "infinite",
						"createUserAccount(string,string[])": "infinite",
						"doesKeyExist(string,string)": "infinite",
						"getOwner()": "2567",
						"getUserById(string)": "infinite",
						"getUserByLens(string)": "infinite",
						"getUserByWallet(string)": "infinite",
						"getUserByWorldCoin(string)": "infinite",
						"lasProductId()": "2496",
						"makeRentRequest()": "211",
						"rentsNonce()": "2518"
					}
				},
				"methodIdentifiers": {
					"Products(uint256)": "dba3f6aa",
					"Users(string)": "076faab4",
					"assignLensToUser(string,string)": "081396eb",
					"assignWalletsToUser(string[],string)": "63c60bd5",
					"assignWorldCoinIdToUser(string,string)": "15c19c1d",
					"compareStrings(string,string)": "bed34bba",
					"createProduct(string,string,string,string,string,uint256,uint256,string)": "6bd562f3",
					"createUserAccount(string,string[])": "51f40dd6",
					"doesKeyExist(string,string)": "d430e05a",
					"getOwner()": "893d20e8",
					"getUserById(string)": "379f8fc2",
					"getUserByLens(string)": "c77cfeeb",
					"getUserByWallet(string)": "7198ed1a",
					"getUserByWorldCoin(string)": "f70e1c5e",
					"lasProductId()": "63fbe5b3",
					"makeRentRequest()": "8d5fa841",
					"rentsNonce()": "bb44563f"
				}
			},
			"storageLayout": {
				"storage": [
					{
						"astId": 3,
						"contract": "Contracts/Lending.sol:Lending",
						"label": "owner",
						"offset": 0,
						"slot": "0",
						"type": "t_address"
					},
					{
						"astId": 6,
						"contract": "Contracts/Lending.sol:Lending",
						"label": "lasProductId",
						"offset": 0,
						"slot": "1",
						"type": "t_uint256"
					},
					{
						"astId": 9,
						"contract": "Contracts/Lending.sol:Lending",
						"label": "rentsNonce",
						"offset": 0,
						"slot": "2",
						"type": "t_uint256"
					},
					{
						"astId": 55,
						"contract": "Contracts/Lending.sol:Lending",
						"label": "Products",
						"offset": 0,
						"slot": "3",
						"type": "t_mapping(t_uint256,t_struct(Product)39_storage)"
					},
					{
						"astId": 60,
						"contract": "Contracts/Lending.sol:Lending",
						"label": "Users",
						"offset": 0,
						"slot": "4",
						"type": "t_mapping(t_string_memory_ptr,t_struct(User)22_storage)"
					},
					{
						"astId": 65,
						"contract": "Contracts/Lending.sol:Lending",
						"label": "UserRatings",
						"offset": 0,
						"slot": "5",
						"type": "t_mapping(t_string_memory_ptr,t_array(t_uint256)dyn_storage)"
					},
					{
						"astId": 70,
						"contract": "Contracts/Lending.sol:Lending",
						"label": "TenantRatings",
						"offset": 0,
						"slot": "6",
						"type": "t_mapping(t_string_memory_ptr,t_array(t_uint256)dyn_storage)"
					},
					{
						"astId": 75,
						"contract": "Contracts/Lending.sol:Lending",
						"label": "UserProducts",
						"offset": 0,
						"slot": "7",
						"type": "t_mapping(t_uint256,t_array(t_uint256)dyn_storage)"
					},
					{
						"astId": 79,
						"contract": "Contracts/Lending.sol:Lending",
						"label": "UserWorldCoinIds",
						"offset": 0,
						"slot": "8",
						"type": "t_mapping(t_string_memory_ptr,t_string_storage)"
					},
					{
						"astId": 83,
						"contract": "Contracts/Lending.sol:Lending",
						"label": "UserWallets",
						"offset": 0,
						"slot": "9",
						"type": "t_mapping(t_string_memory_ptr,t_string_storage)"
					},
					{
						"astId": 87,
						"contract": "Contracts/Lending.sol:Lending",
						"label": "UserLensHandles",
						"offset": 0,
						"slot": "10",
						"type": "t_mapping(t_string_memory_ptr,t_string_storage)"
					}
				],
				"types": {
					"t_address": {
						"encoding": "inplace",
						"label": "address",
						"numberOfBytes": "20"
					},
					"t_array(t_string_storage)dyn_storage": {
						"base": "t_string_storage",
						"encoding": "dynamic_array",
						"label": "string[]",
						"numberOfBytes": "32"
					},
					"t_array(t_uint256)dyn_storage": {
						"base": "t_uint256",
						"encoding": "dynamic_array",
						"label": "uint256[]",
						"numberOfBytes": "32"
					},
					"t_mapping(t_string_memory_ptr,t_array(t_uint256)dyn_storage)": {
						"encoding": "mapping",
						"key": "t_string_memory_ptr",
						"label": "mapping(string => uint256[])",
						"numberOfBytes": "32",
						"value": "t_array(t_uint256)dyn_storage"
					},
					"t_mapping(t_string_memory_ptr,t_string_storage)": {
						"encoding": "mapping",
						"key": "t_string_memory_ptr",
						"label": "mapping(string => string)",
						"numberOfBytes": "32",
						"value": "t_string_storage"
					},
					"t_mapping(t_string_memory_ptr,t_struct(User)22_storage)": {
						"encoding": "mapping",
						"key": "t_string_memory_ptr",
						"label": "mapping(string => struct Lending.User)",
						"numberOfBytes": "32",
						"value": "t_struct(User)22_storage"
					},
					"t_mapping(t_uint256,t_array(t_uint256)dyn_storage)": {
						"encoding": "mapping",
						"key": "t_uint256",
						"label": "mapping(uint256 => uint256[])",
						"numberOfBytes": "32",
						"value": "t_array(t_uint256)dyn_storage"
					},
					"t_mapping(t_uint256,t_struct(Product)39_storage)": {
						"encoding": "mapping",
						"key": "t_uint256",
						"label": "mapping(uint256 => struct Lending.Product)",
						"numberOfBytes": "32",
						"value": "t_struct(Product)39_storage"
					},
					"t_string_memory_ptr": {
						"encoding": "bytes",
						"label": "string",
						"numberOfBytes": "32"
					},
					"t_string_storage": {
						"encoding": "bytes",
						"label": "string",
						"numberOfBytes": "32"
					},
					"t_struct(Product)39_storage": {
						"encoding": "inplace",
						"label": "struct Lending.Product",
						"members": [
							{
								"astId": 24,
								"contract": "Contracts/Lending.sol:Lending",
								"label": "userId",
								"offset": 0,
								"slot": "0",
								"type": "t_string_storage"
							},
							{
								"astId": 26,
								"contract": "Contracts/Lending.sol:Lending",
								"label": "lat",
								"offset": 0,
								"slot": "1",
								"type": "t_string_storage"
							},
							{
								"astId": 28,
								"contract": "Contracts/Lending.sol:Lending",
								"label": "lng",
								"offset": 0,
								"slot": "2",
								"type": "t_string_storage"
							},
							{
								"astId": 30,
								"contract": "Contracts/Lending.sol:Lending",
								"label": "name",
								"offset": 0,
								"slot": "3",
								"type": "t_string_storage"
							},
							{
								"astId": 32,
								"contract": "Contracts/Lending.sol:Lending",
								"label": "description",
								"offset": 0,
								"slot": "4",
								"type": "t_string_storage"
							},
							{
								"astId": 34,
								"contract": "Contracts/Lending.sol:Lending",
								"label": "prodValue",
								"offset": 0,
								"slot": "5",
								"type": "t_uint256"
							},
							{
								"astId": 36,
								"contract": "Contracts/Lending.sol:Lending",
								"label": "price",
								"offset": 0,
								"slot": "6",
								"type": "t_uint256"
							},
							{
								"astId": 38,
								"contract": "Contracts/Lending.sol:Lending",
								"label": "image",
								"offset": 0,
								"slot": "7",
								"type": "t_string_storage"
							}
						],
						"numberOfBytes": "256"
					},
					"t_struct(User)22_storage": {
						"encoding": "inplace",
						"label": "struct Lending.User",
						"members": [
							{
								"astId": 11,
								"contract": "Contracts/Lending.sol:Lending",
								"label": "userId",
								"offset": 0,
								"slot": "0",
								"type": "t_string_storage"
							},
							{
								"astId": 13,
								"contract": "Contracts/Lending.sol:Lending",
								"label": "worldCoinId",
								"offset": 0,
								"slot": "1",
								"type": "t_string_storage"
							},
							{
								"astId": 15,
								"contract": "Contracts/Lending.sol:Lending",
								"label": "lensHandle",
								"offset": 0,
								"slot": "2",
								"type": "t_string_storage"
							},
							{
								"astId": 18,
								"contract": "Contracts/Lending.sol:Lending",
								"label": "wallets",
								"offset": 0,
								"slot": "3",
								"type": "t_array(t_string_storage)dyn_storage"
							},
							{
								"astId": 21,
								"contract": "Contracts/Lending.sol:Lending",
								"label": "products",
								"offset": 0,
								"slot": "4",
								"type": "t_array(t_uint256)dyn_storage"
							}
						],
						"numberOfBytes": "160"
					},
					"t_uint256": {
						"encoding": "inplace",
						"label": "uint256",
						"numberOfBytes": "32"
					}
				}
			},
			"userdoc": {
				"kind": "user",
				"methods": {},
				"version": 1
			}
		}
	}
}