{
	"Contracts/Lending.sol": {
		"Lending": {
			"abi": [
				{
					"inputs": [],
					"stateMutability": "nonpayable",
					"type": "constructor"
				},
				{
					"inputs": [
						{
							"internalType": "string",
							"name": "_lens",
							"type": "string"
						},
						{
							"internalType": "string",
							"name": "userId",
							"type": "string"
						}
					],
					"name": "assignLensToUser",
					"outputs": [],
					"stateMutability": "nonpayable",
					"type": "function"
				},
				{
					"inputs": [
						{
							"internalType": "string[]",
							"name": "_addresses",
							"type": "string[]"
						},
						{
							"internalType": "string",
							"name": "userId",
							"type": "string"
						}
					],
					"name": "assignWalletsToUser",
					"outputs": [],
					"stateMutability": "nonpayable",
					"type": "function"
				},
				{
					"inputs": [
						{
							"internalType": "string",
							"name": "WCID",
							"type": "string"
						},
						{
							"internalType": "string",
							"name": "userId",
							"type": "string"
						}
					],
					"name": "assignWorldCoinIdToUser",
					"outputs": [],
					"stateMutability": "nonpayable",
					"type": "function"
				},
				{
					"inputs": [
						{
							"internalType": "string",
							"name": "a",
							"type": "string"
						},
						{
							"internalType": "string",
							"name": "b",
							"type": "string"
						}
					],
					"name": "compareStrings",
					"outputs": [
						{
							"internalType": "bool",
							"name": "",
							"type": "bool"
						}
					],
					"stateMutability": "pure",
					"type": "function"
				},
				{
					"inputs": [
						{
							"internalType": "string",
							"name": "username",
							"type": "string"
						},
						{
							"internalType": "string[]",
							"name": "_addresses",
							"type": "string[]"
						}
					],
					"name": "createUserAccount",
					"outputs": [
						{
							"components": [
								{
									"internalType": "string",
									"name": "userId",
									"type": "string"
								},
								{
									"internalType": "string",
									"name": "worldCoinId",
									"type": "string"
								},
								{
									"internalType": "string",
									"name": "lensHandle",
									"type": "string"
								},
								{
									"internalType": "string[]",
									"name": "wallets",
									"type": "string[]"
								},
								{
									"internalType": "uint256[]",
									"name": "products",
									"type": "uint256[]"
								}
							],
							"internalType": "struct Lending.User",
							"name": "",
							"type": "tuple"
						}
					],
					"stateMutability": "nonpayable",
					"type": "function"
				},
				{
					"inputs": [
						{
							"internalType": "string",
							"name": "key",
							"type": "string"
						},
						{
							"internalType": "string",
							"name": "variable",
							"type": "string"
						}
					],
					"name": "doesKeyExist",
					"outputs": [
						{
							"internalType": "bool",
							"name": "",
							"type": "bool"
						}
					],
					"stateMutability": "view",
					"type": "function"
				},
				{
					"inputs": [],
					"name": "getOwner",
					"outputs": [
						{
							"internalType": "address",
							"name": "",
							"type": "address"
						}
					],
					"stateMutability": "view",
					"type": "function"
				},
				{
					"inputs": [
						{
							"internalType": "string",
							"name": "userId",
							"type": "string"
						}
					],
					"name": "getUserById",
					"outputs": [
						{
							"components": [
								{
									"internalType": "string",
									"name": "userId",
									"type": "string"
								},
								{
									"internalType": "string",
									"name": "worldCoinId",
									"type": "string"
								},
								{
									"internalType": "string",
									"name": "lensHandle",
									"type": "string"
								},
								{
									"internalType": "string[]",
									"name": "wallets",
									"type": "string[]"
								},
								{
									"internalType": "uint256[]",
									"name": "products",
									"type": "uint256[]"
								}
							],
							"internalType": "struct Lending.User",
							"name": "",
							"type": "tuple"
						}
					],
					"stateMutability": "view",
					"type": "function"
				},
				{
					"inputs": [
						{
							"internalType": "string",
							"name": "lens",
							"type": "string"
						}
					],
					"name": "getUserByLens",
					"outputs": [
						{
							"components": [
								{
									"internalType": "string",
									"name": "userId",
									"type": "string"
								},
								{
									"internalType": "string",
									"name": "worldCoinId",
									"type": "string"
								},
								{
									"internalType": "string",
									"name": "lensHandle",
									"type": "string"
								},
								{
									"internalType": "string[]",
									"name": "wallets",
									"type": "string[]"
								},
								{
									"internalType": "uint256[]",
									"name": "products",
									"type": "uint256[]"
								}
							],
							"internalType": "struct Lending.User",
							"name": "",
							"type": "tuple"
						}
					],
					"stateMutability": "view",
					"type": "function"
				},
				{
					"inputs": [
						{
							"internalType": "string",
							"name": "addr",
							"type": "string"
						}
					],
					"name": "getUserByWallet",
					"outputs": [
						{
							"components": [
								{
									"internalType": "string",
									"name": "userId",
									"type": "string"
								},
								{
									"internalType": "string",
									"name": "worldCoinId",
									"type": "string"
								},
								{
									"internalType": "string",
									"name": "lensHandle",
									"type": "string"
								},
								{
									"internalType": "string[]",
									"name": "wallets",
									"type": "string[]"
								},
								{
									"internalType": "uint256[]",
									"name": "products",
									"type": "uint256[]"
								}
							],
							"internalType": "struct Lending.User",
							"name": "",
							"type": "tuple"
						}
					],
					"stateMutability": "view",
					"type": "function"
				},
				{
					"inputs": [
						{
							"internalType": "string",
							"name": "WCID",
							"type": "string"
						}
					],
					"name": "getUserByWorldCoin",
					"outputs": [
						{
							"components": [
								{
									"internalType": "string",
									"name": "userId",
									"type": "string"
								},
								{
									"internalType": "string",
									"name": "worldCoinId",
									"type": "string"
								},
								{
									"internalType": "string",
									"name": "lensHandle",
									"type": "string"
								},
								{
									"internalType": "string[]",
									"name": "wallets",
									"type": "string[]"
								},
								{
									"internalType": "uint256[]",
									"name": "products",
									"type": "uint256[]"
								}
							],
							"internalType": "struct Lending.User",
							"name": "",
							"type": "tuple"
						}
					],
					"stateMutability": "view",
					"type": "function"
				},
				{
					"inputs": [],
					"name": "makeRentRequest",
					"outputs": [],
					"stateMutability": "nonpayable",
					"type": "function"
				}
			],
			"devdoc": {
				"kind": "dev",
				"methods": {},
				"version": 1
			},
			"evm": {
				"assembly": "    /* \"Contracts/Lending.sol\":70:4481  contract Lending {... */\n  mstore(0x40, 0x80)\n    /* \"Contracts/Lending.sol\":1163:1212  constructor() {... */\n  callvalue\n  dup1\n  iszero\n  tag_1\n  jumpi\n  0x00\n  dup1\n  revert\ntag_1:\n  pop\n    /* \"Contracts/Lending.sol\":1195:1205  msg.sender */\n  caller\n    /* \"Contracts/Lending.sol\":1187:1192  owner */\n  0x00\n  dup1\n    /* \"Contracts/Lending.sol\":1187:1205  owner = msg.sender */\n  0x0100\n  exp\n  dup2\n  sload\n  dup2\n  0xffffffffffffffffffffffffffffffffffffffff\n  mul\n  not\n  and\n  swap1\n  dup4\n  0xffffffffffffffffffffffffffffffffffffffff\n  and\n  mul\n  or\n  swap1\n  sstore\n  pop\n    /* \"Contracts/Lending.sol\":70:4481  contract Lending {... */\n  dataSize(sub_0)\n  dup1\n  dataOffset(sub_0)\n  0x00\n  codecopy\n  0x00\n  return\nstop\n\nsub_0: assembly {\n        /* \"Contracts/Lending.sol\":70:4481  contract Lending {... */\n      mstore(0x40, 0x80)\n      callvalue\n      dup1\n      iszero\n      tag_1\n      jumpi\n      0x00\n      dup1\n      revert\n    tag_1:\n      pop\n      jumpi(tag_2, lt(calldatasize, 0x04))\n      shr(0xe0, calldataload(0x00))\n      dup1\n      0x893d20e8\n      gt\n      tag_15\n      jumpi\n      dup1\n      0x893d20e8\n      eq\n      tag_9\n      jumpi\n      dup1\n      0x8d5fa841\n      eq\n      tag_10\n      jumpi\n      dup1\n      0xbed34bba\n      eq\n      tag_11\n      jumpi\n      dup1\n      0xc77cfeeb\n      eq\n      tag_12\n      jumpi\n      dup1\n      0xd430e05a\n      eq\n      tag_13\n      jumpi\n      dup1\n      0xf70e1c5e\n      eq\n      tag_14\n      jumpi\n      jump(tag_2)\n    tag_15:\n      dup1\n      0x081396eb\n      eq\n      tag_3\n      jumpi\n      dup1\n      0x15c19c1d\n      eq\n      tag_4\n      jumpi\n      dup1\n      0x379f8fc2\n      eq\n      tag_5\n      jumpi\n      dup1\n      0x51f40dd6\n      eq\n      tag_6\n      jumpi\n      dup1\n      0x63c60bd5\n      eq\n      tag_7\n      jumpi\n      dup1\n      0x7198ed1a\n      eq\n      tag_8\n      jumpi\n    tag_2:\n      0x00\n      dup1\n      revert\n        /* \"Contracts/Lending.sol\":2750:2982  function assignLensToUser(string memory _lens, string memory userId) public {... */\n    tag_3:\n      tag_16\n      0x04\n      dup1\n      calldatasize\n      sub\n      dup2\n      add\n      swap1\n      tag_17\n      swap2\n      swap1\n      tag_18\n      jump\t// in\n    tag_17:\n      tag_19\n      jump\t// in\n    tag_16:\n      stop\n        /* \"Contracts/Lending.sol\":2988:3225  function assignWorldCoinIdToUser(string memory WCID, string memory userId) public {... */\n    tag_4:\n      tag_20\n      0x04\n      dup1\n      calldatasize\n      sub\n      dup2\n      add\n      swap1\n      tag_21\n      swap2\n      swap1\n      tag_18\n      jump\t// in\n    tag_21:\n      tag_22\n      jump\t// in\n    tag_20:\n      stop\n        /* \"Contracts/Lending.sol\":3703:3817  function getUserById(string memory userId) public view returns (User memory) {... */\n    tag_5:\n      tag_23\n      0x04\n      dup1\n      calldatasize\n      sub\n      dup2\n      add\n      swap1\n      tag_24\n      swap2\n      swap1\n      tag_25\n      jump\t// in\n    tag_24:\n      tag_26\n      jump\t// in\n    tag_23:\n      mload(0x40)\n      tag_27\n      swap2\n      swap1\n      tag_28\n      jump\t// in\n    tag_27:\n      mload(0x40)\n      dup1\n      swap2\n      sub\n      swap1\n      return\n        /* \"Contracts/Lending.sol\":3231:3696  function createUserAccount(string memory username, string[] memory _addresses) public returns (User memory) {... */\n    tag_6:\n      tag_29\n      0x04\n      dup1\n      calldatasize\n      sub\n      dup2\n      add\n      swap1\n      tag_30\n      swap2\n      swap1\n      tag_31\n      jump\t// in\n    tag_30:\n      tag_32\n      jump\t// in\n    tag_29:\n      mload(0x40)\n      tag_33\n      swap2\n      swap1\n      tag_28\n      jump\t// in\n    tag_33:\n      mload(0x40)\n      dup1\n      swap2\n      sub\n      swap1\n      return\n        /* \"Contracts/Lending.sol\":2372:2744  function assignWalletsToUser(string[] memory _addresses, string memory userId) public {... */\n    tag_7:\n      tag_34\n      0x04\n      dup1\n      calldatasize\n      sub\n      dup2\n      add\n      swap1\n      tag_35\n      swap2\n      swap1\n      tag_36\n      jump\t// in\n    tag_35:\n      tag_37\n      jump\t// in\n    tag_34:\n      stop\n        /* \"Contracts/Lending.sol\":4177:4343  function getUserByWallet(string memory addr) public view returns (User memory) {... */\n    tag_8:\n      tag_38\n      0x04\n      dup1\n      calldatasize\n      sub\n      dup2\n      add\n      swap1\n      tag_39\n      swap2\n      swap1\n      tag_25\n      jump\t// in\n    tag_39:\n      tag_40\n      jump\t// in\n    tag_38:\n      mload(0x40)\n      tag_41\n      swap2\n      swap1\n      tag_28\n      jump\t// in\n    tag_41:\n      mload(0x40)\n      dup1\n      swap2\n      sub\n      swap1\n      return\n        /* \"Contracts/Lending.sol\":4349:4430  function getOwner() external view returns (address) {... */\n    tag_9:\n      tag_42\n      tag_43\n      jump\t// in\n    tag_42:\n      mload(0x40)\n      tag_44\n      swap2\n      swap1\n      tag_45\n      jump\t// in\n    tag_44:\n      mload(0x40)\n      dup1\n      swap2\n      sub\n      swap1\n      return\n        /* \"Contracts/Lending.sol\":4436:4478  function makeRentRequest() public {... */\n    tag_10:\n      tag_46\n      tag_47\n      jump\t// in\n    tag_46:\n      stop\n        /* \"Contracts/Lending.sol\":1218:1614  function compareStrings(string memory a, string memory b) public pure returns (bool) {... */\n    tag_11:\n      tag_48\n      0x04\n      dup1\n      calldatasize\n      sub\n      dup2\n      add\n      swap1\n      tag_49\n      swap2\n      swap1\n      tag_18\n      jump\t// in\n    tag_49:\n      tag_50\n      jump\t// in\n    tag_48:\n      mload(0x40)\n      tag_51\n      swap2\n      swap1\n      tag_52\n      jump\t// in\n    tag_51:\n      mload(0x40)\n      dup1\n      swap2\n      sub\n      swap1\n      return\n        /* \"Contracts/Lending.sol\":3823:3991  function getUserByLens(string memory lens) public view returns (User memory) {... */\n    tag_12:\n      tag_53\n      0x04\n      dup1\n      calldatasize\n      sub\n      dup2\n      add\n      swap1\n      tag_54\n      swap2\n      swap1\n      tag_25\n      jump\t// in\n    tag_54:\n      tag_55\n      jump\t// in\n    tag_53:\n      mload(0x40)\n      tag_56\n      swap2\n      swap1\n      tag_28\n      jump\t// in\n    tag_56:\n      mload(0x40)\n      dup1\n      swap2\n      sub\n      swap1\n      return\n        /* \"Contracts/Lending.sol\":1676:2302  function doesKeyExist(string memory key, string memory variable) public view returns (bool) {... */\n    tag_13:\n      tag_57\n      0x04\n      dup1\n      calldatasize\n      sub\n      dup2\n      add\n      swap1\n      tag_58\n      swap2\n      swap1\n      tag_18\n      jump\t// in\n    tag_58:\n      tag_59\n      jump\t// in\n    tag_57:\n      mload(0x40)\n      tag_60\n      swap2\n      swap1\n      tag_52\n      jump\t// in\n    tag_60:\n      mload(0x40)\n      dup1\n      swap2\n      sub\n      swap1\n      return\n        /* \"Contracts/Lending.sol\":3997:4171  function getUserByWorldCoin(string memory WCID) public view returns (User memory) {... */\n    tag_14:\n      tag_61\n      0x04\n      dup1\n      calldatasize\n      sub\n      dup2\n      add\n      swap1\n      tag_62\n      swap2\n      swap1\n      tag_25\n      jump\t// in\n    tag_62:\n      tag_63\n      jump\t// in\n    tag_61:\n      mload(0x40)\n      tag_64\n      swap2\n      swap1\n      tag_28\n      jump\t// in\n    tag_64:\n      mload(0x40)\n      dup1\n      swap2\n      sub\n      swap1\n      return\n        /* \"Contracts/Lending.sol\":2750:2982  function assignLensToUser(string memory _lens, string memory userId) public {... */\n    tag_19:\n        /* \"Contracts/Lending.sol\":2841:2872  doesKeyExist(_lens, 'userLens') */\n      tag_66\n        /* \"Contracts/Lending.sol\":2854:2859  _lens */\n      dup3\n        /* \"Contracts/Lending.sol\":2841:2872  doesKeyExist(_lens, 'userLens') */\n      mload(0x40)\n      dup1\n      0x40\n      add\n      0x40\n      mstore\n      dup1\n      0x08\n      dup2\n      mstore\n      0x20\n      add\n      0x757365724c656e73000000000000000000000000000000000000000000000000\n      dup2\n      mstore\n      pop\n        /* \"Contracts/Lending.sol\":2841:2853  doesKeyExist */\n      tag_59\n        /* \"Contracts/Lending.sol\":2841:2872  doesKeyExist(_lens, 'userLens') */\n      jump\t// in\n    tag_66:\n        /* \"Contracts/Lending.sol\":2836:2976  if (!doesKeyExist(_lens, 'userLens')) {... */\n      tag_67\n      jumpi\n        /* \"Contracts/Lending.sol\":2913:2919  userId */\n      dup1\n        /* \"Contracts/Lending.sol\":2888:2903  UserLensHandles */\n      0x06\n        /* \"Contracts/Lending.sol\":2904:2909  _lens */\n      dup4\n        /* \"Contracts/Lending.sol\":2888:2910  UserLensHandles[_lens] */\n      mload(0x40)\n      tag_68\n      swap2\n      swap1\n      tag_69\n      jump\t// in\n    tag_68:\n      swap1\n      dup2\n      mstore\n      0x20\n      add\n      mload(0x40)\n      dup1\n      swap2\n      sub\n      swap1\n      keccak256\n        /* \"Contracts/Lending.sol\":2888:2919  UserLensHandles[_lens] = userId */\n      swap1\n      dup2\n      tag_70\n      swap2\n      swap1\n      tag_71\n      jump\t// in\n    tag_70:\n      pop\n        /* \"Contracts/Lending.sol\":2960:2965  _lens */\n      dup2\n        /* \"Contracts/Lending.sol\":2933:2938  Users */\n      0x02\n        /* \"Contracts/Lending.sol\":2939:2945  userId */\n      dup3\n        /* \"Contracts/Lending.sol\":2933:2946  Users[userId] */\n      mload(0x40)\n      tag_72\n      swap2\n      swap1\n      tag_69\n      jump\t// in\n    tag_72:\n      swap1\n      dup2\n      mstore\n      0x20\n      add\n      mload(0x40)\n      dup1\n      swap2\n      sub\n      swap1\n      keccak256\n        /* \"Contracts/Lending.sol\":2933:2957  Users[userId].lensHandle */\n      0x02\n      add\n        /* \"Contracts/Lending.sol\":2933:2965  Users[userId].lensHandle = _lens */\n      swap1\n      dup2\n      tag_73\n      swap2\n      swap1\n      tag_71\n      jump\t// in\n    tag_73:\n      pop\n        /* \"Contracts/Lending.sol\":2836:2976  if (!doesKeyExist(_lens, 'userLens')) {... */\n    tag_67:\n        /* \"Contracts/Lending.sol\":2750:2982  function assignLensToUser(string memory _lens, string memory userId) public {... */\n      pop\n      pop\n      jump\t// out\n        /* \"Contracts/Lending.sol\":2988:3225  function assignWorldCoinIdToUser(string memory WCID, string memory userId) public {... */\n    tag_22:\n        /* \"Contracts/Lending.sol\":3085:3115  doesKeyExist(WCID, 'userWCID') */\n      tag_75\n        /* \"Contracts/Lending.sol\":3098:3102  WCID */\n      dup3\n        /* \"Contracts/Lending.sol\":3085:3115  doesKeyExist(WCID, 'userWCID') */\n      mload(0x40)\n      dup1\n      0x40\n      add\n      0x40\n      mstore\n      dup1\n      0x08\n      dup2\n      mstore\n      0x20\n      add\n      0x7573657257434944000000000000000000000000000000000000000000000000\n      dup2\n      mstore\n      pop\n        /* \"Contracts/Lending.sol\":3085:3097  doesKeyExist */\n      tag_59\n        /* \"Contracts/Lending.sol\":3085:3115  doesKeyExist(WCID, 'userWCID') */\n      jump\t// in\n    tag_75:\n        /* \"Contracts/Lending.sol\":3080:3219  if (!doesKeyExist(WCID, 'userWCID')) {... */\n      tag_76\n      jumpi\n        /* \"Contracts/Lending.sol\":3156:3162  userId */\n      dup1\n        /* \"Contracts/Lending.sol\":3131:3147  UserWorldCoinIds */\n      0x04\n        /* \"Contracts/Lending.sol\":3148:3152  WCID */\n      dup4\n        /* \"Contracts/Lending.sol\":3131:3153  UserWorldCoinIds[WCID] */\n      mload(0x40)\n      tag_77\n      swap2\n      swap1\n      tag_69\n      jump\t// in\n    tag_77:\n      swap1\n      dup2\n      mstore\n      0x20\n      add\n      mload(0x40)\n      dup1\n      swap2\n      sub\n      swap1\n      keccak256\n        /* \"Contracts/Lending.sol\":3131:3162  UserWorldCoinIds[WCID] = userId */\n      swap1\n      dup2\n      tag_78\n      swap2\n      swap1\n      tag_71\n      jump\t// in\n    tag_78:\n      pop\n        /* \"Contracts/Lending.sol\":3204:3208  WCID */\n      dup2\n        /* \"Contracts/Lending.sol\":3176:3181  Users */\n      0x02\n        /* \"Contracts/Lending.sol\":3182:3188  userId */\n      dup3\n        /* \"Contracts/Lending.sol\":3176:3189  Users[userId] */\n      mload(0x40)\n      tag_79\n      swap2\n      swap1\n      tag_69\n      jump\t// in\n    tag_79:\n      swap1\n      dup2\n      mstore\n      0x20\n      add\n      mload(0x40)\n      dup1\n      swap2\n      sub\n      swap1\n      keccak256\n        /* \"Contracts/Lending.sol\":3176:3201  Users[userId].worldCoinId */\n      0x01\n      add\n        /* \"Contracts/Lending.sol\":3176:3208  Users[userId].worldCoinId = WCID */\n      swap1\n      dup2\n      tag_80\n      swap2\n      swap1\n      tag_71\n      jump\t// in\n    tag_80:\n      pop\n        /* \"Contracts/Lending.sol\":3080:3219  if (!doesKeyExist(WCID, 'userWCID')) {... */\n    tag_76:\n        /* \"Contracts/Lending.sol\":2988:3225  function assignWorldCoinIdToUser(string memory WCID, string memory userId) public {... */\n      pop\n      pop\n      jump\t// out\n        /* \"Contracts/Lending.sol\":3703:3817  function getUserById(string memory userId) public view returns (User memory) {... */\n    tag_26:\n        /* \"Contracts/Lending.sol\":3767:3778  User memory */\n      tag_81\n      tag_82\n      jump\t// in\n    tag_81:\n        /* \"Contracts/Lending.sol\":3797:3802  Users */\n      0x02\n        /* \"Contracts/Lending.sol\":3803:3809  userId */\n      dup3\n        /* \"Contracts/Lending.sol\":3797:3810  Users[userId] */\n      mload(0x40)\n      tag_84\n      swap2\n      swap1\n      tag_69\n      jump\t// in\n    tag_84:\n      swap1\n      dup2\n      mstore\n      0x20\n      add\n      mload(0x40)\n      dup1\n      swap2\n      sub\n      swap1\n      keccak256\n        /* \"Contracts/Lending.sol\":3790:3810  return Users[userId] */\n      mload(0x40)\n      dup1\n      0xa0\n      add\n      0x40\n      mstore\n      swap1\n      dup2\n      0x00\n      dup3\n      add\n      dup1\n      sload\n      tag_85\n      swap1\n      tag_86\n      jump\t// in\n    tag_85:\n      dup1\n      0x1f\n      add\n      0x20\n      dup1\n      swap2\n      div\n      mul\n      0x20\n      add\n      mload(0x40)\n      swap1\n      dup2\n      add\n      0x40\n      mstore\n      dup1\n      swap3\n      swap2\n      swap1\n      dup2\n      dup2\n      mstore\n      0x20\n      add\n      dup3\n      dup1\n      sload\n      tag_87\n      swap1\n      tag_86\n      jump\t// in\n    tag_87:\n      dup1\n      iszero\n      tag_88\n      jumpi\n      dup1\n      0x1f\n      lt\n      tag_89\n      jumpi\n      0x0100\n      dup1\n      dup4\n      sload\n      div\n      mul\n      dup4\n      mstore\n      swap2\n      0x20\n      add\n      swap2\n      jump(tag_88)\n    tag_89:\n      dup3\n      add\n      swap2\n      swap1\n      0x00\n      mstore\n      keccak256(0x00, 0x20)\n      swap1\n    tag_90:\n      dup2\n      sload\n      dup2\n      mstore\n      swap1\n      0x01\n      add\n      swap1\n      0x20\n      add\n      dup1\n      dup4\n      gt\n      tag_90\n      jumpi\n      dup3\n      swap1\n      sub\n      0x1f\n      and\n      dup3\n      add\n      swap2\n    tag_88:\n      pop\n      pop\n      pop\n      pop\n      pop\n      dup2\n      mstore\n      0x20\n      add\n      0x01\n      dup3\n      add\n      dup1\n      sload\n      tag_91\n      swap1\n      tag_86\n      jump\t// in\n    tag_91:\n      dup1\n      0x1f\n      add\n      0x20\n      dup1\n      swap2\n      div\n      mul\n      0x20\n      add\n      mload(0x40)\n      swap1\n      dup2\n      add\n      0x40\n      mstore\n      dup1\n      swap3\n      swap2\n      swap1\n      dup2\n      dup2\n      mstore\n      0x20\n      add\n      dup3\n      dup1\n      sload\n      tag_92\n      swap1\n      tag_86\n      jump\t// in\n    tag_92:\n      dup1\n      iszero\n      tag_93\n      jumpi\n      dup1\n      0x1f\n      lt\n      tag_94\n      jumpi\n      0x0100\n      dup1\n      dup4\n      sload\n      div\n      mul\n      dup4\n      mstore\n      swap2\n      0x20\n      add\n      swap2\n      jump(tag_93)\n    tag_94:\n      dup3\n      add\n      swap2\n      swap1\n      0x00\n      mstore\n      keccak256(0x00, 0x20)\n      swap1\n    tag_95:\n      dup2\n      sload\n      dup2\n      mstore\n      swap1\n      0x01\n      add\n      swap1\n      0x20\n      add\n      dup1\n      dup4\n      gt\n      tag_95\n      jumpi\n      dup3\n      swap1\n      sub\n      0x1f\n      and\n      dup3\n      add\n      swap2\n    tag_93:\n      pop\n      pop\n      pop\n      pop\n      pop\n      dup2\n      mstore\n      0x20\n      add\n      0x02\n      dup3\n      add\n      dup1\n      sload\n      tag_96\n      swap1\n      tag_86\n      jump\t// in\n    tag_96:\n      dup1\n      0x1f\n      add\n      0x20\n      dup1\n      swap2\n      div\n      mul\n      0x20\n      add\n      mload(0x40)\n      swap1\n      dup2\n      add\n      0x40\n      mstore\n      dup1\n      swap3\n      swap2\n      swap1\n      dup2\n      dup2\n      mstore\n      0x20\n      add\n      dup3\n      dup1\n      sload\n      tag_97\n      swap1\n      tag_86\n      jump\t// in\n    tag_97:\n      dup1\n      iszero\n      tag_98\n      jumpi\n      dup1\n      0x1f\n      lt\n      tag_99\n      jumpi\n      0x0100\n      dup1\n      dup4\n      sload\n      div\n      mul\n      dup4\n      mstore\n      swap2\n      0x20\n      add\n      swap2\n      jump(tag_98)\n    tag_99:\n      dup3\n      add\n      swap2\n      swap1\n      0x00\n      mstore\n      keccak256(0x00, 0x20)\n      swap1\n    tag_100:\n      dup2\n      sload\n      dup2\n      mstore\n      swap1\n      0x01\n      add\n      swap1\n      0x20\n      add\n      dup1\n      dup4\n      gt\n      tag_100\n      jumpi\n      dup3\n      swap1\n      sub\n      0x1f\n      and\n      dup3\n      add\n      swap2\n    tag_98:\n      pop\n      pop\n      pop\n      pop\n      pop\n      dup2\n      mstore\n      0x20\n      add\n      0x03\n      dup3\n      add\n      dup1\n      sload\n      dup1\n      0x20\n      mul\n      0x20\n      add\n      mload(0x40)\n      swap1\n      dup2\n      add\n      0x40\n      mstore\n      dup1\n      swap3\n      swap2\n      swap1\n      dup2\n      dup2\n      mstore\n      0x20\n      add\n      0x00\n      swap1\n    tag_101:\n      dup3\n      dup3\n      lt\n      iszero\n      tag_102\n      jumpi\n      dup4\n      dup3\n      swap1\n      0x00\n      mstore\n      keccak256(0x00, 0x20)\n      add\n      dup1\n      sload\n      tag_104\n      swap1\n      tag_86\n      jump\t// in\n    tag_104:\n      dup1\n      0x1f\n      add\n      0x20\n      dup1\n      swap2\n      div\n      mul\n      0x20\n      add\n      mload(0x40)\n      swap1\n      dup2\n      add\n      0x40\n      mstore\n      dup1\n      swap3\n      swap2\n      swap1\n      dup2\n      dup2\n      mstore\n      0x20\n      add\n      dup3\n      dup1\n      sload\n      tag_105\n      swap1\n      tag_86\n      jump\t// in\n    tag_105:\n      dup1\n      iszero\n      tag_106\n      jumpi\n      dup1\n      0x1f\n      lt\n      tag_107\n      jumpi\n      0x0100\n      dup1\n      dup4\n      sload\n      div\n      mul\n      dup4\n      mstore\n      swap2\n      0x20\n      add\n      swap2\n      jump(tag_106)\n    tag_107:\n      dup3\n      add\n      swap2\n      swap1\n      0x00\n      mstore\n      keccak256(0x00, 0x20)\n      swap1\n    tag_108:\n      dup2\n      sload\n      dup2\n      mstore\n      swap1\n      0x01\n      add\n      swap1\n      0x20\n      add\n      dup1\n      dup4\n      gt\n      tag_108\n      jumpi\n      dup3\n      swap1\n      sub\n      0x1f\n      and\n      dup3\n      add\n      swap2\n    tag_106:\n      pop\n      pop\n      pop\n      pop\n      pop\n      dup2\n      mstore\n      0x20\n      add\n      swap1\n      0x01\n      add\n      swap1\n      jump(tag_101)\n    tag_102:\n      pop\n      pop\n      pop\n      pop\n      dup2\n      mstore\n      0x20\n      add\n      0x04\n      dup3\n      add\n      dup1\n      sload\n      dup1\n      0x20\n      mul\n      0x20\n      add\n      mload(0x40)\n      swap1\n      dup2\n      add\n      0x40\n      mstore\n      dup1\n      swap3\n      swap2\n      swap1\n      dup2\n      dup2\n      mstore\n      0x20\n      add\n      dup3\n      dup1\n      sload\n      dup1\n      iszero\n      tag_109\n      jumpi\n      0x20\n      mul\n      dup3\n      add\n      swap2\n      swap1\n      0x00\n      mstore\n      keccak256(0x00, 0x20)\n      swap1\n    tag_110:\n      dup2\n      sload\n      dup2\n      mstore\n      0x20\n      add\n      swap1\n      0x01\n      add\n      swap1\n      dup1\n      dup4\n      gt\n      tag_110\n      jumpi\n    tag_109:\n      pop\n      pop\n      pop\n      pop\n      pop\n      dup2\n      mstore\n      pop\n      pop\n      swap1\n      pop\n        /* \"Contracts/Lending.sol\":3703:3817  function getUserById(string memory userId) public view returns (User memory) {... */\n      swap2\n      swap1\n      pop\n      jump\t// out\n        /* \"Contracts/Lending.sol\":3231:3696  function createUserAccount(string memory username, string[] memory _addresses) public returns (User memory) {... */\n    tag_32:\n        /* \"Contracts/Lending.sol\":3326:3337  User memory */\n      tag_111\n      tag_82\n      jump\t// in\n    tag_111:\n        /* \"Contracts/Lending.sol\":3349:3371  uint[] memory products */\n      0x60\n        /* \"Contracts/Lending.sol\":3447:3490  User(username,'', '', _addresses, products) */\n      mload(0x40)\n      dup1\n      0xa0\n      add\n      0x40\n      mstore\n      dup1\n        /* \"Contracts/Lending.sol\":3452:3460  username */\n      dup6\n        /* \"Contracts/Lending.sol\":3447:3490  User(username,'', '', _addresses, products) */\n      dup2\n      mstore\n      0x20\n      add\n      mload(0x40)\n      dup1\n      0x20\n      add\n      0x40\n      mstore\n      dup1\n      0x00\n      dup2\n      mstore\n      pop\n      dup2\n      mstore\n      0x20\n      add\n      mload(0x40)\n      dup1\n      0x20\n      add\n      0x40\n      mstore\n      dup1\n      0x00\n      dup2\n      mstore\n      pop\n      dup2\n      mstore\n      0x20\n      add\n        /* \"Contracts/Lending.sol\":3469:3479  _addresses */\n      dup5\n        /* \"Contracts/Lending.sol\":3447:3490  User(username,'', '', _addresses, products) */\n      dup2\n      mstore\n      0x20\n      add\n        /* \"Contracts/Lending.sol\":3481:3489  products */\n      dup3\n        /* \"Contracts/Lending.sol\":3447:3490  User(username,'', '', _addresses, products) */\n      dup2\n      mstore\n      pop\n        /* \"Contracts/Lending.sol\":3429:3434  Users */\n      0x02\n        /* \"Contracts/Lending.sol\":3435:3443  username */\n      dup6\n        /* \"Contracts/Lending.sol\":3429:3444  Users[username] */\n      mload(0x40)\n      tag_113\n      swap2\n      swap1\n      tag_69\n      jump\t// in\n    tag_113:\n      swap1\n      dup2\n      mstore\n      0x20\n      add\n      mload(0x40)\n      dup1\n      swap2\n      sub\n      swap1\n      keccak256\n        /* \"Contracts/Lending.sol\":3429:3490  Users[username] = User(username,'', '', _addresses, products) */\n      0x00\n      dup3\n      add\n      mload\n      dup2\n      0x00\n      add\n      swap1\n      dup2\n      tag_114\n      swap2\n      swap1\n      tag_71\n      jump\t// in\n    tag_114:\n      pop\n      0x20\n      dup3\n      add\n      mload\n      dup2\n      0x01\n      add\n      swap1\n      dup2\n      tag_115\n      swap2\n      swap1\n      tag_71\n      jump\t// in\n    tag_115:\n      pop\n      0x40\n      dup3\n      add\n      mload\n      dup2\n      0x02\n      add\n      swap1\n      dup2\n      tag_116\n      swap2\n      swap1\n      tag_71\n      jump\t// in\n    tag_116:\n      pop\n      0x60\n      dup3\n      add\n      mload\n      dup2\n      0x03\n      add\n      swap1\n      dup1\n      mload\n      swap1\n      0x20\n      add\n      swap1\n      tag_117\n      swap3\n      swap2\n      swap1\n      tag_118\n      jump\t// in\n    tag_117:\n      pop\n      0x80\n      dup3\n      add\n      mload\n      dup2\n      0x04\n      add\n      swap1\n      dup1\n      mload\n      swap1\n      0x20\n      add\n      swap1\n      tag_119\n      swap3\n      swap2\n      swap1\n      tag_120\n      jump\t// in\n    tag_119:\n      pop\n      swap1\n      pop\n      pop\n        /* \"Contracts/Lending.sol\":3569:3610  assignWalletsToUser(_addresses, username) */\n      tag_121\n        /* \"Contracts/Lending.sol\":3589:3599  _addresses */\n      dup4\n        /* \"Contracts/Lending.sol\":3601:3609  username */\n      dup6\n        /* \"Contracts/Lending.sol\":3569:3588  assignWalletsToUser */\n      tag_37\n        /* \"Contracts/Lending.sol\":3569:3610  assignWalletsToUser(_addresses, username) */\n      jump\t// in\n    tag_121:\n        /* \"Contracts/Lending.sol\":3674:3679  Users */\n      0x02\n        /* \"Contracts/Lending.sol\":3680:3688  username */\n      dup5\n        /* \"Contracts/Lending.sol\":3674:3689  Users[username] */\n      mload(0x40)\n      tag_122\n      swap2\n      swap1\n      tag_69\n      jump\t// in\n    tag_122:\n      swap1\n      dup2\n      mstore\n      0x20\n      add\n      mload(0x40)\n      dup1\n      swap2\n      sub\n      swap1\n      keccak256\n        /* \"Contracts/Lending.sol\":3667:3689  return Users[username] */\n      mload(0x40)\n      dup1\n      0xa0\n      add\n      0x40\n      mstore\n      swap1\n      dup2\n      0x00\n      dup3\n      add\n      dup1\n      sload\n      tag_123\n      swap1\n      tag_86\n      jump\t// in\n    tag_123:\n      dup1\n      0x1f\n      add\n      0x20\n      dup1\n      swap2\n      div\n      mul\n      0x20\n      add\n      mload(0x40)\n      swap1\n      dup2\n      add\n      0x40\n      mstore\n      dup1\n      swap3\n      swap2\n      swap1\n      dup2\n      dup2\n      mstore\n      0x20\n      add\n      dup3\n      dup1\n      sload\n      tag_124\n      swap1\n      tag_86\n      jump\t// in\n    tag_124:\n      dup1\n      iszero\n      tag_125\n      jumpi\n      dup1\n      0x1f\n      lt\n      tag_126\n      jumpi\n      0x0100\n      dup1\n      dup4\n      sload\n      div\n      mul\n      dup4\n      mstore\n      swap2\n      0x20\n      add\n      swap2\n      jump(tag_125)\n    tag_126:\n      dup3\n      add\n      swap2\n      swap1\n      0x00\n      mstore\n      keccak256(0x00, 0x20)\n      swap1\n    tag_127:\n      dup2\n      sload\n      dup2\n      mstore\n      swap1\n      0x01\n      add\n      swap1\n      0x20\n      add\n      dup1\n      dup4\n      gt\n      tag_127\n      jumpi\n      dup3\n      swap1\n      sub\n      0x1f\n      and\n      dup3\n      add\n      swap2\n    tag_125:\n      pop\n      pop\n      pop\n      pop\n      pop\n      dup2\n      mstore\n      0x20\n      add\n      0x01\n      dup3\n      add\n      dup1\n      sload\n      tag_128\n      swap1\n      tag_86\n      jump\t// in\n    tag_128:\n      dup1\n      0x1f\n      add\n      0x20\n      dup1\n      swap2\n      div\n      mul\n      0x20\n      add\n      mload(0x40)\n      swap1\n      dup2\n      add\n      0x40\n      mstore\n      dup1\n      swap3\n      swap2\n      swap1\n      dup2\n      dup2\n      mstore\n      0x20\n      add\n      dup3\n      dup1\n      sload\n      tag_129\n      swap1\n      tag_86\n      jump\t// in\n    tag_129:\n      dup1\n      iszero\n      tag_130\n      jumpi\n      dup1\n      0x1f\n      lt\n      tag_131\n      jumpi\n      0x0100\n      dup1\n      dup4\n      sload\n      div\n      mul\n      dup4\n      mstore\n      swap2\n      0x20\n      add\n      swap2\n      jump(tag_130)\n    tag_131:\n      dup3\n      add\n      swap2\n      swap1\n      0x00\n      mstore\n      keccak256(0x00, 0x20)\n      swap1\n    tag_132:\n      dup2\n      sload\n      dup2\n      mstore\n      swap1\n      0x01\n      add\n      swap1\n      0x20\n      add\n      dup1\n      dup4\n      gt\n      tag_132\n      jumpi\n      dup3\n      swap1\n      sub\n      0x1f\n      and\n      dup3\n      add\n      swap2\n    tag_130:\n      pop\n      pop\n      pop\n      pop\n      pop\n      dup2\n      mstore\n      0x20\n      add\n      0x02\n      dup3\n      add\n      dup1\n      sload\n      tag_133\n      swap1\n      tag_86\n      jump\t// in\n    tag_133:\n      dup1\n      0x1f\n      add\n      0x20\n      dup1\n      swap2\n      div\n      mul\n      0x20\n      add\n      mload(0x40)\n      swap1\n      dup2\n      add\n      0x40\n      mstore\n      dup1\n      swap3\n      swap2\n      swap1\n      dup2\n      dup2\n      mstore\n      0x20\n      add\n      dup3\n      dup1\n      sload\n      tag_134\n      swap1\n      tag_86\n      jump\t// in\n    tag_134:\n      dup1\n      iszero\n      tag_135\n      jumpi\n      dup1\n      0x1f\n      lt\n      tag_136\n      jumpi\n      0x0100\n      dup1\n      dup4\n      sload\n      div\n      mul\n      dup4\n      mstore\n      swap2\n      0x20\n      add\n      swap2\n      jump(tag_135)\n    tag_136:\n      dup3\n      add\n      swap2\n      swap1\n      0x00\n      mstore\n      keccak256(0x00, 0x20)\n      swap1\n    tag_137:\n      dup2\n      sload\n      dup2\n      mstore\n      swap1\n      0x01\n      add\n      swap1\n      0x20\n      add\n      dup1\n      dup4\n      gt\n      tag_137\n      jumpi\n      dup3\n      swap1\n      sub\n      0x1f\n      and\n      dup3\n      add\n      swap2\n    tag_135:\n      pop\n      pop\n      pop\n      pop\n      pop\n      dup2\n      mstore\n      0x20\n      add\n      0x03\n      dup3\n      add\n      dup1\n      sload\n      dup1\n      0x20\n      mul\n      0x20\n      add\n      mload(0x40)\n      swap1\n      dup2\n      add\n      0x40\n      mstore\n      dup1\n      swap3\n      swap2\n      swap1\n      dup2\n      dup2\n      mstore\n      0x20\n      add\n      0x00\n      swap1\n    tag_138:\n      dup3\n      dup3\n      lt\n      iszero\n      tag_139\n      jumpi\n      dup4\n      dup3\n      swap1\n      0x00\n      mstore\n      keccak256(0x00, 0x20)\n      add\n      dup1\n      sload\n      tag_141\n      swap1\n      tag_86\n      jump\t// in\n    tag_141:\n      dup1\n      0x1f\n      add\n      0x20\n      dup1\n      swap2\n      div\n      mul\n      0x20\n      add\n      mload(0x40)\n      swap1\n      dup2\n      add\n      0x40\n      mstore\n      dup1\n      swap3\n      swap2\n      swap1\n      dup2\n      dup2\n      mstore\n      0x20\n      add\n      dup3\n      dup1\n      sload\n      tag_142\n      swap1\n      tag_86\n      jump\t// in\n    tag_142:\n      dup1\n      iszero\n      tag_143\n      jumpi\n      dup1\n      0x1f\n      lt\n      tag_144\n      jumpi\n      0x0100\n      dup1\n      dup4\n      sload\n      div\n      mul\n      dup4\n      mstore\n      swap2\n      0x20\n      add\n      swap2\n      jump(tag_143)\n    tag_144:\n      dup3\n      add\n      swap2\n      swap1\n      0x00\n      mstore\n      keccak256(0x00, 0x20)\n      swap1\n    tag_145:\n      dup2\n      sload\n      dup2\n      mstore\n      swap1\n      0x01\n      add\n      swap1\n      0x20\n      add\n      dup1\n      dup4\n      gt\n      tag_145\n      jumpi\n      dup3\n      swap1\n      sub\n      0x1f\n      and\n      dup3\n      add\n      swap2\n    tag_143:\n      pop\n      pop\n      pop\n      pop\n      pop\n      dup2\n      mstore\n      0x20\n      add\n      swap1\n      0x01\n      add\n      swap1\n      jump(tag_138)\n    tag_139:\n      pop\n      pop\n      pop\n      pop\n      dup2\n      mstore\n      0x20\n      add\n      0x04\n      dup3\n      add\n      dup1\n      sload\n      dup1\n      0x20\n      mul\n      0x20\n      add\n      mload(0x40)\n      swap1\n      dup2\n      add\n      0x40\n      mstore\n      dup1\n      swap3\n      swap2\n      swap1\n      dup2\n      dup2\n      mstore\n      0x20\n      add\n      dup3\n      dup1\n      sload\n      dup1\n      iszero\n      tag_146\n      jumpi\n      0x20\n      mul\n      dup3\n      add\n      swap2\n      swap1\n      0x00\n      mstore\n      keccak256(0x00, 0x20)\n      swap1\n    tag_147:\n      dup2\n      sload\n      dup2\n      mstore\n      0x20\n      add\n      swap1\n      0x01\n      add\n      swap1\n      dup1\n      dup4\n      gt\n      tag_147\n      jumpi\n    tag_146:\n      pop\n      pop\n      pop\n      pop\n      pop\n      dup2\n      mstore\n      pop\n      pop\n      swap2\n      pop\n      pop\n        /* \"Contracts/Lending.sol\":3231:3696  function createUserAccount(string memory username, string[] memory _addresses) public returns (User memory) {... */\n      swap3\n      swap2\n      pop\n      pop\n      jump\t// out\n        /* \"Contracts/Lending.sol\":2372:2744  function assignWalletsToUser(string[] memory _addresses, string memory userId) public {... */\n    tag_37:\n        /* \"Contracts/Lending.sol\":2472:2478  uint i */\n      0x00\n        /* \"Contracts/Lending.sol\":2468:2738  for(uint i=0; i< _addresses.length; i++) {... */\n    tag_149:\n        /* \"Contracts/Lending.sol\":2485:2495  _addresses */\n      dup3\n        /* \"Contracts/Lending.sol\":2485:2502  _addresses.length */\n      mload\n        /* \"Contracts/Lending.sol\":2482:2483  i */\n      dup2\n        /* \"Contracts/Lending.sol\":2482:2502  i< _addresses.length */\n      lt\n        /* \"Contracts/Lending.sol\":2468:2738  for(uint i=0; i< _addresses.length; i++) {... */\n      iszero\n      tag_150\n      jumpi\n        /* \"Contracts/Lending.sol\":2523:2543  string memory wallet */\n      0x00\n        /* \"Contracts/Lending.sol\":2546:2556  _addresses */\n      dup4\n        /* \"Contracts/Lending.sol\":2557:2558  i */\n      dup3\n        /* \"Contracts/Lending.sol\":2546:2559  _addresses[i] */\n      dup2\n      mload\n      dup2\n      lt\n      tag_152\n      jumpi\n      tag_153\n      tag_154\n      jump\t// in\n    tag_153:\n    tag_152:\n      0x20\n      mul\n      0x20\n      add\n      add\n      mload\n        /* \"Contracts/Lending.sol\":2523:2559  string memory wallet = _addresses[i] */\n      swap1\n      pop\n        /* \"Contracts/Lending.sol\":2578:2613  doesKeyExist(wallet, 'userWallets') */\n      tag_155\n        /* \"Contracts/Lending.sol\":2591:2597  wallet */\n      dup2\n        /* \"Contracts/Lending.sol\":2578:2613  doesKeyExist(wallet, 'userWallets') */\n      mload(0x40)\n      dup1\n      0x40\n      add\n      0x40\n      mstore\n      dup1\n      0x0b\n      dup2\n      mstore\n      0x20\n      add\n      0x7573657257616c6c657473000000000000000000000000000000000000000000\n      dup2\n      mstore\n      pop\n        /* \"Contracts/Lending.sol\":2578:2590  doesKeyExist */\n      tag_59\n        /* \"Contracts/Lending.sol\":2578:2613  doesKeyExist(wallet, 'userWallets') */\n      jump\t// in\n    tag_155:\n        /* \"Contracts/Lending.sol\":2573:2728  if (!doesKeyExist(wallet, 'userWallets')) {... */\n      tag_156\n      jumpi\n        /* \"Contracts/Lending.sol\":2655:2661  userId */\n      dup3\n        /* \"Contracts/Lending.sol\":2633:2644  UserWallets */\n      0x05\n        /* \"Contracts/Lending.sol\":2645:2651  wallet */\n      dup3\n        /* \"Contracts/Lending.sol\":2633:2652  UserWallets[wallet] */\n      mload(0x40)\n      tag_157\n      swap2\n      swap1\n      tag_69\n      jump\t// in\n    tag_157:\n      swap1\n      dup2\n      mstore\n      0x20\n      add\n      mload(0x40)\n      dup1\n      swap2\n      sub\n      swap1\n      keccak256\n        /* \"Contracts/Lending.sol\":2633:2661  UserWallets[wallet] = userId */\n      swap1\n      dup2\n      tag_158\n      swap2\n      swap1\n      tag_71\n      jump\t// in\n    tag_158:\n      pop\n        /* \"Contracts/Lending.sol\":2679:2684  Users */\n      0x02\n        /* \"Contracts/Lending.sol\":2685:2691  userId */\n      dup4\n        /* \"Contracts/Lending.sol\":2679:2692  Users[userId] */\n      mload(0x40)\n      tag_159\n      swap2\n      swap1\n      tag_69\n      jump\t// in\n    tag_159:\n      swap1\n      dup2\n      mstore\n      0x20\n      add\n      mload(0x40)\n      dup1\n      swap2\n      sub\n      swap1\n      keccak256\n        /* \"Contracts/Lending.sol\":2679:2700  Users[userId].wallets */\n      0x03\n      add\n        /* \"Contracts/Lending.sol\":2706:2712  wallet */\n      dup2\n        /* \"Contracts/Lending.sol\":2679:2713  Users[userId].wallets.push(wallet) */\n      swap1\n      dup1\n      0x01\n      dup2\n      sload\n      add\n      dup1\n      dup3\n      sstore\n      dup1\n      swap2\n      pop\n      pop\n      0x01\n      swap1\n      sub\n      swap1\n      0x00\n      mstore\n      keccak256(0x00, 0x20)\n      add\n      0x00\n      swap1\n      swap2\n      swap1\n      swap2\n      swap1\n      swap2\n      pop\n      swap1\n      dup2\n      tag_161\n      swap2\n      swap1\n      tag_71\n      jump\t// in\n    tag_161:\n      pop\n        /* \"Contracts/Lending.sol\":2573:2728  if (!doesKeyExist(wallet, 'userWallets')) {... */\n    tag_156:\n        /* \"Contracts/Lending.sol\":2509:2738  {... */\n      pop\n        /* \"Contracts/Lending.sol\":2504:2507  i++ */\n      dup1\n      dup1\n      tag_162\n      swap1\n      tag_163\n      jump\t// in\n    tag_162:\n      swap2\n      pop\n      pop\n        /* \"Contracts/Lending.sol\":2468:2738  for(uint i=0; i< _addresses.length; i++) {... */\n      jump(tag_149)\n    tag_150:\n      pop\n        /* \"Contracts/Lending.sol\":2372:2744  function assignWalletsToUser(string[] memory _addresses, string memory userId) public {... */\n      pop\n      pop\n      jump\t// out\n        /* \"Contracts/Lending.sol\":4177:4343  function getUserByWallet(string memory addr) public view returns (User memory) {... */\n    tag_40:\n        /* \"Contracts/Lending.sol\":4243:4254  User memory */\n      tag_164\n      tag_82\n      jump\t// in\n    tag_164:\n        /* \"Contracts/Lending.sol\":4266:4286  string memory userId */\n      0x00\n        /* \"Contracts/Lending.sol\":4289:4300  UserWallets */\n      0x05\n        /* \"Contracts/Lending.sol\":4301:4305  addr */\n      dup4\n        /* \"Contracts/Lending.sol\":4289:4306  UserWallets[addr] */\n      mload(0x40)\n      tag_166\n      swap2\n      swap1\n      tag_69\n      jump\t// in\n    tag_166:\n      swap1\n      dup2\n      mstore\n      0x20\n      add\n      mload(0x40)\n      dup1\n      swap2\n      sub\n      swap1\n      keccak256\n        /* \"Contracts/Lending.sol\":4266:4306  string memory userId = UserWallets[addr] */\n      dup1\n      sload\n      tag_167\n      swap1\n      tag_86\n      jump\t// in\n    tag_167:\n      dup1\n      0x1f\n      add\n      0x20\n      dup1\n      swap2\n      div\n      mul\n      0x20\n      add\n      mload(0x40)\n      swap1\n      dup2\n      add\n      0x40\n      mstore\n      dup1\n      swap3\n      swap2\n      swap1\n      dup2\n      dup2\n      mstore\n      0x20\n      add\n      dup3\n      dup1\n      sload\n      tag_168\n      swap1\n      tag_86\n      jump\t// in\n    tag_168:\n      dup1\n      iszero\n      tag_169\n      jumpi\n      dup1\n      0x1f\n      lt\n      tag_170\n      jumpi\n      0x0100\n      dup1\n      dup4\n      sload\n      div\n      mul\n      dup4\n      mstore\n      swap2\n      0x20\n      add\n      swap2\n      jump(tag_169)\n    tag_170:\n      dup3\n      add\n      swap2\n      swap1\n      0x00\n      mstore\n      keccak256(0x00, 0x20)\n      swap1\n    tag_171:\n      dup2\n      sload\n      dup2\n      mstore\n      swap1\n      0x01\n      add\n      swap1\n      0x20\n      add\n      dup1\n      dup4\n      gt\n      tag_171\n      jumpi\n      dup3\n      swap1\n      sub\n      0x1f\n      and\n      dup3\n      add\n      swap2\n    tag_169:\n      pop\n      pop\n      pop\n      pop\n      pop\n      swap1\n      pop\n        /* \"Contracts/Lending.sol\":4323:4328  Users */\n      0x02\n        /* \"Contracts/Lending.sol\":4329:4335  userId */\n      dup2\n        /* \"Contracts/Lending.sol\":4323:4336  Users[userId] */\n      mload(0x40)\n      tag_172\n      swap2\n      swap1\n      tag_69\n      jump\t// in\n    tag_172:\n      swap1\n      dup2\n      mstore\n      0x20\n      add\n      mload(0x40)\n      dup1\n      swap2\n      sub\n      swap1\n      keccak256\n        /* \"Contracts/Lending.sol\":4316:4336  return Users[userId] */\n      mload(0x40)\n      dup1\n      0xa0\n      add\n      0x40\n      mstore\n      swap1\n      dup2\n      0x00\n      dup3\n      add\n      dup1\n      sload\n      tag_173\n      swap1\n      tag_86\n      jump\t// in\n    tag_173:\n      dup1\n      0x1f\n      add\n      0x20\n      dup1\n      swap2\n      div\n      mul\n      0x20\n      add\n      mload(0x40)\n      swap1\n      dup2\n      add\n      0x40\n      mstore\n      dup1\n      swap3\n      swap2\n      swap1\n      dup2\n      dup2\n      mstore\n      0x20\n      add\n      dup3\n      dup1\n      sload\n      tag_174\n      swap1\n      tag_86\n      jump\t// in\n    tag_174:\n      dup1\n      iszero\n      tag_175\n      jumpi\n      dup1\n      0x1f\n      lt\n      tag_176\n      jumpi\n      0x0100\n      dup1\n      dup4\n      sload\n      div\n      mul\n      dup4\n      mstore\n      swap2\n      0x20\n      add\n      swap2\n      jump(tag_175)\n    tag_176:\n      dup3\n      add\n      swap2\n      swap1\n      0x00\n      mstore\n      keccak256(0x00, 0x20)\n      swap1\n    tag_177:\n      dup2\n      sload\n      dup2\n      mstore\n      swap1\n      0x01\n      add\n      swap1\n      0x20\n      add\n      dup1\n      dup4\n      gt\n      tag_177\n      jumpi\n      dup3\n      swap1\n      sub\n      0x1f\n      and\n      dup3\n      add\n      swap2\n    tag_175:\n      pop\n      pop\n      pop\n      pop\n      pop\n      dup2\n      mstore\n      0x20\n      add\n      0x01\n      dup3\n      add\n      dup1\n      sload\n      tag_178\n      swap1\n      tag_86\n      jump\t// in\n    tag_178:\n      dup1\n      0x1f\n      add\n      0x20\n      dup1\n      swap2\n      div\n      mul\n      0x20\n      add\n      mload(0x40)\n      swap1\n      dup2\n      add\n      0x40\n      mstore\n      dup1\n      swap3\n      swap2\n      swap1\n      dup2\n      dup2\n      mstore\n      0x20\n      add\n      dup3\n      dup1\n      sload\n      tag_179\n      swap1\n      tag_86\n      jump\t// in\n    tag_179:\n      dup1\n      iszero\n      tag_180\n      jumpi\n      dup1\n      0x1f\n      lt\n      tag_181\n      jumpi\n      0x0100\n      dup1\n      dup4\n      sload\n      div\n      mul\n      dup4\n      mstore\n      swap2\n      0x20\n      add\n      swap2\n      jump(tag_180)\n    tag_181:\n      dup3\n      add\n      swap2\n      swap1\n      0x00\n      mstore\n      keccak256(0x00, 0x20)\n      swap1\n    tag_182:\n      dup2\n      sload\n      dup2\n      mstore\n      swap1\n      0x01\n      add\n      swap1\n      0x20\n      add\n      dup1\n      dup4\n      gt\n      tag_182\n      jumpi\n      dup3\n      swap1\n      sub\n      0x1f\n      and\n      dup3\n      add\n      swap2\n    tag_180:\n      pop\n      pop\n      pop\n      pop\n      pop\n      dup2\n      mstore\n      0x20\n      add\n      0x02\n      dup3\n      add\n      dup1\n      sload\n      tag_183\n      swap1\n      tag_86\n      jump\t// in\n    tag_183:\n      dup1\n      0x1f\n      add\n      0x20\n      dup1\n      swap2\n      div\n      mul\n      0x20\n      add\n      mload(0x40)\n      swap1\n      dup2\n      add\n      0x40\n      mstore\n      dup1\n      swap3\n      swap2\n      swap1\n      dup2\n      dup2\n      mstore\n      0x20\n      add\n      dup3\n      dup1\n      sload\n      tag_184\n      swap1\n      tag_86\n      jump\t// in\n    tag_184:\n      dup1\n      iszero\n      tag_185\n      jumpi\n      dup1\n      0x1f\n      lt\n      tag_186\n      jumpi\n      0x0100\n      dup1\n      dup4\n      sload\n      div\n      mul\n      dup4\n      mstore\n      swap2\n      0x20\n      add\n      swap2\n      jump(tag_185)\n    tag_186:\n      dup3\n      add\n      swap2\n      swap1\n      0x00\n      mstore\n      keccak256(0x00, 0x20)\n      swap1\n    tag_187:\n      dup2\n      sload\n      dup2\n      mstore\n      swap1\n      0x01\n      add\n      swap1\n      0x20\n      add\n      dup1\n      dup4\n      gt\n      tag_187\n      jumpi\n      dup3\n      swap1\n      sub\n      0x1f\n      and\n      dup3\n      add\n      swap2\n    tag_185:\n      pop\n      pop\n      pop\n      pop\n      pop\n      dup2\n      mstore\n      0x20\n      add\n      0x03\n      dup3\n      add\n      dup1\n      sload\n      dup1\n      0x20\n      mul\n      0x20\n      add\n      mload(0x40)\n      swap1\n      dup2\n      add\n      0x40\n      mstore\n      dup1\n      swap3\n      swap2\n      swap1\n      dup2\n      dup2\n      mstore\n      0x20\n      add\n      0x00\n      swap1\n    tag_188:\n      dup3\n      dup3\n      lt\n      iszero\n      tag_189\n      jumpi\n      dup4\n      dup3\n      swap1\n      0x00\n      mstore\n      keccak256(0x00, 0x20)\n      add\n      dup1\n      sload\n      tag_191\n      swap1\n      tag_86\n      jump\t// in\n    tag_191:\n      dup1\n      0x1f\n      add\n      0x20\n      dup1\n      swap2\n      div\n      mul\n      0x20\n      add\n      mload(0x40)\n      swap1\n      dup2\n      add\n      0x40\n      mstore\n      dup1\n      swap3\n      swap2\n      swap1\n      dup2\n      dup2\n      mstore\n      0x20\n      add\n      dup3\n      dup1\n      sload\n      tag_192\n      swap1\n      tag_86\n      jump\t// in\n    tag_192:\n      dup1\n      iszero\n      tag_193\n      jumpi\n      dup1\n      0x1f\n      lt\n      tag_194\n      jumpi\n      0x0100\n      dup1\n      dup4\n      sload\n      div\n      mul\n      dup4\n      mstore\n      swap2\n      0x20\n      add\n      swap2\n      jump(tag_193)\n    tag_194:\n      dup3\n      add\n      swap2\n      swap1\n      0x00\n      mstore\n      keccak256(0x00, 0x20)\n      swap1\n    tag_195:\n      dup2\n      sload\n      dup2\n      mstore\n      swap1\n      0x01\n      add\n      swap1\n      0x20\n      add\n      dup1\n      dup4\n      gt\n      tag_195\n      jumpi\n      dup3\n      swap1\n      sub\n      0x1f\n      and\n      dup3\n      add\n      swap2\n    tag_193:\n      pop\n      pop\n      pop\n      pop\n      pop\n      dup2\n      mstore\n      0x20\n      add\n      swap1\n      0x01\n      add\n      swap1\n      jump(tag_188)\n    tag_189:\n      pop\n      pop\n      pop\n      pop\n      dup2\n      mstore\n      0x20\n      add\n      0x04\n      dup3\n      add\n      dup1\n      sload\n      dup1\n      0x20\n      mul\n      0x20\n      add\n      mload(0x40)\n      swap1\n      dup2\n      add\n      0x40\n      mstore\n      dup1\n      swap3\n      swap2\n      swap1\n      dup2\n      dup2\n      mstore\n      0x20\n      add\n      dup3\n      dup1\n      sload\n      dup1\n      iszero\n      tag_196\n      jumpi\n      0x20\n      mul\n      dup3\n      add\n      swap2\n      swap1\n      0x00\n      mstore\n      keccak256(0x00, 0x20)\n      swap1\n    tag_197:\n      dup2\n      sload\n      dup2\n      mstore\n      0x20\n      add\n      swap1\n      0x01\n      add\n      swap1\n      dup1\n      dup4\n      gt\n      tag_197\n      jumpi\n    tag_196:\n      pop\n      pop\n      pop\n      pop\n      pop\n      dup2\n      mstore\n      pop\n      pop\n      swap2\n      pop\n      pop\n        /* \"Contracts/Lending.sol\":4177:4343  function getUserByWallet(string memory addr) public view returns (User memory) {... */\n      swap2\n      swap1\n      pop\n      jump\t// out\n        /* \"Contracts/Lending.sol\":4349:4430  function getOwner() external view returns (address) {... */\n    tag_43:\n        /* \"Contracts/Lending.sol\":4392:4399  address */\n      0x00\n        /* \"Contracts/Lending.sol\":4418:4423  owner */\n      dup1\n      0x00\n      swap1\n      sload\n      swap1\n      0x0100\n      exp\n      swap1\n      div\n      0xffffffffffffffffffffffffffffffffffffffff\n      and\n        /* \"Contracts/Lending.sol\":4411:4423  return owner */\n      swap1\n      pop\n        /* \"Contracts/Lending.sol\":4349:4430  function getOwner() external view returns (address) {... */\n      swap1\n      jump\t// out\n        /* \"Contracts/Lending.sol\":4436:4478  function makeRentRequest() public {... */\n    tag_47:\n      jump\t// out\n        /* \"Contracts/Lending.sol\":1218:1614  function compareStrings(string memory a, string memory b) public pure returns (bool) {... */\n    tag_50:\n        /* \"Contracts/Lending.sol\":1297:1301  bool */\n      0x00\n        /* \"Contracts/Lending.sol\":1342:1343  b */\n      dup2\n        /* \"Contracts/Lending.sol\":1336:1351  bytes(b).length */\n      mload\n        /* \"Contracts/Lending.sol\":1323:1324  a */\n      dup4\n        /* \"Contracts/Lending.sol\":1317:1332  bytes(a).length */\n      mload\n        /* \"Contracts/Lending.sol\":1317:1351  bytes(a).length != bytes(b).length */\n      eq\n        /* \"Contracts/Lending.sol\":1313:1608  if (bytes(a).length != bytes(b).length) {... */\n      tag_201\n      jumpi\n        /* \"Contracts/Lending.sol\":1374:1379  false */\n      0x00\n        /* \"Contracts/Lending.sol\":1367:1379  return false */\n      swap1\n      pop\n      jump(tag_200)\n        /* \"Contracts/Lending.sol\":1313:1608  if (bytes(a).length != bytes(b).length) {... */\n    tag_201:\n        /* \"Contracts/Lending.sol\":1415:1424  uint256 i */\n      0x00\n        /* \"Contracts/Lending.sol\":1410:1573  for (uint256 i = 0; i < bytes(a).length; i++) {... */\n    tag_203:\n        /* \"Contracts/Lending.sol\":1440:1441  a */\n      dup4\n        /* \"Contracts/Lending.sol\":1434:1449  bytes(a).length */\n      mload\n        /* \"Contracts/Lending.sol\":1430:1431  i */\n      dup2\n        /* \"Contracts/Lending.sol\":1430:1449  i < bytes(a).length */\n      lt\n        /* \"Contracts/Lending.sol\":1410:1573  for (uint256 i = 0; i < bytes(a).length; i++) {... */\n      iszero\n      tag_204\n      jumpi\n        /* \"Contracts/Lending.sol\":1499:1500  b */\n      dup3\n        /* \"Contracts/Lending.sol\":1502:1503  i */\n      dup2\n        /* \"Contracts/Lending.sol\":1493:1504  bytes(b)[i] */\n      dup2\n      mload\n      dup2\n      lt\n      tag_206\n      jumpi\n      tag_207\n      tag_154\n      jump\t// in\n    tag_207:\n    tag_206:\n      0x20\n      add\n      add\n      mload\n      0xf8\n      shr\n      0xf8\n      shl\n        /* \"Contracts/Lending.sol\":1478:1504  bytes(a)[i] != bytes(b)[i] */\n      not(0xffffffffffffffffffffffffffffffffffffffffffffffffffffffffffffff)\n      and\n        /* \"Contracts/Lending.sol\":1484:1485  a */\n      dup5\n        /* \"Contracts/Lending.sol\":1487:1488  i */\n      dup3\n        /* \"Contracts/Lending.sol\":1478:1489  bytes(a)[i] */\n      dup2\n      mload\n      dup2\n      lt\n      tag_208\n      jumpi\n      tag_209\n      tag_154\n      jump\t// in\n    tag_209:\n    tag_208:\n      0x20\n      add\n      add\n      mload\n      0xf8\n      shr\n      0xf8\n      shl\n        /* \"Contracts/Lending.sol\":1478:1504  bytes(a)[i] != bytes(b)[i] */\n      not(0xffffffffffffffffffffffffffffffffffffffffffffffffffffffffffffff)\n      and\n      eq\n        /* \"Contracts/Lending.sol\":1474:1559  if (bytes(a)[i] != bytes(b)[i]) {... */\n      tag_210\n      jumpi\n        /* \"Contracts/Lending.sol\":1535:1540  false */\n      0x00\n        /* \"Contracts/Lending.sol\":1528:1540  return false */\n      swap2\n      pop\n      pop\n      jump(tag_200)\n        /* \"Contracts/Lending.sol\":1474:1559  if (bytes(a)[i] != bytes(b)[i]) {... */\n    tag_210:\n        /* \"Contracts/Lending.sol\":1451:1454  i++ */\n      dup1\n      dup1\n      tag_211\n      swap1\n      tag_163\n      jump\t// in\n    tag_211:\n      swap2\n      pop\n      pop\n        /* \"Contracts/Lending.sol\":1410:1573  for (uint256 i = 0; i < bytes(a).length; i++) {... */\n      jump(tag_203)\n    tag_204:\n      pop\n        /* \"Contracts/Lending.sol\":1593:1597  true */\n      0x01\n        /* \"Contracts/Lending.sol\":1586:1597  return true */\n      swap1\n      pop\n        /* \"Contracts/Lending.sol\":1218:1614  function compareStrings(string memory a, string memory b) public pure returns (bool) {... */\n    tag_200:\n      swap3\n      swap2\n      pop\n      pop\n      jump\t// out\n        /* \"Contracts/Lending.sol\":3823:3991  function getUserByLens(string memory lens) public view returns (User memory) {... */\n    tag_55:\n        /* \"Contracts/Lending.sol\":3887:3898  User memory */\n      tag_212\n      tag_82\n      jump\t// in\n    tag_212:\n        /* \"Contracts/Lending.sol\":3910:3930  string memory userId */\n      0x00\n        /* \"Contracts/Lending.sol\":3933:3948  UserLensHandles */\n      0x06\n        /* \"Contracts/Lending.sol\":3949:3953  lens */\n      dup4\n        /* \"Contracts/Lending.sol\":3933:3954  UserLensHandles[lens] */\n      mload(0x40)\n      tag_214\n      swap2\n      swap1\n      tag_69\n      jump\t// in\n    tag_214:\n      swap1\n      dup2\n      mstore\n      0x20\n      add\n      mload(0x40)\n      dup1\n      swap2\n      sub\n      swap1\n      keccak256\n        /* \"Contracts/Lending.sol\":3910:3954  string memory userId = UserLensHandles[lens] */\n      dup1\n      sload\n      tag_215\n      swap1\n      tag_86\n      jump\t// in\n    tag_215:\n      dup1\n      0x1f\n      add\n      0x20\n      dup1\n      swap2\n      div\n      mul\n      0x20\n      add\n      mload(0x40)\n      swap1\n      dup2\n      add\n      0x40\n      mstore\n      dup1\n      swap3\n      swap2\n      swap1\n      dup2\n      dup2\n      mstore\n      0x20\n      add\n      dup3\n      dup1\n      sload\n      tag_216\n      swap1\n      tag_86\n      jump\t// in\n    tag_216:\n      dup1\n      iszero\n      tag_217\n      jumpi\n      dup1\n      0x1f\n      lt\n      tag_218\n      jumpi\n      0x0100\n      dup1\n      dup4\n      sload\n      div\n      mul\n      dup4\n      mstore\n      swap2\n      0x20\n      add\n      swap2\n      jump(tag_217)\n    tag_218:\n      dup3\n      add\n      swap2\n      swap1\n      0x00\n      mstore\n      keccak256(0x00, 0x20)\n      swap1\n    tag_219:\n      dup2\n      sload\n      dup2\n      mstore\n      swap1\n      0x01\n      add\n      swap1\n      0x20\n      add\n      dup1\n      dup4\n      gt\n      tag_219\n      jumpi\n      dup3\n      swap1\n      sub\n      0x1f\n      and\n      dup3\n      add\n      swap2\n    tag_217:\n      pop\n      pop\n      pop\n      pop\n      pop\n      swap1\n      pop\n        /* \"Contracts/Lending.sol\":3971:3976  Users */\n      0x02\n        /* \"Contracts/Lending.sol\":3977:3983  userId */\n      dup2\n        /* \"Contracts/Lending.sol\":3971:3984  Users[userId] */\n      mload(0x40)\n      tag_220\n      swap2\n      swap1\n      tag_69\n      jump\t// in\n    tag_220:\n      swap1\n      dup2\n      mstore\n      0x20\n      add\n      mload(0x40)\n      dup1\n      swap2\n      sub\n      swap1\n      keccak256\n        /* \"Contracts/Lending.sol\":3964:3984  return Users[userId] */\n      mload(0x40)\n      dup1\n      0xa0\n      add\n      0x40\n      mstore\n      swap1\n      dup2\n      0x00\n      dup3\n      add\n      dup1\n      sload\n      tag_221\n      swap1\n      tag_86\n      jump\t// in\n    tag_221:\n      dup1\n      0x1f\n      add\n      0x20\n      dup1\n      swap2\n      div\n      mul\n      0x20\n      add\n      mload(0x40)\n      swap1\n      dup2\n      add\n      0x40\n      mstore\n      dup1\n      swap3\n      swap2\n      swap1\n      dup2\n      dup2\n      mstore\n      0x20\n      add\n      dup3\n      dup1\n      sload\n      tag_222\n      swap1\n      tag_86\n      jump\t// in\n    tag_222:\n      dup1\n      iszero\n      tag_223\n      jumpi\n      dup1\n      0x1f\n      lt\n      tag_224\n      jumpi\n      0x0100\n      dup1\n      dup4\n      sload\n      div\n      mul\n      dup4\n      mstore\n      swap2\n      0x20\n      add\n      swap2\n      jump(tag_223)\n    tag_224:\n      dup3\n      add\n      swap2\n      swap1\n      0x00\n      mstore\n      keccak256(0x00, 0x20)\n      swap1\n    tag_225:\n      dup2\n      sload\n      dup2\n      mstore\n      swap1\n      0x01\n      add\n      swap1\n      0x20\n      add\n      dup1\n      dup4\n      gt\n      tag_225\n      jumpi\n      dup3\n      swap1\n      sub\n      0x1f\n      and\n      dup3\n      add\n      swap2\n    tag_223:\n      pop\n      pop\n      pop\n      pop\n      pop\n      dup2\n      mstore\n      0x20\n      add\n      0x01\n      dup3\n      add\n      dup1\n      sload\n      tag_226\n      swap1\n      tag_86\n      jump\t// in\n    tag_226:\n      dup1\n      0x1f\n      add\n      0x20\n      dup1\n      swap2\n      div\n      mul\n      0x20\n      add\n      mload(0x40)\n      swap1\n      dup2\n      add\n      0x40\n      mstore\n      dup1\n      swap3\n      swap2\n      swap1\n      dup2\n      dup2\n      mstore\n      0x20\n      add\n      dup3\n      dup1\n      sload\n      tag_227\n      swap1\n      tag_86\n      jump\t// in\n    tag_227:\n      dup1\n      iszero\n      tag_228\n      jumpi\n      dup1\n      0x1f\n      lt\n      tag_229\n      jumpi\n      0x0100\n      dup1\n      dup4\n      sload\n      div\n      mul\n      dup4\n      mstore\n      swap2\n      0x20\n      add\n      swap2\n      jump(tag_228)\n    tag_229:\n      dup3\n      add\n      swap2\n      swap1\n      0x00\n      mstore\n      keccak256(0x00, 0x20)\n      swap1\n    tag_230:\n      dup2\n      sload\n      dup2\n      mstore\n      swap1\n      0x01\n      add\n      swap1\n      0x20\n      add\n      dup1\n      dup4\n      gt\n      tag_230\n      jumpi\n      dup3\n      swap1\n      sub\n      0x1f\n      and\n      dup3\n      add\n      swap2\n    tag_228:\n      pop\n      pop\n      pop\n      pop\n      pop\n      dup2\n      mstore\n      0x20\n      add\n      0x02\n      dup3\n      add\n      dup1\n      sload\n      tag_231\n      swap1\n      tag_86\n      jump\t// in\n    tag_231:\n      dup1\n      0x1f\n      add\n      0x20\n      dup1\n      swap2\n      div\n      mul\n      0x20\n      add\n      mload(0x40)\n      swap1\n      dup2\n      add\n      0x40\n      mstore\n      dup1\n      swap3\n      swap2\n      swap1\n      dup2\n      dup2\n      mstore\n      0x20\n      add\n      dup3\n      dup1\n      sload\n      tag_232\n      swap1\n      tag_86\n      jump\t// in\n    tag_232:\n      dup1\n      iszero\n      tag_233\n      jumpi\n      dup1\n      0x1f\n      lt\n      tag_234\n      jumpi\n      0x0100\n      dup1\n      dup4\n      sload\n      div\n      mul\n      dup4\n      mstore\n      swap2\n      0x20\n      add\n      swap2\n      jump(tag_233)\n    tag_234:\n      dup3\n      add\n      swap2\n      swap1\n      0x00\n      mstore\n      keccak256(0x00, 0x20)\n      swap1\n    tag_235:\n      dup2\n      sload\n      dup2\n      mstore\n      swap1\n      0x01\n      add\n      swap1\n      0x20\n      add\n      dup1\n      dup4\n      gt\n      tag_235\n      jumpi\n      dup3\n      swap1\n      sub\n      0x1f\n      and\n      dup3\n      add\n      swap2\n    tag_233:\n      pop\n      pop\n      pop\n      pop\n      pop\n      dup2\n      mstore\n      0x20\n      add\n      0x03\n      dup3\n      add\n      dup1\n      sload\n      dup1\n      0x20\n      mul\n      0x20\n      add\n      mload(0x40)\n      swap1\n      dup2\n      add\n      0x40\n      mstore\n      dup1\n      swap3\n      swap2\n      swap1\n      dup2\n      dup2\n      mstore\n      0x20\n      add\n      0x00\n      swap1\n    tag_236:\n      dup3\n      dup3\n      lt\n      iszero\n      tag_237\n      jumpi\n      dup4\n      dup3\n      swap1\n      0x00\n      mstore\n      keccak256(0x00, 0x20)\n      add\n      dup1\n      sload\n      tag_239\n      swap1\n      tag_86\n      jump\t// in\n    tag_239:\n      dup1\n      0x1f\n      add\n      0x20\n      dup1\n      swap2\n      div\n      mul\n      0x20\n      add\n      mload(0x40)\n      swap1\n      dup2\n      add\n      0x40\n      mstore\n      dup1\n      swap3\n      swap2\n      swap1\n      dup2\n      dup2\n      mstore\n      0x20\n      add\n      dup3\n      dup1\n      sload\n      tag_240\n      swap1\n      tag_86\n      jump\t// in\n    tag_240:\n      dup1\n      iszero\n      tag_241\n      jumpi\n      dup1\n      0x1f\n      lt\n      tag_242\n      jumpi\n      0x0100\n      dup1\n      dup4\n      sload\n      div\n      mul\n      dup4\n      mstore\n      swap2\n      0x20\n      add\n      swap2\n      jump(tag_241)\n    tag_242:\n      dup3\n      add\n      swap2\n      swap1\n      0x00\n      mstore\n      keccak256(0x00, 0x20)\n      swap1\n    tag_243:\n      dup2\n      sload\n      dup2\n      mstore\n      swap1\n      0x01\n      add\n      swap1\n      0x20\n      add\n      dup1\n      dup4\n      gt\n      tag_243\n      jumpi\n      dup3\n      swap1\n      sub\n      0x1f\n      and\n      dup3\n      add\n      swap2\n    tag_241:\n      pop\n      pop\n      pop\n      pop\n      pop\n      dup2\n      mstore\n      0x20\n      add\n      swap1\n      0x01\n      add\n      swap1\n      jump(tag_236)\n    tag_237:\n      pop\n      pop\n      pop\n      pop\n      dup2\n      mstore\n      0x20\n      add\n      0x04\n      dup3\n      add\n      dup1\n      sload\n      dup1\n      0x20\n      mul\n      0x20\n      add\n      mload(0x40)\n      swap1\n      dup2\n      add\n      0x40\n      mstore\n      dup1\n      swap3\n      swap2\n      swap1\n      dup2\n      dup2\n      mstore\n      0x20\n      add\n      dup3\n      dup1\n      sload\n      dup1\n      iszero\n      tag_244\n      jumpi\n      0x20\n      mul\n      dup3\n      add\n      swap2\n      swap1\n      0x00\n      mstore\n      keccak256(0x00, 0x20)\n      swap1\n    tag_245:\n      dup2\n      sload\n      dup2\n      mstore\n      0x20\n      add\n      swap1\n      0x01\n      add\n      swap1\n      dup1\n      dup4\n      gt\n      tag_245\n      jumpi\n    tag_244:\n      pop\n      pop\n      pop\n      pop\n      pop\n      dup2\n      mstore\n      pop\n      pop\n      swap2\n      pop\n      pop\n        /* \"Contracts/Lending.sol\":3823:3991  function getUserByLens(string memory lens) public view returns (User memory) {... */\n      swap2\n      swap1\n      pop\n      jump\t// out\n        /* \"Contracts/Lending.sol\":1676:2302  function doesKeyExist(string memory key, string memory variable) public view returns (bool) {... */\n    tag_59:\n        /* \"Contracts/Lending.sol\":1762:1766  bool */\n      0x00\n        /* \"Contracts/Lending.sol\":1783:1822  compareStrings(variable, 'userWallets') */\n      tag_247\n        /* \"Contracts/Lending.sol\":1798:1806  variable */\n      dup3\n        /* \"Contracts/Lending.sol\":1783:1822  compareStrings(variable, 'userWallets') */\n      mload(0x40)\n      dup1\n      0x40\n      add\n      0x40\n      mstore\n      dup1\n      0x0b\n      dup2\n      mstore\n      0x20\n      add\n      0x7573657257616c6c657473000000000000000000000000000000000000000000\n      dup2\n      mstore\n      pop\n        /* \"Contracts/Lending.sol\":1783:1797  compareStrings */\n      tag_50\n        /* \"Contracts/Lending.sol\":1783:1822  compareStrings(variable, 'userWallets') */\n      jump\t// in\n    tag_247:\n        /* \"Contracts/Lending.sol\":1779:1936  if (compareStrings(variable, 'userWallets')) {... */\n      iszero\n      tag_248\n      jumpi\n        /* \"Contracts/Lending.sol\":1904:1924  abi.encodePacked(\"\") */\n      add(0x20, mload(0x40))\n      tag_249\n      swap1\n      tag_250\n      jump\t// in\n    tag_249:\n      mload(0x40)\n      0x20\n      dup2\n      dup4\n      sub\n      sub\n      dup2\n      mstore\n      swap1\n      0x40\n      mstore\n        /* \"Contracts/Lending.sol\":1894:1925  keccak256(abi.encodePacked(\"\")) */\n      dup1\n      mload\n      swap1\n      0x20\n      add\n      keccak256\n        /* \"Contracts/Lending.sol\":1872:1883  UserWallets */\n      0x05\n        /* \"Contracts/Lending.sol\":1884:1887  key */\n      dup5\n        /* \"Contracts/Lending.sol\":1872:1888  UserWallets[key] */\n      mload(0x40)\n      tag_251\n      swap2\n      swap1\n      tag_69\n      jump\t// in\n    tag_251:\n      swap1\n      dup2\n      mstore\n      0x20\n      add\n      mload(0x40)\n      dup1\n      swap2\n      sub\n      swap1\n      keccak256\n        /* \"Contracts/Lending.sol\":1855:1889  abi.encodePacked(UserWallets[key]) */\n      add(0x20, mload(0x40))\n      tag_252\n      swap2\n      swap1\n      tag_253\n      jump\t// in\n    tag_252:\n      mload(0x40)\n      0x20\n      dup2\n      dup4\n      sub\n      sub\n      dup2\n      mstore\n      swap1\n      0x40\n      mstore\n        /* \"Contracts/Lending.sol\":1845:1890  keccak256(abi.encodePacked(UserWallets[key])) */\n      dup1\n      mload\n      swap1\n      0x20\n      add\n      keccak256\n        /* \"Contracts/Lending.sol\":1845:1925  keccak256(abi.encodePacked(UserWallets[key])) != keccak256(abi.encodePacked(\"\")) */\n      eq\n      iszero\n        /* \"Contracts/Lending.sol\":1838:1925  return keccak256(abi.encodePacked(UserWallets[key])) != keccak256(abi.encodePacked(\"\")) */\n      swap1\n      pop\n      jump(tag_246)\n        /* \"Contracts/Lending.sol\":1779:1936  if (compareStrings(variable, 'userWallets')) {... */\n    tag_248:\n        /* \"Contracts/Lending.sol\":1950:1986  compareStrings(variable, 'userLens') */\n      tag_254\n        /* \"Contracts/Lending.sol\":1965:1973  variable */\n      dup3\n        /* \"Contracts/Lending.sol\":1950:1986  compareStrings(variable, 'userLens') */\n      mload(0x40)\n      dup1\n      0x40\n      add\n      0x40\n      mstore\n      dup1\n      0x08\n      dup2\n      mstore\n      0x20\n      add\n      0x757365724c656e73000000000000000000000000000000000000000000000000\n      dup2\n      mstore\n      pop\n        /* \"Contracts/Lending.sol\":1950:1964  compareStrings */\n      tag_50\n        /* \"Contracts/Lending.sol\":1950:1986  compareStrings(variable, 'userLens') */\n      jump\t// in\n    tag_254:\n        /* \"Contracts/Lending.sol\":1946:2104  if (compareStrings(variable, 'userLens')) {... */\n      iszero\n      tag_255\n      jumpi\n        /* \"Contracts/Lending.sol\":2072:2092  abi.encodePacked(\"\") */\n      add(0x20, mload(0x40))\n      tag_256\n      swap1\n      tag_250\n      jump\t// in\n    tag_256:\n      mload(0x40)\n      0x20\n      dup2\n      dup4\n      sub\n      sub\n      dup2\n      mstore\n      swap1\n      0x40\n      mstore\n        /* \"Contracts/Lending.sol\":2062:2093  keccak256(abi.encodePacked(\"\")) */\n      dup1\n      mload\n      swap1\n      0x20\n      add\n      keccak256\n        /* \"Contracts/Lending.sol\":2036:2051  UserLensHandles */\n      0x06\n        /* \"Contracts/Lending.sol\":2052:2055  key */\n      dup5\n        /* \"Contracts/Lending.sol\":2036:2056  UserLensHandles[key] */\n      mload(0x40)\n      tag_257\n      swap2\n      swap1\n      tag_69\n      jump\t// in\n    tag_257:\n      swap1\n      dup2\n      mstore\n      0x20\n      add\n      mload(0x40)\n      dup1\n      swap2\n      sub\n      swap1\n      keccak256\n        /* \"Contracts/Lending.sol\":2019:2057  abi.encodePacked(UserLensHandles[key]) */\n      add(0x20, mload(0x40))\n      tag_258\n      swap2\n      swap1\n      tag_253\n      jump\t// in\n    tag_258:\n      mload(0x40)\n      0x20\n      dup2\n      dup4\n      sub\n      sub\n      dup2\n      mstore\n      swap1\n      0x40\n      mstore\n        /* \"Contracts/Lending.sol\":2009:2058  keccak256(abi.encodePacked(UserLensHandles[key])) */\n      dup1\n      mload\n      swap1\n      0x20\n      add\n      keccak256\n        /* \"Contracts/Lending.sol\":2009:2093  keccak256(abi.encodePacked(UserLensHandles[key])) != keccak256(abi.encodePacked(\"\")) */\n      eq\n      iszero\n        /* \"Contracts/Lending.sol\":2002:2093  return keccak256(abi.encodePacked(UserLensHandles[key])) != keccak256(abi.encodePacked(\"\")) */\n      swap1\n      pop\n      jump(tag_246)\n        /* \"Contracts/Lending.sol\":1946:2104  if (compareStrings(variable, 'userLens')) {... */\n    tag_255:\n        /* \"Contracts/Lending.sol\":2118:2154  compareStrings(variable, 'userWCID') */\n      tag_259\n        /* \"Contracts/Lending.sol\":2133:2141  variable */\n      dup3\n        /* \"Contracts/Lending.sol\":2118:2154  compareStrings(variable, 'userWCID') */\n      mload(0x40)\n      dup1\n      0x40\n      add\n      0x40\n      mstore\n      dup1\n      0x08\n      dup2\n      mstore\n      0x20\n      add\n      0x7573657257434944000000000000000000000000000000000000000000000000\n      dup2\n      mstore\n      pop\n        /* \"Contracts/Lending.sol\":2118:2132  compareStrings */\n      tag_50\n        /* \"Contracts/Lending.sol\":2118:2154  compareStrings(variable, 'userWCID') */\n      jump\t// in\n    tag_259:\n        /* \"Contracts/Lending.sol\":2114:2273  if (compareStrings(variable, 'userWCID')) {... */\n      iszero\n      tag_260\n      jumpi\n        /* \"Contracts/Lending.sol\":2241:2261  abi.encodePacked(\"\") */\n      add(0x20, mload(0x40))\n      tag_261\n      swap1\n      tag_250\n      jump\t// in\n    tag_261:\n      mload(0x40)\n      0x20\n      dup2\n      dup4\n      sub\n      sub\n      dup2\n      mstore\n      swap1\n      0x40\n      mstore\n        /* \"Contracts/Lending.sol\":2231:2262  keccak256(abi.encodePacked(\"\")) */\n      dup1\n      mload\n      swap1\n      0x20\n      add\n      keccak256\n        /* \"Contracts/Lending.sol\":2204:2220  UserWorldCoinIds */\n      0x04\n        /* \"Contracts/Lending.sol\":2221:2224  key */\n      dup5\n        /* \"Contracts/Lending.sol\":2204:2225  UserWorldCoinIds[key] */\n      mload(0x40)\n      tag_262\n      swap2\n      swap1\n      tag_69\n      jump\t// in\n    tag_262:\n      swap1\n      dup2\n      mstore\n      0x20\n      add\n      mload(0x40)\n      dup1\n      swap2\n      sub\n      swap1\n      keccak256\n        /* \"Contracts/Lending.sol\":2187:2226  abi.encodePacked(UserWorldCoinIds[key]) */\n      add(0x20, mload(0x40))\n      tag_263\n      swap2\n      swap1\n      tag_253\n      jump\t// in\n    tag_263:\n      mload(0x40)\n      0x20\n      dup2\n      dup4\n      sub\n      sub\n      dup2\n      mstore\n      swap1\n      0x40\n      mstore\n        /* \"Contracts/Lending.sol\":2177:2227  keccak256(abi.encodePacked(UserWorldCoinIds[key])) */\n      dup1\n      mload\n      swap1\n      0x20\n      add\n      keccak256\n        /* \"Contracts/Lending.sol\":2177:2262  keccak256(abi.encodePacked(UserWorldCoinIds[key])) != keccak256(abi.encodePacked(\"\")) */\n      eq\n      iszero\n        /* \"Contracts/Lending.sol\":2170:2262  return keccak256(abi.encodePacked(UserWorldCoinIds[key])) != keccak256(abi.encodePacked(\"\")) */\n      swap1\n      pop\n      jump(tag_246)\n        /* \"Contracts/Lending.sol\":2114:2273  if (compareStrings(variable, 'userWCID')) {... */\n    tag_260:\n        /* \"Contracts/Lending.sol\":2290:2295  false */\n      0x00\n        /* \"Contracts/Lending.sol\":2283:2295  return false */\n      swap1\n      pop\n        /* \"Contracts/Lending.sol\":1676:2302  function doesKeyExist(string memory key, string memory variable) public view returns (bool) {... */\n    tag_246:\n      swap3\n      swap2\n      pop\n      pop\n      jump\t// out\n        /* \"Contracts/Lending.sol\":3997:4171  function getUserByWorldCoin(string memory WCID) public view returns (User memory) {... */\n    tag_63:\n        /* \"Contracts/Lending.sol\":4066:4077  User memory */\n      tag_264\n      tag_82\n      jump\t// in\n    tag_264:\n        /* \"Contracts/Lending.sol\":4089:4109  string memory userId */\n      0x00\n        /* \"Contracts/Lending.sol\":4112:4128  UserWorldCoinIds */\n      0x04\n        /* \"Contracts/Lending.sol\":4129:4133  WCID */\n      dup4\n        /* \"Contracts/Lending.sol\":4112:4134  UserWorldCoinIds[WCID] */\n      mload(0x40)\n      tag_266\n      swap2\n      swap1\n      tag_69\n      jump\t// in\n    tag_266:\n      swap1\n      dup2\n      mstore\n      0x20\n      add\n      mload(0x40)\n      dup1\n      swap2\n      sub\n      swap1\n      keccak256\n        /* \"Contracts/Lending.sol\":4089:4134  string memory userId = UserWorldCoinIds[WCID] */\n      dup1\n      sload\n      tag_267\n      swap1\n      tag_86\n      jump\t// in\n    tag_267:\n      dup1\n      0x1f\n      add\n      0x20\n      dup1\n      swap2\n      div\n      mul\n      0x20\n      add\n      mload(0x40)\n      swap1\n      dup2\n      add\n      0x40\n      mstore\n      dup1\n      swap3\n      swap2\n      swap1\n      dup2\n      dup2\n      mstore\n      0x20\n      add\n      dup3\n      dup1\n      sload\n      tag_268\n      swap1\n      tag_86\n      jump\t// in\n    tag_268:\n      dup1\n      iszero\n      tag_269\n      jumpi\n      dup1\n      0x1f\n      lt\n      tag_270\n      jumpi\n      0x0100\n      dup1\n      dup4\n      sload\n      div\n      mul\n      dup4\n      mstore\n      swap2\n      0x20\n      add\n      swap2\n      jump(tag_269)\n    tag_270:\n      dup3\n      add\n      swap2\n      swap1\n      0x00\n      mstore\n      keccak256(0x00, 0x20)\n      swap1\n    tag_271:\n      dup2\n      sload\n      dup2\n      mstore\n      swap1\n      0x01\n      add\n      swap1\n      0x20\n      add\n      dup1\n      dup4\n      gt\n      tag_271\n      jumpi\n      dup3\n      swap1\n      sub\n      0x1f\n      and\n      dup3\n      add\n      swap2\n    tag_269:\n      pop\n      pop\n      pop\n      pop\n      pop\n      swap1\n      pop\n        /* \"Contracts/Lending.sol\":4151:4156  Users */\n      0x02\n        /* \"Contracts/Lending.sol\":4157:4163  userId */\n      dup2\n        /* \"Contracts/Lending.sol\":4151:4164  Users[userId] */\n      mload(0x40)\n      tag_272\n      swap2\n      swap1\n      tag_69\n      jump\t// in\n    tag_272:\n      swap1\n      dup2\n      mstore\n      0x20\n      add\n      mload(0x40)\n      dup1\n      swap2\n      sub\n      swap1\n      keccak256\n        /* \"Contracts/Lending.sol\":4144:4164  return Users[userId] */\n      mload(0x40)\n      dup1\n      0xa0\n      add\n      0x40\n      mstore\n      swap1\n      dup2\n      0x00\n      dup3\n      add\n      dup1\n      sload\n      tag_273\n      swap1\n      tag_86\n      jump\t// in\n    tag_273:\n      dup1\n      0x1f\n      add\n      0x20\n      dup1\n      swap2\n      div\n      mul\n      0x20\n      add\n      mload(0x40)\n      swap1\n      dup2\n      add\n      0x40\n      mstore\n      dup1\n      swap3\n      swap2\n      swap1\n      dup2\n      dup2\n      mstore\n      0x20\n      add\n      dup3\n      dup1\n      sload\n      tag_274\n      swap1\n      tag_86\n      jump\t// in\n    tag_274:\n      dup1\n      iszero\n      tag_275\n      jumpi\n      dup1\n      0x1f\n      lt\n      tag_276\n      jumpi\n      0x0100\n      dup1\n      dup4\n      sload\n      div\n      mul\n      dup4\n      mstore\n      swap2\n      0x20\n      add\n      swap2\n      jump(tag_275)\n    tag_276:\n      dup3\n      add\n      swap2\n      swap1\n      0x00\n      mstore\n      keccak256(0x00, 0x20)\n      swap1\n    tag_277:\n      dup2\n      sload\n      dup2\n      mstore\n      swap1\n      0x01\n      add\n      swap1\n      0x20\n      add\n      dup1\n      dup4\n      gt\n      tag_277\n      jumpi\n      dup3\n      swap1\n      sub\n      0x1f\n      and\n      dup3\n      add\n      swap2\n    tag_275:\n      pop\n      pop\n      pop\n      pop\n      pop\n      dup2\n      mstore\n      0x20\n      add\n      0x01\n      dup3\n      add\n      dup1\n      sload\n      tag_278\n      swap1\n      tag_86\n      jump\t// in\n    tag_278:\n      dup1\n      0x1f\n      add\n      0x20\n      dup1\n      swap2\n      div\n      mul\n      0x20\n      add\n      mload(0x40)\n      swap1\n      dup2\n      add\n      0x40\n      mstore\n      dup1\n      swap3\n      swap2\n      swap1\n      dup2\n      dup2\n      mstore\n      0x20\n      add\n      dup3\n      dup1\n      sload\n      tag_279\n      swap1\n      tag_86\n      jump\t// in\n    tag_279:\n      dup1\n      iszero\n      tag_280\n      jumpi\n      dup1\n      0x1f\n      lt\n      tag_281\n      jumpi\n      0x0100\n      dup1\n      dup4\n      sload\n      div\n      mul\n      dup4\n      mstore\n      swap2\n      0x20\n      add\n      swap2\n      jump(tag_280)\n    tag_281:\n      dup3\n      add\n      swap2\n      swap1\n      0x00\n      mstore\n      keccak256(0x00, 0x20)\n      swap1\n    tag_282:\n      dup2\n      sload\n      dup2\n      mstore\n      swap1\n      0x01\n      add\n      swap1\n      0x20\n      add\n      dup1\n      dup4\n      gt\n      tag_282\n      jumpi\n      dup3\n      swap1\n      sub\n      0x1f\n      and\n      dup3\n      add\n      swap2\n    tag_280:\n      pop\n      pop\n      pop\n      pop\n      pop\n      dup2\n      mstore\n      0x20\n      add\n      0x02\n      dup3\n      add\n      dup1\n      sload\n      tag_283\n      swap1\n      tag_86\n      jump\t// in\n    tag_283:\n      dup1\n      0x1f\n      add\n      0x20\n      dup1\n      swap2\n      div\n      mul\n      0x20\n      add\n      mload(0x40)\n      swap1\n      dup2\n      add\n      0x40\n      mstore\n      dup1\n      swap3\n      swap2\n      swap1\n      dup2\n      dup2\n      mstore\n      0x20\n      add\n      dup3\n      dup1\n      sload\n      tag_284\n      swap1\n      tag_86\n      jump\t// in\n    tag_284:\n      dup1\n      iszero\n      tag_285\n      jumpi\n      dup1\n      0x1f\n      lt\n      tag_286\n      jumpi\n      0x0100\n      dup1\n      dup4\n      sload\n      div\n      mul\n      dup4\n      mstore\n      swap2\n      0x20\n      add\n      swap2\n      jump(tag_285)\n    tag_286:\n      dup3\n      add\n      swap2\n      swap1\n      0x00\n      mstore\n      keccak256(0x00, 0x20)\n      swap1\n    tag_287:\n      dup2\n      sload\n      dup2\n      mstore\n      swap1\n      0x01\n      add\n      swap1\n      0x20\n      add\n      dup1\n      dup4\n      gt\n      tag_287\n      jumpi\n      dup3\n      swap1\n      sub\n      0x1f\n      and\n      dup3\n      add\n      swap2\n    tag_285:\n      pop\n      pop\n      pop\n      pop\n      pop\n      dup2\n      mstore\n      0x20\n      add\n      0x03\n      dup3\n      add\n      dup1\n      sload\n      dup1\n      0x20\n      mul\n      0x20\n      add\n      mload(0x40)\n      swap1\n      dup2\n      add\n      0x40\n      mstore\n      dup1\n      swap3\n      swap2\n      swap1\n      dup2\n      dup2\n      mstore\n      0x20\n      add\n      0x00\n      swap1\n    tag_288:\n      dup3\n      dup3\n      lt\n      iszero\n      tag_289\n      jumpi\n      dup4\n      dup3\n      swap1\n      0x00\n      mstore\n      keccak256(0x00, 0x20)\n      add\n      dup1\n      sload\n      tag_291\n      swap1\n      tag_86\n      jump\t// in\n    tag_291:\n      dup1\n      0x1f\n      add\n      0x20\n      dup1\n      swap2\n      div\n      mul\n      0x20\n      add\n      mload(0x40)\n      swap1\n      dup2\n      add\n      0x40\n      mstore\n      dup1\n      swap3\n      swap2\n      swap1\n      dup2\n      dup2\n      mstore\n      0x20\n      add\n      dup3\n      dup1\n      sload\n      tag_292\n      swap1\n      tag_86\n      jump\t// in\n    tag_292:\n      dup1\n      iszero\n      tag_293\n      jumpi\n      dup1\n      0x1f\n      lt\n      tag_294\n      jumpi\n      0x0100\n      dup1\n      dup4\n      sload\n      div\n      mul\n      dup4\n      mstore\n      swap2\n      0x20\n      add\n      swap2\n      jump(tag_293)\n    tag_294:\n      dup3\n      add\n      swap2\n      swap1\n      0x00\n      mstore\n      keccak256(0x00, 0x20)\n      swap1\n    tag_295:\n      dup2\n      sload\n      dup2\n      mstore\n      swap1\n      0x01\n      add\n      swap1\n      0x20\n      add\n      dup1\n      dup4\n      gt\n      tag_295\n      jumpi\n      dup3\n      swap1\n      sub\n      0x1f\n      and\n      dup3\n      add\n      swap2\n    tag_293:\n      pop\n      pop\n      pop\n      pop\n      pop\n      dup2\n      mstore\n      0x20\n      add\n      swap1\n      0x01\n      add\n      swap1\n      jump(tag_288)\n    tag_289:\n      pop\n      pop\n      pop\n      pop\n      dup2\n      mstore\n      0x20\n      add\n      0x04\n      dup3\n      add\n      dup1\n      sload\n      dup1\n      0x20\n      mul\n      0x20\n      add\n      mload(0x40)\n      swap1\n      dup2\n      add\n      0x40\n      mstore\n      dup1\n      swap3\n      swap2\n      swap1\n      dup2\n      dup2\n      mstore\n      0x20\n      add\n      dup3\n      dup1\n      sload\n      dup1\n      iszero\n      tag_296\n      jumpi\n      0x20\n      mul\n      dup3\n      add\n      swap2\n      swap1\n      0x00\n      mstore\n      keccak256(0x00, 0x20)\n      swap1\n    tag_297:\n      dup2\n      sload\n      dup2\n      mstore\n      0x20\n      add\n      swap1\n      0x01\n      add\n      swap1\n      dup1\n      dup4\n      gt\n      tag_297\n      jumpi\n    tag_296:\n      pop\n      pop\n      pop\n      pop\n      pop\n      dup2\n      mstore\n      pop\n      pop\n      swap2\n      pop\n      pop\n        /* \"Contracts/Lending.sol\":3997:4171  function getUserByWorldCoin(string memory WCID) public view returns (User memory) {... */\n      swap2\n      swap1\n      pop\n      jump\t// out\n    tag_82:\n      mload(0x40)\n      dup1\n      0xa0\n      add\n      0x40\n      mstore\n      dup1\n      0x60\n      dup2\n      mstore\n      0x20\n      add\n      0x60\n      dup2\n      mstore\n      0x20\n      add\n      0x60\n      dup2\n      mstore\n      0x20\n      add\n      0x60\n      dup2\n      mstore\n      0x20\n      add\n      0x60\n      dup2\n      mstore\n      pop\n      swap1\n      jump\t// out\n    tag_118:\n      dup3\n      dup1\n      sload\n      dup3\n      dup3\n      sstore\n      swap1\n      0x00\n      mstore\n      keccak256(0x00, 0x20)\n      swap1\n      dup2\n      add\n      swap3\n      dup3\n      iszero\n      tag_298\n      jumpi\n      swap2\n      0x20\n      mul\n      dup3\n      add\n    tag_299:\n      dup3\n      dup2\n      gt\n      iszero\n      tag_300\n      jumpi\n      dup3\n      mload\n      dup3\n      swap1\n      dup2\n      tag_301\n      swap2\n      swap1\n      tag_71\n      jump\t// in\n    tag_301:\n      pop\n      swap2\n      0x20\n      add\n      swap2\n      swap1\n      0x01\n      add\n      swap1\n      jump(tag_299)\n    tag_300:\n    tag_298:\n      pop\n      swap1\n      pop\n      tag_302\n      swap2\n      swap1\n      tag_303\n      jump\t// in\n    tag_302:\n      pop\n      swap1\n      jump\t// out\n    tag_120:\n      dup3\n      dup1\n      sload\n      dup3\n      dup3\n      sstore\n      swap1\n      0x00\n      mstore\n      keccak256(0x00, 0x20)\n      swap1\n      dup2\n      add\n      swap3\n      dup3\n      iszero\n      tag_304\n      jumpi\n      swap2\n      0x20\n      mul\n      dup3\n      add\n    tag_305:\n      dup3\n      dup2\n      gt\n      iszero\n      tag_306\n      jumpi\n      dup3\n      mload\n      dup3\n      sstore\n      swap2\n      0x20\n      add\n      swap2\n      swap1\n      0x01\n      add\n      swap1\n      jump(tag_305)\n    tag_306:\n    tag_304:\n      pop\n      swap1\n      pop\n      tag_307\n      swap2\n      swap1\n      tag_308\n      jump\t// in\n    tag_307:\n      pop\n      swap1\n      jump\t// out\n    tag_303:\n    tag_309:\n      dup1\n      dup3\n      gt\n      iszero\n      tag_310\n      jumpi\n      0x00\n      dup2\n      dup2\n      tag_311\n      swap2\n      swap1\n      tag_312\n      jump\t// in\n    tag_311:\n      pop\n      0x01\n      add\n      jump(tag_309)\n    tag_310:\n      pop\n      swap1\n      jump\t// out\n    tag_308:\n    tag_313:\n      dup1\n      dup3\n      gt\n      iszero\n      tag_314\n      jumpi\n      0x00\n      dup2\n      0x00\n      swap1\n      sstore\n      pop\n      0x01\n      add\n      jump(tag_313)\n    tag_314:\n      pop\n      swap1\n      jump\t// out\n    tag_312:\n      pop\n      dup1\n      sload\n      tag_315\n      swap1\n      tag_86\n      jump\t// in\n    tag_315:\n      0x00\n      dup3\n      sstore\n      dup1\n      0x1f\n      lt\n      tag_317\n      jumpi\n      pop\n      jump(tag_316)\n    tag_317:\n      0x1f\n      add\n      0x20\n      swap1\n      div\n      swap1\n      0x00\n      mstore\n      keccak256(0x00, 0x20)\n      swap1\n      dup2\n      add\n      swap1\n      tag_318\n      swap2\n      swap1\n      tag_308\n      jump\t// in\n    tag_318:\n    tag_316:\n      pop\n      jump\t// out\n        /* \"#utility.yul\":7:82   */\n    tag_319:\n        /* \"#utility.yul\":40:46   */\n      0x00\n        /* \"#utility.yul\":73:75   */\n      0x40\n        /* \"#utility.yul\":67:76   */\n      mload\n        /* \"#utility.yul\":57:76   */\n      swap1\n      pop\n        /* \"#utility.yul\":7:82   */\n      swap1\n      jump\t// out\n        /* \"#utility.yul\":88:205   */\n    tag_320:\n        /* \"#utility.yul\":197:198   */\n      0x00\n        /* \"#utility.yul\":194:195   */\n      dup1\n        /* \"#utility.yul\":187:199   */\n      revert\n        /* \"#utility.yul\":211:328   */\n    tag_321:\n        /* \"#utility.yul\":320:321   */\n      0x00\n        /* \"#utility.yul\":317:318   */\n      dup1\n        /* \"#utility.yul\":310:322   */\n      revert\n        /* \"#utility.yul\":334:451   */\n    tag_322:\n        /* \"#utility.yul\":443:444   */\n      0x00\n        /* \"#utility.yul\":440:441   */\n      dup1\n        /* \"#utility.yul\":433:445   */\n      revert\n        /* \"#utility.yul\":457:574   */\n    tag_323:\n        /* \"#utility.yul\":566:567   */\n      0x00\n        /* \"#utility.yul\":563:564   */\n      dup1\n        /* \"#utility.yul\":556:568   */\n      revert\n        /* \"#utility.yul\":580:682   */\n    tag_324:\n        /* \"#utility.yul\":621:627   */\n      0x00\n        /* \"#utility.yul\":672:674   */\n      0x1f\n        /* \"#utility.yul\":668:675   */\n      not\n        /* \"#utility.yul\":663:665   */\n      0x1f\n        /* \"#utility.yul\":656:661   */\n      dup4\n        /* \"#utility.yul\":652:666   */\n      add\n        /* \"#utility.yul\":648:676   */\n      and\n        /* \"#utility.yul\":638:676   */\n      swap1\n      pop\n        /* \"#utility.yul\":580:682   */\n      swap2\n      swap1\n      pop\n      jump\t// out\n        /* \"#utility.yul\":688:868   */\n    tag_325:\n        /* \"#utility.yul\":736:813   */\n      0x4e487b7100000000000000000000000000000000000000000000000000000000\n        /* \"#utility.yul\":733:734   */\n      0x00\n        /* \"#utility.yul\":726:814   */\n      mstore\n        /* \"#utility.yul\":833:837   */\n      0x41\n        /* \"#utility.yul\":830:831   */\n      0x04\n        /* \"#utility.yul\":823:838   */\n      mstore\n        /* \"#utility.yul\":857:861   */\n      0x24\n        /* \"#utility.yul\":854:855   */\n      0x00\n        /* \"#utility.yul\":847:862   */\n      revert\n        /* \"#utility.yul\":874:1155   */\n    tag_326:\n        /* \"#utility.yul\":957:984   */\n      tag_391\n        /* \"#utility.yul\":979:983   */\n      dup3\n        /* \"#utility.yul\":957:984   */\n      tag_324\n      jump\t// in\n    tag_391:\n        /* \"#utility.yul\":949:955   */\n      dup2\n        /* \"#utility.yul\":945:985   */\n      add\n        /* \"#utility.yul\":1087:1093   */\n      dup2\n        /* \"#utility.yul\":1075:1085   */\n      dup2\n        /* \"#utility.yul\":1072:1094   */\n      lt\n        /* \"#utility.yul\":1051:1069   */\n      0xffffffffffffffff\n        /* \"#utility.yul\":1039:1049   */\n      dup3\n        /* \"#utility.yul\":1036:1070   */\n      gt\n        /* \"#utility.yul\":1033:1095   */\n      or\n        /* \"#utility.yul\":1030:1118   */\n      iszero\n      tag_392\n      jumpi\n        /* \"#utility.yul\":1098:1116   */\n      tag_393\n      tag_325\n      jump\t// in\n    tag_393:\n        /* \"#utility.yul\":1030:1118   */\n    tag_392:\n        /* \"#utility.yul\":1138:1148   */\n      dup1\n        /* \"#utility.yul\":1134:1136   */\n      0x40\n        /* \"#utility.yul\":1127:1149   */\n      mstore\n        /* \"#utility.yul\":917:1155   */\n      pop\n        /* \"#utility.yul\":874:1155   */\n      pop\n      pop\n      jump\t// out\n        /* \"#utility.yul\":1161:1290   */\n    tag_327:\n        /* \"#utility.yul\":1195:1201   */\n      0x00\n        /* \"#utility.yul\":1222:1242   */\n      tag_395\n      tag_319\n      jump\t// in\n    tag_395:\n        /* \"#utility.yul\":1212:1242   */\n      swap1\n      pop\n        /* \"#utility.yul\":1251:1284   */\n      tag_396\n        /* \"#utility.yul\":1279:1283   */\n      dup3\n        /* \"#utility.yul\":1271:1277   */\n      dup3\n        /* \"#utility.yul\":1251:1284   */\n      tag_326\n      jump\t// in\n    tag_396:\n        /* \"#utility.yul\":1161:1290   */\n      swap2\n      swap1\n      pop\n      jump\t// out\n        /* \"#utility.yul\":1296:1604   */\n    tag_328:\n        /* \"#utility.yul\":1358:1362   */\n      0x00\n        /* \"#utility.yul\":1448:1466   */\n      0xffffffffffffffff\n        /* \"#utility.yul\":1440:1446   */\n      dup3\n        /* \"#utility.yul\":1437:1467   */\n      gt\n        /* \"#utility.yul\":1434:1490   */\n      iszero\n      tag_398\n      jumpi\n        /* \"#utility.yul\":1470:1488   */\n      tag_399\n      tag_325\n      jump\t// in\n    tag_399:\n        /* \"#utility.yul\":1434:1490   */\n    tag_398:\n        /* \"#utility.yul\":1508:1537   */\n      tag_400\n        /* \"#utility.yul\":1530:1536   */\n      dup3\n        /* \"#utility.yul\":1508:1537   */\n      tag_324\n      jump\t// in\n    tag_400:\n        /* \"#utility.yul\":1500:1537   */\n      swap1\n      pop\n        /* \"#utility.yul\":1592:1596   */\n      0x20\n        /* \"#utility.yul\":1586:1590   */\n      dup2\n        /* \"#utility.yul\":1582:1597   */\n      add\n        /* \"#utility.yul\":1574:1597   */\n      swap1\n      pop\n        /* \"#utility.yul\":1296:1604   */\n      swap2\n      swap1\n      pop\n      jump\t// out\n        /* \"#utility.yul\":1610:1756   */\n    tag_329:\n        /* \"#utility.yul\":1707:1713   */\n      dup3\n        /* \"#utility.yul\":1702:1705   */\n      dup2\n        /* \"#utility.yul\":1697:1700   */\n      dup4\n        /* \"#utility.yul\":1684:1714   */\n      calldatacopy\n        /* \"#utility.yul\":1748:1749   */\n      0x00\n        /* \"#utility.yul\":1739:1745   */\n      dup4\n        /* \"#utility.yul\":1734:1737   */\n      dup4\n        /* \"#utility.yul\":1730:1746   */\n      add\n        /* \"#utility.yul\":1723:1750   */\n      mstore\n        /* \"#utility.yul\":1610:1756   */\n      pop\n      pop\n      pop\n      jump\t// out\n        /* \"#utility.yul\":1762:2187   */\n    tag_330:\n        /* \"#utility.yul\":1840:1845   */\n      0x00\n        /* \"#utility.yul\":1865:1931   */\n      tag_403\n        /* \"#utility.yul\":1881:1930   */\n      tag_404\n        /* \"#utility.yul\":1923:1929   */\n      dup5\n        /* \"#utility.yul\":1881:1930   */\n      tag_328\n      jump\t// in\n    tag_404:\n        /* \"#utility.yul\":1865:1931   */\n      tag_327\n      jump\t// in\n    tag_403:\n        /* \"#utility.yul\":1856:1931   */\n      swap1\n      pop\n        /* \"#utility.yul\":1954:1960   */\n      dup3\n        /* \"#utility.yul\":1947:1952   */\n      dup2\n        /* \"#utility.yul\":1940:1961   */\n      mstore\n        /* \"#utility.yul\":1992:1996   */\n      0x20\n        /* \"#utility.yul\":1985:1990   */\n      dup2\n        /* \"#utility.yul\":1981:1997   */\n      add\n        /* \"#utility.yul\":2030:2033   */\n      dup5\n        /* \"#utility.yul\":2021:2027   */\n      dup5\n        /* \"#utility.yul\":2016:2019   */\n      dup5\n        /* \"#utility.yul\":2012:2028   */\n      add\n        /* \"#utility.yul\":2009:2034   */\n      gt\n        /* \"#utility.yul\":2006:2118   */\n      iszero\n      tag_405\n      jumpi\n        /* \"#utility.yul\":2037:2116   */\n      tag_406\n      tag_323\n      jump\t// in\n    tag_406:\n        /* \"#utility.yul\":2006:2118   */\n    tag_405:\n        /* \"#utility.yul\":2127:2181   */\n      tag_407\n        /* \"#utility.yul\":2174:2180   */\n      dup5\n        /* \"#utility.yul\":2169:2172   */\n      dup3\n        /* \"#utility.yul\":2164:2167   */\n      dup6\n        /* \"#utility.yul\":2127:2181   */\n      tag_329\n      jump\t// in\n    tag_407:\n        /* \"#utility.yul\":1846:2187   */\n      pop\n        /* \"#utility.yul\":1762:2187   */\n      swap4\n      swap3\n      pop\n      pop\n      pop\n      jump\t// out\n        /* \"#utility.yul\":2207:2547   */\n    tag_331:\n        /* \"#utility.yul\":2263:2268   */\n      0x00\n        /* \"#utility.yul\":2312:2315   */\n      dup3\n        /* \"#utility.yul\":2305:2309   */\n      0x1f\n        /* \"#utility.yul\":2297:2303   */\n      dup4\n        /* \"#utility.yul\":2293:2310   */\n      add\n        /* \"#utility.yul\":2289:2316   */\n      slt\n        /* \"#utility.yul\":2279:2401   */\n      tag_409\n      jumpi\n        /* \"#utility.yul\":2320:2399   */\n      tag_410\n      tag_322\n      jump\t// in\n    tag_410:\n        /* \"#utility.yul\":2279:2401   */\n    tag_409:\n        /* \"#utility.yul\":2437:2443   */\n      dup2\n        /* \"#utility.yul\":2424:2444   */\n      calldataload\n        /* \"#utility.yul\":2462:2541   */\n      tag_411\n        /* \"#utility.yul\":2537:2540   */\n      dup5\n        /* \"#utility.yul\":2529:2535   */\n      dup3\n        /* \"#utility.yul\":2522:2526   */\n      0x20\n        /* \"#utility.yul\":2514:2520   */\n      dup7\n        /* \"#utility.yul\":2510:2527   */\n      add\n        /* \"#utility.yul\":2462:2541   */\n      tag_330\n      jump\t// in\n    tag_411:\n        /* \"#utility.yul\":2453:2541   */\n      swap2\n      pop\n        /* \"#utility.yul\":2269:2547   */\n      pop\n        /* \"#utility.yul\":2207:2547   */\n      swap3\n      swap2\n      pop\n      pop\n      jump\t// out\n        /* \"#utility.yul\":2553:3387   */\n    tag_18:\n        /* \"#utility.yul\":2641:2647   */\n      0x00\n        /* \"#utility.yul\":2649:2655   */\n      dup1\n        /* \"#utility.yul\":2698:2700   */\n      0x40\n        /* \"#utility.yul\":2686:2695   */\n      dup4\n        /* \"#utility.yul\":2677:2684   */\n      dup6\n        /* \"#utility.yul\":2673:2696   */\n      sub\n        /* \"#utility.yul\":2669:2701   */\n      slt\n        /* \"#utility.yul\":2666:2785   */\n      iszero\n      tag_413\n      jumpi\n        /* \"#utility.yul\":2704:2783   */\n      tag_414\n      tag_320\n      jump\t// in\n    tag_414:\n        /* \"#utility.yul\":2666:2785   */\n    tag_413:\n        /* \"#utility.yul\":2852:2853   */\n      0x00\n        /* \"#utility.yul\":2841:2850   */\n      dup4\n        /* \"#utility.yul\":2837:2854   */\n      add\n        /* \"#utility.yul\":2824:2855   */\n      calldataload\n        /* \"#utility.yul\":2882:2900   */\n      0xffffffffffffffff\n        /* \"#utility.yul\":2874:2880   */\n      dup2\n        /* \"#utility.yul\":2871:2901   */\n      gt\n        /* \"#utility.yul\":2868:2985   */\n      iszero\n      tag_415\n      jumpi\n        /* \"#utility.yul\":2904:2983   */\n      tag_416\n      tag_321\n      jump\t// in\n    tag_416:\n        /* \"#utility.yul\":2868:2985   */\n    tag_415:\n        /* \"#utility.yul\":3009:3072   */\n      tag_417\n        /* \"#utility.yul\":3064:3071   */\n      dup6\n        /* \"#utility.yul\":3055:3061   */\n      dup3\n        /* \"#utility.yul\":3044:3053   */\n      dup7\n        /* \"#utility.yul\":3040:3062   */\n      add\n        /* \"#utility.yul\":3009:3072   */\n      tag_331\n      jump\t// in\n    tag_417:\n        /* \"#utility.yul\":2999:3072   */\n      swap3\n      pop\n        /* \"#utility.yul\":2795:3082   */\n      pop\n        /* \"#utility.yul\":3149:3151   */\n      0x20\n        /* \"#utility.yul\":3138:3147   */\n      dup4\n        /* \"#utility.yul\":3134:3152   */\n      add\n        /* \"#utility.yul\":3121:3153   */\n      calldataload\n        /* \"#utility.yul\":3180:3198   */\n      0xffffffffffffffff\n        /* \"#utility.yul\":3172:3178   */\n      dup2\n        /* \"#utility.yul\":3169:3199   */\n      gt\n        /* \"#utility.yul\":3166:3283   */\n      iszero\n      tag_418\n      jumpi\n        /* \"#utility.yul\":3202:3281   */\n      tag_419\n      tag_321\n      jump\t// in\n    tag_419:\n        /* \"#utility.yul\":3166:3283   */\n    tag_418:\n        /* \"#utility.yul\":3307:3370   */\n      tag_420\n        /* \"#utility.yul\":3362:3369   */\n      dup6\n        /* \"#utility.yul\":3353:3359   */\n      dup3\n        /* \"#utility.yul\":3342:3351   */\n      dup7\n        /* \"#utility.yul\":3338:3360   */\n      add\n        /* \"#utility.yul\":3307:3370   */\n      tag_331\n      jump\t// in\n    tag_420:\n        /* \"#utility.yul\":3297:3370   */\n      swap2\n      pop\n        /* \"#utility.yul\":3092:3380   */\n      pop\n        /* \"#utility.yul\":2553:3387   */\n      swap3\n      pop\n      swap3\n      swap1\n      pop\n      jump\t// out\n        /* \"#utility.yul\":3393:3902   */\n    tag_25:\n        /* \"#utility.yul\":3462:3468   */\n      0x00\n        /* \"#utility.yul\":3511:3513   */\n      0x20\n        /* \"#utility.yul\":3499:3508   */\n      dup3\n        /* \"#utility.yul\":3490:3497   */\n      dup5\n        /* \"#utility.yul\":3486:3509   */\n      sub\n        /* \"#utility.yul\":3482:3514   */\n      slt\n        /* \"#utility.yul\":3479:3598   */\n      iszero\n      tag_422\n      jumpi\n        /* \"#utility.yul\":3517:3596   */\n      tag_423\n      tag_320\n      jump\t// in\n    tag_423:\n        /* \"#utility.yul\":3479:3598   */\n    tag_422:\n        /* \"#utility.yul\":3665:3666   */\n      0x00\n        /* \"#utility.yul\":3654:3663   */\n      dup3\n        /* \"#utility.yul\":3650:3667   */\n      add\n        /* \"#utility.yul\":3637:3668   */\n      calldataload\n        /* \"#utility.yul\":3695:3713   */\n      0xffffffffffffffff\n        /* \"#utility.yul\":3687:3693   */\n      dup2\n        /* \"#utility.yul\":3684:3714   */\n      gt\n        /* \"#utility.yul\":3681:3798   */\n      iszero\n      tag_424\n      jumpi\n        /* \"#utility.yul\":3717:3796   */\n      tag_425\n      tag_321\n      jump\t// in\n    tag_425:\n        /* \"#utility.yul\":3681:3798   */\n    tag_424:\n        /* \"#utility.yul\":3822:3885   */\n      tag_426\n        /* \"#utility.yul\":3877:3884   */\n      dup5\n        /* \"#utility.yul\":3868:3874   */\n      dup3\n        /* \"#utility.yul\":3857:3866   */\n      dup6\n        /* \"#utility.yul\":3853:3875   */\n      add\n        /* \"#utility.yul\":3822:3885   */\n      tag_331\n      jump\t// in\n    tag_426:\n        /* \"#utility.yul\":3812:3885   */\n      swap2\n      pop\n        /* \"#utility.yul\":3608:3895   */\n      pop\n        /* \"#utility.yul\":3393:3902   */\n      swap3\n      swap2\n      pop\n      pop\n      jump\t// out\n        /* \"#utility.yul\":3908:4007   */\n    tag_332:\n        /* \"#utility.yul\":3960:3966   */\n      0x00\n        /* \"#utility.yul\":3994:3999   */\n      dup2\n        /* \"#utility.yul\":3988:4000   */\n      mload\n        /* \"#utility.yul\":3978:4000   */\n      swap1\n      pop\n        /* \"#utility.yul\":3908:4007   */\n      swap2\n      swap1\n      pop\n      jump\t// out\n        /* \"#utility.yul\":4013:4172   */\n    tag_333:\n        /* \"#utility.yul\":4087:4098   */\n      0x00\n        /* \"#utility.yul\":4121:4127   */\n      dup3\n        /* \"#utility.yul\":4116:4119   */\n      dup3\n        /* \"#utility.yul\":4109:4128   */\n      mstore\n        /* \"#utility.yul\":4161:4165   */\n      0x20\n        /* \"#utility.yul\":4156:4159   */\n      dup3\n        /* \"#utility.yul\":4152:4166   */\n      add\n        /* \"#utility.yul\":4137:4166   */\n      swap1\n      pop\n        /* \"#utility.yul\":4013:4172   */\n      swap3\n      swap2\n      pop\n      pop\n      jump\t// out\n        /* \"#utility.yul\":4178:4424   */\n    tag_334:\n        /* \"#utility.yul\":4259:4260   */\n      0x00\n        /* \"#utility.yul\":4269:4382   */\n    tag_430:\n        /* \"#utility.yul\":4283:4289   */\n      dup4\n        /* \"#utility.yul\":4280:4281   */\n      dup2\n        /* \"#utility.yul\":4277:4290   */\n      lt\n        /* \"#utility.yul\":4269:4382   */\n      iszero\n      tag_432\n      jumpi\n        /* \"#utility.yul\":4368:4369   */\n      dup1\n        /* \"#utility.yul\":4363:4366   */\n      dup3\n        /* \"#utility.yul\":4359:4370   */\n      add\n        /* \"#utility.yul\":4353:4371   */\n      mload\n        /* \"#utility.yul\":4349:4350   */\n      dup2\n        /* \"#utility.yul\":4344:4347   */\n      dup5\n        /* \"#utility.yul\":4340:4351   */\n      add\n        /* \"#utility.yul\":4333:4372   */\n      mstore\n        /* \"#utility.yul\":4305:4307   */\n      0x20\n        /* \"#utility.yul\":4302:4303   */\n      dup2\n        /* \"#utility.yul\":4298:4308   */\n      add\n        /* \"#utility.yul\":4293:4308   */\n      swap1\n      pop\n        /* \"#utility.yul\":4269:4382   */\n      jump(tag_430)\n    tag_432:\n        /* \"#utility.yul\":4416:4417   */\n      0x00\n        /* \"#utility.yul\":4407:4413   */\n      dup5\n        /* \"#utility.yul\":4402:4405   */\n      dup5\n        /* \"#utility.yul\":4398:4414   */\n      add\n        /* \"#utility.yul\":4391:4418   */\n      mstore\n        /* \"#utility.yul\":4240:4424   */\n      pop\n        /* \"#utility.yul\":4178:4424   */\n      pop\n      pop\n      pop\n      jump\t// out\n        /* \"#utility.yul\":4430:4787   */\n    tag_335:\n        /* \"#utility.yul\":4508:4511   */\n      0x00\n        /* \"#utility.yul\":4536:4575   */\n      tag_434\n        /* \"#utility.yul\":4569:4574   */\n      dup3\n        /* \"#utility.yul\":4536:4575   */\n      tag_332\n      jump\t// in\n    tag_434:\n        /* \"#utility.yul\":4591:4652   */\n      tag_435\n        /* \"#utility.yul\":4645:4651   */\n      dup2\n        /* \"#utility.yul\":4640:4643   */\n      dup6\n        /* \"#utility.yul\":4591:4652   */\n      tag_333\n      jump\t// in\n    tag_435:\n        /* \"#utility.yul\":4584:4652   */\n      swap4\n      pop\n        /* \"#utility.yul\":4661:4726   */\n      tag_436\n        /* \"#utility.yul\":4719:4725   */\n      dup2\n        /* \"#utility.yul\":4714:4717   */\n      dup6\n        /* \"#utility.yul\":4707:4711   */\n      0x20\n        /* \"#utility.yul\":4700:4705   */\n      dup7\n        /* \"#utility.yul\":4696:4712   */\n      add\n        /* \"#utility.yul\":4661:4726   */\n      tag_334\n      jump\t// in\n    tag_436:\n        /* \"#utility.yul\":4751:4780   */\n      tag_437\n        /* \"#utility.yul\":4773:4779   */\n      dup2\n        /* \"#utility.yul\":4751:4780   */\n      tag_324\n      jump\t// in\n    tag_437:\n        /* \"#utility.yul\":4746:4749   */\n      dup5\n        /* \"#utility.yul\":4742:4781   */\n      add\n        /* \"#utility.yul\":4735:4781   */\n      swap2\n      pop\n        /* \"#utility.yul\":4512:4787   */\n      pop\n        /* \"#utility.yul\":4430:4787   */\n      swap3\n      swap2\n      pop\n      pop\n      jump\t// out\n        /* \"#utility.yul\":4793:4917   */\n    tag_336:\n        /* \"#utility.yul\":4870:4876   */\n      0x00\n        /* \"#utility.yul\":4904:4909   */\n      dup2\n        /* \"#utility.yul\":4898:4910   */\n      mload\n        /* \"#utility.yul\":4888:4910   */\n      swap1\n      pop\n        /* \"#utility.yul\":4793:4917   */\n      swap2\n      swap1\n      pop\n      jump\t// out\n        /* \"#utility.yul\":4923:5107   */\n    tag_337:\n        /* \"#utility.yul\":5022:5033   */\n      0x00\n        /* \"#utility.yul\":5056:5062   */\n      dup3\n        /* \"#utility.yul\":5051:5054   */\n      dup3\n        /* \"#utility.yul\":5044:5063   */\n      mstore\n        /* \"#utility.yul\":5096:5100   */\n      0x20\n        /* \"#utility.yul\":5091:5094   */\n      dup3\n        /* \"#utility.yul\":5087:5101   */\n      add\n        /* \"#utility.yul\":5072:5101   */\n      swap1\n      pop\n        /* \"#utility.yul\":4923:5107   */\n      swap3\n      swap2\n      pop\n      pop\n      jump\t// out\n        /* \"#utility.yul\":5113:5255   */\n    tag_338:\n        /* \"#utility.yul\":5190:5194   */\n      0x00\n        /* \"#utility.yul\":5213:5216   */\n      dup2\n        /* \"#utility.yul\":5205:5216   */\n      swap1\n      pop\n        /* \"#utility.yul\":5243:5247   */\n      0x20\n        /* \"#utility.yul\":5238:5241   */\n      dup3\n        /* \"#utility.yul\":5234:5248   */\n      add\n        /* \"#utility.yul\":5226:5248   */\n      swap1\n      pop\n        /* \"#utility.yul\":5113:5255   */\n      swap2\n      swap1\n      pop\n      jump\t// out\n        /* \"#utility.yul\":5261:5457   */\n    tag_339:\n        /* \"#utility.yul\":5350:5360   */\n      0x00\n        /* \"#utility.yul\":5385:5451   */\n      tag_442\n        /* \"#utility.yul\":5447:5450   */\n      dup4\n        /* \"#utility.yul\":5439:5445   */\n      dup4\n        /* \"#utility.yul\":5385:5451   */\n      tag_335\n      jump\t// in\n    tag_442:\n        /* \"#utility.yul\":5371:5451   */\n      swap1\n      pop\n        /* \"#utility.yul\":5261:5457   */\n      swap3\n      swap2\n      pop\n      pop\n      jump\t// out\n        /* \"#utility.yul\":5463:5586   */\n    tag_340:\n        /* \"#utility.yul\":5543:5547   */\n      0x00\n        /* \"#utility.yul\":5575:5579   */\n      0x20\n        /* \"#utility.yul\":5570:5573   */\n      dup3\n        /* \"#utility.yul\":5566:5580   */\n      add\n        /* \"#utility.yul\":5558:5580   */\n      swap1\n      pop\n        /* \"#utility.yul\":5463:5586   */\n      swap2\n      swap1\n      pop\n      jump\t// out\n        /* \"#utility.yul\":5620:6591   */\n    tag_341:\n        /* \"#utility.yul\":5749:5752   */\n      0x00\n        /* \"#utility.yul\":5778:5842   */\n      tag_445\n        /* \"#utility.yul\":5836:5841   */\n      dup3\n        /* \"#utility.yul\":5778:5842   */\n      tag_336\n      jump\t// in\n    tag_445:\n        /* \"#utility.yul\":5858:5944   */\n      tag_446\n        /* \"#utility.yul\":5937:5943   */\n      dup2\n        /* \"#utility.yul\":5932:5935   */\n      dup6\n        /* \"#utility.yul\":5858:5944   */\n      tag_337\n      jump\t// in\n    tag_446:\n        /* \"#utility.yul\":5851:5944   */\n      swap4\n      pop\n        /* \"#utility.yul\":5970:5973   */\n      dup4\n        /* \"#utility.yul\":6015:6019   */\n      0x20\n        /* \"#utility.yul\":6007:6013   */\n      dup3\n        /* \"#utility.yul\":6003:6020   */\n      mul\n        /* \"#utility.yul\":5998:6001   */\n      dup6\n        /* \"#utility.yul\":5994:6021   */\n      add\n        /* \"#utility.yul\":6045:6111   */\n      tag_447\n        /* \"#utility.yul\":6105:6110   */\n      dup6\n        /* \"#utility.yul\":6045:6111   */\n      tag_338\n      jump\t// in\n    tag_447:\n        /* \"#utility.yul\":6134:6141   */\n      dup1\n        /* \"#utility.yul\":6165:6166   */\n      0x00\n        /* \"#utility.yul\":6150:6546   */\n    tag_448:\n        /* \"#utility.yul\":6175:6181   */\n      dup6\n        /* \"#utility.yul\":6172:6173   */\n      dup2\n        /* \"#utility.yul\":6169:6182   */\n      lt\n        /* \"#utility.yul\":6150:6546   */\n      iszero\n      tag_450\n      jumpi\n        /* \"#utility.yul\":6246:6255   */\n      dup5\n        /* \"#utility.yul\":6240:6244   */\n      dup5\n        /* \"#utility.yul\":6236:6256   */\n      sub\n        /* \"#utility.yul\":6231:6234   */\n      dup10\n        /* \"#utility.yul\":6224:6257   */\n      mstore\n        /* \"#utility.yul\":6297:6303   */\n      dup2\n        /* \"#utility.yul\":6291:6304   */\n      mload\n        /* \"#utility.yul\":6325:6409   */\n      tag_451\n        /* \"#utility.yul\":6404:6408   */\n      dup6\n        /* \"#utility.yul\":6389:6402   */\n      dup3\n        /* \"#utility.yul\":6325:6409   */\n      tag_339\n      jump\t// in\n    tag_451:\n        /* \"#utility.yul\":6317:6409   */\n      swap5\n      pop\n        /* \"#utility.yul\":6432:6502   */\n      tag_452\n        /* \"#utility.yul\":6495:6501   */\n      dup4\n        /* \"#utility.yul\":6432:6502   */\n      tag_340\n      jump\t// in\n    tag_452:\n        /* \"#utility.yul\":6422:6502   */\n      swap3\n      pop\n        /* \"#utility.yul\":6531:6535   */\n      0x20\n        /* \"#utility.yul\":6526:6529   */\n      dup11\n        /* \"#utility.yul\":6522:6536   */\n      add\n        /* \"#utility.yul\":6515:6536   */\n      swap10\n      pop\n        /* \"#utility.yul\":6210:6546   */\n      pop\n        /* \"#utility.yul\":6197:6198   */\n      0x01\n        /* \"#utility.yul\":6194:6195   */\n      dup2\n        /* \"#utility.yul\":6190:6199   */\n      add\n        /* \"#utility.yul\":6185:6199   */\n      swap1\n      pop\n        /* \"#utility.yul\":6150:6546   */\n      jump(tag_448)\n    tag_450:\n        /* \"#utility.yul\":6154:6168   */\n      pop\n        /* \"#utility.yul\":6562:6566   */\n      dup3\n        /* \"#utility.yul\":6555:6566   */\n      swap8\n      pop\n        /* \"#utility.yul\":6582:6585   */\n      dup8\n        /* \"#utility.yul\":6575:6585   */\n      swap6\n      pop\n        /* \"#utility.yul\":5754:6591   */\n      pop\n      pop\n      pop\n      pop\n      pop\n        /* \"#utility.yul\":5620:6591   */\n      swap3\n      swap2\n      pop\n      pop\n      jump\t// out\n        /* \"#utility.yul\":6597:6711   */\n    tag_342:\n        /* \"#utility.yul\":6664:6670   */\n      0x00\n        /* \"#utility.yul\":6698:6703   */\n      dup2\n        /* \"#utility.yul\":6692:6704   */\n      mload\n        /* \"#utility.yul\":6682:6704   */\n      swap1\n      pop\n        /* \"#utility.yul\":6597:6711   */\n      swap2\n      swap1\n      pop\n      jump\t// out\n        /* \"#utility.yul\":6717:6891   */\n    tag_343:\n        /* \"#utility.yul\":6806:6817   */\n      0x00\n        /* \"#utility.yul\":6840:6846   */\n      dup3\n        /* \"#utility.yul\":6835:6838   */\n      dup3\n        /* \"#utility.yul\":6828:6847   */\n      mstore\n        /* \"#utility.yul\":6880:6884   */\n      0x20\n        /* \"#utility.yul\":6875:6878   */\n      dup3\n        /* \"#utility.yul\":6871:6885   */\n      add\n        /* \"#utility.yul\":6856:6885   */\n      swap1\n      pop\n        /* \"#utility.yul\":6717:6891   */\n      swap3\n      swap2\n      pop\n      pop\n      jump\t// out\n        /* \"#utility.yul\":6897:7029   */\n    tag_344:\n        /* \"#utility.yul\":6964:6968   */\n      0x00\n        /* \"#utility.yul\":6987:6990   */\n      dup2\n        /* \"#utility.yul\":6979:6990   */\n      swap1\n      pop\n        /* \"#utility.yul\":7017:7021   */\n      0x20\n        /* \"#utility.yul\":7012:7015   */\n      dup3\n        /* \"#utility.yul\":7008:7022   */\n      add\n        /* \"#utility.yul\":7000:7022   */\n      swap1\n      pop\n        /* \"#utility.yul\":6897:7029   */\n      swap2\n      swap1\n      pop\n      jump\t// out\n        /* \"#utility.yul\":7035:7112   */\n    tag_345:\n        /* \"#utility.yul\":7072:7079   */\n      0x00\n        /* \"#utility.yul\":7101:7106   */\n      dup2\n        /* \"#utility.yul\":7090:7106   */\n      swap1\n      pop\n        /* \"#utility.yul\":7035:7112   */\n      swap2\n      swap1\n      pop\n      jump\t// out\n        /* \"#utility.yul\":7118:7226   */\n    tag_346:\n        /* \"#utility.yul\":7195:7219   */\n      tag_458\n        /* \"#utility.yul\":7213:7218   */\n      dup2\n        /* \"#utility.yul\":7195:7219   */\n      tag_345\n      jump\t// in\n    tag_458:\n        /* \"#utility.yul\":7190:7193   */\n      dup3\n        /* \"#utility.yul\":7183:7220   */\n      mstore\n        /* \"#utility.yul\":7118:7226   */\n      pop\n      pop\n      jump\t// out\n        /* \"#utility.yul\":7232:7411   */\n    tag_347:\n        /* \"#utility.yul\":7301:7311   */\n      0x00\n        /* \"#utility.yul\":7322:7368   */\n      tag_460\n        /* \"#utility.yul\":7364:7367   */\n      dup4\n        /* \"#utility.yul\":7356:7362   */\n      dup4\n        /* \"#utility.yul\":7322:7368   */\n      tag_346\n      jump\t// in\n    tag_460:\n        /* \"#utility.yul\":7400:7404   */\n      0x20\n        /* \"#utility.yul\":7395:7398   */\n      dup4\n        /* \"#utility.yul\":7391:7405   */\n      add\n        /* \"#utility.yul\":7377:7405   */\n      swap1\n      pop\n        /* \"#utility.yul\":7232:7411   */\n      swap3\n      swap2\n      pop\n      pop\n      jump\t// out\n        /* \"#utility.yul\":7417:7530   */\n    tag_348:\n        /* \"#utility.yul\":7487:7491   */\n      0x00\n        /* \"#utility.yul\":7519:7523   */\n      0x20\n        /* \"#utility.yul\":7514:7517   */\n      dup3\n        /* \"#utility.yul\":7510:7524   */\n      add\n        /* \"#utility.yul\":7502:7524   */\n      swap1\n      pop\n        /* \"#utility.yul\":7417:7530   */\n      swap2\n      swap1\n      pop\n      jump\t// out\n        /* \"#utility.yul\":7566:8278   */\n    tag_349:\n        /* \"#utility.yul\":7675:7678   */\n      0x00\n        /* \"#utility.yul\":7704:7758   */\n      tag_463\n        /* \"#utility.yul\":7752:7757   */\n      dup3\n        /* \"#utility.yul\":7704:7758   */\n      tag_342\n      jump\t// in\n    tag_463:\n        /* \"#utility.yul\":7774:7850   */\n      tag_464\n        /* \"#utility.yul\":7843:7849   */\n      dup2\n        /* \"#utility.yul\":7838:7841   */\n      dup6\n        /* \"#utility.yul\":7774:7850   */\n      tag_343\n      jump\t// in\n    tag_464:\n        /* \"#utility.yul\":7767:7850   */\n      swap4\n      pop\n        /* \"#utility.yul\":7874:7930   */\n      tag_465\n        /* \"#utility.yul\":7924:7929   */\n      dup4\n        /* \"#utility.yul\":7874:7930   */\n      tag_344\n      jump\t// in\n    tag_465:\n        /* \"#utility.yul\":7953:7960   */\n      dup1\n        /* \"#utility.yul\":7984:7985   */\n      0x00\n        /* \"#utility.yul\":7969:8253   */\n    tag_466:\n        /* \"#utility.yul\":7994:8000   */\n      dup4\n        /* \"#utility.yul\":7991:7992   */\n      dup2\n        /* \"#utility.yul\":7988:8001   */\n      lt\n        /* \"#utility.yul\":7969:8253   */\n      iszero\n      tag_468\n      jumpi\n        /* \"#utility.yul\":8070:8076   */\n      dup2\n        /* \"#utility.yul\":8064:8077   */\n      mload\n        /* \"#utility.yul\":8097:8160   */\n      tag_469\n        /* \"#utility.yul\":8156:8159   */\n      dup9\n        /* \"#utility.yul\":8141:8154   */\n      dup3\n        /* \"#utility.yul\":8097:8160   */\n      tag_347\n      jump\t// in\n    tag_469:\n        /* \"#utility.yul\":8090:8160   */\n      swap8\n      pop\n        /* \"#utility.yul\":8183:8243   */\n      tag_470\n        /* \"#utility.yul\":8236:8242   */\n      dup4\n        /* \"#utility.yul\":8183:8243   */\n      tag_348\n      jump\t// in\n    tag_470:\n        /* \"#utility.yul\":8173:8243   */\n      swap3\n      pop\n        /* \"#utility.yul\":8029:8253   */\n      pop\n        /* \"#utility.yul\":8016:8017   */\n      0x01\n        /* \"#utility.yul\":8013:8014   */\n      dup2\n        /* \"#utility.yul\":8009:8018   */\n      add\n        /* \"#utility.yul\":8004:8018   */\n      swap1\n      pop\n        /* \"#utility.yul\":7969:8253   */\n      jump(tag_466)\n    tag_468:\n        /* \"#utility.yul\":7973:7987   */\n      pop\n        /* \"#utility.yul\":8269:8272   */\n      dup6\n        /* \"#utility.yul\":8262:8272   */\n      swap4\n      pop\n        /* \"#utility.yul\":7680:8278   */\n      pop\n      pop\n      pop\n        /* \"#utility.yul\":7566:8278   */\n      swap3\n      swap2\n      pop\n      pop\n      jump\t// out\n        /* \"#utility.yul\":8334:9838   */\n    tag_350:\n        /* \"#utility.yul\":8443:8446   */\n      0x00\n        /* \"#utility.yul\":8479:8483   */\n      0xa0\n        /* \"#utility.yul\":8474:8477   */\n      dup4\n        /* \"#utility.yul\":8470:8484   */\n      add\n        /* \"#utility.yul\":8568:8572   */\n      0x00\n        /* \"#utility.yul\":8561:8566   */\n      dup4\n        /* \"#utility.yul\":8557:8573   */\n      add\n        /* \"#utility.yul\":8551:8574   */\n      mload\n        /* \"#utility.yul\":8621:8624   */\n      dup5\n        /* \"#utility.yul\":8615:8619   */\n      dup3\n        /* \"#utility.yul\":8611:8625   */\n      sub\n        /* \"#utility.yul\":8604:8608   */\n      0x00\n        /* \"#utility.yul\":8599:8602   */\n      dup7\n        /* \"#utility.yul\":8595:8609   */\n      add\n        /* \"#utility.yul\":8588:8626   */\n      mstore\n        /* \"#utility.yul\":8647:8720   */\n      tag_472\n        /* \"#utility.yul\":8715:8719   */\n      dup3\n        /* \"#utility.yul\":8701:8713   */\n      dup3\n        /* \"#utility.yul\":8647:8720   */\n      tag_335\n      jump\t// in\n    tag_472:\n        /* \"#utility.yul\":8639:8720   */\n      swap2\n      pop\n        /* \"#utility.yul\":8494:8731   */\n      pop\n        /* \"#utility.yul\":8820:8824   */\n      0x20\n        /* \"#utility.yul\":8813:8818   */\n      dup4\n        /* \"#utility.yul\":8809:8825   */\n      add\n        /* \"#utility.yul\":8803:8826   */\n      mload\n        /* \"#utility.yul\":8873:8876   */\n      dup5\n        /* \"#utility.yul\":8867:8871   */\n      dup3\n        /* \"#utility.yul\":8863:8877   */\n      sub\n        /* \"#utility.yul\":8856:8860   */\n      0x20\n        /* \"#utility.yul\":8851:8854   */\n      dup7\n        /* \"#utility.yul\":8847:8861   */\n      add\n        /* \"#utility.yul\":8840:8878   */\n      mstore\n        /* \"#utility.yul\":8899:8972   */\n      tag_473\n        /* \"#utility.yul\":8967:8971   */\n      dup3\n        /* \"#utility.yul\":8953:8965   */\n      dup3\n        /* \"#utility.yul\":8899:8972   */\n      tag_335\n      jump\t// in\n    tag_473:\n        /* \"#utility.yul\":8891:8972   */\n      swap2\n      pop\n        /* \"#utility.yul\":8741:8983   */\n      pop\n        /* \"#utility.yul\":9071:9075   */\n      0x40\n        /* \"#utility.yul\":9064:9069   */\n      dup4\n        /* \"#utility.yul\":9060:9076   */\n      add\n        /* \"#utility.yul\":9054:9077   */\n      mload\n        /* \"#utility.yul\":9124:9127   */\n      dup5\n        /* \"#utility.yul\":9118:9122   */\n      dup3\n        /* \"#utility.yul\":9114:9128   */\n      sub\n        /* \"#utility.yul\":9107:9111   */\n      0x40\n        /* \"#utility.yul\":9102:9105   */\n      dup7\n        /* \"#utility.yul\":9098:9112   */\n      add\n        /* \"#utility.yul\":9091:9129   */\n      mstore\n        /* \"#utility.yul\":9150:9223   */\n      tag_474\n        /* \"#utility.yul\":9218:9222   */\n      dup3\n        /* \"#utility.yul\":9204:9216   */\n      dup3\n        /* \"#utility.yul\":9150:9223   */\n      tag_335\n      jump\t// in\n    tag_474:\n        /* \"#utility.yul\":9142:9223   */\n      swap2\n      pop\n        /* \"#utility.yul\":8993:9234   */\n      pop\n        /* \"#utility.yul\":9319:9323   */\n      0x60\n        /* \"#utility.yul\":9312:9317   */\n      dup4\n        /* \"#utility.yul\":9308:9324   */\n      add\n        /* \"#utility.yul\":9302:9325   */\n      mload\n        /* \"#utility.yul\":9372:9375   */\n      dup5\n        /* \"#utility.yul\":9366:9370   */\n      dup3\n        /* \"#utility.yul\":9362:9376   */\n      sub\n        /* \"#utility.yul\":9355:9359   */\n      0x60\n        /* \"#utility.yul\":9350:9353   */\n      dup7\n        /* \"#utility.yul\":9346:9360   */\n      add\n        /* \"#utility.yul\":9339:9377   */\n      mstore\n        /* \"#utility.yul\":9398:9521   */\n      tag_475\n        /* \"#utility.yul\":9516:9520   */\n      dup3\n        /* \"#utility.yul\":9502:9514   */\n      dup3\n        /* \"#utility.yul\":9398:9521   */\n      tag_341\n      jump\t// in\n    tag_475:\n        /* \"#utility.yul\":9390:9521   */\n      swap2\n      pop\n        /* \"#utility.yul\":9244:9532   */\n      pop\n        /* \"#utility.yul\":9618:9622   */\n      0x80\n        /* \"#utility.yul\":9611:9616   */\n      dup4\n        /* \"#utility.yul\":9607:9623   */\n      add\n        /* \"#utility.yul\":9601:9624   */\n      mload\n        /* \"#utility.yul\":9671:9674   */\n      dup5\n        /* \"#utility.yul\":9665:9669   */\n      dup3\n        /* \"#utility.yul\":9661:9675   */\n      sub\n        /* \"#utility.yul\":9654:9658   */\n      0x80\n        /* \"#utility.yul\":9649:9652   */\n      dup7\n        /* \"#utility.yul\":9645:9659   */\n      add\n        /* \"#utility.yul\":9638:9676   */\n      mstore\n        /* \"#utility.yul\":9697:9800   */\n      tag_476\n        /* \"#utility.yul\":9795:9799   */\n      dup3\n        /* \"#utility.yul\":9781:9793   */\n      dup3\n        /* \"#utility.yul\":9697:9800   */\n      tag_349\n      jump\t// in\n    tag_476:\n        /* \"#utility.yul\":9689:9800   */\n      swap2\n      pop\n        /* \"#utility.yul\":9542:9811   */\n      pop\n        /* \"#utility.yul\":9828:9832   */\n      dup1\n        /* \"#utility.yul\":9821:9832   */\n      swap2\n      pop\n        /* \"#utility.yul\":8448:9838   */\n      pop\n        /* \"#utility.yul\":8334:9838   */\n      swap3\n      swap2\n      pop\n      pop\n      jump\t// out\n        /* \"#utility.yul\":9844:10197   */\n    tag_28:\n        /* \"#utility.yul\":9977:9981   */\n      0x00\n        /* \"#utility.yul\":10015:10017   */\n      0x20\n        /* \"#utility.yul\":10004:10013   */\n      dup3\n        /* \"#utility.yul\":10000:10018   */\n      add\n        /* \"#utility.yul\":9992:10018   */\n      swap1\n      pop\n        /* \"#utility.yul\":10064:10073   */\n      dup2\n        /* \"#utility.yul\":10058:10062   */\n      dup2\n        /* \"#utility.yul\":10054:10074   */\n      sub\n        /* \"#utility.yul\":10050:10051   */\n      0x00\n        /* \"#utility.yul\":10039:10048   */\n      dup4\n        /* \"#utility.yul\":10035:10052   */\n      add\n        /* \"#utility.yul\":10028:10075   */\n      mstore\n        /* \"#utility.yul\":10092:10190   */\n      tag_478\n        /* \"#utility.yul\":10185:10189   */\n      dup2\n        /* \"#utility.yul\":10176:10182   */\n      dup5\n        /* \"#utility.yul\":10092:10190   */\n      tag_350\n      jump\t// in\n    tag_478:\n        /* \"#utility.yul\":10084:10190   */\n      swap1\n      pop\n        /* \"#utility.yul\":9844:10197   */\n      swap3\n      swap2\n      pop\n      pop\n      jump\t// out\n        /* \"#utility.yul\":10203:10524   */\n    tag_351:\n        /* \"#utility.yul\":10290:10294   */\n      0x00\n        /* \"#utility.yul\":10380:10398   */\n      0xffffffffffffffff\n        /* \"#utility.yul\":10372:10378   */\n      dup3\n        /* \"#utility.yul\":10369:10399   */\n      gt\n        /* \"#utility.yul\":10366:10422   */\n      iszero\n      tag_480\n      jumpi\n        /* \"#utility.yul\":10402:10420   */\n      tag_481\n      tag_325\n      jump\t// in\n    tag_481:\n        /* \"#utility.yul\":10366:10422   */\n    tag_480:\n        /* \"#utility.yul\":10452:10456   */\n      0x20\n        /* \"#utility.yul\":10444:10450   */\n      dup3\n        /* \"#utility.yul\":10440:10457   */\n      mul\n        /* \"#utility.yul\":10432:10457   */\n      swap1\n      pop\n        /* \"#utility.yul\":10512:10516   */\n      0x20\n        /* \"#utility.yul\":10506:10510   */\n      dup2\n        /* \"#utility.yul\":10502:10517   */\n      add\n        /* \"#utility.yul\":10494:10517   */\n      swap1\n      pop\n        /* \"#utility.yul\":10203:10524   */\n      swap2\n      swap1\n      pop\n      jump\t// out\n        /* \"#utility.yul\":10530:10647   */\n    tag_352:\n        /* \"#utility.yul\":10639:10640   */\n      0x00\n        /* \"#utility.yul\":10636:10637   */\n      dup1\n        /* \"#utility.yul\":10629:10641   */\n      revert\n        /* \"#utility.yul\":10669:11614   */\n    tag_353:\n        /* \"#utility.yul\":10775:10780   */\n      0x00\n        /* \"#utility.yul\":10800:10891   */\n      tag_484\n        /* \"#utility.yul\":10816:10890   */\n      tag_485\n        /* \"#utility.yul\":10883:10889   */\n      dup5\n        /* \"#utility.yul\":10816:10890   */\n      tag_351\n      jump\t// in\n    tag_485:\n        /* \"#utility.yul\":10800:10891   */\n      tag_327\n      jump\t// in\n    tag_484:\n        /* \"#utility.yul\":10791:10891   */\n      swap1\n      pop\n        /* \"#utility.yul\":10911:10916   */\n      dup1\n        /* \"#utility.yul\":10940:10946   */\n      dup4\n        /* \"#utility.yul\":10933:10938   */\n      dup3\n        /* \"#utility.yul\":10926:10947   */\n      mstore\n        /* \"#utility.yul\":10974:10978   */\n      0x20\n        /* \"#utility.yul\":10967:10972   */\n      dup3\n        /* \"#utility.yul\":10963:10979   */\n      add\n        /* \"#utility.yul\":10956:10979   */\n      swap1\n      pop\n        /* \"#utility.yul\":11027:11031   */\n      0x20\n        /* \"#utility.yul\":11019:11025   */\n      dup5\n        /* \"#utility.yul\":11015:11032   */\n      mul\n        /* \"#utility.yul\":11007:11013   */\n      dup4\n        /* \"#utility.yul\":11003:11033   */\n      add\n        /* \"#utility.yul\":11056:11059   */\n      dup6\n        /* \"#utility.yul\":11048:11054   */\n      dup2\n        /* \"#utility.yul\":11045:11060   */\n      gt\n        /* \"#utility.yul\":11042:11164   */\n      iszero\n      tag_486\n      jumpi\n        /* \"#utility.yul\":11075:11154   */\n      tag_487\n      tag_352\n      jump\t// in\n    tag_487:\n        /* \"#utility.yul\":11042:11164   */\n    tag_486:\n        /* \"#utility.yul\":11190:11196   */\n      dup4\n        /* \"#utility.yul\":11173:11608   */\n    tag_488:\n        /* \"#utility.yul\":11207:11213   */\n      dup2\n        /* \"#utility.yul\":11202:11205   */\n      dup2\n        /* \"#utility.yul\":11199:11214   */\n      lt\n        /* \"#utility.yul\":11173:11608   */\n      iszero\n      tag_490\n      jumpi\n        /* \"#utility.yul\":11296:11299   */\n      dup1\n        /* \"#utility.yul\":11283:11300   */\n      calldataload\n        /* \"#utility.yul\":11332:11350   */\n      0xffffffffffffffff\n        /* \"#utility.yul\":11319:11330   */\n      dup2\n        /* \"#utility.yul\":11316:11351   */\n      gt\n        /* \"#utility.yul\":11313:11435   */\n      iszero\n      tag_491\n      jumpi\n        /* \"#utility.yul\":11354:11433   */\n      tag_492\n      tag_322\n      jump\t// in\n    tag_492:\n        /* \"#utility.yul\":11313:11435   */\n    tag_491:\n        /* \"#utility.yul\":11478:11489   */\n      dup1\n        /* \"#utility.yul\":11470:11476   */\n      dup7\n        /* \"#utility.yul\":11466:11490   */\n      add\n        /* \"#utility.yul\":11516:11563   */\n      tag_493\n        /* \"#utility.yul\":11559:11562   */\n      dup10\n        /* \"#utility.yul\":11547:11557   */\n      dup3\n        /* \"#utility.yul\":11516:11563   */\n      tag_331\n      jump\t// in\n    tag_493:\n        /* \"#utility.yul\":11511:11514   */\n      dup6\n        /* \"#utility.yul\":11504:11564   */\n      mstore\n        /* \"#utility.yul\":11593:11597   */\n      0x20\n        /* \"#utility.yul\":11588:11591   */\n      dup6\n        /* \"#utility.yul\":11584:11598   */\n      add\n        /* \"#utility.yul\":11577:11598   */\n      swap5\n      pop\n        /* \"#utility.yul\":11249:11608   */\n      pop\n      pop\n        /* \"#utility.yul\":11233:11237   */\n      0x20\n        /* \"#utility.yul\":11228:11231   */\n      dup2\n        /* \"#utility.yul\":11224:11238   */\n      add\n        /* \"#utility.yul\":11217:11238   */\n      swap1\n      pop\n        /* \"#utility.yul\":11173:11608   */\n      jump(tag_488)\n    tag_490:\n        /* \"#utility.yul\":11177:11198   */\n      pop\n        /* \"#utility.yul\":10781:11614   */\n      pop\n      pop\n        /* \"#utility.yul\":10669:11614   */\n      swap4\n      swap3\n      pop\n      pop\n      pop\n      jump\t// out\n        /* \"#utility.yul\":11636:12026   */\n    tag_354:\n        /* \"#utility.yul\":11717:11722   */\n      0x00\n        /* \"#utility.yul\":11766:11769   */\n      dup3\n        /* \"#utility.yul\":11759:11763   */\n      0x1f\n        /* \"#utility.yul\":11751:11757   */\n      dup4\n        /* \"#utility.yul\":11747:11764   */\n      add\n        /* \"#utility.yul\":11743:11770   */\n      slt\n        /* \"#utility.yul\":11733:11855   */\n      tag_495\n      jumpi\n        /* \"#utility.yul\":11774:11853   */\n      tag_496\n      tag_322\n      jump\t// in\n    tag_496:\n        /* \"#utility.yul\":11733:11855   */\n    tag_495:\n        /* \"#utility.yul\":11891:11897   */\n      dup2\n        /* \"#utility.yul\":11878:11898   */\n      calldataload\n        /* \"#utility.yul\":11916:12020   */\n      tag_497\n        /* \"#utility.yul\":12016:12019   */\n      dup5\n        /* \"#utility.yul\":12008:12014   */\n      dup3\n        /* \"#utility.yul\":12001:12005   */\n      0x20\n        /* \"#utility.yul\":11993:11999   */\n      dup7\n        /* \"#utility.yul\":11989:12006   */\n      add\n        /* \"#utility.yul\":11916:12020   */\n      tag_353\n      jump\t// in\n    tag_497:\n        /* \"#utility.yul\":11907:12020   */\n      swap2\n      pop\n        /* \"#utility.yul\":11723:12026   */\n      pop\n        /* \"#utility.yul\":11636:12026   */\n      swap3\n      swap2\n      pop\n      pop\n      jump\t// out\n        /* \"#utility.yul\":12032:12916   */\n    tag_31:\n        /* \"#utility.yul\":12145:12151   */\n      0x00\n        /* \"#utility.yul\":12153:12159   */\n      dup1\n        /* \"#utility.yul\":12202:12204   */\n      0x40\n        /* \"#utility.yul\":12190:12199   */\n      dup4\n        /* \"#utility.yul\":12181:12188   */\n      dup6\n        /* \"#utility.yul\":12177:12200   */\n      sub\n        /* \"#utility.yul\":12173:12205   */\n      slt\n        /* \"#utility.yul\":12170:12289   */\n      iszero\n      tag_499\n      jumpi\n        /* \"#utility.yul\":12208:12287   */\n      tag_500\n      tag_320\n      jump\t// in\n    tag_500:\n        /* \"#utility.yul\":12170:12289   */\n    tag_499:\n        /* \"#utility.yul\":12356:12357   */\n      0x00\n        /* \"#utility.yul\":12345:12354   */\n      dup4\n        /* \"#utility.yul\":12341:12358   */\n      add\n        /* \"#utility.yul\":12328:12359   */\n      calldataload\n        /* \"#utility.yul\":12386:12404   */\n      0xffffffffffffffff\n        /* \"#utility.yul\":12378:12384   */\n      dup2\n        /* \"#utility.yul\":12375:12405   */\n      gt\n        /* \"#utility.yul\":12372:12489   */\n      iszero\n      tag_501\n      jumpi\n        /* \"#utility.yul\":12408:12487   */\n      tag_502\n      tag_321\n      jump\t// in\n    tag_502:\n        /* \"#utility.yul\":12372:12489   */\n    tag_501:\n        /* \"#utility.yul\":12513:12576   */\n      tag_503\n        /* \"#utility.yul\":12568:12575   */\n      dup6\n        /* \"#utility.yul\":12559:12565   */\n      dup3\n        /* \"#utility.yul\":12548:12557   */\n      dup7\n        /* \"#utility.yul\":12544:12566   */\n      add\n        /* \"#utility.yul\":12513:12576   */\n      tag_331\n      jump\t// in\n    tag_503:\n        /* \"#utility.yul\":12503:12576   */\n      swap3\n      pop\n        /* \"#utility.yul\":12299:12586   */\n      pop\n        /* \"#utility.yul\":12653:12655   */\n      0x20\n        /* \"#utility.yul\":12642:12651   */\n      dup4\n        /* \"#utility.yul\":12638:12656   */\n      add\n        /* \"#utility.yul\":12625:12657   */\n      calldataload\n        /* \"#utility.yul\":12684:12702   */\n      0xffffffffffffffff\n        /* \"#utility.yul\":12676:12682   */\n      dup2\n        /* \"#utility.yul\":12673:12703   */\n      gt\n        /* \"#utility.yul\":12670:12787   */\n      iszero\n      tag_504\n      jumpi\n        /* \"#utility.yul\":12706:12785   */\n      tag_505\n      tag_321\n      jump\t// in\n    tag_505:\n        /* \"#utility.yul\":12670:12787   */\n    tag_504:\n        /* \"#utility.yul\":12811:12899   */\n      tag_506\n        /* \"#utility.yul\":12891:12898   */\n      dup6\n        /* \"#utility.yul\":12882:12888   */\n      dup3\n        /* \"#utility.yul\":12871:12880   */\n      dup7\n        /* \"#utility.yul\":12867:12889   */\n      add\n        /* \"#utility.yul\":12811:12899   */\n      tag_354\n      jump\t// in\n    tag_506:\n        /* \"#utility.yul\":12801:12899   */\n      swap2\n      pop\n        /* \"#utility.yul\":12596:12909   */\n      pop\n        /* \"#utility.yul\":12032:12916   */\n      swap3\n      pop\n      swap3\n      swap1\n      pop\n      jump\t// out\n        /* \"#utility.yul\":12922:13806   */\n    tag_36:\n        /* \"#utility.yul\":13035:13041   */\n      0x00\n        /* \"#utility.yul\":13043:13049   */\n      dup1\n        /* \"#utility.yul\":13092:13094   */\n      0x40\n        /* \"#utility.yul\":13080:13089   */\n      dup4\n        /* \"#utility.yul\":13071:13078   */\n      dup6\n        /* \"#utility.yul\":13067:13090   */\n      sub\n        /* \"#utility.yul\":13063:13095   */\n      slt\n        /* \"#utility.yul\":13060:13179   */\n      iszero\n      tag_508\n      jumpi\n        /* \"#utility.yul\":13098:13177   */\n      tag_509\n      tag_320\n      jump\t// in\n    tag_509:\n        /* \"#utility.yul\":13060:13179   */\n    tag_508:\n        /* \"#utility.yul\":13246:13247   */\n      0x00\n        /* \"#utility.yul\":13235:13244   */\n      dup4\n        /* \"#utility.yul\":13231:13248   */\n      add\n        /* \"#utility.yul\":13218:13249   */\n      calldataload\n        /* \"#utility.yul\":13276:13294   */\n      0xffffffffffffffff\n        /* \"#utility.yul\":13268:13274   */\n      dup2\n        /* \"#utility.yul\":13265:13295   */\n      gt\n        /* \"#utility.yul\":13262:13379   */\n      iszero\n      tag_510\n      jumpi\n        /* \"#utility.yul\":13298:13377   */\n      tag_511\n      tag_321\n      jump\t// in\n    tag_511:\n        /* \"#utility.yul\":13262:13379   */\n    tag_510:\n        /* \"#utility.yul\":13403:13491   */\n      tag_512\n        /* \"#utility.yul\":13483:13490   */\n      dup6\n        /* \"#utility.yul\":13474:13480   */\n      dup3\n        /* \"#utility.yul\":13463:13472   */\n      dup7\n        /* \"#utility.yul\":13459:13481   */\n      add\n        /* \"#utility.yul\":13403:13491   */\n      tag_354\n      jump\t// in\n    tag_512:\n        /* \"#utility.yul\":13393:13491   */\n      swap3\n      pop\n        /* \"#utility.yul\":13189:13501   */\n      pop\n        /* \"#utility.yul\":13568:13570   */\n      0x20\n        /* \"#utility.yul\":13557:13566   */\n      dup4\n        /* \"#utility.yul\":13553:13571   */\n      add\n        /* \"#utility.yul\":13540:13572   */\n      calldataload\n        /* \"#utility.yul\":13599:13617   */\n      0xffffffffffffffff\n        /* \"#utility.yul\":13591:13597   */\n      dup2\n        /* \"#utility.yul\":13588:13618   */\n      gt\n        /* \"#utility.yul\":13585:13702   */\n      iszero\n      tag_513\n      jumpi\n        /* \"#utility.yul\":13621:13700   */\n      tag_514\n      tag_321\n      jump\t// in\n    tag_514:\n        /* \"#utility.yul\":13585:13702   */\n    tag_513:\n        /* \"#utility.yul\":13726:13789   */\n      tag_515\n        /* \"#utility.yul\":13781:13788   */\n      dup6\n        /* \"#utility.yul\":13772:13778   */\n      dup3\n        /* \"#utility.yul\":13761:13770   */\n      dup7\n        /* \"#utility.yul\":13757:13779   */\n      add\n        /* \"#utility.yul\":13726:13789   */\n      tag_331\n      jump\t// in\n    tag_515:\n        /* \"#utility.yul\":13716:13789   */\n      swap2\n      pop\n        /* \"#utility.yul\":13511:13799   */\n      pop\n        /* \"#utility.yul\":12922:13806   */\n      swap3\n      pop\n      swap3\n      swap1\n      pop\n      jump\t// out\n        /* \"#utility.yul\":13812:13938   */\n    tag_355:\n        /* \"#utility.yul\":13849:13856   */\n      0x00\n        /* \"#utility.yul\":13889:13931   */\n      0xffffffffffffffffffffffffffffffffffffffff\n        /* \"#utility.yul\":13882:13887   */\n      dup3\n        /* \"#utility.yul\":13878:13932   */\n      and\n        /* \"#utility.yul\":13867:13932   */\n      swap1\n      pop\n        /* \"#utility.yul\":13812:13938   */\n      swap2\n      swap1\n      pop\n      jump\t// out\n        /* \"#utility.yul\":13944:14040   */\n    tag_356:\n        /* \"#utility.yul\":13981:13988   */\n      0x00\n        /* \"#utility.yul\":14010:14034   */\n      tag_518\n        /* \"#utility.yul\":14028:14033   */\n      dup3\n        /* \"#utility.yul\":14010:14034   */\n      tag_355\n      jump\t// in\n    tag_518:\n        /* \"#utility.yul\":13999:14034   */\n      swap1\n      pop\n        /* \"#utility.yul\":13944:14040   */\n      swap2\n      swap1\n      pop\n      jump\t// out\n        /* \"#utility.yul\":14046:14164   */\n    tag_357:\n        /* \"#utility.yul\":14133:14157   */\n      tag_520\n        /* \"#utility.yul\":14151:14156   */\n      dup2\n        /* \"#utility.yul\":14133:14157   */\n      tag_356\n      jump\t// in\n    tag_520:\n        /* \"#utility.yul\":14128:14131   */\n      dup3\n        /* \"#utility.yul\":14121:14158   */\n      mstore\n        /* \"#utility.yul\":14046:14164   */\n      pop\n      pop\n      jump\t// out\n        /* \"#utility.yul\":14170:14392   */\n    tag_45:\n        /* \"#utility.yul\":14263:14267   */\n      0x00\n        /* \"#utility.yul\":14301:14303   */\n      0x20\n        /* \"#utility.yul\":14290:14299   */\n      dup3\n        /* \"#utility.yul\":14286:14304   */\n      add\n        /* \"#utility.yul\":14278:14304   */\n      swap1\n      pop\n        /* \"#utility.yul\":14314:14385   */\n      tag_522\n        /* \"#utility.yul\":14382:14383   */\n      0x00\n        /* \"#utility.yul\":14371:14380   */\n      dup4\n        /* \"#utility.yul\":14367:14384   */\n      add\n        /* \"#utility.yul\":14358:14364   */\n      dup5\n        /* \"#utility.yul\":14314:14385   */\n      tag_357\n      jump\t// in\n    tag_522:\n        /* \"#utility.yul\":14170:14392   */\n      swap3\n      swap2\n      pop\n      pop\n      jump\t// out\n        /* \"#utility.yul\":14398:14488   */\n    tag_358:\n        /* \"#utility.yul\":14432:14439   */\n      0x00\n        /* \"#utility.yul\":14475:14480   */\n      dup2\n        /* \"#utility.yul\":14468:14481   */\n      iszero\n        /* \"#utility.yul\":14461:14482   */\n      iszero\n        /* \"#utility.yul\":14450:14482   */\n      swap1\n      pop\n        /* \"#utility.yul\":14398:14488   */\n      swap2\n      swap1\n      pop\n      jump\t// out\n        /* \"#utility.yul\":14494:14603   */\n    tag_359:\n        /* \"#utility.yul\":14575:14596   */\n      tag_525\n        /* \"#utility.yul\":14590:14595   */\n      dup2\n        /* \"#utility.yul\":14575:14596   */\n      tag_358\n      jump\t// in\n    tag_525:\n        /* \"#utility.yul\":14570:14573   */\n      dup3\n        /* \"#utility.yul\":14563:14597   */\n      mstore\n        /* \"#utility.yul\":14494:14603   */\n      pop\n      pop\n      jump\t// out\n        /* \"#utility.yul\":14609:14819   */\n    tag_52:\n        /* \"#utility.yul\":14696:14700   */\n      0x00\n        /* \"#utility.yul\":14734:14736   */\n      0x20\n        /* \"#utility.yul\":14723:14732   */\n      dup3\n        /* \"#utility.yul\":14719:14737   */\n      add\n        /* \"#utility.yul\":14711:14737   */\n      swap1\n      pop\n        /* \"#utility.yul\":14747:14812   */\n      tag_527\n        /* \"#utility.yul\":14809:14810   */\n      0x00\n        /* \"#utility.yul\":14798:14807   */\n      dup4\n        /* \"#utility.yul\":14794:14811   */\n      add\n        /* \"#utility.yul\":14785:14791   */\n      dup5\n        /* \"#utility.yul\":14747:14812   */\n      tag_359\n      jump\t// in\n    tag_527:\n        /* \"#utility.yul\":14609:14819   */\n      swap3\n      swap2\n      pop\n      pop\n      jump\t// out\n        /* \"#utility.yul\":14825:14973   */\n    tag_360:\n        /* \"#utility.yul\":14927:14938   */\n      0x00\n        /* \"#utility.yul\":14964:14967   */\n      dup2\n        /* \"#utility.yul\":14949:14967   */\n      swap1\n      pop\n        /* \"#utility.yul\":14825:14973   */\n      swap3\n      swap2\n      pop\n      pop\n      jump\t// out\n        /* \"#utility.yul\":14979:15369   */\n    tag_361:\n        /* \"#utility.yul\":15085:15088   */\n      0x00\n        /* \"#utility.yul\":15113:15152   */\n      tag_530\n        /* \"#utility.yul\":15146:15151   */\n      dup3\n        /* \"#utility.yul\":15113:15152   */\n      tag_332\n      jump\t// in\n    tag_530:\n        /* \"#utility.yul\":15168:15257   */\n      tag_531\n        /* \"#utility.yul\":15250:15256   */\n      dup2\n        /* \"#utility.yul\":15245:15248   */\n      dup6\n        /* \"#utility.yul\":15168:15257   */\n      tag_360\n      jump\t// in\n    tag_531:\n        /* \"#utility.yul\":15161:15257   */\n      swap4\n      pop\n        /* \"#utility.yul\":15266:15331   */\n      tag_532\n        /* \"#utility.yul\":15324:15330   */\n      dup2\n        /* \"#utility.yul\":15319:15322   */\n      dup6\n        /* \"#utility.yul\":15312:15316   */\n      0x20\n        /* \"#utility.yul\":15305:15310   */\n      dup7\n        /* \"#utility.yul\":15301:15317   */\n      add\n        /* \"#utility.yul\":15266:15331   */\n      tag_334\n      jump\t// in\n    tag_532:\n        /* \"#utility.yul\":15356:15362   */\n      dup1\n        /* \"#utility.yul\":15351:15354   */\n      dup5\n        /* \"#utility.yul\":15347:15363   */\n      add\n        /* \"#utility.yul\":15340:15363   */\n      swap2\n      pop\n        /* \"#utility.yul\":15089:15369   */\n      pop\n        /* \"#utility.yul\":14979:15369   */\n      swap3\n      swap2\n      pop\n      pop\n      jump\t// out\n        /* \"#utility.yul\":15375:15650   */\n    tag_69:\n        /* \"#utility.yul\":15507:15510   */\n      0x00\n        /* \"#utility.yul\":15529:15624   */\n      tag_534\n        /* \"#utility.yul\":15620:15623   */\n      dup3\n        /* \"#utility.yul\":15611:15617   */\n      dup5\n        /* \"#utility.yul\":15529:15624   */\n      tag_361\n      jump\t// in\n    tag_534:\n        /* \"#utility.yul\":15522:15624   */\n      swap2\n      pop\n        /* \"#utility.yul\":15641:15644   */\n      dup2\n        /* \"#utility.yul\":15634:15644   */\n      swap1\n      pop\n        /* \"#utility.yul\":15375:15650   */\n      swap3\n      swap2\n      pop\n      pop\n      jump\t// out\n        /* \"#utility.yul\":15656:15836   */\n    tag_362:\n        /* \"#utility.yul\":15704:15781   */\n      0x4e487b7100000000000000000000000000000000000000000000000000000000\n        /* \"#utility.yul\":15701:15702   */\n      0x00\n        /* \"#utility.yul\":15694:15782   */\n      mstore\n        /* \"#utility.yul\":15801:15805   */\n      0x22\n        /* \"#utility.yul\":15798:15799   */\n      0x04\n        /* \"#utility.yul\":15791:15806   */\n      mstore\n        /* \"#utility.yul\":15825:15829   */\n      0x24\n        /* \"#utility.yul\":15822:15823   */\n      0x00\n        /* \"#utility.yul\":15815:15830   */\n      revert\n        /* \"#utility.yul\":15842:16162   */\n    tag_86:\n        /* \"#utility.yul\":15886:15892   */\n      0x00\n        /* \"#utility.yul\":15923:15924   */\n      0x02\n        /* \"#utility.yul\":15917:15921   */\n      dup3\n        /* \"#utility.yul\":15913:15925   */\n      div\n        /* \"#utility.yul\":15903:15925   */\n      swap1\n      pop\n        /* \"#utility.yul\":15970:15971   */\n      0x01\n        /* \"#utility.yul\":15964:15968   */\n      dup3\n        /* \"#utility.yul\":15960:15972   */\n      and\n        /* \"#utility.yul\":15991:16009   */\n      dup1\n        /* \"#utility.yul\":15981:16062   */\n      tag_537\n      jumpi\n        /* \"#utility.yul\":16047:16051   */\n      0x7f\n        /* \"#utility.yul\":16039:16045   */\n      dup3\n        /* \"#utility.yul\":16035:16052   */\n      and\n        /* \"#utility.yul\":16025:16052   */\n      swap2\n      pop\n        /* \"#utility.yul\":15981:16062   */\n    tag_537:\n        /* \"#utility.yul\":16109:16111   */\n      0x20\n        /* \"#utility.yul\":16101:16107   */\n      dup3\n        /* \"#utility.yul\":16098:16112   */\n      lt\n        /* \"#utility.yul\":16078:16096   */\n      dup2\n        /* \"#utility.yul\":16075:16113   */\n      sub\n        /* \"#utility.yul\":16072:16156   */\n      tag_538\n      jumpi\n        /* \"#utility.yul\":16128:16146   */\n      tag_539\n      tag_362\n      jump\t// in\n    tag_539:\n        /* \"#utility.yul\":16072:16156   */\n    tag_538:\n        /* \"#utility.yul\":15893:16162   */\n      pop\n        /* \"#utility.yul\":15842:16162   */\n      swap2\n      swap1\n      pop\n      jump\t// out\n        /* \"#utility.yul\":16168:16309   */\n    tag_363:\n        /* \"#utility.yul\":16217:16221   */\n      0x00\n        /* \"#utility.yul\":16240:16243   */\n      dup2\n        /* \"#utility.yul\":16232:16243   */\n      swap1\n      pop\n        /* \"#utility.yul\":16263:16266   */\n      dup2\n        /* \"#utility.yul\":16260:16261   */\n      0x00\n        /* \"#utility.yul\":16253:16267   */\n      mstore\n        /* \"#utility.yul\":16297:16301   */\n      0x20\n        /* \"#utility.yul\":16294:16295   */\n      0x00\n        /* \"#utility.yul\":16284:16302   */\n      keccak256\n        /* \"#utility.yul\":16276:16302   */\n      swap1\n      pop\n        /* \"#utility.yul\":16168:16309   */\n      swap2\n      swap1\n      pop\n      jump\t// out\n        /* \"#utility.yul\":16315:16408   */\n    tag_364:\n        /* \"#utility.yul\":16352:16358   */\n      0x00\n        /* \"#utility.yul\":16399:16401   */\n      0x20\n        /* \"#utility.yul\":16394:16396   */\n      0x1f\n        /* \"#utility.yul\":16387:16392   */\n      dup4\n        /* \"#utility.yul\":16383:16397   */\n      add\n        /* \"#utility.yul\":16379:16402   */\n      div\n        /* \"#utility.yul\":16369:16402   */\n      swap1\n      pop\n        /* \"#utility.yul\":16315:16408   */\n      swap2\n      swap1\n      pop\n      jump\t// out\n        /* \"#utility.yul\":16414:16521   */\n    tag_365:\n        /* \"#utility.yul\":16458:16466   */\n      0x00\n        /* \"#utility.yul\":16508:16513   */\n      dup3\n        /* \"#utility.yul\":16502:16506   */\n      dup3\n        /* \"#utility.yul\":16498:16514   */\n      shl\n        /* \"#utility.yul\":16477:16514   */\n      swap1\n      pop\n        /* \"#utility.yul\":16414:16521   */\n      swap3\n      swap2\n      pop\n      pop\n      jump\t// out\n        /* \"#utility.yul\":16527:16920   */\n    tag_366:\n        /* \"#utility.yul\":16596:16602   */\n      0x00\n        /* \"#utility.yul\":16646:16647   */\n      0x08\n        /* \"#utility.yul\":16634:16644   */\n      dup4\n        /* \"#utility.yul\":16630:16648   */\n      mul\n        /* \"#utility.yul\":16669:16766   */\n      tag_544\n        /* \"#utility.yul\":16699:16765   */\n      0xffffffffffffffffffffffffffffffffffffffffffffffffffffffffffffffff\n        /* \"#utility.yul\":16688:16697   */\n      dup3\n        /* \"#utility.yul\":16669:16766   */\n      tag_365\n      jump\t// in\n    tag_544:\n        /* \"#utility.yul\":16787:16826   */\n      tag_545\n        /* \"#utility.yul\":16817:16825   */\n      dup7\n        /* \"#utility.yul\":16806:16815   */\n      dup4\n        /* \"#utility.yul\":16787:16826   */\n      tag_365\n      jump\t// in\n    tag_545:\n        /* \"#utility.yul\":16775:16826   */\n      swap6\n      pop\n        /* \"#utility.yul\":16859:16863   */\n      dup1\n        /* \"#utility.yul\":16855:16864   */\n      not\n        /* \"#utility.yul\":16848:16853   */\n      dup5\n        /* \"#utility.yul\":16844:16865   */\n      and\n        /* \"#utility.yul\":16835:16865   */\n      swap4\n      pop\n        /* \"#utility.yul\":16908:16912   */\n      dup1\n        /* \"#utility.yul\":16898:16906   */\n      dup7\n        /* \"#utility.yul\":16894:16913   */\n      and\n        /* \"#utility.yul\":16887:16892   */\n      dup5\n        /* \"#utility.yul\":16884:16914   */\n      or\n        /* \"#utility.yul\":16874:16914   */\n      swap3\n      pop\n        /* \"#utility.yul\":16603:16920   */\n      pop\n      pop\n        /* \"#utility.yul\":16527:16920   */\n      swap4\n      swap3\n      pop\n      pop\n      pop\n      jump\t// out\n        /* \"#utility.yul\":16926:16986   */\n    tag_367:\n        /* \"#utility.yul\":16954:16957   */\n      0x00\n        /* \"#utility.yul\":16975:16980   */\n      dup2\n        /* \"#utility.yul\":16968:16980   */\n      swap1\n      pop\n        /* \"#utility.yul\":16926:16986   */\n      swap2\n      swap1\n      pop\n      jump\t// out\n        /* \"#utility.yul\":16992:17134   */\n    tag_368:\n        /* \"#utility.yul\":17042:17051   */\n      0x00\n        /* \"#utility.yul\":17075:17128   */\n      tag_548\n        /* \"#utility.yul\":17093:17127   */\n      tag_549\n        /* \"#utility.yul\":17102:17126   */\n      tag_550\n        /* \"#utility.yul\":17120:17125   */\n      dup5\n        /* \"#utility.yul\":17102:17126   */\n      tag_345\n      jump\t// in\n    tag_550:\n        /* \"#utility.yul\":17093:17127   */\n      tag_367\n      jump\t// in\n    tag_549:\n        /* \"#utility.yul\":17075:17128   */\n      tag_345\n      jump\t// in\n    tag_548:\n        /* \"#utility.yul\":17062:17128   */\n      swap1\n      pop\n        /* \"#utility.yul\":16992:17134   */\n      swap2\n      swap1\n      pop\n      jump\t// out\n        /* \"#utility.yul\":17140:17215   */\n    tag_369:\n        /* \"#utility.yul\":17183:17186   */\n      0x00\n        /* \"#utility.yul\":17204:17209   */\n      dup2\n        /* \"#utility.yul\":17197:17209   */\n      swap1\n      pop\n        /* \"#utility.yul\":17140:17215   */\n      swap2\n      swap1\n      pop\n      jump\t// out\n        /* \"#utility.yul\":17221:17490   */\n    tag_370:\n        /* \"#utility.yul\":17331:17370   */\n      tag_553\n        /* \"#utility.yul\":17362:17369   */\n      dup4\n        /* \"#utility.yul\":17331:17370   */\n      tag_368\n      jump\t// in\n    tag_553:\n        /* \"#utility.yul\":17392:17483   */\n      tag_554\n        /* \"#utility.yul\":17441:17482   */\n      tag_555\n        /* \"#utility.yul\":17465:17481   */\n      dup3\n        /* \"#utility.yul\":17441:17482   */\n      tag_369\n      jump\t// in\n    tag_555:\n        /* \"#utility.yul\":17433:17439   */\n      dup5\n        /* \"#utility.yul\":17426:17430   */\n      dup5\n        /* \"#utility.yul\":17420:17431   */\n      sload\n        /* \"#utility.yul\":17392:17483   */\n      tag_366\n      jump\t// in\n    tag_554:\n        /* \"#utility.yul\":17386:17390   */\n      dup3\n        /* \"#utility.yul\":17379:17484   */\n      sstore\n        /* \"#utility.yul\":17297:17490   */\n      pop\n        /* \"#utility.yul\":17221:17490   */\n      pop\n      pop\n      pop\n      jump\t// out\n        /* \"#utility.yul\":17496:17569   */\n    tag_371:\n        /* \"#utility.yul\":17541:17544   */\n      0x00\n        /* \"#utility.yul\":17496:17569   */\n      swap1\n      jump\t// out\n        /* \"#utility.yul\":17575:17764   */\n    tag_372:\n        /* \"#utility.yul\":17652:17684   */\n      tag_558\n      tag_371\n      jump\t// in\n    tag_558:\n        /* \"#utility.yul\":17693:17758   */\n      tag_559\n        /* \"#utility.yul\":17751:17757   */\n      dup2\n        /* \"#utility.yul\":17743:17749   */\n      dup5\n        /* \"#utility.yul\":17737:17741   */\n      dup5\n        /* \"#utility.yul\":17693:17758   */\n      tag_370\n      jump\t// in\n    tag_559:\n        /* \"#utility.yul\":17628:17764   */\n      pop\n        /* \"#utility.yul\":17575:17764   */\n      pop\n      pop\n      jump\t// out\n        /* \"#utility.yul\":17770:17956   */\n    tag_373:\n        /* \"#utility.yul\":17830:17950   */\n    tag_561:\n        /* \"#utility.yul\":17847:17850   */\n      dup2\n        /* \"#utility.yul\":17840:17845   */\n      dup2\n        /* \"#utility.yul\":17837:17851   */\n      lt\n        /* \"#utility.yul\":17830:17950   */\n      iszero\n      tag_563\n      jumpi\n        /* \"#utility.yul\":17901:17940   */\n      tag_564\n        /* \"#utility.yul\":17938:17939   */\n      0x00\n        /* \"#utility.yul\":17931:17936   */\n      dup3\n        /* \"#utility.yul\":17901:17940   */\n      tag_372\n      jump\t// in\n    tag_564:\n        /* \"#utility.yul\":17874:17875   */\n      0x01\n        /* \"#utility.yul\":17867:17872   */\n      dup2\n        /* \"#utility.yul\":17863:17876   */\n      add\n        /* \"#utility.yul\":17854:17876   */\n      swap1\n      pop\n        /* \"#utility.yul\":17830:17950   */\n      jump(tag_561)\n    tag_563:\n        /* \"#utility.yul\":17770:17956   */\n      pop\n      pop\n      jump\t// out\n        /* \"#utility.yul\":17962:18505   */\n    tag_374:\n        /* \"#utility.yul\":18063:18065   */\n      0x1f\n        /* \"#utility.yul\":18058:18061   */\n      dup3\n        /* \"#utility.yul\":18055:18066   */\n      gt\n        /* \"#utility.yul\":18052:18498   */\n      iszero\n      tag_566\n      jumpi\n        /* \"#utility.yul\":18097:18135   */\n      tag_567\n        /* \"#utility.yul\":18129:18134   */\n      dup2\n        /* \"#utility.yul\":18097:18135   */\n      tag_363\n      jump\t// in\n    tag_567:\n        /* \"#utility.yul\":18181:18210   */\n      tag_568\n        /* \"#utility.yul\":18199:18209   */\n      dup5\n        /* \"#utility.yul\":18181:18210   */\n      tag_364\n      jump\t// in\n    tag_568:\n        /* \"#utility.yul\":18171:18179   */\n      dup2\n        /* \"#utility.yul\":18167:18211   */\n      add\n        /* \"#utility.yul\":18364:18366   */\n      0x20\n        /* \"#utility.yul\":18352:18362   */\n      dup6\n        /* \"#utility.yul\":18349:18367   */\n      lt\n        /* \"#utility.yul\":18346:18395   */\n      iszero\n      tag_569\n      jumpi\n        /* \"#utility.yul\":18385:18393   */\n      dup2\n        /* \"#utility.yul\":18370:18393   */\n      swap1\n      pop\n        /* \"#utility.yul\":18346:18395   */\n    tag_569:\n        /* \"#utility.yul\":18408:18488   */\n      tag_570\n        /* \"#utility.yul\":18464:18486   */\n      tag_571\n        /* \"#utility.yul\":18482:18485   */\n      dup6\n        /* \"#utility.yul\":18464:18486   */\n      tag_364\n      jump\t// in\n    tag_571:\n        /* \"#utility.yul\":18454:18462   */\n      dup4\n        /* \"#utility.yul\":18450:18487   */\n      add\n        /* \"#utility.yul\":18437:18448   */\n      dup3\n        /* \"#utility.yul\":18408:18488   */\n      tag_373\n      jump\t// in\n    tag_570:\n        /* \"#utility.yul\":18067:18498   */\n      pop\n      pop\n        /* \"#utility.yul\":18052:18498   */\n    tag_566:\n        /* \"#utility.yul\":17962:18505   */\n      pop\n      pop\n      pop\n      jump\t// out\n        /* \"#utility.yul\":18511:18628   */\n    tag_375:\n        /* \"#utility.yul\":18565:18573   */\n      0x00\n        /* \"#utility.yul\":18615:18620   */\n      dup3\n        /* \"#utility.yul\":18609:18613   */\n      dup3\n        /* \"#utility.yul\":18605:18621   */\n      shr\n        /* \"#utility.yul\":18584:18621   */\n      swap1\n      pop\n        /* \"#utility.yul\":18511:18628   */\n      swap3\n      swap2\n      pop\n      pop\n      jump\t// out\n        /* \"#utility.yul\":18634:18803   */\n    tag_376:\n        /* \"#utility.yul\":18678:18684   */\n      0x00\n        /* \"#utility.yul\":18711:18762   */\n      tag_574\n        /* \"#utility.yul\":18759:18760   */\n      0x00\n        /* \"#utility.yul\":18755:18761   */\n      not\n        /* \"#utility.yul\":18747:18752   */\n      dup5\n        /* \"#utility.yul\":18744:18745   */\n      0x08\n        /* \"#utility.yul\":18740:18753   */\n      mul\n        /* \"#utility.yul\":18711:18762   */\n      tag_375\n      jump\t// in\n    tag_574:\n        /* \"#utility.yul\":18707:18763   */\n      not\n        /* \"#utility.yul\":18792:18796   */\n      dup1\n        /* \"#utility.yul\":18786:18790   */\n      dup4\n        /* \"#utility.yul\":18782:18797   */\n      and\n        /* \"#utility.yul\":18772:18797   */\n      swap2\n      pop\n        /* \"#utility.yul\":18685:18803   */\n      pop\n        /* \"#utility.yul\":18634:18803   */\n      swap3\n      swap2\n      pop\n      pop\n      jump\t// out\n        /* \"#utility.yul\":18808:19103   */\n    tag_377:\n        /* \"#utility.yul\":18884:18888   */\n      0x00\n        /* \"#utility.yul\":19030:19059   */\n      tag_576\n        /* \"#utility.yul\":19055:19058   */\n      dup4\n        /* \"#utility.yul\":19049:19053   */\n      dup4\n        /* \"#utility.yul\":19030:19059   */\n      tag_376\n      jump\t// in\n    tag_576:\n        /* \"#utility.yul\":19022:19059   */\n      swap2\n      pop\n        /* \"#utility.yul\":19092:19095   */\n      dup3\n        /* \"#utility.yul\":19089:19090   */\n      0x02\n        /* \"#utility.yul\":19085:19096   */\n      mul\n        /* \"#utility.yul\":19079:19083   */\n      dup3\n        /* \"#utility.yul\":19076:19097   */\n      or\n        /* \"#utility.yul\":19068:19097   */\n      swap1\n      pop\n        /* \"#utility.yul\":18808:19103   */\n      swap3\n      swap2\n      pop\n      pop\n      jump\t// out\n        /* \"#utility.yul\":19108:20503   */\n    tag_71:\n        /* \"#utility.yul\":19225:19262   */\n      tag_578\n        /* \"#utility.yul\":19258:19261   */\n      dup3\n        /* \"#utility.yul\":19225:19262   */\n      tag_332\n      jump\t// in\n    tag_578:\n        /* \"#utility.yul\":19327:19345   */\n      0xffffffffffffffff\n        /* \"#utility.yul\":19319:19325   */\n      dup2\n        /* \"#utility.yul\":19316:19346   */\n      gt\n        /* \"#utility.yul\":19313:19369   */\n      iszero\n      tag_579\n      jumpi\n        /* \"#utility.yul\":19349:19367   */\n      tag_580\n      tag_325\n      jump\t// in\n    tag_580:\n        /* \"#utility.yul\":19313:19369   */\n    tag_579:\n        /* \"#utility.yul\":19393:19431   */\n      tag_581\n        /* \"#utility.yul\":19425:19429   */\n      dup3\n        /* \"#utility.yul\":19419:19430   */\n      sload\n        /* \"#utility.yul\":19393:19431   */\n      tag_86\n      jump\t// in\n    tag_581:\n        /* \"#utility.yul\":19478:19545   */\n      tag_582\n        /* \"#utility.yul\":19538:19544   */\n      dup3\n        /* \"#utility.yul\":19530:19536   */\n      dup3\n        /* \"#utility.yul\":19524:19528   */\n      dup6\n        /* \"#utility.yul\":19478:19545   */\n      tag_374\n      jump\t// in\n    tag_582:\n        /* \"#utility.yul\":19572:19573   */\n      0x00\n        /* \"#utility.yul\":19596:19600   */\n      0x20\n        /* \"#utility.yul\":19583:19600   */\n      swap1\n      pop\n        /* \"#utility.yul\":19628:19630   */\n      0x1f\n        /* \"#utility.yul\":19620:19626   */\n      dup4\n        /* \"#utility.yul\":19617:19631   */\n      gt\n        /* \"#utility.yul\":19645:19646   */\n      0x01\n        /* \"#utility.yul\":19640:20258   */\n      dup2\n      eq\n      tag_584\n      jumpi\n        /* \"#utility.yul\":20302:20303   */\n      0x00\n        /* \"#utility.yul\":20319:20325   */\n      dup5\n        /* \"#utility.yul\":20316:20393   */\n      iszero\n      tag_585\n      jumpi\n        /* \"#utility.yul\":20368:20377   */\n      dup3\n        /* \"#utility.yul\":20363:20366   */\n      dup8\n        /* \"#utility.yul\":20359:20378   */\n      add\n        /* \"#utility.yul\":20353:20379   */\n      mload\n        /* \"#utility.yul\":20344:20379   */\n      swap1\n      pop\n        /* \"#utility.yul\":20316:20393   */\n    tag_585:\n        /* \"#utility.yul\":20419:20486   */\n      tag_586\n        /* \"#utility.yul\":20479:20485   */\n      dup6\n        /* \"#utility.yul\":20472:20477   */\n      dup3\n        /* \"#utility.yul\":20419:20486   */\n      tag_377\n      jump\t// in\n    tag_586:\n        /* \"#utility.yul\":20413:20417   */\n      dup7\n        /* \"#utility.yul\":20406:20487   */\n      sstore\n        /* \"#utility.yul\":20275:20497   */\n      pop\n        /* \"#utility.yul\":19610:20497   */\n      jump(tag_583)\n        /* \"#utility.yul\":19640:20258   */\n    tag_584:\n        /* \"#utility.yul\":19692:19696   */\n      0x1f\n        /* \"#utility.yul\":19688:19697   */\n      not\n        /* \"#utility.yul\":19680:19686   */\n      dup5\n        /* \"#utility.yul\":19676:19698   */\n      and\n        /* \"#utility.yul\":19726:19763   */\n      tag_587\n        /* \"#utility.yul\":19758:19762   */\n      dup7\n        /* \"#utility.yul\":19726:19763   */\n      tag_363\n      jump\t// in\n    tag_587:\n        /* \"#utility.yul\":19785:19786   */\n      0x00\n        /* \"#utility.yul\":19799:20007   */\n    tag_588:\n        /* \"#utility.yul\":19813:19820   */\n      dup3\n        /* \"#utility.yul\":19810:19811   */\n      dup2\n        /* \"#utility.yul\":19807:19821   */\n      lt\n        /* \"#utility.yul\":19799:20007   */\n      iszero\n      tag_590\n      jumpi\n        /* \"#utility.yul\":19892:19901   */\n      dup5\n        /* \"#utility.yul\":19887:19890   */\n      dup10\n        /* \"#utility.yul\":19883:19902   */\n      add\n        /* \"#utility.yul\":19877:19903   */\n      mload\n        /* \"#utility.yul\":19869:19875   */\n      dup3\n        /* \"#utility.yul\":19862:19904   */\n      sstore\n        /* \"#utility.yul\":19943:19944   */\n      0x01\n        /* \"#utility.yul\":19935:19941   */\n      dup3\n        /* \"#utility.yul\":19931:19945   */\n      add\n        /* \"#utility.yul\":19921:19945   */\n      swap2\n      pop\n        /* \"#utility.yul\":19990:19992   */\n      0x20\n        /* \"#utility.yul\":19979:19988   */\n      dup6\n        /* \"#utility.yul\":19975:19993   */\n      add\n        /* \"#utility.yul\":19962:19993   */\n      swap5\n      pop\n        /* \"#utility.yul\":19836:19840   */\n      0x20\n        /* \"#utility.yul\":19833:19834   */\n      dup2\n        /* \"#utility.yul\":19829:19841   */\n      add\n        /* \"#utility.yul\":19824:19841   */\n      swap1\n      pop\n        /* \"#utility.yul\":19799:20007   */\n      jump(tag_588)\n    tag_590:\n        /* \"#utility.yul\":20035:20041   */\n      dup7\n        /* \"#utility.yul\":20026:20033   */\n      dup4\n        /* \"#utility.yul\":20023:20042   */\n      lt\n        /* \"#utility.yul\":20020:20199   */\n      iszero\n      tag_591\n      jumpi\n        /* \"#utility.yul\":20093:20102   */\n      dup5\n        /* \"#utility.yul\":20088:20091   */\n      dup10\n        /* \"#utility.yul\":20084:20103   */\n      add\n        /* \"#utility.yul\":20078:20104   */\n      mload\n        /* \"#utility.yul\":20136:20184   */\n      tag_592\n        /* \"#utility.yul\":20178:20182   */\n      0x1f\n        /* \"#utility.yul\":20170:20176   */\n      dup10\n        /* \"#utility.yul\":20166:20183   */\n      and\n        /* \"#utility.yul\":20155:20164   */\n      dup3\n        /* \"#utility.yul\":20136:20184   */\n      tag_376\n      jump\t// in\n    tag_592:\n        /* \"#utility.yul\":20128:20134   */\n      dup4\n        /* \"#utility.yul\":20121:20185   */\n      sstore\n        /* \"#utility.yul\":20043:20199   */\n      pop\n        /* \"#utility.yul\":20020:20199   */\n    tag_591:\n        /* \"#utility.yul\":20245:20246   */\n      0x01\n        /* \"#utility.yul\":20241:20242   */\n      0x02\n        /* \"#utility.yul\":20233:20239   */\n      dup9\n        /* \"#utility.yul\":20229:20243   */\n      mul\n        /* \"#utility.yul\":20225:20247   */\n      add\n        /* \"#utility.yul\":20219:20223   */\n      dup9\n        /* \"#utility.yul\":20212:20248   */\n      sstore\n        /* \"#utility.yul\":19647:20258   */\n      pop\n      pop\n      pop\n        /* \"#utility.yul\":19610:20497   */\n    tag_583:\n      pop\n        /* \"#utility.yul\":19200:20503   */\n      pop\n      pop\n      pop\n        /* \"#utility.yul\":19108:20503   */\n      pop\n      pop\n      jump\t// out\n        /* \"#utility.yul\":20509:20689   */\n    tag_154:\n        /* \"#utility.yul\":20557:20634   */\n      0x4e487b7100000000000000000000000000000000000000000000000000000000\n        /* \"#utility.yul\":20554:20555   */\n      0x00\n        /* \"#utility.yul\":20547:20635   */\n      mstore\n        /* \"#utility.yul\":20654:20658   */\n      0x32\n        /* \"#utility.yul\":20651:20652   */\n      0x04\n        /* \"#utility.yul\":20644:20659   */\n      mstore\n        /* \"#utility.yul\":20678:20682   */\n      0x24\n        /* \"#utility.yul\":20675:20676   */\n      0x00\n        /* \"#utility.yul\":20668:20683   */\n      revert\n        /* \"#utility.yul\":20695:20875   */\n    tag_378:\n        /* \"#utility.yul\":20743:20820   */\n      0x4e487b7100000000000000000000000000000000000000000000000000000000\n        /* \"#utility.yul\":20740:20741   */\n      0x00\n        /* \"#utility.yul\":20733:20821   */\n      mstore\n        /* \"#utility.yul\":20840:20844   */\n      0x11\n        /* \"#utility.yul\":20837:20838   */\n      0x04\n        /* \"#utility.yul\":20830:20845   */\n      mstore\n        /* \"#utility.yul\":20864:20868   */\n      0x24\n        /* \"#utility.yul\":20861:20862   */\n      0x00\n        /* \"#utility.yul\":20854:20869   */\n      revert\n        /* \"#utility.yul\":20881:21114   */\n    tag_163:\n        /* \"#utility.yul\":20920:20923   */\n      0x00\n        /* \"#utility.yul\":20943:20967   */\n      tag_596\n        /* \"#utility.yul\":20961:20966   */\n      dup3\n        /* \"#utility.yul\":20943:20967   */\n      tag_345\n      jump\t// in\n    tag_596:\n        /* \"#utility.yul\":20934:20967   */\n      swap2\n      pop\n        /* \"#utility.yul\":20989:21055   */\n      0xffffffffffffffffffffffffffffffffffffffffffffffffffffffffffffffff\n        /* \"#utility.yul\":20982:20987   */\n      dup3\n        /* \"#utility.yul\":20979:21056   */\n      sub\n        /* \"#utility.yul\":20976:21079   */\n      tag_597\n      jumpi\n        /* \"#utility.yul\":21059:21077   */\n      tag_598\n      tag_378\n      jump\t// in\n    tag_598:\n        /* \"#utility.yul\":20976:21079   */\n    tag_597:\n        /* \"#utility.yul\":21106:21107   */\n      0x01\n        /* \"#utility.yul\":21099:21104   */\n      dup3\n        /* \"#utility.yul\":21095:21108   */\n      add\n        /* \"#utility.yul\":21088:21108   */\n      swap1\n      pop\n        /* \"#utility.yul\":20881:21114   */\n      swap2\n      swap1\n      pop\n      jump\t// out\n        /* \"#utility.yul\":21120:21234   */\n    tag_379:\n      pop\n      jump\t// out\n        /* \"#utility.yul\":21240:21640   */\n    tag_380:\n        /* \"#utility.yul\":21400:21403   */\n      0x00\n        /* \"#utility.yul\":21421:21505   */\n      tag_601\n        /* \"#utility.yul\":21503:21504   */\n      0x00\n        /* \"#utility.yul\":21498:21501   */\n      dup4\n        /* \"#utility.yul\":21421:21505   */\n      tag_360\n      jump\t// in\n    tag_601:\n        /* \"#utility.yul\":21414:21505   */\n      swap2\n      pop\n        /* \"#utility.yul\":21514:21607   */\n      tag_602\n        /* \"#utility.yul\":21603:21606   */\n      dup3\n        /* \"#utility.yul\":21514:21607   */\n      tag_379\n      jump\t// in\n    tag_602:\n        /* \"#utility.yul\":21632:21633   */\n      0x00\n        /* \"#utility.yul\":21627:21630   */\n      dup3\n        /* \"#utility.yul\":21623:21634   */\n      add\n        /* \"#utility.yul\":21616:21634   */\n      swap1\n      pop\n        /* \"#utility.yul\":21240:21640   */\n      swap2\n      swap1\n      pop\n      jump\t// out\n        /* \"#utility.yul\":21646:22027   */\n    tag_250:\n        /* \"#utility.yul\":21831:21834   */\n      0x00\n        /* \"#utility.yul\":21853:22001   */\n      tag_604\n        /* \"#utility.yul\":21997:22000   */\n      dup3\n        /* \"#utility.yul\":21853:22001   */\n      tag_380\n      jump\t// in\n    tag_604:\n        /* \"#utility.yul\":21846:22001   */\n      swap2\n      pop\n        /* \"#utility.yul\":22018:22021   */\n      dup2\n        /* \"#utility.yul\":22011:22021   */\n      swap1\n      pop\n        /* \"#utility.yul\":21646:22027   */\n      swap2\n      swap1\n      pop\n      jump\t// out\n        /* \"#utility.yul\":22057:22931   */\n    tag_381:\n        /* \"#utility.yul\":22160:22163   */\n      0x00\n        /* \"#utility.yul\":22197:22202   */\n      dup2\n        /* \"#utility.yul\":22191:22203   */\n      sload\n        /* \"#utility.yul\":22226:22262   */\n      tag_606\n        /* \"#utility.yul\":22252:22261   */\n      dup2\n        /* \"#utility.yul\":22226:22262   */\n      tag_86\n      jump\t// in\n    tag_606:\n        /* \"#utility.yul\":22278:22367   */\n      tag_607\n        /* \"#utility.yul\":22360:22366   */\n      dup2\n        /* \"#utility.yul\":22355:22358   */\n      dup7\n        /* \"#utility.yul\":22278:22367   */\n      tag_360\n      jump\t// in\n    tag_607:\n        /* \"#utility.yul\":22271:22367   */\n      swap5\n      pop\n        /* \"#utility.yul\":22398:22399   */\n      0x01\n        /* \"#utility.yul\":22387:22396   */\n      dup3\n        /* \"#utility.yul\":22383:22400   */\n      and\n        /* \"#utility.yul\":22414:22415   */\n      0x00\n        /* \"#utility.yul\":22409:22575   */\n      dup2\n      eq\n      tag_609\n      jumpi\n        /* \"#utility.yul\":22589:22590   */\n      0x01\n        /* \"#utility.yul\":22584:22925   */\n      dup2\n      eq\n      tag_610\n      jumpi\n        /* \"#utility.yul\":22376:22925   */\n      jump(tag_608)\n        /* \"#utility.yul\":22409:22575   */\n    tag_609:\n        /* \"#utility.yul\":22493:22497   */\n      0xff\n        /* \"#utility.yul\":22489:22498   */\n      not\n        /* \"#utility.yul\":22478:22487   */\n      dup4\n        /* \"#utility.yul\":22474:22499   */\n      and\n        /* \"#utility.yul\":22469:22472   */\n      dup7\n        /* \"#utility.yul\":22462:22500   */\n      mstore\n        /* \"#utility.yul\":22555:22561   */\n      dup2\n        /* \"#utility.yul\":22548:22562   */\n      iszero\n        /* \"#utility.yul\":22541:22563   */\n      iszero\n        /* \"#utility.yul\":22533:22539   */\n      dup3\n        /* \"#utility.yul\":22529:22564   */\n      mul\n        /* \"#utility.yul\":22524:22527   */\n      dup7\n        /* \"#utility.yul\":22520:22565   */\n      add\n        /* \"#utility.yul\":22513:22565   */\n      swap4\n      pop\n        /* \"#utility.yul\":22409:22575   */\n      jump(tag_608)\n        /* \"#utility.yul\":22584:22925   */\n    tag_610:\n        /* \"#utility.yul\":22651:22689   */\n      tag_611\n        /* \"#utility.yul\":22683:22688   */\n      dup6\n        /* \"#utility.yul\":22651:22689   */\n      tag_363\n      jump\t// in\n    tag_611:\n        /* \"#utility.yul\":22711:22712   */\n      0x00\n        /* \"#utility.yul\":22725:22879   */\n    tag_612:\n        /* \"#utility.yul\":22739:22745   */\n      dup4\n        /* \"#utility.yul\":22736:22737   */\n      dup2\n        /* \"#utility.yul\":22733:22746   */\n      lt\n        /* \"#utility.yul\":22725:22879   */\n      iszero\n      tag_614\n      jumpi\n        /* \"#utility.yul\":22813:22820   */\n      dup2\n        /* \"#utility.yul\":22807:22821   */\n      sload\n        /* \"#utility.yul\":22803:22804   */\n      dup2\n        /* \"#utility.yul\":22798:22801   */\n      dup10\n        /* \"#utility.yul\":22794:22805   */\n      add\n        /* \"#utility.yul\":22787:22822   */\n      mstore\n        /* \"#utility.yul\":22863:22864   */\n      0x01\n        /* \"#utility.yul\":22854:22861   */\n      dup3\n        /* \"#utility.yul\":22850:22865   */\n      add\n        /* \"#utility.yul\":22839:22865   */\n      swap2\n      pop\n        /* \"#utility.yul\":22761:22765   */\n      0x20\n        /* \"#utility.yul\":22758:22759   */\n      dup2\n        /* \"#utility.yul\":22754:22766   */\n      add\n        /* \"#utility.yul\":22749:22766   */\n      swap1\n      pop\n        /* \"#utility.yul\":22725:22879   */\n      jump(tag_612)\n    tag_614:\n        /* \"#utility.yul\":22908:22914   */\n      dup4\n        /* \"#utility.yul\":22903:22906   */\n      dup9\n        /* \"#utility.yul\":22899:22915   */\n      add\n        /* \"#utility.yul\":22892:22915   */\n      swap6\n      pop\n        /* \"#utility.yul\":22591:22925   */\n      pop\n      pop\n        /* \"#utility.yul\":22376:22925   */\n    tag_608:\n      pop\n        /* \"#utility.yul\":22164:22931   */\n      pop\n      pop\n        /* \"#utility.yul\":22057:22931   */\n      swap3\n      swap2\n      pop\n      pop\n      jump\t// out\n        /* \"#utility.yul\":22937:23206   */\n    tag_253:\n        /* \"#utility.yul\":23066:23069   */\n      0x00\n        /* \"#utility.yul\":23088:23180   */\n      tag_616\n        /* \"#utility.yul\":23176:23179   */\n      dup3\n        /* \"#utility.yul\":23167:23173   */\n      dup5\n        /* \"#utility.yul\":23088:23180   */\n      tag_381\n      jump\t// in\n    tag_616:\n        /* \"#utility.yul\":23081:23180   */\n      swap2\n      pop\n        /* \"#utility.yul\":23197:23200   */\n      dup2\n        /* \"#utility.yul\":23190:23200   */\n      swap1\n      pop\n        /* \"#utility.yul\":22937:23206   */\n      swap3\n      swap2\n      pop\n      pop\n      jump\t// out\n\n    auxdata: 0xa2646970667358221220808146d53ff467b41009d54cb40f483b8ac9f384cb76c5881fb5b62caccbea4d64736f6c63430008120033\n}\n",
				"bytecode": {
					"linkReferences": {},
					"object": "608060405234801561001057600080fd5b50336000806101000a81548173ffffffffffffffffffffffffffffffffffffffff021916908373ffffffffffffffffffffffffffffffffffffffff160217905550612802806100606000396000f3fe608060405234801561001057600080fd5b50600436106100b45760003560e01c8063893d20e811610071578063893d20e81461019d5780638d5fa841146101bb578063bed34bba146101c5578063c77cfeeb146101f5578063d430e05a14610225578063f70e1c5e14610255576100b4565b8063081396eb146100b957806315c19c1d146100d5578063379f8fc2146100f157806351f40dd61461012157806363c60bd5146101515780637198ed1a1461016d575b600080fd5b6100d360048036038101906100ce9190611d3a565b610285565b005b6100ef60048036038101906100ea9190611d3a565b610328565b005b61010b60048036038101906101069190611db2565b6103cb565b6040516101189190612096565b60405180910390f35b61013b6004803603810190610136919061219e565b6106ea565b6040516101489190612096565b60405180910390f35b61016b60048036038101906101669190612216565b610af9565b005b61018760048036038101906101829190611db2565b610c01565b6040516101949190612096565b60405180910390f35b6101a5610fcc565b6040516101b291906122cf565b60405180910390f35b6101c3610ff5565b005b6101df60048036038101906101da9190611d3a565b610ff7565b6040516101ec9190612305565b60405180910390f35b61020f600480360381019061020a9190611db2565b6110c5565b60405161021c9190612096565b60405180910390f35b61023f600480360381019061023a9190611d3a565b611490565b60405161024c9190612305565b60405180910390f35b61026f600480360381019061026a9190611db2565b6116bf565b60405161027c9190612096565b60405180910390f35b6102c4826040518060400160405280600881526020017f757365724c656e73000000000000000000000000000000000000000000000000815250611490565b61032457806006836040516102d9919061235c565b908152602001604051809103902090816102f3919061257f565b5081600282604051610305919061235c565b90815260200160405180910390206002019081610322919061257f565b505b5050565b610367826040518060400160405280600881526020017f7573657257434944000000000000000000000000000000000000000000000000815250611490565b6103c7578060048360405161037c919061235c565b90815260200160405180910390209081610396919061257f565b50816002826040516103a8919061235c565b908152602001604051809103902060010190816103c5919061257f565b505b5050565b6103d3611a8a565b6002826040516103e3919061235c565b90815260200160405180910390206040518060a001604052908160008201805461040c906123a2565b80601f0160208091040260200160405190810160405280929190818152602001828054610438906123a2565b80156104855780601f1061045a57610100808354040283529160200191610485565b820191906000526020600020905b81548152906001019060200180831161046857829003601f168201915b5050505050815260200160018201805461049e906123a2565b80601f01602080910402602001604051908101604052809291908181526020018280546104ca906123a2565b80156105175780601f106104ec57610100808354040283529160200191610517565b820191906000526020600020905b8154815290600101906020018083116104fa57829003601f168201915b50505050508152602001600282018054610530906123a2565b80601f016020809104026020016040519081016040528092919081815260200182805461055c906123a2565b80156105a95780601f1061057e576101008083540402835291602001916105a9565b820191906000526020600020905b81548152906001019060200180831161058c57829003601f168201915b5050505050815260200160038201805480602002602001604051908101604052809291908181526020016000905b828210156106835783829060005260206000200180546105f6906123a2565b80601f0160208091040260200160405190810160405280929190818152602001828054610622906123a2565b801561066f5780601f106106445761010080835404028352916020019161066f565b820191906000526020600020905b81548152906001019060200180831161065257829003601f168201915b5050505050815260200190600101906105d7565b505050508152602001600482018054806020026020016040519081016040528092919081815260200182805480156106da57602002820191906000526020600020905b8154815260200190600101908083116106c6575b5050505050815250509050919050565b6106f2611a8a565b60606040518060a0016040528085815260200160405180602001604052806000815250815260200160405180602001604052806000815250815260200184815260200182815250600285604051610749919061235c565b9081526020016040518091039020600082015181600001908161076c919061257f565b506020820151816001019081610782919061257f565b506040820151816002019081610798919061257f565b5060608201518160030190805190602001906107b5929190611ab9565b5060808201518160040190805190602001906107d2929190611b12565b509050506107e08385610af9565b6002846040516107f0919061235c565b90815260200160405180910390206040518060a0016040529081600082018054610819906123a2565b80601f0160208091040260200160405190810160405280929190818152602001828054610845906123a2565b80156108925780601f1061086757610100808354040283529160200191610892565b820191906000526020600020905b81548152906001019060200180831161087557829003601f168201915b505050505081526020016001820180546108ab906123a2565b80601f01602080910402602001604051908101604052809291908181526020018280546108d7906123a2565b80156109245780601f106108f957610100808354040283529160200191610924565b820191906000526020600020905b81548152906001019060200180831161090757829003601f168201915b5050505050815260200160028201805461093d906123a2565b80601f0160208091040260200160405190810160405280929190818152602001828054610969906123a2565b80156109b65780601f1061098b576101008083540402835291602001916109b6565b820191906000526020600020905b81548152906001019060200180831161099957829003601f168201915b5050505050815260200160038201805480602002602001604051908101604052809291908181526020016000905b82821015610a90578382906000526020600020018054610a03906123a2565b80601f0160208091040260200160405190810160405280929190818152602001828054610a2f906123a2565b8015610a7c5780601f10610a5157610100808354040283529160200191610a7c565b820191906000526020600020905b815481529060010190602001808311610a5f57829003601f168201915b5050505050815260200190600101906109e4565b50505050815260200160048201805480602002602001604051908101604052809291908181526020018280548015610ae757602002820191906000526020600020905b815481526020019060010190808311610ad3575b50505050508152505091505092915050565b60005b8251811015610bfc576000838281518110610b1a57610b19612651565b5b60200260200101519050610b63816040518060400160405280600b81526020017f7573657257616c6c657473000000000000000000000000000000000000000000815250611490565b610be85782600582604051610b78919061235c565b90815260200160405180910390209081610b92919061257f565b50600283604051610ba3919061235c565b908152602001604051809103902060030181908060018154018082558091505060019003906000526020600020016000909190919091509081610be6919061257f565b505b508080610bf4906126af565b915050610afc565b505050565b610c09611a8a565b6000600583604051610c1b919061235c565b90815260200160405180910390208054610c34906123a2565b80601f0160208091040260200160405190810160405280929190818152602001828054610c60906123a2565b8015610cad5780601f10610c8257610100808354040283529160200191610cad565b820191906000526020600020905b815481529060010190602001808311610c9057829003601f168201915b50505050509050600281604051610cc4919061235c565b90815260200160405180910390206040518060a0016040529081600082018054610ced906123a2565b80601f0160208091040260200160405190810160405280929190818152602001828054610d19906123a2565b8015610d665780601f10610d3b57610100808354040283529160200191610d66565b820191906000526020600020905b815481529060010190602001808311610d4957829003601f168201915b50505050508152602001600182018054610d7f906123a2565b80601f0160208091040260200160405190810160405280929190818152602001828054610dab906123a2565b8015610df85780601f10610dcd57610100808354040283529160200191610df8565b820191906000526020600020905b815481529060010190602001808311610ddb57829003601f168201915b50505050508152602001600282018054610e11906123a2565b80601f0160208091040260200160405190810160405280929190818152602001828054610e3d906123a2565b8015610e8a5780601f10610e5f57610100808354040283529160200191610e8a565b820191906000526020600020905b815481529060010190602001808311610e6d57829003601f168201915b5050505050815260200160038201805480602002602001604051908101604052809291908181526020016000905b82821015610f64578382906000526020600020018054610ed7906123a2565b80601f0160208091040260200160405190810160405280929190818152602001828054610f03906123a2565b8015610f505780601f10610f2557610100808354040283529160200191610f50565b820191906000526020600020905b815481529060010190602001808311610f3357829003601f168201915b505050505081526020019060010190610eb8565b50505050815260200160048201805480602002602001604051908101604052809291908181526020018280548015610fbb57602002820191906000526020600020905b815481526020019060010190808311610fa7575b505050505081525050915050919050565b60008060009054906101000a900473ffffffffffffffffffffffffffffffffffffffff16905090565b565b6000815183511461100b57600090506110bf565b60005b83518110156110b95782818151811061102a57611029612651565b5b602001015160f81c60f81b7effffffffffffffffffffffffffffffffffffffffffffffffffffffffffffff191684828151811061106a57611069612651565b5b602001015160f81c60f81b7effffffffffffffffffffffffffffffffffffffffffffffffffffffffffffff1916146110a65760009150506110bf565b80806110b1906126af565b91505061100e565b50600190505b92915050565b6110cd611a8a565b60006006836040516110df919061235c565b908152602001604051809103902080546110f8906123a2565b80601f0160208091040260200160405190810160405280929190818152602001828054611124906123a2565b80156111715780601f1061114657610100808354040283529160200191611171565b820191906000526020600020905b81548152906001019060200180831161115457829003601f168201915b50505050509050600281604051611188919061235c565b90815260200160405180910390206040518060a00160405290816000820180546111b1906123a2565b80601f01602080910402602001604051908101604052809291908181526020018280546111dd906123a2565b801561122a5780601f106111ff5761010080835404028352916020019161122a565b820191906000526020600020905b81548152906001019060200180831161120d57829003601f168201915b50505050508152602001600182018054611243906123a2565b80601f016020809104026020016040519081016040528092919081815260200182805461126f906123a2565b80156112bc5780601f10611291576101008083540402835291602001916112bc565b820191906000526020600020905b81548152906001019060200180831161129f57829003601f168201915b505050505081526020016002820180546112d5906123a2565b80601f0160208091040260200160405190810160405280929190818152602001828054611301906123a2565b801561134e5780601f106113235761010080835404028352916020019161134e565b820191906000526020600020905b81548152906001019060200180831161133157829003601f168201915b5050505050815260200160038201805480602002602001604051908101604052809291908181526020016000905b8282101561142857838290600052602060002001805461139b906123a2565b80601f01602080910402602001604051908101604052809291908181526020018280546113c7906123a2565b80156114145780601f106113e957610100808354040283529160200191611414565b820191906000526020600020905b8154815290600101906020018083116113f757829003601f168201915b50505050508152602001906001019061137c565b5050505081526020016004820180548060200260200160405190810160405280929190818152602001828054801561147f57602002820191906000526020600020905b81548152602001906001019080831161146b575b505050505081525050915050919050565b60006114d1826040518060400160405280600b81526020017f7573657257616c6c657473000000000000000000000000000000000000000000815250610ff7565b15611548576040516020016114e59061271d565b6040516020818303038152906040528051906020012060058460405161150b919061235c565b908152602001604051809103902060405160200161152991906127b5565b60405160208183030381529060405280519060200120141590506116b9565b611587826040518060400160405280600881526020017f757365724c656e73000000000000000000000000000000000000000000000000815250610ff7565b156115fe5760405160200161159b9061271d565b604051602081830303815290604052805190602001206006846040516115c1919061235c565b90815260200160405180910390206040516020016115df91906127b5565b60405160208183030381529060405280519060200120141590506116b9565b61163d826040518060400160405280600881526020017f7573657257434944000000000000000000000000000000000000000000000000815250610ff7565b156116b4576040516020016116519061271d565b60405160208183030381529060405280519060200120600484604051611677919061235c565b908152602001604051809103902060405160200161169591906127b5565b60405160208183030381529060405280519060200120141590506116b9565b600090505b92915050565b6116c7611a8a565b60006004836040516116d9919061235c565b908152602001604051809103902080546116f2906123a2565b80601f016020809104026020016040519081016040528092919081815260200182805461171e906123a2565b801561176b5780601f106117405761010080835404028352916020019161176b565b820191906000526020600020905b81548152906001019060200180831161174e57829003601f168201915b50505050509050600281604051611782919061235c565b90815260200160405180910390206040518060a00160405290816000820180546117ab906123a2565b80601f01602080910402602001604051908101604052809291908181526020018280546117d7906123a2565b80156118245780601f106117f957610100808354040283529160200191611824565b820191906000526020600020905b81548152906001019060200180831161180757829003601f168201915b5050505050815260200160018201805461183d906123a2565b80601f0160208091040260200160405190810160405280929190818152602001828054611869906123a2565b80156118b65780601f1061188b576101008083540402835291602001916118b6565b820191906000526020600020905b81548152906001019060200180831161189957829003601f168201915b505050505081526020016002820180546118cf906123a2565b80601f01602080910402602001604051908101604052809291908181526020018280546118fb906123a2565b80156119485780601f1061191d57610100808354040283529160200191611948565b820191906000526020600020905b81548152906001019060200180831161192b57829003601f168201915b5050505050815260200160038201805480602002602001604051908101604052809291908181526020016000905b82821015611a22578382906000526020600020018054611995906123a2565b80601f01602080910402602001604051908101604052809291908181526020018280546119c1906123a2565b8015611a0e5780601f106119e357610100808354040283529160200191611a0e565b820191906000526020600020905b8154815290600101906020018083116119f157829003601f168201915b505050505081526020019060010190611976565b50505050815260200160048201805480602002602001604051908101604052809291908181526020018280548015611a7957602002820191906000526020600020905b815481526020019060010190808311611a65575b505050505081525050915050919050565b6040518060a0016040528060608152602001606081526020016060815260200160608152602001606081525090565b828054828255906000526020600020908101928215611b01579160200282015b82811115611b00578251829081611af0919061257f565b5091602001919060010190611ad9565b5b509050611b0e9190611b5f565b5090565b828054828255906000526020600020908101928215611b4e579160200282015b82811115611b4d578251825591602001919060010190611b32565b5b509050611b5b9190611b83565b5090565b5b80821115611b7f5760008181611b769190611ba0565b50600101611b60565b5090565b5b80821115611b9c576000816000905550600101611b84565b5090565b508054611bac906123a2565b6000825580601f10611bbe5750611bdd565b601f016020900490600052602060002090810190611bdc9190611b83565b5b50565b6000604051905090565b600080fd5b600080fd5b600080fd5b600080fd5b6000601f19601f8301169050919050565b7f4e487b7100000000000000000000000000000000000000000000000000000000600052604160045260246000fd5b611c4782611bfe565b810181811067ffffffffffffffff82111715611c6657611c65611c0f565b5b80604052505050565b6000611c79611be0565b9050611c858282611c3e565b919050565b600067ffffffffffffffff821115611ca557611ca4611c0f565b5b611cae82611bfe565b9050602081019050919050565b82818337600083830152505050565b6000611cdd611cd884611c8a565b611c6f565b905082815260208101848484011115611cf957611cf8611bf9565b5b611d04848285611cbb565b509392505050565b600082601f830112611d2157611d20611bf4565b5b8135611d31848260208601611cca565b91505092915050565b60008060408385031215611d5157611d50611bea565b5b600083013567ffffffffffffffff811115611d6f57611d6e611bef565b5b611d7b85828601611d0c565b925050602083013567ffffffffffffffff811115611d9c57611d9b611bef565b5b611da885828601611d0c565b9150509250929050565b600060208284031215611dc857611dc7611bea565b5b600082013567ffffffffffffffff811115611de657611de5611bef565b5b611df284828501611d0c565b91505092915050565b600081519050919050565b600082825260208201905092915050565b60005b83811015611e35578082015181840152602081019050611e1a565b60008484015250505050565b6000611e4c82611dfb565b611e568185611e06565b9350611e66818560208601611e17565b611e6f81611bfe565b840191505092915050565b600081519050919050565b600082825260208201905092915050565b6000819050602082019050919050565b6000611eb28383611e41565b905092915050565b6000602082019050919050565b6000611ed282611e7a565b611edc8185611e85565b935083602082028501611eee85611e96565b8060005b85811015611f2a5784840389528151611f0b8582611ea6565b9450611f1683611eba565b925060208a01995050600181019050611ef2565b50829750879550505050505092915050565b600081519050919050565b600082825260208201905092915050565b6000819050602082019050919050565b6000819050919050565b611f7b81611f68565b82525050565b6000611f8d8383611f72565b60208301905092915050565b6000602082019050919050565b6000611fb182611f3c565b611fbb8185611f47565b9350611fc683611f58565b8060005b83811015611ff7578151611fde8882611f81565b9750611fe983611f99565b925050600181019050611fca565b5085935050505092915050565b600060a08301600083015184820360008601526120218282611e41565b9150506020830151848203602086015261203b8282611e41565b915050604083015184820360408601526120558282611e41565b9150506060830151848203606086015261206f8282611ec7565b915050608083015184820360808601526120898282611fa6565b9150508091505092915050565b600060208201905081810360008301526120b08184612004565b905092915050565b600067ffffffffffffffff8211156120d3576120d2611c0f565b5b602082029050602081019050919050565b600080fd5b60006120fc6120f7846120b8565b611c6f565b9050808382526020820190506020840283018581111561211f5761211e6120e4565b5b835b8181101561216657803567ffffffffffffffff81111561214457612143611bf4565b5b8086016121518982611d0c565b85526020850194505050602081019050612121565b5050509392505050565b600082601f83011261218557612184611bf4565b5b81356121958482602086016120e9565b91505092915050565b600080604083850312156121b5576121b4611bea565b5b600083013567ffffffffffffffff8111156121d3576121d2611bef565b5b6121df85828601611d0c565b925050602083013567ffffffffffffffff811115612200576121ff611bef565b5b61220c85828601612170565b9150509250929050565b6000806040838503121561222d5761222c611bea565b5b600083013567ffffffffffffffff81111561224b5761224a611bef565b5b61225785828601612170565b925050602083013567ffffffffffffffff81111561227857612277611bef565b5b61228485828601611d0c565b9150509250929050565b600073ffffffffffffffffffffffffffffffffffffffff82169050919050565b60006122b98261228e565b9050919050565b6122c9816122ae565b82525050565b60006020820190506122e460008301846122c0565b92915050565b60008115159050919050565b6122ff816122ea565b82525050565b600060208201905061231a60008301846122f6565b92915050565b600081905092915050565b600061233682611dfb565b6123408185612320565b9350612350818560208601611e17565b80840191505092915050565b6000612368828461232b565b915081905092915050565b7f4e487b7100000000000000000000000000000000000000000000000000000000600052602260045260246000fd5b600060028204905060018216806123ba57607f821691505b6020821081036123cd576123cc612373565b5b50919050565b60008190508160005260206000209050919050565b60006020601f8301049050919050565b600082821b905092915050565b6000600883026124357fffffffffffffffffffffffffffffffffffffffffffffffffffffffffffffffff826123f8565b61243f86836123f8565b95508019841693508086168417925050509392505050565b6000819050919050565b600061247c61247761247284611f68565b612457565b611f68565b9050919050565b6000819050919050565b61249683612461565b6124aa6124a282612483565b848454612405565b825550505050565b600090565b6124bf6124b2565b6124ca81848461248d565b505050565b5b818110156124ee576124e36000826124b7565b6001810190506124d0565b5050565b601f82111561253357612504816123d3565b61250d846123e8565b8101602085101561251c578190505b612530612528856123e8565b8301826124cf565b50505b505050565b600082821c905092915050565b600061255660001984600802612538565b1980831691505092915050565b600061256f8383612545565b9150826002028217905092915050565b61258882611dfb565b67ffffffffffffffff8111156125a1576125a0611c0f565b5b6125ab82546123a2565b6125b68282856124f2565b600060209050601f8311600181146125e957600084156125d7578287015190505b6125e18582612563565b865550612649565b601f1984166125f7866123d3565b60005b8281101561261f578489015182556001820191506020850194506020810190506125fa565b8683101561263c5784890151612638601f891682612545565b8355505b6001600288020188555050505b505050505050565b7f4e487b7100000000000000000000000000000000000000000000000000000000600052603260045260246000fd5b7f4e487b7100000000000000000000000000000000000000000000000000000000600052601160045260246000fd5b60006126ba82611f68565b91507fffffffffffffffffffffffffffffffffffffffffffffffffffffffffffffffff82036126ec576126eb612680565b5b600182019050919050565b50565b6000612707600083612320565b9150612712826126f7565b600082019050919050565b6000612728826126fa565b9150819050919050565b6000815461273f816123a2565b6127498186612320565b945060018216600081146127645760018114612779576127ac565b60ff19831686528115158202860193506127ac565b612782856123d3565b60005b838110156127a457815481890152600182019150602081019050612785565b838801955050505b50505092915050565b60006127c18284612732565b91508190509291505056fea2646970667358221220808146d53ff467b41009d54cb40f483b8ac9f384cb76c5881fb5b62caccbea4d64736f6c63430008120033",
					"opcodes": "PUSH1 0x80 PUSH1 0x40 MSTORE CALLVALUE DUP1 ISZERO PUSH2 0x10 JUMPI PUSH1 0x0 DUP1 REVERT JUMPDEST POP CALLER PUSH1 0x0 DUP1 PUSH2 0x100 EXP DUP2 SLOAD DUP2 PUSH20 0xFFFFFFFFFFFFFFFFFFFFFFFFFFFFFFFFFFFFFFFF MUL NOT AND SWAP1 DUP4 PUSH20 0xFFFFFFFFFFFFFFFFFFFFFFFFFFFFFFFFFFFFFFFF AND MUL OR SWAP1 SSTORE POP PUSH2 0x2802 DUP1 PUSH2 0x60 PUSH1 0x0 CODECOPY PUSH1 0x0 RETURN INVALID PUSH1 0x80 PUSH1 0x40 MSTORE CALLVALUE DUP1 ISZERO PUSH2 0x10 JUMPI PUSH1 0x0 DUP1 REVERT JUMPDEST POP PUSH1 0x4 CALLDATASIZE LT PUSH2 0xB4 JUMPI PUSH1 0x0 CALLDATALOAD PUSH1 0xE0 SHR DUP1 PUSH4 0x893D20E8 GT PUSH2 0x71 JUMPI DUP1 PUSH4 0x893D20E8 EQ PUSH2 0x19D JUMPI DUP1 PUSH4 0x8D5FA841 EQ PUSH2 0x1BB JUMPI DUP1 PUSH4 0xBED34BBA EQ PUSH2 0x1C5 JUMPI DUP1 PUSH4 0xC77CFEEB EQ PUSH2 0x1F5 JUMPI DUP1 PUSH4 0xD430E05A EQ PUSH2 0x225 JUMPI DUP1 PUSH4 0xF70E1C5E EQ PUSH2 0x255 JUMPI PUSH2 0xB4 JUMP JUMPDEST DUP1 PUSH4 0x81396EB EQ PUSH2 0xB9 JUMPI DUP1 PUSH4 0x15C19C1D EQ PUSH2 0xD5 JUMPI DUP1 PUSH4 0x379F8FC2 EQ PUSH2 0xF1 JUMPI DUP1 PUSH4 0x51F40DD6 EQ PUSH2 0x121 JUMPI DUP1 PUSH4 0x63C60BD5 EQ PUSH2 0x151 JUMPI DUP1 PUSH4 0x7198ED1A EQ PUSH2 0x16D JUMPI JUMPDEST PUSH1 0x0 DUP1 REVERT JUMPDEST PUSH2 0xD3 PUSH1 0x4 DUP1 CALLDATASIZE SUB DUP2 ADD SWAP1 PUSH2 0xCE SWAP2 SWAP1 PUSH2 0x1D3A JUMP JUMPDEST PUSH2 0x285 JUMP JUMPDEST STOP JUMPDEST PUSH2 0xEF PUSH1 0x4 DUP1 CALLDATASIZE SUB DUP2 ADD SWAP1 PUSH2 0xEA SWAP2 SWAP1 PUSH2 0x1D3A JUMP JUMPDEST PUSH2 0x328 JUMP JUMPDEST STOP JUMPDEST PUSH2 0x10B PUSH1 0x4 DUP1 CALLDATASIZE SUB DUP2 ADD SWAP1 PUSH2 0x106 SWAP2 SWAP1 PUSH2 0x1DB2 JUMP JUMPDEST PUSH2 0x3CB JUMP JUMPDEST PUSH1 0x40 MLOAD PUSH2 0x118 SWAP2 SWAP1 PUSH2 0x2096 JUMP JUMPDEST PUSH1 0x40 MLOAD DUP1 SWAP2 SUB SWAP1 RETURN JUMPDEST PUSH2 0x13B PUSH1 0x4 DUP1 CALLDATASIZE SUB DUP2 ADD SWAP1 PUSH2 0x136 SWAP2 SWAP1 PUSH2 0x219E JUMP JUMPDEST PUSH2 0x6EA JUMP JUMPDEST PUSH1 0x40 MLOAD PUSH2 0x148 SWAP2 SWAP1 PUSH2 0x2096 JUMP JUMPDEST PUSH1 0x40 MLOAD DUP1 SWAP2 SUB SWAP1 RETURN JUMPDEST PUSH2 0x16B PUSH1 0x4 DUP1 CALLDATASIZE SUB DUP2 ADD SWAP1 PUSH2 0x166 SWAP2 SWAP1 PUSH2 0x2216 JUMP JUMPDEST PUSH2 0xAF9 JUMP JUMPDEST STOP JUMPDEST PUSH2 0x187 PUSH1 0x4 DUP1 CALLDATASIZE SUB DUP2 ADD SWAP1 PUSH2 0x182 SWAP2 SWAP1 PUSH2 0x1DB2 JUMP JUMPDEST PUSH2 0xC01 JUMP JUMPDEST PUSH1 0x40 MLOAD PUSH2 0x194 SWAP2 SWAP1 PUSH2 0x2096 JUMP JUMPDEST PUSH1 0x40 MLOAD DUP1 SWAP2 SUB SWAP1 RETURN JUMPDEST PUSH2 0x1A5 PUSH2 0xFCC JUMP JUMPDEST PUSH1 0x40 MLOAD PUSH2 0x1B2 SWAP2 SWAP1 PUSH2 0x22CF JUMP JUMPDEST PUSH1 0x40 MLOAD DUP1 SWAP2 SUB SWAP1 RETURN JUMPDEST PUSH2 0x1C3 PUSH2 0xFF5 JUMP JUMPDEST STOP JUMPDEST PUSH2 0x1DF PUSH1 0x4 DUP1 CALLDATASIZE SUB DUP2 ADD SWAP1 PUSH2 0x1DA SWAP2 SWAP1 PUSH2 0x1D3A JUMP JUMPDEST PUSH2 0xFF7 JUMP JUMPDEST PUSH1 0x40 MLOAD PUSH2 0x1EC SWAP2 SWAP1 PUSH2 0x2305 JUMP JUMPDEST PUSH1 0x40 MLOAD DUP1 SWAP2 SUB SWAP1 RETURN JUMPDEST PUSH2 0x20F PUSH1 0x4 DUP1 CALLDATASIZE SUB DUP2 ADD SWAP1 PUSH2 0x20A SWAP2 SWAP1 PUSH2 0x1DB2 JUMP JUMPDEST PUSH2 0x10C5 JUMP JUMPDEST PUSH1 0x40 MLOAD PUSH2 0x21C SWAP2 SWAP1 PUSH2 0x2096 JUMP JUMPDEST PUSH1 0x40 MLOAD DUP1 SWAP2 SUB SWAP1 RETURN JUMPDEST PUSH2 0x23F PUSH1 0x4 DUP1 CALLDATASIZE SUB DUP2 ADD SWAP1 PUSH2 0x23A SWAP2 SWAP1 PUSH2 0x1D3A JUMP JUMPDEST PUSH2 0x1490 JUMP JUMPDEST PUSH1 0x40 MLOAD PUSH2 0x24C SWAP2 SWAP1 PUSH2 0x2305 JUMP JUMPDEST PUSH1 0x40 MLOAD DUP1 SWAP2 SUB SWAP1 RETURN JUMPDEST PUSH2 0x26F PUSH1 0x4 DUP1 CALLDATASIZE SUB DUP2 ADD SWAP1 PUSH2 0x26A SWAP2 SWAP1 PUSH2 0x1DB2 JUMP JUMPDEST PUSH2 0x16BF JUMP JUMPDEST PUSH1 0x40 MLOAD PUSH2 0x27C SWAP2 SWAP1 PUSH2 0x2096 JUMP JUMPDEST PUSH1 0x40 MLOAD DUP1 SWAP2 SUB SWAP1 RETURN JUMPDEST PUSH2 0x2C4 DUP3 PUSH1 0x40 MLOAD DUP1 PUSH1 0x40 ADD PUSH1 0x40 MSTORE DUP1 PUSH1 0x8 DUP2 MSTORE PUSH1 0x20 ADD PUSH32 0x757365724C656E73000000000000000000000000000000000000000000000000 DUP2 MSTORE POP PUSH2 0x1490 JUMP JUMPDEST PUSH2 0x324 JUMPI DUP1 PUSH1 0x6 DUP4 PUSH1 0x40 MLOAD PUSH2 0x2D9 SWAP2 SWAP1 PUSH2 0x235C JUMP JUMPDEST SWAP1 DUP2 MSTORE PUSH1 0x20 ADD PUSH1 0x40 MLOAD DUP1 SWAP2 SUB SWAP1 KECCAK256 SWAP1 DUP2 PUSH2 0x2F3 SWAP2 SWAP1 PUSH2 0x257F JUMP JUMPDEST POP DUP2 PUSH1 0x2 DUP3 PUSH1 0x40 MLOAD PUSH2 0x305 SWAP2 SWAP1 PUSH2 0x235C JUMP JUMPDEST SWAP1 DUP2 MSTORE PUSH1 0x20 ADD PUSH1 0x40 MLOAD DUP1 SWAP2 SUB SWAP1 KECCAK256 PUSH1 0x2 ADD SWAP1 DUP2 PUSH2 0x322 SWAP2 SWAP1 PUSH2 0x257F JUMP JUMPDEST POP JUMPDEST POP POP JUMP JUMPDEST PUSH2 0x367 DUP3 PUSH1 0x40 MLOAD DUP1 PUSH1 0x40 ADD PUSH1 0x40 MSTORE DUP1 PUSH1 0x8 DUP2 MSTORE PUSH1 0x20 ADD PUSH32 0x7573657257434944000000000000000000000000000000000000000000000000 DUP2 MSTORE POP PUSH2 0x1490 JUMP JUMPDEST PUSH2 0x3C7 JUMPI DUP1 PUSH1 0x4 DUP4 PUSH1 0x40 MLOAD PUSH2 0x37C SWAP2 SWAP1 PUSH2 0x235C JUMP JUMPDEST SWAP1 DUP2 MSTORE PUSH1 0x20 ADD PUSH1 0x40 MLOAD DUP1 SWAP2 SUB SWAP1 KECCAK256 SWAP1 DUP2 PUSH2 0x396 SWAP2 SWAP1 PUSH2 0x257F JUMP JUMPDEST POP DUP2 PUSH1 0x2 DUP3 PUSH1 0x40 MLOAD PUSH2 0x3A8 SWAP2 SWAP1 PUSH2 0x235C JUMP JUMPDEST SWAP1 DUP2 MSTORE PUSH1 0x20 ADD PUSH1 0x40 MLOAD DUP1 SWAP2 SUB SWAP1 KECCAK256 PUSH1 0x1 ADD SWAP1 DUP2 PUSH2 0x3C5 SWAP2 SWAP1 PUSH2 0x257F JUMP JUMPDEST POP JUMPDEST POP POP JUMP JUMPDEST PUSH2 0x3D3 PUSH2 0x1A8A JUMP JUMPDEST PUSH1 0x2 DUP3 PUSH1 0x40 MLOAD PUSH2 0x3E3 SWAP2 SWAP1 PUSH2 0x235C JUMP JUMPDEST SWAP1 DUP2 MSTORE PUSH1 0x20 ADD PUSH1 0x40 MLOAD DUP1 SWAP2 SUB SWAP1 KECCAK256 PUSH1 0x40 MLOAD DUP1 PUSH1 0xA0 ADD PUSH1 0x40 MSTORE SWAP1 DUP2 PUSH1 0x0 DUP3 ADD DUP1 SLOAD PUSH2 0x40C SWAP1 PUSH2 0x23A2 JUMP JUMPDEST DUP1 PUSH1 0x1F ADD PUSH1 0x20 DUP1 SWAP2 DIV MUL PUSH1 0x20 ADD PUSH1 0x40 MLOAD SWAP1 DUP2 ADD PUSH1 0x40 MSTORE DUP1 SWAP3 SWAP2 SWAP1 DUP2 DUP2 MSTORE PUSH1 0x20 ADD DUP3 DUP1 SLOAD PUSH2 0x438 SWAP1 PUSH2 0x23A2 JUMP JUMPDEST DUP1 ISZERO PUSH2 0x485 JUMPI DUP1 PUSH1 0x1F LT PUSH2 0x45A JUMPI PUSH2 0x100 DUP1 DUP4 SLOAD DIV MUL DUP4 MSTORE SWAP2 PUSH1 0x20 ADD SWAP2 PUSH2 0x485 JUMP JUMPDEST DUP3 ADD SWAP2 SWAP1 PUSH1 0x0 MSTORE PUSH1 0x20 PUSH1 0x0 KECCAK256 SWAP1 JUMPDEST DUP2 SLOAD DUP2 MSTORE SWAP1 PUSH1 0x1 ADD SWAP1 PUSH1 0x20 ADD DUP1 DUP4 GT PUSH2 0x468 JUMPI DUP3 SWAP1 SUB PUSH1 0x1F AND DUP3 ADD SWAP2 JUMPDEST POP POP POP POP POP DUP2 MSTORE PUSH1 0x20 ADD PUSH1 0x1 DUP3 ADD DUP1 SLOAD PUSH2 0x49E SWAP1 PUSH2 0x23A2 JUMP JUMPDEST DUP1 PUSH1 0x1F ADD PUSH1 0x20 DUP1 SWAP2 DIV MUL PUSH1 0x20 ADD PUSH1 0x40 MLOAD SWAP1 DUP2 ADD PUSH1 0x40 MSTORE DUP1 SWAP3 SWAP2 SWAP1 DUP2 DUP2 MSTORE PUSH1 0x20 ADD DUP3 DUP1 SLOAD PUSH2 0x4CA SWAP1 PUSH2 0x23A2 JUMP JUMPDEST DUP1 ISZERO PUSH2 0x517 JUMPI DUP1 PUSH1 0x1F LT PUSH2 0x4EC JUMPI PUSH2 0x100 DUP1 DUP4 SLOAD DIV MUL DUP4 MSTORE SWAP2 PUSH1 0x20 ADD SWAP2 PUSH2 0x517 JUMP JUMPDEST DUP3 ADD SWAP2 SWAP1 PUSH1 0x0 MSTORE PUSH1 0x20 PUSH1 0x0 KECCAK256 SWAP1 JUMPDEST DUP2 SLOAD DUP2 MSTORE SWAP1 PUSH1 0x1 ADD SWAP1 PUSH1 0x20 ADD DUP1 DUP4 GT PUSH2 0x4FA JUMPI DUP3 SWAP1 SUB PUSH1 0x1F AND DUP3 ADD SWAP2 JUMPDEST POP POP POP POP POP DUP2 MSTORE PUSH1 0x20 ADD PUSH1 0x2 DUP3 ADD DUP1 SLOAD PUSH2 0x530 SWAP1 PUSH2 0x23A2 JUMP JUMPDEST DUP1 PUSH1 0x1F ADD PUSH1 0x20 DUP1 SWAP2 DIV MUL PUSH1 0x20 ADD PUSH1 0x40 MLOAD SWAP1 DUP2 ADD PUSH1 0x40 MSTORE DUP1 SWAP3 SWAP2 SWAP1 DUP2 DUP2 MSTORE PUSH1 0x20 ADD DUP3 DUP1 SLOAD PUSH2 0x55C SWAP1 PUSH2 0x23A2 JUMP JUMPDEST DUP1 ISZERO PUSH2 0x5A9 JUMPI DUP1 PUSH1 0x1F LT PUSH2 0x57E JUMPI PUSH2 0x100 DUP1 DUP4 SLOAD DIV MUL DUP4 MSTORE SWAP2 PUSH1 0x20 ADD SWAP2 PUSH2 0x5A9 JUMP JUMPDEST DUP3 ADD SWAP2 SWAP1 PUSH1 0x0 MSTORE PUSH1 0x20 PUSH1 0x0 KECCAK256 SWAP1 JUMPDEST DUP2 SLOAD DUP2 MSTORE SWAP1 PUSH1 0x1 ADD SWAP1 PUSH1 0x20 ADD DUP1 DUP4 GT PUSH2 0x58C JUMPI DUP3 SWAP1 SUB PUSH1 0x1F AND DUP3 ADD SWAP2 JUMPDEST POP POP POP POP POP DUP2 MSTORE PUSH1 0x20 ADD PUSH1 0x3 DUP3 ADD DUP1 SLOAD DUP1 PUSH1 0x20 MUL PUSH1 0x20 ADD PUSH1 0x40 MLOAD SWAP1 DUP2 ADD PUSH1 0x40 MSTORE DUP1 SWAP3 SWAP2 SWAP1 DUP2 DUP2 MSTORE PUSH1 0x20 ADD PUSH1 0x0 SWAP1 JUMPDEST DUP3 DUP3 LT ISZERO PUSH2 0x683 JUMPI DUP4 DUP3 SWAP1 PUSH1 0x0 MSTORE PUSH1 0x20 PUSH1 0x0 KECCAK256 ADD DUP1 SLOAD PUSH2 0x5F6 SWAP1 PUSH2 0x23A2 JUMP JUMPDEST DUP1 PUSH1 0x1F ADD PUSH1 0x20 DUP1 SWAP2 DIV MUL PUSH1 0x20 ADD PUSH1 0x40 MLOAD SWAP1 DUP2 ADD PUSH1 0x40 MSTORE DUP1 SWAP3 SWAP2 SWAP1 DUP2 DUP2 MSTORE PUSH1 0x20 ADD DUP3 DUP1 SLOAD PUSH2 0x622 SWAP1 PUSH2 0x23A2 JUMP JUMPDEST DUP1 ISZERO PUSH2 0x66F JUMPI DUP1 PUSH1 0x1F LT PUSH2 0x644 JUMPI PUSH2 0x100 DUP1 DUP4 SLOAD DIV MUL DUP4 MSTORE SWAP2 PUSH1 0x20 ADD SWAP2 PUSH2 0x66F JUMP JUMPDEST DUP3 ADD SWAP2 SWAP1 PUSH1 0x0 MSTORE PUSH1 0x20 PUSH1 0x0 KECCAK256 SWAP1 JUMPDEST DUP2 SLOAD DUP2 MSTORE SWAP1 PUSH1 0x1 ADD SWAP1 PUSH1 0x20 ADD DUP1 DUP4 GT PUSH2 0x652 JUMPI DUP3 SWAP1 SUB PUSH1 0x1F AND DUP3 ADD SWAP2 JUMPDEST POP POP POP POP POP DUP2 MSTORE PUSH1 0x20 ADD SWAP1 PUSH1 0x1 ADD SWAP1 PUSH2 0x5D7 JUMP JUMPDEST POP POP POP POP DUP2 MSTORE PUSH1 0x20 ADD PUSH1 0x4 DUP3 ADD DUP1 SLOAD DUP1 PUSH1 0x20 MUL PUSH1 0x20 ADD PUSH1 0x40 MLOAD SWAP1 DUP2 ADD PUSH1 0x40 MSTORE DUP1 SWAP3 SWAP2 SWAP1 DUP2 DUP2 MSTORE PUSH1 0x20 ADD DUP3 DUP1 SLOAD DUP1 ISZERO PUSH2 0x6DA JUMPI PUSH1 0x20 MUL DUP3 ADD SWAP2 SWAP1 PUSH1 0x0 MSTORE PUSH1 0x20 PUSH1 0x0 KECCAK256 SWAP1 JUMPDEST DUP2 SLOAD DUP2 MSTORE PUSH1 0x20 ADD SWAP1 PUSH1 0x1 ADD SWAP1 DUP1 DUP4 GT PUSH2 0x6C6 JUMPI JUMPDEST POP POP POP POP POP DUP2 MSTORE POP POP SWAP1 POP SWAP2 SWAP1 POP JUMP JUMPDEST PUSH2 0x6F2 PUSH2 0x1A8A JUMP JUMPDEST PUSH1 0x60 PUSH1 0x40 MLOAD DUP1 PUSH1 0xA0 ADD PUSH1 0x40 MSTORE DUP1 DUP6 DUP2 MSTORE PUSH1 0x20 ADD PUSH1 0x40 MLOAD DUP1 PUSH1 0x20 ADD PUSH1 0x40 MSTORE DUP1 PUSH1 0x0 DUP2 MSTORE POP DUP2 MSTORE PUSH1 0x20 ADD PUSH1 0x40 MLOAD DUP1 PUSH1 0x20 ADD PUSH1 0x40 MSTORE DUP1 PUSH1 0x0 DUP2 MSTORE POP DUP2 MSTORE PUSH1 0x20 ADD DUP5 DUP2 MSTORE PUSH1 0x20 ADD DUP3 DUP2 MSTORE POP PUSH1 0x2 DUP6 PUSH1 0x40 MLOAD PUSH2 0x749 SWAP2 SWAP1 PUSH2 0x235C JUMP JUMPDEST SWAP1 DUP2 MSTORE PUSH1 0x20 ADD PUSH1 0x40 MLOAD DUP1 SWAP2 SUB SWAP1 KECCAK256 PUSH1 0x0 DUP3 ADD MLOAD DUP2 PUSH1 0x0 ADD SWAP1 DUP2 PUSH2 0x76C SWAP2 SWAP1 PUSH2 0x257F JUMP JUMPDEST POP PUSH1 0x20 DUP3 ADD MLOAD DUP2 PUSH1 0x1 ADD SWAP1 DUP2 PUSH2 0x782 SWAP2 SWAP1 PUSH2 0x257F JUMP JUMPDEST POP PUSH1 0x40 DUP3 ADD MLOAD DUP2 PUSH1 0x2 ADD SWAP1 DUP2 PUSH2 0x798 SWAP2 SWAP1 PUSH2 0x257F JUMP JUMPDEST POP PUSH1 0x60 DUP3 ADD MLOAD DUP2 PUSH1 0x3 ADD SWAP1 DUP1 MLOAD SWAP1 PUSH1 0x20 ADD SWAP1 PUSH2 0x7B5 SWAP3 SWAP2 SWAP1 PUSH2 0x1AB9 JUMP JUMPDEST POP PUSH1 0x80 DUP3 ADD MLOAD DUP2 PUSH1 0x4 ADD SWAP1 DUP1 MLOAD SWAP1 PUSH1 0x20 ADD SWAP1 PUSH2 0x7D2 SWAP3 SWAP2 SWAP1 PUSH2 0x1B12 JUMP JUMPDEST POP SWAP1 POP POP PUSH2 0x7E0 DUP4 DUP6 PUSH2 0xAF9 JUMP JUMPDEST PUSH1 0x2 DUP5 PUSH1 0x40 MLOAD PUSH2 0x7F0 SWAP2 SWAP1 PUSH2 0x235C JUMP JUMPDEST SWAP1 DUP2 MSTORE PUSH1 0x20 ADD PUSH1 0x40 MLOAD DUP1 SWAP2 SUB SWAP1 KECCAK256 PUSH1 0x40 MLOAD DUP1 PUSH1 0xA0 ADD PUSH1 0x40 MSTORE SWAP1 DUP2 PUSH1 0x0 DUP3 ADD DUP1 SLOAD PUSH2 0x819 SWAP1 PUSH2 0x23A2 JUMP JUMPDEST DUP1 PUSH1 0x1F ADD PUSH1 0x20 DUP1 SWAP2 DIV MUL PUSH1 0x20 ADD PUSH1 0x40 MLOAD SWAP1 DUP2 ADD PUSH1 0x40 MSTORE DUP1 SWAP3 SWAP2 SWAP1 DUP2 DUP2 MSTORE PUSH1 0x20 ADD DUP3 DUP1 SLOAD PUSH2 0x845 SWAP1 PUSH2 0x23A2 JUMP JUMPDEST DUP1 ISZERO PUSH2 0x892 JUMPI DUP1 PUSH1 0x1F LT PUSH2 0x867 JUMPI PUSH2 0x100 DUP1 DUP4 SLOAD DIV MUL DUP4 MSTORE SWAP2 PUSH1 0x20 ADD SWAP2 PUSH2 0x892 JUMP JUMPDEST DUP3 ADD SWAP2 SWAP1 PUSH1 0x0 MSTORE PUSH1 0x20 PUSH1 0x0 KECCAK256 SWAP1 JUMPDEST DUP2 SLOAD DUP2 MSTORE SWAP1 PUSH1 0x1 ADD SWAP1 PUSH1 0x20 ADD DUP1 DUP4 GT PUSH2 0x875 JUMPI DUP3 SWAP1 SUB PUSH1 0x1F AND DUP3 ADD SWAP2 JUMPDEST POP POP POP POP POP DUP2 MSTORE PUSH1 0x20 ADD PUSH1 0x1 DUP3 ADD DUP1 SLOAD PUSH2 0x8AB SWAP1 PUSH2 0x23A2 JUMP JUMPDEST DUP1 PUSH1 0x1F ADD PUSH1 0x20 DUP1 SWAP2 DIV MUL PUSH1 0x20 ADD PUSH1 0x40 MLOAD SWAP1 DUP2 ADD PUSH1 0x40 MSTORE DUP1 SWAP3 SWAP2 SWAP1 DUP2 DUP2 MSTORE PUSH1 0x20 ADD DUP3 DUP1 SLOAD PUSH2 0x8D7 SWAP1 PUSH2 0x23A2 JUMP JUMPDEST DUP1 ISZERO PUSH2 0x924 JUMPI DUP1 PUSH1 0x1F LT PUSH2 0x8F9 JUMPI PUSH2 0x100 DUP1 DUP4 SLOAD DIV MUL DUP4 MSTORE SWAP2 PUSH1 0x20 ADD SWAP2 PUSH2 0x924 JUMP JUMPDEST DUP3 ADD SWAP2 SWAP1 PUSH1 0x0 MSTORE PUSH1 0x20 PUSH1 0x0 KECCAK256 SWAP1 JUMPDEST DUP2 SLOAD DUP2 MSTORE SWAP1 PUSH1 0x1 ADD SWAP1 PUSH1 0x20 ADD DUP1 DUP4 GT PUSH2 0x907 JUMPI DUP3 SWAP1 SUB PUSH1 0x1F AND DUP3 ADD SWAP2 JUMPDEST POP POP POP POP POP DUP2 MSTORE PUSH1 0x20 ADD PUSH1 0x2 DUP3 ADD DUP1 SLOAD PUSH2 0x93D SWAP1 PUSH2 0x23A2 JUMP JUMPDEST DUP1 PUSH1 0x1F ADD PUSH1 0x20 DUP1 SWAP2 DIV MUL PUSH1 0x20 ADD PUSH1 0x40 MLOAD SWAP1 DUP2 ADD PUSH1 0x40 MSTORE DUP1 SWAP3 SWAP2 SWAP1 DUP2 DUP2 MSTORE PUSH1 0x20 ADD DUP3 DUP1 SLOAD PUSH2 0x969 SWAP1 PUSH2 0x23A2 JUMP JUMPDEST DUP1 ISZERO PUSH2 0x9B6 JUMPI DUP1 PUSH1 0x1F LT PUSH2 0x98B JUMPI PUSH2 0x100 DUP1 DUP4 SLOAD DIV MUL DUP4 MSTORE SWAP2 PUSH1 0x20 ADD SWAP2 PUSH2 0x9B6 JUMP JUMPDEST DUP3 ADD SWAP2 SWAP1 PUSH1 0x0 MSTORE PUSH1 0x20 PUSH1 0x0 KECCAK256 SWAP1 JUMPDEST DUP2 SLOAD DUP2 MSTORE SWAP1 PUSH1 0x1 ADD SWAP1 PUSH1 0x20 ADD DUP1 DUP4 GT PUSH2 0x999 JUMPI DUP3 SWAP1 SUB PUSH1 0x1F AND DUP3 ADD SWAP2 JUMPDEST POP POP POP POP POP DUP2 MSTORE PUSH1 0x20 ADD PUSH1 0x3 DUP3 ADD DUP1 SLOAD DUP1 PUSH1 0x20 MUL PUSH1 0x20 ADD PUSH1 0x40 MLOAD SWAP1 DUP2 ADD PUSH1 0x40 MSTORE DUP1 SWAP3 SWAP2 SWAP1 DUP2 DUP2 MSTORE PUSH1 0x20 ADD PUSH1 0x0 SWAP1 JUMPDEST DUP3 DUP3 LT ISZERO PUSH2 0xA90 JUMPI DUP4 DUP3 SWAP1 PUSH1 0x0 MSTORE PUSH1 0x20 PUSH1 0x0 KECCAK256 ADD DUP1 SLOAD PUSH2 0xA03 SWAP1 PUSH2 0x23A2 JUMP JUMPDEST DUP1 PUSH1 0x1F ADD PUSH1 0x20 DUP1 SWAP2 DIV MUL PUSH1 0x20 ADD PUSH1 0x40 MLOAD SWAP1 DUP2 ADD PUSH1 0x40 MSTORE DUP1 SWAP3 SWAP2 SWAP1 DUP2 DUP2 MSTORE PUSH1 0x20 ADD DUP3 DUP1 SLOAD PUSH2 0xA2F SWAP1 PUSH2 0x23A2 JUMP JUMPDEST DUP1 ISZERO PUSH2 0xA7C JUMPI DUP1 PUSH1 0x1F LT PUSH2 0xA51 JUMPI PUSH2 0x100 DUP1 DUP4 SLOAD DIV MUL DUP4 MSTORE SWAP2 PUSH1 0x20 ADD SWAP2 PUSH2 0xA7C JUMP JUMPDEST DUP3 ADD SWAP2 SWAP1 PUSH1 0x0 MSTORE PUSH1 0x20 PUSH1 0x0 KECCAK256 SWAP1 JUMPDEST DUP2 SLOAD DUP2 MSTORE SWAP1 PUSH1 0x1 ADD SWAP1 PUSH1 0x20 ADD DUP1 DUP4 GT PUSH2 0xA5F JUMPI DUP3 SWAP1 SUB PUSH1 0x1F AND DUP3 ADD SWAP2 JUMPDEST POP POP POP POP POP DUP2 MSTORE PUSH1 0x20 ADD SWAP1 PUSH1 0x1 ADD SWAP1 PUSH2 0x9E4 JUMP JUMPDEST POP POP POP POP DUP2 MSTORE PUSH1 0x20 ADD PUSH1 0x4 DUP3 ADD DUP1 SLOAD DUP1 PUSH1 0x20 MUL PUSH1 0x20 ADD PUSH1 0x40 MLOAD SWAP1 DUP2 ADD PUSH1 0x40 MSTORE DUP1 SWAP3 SWAP2 SWAP1 DUP2 DUP2 MSTORE PUSH1 0x20 ADD DUP3 DUP1 SLOAD DUP1 ISZERO PUSH2 0xAE7 JUMPI PUSH1 0x20 MUL DUP3 ADD SWAP2 SWAP1 PUSH1 0x0 MSTORE PUSH1 0x20 PUSH1 0x0 KECCAK256 SWAP1 JUMPDEST DUP2 SLOAD DUP2 MSTORE PUSH1 0x20 ADD SWAP1 PUSH1 0x1 ADD SWAP1 DUP1 DUP4 GT PUSH2 0xAD3 JUMPI JUMPDEST POP POP POP POP POP DUP2 MSTORE POP POP SWAP2 POP POP SWAP3 SWAP2 POP POP JUMP JUMPDEST PUSH1 0x0 JUMPDEST DUP3 MLOAD DUP2 LT ISZERO PUSH2 0xBFC JUMPI PUSH1 0x0 DUP4 DUP3 DUP2 MLOAD DUP2 LT PUSH2 0xB1A JUMPI PUSH2 0xB19 PUSH2 0x2651 JUMP JUMPDEST JUMPDEST PUSH1 0x20 MUL PUSH1 0x20 ADD ADD MLOAD SWAP1 POP PUSH2 0xB63 DUP2 PUSH1 0x40 MLOAD DUP1 PUSH1 0x40 ADD PUSH1 0x40 MSTORE DUP1 PUSH1 0xB DUP2 MSTORE PUSH1 0x20 ADD PUSH32 0x7573657257616C6C657473000000000000000000000000000000000000000000 DUP2 MSTORE POP PUSH2 0x1490 JUMP JUMPDEST PUSH2 0xBE8 JUMPI DUP3 PUSH1 0x5 DUP3 PUSH1 0x40 MLOAD PUSH2 0xB78 SWAP2 SWAP1 PUSH2 0x235C JUMP JUMPDEST SWAP1 DUP2 MSTORE PUSH1 0x20 ADD PUSH1 0x40 MLOAD DUP1 SWAP2 SUB SWAP1 KECCAK256 SWAP1 DUP2 PUSH2 0xB92 SWAP2 SWAP1 PUSH2 0x257F JUMP JUMPDEST POP PUSH1 0x2 DUP4 PUSH1 0x40 MLOAD PUSH2 0xBA3 SWAP2 SWAP1 PUSH2 0x235C JUMP JUMPDEST SWAP1 DUP2 MSTORE PUSH1 0x20 ADD PUSH1 0x40 MLOAD DUP1 SWAP2 SUB SWAP1 KECCAK256 PUSH1 0x3 ADD DUP2 SWAP1 DUP1 PUSH1 0x1 DUP2 SLOAD ADD DUP1 DUP3 SSTORE DUP1 SWAP2 POP POP PUSH1 0x1 SWAP1 SUB SWAP1 PUSH1 0x0 MSTORE PUSH1 0x20 PUSH1 0x0 KECCAK256 ADD PUSH1 0x0 SWAP1 SWAP2 SWAP1 SWAP2 SWAP1 SWAP2 POP SWAP1 DUP2 PUSH2 0xBE6 SWAP2 SWAP1 PUSH2 0x257F JUMP JUMPDEST POP JUMPDEST POP DUP1 DUP1 PUSH2 0xBF4 SWAP1 PUSH2 0x26AF JUMP JUMPDEST SWAP2 POP POP PUSH2 0xAFC JUMP JUMPDEST POP POP POP JUMP JUMPDEST PUSH2 0xC09 PUSH2 0x1A8A JUMP JUMPDEST PUSH1 0x0 PUSH1 0x5 DUP4 PUSH1 0x40 MLOAD PUSH2 0xC1B SWAP2 SWAP1 PUSH2 0x235C JUMP JUMPDEST SWAP1 DUP2 MSTORE PUSH1 0x20 ADD PUSH1 0x40 MLOAD DUP1 SWAP2 SUB SWAP1 KECCAK256 DUP1 SLOAD PUSH2 0xC34 SWAP1 PUSH2 0x23A2 JUMP JUMPDEST DUP1 PUSH1 0x1F ADD PUSH1 0x20 DUP1 SWAP2 DIV MUL PUSH1 0x20 ADD PUSH1 0x40 MLOAD SWAP1 DUP2 ADD PUSH1 0x40 MSTORE DUP1 SWAP3 SWAP2 SWAP1 DUP2 DUP2 MSTORE PUSH1 0x20 ADD DUP3 DUP1 SLOAD PUSH2 0xC60 SWAP1 PUSH2 0x23A2 JUMP JUMPDEST DUP1 ISZERO PUSH2 0xCAD JUMPI DUP1 PUSH1 0x1F LT PUSH2 0xC82 JUMPI PUSH2 0x100 DUP1 DUP4 SLOAD DIV MUL DUP4 MSTORE SWAP2 PUSH1 0x20 ADD SWAP2 PUSH2 0xCAD JUMP JUMPDEST DUP3 ADD SWAP2 SWAP1 PUSH1 0x0 MSTORE PUSH1 0x20 PUSH1 0x0 KECCAK256 SWAP1 JUMPDEST DUP2 SLOAD DUP2 MSTORE SWAP1 PUSH1 0x1 ADD SWAP1 PUSH1 0x20 ADD DUP1 DUP4 GT PUSH2 0xC90 JUMPI DUP3 SWAP1 SUB PUSH1 0x1F AND DUP3 ADD SWAP2 JUMPDEST POP POP POP POP POP SWAP1 POP PUSH1 0x2 DUP2 PUSH1 0x40 MLOAD PUSH2 0xCC4 SWAP2 SWAP1 PUSH2 0x235C JUMP JUMPDEST SWAP1 DUP2 MSTORE PUSH1 0x20 ADD PUSH1 0x40 MLOAD DUP1 SWAP2 SUB SWAP1 KECCAK256 PUSH1 0x40 MLOAD DUP1 PUSH1 0xA0 ADD PUSH1 0x40 MSTORE SWAP1 DUP2 PUSH1 0x0 DUP3 ADD DUP1 SLOAD PUSH2 0xCED SWAP1 PUSH2 0x23A2 JUMP JUMPDEST DUP1 PUSH1 0x1F ADD PUSH1 0x20 DUP1 SWAP2 DIV MUL PUSH1 0x20 ADD PUSH1 0x40 MLOAD SWAP1 DUP2 ADD PUSH1 0x40 MSTORE DUP1 SWAP3 SWAP2 SWAP1 DUP2 DUP2 MSTORE PUSH1 0x20 ADD DUP3 DUP1 SLOAD PUSH2 0xD19 SWAP1 PUSH2 0x23A2 JUMP JUMPDEST DUP1 ISZERO PUSH2 0xD66 JUMPI DUP1 PUSH1 0x1F LT PUSH2 0xD3B JUMPI PUSH2 0x100 DUP1 DUP4 SLOAD DIV MUL DUP4 MSTORE SWAP2 PUSH1 0x20 ADD SWAP2 PUSH2 0xD66 JUMP JUMPDEST DUP3 ADD SWAP2 SWAP1 PUSH1 0x0 MSTORE PUSH1 0x20 PUSH1 0x0 KECCAK256 SWAP1 JUMPDEST DUP2 SLOAD DUP2 MSTORE SWAP1 PUSH1 0x1 ADD SWAP1 PUSH1 0x20 ADD DUP1 DUP4 GT PUSH2 0xD49 JUMPI DUP3 SWAP1 SUB PUSH1 0x1F AND DUP3 ADD SWAP2 JUMPDEST POP POP POP POP POP DUP2 MSTORE PUSH1 0x20 ADD PUSH1 0x1 DUP3 ADD DUP1 SLOAD PUSH2 0xD7F SWAP1 PUSH2 0x23A2 JUMP JUMPDEST DUP1 PUSH1 0x1F ADD PUSH1 0x20 DUP1 SWAP2 DIV MUL PUSH1 0x20 ADD PUSH1 0x40 MLOAD SWAP1 DUP2 ADD PUSH1 0x40 MSTORE DUP1 SWAP3 SWAP2 SWAP1 DUP2 DUP2 MSTORE PUSH1 0x20 ADD DUP3 DUP1 SLOAD PUSH2 0xDAB SWAP1 PUSH2 0x23A2 JUMP JUMPDEST DUP1 ISZERO PUSH2 0xDF8 JUMPI DUP1 PUSH1 0x1F LT PUSH2 0xDCD JUMPI PUSH2 0x100 DUP1 DUP4 SLOAD DIV MUL DUP4 MSTORE SWAP2 PUSH1 0x20 ADD SWAP2 PUSH2 0xDF8 JUMP JUMPDEST DUP3 ADD SWAP2 SWAP1 PUSH1 0x0 MSTORE PUSH1 0x20 PUSH1 0x0 KECCAK256 SWAP1 JUMPDEST DUP2 SLOAD DUP2 MSTORE SWAP1 PUSH1 0x1 ADD SWAP1 PUSH1 0x20 ADD DUP1 DUP4 GT PUSH2 0xDDB JUMPI DUP3 SWAP1 SUB PUSH1 0x1F AND DUP3 ADD SWAP2 JUMPDEST POP POP POP POP POP DUP2 MSTORE PUSH1 0x20 ADD PUSH1 0x2 DUP3 ADD DUP1 SLOAD PUSH2 0xE11 SWAP1 PUSH2 0x23A2 JUMP JUMPDEST DUP1 PUSH1 0x1F ADD PUSH1 0x20 DUP1 SWAP2 DIV MUL PUSH1 0x20 ADD PUSH1 0x40 MLOAD SWAP1 DUP2 ADD PUSH1 0x40 MSTORE DUP1 SWAP3 SWAP2 SWAP1 DUP2 DUP2 MSTORE PUSH1 0x20 ADD DUP3 DUP1 SLOAD PUSH2 0xE3D SWAP1 PUSH2 0x23A2 JUMP JUMPDEST DUP1 ISZERO PUSH2 0xE8A JUMPI DUP1 PUSH1 0x1F LT PUSH2 0xE5F JUMPI PUSH2 0x100 DUP1 DUP4 SLOAD DIV MUL DUP4 MSTORE SWAP2 PUSH1 0x20 ADD SWAP2 PUSH2 0xE8A JUMP JUMPDEST DUP3 ADD SWAP2 SWAP1 PUSH1 0x0 MSTORE PUSH1 0x20 PUSH1 0x0 KECCAK256 SWAP1 JUMPDEST DUP2 SLOAD DUP2 MSTORE SWAP1 PUSH1 0x1 ADD SWAP1 PUSH1 0x20 ADD DUP1 DUP4 GT PUSH2 0xE6D JUMPI DUP3 SWAP1 SUB PUSH1 0x1F AND DUP3 ADD SWAP2 JUMPDEST POP POP POP POP POP DUP2 MSTORE PUSH1 0x20 ADD PUSH1 0x3 DUP3 ADD DUP1 SLOAD DUP1 PUSH1 0x20 MUL PUSH1 0x20 ADD PUSH1 0x40 MLOAD SWAP1 DUP2 ADD PUSH1 0x40 MSTORE DUP1 SWAP3 SWAP2 SWAP1 DUP2 DUP2 MSTORE PUSH1 0x20 ADD PUSH1 0x0 SWAP1 JUMPDEST DUP3 DUP3 LT ISZERO PUSH2 0xF64 JUMPI DUP4 DUP3 SWAP1 PUSH1 0x0 MSTORE PUSH1 0x20 PUSH1 0x0 KECCAK256 ADD DUP1 SLOAD PUSH2 0xED7 SWAP1 PUSH2 0x23A2 JUMP JUMPDEST DUP1 PUSH1 0x1F ADD PUSH1 0x20 DUP1 SWAP2 DIV MUL PUSH1 0x20 ADD PUSH1 0x40 MLOAD SWAP1 DUP2 ADD PUSH1 0x40 MSTORE DUP1 SWAP3 SWAP2 SWAP1 DUP2 DUP2 MSTORE PUSH1 0x20 ADD DUP3 DUP1 SLOAD PUSH2 0xF03 SWAP1 PUSH2 0x23A2 JUMP JUMPDEST DUP1 ISZERO PUSH2 0xF50 JUMPI DUP1 PUSH1 0x1F LT PUSH2 0xF25 JUMPI PUSH2 0x100 DUP1 DUP4 SLOAD DIV MUL DUP4 MSTORE SWAP2 PUSH1 0x20 ADD SWAP2 PUSH2 0xF50 JUMP JUMPDEST DUP3 ADD SWAP2 SWAP1 PUSH1 0x0 MSTORE PUSH1 0x20 PUSH1 0x0 KECCAK256 SWAP1 JUMPDEST DUP2 SLOAD DUP2 MSTORE SWAP1 PUSH1 0x1 ADD SWAP1 PUSH1 0x20 ADD DUP1 DUP4 GT PUSH2 0xF33 JUMPI DUP3 SWAP1 SUB PUSH1 0x1F AND DUP3 ADD SWAP2 JUMPDEST POP POP POP POP POP DUP2 MSTORE PUSH1 0x20 ADD SWAP1 PUSH1 0x1 ADD SWAP1 PUSH2 0xEB8 JUMP JUMPDEST POP POP POP POP DUP2 MSTORE PUSH1 0x20 ADD PUSH1 0x4 DUP3 ADD DUP1 SLOAD DUP1 PUSH1 0x20 MUL PUSH1 0x20 ADD PUSH1 0x40 MLOAD SWAP1 DUP2 ADD PUSH1 0x40 MSTORE DUP1 SWAP3 SWAP2 SWAP1 DUP2 DUP2 MSTORE PUSH1 0x20 ADD DUP3 DUP1 SLOAD DUP1 ISZERO PUSH2 0xFBB JUMPI PUSH1 0x20 MUL DUP3 ADD SWAP2 SWAP1 PUSH1 0x0 MSTORE PUSH1 0x20 PUSH1 0x0 KECCAK256 SWAP1 JUMPDEST DUP2 SLOAD DUP2 MSTORE PUSH1 0x20 ADD SWAP1 PUSH1 0x1 ADD SWAP1 DUP1 DUP4 GT PUSH2 0xFA7 JUMPI JUMPDEST POP POP POP POP POP DUP2 MSTORE POP POP SWAP2 POP POP SWAP2 SWAP1 POP JUMP JUMPDEST PUSH1 0x0 DUP1 PUSH1 0x0 SWAP1 SLOAD SWAP1 PUSH2 0x100 EXP SWAP1 DIV PUSH20 0xFFFFFFFFFFFFFFFFFFFFFFFFFFFFFFFFFFFFFFFF AND SWAP1 POP SWAP1 JUMP JUMPDEST JUMP JUMPDEST PUSH1 0x0 DUP2 MLOAD DUP4 MLOAD EQ PUSH2 0x100B JUMPI PUSH1 0x0 SWAP1 POP PUSH2 0x10BF JUMP JUMPDEST PUSH1 0x0 JUMPDEST DUP4 MLOAD DUP2 LT ISZERO PUSH2 0x10B9 JUMPI DUP3 DUP2 DUP2 MLOAD DUP2 LT PUSH2 0x102A JUMPI PUSH2 0x1029 PUSH2 0x2651 JUMP JUMPDEST JUMPDEST PUSH1 0x20 ADD ADD MLOAD PUSH1 0xF8 SHR PUSH1 0xF8 SHL PUSH31 0xFFFFFFFFFFFFFFFFFFFFFFFFFFFFFFFFFFFFFFFFFFFFFFFFFFFFFFFFFFFFFF NOT AND DUP5 DUP3 DUP2 MLOAD DUP2 LT PUSH2 0x106A JUMPI PUSH2 0x1069 PUSH2 0x2651 JUMP JUMPDEST JUMPDEST PUSH1 0x20 ADD ADD MLOAD PUSH1 0xF8 SHR PUSH1 0xF8 SHL PUSH31 0xFFFFFFFFFFFFFFFFFFFFFFFFFFFFFFFFFFFFFFFFFFFFFFFFFFFFFFFFFFFFFF NOT AND EQ PUSH2 0x10A6 JUMPI PUSH1 0x0 SWAP2 POP POP PUSH2 0x10BF JUMP JUMPDEST DUP1 DUP1 PUSH2 0x10B1 SWAP1 PUSH2 0x26AF JUMP JUMPDEST SWAP2 POP POP PUSH2 0x100E JUMP JUMPDEST POP PUSH1 0x1 SWAP1 POP JUMPDEST SWAP3 SWAP2 POP POP JUMP JUMPDEST PUSH2 0x10CD PUSH2 0x1A8A JUMP JUMPDEST PUSH1 0x0 PUSH1 0x6 DUP4 PUSH1 0x40 MLOAD PUSH2 0x10DF SWAP2 SWAP1 PUSH2 0x235C JUMP JUMPDEST SWAP1 DUP2 MSTORE PUSH1 0x20 ADD PUSH1 0x40 MLOAD DUP1 SWAP2 SUB SWAP1 KECCAK256 DUP1 SLOAD PUSH2 0x10F8 SWAP1 PUSH2 0x23A2 JUMP JUMPDEST DUP1 PUSH1 0x1F ADD PUSH1 0x20 DUP1 SWAP2 DIV MUL PUSH1 0x20 ADD PUSH1 0x40 MLOAD SWAP1 DUP2 ADD PUSH1 0x40 MSTORE DUP1 SWAP3 SWAP2 SWAP1 DUP2 DUP2 MSTORE PUSH1 0x20 ADD DUP3 DUP1 SLOAD PUSH2 0x1124 SWAP1 PUSH2 0x23A2 JUMP JUMPDEST DUP1 ISZERO PUSH2 0x1171 JUMPI DUP1 PUSH1 0x1F LT PUSH2 0x1146 JUMPI PUSH2 0x100 DUP1 DUP4 SLOAD DIV MUL DUP4 MSTORE SWAP2 PUSH1 0x20 ADD SWAP2 PUSH2 0x1171 JUMP JUMPDEST DUP3 ADD SWAP2 SWAP1 PUSH1 0x0 MSTORE PUSH1 0x20 PUSH1 0x0 KECCAK256 SWAP1 JUMPDEST DUP2 SLOAD DUP2 MSTORE SWAP1 PUSH1 0x1 ADD SWAP1 PUSH1 0x20 ADD DUP1 DUP4 GT PUSH2 0x1154 JUMPI DUP3 SWAP1 SUB PUSH1 0x1F AND DUP3 ADD SWAP2 JUMPDEST POP POP POP POP POP SWAP1 POP PUSH1 0x2 DUP2 PUSH1 0x40 MLOAD PUSH2 0x1188 SWAP2 SWAP1 PUSH2 0x235C JUMP JUMPDEST SWAP1 DUP2 MSTORE PUSH1 0x20 ADD PUSH1 0x40 MLOAD DUP1 SWAP2 SUB SWAP1 KECCAK256 PUSH1 0x40 MLOAD DUP1 PUSH1 0xA0 ADD PUSH1 0x40 MSTORE SWAP1 DUP2 PUSH1 0x0 DUP3 ADD DUP1 SLOAD PUSH2 0x11B1 SWAP1 PUSH2 0x23A2 JUMP JUMPDEST DUP1 PUSH1 0x1F ADD PUSH1 0x20 DUP1 SWAP2 DIV MUL PUSH1 0x20 ADD PUSH1 0x40 MLOAD SWAP1 DUP2 ADD PUSH1 0x40 MSTORE DUP1 SWAP3 SWAP2 SWAP1 DUP2 DUP2 MSTORE PUSH1 0x20 ADD DUP3 DUP1 SLOAD PUSH2 0x11DD SWAP1 PUSH2 0x23A2 JUMP JUMPDEST DUP1 ISZERO PUSH2 0x122A JUMPI DUP1 PUSH1 0x1F LT PUSH2 0x11FF JUMPI PUSH2 0x100 DUP1 DUP4 SLOAD DIV MUL DUP4 MSTORE SWAP2 PUSH1 0x20 ADD SWAP2 PUSH2 0x122A JUMP JUMPDEST DUP3 ADD SWAP2 SWAP1 PUSH1 0x0 MSTORE PUSH1 0x20 PUSH1 0x0 KECCAK256 SWAP1 JUMPDEST DUP2 SLOAD DUP2 MSTORE SWAP1 PUSH1 0x1 ADD SWAP1 PUSH1 0x20 ADD DUP1 DUP4 GT PUSH2 0x120D JUMPI DUP3 SWAP1 SUB PUSH1 0x1F AND DUP3 ADD SWAP2 JUMPDEST POP POP POP POP POP DUP2 MSTORE PUSH1 0x20 ADD PUSH1 0x1 DUP3 ADD DUP1 SLOAD PUSH2 0x1243 SWAP1 PUSH2 0x23A2 JUMP JUMPDEST DUP1 PUSH1 0x1F ADD PUSH1 0x20 DUP1 SWAP2 DIV MUL PUSH1 0x20 ADD PUSH1 0x40 MLOAD SWAP1 DUP2 ADD PUSH1 0x40 MSTORE DUP1 SWAP3 SWAP2 SWAP1 DUP2 DUP2 MSTORE PUSH1 0x20 ADD DUP3 DUP1 SLOAD PUSH2 0x126F SWAP1 PUSH2 0x23A2 JUMP JUMPDEST DUP1 ISZERO PUSH2 0x12BC JUMPI DUP1 PUSH1 0x1F LT PUSH2 0x1291 JUMPI PUSH2 0x100 DUP1 DUP4 SLOAD DIV MUL DUP4 MSTORE SWAP2 PUSH1 0x20 ADD SWAP2 PUSH2 0x12BC JUMP JUMPDEST DUP3 ADD SWAP2 SWAP1 PUSH1 0x0 MSTORE PUSH1 0x20 PUSH1 0x0 KECCAK256 SWAP1 JUMPDEST DUP2 SLOAD DUP2 MSTORE SWAP1 PUSH1 0x1 ADD SWAP1 PUSH1 0x20 ADD DUP1 DUP4 GT PUSH2 0x129F JUMPI DUP3 SWAP1 SUB PUSH1 0x1F AND DUP3 ADD SWAP2 JUMPDEST POP POP POP POP POP DUP2 MSTORE PUSH1 0x20 ADD PUSH1 0x2 DUP3 ADD DUP1 SLOAD PUSH2 0x12D5 SWAP1 PUSH2 0x23A2 JUMP JUMPDEST DUP1 PUSH1 0x1F ADD PUSH1 0x20 DUP1 SWAP2 DIV MUL PUSH1 0x20 ADD PUSH1 0x40 MLOAD SWAP1 DUP2 ADD PUSH1 0x40 MSTORE DUP1 SWAP3 SWAP2 SWAP1 DUP2 DUP2 MSTORE PUSH1 0x20 ADD DUP3 DUP1 SLOAD PUSH2 0x1301 SWAP1 PUSH2 0x23A2 JUMP JUMPDEST DUP1 ISZERO PUSH2 0x134E JUMPI DUP1 PUSH1 0x1F LT PUSH2 0x1323 JUMPI PUSH2 0x100 DUP1 DUP4 SLOAD DIV MUL DUP4 MSTORE SWAP2 PUSH1 0x20 ADD SWAP2 PUSH2 0x134E JUMP JUMPDEST DUP3 ADD SWAP2 SWAP1 PUSH1 0x0 MSTORE PUSH1 0x20 PUSH1 0x0 KECCAK256 SWAP1 JUMPDEST DUP2 SLOAD DUP2 MSTORE SWAP1 PUSH1 0x1 ADD SWAP1 PUSH1 0x20 ADD DUP1 DUP4 GT PUSH2 0x1331 JUMPI DUP3 SWAP1 SUB PUSH1 0x1F AND DUP3 ADD SWAP2 JUMPDEST POP POP POP POP POP DUP2 MSTORE PUSH1 0x20 ADD PUSH1 0x3 DUP3 ADD DUP1 SLOAD DUP1 PUSH1 0x20 MUL PUSH1 0x20 ADD PUSH1 0x40 MLOAD SWAP1 DUP2 ADD PUSH1 0x40 MSTORE DUP1 SWAP3 SWAP2 SWAP1 DUP2 DUP2 MSTORE PUSH1 0x20 ADD PUSH1 0x0 SWAP1 JUMPDEST DUP3 DUP3 LT ISZERO PUSH2 0x1428 JUMPI DUP4 DUP3 SWAP1 PUSH1 0x0 MSTORE PUSH1 0x20 PUSH1 0x0 KECCAK256 ADD DUP1 SLOAD PUSH2 0x139B SWAP1 PUSH2 0x23A2 JUMP JUMPDEST DUP1 PUSH1 0x1F ADD PUSH1 0x20 DUP1 SWAP2 DIV MUL PUSH1 0x20 ADD PUSH1 0x40 MLOAD SWAP1 DUP2 ADD PUSH1 0x40 MSTORE DUP1 SWAP3 SWAP2 SWAP1 DUP2 DUP2 MSTORE PUSH1 0x20 ADD DUP3 DUP1 SLOAD PUSH2 0x13C7 SWAP1 PUSH2 0x23A2 JUMP JUMPDEST DUP1 ISZERO PUSH2 0x1414 JUMPI DUP1 PUSH1 0x1F LT PUSH2 0x13E9 JUMPI PUSH2 0x100 DUP1 DUP4 SLOAD DIV MUL DUP4 MSTORE SWAP2 PUSH1 0x20 ADD SWAP2 PUSH2 0x1414 JUMP JUMPDEST DUP3 ADD SWAP2 SWAP1 PUSH1 0x0 MSTORE PUSH1 0x20 PUSH1 0x0 KECCAK256 SWAP1 JUMPDEST DUP2 SLOAD DUP2 MSTORE SWAP1 PUSH1 0x1 ADD SWAP1 PUSH1 0x20 ADD DUP1 DUP4 GT PUSH2 0x13F7 JUMPI DUP3 SWAP1 SUB PUSH1 0x1F AND DUP3 ADD SWAP2 JUMPDEST POP POP POP POP POP DUP2 MSTORE PUSH1 0x20 ADD SWAP1 PUSH1 0x1 ADD SWAP1 PUSH2 0x137C JUMP JUMPDEST POP POP POP POP DUP2 MSTORE PUSH1 0x20 ADD PUSH1 0x4 DUP3 ADD DUP1 SLOAD DUP1 PUSH1 0x20 MUL PUSH1 0x20 ADD PUSH1 0x40 MLOAD SWAP1 DUP2 ADD PUSH1 0x40 MSTORE DUP1 SWAP3 SWAP2 SWAP1 DUP2 DUP2 MSTORE PUSH1 0x20 ADD DUP3 DUP1 SLOAD DUP1 ISZERO PUSH2 0x147F JUMPI PUSH1 0x20 MUL DUP3 ADD SWAP2 SWAP1 PUSH1 0x0 MSTORE PUSH1 0x20 PUSH1 0x0 KECCAK256 SWAP1 JUMPDEST DUP2 SLOAD DUP2 MSTORE PUSH1 0x20 ADD SWAP1 PUSH1 0x1 ADD SWAP1 DUP1 DUP4 GT PUSH2 0x146B JUMPI JUMPDEST POP POP POP POP POP DUP2 MSTORE POP POP SWAP2 POP POP SWAP2 SWAP1 POP JUMP JUMPDEST PUSH1 0x0 PUSH2 0x14D1 DUP3 PUSH1 0x40 MLOAD DUP1 PUSH1 0x40 ADD PUSH1 0x40 MSTORE DUP1 PUSH1 0xB DUP2 MSTORE PUSH1 0x20 ADD PUSH32 0x7573657257616C6C657473000000000000000000000000000000000000000000 DUP2 MSTORE POP PUSH2 0xFF7 JUMP JUMPDEST ISZERO PUSH2 0x1548 JUMPI PUSH1 0x40 MLOAD PUSH1 0x20 ADD PUSH2 0x14E5 SWAP1 PUSH2 0x271D JUMP JUMPDEST PUSH1 0x40 MLOAD PUSH1 0x20 DUP2 DUP4 SUB SUB DUP2 MSTORE SWAP1 PUSH1 0x40 MSTORE DUP1 MLOAD SWAP1 PUSH1 0x20 ADD KECCAK256 PUSH1 0x5 DUP5 PUSH1 0x40 MLOAD PUSH2 0x150B SWAP2 SWAP1 PUSH2 0x235C JUMP JUMPDEST SWAP1 DUP2 MSTORE PUSH1 0x20 ADD PUSH1 0x40 MLOAD DUP1 SWAP2 SUB SWAP1 KECCAK256 PUSH1 0x40 MLOAD PUSH1 0x20 ADD PUSH2 0x1529 SWAP2 SWAP1 PUSH2 0x27B5 JUMP JUMPDEST PUSH1 0x40 MLOAD PUSH1 0x20 DUP2 DUP4 SUB SUB DUP2 MSTORE SWAP1 PUSH1 0x40 MSTORE DUP1 MLOAD SWAP1 PUSH1 0x20 ADD KECCAK256 EQ ISZERO SWAP1 POP PUSH2 0x16B9 JUMP JUMPDEST PUSH2 0x1587 DUP3 PUSH1 0x40 MLOAD DUP1 PUSH1 0x40 ADD PUSH1 0x40 MSTORE DUP1 PUSH1 0x8 DUP2 MSTORE PUSH1 0x20 ADD PUSH32 0x757365724C656E73000000000000000000000000000000000000000000000000 DUP2 MSTORE POP PUSH2 0xFF7 JUMP JUMPDEST ISZERO PUSH2 0x15FE JUMPI PUSH1 0x40 MLOAD PUSH1 0x20 ADD PUSH2 0x159B SWAP1 PUSH2 0x271D JUMP JUMPDEST PUSH1 0x40 MLOAD PUSH1 0x20 DUP2 DUP4 SUB SUB DUP2 MSTORE SWAP1 PUSH1 0x40 MSTORE DUP1 MLOAD SWAP1 PUSH1 0x20 ADD KECCAK256 PUSH1 0x6 DUP5 PUSH1 0x40 MLOAD PUSH2 0x15C1 SWAP2 SWAP1 PUSH2 0x235C JUMP JUMPDEST SWAP1 DUP2 MSTORE PUSH1 0x20 ADD PUSH1 0x40 MLOAD DUP1 SWAP2 SUB SWAP1 KECCAK256 PUSH1 0x40 MLOAD PUSH1 0x20 ADD PUSH2 0x15DF SWAP2 SWAP1 PUSH2 0x27B5 JUMP JUMPDEST PUSH1 0x40 MLOAD PUSH1 0x20 DUP2 DUP4 SUB SUB DUP2 MSTORE SWAP1 PUSH1 0x40 MSTORE DUP1 MLOAD SWAP1 PUSH1 0x20 ADD KECCAK256 EQ ISZERO SWAP1 POP PUSH2 0x16B9 JUMP JUMPDEST PUSH2 0x163D DUP3 PUSH1 0x40 MLOAD DUP1 PUSH1 0x40 ADD PUSH1 0x40 MSTORE DUP1 PUSH1 0x8 DUP2 MSTORE PUSH1 0x20 ADD PUSH32 0x7573657257434944000000000000000000000000000000000000000000000000 DUP2 MSTORE POP PUSH2 0xFF7 JUMP JUMPDEST ISZERO PUSH2 0x16B4 JUMPI PUSH1 0x40 MLOAD PUSH1 0x20 ADD PUSH2 0x1651 SWAP1 PUSH2 0x271D JUMP JUMPDEST PUSH1 0x40 MLOAD PUSH1 0x20 DUP2 DUP4 SUB SUB DUP2 MSTORE SWAP1 PUSH1 0x40 MSTORE DUP1 MLOAD SWAP1 PUSH1 0x20 ADD KECCAK256 PUSH1 0x4 DUP5 PUSH1 0x40 MLOAD PUSH2 0x1677 SWAP2 SWAP1 PUSH2 0x235C JUMP JUMPDEST SWAP1 DUP2 MSTORE PUSH1 0x20 ADD PUSH1 0x40 MLOAD DUP1 SWAP2 SUB SWAP1 KECCAK256 PUSH1 0x40 MLOAD PUSH1 0x20 ADD PUSH2 0x1695 SWAP2 SWAP1 PUSH2 0x27B5 JUMP JUMPDEST PUSH1 0x40 MLOAD PUSH1 0x20 DUP2 DUP4 SUB SUB DUP2 MSTORE SWAP1 PUSH1 0x40 MSTORE DUP1 MLOAD SWAP1 PUSH1 0x20 ADD KECCAK256 EQ ISZERO SWAP1 POP PUSH2 0x16B9 JUMP JUMPDEST PUSH1 0x0 SWAP1 POP JUMPDEST SWAP3 SWAP2 POP POP JUMP JUMPDEST PUSH2 0x16C7 PUSH2 0x1A8A JUMP JUMPDEST PUSH1 0x0 PUSH1 0x4 DUP4 PUSH1 0x40 MLOAD PUSH2 0x16D9 SWAP2 SWAP1 PUSH2 0x235C JUMP JUMPDEST SWAP1 DUP2 MSTORE PUSH1 0x20 ADD PUSH1 0x40 MLOAD DUP1 SWAP2 SUB SWAP1 KECCAK256 DUP1 SLOAD PUSH2 0x16F2 SWAP1 PUSH2 0x23A2 JUMP JUMPDEST DUP1 PUSH1 0x1F ADD PUSH1 0x20 DUP1 SWAP2 DIV MUL PUSH1 0x20 ADD PUSH1 0x40 MLOAD SWAP1 DUP2 ADD PUSH1 0x40 MSTORE DUP1 SWAP3 SWAP2 SWAP1 DUP2 DUP2 MSTORE PUSH1 0x20 ADD DUP3 DUP1 SLOAD PUSH2 0x171E SWAP1 PUSH2 0x23A2 JUMP JUMPDEST DUP1 ISZERO PUSH2 0x176B JUMPI DUP1 PUSH1 0x1F LT PUSH2 0x1740 JUMPI PUSH2 0x100 DUP1 DUP4 SLOAD DIV MUL DUP4 MSTORE SWAP2 PUSH1 0x20 ADD SWAP2 PUSH2 0x176B JUMP JUMPDEST DUP3 ADD SWAP2 SWAP1 PUSH1 0x0 MSTORE PUSH1 0x20 PUSH1 0x0 KECCAK256 SWAP1 JUMPDEST DUP2 SLOAD DUP2 MSTORE SWAP1 PUSH1 0x1 ADD SWAP1 PUSH1 0x20 ADD DUP1 DUP4 GT PUSH2 0x174E JUMPI DUP3 SWAP1 SUB PUSH1 0x1F AND DUP3 ADD SWAP2 JUMPDEST POP POP POP POP POP SWAP1 POP PUSH1 0x2 DUP2 PUSH1 0x40 MLOAD PUSH2 0x1782 SWAP2 SWAP1 PUSH2 0x235C JUMP JUMPDEST SWAP1 DUP2 MSTORE PUSH1 0x20 ADD PUSH1 0x40 MLOAD DUP1 SWAP2 SUB SWAP1 KECCAK256 PUSH1 0x40 MLOAD DUP1 PUSH1 0xA0 ADD PUSH1 0x40 MSTORE SWAP1 DUP2 PUSH1 0x0 DUP3 ADD DUP1 SLOAD PUSH2 0x17AB SWAP1 PUSH2 0x23A2 JUMP JUMPDEST DUP1 PUSH1 0x1F ADD PUSH1 0x20 DUP1 SWAP2 DIV MUL PUSH1 0x20 ADD PUSH1 0x40 MLOAD SWAP1 DUP2 ADD PUSH1 0x40 MSTORE DUP1 SWAP3 SWAP2 SWAP1 DUP2 DUP2 MSTORE PUSH1 0x20 ADD DUP3 DUP1 SLOAD PUSH2 0x17D7 SWAP1 PUSH2 0x23A2 JUMP JUMPDEST DUP1 ISZERO PUSH2 0x1824 JUMPI DUP1 PUSH1 0x1F LT PUSH2 0x17F9 JUMPI PUSH2 0x100 DUP1 DUP4 SLOAD DIV MUL DUP4 MSTORE SWAP2 PUSH1 0x20 ADD SWAP2 PUSH2 0x1824 JUMP JUMPDEST DUP3 ADD SWAP2 SWAP1 PUSH1 0x0 MSTORE PUSH1 0x20 PUSH1 0x0 KECCAK256 SWAP1 JUMPDEST DUP2 SLOAD DUP2 MSTORE SWAP1 PUSH1 0x1 ADD SWAP1 PUSH1 0x20 ADD DUP1 DUP4 GT PUSH2 0x1807 JUMPI DUP3 SWAP1 SUB PUSH1 0x1F AND DUP3 ADD SWAP2 JUMPDEST POP POP POP POP POP DUP2 MSTORE PUSH1 0x20 ADD PUSH1 0x1 DUP3 ADD DUP1 SLOAD PUSH2 0x183D SWAP1 PUSH2 0x23A2 JUMP JUMPDEST DUP1 PUSH1 0x1F ADD PUSH1 0x20 DUP1 SWAP2 DIV MUL PUSH1 0x20 ADD PUSH1 0x40 MLOAD SWAP1 DUP2 ADD PUSH1 0x40 MSTORE DUP1 SWAP3 SWAP2 SWAP1 DUP2 DUP2 MSTORE PUSH1 0x20 ADD DUP3 DUP1 SLOAD PUSH2 0x1869 SWAP1 PUSH2 0x23A2 JUMP JUMPDEST DUP1 ISZERO PUSH2 0x18B6 JUMPI DUP1 PUSH1 0x1F LT PUSH2 0x188B JUMPI PUSH2 0x100 DUP1 DUP4 SLOAD DIV MUL DUP4 MSTORE SWAP2 PUSH1 0x20 ADD SWAP2 PUSH2 0x18B6 JUMP JUMPDEST DUP3 ADD SWAP2 SWAP1 PUSH1 0x0 MSTORE PUSH1 0x20 PUSH1 0x0 KECCAK256 SWAP1 JUMPDEST DUP2 SLOAD DUP2 MSTORE SWAP1 PUSH1 0x1 ADD SWAP1 PUSH1 0x20 ADD DUP1 DUP4 GT PUSH2 0x1899 JUMPI DUP3 SWAP1 SUB PUSH1 0x1F AND DUP3 ADD SWAP2 JUMPDEST POP POP POP POP POP DUP2 MSTORE PUSH1 0x20 ADD PUSH1 0x2 DUP3 ADD DUP1 SLOAD PUSH2 0x18CF SWAP1 PUSH2 0x23A2 JUMP JUMPDEST DUP1 PUSH1 0x1F ADD PUSH1 0x20 DUP1 SWAP2 DIV MUL PUSH1 0x20 ADD PUSH1 0x40 MLOAD SWAP1 DUP2 ADD PUSH1 0x40 MSTORE DUP1 SWAP3 SWAP2 SWAP1 DUP2 DUP2 MSTORE PUSH1 0x20 ADD DUP3 DUP1 SLOAD PUSH2 0x18FB SWAP1 PUSH2 0x23A2 JUMP JUMPDEST DUP1 ISZERO PUSH2 0x1948 JUMPI DUP1 PUSH1 0x1F LT PUSH2 0x191D JUMPI PUSH2 0x100 DUP1 DUP4 SLOAD DIV MUL DUP4 MSTORE SWAP2 PUSH1 0x20 ADD SWAP2 PUSH2 0x1948 JUMP JUMPDEST DUP3 ADD SWAP2 SWAP1 PUSH1 0x0 MSTORE PUSH1 0x20 PUSH1 0x0 KECCAK256 SWAP1 JUMPDEST DUP2 SLOAD DUP2 MSTORE SWAP1 PUSH1 0x1 ADD SWAP1 PUSH1 0x20 ADD DUP1 DUP4 GT PUSH2 0x192B JUMPI DUP3 SWAP1 SUB PUSH1 0x1F AND DUP3 ADD SWAP2 JUMPDEST POP POP POP POP POP DUP2 MSTORE PUSH1 0x20 ADD PUSH1 0x3 DUP3 ADD DUP1 SLOAD DUP1 PUSH1 0x20 MUL PUSH1 0x20 ADD PUSH1 0x40 MLOAD SWAP1 DUP2 ADD PUSH1 0x40 MSTORE DUP1 SWAP3 SWAP2 SWAP1 DUP2 DUP2 MSTORE PUSH1 0x20 ADD PUSH1 0x0 SWAP1 JUMPDEST DUP3 DUP3 LT ISZERO PUSH2 0x1A22 JUMPI DUP4 DUP3 SWAP1 PUSH1 0x0 MSTORE PUSH1 0x20 PUSH1 0x0 KECCAK256 ADD DUP1 SLOAD PUSH2 0x1995 SWAP1 PUSH2 0x23A2 JUMP JUMPDEST DUP1 PUSH1 0x1F ADD PUSH1 0x20 DUP1 SWAP2 DIV MUL PUSH1 0x20 ADD PUSH1 0x40 MLOAD SWAP1 DUP2 ADD PUSH1 0x40 MSTORE DUP1 SWAP3 SWAP2 SWAP1 DUP2 DUP2 MSTORE PUSH1 0x20 ADD DUP3 DUP1 SLOAD PUSH2 0x19C1 SWAP1 PUSH2 0x23A2 JUMP JUMPDEST DUP1 ISZERO PUSH2 0x1A0E JUMPI DUP1 PUSH1 0x1F LT PUSH2 0x19E3 JUMPI PUSH2 0x100 DUP1 DUP4 SLOAD DIV MUL DUP4 MSTORE SWAP2 PUSH1 0x20 ADD SWAP2 PUSH2 0x1A0E JUMP JUMPDEST DUP3 ADD SWAP2 SWAP1 PUSH1 0x0 MSTORE PUSH1 0x20 PUSH1 0x0 KECCAK256 SWAP1 JUMPDEST DUP2 SLOAD DUP2 MSTORE SWAP1 PUSH1 0x1 ADD SWAP1 PUSH1 0x20 ADD DUP1 DUP4 GT PUSH2 0x19F1 JUMPI DUP3 SWAP1 SUB PUSH1 0x1F AND DUP3 ADD SWAP2 JUMPDEST POP POP POP POP POP DUP2 MSTORE PUSH1 0x20 ADD SWAP1 PUSH1 0x1 ADD SWAP1 PUSH2 0x1976 JUMP JUMPDEST POP POP POP POP DUP2 MSTORE PUSH1 0x20 ADD PUSH1 0x4 DUP3 ADD DUP1 SLOAD DUP1 PUSH1 0x20 MUL PUSH1 0x20 ADD PUSH1 0x40 MLOAD SWAP1 DUP2 ADD PUSH1 0x40 MSTORE DUP1 SWAP3 SWAP2 SWAP1 DUP2 DUP2 MSTORE PUSH1 0x20 ADD DUP3 DUP1 SLOAD DUP1 ISZERO PUSH2 0x1A79 JUMPI PUSH1 0x20 MUL DUP3 ADD SWAP2 SWAP1 PUSH1 0x0 MSTORE PUSH1 0x20 PUSH1 0x0 KECCAK256 SWAP1 JUMPDEST DUP2 SLOAD DUP2 MSTORE PUSH1 0x20 ADD SWAP1 PUSH1 0x1 ADD SWAP1 DUP1 DUP4 GT PUSH2 0x1A65 JUMPI JUMPDEST POP POP POP POP POP DUP2 MSTORE POP POP SWAP2 POP POP SWAP2 SWAP1 POP JUMP JUMPDEST PUSH1 0x40 MLOAD DUP1 PUSH1 0xA0 ADD PUSH1 0x40 MSTORE DUP1 PUSH1 0x60 DUP2 MSTORE PUSH1 0x20 ADD PUSH1 0x60 DUP2 MSTORE PUSH1 0x20 ADD PUSH1 0x60 DUP2 MSTORE PUSH1 0x20 ADD PUSH1 0x60 DUP2 MSTORE PUSH1 0x20 ADD PUSH1 0x60 DUP2 MSTORE POP SWAP1 JUMP JUMPDEST DUP3 DUP1 SLOAD DUP3 DUP3 SSTORE SWAP1 PUSH1 0x0 MSTORE PUSH1 0x20 PUSH1 0x0 KECCAK256 SWAP1 DUP2 ADD SWAP3 DUP3 ISZERO PUSH2 0x1B01 JUMPI SWAP2 PUSH1 0x20 MUL DUP3 ADD JUMPDEST DUP3 DUP2 GT ISZERO PUSH2 0x1B00 JUMPI DUP3 MLOAD DUP3 SWAP1 DUP2 PUSH2 0x1AF0 SWAP2 SWAP1 PUSH2 0x257F JUMP JUMPDEST POP SWAP2 PUSH1 0x20 ADD SWAP2 SWAP1 PUSH1 0x1 ADD SWAP1 PUSH2 0x1AD9 JUMP JUMPDEST JUMPDEST POP SWAP1 POP PUSH2 0x1B0E SWAP2 SWAP1 PUSH2 0x1B5F JUMP JUMPDEST POP SWAP1 JUMP JUMPDEST DUP3 DUP1 SLOAD DUP3 DUP3 SSTORE SWAP1 PUSH1 0x0 MSTORE PUSH1 0x20 PUSH1 0x0 KECCAK256 SWAP1 DUP2 ADD SWAP3 DUP3 ISZERO PUSH2 0x1B4E JUMPI SWAP2 PUSH1 0x20 MUL DUP3 ADD JUMPDEST DUP3 DUP2 GT ISZERO PUSH2 0x1B4D JUMPI DUP3 MLOAD DUP3 SSTORE SWAP2 PUSH1 0x20 ADD SWAP2 SWAP1 PUSH1 0x1 ADD SWAP1 PUSH2 0x1B32 JUMP JUMPDEST JUMPDEST POP SWAP1 POP PUSH2 0x1B5B SWAP2 SWAP1 PUSH2 0x1B83 JUMP JUMPDEST POP SWAP1 JUMP JUMPDEST JUMPDEST DUP1 DUP3 GT ISZERO PUSH2 0x1B7F JUMPI PUSH1 0x0 DUP2 DUP2 PUSH2 0x1B76 SWAP2 SWAP1 PUSH2 0x1BA0 JUMP JUMPDEST POP PUSH1 0x1 ADD PUSH2 0x1B60 JUMP JUMPDEST POP SWAP1 JUMP JUMPDEST JUMPDEST DUP1 DUP3 GT ISZERO PUSH2 0x1B9C JUMPI PUSH1 0x0 DUP2 PUSH1 0x0 SWAP1 SSTORE POP PUSH1 0x1 ADD PUSH2 0x1B84 JUMP JUMPDEST POP SWAP1 JUMP JUMPDEST POP DUP1 SLOAD PUSH2 0x1BAC SWAP1 PUSH2 0x23A2 JUMP JUMPDEST PUSH1 0x0 DUP3 SSTORE DUP1 PUSH1 0x1F LT PUSH2 0x1BBE JUMPI POP PUSH2 0x1BDD JUMP JUMPDEST PUSH1 0x1F ADD PUSH1 0x20 SWAP1 DIV SWAP1 PUSH1 0x0 MSTORE PUSH1 0x20 PUSH1 0x0 KECCAK256 SWAP1 DUP2 ADD SWAP1 PUSH2 0x1BDC SWAP2 SWAP1 PUSH2 0x1B83 JUMP JUMPDEST JUMPDEST POP JUMP JUMPDEST PUSH1 0x0 PUSH1 0x40 MLOAD SWAP1 POP SWAP1 JUMP JUMPDEST PUSH1 0x0 DUP1 REVERT JUMPDEST PUSH1 0x0 DUP1 REVERT JUMPDEST PUSH1 0x0 DUP1 REVERT JUMPDEST PUSH1 0x0 DUP1 REVERT JUMPDEST PUSH1 0x0 PUSH1 0x1F NOT PUSH1 0x1F DUP4 ADD AND SWAP1 POP SWAP2 SWAP1 POP JUMP JUMPDEST PUSH32 0x4E487B7100000000000000000000000000000000000000000000000000000000 PUSH1 0x0 MSTORE PUSH1 0x41 PUSH1 0x4 MSTORE PUSH1 0x24 PUSH1 0x0 REVERT JUMPDEST PUSH2 0x1C47 DUP3 PUSH2 0x1BFE JUMP JUMPDEST DUP2 ADD DUP2 DUP2 LT PUSH8 0xFFFFFFFFFFFFFFFF DUP3 GT OR ISZERO PUSH2 0x1C66 JUMPI PUSH2 0x1C65 PUSH2 0x1C0F JUMP JUMPDEST JUMPDEST DUP1 PUSH1 0x40 MSTORE POP POP POP JUMP JUMPDEST PUSH1 0x0 PUSH2 0x1C79 PUSH2 0x1BE0 JUMP JUMPDEST SWAP1 POP PUSH2 0x1C85 DUP3 DUP3 PUSH2 0x1C3E JUMP JUMPDEST SWAP2 SWAP1 POP JUMP JUMPDEST PUSH1 0x0 PUSH8 0xFFFFFFFFFFFFFFFF DUP3 GT ISZERO PUSH2 0x1CA5 JUMPI PUSH2 0x1CA4 PUSH2 0x1C0F JUMP JUMPDEST JUMPDEST PUSH2 0x1CAE DUP3 PUSH2 0x1BFE JUMP JUMPDEST SWAP1 POP PUSH1 0x20 DUP2 ADD SWAP1 POP SWAP2 SWAP1 POP JUMP JUMPDEST DUP3 DUP2 DUP4 CALLDATACOPY PUSH1 0x0 DUP4 DUP4 ADD MSTORE POP POP POP JUMP JUMPDEST PUSH1 0x0 PUSH2 0x1CDD PUSH2 0x1CD8 DUP5 PUSH2 0x1C8A JUMP JUMPDEST PUSH2 0x1C6F JUMP JUMPDEST SWAP1 POP DUP3 DUP2 MSTORE PUSH1 0x20 DUP2 ADD DUP5 DUP5 DUP5 ADD GT ISZERO PUSH2 0x1CF9 JUMPI PUSH2 0x1CF8 PUSH2 0x1BF9 JUMP JUMPDEST JUMPDEST PUSH2 0x1D04 DUP5 DUP3 DUP6 PUSH2 0x1CBB JUMP JUMPDEST POP SWAP4 SWAP3 POP POP POP JUMP JUMPDEST PUSH1 0x0 DUP3 PUSH1 0x1F DUP4 ADD SLT PUSH2 0x1D21 JUMPI PUSH2 0x1D20 PUSH2 0x1BF4 JUMP JUMPDEST JUMPDEST DUP2 CALLDATALOAD PUSH2 0x1D31 DUP5 DUP3 PUSH1 0x20 DUP7 ADD PUSH2 0x1CCA JUMP JUMPDEST SWAP2 POP POP SWAP3 SWAP2 POP POP JUMP JUMPDEST PUSH1 0x0 DUP1 PUSH1 0x40 DUP4 DUP6 SUB SLT ISZERO PUSH2 0x1D51 JUMPI PUSH2 0x1D50 PUSH2 0x1BEA JUMP JUMPDEST JUMPDEST PUSH1 0x0 DUP4 ADD CALLDATALOAD PUSH8 0xFFFFFFFFFFFFFFFF DUP2 GT ISZERO PUSH2 0x1D6F JUMPI PUSH2 0x1D6E PUSH2 0x1BEF JUMP JUMPDEST JUMPDEST PUSH2 0x1D7B DUP6 DUP3 DUP7 ADD PUSH2 0x1D0C JUMP JUMPDEST SWAP3 POP POP PUSH1 0x20 DUP4 ADD CALLDATALOAD PUSH8 0xFFFFFFFFFFFFFFFF DUP2 GT ISZERO PUSH2 0x1D9C JUMPI PUSH2 0x1D9B PUSH2 0x1BEF JUMP JUMPDEST JUMPDEST PUSH2 0x1DA8 DUP6 DUP3 DUP7 ADD PUSH2 0x1D0C JUMP JUMPDEST SWAP2 POP POP SWAP3 POP SWAP3 SWAP1 POP JUMP JUMPDEST PUSH1 0x0 PUSH1 0x20 DUP3 DUP5 SUB SLT ISZERO PUSH2 0x1DC8 JUMPI PUSH2 0x1DC7 PUSH2 0x1BEA JUMP JUMPDEST JUMPDEST PUSH1 0x0 DUP3 ADD CALLDATALOAD PUSH8 0xFFFFFFFFFFFFFFFF DUP2 GT ISZERO PUSH2 0x1DE6 JUMPI PUSH2 0x1DE5 PUSH2 0x1BEF JUMP JUMPDEST JUMPDEST PUSH2 0x1DF2 DUP5 DUP3 DUP6 ADD PUSH2 0x1D0C JUMP JUMPDEST SWAP2 POP POP SWAP3 SWAP2 POP POP JUMP JUMPDEST PUSH1 0x0 DUP2 MLOAD SWAP1 POP SWAP2 SWAP1 POP JUMP JUMPDEST PUSH1 0x0 DUP3 DUP3 MSTORE PUSH1 0x20 DUP3 ADD SWAP1 POP SWAP3 SWAP2 POP POP JUMP JUMPDEST PUSH1 0x0 JUMPDEST DUP4 DUP2 LT ISZERO PUSH2 0x1E35 JUMPI DUP1 DUP3 ADD MLOAD DUP2 DUP5 ADD MSTORE PUSH1 0x20 DUP2 ADD SWAP1 POP PUSH2 0x1E1A JUMP JUMPDEST PUSH1 0x0 DUP5 DUP5 ADD MSTORE POP POP POP POP JUMP JUMPDEST PUSH1 0x0 PUSH2 0x1E4C DUP3 PUSH2 0x1DFB JUMP JUMPDEST PUSH2 0x1E56 DUP2 DUP6 PUSH2 0x1E06 JUMP JUMPDEST SWAP4 POP PUSH2 0x1E66 DUP2 DUP6 PUSH1 0x20 DUP7 ADD PUSH2 0x1E17 JUMP JUMPDEST PUSH2 0x1E6F DUP2 PUSH2 0x1BFE JUMP JUMPDEST DUP5 ADD SWAP2 POP POP SWAP3 SWAP2 POP POP JUMP JUMPDEST PUSH1 0x0 DUP2 MLOAD SWAP1 POP SWAP2 SWAP1 POP JUMP JUMPDEST PUSH1 0x0 DUP3 DUP3 MSTORE PUSH1 0x20 DUP3 ADD SWAP1 POP SWAP3 SWAP2 POP POP JUMP JUMPDEST PUSH1 0x0 DUP2 SWAP1 POP PUSH1 0x20 DUP3 ADD SWAP1 POP SWAP2 SWAP1 POP JUMP JUMPDEST PUSH1 0x0 PUSH2 0x1EB2 DUP4 DUP4 PUSH2 0x1E41 JUMP JUMPDEST SWAP1 POP SWAP3 SWAP2 POP POP JUMP JUMPDEST PUSH1 0x0 PUSH1 0x20 DUP3 ADD SWAP1 POP SWAP2 SWAP1 POP JUMP JUMPDEST PUSH1 0x0 PUSH2 0x1ED2 DUP3 PUSH2 0x1E7A JUMP JUMPDEST PUSH2 0x1EDC DUP2 DUP6 PUSH2 0x1E85 JUMP JUMPDEST SWAP4 POP DUP4 PUSH1 0x20 DUP3 MUL DUP6 ADD PUSH2 0x1EEE DUP6 PUSH2 0x1E96 JUMP JUMPDEST DUP1 PUSH1 0x0 JUMPDEST DUP6 DUP2 LT ISZERO PUSH2 0x1F2A JUMPI DUP5 DUP5 SUB DUP10 MSTORE DUP2 MLOAD PUSH2 0x1F0B DUP6 DUP3 PUSH2 0x1EA6 JUMP JUMPDEST SWAP5 POP PUSH2 0x1F16 DUP4 PUSH2 0x1EBA JUMP JUMPDEST SWAP3 POP PUSH1 0x20 DUP11 ADD SWAP10 POP POP PUSH1 0x1 DUP2 ADD SWAP1 POP PUSH2 0x1EF2 JUMP JUMPDEST POP DUP3 SWAP8 POP DUP8 SWAP6 POP POP POP POP POP POP SWAP3 SWAP2 POP POP JUMP JUMPDEST PUSH1 0x0 DUP2 MLOAD SWAP1 POP SWAP2 SWAP1 POP JUMP JUMPDEST PUSH1 0x0 DUP3 DUP3 MSTORE PUSH1 0x20 DUP3 ADD SWAP1 POP SWAP3 SWAP2 POP POP JUMP JUMPDEST PUSH1 0x0 DUP2 SWAP1 POP PUSH1 0x20 DUP3 ADD SWAP1 POP SWAP2 SWAP1 POP JUMP JUMPDEST PUSH1 0x0 DUP2 SWAP1 POP SWAP2 SWAP1 POP JUMP JUMPDEST PUSH2 0x1F7B DUP2 PUSH2 0x1F68 JUMP JUMPDEST DUP3 MSTORE POP POP JUMP JUMPDEST PUSH1 0x0 PUSH2 0x1F8D DUP4 DUP4 PUSH2 0x1F72 JUMP JUMPDEST PUSH1 0x20 DUP4 ADD SWAP1 POP SWAP3 SWAP2 POP POP JUMP JUMPDEST PUSH1 0x0 PUSH1 0x20 DUP3 ADD SWAP1 POP SWAP2 SWAP1 POP JUMP JUMPDEST PUSH1 0x0 PUSH2 0x1FB1 DUP3 PUSH2 0x1F3C JUMP JUMPDEST PUSH2 0x1FBB DUP2 DUP6 PUSH2 0x1F47 JUMP JUMPDEST SWAP4 POP PUSH2 0x1FC6 DUP4 PUSH2 0x1F58 JUMP JUMPDEST DUP1 PUSH1 0x0 JUMPDEST DUP4 DUP2 LT ISZERO PUSH2 0x1FF7 JUMPI DUP2 MLOAD PUSH2 0x1FDE DUP9 DUP3 PUSH2 0x1F81 JUMP JUMPDEST SWAP8 POP PUSH2 0x1FE9 DUP4 PUSH2 0x1F99 JUMP JUMPDEST SWAP3 POP POP PUSH1 0x1 DUP2 ADD SWAP1 POP PUSH2 0x1FCA JUMP JUMPDEST POP DUP6 SWAP4 POP POP POP POP SWAP3 SWAP2 POP POP JUMP JUMPDEST PUSH1 0x0 PUSH1 0xA0 DUP4 ADD PUSH1 0x0 DUP4 ADD MLOAD DUP5 DUP3 SUB PUSH1 0x0 DUP7 ADD MSTORE PUSH2 0x2021 DUP3 DUP3 PUSH2 0x1E41 JUMP JUMPDEST SWAP2 POP POP PUSH1 0x20 DUP4 ADD MLOAD DUP5 DUP3 SUB PUSH1 0x20 DUP7 ADD MSTORE PUSH2 0x203B DUP3 DUP3 PUSH2 0x1E41 JUMP JUMPDEST SWAP2 POP POP PUSH1 0x40 DUP4 ADD MLOAD DUP5 DUP3 SUB PUSH1 0x40 DUP7 ADD MSTORE PUSH2 0x2055 DUP3 DUP3 PUSH2 0x1E41 JUMP JUMPDEST SWAP2 POP POP PUSH1 0x60 DUP4 ADD MLOAD DUP5 DUP3 SUB PUSH1 0x60 DUP7 ADD MSTORE PUSH2 0x206F DUP3 DUP3 PUSH2 0x1EC7 JUMP JUMPDEST SWAP2 POP POP PUSH1 0x80 DUP4 ADD MLOAD DUP5 DUP3 SUB PUSH1 0x80 DUP7 ADD MSTORE PUSH2 0x2089 DUP3 DUP3 PUSH2 0x1FA6 JUMP JUMPDEST SWAP2 POP POP DUP1 SWAP2 POP POP SWAP3 SWAP2 POP POP JUMP JUMPDEST PUSH1 0x0 PUSH1 0x20 DUP3 ADD SWAP1 POP DUP2 DUP2 SUB PUSH1 0x0 DUP4 ADD MSTORE PUSH2 0x20B0 DUP2 DUP5 PUSH2 0x2004 JUMP JUMPDEST SWAP1 POP SWAP3 SWAP2 POP POP JUMP JUMPDEST PUSH1 0x0 PUSH8 0xFFFFFFFFFFFFFFFF DUP3 GT ISZERO PUSH2 0x20D3 JUMPI PUSH2 0x20D2 PUSH2 0x1C0F JUMP JUMPDEST JUMPDEST PUSH1 0x20 DUP3 MUL SWAP1 POP PUSH1 0x20 DUP2 ADD SWAP1 POP SWAP2 SWAP1 POP JUMP JUMPDEST PUSH1 0x0 DUP1 REVERT JUMPDEST PUSH1 0x0 PUSH2 0x20FC PUSH2 0x20F7 DUP5 PUSH2 0x20B8 JUMP JUMPDEST PUSH2 0x1C6F JUMP JUMPDEST SWAP1 POP DUP1 DUP4 DUP3 MSTORE PUSH1 0x20 DUP3 ADD SWAP1 POP PUSH1 0x20 DUP5 MUL DUP4 ADD DUP6 DUP2 GT ISZERO PUSH2 0x211F JUMPI PUSH2 0x211E PUSH2 0x20E4 JUMP JUMPDEST JUMPDEST DUP4 JUMPDEST DUP2 DUP2 LT ISZERO PUSH2 0x2166 JUMPI DUP1 CALLDATALOAD PUSH8 0xFFFFFFFFFFFFFFFF DUP2 GT ISZERO PUSH2 0x2144 JUMPI PUSH2 0x2143 PUSH2 0x1BF4 JUMP JUMPDEST JUMPDEST DUP1 DUP7 ADD PUSH2 0x2151 DUP10 DUP3 PUSH2 0x1D0C JUMP JUMPDEST DUP6 MSTORE PUSH1 0x20 DUP6 ADD SWAP5 POP POP POP PUSH1 0x20 DUP2 ADD SWAP1 POP PUSH2 0x2121 JUMP JUMPDEST POP POP POP SWAP4 SWAP3 POP POP POP JUMP JUMPDEST PUSH1 0x0 DUP3 PUSH1 0x1F DUP4 ADD SLT PUSH2 0x2185 JUMPI PUSH2 0x2184 PUSH2 0x1BF4 JUMP JUMPDEST JUMPDEST DUP2 CALLDATALOAD PUSH2 0x2195 DUP5 DUP3 PUSH1 0x20 DUP7 ADD PUSH2 0x20E9 JUMP JUMPDEST SWAP2 POP POP SWAP3 SWAP2 POP POP JUMP JUMPDEST PUSH1 0x0 DUP1 PUSH1 0x40 DUP4 DUP6 SUB SLT ISZERO PUSH2 0x21B5 JUMPI PUSH2 0x21B4 PUSH2 0x1BEA JUMP JUMPDEST JUMPDEST PUSH1 0x0 DUP4 ADD CALLDATALOAD PUSH8 0xFFFFFFFFFFFFFFFF DUP2 GT ISZERO PUSH2 0x21D3 JUMPI PUSH2 0x21D2 PUSH2 0x1BEF JUMP JUMPDEST JUMPDEST PUSH2 0x21DF DUP6 DUP3 DUP7 ADD PUSH2 0x1D0C JUMP JUMPDEST SWAP3 POP POP PUSH1 0x20 DUP4 ADD CALLDATALOAD PUSH8 0xFFFFFFFFFFFFFFFF DUP2 GT ISZERO PUSH2 0x2200 JUMPI PUSH2 0x21FF PUSH2 0x1BEF JUMP JUMPDEST JUMPDEST PUSH2 0x220C DUP6 DUP3 DUP7 ADD PUSH2 0x2170 JUMP JUMPDEST SWAP2 POP POP SWAP3 POP SWAP3 SWAP1 POP JUMP JUMPDEST PUSH1 0x0 DUP1 PUSH1 0x40 DUP4 DUP6 SUB SLT ISZERO PUSH2 0x222D JUMPI PUSH2 0x222C PUSH2 0x1BEA JUMP JUMPDEST JUMPDEST PUSH1 0x0 DUP4 ADD CALLDATALOAD PUSH8 0xFFFFFFFFFFFFFFFF DUP2 GT ISZERO PUSH2 0x224B JUMPI PUSH2 0x224A PUSH2 0x1BEF JUMP JUMPDEST JUMPDEST PUSH2 0x2257 DUP6 DUP3 DUP7 ADD PUSH2 0x2170 JUMP JUMPDEST SWAP3 POP POP PUSH1 0x20 DUP4 ADD CALLDATALOAD PUSH8 0xFFFFFFFFFFFFFFFF DUP2 GT ISZERO PUSH2 0x2278 JUMPI PUSH2 0x2277 PUSH2 0x1BEF JUMP JUMPDEST JUMPDEST PUSH2 0x2284 DUP6 DUP3 DUP7 ADD PUSH2 0x1D0C JUMP JUMPDEST SWAP2 POP POP SWAP3 POP SWAP3 SWAP1 POP JUMP JUMPDEST PUSH1 0x0 PUSH20 0xFFFFFFFFFFFFFFFFFFFFFFFFFFFFFFFFFFFFFFFF DUP3 AND SWAP1 POP SWAP2 SWAP1 POP JUMP JUMPDEST PUSH1 0x0 PUSH2 0x22B9 DUP3 PUSH2 0x228E JUMP JUMPDEST SWAP1 POP SWAP2 SWAP1 POP JUMP JUMPDEST PUSH2 0x22C9 DUP2 PUSH2 0x22AE JUMP JUMPDEST DUP3 MSTORE POP POP JUMP JUMPDEST PUSH1 0x0 PUSH1 0x20 DUP3 ADD SWAP1 POP PUSH2 0x22E4 PUSH1 0x0 DUP4 ADD DUP5 PUSH2 0x22C0 JUMP JUMPDEST SWAP3 SWAP2 POP POP JUMP JUMPDEST PUSH1 0x0 DUP2 ISZERO ISZERO SWAP1 POP SWAP2 SWAP1 POP JUMP JUMPDEST PUSH2 0x22FF DUP2 PUSH2 0x22EA JUMP JUMPDEST DUP3 MSTORE POP POP JUMP JUMPDEST PUSH1 0x0 PUSH1 0x20 DUP3 ADD SWAP1 POP PUSH2 0x231A PUSH1 0x0 DUP4 ADD DUP5 PUSH2 0x22F6 JUMP JUMPDEST SWAP3 SWAP2 POP POP JUMP JUMPDEST PUSH1 0x0 DUP2 SWAP1 POP SWAP3 SWAP2 POP POP JUMP JUMPDEST PUSH1 0x0 PUSH2 0x2336 DUP3 PUSH2 0x1DFB JUMP JUMPDEST PUSH2 0x2340 DUP2 DUP6 PUSH2 0x2320 JUMP JUMPDEST SWAP4 POP PUSH2 0x2350 DUP2 DUP6 PUSH1 0x20 DUP7 ADD PUSH2 0x1E17 JUMP JUMPDEST DUP1 DUP5 ADD SWAP2 POP POP SWAP3 SWAP2 POP POP JUMP JUMPDEST PUSH1 0x0 PUSH2 0x2368 DUP3 DUP5 PUSH2 0x232B JUMP JUMPDEST SWAP2 POP DUP2 SWAP1 POP SWAP3 SWAP2 POP POP JUMP JUMPDEST PUSH32 0x4E487B7100000000000000000000000000000000000000000000000000000000 PUSH1 0x0 MSTORE PUSH1 0x22 PUSH1 0x4 MSTORE PUSH1 0x24 PUSH1 0x0 REVERT JUMPDEST PUSH1 0x0 PUSH1 0x2 DUP3 DIV SWAP1 POP PUSH1 0x1 DUP3 AND DUP1 PUSH2 0x23BA JUMPI PUSH1 0x7F DUP3 AND SWAP2 POP JUMPDEST PUSH1 0x20 DUP3 LT DUP2 SUB PUSH2 0x23CD JUMPI PUSH2 0x23CC PUSH2 0x2373 JUMP JUMPDEST JUMPDEST POP SWAP2 SWAP1 POP JUMP JUMPDEST PUSH1 0x0 DUP2 SWAP1 POP DUP2 PUSH1 0x0 MSTORE PUSH1 0x20 PUSH1 0x0 KECCAK256 SWAP1 POP SWAP2 SWAP1 POP JUMP JUMPDEST PUSH1 0x0 PUSH1 0x20 PUSH1 0x1F DUP4 ADD DIV SWAP1 POP SWAP2 SWAP1 POP JUMP JUMPDEST PUSH1 0x0 DUP3 DUP3 SHL SWAP1 POP SWAP3 SWAP2 POP POP JUMP JUMPDEST PUSH1 0x0 PUSH1 0x8 DUP4 MUL PUSH2 0x2435 PUSH32 0xFFFFFFFFFFFFFFFFFFFFFFFFFFFFFFFFFFFFFFFFFFFFFFFFFFFFFFFFFFFFFFFF DUP3 PUSH2 0x23F8 JUMP JUMPDEST PUSH2 0x243F DUP7 DUP4 PUSH2 0x23F8 JUMP JUMPDEST SWAP6 POP DUP1 NOT DUP5 AND SWAP4 POP DUP1 DUP7 AND DUP5 OR SWAP3 POP POP POP SWAP4 SWAP3 POP POP POP JUMP JUMPDEST PUSH1 0x0 DUP2 SWAP1 POP SWAP2 SWAP1 POP JUMP JUMPDEST PUSH1 0x0 PUSH2 0x247C PUSH2 0x2477 PUSH2 0x2472 DUP5 PUSH2 0x1F68 JUMP JUMPDEST PUSH2 0x2457 JUMP JUMPDEST PUSH2 0x1F68 JUMP JUMPDEST SWAP1 POP SWAP2 SWAP1 POP JUMP JUMPDEST PUSH1 0x0 DUP2 SWAP1 POP SWAP2 SWAP1 POP JUMP JUMPDEST PUSH2 0x2496 DUP4 PUSH2 0x2461 JUMP JUMPDEST PUSH2 0x24AA PUSH2 0x24A2 DUP3 PUSH2 0x2483 JUMP JUMPDEST DUP5 DUP5 SLOAD PUSH2 0x2405 JUMP JUMPDEST DUP3 SSTORE POP POP POP POP JUMP JUMPDEST PUSH1 0x0 SWAP1 JUMP JUMPDEST PUSH2 0x24BF PUSH2 0x24B2 JUMP JUMPDEST PUSH2 0x24CA DUP2 DUP5 DUP5 PUSH2 0x248D JUMP JUMPDEST POP POP POP JUMP JUMPDEST JUMPDEST DUP2 DUP2 LT ISZERO PUSH2 0x24EE JUMPI PUSH2 0x24E3 PUSH1 0x0 DUP3 PUSH2 0x24B7 JUMP JUMPDEST PUSH1 0x1 DUP2 ADD SWAP1 POP PUSH2 0x24D0 JUMP JUMPDEST POP POP JUMP JUMPDEST PUSH1 0x1F DUP3 GT ISZERO PUSH2 0x2533 JUMPI PUSH2 0x2504 DUP2 PUSH2 0x23D3 JUMP JUMPDEST PUSH2 0x250D DUP5 PUSH2 0x23E8 JUMP JUMPDEST DUP2 ADD PUSH1 0x20 DUP6 LT ISZERO PUSH2 0x251C JUMPI DUP2 SWAP1 POP JUMPDEST PUSH2 0x2530 PUSH2 0x2528 DUP6 PUSH2 0x23E8 JUMP JUMPDEST DUP4 ADD DUP3 PUSH2 0x24CF JUMP JUMPDEST POP POP JUMPDEST POP POP POP JUMP JUMPDEST PUSH1 0x0 DUP3 DUP3 SHR SWAP1 POP SWAP3 SWAP2 POP POP JUMP JUMPDEST PUSH1 0x0 PUSH2 0x2556 PUSH1 0x0 NOT DUP5 PUSH1 0x8 MUL PUSH2 0x2538 JUMP JUMPDEST NOT DUP1 DUP4 AND SWAP2 POP POP SWAP3 SWAP2 POP POP JUMP JUMPDEST PUSH1 0x0 PUSH2 0x256F DUP4 DUP4 PUSH2 0x2545 JUMP JUMPDEST SWAP2 POP DUP3 PUSH1 0x2 MUL DUP3 OR SWAP1 POP SWAP3 SWAP2 POP POP JUMP JUMPDEST PUSH2 0x2588 DUP3 PUSH2 0x1DFB JUMP JUMPDEST PUSH8 0xFFFFFFFFFFFFFFFF DUP2 GT ISZERO PUSH2 0x25A1 JUMPI PUSH2 0x25A0 PUSH2 0x1C0F JUMP JUMPDEST JUMPDEST PUSH2 0x25AB DUP3 SLOAD PUSH2 0x23A2 JUMP JUMPDEST PUSH2 0x25B6 DUP3 DUP3 DUP6 PUSH2 0x24F2 JUMP JUMPDEST PUSH1 0x0 PUSH1 0x20 SWAP1 POP PUSH1 0x1F DUP4 GT PUSH1 0x1 DUP2 EQ PUSH2 0x25E9 JUMPI PUSH1 0x0 DUP5 ISZERO PUSH2 0x25D7 JUMPI DUP3 DUP8 ADD MLOAD SWAP1 POP JUMPDEST PUSH2 0x25E1 DUP6 DUP3 PUSH2 0x2563 JUMP JUMPDEST DUP7 SSTORE POP PUSH2 0x2649 JUMP JUMPDEST PUSH1 0x1F NOT DUP5 AND PUSH2 0x25F7 DUP7 PUSH2 0x23D3 JUMP JUMPDEST PUSH1 0x0 JUMPDEST DUP3 DUP2 LT ISZERO PUSH2 0x261F JUMPI DUP5 DUP10 ADD MLOAD DUP3 SSTORE PUSH1 0x1 DUP3 ADD SWAP2 POP PUSH1 0x20 DUP6 ADD SWAP5 POP PUSH1 0x20 DUP2 ADD SWAP1 POP PUSH2 0x25FA JUMP JUMPDEST DUP7 DUP4 LT ISZERO PUSH2 0x263C JUMPI DUP5 DUP10 ADD MLOAD PUSH2 0x2638 PUSH1 0x1F DUP10 AND DUP3 PUSH2 0x2545 JUMP JUMPDEST DUP4 SSTORE POP JUMPDEST PUSH1 0x1 PUSH1 0x2 DUP9 MUL ADD DUP9 SSTORE POP POP POP JUMPDEST POP POP POP POP POP POP JUMP JUMPDEST PUSH32 0x4E487B7100000000000000000000000000000000000000000000000000000000 PUSH1 0x0 MSTORE PUSH1 0x32 PUSH1 0x4 MSTORE PUSH1 0x24 PUSH1 0x0 REVERT JUMPDEST PUSH32 0x4E487B7100000000000000000000000000000000000000000000000000000000 PUSH1 0x0 MSTORE PUSH1 0x11 PUSH1 0x4 MSTORE PUSH1 0x24 PUSH1 0x0 REVERT JUMPDEST PUSH1 0x0 PUSH2 0x26BA DUP3 PUSH2 0x1F68 JUMP JUMPDEST SWAP2 POP PUSH32 0xFFFFFFFFFFFFFFFFFFFFFFFFFFFFFFFFFFFFFFFFFFFFFFFFFFFFFFFFFFFFFFFF DUP3 SUB PUSH2 0x26EC JUMPI PUSH2 0x26EB PUSH2 0x2680 JUMP JUMPDEST JUMPDEST PUSH1 0x1 DUP3 ADD SWAP1 POP SWAP2 SWAP1 POP JUMP JUMPDEST POP JUMP JUMPDEST PUSH1 0x0 PUSH2 0x2707 PUSH1 0x0 DUP4 PUSH2 0x2320 JUMP JUMPDEST SWAP2 POP PUSH2 0x2712 DUP3 PUSH2 0x26F7 JUMP JUMPDEST PUSH1 0x0 DUP3 ADD SWAP1 POP SWAP2 SWAP1 POP JUMP JUMPDEST PUSH1 0x0 PUSH2 0x2728 DUP3 PUSH2 0x26FA JUMP JUMPDEST SWAP2 POP DUP2 SWAP1 POP SWAP2 SWAP1 POP JUMP JUMPDEST PUSH1 0x0 DUP2 SLOAD PUSH2 0x273F DUP2 PUSH2 0x23A2 JUMP JUMPDEST PUSH2 0x2749 DUP2 DUP7 PUSH2 0x2320 JUMP JUMPDEST SWAP5 POP PUSH1 0x1 DUP3 AND PUSH1 0x0 DUP2 EQ PUSH2 0x2764 JUMPI PUSH1 0x1 DUP2 EQ PUSH2 0x2779 JUMPI PUSH2 0x27AC JUMP JUMPDEST PUSH1 0xFF NOT DUP4 AND DUP7 MSTORE DUP2 ISZERO ISZERO DUP3 MUL DUP7 ADD SWAP4 POP PUSH2 0x27AC JUMP JUMPDEST PUSH2 0x2782 DUP6 PUSH2 0x23D3 JUMP JUMPDEST PUSH1 0x0 JUMPDEST DUP4 DUP2 LT ISZERO PUSH2 0x27A4 JUMPI DUP2 SLOAD DUP2 DUP10 ADD MSTORE PUSH1 0x1 DUP3 ADD SWAP2 POP PUSH1 0x20 DUP2 ADD SWAP1 POP PUSH2 0x2785 JUMP JUMPDEST DUP4 DUP9 ADD SWAP6 POP POP POP JUMPDEST POP POP POP SWAP3 SWAP2 POP POP JUMP JUMPDEST PUSH1 0x0 PUSH2 0x27C1 DUP3 DUP5 PUSH2 0x2732 JUMP JUMPDEST SWAP2 POP DUP2 SWAP1 POP SWAP3 SWAP2 POP POP JUMP INVALID LOG2 PUSH5 0x6970667358 0x22 SLT KECCAK256 DUP1 DUP2 CHAINID 0xD5 EXTCODEHASH DELEGATECALL PUSH8 0xB41009D54CB40F48 EXTCODESIZE DUP11 0xC9 RETURN DUP5 0xCB PUSH23 0xC5881FB5B62CACCBEA4D64736F6C634300081200330000 "
				},
				"gasEstimates": {
					"creation": {
						"codeDepositCost": "2048400",
						"executionCost": "26444",
						"totalCost": "2074844"
					},
					"external": {
						"assignLensToUser(string,string)": "infinite",
						"assignWalletsToUser(string[],string)": "infinite",
						"assignWorldCoinIdToUser(string,string)": "infinite",
						"compareStrings(string,string)": "infinite",
						"createUserAccount(string,string[])": "infinite",
						"doesKeyExist(string,string)": "infinite",
						"getOwner()": "2522",
						"getUserById(string)": "infinite",
						"getUserByLens(string)": "infinite",
						"getUserByWallet(string)": "infinite",
						"getUserByWorldCoin(string)": "infinite",
						"makeRentRequest()": "166"
					}
				},
				"methodIdentifiers": {
					"assignLensToUser(string,string)": "081396eb",
					"assignWalletsToUser(string[],string)": "63c60bd5",
					"assignWorldCoinIdToUser(string,string)": "15c19c1d",
					"compareStrings(string,string)": "bed34bba",
					"createUserAccount(string,string[])": "51f40dd6",
					"doesKeyExist(string,string)": "d430e05a",
					"getOwner()": "893d20e8",
					"getUserById(string)": "379f8fc2",
					"getUserByLens(string)": "c77cfeeb",
					"getUserByWallet(string)": "7198ed1a",
					"getUserByWorldCoin(string)": "f70e1c5e",
					"makeRentRequest()": "8d5fa841"
				}
			},
			"storageLayout": {
				"storage": [
					{
						"astId": 3,
						"contract": "Contracts/Lending.sol:Lending",
						"label": "owner",
						"offset": 0,
						"slot": "0",
						"type": "t_address"
					},
					{
						"astId": 43,
						"contract": "Contracts/Lending.sol:Lending",
						"label": "Products",
						"offset": 0,
						"slot": "1",
						"type": "t_mapping(t_uint256,t_struct(Product)31_storage)"
					},
					{
						"astId": 48,
						"contract": "Contracts/Lending.sol:Lending",
						"label": "Users",
						"offset": 0,
						"slot": "2",
						"type": "t_mapping(t_string_memory_ptr,t_struct(User)16_storage)"
					},
					{
						"astId": 53,
						"contract": "Contracts/Lending.sol:Lending",
						"label": "UserProducts",
						"offset": 0,
						"slot": "3",
						"type": "t_mapping(t_uint256,t_array(t_uint256)dyn_storage)"
					},
					{
						"astId": 57,
						"contract": "Contracts/Lending.sol:Lending",
						"label": "UserWorldCoinIds",
						"offset": 0,
						"slot": "4",
						"type": "t_mapping(t_string_memory_ptr,t_string_storage)"
					},
					{
						"astId": 61,
						"contract": "Contracts/Lending.sol:Lending",
						"label": "UserWallets",
						"offset": 0,
						"slot": "5",
						"type": "t_mapping(t_string_memory_ptr,t_string_storage)"
					},
					{
						"astId": 65,
						"contract": "Contracts/Lending.sol:Lending",
						"label": "UserLensHandles",
						"offset": 0,
						"slot": "6",
						"type": "t_mapping(t_string_memory_ptr,t_string_storage)"
					}
				],
				"types": {
					"t_address": {
						"encoding": "inplace",
						"label": "address",
						"numberOfBytes": "20"
					},
					"t_array(t_string_storage)dyn_storage": {
						"base": "t_string_storage",
						"encoding": "dynamic_array",
						"label": "string[]",
						"numberOfBytes": "32"
					},
					"t_array(t_uint256)dyn_storage": {
						"base": "t_uint256",
						"encoding": "dynamic_array",
						"label": "uint256[]",
						"numberOfBytes": "32"
					},
					"t_mapping(t_string_memory_ptr,t_string_storage)": {
						"encoding": "mapping",
						"key": "t_string_memory_ptr",
						"label": "mapping(string => string)",
						"numberOfBytes": "32",
						"value": "t_string_storage"
					},
					"t_mapping(t_string_memory_ptr,t_struct(User)16_storage)": {
						"encoding": "mapping",
						"key": "t_string_memory_ptr",
						"label": "mapping(string => struct Lending.User)",
						"numberOfBytes": "32",
						"value": "t_struct(User)16_storage"
					},
					"t_mapping(t_uint256,t_array(t_uint256)dyn_storage)": {
						"encoding": "mapping",
						"key": "t_uint256",
						"label": "mapping(uint256 => uint256[])",
						"numberOfBytes": "32",
						"value": "t_array(t_uint256)dyn_storage"
					},
					"t_mapping(t_uint256,t_struct(Product)31_storage)": {
						"encoding": "mapping",
						"key": "t_uint256",
						"label": "mapping(uint256 => struct Lending.Product)",
						"numberOfBytes": "32",
						"value": "t_struct(Product)31_storage"
					},
					"t_string_memory_ptr": {
						"encoding": "bytes",
						"label": "string",
						"numberOfBytes": "32"
					},
					"t_string_storage": {
						"encoding": "bytes",
						"label": "string",
						"numberOfBytes": "32"
					},
					"t_struct(Product)31_storage": {
						"encoding": "inplace",
						"label": "struct Lending.Product",
						"members": [
							{
								"astId": 18,
								"contract": "Contracts/Lending.sol:Lending",
								"label": "owner",
								"offset": 0,
								"slot": "0",
								"type": "t_string_storage"
							},
							{
								"astId": 20,
								"contract": "Contracts/Lending.sol:Lending",
								"label": "lat",
								"offset": 0,
								"slot": "1",
								"type": "t_string_storage"
							},
							{
								"astId": 22,
								"contract": "Contracts/Lending.sol:Lending",
								"label": "lng",
								"offset": 0,
								"slot": "2",
								"type": "t_string_storage"
							},
							{
								"astId": 24,
								"contract": "Contracts/Lending.sol:Lending",
								"label": "description",
								"offset": 0,
								"slot": "3",
								"type": "t_string_storage"
							},
							{
								"astId": 26,
								"contract": "Contracts/Lending.sol:Lending",
								"label": "value",
								"offset": 0,
								"slot": "4",
								"type": "t_uint256"
							},
							{
								"astId": 28,
								"contract": "Contracts/Lending.sol:Lending",
								"label": "price",
								"offset": 0,
								"slot": "5",
								"type": "t_uint256"
							},
							{
								"astId": 30,
								"contract": "Contracts/Lending.sol:Lending",
								"label": "image",
								"offset": 0,
								"slot": "6",
								"type": "t_string_storage"
							}
						],
						"numberOfBytes": "224"
					},
					"t_struct(User)16_storage": {
						"encoding": "inplace",
						"label": "struct Lending.User",
						"members": [
							{
								"astId": 5,
								"contract": "Contracts/Lending.sol:Lending",
								"label": "userId",
								"offset": 0,
								"slot": "0",
								"type": "t_string_storage"
							},
							{
								"astId": 7,
								"contract": "Contracts/Lending.sol:Lending",
								"label": "worldCoinId",
								"offset": 0,
								"slot": "1",
								"type": "t_string_storage"
							},
							{
								"astId": 9,
								"contract": "Contracts/Lending.sol:Lending",
								"label": "lensHandle",
								"offset": 0,
								"slot": "2",
								"type": "t_string_storage"
							},
							{
								"astId": 12,
								"contract": "Contracts/Lending.sol:Lending",
								"label": "wallets",
								"offset": 0,
								"slot": "3",
								"type": "t_array(t_string_storage)dyn_storage"
							},
							{
								"astId": 15,
								"contract": "Contracts/Lending.sol:Lending",
								"label": "products",
								"offset": 0,
								"slot": "4",
								"type": "t_array(t_uint256)dyn_storage"
							}
						],
						"numberOfBytes": "160"
					},
					"t_uint256": {
						"encoding": "inplace",
						"label": "uint256",
						"numberOfBytes": "32"
					}
				}
			},
			"userdoc": {
				"kind": "user",
				"methods": {},
				"version": 1
			}
		}
	}
}