{
	"Contracts/Lending.sol": {
		"Lending": {
			"abi": [
				{
					"inputs": [],
					"stateMutability": "nonpayable",
					"type": "constructor"
				},
				{
					"inputs": [
						{
							"internalType": "string",
							"name": "_lens",
							"type": "string"
						},
						{
							"internalType": "string",
							"name": "userId",
							"type": "string"
						}
					],
					"name": "assignLensToUser",
					"outputs": [],
					"stateMutability": "nonpayable",
					"type": "function"
				},
				{
					"inputs": [
						{
							"internalType": "string[]",
							"name": "_addresses",
							"type": "string[]"
						},
						{
							"internalType": "string",
							"name": "userId",
							"type": "string"
						}
					],
					"name": "assignWalletsToUser",
					"outputs": [],
					"stateMutability": "nonpayable",
					"type": "function"
				},
				{
					"inputs": [
						{
							"internalType": "string",
							"name": "WCID",
							"type": "string"
						},
						{
							"internalType": "string",
							"name": "userId",
							"type": "string"
						}
					],
					"name": "assignWorldCoinIdToUser",
					"outputs": [],
					"stateMutability": "nonpayable",
					"type": "function"
				},
				{
					"inputs": [
						{
							"internalType": "string",
							"name": "a",
							"type": "string"
						},
						{
							"internalType": "string",
							"name": "b",
							"type": "string"
						}
					],
					"name": "compareStrings",
					"outputs": [
						{
							"internalType": "bool",
							"name": "",
							"type": "bool"
						}
					],
					"stateMutability": "pure",
					"type": "function"
				},
				{
					"inputs": [
						{
							"internalType": "string",
							"name": "username",
							"type": "string"
						},
						{
							"internalType": "string[]",
							"name": "_addresses",
							"type": "string[]"
						}
					],
					"name": "createUserAccount",
					"outputs": [
						{
							"components": [
								{
									"internalType": "string",
									"name": "worldCoinId",
									"type": "string"
								},
								{
									"internalType": "string",
									"name": "lensHandle",
									"type": "string"
								},
								{
									"internalType": "string[]",
									"name": "wallets",
									"type": "string[]"
								}
							],
							"internalType": "struct Lending.User",
							"name": "",
							"type": "tuple"
						}
					],
					"stateMutability": "nonpayable",
					"type": "function"
				},
				{
					"inputs": [
						{
							"internalType": "string",
							"name": "key",
							"type": "string"
						},
						{
							"internalType": "string",
							"name": "variable",
							"type": "string"
						}
					],
					"name": "doesKeyExist",
					"outputs": [
						{
							"internalType": "bool",
							"name": "",
							"type": "bool"
						}
					],
					"stateMutability": "view",
					"type": "function"
				},
				{
					"inputs": [],
					"name": "getOwner",
					"outputs": [
						{
							"internalType": "address",
							"name": "",
							"type": "address"
						}
					],
					"stateMutability": "view",
					"type": "function"
				},
				{
					"inputs": [
						{
							"internalType": "string",
							"name": "userId",
							"type": "string"
						}
					],
					"name": "getUserById",
					"outputs": [
						{
							"components": [
								{
									"internalType": "string",
									"name": "worldCoinId",
									"type": "string"
								},
								{
									"internalType": "string",
									"name": "lensHandle",
									"type": "string"
								},
								{
									"internalType": "string[]",
									"name": "wallets",
									"type": "string[]"
								}
							],
							"internalType": "struct Lending.User",
							"name": "",
							"type": "tuple"
						}
					],
					"stateMutability": "view",
					"type": "function"
				},
				{
					"inputs": [
						{
							"internalType": "string",
							"name": "lens",
							"type": "string"
						}
					],
					"name": "getUserByLens",
					"outputs": [
						{
							"components": [
								{
									"internalType": "string",
									"name": "worldCoinId",
									"type": "string"
								},
								{
									"internalType": "string",
									"name": "lensHandle",
									"type": "string"
								},
								{
									"internalType": "string[]",
									"name": "wallets",
									"type": "string[]"
								}
							],
							"internalType": "struct Lending.User",
							"name": "",
							"type": "tuple"
						}
					],
					"stateMutability": "view",
					"type": "function"
				},
				{
					"inputs": [
						{
							"internalType": "string",
							"name": "WCID",
							"type": "string"
						}
					],
					"name": "getUserByWorldCoin",
					"outputs": [
						{
							"components": [
								{
									"internalType": "string",
									"name": "worldCoinId",
									"type": "string"
								},
								{
									"internalType": "string",
									"name": "lensHandle",
									"type": "string"
								},
								{
									"internalType": "string[]",
									"name": "wallets",
									"type": "string[]"
								}
							],
							"internalType": "struct Lending.User",
							"name": "",
							"type": "tuple"
						}
					],
					"stateMutability": "view",
					"type": "function"
				}
			],
			"devdoc": {
				"kind": "dev",
				"methods": {},
				"version": 1
			},
			"evm": {
				"assembly": "    /* \"Contracts/Lending.sol\":70:4153  contract Lending {... */\n  mstore(0x40, 0x80)\n    /* \"Contracts/Lending.sol\":994:1043  constructor() {... */\n  callvalue\n  dup1\n  iszero\n  tag_1\n  jumpi\n  0x00\n  dup1\n  revert\ntag_1:\n  pop\n    /* \"Contracts/Lending.sol\":1026:1036  msg.sender */\n  caller\n    /* \"Contracts/Lending.sol\":1018:1023  owner */\n  0x00\n  dup1\n    /* \"Contracts/Lending.sol\":1018:1036  owner = msg.sender */\n  0x0100\n  exp\n  dup2\n  sload\n  dup2\n  0xffffffffffffffffffffffffffffffffffffffff\n  mul\n  not\n  and\n  swap1\n  dup4\n  0xffffffffffffffffffffffffffffffffffffffff\n  and\n  mul\n  or\n  swap1\n  sstore\n  pop\n    /* \"Contracts/Lending.sol\":70:4153  contract Lending {... */\n  dataSize(sub_0)\n  dup1\n  dataOffset(sub_0)\n  0x00\n  codecopy\n  0x00\n  return\nstop\n\nsub_0: assembly {\n        /* \"Contracts/Lending.sol\":70:4153  contract Lending {... */\n      mstore(0x40, 0x80)\n      callvalue\n      dup1\n      iszero\n      tag_1\n      jumpi\n      0x00\n      dup1\n      revert\n    tag_1:\n      pop\n      jumpi(tag_2, lt(calldatasize, 0x04))\n      shr(0xe0, calldataload(0x00))\n      dup1\n      0x893d20e8\n      gt\n      tag_13\n      jumpi\n      dup1\n      0x893d20e8\n      eq\n      tag_8\n      jumpi\n      dup1\n      0xbed34bba\n      eq\n      tag_9\n      jumpi\n      dup1\n      0xc77cfeeb\n      eq\n      tag_10\n      jumpi\n      dup1\n      0xd430e05a\n      eq\n      tag_11\n      jumpi\n      dup1\n      0xf70e1c5e\n      eq\n      tag_12\n      jumpi\n      jump(tag_2)\n    tag_13:\n      dup1\n      0x081396eb\n      eq\n      tag_3\n      jumpi\n      dup1\n      0x15c19c1d\n      eq\n      tag_4\n      jumpi\n      dup1\n      0x379f8fc2\n      eq\n      tag_5\n      jumpi\n      dup1\n      0x51f40dd6\n      eq\n      tag_6\n      jumpi\n      dup1\n      0x63c60bd5\n      eq\n      tag_7\n      jumpi\n    tag_2:\n      0x00\n      dup1\n      revert\n        /* \"Contracts/Lending.sol\":2529:2761  function assignLensToUser(string memory _lens, string memory userId) public {... */\n    tag_3:\n      tag_14\n      0x04\n      dup1\n      calldatasize\n      sub\n      dup2\n      add\n      swap1\n      tag_15\n      swap2\n      swap1\n      tag_16\n      jump\t// in\n    tag_15:\n      tag_17\n      jump\t// in\n    tag_14:\n      stop\n        /* \"Contracts/Lending.sol\":2767:3004  function assignWorldCoinIdToUser(string memory WCID, string memory userId) public {... */\n    tag_4:\n      tag_18\n      0x04\n      dup1\n      calldatasize\n      sub\n      dup2\n      add\n      swap1\n      tag_19\n      swap2\n      swap1\n      tag_16\n      jump\t// in\n    tag_19:\n      tag_20\n      jump\t// in\n    tag_18:\n      stop\n        /* \"Contracts/Lending.sol\":3595:3709  function getUserById(string memory userId) public view returns (User memory) {... */\n    tag_5:\n      tag_21\n      0x04\n      dup1\n      calldatasize\n      sub\n      dup2\n      add\n      swap1\n      tag_22\n      swap2\n      swap1\n      tag_23\n      jump\t// in\n    tag_22:\n      tag_24\n      jump\t// in\n    tag_21:\n      mload(0x40)\n      tag_25\n      swap2\n      swap1\n      tag_26\n      jump\t// in\n    tag_25:\n      mload(0x40)\n      dup1\n      swap2\n      sub\n      swap1\n      return\n        /* \"Contracts/Lending.sol\":3010:3588  function createUserAccount(string memory username, string[] memory _addresses) public returns (User memory) {... */\n    tag_6:\n      tag_27\n      0x04\n      dup1\n      calldatasize\n      sub\n      dup2\n      add\n      swap1\n      tag_28\n      swap2\n      swap1\n      tag_29\n      jump\t// in\n    tag_28:\n      tag_30\n      jump\t// in\n    tag_27:\n      mload(0x40)\n      tag_31\n      swap2\n      swap1\n      tag_26\n      jump\t// in\n    tag_31:\n      mload(0x40)\n      dup1\n      swap2\n      sub\n      swap1\n      return\n        /* \"Contracts/Lending.sol\":2203:2523  function assignWalletsToUser(string[] memory _addresses, string memory userId) public {... */\n    tag_7:\n      tag_32\n      0x04\n      dup1\n      calldatasize\n      sub\n      dup2\n      add\n      swap1\n      tag_33\n      swap2\n      swap1\n      tag_34\n      jump\t// in\n    tag_33:\n      tag_35\n      jump\t// in\n    tag_32:\n      stop\n        /* \"Contracts/Lending.sol\":4069:4150  function getOwner() external view returns (address) {... */\n    tag_8:\n      tag_36\n      tag_37\n      jump\t// in\n    tag_36:\n      mload(0x40)\n      tag_38\n      swap2\n      swap1\n      tag_39\n      jump\t// in\n    tag_38:\n      mload(0x40)\n      dup1\n      swap2\n      sub\n      swap1\n      return\n        /* \"Contracts/Lending.sol\":1049:1445  function compareStrings(string memory a, string memory b) public pure returns (bool) {... */\n    tag_9:\n      tag_40\n      0x04\n      dup1\n      calldatasize\n      sub\n      dup2\n      add\n      swap1\n      tag_41\n      swap2\n      swap1\n      tag_16\n      jump\t// in\n    tag_41:\n      tag_42\n      jump\t// in\n    tag_40:\n      mload(0x40)\n      tag_43\n      swap2\n      swap1\n      tag_44\n      jump\t// in\n    tag_43:\n      mload(0x40)\n      dup1\n      swap2\n      sub\n      swap1\n      return\n        /* \"Contracts/Lending.sol\":3715:3883  function getUserByLens(string memory lens) public view returns (User memory) {... */\n    tag_10:\n      tag_45\n      0x04\n      dup1\n      calldatasize\n      sub\n      dup2\n      add\n      swap1\n      tag_46\n      swap2\n      swap1\n      tag_23\n      jump\t// in\n    tag_46:\n      tag_47\n      jump\t// in\n    tag_45:\n      mload(0x40)\n      tag_48\n      swap2\n      swap1\n      tag_26\n      jump\t// in\n    tag_48:\n      mload(0x40)\n      dup1\n      swap2\n      sub\n      swap1\n      return\n        /* \"Contracts/Lending.sol\":1507:2133  function doesKeyExist(string memory key, string memory variable) public view returns (bool) {... */\n    tag_11:\n      tag_49\n      0x04\n      dup1\n      calldatasize\n      sub\n      dup2\n      add\n      swap1\n      tag_50\n      swap2\n      swap1\n      tag_16\n      jump\t// in\n    tag_50:\n      tag_51\n      jump\t// in\n    tag_49:\n      mload(0x40)\n      tag_52\n      swap2\n      swap1\n      tag_44\n      jump\t// in\n    tag_52:\n      mload(0x40)\n      dup1\n      swap2\n      sub\n      swap1\n      return\n        /* \"Contracts/Lending.sol\":3889:4063  function getUserByWorldCoin(string memory WCID) public view returns (User memory) {... */\n    tag_12:\n      tag_53\n      0x04\n      dup1\n      calldatasize\n      sub\n      dup2\n      add\n      swap1\n      tag_54\n      swap2\n      swap1\n      tag_23\n      jump\t// in\n    tag_54:\n      tag_55\n      jump\t// in\n    tag_53:\n      mload(0x40)\n      tag_56\n      swap2\n      swap1\n      tag_26\n      jump\t// in\n    tag_56:\n      mload(0x40)\n      dup1\n      swap2\n      sub\n      swap1\n      return\n        /* \"Contracts/Lending.sol\":2529:2761  function assignLensToUser(string memory _lens, string memory userId) public {... */\n    tag_17:\n        /* \"Contracts/Lending.sol\":2620:2651  doesKeyExist(_lens, 'userLens') */\n      tag_58\n        /* \"Contracts/Lending.sol\":2633:2638  _lens */\n      dup3\n        /* \"Contracts/Lending.sol\":2620:2651  doesKeyExist(_lens, 'userLens') */\n      mload(0x40)\n      dup1\n      0x40\n      add\n      0x40\n      mstore\n      dup1\n      0x08\n      dup2\n      mstore\n      0x20\n      add\n      0x757365724c656e73000000000000000000000000000000000000000000000000\n      dup2\n      mstore\n      pop\n        /* \"Contracts/Lending.sol\":2620:2632  doesKeyExist */\n      tag_51\n        /* \"Contracts/Lending.sol\":2620:2651  doesKeyExist(_lens, 'userLens') */\n      jump\t// in\n    tag_58:\n        /* \"Contracts/Lending.sol\":2615:2755  if (!doesKeyExist(_lens, 'userLens')) {... */\n      tag_59\n      jumpi\n        /* \"Contracts/Lending.sol\":2692:2698  userId */\n      dup1\n        /* \"Contracts/Lending.sol\":2667:2682  UserLensHandles */\n      0x06\n        /* \"Contracts/Lending.sol\":2683:2688  _lens */\n      dup4\n        /* \"Contracts/Lending.sol\":2667:2689  UserLensHandles[_lens] */\n      mload(0x40)\n      tag_60\n      swap2\n      swap1\n      tag_61\n      jump\t// in\n    tag_60:\n      swap1\n      dup2\n      mstore\n      0x20\n      add\n      mload(0x40)\n      dup1\n      swap2\n      sub\n      swap1\n      keccak256\n        /* \"Contracts/Lending.sol\":2667:2698  UserLensHandles[_lens] = userId */\n      swap1\n      dup2\n      tag_62\n      swap2\n      swap1\n      tag_63\n      jump\t// in\n    tag_62:\n      pop\n        /* \"Contracts/Lending.sol\":2739:2744  _lens */\n      dup2\n        /* \"Contracts/Lending.sol\":2712:2717  Users */\n      0x02\n        /* \"Contracts/Lending.sol\":2718:2724  userId */\n      dup3\n        /* \"Contracts/Lending.sol\":2712:2725  Users[userId] */\n      mload(0x40)\n      tag_64\n      swap2\n      swap1\n      tag_61\n      jump\t// in\n    tag_64:\n      swap1\n      dup2\n      mstore\n      0x20\n      add\n      mload(0x40)\n      dup1\n      swap2\n      sub\n      swap1\n      keccak256\n        /* \"Contracts/Lending.sol\":2712:2736  Users[userId].lensHandle */\n      0x01\n      add\n        /* \"Contracts/Lending.sol\":2712:2744  Users[userId].lensHandle = _lens */\n      swap1\n      dup2\n      tag_65\n      swap2\n      swap1\n      tag_63\n      jump\t// in\n    tag_65:\n      pop\n        /* \"Contracts/Lending.sol\":2615:2755  if (!doesKeyExist(_lens, 'userLens')) {... */\n    tag_59:\n        /* \"Contracts/Lending.sol\":2529:2761  function assignLensToUser(string memory _lens, string memory userId) public {... */\n      pop\n      pop\n      jump\t// out\n        /* \"Contracts/Lending.sol\":2767:3004  function assignWorldCoinIdToUser(string memory WCID, string memory userId) public {... */\n    tag_20:\n        /* \"Contracts/Lending.sol\":2864:2894  doesKeyExist(WCID, 'userWCID') */\n      tag_67\n        /* \"Contracts/Lending.sol\":2877:2881  WCID */\n      dup3\n        /* \"Contracts/Lending.sol\":2864:2894  doesKeyExist(WCID, 'userWCID') */\n      mload(0x40)\n      dup1\n      0x40\n      add\n      0x40\n      mstore\n      dup1\n      0x08\n      dup2\n      mstore\n      0x20\n      add\n      0x7573657257434944000000000000000000000000000000000000000000000000\n      dup2\n      mstore\n      pop\n        /* \"Contracts/Lending.sol\":2864:2876  doesKeyExist */\n      tag_51\n        /* \"Contracts/Lending.sol\":2864:2894  doesKeyExist(WCID, 'userWCID') */\n      jump\t// in\n    tag_67:\n        /* \"Contracts/Lending.sol\":2859:2998  if (!doesKeyExist(WCID, 'userWCID')) {... */\n      tag_68\n      jumpi\n        /* \"Contracts/Lending.sol\":2935:2941  userId */\n      dup1\n        /* \"Contracts/Lending.sol\":2910:2926  UserWorldCoinIds */\n      0x04\n        /* \"Contracts/Lending.sol\":2927:2931  WCID */\n      dup4\n        /* \"Contracts/Lending.sol\":2910:2932  UserWorldCoinIds[WCID] */\n      mload(0x40)\n      tag_69\n      swap2\n      swap1\n      tag_61\n      jump\t// in\n    tag_69:\n      swap1\n      dup2\n      mstore\n      0x20\n      add\n      mload(0x40)\n      dup1\n      swap2\n      sub\n      swap1\n      keccak256\n        /* \"Contracts/Lending.sol\":2910:2941  UserWorldCoinIds[WCID] = userId */\n      swap1\n      dup2\n      tag_70\n      swap2\n      swap1\n      tag_63\n      jump\t// in\n    tag_70:\n      pop\n        /* \"Contracts/Lending.sol\":2983:2987  WCID */\n      dup2\n        /* \"Contracts/Lending.sol\":2955:2960  Users */\n      0x02\n        /* \"Contracts/Lending.sol\":2961:2967  userId */\n      dup3\n        /* \"Contracts/Lending.sol\":2955:2968  Users[userId] */\n      mload(0x40)\n      tag_71\n      swap2\n      swap1\n      tag_61\n      jump\t// in\n    tag_71:\n      swap1\n      dup2\n      mstore\n      0x20\n      add\n      mload(0x40)\n      dup1\n      swap2\n      sub\n      swap1\n      keccak256\n        /* \"Contracts/Lending.sol\":2955:2980  Users[userId].worldCoinId */\n      0x00\n      add\n        /* \"Contracts/Lending.sol\":2955:2987  Users[userId].worldCoinId = WCID */\n      swap1\n      dup2\n      tag_72\n      swap2\n      swap1\n      tag_63\n      jump\t// in\n    tag_72:\n      pop\n        /* \"Contracts/Lending.sol\":2859:2998  if (!doesKeyExist(WCID, 'userWCID')) {... */\n    tag_68:\n        /* \"Contracts/Lending.sol\":2767:3004  function assignWorldCoinIdToUser(string memory WCID, string memory userId) public {... */\n      pop\n      pop\n      jump\t// out\n        /* \"Contracts/Lending.sol\":3595:3709  function getUserById(string memory userId) public view returns (User memory) {... */\n    tag_24:\n        /* \"Contracts/Lending.sol\":3659:3670  User memory */\n      tag_73\n      tag_74\n      jump\t// in\n    tag_73:\n        /* \"Contracts/Lending.sol\":3689:3694  Users */\n      0x02\n        /* \"Contracts/Lending.sol\":3695:3701  userId */\n      dup3\n        /* \"Contracts/Lending.sol\":3689:3702  Users[userId] */\n      mload(0x40)\n      tag_76\n      swap2\n      swap1\n      tag_61\n      jump\t// in\n    tag_76:\n      swap1\n      dup2\n      mstore\n      0x20\n      add\n      mload(0x40)\n      dup1\n      swap2\n      sub\n      swap1\n      keccak256\n        /* \"Contracts/Lending.sol\":3682:3702  return Users[userId] */\n      mload(0x40)\n      dup1\n      0x60\n      add\n      0x40\n      mstore\n      swap1\n      dup2\n      0x00\n      dup3\n      add\n      dup1\n      sload\n      tag_77\n      swap1\n      tag_78\n      jump\t// in\n    tag_77:\n      dup1\n      0x1f\n      add\n      0x20\n      dup1\n      swap2\n      div\n      mul\n      0x20\n      add\n      mload(0x40)\n      swap1\n      dup2\n      add\n      0x40\n      mstore\n      dup1\n      swap3\n      swap2\n      swap1\n      dup2\n      dup2\n      mstore\n      0x20\n      add\n      dup3\n      dup1\n      sload\n      tag_79\n      swap1\n      tag_78\n      jump\t// in\n    tag_79:\n      dup1\n      iszero\n      tag_80\n      jumpi\n      dup1\n      0x1f\n      lt\n      tag_81\n      jumpi\n      0x0100\n      dup1\n      dup4\n      sload\n      div\n      mul\n      dup4\n      mstore\n      swap2\n      0x20\n      add\n      swap2\n      jump(tag_80)\n    tag_81:\n      dup3\n      add\n      swap2\n      swap1\n      0x00\n      mstore\n      keccak256(0x00, 0x20)\n      swap1\n    tag_82:\n      dup2\n      sload\n      dup2\n      mstore\n      swap1\n      0x01\n      add\n      swap1\n      0x20\n      add\n      dup1\n      dup4\n      gt\n      tag_82\n      jumpi\n      dup3\n      swap1\n      sub\n      0x1f\n      and\n      dup3\n      add\n      swap2\n    tag_80:\n      pop\n      pop\n      pop\n      pop\n      pop\n      dup2\n      mstore\n      0x20\n      add\n      0x01\n      dup3\n      add\n      dup1\n      sload\n      tag_83\n      swap1\n      tag_78\n      jump\t// in\n    tag_83:\n      dup1\n      0x1f\n      add\n      0x20\n      dup1\n      swap2\n      div\n      mul\n      0x20\n      add\n      mload(0x40)\n      swap1\n      dup2\n      add\n      0x40\n      mstore\n      dup1\n      swap3\n      swap2\n      swap1\n      dup2\n      dup2\n      mstore\n      0x20\n      add\n      dup3\n      dup1\n      sload\n      tag_84\n      swap1\n      tag_78\n      jump\t// in\n    tag_84:\n      dup1\n      iszero\n      tag_85\n      jumpi\n      dup1\n      0x1f\n      lt\n      tag_86\n      jumpi\n      0x0100\n      dup1\n      dup4\n      sload\n      div\n      mul\n      dup4\n      mstore\n      swap2\n      0x20\n      add\n      swap2\n      jump(tag_85)\n    tag_86:\n      dup3\n      add\n      swap2\n      swap1\n      0x00\n      mstore\n      keccak256(0x00, 0x20)\n      swap1\n    tag_87:\n      dup2\n      sload\n      dup2\n      mstore\n      swap1\n      0x01\n      add\n      swap1\n      0x20\n      add\n      dup1\n      dup4\n      gt\n      tag_87\n      jumpi\n      dup3\n      swap1\n      sub\n      0x1f\n      and\n      dup3\n      add\n      swap2\n    tag_85:\n      pop\n      pop\n      pop\n      pop\n      pop\n      dup2\n      mstore\n      0x20\n      add\n      0x02\n      dup3\n      add\n      dup1\n      sload\n      dup1\n      0x20\n      mul\n      0x20\n      add\n      mload(0x40)\n      swap1\n      dup2\n      add\n      0x40\n      mstore\n      dup1\n      swap3\n      swap2\n      swap1\n      dup2\n      dup2\n      mstore\n      0x20\n      add\n      0x00\n      swap1\n    tag_88:\n      dup3\n      dup3\n      lt\n      iszero\n      tag_89\n      jumpi\n      dup4\n      dup3\n      swap1\n      0x00\n      mstore\n      keccak256(0x00, 0x20)\n      add\n      dup1\n      sload\n      tag_91\n      swap1\n      tag_78\n      jump\t// in\n    tag_91:\n      dup1\n      0x1f\n      add\n      0x20\n      dup1\n      swap2\n      div\n      mul\n      0x20\n      add\n      mload(0x40)\n      swap1\n      dup2\n      add\n      0x40\n      mstore\n      dup1\n      swap3\n      swap2\n      swap1\n      dup2\n      dup2\n      mstore\n      0x20\n      add\n      dup3\n      dup1\n      sload\n      tag_92\n      swap1\n      tag_78\n      jump\t// in\n    tag_92:\n      dup1\n      iszero\n      tag_93\n      jumpi\n      dup1\n      0x1f\n      lt\n      tag_94\n      jumpi\n      0x0100\n      dup1\n      dup4\n      sload\n      div\n      mul\n      dup4\n      mstore\n      swap2\n      0x20\n      add\n      swap2\n      jump(tag_93)\n    tag_94:\n      dup3\n      add\n      swap2\n      swap1\n      0x00\n      mstore\n      keccak256(0x00, 0x20)\n      swap1\n    tag_95:\n      dup2\n      sload\n      dup2\n      mstore\n      swap1\n      0x01\n      add\n      swap1\n      0x20\n      add\n      dup1\n      dup4\n      gt\n      tag_95\n      jumpi\n      dup3\n      swap1\n      sub\n      0x1f\n      and\n      dup3\n      add\n      swap2\n    tag_93:\n      pop\n      pop\n      pop\n      pop\n      pop\n      dup2\n      mstore\n      0x20\n      add\n      swap1\n      0x01\n      add\n      swap1\n      jump(tag_88)\n    tag_89:\n      pop\n      pop\n      pop\n      pop\n      dup2\n      mstore\n      pop\n      pop\n      swap1\n      pop\n        /* \"Contracts/Lending.sol\":3595:3709  function getUserById(string memory userId) public view returns (User memory) {... */\n      swap2\n      swap1\n      pop\n      jump\t// out\n        /* \"Contracts/Lending.sol\":3010:3588  function createUserAccount(string memory username, string[] memory _addresses) public returns (User memory) {... */\n    tag_30:\n        /* \"Contracts/Lending.sol\":3105:3116  User memory */\n      tag_96\n      tag_74\n      jump\t// in\n    tag_96:\n        /* \"Contracts/Lending.sol\":3128:3147  User memory oldUser */\n      0x00\n        /* \"Contracts/Lending.sol\":3150:3155  Users */\n      0x02\n        /* \"Contracts/Lending.sol\":3156:3164  username */\n      dup5\n        /* \"Contracts/Lending.sol\":3150:3165  Users[username] */\n      mload(0x40)\n      tag_98\n      swap2\n      swap1\n      tag_61\n      jump\t// in\n    tag_98:\n      swap1\n      dup2\n      mstore\n      0x20\n      add\n      mload(0x40)\n      dup1\n      swap2\n      sub\n      swap1\n      keccak256\n        /* \"Contracts/Lending.sol\":3128:3165  User memory oldUser = Users[username] */\n      mload(0x40)\n      dup1\n      0x60\n      add\n      0x40\n      mstore\n      swap1\n      dup2\n      0x00\n      dup3\n      add\n      dup1\n      sload\n      tag_99\n      swap1\n      tag_78\n      jump\t// in\n    tag_99:\n      dup1\n      0x1f\n      add\n      0x20\n      dup1\n      swap2\n      div\n      mul\n      0x20\n      add\n      mload(0x40)\n      swap1\n      dup2\n      add\n      0x40\n      mstore\n      dup1\n      swap3\n      swap2\n      swap1\n      dup2\n      dup2\n      mstore\n      0x20\n      add\n      dup3\n      dup1\n      sload\n      tag_100\n      swap1\n      tag_78\n      jump\t// in\n    tag_100:\n      dup1\n      iszero\n      tag_101\n      jumpi\n      dup1\n      0x1f\n      lt\n      tag_102\n      jumpi\n      0x0100\n      dup1\n      dup4\n      sload\n      div\n      mul\n      dup4\n      mstore\n      swap2\n      0x20\n      add\n      swap2\n      jump(tag_101)\n    tag_102:\n      dup3\n      add\n      swap2\n      swap1\n      0x00\n      mstore\n      keccak256(0x00, 0x20)\n      swap1\n    tag_103:\n      dup2\n      sload\n      dup2\n      mstore\n      swap1\n      0x01\n      add\n      swap1\n      0x20\n      add\n      dup1\n      dup4\n      gt\n      tag_103\n      jumpi\n      dup3\n      swap1\n      sub\n      0x1f\n      and\n      dup3\n      add\n      swap2\n    tag_101:\n      pop\n      pop\n      pop\n      pop\n      pop\n      dup2\n      mstore\n      0x20\n      add\n      0x01\n      dup3\n      add\n      dup1\n      sload\n      tag_104\n      swap1\n      tag_78\n      jump\t// in\n    tag_104:\n      dup1\n      0x1f\n      add\n      0x20\n      dup1\n      swap2\n      div\n      mul\n      0x20\n      add\n      mload(0x40)\n      swap1\n      dup2\n      add\n      0x40\n      mstore\n      dup1\n      swap3\n      swap2\n      swap1\n      dup2\n      dup2\n      mstore\n      0x20\n      add\n      dup3\n      dup1\n      sload\n      tag_105\n      swap1\n      tag_78\n      jump\t// in\n    tag_105:\n      dup1\n      iszero\n      tag_106\n      jumpi\n      dup1\n      0x1f\n      lt\n      tag_107\n      jumpi\n      0x0100\n      dup1\n      dup4\n      sload\n      div\n      mul\n      dup4\n      mstore\n      swap2\n      0x20\n      add\n      swap2\n      jump(tag_106)\n    tag_107:\n      dup3\n      add\n      swap2\n      swap1\n      0x00\n      mstore\n      keccak256(0x00, 0x20)\n      swap1\n    tag_108:\n      dup2\n      sload\n      dup2\n      mstore\n      swap1\n      0x01\n      add\n      swap1\n      0x20\n      add\n      dup1\n      dup4\n      gt\n      tag_108\n      jumpi\n      dup3\n      swap1\n      sub\n      0x1f\n      and\n      dup3\n      add\n      swap2\n    tag_106:\n      pop\n      pop\n      pop\n      pop\n      pop\n      dup2\n      mstore\n      0x20\n      add\n      0x02\n      dup3\n      add\n      dup1\n      sload\n      dup1\n      0x20\n      mul\n      0x20\n      add\n      mload(0x40)\n      swap1\n      dup2\n      add\n      0x40\n      mstore\n      dup1\n      swap3\n      swap2\n      swap1\n      dup2\n      dup2\n      mstore\n      0x20\n      add\n      0x00\n      swap1\n    tag_109:\n      dup3\n      dup3\n      lt\n      iszero\n      tag_110\n      jumpi\n      dup4\n      dup3\n      swap1\n      0x00\n      mstore\n      keccak256(0x00, 0x20)\n      add\n      dup1\n      sload\n      tag_112\n      swap1\n      tag_78\n      jump\t// in\n    tag_112:\n      dup1\n      0x1f\n      add\n      0x20\n      dup1\n      swap2\n      div\n      mul\n      0x20\n      add\n      mload(0x40)\n      swap1\n      dup2\n      add\n      0x40\n      mstore\n      dup1\n      swap3\n      swap2\n      swap1\n      dup2\n      dup2\n      mstore\n      0x20\n      add\n      dup3\n      dup1\n      sload\n      tag_113\n      swap1\n      tag_78\n      jump\t// in\n    tag_113:\n      dup1\n      iszero\n      tag_114\n      jumpi\n      dup1\n      0x1f\n      lt\n      tag_115\n      jumpi\n      0x0100\n      dup1\n      dup4\n      sload\n      div\n      mul\n      dup4\n      mstore\n      swap2\n      0x20\n      add\n      swap2\n      jump(tag_114)\n    tag_115:\n      dup3\n      add\n      swap2\n      swap1\n      0x00\n      mstore\n      keccak256(0x00, 0x20)\n      swap1\n    tag_116:\n      dup2\n      sload\n      dup2\n      mstore\n      swap1\n      0x01\n      add\n      swap1\n      0x20\n      add\n      dup1\n      dup4\n      gt\n      tag_116\n      jumpi\n      dup3\n      swap1\n      sub\n      0x1f\n      and\n      dup3\n      add\n      swap2\n    tag_114:\n      pop\n      pop\n      pop\n      pop\n      pop\n      dup2\n      mstore\n      0x20\n      add\n      swap1\n      0x01\n      add\n      swap1\n      jump(tag_109)\n    tag_110:\n      pop\n      pop\n      pop\n      pop\n      dup2\n      mstore\n      pop\n      pop\n      swap1\n      pop\n        /* \"Contracts/Lending.sol\":3241:3242  0 */\n      0x00\n        /* \"Contracts/Lending.sol\":3215:3222  oldUser */\n      dup2\n        /* \"Contracts/Lending.sol\":3215:3230  oldUser.wallets */\n      0x40\n      add\n      mload\n        /* \"Contracts/Lending.sol\":3215:3237  oldUser.wallets.length */\n      mload\n        /* \"Contracts/Lending.sol\":3215:3242  oldUser.wallets.length != 0 */\n      eq\n        /* \"Contracts/Lending.sol\":3211:3283  if (oldUser.wallets.length != 0) {... */\n      tag_117\n      jumpi\n        /* \"Contracts/Lending.sol\":3265:3272  oldUser */\n      dup1\n        /* \"Contracts/Lending.sol\":3258:3272  return oldUser */\n      swap2\n      pop\n      pop\n      jump(tag_97)\n        /* \"Contracts/Lending.sol\":3211:3283  if (oldUser.wallets.length != 0) {... */\n    tag_117:\n        /* \"Contracts/Lending.sol\":3358:3382  User('', '', _addresses) */\n      mload(0x40)\n      dup1\n      0x60\n      add\n      0x40\n      mstore\n      dup1\n      mload(0x40)\n      dup1\n      0x20\n      add\n      0x40\n      mstore\n      dup1\n      0x00\n      dup2\n      mstore\n      pop\n      dup2\n      mstore\n      0x20\n      add\n      mload(0x40)\n      dup1\n      0x20\n      add\n      0x40\n      mstore\n      dup1\n      0x00\n      dup2\n      mstore\n      pop\n      dup2\n      mstore\n      0x20\n      add\n        /* \"Contracts/Lending.sol\":3371:3381  _addresses */\n      dup5\n        /* \"Contracts/Lending.sol\":3358:3382  User('', '', _addresses) */\n      dup2\n      mstore\n      pop\n        /* \"Contracts/Lending.sol\":3340:3345  Users */\n      0x02\n        /* \"Contracts/Lending.sol\":3346:3354  username */\n      dup6\n        /* \"Contracts/Lending.sol\":3340:3355  Users[username] */\n      mload(0x40)\n      tag_118\n      swap2\n      swap1\n      tag_61\n      jump\t// in\n    tag_118:\n      swap1\n      dup2\n      mstore\n      0x20\n      add\n      mload(0x40)\n      dup1\n      swap2\n      sub\n      swap1\n      keccak256\n        /* \"Contracts/Lending.sol\":3340:3382  Users[username] = User('', '', _addresses) */\n      0x00\n      dup3\n      add\n      mload\n      dup2\n      0x00\n      add\n      swap1\n      dup2\n      tag_119\n      swap2\n      swap1\n      tag_63\n      jump\t// in\n    tag_119:\n      pop\n      0x20\n      dup3\n      add\n      mload\n      dup2\n      0x01\n      add\n      swap1\n      dup2\n      tag_120\n      swap2\n      swap1\n      tag_63\n      jump\t// in\n    tag_120:\n      pop\n      0x40\n      dup3\n      add\n      mload\n      dup2\n      0x02\n      add\n      swap1\n      dup1\n      mload\n      swap1\n      0x20\n      add\n      swap1\n      tag_121\n      swap3\n      swap2\n      swap1\n      tag_122\n      jump\t// in\n    tag_121:\n      pop\n      swap1\n      pop\n      pop\n        /* \"Contracts/Lending.sol\":3461:3502  assignWalletsToUser(_addresses, username) */\n      tag_123\n        /* \"Contracts/Lending.sol\":3481:3491  _addresses */\n      dup4\n        /* \"Contracts/Lending.sol\":3493:3501  username */\n      dup6\n        /* \"Contracts/Lending.sol\":3461:3480  assignWalletsToUser */\n      tag_35\n        /* \"Contracts/Lending.sol\":3461:3502  assignWalletsToUser(_addresses, username) */\n      jump\t// in\n    tag_123:\n        /* \"Contracts/Lending.sol\":3566:3571  Users */\n      0x02\n        /* \"Contracts/Lending.sol\":3572:3580  username */\n      dup5\n        /* \"Contracts/Lending.sol\":3566:3581  Users[username] */\n      mload(0x40)\n      tag_124\n      swap2\n      swap1\n      tag_61\n      jump\t// in\n    tag_124:\n      swap1\n      dup2\n      mstore\n      0x20\n      add\n      mload(0x40)\n      dup1\n      swap2\n      sub\n      swap1\n      keccak256\n        /* \"Contracts/Lending.sol\":3559:3581  return Users[username] */\n      mload(0x40)\n      dup1\n      0x60\n      add\n      0x40\n      mstore\n      swap1\n      dup2\n      0x00\n      dup3\n      add\n      dup1\n      sload\n      tag_125\n      swap1\n      tag_78\n      jump\t// in\n    tag_125:\n      dup1\n      0x1f\n      add\n      0x20\n      dup1\n      swap2\n      div\n      mul\n      0x20\n      add\n      mload(0x40)\n      swap1\n      dup2\n      add\n      0x40\n      mstore\n      dup1\n      swap3\n      swap2\n      swap1\n      dup2\n      dup2\n      mstore\n      0x20\n      add\n      dup3\n      dup1\n      sload\n      tag_126\n      swap1\n      tag_78\n      jump\t// in\n    tag_126:\n      dup1\n      iszero\n      tag_127\n      jumpi\n      dup1\n      0x1f\n      lt\n      tag_128\n      jumpi\n      0x0100\n      dup1\n      dup4\n      sload\n      div\n      mul\n      dup4\n      mstore\n      swap2\n      0x20\n      add\n      swap2\n      jump(tag_127)\n    tag_128:\n      dup3\n      add\n      swap2\n      swap1\n      0x00\n      mstore\n      keccak256(0x00, 0x20)\n      swap1\n    tag_129:\n      dup2\n      sload\n      dup2\n      mstore\n      swap1\n      0x01\n      add\n      swap1\n      0x20\n      add\n      dup1\n      dup4\n      gt\n      tag_129\n      jumpi\n      dup3\n      swap1\n      sub\n      0x1f\n      and\n      dup3\n      add\n      swap2\n    tag_127:\n      pop\n      pop\n      pop\n      pop\n      pop\n      dup2\n      mstore\n      0x20\n      add\n      0x01\n      dup3\n      add\n      dup1\n      sload\n      tag_130\n      swap1\n      tag_78\n      jump\t// in\n    tag_130:\n      dup1\n      0x1f\n      add\n      0x20\n      dup1\n      swap2\n      div\n      mul\n      0x20\n      add\n      mload(0x40)\n      swap1\n      dup2\n      add\n      0x40\n      mstore\n      dup1\n      swap3\n      swap2\n      swap1\n      dup2\n      dup2\n      mstore\n      0x20\n      add\n      dup3\n      dup1\n      sload\n      tag_131\n      swap1\n      tag_78\n      jump\t// in\n    tag_131:\n      dup1\n      iszero\n      tag_132\n      jumpi\n      dup1\n      0x1f\n      lt\n      tag_133\n      jumpi\n      0x0100\n      dup1\n      dup4\n      sload\n      div\n      mul\n      dup4\n      mstore\n      swap2\n      0x20\n      add\n      swap2\n      jump(tag_132)\n    tag_133:\n      dup3\n      add\n      swap2\n      swap1\n      0x00\n      mstore\n      keccak256(0x00, 0x20)\n      swap1\n    tag_134:\n      dup2\n      sload\n      dup2\n      mstore\n      swap1\n      0x01\n      add\n      swap1\n      0x20\n      add\n      dup1\n      dup4\n      gt\n      tag_134\n      jumpi\n      dup3\n      swap1\n      sub\n      0x1f\n      and\n      dup3\n      add\n      swap2\n    tag_132:\n      pop\n      pop\n      pop\n      pop\n      pop\n      dup2\n      mstore\n      0x20\n      add\n      0x02\n      dup3\n      add\n      dup1\n      sload\n      dup1\n      0x20\n      mul\n      0x20\n      add\n      mload(0x40)\n      swap1\n      dup2\n      add\n      0x40\n      mstore\n      dup1\n      swap3\n      swap2\n      swap1\n      dup2\n      dup2\n      mstore\n      0x20\n      add\n      0x00\n      swap1\n    tag_135:\n      dup3\n      dup3\n      lt\n      iszero\n      tag_136\n      jumpi\n      dup4\n      dup3\n      swap1\n      0x00\n      mstore\n      keccak256(0x00, 0x20)\n      add\n      dup1\n      sload\n      tag_138\n      swap1\n      tag_78\n      jump\t// in\n    tag_138:\n      dup1\n      0x1f\n      add\n      0x20\n      dup1\n      swap2\n      div\n      mul\n      0x20\n      add\n      mload(0x40)\n      swap1\n      dup2\n      add\n      0x40\n      mstore\n      dup1\n      swap3\n      swap2\n      swap1\n      dup2\n      dup2\n      mstore\n      0x20\n      add\n      dup3\n      dup1\n      sload\n      tag_139\n      swap1\n      tag_78\n      jump\t// in\n    tag_139:\n      dup1\n      iszero\n      tag_140\n      jumpi\n      dup1\n      0x1f\n      lt\n      tag_141\n      jumpi\n      0x0100\n      dup1\n      dup4\n      sload\n      div\n      mul\n      dup4\n      mstore\n      swap2\n      0x20\n      add\n      swap2\n      jump(tag_140)\n    tag_141:\n      dup3\n      add\n      swap2\n      swap1\n      0x00\n      mstore\n      keccak256(0x00, 0x20)\n      swap1\n    tag_142:\n      dup2\n      sload\n      dup2\n      mstore\n      swap1\n      0x01\n      add\n      swap1\n      0x20\n      add\n      dup1\n      dup4\n      gt\n      tag_142\n      jumpi\n      dup3\n      swap1\n      sub\n      0x1f\n      and\n      dup3\n      add\n      swap2\n    tag_140:\n      pop\n      pop\n      pop\n      pop\n      pop\n      dup2\n      mstore\n      0x20\n      add\n      swap1\n      0x01\n      add\n      swap1\n      jump(tag_135)\n    tag_136:\n      pop\n      pop\n      pop\n      pop\n      dup2\n      mstore\n      pop\n      pop\n      swap2\n      pop\n      pop\n        /* \"Contracts/Lending.sol\":3010:3588  function createUserAccount(string memory username, string[] memory _addresses) public returns (User memory) {... */\n    tag_97:\n      swap3\n      swap2\n      pop\n      pop\n      jump\t// out\n        /* \"Contracts/Lending.sol\":2203:2523  function assignWalletsToUser(string[] memory _addresses, string memory userId) public {... */\n    tag_35:\n        /* \"Contracts/Lending.sol\":2303:2309  uint i */\n      0x00\n        /* \"Contracts/Lending.sol\":2299:2517  for(uint i=0; i< _addresses.length; i++) {... */\n    tag_144:\n        /* \"Contracts/Lending.sol\":2316:2326  _addresses */\n      dup3\n        /* \"Contracts/Lending.sol\":2316:2333  _addresses.length */\n      mload\n        /* \"Contracts/Lending.sol\":2313:2314  i */\n      dup2\n        /* \"Contracts/Lending.sol\":2313:2333  i< _addresses.length */\n      lt\n        /* \"Contracts/Lending.sol\":2299:2517  for(uint i=0; i< _addresses.length; i++) {... */\n      iszero\n      tag_145\n      jumpi\n        /* \"Contracts/Lending.sol\":2354:2374  string memory wallet */\n      0x00\n        /* \"Contracts/Lending.sol\":2377:2387  _addresses */\n      dup4\n        /* \"Contracts/Lending.sol\":2388:2389  i */\n      dup3\n        /* \"Contracts/Lending.sol\":2377:2390  _addresses[i] */\n      dup2\n      mload\n      dup2\n      lt\n      tag_147\n      jumpi\n      tag_148\n      tag_149\n      jump\t// in\n    tag_148:\n    tag_147:\n      0x20\n      mul\n      0x20\n      add\n      add\n      mload\n        /* \"Contracts/Lending.sol\":2354:2390  string memory wallet = _addresses[i] */\n      swap1\n      pop\n        /* \"Contracts/Lending.sol\":2409:2444  doesKeyExist(wallet, 'userWallets') */\n      tag_150\n        /* \"Contracts/Lending.sol\":2422:2428  wallet */\n      dup2\n        /* \"Contracts/Lending.sol\":2409:2444  doesKeyExist(wallet, 'userWallets') */\n      mload(0x40)\n      dup1\n      0x40\n      add\n      0x40\n      mstore\n      dup1\n      0x0b\n      dup2\n      mstore\n      0x20\n      add\n      0x7573657257616c6c657473000000000000000000000000000000000000000000\n      dup2\n      mstore\n      pop\n        /* \"Contracts/Lending.sol\":2409:2421  doesKeyExist */\n      tag_51\n        /* \"Contracts/Lending.sol\":2409:2444  doesKeyExist(wallet, 'userWallets') */\n      jump\t// in\n    tag_150:\n        /* \"Contracts/Lending.sol\":2404:2507  if (!doesKeyExist(wallet, 'userWallets')) {... */\n      tag_151\n      jumpi\n        /* \"Contracts/Lending.sol\":2486:2492  userId */\n      dup3\n        /* \"Contracts/Lending.sol\":2464:2475  UserWallets */\n      0x05\n        /* \"Contracts/Lending.sol\":2476:2482  wallet */\n      dup3\n        /* \"Contracts/Lending.sol\":2464:2483  UserWallets[wallet] */\n      mload(0x40)\n      tag_152\n      swap2\n      swap1\n      tag_61\n      jump\t// in\n    tag_152:\n      swap1\n      dup2\n      mstore\n      0x20\n      add\n      mload(0x40)\n      dup1\n      swap2\n      sub\n      swap1\n      keccak256\n        /* \"Contracts/Lending.sol\":2464:2492  UserWallets[wallet] = userId */\n      swap1\n      dup2\n      tag_153\n      swap2\n      swap1\n      tag_63\n      jump\t// in\n    tag_153:\n      pop\n        /* \"Contracts/Lending.sol\":2404:2507  if (!doesKeyExist(wallet, 'userWallets')) {... */\n    tag_151:\n        /* \"Contracts/Lending.sol\":2340:2517  {... */\n      pop\n        /* \"Contracts/Lending.sol\":2335:2338  i++ */\n      dup1\n      dup1\n      tag_154\n      swap1\n      tag_155\n      jump\t// in\n    tag_154:\n      swap2\n      pop\n      pop\n        /* \"Contracts/Lending.sol\":2299:2517  for(uint i=0; i< _addresses.length; i++) {... */\n      jump(tag_144)\n    tag_145:\n      pop\n        /* \"Contracts/Lending.sol\":2203:2523  function assignWalletsToUser(string[] memory _addresses, string memory userId) public {... */\n      pop\n      pop\n      jump\t// out\n        /* \"Contracts/Lending.sol\":4069:4150  function getOwner() external view returns (address) {... */\n    tag_37:\n        /* \"Contracts/Lending.sol\":4112:4119  address */\n      0x00\n        /* \"Contracts/Lending.sol\":4138:4143  owner */\n      dup1\n      0x00\n      swap1\n      sload\n      swap1\n      0x0100\n      exp\n      swap1\n      div\n      0xffffffffffffffffffffffffffffffffffffffff\n      and\n        /* \"Contracts/Lending.sol\":4131:4143  return owner */\n      swap1\n      pop\n        /* \"Contracts/Lending.sol\":4069:4150  function getOwner() external view returns (address) {... */\n      swap1\n      jump\t// out\n        /* \"Contracts/Lending.sol\":1049:1445  function compareStrings(string memory a, string memory b) public pure returns (bool) {... */\n    tag_42:\n        /* \"Contracts/Lending.sol\":1128:1132  bool */\n      0x00\n        /* \"Contracts/Lending.sol\":1173:1174  b */\n      dup2\n        /* \"Contracts/Lending.sol\":1167:1182  bytes(b).length */\n      mload\n        /* \"Contracts/Lending.sol\":1154:1155  a */\n      dup4\n        /* \"Contracts/Lending.sol\":1148:1163  bytes(a).length */\n      mload\n        /* \"Contracts/Lending.sol\":1148:1182  bytes(a).length != bytes(b).length */\n      eq\n        /* \"Contracts/Lending.sol\":1144:1439  if (bytes(a).length != bytes(b).length) {... */\n      tag_158\n      jumpi\n        /* \"Contracts/Lending.sol\":1205:1210  false */\n      0x00\n        /* \"Contracts/Lending.sol\":1198:1210  return false */\n      swap1\n      pop\n      jump(tag_157)\n        /* \"Contracts/Lending.sol\":1144:1439  if (bytes(a).length != bytes(b).length) {... */\n    tag_158:\n        /* \"Contracts/Lending.sol\":1246:1255  uint256 i */\n      0x00\n        /* \"Contracts/Lending.sol\":1241:1404  for (uint256 i = 0; i < bytes(a).length; i++) {... */\n    tag_160:\n        /* \"Contracts/Lending.sol\":1271:1272  a */\n      dup4\n        /* \"Contracts/Lending.sol\":1265:1280  bytes(a).length */\n      mload\n        /* \"Contracts/Lending.sol\":1261:1262  i */\n      dup2\n        /* \"Contracts/Lending.sol\":1261:1280  i < bytes(a).length */\n      lt\n        /* \"Contracts/Lending.sol\":1241:1404  for (uint256 i = 0; i < bytes(a).length; i++) {... */\n      iszero\n      tag_161\n      jumpi\n        /* \"Contracts/Lending.sol\":1330:1331  b */\n      dup3\n        /* \"Contracts/Lending.sol\":1333:1334  i */\n      dup2\n        /* \"Contracts/Lending.sol\":1324:1335  bytes(b)[i] */\n      dup2\n      mload\n      dup2\n      lt\n      tag_163\n      jumpi\n      tag_164\n      tag_149\n      jump\t// in\n    tag_164:\n    tag_163:\n      0x20\n      add\n      add\n      mload\n      0xf8\n      shr\n      0xf8\n      shl\n        /* \"Contracts/Lending.sol\":1309:1335  bytes(a)[i] != bytes(b)[i] */\n      not(0xffffffffffffffffffffffffffffffffffffffffffffffffffffffffffffff)\n      and\n        /* \"Contracts/Lending.sol\":1315:1316  a */\n      dup5\n        /* \"Contracts/Lending.sol\":1318:1319  i */\n      dup3\n        /* \"Contracts/Lending.sol\":1309:1320  bytes(a)[i] */\n      dup2\n      mload\n      dup2\n      lt\n      tag_165\n      jumpi\n      tag_166\n      tag_149\n      jump\t// in\n    tag_166:\n    tag_165:\n      0x20\n      add\n      add\n      mload\n      0xf8\n      shr\n      0xf8\n      shl\n        /* \"Contracts/Lending.sol\":1309:1335  bytes(a)[i] != bytes(b)[i] */\n      not(0xffffffffffffffffffffffffffffffffffffffffffffffffffffffffffffff)\n      and\n      eq\n        /* \"Contracts/Lending.sol\":1305:1390  if (bytes(a)[i] != bytes(b)[i]) {... */\n      tag_167\n      jumpi\n        /* \"Contracts/Lending.sol\":1366:1371  false */\n      0x00\n        /* \"Contracts/Lending.sol\":1359:1371  return false */\n      swap2\n      pop\n      pop\n      jump(tag_157)\n        /* \"Contracts/Lending.sol\":1305:1390  if (bytes(a)[i] != bytes(b)[i]) {... */\n    tag_167:\n        /* \"Contracts/Lending.sol\":1282:1285  i++ */\n      dup1\n      dup1\n      tag_168\n      swap1\n      tag_155\n      jump\t// in\n    tag_168:\n      swap2\n      pop\n      pop\n        /* \"Contracts/Lending.sol\":1241:1404  for (uint256 i = 0; i < bytes(a).length; i++) {... */\n      jump(tag_160)\n    tag_161:\n      pop\n        /* \"Contracts/Lending.sol\":1424:1428  true */\n      0x01\n        /* \"Contracts/Lending.sol\":1417:1428  return true */\n      swap1\n      pop\n        /* \"Contracts/Lending.sol\":1049:1445  function compareStrings(string memory a, string memory b) public pure returns (bool) {... */\n    tag_157:\n      swap3\n      swap2\n      pop\n      pop\n      jump\t// out\n        /* \"Contracts/Lending.sol\":3715:3883  function getUserByLens(string memory lens) public view returns (User memory) {... */\n    tag_47:\n        /* \"Contracts/Lending.sol\":3779:3790  User memory */\n      tag_169\n      tag_74\n      jump\t// in\n    tag_169:\n        /* \"Contracts/Lending.sol\":3802:3822  string memory userId */\n      0x00\n        /* \"Contracts/Lending.sol\":3825:3840  UserLensHandles */\n      0x06\n        /* \"Contracts/Lending.sol\":3841:3845  lens */\n      dup4\n        /* \"Contracts/Lending.sol\":3825:3846  UserLensHandles[lens] */\n      mload(0x40)\n      tag_171\n      swap2\n      swap1\n      tag_61\n      jump\t// in\n    tag_171:\n      swap1\n      dup2\n      mstore\n      0x20\n      add\n      mload(0x40)\n      dup1\n      swap2\n      sub\n      swap1\n      keccak256\n        /* \"Contracts/Lending.sol\":3802:3846  string memory userId = UserLensHandles[lens] */\n      dup1\n      sload\n      tag_172\n      swap1\n      tag_78\n      jump\t// in\n    tag_172:\n      dup1\n      0x1f\n      add\n      0x20\n      dup1\n      swap2\n      div\n      mul\n      0x20\n      add\n      mload(0x40)\n      swap1\n      dup2\n      add\n      0x40\n      mstore\n      dup1\n      swap3\n      swap2\n      swap1\n      dup2\n      dup2\n      mstore\n      0x20\n      add\n      dup3\n      dup1\n      sload\n      tag_173\n      swap1\n      tag_78\n      jump\t// in\n    tag_173:\n      dup1\n      iszero\n      tag_174\n      jumpi\n      dup1\n      0x1f\n      lt\n      tag_175\n      jumpi\n      0x0100\n      dup1\n      dup4\n      sload\n      div\n      mul\n      dup4\n      mstore\n      swap2\n      0x20\n      add\n      swap2\n      jump(tag_174)\n    tag_175:\n      dup3\n      add\n      swap2\n      swap1\n      0x00\n      mstore\n      keccak256(0x00, 0x20)\n      swap1\n    tag_176:\n      dup2\n      sload\n      dup2\n      mstore\n      swap1\n      0x01\n      add\n      swap1\n      0x20\n      add\n      dup1\n      dup4\n      gt\n      tag_176\n      jumpi\n      dup3\n      swap1\n      sub\n      0x1f\n      and\n      dup3\n      add\n      swap2\n    tag_174:\n      pop\n      pop\n      pop\n      pop\n      pop\n      swap1\n      pop\n        /* \"Contracts/Lending.sol\":3863:3868  Users */\n      0x02\n        /* \"Contracts/Lending.sol\":3869:3875  userId */\n      dup2\n        /* \"Contracts/Lending.sol\":3863:3876  Users[userId] */\n      mload(0x40)\n      tag_177\n      swap2\n      swap1\n      tag_61\n      jump\t// in\n    tag_177:\n      swap1\n      dup2\n      mstore\n      0x20\n      add\n      mload(0x40)\n      dup1\n      swap2\n      sub\n      swap1\n      keccak256\n        /* \"Contracts/Lending.sol\":3856:3876  return Users[userId] */\n      mload(0x40)\n      dup1\n      0x60\n      add\n      0x40\n      mstore\n      swap1\n      dup2\n      0x00\n      dup3\n      add\n      dup1\n      sload\n      tag_178\n      swap1\n      tag_78\n      jump\t// in\n    tag_178:\n      dup1\n      0x1f\n      add\n      0x20\n      dup1\n      swap2\n      div\n      mul\n      0x20\n      add\n      mload(0x40)\n      swap1\n      dup2\n      add\n      0x40\n      mstore\n      dup1\n      swap3\n      swap2\n      swap1\n      dup2\n      dup2\n      mstore\n      0x20\n      add\n      dup3\n      dup1\n      sload\n      tag_179\n      swap1\n      tag_78\n      jump\t// in\n    tag_179:\n      dup1\n      iszero\n      tag_180\n      jumpi\n      dup1\n      0x1f\n      lt\n      tag_181\n      jumpi\n      0x0100\n      dup1\n      dup4\n      sload\n      div\n      mul\n      dup4\n      mstore\n      swap2\n      0x20\n      add\n      swap2\n      jump(tag_180)\n    tag_181:\n      dup3\n      add\n      swap2\n      swap1\n      0x00\n      mstore\n      keccak256(0x00, 0x20)\n      swap1\n    tag_182:\n      dup2\n      sload\n      dup2\n      mstore\n      swap1\n      0x01\n      add\n      swap1\n      0x20\n      add\n      dup1\n      dup4\n      gt\n      tag_182\n      jumpi\n      dup3\n      swap1\n      sub\n      0x1f\n      and\n      dup3\n      add\n      swap2\n    tag_180:\n      pop\n      pop\n      pop\n      pop\n      pop\n      dup2\n      mstore\n      0x20\n      add\n      0x01\n      dup3\n      add\n      dup1\n      sload\n      tag_183\n      swap1\n      tag_78\n      jump\t// in\n    tag_183:\n      dup1\n      0x1f\n      add\n      0x20\n      dup1\n      swap2\n      div\n      mul\n      0x20\n      add\n      mload(0x40)\n      swap1\n      dup2\n      add\n      0x40\n      mstore\n      dup1\n      swap3\n      swap2\n      swap1\n      dup2\n      dup2\n      mstore\n      0x20\n      add\n      dup3\n      dup1\n      sload\n      tag_184\n      swap1\n      tag_78\n      jump\t// in\n    tag_184:\n      dup1\n      iszero\n      tag_185\n      jumpi\n      dup1\n      0x1f\n      lt\n      tag_186\n      jumpi\n      0x0100\n      dup1\n      dup4\n      sload\n      div\n      mul\n      dup4\n      mstore\n      swap2\n      0x20\n      add\n      swap2\n      jump(tag_185)\n    tag_186:\n      dup3\n      add\n      swap2\n      swap1\n      0x00\n      mstore\n      keccak256(0x00, 0x20)\n      swap1\n    tag_187:\n      dup2\n      sload\n      dup2\n      mstore\n      swap1\n      0x01\n      add\n      swap1\n      0x20\n      add\n      dup1\n      dup4\n      gt\n      tag_187\n      jumpi\n      dup3\n      swap1\n      sub\n      0x1f\n      and\n      dup3\n      add\n      swap2\n    tag_185:\n      pop\n      pop\n      pop\n      pop\n      pop\n      dup2\n      mstore\n      0x20\n      add\n      0x02\n      dup3\n      add\n      dup1\n      sload\n      dup1\n      0x20\n      mul\n      0x20\n      add\n      mload(0x40)\n      swap1\n      dup2\n      add\n      0x40\n      mstore\n      dup1\n      swap3\n      swap2\n      swap1\n      dup2\n      dup2\n      mstore\n      0x20\n      add\n      0x00\n      swap1\n    tag_188:\n      dup3\n      dup3\n      lt\n      iszero\n      tag_189\n      jumpi\n      dup4\n      dup3\n      swap1\n      0x00\n      mstore\n      keccak256(0x00, 0x20)\n      add\n      dup1\n      sload\n      tag_191\n      swap1\n      tag_78\n      jump\t// in\n    tag_191:\n      dup1\n      0x1f\n      add\n      0x20\n      dup1\n      swap2\n      div\n      mul\n      0x20\n      add\n      mload(0x40)\n      swap1\n      dup2\n      add\n      0x40\n      mstore\n      dup1\n      swap3\n      swap2\n      swap1\n      dup2\n      dup2\n      mstore\n      0x20\n      add\n      dup3\n      dup1\n      sload\n      tag_192\n      swap1\n      tag_78\n      jump\t// in\n    tag_192:\n      dup1\n      iszero\n      tag_193\n      jumpi\n      dup1\n      0x1f\n      lt\n      tag_194\n      jumpi\n      0x0100\n      dup1\n      dup4\n      sload\n      div\n      mul\n      dup4\n      mstore\n      swap2\n      0x20\n      add\n      swap2\n      jump(tag_193)\n    tag_194:\n      dup3\n      add\n      swap2\n      swap1\n      0x00\n      mstore\n      keccak256(0x00, 0x20)\n      swap1\n    tag_195:\n      dup2\n      sload\n      dup2\n      mstore\n      swap1\n      0x01\n      add\n      swap1\n      0x20\n      add\n      dup1\n      dup4\n      gt\n      tag_195\n      jumpi\n      dup3\n      swap1\n      sub\n      0x1f\n      and\n      dup3\n      add\n      swap2\n    tag_193:\n      pop\n      pop\n      pop\n      pop\n      pop\n      dup2\n      mstore\n      0x20\n      add\n      swap1\n      0x01\n      add\n      swap1\n      jump(tag_188)\n    tag_189:\n      pop\n      pop\n      pop\n      pop\n      dup2\n      mstore\n      pop\n      pop\n      swap2\n      pop\n      pop\n        /* \"Contracts/Lending.sol\":3715:3883  function getUserByLens(string memory lens) public view returns (User memory) {... */\n      swap2\n      swap1\n      pop\n      jump\t// out\n        /* \"Contracts/Lending.sol\":1507:2133  function doesKeyExist(string memory key, string memory variable) public view returns (bool) {... */\n    tag_51:\n        /* \"Contracts/Lending.sol\":1593:1597  bool */\n      0x00\n        /* \"Contracts/Lending.sol\":1614:1653  compareStrings(variable, 'userWallets') */\n      tag_197\n        /* \"Contracts/Lending.sol\":1629:1637  variable */\n      dup3\n        /* \"Contracts/Lending.sol\":1614:1653  compareStrings(variable, 'userWallets') */\n      mload(0x40)\n      dup1\n      0x40\n      add\n      0x40\n      mstore\n      dup1\n      0x0b\n      dup2\n      mstore\n      0x20\n      add\n      0x7573657257616c6c657473000000000000000000000000000000000000000000\n      dup2\n      mstore\n      pop\n        /* \"Contracts/Lending.sol\":1614:1628  compareStrings */\n      tag_42\n        /* \"Contracts/Lending.sol\":1614:1653  compareStrings(variable, 'userWallets') */\n      jump\t// in\n    tag_197:\n        /* \"Contracts/Lending.sol\":1610:1767  if (compareStrings(variable, 'userWallets')) {... */\n      iszero\n      tag_198\n      jumpi\n        /* \"Contracts/Lending.sol\":1735:1755  abi.encodePacked(\"\") */\n      add(0x20, mload(0x40))\n      tag_199\n      swap1\n      tag_200\n      jump\t// in\n    tag_199:\n      mload(0x40)\n      0x20\n      dup2\n      dup4\n      sub\n      sub\n      dup2\n      mstore\n      swap1\n      0x40\n      mstore\n        /* \"Contracts/Lending.sol\":1725:1756  keccak256(abi.encodePacked(\"\")) */\n      dup1\n      mload\n      swap1\n      0x20\n      add\n      keccak256\n        /* \"Contracts/Lending.sol\":1703:1714  UserWallets */\n      0x05\n        /* \"Contracts/Lending.sol\":1715:1718  key */\n      dup5\n        /* \"Contracts/Lending.sol\":1703:1719  UserWallets[key] */\n      mload(0x40)\n      tag_201\n      swap2\n      swap1\n      tag_61\n      jump\t// in\n    tag_201:\n      swap1\n      dup2\n      mstore\n      0x20\n      add\n      mload(0x40)\n      dup1\n      swap2\n      sub\n      swap1\n      keccak256\n        /* \"Contracts/Lending.sol\":1686:1720  abi.encodePacked(UserWallets[key]) */\n      add(0x20, mload(0x40))\n      tag_202\n      swap2\n      swap1\n      tag_203\n      jump\t// in\n    tag_202:\n      mload(0x40)\n      0x20\n      dup2\n      dup4\n      sub\n      sub\n      dup2\n      mstore\n      swap1\n      0x40\n      mstore\n        /* \"Contracts/Lending.sol\":1676:1721  keccak256(abi.encodePacked(UserWallets[key])) */\n      dup1\n      mload\n      swap1\n      0x20\n      add\n      keccak256\n        /* \"Contracts/Lending.sol\":1676:1756  keccak256(abi.encodePacked(UserWallets[key])) != keccak256(abi.encodePacked(\"\")) */\n      eq\n      iszero\n        /* \"Contracts/Lending.sol\":1669:1756  return keccak256(abi.encodePacked(UserWallets[key])) != keccak256(abi.encodePacked(\"\")) */\n      swap1\n      pop\n      jump(tag_196)\n        /* \"Contracts/Lending.sol\":1610:1767  if (compareStrings(variable, 'userWallets')) {... */\n    tag_198:\n        /* \"Contracts/Lending.sol\":1781:1817  compareStrings(variable, 'userLens') */\n      tag_204\n        /* \"Contracts/Lending.sol\":1796:1804  variable */\n      dup3\n        /* \"Contracts/Lending.sol\":1781:1817  compareStrings(variable, 'userLens') */\n      mload(0x40)\n      dup1\n      0x40\n      add\n      0x40\n      mstore\n      dup1\n      0x08\n      dup2\n      mstore\n      0x20\n      add\n      0x757365724c656e73000000000000000000000000000000000000000000000000\n      dup2\n      mstore\n      pop\n        /* \"Contracts/Lending.sol\":1781:1795  compareStrings */\n      tag_42\n        /* \"Contracts/Lending.sol\":1781:1817  compareStrings(variable, 'userLens') */\n      jump\t// in\n    tag_204:\n        /* \"Contracts/Lending.sol\":1777:1935  if (compareStrings(variable, 'userLens')) {... */\n      iszero\n      tag_205\n      jumpi\n        /* \"Contracts/Lending.sol\":1903:1923  abi.encodePacked(\"\") */\n      add(0x20, mload(0x40))\n      tag_206\n      swap1\n      tag_200\n      jump\t// in\n    tag_206:\n      mload(0x40)\n      0x20\n      dup2\n      dup4\n      sub\n      sub\n      dup2\n      mstore\n      swap1\n      0x40\n      mstore\n        /* \"Contracts/Lending.sol\":1893:1924  keccak256(abi.encodePacked(\"\")) */\n      dup1\n      mload\n      swap1\n      0x20\n      add\n      keccak256\n        /* \"Contracts/Lending.sol\":1867:1882  UserLensHandles */\n      0x06\n        /* \"Contracts/Lending.sol\":1883:1886  key */\n      dup5\n        /* \"Contracts/Lending.sol\":1867:1887  UserLensHandles[key] */\n      mload(0x40)\n      tag_207\n      swap2\n      swap1\n      tag_61\n      jump\t// in\n    tag_207:\n      swap1\n      dup2\n      mstore\n      0x20\n      add\n      mload(0x40)\n      dup1\n      swap2\n      sub\n      swap1\n      keccak256\n        /* \"Contracts/Lending.sol\":1850:1888  abi.encodePacked(UserLensHandles[key]) */\n      add(0x20, mload(0x40))\n      tag_208\n      swap2\n      swap1\n      tag_203\n      jump\t// in\n    tag_208:\n      mload(0x40)\n      0x20\n      dup2\n      dup4\n      sub\n      sub\n      dup2\n      mstore\n      swap1\n      0x40\n      mstore\n        /* \"Contracts/Lending.sol\":1840:1889  keccak256(abi.encodePacked(UserLensHandles[key])) */\n      dup1\n      mload\n      swap1\n      0x20\n      add\n      keccak256\n        /* \"Contracts/Lending.sol\":1840:1924  keccak256(abi.encodePacked(UserLensHandles[key])) != keccak256(abi.encodePacked(\"\")) */\n      eq\n      iszero\n        /* \"Contracts/Lending.sol\":1833:1924  return keccak256(abi.encodePacked(UserLensHandles[key])) != keccak256(abi.encodePacked(\"\")) */\n      swap1\n      pop\n      jump(tag_196)\n        /* \"Contracts/Lending.sol\":1777:1935  if (compareStrings(variable, 'userLens')) {... */\n    tag_205:\n        /* \"Contracts/Lending.sol\":1949:1985  compareStrings(variable, 'userWCID') */\n      tag_209\n        /* \"Contracts/Lending.sol\":1964:1972  variable */\n      dup3\n        /* \"Contracts/Lending.sol\":1949:1985  compareStrings(variable, 'userWCID') */\n      mload(0x40)\n      dup1\n      0x40\n      add\n      0x40\n      mstore\n      dup1\n      0x08\n      dup2\n      mstore\n      0x20\n      add\n      0x7573657257434944000000000000000000000000000000000000000000000000\n      dup2\n      mstore\n      pop\n        /* \"Contracts/Lending.sol\":1949:1963  compareStrings */\n      tag_42\n        /* \"Contracts/Lending.sol\":1949:1985  compareStrings(variable, 'userWCID') */\n      jump\t// in\n    tag_209:\n        /* \"Contracts/Lending.sol\":1945:2104  if (compareStrings(variable, 'userWCID')) {... */\n      iszero\n      tag_210\n      jumpi\n        /* \"Contracts/Lending.sol\":2072:2092  abi.encodePacked(\"\") */\n      add(0x20, mload(0x40))\n      tag_211\n      swap1\n      tag_200\n      jump\t// in\n    tag_211:\n      mload(0x40)\n      0x20\n      dup2\n      dup4\n      sub\n      sub\n      dup2\n      mstore\n      swap1\n      0x40\n      mstore\n        /* \"Contracts/Lending.sol\":2062:2093  keccak256(abi.encodePacked(\"\")) */\n      dup1\n      mload\n      swap1\n      0x20\n      add\n      keccak256\n        /* \"Contracts/Lending.sol\":2035:2051  UserWorldCoinIds */\n      0x04\n        /* \"Contracts/Lending.sol\":2052:2055  key */\n      dup5\n        /* \"Contracts/Lending.sol\":2035:2056  UserWorldCoinIds[key] */\n      mload(0x40)\n      tag_212\n      swap2\n      swap1\n      tag_61\n      jump\t// in\n    tag_212:\n      swap1\n      dup2\n      mstore\n      0x20\n      add\n      mload(0x40)\n      dup1\n      swap2\n      sub\n      swap1\n      keccak256\n        /* \"Contracts/Lending.sol\":2018:2057  abi.encodePacked(UserWorldCoinIds[key]) */\n      add(0x20, mload(0x40))\n      tag_213\n      swap2\n      swap1\n      tag_203\n      jump\t// in\n    tag_213:\n      mload(0x40)\n      0x20\n      dup2\n      dup4\n      sub\n      sub\n      dup2\n      mstore\n      swap1\n      0x40\n      mstore\n        /* \"Contracts/Lending.sol\":2008:2058  keccak256(abi.encodePacked(UserWorldCoinIds[key])) */\n      dup1\n      mload\n      swap1\n      0x20\n      add\n      keccak256\n        /* \"Contracts/Lending.sol\":2008:2093  keccak256(abi.encodePacked(UserWorldCoinIds[key])) != keccak256(abi.encodePacked(\"\")) */\n      eq\n      iszero\n        /* \"Contracts/Lending.sol\":2001:2093  return keccak256(abi.encodePacked(UserWorldCoinIds[key])) != keccak256(abi.encodePacked(\"\")) */\n      swap1\n      pop\n      jump(tag_196)\n        /* \"Contracts/Lending.sol\":1945:2104  if (compareStrings(variable, 'userWCID')) {... */\n    tag_210:\n        /* \"Contracts/Lending.sol\":2121:2126  false */\n      0x00\n        /* \"Contracts/Lending.sol\":2114:2126  return false */\n      swap1\n      pop\n        /* \"Contracts/Lending.sol\":1507:2133  function doesKeyExist(string memory key, string memory variable) public view returns (bool) {... */\n    tag_196:\n      swap3\n      swap2\n      pop\n      pop\n      jump\t// out\n        /* \"Contracts/Lending.sol\":3889:4063  function getUserByWorldCoin(string memory WCID) public view returns (User memory) {... */\n    tag_55:\n        /* \"Contracts/Lending.sol\":3958:3969  User memory */\n      tag_214\n      tag_74\n      jump\t// in\n    tag_214:\n        /* \"Contracts/Lending.sol\":3981:4001  string memory userId */\n      0x00\n        /* \"Contracts/Lending.sol\":4004:4020  UserWorldCoinIds */\n      0x04\n        /* \"Contracts/Lending.sol\":4021:4025  WCID */\n      dup4\n        /* \"Contracts/Lending.sol\":4004:4026  UserWorldCoinIds[WCID] */\n      mload(0x40)\n      tag_216\n      swap2\n      swap1\n      tag_61\n      jump\t// in\n    tag_216:\n      swap1\n      dup2\n      mstore\n      0x20\n      add\n      mload(0x40)\n      dup1\n      swap2\n      sub\n      swap1\n      keccak256\n        /* \"Contracts/Lending.sol\":3981:4026  string memory userId = UserWorldCoinIds[WCID] */\n      dup1\n      sload\n      tag_217\n      swap1\n      tag_78\n      jump\t// in\n    tag_217:\n      dup1\n      0x1f\n      add\n      0x20\n      dup1\n      swap2\n      div\n      mul\n      0x20\n      add\n      mload(0x40)\n      swap1\n      dup2\n      add\n      0x40\n      mstore\n      dup1\n      swap3\n      swap2\n      swap1\n      dup2\n      dup2\n      mstore\n      0x20\n      add\n      dup3\n      dup1\n      sload\n      tag_218\n      swap1\n      tag_78\n      jump\t// in\n    tag_218:\n      dup1\n      iszero\n      tag_219\n      jumpi\n      dup1\n      0x1f\n      lt\n      tag_220\n      jumpi\n      0x0100\n      dup1\n      dup4\n      sload\n      div\n      mul\n      dup4\n      mstore\n      swap2\n      0x20\n      add\n      swap2\n      jump(tag_219)\n    tag_220:\n      dup3\n      add\n      swap2\n      swap1\n      0x00\n      mstore\n      keccak256(0x00, 0x20)\n      swap1\n    tag_221:\n      dup2\n      sload\n      dup2\n      mstore\n      swap1\n      0x01\n      add\n      swap1\n      0x20\n      add\n      dup1\n      dup4\n      gt\n      tag_221\n      jumpi\n      dup3\n      swap1\n      sub\n      0x1f\n      and\n      dup3\n      add\n      swap2\n    tag_219:\n      pop\n      pop\n      pop\n      pop\n      pop\n      swap1\n      pop\n        /* \"Contracts/Lending.sol\":4043:4048  Users */\n      0x02\n        /* \"Contracts/Lending.sol\":4049:4055  userId */\n      dup2\n        /* \"Contracts/Lending.sol\":4043:4056  Users[userId] */\n      mload(0x40)\n      tag_222\n      swap2\n      swap1\n      tag_61\n      jump\t// in\n    tag_222:\n      swap1\n      dup2\n      mstore\n      0x20\n      add\n      mload(0x40)\n      dup1\n      swap2\n      sub\n      swap1\n      keccak256\n        /* \"Contracts/Lending.sol\":4036:4056  return Users[userId] */\n      mload(0x40)\n      dup1\n      0x60\n      add\n      0x40\n      mstore\n      swap1\n      dup2\n      0x00\n      dup3\n      add\n      dup1\n      sload\n      tag_223\n      swap1\n      tag_78\n      jump\t// in\n    tag_223:\n      dup1\n      0x1f\n      add\n      0x20\n      dup1\n      swap2\n      div\n      mul\n      0x20\n      add\n      mload(0x40)\n      swap1\n      dup2\n      add\n      0x40\n      mstore\n      dup1\n      swap3\n      swap2\n      swap1\n      dup2\n      dup2\n      mstore\n      0x20\n      add\n      dup3\n      dup1\n      sload\n      tag_224\n      swap1\n      tag_78\n      jump\t// in\n    tag_224:\n      dup1\n      iszero\n      tag_225\n      jumpi\n      dup1\n      0x1f\n      lt\n      tag_226\n      jumpi\n      0x0100\n      dup1\n      dup4\n      sload\n      div\n      mul\n      dup4\n      mstore\n      swap2\n      0x20\n      add\n      swap2\n      jump(tag_225)\n    tag_226:\n      dup3\n      add\n      swap2\n      swap1\n      0x00\n      mstore\n      keccak256(0x00, 0x20)\n      swap1\n    tag_227:\n      dup2\n      sload\n      dup2\n      mstore\n      swap1\n      0x01\n      add\n      swap1\n      0x20\n      add\n      dup1\n      dup4\n      gt\n      tag_227\n      jumpi\n      dup3\n      swap1\n      sub\n      0x1f\n      and\n      dup3\n      add\n      swap2\n    tag_225:\n      pop\n      pop\n      pop\n      pop\n      pop\n      dup2\n      mstore\n      0x20\n      add\n      0x01\n      dup3\n      add\n      dup1\n      sload\n      tag_228\n      swap1\n      tag_78\n      jump\t// in\n    tag_228:\n      dup1\n      0x1f\n      add\n      0x20\n      dup1\n      swap2\n      div\n      mul\n      0x20\n      add\n      mload(0x40)\n      swap1\n      dup2\n      add\n      0x40\n      mstore\n      dup1\n      swap3\n      swap2\n      swap1\n      dup2\n      dup2\n      mstore\n      0x20\n      add\n      dup3\n      dup1\n      sload\n      tag_229\n      swap1\n      tag_78\n      jump\t// in\n    tag_229:\n      dup1\n      iszero\n      tag_230\n      jumpi\n      dup1\n      0x1f\n      lt\n      tag_231\n      jumpi\n      0x0100\n      dup1\n      dup4\n      sload\n      div\n      mul\n      dup4\n      mstore\n      swap2\n      0x20\n      add\n      swap2\n      jump(tag_230)\n    tag_231:\n      dup3\n      add\n      swap2\n      swap1\n      0x00\n      mstore\n      keccak256(0x00, 0x20)\n      swap1\n    tag_232:\n      dup2\n      sload\n      dup2\n      mstore\n      swap1\n      0x01\n      add\n      swap1\n      0x20\n      add\n      dup1\n      dup4\n      gt\n      tag_232\n      jumpi\n      dup3\n      swap1\n      sub\n      0x1f\n      and\n      dup3\n      add\n      swap2\n    tag_230:\n      pop\n      pop\n      pop\n      pop\n      pop\n      dup2\n      mstore\n      0x20\n      add\n      0x02\n      dup3\n      add\n      dup1\n      sload\n      dup1\n      0x20\n      mul\n      0x20\n      add\n      mload(0x40)\n      swap1\n      dup2\n      add\n      0x40\n      mstore\n      dup1\n      swap3\n      swap2\n      swap1\n      dup2\n      dup2\n      mstore\n      0x20\n      add\n      0x00\n      swap1\n    tag_233:\n      dup3\n      dup3\n      lt\n      iszero\n      tag_234\n      jumpi\n      dup4\n      dup3\n      swap1\n      0x00\n      mstore\n      keccak256(0x00, 0x20)\n      add\n      dup1\n      sload\n      tag_236\n      swap1\n      tag_78\n      jump\t// in\n    tag_236:\n      dup1\n      0x1f\n      add\n      0x20\n      dup1\n      swap2\n      div\n      mul\n      0x20\n      add\n      mload(0x40)\n      swap1\n      dup2\n      add\n      0x40\n      mstore\n      dup1\n      swap3\n      swap2\n      swap1\n      dup2\n      dup2\n      mstore\n      0x20\n      add\n      dup3\n      dup1\n      sload\n      tag_237\n      swap1\n      tag_78\n      jump\t// in\n    tag_237:\n      dup1\n      iszero\n      tag_238\n      jumpi\n      dup1\n      0x1f\n      lt\n      tag_239\n      jumpi\n      0x0100\n      dup1\n      dup4\n      sload\n      div\n      mul\n      dup4\n      mstore\n      swap2\n      0x20\n      add\n      swap2\n      jump(tag_238)\n    tag_239:\n      dup3\n      add\n      swap2\n      swap1\n      0x00\n      mstore\n      keccak256(0x00, 0x20)\n      swap1\n    tag_240:\n      dup2\n      sload\n      dup2\n      mstore\n      swap1\n      0x01\n      add\n      swap1\n      0x20\n      add\n      dup1\n      dup4\n      gt\n      tag_240\n      jumpi\n      dup3\n      swap1\n      sub\n      0x1f\n      and\n      dup3\n      add\n      swap2\n    tag_238:\n      pop\n      pop\n      pop\n      pop\n      pop\n      dup2\n      mstore\n      0x20\n      add\n      swap1\n      0x01\n      add\n      swap1\n      jump(tag_233)\n    tag_234:\n      pop\n      pop\n      pop\n      pop\n      dup2\n      mstore\n      pop\n      pop\n      swap2\n      pop\n      pop\n        /* \"Contracts/Lending.sol\":3889:4063  function getUserByWorldCoin(string memory WCID) public view returns (User memory) {... */\n      swap2\n      swap1\n      pop\n      jump\t// out\n    tag_74:\n      mload(0x40)\n      dup1\n      0x60\n      add\n      0x40\n      mstore\n      dup1\n      0x60\n      dup2\n      mstore\n      0x20\n      add\n      0x60\n      dup2\n      mstore\n      0x20\n      add\n      0x60\n      dup2\n      mstore\n      pop\n      swap1\n      jump\t// out\n    tag_122:\n      dup3\n      dup1\n      sload\n      dup3\n      dup3\n      sstore\n      swap1\n      0x00\n      mstore\n      keccak256(0x00, 0x20)\n      swap1\n      dup2\n      add\n      swap3\n      dup3\n      iszero\n      tag_241\n      jumpi\n      swap2\n      0x20\n      mul\n      dup3\n      add\n    tag_242:\n      dup3\n      dup2\n      gt\n      iszero\n      tag_243\n      jumpi\n      dup3\n      mload\n      dup3\n      swap1\n      dup2\n      tag_244\n      swap2\n      swap1\n      tag_63\n      jump\t// in\n    tag_244:\n      pop\n      swap2\n      0x20\n      add\n      swap2\n      swap1\n      0x01\n      add\n      swap1\n      jump(tag_242)\n    tag_243:\n    tag_241:\n      pop\n      swap1\n      pop\n      tag_245\n      swap2\n      swap1\n      tag_246\n      jump\t// in\n    tag_245:\n      pop\n      swap1\n      jump\t// out\n    tag_246:\n    tag_247:\n      dup1\n      dup3\n      gt\n      iszero\n      tag_248\n      jumpi\n      0x00\n      dup2\n      dup2\n      tag_249\n      swap2\n      swap1\n      tag_250\n      jump\t// in\n    tag_249:\n      pop\n      0x01\n      add\n      jump(tag_247)\n    tag_248:\n      pop\n      swap1\n      jump\t// out\n    tag_250:\n      pop\n      dup1\n      sload\n      tag_251\n      swap1\n      tag_78\n      jump\t// in\n    tag_251:\n      0x00\n      dup3\n      sstore\n      dup1\n      0x1f\n      lt\n      tag_253\n      jumpi\n      pop\n      jump(tag_252)\n    tag_253:\n      0x1f\n      add\n      0x20\n      swap1\n      div\n      swap1\n      0x00\n      mstore\n      keccak256(0x00, 0x20)\n      swap1\n      dup2\n      add\n      swap1\n      tag_254\n      swap2\n      swap1\n      tag_255\n      jump\t// in\n    tag_254:\n    tag_252:\n      pop\n      jump\t// out\n    tag_255:\n    tag_256:\n      dup1\n      dup3\n      gt\n      iszero\n      tag_257\n      jumpi\n      0x00\n      dup2\n      0x00\n      swap1\n      sstore\n      pop\n      0x01\n      add\n      jump(tag_256)\n    tag_257:\n      pop\n      swap1\n      jump\t// out\n        /* \"#utility.yul\":7:82   */\n    tag_258:\n        /* \"#utility.yul\":40:46   */\n      0x00\n        /* \"#utility.yul\":73:75   */\n      0x40\n        /* \"#utility.yul\":67:76   */\n      mload\n        /* \"#utility.yul\":57:76   */\n      swap1\n      pop\n        /* \"#utility.yul\":7:82   */\n      swap1\n      jump\t// out\n        /* \"#utility.yul\":88:205   */\n    tag_259:\n        /* \"#utility.yul\":197:198   */\n      0x00\n        /* \"#utility.yul\":194:195   */\n      dup1\n        /* \"#utility.yul\":187:199   */\n      revert\n        /* \"#utility.yul\":211:328   */\n    tag_260:\n        /* \"#utility.yul\":320:321   */\n      0x00\n        /* \"#utility.yul\":317:318   */\n      dup1\n        /* \"#utility.yul\":310:322   */\n      revert\n        /* \"#utility.yul\":334:451   */\n    tag_261:\n        /* \"#utility.yul\":443:444   */\n      0x00\n        /* \"#utility.yul\":440:441   */\n      dup1\n        /* \"#utility.yul\":433:445   */\n      revert\n        /* \"#utility.yul\":457:574   */\n    tag_262:\n        /* \"#utility.yul\":566:567   */\n      0x00\n        /* \"#utility.yul\":563:564   */\n      dup1\n        /* \"#utility.yul\":556:568   */\n      revert\n        /* \"#utility.yul\":580:682   */\n    tag_263:\n        /* \"#utility.yul\":621:627   */\n      0x00\n        /* \"#utility.yul\":672:674   */\n      0x1f\n        /* \"#utility.yul\":668:675   */\n      not\n        /* \"#utility.yul\":663:665   */\n      0x1f\n        /* \"#utility.yul\":656:661   */\n      dup4\n        /* \"#utility.yul\":652:666   */\n      add\n        /* \"#utility.yul\":648:676   */\n      and\n        /* \"#utility.yul\":638:676   */\n      swap1\n      pop\n        /* \"#utility.yul\":580:682   */\n      swap2\n      swap1\n      pop\n      jump\t// out\n        /* \"#utility.yul\":688:868   */\n    tag_264:\n        /* \"#utility.yul\":736:813   */\n      0x4e487b7100000000000000000000000000000000000000000000000000000000\n        /* \"#utility.yul\":733:734   */\n      0x00\n        /* \"#utility.yul\":726:814   */\n      mstore\n        /* \"#utility.yul\":833:837   */\n      0x41\n        /* \"#utility.yul\":830:831   */\n      0x04\n        /* \"#utility.yul\":823:838   */\n      mstore\n        /* \"#utility.yul\":857:861   */\n      0x24\n        /* \"#utility.yul\":854:855   */\n      0x00\n        /* \"#utility.yul\":847:862   */\n      revert\n        /* \"#utility.yul\":874:1155   */\n    tag_265:\n        /* \"#utility.yul\":957:984   */\n      tag_323\n        /* \"#utility.yul\":979:983   */\n      dup3\n        /* \"#utility.yul\":957:984   */\n      tag_263\n      jump\t// in\n    tag_323:\n        /* \"#utility.yul\":949:955   */\n      dup2\n        /* \"#utility.yul\":945:985   */\n      add\n        /* \"#utility.yul\":1087:1093   */\n      dup2\n        /* \"#utility.yul\":1075:1085   */\n      dup2\n        /* \"#utility.yul\":1072:1094   */\n      lt\n        /* \"#utility.yul\":1051:1069   */\n      0xffffffffffffffff\n        /* \"#utility.yul\":1039:1049   */\n      dup3\n        /* \"#utility.yul\":1036:1070   */\n      gt\n        /* \"#utility.yul\":1033:1095   */\n      or\n        /* \"#utility.yul\":1030:1118   */\n      iszero\n      tag_324\n      jumpi\n        /* \"#utility.yul\":1098:1116   */\n      tag_325\n      tag_264\n      jump\t// in\n    tag_325:\n        /* \"#utility.yul\":1030:1118   */\n    tag_324:\n        /* \"#utility.yul\":1138:1148   */\n      dup1\n        /* \"#utility.yul\":1134:1136   */\n      0x40\n        /* \"#utility.yul\":1127:1149   */\n      mstore\n        /* \"#utility.yul\":917:1155   */\n      pop\n        /* \"#utility.yul\":874:1155   */\n      pop\n      pop\n      jump\t// out\n        /* \"#utility.yul\":1161:1290   */\n    tag_266:\n        /* \"#utility.yul\":1195:1201   */\n      0x00\n        /* \"#utility.yul\":1222:1242   */\n      tag_327\n      tag_258\n      jump\t// in\n    tag_327:\n        /* \"#utility.yul\":1212:1242   */\n      swap1\n      pop\n        /* \"#utility.yul\":1251:1284   */\n      tag_328\n        /* \"#utility.yul\":1279:1283   */\n      dup3\n        /* \"#utility.yul\":1271:1277   */\n      dup3\n        /* \"#utility.yul\":1251:1284   */\n      tag_265\n      jump\t// in\n    tag_328:\n        /* \"#utility.yul\":1161:1290   */\n      swap2\n      swap1\n      pop\n      jump\t// out\n        /* \"#utility.yul\":1296:1604   */\n    tag_267:\n        /* \"#utility.yul\":1358:1362   */\n      0x00\n        /* \"#utility.yul\":1448:1466   */\n      0xffffffffffffffff\n        /* \"#utility.yul\":1440:1446   */\n      dup3\n        /* \"#utility.yul\":1437:1467   */\n      gt\n        /* \"#utility.yul\":1434:1490   */\n      iszero\n      tag_330\n      jumpi\n        /* \"#utility.yul\":1470:1488   */\n      tag_331\n      tag_264\n      jump\t// in\n    tag_331:\n        /* \"#utility.yul\":1434:1490   */\n    tag_330:\n        /* \"#utility.yul\":1508:1537   */\n      tag_332\n        /* \"#utility.yul\":1530:1536   */\n      dup3\n        /* \"#utility.yul\":1508:1537   */\n      tag_263\n      jump\t// in\n    tag_332:\n        /* \"#utility.yul\":1500:1537   */\n      swap1\n      pop\n        /* \"#utility.yul\":1592:1596   */\n      0x20\n        /* \"#utility.yul\":1586:1590   */\n      dup2\n        /* \"#utility.yul\":1582:1597   */\n      add\n        /* \"#utility.yul\":1574:1597   */\n      swap1\n      pop\n        /* \"#utility.yul\":1296:1604   */\n      swap2\n      swap1\n      pop\n      jump\t// out\n        /* \"#utility.yul\":1610:1756   */\n    tag_268:\n        /* \"#utility.yul\":1707:1713   */\n      dup3\n        /* \"#utility.yul\":1702:1705   */\n      dup2\n        /* \"#utility.yul\":1697:1700   */\n      dup4\n        /* \"#utility.yul\":1684:1714   */\n      calldatacopy\n        /* \"#utility.yul\":1748:1749   */\n      0x00\n        /* \"#utility.yul\":1739:1745   */\n      dup4\n        /* \"#utility.yul\":1734:1737   */\n      dup4\n        /* \"#utility.yul\":1730:1746   */\n      add\n        /* \"#utility.yul\":1723:1750   */\n      mstore\n        /* \"#utility.yul\":1610:1756   */\n      pop\n      pop\n      pop\n      jump\t// out\n        /* \"#utility.yul\":1762:2187   */\n    tag_269:\n        /* \"#utility.yul\":1840:1845   */\n      0x00\n        /* \"#utility.yul\":1865:1931   */\n      tag_335\n        /* \"#utility.yul\":1881:1930   */\n      tag_336\n        /* \"#utility.yul\":1923:1929   */\n      dup5\n        /* \"#utility.yul\":1881:1930   */\n      tag_267\n      jump\t// in\n    tag_336:\n        /* \"#utility.yul\":1865:1931   */\n      tag_266\n      jump\t// in\n    tag_335:\n        /* \"#utility.yul\":1856:1931   */\n      swap1\n      pop\n        /* \"#utility.yul\":1954:1960   */\n      dup3\n        /* \"#utility.yul\":1947:1952   */\n      dup2\n        /* \"#utility.yul\":1940:1961   */\n      mstore\n        /* \"#utility.yul\":1992:1996   */\n      0x20\n        /* \"#utility.yul\":1985:1990   */\n      dup2\n        /* \"#utility.yul\":1981:1997   */\n      add\n        /* \"#utility.yul\":2030:2033   */\n      dup5\n        /* \"#utility.yul\":2021:2027   */\n      dup5\n        /* \"#utility.yul\":2016:2019   */\n      dup5\n        /* \"#utility.yul\":2012:2028   */\n      add\n        /* \"#utility.yul\":2009:2034   */\n      gt\n        /* \"#utility.yul\":2006:2118   */\n      iszero\n      tag_337\n      jumpi\n        /* \"#utility.yul\":2037:2116   */\n      tag_338\n      tag_262\n      jump\t// in\n    tag_338:\n        /* \"#utility.yul\":2006:2118   */\n    tag_337:\n        /* \"#utility.yul\":2127:2181   */\n      tag_339\n        /* \"#utility.yul\":2174:2180   */\n      dup5\n        /* \"#utility.yul\":2169:2172   */\n      dup3\n        /* \"#utility.yul\":2164:2167   */\n      dup6\n        /* \"#utility.yul\":2127:2181   */\n      tag_268\n      jump\t// in\n    tag_339:\n        /* \"#utility.yul\":1846:2187   */\n      pop\n        /* \"#utility.yul\":1762:2187   */\n      swap4\n      swap3\n      pop\n      pop\n      pop\n      jump\t// out\n        /* \"#utility.yul\":2207:2547   */\n    tag_270:\n        /* \"#utility.yul\":2263:2268   */\n      0x00\n        /* \"#utility.yul\":2312:2315   */\n      dup3\n        /* \"#utility.yul\":2305:2309   */\n      0x1f\n        /* \"#utility.yul\":2297:2303   */\n      dup4\n        /* \"#utility.yul\":2293:2310   */\n      add\n        /* \"#utility.yul\":2289:2316   */\n      slt\n        /* \"#utility.yul\":2279:2401   */\n      tag_341\n      jumpi\n        /* \"#utility.yul\":2320:2399   */\n      tag_342\n      tag_261\n      jump\t// in\n    tag_342:\n        /* \"#utility.yul\":2279:2401   */\n    tag_341:\n        /* \"#utility.yul\":2437:2443   */\n      dup2\n        /* \"#utility.yul\":2424:2444   */\n      calldataload\n        /* \"#utility.yul\":2462:2541   */\n      tag_343\n        /* \"#utility.yul\":2537:2540   */\n      dup5\n        /* \"#utility.yul\":2529:2535   */\n      dup3\n        /* \"#utility.yul\":2522:2526   */\n      0x20\n        /* \"#utility.yul\":2514:2520   */\n      dup7\n        /* \"#utility.yul\":2510:2527   */\n      add\n        /* \"#utility.yul\":2462:2541   */\n      tag_269\n      jump\t// in\n    tag_343:\n        /* \"#utility.yul\":2453:2541   */\n      swap2\n      pop\n        /* \"#utility.yul\":2269:2547   */\n      pop\n        /* \"#utility.yul\":2207:2547   */\n      swap3\n      swap2\n      pop\n      pop\n      jump\t// out\n        /* \"#utility.yul\":2553:3387   */\n    tag_16:\n        /* \"#utility.yul\":2641:2647   */\n      0x00\n        /* \"#utility.yul\":2649:2655   */\n      dup1\n        /* \"#utility.yul\":2698:2700   */\n      0x40\n        /* \"#utility.yul\":2686:2695   */\n      dup4\n        /* \"#utility.yul\":2677:2684   */\n      dup6\n        /* \"#utility.yul\":2673:2696   */\n      sub\n        /* \"#utility.yul\":2669:2701   */\n      slt\n        /* \"#utility.yul\":2666:2785   */\n      iszero\n      tag_345\n      jumpi\n        /* \"#utility.yul\":2704:2783   */\n      tag_346\n      tag_259\n      jump\t// in\n    tag_346:\n        /* \"#utility.yul\":2666:2785   */\n    tag_345:\n        /* \"#utility.yul\":2852:2853   */\n      0x00\n        /* \"#utility.yul\":2841:2850   */\n      dup4\n        /* \"#utility.yul\":2837:2854   */\n      add\n        /* \"#utility.yul\":2824:2855   */\n      calldataload\n        /* \"#utility.yul\":2882:2900   */\n      0xffffffffffffffff\n        /* \"#utility.yul\":2874:2880   */\n      dup2\n        /* \"#utility.yul\":2871:2901   */\n      gt\n        /* \"#utility.yul\":2868:2985   */\n      iszero\n      tag_347\n      jumpi\n        /* \"#utility.yul\":2904:2983   */\n      tag_348\n      tag_260\n      jump\t// in\n    tag_348:\n        /* \"#utility.yul\":2868:2985   */\n    tag_347:\n        /* \"#utility.yul\":3009:3072   */\n      tag_349\n        /* \"#utility.yul\":3064:3071   */\n      dup6\n        /* \"#utility.yul\":3055:3061   */\n      dup3\n        /* \"#utility.yul\":3044:3053   */\n      dup7\n        /* \"#utility.yul\":3040:3062   */\n      add\n        /* \"#utility.yul\":3009:3072   */\n      tag_270\n      jump\t// in\n    tag_349:\n        /* \"#utility.yul\":2999:3072   */\n      swap3\n      pop\n        /* \"#utility.yul\":2795:3082   */\n      pop\n        /* \"#utility.yul\":3149:3151   */\n      0x20\n        /* \"#utility.yul\":3138:3147   */\n      dup4\n        /* \"#utility.yul\":3134:3152   */\n      add\n        /* \"#utility.yul\":3121:3153   */\n      calldataload\n        /* \"#utility.yul\":3180:3198   */\n      0xffffffffffffffff\n        /* \"#utility.yul\":3172:3178   */\n      dup2\n        /* \"#utility.yul\":3169:3199   */\n      gt\n        /* \"#utility.yul\":3166:3283   */\n      iszero\n      tag_350\n      jumpi\n        /* \"#utility.yul\":3202:3281   */\n      tag_351\n      tag_260\n      jump\t// in\n    tag_351:\n        /* \"#utility.yul\":3166:3283   */\n    tag_350:\n        /* \"#utility.yul\":3307:3370   */\n      tag_352\n        /* \"#utility.yul\":3362:3369   */\n      dup6\n        /* \"#utility.yul\":3353:3359   */\n      dup3\n        /* \"#utility.yul\":3342:3351   */\n      dup7\n        /* \"#utility.yul\":3338:3360   */\n      add\n        /* \"#utility.yul\":3307:3370   */\n      tag_270\n      jump\t// in\n    tag_352:\n        /* \"#utility.yul\":3297:3370   */\n      swap2\n      pop\n        /* \"#utility.yul\":3092:3380   */\n      pop\n        /* \"#utility.yul\":2553:3387   */\n      swap3\n      pop\n      swap3\n      swap1\n      pop\n      jump\t// out\n        /* \"#utility.yul\":3393:3902   */\n    tag_23:\n        /* \"#utility.yul\":3462:3468   */\n      0x00\n        /* \"#utility.yul\":3511:3513   */\n      0x20\n        /* \"#utility.yul\":3499:3508   */\n      dup3\n        /* \"#utility.yul\":3490:3497   */\n      dup5\n        /* \"#utility.yul\":3486:3509   */\n      sub\n        /* \"#utility.yul\":3482:3514   */\n      slt\n        /* \"#utility.yul\":3479:3598   */\n      iszero\n      tag_354\n      jumpi\n        /* \"#utility.yul\":3517:3596   */\n      tag_355\n      tag_259\n      jump\t// in\n    tag_355:\n        /* \"#utility.yul\":3479:3598   */\n    tag_354:\n        /* \"#utility.yul\":3665:3666   */\n      0x00\n        /* \"#utility.yul\":3654:3663   */\n      dup3\n        /* \"#utility.yul\":3650:3667   */\n      add\n        /* \"#utility.yul\":3637:3668   */\n      calldataload\n        /* \"#utility.yul\":3695:3713   */\n      0xffffffffffffffff\n        /* \"#utility.yul\":3687:3693   */\n      dup2\n        /* \"#utility.yul\":3684:3714   */\n      gt\n        /* \"#utility.yul\":3681:3798   */\n      iszero\n      tag_356\n      jumpi\n        /* \"#utility.yul\":3717:3796   */\n      tag_357\n      tag_260\n      jump\t// in\n    tag_357:\n        /* \"#utility.yul\":3681:3798   */\n    tag_356:\n        /* \"#utility.yul\":3822:3885   */\n      tag_358\n        /* \"#utility.yul\":3877:3884   */\n      dup5\n        /* \"#utility.yul\":3868:3874   */\n      dup3\n        /* \"#utility.yul\":3857:3866   */\n      dup6\n        /* \"#utility.yul\":3853:3875   */\n      add\n        /* \"#utility.yul\":3822:3885   */\n      tag_270\n      jump\t// in\n    tag_358:\n        /* \"#utility.yul\":3812:3885   */\n      swap2\n      pop\n        /* \"#utility.yul\":3608:3895   */\n      pop\n        /* \"#utility.yul\":3393:3902   */\n      swap3\n      swap2\n      pop\n      pop\n      jump\t// out\n        /* \"#utility.yul\":3908:4007   */\n    tag_271:\n        /* \"#utility.yul\":3960:3966   */\n      0x00\n        /* \"#utility.yul\":3994:3999   */\n      dup2\n        /* \"#utility.yul\":3988:4000   */\n      mload\n        /* \"#utility.yul\":3978:4000   */\n      swap1\n      pop\n        /* \"#utility.yul\":3908:4007   */\n      swap2\n      swap1\n      pop\n      jump\t// out\n        /* \"#utility.yul\":4013:4172   */\n    tag_272:\n        /* \"#utility.yul\":4087:4098   */\n      0x00\n        /* \"#utility.yul\":4121:4127   */\n      dup3\n        /* \"#utility.yul\":4116:4119   */\n      dup3\n        /* \"#utility.yul\":4109:4128   */\n      mstore\n        /* \"#utility.yul\":4161:4165   */\n      0x20\n        /* \"#utility.yul\":4156:4159   */\n      dup3\n        /* \"#utility.yul\":4152:4166   */\n      add\n        /* \"#utility.yul\":4137:4166   */\n      swap1\n      pop\n        /* \"#utility.yul\":4013:4172   */\n      swap3\n      swap2\n      pop\n      pop\n      jump\t// out\n        /* \"#utility.yul\":4178:4424   */\n    tag_273:\n        /* \"#utility.yul\":4259:4260   */\n      0x00\n        /* \"#utility.yul\":4269:4382   */\n    tag_362:\n        /* \"#utility.yul\":4283:4289   */\n      dup4\n        /* \"#utility.yul\":4280:4281   */\n      dup2\n        /* \"#utility.yul\":4277:4290   */\n      lt\n        /* \"#utility.yul\":4269:4382   */\n      iszero\n      tag_364\n      jumpi\n        /* \"#utility.yul\":4368:4369   */\n      dup1\n        /* \"#utility.yul\":4363:4366   */\n      dup3\n        /* \"#utility.yul\":4359:4370   */\n      add\n        /* \"#utility.yul\":4353:4371   */\n      mload\n        /* \"#utility.yul\":4349:4350   */\n      dup2\n        /* \"#utility.yul\":4344:4347   */\n      dup5\n        /* \"#utility.yul\":4340:4351   */\n      add\n        /* \"#utility.yul\":4333:4372   */\n      mstore\n        /* \"#utility.yul\":4305:4307   */\n      0x20\n        /* \"#utility.yul\":4302:4303   */\n      dup2\n        /* \"#utility.yul\":4298:4308   */\n      add\n        /* \"#utility.yul\":4293:4308   */\n      swap1\n      pop\n        /* \"#utility.yul\":4269:4382   */\n      jump(tag_362)\n    tag_364:\n        /* \"#utility.yul\":4416:4417   */\n      0x00\n        /* \"#utility.yul\":4407:4413   */\n      dup5\n        /* \"#utility.yul\":4402:4405   */\n      dup5\n        /* \"#utility.yul\":4398:4414   */\n      add\n        /* \"#utility.yul\":4391:4418   */\n      mstore\n        /* \"#utility.yul\":4240:4424   */\n      pop\n        /* \"#utility.yul\":4178:4424   */\n      pop\n      pop\n      pop\n      jump\t// out\n        /* \"#utility.yul\":4430:4787   */\n    tag_274:\n        /* \"#utility.yul\":4508:4511   */\n      0x00\n        /* \"#utility.yul\":4536:4575   */\n      tag_366\n        /* \"#utility.yul\":4569:4574   */\n      dup3\n        /* \"#utility.yul\":4536:4575   */\n      tag_271\n      jump\t// in\n    tag_366:\n        /* \"#utility.yul\":4591:4652   */\n      tag_367\n        /* \"#utility.yul\":4645:4651   */\n      dup2\n        /* \"#utility.yul\":4640:4643   */\n      dup6\n        /* \"#utility.yul\":4591:4652   */\n      tag_272\n      jump\t// in\n    tag_367:\n        /* \"#utility.yul\":4584:4652   */\n      swap4\n      pop\n        /* \"#utility.yul\":4661:4726   */\n      tag_368\n        /* \"#utility.yul\":4719:4725   */\n      dup2\n        /* \"#utility.yul\":4714:4717   */\n      dup6\n        /* \"#utility.yul\":4707:4711   */\n      0x20\n        /* \"#utility.yul\":4700:4705   */\n      dup7\n        /* \"#utility.yul\":4696:4712   */\n      add\n        /* \"#utility.yul\":4661:4726   */\n      tag_273\n      jump\t// in\n    tag_368:\n        /* \"#utility.yul\":4751:4780   */\n      tag_369\n        /* \"#utility.yul\":4773:4779   */\n      dup2\n        /* \"#utility.yul\":4751:4780   */\n      tag_263\n      jump\t// in\n    tag_369:\n        /* \"#utility.yul\":4746:4749   */\n      dup5\n        /* \"#utility.yul\":4742:4781   */\n      add\n        /* \"#utility.yul\":4735:4781   */\n      swap2\n      pop\n        /* \"#utility.yul\":4512:4787   */\n      pop\n        /* \"#utility.yul\":4430:4787   */\n      swap3\n      swap2\n      pop\n      pop\n      jump\t// out\n        /* \"#utility.yul\":4793:4917   */\n    tag_275:\n        /* \"#utility.yul\":4870:4876   */\n      0x00\n        /* \"#utility.yul\":4904:4909   */\n      dup2\n        /* \"#utility.yul\":4898:4910   */\n      mload\n        /* \"#utility.yul\":4888:4910   */\n      swap1\n      pop\n        /* \"#utility.yul\":4793:4917   */\n      swap2\n      swap1\n      pop\n      jump\t// out\n        /* \"#utility.yul\":4923:5107   */\n    tag_276:\n        /* \"#utility.yul\":5022:5033   */\n      0x00\n        /* \"#utility.yul\":5056:5062   */\n      dup3\n        /* \"#utility.yul\":5051:5054   */\n      dup3\n        /* \"#utility.yul\":5044:5063   */\n      mstore\n        /* \"#utility.yul\":5096:5100   */\n      0x20\n        /* \"#utility.yul\":5091:5094   */\n      dup3\n        /* \"#utility.yul\":5087:5101   */\n      add\n        /* \"#utility.yul\":5072:5101   */\n      swap1\n      pop\n        /* \"#utility.yul\":4923:5107   */\n      swap3\n      swap2\n      pop\n      pop\n      jump\t// out\n        /* \"#utility.yul\":5113:5255   */\n    tag_277:\n        /* \"#utility.yul\":5190:5194   */\n      0x00\n        /* \"#utility.yul\":5213:5216   */\n      dup2\n        /* \"#utility.yul\":5205:5216   */\n      swap1\n      pop\n        /* \"#utility.yul\":5243:5247   */\n      0x20\n        /* \"#utility.yul\":5238:5241   */\n      dup3\n        /* \"#utility.yul\":5234:5248   */\n      add\n        /* \"#utility.yul\":5226:5248   */\n      swap1\n      pop\n        /* \"#utility.yul\":5113:5255   */\n      swap2\n      swap1\n      pop\n      jump\t// out\n        /* \"#utility.yul\":5261:5457   */\n    tag_278:\n        /* \"#utility.yul\":5350:5360   */\n      0x00\n        /* \"#utility.yul\":5385:5451   */\n      tag_374\n        /* \"#utility.yul\":5447:5450   */\n      dup4\n        /* \"#utility.yul\":5439:5445   */\n      dup4\n        /* \"#utility.yul\":5385:5451   */\n      tag_274\n      jump\t// in\n    tag_374:\n        /* \"#utility.yul\":5371:5451   */\n      swap1\n      pop\n        /* \"#utility.yul\":5261:5457   */\n      swap3\n      swap2\n      pop\n      pop\n      jump\t// out\n        /* \"#utility.yul\":5463:5586   */\n    tag_279:\n        /* \"#utility.yul\":5543:5547   */\n      0x00\n        /* \"#utility.yul\":5575:5579   */\n      0x20\n        /* \"#utility.yul\":5570:5573   */\n      dup3\n        /* \"#utility.yul\":5566:5580   */\n      add\n        /* \"#utility.yul\":5558:5580   */\n      swap1\n      pop\n        /* \"#utility.yul\":5463:5586   */\n      swap2\n      swap1\n      pop\n      jump\t// out\n        /* \"#utility.yul\":5620:6591   */\n    tag_280:\n        /* \"#utility.yul\":5749:5752   */\n      0x00\n        /* \"#utility.yul\":5778:5842   */\n      tag_377\n        /* \"#utility.yul\":5836:5841   */\n      dup3\n        /* \"#utility.yul\":5778:5842   */\n      tag_275\n      jump\t// in\n    tag_377:\n        /* \"#utility.yul\":5858:5944   */\n      tag_378\n        /* \"#utility.yul\":5937:5943   */\n      dup2\n        /* \"#utility.yul\":5932:5935   */\n      dup6\n        /* \"#utility.yul\":5858:5944   */\n      tag_276\n      jump\t// in\n    tag_378:\n        /* \"#utility.yul\":5851:5944   */\n      swap4\n      pop\n        /* \"#utility.yul\":5970:5973   */\n      dup4\n        /* \"#utility.yul\":6015:6019   */\n      0x20\n        /* \"#utility.yul\":6007:6013   */\n      dup3\n        /* \"#utility.yul\":6003:6020   */\n      mul\n        /* \"#utility.yul\":5998:6001   */\n      dup6\n        /* \"#utility.yul\":5994:6021   */\n      add\n        /* \"#utility.yul\":6045:6111   */\n      tag_379\n        /* \"#utility.yul\":6105:6110   */\n      dup6\n        /* \"#utility.yul\":6045:6111   */\n      tag_277\n      jump\t// in\n    tag_379:\n        /* \"#utility.yul\":6134:6141   */\n      dup1\n        /* \"#utility.yul\":6165:6166   */\n      0x00\n        /* \"#utility.yul\":6150:6546   */\n    tag_380:\n        /* \"#utility.yul\":6175:6181   */\n      dup6\n        /* \"#utility.yul\":6172:6173   */\n      dup2\n        /* \"#utility.yul\":6169:6182   */\n      lt\n        /* \"#utility.yul\":6150:6546   */\n      iszero\n      tag_382\n      jumpi\n        /* \"#utility.yul\":6246:6255   */\n      dup5\n        /* \"#utility.yul\":6240:6244   */\n      dup5\n        /* \"#utility.yul\":6236:6256   */\n      sub\n        /* \"#utility.yul\":6231:6234   */\n      dup10\n        /* \"#utility.yul\":6224:6257   */\n      mstore\n        /* \"#utility.yul\":6297:6303   */\n      dup2\n        /* \"#utility.yul\":6291:6304   */\n      mload\n        /* \"#utility.yul\":6325:6409   */\n      tag_383\n        /* \"#utility.yul\":6404:6408   */\n      dup6\n        /* \"#utility.yul\":6389:6402   */\n      dup3\n        /* \"#utility.yul\":6325:6409   */\n      tag_278\n      jump\t// in\n    tag_383:\n        /* \"#utility.yul\":6317:6409   */\n      swap5\n      pop\n        /* \"#utility.yul\":6432:6502   */\n      tag_384\n        /* \"#utility.yul\":6495:6501   */\n      dup4\n        /* \"#utility.yul\":6432:6502   */\n      tag_279\n      jump\t// in\n    tag_384:\n        /* \"#utility.yul\":6422:6502   */\n      swap3\n      pop\n        /* \"#utility.yul\":6531:6535   */\n      0x20\n        /* \"#utility.yul\":6526:6529   */\n      dup11\n        /* \"#utility.yul\":6522:6536   */\n      add\n        /* \"#utility.yul\":6515:6536   */\n      swap10\n      pop\n        /* \"#utility.yul\":6210:6546   */\n      pop\n        /* \"#utility.yul\":6197:6198   */\n      0x01\n        /* \"#utility.yul\":6194:6195   */\n      dup2\n        /* \"#utility.yul\":6190:6199   */\n      add\n        /* \"#utility.yul\":6185:6199   */\n      swap1\n      pop\n        /* \"#utility.yul\":6150:6546   */\n      jump(tag_380)\n    tag_382:\n        /* \"#utility.yul\":6154:6168   */\n      pop\n        /* \"#utility.yul\":6562:6566   */\n      dup3\n        /* \"#utility.yul\":6555:6566   */\n      swap8\n      pop\n        /* \"#utility.yul\":6582:6585   */\n      dup8\n        /* \"#utility.yul\":6575:6585   */\n      swap6\n      pop\n        /* \"#utility.yul\":5754:6591   */\n      pop\n      pop\n      pop\n      pop\n      pop\n        /* \"#utility.yul\":5620:6591   */\n      swap3\n      swap2\n      pop\n      pop\n      jump\t// out\n        /* \"#utility.yul\":6647:7625   */\n    tag_281:\n        /* \"#utility.yul\":6756:6759   */\n      0x00\n        /* \"#utility.yul\":6792:6796   */\n      0x60\n        /* \"#utility.yul\":6787:6790   */\n      dup4\n        /* \"#utility.yul\":6783:6797   */\n      add\n        /* \"#utility.yul\":6886:6890   */\n      0x00\n        /* \"#utility.yul\":6879:6884   */\n      dup4\n        /* \"#utility.yul\":6875:6891   */\n      add\n        /* \"#utility.yul\":6869:6892   */\n      mload\n        /* \"#utility.yul\":6939:6942   */\n      dup5\n        /* \"#utility.yul\":6933:6937   */\n      dup3\n        /* \"#utility.yul\":6929:6943   */\n      sub\n        /* \"#utility.yul\":6922:6926   */\n      0x00\n        /* \"#utility.yul\":6917:6920   */\n      dup7\n        /* \"#utility.yul\":6913:6927   */\n      add\n        /* \"#utility.yul\":6906:6944   */\n      mstore\n        /* \"#utility.yul\":6965:7038   */\n      tag_386\n        /* \"#utility.yul\":7033:7037   */\n      dup3\n        /* \"#utility.yul\":7019:7031   */\n      dup3\n        /* \"#utility.yul\":6965:7038   */\n      tag_274\n      jump\t// in\n    tag_386:\n        /* \"#utility.yul\":6957:7038   */\n      swap2\n      pop\n        /* \"#utility.yul\":6807:7049   */\n      pop\n        /* \"#utility.yul\":7137:7141   */\n      0x20\n        /* \"#utility.yul\":7130:7135   */\n      dup4\n        /* \"#utility.yul\":7126:7142   */\n      add\n        /* \"#utility.yul\":7120:7143   */\n      mload\n        /* \"#utility.yul\":7190:7193   */\n      dup5\n        /* \"#utility.yul\":7184:7188   */\n      dup3\n        /* \"#utility.yul\":7180:7194   */\n      sub\n        /* \"#utility.yul\":7173:7177   */\n      0x20\n        /* \"#utility.yul\":7168:7171   */\n      dup7\n        /* \"#utility.yul\":7164:7178   */\n      add\n        /* \"#utility.yul\":7157:7195   */\n      mstore\n        /* \"#utility.yul\":7216:7289   */\n      tag_387\n        /* \"#utility.yul\":7284:7288   */\n      dup3\n        /* \"#utility.yul\":7270:7282   */\n      dup3\n        /* \"#utility.yul\":7216:7289   */\n      tag_274\n      jump\t// in\n    tag_387:\n        /* \"#utility.yul\":7208:7289   */\n      swap2\n      pop\n        /* \"#utility.yul\":7059:7300   */\n      pop\n        /* \"#utility.yul\":7385:7389   */\n      0x40\n        /* \"#utility.yul\":7378:7383   */\n      dup4\n        /* \"#utility.yul\":7374:7390   */\n      add\n        /* \"#utility.yul\":7368:7391   */\n      mload\n        /* \"#utility.yul\":7438:7441   */\n      dup5\n        /* \"#utility.yul\":7432:7436   */\n      dup3\n        /* \"#utility.yul\":7428:7442   */\n      sub\n        /* \"#utility.yul\":7421:7425   */\n      0x40\n        /* \"#utility.yul\":7416:7419   */\n      dup7\n        /* \"#utility.yul\":7412:7426   */\n      add\n        /* \"#utility.yul\":7405:7443   */\n      mstore\n        /* \"#utility.yul\":7464:7587   */\n      tag_388\n        /* \"#utility.yul\":7582:7586   */\n      dup3\n        /* \"#utility.yul\":7568:7580   */\n      dup3\n        /* \"#utility.yul\":7464:7587   */\n      tag_280\n      jump\t// in\n    tag_388:\n        /* \"#utility.yul\":7456:7587   */\n      swap2\n      pop\n        /* \"#utility.yul\":7310:7598   */\n      pop\n        /* \"#utility.yul\":7615:7619   */\n      dup1\n        /* \"#utility.yul\":7608:7619   */\n      swap2\n      pop\n        /* \"#utility.yul\":6761:7625   */\n      pop\n        /* \"#utility.yul\":6647:7625   */\n      swap3\n      swap2\n      pop\n      pop\n      jump\t// out\n        /* \"#utility.yul\":7631:7984   */\n    tag_26:\n        /* \"#utility.yul\":7764:7768   */\n      0x00\n        /* \"#utility.yul\":7802:7804   */\n      0x20\n        /* \"#utility.yul\":7791:7800   */\n      dup3\n        /* \"#utility.yul\":7787:7805   */\n      add\n        /* \"#utility.yul\":7779:7805   */\n      swap1\n      pop\n        /* \"#utility.yul\":7851:7860   */\n      dup2\n        /* \"#utility.yul\":7845:7849   */\n      dup2\n        /* \"#utility.yul\":7841:7861   */\n      sub\n        /* \"#utility.yul\":7837:7838   */\n      0x00\n        /* \"#utility.yul\":7826:7835   */\n      dup4\n        /* \"#utility.yul\":7822:7839   */\n      add\n        /* \"#utility.yul\":7815:7862   */\n      mstore\n        /* \"#utility.yul\":7879:7977   */\n      tag_390\n        /* \"#utility.yul\":7972:7976   */\n      dup2\n        /* \"#utility.yul\":7963:7969   */\n      dup5\n        /* \"#utility.yul\":7879:7977   */\n      tag_281\n      jump\t// in\n    tag_390:\n        /* \"#utility.yul\":7871:7977   */\n      swap1\n      pop\n        /* \"#utility.yul\":7631:7984   */\n      swap3\n      swap2\n      pop\n      pop\n      jump\t// out\n        /* \"#utility.yul\":7990:8311   */\n    tag_282:\n        /* \"#utility.yul\":8077:8081   */\n      0x00\n        /* \"#utility.yul\":8167:8185   */\n      0xffffffffffffffff\n        /* \"#utility.yul\":8159:8165   */\n      dup3\n        /* \"#utility.yul\":8156:8186   */\n      gt\n        /* \"#utility.yul\":8153:8209   */\n      iszero\n      tag_392\n      jumpi\n        /* \"#utility.yul\":8189:8207   */\n      tag_393\n      tag_264\n      jump\t// in\n    tag_393:\n        /* \"#utility.yul\":8153:8209   */\n    tag_392:\n        /* \"#utility.yul\":8239:8243   */\n      0x20\n        /* \"#utility.yul\":8231:8237   */\n      dup3\n        /* \"#utility.yul\":8227:8244   */\n      mul\n        /* \"#utility.yul\":8219:8244   */\n      swap1\n      pop\n        /* \"#utility.yul\":8299:8303   */\n      0x20\n        /* \"#utility.yul\":8293:8297   */\n      dup2\n        /* \"#utility.yul\":8289:8304   */\n      add\n        /* \"#utility.yul\":8281:8304   */\n      swap1\n      pop\n        /* \"#utility.yul\":7990:8311   */\n      swap2\n      swap1\n      pop\n      jump\t// out\n        /* \"#utility.yul\":8317:8434   */\n    tag_283:\n        /* \"#utility.yul\":8426:8427   */\n      0x00\n        /* \"#utility.yul\":8423:8424   */\n      dup1\n        /* \"#utility.yul\":8416:8428   */\n      revert\n        /* \"#utility.yul\":8456:9401   */\n    tag_284:\n        /* \"#utility.yul\":8562:8567   */\n      0x00\n        /* \"#utility.yul\":8587:8678   */\n      tag_396\n        /* \"#utility.yul\":8603:8677   */\n      tag_397\n        /* \"#utility.yul\":8670:8676   */\n      dup5\n        /* \"#utility.yul\":8603:8677   */\n      tag_282\n      jump\t// in\n    tag_397:\n        /* \"#utility.yul\":8587:8678   */\n      tag_266\n      jump\t// in\n    tag_396:\n        /* \"#utility.yul\":8578:8678   */\n      swap1\n      pop\n        /* \"#utility.yul\":8698:8703   */\n      dup1\n        /* \"#utility.yul\":8727:8733   */\n      dup4\n        /* \"#utility.yul\":8720:8725   */\n      dup3\n        /* \"#utility.yul\":8713:8734   */\n      mstore\n        /* \"#utility.yul\":8761:8765   */\n      0x20\n        /* \"#utility.yul\":8754:8759   */\n      dup3\n        /* \"#utility.yul\":8750:8766   */\n      add\n        /* \"#utility.yul\":8743:8766   */\n      swap1\n      pop\n        /* \"#utility.yul\":8814:8818   */\n      0x20\n        /* \"#utility.yul\":8806:8812   */\n      dup5\n        /* \"#utility.yul\":8802:8819   */\n      mul\n        /* \"#utility.yul\":8794:8800   */\n      dup4\n        /* \"#utility.yul\":8790:8820   */\n      add\n        /* \"#utility.yul\":8843:8846   */\n      dup6\n        /* \"#utility.yul\":8835:8841   */\n      dup2\n        /* \"#utility.yul\":8832:8847   */\n      gt\n        /* \"#utility.yul\":8829:8951   */\n      iszero\n      tag_398\n      jumpi\n        /* \"#utility.yul\":8862:8941   */\n      tag_399\n      tag_283\n      jump\t// in\n    tag_399:\n        /* \"#utility.yul\":8829:8951   */\n    tag_398:\n        /* \"#utility.yul\":8977:8983   */\n      dup4\n        /* \"#utility.yul\":8960:9395   */\n    tag_400:\n        /* \"#utility.yul\":8994:9000   */\n      dup2\n        /* \"#utility.yul\":8989:8992   */\n      dup2\n        /* \"#utility.yul\":8986:9001   */\n      lt\n        /* \"#utility.yul\":8960:9395   */\n      iszero\n      tag_402\n      jumpi\n        /* \"#utility.yul\":9083:9086   */\n      dup1\n        /* \"#utility.yul\":9070:9087   */\n      calldataload\n        /* \"#utility.yul\":9119:9137   */\n      0xffffffffffffffff\n        /* \"#utility.yul\":9106:9117   */\n      dup2\n        /* \"#utility.yul\":9103:9138   */\n      gt\n        /* \"#utility.yul\":9100:9222   */\n      iszero\n      tag_403\n      jumpi\n        /* \"#utility.yul\":9141:9220   */\n      tag_404\n      tag_261\n      jump\t// in\n    tag_404:\n        /* \"#utility.yul\":9100:9222   */\n    tag_403:\n        /* \"#utility.yul\":9265:9276   */\n      dup1\n        /* \"#utility.yul\":9257:9263   */\n      dup7\n        /* \"#utility.yul\":9253:9277   */\n      add\n        /* \"#utility.yul\":9303:9350   */\n      tag_405\n        /* \"#utility.yul\":9346:9349   */\n      dup10\n        /* \"#utility.yul\":9334:9344   */\n      dup3\n        /* \"#utility.yul\":9303:9350   */\n      tag_270\n      jump\t// in\n    tag_405:\n        /* \"#utility.yul\":9298:9301   */\n      dup6\n        /* \"#utility.yul\":9291:9351   */\n      mstore\n        /* \"#utility.yul\":9380:9384   */\n      0x20\n        /* \"#utility.yul\":9375:9378   */\n      dup6\n        /* \"#utility.yul\":9371:9385   */\n      add\n        /* \"#utility.yul\":9364:9385   */\n      swap5\n      pop\n        /* \"#utility.yul\":9036:9395   */\n      pop\n      pop\n        /* \"#utility.yul\":9020:9024   */\n      0x20\n        /* \"#utility.yul\":9015:9018   */\n      dup2\n        /* \"#utility.yul\":9011:9025   */\n      add\n        /* \"#utility.yul\":9004:9025   */\n      swap1\n      pop\n        /* \"#utility.yul\":8960:9395   */\n      jump(tag_400)\n    tag_402:\n        /* \"#utility.yul\":8964:8985   */\n      pop\n        /* \"#utility.yul\":8568:9401   */\n      pop\n      pop\n        /* \"#utility.yul\":8456:9401   */\n      swap4\n      swap3\n      pop\n      pop\n      pop\n      jump\t// out\n        /* \"#utility.yul\":9423:9813   */\n    tag_285:\n        /* \"#utility.yul\":9504:9509   */\n      0x00\n        /* \"#utility.yul\":9553:9556   */\n      dup3\n        /* \"#utility.yul\":9546:9550   */\n      0x1f\n        /* \"#utility.yul\":9538:9544   */\n      dup4\n        /* \"#utility.yul\":9534:9551   */\n      add\n        /* \"#utility.yul\":9530:9557   */\n      slt\n        /* \"#utility.yul\":9520:9642   */\n      tag_407\n      jumpi\n        /* \"#utility.yul\":9561:9640   */\n      tag_408\n      tag_261\n      jump\t// in\n    tag_408:\n        /* \"#utility.yul\":9520:9642   */\n    tag_407:\n        /* \"#utility.yul\":9678:9684   */\n      dup2\n        /* \"#utility.yul\":9665:9685   */\n      calldataload\n        /* \"#utility.yul\":9703:9807   */\n      tag_409\n        /* \"#utility.yul\":9803:9806   */\n      dup5\n        /* \"#utility.yul\":9795:9801   */\n      dup3\n        /* \"#utility.yul\":9788:9792   */\n      0x20\n        /* \"#utility.yul\":9780:9786   */\n      dup7\n        /* \"#utility.yul\":9776:9793   */\n      add\n        /* \"#utility.yul\":9703:9807   */\n      tag_284\n      jump\t// in\n    tag_409:\n        /* \"#utility.yul\":9694:9807   */\n      swap2\n      pop\n        /* \"#utility.yul\":9510:9813   */\n      pop\n        /* \"#utility.yul\":9423:9813   */\n      swap3\n      swap2\n      pop\n      pop\n      jump\t// out\n        /* \"#utility.yul\":9819:10703   */\n    tag_29:\n        /* \"#utility.yul\":9932:9938   */\n      0x00\n        /* \"#utility.yul\":9940:9946   */\n      dup1\n        /* \"#utility.yul\":9989:9991   */\n      0x40\n        /* \"#utility.yul\":9977:9986   */\n      dup4\n        /* \"#utility.yul\":9968:9975   */\n      dup6\n        /* \"#utility.yul\":9964:9987   */\n      sub\n        /* \"#utility.yul\":9960:9992   */\n      slt\n        /* \"#utility.yul\":9957:10076   */\n      iszero\n      tag_411\n      jumpi\n        /* \"#utility.yul\":9995:10074   */\n      tag_412\n      tag_259\n      jump\t// in\n    tag_412:\n        /* \"#utility.yul\":9957:10076   */\n    tag_411:\n        /* \"#utility.yul\":10143:10144   */\n      0x00\n        /* \"#utility.yul\":10132:10141   */\n      dup4\n        /* \"#utility.yul\":10128:10145   */\n      add\n        /* \"#utility.yul\":10115:10146   */\n      calldataload\n        /* \"#utility.yul\":10173:10191   */\n      0xffffffffffffffff\n        /* \"#utility.yul\":10165:10171   */\n      dup2\n        /* \"#utility.yul\":10162:10192   */\n      gt\n        /* \"#utility.yul\":10159:10276   */\n      iszero\n      tag_413\n      jumpi\n        /* \"#utility.yul\":10195:10274   */\n      tag_414\n      tag_260\n      jump\t// in\n    tag_414:\n        /* \"#utility.yul\":10159:10276   */\n    tag_413:\n        /* \"#utility.yul\":10300:10363   */\n      tag_415\n        /* \"#utility.yul\":10355:10362   */\n      dup6\n        /* \"#utility.yul\":10346:10352   */\n      dup3\n        /* \"#utility.yul\":10335:10344   */\n      dup7\n        /* \"#utility.yul\":10331:10353   */\n      add\n        /* \"#utility.yul\":10300:10363   */\n      tag_270\n      jump\t// in\n    tag_415:\n        /* \"#utility.yul\":10290:10363   */\n      swap3\n      pop\n        /* \"#utility.yul\":10086:10373   */\n      pop\n        /* \"#utility.yul\":10440:10442   */\n      0x20\n        /* \"#utility.yul\":10429:10438   */\n      dup4\n        /* \"#utility.yul\":10425:10443   */\n      add\n        /* \"#utility.yul\":10412:10444   */\n      calldataload\n        /* \"#utility.yul\":10471:10489   */\n      0xffffffffffffffff\n        /* \"#utility.yul\":10463:10469   */\n      dup2\n        /* \"#utility.yul\":10460:10490   */\n      gt\n        /* \"#utility.yul\":10457:10574   */\n      iszero\n      tag_416\n      jumpi\n        /* \"#utility.yul\":10493:10572   */\n      tag_417\n      tag_260\n      jump\t// in\n    tag_417:\n        /* \"#utility.yul\":10457:10574   */\n    tag_416:\n        /* \"#utility.yul\":10598:10686   */\n      tag_418\n        /* \"#utility.yul\":10678:10685   */\n      dup6\n        /* \"#utility.yul\":10669:10675   */\n      dup3\n        /* \"#utility.yul\":10658:10667   */\n      dup7\n        /* \"#utility.yul\":10654:10676   */\n      add\n        /* \"#utility.yul\":10598:10686   */\n      tag_285\n      jump\t// in\n    tag_418:\n        /* \"#utility.yul\":10588:10686   */\n      swap2\n      pop\n        /* \"#utility.yul\":10383:10696   */\n      pop\n        /* \"#utility.yul\":9819:10703   */\n      swap3\n      pop\n      swap3\n      swap1\n      pop\n      jump\t// out\n        /* \"#utility.yul\":10709:11593   */\n    tag_34:\n        /* \"#utility.yul\":10822:10828   */\n      0x00\n        /* \"#utility.yul\":10830:10836   */\n      dup1\n        /* \"#utility.yul\":10879:10881   */\n      0x40\n        /* \"#utility.yul\":10867:10876   */\n      dup4\n        /* \"#utility.yul\":10858:10865   */\n      dup6\n        /* \"#utility.yul\":10854:10877   */\n      sub\n        /* \"#utility.yul\":10850:10882   */\n      slt\n        /* \"#utility.yul\":10847:10966   */\n      iszero\n      tag_420\n      jumpi\n        /* \"#utility.yul\":10885:10964   */\n      tag_421\n      tag_259\n      jump\t// in\n    tag_421:\n        /* \"#utility.yul\":10847:10966   */\n    tag_420:\n        /* \"#utility.yul\":11033:11034   */\n      0x00\n        /* \"#utility.yul\":11022:11031   */\n      dup4\n        /* \"#utility.yul\":11018:11035   */\n      add\n        /* \"#utility.yul\":11005:11036   */\n      calldataload\n        /* \"#utility.yul\":11063:11081   */\n      0xffffffffffffffff\n        /* \"#utility.yul\":11055:11061   */\n      dup2\n        /* \"#utility.yul\":11052:11082   */\n      gt\n        /* \"#utility.yul\":11049:11166   */\n      iszero\n      tag_422\n      jumpi\n        /* \"#utility.yul\":11085:11164   */\n      tag_423\n      tag_260\n      jump\t// in\n    tag_423:\n        /* \"#utility.yul\":11049:11166   */\n    tag_422:\n        /* \"#utility.yul\":11190:11278   */\n      tag_424\n        /* \"#utility.yul\":11270:11277   */\n      dup6\n        /* \"#utility.yul\":11261:11267   */\n      dup3\n        /* \"#utility.yul\":11250:11259   */\n      dup7\n        /* \"#utility.yul\":11246:11268   */\n      add\n        /* \"#utility.yul\":11190:11278   */\n      tag_285\n      jump\t// in\n    tag_424:\n        /* \"#utility.yul\":11180:11278   */\n      swap3\n      pop\n        /* \"#utility.yul\":10976:11288   */\n      pop\n        /* \"#utility.yul\":11355:11357   */\n      0x20\n        /* \"#utility.yul\":11344:11353   */\n      dup4\n        /* \"#utility.yul\":11340:11358   */\n      add\n        /* \"#utility.yul\":11327:11359   */\n      calldataload\n        /* \"#utility.yul\":11386:11404   */\n      0xffffffffffffffff\n        /* \"#utility.yul\":11378:11384   */\n      dup2\n        /* \"#utility.yul\":11375:11405   */\n      gt\n        /* \"#utility.yul\":11372:11489   */\n      iszero\n      tag_425\n      jumpi\n        /* \"#utility.yul\":11408:11487   */\n      tag_426\n      tag_260\n      jump\t// in\n    tag_426:\n        /* \"#utility.yul\":11372:11489   */\n    tag_425:\n        /* \"#utility.yul\":11513:11576   */\n      tag_427\n        /* \"#utility.yul\":11568:11575   */\n      dup6\n        /* \"#utility.yul\":11559:11565   */\n      dup3\n        /* \"#utility.yul\":11548:11557   */\n      dup7\n        /* \"#utility.yul\":11544:11566   */\n      add\n        /* \"#utility.yul\":11513:11576   */\n      tag_270\n      jump\t// in\n    tag_427:\n        /* \"#utility.yul\":11503:11576   */\n      swap2\n      pop\n        /* \"#utility.yul\":11298:11586   */\n      pop\n        /* \"#utility.yul\":10709:11593   */\n      swap3\n      pop\n      swap3\n      swap1\n      pop\n      jump\t// out\n        /* \"#utility.yul\":11599:11725   */\n    tag_286:\n        /* \"#utility.yul\":11636:11643   */\n      0x00\n        /* \"#utility.yul\":11676:11718   */\n      0xffffffffffffffffffffffffffffffffffffffff\n        /* \"#utility.yul\":11669:11674   */\n      dup3\n        /* \"#utility.yul\":11665:11719   */\n      and\n        /* \"#utility.yul\":11654:11719   */\n      swap1\n      pop\n        /* \"#utility.yul\":11599:11725   */\n      swap2\n      swap1\n      pop\n      jump\t// out\n        /* \"#utility.yul\":11731:11827   */\n    tag_287:\n        /* \"#utility.yul\":11768:11775   */\n      0x00\n        /* \"#utility.yul\":11797:11821   */\n      tag_430\n        /* \"#utility.yul\":11815:11820   */\n      dup3\n        /* \"#utility.yul\":11797:11821   */\n      tag_286\n      jump\t// in\n    tag_430:\n        /* \"#utility.yul\":11786:11821   */\n      swap1\n      pop\n        /* \"#utility.yul\":11731:11827   */\n      swap2\n      swap1\n      pop\n      jump\t// out\n        /* \"#utility.yul\":11833:11951   */\n    tag_288:\n        /* \"#utility.yul\":11920:11944   */\n      tag_432\n        /* \"#utility.yul\":11938:11943   */\n      dup2\n        /* \"#utility.yul\":11920:11944   */\n      tag_287\n      jump\t// in\n    tag_432:\n        /* \"#utility.yul\":11915:11918   */\n      dup3\n        /* \"#utility.yul\":11908:11945   */\n      mstore\n        /* \"#utility.yul\":11833:11951   */\n      pop\n      pop\n      jump\t// out\n        /* \"#utility.yul\":11957:12179   */\n    tag_39:\n        /* \"#utility.yul\":12050:12054   */\n      0x00\n        /* \"#utility.yul\":12088:12090   */\n      0x20\n        /* \"#utility.yul\":12077:12086   */\n      dup3\n        /* \"#utility.yul\":12073:12091   */\n      add\n        /* \"#utility.yul\":12065:12091   */\n      swap1\n      pop\n        /* \"#utility.yul\":12101:12172   */\n      tag_434\n        /* \"#utility.yul\":12169:12170   */\n      0x00\n        /* \"#utility.yul\":12158:12167   */\n      dup4\n        /* \"#utility.yul\":12154:12171   */\n      add\n        /* \"#utility.yul\":12145:12151   */\n      dup5\n        /* \"#utility.yul\":12101:12172   */\n      tag_288\n      jump\t// in\n    tag_434:\n        /* \"#utility.yul\":11957:12179   */\n      swap3\n      swap2\n      pop\n      pop\n      jump\t// out\n        /* \"#utility.yul\":12185:12275   */\n    tag_289:\n        /* \"#utility.yul\":12219:12226   */\n      0x00\n        /* \"#utility.yul\":12262:12267   */\n      dup2\n        /* \"#utility.yul\":12255:12268   */\n      iszero\n        /* \"#utility.yul\":12248:12269   */\n      iszero\n        /* \"#utility.yul\":12237:12269   */\n      swap1\n      pop\n        /* \"#utility.yul\":12185:12275   */\n      swap2\n      swap1\n      pop\n      jump\t// out\n        /* \"#utility.yul\":12281:12390   */\n    tag_290:\n        /* \"#utility.yul\":12362:12383   */\n      tag_437\n        /* \"#utility.yul\":12377:12382   */\n      dup2\n        /* \"#utility.yul\":12362:12383   */\n      tag_289\n      jump\t// in\n    tag_437:\n        /* \"#utility.yul\":12357:12360   */\n      dup3\n        /* \"#utility.yul\":12350:12384   */\n      mstore\n        /* \"#utility.yul\":12281:12390   */\n      pop\n      pop\n      jump\t// out\n        /* \"#utility.yul\":12396:12606   */\n    tag_44:\n        /* \"#utility.yul\":12483:12487   */\n      0x00\n        /* \"#utility.yul\":12521:12523   */\n      0x20\n        /* \"#utility.yul\":12510:12519   */\n      dup3\n        /* \"#utility.yul\":12506:12524   */\n      add\n        /* \"#utility.yul\":12498:12524   */\n      swap1\n      pop\n        /* \"#utility.yul\":12534:12599   */\n      tag_439\n        /* \"#utility.yul\":12596:12597   */\n      0x00\n        /* \"#utility.yul\":12585:12594   */\n      dup4\n        /* \"#utility.yul\":12581:12598   */\n      add\n        /* \"#utility.yul\":12572:12578   */\n      dup5\n        /* \"#utility.yul\":12534:12599   */\n      tag_290\n      jump\t// in\n    tag_439:\n        /* \"#utility.yul\":12396:12606   */\n      swap3\n      swap2\n      pop\n      pop\n      jump\t// out\n        /* \"#utility.yul\":12612:12760   */\n    tag_291:\n        /* \"#utility.yul\":12714:12725   */\n      0x00\n        /* \"#utility.yul\":12751:12754   */\n      dup2\n        /* \"#utility.yul\":12736:12754   */\n      swap1\n      pop\n        /* \"#utility.yul\":12612:12760   */\n      swap3\n      swap2\n      pop\n      pop\n      jump\t// out\n        /* \"#utility.yul\":12766:13156   */\n    tag_292:\n        /* \"#utility.yul\":12872:12875   */\n      0x00\n        /* \"#utility.yul\":12900:12939   */\n      tag_442\n        /* \"#utility.yul\":12933:12938   */\n      dup3\n        /* \"#utility.yul\":12900:12939   */\n      tag_271\n      jump\t// in\n    tag_442:\n        /* \"#utility.yul\":12955:13044   */\n      tag_443\n        /* \"#utility.yul\":13037:13043   */\n      dup2\n        /* \"#utility.yul\":13032:13035   */\n      dup6\n        /* \"#utility.yul\":12955:13044   */\n      tag_291\n      jump\t// in\n    tag_443:\n        /* \"#utility.yul\":12948:13044   */\n      swap4\n      pop\n        /* \"#utility.yul\":13053:13118   */\n      tag_444\n        /* \"#utility.yul\":13111:13117   */\n      dup2\n        /* \"#utility.yul\":13106:13109   */\n      dup6\n        /* \"#utility.yul\":13099:13103   */\n      0x20\n        /* \"#utility.yul\":13092:13097   */\n      dup7\n        /* \"#utility.yul\":13088:13104   */\n      add\n        /* \"#utility.yul\":13053:13118   */\n      tag_273\n      jump\t// in\n    tag_444:\n        /* \"#utility.yul\":13143:13149   */\n      dup1\n        /* \"#utility.yul\":13138:13141   */\n      dup5\n        /* \"#utility.yul\":13134:13150   */\n      add\n        /* \"#utility.yul\":13127:13150   */\n      swap2\n      pop\n        /* \"#utility.yul\":12876:13156   */\n      pop\n        /* \"#utility.yul\":12766:13156   */\n      swap3\n      swap2\n      pop\n      pop\n      jump\t// out\n        /* \"#utility.yul\":13162:13437   */\n    tag_61:\n        /* \"#utility.yul\":13294:13297   */\n      0x00\n        /* \"#utility.yul\":13316:13411   */\n      tag_446\n        /* \"#utility.yul\":13407:13410   */\n      dup3\n        /* \"#utility.yul\":13398:13404   */\n      dup5\n        /* \"#utility.yul\":13316:13411   */\n      tag_292\n      jump\t// in\n    tag_446:\n        /* \"#utility.yul\":13309:13411   */\n      swap2\n      pop\n        /* \"#utility.yul\":13428:13431   */\n      dup2\n        /* \"#utility.yul\":13421:13431   */\n      swap1\n      pop\n        /* \"#utility.yul\":13162:13437   */\n      swap3\n      swap2\n      pop\n      pop\n      jump\t// out\n        /* \"#utility.yul\":13443:13623   */\n    tag_293:\n        /* \"#utility.yul\":13491:13568   */\n      0x4e487b7100000000000000000000000000000000000000000000000000000000\n        /* \"#utility.yul\":13488:13489   */\n      0x00\n        /* \"#utility.yul\":13481:13569   */\n      mstore\n        /* \"#utility.yul\":13588:13592   */\n      0x22\n        /* \"#utility.yul\":13585:13586   */\n      0x04\n        /* \"#utility.yul\":13578:13593   */\n      mstore\n        /* \"#utility.yul\":13612:13616   */\n      0x24\n        /* \"#utility.yul\":13609:13610   */\n      0x00\n        /* \"#utility.yul\":13602:13617   */\n      revert\n        /* \"#utility.yul\":13629:13949   */\n    tag_78:\n        /* \"#utility.yul\":13673:13679   */\n      0x00\n        /* \"#utility.yul\":13710:13711   */\n      0x02\n        /* \"#utility.yul\":13704:13708   */\n      dup3\n        /* \"#utility.yul\":13700:13712   */\n      div\n        /* \"#utility.yul\":13690:13712   */\n      swap1\n      pop\n        /* \"#utility.yul\":13757:13758   */\n      0x01\n        /* \"#utility.yul\":13751:13755   */\n      dup3\n        /* \"#utility.yul\":13747:13759   */\n      and\n        /* \"#utility.yul\":13778:13796   */\n      dup1\n        /* \"#utility.yul\":13768:13849   */\n      tag_449\n      jumpi\n        /* \"#utility.yul\":13834:13838   */\n      0x7f\n        /* \"#utility.yul\":13826:13832   */\n      dup3\n        /* \"#utility.yul\":13822:13839   */\n      and\n        /* \"#utility.yul\":13812:13839   */\n      swap2\n      pop\n        /* \"#utility.yul\":13768:13849   */\n    tag_449:\n        /* \"#utility.yul\":13896:13898   */\n      0x20\n        /* \"#utility.yul\":13888:13894   */\n      dup3\n        /* \"#utility.yul\":13885:13899   */\n      lt\n        /* \"#utility.yul\":13865:13883   */\n      dup2\n        /* \"#utility.yul\":13862:13900   */\n      sub\n        /* \"#utility.yul\":13859:13943   */\n      tag_450\n      jumpi\n        /* \"#utility.yul\":13915:13933   */\n      tag_451\n      tag_293\n      jump\t// in\n    tag_451:\n        /* \"#utility.yul\":13859:13943   */\n    tag_450:\n        /* \"#utility.yul\":13680:13949   */\n      pop\n        /* \"#utility.yul\":13629:13949   */\n      swap2\n      swap1\n      pop\n      jump\t// out\n        /* \"#utility.yul\":13955:14096   */\n    tag_294:\n        /* \"#utility.yul\":14004:14008   */\n      0x00\n        /* \"#utility.yul\":14027:14030   */\n      dup2\n        /* \"#utility.yul\":14019:14030   */\n      swap1\n      pop\n        /* \"#utility.yul\":14050:14053   */\n      dup2\n        /* \"#utility.yul\":14047:14048   */\n      0x00\n        /* \"#utility.yul\":14040:14054   */\n      mstore\n        /* \"#utility.yul\":14084:14088   */\n      0x20\n        /* \"#utility.yul\":14081:14082   */\n      0x00\n        /* \"#utility.yul\":14071:14089   */\n      keccak256\n        /* \"#utility.yul\":14063:14089   */\n      swap1\n      pop\n        /* \"#utility.yul\":13955:14096   */\n      swap2\n      swap1\n      pop\n      jump\t// out\n        /* \"#utility.yul\":14102:14195   */\n    tag_295:\n        /* \"#utility.yul\":14139:14145   */\n      0x00\n        /* \"#utility.yul\":14186:14188   */\n      0x20\n        /* \"#utility.yul\":14181:14183   */\n      0x1f\n        /* \"#utility.yul\":14174:14179   */\n      dup4\n        /* \"#utility.yul\":14170:14184   */\n      add\n        /* \"#utility.yul\":14166:14189   */\n      div\n        /* \"#utility.yul\":14156:14189   */\n      swap1\n      pop\n        /* \"#utility.yul\":14102:14195   */\n      swap2\n      swap1\n      pop\n      jump\t// out\n        /* \"#utility.yul\":14201:14308   */\n    tag_296:\n        /* \"#utility.yul\":14245:14253   */\n      0x00\n        /* \"#utility.yul\":14295:14300   */\n      dup3\n        /* \"#utility.yul\":14289:14293   */\n      dup3\n        /* \"#utility.yul\":14285:14301   */\n      shl\n        /* \"#utility.yul\":14264:14301   */\n      swap1\n      pop\n        /* \"#utility.yul\":14201:14308   */\n      swap3\n      swap2\n      pop\n      pop\n      jump\t// out\n        /* \"#utility.yul\":14314:14707   */\n    tag_297:\n        /* \"#utility.yul\":14383:14389   */\n      0x00\n        /* \"#utility.yul\":14433:14434   */\n      0x08\n        /* \"#utility.yul\":14421:14431   */\n      dup4\n        /* \"#utility.yul\":14417:14435   */\n      mul\n        /* \"#utility.yul\":14456:14553   */\n      tag_456\n        /* \"#utility.yul\":14486:14552   */\n      0xffffffffffffffffffffffffffffffffffffffffffffffffffffffffffffffff\n        /* \"#utility.yul\":14475:14484   */\n      dup3\n        /* \"#utility.yul\":14456:14553   */\n      tag_296\n      jump\t// in\n    tag_456:\n        /* \"#utility.yul\":14574:14613   */\n      tag_457\n        /* \"#utility.yul\":14604:14612   */\n      dup7\n        /* \"#utility.yul\":14593:14602   */\n      dup4\n        /* \"#utility.yul\":14574:14613   */\n      tag_296\n      jump\t// in\n    tag_457:\n        /* \"#utility.yul\":14562:14613   */\n      swap6\n      pop\n        /* \"#utility.yul\":14646:14650   */\n      dup1\n        /* \"#utility.yul\":14642:14651   */\n      not\n        /* \"#utility.yul\":14635:14640   */\n      dup5\n        /* \"#utility.yul\":14631:14652   */\n      and\n        /* \"#utility.yul\":14622:14652   */\n      swap4\n      pop\n        /* \"#utility.yul\":14695:14699   */\n      dup1\n        /* \"#utility.yul\":14685:14693   */\n      dup7\n        /* \"#utility.yul\":14681:14700   */\n      and\n        /* \"#utility.yul\":14674:14679   */\n      dup5\n        /* \"#utility.yul\":14671:14701   */\n      or\n        /* \"#utility.yul\":14661:14701   */\n      swap3\n      pop\n        /* \"#utility.yul\":14390:14707   */\n      pop\n      pop\n        /* \"#utility.yul\":14314:14707   */\n      swap4\n      swap3\n      pop\n      pop\n      pop\n      jump\t// out\n        /* \"#utility.yul\":14713:14790   */\n    tag_298:\n        /* \"#utility.yul\":14750:14757   */\n      0x00\n        /* \"#utility.yul\":14779:14784   */\n      dup2\n        /* \"#utility.yul\":14768:14784   */\n      swap1\n      pop\n        /* \"#utility.yul\":14713:14790   */\n      swap2\n      swap1\n      pop\n      jump\t// out\n        /* \"#utility.yul\":14796:14856   */\n    tag_299:\n        /* \"#utility.yul\":14824:14827   */\n      0x00\n        /* \"#utility.yul\":14845:14850   */\n      dup2\n        /* \"#utility.yul\":14838:14850   */\n      swap1\n      pop\n        /* \"#utility.yul\":14796:14856   */\n      swap2\n      swap1\n      pop\n      jump\t// out\n        /* \"#utility.yul\":14862:15004   */\n    tag_300:\n        /* \"#utility.yul\":14912:14921   */\n      0x00\n        /* \"#utility.yul\":14945:14998   */\n      tag_461\n        /* \"#utility.yul\":14963:14997   */\n      tag_462\n        /* \"#utility.yul\":14972:14996   */\n      tag_463\n        /* \"#utility.yul\":14990:14995   */\n      dup5\n        /* \"#utility.yul\":14972:14996   */\n      tag_298\n      jump\t// in\n    tag_463:\n        /* \"#utility.yul\":14963:14997   */\n      tag_299\n      jump\t// in\n    tag_462:\n        /* \"#utility.yul\":14945:14998   */\n      tag_298\n      jump\t// in\n    tag_461:\n        /* \"#utility.yul\":14932:14998   */\n      swap1\n      pop\n        /* \"#utility.yul\":14862:15004   */\n      swap2\n      swap1\n      pop\n      jump\t// out\n        /* \"#utility.yul\":15010:15085   */\n    tag_301:\n        /* \"#utility.yul\":15053:15056   */\n      0x00\n        /* \"#utility.yul\":15074:15079   */\n      dup2\n        /* \"#utility.yul\":15067:15079   */\n      swap1\n      pop\n        /* \"#utility.yul\":15010:15085   */\n      swap2\n      swap1\n      pop\n      jump\t// out\n        /* \"#utility.yul\":15091:15360   */\n    tag_302:\n        /* \"#utility.yul\":15201:15240   */\n      tag_466\n        /* \"#utility.yul\":15232:15239   */\n      dup4\n        /* \"#utility.yul\":15201:15240   */\n      tag_300\n      jump\t// in\n    tag_466:\n        /* \"#utility.yul\":15262:15353   */\n      tag_467\n        /* \"#utility.yul\":15311:15352   */\n      tag_468\n        /* \"#utility.yul\":15335:15351   */\n      dup3\n        /* \"#utility.yul\":15311:15352   */\n      tag_301\n      jump\t// in\n    tag_468:\n        /* \"#utility.yul\":15303:15309   */\n      dup5\n        /* \"#utility.yul\":15296:15300   */\n      dup5\n        /* \"#utility.yul\":15290:15301   */\n      sload\n        /* \"#utility.yul\":15262:15353   */\n      tag_297\n      jump\t// in\n    tag_467:\n        /* \"#utility.yul\":15256:15260   */\n      dup3\n        /* \"#utility.yul\":15249:15354   */\n      sstore\n        /* \"#utility.yul\":15167:15360   */\n      pop\n        /* \"#utility.yul\":15091:15360   */\n      pop\n      pop\n      pop\n      jump\t// out\n        /* \"#utility.yul\":15366:15439   */\n    tag_303:\n        /* \"#utility.yul\":15411:15414   */\n      0x00\n        /* \"#utility.yul\":15366:15439   */\n      swap1\n      jump\t// out\n        /* \"#utility.yul\":15445:15634   */\n    tag_304:\n        /* \"#utility.yul\":15522:15554   */\n      tag_471\n      tag_303\n      jump\t// in\n    tag_471:\n        /* \"#utility.yul\":15563:15628   */\n      tag_472\n        /* \"#utility.yul\":15621:15627   */\n      dup2\n        /* \"#utility.yul\":15613:15619   */\n      dup5\n        /* \"#utility.yul\":15607:15611   */\n      dup5\n        /* \"#utility.yul\":15563:15628   */\n      tag_302\n      jump\t// in\n    tag_472:\n        /* \"#utility.yul\":15498:15634   */\n      pop\n        /* \"#utility.yul\":15445:15634   */\n      pop\n      pop\n      jump\t// out\n        /* \"#utility.yul\":15640:15826   */\n    tag_305:\n        /* \"#utility.yul\":15700:15820   */\n    tag_474:\n        /* \"#utility.yul\":15717:15720   */\n      dup2\n        /* \"#utility.yul\":15710:15715   */\n      dup2\n        /* \"#utility.yul\":15707:15721   */\n      lt\n        /* \"#utility.yul\":15700:15820   */\n      iszero\n      tag_476\n      jumpi\n        /* \"#utility.yul\":15771:15810   */\n      tag_477\n        /* \"#utility.yul\":15808:15809   */\n      0x00\n        /* \"#utility.yul\":15801:15806   */\n      dup3\n        /* \"#utility.yul\":15771:15810   */\n      tag_304\n      jump\t// in\n    tag_477:\n        /* \"#utility.yul\":15744:15745   */\n      0x01\n        /* \"#utility.yul\":15737:15742   */\n      dup2\n        /* \"#utility.yul\":15733:15746   */\n      add\n        /* \"#utility.yul\":15724:15746   */\n      swap1\n      pop\n        /* \"#utility.yul\":15700:15820   */\n      jump(tag_474)\n    tag_476:\n        /* \"#utility.yul\":15640:15826   */\n      pop\n      pop\n      jump\t// out\n        /* \"#utility.yul\":15832:16375   */\n    tag_306:\n        /* \"#utility.yul\":15933:15935   */\n      0x1f\n        /* \"#utility.yul\":15928:15931   */\n      dup3\n        /* \"#utility.yul\":15925:15936   */\n      gt\n        /* \"#utility.yul\":15922:16368   */\n      iszero\n      tag_479\n      jumpi\n        /* \"#utility.yul\":15967:16005   */\n      tag_480\n        /* \"#utility.yul\":15999:16004   */\n      dup2\n        /* \"#utility.yul\":15967:16005   */\n      tag_294\n      jump\t// in\n    tag_480:\n        /* \"#utility.yul\":16051:16080   */\n      tag_481\n        /* \"#utility.yul\":16069:16079   */\n      dup5\n        /* \"#utility.yul\":16051:16080   */\n      tag_295\n      jump\t// in\n    tag_481:\n        /* \"#utility.yul\":16041:16049   */\n      dup2\n        /* \"#utility.yul\":16037:16081   */\n      add\n        /* \"#utility.yul\":16234:16236   */\n      0x20\n        /* \"#utility.yul\":16222:16232   */\n      dup6\n        /* \"#utility.yul\":16219:16237   */\n      lt\n        /* \"#utility.yul\":16216:16265   */\n      iszero\n      tag_482\n      jumpi\n        /* \"#utility.yul\":16255:16263   */\n      dup2\n        /* \"#utility.yul\":16240:16263   */\n      swap1\n      pop\n        /* \"#utility.yul\":16216:16265   */\n    tag_482:\n        /* \"#utility.yul\":16278:16358   */\n      tag_483\n        /* \"#utility.yul\":16334:16356   */\n      tag_484\n        /* \"#utility.yul\":16352:16355   */\n      dup6\n        /* \"#utility.yul\":16334:16356   */\n      tag_295\n      jump\t// in\n    tag_484:\n        /* \"#utility.yul\":16324:16332   */\n      dup4\n        /* \"#utility.yul\":16320:16357   */\n      add\n        /* \"#utility.yul\":16307:16318   */\n      dup3\n        /* \"#utility.yul\":16278:16358   */\n      tag_305\n      jump\t// in\n    tag_483:\n        /* \"#utility.yul\":15937:16368   */\n      pop\n      pop\n        /* \"#utility.yul\":15922:16368   */\n    tag_479:\n        /* \"#utility.yul\":15832:16375   */\n      pop\n      pop\n      pop\n      jump\t// out\n        /* \"#utility.yul\":16381:16498   */\n    tag_307:\n        /* \"#utility.yul\":16435:16443   */\n      0x00\n        /* \"#utility.yul\":16485:16490   */\n      dup3\n        /* \"#utility.yul\":16479:16483   */\n      dup3\n        /* \"#utility.yul\":16475:16491   */\n      shr\n        /* \"#utility.yul\":16454:16491   */\n      swap1\n      pop\n        /* \"#utility.yul\":16381:16498   */\n      swap3\n      swap2\n      pop\n      pop\n      jump\t// out\n        /* \"#utility.yul\":16504:16673   */\n    tag_308:\n        /* \"#utility.yul\":16548:16554   */\n      0x00\n        /* \"#utility.yul\":16581:16632   */\n      tag_487\n        /* \"#utility.yul\":16629:16630   */\n      0x00\n        /* \"#utility.yul\":16625:16631   */\n      not\n        /* \"#utility.yul\":16617:16622   */\n      dup5\n        /* \"#utility.yul\":16614:16615   */\n      0x08\n        /* \"#utility.yul\":16610:16623   */\n      mul\n        /* \"#utility.yul\":16581:16632   */\n      tag_307\n      jump\t// in\n    tag_487:\n        /* \"#utility.yul\":16577:16633   */\n      not\n        /* \"#utility.yul\":16662:16666   */\n      dup1\n        /* \"#utility.yul\":16656:16660   */\n      dup4\n        /* \"#utility.yul\":16652:16667   */\n      and\n        /* \"#utility.yul\":16642:16667   */\n      swap2\n      pop\n        /* \"#utility.yul\":16555:16673   */\n      pop\n        /* \"#utility.yul\":16504:16673   */\n      swap3\n      swap2\n      pop\n      pop\n      jump\t// out\n        /* \"#utility.yul\":16678:16973   */\n    tag_309:\n        /* \"#utility.yul\":16754:16758   */\n      0x00\n        /* \"#utility.yul\":16900:16929   */\n      tag_489\n        /* \"#utility.yul\":16925:16928   */\n      dup4\n        /* \"#utility.yul\":16919:16923   */\n      dup4\n        /* \"#utility.yul\":16900:16929   */\n      tag_308\n      jump\t// in\n    tag_489:\n        /* \"#utility.yul\":16892:16929   */\n      swap2\n      pop\n        /* \"#utility.yul\":16962:16965   */\n      dup3\n        /* \"#utility.yul\":16959:16960   */\n      0x02\n        /* \"#utility.yul\":16955:16966   */\n      mul\n        /* \"#utility.yul\":16949:16953   */\n      dup3\n        /* \"#utility.yul\":16946:16967   */\n      or\n        /* \"#utility.yul\":16938:16967   */\n      swap1\n      pop\n        /* \"#utility.yul\":16678:16973   */\n      swap3\n      swap2\n      pop\n      pop\n      jump\t// out\n        /* \"#utility.yul\":16978:18373   */\n    tag_63:\n        /* \"#utility.yul\":17095:17132   */\n      tag_491\n        /* \"#utility.yul\":17128:17131   */\n      dup3\n        /* \"#utility.yul\":17095:17132   */\n      tag_271\n      jump\t// in\n    tag_491:\n        /* \"#utility.yul\":17197:17215   */\n      0xffffffffffffffff\n        /* \"#utility.yul\":17189:17195   */\n      dup2\n        /* \"#utility.yul\":17186:17216   */\n      gt\n        /* \"#utility.yul\":17183:17239   */\n      iszero\n      tag_492\n      jumpi\n        /* \"#utility.yul\":17219:17237   */\n      tag_493\n      tag_264\n      jump\t// in\n    tag_493:\n        /* \"#utility.yul\":17183:17239   */\n    tag_492:\n        /* \"#utility.yul\":17263:17301   */\n      tag_494\n        /* \"#utility.yul\":17295:17299   */\n      dup3\n        /* \"#utility.yul\":17289:17300   */\n      sload\n        /* \"#utility.yul\":17263:17301   */\n      tag_78\n      jump\t// in\n    tag_494:\n        /* \"#utility.yul\":17348:17415   */\n      tag_495\n        /* \"#utility.yul\":17408:17414   */\n      dup3\n        /* \"#utility.yul\":17400:17406   */\n      dup3\n        /* \"#utility.yul\":17394:17398   */\n      dup6\n        /* \"#utility.yul\":17348:17415   */\n      tag_306\n      jump\t// in\n    tag_495:\n        /* \"#utility.yul\":17442:17443   */\n      0x00\n        /* \"#utility.yul\":17466:17470   */\n      0x20\n        /* \"#utility.yul\":17453:17470   */\n      swap1\n      pop\n        /* \"#utility.yul\":17498:17500   */\n      0x1f\n        /* \"#utility.yul\":17490:17496   */\n      dup4\n        /* \"#utility.yul\":17487:17501   */\n      gt\n        /* \"#utility.yul\":17515:17516   */\n      0x01\n        /* \"#utility.yul\":17510:18128   */\n      dup2\n      eq\n      tag_497\n      jumpi\n        /* \"#utility.yul\":18172:18173   */\n      0x00\n        /* \"#utility.yul\":18189:18195   */\n      dup5\n        /* \"#utility.yul\":18186:18263   */\n      iszero\n      tag_498\n      jumpi\n        /* \"#utility.yul\":18238:18247   */\n      dup3\n        /* \"#utility.yul\":18233:18236   */\n      dup8\n        /* \"#utility.yul\":18229:18248   */\n      add\n        /* \"#utility.yul\":18223:18249   */\n      mload\n        /* \"#utility.yul\":18214:18249   */\n      swap1\n      pop\n        /* \"#utility.yul\":18186:18263   */\n    tag_498:\n        /* \"#utility.yul\":18289:18356   */\n      tag_499\n        /* \"#utility.yul\":18349:18355   */\n      dup6\n        /* \"#utility.yul\":18342:18347   */\n      dup3\n        /* \"#utility.yul\":18289:18356   */\n      tag_309\n      jump\t// in\n    tag_499:\n        /* \"#utility.yul\":18283:18287   */\n      dup7\n        /* \"#utility.yul\":18276:18357   */\n      sstore\n        /* \"#utility.yul\":18145:18367   */\n      pop\n        /* \"#utility.yul\":17480:18367   */\n      jump(tag_496)\n        /* \"#utility.yul\":17510:18128   */\n    tag_497:\n        /* \"#utility.yul\":17562:17566   */\n      0x1f\n        /* \"#utility.yul\":17558:17567   */\n      not\n        /* \"#utility.yul\":17550:17556   */\n      dup5\n        /* \"#utility.yul\":17546:17568   */\n      and\n        /* \"#utility.yul\":17596:17633   */\n      tag_500\n        /* \"#utility.yul\":17628:17632   */\n      dup7\n        /* \"#utility.yul\":17596:17633   */\n      tag_294\n      jump\t// in\n    tag_500:\n        /* \"#utility.yul\":17655:17656   */\n      0x00\n        /* \"#utility.yul\":17669:17877   */\n    tag_501:\n        /* \"#utility.yul\":17683:17690   */\n      dup3\n        /* \"#utility.yul\":17680:17681   */\n      dup2\n        /* \"#utility.yul\":17677:17691   */\n      lt\n        /* \"#utility.yul\":17669:17877   */\n      iszero\n      tag_503\n      jumpi\n        /* \"#utility.yul\":17762:17771   */\n      dup5\n        /* \"#utility.yul\":17757:17760   */\n      dup10\n        /* \"#utility.yul\":17753:17772   */\n      add\n        /* \"#utility.yul\":17747:17773   */\n      mload\n        /* \"#utility.yul\":17739:17745   */\n      dup3\n        /* \"#utility.yul\":17732:17774   */\n      sstore\n        /* \"#utility.yul\":17813:17814   */\n      0x01\n        /* \"#utility.yul\":17805:17811   */\n      dup3\n        /* \"#utility.yul\":17801:17815   */\n      add\n        /* \"#utility.yul\":17791:17815   */\n      swap2\n      pop\n        /* \"#utility.yul\":17860:17862   */\n      0x20\n        /* \"#utility.yul\":17849:17858   */\n      dup6\n        /* \"#utility.yul\":17845:17863   */\n      add\n        /* \"#utility.yul\":17832:17863   */\n      swap5\n      pop\n        /* \"#utility.yul\":17706:17710   */\n      0x20\n        /* \"#utility.yul\":17703:17704   */\n      dup2\n        /* \"#utility.yul\":17699:17711   */\n      add\n        /* \"#utility.yul\":17694:17711   */\n      swap1\n      pop\n        /* \"#utility.yul\":17669:17877   */\n      jump(tag_501)\n    tag_503:\n        /* \"#utility.yul\":17905:17911   */\n      dup7\n        /* \"#utility.yul\":17896:17903   */\n      dup4\n        /* \"#utility.yul\":17893:17912   */\n      lt\n        /* \"#utility.yul\":17890:18069   */\n      iszero\n      tag_504\n      jumpi\n        /* \"#utility.yul\":17963:17972   */\n      dup5\n        /* \"#utility.yul\":17958:17961   */\n      dup10\n        /* \"#utility.yul\":17954:17973   */\n      add\n        /* \"#utility.yul\":17948:17974   */\n      mload\n        /* \"#utility.yul\":18006:18054   */\n      tag_505\n        /* \"#utility.yul\":18048:18052   */\n      0x1f\n        /* \"#utility.yul\":18040:18046   */\n      dup10\n        /* \"#utility.yul\":18036:18053   */\n      and\n        /* \"#utility.yul\":18025:18034   */\n      dup3\n        /* \"#utility.yul\":18006:18054   */\n      tag_308\n      jump\t// in\n    tag_505:\n        /* \"#utility.yul\":17998:18004   */\n      dup4\n        /* \"#utility.yul\":17991:18055   */\n      sstore\n        /* \"#utility.yul\":17913:18069   */\n      pop\n        /* \"#utility.yul\":17890:18069   */\n    tag_504:\n        /* \"#utility.yul\":18115:18116   */\n      0x01\n        /* \"#utility.yul\":18111:18112   */\n      0x02\n        /* \"#utility.yul\":18103:18109   */\n      dup9\n        /* \"#utility.yul\":18099:18113   */\n      mul\n        /* \"#utility.yul\":18095:18117   */\n      add\n        /* \"#utility.yul\":18089:18093   */\n      dup9\n        /* \"#utility.yul\":18082:18118   */\n      sstore\n        /* \"#utility.yul\":17517:18128   */\n      pop\n      pop\n      pop\n        /* \"#utility.yul\":17480:18367   */\n    tag_496:\n      pop\n        /* \"#utility.yul\":17070:18373   */\n      pop\n      pop\n      pop\n        /* \"#utility.yul\":16978:18373   */\n      pop\n      pop\n      jump\t// out\n        /* \"#utility.yul\":18379:18559   */\n    tag_149:\n        /* \"#utility.yul\":18427:18504   */\n      0x4e487b7100000000000000000000000000000000000000000000000000000000\n        /* \"#utility.yul\":18424:18425   */\n      0x00\n        /* \"#utility.yul\":18417:18505   */\n      mstore\n        /* \"#utility.yul\":18524:18528   */\n      0x32\n        /* \"#utility.yul\":18521:18522   */\n      0x04\n        /* \"#utility.yul\":18514:18529   */\n      mstore\n        /* \"#utility.yul\":18548:18552   */\n      0x24\n        /* \"#utility.yul\":18545:18546   */\n      0x00\n        /* \"#utility.yul\":18538:18553   */\n      revert\n        /* \"#utility.yul\":18565:18745   */\n    tag_310:\n        /* \"#utility.yul\":18613:18690   */\n      0x4e487b7100000000000000000000000000000000000000000000000000000000\n        /* \"#utility.yul\":18610:18611   */\n      0x00\n        /* \"#utility.yul\":18603:18691   */\n      mstore\n        /* \"#utility.yul\":18710:18714   */\n      0x11\n        /* \"#utility.yul\":18707:18708   */\n      0x04\n        /* \"#utility.yul\":18700:18715   */\n      mstore\n        /* \"#utility.yul\":18734:18738   */\n      0x24\n        /* \"#utility.yul\":18731:18732   */\n      0x00\n        /* \"#utility.yul\":18724:18739   */\n      revert\n        /* \"#utility.yul\":18751:18984   */\n    tag_155:\n        /* \"#utility.yul\":18790:18793   */\n      0x00\n        /* \"#utility.yul\":18813:18837   */\n      tag_509\n        /* \"#utility.yul\":18831:18836   */\n      dup3\n        /* \"#utility.yul\":18813:18837   */\n      tag_298\n      jump\t// in\n    tag_509:\n        /* \"#utility.yul\":18804:18837   */\n      swap2\n      pop\n        /* \"#utility.yul\":18859:18925   */\n      0xffffffffffffffffffffffffffffffffffffffffffffffffffffffffffffffff\n        /* \"#utility.yul\":18852:18857   */\n      dup3\n        /* \"#utility.yul\":18849:18926   */\n      sub\n        /* \"#utility.yul\":18846:18949   */\n      tag_510\n      jumpi\n        /* \"#utility.yul\":18929:18947   */\n      tag_511\n      tag_310\n      jump\t// in\n    tag_511:\n        /* \"#utility.yul\":18846:18949   */\n    tag_510:\n        /* \"#utility.yul\":18976:18977   */\n      0x01\n        /* \"#utility.yul\":18969:18974   */\n      dup3\n        /* \"#utility.yul\":18965:18978   */\n      add\n        /* \"#utility.yul\":18958:18978   */\n      swap1\n      pop\n        /* \"#utility.yul\":18751:18984   */\n      swap2\n      swap1\n      pop\n      jump\t// out\n        /* \"#utility.yul\":18990:19104   */\n    tag_311:\n      pop\n      jump\t// out\n        /* \"#utility.yul\":19110:19510   */\n    tag_312:\n        /* \"#utility.yul\":19270:19273   */\n      0x00\n        /* \"#utility.yul\":19291:19375   */\n      tag_514\n        /* \"#utility.yul\":19373:19374   */\n      0x00\n        /* \"#utility.yul\":19368:19371   */\n      dup4\n        /* \"#utility.yul\":19291:19375   */\n      tag_291\n      jump\t// in\n    tag_514:\n        /* \"#utility.yul\":19284:19375   */\n      swap2\n      pop\n        /* \"#utility.yul\":19384:19477   */\n      tag_515\n        /* \"#utility.yul\":19473:19476   */\n      dup3\n        /* \"#utility.yul\":19384:19477   */\n      tag_311\n      jump\t// in\n    tag_515:\n        /* \"#utility.yul\":19502:19503   */\n      0x00\n        /* \"#utility.yul\":19497:19500   */\n      dup3\n        /* \"#utility.yul\":19493:19504   */\n      add\n        /* \"#utility.yul\":19486:19504   */\n      swap1\n      pop\n        /* \"#utility.yul\":19110:19510   */\n      swap2\n      swap1\n      pop\n      jump\t// out\n        /* \"#utility.yul\":19516:19897   */\n    tag_200:\n        /* \"#utility.yul\":19701:19704   */\n      0x00\n        /* \"#utility.yul\":19723:19871   */\n      tag_517\n        /* \"#utility.yul\":19867:19870   */\n      dup3\n        /* \"#utility.yul\":19723:19871   */\n      tag_312\n      jump\t// in\n    tag_517:\n        /* \"#utility.yul\":19716:19871   */\n      swap2\n      pop\n        /* \"#utility.yul\":19888:19891   */\n      dup2\n        /* \"#utility.yul\":19881:19891   */\n      swap1\n      pop\n        /* \"#utility.yul\":19516:19897   */\n      swap2\n      swap1\n      pop\n      jump\t// out\n        /* \"#utility.yul\":19927:20801   */\n    tag_313:\n        /* \"#utility.yul\":20030:20033   */\n      0x00\n        /* \"#utility.yul\":20067:20072   */\n      dup2\n        /* \"#utility.yul\":20061:20073   */\n      sload\n        /* \"#utility.yul\":20096:20132   */\n      tag_519\n        /* \"#utility.yul\":20122:20131   */\n      dup2\n        /* \"#utility.yul\":20096:20132   */\n      tag_78\n      jump\t// in\n    tag_519:\n        /* \"#utility.yul\":20148:20237   */\n      tag_520\n        /* \"#utility.yul\":20230:20236   */\n      dup2\n        /* \"#utility.yul\":20225:20228   */\n      dup7\n        /* \"#utility.yul\":20148:20237   */\n      tag_291\n      jump\t// in\n    tag_520:\n        /* \"#utility.yul\":20141:20237   */\n      swap5\n      pop\n        /* \"#utility.yul\":20268:20269   */\n      0x01\n        /* \"#utility.yul\":20257:20266   */\n      dup3\n        /* \"#utility.yul\":20253:20270   */\n      and\n        /* \"#utility.yul\":20284:20285   */\n      0x00\n        /* \"#utility.yul\":20279:20445   */\n      dup2\n      eq\n      tag_522\n      jumpi\n        /* \"#utility.yul\":20459:20460   */\n      0x01\n        /* \"#utility.yul\":20454:20795   */\n      dup2\n      eq\n      tag_523\n      jumpi\n        /* \"#utility.yul\":20246:20795   */\n      jump(tag_521)\n        /* \"#utility.yul\":20279:20445   */\n    tag_522:\n        /* \"#utility.yul\":20363:20367   */\n      0xff\n        /* \"#utility.yul\":20359:20368   */\n      not\n        /* \"#utility.yul\":20348:20357   */\n      dup4\n        /* \"#utility.yul\":20344:20369   */\n      and\n        /* \"#utility.yul\":20339:20342   */\n      dup7\n        /* \"#utility.yul\":20332:20370   */\n      mstore\n        /* \"#utility.yul\":20425:20431   */\n      dup2\n        /* \"#utility.yul\":20418:20432   */\n      iszero\n        /* \"#utility.yul\":20411:20433   */\n      iszero\n        /* \"#utility.yul\":20403:20409   */\n      dup3\n        /* \"#utility.yul\":20399:20434   */\n      mul\n        /* \"#utility.yul\":20394:20397   */\n      dup7\n        /* \"#utility.yul\":20390:20435   */\n      add\n        /* \"#utility.yul\":20383:20435   */\n      swap4\n      pop\n        /* \"#utility.yul\":20279:20445   */\n      jump(tag_521)\n        /* \"#utility.yul\":20454:20795   */\n    tag_523:\n        /* \"#utility.yul\":20521:20559   */\n      tag_524\n        /* \"#utility.yul\":20553:20558   */\n      dup6\n        /* \"#utility.yul\":20521:20559   */\n      tag_294\n      jump\t// in\n    tag_524:\n        /* \"#utility.yul\":20581:20582   */\n      0x00\n        /* \"#utility.yul\":20595:20749   */\n    tag_525:\n        /* \"#utility.yul\":20609:20615   */\n      dup4\n        /* \"#utility.yul\":20606:20607   */\n      dup2\n        /* \"#utility.yul\":20603:20616   */\n      lt\n        /* \"#utility.yul\":20595:20749   */\n      iszero\n      tag_527\n      jumpi\n        /* \"#utility.yul\":20683:20690   */\n      dup2\n        /* \"#utility.yul\":20677:20691   */\n      sload\n        /* \"#utility.yul\":20673:20674   */\n      dup2\n        /* \"#utility.yul\":20668:20671   */\n      dup10\n        /* \"#utility.yul\":20664:20675   */\n      add\n        /* \"#utility.yul\":20657:20692   */\n      mstore\n        /* \"#utility.yul\":20733:20734   */\n      0x01\n        /* \"#utility.yul\":20724:20731   */\n      dup3\n        /* \"#utility.yul\":20720:20735   */\n      add\n        /* \"#utility.yul\":20709:20735   */\n      swap2\n      pop\n        /* \"#utility.yul\":20631:20635   */\n      0x20\n        /* \"#utility.yul\":20628:20629   */\n      dup2\n        /* \"#utility.yul\":20624:20636   */\n      add\n        /* \"#utility.yul\":20619:20636   */\n      swap1\n      pop\n        /* \"#utility.yul\":20595:20749   */\n      jump(tag_525)\n    tag_527:\n        /* \"#utility.yul\":20778:20784   */\n      dup4\n        /* \"#utility.yul\":20773:20776   */\n      dup9\n        /* \"#utility.yul\":20769:20785   */\n      add\n        /* \"#utility.yul\":20762:20785   */\n      swap6\n      pop\n        /* \"#utility.yul\":20461:20795   */\n      pop\n      pop\n        /* \"#utility.yul\":20246:20795   */\n    tag_521:\n      pop\n        /* \"#utility.yul\":20034:20801   */\n      pop\n      pop\n        /* \"#utility.yul\":19927:20801   */\n      swap3\n      swap2\n      pop\n      pop\n      jump\t// out\n        /* \"#utility.yul\":20807:21076   */\n    tag_203:\n        /* \"#utility.yul\":20936:20939   */\n      0x00\n        /* \"#utility.yul\":20958:21050   */\n      tag_529\n        /* \"#utility.yul\":21046:21049   */\n      dup3\n        /* \"#utility.yul\":21037:21043   */\n      dup5\n        /* \"#utility.yul\":20958:21050   */\n      tag_313\n      jump\t// in\n    tag_529:\n        /* \"#utility.yul\":20951:21050   */\n      swap2\n      pop\n        /* \"#utility.yul\":21067:21070   */\n      dup2\n        /* \"#utility.yul\":21060:21070   */\n      swap1\n      pop\n        /* \"#utility.yul\":20807:21076   */\n      swap3\n      swap2\n      pop\n      pop\n      jump\t// out\n\n    auxdata: 0xa26469706673582212203349ec7fee606f4ab143a74231e6d19b4624f60a85255b2bf5a9f54070ba366c64736f6c63430008120033\n}\n",
				"bytecode": {
					"linkReferences": {},
					"object": "608060405234801561001057600080fd5b50336000806101000a81548173ffffffffffffffffffffffffffffffffffffffff021916908373ffffffffffffffffffffffffffffffffffffffff16021790555061209c806100606000396000f3fe608060405234801561001057600080fd5b506004361061009e5760003560e01c8063893d20e811610066578063893d20e814610157578063bed34bba14610175578063c77cfeeb146101a5578063d430e05a146101d5578063f70e1c5e146102055761009e565b8063081396eb146100a357806315c19c1d146100bf578063379f8fc2146100db57806351f40dd61461010b57806363c60bd51461013b575b600080fd5b6100bd60048036038101906100b891906116c6565b610235565b005b6100d960048036038101906100d491906116c6565b6102d8565b005b6100f560048036038101906100f0919061173e565b61037b565b6040516101029190611926565b60405180910390f35b61012560048036038101906101209190611a2e565b6105b0565b6040516101329190611926565b60405180910390f35b61015560048036038101906101509190611aa6565b610ad5565b005b61015f610b89565b60405161016c9190611b5f565b60405180910390f35b61018f600480360381019061018a91906116c6565b610bb2565b60405161019c9190611b95565b60405180910390f35b6101bf60048036038101906101ba919061173e565b610c80565b6040516101cc9190611926565b60405180910390f35b6101ef60048036038101906101ea91906116c6565b610f61565b6040516101fc9190611b95565b60405180910390f35b61021f600480360381019061021a919061173e565b611190565b60405161022c9190611926565b60405180910390f35b610274826040518060400160405280600881526020017f757365724c656e73000000000000000000000000000000000000000000000000815250610f61565b6102d457806006836040516102899190611bec565b908152602001604051809103902090816102a39190611e19565b50816002826040516102b59190611bec565b908152602001604051809103902060010190816102d29190611e19565b505b5050565b610317826040518060400160405280600881526020017f7573657257434944000000000000000000000000000000000000000000000000815250610f61565b610377578060048360405161032c9190611bec565b908152602001604051809103902090816103469190611e19565b50816002826040516103589190611bec565b908152602001604051809103902060000190816103759190611e19565b505b5050565b610383611471565b6002826040516103939190611bec565b90815260200160405180910390206040518060600160405290816000820180546103bc90611c32565b80601f01602080910402602001604051908101604052809291908181526020018280546103e890611c32565b80156104355780601f1061040a57610100808354040283529160200191610435565b820191906000526020600020905b81548152906001019060200180831161041857829003601f168201915b5050505050815260200160018201805461044e90611c32565b80601f016020809104026020016040519081016040528092919081815260200182805461047a90611c32565b80156104c75780601f1061049c576101008083540402835291602001916104c7565b820191906000526020600020905b8154815290600101906020018083116104aa57829003601f168201915b5050505050815260200160028201805480602002602001604051908101604052809291908181526020016000905b828210156105a157838290600052602060002001805461051490611c32565b80601f016020809104026020016040519081016040528092919081815260200182805461054090611c32565b801561058d5780601f106105625761010080835404028352916020019161058d565b820191906000526020600020905b81548152906001019060200180831161057057829003601f168201915b5050505050815260200190600101906104f5565b50505050815250509050919050565b6105b8611471565b60006002846040516105ca9190611bec565b90815260200160405180910390206040518060600160405290816000820180546105f390611c32565b80601f016020809104026020016040519081016040528092919081815260200182805461061f90611c32565b801561066c5780601f106106415761010080835404028352916020019161066c565b820191906000526020600020905b81548152906001019060200180831161064f57829003601f168201915b5050505050815260200160018201805461068590611c32565b80601f01602080910402602001604051908101604052809291908181526020018280546106b190611c32565b80156106fe5780601f106106d3576101008083540402835291602001916106fe565b820191906000526020600020905b8154815290600101906020018083116106e157829003601f168201915b5050505050815260200160028201805480602002602001604051908101604052809291908181526020016000905b828210156107d857838290600052602060002001805461074b90611c32565b80601f016020809104026020016040519081016040528092919081815260200182805461077790611c32565b80156107c45780601f10610799576101008083540402835291602001916107c4565b820191906000526020600020905b8154815290600101906020018083116107a757829003601f168201915b50505050508152602001906001019061072c565b505050508152505090506000816040015151146107f85780915050610acf565b6040518060600160405280604051806020016040528060008152508152602001604051806020016040528060008152508152602001848152506002856040516108419190611bec565b908152602001604051809103902060008201518160000190816108649190611e19565b50602082015181600101908161087a9190611e19565b506040820151816002019080519060200190610897929190611492565b509050506108a58385610ad5565b6002846040516108b59190611bec565b90815260200160405180910390206040518060600160405290816000820180546108de90611c32565b80601f016020809104026020016040519081016040528092919081815260200182805461090a90611c32565b80156109575780601f1061092c57610100808354040283529160200191610957565b820191906000526020600020905b81548152906001019060200180831161093a57829003601f168201915b5050505050815260200160018201805461097090611c32565b80601f016020809104026020016040519081016040528092919081815260200182805461099c90611c32565b80156109e95780601f106109be576101008083540402835291602001916109e9565b820191906000526020600020905b8154815290600101906020018083116109cc57829003601f168201915b5050505050815260200160028201805480602002602001604051908101604052809291908181526020016000905b82821015610ac3578382906000526020600020018054610a3690611c32565b80601f0160208091040260200160405190810160405280929190818152602001828054610a6290611c32565b8015610aaf5780601f10610a8457610100808354040283529160200191610aaf565b820191906000526020600020905b815481529060010190602001808311610a9257829003601f168201915b505050505081526020019060010190610a17565b50505050815250509150505b92915050565b60005b8251811015610b84576000838281518110610af657610af5611eeb565b5b60200260200101519050610b3f816040518060400160405280600b81526020017f7573657257616c6c657473000000000000000000000000000000000000000000815250610f61565b610b705782600582604051610b549190611bec565b90815260200160405180910390209081610b6e9190611e19565b505b508080610b7c90611f49565b915050610ad8565b505050565b60008060009054906101000a900473ffffffffffffffffffffffffffffffffffffffff16905090565b60008151835114610bc65760009050610c7a565b60005b8351811015610c7457828181518110610be557610be4611eeb565b5b602001015160f81c60f81b7effffffffffffffffffffffffffffffffffffffffffffffffffffffffffffff1916848281518110610c2557610c24611eeb565b5b602001015160f81c60f81b7effffffffffffffffffffffffffffffffffffffffffffffffffffffffffffff191614610c61576000915050610c7a565b8080610c6c90611f49565b915050610bc9565b50600190505b92915050565b610c88611471565b6000600683604051610c9a9190611bec565b90815260200160405180910390208054610cb390611c32565b80601f0160208091040260200160405190810160405280929190818152602001828054610cdf90611c32565b8015610d2c5780601f10610d0157610100808354040283529160200191610d2c565b820191906000526020600020905b815481529060010190602001808311610d0f57829003601f168201915b50505050509050600281604051610d439190611bec565b9081526020016040518091039020604051806060016040529081600082018054610d6c90611c32565b80601f0160208091040260200160405190810160405280929190818152602001828054610d9890611c32565b8015610de55780601f10610dba57610100808354040283529160200191610de5565b820191906000526020600020905b815481529060010190602001808311610dc857829003601f168201915b50505050508152602001600182018054610dfe90611c32565b80601f0160208091040260200160405190810160405280929190818152602001828054610e2a90611c32565b8015610e775780601f10610e4c57610100808354040283529160200191610e77565b820191906000526020600020905b815481529060010190602001808311610e5a57829003601f168201915b5050505050815260200160028201805480602002602001604051908101604052809291908181526020016000905b82821015610f51578382906000526020600020018054610ec490611c32565b80601f0160208091040260200160405190810160405280929190818152602001828054610ef090611c32565b8015610f3d5780601f10610f1257610100808354040283529160200191610f3d565b820191906000526020600020905b815481529060010190602001808311610f2057829003601f168201915b505050505081526020019060010190610ea5565b5050505081525050915050919050565b6000610fa2826040518060400160405280600b81526020017f7573657257616c6c657473000000000000000000000000000000000000000000815250610bb2565b1561101957604051602001610fb690611fb7565b60405160208183030381529060405280519060200120600584604051610fdc9190611bec565b9081526020016040518091039020604051602001610ffa919061204f565b604051602081830303815290604052805190602001201415905061118a565b611058826040518060400160405280600881526020017f757365724c656e73000000000000000000000000000000000000000000000000815250610bb2565b156110cf5760405160200161106c90611fb7565b604051602081830303815290604052805190602001206006846040516110929190611bec565b90815260200160405180910390206040516020016110b0919061204f565b604051602081830303815290604052805190602001201415905061118a565b61110e826040518060400160405280600881526020017f7573657257434944000000000000000000000000000000000000000000000000815250610bb2565b156111855760405160200161112290611fb7565b604051602081830303815290604052805190602001206004846040516111489190611bec565b9081526020016040518091039020604051602001611166919061204f565b604051602081830303815290604052805190602001201415905061118a565b600090505b92915050565b611198611471565b60006004836040516111aa9190611bec565b908152602001604051809103902080546111c390611c32565b80601f01602080910402602001604051908101604052809291908181526020018280546111ef90611c32565b801561123c5780601f106112115761010080835404028352916020019161123c565b820191906000526020600020905b81548152906001019060200180831161121f57829003601f168201915b505050505090506002816040516112539190611bec565b908152602001604051809103902060405180606001604052908160008201805461127c90611c32565b80601f01602080910402602001604051908101604052809291908181526020018280546112a890611c32565b80156112f55780601f106112ca576101008083540402835291602001916112f5565b820191906000526020600020905b8154815290600101906020018083116112d857829003601f168201915b5050505050815260200160018201805461130e90611c32565b80601f016020809104026020016040519081016040528092919081815260200182805461133a90611c32565b80156113875780601f1061135c57610100808354040283529160200191611387565b820191906000526020600020905b81548152906001019060200180831161136a57829003601f168201915b5050505050815260200160028201805480602002602001604051908101604052809291908181526020016000905b828210156114615783829060005260206000200180546113d490611c32565b80601f016020809104026020016040519081016040528092919081815260200182805461140090611c32565b801561144d5780601f106114225761010080835404028352916020019161144d565b820191906000526020600020905b81548152906001019060200180831161143057829003601f168201915b5050505050815260200190600101906113b5565b5050505081525050915050919050565b60405180606001604052806060815260200160608152602001606081525090565b8280548282559060005260206000209081019282156114da579160200282015b828111156114d95782518290816114c99190611e19565b50916020019190600101906114b2565b5b5090506114e791906114eb565b5090565b5b8082111561150b5760008181611502919061150f565b506001016114ec565b5090565b50805461151b90611c32565b6000825580601f1061152d575061154c565b601f01602090049060005260206000209081019061154b919061154f565b5b50565b5b80821115611568576000816000905550600101611550565b5090565b6000604051905090565b600080fd5b600080fd5b600080fd5b600080fd5b6000601f19601f8301169050919050565b7f4e487b7100000000000000000000000000000000000000000000000000000000600052604160045260246000fd5b6115d38261158a565b810181811067ffffffffffffffff821117156115f2576115f161159b565b5b80604052505050565b600061160561156c565b905061161182826115ca565b919050565b600067ffffffffffffffff8211156116315761163061159b565b5b61163a8261158a565b9050602081019050919050565b82818337600083830152505050565b600061166961166484611616565b6115fb565b90508281526020810184848401111561168557611684611585565b5b611690848285611647565b509392505050565b600082601f8301126116ad576116ac611580565b5b81356116bd848260208601611656565b91505092915050565b600080604083850312156116dd576116dc611576565b5b600083013567ffffffffffffffff8111156116fb576116fa61157b565b5b61170785828601611698565b925050602083013567ffffffffffffffff8111156117285761172761157b565b5b61173485828601611698565b9150509250929050565b60006020828403121561175457611753611576565b5b600082013567ffffffffffffffff8111156117725761177161157b565b5b61177e84828501611698565b91505092915050565b600081519050919050565b600082825260208201905092915050565b60005b838110156117c15780820151818401526020810190506117a6565b60008484015250505050565b60006117d882611787565b6117e28185611792565b93506117f28185602086016117a3565b6117fb8161158a565b840191505092915050565b600081519050919050565b600082825260208201905092915050565b6000819050602082019050919050565b600061183e83836117cd565b905092915050565b6000602082019050919050565b600061185e82611806565b6118688185611811565b93508360208202850161187a85611822565b8060005b858110156118b657848403895281516118978582611832565b94506118a283611846565b925060208a0199505060018101905061187e565b50829750879550505050505092915050565b600060608301600083015184820360008601526118e582826117cd565b915050602083015184820360208601526118ff82826117cd565b915050604083015184820360408601526119198282611853565b9150508091505092915050565b6000602082019050818103600083015261194081846118c8565b905092915050565b600067ffffffffffffffff8211156119635761196261159b565b5b602082029050602081019050919050565b600080fd5b600061198c61198784611948565b6115fb565b905080838252602082019050602084028301858111156119af576119ae611974565b5b835b818110156119f657803567ffffffffffffffff8111156119d4576119d3611580565b5b8086016119e18982611698565b855260208501945050506020810190506119b1565b5050509392505050565b600082601f830112611a1557611a14611580565b5b8135611a25848260208601611979565b91505092915050565b60008060408385031215611a4557611a44611576565b5b600083013567ffffffffffffffff811115611a6357611a6261157b565b5b611a6f85828601611698565b925050602083013567ffffffffffffffff811115611a9057611a8f61157b565b5b611a9c85828601611a00565b9150509250929050565b60008060408385031215611abd57611abc611576565b5b600083013567ffffffffffffffff811115611adb57611ada61157b565b5b611ae785828601611a00565b925050602083013567ffffffffffffffff811115611b0857611b0761157b565b5b611b1485828601611698565b9150509250929050565b600073ffffffffffffffffffffffffffffffffffffffff82169050919050565b6000611b4982611b1e565b9050919050565b611b5981611b3e565b82525050565b6000602082019050611b746000830184611b50565b92915050565b60008115159050919050565b611b8f81611b7a565b82525050565b6000602082019050611baa6000830184611b86565b92915050565b600081905092915050565b6000611bc682611787565b611bd08185611bb0565b9350611be08185602086016117a3565b80840191505092915050565b6000611bf88284611bbb565b915081905092915050565b7f4e487b7100000000000000000000000000000000000000000000000000000000600052602260045260246000fd5b60006002820490506001821680611c4a57607f821691505b602082108103611c5d57611c5c611c03565b5b50919050565b60008190508160005260206000209050919050565b60006020601f8301049050919050565b600082821b905092915050565b600060088302611cc57fffffffffffffffffffffffffffffffffffffffffffffffffffffffffffffffff82611c88565b611ccf8683611c88565b95508019841693508086168417925050509392505050565b6000819050919050565b6000819050919050565b6000611d16611d11611d0c84611ce7565b611cf1565b611ce7565b9050919050565b6000819050919050565b611d3083611cfb565b611d44611d3c82611d1d565b848454611c95565b825550505050565b600090565b611d59611d4c565b611d64818484611d27565b505050565b5b81811015611d8857611d7d600082611d51565b600181019050611d6a565b5050565b601f821115611dcd57611d9e81611c63565b611da784611c78565b81016020851015611db6578190505b611dca611dc285611c78565b830182611d69565b50505b505050565b600082821c905092915050565b6000611df060001984600802611dd2565b1980831691505092915050565b6000611e098383611ddf565b9150826002028217905092915050565b611e2282611787565b67ffffffffffffffff811115611e3b57611e3a61159b565b5b611e458254611c32565b611e50828285611d8c565b600060209050601f831160018114611e835760008415611e71578287015190505b611e7b8582611dfd565b865550611ee3565b601f198416611e9186611c63565b60005b82811015611eb957848901518255600182019150602085019450602081019050611e94565b86831015611ed65784890151611ed2601f891682611ddf565b8355505b6001600288020188555050505b505050505050565b7f4e487b7100000000000000000000000000000000000000000000000000000000600052603260045260246000fd5b7f4e487b7100000000000000000000000000000000000000000000000000000000600052601160045260246000fd5b6000611f5482611ce7565b91507fffffffffffffffffffffffffffffffffffffffffffffffffffffffffffffffff8203611f8657611f85611f1a565b5b600182019050919050565b50565b6000611fa1600083611bb0565b9150611fac82611f91565b600082019050919050565b6000611fc282611f94565b9150819050919050565b60008154611fd981611c32565b611fe38186611bb0565b94506001821660008114611ffe576001811461201357612046565b60ff1983168652811515820286019350612046565b61201c85611c63565b60005b8381101561203e5781548189015260018201915060208101905061201f565b838801955050505b50505092915050565b600061205b8284611fcc565b91508190509291505056fea26469706673582212203349ec7fee606f4ab143a74231e6d19b4624f60a85255b2bf5a9f54070ba366c64736f6c63430008120033",
					"opcodes": "PUSH1 0x80 PUSH1 0x40 MSTORE CALLVALUE DUP1 ISZERO PUSH2 0x10 JUMPI PUSH1 0x0 DUP1 REVERT JUMPDEST POP CALLER PUSH1 0x0 DUP1 PUSH2 0x100 EXP DUP2 SLOAD DUP2 PUSH20 0xFFFFFFFFFFFFFFFFFFFFFFFFFFFFFFFFFFFFFFFF MUL NOT AND SWAP1 DUP4 PUSH20 0xFFFFFFFFFFFFFFFFFFFFFFFFFFFFFFFFFFFFFFFF AND MUL OR SWAP1 SSTORE POP PUSH2 0x209C DUP1 PUSH2 0x60 PUSH1 0x0 CODECOPY PUSH1 0x0 RETURN INVALID PUSH1 0x80 PUSH1 0x40 MSTORE CALLVALUE DUP1 ISZERO PUSH2 0x10 JUMPI PUSH1 0x0 DUP1 REVERT JUMPDEST POP PUSH1 0x4 CALLDATASIZE LT PUSH2 0x9E JUMPI PUSH1 0x0 CALLDATALOAD PUSH1 0xE0 SHR DUP1 PUSH4 0x893D20E8 GT PUSH2 0x66 JUMPI DUP1 PUSH4 0x893D20E8 EQ PUSH2 0x157 JUMPI DUP1 PUSH4 0xBED34BBA EQ PUSH2 0x175 JUMPI DUP1 PUSH4 0xC77CFEEB EQ PUSH2 0x1A5 JUMPI DUP1 PUSH4 0xD430E05A EQ PUSH2 0x1D5 JUMPI DUP1 PUSH4 0xF70E1C5E EQ PUSH2 0x205 JUMPI PUSH2 0x9E JUMP JUMPDEST DUP1 PUSH4 0x81396EB EQ PUSH2 0xA3 JUMPI DUP1 PUSH4 0x15C19C1D EQ PUSH2 0xBF JUMPI DUP1 PUSH4 0x379F8FC2 EQ PUSH2 0xDB JUMPI DUP1 PUSH4 0x51F40DD6 EQ PUSH2 0x10B JUMPI DUP1 PUSH4 0x63C60BD5 EQ PUSH2 0x13B JUMPI JUMPDEST PUSH1 0x0 DUP1 REVERT JUMPDEST PUSH2 0xBD PUSH1 0x4 DUP1 CALLDATASIZE SUB DUP2 ADD SWAP1 PUSH2 0xB8 SWAP2 SWAP1 PUSH2 0x16C6 JUMP JUMPDEST PUSH2 0x235 JUMP JUMPDEST STOP JUMPDEST PUSH2 0xD9 PUSH1 0x4 DUP1 CALLDATASIZE SUB DUP2 ADD SWAP1 PUSH2 0xD4 SWAP2 SWAP1 PUSH2 0x16C6 JUMP JUMPDEST PUSH2 0x2D8 JUMP JUMPDEST STOP JUMPDEST PUSH2 0xF5 PUSH1 0x4 DUP1 CALLDATASIZE SUB DUP2 ADD SWAP1 PUSH2 0xF0 SWAP2 SWAP1 PUSH2 0x173E JUMP JUMPDEST PUSH2 0x37B JUMP JUMPDEST PUSH1 0x40 MLOAD PUSH2 0x102 SWAP2 SWAP1 PUSH2 0x1926 JUMP JUMPDEST PUSH1 0x40 MLOAD DUP1 SWAP2 SUB SWAP1 RETURN JUMPDEST PUSH2 0x125 PUSH1 0x4 DUP1 CALLDATASIZE SUB DUP2 ADD SWAP1 PUSH2 0x120 SWAP2 SWAP1 PUSH2 0x1A2E JUMP JUMPDEST PUSH2 0x5B0 JUMP JUMPDEST PUSH1 0x40 MLOAD PUSH2 0x132 SWAP2 SWAP1 PUSH2 0x1926 JUMP JUMPDEST PUSH1 0x40 MLOAD DUP1 SWAP2 SUB SWAP1 RETURN JUMPDEST PUSH2 0x155 PUSH1 0x4 DUP1 CALLDATASIZE SUB DUP2 ADD SWAP1 PUSH2 0x150 SWAP2 SWAP1 PUSH2 0x1AA6 JUMP JUMPDEST PUSH2 0xAD5 JUMP JUMPDEST STOP JUMPDEST PUSH2 0x15F PUSH2 0xB89 JUMP JUMPDEST PUSH1 0x40 MLOAD PUSH2 0x16C SWAP2 SWAP1 PUSH2 0x1B5F JUMP JUMPDEST PUSH1 0x40 MLOAD DUP1 SWAP2 SUB SWAP1 RETURN JUMPDEST PUSH2 0x18F PUSH1 0x4 DUP1 CALLDATASIZE SUB DUP2 ADD SWAP1 PUSH2 0x18A SWAP2 SWAP1 PUSH2 0x16C6 JUMP JUMPDEST PUSH2 0xBB2 JUMP JUMPDEST PUSH1 0x40 MLOAD PUSH2 0x19C SWAP2 SWAP1 PUSH2 0x1B95 JUMP JUMPDEST PUSH1 0x40 MLOAD DUP1 SWAP2 SUB SWAP1 RETURN JUMPDEST PUSH2 0x1BF PUSH1 0x4 DUP1 CALLDATASIZE SUB DUP2 ADD SWAP1 PUSH2 0x1BA SWAP2 SWAP1 PUSH2 0x173E JUMP JUMPDEST PUSH2 0xC80 JUMP JUMPDEST PUSH1 0x40 MLOAD PUSH2 0x1CC SWAP2 SWAP1 PUSH2 0x1926 JUMP JUMPDEST PUSH1 0x40 MLOAD DUP1 SWAP2 SUB SWAP1 RETURN JUMPDEST PUSH2 0x1EF PUSH1 0x4 DUP1 CALLDATASIZE SUB DUP2 ADD SWAP1 PUSH2 0x1EA SWAP2 SWAP1 PUSH2 0x16C6 JUMP JUMPDEST PUSH2 0xF61 JUMP JUMPDEST PUSH1 0x40 MLOAD PUSH2 0x1FC SWAP2 SWAP1 PUSH2 0x1B95 JUMP JUMPDEST PUSH1 0x40 MLOAD DUP1 SWAP2 SUB SWAP1 RETURN JUMPDEST PUSH2 0x21F PUSH1 0x4 DUP1 CALLDATASIZE SUB DUP2 ADD SWAP1 PUSH2 0x21A SWAP2 SWAP1 PUSH2 0x173E JUMP JUMPDEST PUSH2 0x1190 JUMP JUMPDEST PUSH1 0x40 MLOAD PUSH2 0x22C SWAP2 SWAP1 PUSH2 0x1926 JUMP JUMPDEST PUSH1 0x40 MLOAD DUP1 SWAP2 SUB SWAP1 RETURN JUMPDEST PUSH2 0x274 DUP3 PUSH1 0x40 MLOAD DUP1 PUSH1 0x40 ADD PUSH1 0x40 MSTORE DUP1 PUSH1 0x8 DUP2 MSTORE PUSH1 0x20 ADD PUSH32 0x757365724C656E73000000000000000000000000000000000000000000000000 DUP2 MSTORE POP PUSH2 0xF61 JUMP JUMPDEST PUSH2 0x2D4 JUMPI DUP1 PUSH1 0x6 DUP4 PUSH1 0x40 MLOAD PUSH2 0x289 SWAP2 SWAP1 PUSH2 0x1BEC JUMP JUMPDEST SWAP1 DUP2 MSTORE PUSH1 0x20 ADD PUSH1 0x40 MLOAD DUP1 SWAP2 SUB SWAP1 KECCAK256 SWAP1 DUP2 PUSH2 0x2A3 SWAP2 SWAP1 PUSH2 0x1E19 JUMP JUMPDEST POP DUP2 PUSH1 0x2 DUP3 PUSH1 0x40 MLOAD PUSH2 0x2B5 SWAP2 SWAP1 PUSH2 0x1BEC JUMP JUMPDEST SWAP1 DUP2 MSTORE PUSH1 0x20 ADD PUSH1 0x40 MLOAD DUP1 SWAP2 SUB SWAP1 KECCAK256 PUSH1 0x1 ADD SWAP1 DUP2 PUSH2 0x2D2 SWAP2 SWAP1 PUSH2 0x1E19 JUMP JUMPDEST POP JUMPDEST POP POP JUMP JUMPDEST PUSH2 0x317 DUP3 PUSH1 0x40 MLOAD DUP1 PUSH1 0x40 ADD PUSH1 0x40 MSTORE DUP1 PUSH1 0x8 DUP2 MSTORE PUSH1 0x20 ADD PUSH32 0x7573657257434944000000000000000000000000000000000000000000000000 DUP2 MSTORE POP PUSH2 0xF61 JUMP JUMPDEST PUSH2 0x377 JUMPI DUP1 PUSH1 0x4 DUP4 PUSH1 0x40 MLOAD PUSH2 0x32C SWAP2 SWAP1 PUSH2 0x1BEC JUMP JUMPDEST SWAP1 DUP2 MSTORE PUSH1 0x20 ADD PUSH1 0x40 MLOAD DUP1 SWAP2 SUB SWAP1 KECCAK256 SWAP1 DUP2 PUSH2 0x346 SWAP2 SWAP1 PUSH2 0x1E19 JUMP JUMPDEST POP DUP2 PUSH1 0x2 DUP3 PUSH1 0x40 MLOAD PUSH2 0x358 SWAP2 SWAP1 PUSH2 0x1BEC JUMP JUMPDEST SWAP1 DUP2 MSTORE PUSH1 0x20 ADD PUSH1 0x40 MLOAD DUP1 SWAP2 SUB SWAP1 KECCAK256 PUSH1 0x0 ADD SWAP1 DUP2 PUSH2 0x375 SWAP2 SWAP1 PUSH2 0x1E19 JUMP JUMPDEST POP JUMPDEST POP POP JUMP JUMPDEST PUSH2 0x383 PUSH2 0x1471 JUMP JUMPDEST PUSH1 0x2 DUP3 PUSH1 0x40 MLOAD PUSH2 0x393 SWAP2 SWAP1 PUSH2 0x1BEC JUMP JUMPDEST SWAP1 DUP2 MSTORE PUSH1 0x20 ADD PUSH1 0x40 MLOAD DUP1 SWAP2 SUB SWAP1 KECCAK256 PUSH1 0x40 MLOAD DUP1 PUSH1 0x60 ADD PUSH1 0x40 MSTORE SWAP1 DUP2 PUSH1 0x0 DUP3 ADD DUP1 SLOAD PUSH2 0x3BC SWAP1 PUSH2 0x1C32 JUMP JUMPDEST DUP1 PUSH1 0x1F ADD PUSH1 0x20 DUP1 SWAP2 DIV MUL PUSH1 0x20 ADD PUSH1 0x40 MLOAD SWAP1 DUP2 ADD PUSH1 0x40 MSTORE DUP1 SWAP3 SWAP2 SWAP1 DUP2 DUP2 MSTORE PUSH1 0x20 ADD DUP3 DUP1 SLOAD PUSH2 0x3E8 SWAP1 PUSH2 0x1C32 JUMP JUMPDEST DUP1 ISZERO PUSH2 0x435 JUMPI DUP1 PUSH1 0x1F LT PUSH2 0x40A JUMPI PUSH2 0x100 DUP1 DUP4 SLOAD DIV MUL DUP4 MSTORE SWAP2 PUSH1 0x20 ADD SWAP2 PUSH2 0x435 JUMP JUMPDEST DUP3 ADD SWAP2 SWAP1 PUSH1 0x0 MSTORE PUSH1 0x20 PUSH1 0x0 KECCAK256 SWAP1 JUMPDEST DUP2 SLOAD DUP2 MSTORE SWAP1 PUSH1 0x1 ADD SWAP1 PUSH1 0x20 ADD DUP1 DUP4 GT PUSH2 0x418 JUMPI DUP3 SWAP1 SUB PUSH1 0x1F AND DUP3 ADD SWAP2 JUMPDEST POP POP POP POP POP DUP2 MSTORE PUSH1 0x20 ADD PUSH1 0x1 DUP3 ADD DUP1 SLOAD PUSH2 0x44E SWAP1 PUSH2 0x1C32 JUMP JUMPDEST DUP1 PUSH1 0x1F ADD PUSH1 0x20 DUP1 SWAP2 DIV MUL PUSH1 0x20 ADD PUSH1 0x40 MLOAD SWAP1 DUP2 ADD PUSH1 0x40 MSTORE DUP1 SWAP3 SWAP2 SWAP1 DUP2 DUP2 MSTORE PUSH1 0x20 ADD DUP3 DUP1 SLOAD PUSH2 0x47A SWAP1 PUSH2 0x1C32 JUMP JUMPDEST DUP1 ISZERO PUSH2 0x4C7 JUMPI DUP1 PUSH1 0x1F LT PUSH2 0x49C JUMPI PUSH2 0x100 DUP1 DUP4 SLOAD DIV MUL DUP4 MSTORE SWAP2 PUSH1 0x20 ADD SWAP2 PUSH2 0x4C7 JUMP JUMPDEST DUP3 ADD SWAP2 SWAP1 PUSH1 0x0 MSTORE PUSH1 0x20 PUSH1 0x0 KECCAK256 SWAP1 JUMPDEST DUP2 SLOAD DUP2 MSTORE SWAP1 PUSH1 0x1 ADD SWAP1 PUSH1 0x20 ADD DUP1 DUP4 GT PUSH2 0x4AA JUMPI DUP3 SWAP1 SUB PUSH1 0x1F AND DUP3 ADD SWAP2 JUMPDEST POP POP POP POP POP DUP2 MSTORE PUSH1 0x20 ADD PUSH1 0x2 DUP3 ADD DUP1 SLOAD DUP1 PUSH1 0x20 MUL PUSH1 0x20 ADD PUSH1 0x40 MLOAD SWAP1 DUP2 ADD PUSH1 0x40 MSTORE DUP1 SWAP3 SWAP2 SWAP1 DUP2 DUP2 MSTORE PUSH1 0x20 ADD PUSH1 0x0 SWAP1 JUMPDEST DUP3 DUP3 LT ISZERO PUSH2 0x5A1 JUMPI DUP4 DUP3 SWAP1 PUSH1 0x0 MSTORE PUSH1 0x20 PUSH1 0x0 KECCAK256 ADD DUP1 SLOAD PUSH2 0x514 SWAP1 PUSH2 0x1C32 JUMP JUMPDEST DUP1 PUSH1 0x1F ADD PUSH1 0x20 DUP1 SWAP2 DIV MUL PUSH1 0x20 ADD PUSH1 0x40 MLOAD SWAP1 DUP2 ADD PUSH1 0x40 MSTORE DUP1 SWAP3 SWAP2 SWAP1 DUP2 DUP2 MSTORE PUSH1 0x20 ADD DUP3 DUP1 SLOAD PUSH2 0x540 SWAP1 PUSH2 0x1C32 JUMP JUMPDEST DUP1 ISZERO PUSH2 0x58D JUMPI DUP1 PUSH1 0x1F LT PUSH2 0x562 JUMPI PUSH2 0x100 DUP1 DUP4 SLOAD DIV MUL DUP4 MSTORE SWAP2 PUSH1 0x20 ADD SWAP2 PUSH2 0x58D JUMP JUMPDEST DUP3 ADD SWAP2 SWAP1 PUSH1 0x0 MSTORE PUSH1 0x20 PUSH1 0x0 KECCAK256 SWAP1 JUMPDEST DUP2 SLOAD DUP2 MSTORE SWAP1 PUSH1 0x1 ADD SWAP1 PUSH1 0x20 ADD DUP1 DUP4 GT PUSH2 0x570 JUMPI DUP3 SWAP1 SUB PUSH1 0x1F AND DUP3 ADD SWAP2 JUMPDEST POP POP POP POP POP DUP2 MSTORE PUSH1 0x20 ADD SWAP1 PUSH1 0x1 ADD SWAP1 PUSH2 0x4F5 JUMP JUMPDEST POP POP POP POP DUP2 MSTORE POP POP SWAP1 POP SWAP2 SWAP1 POP JUMP JUMPDEST PUSH2 0x5B8 PUSH2 0x1471 JUMP JUMPDEST PUSH1 0x0 PUSH1 0x2 DUP5 PUSH1 0x40 MLOAD PUSH2 0x5CA SWAP2 SWAP1 PUSH2 0x1BEC JUMP JUMPDEST SWAP1 DUP2 MSTORE PUSH1 0x20 ADD PUSH1 0x40 MLOAD DUP1 SWAP2 SUB SWAP1 KECCAK256 PUSH1 0x40 MLOAD DUP1 PUSH1 0x60 ADD PUSH1 0x40 MSTORE SWAP1 DUP2 PUSH1 0x0 DUP3 ADD DUP1 SLOAD PUSH2 0x5F3 SWAP1 PUSH2 0x1C32 JUMP JUMPDEST DUP1 PUSH1 0x1F ADD PUSH1 0x20 DUP1 SWAP2 DIV MUL PUSH1 0x20 ADD PUSH1 0x40 MLOAD SWAP1 DUP2 ADD PUSH1 0x40 MSTORE DUP1 SWAP3 SWAP2 SWAP1 DUP2 DUP2 MSTORE PUSH1 0x20 ADD DUP3 DUP1 SLOAD PUSH2 0x61F SWAP1 PUSH2 0x1C32 JUMP JUMPDEST DUP1 ISZERO PUSH2 0x66C JUMPI DUP1 PUSH1 0x1F LT PUSH2 0x641 JUMPI PUSH2 0x100 DUP1 DUP4 SLOAD DIV MUL DUP4 MSTORE SWAP2 PUSH1 0x20 ADD SWAP2 PUSH2 0x66C JUMP JUMPDEST DUP3 ADD SWAP2 SWAP1 PUSH1 0x0 MSTORE PUSH1 0x20 PUSH1 0x0 KECCAK256 SWAP1 JUMPDEST DUP2 SLOAD DUP2 MSTORE SWAP1 PUSH1 0x1 ADD SWAP1 PUSH1 0x20 ADD DUP1 DUP4 GT PUSH2 0x64F JUMPI DUP3 SWAP1 SUB PUSH1 0x1F AND DUP3 ADD SWAP2 JUMPDEST POP POP POP POP POP DUP2 MSTORE PUSH1 0x20 ADD PUSH1 0x1 DUP3 ADD DUP1 SLOAD PUSH2 0x685 SWAP1 PUSH2 0x1C32 JUMP JUMPDEST DUP1 PUSH1 0x1F ADD PUSH1 0x20 DUP1 SWAP2 DIV MUL PUSH1 0x20 ADD PUSH1 0x40 MLOAD SWAP1 DUP2 ADD PUSH1 0x40 MSTORE DUP1 SWAP3 SWAP2 SWAP1 DUP2 DUP2 MSTORE PUSH1 0x20 ADD DUP3 DUP1 SLOAD PUSH2 0x6B1 SWAP1 PUSH2 0x1C32 JUMP JUMPDEST DUP1 ISZERO PUSH2 0x6FE JUMPI DUP1 PUSH1 0x1F LT PUSH2 0x6D3 JUMPI PUSH2 0x100 DUP1 DUP4 SLOAD DIV MUL DUP4 MSTORE SWAP2 PUSH1 0x20 ADD SWAP2 PUSH2 0x6FE JUMP JUMPDEST DUP3 ADD SWAP2 SWAP1 PUSH1 0x0 MSTORE PUSH1 0x20 PUSH1 0x0 KECCAK256 SWAP1 JUMPDEST DUP2 SLOAD DUP2 MSTORE SWAP1 PUSH1 0x1 ADD SWAP1 PUSH1 0x20 ADD DUP1 DUP4 GT PUSH2 0x6E1 JUMPI DUP3 SWAP1 SUB PUSH1 0x1F AND DUP3 ADD SWAP2 JUMPDEST POP POP POP POP POP DUP2 MSTORE PUSH1 0x20 ADD PUSH1 0x2 DUP3 ADD DUP1 SLOAD DUP1 PUSH1 0x20 MUL PUSH1 0x20 ADD PUSH1 0x40 MLOAD SWAP1 DUP2 ADD PUSH1 0x40 MSTORE DUP1 SWAP3 SWAP2 SWAP1 DUP2 DUP2 MSTORE PUSH1 0x20 ADD PUSH1 0x0 SWAP1 JUMPDEST DUP3 DUP3 LT ISZERO PUSH2 0x7D8 JUMPI DUP4 DUP3 SWAP1 PUSH1 0x0 MSTORE PUSH1 0x20 PUSH1 0x0 KECCAK256 ADD DUP1 SLOAD PUSH2 0x74B SWAP1 PUSH2 0x1C32 JUMP JUMPDEST DUP1 PUSH1 0x1F ADD PUSH1 0x20 DUP1 SWAP2 DIV MUL PUSH1 0x20 ADD PUSH1 0x40 MLOAD SWAP1 DUP2 ADD PUSH1 0x40 MSTORE DUP1 SWAP3 SWAP2 SWAP1 DUP2 DUP2 MSTORE PUSH1 0x20 ADD DUP3 DUP1 SLOAD PUSH2 0x777 SWAP1 PUSH2 0x1C32 JUMP JUMPDEST DUP1 ISZERO PUSH2 0x7C4 JUMPI DUP1 PUSH1 0x1F LT PUSH2 0x799 JUMPI PUSH2 0x100 DUP1 DUP4 SLOAD DIV MUL DUP4 MSTORE SWAP2 PUSH1 0x20 ADD SWAP2 PUSH2 0x7C4 JUMP JUMPDEST DUP3 ADD SWAP2 SWAP1 PUSH1 0x0 MSTORE PUSH1 0x20 PUSH1 0x0 KECCAK256 SWAP1 JUMPDEST DUP2 SLOAD DUP2 MSTORE SWAP1 PUSH1 0x1 ADD SWAP1 PUSH1 0x20 ADD DUP1 DUP4 GT PUSH2 0x7A7 JUMPI DUP3 SWAP1 SUB PUSH1 0x1F AND DUP3 ADD SWAP2 JUMPDEST POP POP POP POP POP DUP2 MSTORE PUSH1 0x20 ADD SWAP1 PUSH1 0x1 ADD SWAP1 PUSH2 0x72C JUMP JUMPDEST POP POP POP POP DUP2 MSTORE POP POP SWAP1 POP PUSH1 0x0 DUP2 PUSH1 0x40 ADD MLOAD MLOAD EQ PUSH2 0x7F8 JUMPI DUP1 SWAP2 POP POP PUSH2 0xACF JUMP JUMPDEST PUSH1 0x40 MLOAD DUP1 PUSH1 0x60 ADD PUSH1 0x40 MSTORE DUP1 PUSH1 0x40 MLOAD DUP1 PUSH1 0x20 ADD PUSH1 0x40 MSTORE DUP1 PUSH1 0x0 DUP2 MSTORE POP DUP2 MSTORE PUSH1 0x20 ADD PUSH1 0x40 MLOAD DUP1 PUSH1 0x20 ADD PUSH1 0x40 MSTORE DUP1 PUSH1 0x0 DUP2 MSTORE POP DUP2 MSTORE PUSH1 0x20 ADD DUP5 DUP2 MSTORE POP PUSH1 0x2 DUP6 PUSH1 0x40 MLOAD PUSH2 0x841 SWAP2 SWAP1 PUSH2 0x1BEC JUMP JUMPDEST SWAP1 DUP2 MSTORE PUSH1 0x20 ADD PUSH1 0x40 MLOAD DUP1 SWAP2 SUB SWAP1 KECCAK256 PUSH1 0x0 DUP3 ADD MLOAD DUP2 PUSH1 0x0 ADD SWAP1 DUP2 PUSH2 0x864 SWAP2 SWAP1 PUSH2 0x1E19 JUMP JUMPDEST POP PUSH1 0x20 DUP3 ADD MLOAD DUP2 PUSH1 0x1 ADD SWAP1 DUP2 PUSH2 0x87A SWAP2 SWAP1 PUSH2 0x1E19 JUMP JUMPDEST POP PUSH1 0x40 DUP3 ADD MLOAD DUP2 PUSH1 0x2 ADD SWAP1 DUP1 MLOAD SWAP1 PUSH1 0x20 ADD SWAP1 PUSH2 0x897 SWAP3 SWAP2 SWAP1 PUSH2 0x1492 JUMP JUMPDEST POP SWAP1 POP POP PUSH2 0x8A5 DUP4 DUP6 PUSH2 0xAD5 JUMP JUMPDEST PUSH1 0x2 DUP5 PUSH1 0x40 MLOAD PUSH2 0x8B5 SWAP2 SWAP1 PUSH2 0x1BEC JUMP JUMPDEST SWAP1 DUP2 MSTORE PUSH1 0x20 ADD PUSH1 0x40 MLOAD DUP1 SWAP2 SUB SWAP1 KECCAK256 PUSH1 0x40 MLOAD DUP1 PUSH1 0x60 ADD PUSH1 0x40 MSTORE SWAP1 DUP2 PUSH1 0x0 DUP3 ADD DUP1 SLOAD PUSH2 0x8DE SWAP1 PUSH2 0x1C32 JUMP JUMPDEST DUP1 PUSH1 0x1F ADD PUSH1 0x20 DUP1 SWAP2 DIV MUL PUSH1 0x20 ADD PUSH1 0x40 MLOAD SWAP1 DUP2 ADD PUSH1 0x40 MSTORE DUP1 SWAP3 SWAP2 SWAP1 DUP2 DUP2 MSTORE PUSH1 0x20 ADD DUP3 DUP1 SLOAD PUSH2 0x90A SWAP1 PUSH2 0x1C32 JUMP JUMPDEST DUP1 ISZERO PUSH2 0x957 JUMPI DUP1 PUSH1 0x1F LT PUSH2 0x92C JUMPI PUSH2 0x100 DUP1 DUP4 SLOAD DIV MUL DUP4 MSTORE SWAP2 PUSH1 0x20 ADD SWAP2 PUSH2 0x957 JUMP JUMPDEST DUP3 ADD SWAP2 SWAP1 PUSH1 0x0 MSTORE PUSH1 0x20 PUSH1 0x0 KECCAK256 SWAP1 JUMPDEST DUP2 SLOAD DUP2 MSTORE SWAP1 PUSH1 0x1 ADD SWAP1 PUSH1 0x20 ADD DUP1 DUP4 GT PUSH2 0x93A JUMPI DUP3 SWAP1 SUB PUSH1 0x1F AND DUP3 ADD SWAP2 JUMPDEST POP POP POP POP POP DUP2 MSTORE PUSH1 0x20 ADD PUSH1 0x1 DUP3 ADD DUP1 SLOAD PUSH2 0x970 SWAP1 PUSH2 0x1C32 JUMP JUMPDEST DUP1 PUSH1 0x1F ADD PUSH1 0x20 DUP1 SWAP2 DIV MUL PUSH1 0x20 ADD PUSH1 0x40 MLOAD SWAP1 DUP2 ADD PUSH1 0x40 MSTORE DUP1 SWAP3 SWAP2 SWAP1 DUP2 DUP2 MSTORE PUSH1 0x20 ADD DUP3 DUP1 SLOAD PUSH2 0x99C SWAP1 PUSH2 0x1C32 JUMP JUMPDEST DUP1 ISZERO PUSH2 0x9E9 JUMPI DUP1 PUSH1 0x1F LT PUSH2 0x9BE JUMPI PUSH2 0x100 DUP1 DUP4 SLOAD DIV MUL DUP4 MSTORE SWAP2 PUSH1 0x20 ADD SWAP2 PUSH2 0x9E9 JUMP JUMPDEST DUP3 ADD SWAP2 SWAP1 PUSH1 0x0 MSTORE PUSH1 0x20 PUSH1 0x0 KECCAK256 SWAP1 JUMPDEST DUP2 SLOAD DUP2 MSTORE SWAP1 PUSH1 0x1 ADD SWAP1 PUSH1 0x20 ADD DUP1 DUP4 GT PUSH2 0x9CC JUMPI DUP3 SWAP1 SUB PUSH1 0x1F AND DUP3 ADD SWAP2 JUMPDEST POP POP POP POP POP DUP2 MSTORE PUSH1 0x20 ADD PUSH1 0x2 DUP3 ADD DUP1 SLOAD DUP1 PUSH1 0x20 MUL PUSH1 0x20 ADD PUSH1 0x40 MLOAD SWAP1 DUP2 ADD PUSH1 0x40 MSTORE DUP1 SWAP3 SWAP2 SWAP1 DUP2 DUP2 MSTORE PUSH1 0x20 ADD PUSH1 0x0 SWAP1 JUMPDEST DUP3 DUP3 LT ISZERO PUSH2 0xAC3 JUMPI DUP4 DUP3 SWAP1 PUSH1 0x0 MSTORE PUSH1 0x20 PUSH1 0x0 KECCAK256 ADD DUP1 SLOAD PUSH2 0xA36 SWAP1 PUSH2 0x1C32 JUMP JUMPDEST DUP1 PUSH1 0x1F ADD PUSH1 0x20 DUP1 SWAP2 DIV MUL PUSH1 0x20 ADD PUSH1 0x40 MLOAD SWAP1 DUP2 ADD PUSH1 0x40 MSTORE DUP1 SWAP3 SWAP2 SWAP1 DUP2 DUP2 MSTORE PUSH1 0x20 ADD DUP3 DUP1 SLOAD PUSH2 0xA62 SWAP1 PUSH2 0x1C32 JUMP JUMPDEST DUP1 ISZERO PUSH2 0xAAF JUMPI DUP1 PUSH1 0x1F LT PUSH2 0xA84 JUMPI PUSH2 0x100 DUP1 DUP4 SLOAD DIV MUL DUP4 MSTORE SWAP2 PUSH1 0x20 ADD SWAP2 PUSH2 0xAAF JUMP JUMPDEST DUP3 ADD SWAP2 SWAP1 PUSH1 0x0 MSTORE PUSH1 0x20 PUSH1 0x0 KECCAK256 SWAP1 JUMPDEST DUP2 SLOAD DUP2 MSTORE SWAP1 PUSH1 0x1 ADD SWAP1 PUSH1 0x20 ADD DUP1 DUP4 GT PUSH2 0xA92 JUMPI DUP3 SWAP1 SUB PUSH1 0x1F AND DUP3 ADD SWAP2 JUMPDEST POP POP POP POP POP DUP2 MSTORE PUSH1 0x20 ADD SWAP1 PUSH1 0x1 ADD SWAP1 PUSH2 0xA17 JUMP JUMPDEST POP POP POP POP DUP2 MSTORE POP POP SWAP2 POP POP JUMPDEST SWAP3 SWAP2 POP POP JUMP JUMPDEST PUSH1 0x0 JUMPDEST DUP3 MLOAD DUP2 LT ISZERO PUSH2 0xB84 JUMPI PUSH1 0x0 DUP4 DUP3 DUP2 MLOAD DUP2 LT PUSH2 0xAF6 JUMPI PUSH2 0xAF5 PUSH2 0x1EEB JUMP JUMPDEST JUMPDEST PUSH1 0x20 MUL PUSH1 0x20 ADD ADD MLOAD SWAP1 POP PUSH2 0xB3F DUP2 PUSH1 0x40 MLOAD DUP1 PUSH1 0x40 ADD PUSH1 0x40 MSTORE DUP1 PUSH1 0xB DUP2 MSTORE PUSH1 0x20 ADD PUSH32 0x7573657257616C6C657473000000000000000000000000000000000000000000 DUP2 MSTORE POP PUSH2 0xF61 JUMP JUMPDEST PUSH2 0xB70 JUMPI DUP3 PUSH1 0x5 DUP3 PUSH1 0x40 MLOAD PUSH2 0xB54 SWAP2 SWAP1 PUSH2 0x1BEC JUMP JUMPDEST SWAP1 DUP2 MSTORE PUSH1 0x20 ADD PUSH1 0x40 MLOAD DUP1 SWAP2 SUB SWAP1 KECCAK256 SWAP1 DUP2 PUSH2 0xB6E SWAP2 SWAP1 PUSH2 0x1E19 JUMP JUMPDEST POP JUMPDEST POP DUP1 DUP1 PUSH2 0xB7C SWAP1 PUSH2 0x1F49 JUMP JUMPDEST SWAP2 POP POP PUSH2 0xAD8 JUMP JUMPDEST POP POP POP JUMP JUMPDEST PUSH1 0x0 DUP1 PUSH1 0x0 SWAP1 SLOAD SWAP1 PUSH2 0x100 EXP SWAP1 DIV PUSH20 0xFFFFFFFFFFFFFFFFFFFFFFFFFFFFFFFFFFFFFFFF AND SWAP1 POP SWAP1 JUMP JUMPDEST PUSH1 0x0 DUP2 MLOAD DUP4 MLOAD EQ PUSH2 0xBC6 JUMPI PUSH1 0x0 SWAP1 POP PUSH2 0xC7A JUMP JUMPDEST PUSH1 0x0 JUMPDEST DUP4 MLOAD DUP2 LT ISZERO PUSH2 0xC74 JUMPI DUP3 DUP2 DUP2 MLOAD DUP2 LT PUSH2 0xBE5 JUMPI PUSH2 0xBE4 PUSH2 0x1EEB JUMP JUMPDEST JUMPDEST PUSH1 0x20 ADD ADD MLOAD PUSH1 0xF8 SHR PUSH1 0xF8 SHL PUSH31 0xFFFFFFFFFFFFFFFFFFFFFFFFFFFFFFFFFFFFFFFFFFFFFFFFFFFFFFFFFFFFFF NOT AND DUP5 DUP3 DUP2 MLOAD DUP2 LT PUSH2 0xC25 JUMPI PUSH2 0xC24 PUSH2 0x1EEB JUMP JUMPDEST JUMPDEST PUSH1 0x20 ADD ADD MLOAD PUSH1 0xF8 SHR PUSH1 0xF8 SHL PUSH31 0xFFFFFFFFFFFFFFFFFFFFFFFFFFFFFFFFFFFFFFFFFFFFFFFFFFFFFFFFFFFFFF NOT AND EQ PUSH2 0xC61 JUMPI PUSH1 0x0 SWAP2 POP POP PUSH2 0xC7A JUMP JUMPDEST DUP1 DUP1 PUSH2 0xC6C SWAP1 PUSH2 0x1F49 JUMP JUMPDEST SWAP2 POP POP PUSH2 0xBC9 JUMP JUMPDEST POP PUSH1 0x1 SWAP1 POP JUMPDEST SWAP3 SWAP2 POP POP JUMP JUMPDEST PUSH2 0xC88 PUSH2 0x1471 JUMP JUMPDEST PUSH1 0x0 PUSH1 0x6 DUP4 PUSH1 0x40 MLOAD PUSH2 0xC9A SWAP2 SWAP1 PUSH2 0x1BEC JUMP JUMPDEST SWAP1 DUP2 MSTORE PUSH1 0x20 ADD PUSH1 0x40 MLOAD DUP1 SWAP2 SUB SWAP1 KECCAK256 DUP1 SLOAD PUSH2 0xCB3 SWAP1 PUSH2 0x1C32 JUMP JUMPDEST DUP1 PUSH1 0x1F ADD PUSH1 0x20 DUP1 SWAP2 DIV MUL PUSH1 0x20 ADD PUSH1 0x40 MLOAD SWAP1 DUP2 ADD PUSH1 0x40 MSTORE DUP1 SWAP3 SWAP2 SWAP1 DUP2 DUP2 MSTORE PUSH1 0x20 ADD DUP3 DUP1 SLOAD PUSH2 0xCDF SWAP1 PUSH2 0x1C32 JUMP JUMPDEST DUP1 ISZERO PUSH2 0xD2C JUMPI DUP1 PUSH1 0x1F LT PUSH2 0xD01 JUMPI PUSH2 0x100 DUP1 DUP4 SLOAD DIV MUL DUP4 MSTORE SWAP2 PUSH1 0x20 ADD SWAP2 PUSH2 0xD2C JUMP JUMPDEST DUP3 ADD SWAP2 SWAP1 PUSH1 0x0 MSTORE PUSH1 0x20 PUSH1 0x0 KECCAK256 SWAP1 JUMPDEST DUP2 SLOAD DUP2 MSTORE SWAP1 PUSH1 0x1 ADD SWAP1 PUSH1 0x20 ADD DUP1 DUP4 GT PUSH2 0xD0F JUMPI DUP3 SWAP1 SUB PUSH1 0x1F AND DUP3 ADD SWAP2 JUMPDEST POP POP POP POP POP SWAP1 POP PUSH1 0x2 DUP2 PUSH1 0x40 MLOAD PUSH2 0xD43 SWAP2 SWAP1 PUSH2 0x1BEC JUMP JUMPDEST SWAP1 DUP2 MSTORE PUSH1 0x20 ADD PUSH1 0x40 MLOAD DUP1 SWAP2 SUB SWAP1 KECCAK256 PUSH1 0x40 MLOAD DUP1 PUSH1 0x60 ADD PUSH1 0x40 MSTORE SWAP1 DUP2 PUSH1 0x0 DUP3 ADD DUP1 SLOAD PUSH2 0xD6C SWAP1 PUSH2 0x1C32 JUMP JUMPDEST DUP1 PUSH1 0x1F ADD PUSH1 0x20 DUP1 SWAP2 DIV MUL PUSH1 0x20 ADD PUSH1 0x40 MLOAD SWAP1 DUP2 ADD PUSH1 0x40 MSTORE DUP1 SWAP3 SWAP2 SWAP1 DUP2 DUP2 MSTORE PUSH1 0x20 ADD DUP3 DUP1 SLOAD PUSH2 0xD98 SWAP1 PUSH2 0x1C32 JUMP JUMPDEST DUP1 ISZERO PUSH2 0xDE5 JUMPI DUP1 PUSH1 0x1F LT PUSH2 0xDBA JUMPI PUSH2 0x100 DUP1 DUP4 SLOAD DIV MUL DUP4 MSTORE SWAP2 PUSH1 0x20 ADD SWAP2 PUSH2 0xDE5 JUMP JUMPDEST DUP3 ADD SWAP2 SWAP1 PUSH1 0x0 MSTORE PUSH1 0x20 PUSH1 0x0 KECCAK256 SWAP1 JUMPDEST DUP2 SLOAD DUP2 MSTORE SWAP1 PUSH1 0x1 ADD SWAP1 PUSH1 0x20 ADD DUP1 DUP4 GT PUSH2 0xDC8 JUMPI DUP3 SWAP1 SUB PUSH1 0x1F AND DUP3 ADD SWAP2 JUMPDEST POP POP POP POP POP DUP2 MSTORE PUSH1 0x20 ADD PUSH1 0x1 DUP3 ADD DUP1 SLOAD PUSH2 0xDFE SWAP1 PUSH2 0x1C32 JUMP JUMPDEST DUP1 PUSH1 0x1F ADD PUSH1 0x20 DUP1 SWAP2 DIV MUL PUSH1 0x20 ADD PUSH1 0x40 MLOAD SWAP1 DUP2 ADD PUSH1 0x40 MSTORE DUP1 SWAP3 SWAP2 SWAP1 DUP2 DUP2 MSTORE PUSH1 0x20 ADD DUP3 DUP1 SLOAD PUSH2 0xE2A SWAP1 PUSH2 0x1C32 JUMP JUMPDEST DUP1 ISZERO PUSH2 0xE77 JUMPI DUP1 PUSH1 0x1F LT PUSH2 0xE4C JUMPI PUSH2 0x100 DUP1 DUP4 SLOAD DIV MUL DUP4 MSTORE SWAP2 PUSH1 0x20 ADD SWAP2 PUSH2 0xE77 JUMP JUMPDEST DUP3 ADD SWAP2 SWAP1 PUSH1 0x0 MSTORE PUSH1 0x20 PUSH1 0x0 KECCAK256 SWAP1 JUMPDEST DUP2 SLOAD DUP2 MSTORE SWAP1 PUSH1 0x1 ADD SWAP1 PUSH1 0x20 ADD DUP1 DUP4 GT PUSH2 0xE5A JUMPI DUP3 SWAP1 SUB PUSH1 0x1F AND DUP3 ADD SWAP2 JUMPDEST POP POP POP POP POP DUP2 MSTORE PUSH1 0x20 ADD PUSH1 0x2 DUP3 ADD DUP1 SLOAD DUP1 PUSH1 0x20 MUL PUSH1 0x20 ADD PUSH1 0x40 MLOAD SWAP1 DUP2 ADD PUSH1 0x40 MSTORE DUP1 SWAP3 SWAP2 SWAP1 DUP2 DUP2 MSTORE PUSH1 0x20 ADD PUSH1 0x0 SWAP1 JUMPDEST DUP3 DUP3 LT ISZERO PUSH2 0xF51 JUMPI DUP4 DUP3 SWAP1 PUSH1 0x0 MSTORE PUSH1 0x20 PUSH1 0x0 KECCAK256 ADD DUP1 SLOAD PUSH2 0xEC4 SWAP1 PUSH2 0x1C32 JUMP JUMPDEST DUP1 PUSH1 0x1F ADD PUSH1 0x20 DUP1 SWAP2 DIV MUL PUSH1 0x20 ADD PUSH1 0x40 MLOAD SWAP1 DUP2 ADD PUSH1 0x40 MSTORE DUP1 SWAP3 SWAP2 SWAP1 DUP2 DUP2 MSTORE PUSH1 0x20 ADD DUP3 DUP1 SLOAD PUSH2 0xEF0 SWAP1 PUSH2 0x1C32 JUMP JUMPDEST DUP1 ISZERO PUSH2 0xF3D JUMPI DUP1 PUSH1 0x1F LT PUSH2 0xF12 JUMPI PUSH2 0x100 DUP1 DUP4 SLOAD DIV MUL DUP4 MSTORE SWAP2 PUSH1 0x20 ADD SWAP2 PUSH2 0xF3D JUMP JUMPDEST DUP3 ADD SWAP2 SWAP1 PUSH1 0x0 MSTORE PUSH1 0x20 PUSH1 0x0 KECCAK256 SWAP1 JUMPDEST DUP2 SLOAD DUP2 MSTORE SWAP1 PUSH1 0x1 ADD SWAP1 PUSH1 0x20 ADD DUP1 DUP4 GT PUSH2 0xF20 JUMPI DUP3 SWAP1 SUB PUSH1 0x1F AND DUP3 ADD SWAP2 JUMPDEST POP POP POP POP POP DUP2 MSTORE PUSH1 0x20 ADD SWAP1 PUSH1 0x1 ADD SWAP1 PUSH2 0xEA5 JUMP JUMPDEST POP POP POP POP DUP2 MSTORE POP POP SWAP2 POP POP SWAP2 SWAP1 POP JUMP JUMPDEST PUSH1 0x0 PUSH2 0xFA2 DUP3 PUSH1 0x40 MLOAD DUP1 PUSH1 0x40 ADD PUSH1 0x40 MSTORE DUP1 PUSH1 0xB DUP2 MSTORE PUSH1 0x20 ADD PUSH32 0x7573657257616C6C657473000000000000000000000000000000000000000000 DUP2 MSTORE POP PUSH2 0xBB2 JUMP JUMPDEST ISZERO PUSH2 0x1019 JUMPI PUSH1 0x40 MLOAD PUSH1 0x20 ADD PUSH2 0xFB6 SWAP1 PUSH2 0x1FB7 JUMP JUMPDEST PUSH1 0x40 MLOAD PUSH1 0x20 DUP2 DUP4 SUB SUB DUP2 MSTORE SWAP1 PUSH1 0x40 MSTORE DUP1 MLOAD SWAP1 PUSH1 0x20 ADD KECCAK256 PUSH1 0x5 DUP5 PUSH1 0x40 MLOAD PUSH2 0xFDC SWAP2 SWAP1 PUSH2 0x1BEC JUMP JUMPDEST SWAP1 DUP2 MSTORE PUSH1 0x20 ADD PUSH1 0x40 MLOAD DUP1 SWAP2 SUB SWAP1 KECCAK256 PUSH1 0x40 MLOAD PUSH1 0x20 ADD PUSH2 0xFFA SWAP2 SWAP1 PUSH2 0x204F JUMP JUMPDEST PUSH1 0x40 MLOAD PUSH1 0x20 DUP2 DUP4 SUB SUB DUP2 MSTORE SWAP1 PUSH1 0x40 MSTORE DUP1 MLOAD SWAP1 PUSH1 0x20 ADD KECCAK256 EQ ISZERO SWAP1 POP PUSH2 0x118A JUMP JUMPDEST PUSH2 0x1058 DUP3 PUSH1 0x40 MLOAD DUP1 PUSH1 0x40 ADD PUSH1 0x40 MSTORE DUP1 PUSH1 0x8 DUP2 MSTORE PUSH1 0x20 ADD PUSH32 0x757365724C656E73000000000000000000000000000000000000000000000000 DUP2 MSTORE POP PUSH2 0xBB2 JUMP JUMPDEST ISZERO PUSH2 0x10CF JUMPI PUSH1 0x40 MLOAD PUSH1 0x20 ADD PUSH2 0x106C SWAP1 PUSH2 0x1FB7 JUMP JUMPDEST PUSH1 0x40 MLOAD PUSH1 0x20 DUP2 DUP4 SUB SUB DUP2 MSTORE SWAP1 PUSH1 0x40 MSTORE DUP1 MLOAD SWAP1 PUSH1 0x20 ADD KECCAK256 PUSH1 0x6 DUP5 PUSH1 0x40 MLOAD PUSH2 0x1092 SWAP2 SWAP1 PUSH2 0x1BEC JUMP JUMPDEST SWAP1 DUP2 MSTORE PUSH1 0x20 ADD PUSH1 0x40 MLOAD DUP1 SWAP2 SUB SWAP1 KECCAK256 PUSH1 0x40 MLOAD PUSH1 0x20 ADD PUSH2 0x10B0 SWAP2 SWAP1 PUSH2 0x204F JUMP JUMPDEST PUSH1 0x40 MLOAD PUSH1 0x20 DUP2 DUP4 SUB SUB DUP2 MSTORE SWAP1 PUSH1 0x40 MSTORE DUP1 MLOAD SWAP1 PUSH1 0x20 ADD KECCAK256 EQ ISZERO SWAP1 POP PUSH2 0x118A JUMP JUMPDEST PUSH2 0x110E DUP3 PUSH1 0x40 MLOAD DUP1 PUSH1 0x40 ADD PUSH1 0x40 MSTORE DUP1 PUSH1 0x8 DUP2 MSTORE PUSH1 0x20 ADD PUSH32 0x7573657257434944000000000000000000000000000000000000000000000000 DUP2 MSTORE POP PUSH2 0xBB2 JUMP JUMPDEST ISZERO PUSH2 0x1185 JUMPI PUSH1 0x40 MLOAD PUSH1 0x20 ADD PUSH2 0x1122 SWAP1 PUSH2 0x1FB7 JUMP JUMPDEST PUSH1 0x40 MLOAD PUSH1 0x20 DUP2 DUP4 SUB SUB DUP2 MSTORE SWAP1 PUSH1 0x40 MSTORE DUP1 MLOAD SWAP1 PUSH1 0x20 ADD KECCAK256 PUSH1 0x4 DUP5 PUSH1 0x40 MLOAD PUSH2 0x1148 SWAP2 SWAP1 PUSH2 0x1BEC JUMP JUMPDEST SWAP1 DUP2 MSTORE PUSH1 0x20 ADD PUSH1 0x40 MLOAD DUP1 SWAP2 SUB SWAP1 KECCAK256 PUSH1 0x40 MLOAD PUSH1 0x20 ADD PUSH2 0x1166 SWAP2 SWAP1 PUSH2 0x204F JUMP JUMPDEST PUSH1 0x40 MLOAD PUSH1 0x20 DUP2 DUP4 SUB SUB DUP2 MSTORE SWAP1 PUSH1 0x40 MSTORE DUP1 MLOAD SWAP1 PUSH1 0x20 ADD KECCAK256 EQ ISZERO SWAP1 POP PUSH2 0x118A JUMP JUMPDEST PUSH1 0x0 SWAP1 POP JUMPDEST SWAP3 SWAP2 POP POP JUMP JUMPDEST PUSH2 0x1198 PUSH2 0x1471 JUMP JUMPDEST PUSH1 0x0 PUSH1 0x4 DUP4 PUSH1 0x40 MLOAD PUSH2 0x11AA SWAP2 SWAP1 PUSH2 0x1BEC JUMP JUMPDEST SWAP1 DUP2 MSTORE PUSH1 0x20 ADD PUSH1 0x40 MLOAD DUP1 SWAP2 SUB SWAP1 KECCAK256 DUP1 SLOAD PUSH2 0x11C3 SWAP1 PUSH2 0x1C32 JUMP JUMPDEST DUP1 PUSH1 0x1F ADD PUSH1 0x20 DUP1 SWAP2 DIV MUL PUSH1 0x20 ADD PUSH1 0x40 MLOAD SWAP1 DUP2 ADD PUSH1 0x40 MSTORE DUP1 SWAP3 SWAP2 SWAP1 DUP2 DUP2 MSTORE PUSH1 0x20 ADD DUP3 DUP1 SLOAD PUSH2 0x11EF SWAP1 PUSH2 0x1C32 JUMP JUMPDEST DUP1 ISZERO PUSH2 0x123C JUMPI DUP1 PUSH1 0x1F LT PUSH2 0x1211 JUMPI PUSH2 0x100 DUP1 DUP4 SLOAD DIV MUL DUP4 MSTORE SWAP2 PUSH1 0x20 ADD SWAP2 PUSH2 0x123C JUMP JUMPDEST DUP3 ADD SWAP2 SWAP1 PUSH1 0x0 MSTORE PUSH1 0x20 PUSH1 0x0 KECCAK256 SWAP1 JUMPDEST DUP2 SLOAD DUP2 MSTORE SWAP1 PUSH1 0x1 ADD SWAP1 PUSH1 0x20 ADD DUP1 DUP4 GT PUSH2 0x121F JUMPI DUP3 SWAP1 SUB PUSH1 0x1F AND DUP3 ADD SWAP2 JUMPDEST POP POP POP POP POP SWAP1 POP PUSH1 0x2 DUP2 PUSH1 0x40 MLOAD PUSH2 0x1253 SWAP2 SWAP1 PUSH2 0x1BEC JUMP JUMPDEST SWAP1 DUP2 MSTORE PUSH1 0x20 ADD PUSH1 0x40 MLOAD DUP1 SWAP2 SUB SWAP1 KECCAK256 PUSH1 0x40 MLOAD DUP1 PUSH1 0x60 ADD PUSH1 0x40 MSTORE SWAP1 DUP2 PUSH1 0x0 DUP3 ADD DUP1 SLOAD PUSH2 0x127C SWAP1 PUSH2 0x1C32 JUMP JUMPDEST DUP1 PUSH1 0x1F ADD PUSH1 0x20 DUP1 SWAP2 DIV MUL PUSH1 0x20 ADD PUSH1 0x40 MLOAD SWAP1 DUP2 ADD PUSH1 0x40 MSTORE DUP1 SWAP3 SWAP2 SWAP1 DUP2 DUP2 MSTORE PUSH1 0x20 ADD DUP3 DUP1 SLOAD PUSH2 0x12A8 SWAP1 PUSH2 0x1C32 JUMP JUMPDEST DUP1 ISZERO PUSH2 0x12F5 JUMPI DUP1 PUSH1 0x1F LT PUSH2 0x12CA JUMPI PUSH2 0x100 DUP1 DUP4 SLOAD DIV MUL DUP4 MSTORE SWAP2 PUSH1 0x20 ADD SWAP2 PUSH2 0x12F5 JUMP JUMPDEST DUP3 ADD SWAP2 SWAP1 PUSH1 0x0 MSTORE PUSH1 0x20 PUSH1 0x0 KECCAK256 SWAP1 JUMPDEST DUP2 SLOAD DUP2 MSTORE SWAP1 PUSH1 0x1 ADD SWAP1 PUSH1 0x20 ADD DUP1 DUP4 GT PUSH2 0x12D8 JUMPI DUP3 SWAP1 SUB PUSH1 0x1F AND DUP3 ADD SWAP2 JUMPDEST POP POP POP POP POP DUP2 MSTORE PUSH1 0x20 ADD PUSH1 0x1 DUP3 ADD DUP1 SLOAD PUSH2 0x130E SWAP1 PUSH2 0x1C32 JUMP JUMPDEST DUP1 PUSH1 0x1F ADD PUSH1 0x20 DUP1 SWAP2 DIV MUL PUSH1 0x20 ADD PUSH1 0x40 MLOAD SWAP1 DUP2 ADD PUSH1 0x40 MSTORE DUP1 SWAP3 SWAP2 SWAP1 DUP2 DUP2 MSTORE PUSH1 0x20 ADD DUP3 DUP1 SLOAD PUSH2 0x133A SWAP1 PUSH2 0x1C32 JUMP JUMPDEST DUP1 ISZERO PUSH2 0x1387 JUMPI DUP1 PUSH1 0x1F LT PUSH2 0x135C JUMPI PUSH2 0x100 DUP1 DUP4 SLOAD DIV MUL DUP4 MSTORE SWAP2 PUSH1 0x20 ADD SWAP2 PUSH2 0x1387 JUMP JUMPDEST DUP3 ADD SWAP2 SWAP1 PUSH1 0x0 MSTORE PUSH1 0x20 PUSH1 0x0 KECCAK256 SWAP1 JUMPDEST DUP2 SLOAD DUP2 MSTORE SWAP1 PUSH1 0x1 ADD SWAP1 PUSH1 0x20 ADD DUP1 DUP4 GT PUSH2 0x136A JUMPI DUP3 SWAP1 SUB PUSH1 0x1F AND DUP3 ADD SWAP2 JUMPDEST POP POP POP POP POP DUP2 MSTORE PUSH1 0x20 ADD PUSH1 0x2 DUP3 ADD DUP1 SLOAD DUP1 PUSH1 0x20 MUL PUSH1 0x20 ADD PUSH1 0x40 MLOAD SWAP1 DUP2 ADD PUSH1 0x40 MSTORE DUP1 SWAP3 SWAP2 SWAP1 DUP2 DUP2 MSTORE PUSH1 0x20 ADD PUSH1 0x0 SWAP1 JUMPDEST DUP3 DUP3 LT ISZERO PUSH2 0x1461 JUMPI DUP4 DUP3 SWAP1 PUSH1 0x0 MSTORE PUSH1 0x20 PUSH1 0x0 KECCAK256 ADD DUP1 SLOAD PUSH2 0x13D4 SWAP1 PUSH2 0x1C32 JUMP JUMPDEST DUP1 PUSH1 0x1F ADD PUSH1 0x20 DUP1 SWAP2 DIV MUL PUSH1 0x20 ADD PUSH1 0x40 MLOAD SWAP1 DUP2 ADD PUSH1 0x40 MSTORE DUP1 SWAP3 SWAP2 SWAP1 DUP2 DUP2 MSTORE PUSH1 0x20 ADD DUP3 DUP1 SLOAD PUSH2 0x1400 SWAP1 PUSH2 0x1C32 JUMP JUMPDEST DUP1 ISZERO PUSH2 0x144D JUMPI DUP1 PUSH1 0x1F LT PUSH2 0x1422 JUMPI PUSH2 0x100 DUP1 DUP4 SLOAD DIV MUL DUP4 MSTORE SWAP2 PUSH1 0x20 ADD SWAP2 PUSH2 0x144D JUMP JUMPDEST DUP3 ADD SWAP2 SWAP1 PUSH1 0x0 MSTORE PUSH1 0x20 PUSH1 0x0 KECCAK256 SWAP1 JUMPDEST DUP2 SLOAD DUP2 MSTORE SWAP1 PUSH1 0x1 ADD SWAP1 PUSH1 0x20 ADD DUP1 DUP4 GT PUSH2 0x1430 JUMPI DUP3 SWAP1 SUB PUSH1 0x1F AND DUP3 ADD SWAP2 JUMPDEST POP POP POP POP POP DUP2 MSTORE PUSH1 0x20 ADD SWAP1 PUSH1 0x1 ADD SWAP1 PUSH2 0x13B5 JUMP JUMPDEST POP POP POP POP DUP2 MSTORE POP POP SWAP2 POP POP SWAP2 SWAP1 POP JUMP JUMPDEST PUSH1 0x40 MLOAD DUP1 PUSH1 0x60 ADD PUSH1 0x40 MSTORE DUP1 PUSH1 0x60 DUP2 MSTORE PUSH1 0x20 ADD PUSH1 0x60 DUP2 MSTORE PUSH1 0x20 ADD PUSH1 0x60 DUP2 MSTORE POP SWAP1 JUMP JUMPDEST DUP3 DUP1 SLOAD DUP3 DUP3 SSTORE SWAP1 PUSH1 0x0 MSTORE PUSH1 0x20 PUSH1 0x0 KECCAK256 SWAP1 DUP2 ADD SWAP3 DUP3 ISZERO PUSH2 0x14DA JUMPI SWAP2 PUSH1 0x20 MUL DUP3 ADD JUMPDEST DUP3 DUP2 GT ISZERO PUSH2 0x14D9 JUMPI DUP3 MLOAD DUP3 SWAP1 DUP2 PUSH2 0x14C9 SWAP2 SWAP1 PUSH2 0x1E19 JUMP JUMPDEST POP SWAP2 PUSH1 0x20 ADD SWAP2 SWAP1 PUSH1 0x1 ADD SWAP1 PUSH2 0x14B2 JUMP JUMPDEST JUMPDEST POP SWAP1 POP PUSH2 0x14E7 SWAP2 SWAP1 PUSH2 0x14EB JUMP JUMPDEST POP SWAP1 JUMP JUMPDEST JUMPDEST DUP1 DUP3 GT ISZERO PUSH2 0x150B JUMPI PUSH1 0x0 DUP2 DUP2 PUSH2 0x1502 SWAP2 SWAP1 PUSH2 0x150F JUMP JUMPDEST POP PUSH1 0x1 ADD PUSH2 0x14EC JUMP JUMPDEST POP SWAP1 JUMP JUMPDEST POP DUP1 SLOAD PUSH2 0x151B SWAP1 PUSH2 0x1C32 JUMP JUMPDEST PUSH1 0x0 DUP3 SSTORE DUP1 PUSH1 0x1F LT PUSH2 0x152D JUMPI POP PUSH2 0x154C JUMP JUMPDEST PUSH1 0x1F ADD PUSH1 0x20 SWAP1 DIV SWAP1 PUSH1 0x0 MSTORE PUSH1 0x20 PUSH1 0x0 KECCAK256 SWAP1 DUP2 ADD SWAP1 PUSH2 0x154B SWAP2 SWAP1 PUSH2 0x154F JUMP JUMPDEST JUMPDEST POP JUMP JUMPDEST JUMPDEST DUP1 DUP3 GT ISZERO PUSH2 0x1568 JUMPI PUSH1 0x0 DUP2 PUSH1 0x0 SWAP1 SSTORE POP PUSH1 0x1 ADD PUSH2 0x1550 JUMP JUMPDEST POP SWAP1 JUMP JUMPDEST PUSH1 0x0 PUSH1 0x40 MLOAD SWAP1 POP SWAP1 JUMP JUMPDEST PUSH1 0x0 DUP1 REVERT JUMPDEST PUSH1 0x0 DUP1 REVERT JUMPDEST PUSH1 0x0 DUP1 REVERT JUMPDEST PUSH1 0x0 DUP1 REVERT JUMPDEST PUSH1 0x0 PUSH1 0x1F NOT PUSH1 0x1F DUP4 ADD AND SWAP1 POP SWAP2 SWAP1 POP JUMP JUMPDEST PUSH32 0x4E487B7100000000000000000000000000000000000000000000000000000000 PUSH1 0x0 MSTORE PUSH1 0x41 PUSH1 0x4 MSTORE PUSH1 0x24 PUSH1 0x0 REVERT JUMPDEST PUSH2 0x15D3 DUP3 PUSH2 0x158A JUMP JUMPDEST DUP2 ADD DUP2 DUP2 LT PUSH8 0xFFFFFFFFFFFFFFFF DUP3 GT OR ISZERO PUSH2 0x15F2 JUMPI PUSH2 0x15F1 PUSH2 0x159B JUMP JUMPDEST JUMPDEST DUP1 PUSH1 0x40 MSTORE POP POP POP JUMP JUMPDEST PUSH1 0x0 PUSH2 0x1605 PUSH2 0x156C JUMP JUMPDEST SWAP1 POP PUSH2 0x1611 DUP3 DUP3 PUSH2 0x15CA JUMP JUMPDEST SWAP2 SWAP1 POP JUMP JUMPDEST PUSH1 0x0 PUSH8 0xFFFFFFFFFFFFFFFF DUP3 GT ISZERO PUSH2 0x1631 JUMPI PUSH2 0x1630 PUSH2 0x159B JUMP JUMPDEST JUMPDEST PUSH2 0x163A DUP3 PUSH2 0x158A JUMP JUMPDEST SWAP1 POP PUSH1 0x20 DUP2 ADD SWAP1 POP SWAP2 SWAP1 POP JUMP JUMPDEST DUP3 DUP2 DUP4 CALLDATACOPY PUSH1 0x0 DUP4 DUP4 ADD MSTORE POP POP POP JUMP JUMPDEST PUSH1 0x0 PUSH2 0x1669 PUSH2 0x1664 DUP5 PUSH2 0x1616 JUMP JUMPDEST PUSH2 0x15FB JUMP JUMPDEST SWAP1 POP DUP3 DUP2 MSTORE PUSH1 0x20 DUP2 ADD DUP5 DUP5 DUP5 ADD GT ISZERO PUSH2 0x1685 JUMPI PUSH2 0x1684 PUSH2 0x1585 JUMP JUMPDEST JUMPDEST PUSH2 0x1690 DUP5 DUP3 DUP6 PUSH2 0x1647 JUMP JUMPDEST POP SWAP4 SWAP3 POP POP POP JUMP JUMPDEST PUSH1 0x0 DUP3 PUSH1 0x1F DUP4 ADD SLT PUSH2 0x16AD JUMPI PUSH2 0x16AC PUSH2 0x1580 JUMP JUMPDEST JUMPDEST DUP2 CALLDATALOAD PUSH2 0x16BD DUP5 DUP3 PUSH1 0x20 DUP7 ADD PUSH2 0x1656 JUMP JUMPDEST SWAP2 POP POP SWAP3 SWAP2 POP POP JUMP JUMPDEST PUSH1 0x0 DUP1 PUSH1 0x40 DUP4 DUP6 SUB SLT ISZERO PUSH2 0x16DD JUMPI PUSH2 0x16DC PUSH2 0x1576 JUMP JUMPDEST JUMPDEST PUSH1 0x0 DUP4 ADD CALLDATALOAD PUSH8 0xFFFFFFFFFFFFFFFF DUP2 GT ISZERO PUSH2 0x16FB JUMPI PUSH2 0x16FA PUSH2 0x157B JUMP JUMPDEST JUMPDEST PUSH2 0x1707 DUP6 DUP3 DUP7 ADD PUSH2 0x1698 JUMP JUMPDEST SWAP3 POP POP PUSH1 0x20 DUP4 ADD CALLDATALOAD PUSH8 0xFFFFFFFFFFFFFFFF DUP2 GT ISZERO PUSH2 0x1728 JUMPI PUSH2 0x1727 PUSH2 0x157B JUMP JUMPDEST JUMPDEST PUSH2 0x1734 DUP6 DUP3 DUP7 ADD PUSH2 0x1698 JUMP JUMPDEST SWAP2 POP POP SWAP3 POP SWAP3 SWAP1 POP JUMP JUMPDEST PUSH1 0x0 PUSH1 0x20 DUP3 DUP5 SUB SLT ISZERO PUSH2 0x1754 JUMPI PUSH2 0x1753 PUSH2 0x1576 JUMP JUMPDEST JUMPDEST PUSH1 0x0 DUP3 ADD CALLDATALOAD PUSH8 0xFFFFFFFFFFFFFFFF DUP2 GT ISZERO PUSH2 0x1772 JUMPI PUSH2 0x1771 PUSH2 0x157B JUMP JUMPDEST JUMPDEST PUSH2 0x177E DUP5 DUP3 DUP6 ADD PUSH2 0x1698 JUMP JUMPDEST SWAP2 POP POP SWAP3 SWAP2 POP POP JUMP JUMPDEST PUSH1 0x0 DUP2 MLOAD SWAP1 POP SWAP2 SWAP1 POP JUMP JUMPDEST PUSH1 0x0 DUP3 DUP3 MSTORE PUSH1 0x20 DUP3 ADD SWAP1 POP SWAP3 SWAP2 POP POP JUMP JUMPDEST PUSH1 0x0 JUMPDEST DUP4 DUP2 LT ISZERO PUSH2 0x17C1 JUMPI DUP1 DUP3 ADD MLOAD DUP2 DUP5 ADD MSTORE PUSH1 0x20 DUP2 ADD SWAP1 POP PUSH2 0x17A6 JUMP JUMPDEST PUSH1 0x0 DUP5 DUP5 ADD MSTORE POP POP POP POP JUMP JUMPDEST PUSH1 0x0 PUSH2 0x17D8 DUP3 PUSH2 0x1787 JUMP JUMPDEST PUSH2 0x17E2 DUP2 DUP6 PUSH2 0x1792 JUMP JUMPDEST SWAP4 POP PUSH2 0x17F2 DUP2 DUP6 PUSH1 0x20 DUP7 ADD PUSH2 0x17A3 JUMP JUMPDEST PUSH2 0x17FB DUP2 PUSH2 0x158A JUMP JUMPDEST DUP5 ADD SWAP2 POP POP SWAP3 SWAP2 POP POP JUMP JUMPDEST PUSH1 0x0 DUP2 MLOAD SWAP1 POP SWAP2 SWAP1 POP JUMP JUMPDEST PUSH1 0x0 DUP3 DUP3 MSTORE PUSH1 0x20 DUP3 ADD SWAP1 POP SWAP3 SWAP2 POP POP JUMP JUMPDEST PUSH1 0x0 DUP2 SWAP1 POP PUSH1 0x20 DUP3 ADD SWAP1 POP SWAP2 SWAP1 POP JUMP JUMPDEST PUSH1 0x0 PUSH2 0x183E DUP4 DUP4 PUSH2 0x17CD JUMP JUMPDEST SWAP1 POP SWAP3 SWAP2 POP POP JUMP JUMPDEST PUSH1 0x0 PUSH1 0x20 DUP3 ADD SWAP1 POP SWAP2 SWAP1 POP JUMP JUMPDEST PUSH1 0x0 PUSH2 0x185E DUP3 PUSH2 0x1806 JUMP JUMPDEST PUSH2 0x1868 DUP2 DUP6 PUSH2 0x1811 JUMP JUMPDEST SWAP4 POP DUP4 PUSH1 0x20 DUP3 MUL DUP6 ADD PUSH2 0x187A DUP6 PUSH2 0x1822 JUMP JUMPDEST DUP1 PUSH1 0x0 JUMPDEST DUP6 DUP2 LT ISZERO PUSH2 0x18B6 JUMPI DUP5 DUP5 SUB DUP10 MSTORE DUP2 MLOAD PUSH2 0x1897 DUP6 DUP3 PUSH2 0x1832 JUMP JUMPDEST SWAP5 POP PUSH2 0x18A2 DUP4 PUSH2 0x1846 JUMP JUMPDEST SWAP3 POP PUSH1 0x20 DUP11 ADD SWAP10 POP POP PUSH1 0x1 DUP2 ADD SWAP1 POP PUSH2 0x187E JUMP JUMPDEST POP DUP3 SWAP8 POP DUP8 SWAP6 POP POP POP POP POP POP SWAP3 SWAP2 POP POP JUMP JUMPDEST PUSH1 0x0 PUSH1 0x60 DUP4 ADD PUSH1 0x0 DUP4 ADD MLOAD DUP5 DUP3 SUB PUSH1 0x0 DUP7 ADD MSTORE PUSH2 0x18E5 DUP3 DUP3 PUSH2 0x17CD JUMP JUMPDEST SWAP2 POP POP PUSH1 0x20 DUP4 ADD MLOAD DUP5 DUP3 SUB PUSH1 0x20 DUP7 ADD MSTORE PUSH2 0x18FF DUP3 DUP3 PUSH2 0x17CD JUMP JUMPDEST SWAP2 POP POP PUSH1 0x40 DUP4 ADD MLOAD DUP5 DUP3 SUB PUSH1 0x40 DUP7 ADD MSTORE PUSH2 0x1919 DUP3 DUP3 PUSH2 0x1853 JUMP JUMPDEST SWAP2 POP POP DUP1 SWAP2 POP POP SWAP3 SWAP2 POP POP JUMP JUMPDEST PUSH1 0x0 PUSH1 0x20 DUP3 ADD SWAP1 POP DUP2 DUP2 SUB PUSH1 0x0 DUP4 ADD MSTORE PUSH2 0x1940 DUP2 DUP5 PUSH2 0x18C8 JUMP JUMPDEST SWAP1 POP SWAP3 SWAP2 POP POP JUMP JUMPDEST PUSH1 0x0 PUSH8 0xFFFFFFFFFFFFFFFF DUP3 GT ISZERO PUSH2 0x1963 JUMPI PUSH2 0x1962 PUSH2 0x159B JUMP JUMPDEST JUMPDEST PUSH1 0x20 DUP3 MUL SWAP1 POP PUSH1 0x20 DUP2 ADD SWAP1 POP SWAP2 SWAP1 POP JUMP JUMPDEST PUSH1 0x0 DUP1 REVERT JUMPDEST PUSH1 0x0 PUSH2 0x198C PUSH2 0x1987 DUP5 PUSH2 0x1948 JUMP JUMPDEST PUSH2 0x15FB JUMP JUMPDEST SWAP1 POP DUP1 DUP4 DUP3 MSTORE PUSH1 0x20 DUP3 ADD SWAP1 POP PUSH1 0x20 DUP5 MUL DUP4 ADD DUP6 DUP2 GT ISZERO PUSH2 0x19AF JUMPI PUSH2 0x19AE PUSH2 0x1974 JUMP JUMPDEST JUMPDEST DUP4 JUMPDEST DUP2 DUP2 LT ISZERO PUSH2 0x19F6 JUMPI DUP1 CALLDATALOAD PUSH8 0xFFFFFFFFFFFFFFFF DUP2 GT ISZERO PUSH2 0x19D4 JUMPI PUSH2 0x19D3 PUSH2 0x1580 JUMP JUMPDEST JUMPDEST DUP1 DUP7 ADD PUSH2 0x19E1 DUP10 DUP3 PUSH2 0x1698 JUMP JUMPDEST DUP6 MSTORE PUSH1 0x20 DUP6 ADD SWAP5 POP POP POP PUSH1 0x20 DUP2 ADD SWAP1 POP PUSH2 0x19B1 JUMP JUMPDEST POP POP POP SWAP4 SWAP3 POP POP POP JUMP JUMPDEST PUSH1 0x0 DUP3 PUSH1 0x1F DUP4 ADD SLT PUSH2 0x1A15 JUMPI PUSH2 0x1A14 PUSH2 0x1580 JUMP JUMPDEST JUMPDEST DUP2 CALLDATALOAD PUSH2 0x1A25 DUP5 DUP3 PUSH1 0x20 DUP7 ADD PUSH2 0x1979 JUMP JUMPDEST SWAP2 POP POP SWAP3 SWAP2 POP POP JUMP JUMPDEST PUSH1 0x0 DUP1 PUSH1 0x40 DUP4 DUP6 SUB SLT ISZERO PUSH2 0x1A45 JUMPI PUSH2 0x1A44 PUSH2 0x1576 JUMP JUMPDEST JUMPDEST PUSH1 0x0 DUP4 ADD CALLDATALOAD PUSH8 0xFFFFFFFFFFFFFFFF DUP2 GT ISZERO PUSH2 0x1A63 JUMPI PUSH2 0x1A62 PUSH2 0x157B JUMP JUMPDEST JUMPDEST PUSH2 0x1A6F DUP6 DUP3 DUP7 ADD PUSH2 0x1698 JUMP JUMPDEST SWAP3 POP POP PUSH1 0x20 DUP4 ADD CALLDATALOAD PUSH8 0xFFFFFFFFFFFFFFFF DUP2 GT ISZERO PUSH2 0x1A90 JUMPI PUSH2 0x1A8F PUSH2 0x157B JUMP JUMPDEST JUMPDEST PUSH2 0x1A9C DUP6 DUP3 DUP7 ADD PUSH2 0x1A00 JUMP JUMPDEST SWAP2 POP POP SWAP3 POP SWAP3 SWAP1 POP JUMP JUMPDEST PUSH1 0x0 DUP1 PUSH1 0x40 DUP4 DUP6 SUB SLT ISZERO PUSH2 0x1ABD JUMPI PUSH2 0x1ABC PUSH2 0x1576 JUMP JUMPDEST JUMPDEST PUSH1 0x0 DUP4 ADD CALLDATALOAD PUSH8 0xFFFFFFFFFFFFFFFF DUP2 GT ISZERO PUSH2 0x1ADB JUMPI PUSH2 0x1ADA PUSH2 0x157B JUMP JUMPDEST JUMPDEST PUSH2 0x1AE7 DUP6 DUP3 DUP7 ADD PUSH2 0x1A00 JUMP JUMPDEST SWAP3 POP POP PUSH1 0x20 DUP4 ADD CALLDATALOAD PUSH8 0xFFFFFFFFFFFFFFFF DUP2 GT ISZERO PUSH2 0x1B08 JUMPI PUSH2 0x1B07 PUSH2 0x157B JUMP JUMPDEST JUMPDEST PUSH2 0x1B14 DUP6 DUP3 DUP7 ADD PUSH2 0x1698 JUMP JUMPDEST SWAP2 POP POP SWAP3 POP SWAP3 SWAP1 POP JUMP JUMPDEST PUSH1 0x0 PUSH20 0xFFFFFFFFFFFFFFFFFFFFFFFFFFFFFFFFFFFFFFFF DUP3 AND SWAP1 POP SWAP2 SWAP1 POP JUMP JUMPDEST PUSH1 0x0 PUSH2 0x1B49 DUP3 PUSH2 0x1B1E JUMP JUMPDEST SWAP1 POP SWAP2 SWAP1 POP JUMP JUMPDEST PUSH2 0x1B59 DUP2 PUSH2 0x1B3E JUMP JUMPDEST DUP3 MSTORE POP POP JUMP JUMPDEST PUSH1 0x0 PUSH1 0x20 DUP3 ADD SWAP1 POP PUSH2 0x1B74 PUSH1 0x0 DUP4 ADD DUP5 PUSH2 0x1B50 JUMP JUMPDEST SWAP3 SWAP2 POP POP JUMP JUMPDEST PUSH1 0x0 DUP2 ISZERO ISZERO SWAP1 POP SWAP2 SWAP1 POP JUMP JUMPDEST PUSH2 0x1B8F DUP2 PUSH2 0x1B7A JUMP JUMPDEST DUP3 MSTORE POP POP JUMP JUMPDEST PUSH1 0x0 PUSH1 0x20 DUP3 ADD SWAP1 POP PUSH2 0x1BAA PUSH1 0x0 DUP4 ADD DUP5 PUSH2 0x1B86 JUMP JUMPDEST SWAP3 SWAP2 POP POP JUMP JUMPDEST PUSH1 0x0 DUP2 SWAP1 POP SWAP3 SWAP2 POP POP JUMP JUMPDEST PUSH1 0x0 PUSH2 0x1BC6 DUP3 PUSH2 0x1787 JUMP JUMPDEST PUSH2 0x1BD0 DUP2 DUP6 PUSH2 0x1BB0 JUMP JUMPDEST SWAP4 POP PUSH2 0x1BE0 DUP2 DUP6 PUSH1 0x20 DUP7 ADD PUSH2 0x17A3 JUMP JUMPDEST DUP1 DUP5 ADD SWAP2 POP POP SWAP3 SWAP2 POP POP JUMP JUMPDEST PUSH1 0x0 PUSH2 0x1BF8 DUP3 DUP5 PUSH2 0x1BBB JUMP JUMPDEST SWAP2 POP DUP2 SWAP1 POP SWAP3 SWAP2 POP POP JUMP JUMPDEST PUSH32 0x4E487B7100000000000000000000000000000000000000000000000000000000 PUSH1 0x0 MSTORE PUSH1 0x22 PUSH1 0x4 MSTORE PUSH1 0x24 PUSH1 0x0 REVERT JUMPDEST PUSH1 0x0 PUSH1 0x2 DUP3 DIV SWAP1 POP PUSH1 0x1 DUP3 AND DUP1 PUSH2 0x1C4A JUMPI PUSH1 0x7F DUP3 AND SWAP2 POP JUMPDEST PUSH1 0x20 DUP3 LT DUP2 SUB PUSH2 0x1C5D JUMPI PUSH2 0x1C5C PUSH2 0x1C03 JUMP JUMPDEST JUMPDEST POP SWAP2 SWAP1 POP JUMP JUMPDEST PUSH1 0x0 DUP2 SWAP1 POP DUP2 PUSH1 0x0 MSTORE PUSH1 0x20 PUSH1 0x0 KECCAK256 SWAP1 POP SWAP2 SWAP1 POP JUMP JUMPDEST PUSH1 0x0 PUSH1 0x20 PUSH1 0x1F DUP4 ADD DIV SWAP1 POP SWAP2 SWAP1 POP JUMP JUMPDEST PUSH1 0x0 DUP3 DUP3 SHL SWAP1 POP SWAP3 SWAP2 POP POP JUMP JUMPDEST PUSH1 0x0 PUSH1 0x8 DUP4 MUL PUSH2 0x1CC5 PUSH32 0xFFFFFFFFFFFFFFFFFFFFFFFFFFFFFFFFFFFFFFFFFFFFFFFFFFFFFFFFFFFFFFFF DUP3 PUSH2 0x1C88 JUMP JUMPDEST PUSH2 0x1CCF DUP7 DUP4 PUSH2 0x1C88 JUMP JUMPDEST SWAP6 POP DUP1 NOT DUP5 AND SWAP4 POP DUP1 DUP7 AND DUP5 OR SWAP3 POP POP POP SWAP4 SWAP3 POP POP POP JUMP JUMPDEST PUSH1 0x0 DUP2 SWAP1 POP SWAP2 SWAP1 POP JUMP JUMPDEST PUSH1 0x0 DUP2 SWAP1 POP SWAP2 SWAP1 POP JUMP JUMPDEST PUSH1 0x0 PUSH2 0x1D16 PUSH2 0x1D11 PUSH2 0x1D0C DUP5 PUSH2 0x1CE7 JUMP JUMPDEST PUSH2 0x1CF1 JUMP JUMPDEST PUSH2 0x1CE7 JUMP JUMPDEST SWAP1 POP SWAP2 SWAP1 POP JUMP JUMPDEST PUSH1 0x0 DUP2 SWAP1 POP SWAP2 SWAP1 POP JUMP JUMPDEST PUSH2 0x1D30 DUP4 PUSH2 0x1CFB JUMP JUMPDEST PUSH2 0x1D44 PUSH2 0x1D3C DUP3 PUSH2 0x1D1D JUMP JUMPDEST DUP5 DUP5 SLOAD PUSH2 0x1C95 JUMP JUMPDEST DUP3 SSTORE POP POP POP POP JUMP JUMPDEST PUSH1 0x0 SWAP1 JUMP JUMPDEST PUSH2 0x1D59 PUSH2 0x1D4C JUMP JUMPDEST PUSH2 0x1D64 DUP2 DUP5 DUP5 PUSH2 0x1D27 JUMP JUMPDEST POP POP POP JUMP JUMPDEST JUMPDEST DUP2 DUP2 LT ISZERO PUSH2 0x1D88 JUMPI PUSH2 0x1D7D PUSH1 0x0 DUP3 PUSH2 0x1D51 JUMP JUMPDEST PUSH1 0x1 DUP2 ADD SWAP1 POP PUSH2 0x1D6A JUMP JUMPDEST POP POP JUMP JUMPDEST PUSH1 0x1F DUP3 GT ISZERO PUSH2 0x1DCD JUMPI PUSH2 0x1D9E DUP2 PUSH2 0x1C63 JUMP JUMPDEST PUSH2 0x1DA7 DUP5 PUSH2 0x1C78 JUMP JUMPDEST DUP2 ADD PUSH1 0x20 DUP6 LT ISZERO PUSH2 0x1DB6 JUMPI DUP2 SWAP1 POP JUMPDEST PUSH2 0x1DCA PUSH2 0x1DC2 DUP6 PUSH2 0x1C78 JUMP JUMPDEST DUP4 ADD DUP3 PUSH2 0x1D69 JUMP JUMPDEST POP POP JUMPDEST POP POP POP JUMP JUMPDEST PUSH1 0x0 DUP3 DUP3 SHR SWAP1 POP SWAP3 SWAP2 POP POP JUMP JUMPDEST PUSH1 0x0 PUSH2 0x1DF0 PUSH1 0x0 NOT DUP5 PUSH1 0x8 MUL PUSH2 0x1DD2 JUMP JUMPDEST NOT DUP1 DUP4 AND SWAP2 POP POP SWAP3 SWAP2 POP POP JUMP JUMPDEST PUSH1 0x0 PUSH2 0x1E09 DUP4 DUP4 PUSH2 0x1DDF JUMP JUMPDEST SWAP2 POP DUP3 PUSH1 0x2 MUL DUP3 OR SWAP1 POP SWAP3 SWAP2 POP POP JUMP JUMPDEST PUSH2 0x1E22 DUP3 PUSH2 0x1787 JUMP JUMPDEST PUSH8 0xFFFFFFFFFFFFFFFF DUP2 GT ISZERO PUSH2 0x1E3B JUMPI PUSH2 0x1E3A PUSH2 0x159B JUMP JUMPDEST JUMPDEST PUSH2 0x1E45 DUP3 SLOAD PUSH2 0x1C32 JUMP JUMPDEST PUSH2 0x1E50 DUP3 DUP3 DUP6 PUSH2 0x1D8C JUMP JUMPDEST PUSH1 0x0 PUSH1 0x20 SWAP1 POP PUSH1 0x1F DUP4 GT PUSH1 0x1 DUP2 EQ PUSH2 0x1E83 JUMPI PUSH1 0x0 DUP5 ISZERO PUSH2 0x1E71 JUMPI DUP3 DUP8 ADD MLOAD SWAP1 POP JUMPDEST PUSH2 0x1E7B DUP6 DUP3 PUSH2 0x1DFD JUMP JUMPDEST DUP7 SSTORE POP PUSH2 0x1EE3 JUMP JUMPDEST PUSH1 0x1F NOT DUP5 AND PUSH2 0x1E91 DUP7 PUSH2 0x1C63 JUMP JUMPDEST PUSH1 0x0 JUMPDEST DUP3 DUP2 LT ISZERO PUSH2 0x1EB9 JUMPI DUP5 DUP10 ADD MLOAD DUP3 SSTORE PUSH1 0x1 DUP3 ADD SWAP2 POP PUSH1 0x20 DUP6 ADD SWAP5 POP PUSH1 0x20 DUP2 ADD SWAP1 POP PUSH2 0x1E94 JUMP JUMPDEST DUP7 DUP4 LT ISZERO PUSH2 0x1ED6 JUMPI DUP5 DUP10 ADD MLOAD PUSH2 0x1ED2 PUSH1 0x1F DUP10 AND DUP3 PUSH2 0x1DDF JUMP JUMPDEST DUP4 SSTORE POP JUMPDEST PUSH1 0x1 PUSH1 0x2 DUP9 MUL ADD DUP9 SSTORE POP POP POP JUMPDEST POP POP POP POP POP POP JUMP JUMPDEST PUSH32 0x4E487B7100000000000000000000000000000000000000000000000000000000 PUSH1 0x0 MSTORE PUSH1 0x32 PUSH1 0x4 MSTORE PUSH1 0x24 PUSH1 0x0 REVERT JUMPDEST PUSH32 0x4E487B7100000000000000000000000000000000000000000000000000000000 PUSH1 0x0 MSTORE PUSH1 0x11 PUSH1 0x4 MSTORE PUSH1 0x24 PUSH1 0x0 REVERT JUMPDEST PUSH1 0x0 PUSH2 0x1F54 DUP3 PUSH2 0x1CE7 JUMP JUMPDEST SWAP2 POP PUSH32 0xFFFFFFFFFFFFFFFFFFFFFFFFFFFFFFFFFFFFFFFFFFFFFFFFFFFFFFFFFFFFFFFF DUP3 SUB PUSH2 0x1F86 JUMPI PUSH2 0x1F85 PUSH2 0x1F1A JUMP JUMPDEST JUMPDEST PUSH1 0x1 DUP3 ADD SWAP1 POP SWAP2 SWAP1 POP JUMP JUMPDEST POP JUMP JUMPDEST PUSH1 0x0 PUSH2 0x1FA1 PUSH1 0x0 DUP4 PUSH2 0x1BB0 JUMP JUMPDEST SWAP2 POP PUSH2 0x1FAC DUP3 PUSH2 0x1F91 JUMP JUMPDEST PUSH1 0x0 DUP3 ADD SWAP1 POP SWAP2 SWAP1 POP JUMP JUMPDEST PUSH1 0x0 PUSH2 0x1FC2 DUP3 PUSH2 0x1F94 JUMP JUMPDEST SWAP2 POP DUP2 SWAP1 POP SWAP2 SWAP1 POP JUMP JUMPDEST PUSH1 0x0 DUP2 SLOAD PUSH2 0x1FD9 DUP2 PUSH2 0x1C32 JUMP JUMPDEST PUSH2 0x1FE3 DUP2 DUP7 PUSH2 0x1BB0 JUMP JUMPDEST SWAP5 POP PUSH1 0x1 DUP3 AND PUSH1 0x0 DUP2 EQ PUSH2 0x1FFE JUMPI PUSH1 0x1 DUP2 EQ PUSH2 0x2013 JUMPI PUSH2 0x2046 JUMP JUMPDEST PUSH1 0xFF NOT DUP4 AND DUP7 MSTORE DUP2 ISZERO ISZERO DUP3 MUL DUP7 ADD SWAP4 POP PUSH2 0x2046 JUMP JUMPDEST PUSH2 0x201C DUP6 PUSH2 0x1C63 JUMP JUMPDEST PUSH1 0x0 JUMPDEST DUP4 DUP2 LT ISZERO PUSH2 0x203E JUMPI DUP2 SLOAD DUP2 DUP10 ADD MSTORE PUSH1 0x1 DUP3 ADD SWAP2 POP PUSH1 0x20 DUP2 ADD SWAP1 POP PUSH2 0x201F JUMP JUMPDEST DUP4 DUP9 ADD SWAP6 POP POP POP JUMPDEST POP POP POP SWAP3 SWAP2 POP POP JUMP JUMPDEST PUSH1 0x0 PUSH2 0x205B DUP3 DUP5 PUSH2 0x1FCC JUMP JUMPDEST SWAP2 POP DUP2 SWAP1 POP SWAP3 SWAP2 POP POP JUMP INVALID LOG2 PUSH5 0x6970667358 0x22 SLT KECCAK256 CALLER 0x49 0xEC PUSH32 0xEE606F4AB143A74231E6D19B4624F60A85255B2BF5A9F54070BA366C64736F6C PUSH4 0x43000812 STOP CALLER "
				},
				"gasEstimates": {
					"creation": {
						"codeDepositCost": "1669600",
						"executionCost": "26016",
						"totalCost": "1695616"
					},
					"external": {
						"assignLensToUser(string,string)": "infinite",
						"assignWalletsToUser(string[],string)": "infinite",
						"assignWorldCoinIdToUser(string,string)": "infinite",
						"compareStrings(string,string)": "infinite",
						"createUserAccount(string,string[])": "infinite",
						"doesKeyExist(string,string)": "infinite",
						"getOwner()": "2522",
						"getUserById(string)": "infinite",
						"getUserByLens(string)": "infinite",
						"getUserByWorldCoin(string)": "infinite"
					}
				},
				"methodIdentifiers": {
					"assignLensToUser(string,string)": "081396eb",
					"assignWalletsToUser(string[],string)": "63c60bd5",
					"assignWorldCoinIdToUser(string,string)": "15c19c1d",
					"compareStrings(string,string)": "bed34bba",
					"createUserAccount(string,string[])": "51f40dd6",
					"doesKeyExist(string,string)": "d430e05a",
					"getOwner()": "893d20e8",
					"getUserById(string)": "379f8fc2",
					"getUserByLens(string)": "c77cfeeb",
					"getUserByWorldCoin(string)": "f70e1c5e"
				}
			},
			"storageLayout": {
				"storage": [
					{
						"astId": 3,
						"contract": "Contracts/Lending.sol:Lending",
						"label": "owner",
						"offset": 0,
						"slot": "0",
						"type": "t_address"
					},
					{
						"astId": 29,
						"contract": "Contracts/Lending.sol:Lending",
						"label": "Products",
						"offset": 0,
						"slot": "1",
						"type": "t_mapping(t_uint256,t_struct(Product)24_storage)"
					},
					{
						"astId": 34,
						"contract": "Contracts/Lending.sol:Lending",
						"label": "Users",
						"offset": 0,
						"slot": "2",
						"type": "t_mapping(t_string_memory_ptr,t_struct(User)11_storage)"
					},
					{
						"astId": 39,
						"contract": "Contracts/Lending.sol:Lending",
						"label": "UserProducts",
						"offset": 0,
						"slot": "3",
						"type": "t_mapping(t_uint256,t_array(t_uint256)dyn_storage)"
					},
					{
						"astId": 43,
						"contract": "Contracts/Lending.sol:Lending",
						"label": "UserWorldCoinIds",
						"offset": 0,
						"slot": "4",
						"type": "t_mapping(t_string_memory_ptr,t_string_storage)"
					},
					{
						"astId": 47,
						"contract": "Contracts/Lending.sol:Lending",
						"label": "UserWallets",
						"offset": 0,
						"slot": "5",
						"type": "t_mapping(t_string_memory_ptr,t_string_storage)"
					},
					{
						"astId": 51,
						"contract": "Contracts/Lending.sol:Lending",
						"label": "UserLensHandles",
						"offset": 0,
						"slot": "6",
						"type": "t_mapping(t_string_memory_ptr,t_string_storage)"
					}
				],
				"types": {
					"t_address": {
						"encoding": "inplace",
						"label": "address",
						"numberOfBytes": "20"
					},
					"t_array(t_string_storage)dyn_storage": {
						"base": "t_string_storage",
						"encoding": "dynamic_array",
						"label": "string[]",
						"numberOfBytes": "32"
					},
					"t_array(t_uint256)dyn_storage": {
						"base": "t_uint256",
						"encoding": "dynamic_array",
						"label": "uint256[]",
						"numberOfBytes": "32"
					},
					"t_mapping(t_string_memory_ptr,t_string_storage)": {
						"encoding": "mapping",
						"key": "t_string_memory_ptr",
						"label": "mapping(string => string)",
						"numberOfBytes": "32",
						"value": "t_string_storage"
					},
					"t_mapping(t_string_memory_ptr,t_struct(User)11_storage)": {
						"encoding": "mapping",
						"key": "t_string_memory_ptr",
						"label": "mapping(string => struct Lending.User)",
						"numberOfBytes": "32",
						"value": "t_struct(User)11_storage"
					},
					"t_mapping(t_uint256,t_array(t_uint256)dyn_storage)": {
						"encoding": "mapping",
						"key": "t_uint256",
						"label": "mapping(uint256 => uint256[])",
						"numberOfBytes": "32",
						"value": "t_array(t_uint256)dyn_storage"
					},
					"t_mapping(t_uint256,t_struct(Product)24_storage)": {
						"encoding": "mapping",
						"key": "t_uint256",
						"label": "mapping(uint256 => struct Lending.Product)",
						"numberOfBytes": "32",
						"value": "t_struct(Product)24_storage"
					},
					"t_string_memory_ptr": {
						"encoding": "bytes",
						"label": "string",
						"numberOfBytes": "32"
					},
					"t_string_storage": {
						"encoding": "bytes",
						"label": "string",
						"numberOfBytes": "32"
					},
					"t_struct(Product)24_storage": {
						"encoding": "inplace",
						"label": "struct Lending.Product",
						"members": [
							{
								"astId": 13,
								"contract": "Contracts/Lending.sol:Lending",
								"label": "lat",
								"offset": 0,
								"slot": "0",
								"type": "t_string_storage"
							},
							{
								"astId": 15,
								"contract": "Contracts/Lending.sol:Lending",
								"label": "lng",
								"offset": 0,
								"slot": "1",
								"type": "t_string_storage"
							},
							{
								"astId": 17,
								"contract": "Contracts/Lending.sol:Lending",
								"label": "description",
								"offset": 0,
								"slot": "2",
								"type": "t_string_storage"
							},
							{
								"astId": 19,
								"contract": "Contracts/Lending.sol:Lending",
								"label": "value",
								"offset": 0,
								"slot": "3",
								"type": "t_uint256"
							},
							{
								"astId": 21,
								"contract": "Contracts/Lending.sol:Lending",
								"label": "price",
								"offset": 0,
								"slot": "4",
								"type": "t_uint256"
							},
							{
								"astId": 23,
								"contract": "Contracts/Lending.sol:Lending",
								"label": "image",
								"offset": 0,
								"slot": "5",
								"type": "t_string_storage"
							}
						],
						"numberOfBytes": "192"
					},
					"t_struct(User)11_storage": {
						"encoding": "inplace",
						"label": "struct Lending.User",
						"members": [
							{
								"astId": 5,
								"contract": "Contracts/Lending.sol:Lending",
								"label": "worldCoinId",
								"offset": 0,
								"slot": "0",
								"type": "t_string_storage"
							},
							{
								"astId": 7,
								"contract": "Contracts/Lending.sol:Lending",
								"label": "lensHandle",
								"offset": 0,
								"slot": "1",
								"type": "t_string_storage"
							},
							{
								"astId": 10,
								"contract": "Contracts/Lending.sol:Lending",
								"label": "wallets",
								"offset": 0,
								"slot": "2",
								"type": "t_array(t_string_storage)dyn_storage"
							}
						],
						"numberOfBytes": "96"
					},
					"t_uint256": {
						"encoding": "inplace",
						"label": "uint256",
						"numberOfBytes": "32"
					}
				}
			},
			"userdoc": {
				"kind": "user",
				"methods": {},
				"version": 1
			}
		}
	}
}