{
	"Contracts/Lending.sol": {
		"Lending": {
			"abi": [
				{
					"inputs": [],
					"stateMutability": "nonpayable",
					"type": "constructor"
				},
				{
					"inputs": [
						{
							"internalType": "uint256",
							"name": "",
							"type": "uint256"
						}
					],
					"name": "allProductsIds",
					"outputs": [
						{
							"internalType": "uint256",
							"name": "",
							"type": "uint256"
						}
					],
					"stateMutability": "view",
					"type": "function"
				},
				{
					"inputs": [
						{
							"internalType": "uint256",
							"name": "",
							"type": "uint256"
						}
					],
					"name": "allRentsIds",
					"outputs": [
						{
							"internalType": "uint256",
							"name": "",
							"type": "uint256"
						}
					],
					"stateMutability": "view",
					"type": "function"
				},
				{
					"inputs": [
						{
							"internalType": "string",
							"name": "_lens",
							"type": "string"
						},
						{
							"internalType": "string",
							"name": "userId",
							"type": "string"
						}
					],
					"name": "assignLensToUser",
					"outputs": [],
					"stateMutability": "nonpayable",
					"type": "function"
				},
				{
					"inputs": [
						{
							"internalType": "string[]",
							"name": "_addresses",
							"type": "string[]"
						},
						{
							"internalType": "string",
							"name": "userId",
							"type": "string"
						}
					],
					"name": "assignWalletsToUser",
					"outputs": [],
					"stateMutability": "nonpayable",
					"type": "function"
				},
				{
					"inputs": [
						{
							"internalType": "string",
							"name": "WCID",
							"type": "string"
						},
						{
							"internalType": "string",
							"name": "userId",
							"type": "string"
						}
					],
					"name": "assignWorldCoinIdToUser",
					"outputs": [],
					"stateMutability": "nonpayable",
					"type": "function"
				},
				{
					"inputs": [
						{
							"internalType": "string",
							"name": "a",
							"type": "string"
						},
						{
							"internalType": "string",
							"name": "b",
							"type": "string"
						}
					],
					"name": "compareStrings",
					"outputs": [
						{
							"internalType": "bool",
							"name": "",
							"type": "bool"
						}
					],
					"stateMutability": "pure",
					"type": "function"
				},
				{
					"inputs": [
						{
							"internalType": "string",
							"name": "_userId",
							"type": "string"
						},
						{
							"internalType": "string",
							"name": "_lat",
							"type": "string"
						},
						{
							"internalType": "string",
							"name": "_lng",
							"type": "string"
						},
						{
							"internalType": "string",
							"name": "_name",
							"type": "string"
						},
						{
							"internalType": "string",
							"name": "_description",
							"type": "string"
						},
						{
							"internalType": "uint256",
							"name": "_productValue",
							"type": "uint256"
						},
						{
							"internalType": "uint256",
							"name": "_price",
							"type": "uint256"
						},
						{
							"internalType": "string",
							"name": "_image",
							"type": "string"
						}
					],
					"name": "createProduct",
					"outputs": [],
					"stateMutability": "nonpayable",
					"type": "function"
				},
				{
					"inputs": [
						{
							"internalType": "string",
							"name": "username",
							"type": "string"
						},
						{
							"internalType": "string[]",
							"name": "_addresses",
							"type": "string[]"
						}
					],
					"name": "createUserAccount",
					"outputs": [
						{
							"components": [
								{
									"internalType": "string",
									"name": "userId",
									"type": "string"
								},
								{
									"internalType": "string",
									"name": "worldCoinId",
									"type": "string"
								},
								{
									"internalType": "string",
									"name": "lensHandle",
									"type": "string"
								},
								{
									"internalType": "string[]",
									"name": "wallets",
									"type": "string[]"
								},
								{
									"internalType": "uint256[]",
									"name": "products",
									"type": "uint256[]"
								},
								{
									"internalType": "uint256[]",
									"name": "myLendings",
									"type": "uint256[]"
								},
								{
									"internalType": "uint256[]",
									"name": "myBorrowings",
									"type": "uint256[]"
								}
							],
							"internalType": "struct Lending.User",
							"name": "",
							"type": "tuple"
						}
					],
					"stateMutability": "nonpayable",
					"type": "function"
				},
				{
					"inputs": [
						{
							"internalType": "string",
							"name": "key",
							"type": "string"
						},
						{
							"internalType": "string",
							"name": "variable",
							"type": "string"
						}
					],
					"name": "doesKeyExist",
					"outputs": [
						{
							"internalType": "bool",
							"name": "",
							"type": "bool"
						}
					],
					"stateMutability": "view",
					"type": "function"
				},
				{
					"inputs": [],
					"name": "getAllProducts",
					"outputs": [
						{
							"internalType": "uint256[]",
							"name": "",
							"type": "uint256[]"
						}
					],
					"stateMutability": "view",
					"type": "function"
				},
				{
					"inputs": [],
					"name": "getOwner",
					"outputs": [
						{
							"internalType": "address",
							"name": "",
							"type": "address"
						}
					],
					"stateMutability": "view",
					"type": "function"
				},
				{
					"inputs": [
						{
							"internalType": "uint256",
							"name": "productId",
							"type": "uint256"
						}
					],
					"name": "getProductById",
					"outputs": [
						{
							"components": [
								{
									"internalType": "uint256",
									"name": "id",
									"type": "uint256"
								},
								{
									"internalType": "string",
									"name": "userId",
									"type": "string"
								},
								{
									"internalType": "string",
									"name": "lat",
									"type": "string"
								},
								{
									"internalType": "string",
									"name": "lng",
									"type": "string"
								},
								{
									"internalType": "string",
									"name": "name",
									"type": "string"
								},
								{
									"internalType": "string",
									"name": "description",
									"type": "string"
								},
								{
									"internalType": "uint256",
									"name": "prodValue",
									"type": "uint256"
								},
								{
									"internalType": "uint256",
									"name": "price",
									"type": "uint256"
								},
								{
									"internalType": "string",
									"name": "image",
									"type": "string"
								}
							],
							"internalType": "struct Lending.Product",
							"name": "",
							"type": "tuple"
						}
					],
					"stateMutability": "view",
					"type": "function"
				},
				{
					"inputs": [
						{
							"internalType": "string",
							"name": "userId",
							"type": "string"
						}
					],
					"name": "getUserById",
					"outputs": [
						{
							"components": [
								{
									"internalType": "string",
									"name": "userId",
									"type": "string"
								},
								{
									"internalType": "string",
									"name": "worldCoinId",
									"type": "string"
								},
								{
									"internalType": "string",
									"name": "lensHandle",
									"type": "string"
								},
								{
									"internalType": "string[]",
									"name": "wallets",
									"type": "string[]"
								},
								{
									"internalType": "uint256[]",
									"name": "products",
									"type": "uint256[]"
								},
								{
									"internalType": "uint256[]",
									"name": "myLendings",
									"type": "uint256[]"
								},
								{
									"internalType": "uint256[]",
									"name": "myBorrowings",
									"type": "uint256[]"
								}
							],
							"internalType": "struct Lending.User",
							"name": "",
							"type": "tuple"
						}
					],
					"stateMutability": "view",
					"type": "function"
				},
				{
					"inputs": [
						{
							"internalType": "string",
							"name": "lens",
							"type": "string"
						}
					],
					"name": "getUserByLens",
					"outputs": [
						{
							"components": [
								{
									"internalType": "string",
									"name": "userId",
									"type": "string"
								},
								{
									"internalType": "string",
									"name": "worldCoinId",
									"type": "string"
								},
								{
									"internalType": "string",
									"name": "lensHandle",
									"type": "string"
								},
								{
									"internalType": "string[]",
									"name": "wallets",
									"type": "string[]"
								},
								{
									"internalType": "uint256[]",
									"name": "products",
									"type": "uint256[]"
								},
								{
									"internalType": "uint256[]",
									"name": "myLendings",
									"type": "uint256[]"
								},
								{
									"internalType": "uint256[]",
									"name": "myBorrowings",
									"type": "uint256[]"
								}
							],
							"internalType": "struct Lending.User",
							"name": "",
							"type": "tuple"
						}
					],
					"stateMutability": "view",
					"type": "function"
				},
				{
					"inputs": [
						{
							"internalType": "string",
							"name": "addr",
							"type": "string"
						}
					],
					"name": "getUserByWallet",
					"outputs": [
						{
							"components": [
								{
									"internalType": "string",
									"name": "userId",
									"type": "string"
								},
								{
									"internalType": "string",
									"name": "worldCoinId",
									"type": "string"
								},
								{
									"internalType": "string",
									"name": "lensHandle",
									"type": "string"
								},
								{
									"internalType": "string[]",
									"name": "wallets",
									"type": "string[]"
								},
								{
									"internalType": "uint256[]",
									"name": "products",
									"type": "uint256[]"
								},
								{
									"internalType": "uint256[]",
									"name": "myLendings",
									"type": "uint256[]"
								},
								{
									"internalType": "uint256[]",
									"name": "myBorrowings",
									"type": "uint256[]"
								}
							],
							"internalType": "struct Lending.User",
							"name": "",
							"type": "tuple"
						}
					],
					"stateMutability": "view",
					"type": "function"
				},
				{
					"inputs": [
						{
							"internalType": "string",
							"name": "WCID",
							"type": "string"
						}
					],
					"name": "getUserByWorldCoin",
					"outputs": [
						{
							"components": [
								{
									"internalType": "string",
									"name": "userId",
									"type": "string"
								},
								{
									"internalType": "string",
									"name": "worldCoinId",
									"type": "string"
								},
								{
									"internalType": "string",
									"name": "lensHandle",
									"type": "string"
								},
								{
									"internalType": "string[]",
									"name": "wallets",
									"type": "string[]"
								},
								{
									"internalType": "uint256[]",
									"name": "products",
									"type": "uint256[]"
								},
								{
									"internalType": "uint256[]",
									"name": "myLendings",
									"type": "uint256[]"
								},
								{
									"internalType": "uint256[]",
									"name": "myBorrowings",
									"type": "uint256[]"
								}
							],
							"internalType": "struct Lending.User",
							"name": "",
							"type": "tuple"
						}
					],
					"stateMutability": "view",
					"type": "function"
				},
				{
					"inputs": [],
					"name": "lasProductId",
					"outputs": [
						{
							"internalType": "uint256",
							"name": "",
							"type": "uint256"
						}
					],
					"stateMutability": "view",
					"type": "function"
				},
				{
					"inputs": [],
					"name": "lastRentId",
					"outputs": [
						{
							"internalType": "uint256",
							"name": "",
							"type": "uint256"
						}
					],
					"stateMutability": "view",
					"type": "function"
				}
			],
			"devdoc": {
				"kind": "dev",
				"methods": {},
				"version": 1
			},
			"evm": {
				"assembly": "    /* \"Contracts/Lending.sol\":70:6200  contract Lending {... */\n  mstore(0x40, 0x80)\n    /* \"Contracts/Lending.sol\":149:150  0 */\n  0x00\n    /* \"Contracts/Lending.sol\":122:150  uint public lasProductId = 0 */\n  0x01\n  sstore\n    /* \"Contracts/Lending.sol\":181:182  0 */\n  0x00\n    /* \"Contracts/Lending.sol\":156:182  uint public lastRentId = 0 */\n  0x02\n  sstore\n    /* \"Contracts/Lending.sol\":1734:1783  constructor() {... */\n  callvalue\n  dup1\n  iszero\n  tag_1\n  jumpi\n  0x00\n  dup1\n  revert\ntag_1:\n  pop\n    /* \"Contracts/Lending.sol\":1766:1776  msg.sender */\n  caller\n    /* \"Contracts/Lending.sol\":1758:1763  owner */\n  0x00\n  dup1\n    /* \"Contracts/Lending.sol\":1758:1776  owner = msg.sender */\n  0x0100\n  exp\n  dup2\n  sload\n  dup2\n  0xffffffffffffffffffffffffffffffffffffffff\n  mul\n  not\n  and\n  swap1\n  dup4\n  0xffffffffffffffffffffffffffffffffffffffff\n  and\n  mul\n  or\n  swap1\n  sstore\n  pop\n    /* \"Contracts/Lending.sol\":70:6200  contract Lending {... */\n  dataSize(sub_0)\n  dup1\n  dataOffset(sub_0)\n  0x00\n  codecopy\n  0x00\n  return\nstop\n\nsub_0: assembly {\n        /* \"Contracts/Lending.sol\":70:6200  contract Lending {... */\n      mstore(0x40, 0x80)\n      callvalue\n      dup1\n      iszero\n      tag_1\n      jumpi\n      0x00\n      dup1\n      revert\n    tag_1:\n      pop\n      jumpi(tag_2, lt(calldatasize, 0x04))\n      shr(0xe0, calldataload(0x00))\n      dup1\n      0x6bd562f3\n      gt\n      tag_21\n      jumpi\n      dup1\n      0xbed34bba\n      gt\n      tag_22\n      jumpi\n      dup1\n      0xbed34bba\n      eq\n      tag_16\n      jumpi\n      dup1\n      0xc77cfeeb\n      eq\n      tag_17\n      jumpi\n      dup1\n      0xd430e05a\n      eq\n      tag_18\n      jumpi\n      dup1\n      0xf70e1c5e\n      eq\n      tag_19\n      jumpi\n      dup1\n      0xfe1823af\n      eq\n      tag_20\n      jumpi\n      jump(tag_2)\n    tag_22:\n      dup1\n      0x6bd562f3\n      eq\n      tag_12\n      jumpi\n      dup1\n      0x7198ed1a\n      eq\n      tag_13\n      jumpi\n      dup1\n      0x893d20e8\n      eq\n      tag_14\n      jumpi\n      dup1\n      0xbb29e2a5\n      eq\n      tag_15\n      jumpi\n      jump(tag_2)\n    tag_21:\n      dup1\n      0x379f8fc2\n      gt\n      tag_23\n      jumpi\n      dup1\n      0x379f8fc2\n      eq\n      tag_7\n      jumpi\n      dup1\n      0x3f70c2b4\n      eq\n      tag_8\n      jumpi\n      dup1\n      0x51f40dd6\n      eq\n      tag_9\n      jumpi\n      dup1\n      0x63c60bd5\n      eq\n      tag_10\n      jumpi\n      dup1\n      0x63fbe5b3\n      eq\n      tag_11\n      jumpi\n      jump(tag_2)\n    tag_23:\n      dup1\n      0x02ee3a52\n      eq\n      tag_3\n      jumpi\n      dup1\n      0x067c2d61\n      eq\n      tag_4\n      jumpi\n      dup1\n      0x081396eb\n      eq\n      tag_5\n      jumpi\n      dup1\n      0x15c19c1d\n      eq\n      tag_6\n      jumpi\n    tag_2:\n      0x00\n      dup1\n      revert\n        /* \"Contracts/Lending.sol\":5107:5207  function getAllProducts() public view returns (uint[] memory) {... */\n    tag_3:\n      tag_24\n      tag_25\n      jump\t// in\n    tag_24:\n      mload(0x40)\n      tag_26\n      swap2\n      swap1\n      tag_27\n      jump\t// in\n    tag_26:\n      mload(0x40)\n      dup1\n      swap2\n      sub\n      swap1\n      return\n        /* \"Contracts/Lending.sol\":290:315  uint[] public allRentsIds */\n    tag_4:\n      tag_28\n      0x04\n      dup1\n      calldatasize\n      sub\n      dup2\n      add\n      swap1\n      tag_29\n      swap2\n      swap1\n      tag_30\n      jump\t// in\n    tag_29:\n      tag_31\n      jump\t// in\n    tag_28:\n      mload(0x40)\n      tag_32\n      swap2\n      swap1\n      tag_33\n      jump\t// in\n    tag_32:\n      mload(0x40)\n      dup1\n      swap2\n      sub\n      swap1\n      return\n        /* \"Contracts/Lending.sol\":3319:3485  function assignLensToUser(string memory _lens, string memory userId) public {... */\n    tag_5:\n      tag_34\n      0x04\n      dup1\n      calldatasize\n      sub\n      dup2\n      add\n      swap1\n      tag_35\n      swap2\n      swap1\n      tag_36\n      jump\t// in\n    tag_35:\n      tag_37\n      jump\t// in\n    tag_34:\n      stop\n        /* \"Contracts/Lending.sol\":3491:3728  function assignWorldCoinIdToUser(string memory WCID, string memory userId) public {... */\n    tag_6:\n      tag_38\n      0x04\n      dup1\n      calldatasize\n      sub\n      dup2\n      add\n      swap1\n      tag_39\n      swap2\n      swap1\n      tag_36\n      jump\t// in\n    tag_39:\n      tag_40\n      jump\t// in\n    tag_38:\n      stop\n        /* \"Contracts/Lending.sol\":4249:4363  function getUserById(string memory userId) public view returns (User memory) {... */\n    tag_7:\n      tag_41\n      0x04\n      dup1\n      calldatasize\n      sub\n      dup2\n      add\n      swap1\n      tag_42\n      swap2\n      swap1\n      tag_43\n      jump\t// in\n    tag_42:\n      tag_44\n      jump\t// in\n    tag_41:\n      mload(0x40)\n      tag_45\n      swap2\n      swap1\n      tag_46\n      jump\t// in\n    tag_45:\n      mload(0x40)\n      dup1\n      swap2\n      sub\n      swap1\n      return\n        /* \"Contracts/Lending.sol\":4369:4489  function getProductById(uint productId) public view returns (Product memory) {... */\n    tag_8:\n      tag_47\n      0x04\n      dup1\n      calldatasize\n      sub\n      dup2\n      add\n      swap1\n      tag_48\n      swap2\n      swap1\n      tag_30\n      jump\t// in\n    tag_48:\n      tag_49\n      jump\t// in\n    tag_47:\n      mload(0x40)\n      tag_50\n      swap2\n      swap1\n      tag_51\n      jump\t// in\n    tag_50:\n      mload(0x40)\n      dup1\n      swap2\n      sub\n      swap1\n      return\n        /* \"Contracts/Lending.sol\":3734:4242  function createUserAccount(string memory username, string[] memory _addresses) public returns (User memory) {... */\n    tag_9:\n      tag_52\n      0x04\n      dup1\n      calldatasize\n      sub\n      dup2\n      add\n      swap1\n      tag_53\n      swap2\n      swap1\n      tag_54\n      jump\t// in\n    tag_53:\n      tag_55\n      jump\t// in\n    tag_52:\n      mload(0x40)\n      tag_56\n      swap2\n      swap1\n      tag_46\n      jump\t// in\n    tag_56:\n      mload(0x40)\n      dup1\n      swap2\n      sub\n      swap1\n      return\n        /* \"Contracts/Lending.sol\":2941:3313  function assignWalletsToUser(string[] memory _addresses, string memory userId) public {... */\n    tag_10:\n      tag_57\n      0x04\n      dup1\n      calldatasize\n      sub\n      dup2\n      add\n      swap1\n      tag_58\n      swap2\n      swap1\n      tag_59\n      jump\t// in\n    tag_58:\n      tag_60\n      jump\t// in\n    tag_57:\n      stop\n        /* \"Contracts/Lending.sol\":122:150  uint public lasProductId = 0 */\n    tag_11:\n      tag_61\n      tag_62\n      jump\t// in\n    tag_61:\n      mload(0x40)\n      tag_63\n      swap2\n      swap1\n      tag_33\n      jump\t// in\n    tag_63:\n      mload(0x40)\n      dup1\n      swap2\n      sub\n      swap1\n      return\n        /* \"Contracts/Lending.sol\":5369:6195  function createProduct(... */\n    tag_12:\n      tag_64\n      0x04\n      dup1\n      calldatasize\n      sub\n      dup2\n      add\n      swap1\n      tag_65\n      swap2\n      swap1\n      tag_66\n      jump\t// in\n    tag_65:\n      tag_67\n      jump\t// in\n    tag_64:\n      stop\n        /* \"Contracts/Lending.sol\":4849:5015  function getUserByWallet(string memory addr) public view returns (User memory) {... */\n    tag_13:\n      tag_68\n      0x04\n      dup1\n      calldatasize\n      sub\n      dup2\n      add\n      swap1\n      tag_69\n      swap2\n      swap1\n      tag_43\n      jump\t// in\n    tag_69:\n      tag_70\n      jump\t// in\n    tag_68:\n      mload(0x40)\n      tag_71\n      swap2\n      swap1\n      tag_46\n      jump\t// in\n    tag_71:\n      mload(0x40)\n      dup1\n      swap2\n      sub\n      swap1\n      return\n        /* \"Contracts/Lending.sol\":5021:5102  function getOwner() external view returns (address) {... */\n    tag_14:\n      tag_72\n      tag_73\n      jump\t// in\n    tag_72:\n      mload(0x40)\n      tag_74\n      swap2\n      swap1\n      tag_75\n      jump\t// in\n    tag_74:\n      mload(0x40)\n      dup1\n      swap2\n      sub\n      swap1\n      return\n        /* \"Contracts/Lending.sol\":156:182  uint public lastRentId = 0 */\n    tag_15:\n      tag_76\n      tag_77\n      jump\t// in\n    tag_76:\n      mload(0x40)\n      tag_78\n      swap2\n      swap1\n      tag_33\n      jump\t// in\n    tag_78:\n      mload(0x40)\n      dup1\n      swap2\n      sub\n      swap1\n      return\n        /* \"Contracts/Lending.sol\":1790:2183  function compareStrings(string memory a, string memory b) public pure returns (bool) {... */\n    tag_16:\n      tag_79\n      0x04\n      dup1\n      calldatasize\n      sub\n      dup2\n      add\n      swap1\n      tag_80\n      swap2\n      swap1\n      tag_36\n      jump\t// in\n    tag_80:\n      tag_81\n      jump\t// in\n    tag_79:\n      mload(0x40)\n      tag_82\n      swap2\n      swap1\n      tag_83\n      jump\t// in\n    tag_82:\n      mload(0x40)\n      dup1\n      swap2\n      sub\n      swap1\n      return\n        /* \"Contracts/Lending.sol\":4495:4663  function getUserByLens(string memory lens) public view returns (User memory) {... */\n    tag_17:\n      tag_84\n      0x04\n      dup1\n      calldatasize\n      sub\n      dup2\n      add\n      swap1\n      tag_85\n      swap2\n      swap1\n      tag_43\n      jump\t// in\n    tag_85:\n      tag_86\n      jump\t// in\n    tag_84:\n      mload(0x40)\n      tag_87\n      swap2\n      swap1\n      tag_46\n      jump\t// in\n    tag_87:\n      mload(0x40)\n      dup1\n      swap2\n      sub\n      swap1\n      return\n        /* \"Contracts/Lending.sol\":2245:2871  function doesKeyExist(string memory key, string memory variable) public view returns (bool) {... */\n    tag_18:\n      tag_88\n      0x04\n      dup1\n      calldatasize\n      sub\n      dup2\n      add\n      swap1\n      tag_89\n      swap2\n      swap1\n      tag_36\n      jump\t// in\n    tag_89:\n      tag_90\n      jump\t// in\n    tag_88:\n      mload(0x40)\n      tag_91\n      swap2\n      swap1\n      tag_83\n      jump\t// in\n    tag_91:\n      mload(0x40)\n      dup1\n      swap2\n      sub\n      swap1\n      return\n        /* \"Contracts/Lending.sol\":4669:4843  function getUserByWorldCoin(string memory WCID) public view returns (User memory) {... */\n    tag_19:\n      tag_92\n      0x04\n      dup1\n      calldatasize\n      sub\n      dup2\n      add\n      swap1\n      tag_93\n      swap2\n      swap1\n      tag_43\n      jump\t// in\n    tag_93:\n      tag_94\n      jump\t// in\n    tag_92:\n      mload(0x40)\n      tag_95\n      swap2\n      swap1\n      tag_46\n      jump\t// in\n    tag_95:\n      mload(0x40)\n      dup1\n      swap2\n      sub\n      swap1\n      return\n        /* \"Contracts/Lending.sol\":256:284  uint[] public allProductsIds */\n    tag_20:\n      tag_96\n      0x04\n      dup1\n      calldatasize\n      sub\n      dup2\n      add\n      swap1\n      tag_97\n      swap2\n      swap1\n      tag_30\n      jump\t// in\n    tag_97:\n      tag_98\n      jump\t// in\n    tag_96:\n      mload(0x40)\n      tag_99\n      swap2\n      swap1\n      tag_33\n      jump\t// in\n    tag_99:\n      mload(0x40)\n      dup1\n      swap2\n      sub\n      swap1\n      return\n        /* \"Contracts/Lending.sol\":5107:5207  function getAllProducts() public view returns (uint[] memory) {... */\n    tag_25:\n        /* \"Contracts/Lending.sol\":5154:5167  uint[] memory */\n      0x60\n        /* \"Contracts/Lending.sol\":5186:5200  allProductsIds */\n      0x03\n        /* \"Contracts/Lending.sol\":5179:5200  return allProductsIds */\n      dup1\n      sload\n      dup1\n      0x20\n      mul\n      0x20\n      add\n      mload(0x40)\n      swap1\n      dup2\n      add\n      0x40\n      mstore\n      dup1\n      swap3\n      swap2\n      swap1\n      dup2\n      dup2\n      mstore\n      0x20\n      add\n      dup3\n      dup1\n      sload\n      dup1\n      iszero\n      tag_101\n      jumpi\n      0x20\n      mul\n      dup3\n      add\n      swap2\n      swap1\n      0x00\n      mstore\n      keccak256(0x00, 0x20)\n      swap1\n    tag_102:\n      dup2\n      sload\n      dup2\n      mstore\n      0x20\n      add\n      swap1\n      0x01\n      add\n      swap1\n      dup1\n      dup4\n      gt\n      tag_102\n      jumpi\n    tag_101:\n      pop\n      pop\n      pop\n      pop\n      pop\n      swap1\n      pop\n        /* \"Contracts/Lending.sol\":5107:5207  function getAllProducts() public view returns (uint[] memory) {... */\n      swap1\n      jump\t// out\n        /* \"Contracts/Lending.sol\":290:315  uint[] public allRentsIds */\n    tag_31:\n      0x04\n      dup2\n      dup2\n      sload\n      dup2\n      lt\n      tag_103\n      jumpi\n      0x00\n      dup1\n      revert\n    tag_103:\n      swap1\n      0x00\n      mstore\n      keccak256(0x00, 0x20)\n      add\n      0x00\n      swap2\n      pop\n      swap1\n      pop\n      sload\n      dup2\n      jump\t// out\n        /* \"Contracts/Lending.sol\":3319:3485  function assignLensToUser(string memory _lens, string memory userId) public {... */\n    tag_37:\n        /* \"Contracts/Lending.sol\":3430:3436  userId */\n      dup1\n        /* \"Contracts/Lending.sol\":3405:3420  UserLensHandles */\n      0x0c\n        /* \"Contracts/Lending.sol\":3421:3426  _lens */\n      dup4\n        /* \"Contracts/Lending.sol\":3405:3427  UserLensHandles[_lens] */\n      mload(0x40)\n      tag_106\n      swap2\n      swap1\n      tag_107\n      jump\t// in\n    tag_106:\n      swap1\n      dup2\n      mstore\n      0x20\n      add\n      mload(0x40)\n      dup1\n      swap2\n      sub\n      swap1\n      keccak256\n        /* \"Contracts/Lending.sol\":3405:3436  UserLensHandles[_lens] = userId */\n      swap1\n      dup2\n      tag_108\n      swap2\n      swap1\n      tag_109\n      jump\t// in\n    tag_108:\n      pop\n        /* \"Contracts/Lending.sol\":3473:3478  _lens */\n      dup2\n        /* \"Contracts/Lending.sol\":3446:3451  Users */\n      0x06\n        /* \"Contracts/Lending.sol\":3452:3458  userId */\n      dup3\n        /* \"Contracts/Lending.sol\":3446:3459  Users[userId] */\n      mload(0x40)\n      tag_110\n      swap2\n      swap1\n      tag_107\n      jump\t// in\n    tag_110:\n      swap1\n      dup2\n      mstore\n      0x20\n      add\n      mload(0x40)\n      dup1\n      swap2\n      sub\n      swap1\n      keccak256\n        /* \"Contracts/Lending.sol\":3446:3470  Users[userId].lensHandle */\n      0x02\n      add\n        /* \"Contracts/Lending.sol\":3446:3478  Users[userId].lensHandle = _lens */\n      swap1\n      dup2\n      tag_111\n      swap2\n      swap1\n      tag_109\n      jump\t// in\n    tag_111:\n      pop\n        /* \"Contracts/Lending.sol\":3319:3485  function assignLensToUser(string memory _lens, string memory userId) public {... */\n      pop\n      pop\n      jump\t// out\n        /* \"Contracts/Lending.sol\":3491:3728  function assignWorldCoinIdToUser(string memory WCID, string memory userId) public {... */\n    tag_40:\n        /* \"Contracts/Lending.sol\":3588:3618  doesKeyExist(WCID, 'userWCID') */\n      tag_113\n        /* \"Contracts/Lending.sol\":3601:3605  WCID */\n      dup3\n        /* \"Contracts/Lending.sol\":3588:3618  doesKeyExist(WCID, 'userWCID') */\n      mload(0x40)\n      dup1\n      0x40\n      add\n      0x40\n      mstore\n      dup1\n      0x08\n      dup2\n      mstore\n      0x20\n      add\n      0x7573657257434944000000000000000000000000000000000000000000000000\n      dup2\n      mstore\n      pop\n        /* \"Contracts/Lending.sol\":3588:3600  doesKeyExist */\n      tag_90\n        /* \"Contracts/Lending.sol\":3588:3618  doesKeyExist(WCID, 'userWCID') */\n      jump\t// in\n    tag_113:\n        /* \"Contracts/Lending.sol\":3583:3722  if (!doesKeyExist(WCID, 'userWCID')) {... */\n      tag_114\n      jumpi\n        /* \"Contracts/Lending.sol\":3659:3665  userId */\n      dup1\n        /* \"Contracts/Lending.sol\":3634:3650  UserWorldCoinIds */\n      0x0a\n        /* \"Contracts/Lending.sol\":3651:3655  WCID */\n      dup4\n        /* \"Contracts/Lending.sol\":3634:3656  UserWorldCoinIds[WCID] */\n      mload(0x40)\n      tag_115\n      swap2\n      swap1\n      tag_107\n      jump\t// in\n    tag_115:\n      swap1\n      dup2\n      mstore\n      0x20\n      add\n      mload(0x40)\n      dup1\n      swap2\n      sub\n      swap1\n      keccak256\n        /* \"Contracts/Lending.sol\":3634:3665  UserWorldCoinIds[WCID] = userId */\n      swap1\n      dup2\n      tag_116\n      swap2\n      swap1\n      tag_109\n      jump\t// in\n    tag_116:\n      pop\n        /* \"Contracts/Lending.sol\":3707:3711  WCID */\n      dup2\n        /* \"Contracts/Lending.sol\":3679:3684  Users */\n      0x06\n        /* \"Contracts/Lending.sol\":3685:3691  userId */\n      dup3\n        /* \"Contracts/Lending.sol\":3679:3692  Users[userId] */\n      mload(0x40)\n      tag_117\n      swap2\n      swap1\n      tag_107\n      jump\t// in\n    tag_117:\n      swap1\n      dup2\n      mstore\n      0x20\n      add\n      mload(0x40)\n      dup1\n      swap2\n      sub\n      swap1\n      keccak256\n        /* \"Contracts/Lending.sol\":3679:3704  Users[userId].worldCoinId */\n      0x01\n      add\n        /* \"Contracts/Lending.sol\":3679:3711  Users[userId].worldCoinId = WCID */\n      swap1\n      dup2\n      tag_118\n      swap2\n      swap1\n      tag_109\n      jump\t// in\n    tag_118:\n      pop\n        /* \"Contracts/Lending.sol\":3583:3722  if (!doesKeyExist(WCID, 'userWCID')) {... */\n    tag_114:\n        /* \"Contracts/Lending.sol\":3491:3728  function assignWorldCoinIdToUser(string memory WCID, string memory userId) public {... */\n      pop\n      pop\n      jump\t// out\n        /* \"Contracts/Lending.sol\":4249:4363  function getUserById(string memory userId) public view returns (User memory) {... */\n    tag_44:\n        /* \"Contracts/Lending.sol\":4313:4324  User memory */\n      tag_119\n      tag_120\n      jump\t// in\n    tag_119:\n        /* \"Contracts/Lending.sol\":4343:4348  Users */\n      0x06\n        /* \"Contracts/Lending.sol\":4349:4355  userId */\n      dup3\n        /* \"Contracts/Lending.sol\":4343:4356  Users[userId] */\n      mload(0x40)\n      tag_122\n      swap2\n      swap1\n      tag_107\n      jump\t// in\n    tag_122:\n      swap1\n      dup2\n      mstore\n      0x20\n      add\n      mload(0x40)\n      dup1\n      swap2\n      sub\n      swap1\n      keccak256\n        /* \"Contracts/Lending.sol\":4336:4356  return Users[userId] */\n      mload(0x40)\n      dup1\n      0xe0\n      add\n      0x40\n      mstore\n      swap1\n      dup2\n      0x00\n      dup3\n      add\n      dup1\n      sload\n      tag_123\n      swap1\n      tag_124\n      jump\t// in\n    tag_123:\n      dup1\n      0x1f\n      add\n      0x20\n      dup1\n      swap2\n      div\n      mul\n      0x20\n      add\n      mload(0x40)\n      swap1\n      dup2\n      add\n      0x40\n      mstore\n      dup1\n      swap3\n      swap2\n      swap1\n      dup2\n      dup2\n      mstore\n      0x20\n      add\n      dup3\n      dup1\n      sload\n      tag_125\n      swap1\n      tag_124\n      jump\t// in\n    tag_125:\n      dup1\n      iszero\n      tag_126\n      jumpi\n      dup1\n      0x1f\n      lt\n      tag_127\n      jumpi\n      0x0100\n      dup1\n      dup4\n      sload\n      div\n      mul\n      dup4\n      mstore\n      swap2\n      0x20\n      add\n      swap2\n      jump(tag_126)\n    tag_127:\n      dup3\n      add\n      swap2\n      swap1\n      0x00\n      mstore\n      keccak256(0x00, 0x20)\n      swap1\n    tag_128:\n      dup2\n      sload\n      dup2\n      mstore\n      swap1\n      0x01\n      add\n      swap1\n      0x20\n      add\n      dup1\n      dup4\n      gt\n      tag_128\n      jumpi\n      dup3\n      swap1\n      sub\n      0x1f\n      and\n      dup3\n      add\n      swap2\n    tag_126:\n      pop\n      pop\n      pop\n      pop\n      pop\n      dup2\n      mstore\n      0x20\n      add\n      0x01\n      dup3\n      add\n      dup1\n      sload\n      tag_129\n      swap1\n      tag_124\n      jump\t// in\n    tag_129:\n      dup1\n      0x1f\n      add\n      0x20\n      dup1\n      swap2\n      div\n      mul\n      0x20\n      add\n      mload(0x40)\n      swap1\n      dup2\n      add\n      0x40\n      mstore\n      dup1\n      swap3\n      swap2\n      swap1\n      dup2\n      dup2\n      mstore\n      0x20\n      add\n      dup3\n      dup1\n      sload\n      tag_130\n      swap1\n      tag_124\n      jump\t// in\n    tag_130:\n      dup1\n      iszero\n      tag_131\n      jumpi\n      dup1\n      0x1f\n      lt\n      tag_132\n      jumpi\n      0x0100\n      dup1\n      dup4\n      sload\n      div\n      mul\n      dup4\n      mstore\n      swap2\n      0x20\n      add\n      swap2\n      jump(tag_131)\n    tag_132:\n      dup3\n      add\n      swap2\n      swap1\n      0x00\n      mstore\n      keccak256(0x00, 0x20)\n      swap1\n    tag_133:\n      dup2\n      sload\n      dup2\n      mstore\n      swap1\n      0x01\n      add\n      swap1\n      0x20\n      add\n      dup1\n      dup4\n      gt\n      tag_133\n      jumpi\n      dup3\n      swap1\n      sub\n      0x1f\n      and\n      dup3\n      add\n      swap2\n    tag_131:\n      pop\n      pop\n      pop\n      pop\n      pop\n      dup2\n      mstore\n      0x20\n      add\n      0x02\n      dup3\n      add\n      dup1\n      sload\n      tag_134\n      swap1\n      tag_124\n      jump\t// in\n    tag_134:\n      dup1\n      0x1f\n      add\n      0x20\n      dup1\n      swap2\n      div\n      mul\n      0x20\n      add\n      mload(0x40)\n      swap1\n      dup2\n      add\n      0x40\n      mstore\n      dup1\n      swap3\n      swap2\n      swap1\n      dup2\n      dup2\n      mstore\n      0x20\n      add\n      dup3\n      dup1\n      sload\n      tag_135\n      swap1\n      tag_124\n      jump\t// in\n    tag_135:\n      dup1\n      iszero\n      tag_136\n      jumpi\n      dup1\n      0x1f\n      lt\n      tag_137\n      jumpi\n      0x0100\n      dup1\n      dup4\n      sload\n      div\n      mul\n      dup4\n      mstore\n      swap2\n      0x20\n      add\n      swap2\n      jump(tag_136)\n    tag_137:\n      dup3\n      add\n      swap2\n      swap1\n      0x00\n      mstore\n      keccak256(0x00, 0x20)\n      swap1\n    tag_138:\n      dup2\n      sload\n      dup2\n      mstore\n      swap1\n      0x01\n      add\n      swap1\n      0x20\n      add\n      dup1\n      dup4\n      gt\n      tag_138\n      jumpi\n      dup3\n      swap1\n      sub\n      0x1f\n      and\n      dup3\n      add\n      swap2\n    tag_136:\n      pop\n      pop\n      pop\n      pop\n      pop\n      dup2\n      mstore\n      0x20\n      add\n      0x03\n      dup3\n      add\n      dup1\n      sload\n      dup1\n      0x20\n      mul\n      0x20\n      add\n      mload(0x40)\n      swap1\n      dup2\n      add\n      0x40\n      mstore\n      dup1\n      swap3\n      swap2\n      swap1\n      dup2\n      dup2\n      mstore\n      0x20\n      add\n      0x00\n      swap1\n    tag_139:\n      dup3\n      dup3\n      lt\n      iszero\n      tag_140\n      jumpi\n      dup4\n      dup3\n      swap1\n      0x00\n      mstore\n      keccak256(0x00, 0x20)\n      add\n      dup1\n      sload\n      tag_142\n      swap1\n      tag_124\n      jump\t// in\n    tag_142:\n      dup1\n      0x1f\n      add\n      0x20\n      dup1\n      swap2\n      div\n      mul\n      0x20\n      add\n      mload(0x40)\n      swap1\n      dup2\n      add\n      0x40\n      mstore\n      dup1\n      swap3\n      swap2\n      swap1\n      dup2\n      dup2\n      mstore\n      0x20\n      add\n      dup3\n      dup1\n      sload\n      tag_143\n      swap1\n      tag_124\n      jump\t// in\n    tag_143:\n      dup1\n      iszero\n      tag_144\n      jumpi\n      dup1\n      0x1f\n      lt\n      tag_145\n      jumpi\n      0x0100\n      dup1\n      dup4\n      sload\n      div\n      mul\n      dup4\n      mstore\n      swap2\n      0x20\n      add\n      swap2\n      jump(tag_144)\n    tag_145:\n      dup3\n      add\n      swap2\n      swap1\n      0x00\n      mstore\n      keccak256(0x00, 0x20)\n      swap1\n    tag_146:\n      dup2\n      sload\n      dup2\n      mstore\n      swap1\n      0x01\n      add\n      swap1\n      0x20\n      add\n      dup1\n      dup4\n      gt\n      tag_146\n      jumpi\n      dup3\n      swap1\n      sub\n      0x1f\n      and\n      dup3\n      add\n      swap2\n    tag_144:\n      pop\n      pop\n      pop\n      pop\n      pop\n      dup2\n      mstore\n      0x20\n      add\n      swap1\n      0x01\n      add\n      swap1\n      jump(tag_139)\n    tag_140:\n      pop\n      pop\n      pop\n      pop\n      dup2\n      mstore\n      0x20\n      add\n      0x04\n      dup3\n      add\n      dup1\n      sload\n      dup1\n      0x20\n      mul\n      0x20\n      add\n      mload(0x40)\n      swap1\n      dup2\n      add\n      0x40\n      mstore\n      dup1\n      swap3\n      swap2\n      swap1\n      dup2\n      dup2\n      mstore\n      0x20\n      add\n      dup3\n      dup1\n      sload\n      dup1\n      iszero\n      tag_147\n      jumpi\n      0x20\n      mul\n      dup3\n      add\n      swap2\n      swap1\n      0x00\n      mstore\n      keccak256(0x00, 0x20)\n      swap1\n    tag_148:\n      dup2\n      sload\n      dup2\n      mstore\n      0x20\n      add\n      swap1\n      0x01\n      add\n      swap1\n      dup1\n      dup4\n      gt\n      tag_148\n      jumpi\n    tag_147:\n      pop\n      pop\n      pop\n      pop\n      pop\n      dup2\n      mstore\n      0x20\n      add\n      0x05\n      dup3\n      add\n      dup1\n      sload\n      dup1\n      0x20\n      mul\n      0x20\n      add\n      mload(0x40)\n      swap1\n      dup2\n      add\n      0x40\n      mstore\n      dup1\n      swap3\n      swap2\n      swap1\n      dup2\n      dup2\n      mstore\n      0x20\n      add\n      dup3\n      dup1\n      sload\n      dup1\n      iszero\n      tag_149\n      jumpi\n      0x20\n      mul\n      dup3\n      add\n      swap2\n      swap1\n      0x00\n      mstore\n      keccak256(0x00, 0x20)\n      swap1\n    tag_150:\n      dup2\n      sload\n      dup2\n      mstore\n      0x20\n      add\n      swap1\n      0x01\n      add\n      swap1\n      dup1\n      dup4\n      gt\n      tag_150\n      jumpi\n    tag_149:\n      pop\n      pop\n      pop\n      pop\n      pop\n      dup2\n      mstore\n      0x20\n      add\n      0x06\n      dup3\n      add\n      dup1\n      sload\n      dup1\n      0x20\n      mul\n      0x20\n      add\n      mload(0x40)\n      swap1\n      dup2\n      add\n      0x40\n      mstore\n      dup1\n      swap3\n      swap2\n      swap1\n      dup2\n      dup2\n      mstore\n      0x20\n      add\n      dup3\n      dup1\n      sload\n      dup1\n      iszero\n      tag_151\n      jumpi\n      0x20\n      mul\n      dup3\n      add\n      swap2\n      swap1\n      0x00\n      mstore\n      keccak256(0x00, 0x20)\n      swap1\n    tag_152:\n      dup2\n      sload\n      dup2\n      mstore\n      0x20\n      add\n      swap1\n      0x01\n      add\n      swap1\n      dup1\n      dup4\n      gt\n      tag_152\n      jumpi\n    tag_151:\n      pop\n      pop\n      pop\n      pop\n      pop\n      dup2\n      mstore\n      pop\n      pop\n      swap1\n      pop\n        /* \"Contracts/Lending.sol\":4249:4363  function getUserById(string memory userId) public view returns (User memory) {... */\n      swap2\n      swap1\n      pop\n      jump\t// out\n        /* \"Contracts/Lending.sol\":4369:4489  function getProductById(uint productId) public view returns (Product memory) {... */\n    tag_49:\n        /* \"Contracts/Lending.sol\":4430:4444  Product memory */\n      tag_153\n      tag_154\n      jump\t// in\n    tag_153:\n        /* \"Contracts/Lending.sol\":4463:4471  Products */\n      0x05\n        /* \"Contracts/Lending.sol\":4463:4482  Products[productId] */\n      0x00\n        /* \"Contracts/Lending.sol\":4472:4481  productId */\n      dup4\n        /* \"Contracts/Lending.sol\":4463:4482  Products[productId] */\n      dup2\n      mstore\n      0x20\n      add\n      swap1\n      dup2\n      mstore\n      0x20\n      add\n      0x00\n      keccak256\n        /* \"Contracts/Lending.sol\":4456:4482  return Products[productId] */\n      mload(0x40)\n      dup1\n      0x0120\n      add\n      0x40\n      mstore\n      swap1\n      dup2\n      0x00\n      dup3\n      add\n      sload\n      dup2\n      mstore\n      0x20\n      add\n      0x01\n      dup3\n      add\n      dup1\n      sload\n      tag_156\n      swap1\n      tag_124\n      jump\t// in\n    tag_156:\n      dup1\n      0x1f\n      add\n      0x20\n      dup1\n      swap2\n      div\n      mul\n      0x20\n      add\n      mload(0x40)\n      swap1\n      dup2\n      add\n      0x40\n      mstore\n      dup1\n      swap3\n      swap2\n      swap1\n      dup2\n      dup2\n      mstore\n      0x20\n      add\n      dup3\n      dup1\n      sload\n      tag_157\n      swap1\n      tag_124\n      jump\t// in\n    tag_157:\n      dup1\n      iszero\n      tag_158\n      jumpi\n      dup1\n      0x1f\n      lt\n      tag_159\n      jumpi\n      0x0100\n      dup1\n      dup4\n      sload\n      div\n      mul\n      dup4\n      mstore\n      swap2\n      0x20\n      add\n      swap2\n      jump(tag_158)\n    tag_159:\n      dup3\n      add\n      swap2\n      swap1\n      0x00\n      mstore\n      keccak256(0x00, 0x20)\n      swap1\n    tag_160:\n      dup2\n      sload\n      dup2\n      mstore\n      swap1\n      0x01\n      add\n      swap1\n      0x20\n      add\n      dup1\n      dup4\n      gt\n      tag_160\n      jumpi\n      dup3\n      swap1\n      sub\n      0x1f\n      and\n      dup3\n      add\n      swap2\n    tag_158:\n      pop\n      pop\n      pop\n      pop\n      pop\n      dup2\n      mstore\n      0x20\n      add\n      0x02\n      dup3\n      add\n      dup1\n      sload\n      tag_161\n      swap1\n      tag_124\n      jump\t// in\n    tag_161:\n      dup1\n      0x1f\n      add\n      0x20\n      dup1\n      swap2\n      div\n      mul\n      0x20\n      add\n      mload(0x40)\n      swap1\n      dup2\n      add\n      0x40\n      mstore\n      dup1\n      swap3\n      swap2\n      swap1\n      dup2\n      dup2\n      mstore\n      0x20\n      add\n      dup3\n      dup1\n      sload\n      tag_162\n      swap1\n      tag_124\n      jump\t// in\n    tag_162:\n      dup1\n      iszero\n      tag_163\n      jumpi\n      dup1\n      0x1f\n      lt\n      tag_164\n      jumpi\n      0x0100\n      dup1\n      dup4\n      sload\n      div\n      mul\n      dup4\n      mstore\n      swap2\n      0x20\n      add\n      swap2\n      jump(tag_163)\n    tag_164:\n      dup3\n      add\n      swap2\n      swap1\n      0x00\n      mstore\n      keccak256(0x00, 0x20)\n      swap1\n    tag_165:\n      dup2\n      sload\n      dup2\n      mstore\n      swap1\n      0x01\n      add\n      swap1\n      0x20\n      add\n      dup1\n      dup4\n      gt\n      tag_165\n      jumpi\n      dup3\n      swap1\n      sub\n      0x1f\n      and\n      dup3\n      add\n      swap2\n    tag_163:\n      pop\n      pop\n      pop\n      pop\n      pop\n      dup2\n      mstore\n      0x20\n      add\n      0x03\n      dup3\n      add\n      dup1\n      sload\n      tag_166\n      swap1\n      tag_124\n      jump\t// in\n    tag_166:\n      dup1\n      0x1f\n      add\n      0x20\n      dup1\n      swap2\n      div\n      mul\n      0x20\n      add\n      mload(0x40)\n      swap1\n      dup2\n      add\n      0x40\n      mstore\n      dup1\n      swap3\n      swap2\n      swap1\n      dup2\n      dup2\n      mstore\n      0x20\n      add\n      dup3\n      dup1\n      sload\n      tag_167\n      swap1\n      tag_124\n      jump\t// in\n    tag_167:\n      dup1\n      iszero\n      tag_168\n      jumpi\n      dup1\n      0x1f\n      lt\n      tag_169\n      jumpi\n      0x0100\n      dup1\n      dup4\n      sload\n      div\n      mul\n      dup4\n      mstore\n      swap2\n      0x20\n      add\n      swap2\n      jump(tag_168)\n    tag_169:\n      dup3\n      add\n      swap2\n      swap1\n      0x00\n      mstore\n      keccak256(0x00, 0x20)\n      swap1\n    tag_170:\n      dup2\n      sload\n      dup2\n      mstore\n      swap1\n      0x01\n      add\n      swap1\n      0x20\n      add\n      dup1\n      dup4\n      gt\n      tag_170\n      jumpi\n      dup3\n      swap1\n      sub\n      0x1f\n      and\n      dup3\n      add\n      swap2\n    tag_168:\n      pop\n      pop\n      pop\n      pop\n      pop\n      dup2\n      mstore\n      0x20\n      add\n      0x04\n      dup3\n      add\n      dup1\n      sload\n      tag_171\n      swap1\n      tag_124\n      jump\t// in\n    tag_171:\n      dup1\n      0x1f\n      add\n      0x20\n      dup1\n      swap2\n      div\n      mul\n      0x20\n      add\n      mload(0x40)\n      swap1\n      dup2\n      add\n      0x40\n      mstore\n      dup1\n      swap3\n      swap2\n      swap1\n      dup2\n      dup2\n      mstore\n      0x20\n      add\n      dup3\n      dup1\n      sload\n      tag_172\n      swap1\n      tag_124\n      jump\t// in\n    tag_172:\n      dup1\n      iszero\n      tag_173\n      jumpi\n      dup1\n      0x1f\n      lt\n      tag_174\n      jumpi\n      0x0100\n      dup1\n      dup4\n      sload\n      div\n      mul\n      dup4\n      mstore\n      swap2\n      0x20\n      add\n      swap2\n      jump(tag_173)\n    tag_174:\n      dup3\n      add\n      swap2\n      swap1\n      0x00\n      mstore\n      keccak256(0x00, 0x20)\n      swap1\n    tag_175:\n      dup2\n      sload\n      dup2\n      mstore\n      swap1\n      0x01\n      add\n      swap1\n      0x20\n      add\n      dup1\n      dup4\n      gt\n      tag_175\n      jumpi\n      dup3\n      swap1\n      sub\n      0x1f\n      and\n      dup3\n      add\n      swap2\n    tag_173:\n      pop\n      pop\n      pop\n      pop\n      pop\n      dup2\n      mstore\n      0x20\n      add\n      0x05\n      dup3\n      add\n      dup1\n      sload\n      tag_176\n      swap1\n      tag_124\n      jump\t// in\n    tag_176:\n      dup1\n      0x1f\n      add\n      0x20\n      dup1\n      swap2\n      div\n      mul\n      0x20\n      add\n      mload(0x40)\n      swap1\n      dup2\n      add\n      0x40\n      mstore\n      dup1\n      swap3\n      swap2\n      swap1\n      dup2\n      dup2\n      mstore\n      0x20\n      add\n      dup3\n      dup1\n      sload\n      tag_177\n      swap1\n      tag_124\n      jump\t// in\n    tag_177:\n      dup1\n      iszero\n      tag_178\n      jumpi\n      dup1\n      0x1f\n      lt\n      tag_179\n      jumpi\n      0x0100\n      dup1\n      dup4\n      sload\n      div\n      mul\n      dup4\n      mstore\n      swap2\n      0x20\n      add\n      swap2\n      jump(tag_178)\n    tag_179:\n      dup3\n      add\n      swap2\n      swap1\n      0x00\n      mstore\n      keccak256(0x00, 0x20)\n      swap1\n    tag_180:\n      dup2\n      sload\n      dup2\n      mstore\n      swap1\n      0x01\n      add\n      swap1\n      0x20\n      add\n      dup1\n      dup4\n      gt\n      tag_180\n      jumpi\n      dup3\n      swap1\n      sub\n      0x1f\n      and\n      dup3\n      add\n      swap2\n    tag_178:\n      pop\n      pop\n      pop\n      pop\n      pop\n      dup2\n      mstore\n      0x20\n      add\n      0x06\n      dup3\n      add\n      sload\n      dup2\n      mstore\n      0x20\n      add\n      0x07\n      dup3\n      add\n      sload\n      dup2\n      mstore\n      0x20\n      add\n      0x08\n      dup3\n      add\n      dup1\n      sload\n      tag_181\n      swap1\n      tag_124\n      jump\t// in\n    tag_181:\n      dup1\n      0x1f\n      add\n      0x20\n      dup1\n      swap2\n      div\n      mul\n      0x20\n      add\n      mload(0x40)\n      swap1\n      dup2\n      add\n      0x40\n      mstore\n      dup1\n      swap3\n      swap2\n      swap1\n      dup2\n      dup2\n      mstore\n      0x20\n      add\n      dup3\n      dup1\n      sload\n      tag_182\n      swap1\n      tag_124\n      jump\t// in\n    tag_182:\n      dup1\n      iszero\n      tag_183\n      jumpi\n      dup1\n      0x1f\n      lt\n      tag_184\n      jumpi\n      0x0100\n      dup1\n      dup4\n      sload\n      div\n      mul\n      dup4\n      mstore\n      swap2\n      0x20\n      add\n      swap2\n      jump(tag_183)\n    tag_184:\n      dup3\n      add\n      swap2\n      swap1\n      0x00\n      mstore\n      keccak256(0x00, 0x20)\n      swap1\n    tag_185:\n      dup2\n      sload\n      dup2\n      mstore\n      swap1\n      0x01\n      add\n      swap1\n      0x20\n      add\n      dup1\n      dup4\n      gt\n      tag_185\n      jumpi\n      dup3\n      swap1\n      sub\n      0x1f\n      and\n      dup3\n      add\n      swap2\n    tag_183:\n      pop\n      pop\n      pop\n      pop\n      pop\n      dup2\n      mstore\n      pop\n      pop\n      swap1\n      pop\n        /* \"Contracts/Lending.sol\":4369:4489  function getProductById(uint productId) public view returns (Product memory) {... */\n      swap2\n      swap1\n      pop\n      jump\t// out\n        /* \"Contracts/Lending.sol\":3734:4242  function createUserAccount(string memory username, string[] memory _addresses) public returns (User memory) {... */\n    tag_55:\n        /* \"Contracts/Lending.sol\":3829:3840  User memory */\n      tag_186\n      tag_120\n      jump\t// in\n    tag_186:\n        /* \"Contracts/Lending.sol\":3852:3874  uint[] memory products */\n      0x60\n        /* \"Contracts/Lending.sol\":3884:3903  uint[] memory rents */\n      dup1\n        /* \"Contracts/Lending.sol\":3979:4036  User(username,'', '', _addresses, products, rents, rents) */\n      mload(0x40)\n      dup1\n      0xe0\n      add\n      0x40\n      mstore\n      dup1\n        /* \"Contracts/Lending.sol\":3984:3992  username */\n      dup7\n        /* \"Contracts/Lending.sol\":3979:4036  User(username,'', '', _addresses, products, rents, rents) */\n      dup2\n      mstore\n      0x20\n      add\n      mload(0x40)\n      dup1\n      0x20\n      add\n      0x40\n      mstore\n      dup1\n      0x00\n      dup2\n      mstore\n      pop\n      dup2\n      mstore\n      0x20\n      add\n      mload(0x40)\n      dup1\n      0x20\n      add\n      0x40\n      mstore\n      dup1\n      0x00\n      dup2\n      mstore\n      pop\n      dup2\n      mstore\n      0x20\n      add\n        /* \"Contracts/Lending.sol\":4001:4011  _addresses */\n      dup6\n        /* \"Contracts/Lending.sol\":3979:4036  User(username,'', '', _addresses, products, rents, rents) */\n      dup2\n      mstore\n      0x20\n      add\n        /* \"Contracts/Lending.sol\":4013:4021  products */\n      dup4\n        /* \"Contracts/Lending.sol\":3979:4036  User(username,'', '', _addresses, products, rents, rents) */\n      dup2\n      mstore\n      0x20\n      add\n        /* \"Contracts/Lending.sol\":4023:4028  rents */\n      dup3\n        /* \"Contracts/Lending.sol\":3979:4036  User(username,'', '', _addresses, products, rents, rents) */\n      dup2\n      mstore\n      0x20\n      add\n        /* \"Contracts/Lending.sol\":4030:4035  rents */\n      dup3\n        /* \"Contracts/Lending.sol\":3979:4036  User(username,'', '', _addresses, products, rents, rents) */\n      dup2\n      mstore\n      pop\n        /* \"Contracts/Lending.sol\":3961:3966  Users */\n      0x06\n        /* \"Contracts/Lending.sol\":3967:3975  username */\n      dup7\n        /* \"Contracts/Lending.sol\":3961:3976  Users[username] */\n      mload(0x40)\n      tag_188\n      swap2\n      swap1\n      tag_107\n      jump\t// in\n    tag_188:\n      swap1\n      dup2\n      mstore\n      0x20\n      add\n      mload(0x40)\n      dup1\n      swap2\n      sub\n      swap1\n      keccak256\n        /* \"Contracts/Lending.sol\":3961:4036  Users[username] = User(username,'', '', _addresses, products, rents, rents) */\n      0x00\n      dup3\n      add\n      mload\n      dup2\n      0x00\n      add\n      swap1\n      dup2\n      tag_189\n      swap2\n      swap1\n      tag_109\n      jump\t// in\n    tag_189:\n      pop\n      0x20\n      dup3\n      add\n      mload\n      dup2\n      0x01\n      add\n      swap1\n      dup2\n      tag_190\n      swap2\n      swap1\n      tag_109\n      jump\t// in\n    tag_190:\n      pop\n      0x40\n      dup3\n      add\n      mload\n      dup2\n      0x02\n      add\n      swap1\n      dup2\n      tag_191\n      swap2\n      swap1\n      tag_109\n      jump\t// in\n    tag_191:\n      pop\n      0x60\n      dup3\n      add\n      mload\n      dup2\n      0x03\n      add\n      swap1\n      dup1\n      mload\n      swap1\n      0x20\n      add\n      swap1\n      tag_192\n      swap3\n      swap2\n      swap1\n      tag_193\n      jump\t// in\n    tag_192:\n      pop\n      0x80\n      dup3\n      add\n      mload\n      dup2\n      0x04\n      add\n      swap1\n      dup1\n      mload\n      swap1\n      0x20\n      add\n      swap1\n      tag_194\n      swap3\n      swap2\n      swap1\n      tag_195\n      jump\t// in\n    tag_194:\n      pop\n      0xa0\n      dup3\n      add\n      mload\n      dup2\n      0x05\n      add\n      swap1\n      dup1\n      mload\n      swap1\n      0x20\n      add\n      swap1\n      tag_196\n      swap3\n      swap2\n      swap1\n      tag_195\n      jump\t// in\n    tag_196:\n      pop\n      0xc0\n      dup3\n      add\n      mload\n      dup2\n      0x06\n      add\n      swap1\n      dup1\n      mload\n      swap1\n      0x20\n      add\n      swap1\n      tag_197\n      swap3\n      swap2\n      swap1\n      tag_195\n      jump\t// in\n    tag_197:\n      pop\n      swap1\n      pop\n      pop\n        /* \"Contracts/Lending.sol\":4115:4156  assignWalletsToUser(_addresses, username) */\n      tag_198\n        /* \"Contracts/Lending.sol\":4135:4145  _addresses */\n      dup5\n        /* \"Contracts/Lending.sol\":4147:4155  username */\n      dup7\n        /* \"Contracts/Lending.sol\":4115:4134  assignWalletsToUser */\n      tag_60\n        /* \"Contracts/Lending.sol\":4115:4156  assignWalletsToUser(_addresses, username) */\n      jump\t// in\n    tag_198:\n        /* \"Contracts/Lending.sol\":4220:4225  Users */\n      0x06\n        /* \"Contracts/Lending.sol\":4226:4234  username */\n      dup6\n        /* \"Contracts/Lending.sol\":4220:4235  Users[username] */\n      mload(0x40)\n      tag_199\n      swap2\n      swap1\n      tag_107\n      jump\t// in\n    tag_199:\n      swap1\n      dup2\n      mstore\n      0x20\n      add\n      mload(0x40)\n      dup1\n      swap2\n      sub\n      swap1\n      keccak256\n        /* \"Contracts/Lending.sol\":4213:4235  return Users[username] */\n      mload(0x40)\n      dup1\n      0xe0\n      add\n      0x40\n      mstore\n      swap1\n      dup2\n      0x00\n      dup3\n      add\n      dup1\n      sload\n      tag_200\n      swap1\n      tag_124\n      jump\t// in\n    tag_200:\n      dup1\n      0x1f\n      add\n      0x20\n      dup1\n      swap2\n      div\n      mul\n      0x20\n      add\n      mload(0x40)\n      swap1\n      dup2\n      add\n      0x40\n      mstore\n      dup1\n      swap3\n      swap2\n      swap1\n      dup2\n      dup2\n      mstore\n      0x20\n      add\n      dup3\n      dup1\n      sload\n      tag_201\n      swap1\n      tag_124\n      jump\t// in\n    tag_201:\n      dup1\n      iszero\n      tag_202\n      jumpi\n      dup1\n      0x1f\n      lt\n      tag_203\n      jumpi\n      0x0100\n      dup1\n      dup4\n      sload\n      div\n      mul\n      dup4\n      mstore\n      swap2\n      0x20\n      add\n      swap2\n      jump(tag_202)\n    tag_203:\n      dup3\n      add\n      swap2\n      swap1\n      0x00\n      mstore\n      keccak256(0x00, 0x20)\n      swap1\n    tag_204:\n      dup2\n      sload\n      dup2\n      mstore\n      swap1\n      0x01\n      add\n      swap1\n      0x20\n      add\n      dup1\n      dup4\n      gt\n      tag_204\n      jumpi\n      dup3\n      swap1\n      sub\n      0x1f\n      and\n      dup3\n      add\n      swap2\n    tag_202:\n      pop\n      pop\n      pop\n      pop\n      pop\n      dup2\n      mstore\n      0x20\n      add\n      0x01\n      dup3\n      add\n      dup1\n      sload\n      tag_205\n      swap1\n      tag_124\n      jump\t// in\n    tag_205:\n      dup1\n      0x1f\n      add\n      0x20\n      dup1\n      swap2\n      div\n      mul\n      0x20\n      add\n      mload(0x40)\n      swap1\n      dup2\n      add\n      0x40\n      mstore\n      dup1\n      swap3\n      swap2\n      swap1\n      dup2\n      dup2\n      mstore\n      0x20\n      add\n      dup3\n      dup1\n      sload\n      tag_206\n      swap1\n      tag_124\n      jump\t// in\n    tag_206:\n      dup1\n      iszero\n      tag_207\n      jumpi\n      dup1\n      0x1f\n      lt\n      tag_208\n      jumpi\n      0x0100\n      dup1\n      dup4\n      sload\n      div\n      mul\n      dup4\n      mstore\n      swap2\n      0x20\n      add\n      swap2\n      jump(tag_207)\n    tag_208:\n      dup3\n      add\n      swap2\n      swap1\n      0x00\n      mstore\n      keccak256(0x00, 0x20)\n      swap1\n    tag_209:\n      dup2\n      sload\n      dup2\n      mstore\n      swap1\n      0x01\n      add\n      swap1\n      0x20\n      add\n      dup1\n      dup4\n      gt\n      tag_209\n      jumpi\n      dup3\n      swap1\n      sub\n      0x1f\n      and\n      dup3\n      add\n      swap2\n    tag_207:\n      pop\n      pop\n      pop\n      pop\n      pop\n      dup2\n      mstore\n      0x20\n      add\n      0x02\n      dup3\n      add\n      dup1\n      sload\n      tag_210\n      swap1\n      tag_124\n      jump\t// in\n    tag_210:\n      dup1\n      0x1f\n      add\n      0x20\n      dup1\n      swap2\n      div\n      mul\n      0x20\n      add\n      mload(0x40)\n      swap1\n      dup2\n      add\n      0x40\n      mstore\n      dup1\n      swap3\n      swap2\n      swap1\n      dup2\n      dup2\n      mstore\n      0x20\n      add\n      dup3\n      dup1\n      sload\n      tag_211\n      swap1\n      tag_124\n      jump\t// in\n    tag_211:\n      dup1\n      iszero\n      tag_212\n      jumpi\n      dup1\n      0x1f\n      lt\n      tag_213\n      jumpi\n      0x0100\n      dup1\n      dup4\n      sload\n      div\n      mul\n      dup4\n      mstore\n      swap2\n      0x20\n      add\n      swap2\n      jump(tag_212)\n    tag_213:\n      dup3\n      add\n      swap2\n      swap1\n      0x00\n      mstore\n      keccak256(0x00, 0x20)\n      swap1\n    tag_214:\n      dup2\n      sload\n      dup2\n      mstore\n      swap1\n      0x01\n      add\n      swap1\n      0x20\n      add\n      dup1\n      dup4\n      gt\n      tag_214\n      jumpi\n      dup3\n      swap1\n      sub\n      0x1f\n      and\n      dup3\n      add\n      swap2\n    tag_212:\n      pop\n      pop\n      pop\n      pop\n      pop\n      dup2\n      mstore\n      0x20\n      add\n      0x03\n      dup3\n      add\n      dup1\n      sload\n      dup1\n      0x20\n      mul\n      0x20\n      add\n      mload(0x40)\n      swap1\n      dup2\n      add\n      0x40\n      mstore\n      dup1\n      swap3\n      swap2\n      swap1\n      dup2\n      dup2\n      mstore\n      0x20\n      add\n      0x00\n      swap1\n    tag_215:\n      dup3\n      dup3\n      lt\n      iszero\n      tag_216\n      jumpi\n      dup4\n      dup3\n      swap1\n      0x00\n      mstore\n      keccak256(0x00, 0x20)\n      add\n      dup1\n      sload\n      tag_218\n      swap1\n      tag_124\n      jump\t// in\n    tag_218:\n      dup1\n      0x1f\n      add\n      0x20\n      dup1\n      swap2\n      div\n      mul\n      0x20\n      add\n      mload(0x40)\n      swap1\n      dup2\n      add\n      0x40\n      mstore\n      dup1\n      swap3\n      swap2\n      swap1\n      dup2\n      dup2\n      mstore\n      0x20\n      add\n      dup3\n      dup1\n      sload\n      tag_219\n      swap1\n      tag_124\n      jump\t// in\n    tag_219:\n      dup1\n      iszero\n      tag_220\n      jumpi\n      dup1\n      0x1f\n      lt\n      tag_221\n      jumpi\n      0x0100\n      dup1\n      dup4\n      sload\n      div\n      mul\n      dup4\n      mstore\n      swap2\n      0x20\n      add\n      swap2\n      jump(tag_220)\n    tag_221:\n      dup3\n      add\n      swap2\n      swap1\n      0x00\n      mstore\n      keccak256(0x00, 0x20)\n      swap1\n    tag_222:\n      dup2\n      sload\n      dup2\n      mstore\n      swap1\n      0x01\n      add\n      swap1\n      0x20\n      add\n      dup1\n      dup4\n      gt\n      tag_222\n      jumpi\n      dup3\n      swap1\n      sub\n      0x1f\n      and\n      dup3\n      add\n      swap2\n    tag_220:\n      pop\n      pop\n      pop\n      pop\n      pop\n      dup2\n      mstore\n      0x20\n      add\n      swap1\n      0x01\n      add\n      swap1\n      jump(tag_215)\n    tag_216:\n      pop\n      pop\n      pop\n      pop\n      dup2\n      mstore\n      0x20\n      add\n      0x04\n      dup3\n      add\n      dup1\n      sload\n      dup1\n      0x20\n      mul\n      0x20\n      add\n      mload(0x40)\n      swap1\n      dup2\n      add\n      0x40\n      mstore\n      dup1\n      swap3\n      swap2\n      swap1\n      dup2\n      dup2\n      mstore\n      0x20\n      add\n      dup3\n      dup1\n      sload\n      dup1\n      iszero\n      tag_223\n      jumpi\n      0x20\n      mul\n      dup3\n      add\n      swap2\n      swap1\n      0x00\n      mstore\n      keccak256(0x00, 0x20)\n      swap1\n    tag_224:\n      dup2\n      sload\n      dup2\n      mstore\n      0x20\n      add\n      swap1\n      0x01\n      add\n      swap1\n      dup1\n      dup4\n      gt\n      tag_224\n      jumpi\n    tag_223:\n      pop\n      pop\n      pop\n      pop\n      pop\n      dup2\n      mstore\n      0x20\n      add\n      0x05\n      dup3\n      add\n      dup1\n      sload\n      dup1\n      0x20\n      mul\n      0x20\n      add\n      mload(0x40)\n      swap1\n      dup2\n      add\n      0x40\n      mstore\n      dup1\n      swap3\n      swap2\n      swap1\n      dup2\n      dup2\n      mstore\n      0x20\n      add\n      dup3\n      dup1\n      sload\n      dup1\n      iszero\n      tag_225\n      jumpi\n      0x20\n      mul\n      dup3\n      add\n      swap2\n      swap1\n      0x00\n      mstore\n      keccak256(0x00, 0x20)\n      swap1\n    tag_226:\n      dup2\n      sload\n      dup2\n      mstore\n      0x20\n      add\n      swap1\n      0x01\n      add\n      swap1\n      dup1\n      dup4\n      gt\n      tag_226\n      jumpi\n    tag_225:\n      pop\n      pop\n      pop\n      pop\n      pop\n      dup2\n      mstore\n      0x20\n      add\n      0x06\n      dup3\n      add\n      dup1\n      sload\n      dup1\n      0x20\n      mul\n      0x20\n      add\n      mload(0x40)\n      swap1\n      dup2\n      add\n      0x40\n      mstore\n      dup1\n      swap3\n      swap2\n      swap1\n      dup2\n      dup2\n      mstore\n      0x20\n      add\n      dup3\n      dup1\n      sload\n      dup1\n      iszero\n      tag_227\n      jumpi\n      0x20\n      mul\n      dup3\n      add\n      swap2\n      swap1\n      0x00\n      mstore\n      keccak256(0x00, 0x20)\n      swap1\n    tag_228:\n      dup2\n      sload\n      dup2\n      mstore\n      0x20\n      add\n      swap1\n      0x01\n      add\n      swap1\n      dup1\n      dup4\n      gt\n      tag_228\n      jumpi\n    tag_227:\n      pop\n      pop\n      pop\n      pop\n      pop\n      dup2\n      mstore\n      pop\n      pop\n      swap3\n      pop\n      pop\n      pop\n        /* \"Contracts/Lending.sol\":3734:4242  function createUserAccount(string memory username, string[] memory _addresses) public returns (User memory) {... */\n      swap3\n      swap2\n      pop\n      pop\n      jump\t// out\n        /* \"Contracts/Lending.sol\":2941:3313  function assignWalletsToUser(string[] memory _addresses, string memory userId) public {... */\n    tag_60:\n        /* \"Contracts/Lending.sol\":3041:3047  uint i */\n      0x00\n        /* \"Contracts/Lending.sol\":3037:3307  for(uint i=0; i< _addresses.length; i++) {... */\n    tag_230:\n        /* \"Contracts/Lending.sol\":3054:3064  _addresses */\n      dup3\n        /* \"Contracts/Lending.sol\":3054:3071  _addresses.length */\n      mload\n        /* \"Contracts/Lending.sol\":3051:3052  i */\n      dup2\n        /* \"Contracts/Lending.sol\":3051:3071  i< _addresses.length */\n      lt\n        /* \"Contracts/Lending.sol\":3037:3307  for(uint i=0; i< _addresses.length; i++) {... */\n      iszero\n      tag_231\n      jumpi\n        /* \"Contracts/Lending.sol\":3092:3112  string memory wallet */\n      0x00\n        /* \"Contracts/Lending.sol\":3115:3125  _addresses */\n      dup4\n        /* \"Contracts/Lending.sol\":3126:3127  i */\n      dup3\n        /* \"Contracts/Lending.sol\":3115:3128  _addresses[i] */\n      dup2\n      mload\n      dup2\n      lt\n      tag_233\n      jumpi\n      tag_234\n      tag_235\n      jump\t// in\n    tag_234:\n    tag_233:\n      0x20\n      mul\n      0x20\n      add\n      add\n      mload\n        /* \"Contracts/Lending.sol\":3092:3128  string memory wallet = _addresses[i] */\n      swap1\n      pop\n        /* \"Contracts/Lending.sol\":3147:3182  doesKeyExist(wallet, 'userWallets') */\n      tag_236\n        /* \"Contracts/Lending.sol\":3160:3166  wallet */\n      dup2\n        /* \"Contracts/Lending.sol\":3147:3182  doesKeyExist(wallet, 'userWallets') */\n      mload(0x40)\n      dup1\n      0x40\n      add\n      0x40\n      mstore\n      dup1\n      0x0b\n      dup2\n      mstore\n      0x20\n      add\n      0x7573657257616c6c657473000000000000000000000000000000000000000000\n      dup2\n      mstore\n      pop\n        /* \"Contracts/Lending.sol\":3147:3159  doesKeyExist */\n      tag_90\n        /* \"Contracts/Lending.sol\":3147:3182  doesKeyExist(wallet, 'userWallets') */\n      jump\t// in\n    tag_236:\n        /* \"Contracts/Lending.sol\":3142:3297  if (!doesKeyExist(wallet, 'userWallets')) {... */\n      tag_237\n      jumpi\n        /* \"Contracts/Lending.sol\":3224:3230  userId */\n      dup3\n        /* \"Contracts/Lending.sol\":3202:3213  UserWallets */\n      0x0b\n        /* \"Contracts/Lending.sol\":3214:3220  wallet */\n      dup3\n        /* \"Contracts/Lending.sol\":3202:3221  UserWallets[wallet] */\n      mload(0x40)\n      tag_238\n      swap2\n      swap1\n      tag_107\n      jump\t// in\n    tag_238:\n      swap1\n      dup2\n      mstore\n      0x20\n      add\n      mload(0x40)\n      dup1\n      swap2\n      sub\n      swap1\n      keccak256\n        /* \"Contracts/Lending.sol\":3202:3230  UserWallets[wallet] = userId */\n      swap1\n      dup2\n      tag_239\n      swap2\n      swap1\n      tag_109\n      jump\t// in\n    tag_239:\n      pop\n        /* \"Contracts/Lending.sol\":3248:3253  Users */\n      0x06\n        /* \"Contracts/Lending.sol\":3254:3260  userId */\n      dup4\n        /* \"Contracts/Lending.sol\":3248:3261  Users[userId] */\n      mload(0x40)\n      tag_240\n      swap2\n      swap1\n      tag_107\n      jump\t// in\n    tag_240:\n      swap1\n      dup2\n      mstore\n      0x20\n      add\n      mload(0x40)\n      dup1\n      swap2\n      sub\n      swap1\n      keccak256\n        /* \"Contracts/Lending.sol\":3248:3269  Users[userId].wallets */\n      0x03\n      add\n        /* \"Contracts/Lending.sol\":3275:3281  wallet */\n      dup2\n        /* \"Contracts/Lending.sol\":3248:3282  Users[userId].wallets.push(wallet) */\n      swap1\n      dup1\n      0x01\n      dup2\n      sload\n      add\n      dup1\n      dup3\n      sstore\n      dup1\n      swap2\n      pop\n      pop\n      0x01\n      swap1\n      sub\n      swap1\n      0x00\n      mstore\n      keccak256(0x00, 0x20)\n      add\n      0x00\n      swap1\n      swap2\n      swap1\n      swap2\n      swap1\n      swap2\n      pop\n      swap1\n      dup2\n      tag_242\n      swap2\n      swap1\n      tag_109\n      jump\t// in\n    tag_242:\n      pop\n        /* \"Contracts/Lending.sol\":3142:3297  if (!doesKeyExist(wallet, 'userWallets')) {... */\n    tag_237:\n        /* \"Contracts/Lending.sol\":3078:3307  {... */\n      pop\n        /* \"Contracts/Lending.sol\":3073:3076  i++ */\n      dup1\n      dup1\n      tag_243\n      swap1\n      tag_244\n      jump\t// in\n    tag_243:\n      swap2\n      pop\n      pop\n        /* \"Contracts/Lending.sol\":3037:3307  for(uint i=0; i< _addresses.length; i++) {... */\n      jump(tag_230)\n    tag_231:\n      pop\n        /* \"Contracts/Lending.sol\":2941:3313  function assignWalletsToUser(string[] memory _addresses, string memory userId) public {... */\n      pop\n      pop\n      jump\t// out\n        /* \"Contracts/Lending.sol\":122:150  uint public lasProductId = 0 */\n    tag_62:\n      sload(0x01)\n      dup2\n      jump\t// out\n        /* \"Contracts/Lending.sol\":5369:6195  function createProduct(... */\n    tag_67:\n        /* \"Contracts/Lending.sol\":5855:6067  Product(... */\n      mload(0x40)\n      dup1\n      0x0120\n      add\n      0x40\n      mstore\n      dup1\n        /* \"Contracts/Lending.sol\":5876:5888  lasProductId */\n      sload(0x01)\n        /* \"Contracts/Lending.sol\":5855:6067  Product(... */\n      dup2\n      mstore\n      0x20\n      add\n        /* \"Contracts/Lending.sol\":5902:5909  _userId */\n      dup10\n        /* \"Contracts/Lending.sol\":5855:6067  Product(... */\n      dup2\n      mstore\n      0x20\n      add\n        /* \"Contracts/Lending.sol\":5923:5927  _lat */\n      dup9\n        /* \"Contracts/Lending.sol\":5855:6067  Product(... */\n      dup2\n      mstore\n      0x20\n      add\n        /* \"Contracts/Lending.sol\":5941:5945  _lng */\n      dup8\n        /* \"Contracts/Lending.sol\":5855:6067  Product(... */\n      dup2\n      mstore\n      0x20\n      add\n        /* \"Contracts/Lending.sol\":5959:5964  _name */\n      dup7\n        /* \"Contracts/Lending.sol\":5855:6067  Product(... */\n      dup2\n      mstore\n      0x20\n      add\n        /* \"Contracts/Lending.sol\":5978:5990  _description */\n      dup6\n        /* \"Contracts/Lending.sol\":5855:6067  Product(... */\n      dup2\n      mstore\n      0x20\n      add\n        /* \"Contracts/Lending.sol\":6004:6017  _productValue */\n      dup5\n        /* \"Contracts/Lending.sol\":5855:6067  Product(... */\n      dup2\n      mstore\n      0x20\n      add\n        /* \"Contracts/Lending.sol\":6031:6037  _price */\n      dup4\n        /* \"Contracts/Lending.sol\":5855:6067  Product(... */\n      dup2\n      mstore\n      0x20\n      add\n        /* \"Contracts/Lending.sol\":6051:6057  _image */\n      dup3\n        /* \"Contracts/Lending.sol\":5855:6067  Product(... */\n      dup2\n      mstore\n      pop\n        /* \"Contracts/Lending.sol\":5830:5838  Products */\n      0x05\n        /* \"Contracts/Lending.sol\":5830:5852  Products[lasProductId] */\n      0x00\n        /* \"Contracts/Lending.sol\":5839:5851  lasProductId */\n      sload(0x01)\n        /* \"Contracts/Lending.sol\":5830:5852  Products[lasProductId] */\n      dup2\n      mstore\n      0x20\n      add\n      swap1\n      dup2\n      mstore\n      0x20\n      add\n      0x00\n      keccak256\n        /* \"Contracts/Lending.sol\":5830:6067  Products[lasProductId] = Product(... */\n      0x00\n      dup3\n      add\n      mload\n      dup2\n      0x00\n      add\n      sstore\n      0x20\n      dup3\n      add\n      mload\n      dup2\n      0x01\n      add\n      swap1\n      dup2\n      tag_246\n      swap2\n      swap1\n      tag_109\n      jump\t// in\n    tag_246:\n      pop\n      0x40\n      dup3\n      add\n      mload\n      dup2\n      0x02\n      add\n      swap1\n      dup2\n      tag_247\n      swap2\n      swap1\n      tag_109\n      jump\t// in\n    tag_247:\n      pop\n      0x60\n      dup3\n      add\n      mload\n      dup2\n      0x03\n      add\n      swap1\n      dup2\n      tag_248\n      swap2\n      swap1\n      tag_109\n      jump\t// in\n    tag_248:\n      pop\n      0x80\n      dup3\n      add\n      mload\n      dup2\n      0x04\n      add\n      swap1\n      dup2\n      tag_249\n      swap2\n      swap1\n      tag_109\n      jump\t// in\n    tag_249:\n      pop\n      0xa0\n      dup3\n      add\n      mload\n      dup2\n      0x05\n      add\n      swap1\n      dup2\n      tag_250\n      swap2\n      swap1\n      tag_109\n      jump\t// in\n    tag_250:\n      pop\n      0xc0\n      dup3\n      add\n      mload\n      dup2\n      0x06\n      add\n      sstore\n      0xe0\n      dup3\n      add\n      mload\n      dup2\n      0x07\n      add\n      sstore\n      0x0100\n      dup3\n      add\n      mload\n      dup2\n      0x08\n      add\n      swap1\n      dup2\n      tag_251\n      swap2\n      swap1\n      tag_109\n      jump\t// in\n    tag_251:\n      pop\n      swap1\n      pop\n      pop\n        /* \"Contracts/Lending.sol\":6078:6083  Users */\n      0x06\n        /* \"Contracts/Lending.sol\":6084:6091  _userId */\n      dup9\n        /* \"Contracts/Lending.sol\":6078:6092  Users[_userId] */\n      mload(0x40)\n      tag_252\n      swap2\n      swap1\n      tag_107\n      jump\t// in\n    tag_252:\n      swap1\n      dup2\n      mstore\n      0x20\n      add\n      mload(0x40)\n      dup1\n      swap2\n      sub\n      swap1\n      keccak256\n        /* \"Contracts/Lending.sol\":6078:6101  Users[_userId].products */\n      0x04\n      add\n        /* \"Contracts/Lending.sol\":6107:6119  lasProductId */\n      sload(0x01)\n        /* \"Contracts/Lending.sol\":6078:6120  Users[_userId].products.push(lasProductId) */\n      swap1\n      dup1\n      0x01\n      dup2\n      sload\n      add\n      dup1\n      dup3\n      sstore\n      dup1\n      swap2\n      pop\n      pop\n      0x01\n      swap1\n      sub\n      swap1\n      0x00\n      mstore\n      keccak256(0x00, 0x20)\n      add\n      0x00\n      swap1\n      swap2\n      swap1\n      swap2\n      swap1\n      swap2\n      pop\n      sstore\n        /* \"Contracts/Lending.sol\":6130:6144  allProductsIds */\n      0x03\n        /* \"Contracts/Lending.sol\":6150:6162  lasProductId */\n      sload(0x01)\n        /* \"Contracts/Lending.sol\":6130:6163  allProductsIds.push(lasProductId) */\n      swap1\n      dup1\n      0x01\n      dup2\n      sload\n      add\n      dup1\n      dup3\n      sstore\n      dup1\n      swap2\n      pop\n      pop\n      0x01\n      swap1\n      sub\n      swap1\n      0x00\n      mstore\n      keccak256(0x00, 0x20)\n      add\n      0x00\n      swap1\n      swap2\n      swap1\n      swap2\n      swap1\n      swap2\n      pop\n      sstore\n        /* \"Contracts/Lending.sol\":6173:6185  lasProductId */\n      0x01\n      0x00\n        /* \"Contracts/Lending.sol\":6173:6188  lasProductId ++ */\n      dup2\n      sload\n      dup1\n      swap3\n      swap2\n      swap1\n      tag_255\n      swap1\n      tag_244\n      jump\t// in\n    tag_255:\n      swap2\n      swap1\n      pop\n      sstore\n      pop\n        /* \"Contracts/Lending.sol\":5369:6195  function createProduct(... */\n      pop\n      pop\n      pop\n      pop\n      pop\n      pop\n      pop\n      pop\n      jump\t// out\n        /* \"Contracts/Lending.sol\":4849:5015  function getUserByWallet(string memory addr) public view returns (User memory) {... */\n    tag_70:\n        /* \"Contracts/Lending.sol\":4915:4926  User memory */\n      tag_256\n      tag_120\n      jump\t// in\n    tag_256:\n        /* \"Contracts/Lending.sol\":4938:4958  string memory userId */\n      0x00\n        /* \"Contracts/Lending.sol\":4961:4972  UserWallets */\n      0x0b\n        /* \"Contracts/Lending.sol\":4973:4977  addr */\n      dup4\n        /* \"Contracts/Lending.sol\":4961:4978  UserWallets[addr] */\n      mload(0x40)\n      tag_258\n      swap2\n      swap1\n      tag_107\n      jump\t// in\n    tag_258:\n      swap1\n      dup2\n      mstore\n      0x20\n      add\n      mload(0x40)\n      dup1\n      swap2\n      sub\n      swap1\n      keccak256\n        /* \"Contracts/Lending.sol\":4938:4978  string memory userId = UserWallets[addr] */\n      dup1\n      sload\n      tag_259\n      swap1\n      tag_124\n      jump\t// in\n    tag_259:\n      dup1\n      0x1f\n      add\n      0x20\n      dup1\n      swap2\n      div\n      mul\n      0x20\n      add\n      mload(0x40)\n      swap1\n      dup2\n      add\n      0x40\n      mstore\n      dup1\n      swap3\n      swap2\n      swap1\n      dup2\n      dup2\n      mstore\n      0x20\n      add\n      dup3\n      dup1\n      sload\n      tag_260\n      swap1\n      tag_124\n      jump\t// in\n    tag_260:\n      dup1\n      iszero\n      tag_261\n      jumpi\n      dup1\n      0x1f\n      lt\n      tag_262\n      jumpi\n      0x0100\n      dup1\n      dup4\n      sload\n      div\n      mul\n      dup4\n      mstore\n      swap2\n      0x20\n      add\n      swap2\n      jump(tag_261)\n    tag_262:\n      dup3\n      add\n      swap2\n      swap1\n      0x00\n      mstore\n      keccak256(0x00, 0x20)\n      swap1\n    tag_263:\n      dup2\n      sload\n      dup2\n      mstore\n      swap1\n      0x01\n      add\n      swap1\n      0x20\n      add\n      dup1\n      dup4\n      gt\n      tag_263\n      jumpi\n      dup3\n      swap1\n      sub\n      0x1f\n      and\n      dup3\n      add\n      swap2\n    tag_261:\n      pop\n      pop\n      pop\n      pop\n      pop\n      swap1\n      pop\n        /* \"Contracts/Lending.sol\":4995:5000  Users */\n      0x06\n        /* \"Contracts/Lending.sol\":5001:5007  userId */\n      dup2\n        /* \"Contracts/Lending.sol\":4995:5008  Users[userId] */\n      mload(0x40)\n      tag_264\n      swap2\n      swap1\n      tag_107\n      jump\t// in\n    tag_264:\n      swap1\n      dup2\n      mstore\n      0x20\n      add\n      mload(0x40)\n      dup1\n      swap2\n      sub\n      swap1\n      keccak256\n        /* \"Contracts/Lending.sol\":4988:5008  return Users[userId] */\n      mload(0x40)\n      dup1\n      0xe0\n      add\n      0x40\n      mstore\n      swap1\n      dup2\n      0x00\n      dup3\n      add\n      dup1\n      sload\n      tag_265\n      swap1\n      tag_124\n      jump\t// in\n    tag_265:\n      dup1\n      0x1f\n      add\n      0x20\n      dup1\n      swap2\n      div\n      mul\n      0x20\n      add\n      mload(0x40)\n      swap1\n      dup2\n      add\n      0x40\n      mstore\n      dup1\n      swap3\n      swap2\n      swap1\n      dup2\n      dup2\n      mstore\n      0x20\n      add\n      dup3\n      dup1\n      sload\n      tag_266\n      swap1\n      tag_124\n      jump\t// in\n    tag_266:\n      dup1\n      iszero\n      tag_267\n      jumpi\n      dup1\n      0x1f\n      lt\n      tag_268\n      jumpi\n      0x0100\n      dup1\n      dup4\n      sload\n      div\n      mul\n      dup4\n      mstore\n      swap2\n      0x20\n      add\n      swap2\n      jump(tag_267)\n    tag_268:\n      dup3\n      add\n      swap2\n      swap1\n      0x00\n      mstore\n      keccak256(0x00, 0x20)\n      swap1\n    tag_269:\n      dup2\n      sload\n      dup2\n      mstore\n      swap1\n      0x01\n      add\n      swap1\n      0x20\n      add\n      dup1\n      dup4\n      gt\n      tag_269\n      jumpi\n      dup3\n      swap1\n      sub\n      0x1f\n      and\n      dup3\n      add\n      swap2\n    tag_267:\n      pop\n      pop\n      pop\n      pop\n      pop\n      dup2\n      mstore\n      0x20\n      add\n      0x01\n      dup3\n      add\n      dup1\n      sload\n      tag_270\n      swap1\n      tag_124\n      jump\t// in\n    tag_270:\n      dup1\n      0x1f\n      add\n      0x20\n      dup1\n      swap2\n      div\n      mul\n      0x20\n      add\n      mload(0x40)\n      swap1\n      dup2\n      add\n      0x40\n      mstore\n      dup1\n      swap3\n      swap2\n      swap1\n      dup2\n      dup2\n      mstore\n      0x20\n      add\n      dup3\n      dup1\n      sload\n      tag_271\n      swap1\n      tag_124\n      jump\t// in\n    tag_271:\n      dup1\n      iszero\n      tag_272\n      jumpi\n      dup1\n      0x1f\n      lt\n      tag_273\n      jumpi\n      0x0100\n      dup1\n      dup4\n      sload\n      div\n      mul\n      dup4\n      mstore\n      swap2\n      0x20\n      add\n      swap2\n      jump(tag_272)\n    tag_273:\n      dup3\n      add\n      swap2\n      swap1\n      0x00\n      mstore\n      keccak256(0x00, 0x20)\n      swap1\n    tag_274:\n      dup2\n      sload\n      dup2\n      mstore\n      swap1\n      0x01\n      add\n      swap1\n      0x20\n      add\n      dup1\n      dup4\n      gt\n      tag_274\n      jumpi\n      dup3\n      swap1\n      sub\n      0x1f\n      and\n      dup3\n      add\n      swap2\n    tag_272:\n      pop\n      pop\n      pop\n      pop\n      pop\n      dup2\n      mstore\n      0x20\n      add\n      0x02\n      dup3\n      add\n      dup1\n      sload\n      tag_275\n      swap1\n      tag_124\n      jump\t// in\n    tag_275:\n      dup1\n      0x1f\n      add\n      0x20\n      dup1\n      swap2\n      div\n      mul\n      0x20\n      add\n      mload(0x40)\n      swap1\n      dup2\n      add\n      0x40\n      mstore\n      dup1\n      swap3\n      swap2\n      swap1\n      dup2\n      dup2\n      mstore\n      0x20\n      add\n      dup3\n      dup1\n      sload\n      tag_276\n      swap1\n      tag_124\n      jump\t// in\n    tag_276:\n      dup1\n      iszero\n      tag_277\n      jumpi\n      dup1\n      0x1f\n      lt\n      tag_278\n      jumpi\n      0x0100\n      dup1\n      dup4\n      sload\n      div\n      mul\n      dup4\n      mstore\n      swap2\n      0x20\n      add\n      swap2\n      jump(tag_277)\n    tag_278:\n      dup3\n      add\n      swap2\n      swap1\n      0x00\n      mstore\n      keccak256(0x00, 0x20)\n      swap1\n    tag_279:\n      dup2\n      sload\n      dup2\n      mstore\n      swap1\n      0x01\n      add\n      swap1\n      0x20\n      add\n      dup1\n      dup4\n      gt\n      tag_279\n      jumpi\n      dup3\n      swap1\n      sub\n      0x1f\n      and\n      dup3\n      add\n      swap2\n    tag_277:\n      pop\n      pop\n      pop\n      pop\n      pop\n      dup2\n      mstore\n      0x20\n      add\n      0x03\n      dup3\n      add\n      dup1\n      sload\n      dup1\n      0x20\n      mul\n      0x20\n      add\n      mload(0x40)\n      swap1\n      dup2\n      add\n      0x40\n      mstore\n      dup1\n      swap3\n      swap2\n      swap1\n      dup2\n      dup2\n      mstore\n      0x20\n      add\n      0x00\n      swap1\n    tag_280:\n      dup3\n      dup3\n      lt\n      iszero\n      tag_281\n      jumpi\n      dup4\n      dup3\n      swap1\n      0x00\n      mstore\n      keccak256(0x00, 0x20)\n      add\n      dup1\n      sload\n      tag_283\n      swap1\n      tag_124\n      jump\t// in\n    tag_283:\n      dup1\n      0x1f\n      add\n      0x20\n      dup1\n      swap2\n      div\n      mul\n      0x20\n      add\n      mload(0x40)\n      swap1\n      dup2\n      add\n      0x40\n      mstore\n      dup1\n      swap3\n      swap2\n      swap1\n      dup2\n      dup2\n      mstore\n      0x20\n      add\n      dup3\n      dup1\n      sload\n      tag_284\n      swap1\n      tag_124\n      jump\t// in\n    tag_284:\n      dup1\n      iszero\n      tag_285\n      jumpi\n      dup1\n      0x1f\n      lt\n      tag_286\n      jumpi\n      0x0100\n      dup1\n      dup4\n      sload\n      div\n      mul\n      dup4\n      mstore\n      swap2\n      0x20\n      add\n      swap2\n      jump(tag_285)\n    tag_286:\n      dup3\n      add\n      swap2\n      swap1\n      0x00\n      mstore\n      keccak256(0x00, 0x20)\n      swap1\n    tag_287:\n      dup2\n      sload\n      dup2\n      mstore\n      swap1\n      0x01\n      add\n      swap1\n      0x20\n      add\n      dup1\n      dup4\n      gt\n      tag_287\n      jumpi\n      dup3\n      swap1\n      sub\n      0x1f\n      and\n      dup3\n      add\n      swap2\n    tag_285:\n      pop\n      pop\n      pop\n      pop\n      pop\n      dup2\n      mstore\n      0x20\n      add\n      swap1\n      0x01\n      add\n      swap1\n      jump(tag_280)\n    tag_281:\n      pop\n      pop\n      pop\n      pop\n      dup2\n      mstore\n      0x20\n      add\n      0x04\n      dup3\n      add\n      dup1\n      sload\n      dup1\n      0x20\n      mul\n      0x20\n      add\n      mload(0x40)\n      swap1\n      dup2\n      add\n      0x40\n      mstore\n      dup1\n      swap3\n      swap2\n      swap1\n      dup2\n      dup2\n      mstore\n      0x20\n      add\n      dup3\n      dup1\n      sload\n      dup1\n      iszero\n      tag_288\n      jumpi\n      0x20\n      mul\n      dup3\n      add\n      swap2\n      swap1\n      0x00\n      mstore\n      keccak256(0x00, 0x20)\n      swap1\n    tag_289:\n      dup2\n      sload\n      dup2\n      mstore\n      0x20\n      add\n      swap1\n      0x01\n      add\n      swap1\n      dup1\n      dup4\n      gt\n      tag_289\n      jumpi\n    tag_288:\n      pop\n      pop\n      pop\n      pop\n      pop\n      dup2\n      mstore\n      0x20\n      add\n      0x05\n      dup3\n      add\n      dup1\n      sload\n      dup1\n      0x20\n      mul\n      0x20\n      add\n      mload(0x40)\n      swap1\n      dup2\n      add\n      0x40\n      mstore\n      dup1\n      swap3\n      swap2\n      swap1\n      dup2\n      dup2\n      mstore\n      0x20\n      add\n      dup3\n      dup1\n      sload\n      dup1\n      iszero\n      tag_290\n      jumpi\n      0x20\n      mul\n      dup3\n      add\n      swap2\n      swap1\n      0x00\n      mstore\n      keccak256(0x00, 0x20)\n      swap1\n    tag_291:\n      dup2\n      sload\n      dup2\n      mstore\n      0x20\n      add\n      swap1\n      0x01\n      add\n      swap1\n      dup1\n      dup4\n      gt\n      tag_291\n      jumpi\n    tag_290:\n      pop\n      pop\n      pop\n      pop\n      pop\n      dup2\n      mstore\n      0x20\n      add\n      0x06\n      dup3\n      add\n      dup1\n      sload\n      dup1\n      0x20\n      mul\n      0x20\n      add\n      mload(0x40)\n      swap1\n      dup2\n      add\n      0x40\n      mstore\n      dup1\n      swap3\n      swap2\n      swap1\n      dup2\n      dup2\n      mstore\n      0x20\n      add\n      dup3\n      dup1\n      sload\n      dup1\n      iszero\n      tag_292\n      jumpi\n      0x20\n      mul\n      dup3\n      add\n      swap2\n      swap1\n      0x00\n      mstore\n      keccak256(0x00, 0x20)\n      swap1\n    tag_293:\n      dup2\n      sload\n      dup2\n      mstore\n      0x20\n      add\n      swap1\n      0x01\n      add\n      swap1\n      dup1\n      dup4\n      gt\n      tag_293\n      jumpi\n    tag_292:\n      pop\n      pop\n      pop\n      pop\n      pop\n      dup2\n      mstore\n      pop\n      pop\n      swap2\n      pop\n      pop\n        /* \"Contracts/Lending.sol\":4849:5015  function getUserByWallet(string memory addr) public view returns (User memory) {... */\n      swap2\n      swap1\n      pop\n      jump\t// out\n        /* \"Contracts/Lending.sol\":5021:5102  function getOwner() external view returns (address) {... */\n    tag_73:\n        /* \"Contracts/Lending.sol\":5064:5071  address */\n      0x00\n        /* \"Contracts/Lending.sol\":5090:5095  owner */\n      dup1\n      0x00\n      swap1\n      sload\n      swap1\n      0x0100\n      exp\n      swap1\n      div\n      0xffffffffffffffffffffffffffffffffffffffff\n      and\n        /* \"Contracts/Lending.sol\":5083:5095  return owner */\n      swap1\n      pop\n        /* \"Contracts/Lending.sol\":5021:5102  function getOwner() external view returns (address) {... */\n      swap1\n      jump\t// out\n        /* \"Contracts/Lending.sol\":156:182  uint public lastRentId = 0 */\n    tag_77:\n      sload(0x02)\n      dup2\n      jump\t// out\n        /* \"Contracts/Lending.sol\":1790:2183  function compareStrings(string memory a, string memory b) public pure returns (bool) {... */\n    tag_81:\n        /* \"Contracts/Lending.sol\":1869:1873  bool */\n      0x00\n        /* \"Contracts/Lending.sol\":1914:1915  b */\n      dup2\n        /* \"Contracts/Lending.sol\":1908:1923  bytes(b).length */\n      mload\n        /* \"Contracts/Lending.sol\":1895:1896  a */\n      dup4\n        /* \"Contracts/Lending.sol\":1889:1904  bytes(a).length */\n      mload\n        /* \"Contracts/Lending.sol\":1889:1923  bytes(a).length != bytes(b).length */\n      eq\n        /* \"Contracts/Lending.sol\":1885:2177  if (bytes(a).length != bytes(b).length) {... */\n      tag_296\n      jumpi\n        /* \"Contracts/Lending.sol\":1946:1951  false */\n      0x00\n        /* \"Contracts/Lending.sol\":1939:1951  return false */\n      swap1\n      pop\n      jump(tag_295)\n        /* \"Contracts/Lending.sol\":1885:2177  if (bytes(a).length != bytes(b).length) {... */\n    tag_296:\n        /* \"Contracts/Lending.sol\":1987:1993  uint i */\n      0x00\n        /* \"Contracts/Lending.sol\":1982:2142  for (uint i = 0; i < bytes(a).length; i++) {... */\n    tag_298:\n        /* \"Contracts/Lending.sol\":2009:2010  a */\n      dup4\n        /* \"Contracts/Lending.sol\":2003:2018  bytes(a).length */\n      mload\n        /* \"Contracts/Lending.sol\":1999:2000  i */\n      dup2\n        /* \"Contracts/Lending.sol\":1999:2018  i < bytes(a).length */\n      lt\n        /* \"Contracts/Lending.sol\":1982:2142  for (uint i = 0; i < bytes(a).length; i++) {... */\n      iszero\n      tag_299\n      jumpi\n        /* \"Contracts/Lending.sol\":2068:2069  b */\n      dup3\n        /* \"Contracts/Lending.sol\":2071:2072  i */\n      dup2\n        /* \"Contracts/Lending.sol\":2062:2073  bytes(b)[i] */\n      dup2\n      mload\n      dup2\n      lt\n      tag_301\n      jumpi\n      tag_302\n      tag_235\n      jump\t// in\n    tag_302:\n    tag_301:\n      0x20\n      add\n      add\n      mload\n      0xf8\n      shr\n      0xf8\n      shl\n        /* \"Contracts/Lending.sol\":2047:2073  bytes(a)[i] != bytes(b)[i] */\n      not(0xffffffffffffffffffffffffffffffffffffffffffffffffffffffffffffff)\n      and\n        /* \"Contracts/Lending.sol\":2053:2054  a */\n      dup5\n        /* \"Contracts/Lending.sol\":2056:2057  i */\n      dup3\n        /* \"Contracts/Lending.sol\":2047:2058  bytes(a)[i] */\n      dup2\n      mload\n      dup2\n      lt\n      tag_303\n      jumpi\n      tag_304\n      tag_235\n      jump\t// in\n    tag_304:\n    tag_303:\n      0x20\n      add\n      add\n      mload\n      0xf8\n      shr\n      0xf8\n      shl\n        /* \"Contracts/Lending.sol\":2047:2073  bytes(a)[i] != bytes(b)[i] */\n      not(0xffffffffffffffffffffffffffffffffffffffffffffffffffffffffffffff)\n      and\n      eq\n        /* \"Contracts/Lending.sol\":2043:2128  if (bytes(a)[i] != bytes(b)[i]) {... */\n      tag_305\n      jumpi\n        /* \"Contracts/Lending.sol\":2104:2109  false */\n      0x00\n        /* \"Contracts/Lending.sol\":2097:2109  return false */\n      swap2\n      pop\n      pop\n      jump(tag_295)\n        /* \"Contracts/Lending.sol\":2043:2128  if (bytes(a)[i] != bytes(b)[i]) {... */\n    tag_305:\n        /* \"Contracts/Lending.sol\":2020:2023  i++ */\n      dup1\n      dup1\n      tag_306\n      swap1\n      tag_244\n      jump\t// in\n    tag_306:\n      swap2\n      pop\n      pop\n        /* \"Contracts/Lending.sol\":1982:2142  for (uint i = 0; i < bytes(a).length; i++) {... */\n      jump(tag_298)\n    tag_299:\n      pop\n        /* \"Contracts/Lending.sol\":2162:2166  true */\n      0x01\n        /* \"Contracts/Lending.sol\":2155:2166  return true */\n      swap1\n      pop\n        /* \"Contracts/Lending.sol\":1790:2183  function compareStrings(string memory a, string memory b) public pure returns (bool) {... */\n    tag_295:\n      swap3\n      swap2\n      pop\n      pop\n      jump\t// out\n        /* \"Contracts/Lending.sol\":4495:4663  function getUserByLens(string memory lens) public view returns (User memory) {... */\n    tag_86:\n        /* \"Contracts/Lending.sol\":4559:4570  User memory */\n      tag_307\n      tag_120\n      jump\t// in\n    tag_307:\n        /* \"Contracts/Lending.sol\":4582:4602  string memory userId */\n      0x00\n        /* \"Contracts/Lending.sol\":4605:4620  UserLensHandles */\n      0x0c\n        /* \"Contracts/Lending.sol\":4621:4625  lens */\n      dup4\n        /* \"Contracts/Lending.sol\":4605:4626  UserLensHandles[lens] */\n      mload(0x40)\n      tag_309\n      swap2\n      swap1\n      tag_107\n      jump\t// in\n    tag_309:\n      swap1\n      dup2\n      mstore\n      0x20\n      add\n      mload(0x40)\n      dup1\n      swap2\n      sub\n      swap1\n      keccak256\n        /* \"Contracts/Lending.sol\":4582:4626  string memory userId = UserLensHandles[lens] */\n      dup1\n      sload\n      tag_310\n      swap1\n      tag_124\n      jump\t// in\n    tag_310:\n      dup1\n      0x1f\n      add\n      0x20\n      dup1\n      swap2\n      div\n      mul\n      0x20\n      add\n      mload(0x40)\n      swap1\n      dup2\n      add\n      0x40\n      mstore\n      dup1\n      swap3\n      swap2\n      swap1\n      dup2\n      dup2\n      mstore\n      0x20\n      add\n      dup3\n      dup1\n      sload\n      tag_311\n      swap1\n      tag_124\n      jump\t// in\n    tag_311:\n      dup1\n      iszero\n      tag_312\n      jumpi\n      dup1\n      0x1f\n      lt\n      tag_313\n      jumpi\n      0x0100\n      dup1\n      dup4\n      sload\n      div\n      mul\n      dup4\n      mstore\n      swap2\n      0x20\n      add\n      swap2\n      jump(tag_312)\n    tag_313:\n      dup3\n      add\n      swap2\n      swap1\n      0x00\n      mstore\n      keccak256(0x00, 0x20)\n      swap1\n    tag_314:\n      dup2\n      sload\n      dup2\n      mstore\n      swap1\n      0x01\n      add\n      swap1\n      0x20\n      add\n      dup1\n      dup4\n      gt\n      tag_314\n      jumpi\n      dup3\n      swap1\n      sub\n      0x1f\n      and\n      dup3\n      add\n      swap2\n    tag_312:\n      pop\n      pop\n      pop\n      pop\n      pop\n      swap1\n      pop\n        /* \"Contracts/Lending.sol\":4643:4648  Users */\n      0x06\n        /* \"Contracts/Lending.sol\":4649:4655  userId */\n      dup2\n        /* \"Contracts/Lending.sol\":4643:4656  Users[userId] */\n      mload(0x40)\n      tag_315\n      swap2\n      swap1\n      tag_107\n      jump\t// in\n    tag_315:\n      swap1\n      dup2\n      mstore\n      0x20\n      add\n      mload(0x40)\n      dup1\n      swap2\n      sub\n      swap1\n      keccak256\n        /* \"Contracts/Lending.sol\":4636:4656  return Users[userId] */\n      mload(0x40)\n      dup1\n      0xe0\n      add\n      0x40\n      mstore\n      swap1\n      dup2\n      0x00\n      dup3\n      add\n      dup1\n      sload\n      tag_316\n      swap1\n      tag_124\n      jump\t// in\n    tag_316:\n      dup1\n      0x1f\n      add\n      0x20\n      dup1\n      swap2\n      div\n      mul\n      0x20\n      add\n      mload(0x40)\n      swap1\n      dup2\n      add\n      0x40\n      mstore\n      dup1\n      swap3\n      swap2\n      swap1\n      dup2\n      dup2\n      mstore\n      0x20\n      add\n      dup3\n      dup1\n      sload\n      tag_317\n      swap1\n      tag_124\n      jump\t// in\n    tag_317:\n      dup1\n      iszero\n      tag_318\n      jumpi\n      dup1\n      0x1f\n      lt\n      tag_319\n      jumpi\n      0x0100\n      dup1\n      dup4\n      sload\n      div\n      mul\n      dup4\n      mstore\n      swap2\n      0x20\n      add\n      swap2\n      jump(tag_318)\n    tag_319:\n      dup3\n      add\n      swap2\n      swap1\n      0x00\n      mstore\n      keccak256(0x00, 0x20)\n      swap1\n    tag_320:\n      dup2\n      sload\n      dup2\n      mstore\n      swap1\n      0x01\n      add\n      swap1\n      0x20\n      add\n      dup1\n      dup4\n      gt\n      tag_320\n      jumpi\n      dup3\n      swap1\n      sub\n      0x1f\n      and\n      dup3\n      add\n      swap2\n    tag_318:\n      pop\n      pop\n      pop\n      pop\n      pop\n      dup2\n      mstore\n      0x20\n      add\n      0x01\n      dup3\n      add\n      dup1\n      sload\n      tag_321\n      swap1\n      tag_124\n      jump\t// in\n    tag_321:\n      dup1\n      0x1f\n      add\n      0x20\n      dup1\n      swap2\n      div\n      mul\n      0x20\n      add\n      mload(0x40)\n      swap1\n      dup2\n      add\n      0x40\n      mstore\n      dup1\n      swap3\n      swap2\n      swap1\n      dup2\n      dup2\n      mstore\n      0x20\n      add\n      dup3\n      dup1\n      sload\n      tag_322\n      swap1\n      tag_124\n      jump\t// in\n    tag_322:\n      dup1\n      iszero\n      tag_323\n      jumpi\n      dup1\n      0x1f\n      lt\n      tag_324\n      jumpi\n      0x0100\n      dup1\n      dup4\n      sload\n      div\n      mul\n      dup4\n      mstore\n      swap2\n      0x20\n      add\n      swap2\n      jump(tag_323)\n    tag_324:\n      dup3\n      add\n      swap2\n      swap1\n      0x00\n      mstore\n      keccak256(0x00, 0x20)\n      swap1\n    tag_325:\n      dup2\n      sload\n      dup2\n      mstore\n      swap1\n      0x01\n      add\n      swap1\n      0x20\n      add\n      dup1\n      dup4\n      gt\n      tag_325\n      jumpi\n      dup3\n      swap1\n      sub\n      0x1f\n      and\n      dup3\n      add\n      swap2\n    tag_323:\n      pop\n      pop\n      pop\n      pop\n      pop\n      dup2\n      mstore\n      0x20\n      add\n      0x02\n      dup3\n      add\n      dup1\n      sload\n      tag_326\n      swap1\n      tag_124\n      jump\t// in\n    tag_326:\n      dup1\n      0x1f\n      add\n      0x20\n      dup1\n      swap2\n      div\n      mul\n      0x20\n      add\n      mload(0x40)\n      swap1\n      dup2\n      add\n      0x40\n      mstore\n      dup1\n      swap3\n      swap2\n      swap1\n      dup2\n      dup2\n      mstore\n      0x20\n      add\n      dup3\n      dup1\n      sload\n      tag_327\n      swap1\n      tag_124\n      jump\t// in\n    tag_327:\n      dup1\n      iszero\n      tag_328\n      jumpi\n      dup1\n      0x1f\n      lt\n      tag_329\n      jumpi\n      0x0100\n      dup1\n      dup4\n      sload\n      div\n      mul\n      dup4\n      mstore\n      swap2\n      0x20\n      add\n      swap2\n      jump(tag_328)\n    tag_329:\n      dup3\n      add\n      swap2\n      swap1\n      0x00\n      mstore\n      keccak256(0x00, 0x20)\n      swap1\n    tag_330:\n      dup2\n      sload\n      dup2\n      mstore\n      swap1\n      0x01\n      add\n      swap1\n      0x20\n      add\n      dup1\n      dup4\n      gt\n      tag_330\n      jumpi\n      dup3\n      swap1\n      sub\n      0x1f\n      and\n      dup3\n      add\n      swap2\n    tag_328:\n      pop\n      pop\n      pop\n      pop\n      pop\n      dup2\n      mstore\n      0x20\n      add\n      0x03\n      dup3\n      add\n      dup1\n      sload\n      dup1\n      0x20\n      mul\n      0x20\n      add\n      mload(0x40)\n      swap1\n      dup2\n      add\n      0x40\n      mstore\n      dup1\n      swap3\n      swap2\n      swap1\n      dup2\n      dup2\n      mstore\n      0x20\n      add\n      0x00\n      swap1\n    tag_331:\n      dup3\n      dup3\n      lt\n      iszero\n      tag_332\n      jumpi\n      dup4\n      dup3\n      swap1\n      0x00\n      mstore\n      keccak256(0x00, 0x20)\n      add\n      dup1\n      sload\n      tag_334\n      swap1\n      tag_124\n      jump\t// in\n    tag_334:\n      dup1\n      0x1f\n      add\n      0x20\n      dup1\n      swap2\n      div\n      mul\n      0x20\n      add\n      mload(0x40)\n      swap1\n      dup2\n      add\n      0x40\n      mstore\n      dup1\n      swap3\n      swap2\n      swap1\n      dup2\n      dup2\n      mstore\n      0x20\n      add\n      dup3\n      dup1\n      sload\n      tag_335\n      swap1\n      tag_124\n      jump\t// in\n    tag_335:\n      dup1\n      iszero\n      tag_336\n      jumpi\n      dup1\n      0x1f\n      lt\n      tag_337\n      jumpi\n      0x0100\n      dup1\n      dup4\n      sload\n      div\n      mul\n      dup4\n      mstore\n      swap2\n      0x20\n      add\n      swap2\n      jump(tag_336)\n    tag_337:\n      dup3\n      add\n      swap2\n      swap1\n      0x00\n      mstore\n      keccak256(0x00, 0x20)\n      swap1\n    tag_338:\n      dup2\n      sload\n      dup2\n      mstore\n      swap1\n      0x01\n      add\n      swap1\n      0x20\n      add\n      dup1\n      dup4\n      gt\n      tag_338\n      jumpi\n      dup3\n      swap1\n      sub\n      0x1f\n      and\n      dup3\n      add\n      swap2\n    tag_336:\n      pop\n      pop\n      pop\n      pop\n      pop\n      dup2\n      mstore\n      0x20\n      add\n      swap1\n      0x01\n      add\n      swap1\n      jump(tag_331)\n    tag_332:\n      pop\n      pop\n      pop\n      pop\n      dup2\n      mstore\n      0x20\n      add\n      0x04\n      dup3\n      add\n      dup1\n      sload\n      dup1\n      0x20\n      mul\n      0x20\n      add\n      mload(0x40)\n      swap1\n      dup2\n      add\n      0x40\n      mstore\n      dup1\n      swap3\n      swap2\n      swap1\n      dup2\n      dup2\n      mstore\n      0x20\n      add\n      dup3\n      dup1\n      sload\n      dup1\n      iszero\n      tag_339\n      jumpi\n      0x20\n      mul\n      dup3\n      add\n      swap2\n      swap1\n      0x00\n      mstore\n      keccak256(0x00, 0x20)\n      swap1\n    tag_340:\n      dup2\n      sload\n      dup2\n      mstore\n      0x20\n      add\n      swap1\n      0x01\n      add\n      swap1\n      dup1\n      dup4\n      gt\n      tag_340\n      jumpi\n    tag_339:\n      pop\n      pop\n      pop\n      pop\n      pop\n      dup2\n      mstore\n      0x20\n      add\n      0x05\n      dup3\n      add\n      dup1\n      sload\n      dup1\n      0x20\n      mul\n      0x20\n      add\n      mload(0x40)\n      swap1\n      dup2\n      add\n      0x40\n      mstore\n      dup1\n      swap3\n      swap2\n      swap1\n      dup2\n      dup2\n      mstore\n      0x20\n      add\n      dup3\n      dup1\n      sload\n      dup1\n      iszero\n      tag_341\n      jumpi\n      0x20\n      mul\n      dup3\n      add\n      swap2\n      swap1\n      0x00\n      mstore\n      keccak256(0x00, 0x20)\n      swap1\n    tag_342:\n      dup2\n      sload\n      dup2\n      mstore\n      0x20\n      add\n      swap1\n      0x01\n      add\n      swap1\n      dup1\n      dup4\n      gt\n      tag_342\n      jumpi\n    tag_341:\n      pop\n      pop\n      pop\n      pop\n      pop\n      dup2\n      mstore\n      0x20\n      add\n      0x06\n      dup3\n      add\n      dup1\n      sload\n      dup1\n      0x20\n      mul\n      0x20\n      add\n      mload(0x40)\n      swap1\n      dup2\n      add\n      0x40\n      mstore\n      dup1\n      swap3\n      swap2\n      swap1\n      dup2\n      dup2\n      mstore\n      0x20\n      add\n      dup3\n      dup1\n      sload\n      dup1\n      iszero\n      tag_343\n      jumpi\n      0x20\n      mul\n      dup3\n      add\n      swap2\n      swap1\n      0x00\n      mstore\n      keccak256(0x00, 0x20)\n      swap1\n    tag_344:\n      dup2\n      sload\n      dup2\n      mstore\n      0x20\n      add\n      swap1\n      0x01\n      add\n      swap1\n      dup1\n      dup4\n      gt\n      tag_344\n      jumpi\n    tag_343:\n      pop\n      pop\n      pop\n      pop\n      pop\n      dup2\n      mstore\n      pop\n      pop\n      swap2\n      pop\n      pop\n        /* \"Contracts/Lending.sol\":4495:4663  function getUserByLens(string memory lens) public view returns (User memory) {... */\n      swap2\n      swap1\n      pop\n      jump\t// out\n        /* \"Contracts/Lending.sol\":2245:2871  function doesKeyExist(string memory key, string memory variable) public view returns (bool) {... */\n    tag_90:\n        /* \"Contracts/Lending.sol\":2331:2335  bool */\n      0x00\n        /* \"Contracts/Lending.sol\":2352:2391  compareStrings(variable, 'userWallets') */\n      tag_346\n        /* \"Contracts/Lending.sol\":2367:2375  variable */\n      dup3\n        /* \"Contracts/Lending.sol\":2352:2391  compareStrings(variable, 'userWallets') */\n      mload(0x40)\n      dup1\n      0x40\n      add\n      0x40\n      mstore\n      dup1\n      0x0b\n      dup2\n      mstore\n      0x20\n      add\n      0x7573657257616c6c657473000000000000000000000000000000000000000000\n      dup2\n      mstore\n      pop\n        /* \"Contracts/Lending.sol\":2352:2366  compareStrings */\n      tag_81\n        /* \"Contracts/Lending.sol\":2352:2391  compareStrings(variable, 'userWallets') */\n      jump\t// in\n    tag_346:\n        /* \"Contracts/Lending.sol\":2348:2505  if (compareStrings(variable, 'userWallets')) {... */\n      iszero\n      tag_347\n      jumpi\n        /* \"Contracts/Lending.sol\":2473:2493  abi.encodePacked(\"\") */\n      add(0x20, mload(0x40))\n      tag_348\n      swap1\n      tag_349\n      jump\t// in\n    tag_348:\n      mload(0x40)\n      0x20\n      dup2\n      dup4\n      sub\n      sub\n      dup2\n      mstore\n      swap1\n      0x40\n      mstore\n        /* \"Contracts/Lending.sol\":2463:2494  keccak256(abi.encodePacked(\"\")) */\n      dup1\n      mload\n      swap1\n      0x20\n      add\n      keccak256\n        /* \"Contracts/Lending.sol\":2441:2452  UserWallets */\n      0x0b\n        /* \"Contracts/Lending.sol\":2453:2456  key */\n      dup5\n        /* \"Contracts/Lending.sol\":2441:2457  UserWallets[key] */\n      mload(0x40)\n      tag_350\n      swap2\n      swap1\n      tag_107\n      jump\t// in\n    tag_350:\n      swap1\n      dup2\n      mstore\n      0x20\n      add\n      mload(0x40)\n      dup1\n      swap2\n      sub\n      swap1\n      keccak256\n        /* \"Contracts/Lending.sol\":2424:2458  abi.encodePacked(UserWallets[key]) */\n      add(0x20, mload(0x40))\n      tag_351\n      swap2\n      swap1\n      tag_352\n      jump\t// in\n    tag_351:\n      mload(0x40)\n      0x20\n      dup2\n      dup4\n      sub\n      sub\n      dup2\n      mstore\n      swap1\n      0x40\n      mstore\n        /* \"Contracts/Lending.sol\":2414:2459  keccak256(abi.encodePacked(UserWallets[key])) */\n      dup1\n      mload\n      swap1\n      0x20\n      add\n      keccak256\n        /* \"Contracts/Lending.sol\":2414:2494  keccak256(abi.encodePacked(UserWallets[key])) != keccak256(abi.encodePacked(\"\")) */\n      eq\n      iszero\n        /* \"Contracts/Lending.sol\":2407:2494  return keccak256(abi.encodePacked(UserWallets[key])) != keccak256(abi.encodePacked(\"\")) */\n      swap1\n      pop\n      jump(tag_345)\n        /* \"Contracts/Lending.sol\":2348:2505  if (compareStrings(variable, 'userWallets')) {... */\n    tag_347:\n        /* \"Contracts/Lending.sol\":2519:2555  compareStrings(variable, 'userLens') */\n      tag_353\n        /* \"Contracts/Lending.sol\":2534:2542  variable */\n      dup3\n        /* \"Contracts/Lending.sol\":2519:2555  compareStrings(variable, 'userLens') */\n      mload(0x40)\n      dup1\n      0x40\n      add\n      0x40\n      mstore\n      dup1\n      0x08\n      dup2\n      mstore\n      0x20\n      add\n      0x757365724c656e73000000000000000000000000000000000000000000000000\n      dup2\n      mstore\n      pop\n        /* \"Contracts/Lending.sol\":2519:2533  compareStrings */\n      tag_81\n        /* \"Contracts/Lending.sol\":2519:2555  compareStrings(variable, 'userLens') */\n      jump\t// in\n    tag_353:\n        /* \"Contracts/Lending.sol\":2515:2673  if (compareStrings(variable, 'userLens')) {... */\n      iszero\n      tag_354\n      jumpi\n        /* \"Contracts/Lending.sol\":2641:2661  abi.encodePacked(\"\") */\n      add(0x20, mload(0x40))\n      tag_355\n      swap1\n      tag_349\n      jump\t// in\n    tag_355:\n      mload(0x40)\n      0x20\n      dup2\n      dup4\n      sub\n      sub\n      dup2\n      mstore\n      swap1\n      0x40\n      mstore\n        /* \"Contracts/Lending.sol\":2631:2662  keccak256(abi.encodePacked(\"\")) */\n      dup1\n      mload\n      swap1\n      0x20\n      add\n      keccak256\n        /* \"Contracts/Lending.sol\":2605:2620  UserLensHandles */\n      0x0c\n        /* \"Contracts/Lending.sol\":2621:2624  key */\n      dup5\n        /* \"Contracts/Lending.sol\":2605:2625  UserLensHandles[key] */\n      mload(0x40)\n      tag_356\n      swap2\n      swap1\n      tag_107\n      jump\t// in\n    tag_356:\n      swap1\n      dup2\n      mstore\n      0x20\n      add\n      mload(0x40)\n      dup1\n      swap2\n      sub\n      swap1\n      keccak256\n        /* \"Contracts/Lending.sol\":2588:2626  abi.encodePacked(UserLensHandles[key]) */\n      add(0x20, mload(0x40))\n      tag_357\n      swap2\n      swap1\n      tag_352\n      jump\t// in\n    tag_357:\n      mload(0x40)\n      0x20\n      dup2\n      dup4\n      sub\n      sub\n      dup2\n      mstore\n      swap1\n      0x40\n      mstore\n        /* \"Contracts/Lending.sol\":2578:2627  keccak256(abi.encodePacked(UserLensHandles[key])) */\n      dup1\n      mload\n      swap1\n      0x20\n      add\n      keccak256\n        /* \"Contracts/Lending.sol\":2578:2662  keccak256(abi.encodePacked(UserLensHandles[key])) != keccak256(abi.encodePacked(\"\")) */\n      eq\n      iszero\n        /* \"Contracts/Lending.sol\":2571:2662  return keccak256(abi.encodePacked(UserLensHandles[key])) != keccak256(abi.encodePacked(\"\")) */\n      swap1\n      pop\n      jump(tag_345)\n        /* \"Contracts/Lending.sol\":2515:2673  if (compareStrings(variable, 'userLens')) {... */\n    tag_354:\n        /* \"Contracts/Lending.sol\":2687:2723  compareStrings(variable, 'userWCID') */\n      tag_358\n        /* \"Contracts/Lending.sol\":2702:2710  variable */\n      dup3\n        /* \"Contracts/Lending.sol\":2687:2723  compareStrings(variable, 'userWCID') */\n      mload(0x40)\n      dup1\n      0x40\n      add\n      0x40\n      mstore\n      dup1\n      0x08\n      dup2\n      mstore\n      0x20\n      add\n      0x7573657257434944000000000000000000000000000000000000000000000000\n      dup2\n      mstore\n      pop\n        /* \"Contracts/Lending.sol\":2687:2701  compareStrings */\n      tag_81\n        /* \"Contracts/Lending.sol\":2687:2723  compareStrings(variable, 'userWCID') */\n      jump\t// in\n    tag_358:\n        /* \"Contracts/Lending.sol\":2683:2842  if (compareStrings(variable, 'userWCID')) {... */\n      iszero\n      tag_359\n      jumpi\n        /* \"Contracts/Lending.sol\":2810:2830  abi.encodePacked(\"\") */\n      add(0x20, mload(0x40))\n      tag_360\n      swap1\n      tag_349\n      jump\t// in\n    tag_360:\n      mload(0x40)\n      0x20\n      dup2\n      dup4\n      sub\n      sub\n      dup2\n      mstore\n      swap1\n      0x40\n      mstore\n        /* \"Contracts/Lending.sol\":2800:2831  keccak256(abi.encodePacked(\"\")) */\n      dup1\n      mload\n      swap1\n      0x20\n      add\n      keccak256\n        /* \"Contracts/Lending.sol\":2773:2789  UserWorldCoinIds */\n      0x0a\n        /* \"Contracts/Lending.sol\":2790:2793  key */\n      dup5\n        /* \"Contracts/Lending.sol\":2773:2794  UserWorldCoinIds[key] */\n      mload(0x40)\n      tag_361\n      swap2\n      swap1\n      tag_107\n      jump\t// in\n    tag_361:\n      swap1\n      dup2\n      mstore\n      0x20\n      add\n      mload(0x40)\n      dup1\n      swap2\n      sub\n      swap1\n      keccak256\n        /* \"Contracts/Lending.sol\":2756:2795  abi.encodePacked(UserWorldCoinIds[key]) */\n      add(0x20, mload(0x40))\n      tag_362\n      swap2\n      swap1\n      tag_352\n      jump\t// in\n    tag_362:\n      mload(0x40)\n      0x20\n      dup2\n      dup4\n      sub\n      sub\n      dup2\n      mstore\n      swap1\n      0x40\n      mstore\n        /* \"Contracts/Lending.sol\":2746:2796  keccak256(abi.encodePacked(UserWorldCoinIds[key])) */\n      dup1\n      mload\n      swap1\n      0x20\n      add\n      keccak256\n        /* \"Contracts/Lending.sol\":2746:2831  keccak256(abi.encodePacked(UserWorldCoinIds[key])) != keccak256(abi.encodePacked(\"\")) */\n      eq\n      iszero\n        /* \"Contracts/Lending.sol\":2739:2831  return keccak256(abi.encodePacked(UserWorldCoinIds[key])) != keccak256(abi.encodePacked(\"\")) */\n      swap1\n      pop\n      jump(tag_345)\n        /* \"Contracts/Lending.sol\":2683:2842  if (compareStrings(variable, 'userWCID')) {... */\n    tag_359:\n        /* \"Contracts/Lending.sol\":2859:2864  false */\n      0x00\n        /* \"Contracts/Lending.sol\":2852:2864  return false */\n      swap1\n      pop\n        /* \"Contracts/Lending.sol\":2245:2871  function doesKeyExist(string memory key, string memory variable) public view returns (bool) {... */\n    tag_345:\n      swap3\n      swap2\n      pop\n      pop\n      jump\t// out\n        /* \"Contracts/Lending.sol\":4669:4843  function getUserByWorldCoin(string memory WCID) public view returns (User memory) {... */\n    tag_94:\n        /* \"Contracts/Lending.sol\":4738:4749  User memory */\n      tag_363\n      tag_120\n      jump\t// in\n    tag_363:\n        /* \"Contracts/Lending.sol\":4761:4781  string memory userId */\n      0x00\n        /* \"Contracts/Lending.sol\":4784:4800  UserWorldCoinIds */\n      0x0a\n        /* \"Contracts/Lending.sol\":4801:4805  WCID */\n      dup4\n        /* \"Contracts/Lending.sol\":4784:4806  UserWorldCoinIds[WCID] */\n      mload(0x40)\n      tag_365\n      swap2\n      swap1\n      tag_107\n      jump\t// in\n    tag_365:\n      swap1\n      dup2\n      mstore\n      0x20\n      add\n      mload(0x40)\n      dup1\n      swap2\n      sub\n      swap1\n      keccak256\n        /* \"Contracts/Lending.sol\":4761:4806  string memory userId = UserWorldCoinIds[WCID] */\n      dup1\n      sload\n      tag_366\n      swap1\n      tag_124\n      jump\t// in\n    tag_366:\n      dup1\n      0x1f\n      add\n      0x20\n      dup1\n      swap2\n      div\n      mul\n      0x20\n      add\n      mload(0x40)\n      swap1\n      dup2\n      add\n      0x40\n      mstore\n      dup1\n      swap3\n      swap2\n      swap1\n      dup2\n      dup2\n      mstore\n      0x20\n      add\n      dup3\n      dup1\n      sload\n      tag_367\n      swap1\n      tag_124\n      jump\t// in\n    tag_367:\n      dup1\n      iszero\n      tag_368\n      jumpi\n      dup1\n      0x1f\n      lt\n      tag_369\n      jumpi\n      0x0100\n      dup1\n      dup4\n      sload\n      div\n      mul\n      dup4\n      mstore\n      swap2\n      0x20\n      add\n      swap2\n      jump(tag_368)\n    tag_369:\n      dup3\n      add\n      swap2\n      swap1\n      0x00\n      mstore\n      keccak256(0x00, 0x20)\n      swap1\n    tag_370:\n      dup2\n      sload\n      dup2\n      mstore\n      swap1\n      0x01\n      add\n      swap1\n      0x20\n      add\n      dup1\n      dup4\n      gt\n      tag_370\n      jumpi\n      dup3\n      swap1\n      sub\n      0x1f\n      and\n      dup3\n      add\n      swap2\n    tag_368:\n      pop\n      pop\n      pop\n      pop\n      pop\n      swap1\n      pop\n        /* \"Contracts/Lending.sol\":4823:4828  Users */\n      0x06\n        /* \"Contracts/Lending.sol\":4829:4835  userId */\n      dup2\n        /* \"Contracts/Lending.sol\":4823:4836  Users[userId] */\n      mload(0x40)\n      tag_371\n      swap2\n      swap1\n      tag_107\n      jump\t// in\n    tag_371:\n      swap1\n      dup2\n      mstore\n      0x20\n      add\n      mload(0x40)\n      dup1\n      swap2\n      sub\n      swap1\n      keccak256\n        /* \"Contracts/Lending.sol\":4816:4836  return Users[userId] */\n      mload(0x40)\n      dup1\n      0xe0\n      add\n      0x40\n      mstore\n      swap1\n      dup2\n      0x00\n      dup3\n      add\n      dup1\n      sload\n      tag_372\n      swap1\n      tag_124\n      jump\t// in\n    tag_372:\n      dup1\n      0x1f\n      add\n      0x20\n      dup1\n      swap2\n      div\n      mul\n      0x20\n      add\n      mload(0x40)\n      swap1\n      dup2\n      add\n      0x40\n      mstore\n      dup1\n      swap3\n      swap2\n      swap1\n      dup2\n      dup2\n      mstore\n      0x20\n      add\n      dup3\n      dup1\n      sload\n      tag_373\n      swap1\n      tag_124\n      jump\t// in\n    tag_373:\n      dup1\n      iszero\n      tag_374\n      jumpi\n      dup1\n      0x1f\n      lt\n      tag_375\n      jumpi\n      0x0100\n      dup1\n      dup4\n      sload\n      div\n      mul\n      dup4\n      mstore\n      swap2\n      0x20\n      add\n      swap2\n      jump(tag_374)\n    tag_375:\n      dup3\n      add\n      swap2\n      swap1\n      0x00\n      mstore\n      keccak256(0x00, 0x20)\n      swap1\n    tag_376:\n      dup2\n      sload\n      dup2\n      mstore\n      swap1\n      0x01\n      add\n      swap1\n      0x20\n      add\n      dup1\n      dup4\n      gt\n      tag_376\n      jumpi\n      dup3\n      swap1\n      sub\n      0x1f\n      and\n      dup3\n      add\n      swap2\n    tag_374:\n      pop\n      pop\n      pop\n      pop\n      pop\n      dup2\n      mstore\n      0x20\n      add\n      0x01\n      dup3\n      add\n      dup1\n      sload\n      tag_377\n      swap1\n      tag_124\n      jump\t// in\n    tag_377:\n      dup1\n      0x1f\n      add\n      0x20\n      dup1\n      swap2\n      div\n      mul\n      0x20\n      add\n      mload(0x40)\n      swap1\n      dup2\n      add\n      0x40\n      mstore\n      dup1\n      swap3\n      swap2\n      swap1\n      dup2\n      dup2\n      mstore\n      0x20\n      add\n      dup3\n      dup1\n      sload\n      tag_378\n      swap1\n      tag_124\n      jump\t// in\n    tag_378:\n      dup1\n      iszero\n      tag_379\n      jumpi\n      dup1\n      0x1f\n      lt\n      tag_380\n      jumpi\n      0x0100\n      dup1\n      dup4\n      sload\n      div\n      mul\n      dup4\n      mstore\n      swap2\n      0x20\n      add\n      swap2\n      jump(tag_379)\n    tag_380:\n      dup3\n      add\n      swap2\n      swap1\n      0x00\n      mstore\n      keccak256(0x00, 0x20)\n      swap1\n    tag_381:\n      dup2\n      sload\n      dup2\n      mstore\n      swap1\n      0x01\n      add\n      swap1\n      0x20\n      add\n      dup1\n      dup4\n      gt\n      tag_381\n      jumpi\n      dup3\n      swap1\n      sub\n      0x1f\n      and\n      dup3\n      add\n      swap2\n    tag_379:\n      pop\n      pop\n      pop\n      pop\n      pop\n      dup2\n      mstore\n      0x20\n      add\n      0x02\n      dup3\n      add\n      dup1\n      sload\n      tag_382\n      swap1\n      tag_124\n      jump\t// in\n    tag_382:\n      dup1\n      0x1f\n      add\n      0x20\n      dup1\n      swap2\n      div\n      mul\n      0x20\n      add\n      mload(0x40)\n      swap1\n      dup2\n      add\n      0x40\n      mstore\n      dup1\n      swap3\n      swap2\n      swap1\n      dup2\n      dup2\n      mstore\n      0x20\n      add\n      dup3\n      dup1\n      sload\n      tag_383\n      swap1\n      tag_124\n      jump\t// in\n    tag_383:\n      dup1\n      iszero\n      tag_384\n      jumpi\n      dup1\n      0x1f\n      lt\n      tag_385\n      jumpi\n      0x0100\n      dup1\n      dup4\n      sload\n      div\n      mul\n      dup4\n      mstore\n      swap2\n      0x20\n      add\n      swap2\n      jump(tag_384)\n    tag_385:\n      dup3\n      add\n      swap2\n      swap1\n      0x00\n      mstore\n      keccak256(0x00, 0x20)\n      swap1\n    tag_386:\n      dup2\n      sload\n      dup2\n      mstore\n      swap1\n      0x01\n      add\n      swap1\n      0x20\n      add\n      dup1\n      dup4\n      gt\n      tag_386\n      jumpi\n      dup3\n      swap1\n      sub\n      0x1f\n      and\n      dup3\n      add\n      swap2\n    tag_384:\n      pop\n      pop\n      pop\n      pop\n      pop\n      dup2\n      mstore\n      0x20\n      add\n      0x03\n      dup3\n      add\n      dup1\n      sload\n      dup1\n      0x20\n      mul\n      0x20\n      add\n      mload(0x40)\n      swap1\n      dup2\n      add\n      0x40\n      mstore\n      dup1\n      swap3\n      swap2\n      swap1\n      dup2\n      dup2\n      mstore\n      0x20\n      add\n      0x00\n      swap1\n    tag_387:\n      dup3\n      dup3\n      lt\n      iszero\n      tag_388\n      jumpi\n      dup4\n      dup3\n      swap1\n      0x00\n      mstore\n      keccak256(0x00, 0x20)\n      add\n      dup1\n      sload\n      tag_390\n      swap1\n      tag_124\n      jump\t// in\n    tag_390:\n      dup1\n      0x1f\n      add\n      0x20\n      dup1\n      swap2\n      div\n      mul\n      0x20\n      add\n      mload(0x40)\n      swap1\n      dup2\n      add\n      0x40\n      mstore\n      dup1\n      swap3\n      swap2\n      swap1\n      dup2\n      dup2\n      mstore\n      0x20\n      add\n      dup3\n      dup1\n      sload\n      tag_391\n      swap1\n      tag_124\n      jump\t// in\n    tag_391:\n      dup1\n      iszero\n      tag_392\n      jumpi\n      dup1\n      0x1f\n      lt\n      tag_393\n      jumpi\n      0x0100\n      dup1\n      dup4\n      sload\n      div\n      mul\n      dup4\n      mstore\n      swap2\n      0x20\n      add\n      swap2\n      jump(tag_392)\n    tag_393:\n      dup3\n      add\n      swap2\n      swap1\n      0x00\n      mstore\n      keccak256(0x00, 0x20)\n      swap1\n    tag_394:\n      dup2\n      sload\n      dup2\n      mstore\n      swap1\n      0x01\n      add\n      swap1\n      0x20\n      add\n      dup1\n      dup4\n      gt\n      tag_394\n      jumpi\n      dup3\n      swap1\n      sub\n      0x1f\n      and\n      dup3\n      add\n      swap2\n    tag_392:\n      pop\n      pop\n      pop\n      pop\n      pop\n      dup2\n      mstore\n      0x20\n      add\n      swap1\n      0x01\n      add\n      swap1\n      jump(tag_387)\n    tag_388:\n      pop\n      pop\n      pop\n      pop\n      dup2\n      mstore\n      0x20\n      add\n      0x04\n      dup3\n      add\n      dup1\n      sload\n      dup1\n      0x20\n      mul\n      0x20\n      add\n      mload(0x40)\n      swap1\n      dup2\n      add\n      0x40\n      mstore\n      dup1\n      swap3\n      swap2\n      swap1\n      dup2\n      dup2\n      mstore\n      0x20\n      add\n      dup3\n      dup1\n      sload\n      dup1\n      iszero\n      tag_395\n      jumpi\n      0x20\n      mul\n      dup3\n      add\n      swap2\n      swap1\n      0x00\n      mstore\n      keccak256(0x00, 0x20)\n      swap1\n    tag_396:\n      dup2\n      sload\n      dup2\n      mstore\n      0x20\n      add\n      swap1\n      0x01\n      add\n      swap1\n      dup1\n      dup4\n      gt\n      tag_396\n      jumpi\n    tag_395:\n      pop\n      pop\n      pop\n      pop\n      pop\n      dup2\n      mstore\n      0x20\n      add\n      0x05\n      dup3\n      add\n      dup1\n      sload\n      dup1\n      0x20\n      mul\n      0x20\n      add\n      mload(0x40)\n      swap1\n      dup2\n      add\n      0x40\n      mstore\n      dup1\n      swap3\n      swap2\n      swap1\n      dup2\n      dup2\n      mstore\n      0x20\n      add\n      dup3\n      dup1\n      sload\n      dup1\n      iszero\n      tag_397\n      jumpi\n      0x20\n      mul\n      dup3\n      add\n      swap2\n      swap1\n      0x00\n      mstore\n      keccak256(0x00, 0x20)\n      swap1\n    tag_398:\n      dup2\n      sload\n      dup2\n      mstore\n      0x20\n      add\n      swap1\n      0x01\n      add\n      swap1\n      dup1\n      dup4\n      gt\n      tag_398\n      jumpi\n    tag_397:\n      pop\n      pop\n      pop\n      pop\n      pop\n      dup2\n      mstore\n      0x20\n      add\n      0x06\n      dup3\n      add\n      dup1\n      sload\n      dup1\n      0x20\n      mul\n      0x20\n      add\n      mload(0x40)\n      swap1\n      dup2\n      add\n      0x40\n      mstore\n      dup1\n      swap3\n      swap2\n      swap1\n      dup2\n      dup2\n      mstore\n      0x20\n      add\n      dup3\n      dup1\n      sload\n      dup1\n      iszero\n      tag_399\n      jumpi\n      0x20\n      mul\n      dup3\n      add\n      swap2\n      swap1\n      0x00\n      mstore\n      keccak256(0x00, 0x20)\n      swap1\n    tag_400:\n      dup2\n      sload\n      dup2\n      mstore\n      0x20\n      add\n      swap1\n      0x01\n      add\n      swap1\n      dup1\n      dup4\n      gt\n      tag_400\n      jumpi\n    tag_399:\n      pop\n      pop\n      pop\n      pop\n      pop\n      dup2\n      mstore\n      pop\n      pop\n      swap2\n      pop\n      pop\n        /* \"Contracts/Lending.sol\":4669:4843  function getUserByWorldCoin(string memory WCID) public view returns (User memory) {... */\n      swap2\n      swap1\n      pop\n      jump\t// out\n        /* \"Contracts/Lending.sol\":256:284  uint[] public allProductsIds */\n    tag_98:\n      0x03\n      dup2\n      dup2\n      sload\n      dup2\n      lt\n      tag_401\n      jumpi\n      0x00\n      dup1\n      revert\n    tag_401:\n      swap1\n      0x00\n      mstore\n      keccak256(0x00, 0x20)\n      add\n      0x00\n      swap2\n      pop\n      swap1\n      pop\n      sload\n      dup2\n      jump\t// out\n    tag_120:\n      mload(0x40)\n      dup1\n      0xe0\n      add\n      0x40\n      mstore\n      dup1\n      0x60\n      dup2\n      mstore\n      0x20\n      add\n      0x60\n      dup2\n      mstore\n      0x20\n      add\n      0x60\n      dup2\n      mstore\n      0x20\n      add\n      0x60\n      dup2\n      mstore\n      0x20\n      add\n      0x60\n      dup2\n      mstore\n      0x20\n      add\n      0x60\n      dup2\n      mstore\n      0x20\n      add\n      0x60\n      dup2\n      mstore\n      pop\n      swap1\n      jump\t// out\n    tag_154:\n      mload(0x40)\n      dup1\n      0x0120\n      add\n      0x40\n      mstore\n      dup1\n      0x00\n      dup2\n      mstore\n      0x20\n      add\n      0x60\n      dup2\n      mstore\n      0x20\n      add\n      0x60\n      dup2\n      mstore\n      0x20\n      add\n      0x60\n      dup2\n      mstore\n      0x20\n      add\n      0x60\n      dup2\n      mstore\n      0x20\n      add\n      0x60\n      dup2\n      mstore\n      0x20\n      add\n      0x00\n      dup2\n      mstore\n      0x20\n      add\n      0x00\n      dup2\n      mstore\n      0x20\n      add\n      0x60\n      dup2\n      mstore\n      pop\n      swap1\n      jump\t// out\n    tag_193:\n      dup3\n      dup1\n      sload\n      dup3\n      dup3\n      sstore\n      swap1\n      0x00\n      mstore\n      keccak256(0x00, 0x20)\n      swap1\n      dup2\n      add\n      swap3\n      dup3\n      iszero\n      tag_403\n      jumpi\n      swap2\n      0x20\n      mul\n      dup3\n      add\n    tag_404:\n      dup3\n      dup2\n      gt\n      iszero\n      tag_405\n      jumpi\n      dup3\n      mload\n      dup3\n      swap1\n      dup2\n      tag_406\n      swap2\n      swap1\n      tag_109\n      jump\t// in\n    tag_406:\n      pop\n      swap2\n      0x20\n      add\n      swap2\n      swap1\n      0x01\n      add\n      swap1\n      jump(tag_404)\n    tag_405:\n    tag_403:\n      pop\n      swap1\n      pop\n      tag_407\n      swap2\n      swap1\n      tag_408\n      jump\t// in\n    tag_407:\n      pop\n      swap1\n      jump\t// out\n    tag_195:\n      dup3\n      dup1\n      sload\n      dup3\n      dup3\n      sstore\n      swap1\n      0x00\n      mstore\n      keccak256(0x00, 0x20)\n      swap1\n      dup2\n      add\n      swap3\n      dup3\n      iszero\n      tag_409\n      jumpi\n      swap2\n      0x20\n      mul\n      dup3\n      add\n    tag_410:\n      dup3\n      dup2\n      gt\n      iszero\n      tag_411\n      jumpi\n      dup3\n      mload\n      dup3\n      sstore\n      swap2\n      0x20\n      add\n      swap2\n      swap1\n      0x01\n      add\n      swap1\n      jump(tag_410)\n    tag_411:\n    tag_409:\n      pop\n      swap1\n      pop\n      tag_412\n      swap2\n      swap1\n      tag_413\n      jump\t// in\n    tag_412:\n      pop\n      swap1\n      jump\t// out\n    tag_408:\n    tag_414:\n      dup1\n      dup3\n      gt\n      iszero\n      tag_415\n      jumpi\n      0x00\n      dup2\n      dup2\n      tag_416\n      swap2\n      swap1\n      tag_417\n      jump\t// in\n    tag_416:\n      pop\n      0x01\n      add\n      jump(tag_414)\n    tag_415:\n      pop\n      swap1\n      jump\t// out\n    tag_413:\n    tag_418:\n      dup1\n      dup3\n      gt\n      iszero\n      tag_419\n      jumpi\n      0x00\n      dup2\n      0x00\n      swap1\n      sstore\n      pop\n      0x01\n      add\n      jump(tag_418)\n    tag_419:\n      pop\n      swap1\n      jump\t// out\n    tag_417:\n      pop\n      dup1\n      sload\n      tag_420\n      swap1\n      tag_124\n      jump\t// in\n    tag_420:\n      0x00\n      dup3\n      sstore\n      dup1\n      0x1f\n      lt\n      tag_422\n      jumpi\n      pop\n      jump(tag_421)\n    tag_422:\n      0x1f\n      add\n      0x20\n      swap1\n      div\n      swap1\n      0x00\n      mstore\n      keccak256(0x00, 0x20)\n      swap1\n      dup2\n      add\n      swap1\n      tag_423\n      swap2\n      swap1\n      tag_413\n      jump\t// in\n    tag_423:\n    tag_421:\n      pop\n      jump\t// out\n        /* \"#utility.yul\":7:121   */\n    tag_424:\n        /* \"#utility.yul\":74:80   */\n      0x00\n        /* \"#utility.yul\":108:113   */\n      dup2\n        /* \"#utility.yul\":102:114   */\n      mload\n        /* \"#utility.yul\":92:114   */\n      swap1\n      pop\n        /* \"#utility.yul\":7:121   */\n      swap2\n      swap1\n      pop\n      jump\t// out\n        /* \"#utility.yul\":127:311   */\n    tag_425:\n        /* \"#utility.yul\":226:237   */\n      0x00\n        /* \"#utility.yul\":260:266   */\n      dup3\n        /* \"#utility.yul\":255:258   */\n      dup3\n        /* \"#utility.yul\":248:267   */\n      mstore\n        /* \"#utility.yul\":300:304   */\n      0x20\n        /* \"#utility.yul\":295:298   */\n      dup3\n        /* \"#utility.yul\":291:305   */\n      add\n        /* \"#utility.yul\":276:305   */\n      swap1\n      pop\n        /* \"#utility.yul\":127:311   */\n      swap3\n      swap2\n      pop\n      pop\n      jump\t// out\n        /* \"#utility.yul\":317:449   */\n    tag_426:\n        /* \"#utility.yul\":384:388   */\n      0x00\n        /* \"#utility.yul\":407:410   */\n      dup2\n        /* \"#utility.yul\":399:410   */\n      swap1\n      pop\n        /* \"#utility.yul\":437:441   */\n      0x20\n        /* \"#utility.yul\":432:435   */\n      dup3\n        /* \"#utility.yul\":428:442   */\n      add\n        /* \"#utility.yul\":420:442   */\n      swap1\n      pop\n        /* \"#utility.yul\":317:449   */\n      swap2\n      swap1\n      pop\n      jump\t// out\n        /* \"#utility.yul\":455:532   */\n    tag_427:\n        /* \"#utility.yul\":492:499   */\n      0x00\n        /* \"#utility.yul\":521:526   */\n      dup2\n        /* \"#utility.yul\":510:526   */\n      swap1\n      pop\n        /* \"#utility.yul\":455:532   */\n      swap2\n      swap1\n      pop\n      jump\t// out\n        /* \"#utility.yul\":538:646   */\n    tag_428:\n        /* \"#utility.yul\":615:639   */\n      tag_499\n        /* \"#utility.yul\":633:638   */\n      dup2\n        /* \"#utility.yul\":615:639   */\n      tag_427\n      jump\t// in\n    tag_499:\n        /* \"#utility.yul\":610:613   */\n      dup3\n        /* \"#utility.yul\":603:640   */\n      mstore\n        /* \"#utility.yul\":538:646   */\n      pop\n      pop\n      jump\t// out\n        /* \"#utility.yul\":652:831   */\n    tag_429:\n        /* \"#utility.yul\":721:731   */\n      0x00\n        /* \"#utility.yul\":742:788   */\n      tag_501\n        /* \"#utility.yul\":784:787   */\n      dup4\n        /* \"#utility.yul\":776:782   */\n      dup4\n        /* \"#utility.yul\":742:788   */\n      tag_428\n      jump\t// in\n    tag_501:\n        /* \"#utility.yul\":820:824   */\n      0x20\n        /* \"#utility.yul\":815:818   */\n      dup4\n        /* \"#utility.yul\":811:825   */\n      add\n        /* \"#utility.yul\":797:825   */\n      swap1\n      pop\n        /* \"#utility.yul\":652:831   */\n      swap3\n      swap2\n      pop\n      pop\n      jump\t// out\n        /* \"#utility.yul\":837:950   */\n    tag_430:\n        /* \"#utility.yul\":907:911   */\n      0x00\n        /* \"#utility.yul\":939:943   */\n      0x20\n        /* \"#utility.yul\":934:937   */\n      dup3\n        /* \"#utility.yul\":930:944   */\n      add\n        /* \"#utility.yul\":922:944   */\n      swap1\n      pop\n        /* \"#utility.yul\":837:950   */\n      swap2\n      swap1\n      pop\n      jump\t// out\n        /* \"#utility.yul\":986:1718   */\n    tag_431:\n        /* \"#utility.yul\":1105:1108   */\n      0x00\n        /* \"#utility.yul\":1134:1188   */\n      tag_504\n        /* \"#utility.yul\":1182:1187   */\n      dup3\n        /* \"#utility.yul\":1134:1188   */\n      tag_424\n      jump\t// in\n    tag_504:\n        /* \"#utility.yul\":1204:1290   */\n      tag_505\n        /* \"#utility.yul\":1283:1289   */\n      dup2\n        /* \"#utility.yul\":1278:1281   */\n      dup6\n        /* \"#utility.yul\":1204:1290   */\n      tag_425\n      jump\t// in\n    tag_505:\n        /* \"#utility.yul\":1197:1290   */\n      swap4\n      pop\n        /* \"#utility.yul\":1314:1370   */\n      tag_506\n        /* \"#utility.yul\":1364:1369   */\n      dup4\n        /* \"#utility.yul\":1314:1370   */\n      tag_426\n      jump\t// in\n    tag_506:\n        /* \"#utility.yul\":1393:1400   */\n      dup1\n        /* \"#utility.yul\":1424:1425   */\n      0x00\n        /* \"#utility.yul\":1409:1693   */\n    tag_507:\n        /* \"#utility.yul\":1434:1440   */\n      dup4\n        /* \"#utility.yul\":1431:1432   */\n      dup2\n        /* \"#utility.yul\":1428:1441   */\n      lt\n        /* \"#utility.yul\":1409:1693   */\n      iszero\n      tag_509\n      jumpi\n        /* \"#utility.yul\":1510:1516   */\n      dup2\n        /* \"#utility.yul\":1504:1517   */\n      mload\n        /* \"#utility.yul\":1537:1600   */\n      tag_510\n        /* \"#utility.yul\":1596:1599   */\n      dup9\n        /* \"#utility.yul\":1581:1594   */\n      dup3\n        /* \"#utility.yul\":1537:1600   */\n      tag_429\n      jump\t// in\n    tag_510:\n        /* \"#utility.yul\":1530:1600   */\n      swap8\n      pop\n        /* \"#utility.yul\":1623:1683   */\n      tag_511\n        /* \"#utility.yul\":1676:1682   */\n      dup4\n        /* \"#utility.yul\":1623:1683   */\n      tag_430\n      jump\t// in\n    tag_511:\n        /* \"#utility.yul\":1613:1683   */\n      swap3\n      pop\n        /* \"#utility.yul\":1469:1693   */\n      pop\n        /* \"#utility.yul\":1456:1457   */\n      0x01\n        /* \"#utility.yul\":1453:1454   */\n      dup2\n        /* \"#utility.yul\":1449:1458   */\n      add\n        /* \"#utility.yul\":1444:1458   */\n      swap1\n      pop\n        /* \"#utility.yul\":1409:1693   */\n      jump(tag_507)\n    tag_509:\n        /* \"#utility.yul\":1413:1427   */\n      pop\n        /* \"#utility.yul\":1709:1712   */\n      dup6\n        /* \"#utility.yul\":1702:1712   */\n      swap4\n      pop\n        /* \"#utility.yul\":1110:1718   */\n      pop\n      pop\n      pop\n        /* \"#utility.yul\":986:1718   */\n      swap3\n      swap2\n      pop\n      pop\n      jump\t// out\n        /* \"#utility.yul\":1724:2097   */\n    tag_27:\n        /* \"#utility.yul\":1867:1871   */\n      0x00\n        /* \"#utility.yul\":1905:1907   */\n      0x20\n        /* \"#utility.yul\":1894:1903   */\n      dup3\n        /* \"#utility.yul\":1890:1908   */\n      add\n        /* \"#utility.yul\":1882:1908   */\n      swap1\n      pop\n        /* \"#utility.yul\":1954:1963   */\n      dup2\n        /* \"#utility.yul\":1948:1952   */\n      dup2\n        /* \"#utility.yul\":1944:1964   */\n      sub\n        /* \"#utility.yul\":1940:1941   */\n      0x00\n        /* \"#utility.yul\":1929:1938   */\n      dup4\n        /* \"#utility.yul\":1925:1942   */\n      add\n        /* \"#utility.yul\":1918:1965   */\n      mstore\n        /* \"#utility.yul\":1982:2090   */\n      tag_513\n        /* \"#utility.yul\":2085:2089   */\n      dup2\n        /* \"#utility.yul\":2076:2082   */\n      dup5\n        /* \"#utility.yul\":1982:2090   */\n      tag_431\n      jump\t// in\n    tag_513:\n        /* \"#utility.yul\":1974:2090   */\n      swap1\n      pop\n        /* \"#utility.yul\":1724:2097   */\n      swap3\n      swap2\n      pop\n      pop\n      jump\t// out\n        /* \"#utility.yul\":2103:2178   */\n    tag_432:\n        /* \"#utility.yul\":2136:2142   */\n      0x00\n        /* \"#utility.yul\":2169:2171   */\n      0x40\n        /* \"#utility.yul\":2163:2172   */\n      mload\n        /* \"#utility.yul\":2153:2172   */\n      swap1\n      pop\n        /* \"#utility.yul\":2103:2178   */\n      swap1\n      jump\t// out\n        /* \"#utility.yul\":2184:2301   */\n    tag_433:\n        /* \"#utility.yul\":2293:2294   */\n      0x00\n        /* \"#utility.yul\":2290:2291   */\n      dup1\n        /* \"#utility.yul\":2283:2295   */\n      revert\n        /* \"#utility.yul\":2307:2424   */\n    tag_434:\n        /* \"#utility.yul\":2416:2417   */\n      0x00\n        /* \"#utility.yul\":2413:2414   */\n      dup1\n        /* \"#utility.yul\":2406:2418   */\n      revert\n        /* \"#utility.yul\":2430:2552   */\n    tag_435:\n        /* \"#utility.yul\":2503:2527   */\n      tag_518\n        /* \"#utility.yul\":2521:2526   */\n      dup2\n        /* \"#utility.yul\":2503:2527   */\n      tag_427\n      jump\t// in\n    tag_518:\n        /* \"#utility.yul\":2496:2501   */\n      dup2\n        /* \"#utility.yul\":2493:2528   */\n      eq\n        /* \"#utility.yul\":2483:2546   */\n      tag_519\n      jumpi\n        /* \"#utility.yul\":2542:2543   */\n      0x00\n        /* \"#utility.yul\":2539:2540   */\n      dup1\n        /* \"#utility.yul\":2532:2544   */\n      revert\n        /* \"#utility.yul\":2483:2546   */\n    tag_519:\n        /* \"#utility.yul\":2430:2552   */\n      pop\n      jump\t// out\n        /* \"#utility.yul\":2558:2697   */\n    tag_436:\n        /* \"#utility.yul\":2604:2609   */\n      0x00\n        /* \"#utility.yul\":2642:2648   */\n      dup2\n        /* \"#utility.yul\":2629:2649   */\n      calldataload\n        /* \"#utility.yul\":2620:2649   */\n      swap1\n      pop\n        /* \"#utility.yul\":2658:2691   */\n      tag_521\n        /* \"#utility.yul\":2685:2690   */\n      dup2\n        /* \"#utility.yul\":2658:2691   */\n      tag_435\n      jump\t// in\n    tag_521:\n        /* \"#utility.yul\":2558:2697   */\n      swap3\n      swap2\n      pop\n      pop\n      jump\t// out\n        /* \"#utility.yul\":2703:3032   */\n    tag_30:\n        /* \"#utility.yul\":2762:2768   */\n      0x00\n        /* \"#utility.yul\":2811:2813   */\n      0x20\n        /* \"#utility.yul\":2799:2808   */\n      dup3\n        /* \"#utility.yul\":2790:2797   */\n      dup5\n        /* \"#utility.yul\":2786:2809   */\n      sub\n        /* \"#utility.yul\":2782:2814   */\n      slt\n        /* \"#utility.yul\":2779:2898   */\n      iszero\n      tag_523\n      jumpi\n        /* \"#utility.yul\":2817:2896   */\n      tag_524\n      tag_433\n      jump\t// in\n    tag_524:\n        /* \"#utility.yul\":2779:2898   */\n    tag_523:\n        /* \"#utility.yul\":2937:2938   */\n      0x00\n        /* \"#utility.yul\":2962:3015   */\n      tag_525\n        /* \"#utility.yul\":3007:3014   */\n      dup5\n        /* \"#utility.yul\":2998:3004   */\n      dup3\n        /* \"#utility.yul\":2987:2996   */\n      dup6\n        /* \"#utility.yul\":2983:3005   */\n      add\n        /* \"#utility.yul\":2962:3015   */\n      tag_436\n      jump\t// in\n    tag_525:\n        /* \"#utility.yul\":2952:3015   */\n      swap2\n      pop\n        /* \"#utility.yul\":2908:3025   */\n      pop\n        /* \"#utility.yul\":2703:3032   */\n      swap3\n      swap2\n      pop\n      pop\n      jump\t// out\n        /* \"#utility.yul\":3038:3156   */\n    tag_437:\n        /* \"#utility.yul\":3125:3149   */\n      tag_527\n        /* \"#utility.yul\":3143:3148   */\n      dup2\n        /* \"#utility.yul\":3125:3149   */\n      tag_427\n      jump\t// in\n    tag_527:\n        /* \"#utility.yul\":3120:3123   */\n      dup3\n        /* \"#utility.yul\":3113:3150   */\n      mstore\n        /* \"#utility.yul\":3038:3156   */\n      pop\n      pop\n      jump\t// out\n        /* \"#utility.yul\":3162:3384   */\n    tag_33:\n        /* \"#utility.yul\":3255:3259   */\n      0x00\n        /* \"#utility.yul\":3293:3295   */\n      0x20\n        /* \"#utility.yul\":3282:3291   */\n      dup3\n        /* \"#utility.yul\":3278:3296   */\n      add\n        /* \"#utility.yul\":3270:3296   */\n      swap1\n      pop\n        /* \"#utility.yul\":3306:3377   */\n      tag_529\n        /* \"#utility.yul\":3374:3375   */\n      0x00\n        /* \"#utility.yul\":3363:3372   */\n      dup4\n        /* \"#utility.yul\":3359:3376   */\n      add\n        /* \"#utility.yul\":3350:3356   */\n      dup5\n        /* \"#utility.yul\":3306:3377   */\n      tag_437\n      jump\t// in\n    tag_529:\n        /* \"#utility.yul\":3162:3384   */\n      swap3\n      swap2\n      pop\n      pop\n      jump\t// out\n        /* \"#utility.yul\":3390:3507   */\n    tag_438:\n        /* \"#utility.yul\":3499:3500   */\n      0x00\n        /* \"#utility.yul\":3496:3497   */\n      dup1\n        /* \"#utility.yul\":3489:3501   */\n      revert\n        /* \"#utility.yul\":3513:3630   */\n    tag_439:\n        /* \"#utility.yul\":3622:3623   */\n      0x00\n        /* \"#utility.yul\":3619:3620   */\n      dup1\n        /* \"#utility.yul\":3612:3624   */\n      revert\n        /* \"#utility.yul\":3636:3738   */\n    tag_440:\n        /* \"#utility.yul\":3677:3683   */\n      0x00\n        /* \"#utility.yul\":3728:3730   */\n      0x1f\n        /* \"#utility.yul\":3724:3731   */\n      not\n        /* \"#utility.yul\":3719:3721   */\n      0x1f\n        /* \"#utility.yul\":3712:3717   */\n      dup4\n        /* \"#utility.yul\":3708:3722   */\n      add\n        /* \"#utility.yul\":3704:3732   */\n      and\n        /* \"#utility.yul\":3694:3732   */\n      swap1\n      pop\n        /* \"#utility.yul\":3636:3738   */\n      swap2\n      swap1\n      pop\n      jump\t// out\n        /* \"#utility.yul\":3744:3924   */\n    tag_441:\n        /* \"#utility.yul\":3792:3869   */\n      0x4e487b7100000000000000000000000000000000000000000000000000000000\n        /* \"#utility.yul\":3789:3790   */\n      0x00\n        /* \"#utility.yul\":3782:3870   */\n      mstore\n        /* \"#utility.yul\":3889:3893   */\n      0x41\n        /* \"#utility.yul\":3886:3887   */\n      0x04\n        /* \"#utility.yul\":3879:3894   */\n      mstore\n        /* \"#utility.yul\":3913:3917   */\n      0x24\n        /* \"#utility.yul\":3910:3911   */\n      0x00\n        /* \"#utility.yul\":3903:3918   */\n      revert\n        /* \"#utility.yul\":3930:4211   */\n    tag_442:\n        /* \"#utility.yul\":4013:4040   */\n      tag_535\n        /* \"#utility.yul\":4035:4039   */\n      dup3\n        /* \"#utility.yul\":4013:4040   */\n      tag_440\n      jump\t// in\n    tag_535:\n        /* \"#utility.yul\":4005:4011   */\n      dup2\n        /* \"#utility.yul\":4001:4041   */\n      add\n        /* \"#utility.yul\":4143:4149   */\n      dup2\n        /* \"#utility.yul\":4131:4141   */\n      dup2\n        /* \"#utility.yul\":4128:4150   */\n      lt\n        /* \"#utility.yul\":4107:4125   */\n      0xffffffffffffffff\n        /* \"#utility.yul\":4095:4105   */\n      dup3\n        /* \"#utility.yul\":4092:4126   */\n      gt\n        /* \"#utility.yul\":4089:4151   */\n      or\n        /* \"#utility.yul\":4086:4174   */\n      iszero\n      tag_536\n      jumpi\n        /* \"#utility.yul\":4154:4172   */\n      tag_537\n      tag_441\n      jump\t// in\n    tag_537:\n        /* \"#utility.yul\":4086:4174   */\n    tag_536:\n        /* \"#utility.yul\":4194:4204   */\n      dup1\n        /* \"#utility.yul\":4190:4192   */\n      0x40\n        /* \"#utility.yul\":4183:4205   */\n      mstore\n        /* \"#utility.yul\":3973:4211   */\n      pop\n        /* \"#utility.yul\":3930:4211   */\n      pop\n      pop\n      jump\t// out\n        /* \"#utility.yul\":4217:4346   */\n    tag_443:\n        /* \"#utility.yul\":4251:4257   */\n      0x00\n        /* \"#utility.yul\":4278:4298   */\n      tag_539\n      tag_432\n      jump\t// in\n    tag_539:\n        /* \"#utility.yul\":4268:4298   */\n      swap1\n      pop\n        /* \"#utility.yul\":4307:4340   */\n      tag_540\n        /* \"#utility.yul\":4335:4339   */\n      dup3\n        /* \"#utility.yul\":4327:4333   */\n      dup3\n        /* \"#utility.yul\":4307:4340   */\n      tag_442\n      jump\t// in\n    tag_540:\n        /* \"#utility.yul\":4217:4346   */\n      swap2\n      swap1\n      pop\n      jump\t// out\n        /* \"#utility.yul\":4352:4660   */\n    tag_444:\n        /* \"#utility.yul\":4414:4418   */\n      0x00\n        /* \"#utility.yul\":4504:4522   */\n      0xffffffffffffffff\n        /* \"#utility.yul\":4496:4502   */\n      dup3\n        /* \"#utility.yul\":4493:4523   */\n      gt\n        /* \"#utility.yul\":4490:4546   */\n      iszero\n      tag_542\n      jumpi\n        /* \"#utility.yul\":4526:4544   */\n      tag_543\n      tag_441\n      jump\t// in\n    tag_543:\n        /* \"#utility.yul\":4490:4546   */\n    tag_542:\n        /* \"#utility.yul\":4564:4593   */\n      tag_544\n        /* \"#utility.yul\":4586:4592   */\n      dup3\n        /* \"#utility.yul\":4564:4593   */\n      tag_440\n      jump\t// in\n    tag_544:\n        /* \"#utility.yul\":4556:4593   */\n      swap1\n      pop\n        /* \"#utility.yul\":4648:4652   */\n      0x20\n        /* \"#utility.yul\":4642:4646   */\n      dup2\n        /* \"#utility.yul\":4638:4653   */\n      add\n        /* \"#utility.yul\":4630:4653   */\n      swap1\n      pop\n        /* \"#utility.yul\":4352:4660   */\n      swap2\n      swap1\n      pop\n      jump\t// out\n        /* \"#utility.yul\":4666:4812   */\n    tag_445:\n        /* \"#utility.yul\":4763:4769   */\n      dup3\n        /* \"#utility.yul\":4758:4761   */\n      dup2\n        /* \"#utility.yul\":4753:4756   */\n      dup4\n        /* \"#utility.yul\":4740:4770   */\n      calldatacopy\n        /* \"#utility.yul\":4804:4805   */\n      0x00\n        /* \"#utility.yul\":4795:4801   */\n      dup4\n        /* \"#utility.yul\":4790:4793   */\n      dup4\n        /* \"#utility.yul\":4786:4802   */\n      add\n        /* \"#utility.yul\":4779:4806   */\n      mstore\n        /* \"#utility.yul\":4666:4812   */\n      pop\n      pop\n      pop\n      jump\t// out\n        /* \"#utility.yul\":4818:5243   */\n    tag_446:\n        /* \"#utility.yul\":4896:4901   */\n      0x00\n        /* \"#utility.yul\":4921:4987   */\n      tag_547\n        /* \"#utility.yul\":4937:4986   */\n      tag_548\n        /* \"#utility.yul\":4979:4985   */\n      dup5\n        /* \"#utility.yul\":4937:4986   */\n      tag_444\n      jump\t// in\n    tag_548:\n        /* \"#utility.yul\":4921:4987   */\n      tag_443\n      jump\t// in\n    tag_547:\n        /* \"#utility.yul\":4912:4987   */\n      swap1\n      pop\n        /* \"#utility.yul\":5010:5016   */\n      dup3\n        /* \"#utility.yul\":5003:5008   */\n      dup2\n        /* \"#utility.yul\":4996:5017   */\n      mstore\n        /* \"#utility.yul\":5048:5052   */\n      0x20\n        /* \"#utility.yul\":5041:5046   */\n      dup2\n        /* \"#utility.yul\":5037:5053   */\n      add\n        /* \"#utility.yul\":5086:5089   */\n      dup5\n        /* \"#utility.yul\":5077:5083   */\n      dup5\n        /* \"#utility.yul\":5072:5075   */\n      dup5\n        /* \"#utility.yul\":5068:5084   */\n      add\n        /* \"#utility.yul\":5065:5090   */\n      gt\n        /* \"#utility.yul\":5062:5174   */\n      iszero\n      tag_549\n      jumpi\n        /* \"#utility.yul\":5093:5172   */\n      tag_550\n      tag_439\n      jump\t// in\n    tag_550:\n        /* \"#utility.yul\":5062:5174   */\n    tag_549:\n        /* \"#utility.yul\":5183:5237   */\n      tag_551\n        /* \"#utility.yul\":5230:5236   */\n      dup5\n        /* \"#utility.yul\":5225:5228   */\n      dup3\n        /* \"#utility.yul\":5220:5223   */\n      dup6\n        /* \"#utility.yul\":5183:5237   */\n      tag_445\n      jump\t// in\n    tag_551:\n        /* \"#utility.yul\":4902:5243   */\n      pop\n        /* \"#utility.yul\":4818:5243   */\n      swap4\n      swap3\n      pop\n      pop\n      pop\n      jump\t// out\n        /* \"#utility.yul\":5263:5603   */\n    tag_447:\n        /* \"#utility.yul\":5319:5324   */\n      0x00\n        /* \"#utility.yul\":5368:5371   */\n      dup3\n        /* \"#utility.yul\":5361:5365   */\n      0x1f\n        /* \"#utility.yul\":5353:5359   */\n      dup4\n        /* \"#utility.yul\":5349:5366   */\n      add\n        /* \"#utility.yul\":5345:5372   */\n      slt\n        /* \"#utility.yul\":5335:5457   */\n      tag_553\n      jumpi\n        /* \"#utility.yul\":5376:5455   */\n      tag_554\n      tag_438\n      jump\t// in\n    tag_554:\n        /* \"#utility.yul\":5335:5457   */\n    tag_553:\n        /* \"#utility.yul\":5493:5499   */\n      dup2\n        /* \"#utility.yul\":5480:5500   */\n      calldataload\n        /* \"#utility.yul\":5518:5597   */\n      tag_555\n        /* \"#utility.yul\":5593:5596   */\n      dup5\n        /* \"#utility.yul\":5585:5591   */\n      dup3\n        /* \"#utility.yul\":5578:5582   */\n      0x20\n        /* \"#utility.yul\":5570:5576   */\n      dup7\n        /* \"#utility.yul\":5566:5583   */\n      add\n        /* \"#utility.yul\":5518:5597   */\n      tag_446\n      jump\t// in\n    tag_555:\n        /* \"#utility.yul\":5509:5597   */\n      swap2\n      pop\n        /* \"#utility.yul\":5325:5603   */\n      pop\n        /* \"#utility.yul\":5263:5603   */\n      swap3\n      swap2\n      pop\n      pop\n      jump\t// out\n        /* \"#utility.yul\":5609:6443   */\n    tag_36:\n        /* \"#utility.yul\":5697:5703   */\n      0x00\n        /* \"#utility.yul\":5705:5711   */\n      dup1\n        /* \"#utility.yul\":5754:5756   */\n      0x40\n        /* \"#utility.yul\":5742:5751   */\n      dup4\n        /* \"#utility.yul\":5733:5740   */\n      dup6\n        /* \"#utility.yul\":5729:5752   */\n      sub\n        /* \"#utility.yul\":5725:5757   */\n      slt\n        /* \"#utility.yul\":5722:5841   */\n      iszero\n      tag_557\n      jumpi\n        /* \"#utility.yul\":5760:5839   */\n      tag_558\n      tag_433\n      jump\t// in\n    tag_558:\n        /* \"#utility.yul\":5722:5841   */\n    tag_557:\n        /* \"#utility.yul\":5908:5909   */\n      0x00\n        /* \"#utility.yul\":5897:5906   */\n      dup4\n        /* \"#utility.yul\":5893:5910   */\n      add\n        /* \"#utility.yul\":5880:5911   */\n      calldataload\n        /* \"#utility.yul\":5938:5956   */\n      0xffffffffffffffff\n        /* \"#utility.yul\":5930:5936   */\n      dup2\n        /* \"#utility.yul\":5927:5957   */\n      gt\n        /* \"#utility.yul\":5924:6041   */\n      iszero\n      tag_559\n      jumpi\n        /* \"#utility.yul\":5960:6039   */\n      tag_560\n      tag_434\n      jump\t// in\n    tag_560:\n        /* \"#utility.yul\":5924:6041   */\n    tag_559:\n        /* \"#utility.yul\":6065:6128   */\n      tag_561\n        /* \"#utility.yul\":6120:6127   */\n      dup6\n        /* \"#utility.yul\":6111:6117   */\n      dup3\n        /* \"#utility.yul\":6100:6109   */\n      dup7\n        /* \"#utility.yul\":6096:6118   */\n      add\n        /* \"#utility.yul\":6065:6128   */\n      tag_447\n      jump\t// in\n    tag_561:\n        /* \"#utility.yul\":6055:6128   */\n      swap3\n      pop\n        /* \"#utility.yul\":5851:6138   */\n      pop\n        /* \"#utility.yul\":6205:6207   */\n      0x20\n        /* \"#utility.yul\":6194:6203   */\n      dup4\n        /* \"#utility.yul\":6190:6208   */\n      add\n        /* \"#utility.yul\":6177:6209   */\n      calldataload\n        /* \"#utility.yul\":6236:6254   */\n      0xffffffffffffffff\n        /* \"#utility.yul\":6228:6234   */\n      dup2\n        /* \"#utility.yul\":6225:6255   */\n      gt\n        /* \"#utility.yul\":6222:6339   */\n      iszero\n      tag_562\n      jumpi\n        /* \"#utility.yul\":6258:6337   */\n      tag_563\n      tag_434\n      jump\t// in\n    tag_563:\n        /* \"#utility.yul\":6222:6339   */\n    tag_562:\n        /* \"#utility.yul\":6363:6426   */\n      tag_564\n        /* \"#utility.yul\":6418:6425   */\n      dup6\n        /* \"#utility.yul\":6409:6415   */\n      dup3\n        /* \"#utility.yul\":6398:6407   */\n      dup7\n        /* \"#utility.yul\":6394:6416   */\n      add\n        /* \"#utility.yul\":6363:6426   */\n      tag_447\n      jump\t// in\n    tag_564:\n        /* \"#utility.yul\":6353:6426   */\n      swap2\n      pop\n        /* \"#utility.yul\":6148:6436   */\n      pop\n        /* \"#utility.yul\":5609:6443   */\n      swap3\n      pop\n      swap3\n      swap1\n      pop\n      jump\t// out\n        /* \"#utility.yul\":6449:6958   */\n    tag_43:\n        /* \"#utility.yul\":6518:6524   */\n      0x00\n        /* \"#utility.yul\":6567:6569   */\n      0x20\n        /* \"#utility.yul\":6555:6564   */\n      dup3\n        /* \"#utility.yul\":6546:6553   */\n      dup5\n        /* \"#utility.yul\":6542:6565   */\n      sub\n        /* \"#utility.yul\":6538:6570   */\n      slt\n        /* \"#utility.yul\":6535:6654   */\n      iszero\n      tag_566\n      jumpi\n        /* \"#utility.yul\":6573:6652   */\n      tag_567\n      tag_433\n      jump\t// in\n    tag_567:\n        /* \"#utility.yul\":6535:6654   */\n    tag_566:\n        /* \"#utility.yul\":6721:6722   */\n      0x00\n        /* \"#utility.yul\":6710:6719   */\n      dup3\n        /* \"#utility.yul\":6706:6723   */\n      add\n        /* \"#utility.yul\":6693:6724   */\n      calldataload\n        /* \"#utility.yul\":6751:6769   */\n      0xffffffffffffffff\n        /* \"#utility.yul\":6743:6749   */\n      dup2\n        /* \"#utility.yul\":6740:6770   */\n      gt\n        /* \"#utility.yul\":6737:6854   */\n      iszero\n      tag_568\n      jumpi\n        /* \"#utility.yul\":6773:6852   */\n      tag_569\n      tag_434\n      jump\t// in\n    tag_569:\n        /* \"#utility.yul\":6737:6854   */\n    tag_568:\n        /* \"#utility.yul\":6878:6941   */\n      tag_570\n        /* \"#utility.yul\":6933:6940   */\n      dup5\n        /* \"#utility.yul\":6924:6930   */\n      dup3\n        /* \"#utility.yul\":6913:6922   */\n      dup6\n        /* \"#utility.yul\":6909:6931   */\n      add\n        /* \"#utility.yul\":6878:6941   */\n      tag_447\n      jump\t// in\n    tag_570:\n        /* \"#utility.yul\":6868:6941   */\n      swap2\n      pop\n        /* \"#utility.yul\":6664:6951   */\n      pop\n        /* \"#utility.yul\":6449:6958   */\n      swap3\n      swap2\n      pop\n      pop\n      jump\t// out\n        /* \"#utility.yul\":6964:7063   */\n    tag_448:\n        /* \"#utility.yul\":7016:7022   */\n      0x00\n        /* \"#utility.yul\":7050:7055   */\n      dup2\n        /* \"#utility.yul\":7044:7056   */\n      mload\n        /* \"#utility.yul\":7034:7056   */\n      swap1\n      pop\n        /* \"#utility.yul\":6964:7063   */\n      swap2\n      swap1\n      pop\n      jump\t// out\n        /* \"#utility.yul\":7069:7228   */\n    tag_449:\n        /* \"#utility.yul\":7143:7154   */\n      0x00\n        /* \"#utility.yul\":7177:7183   */\n      dup3\n        /* \"#utility.yul\":7172:7175   */\n      dup3\n        /* \"#utility.yul\":7165:7184   */\n      mstore\n        /* \"#utility.yul\":7217:7221   */\n      0x20\n        /* \"#utility.yul\":7212:7215   */\n      dup3\n        /* \"#utility.yul\":7208:7222   */\n      add\n        /* \"#utility.yul\":7193:7222   */\n      swap1\n      pop\n        /* \"#utility.yul\":7069:7228   */\n      swap3\n      swap2\n      pop\n      pop\n      jump\t// out\n        /* \"#utility.yul\":7234:7480   */\n    tag_450:\n        /* \"#utility.yul\":7315:7316   */\n      0x00\n        /* \"#utility.yul\":7325:7438   */\n    tag_574:\n        /* \"#utility.yul\":7339:7345   */\n      dup4\n        /* \"#utility.yul\":7336:7337   */\n      dup2\n        /* \"#utility.yul\":7333:7346   */\n      lt\n        /* \"#utility.yul\":7325:7438   */\n      iszero\n      tag_576\n      jumpi\n        /* \"#utility.yul\":7424:7425   */\n      dup1\n        /* \"#utility.yul\":7419:7422   */\n      dup3\n        /* \"#utility.yul\":7415:7426   */\n      add\n        /* \"#utility.yul\":7409:7427   */\n      mload\n        /* \"#utility.yul\":7405:7406   */\n      dup2\n        /* \"#utility.yul\":7400:7403   */\n      dup5\n        /* \"#utility.yul\":7396:7407   */\n      add\n        /* \"#utility.yul\":7389:7428   */\n      mstore\n        /* \"#utility.yul\":7361:7363   */\n      0x20\n        /* \"#utility.yul\":7358:7359   */\n      dup2\n        /* \"#utility.yul\":7354:7364   */\n      add\n        /* \"#utility.yul\":7349:7364   */\n      swap1\n      pop\n        /* \"#utility.yul\":7325:7438   */\n      jump(tag_574)\n    tag_576:\n        /* \"#utility.yul\":7472:7473   */\n      0x00\n        /* \"#utility.yul\":7463:7469   */\n      dup5\n        /* \"#utility.yul\":7458:7461   */\n      dup5\n        /* \"#utility.yul\":7454:7470   */\n      add\n        /* \"#utility.yul\":7447:7474   */\n      mstore\n        /* \"#utility.yul\":7296:7480   */\n      pop\n        /* \"#utility.yul\":7234:7480   */\n      pop\n      pop\n      pop\n      jump\t// out\n        /* \"#utility.yul\":7486:7843   */\n    tag_451:\n        /* \"#utility.yul\":7564:7567   */\n      0x00\n        /* \"#utility.yul\":7592:7631   */\n      tag_578\n        /* \"#utility.yul\":7625:7630   */\n      dup3\n        /* \"#utility.yul\":7592:7631   */\n      tag_448\n      jump\t// in\n    tag_578:\n        /* \"#utility.yul\":7647:7708   */\n      tag_579\n        /* \"#utility.yul\":7701:7707   */\n      dup2\n        /* \"#utility.yul\":7696:7699   */\n      dup6\n        /* \"#utility.yul\":7647:7708   */\n      tag_449\n      jump\t// in\n    tag_579:\n        /* \"#utility.yul\":7640:7708   */\n      swap4\n      pop\n        /* \"#utility.yul\":7717:7782   */\n      tag_580\n        /* \"#utility.yul\":7775:7781   */\n      dup2\n        /* \"#utility.yul\":7770:7773   */\n      dup6\n        /* \"#utility.yul\":7763:7767   */\n      0x20\n        /* \"#utility.yul\":7756:7761   */\n      dup7\n        /* \"#utility.yul\":7752:7768   */\n      add\n        /* \"#utility.yul\":7717:7782   */\n      tag_450\n      jump\t// in\n    tag_580:\n        /* \"#utility.yul\":7807:7836   */\n      tag_581\n        /* \"#utility.yul\":7829:7835   */\n      dup2\n        /* \"#utility.yul\":7807:7836   */\n      tag_440\n      jump\t// in\n    tag_581:\n        /* \"#utility.yul\":7802:7805   */\n      dup5\n        /* \"#utility.yul\":7798:7837   */\n      add\n        /* \"#utility.yul\":7791:7837   */\n      swap2\n      pop\n        /* \"#utility.yul\":7568:7843   */\n      pop\n        /* \"#utility.yul\":7486:7843   */\n      swap3\n      swap2\n      pop\n      pop\n      jump\t// out\n        /* \"#utility.yul\":7849:7973   */\n    tag_452:\n        /* \"#utility.yul\":7926:7932   */\n      0x00\n        /* \"#utility.yul\":7960:7965   */\n      dup2\n        /* \"#utility.yul\":7954:7966   */\n      mload\n        /* \"#utility.yul\":7944:7966   */\n      swap1\n      pop\n        /* \"#utility.yul\":7849:7973   */\n      swap2\n      swap1\n      pop\n      jump\t// out\n        /* \"#utility.yul\":7979:8163   */\n    tag_453:\n        /* \"#utility.yul\":8078:8089   */\n      0x00\n        /* \"#utility.yul\":8112:8118   */\n      dup3\n        /* \"#utility.yul\":8107:8110   */\n      dup3\n        /* \"#utility.yul\":8100:8119   */\n      mstore\n        /* \"#utility.yul\":8152:8156   */\n      0x20\n        /* \"#utility.yul\":8147:8150   */\n      dup3\n        /* \"#utility.yul\":8143:8157   */\n      add\n        /* \"#utility.yul\":8128:8157   */\n      swap1\n      pop\n        /* \"#utility.yul\":7979:8163   */\n      swap3\n      swap2\n      pop\n      pop\n      jump\t// out\n        /* \"#utility.yul\":8169:8311   */\n    tag_454:\n        /* \"#utility.yul\":8246:8250   */\n      0x00\n        /* \"#utility.yul\":8269:8272   */\n      dup2\n        /* \"#utility.yul\":8261:8272   */\n      swap1\n      pop\n        /* \"#utility.yul\":8299:8303   */\n      0x20\n        /* \"#utility.yul\":8294:8297   */\n      dup3\n        /* \"#utility.yul\":8290:8304   */\n      add\n        /* \"#utility.yul\":8282:8304   */\n      swap1\n      pop\n        /* \"#utility.yul\":8169:8311   */\n      swap2\n      swap1\n      pop\n      jump\t// out\n        /* \"#utility.yul\":8317:8513   */\n    tag_455:\n        /* \"#utility.yul\":8406:8416   */\n      0x00\n        /* \"#utility.yul\":8441:8507   */\n      tag_586\n        /* \"#utility.yul\":8503:8506   */\n      dup4\n        /* \"#utility.yul\":8495:8501   */\n      dup4\n        /* \"#utility.yul\":8441:8507   */\n      tag_451\n      jump\t// in\n    tag_586:\n        /* \"#utility.yul\":8427:8507   */\n      swap1\n      pop\n        /* \"#utility.yul\":8317:8513   */\n      swap3\n      swap2\n      pop\n      pop\n      jump\t// out\n        /* \"#utility.yul\":8519:8642   */\n    tag_456:\n        /* \"#utility.yul\":8599:8603   */\n      0x00\n        /* \"#utility.yul\":8631:8635   */\n      0x20\n        /* \"#utility.yul\":8626:8629   */\n      dup3\n        /* \"#utility.yul\":8622:8636   */\n      add\n        /* \"#utility.yul\":8614:8636   */\n      swap1\n      pop\n        /* \"#utility.yul\":8519:8642   */\n      swap2\n      swap1\n      pop\n      jump\t// out\n        /* \"#utility.yul\":8676:9647   */\n    tag_457:\n        /* \"#utility.yul\":8805:8808   */\n      0x00\n        /* \"#utility.yul\":8834:8898   */\n      tag_589\n        /* \"#utility.yul\":8892:8897   */\n      dup3\n        /* \"#utility.yul\":8834:8898   */\n      tag_452\n      jump\t// in\n    tag_589:\n        /* \"#utility.yul\":8914:9000   */\n      tag_590\n        /* \"#utility.yul\":8993:8999   */\n      dup2\n        /* \"#utility.yul\":8988:8991   */\n      dup6\n        /* \"#utility.yul\":8914:9000   */\n      tag_453\n      jump\t// in\n    tag_590:\n        /* \"#utility.yul\":8907:9000   */\n      swap4\n      pop\n        /* \"#utility.yul\":9026:9029   */\n      dup4\n        /* \"#utility.yul\":9071:9075   */\n      0x20\n        /* \"#utility.yul\":9063:9069   */\n      dup3\n        /* \"#utility.yul\":9059:9076   */\n      mul\n        /* \"#utility.yul\":9054:9057   */\n      dup6\n        /* \"#utility.yul\":9050:9077   */\n      add\n        /* \"#utility.yul\":9101:9167   */\n      tag_591\n        /* \"#utility.yul\":9161:9166   */\n      dup6\n        /* \"#utility.yul\":9101:9167   */\n      tag_454\n      jump\t// in\n    tag_591:\n        /* \"#utility.yul\":9190:9197   */\n      dup1\n        /* \"#utility.yul\":9221:9222   */\n      0x00\n        /* \"#utility.yul\":9206:9602   */\n    tag_592:\n        /* \"#utility.yul\":9231:9237   */\n      dup6\n        /* \"#utility.yul\":9228:9229   */\n      dup2\n        /* \"#utility.yul\":9225:9238   */\n      lt\n        /* \"#utility.yul\":9206:9602   */\n      iszero\n      tag_594\n      jumpi\n        /* \"#utility.yul\":9302:9311   */\n      dup5\n        /* \"#utility.yul\":9296:9300   */\n      dup5\n        /* \"#utility.yul\":9292:9312   */\n      sub\n        /* \"#utility.yul\":9287:9290   */\n      dup10\n        /* \"#utility.yul\":9280:9313   */\n      mstore\n        /* \"#utility.yul\":9353:9359   */\n      dup2\n        /* \"#utility.yul\":9347:9360   */\n      mload\n        /* \"#utility.yul\":9381:9465   */\n      tag_595\n        /* \"#utility.yul\":9460:9464   */\n      dup6\n        /* \"#utility.yul\":9445:9458   */\n      dup3\n        /* \"#utility.yul\":9381:9465   */\n      tag_455\n      jump\t// in\n    tag_595:\n        /* \"#utility.yul\":9373:9465   */\n      swap5\n      pop\n        /* \"#utility.yul\":9488:9558   */\n      tag_596\n        /* \"#utility.yul\":9551:9557   */\n      dup4\n        /* \"#utility.yul\":9488:9558   */\n      tag_456\n      jump\t// in\n    tag_596:\n        /* \"#utility.yul\":9478:9558   */\n      swap3\n      pop\n        /* \"#utility.yul\":9587:9591   */\n      0x20\n        /* \"#utility.yul\":9582:9585   */\n      dup11\n        /* \"#utility.yul\":9578:9592   */\n      add\n        /* \"#utility.yul\":9571:9592   */\n      swap10\n      pop\n        /* \"#utility.yul\":9266:9602   */\n      pop\n        /* \"#utility.yul\":9253:9254   */\n      0x01\n        /* \"#utility.yul\":9250:9251   */\n      dup2\n        /* \"#utility.yul\":9246:9255   */\n      add\n        /* \"#utility.yul\":9241:9255   */\n      swap1\n      pop\n        /* \"#utility.yul\":9206:9602   */\n      jump(tag_592)\n    tag_594:\n        /* \"#utility.yul\":9210:9224   */\n      pop\n        /* \"#utility.yul\":9618:9622   */\n      dup3\n        /* \"#utility.yul\":9611:9622   */\n      swap8\n      pop\n        /* \"#utility.yul\":9638:9641   */\n      dup8\n        /* \"#utility.yul\":9631:9641   */\n      swap6\n      pop\n        /* \"#utility.yul\":8810:9647   */\n      pop\n      pop\n      pop\n      pop\n      pop\n        /* \"#utility.yul\":8676:9647   */\n      swap3\n      swap2\n      pop\n      pop\n      jump\t// out\n        /* \"#utility.yul\":9653:9827   */\n    tag_458:\n        /* \"#utility.yul\":9742:9753   */\n      0x00\n        /* \"#utility.yul\":9776:9782   */\n      dup3\n        /* \"#utility.yul\":9771:9774   */\n      dup3\n        /* \"#utility.yul\":9764:9783   */\n      mstore\n        /* \"#utility.yul\":9816:9820   */\n      0x20\n        /* \"#utility.yul\":9811:9814   */\n      dup3\n        /* \"#utility.yul\":9807:9821   */\n      add\n        /* \"#utility.yul\":9792:9821   */\n      swap1\n      pop\n        /* \"#utility.yul\":9653:9827   */\n      swap3\n      swap2\n      pop\n      pop\n      jump\t// out\n        /* \"#utility.yul\":9863:10575   */\n    tag_459:\n        /* \"#utility.yul\":9972:9975   */\n      0x00\n        /* \"#utility.yul\":10001:10055   */\n      tag_599\n        /* \"#utility.yul\":10049:10054   */\n      dup3\n        /* \"#utility.yul\":10001:10055   */\n      tag_424\n      jump\t// in\n    tag_599:\n        /* \"#utility.yul\":10071:10147   */\n      tag_600\n        /* \"#utility.yul\":10140:10146   */\n      dup2\n        /* \"#utility.yul\":10135:10138   */\n      dup6\n        /* \"#utility.yul\":10071:10147   */\n      tag_458\n      jump\t// in\n    tag_600:\n        /* \"#utility.yul\":10064:10147   */\n      swap4\n      pop\n        /* \"#utility.yul\":10171:10227   */\n      tag_601\n        /* \"#utility.yul\":10221:10226   */\n      dup4\n        /* \"#utility.yul\":10171:10227   */\n      tag_426\n      jump\t// in\n    tag_601:\n        /* \"#utility.yul\":10250:10257   */\n      dup1\n        /* \"#utility.yul\":10281:10282   */\n      0x00\n        /* \"#utility.yul\":10266:10550   */\n    tag_602:\n        /* \"#utility.yul\":10291:10297   */\n      dup4\n        /* \"#utility.yul\":10288:10289   */\n      dup2\n        /* \"#utility.yul\":10285:10298   */\n      lt\n        /* \"#utility.yul\":10266:10550   */\n      iszero\n      tag_604\n      jumpi\n        /* \"#utility.yul\":10367:10373   */\n      dup2\n        /* \"#utility.yul\":10361:10374   */\n      mload\n        /* \"#utility.yul\":10394:10457   */\n      tag_605\n        /* \"#utility.yul\":10453:10456   */\n      dup9\n        /* \"#utility.yul\":10438:10451   */\n      dup3\n        /* \"#utility.yul\":10394:10457   */\n      tag_429\n      jump\t// in\n    tag_605:\n        /* \"#utility.yul\":10387:10457   */\n      swap8\n      pop\n        /* \"#utility.yul\":10480:10540   */\n      tag_606\n        /* \"#utility.yul\":10533:10539   */\n      dup4\n        /* \"#utility.yul\":10480:10540   */\n      tag_430\n      jump\t// in\n    tag_606:\n        /* \"#utility.yul\":10470:10540   */\n      swap3\n      pop\n        /* \"#utility.yul\":10326:10550   */\n      pop\n        /* \"#utility.yul\":10313:10314   */\n      0x01\n        /* \"#utility.yul\":10310:10311   */\n      dup2\n        /* \"#utility.yul\":10306:10315   */\n      add\n        /* \"#utility.yul\":10301:10315   */\n      swap1\n      pop\n        /* \"#utility.yul\":10266:10550   */\n      jump(tag_602)\n    tag_604:\n        /* \"#utility.yul\":10270:10284   */\n      pop\n        /* \"#utility.yul\":10566:10569   */\n      dup6\n        /* \"#utility.yul\":10559:10569   */\n      swap4\n      pop\n        /* \"#utility.yul\":9977:10575   */\n      pop\n      pop\n      pop\n        /* \"#utility.yul\":9863:10575   */\n      swap3\n      swap2\n      pop\n      pop\n      jump\t// out\n        /* \"#utility.yul\":10631:12699   */\n    tag_460:\n        /* \"#utility.yul\":10740:10743   */\n      0x00\n        /* \"#utility.yul\":10776:10780   */\n      0xe0\n        /* \"#utility.yul\":10771:10774   */\n      dup4\n        /* \"#utility.yul\":10767:10781   */\n      add\n        /* \"#utility.yul\":10865:10869   */\n      0x00\n        /* \"#utility.yul\":10858:10863   */\n      dup4\n        /* \"#utility.yul\":10854:10870   */\n      add\n        /* \"#utility.yul\":10848:10871   */\n      mload\n        /* \"#utility.yul\":10918:10921   */\n      dup5\n        /* \"#utility.yul\":10912:10916   */\n      dup3\n        /* \"#utility.yul\":10908:10922   */\n      sub\n        /* \"#utility.yul\":10901:10905   */\n      0x00\n        /* \"#utility.yul\":10896:10899   */\n      dup7\n        /* \"#utility.yul\":10892:10906   */\n      add\n        /* \"#utility.yul\":10885:10923   */\n      mstore\n        /* \"#utility.yul\":10944:11017   */\n      tag_608\n        /* \"#utility.yul\":11012:11016   */\n      dup3\n        /* \"#utility.yul\":10998:11010   */\n      dup3\n        /* \"#utility.yul\":10944:11017   */\n      tag_451\n      jump\t// in\n    tag_608:\n        /* \"#utility.yul\":10936:11017   */\n      swap2\n      pop\n        /* \"#utility.yul\":10791:11028   */\n      pop\n        /* \"#utility.yul\":11117:11121   */\n      0x20\n        /* \"#utility.yul\":11110:11115   */\n      dup4\n        /* \"#utility.yul\":11106:11122   */\n      add\n        /* \"#utility.yul\":11100:11123   */\n      mload\n        /* \"#utility.yul\":11170:11173   */\n      dup5\n        /* \"#utility.yul\":11164:11168   */\n      dup3\n        /* \"#utility.yul\":11160:11174   */\n      sub\n        /* \"#utility.yul\":11153:11157   */\n      0x20\n        /* \"#utility.yul\":11148:11151   */\n      dup7\n        /* \"#utility.yul\":11144:11158   */\n      add\n        /* \"#utility.yul\":11137:11175   */\n      mstore\n        /* \"#utility.yul\":11196:11269   */\n      tag_609\n        /* \"#utility.yul\":11264:11268   */\n      dup3\n        /* \"#utility.yul\":11250:11262   */\n      dup3\n        /* \"#utility.yul\":11196:11269   */\n      tag_451\n      jump\t// in\n    tag_609:\n        /* \"#utility.yul\":11188:11269   */\n      swap2\n      pop\n        /* \"#utility.yul\":11038:11280   */\n      pop\n        /* \"#utility.yul\":11368:11372   */\n      0x40\n        /* \"#utility.yul\":11361:11366   */\n      dup4\n        /* \"#utility.yul\":11357:11373   */\n      add\n        /* \"#utility.yul\":11351:11374   */\n      mload\n        /* \"#utility.yul\":11421:11424   */\n      dup5\n        /* \"#utility.yul\":11415:11419   */\n      dup3\n        /* \"#utility.yul\":11411:11425   */\n      sub\n        /* \"#utility.yul\":11404:11408   */\n      0x40\n        /* \"#utility.yul\":11399:11402   */\n      dup7\n        /* \"#utility.yul\":11395:11409   */\n      add\n        /* \"#utility.yul\":11388:11426   */\n      mstore\n        /* \"#utility.yul\":11447:11520   */\n      tag_610\n        /* \"#utility.yul\":11515:11519   */\n      dup3\n        /* \"#utility.yul\":11501:11513   */\n      dup3\n        /* \"#utility.yul\":11447:11520   */\n      tag_451\n      jump\t// in\n    tag_610:\n        /* \"#utility.yul\":11439:11520   */\n      swap2\n      pop\n        /* \"#utility.yul\":11290:11531   */\n      pop\n        /* \"#utility.yul\":11616:11620   */\n      0x60\n        /* \"#utility.yul\":11609:11614   */\n      dup4\n        /* \"#utility.yul\":11605:11621   */\n      add\n        /* \"#utility.yul\":11599:11622   */\n      mload\n        /* \"#utility.yul\":11669:11672   */\n      dup5\n        /* \"#utility.yul\":11663:11667   */\n      dup3\n        /* \"#utility.yul\":11659:11673   */\n      sub\n        /* \"#utility.yul\":11652:11656   */\n      0x60\n        /* \"#utility.yul\":11647:11650   */\n      dup7\n        /* \"#utility.yul\":11643:11657   */\n      add\n        /* \"#utility.yul\":11636:11674   */\n      mstore\n        /* \"#utility.yul\":11695:11818   */\n      tag_611\n        /* \"#utility.yul\":11813:11817   */\n      dup3\n        /* \"#utility.yul\":11799:11811   */\n      dup3\n        /* \"#utility.yul\":11695:11818   */\n      tag_457\n      jump\t// in\n    tag_611:\n        /* \"#utility.yul\":11687:11818   */\n      swap2\n      pop\n        /* \"#utility.yul\":11541:11829   */\n      pop\n        /* \"#utility.yul\":11915:11919   */\n      0x80\n        /* \"#utility.yul\":11908:11913   */\n      dup4\n        /* \"#utility.yul\":11904:11920   */\n      add\n        /* \"#utility.yul\":11898:11921   */\n      mload\n        /* \"#utility.yul\":11968:11971   */\n      dup5\n        /* \"#utility.yul\":11962:11966   */\n      dup3\n        /* \"#utility.yul\":11958:11972   */\n      sub\n        /* \"#utility.yul\":11951:11955   */\n      0x80\n        /* \"#utility.yul\":11946:11949   */\n      dup7\n        /* \"#utility.yul\":11942:11956   */\n      add\n        /* \"#utility.yul\":11935:11973   */\n      mstore\n        /* \"#utility.yul\":11994:12097   */\n      tag_612\n        /* \"#utility.yul\":12092:12096   */\n      dup3\n        /* \"#utility.yul\":12078:12090   */\n      dup3\n        /* \"#utility.yul\":11994:12097   */\n      tag_459\n      jump\t// in\n    tag_612:\n        /* \"#utility.yul\":11986:12097   */\n      swap2\n      pop\n        /* \"#utility.yul\":11839:12108   */\n      pop\n        /* \"#utility.yul\":12196:12200   */\n      0xa0\n        /* \"#utility.yul\":12189:12194   */\n      dup4\n        /* \"#utility.yul\":12185:12201   */\n      add\n        /* \"#utility.yul\":12179:12202   */\n      mload\n        /* \"#utility.yul\":12249:12252   */\n      dup5\n        /* \"#utility.yul\":12243:12247   */\n      dup3\n        /* \"#utility.yul\":12239:12253   */\n      sub\n        /* \"#utility.yul\":12232:12236   */\n      0xa0\n        /* \"#utility.yul\":12227:12230   */\n      dup7\n        /* \"#utility.yul\":12223:12237   */\n      add\n        /* \"#utility.yul\":12216:12254   */\n      mstore\n        /* \"#utility.yul\":12275:12378   */\n      tag_613\n        /* \"#utility.yul\":12373:12377   */\n      dup3\n        /* \"#utility.yul\":12359:12371   */\n      dup3\n        /* \"#utility.yul\":12275:12378   */\n      tag_459\n      jump\t// in\n    tag_613:\n        /* \"#utility.yul\":12267:12378   */\n      swap2\n      pop\n        /* \"#utility.yul\":12118:12389   */\n      pop\n        /* \"#utility.yul\":12479:12483   */\n      0xc0\n        /* \"#utility.yul\":12472:12477   */\n      dup4\n        /* \"#utility.yul\":12468:12484   */\n      add\n        /* \"#utility.yul\":12462:12485   */\n      mload\n        /* \"#utility.yul\":12532:12535   */\n      dup5\n        /* \"#utility.yul\":12526:12530   */\n      dup3\n        /* \"#utility.yul\":12522:12536   */\n      sub\n        /* \"#utility.yul\":12515:12519   */\n      0xc0\n        /* \"#utility.yul\":12510:12513   */\n      dup7\n        /* \"#utility.yul\":12506:12520   */\n      add\n        /* \"#utility.yul\":12499:12537   */\n      mstore\n        /* \"#utility.yul\":12558:12661   */\n      tag_614\n        /* \"#utility.yul\":12656:12660   */\n      dup3\n        /* \"#utility.yul\":12642:12654   */\n      dup3\n        /* \"#utility.yul\":12558:12661   */\n      tag_459\n      jump\t// in\n    tag_614:\n        /* \"#utility.yul\":12550:12661   */\n      swap2\n      pop\n        /* \"#utility.yul\":12399:12672   */\n      pop\n        /* \"#utility.yul\":12689:12693   */\n      dup1\n        /* \"#utility.yul\":12682:12693   */\n      swap2\n      pop\n        /* \"#utility.yul\":10745:12699   */\n      pop\n        /* \"#utility.yul\":10631:12699   */\n      swap3\n      swap2\n      pop\n      pop\n      jump\t// out\n        /* \"#utility.yul\":12705:13058   */\n    tag_46:\n        /* \"#utility.yul\":12838:12842   */\n      0x00\n        /* \"#utility.yul\":12876:12878   */\n      0x20\n        /* \"#utility.yul\":12865:12874   */\n      dup3\n        /* \"#utility.yul\":12861:12879   */\n      add\n        /* \"#utility.yul\":12853:12879   */\n      swap1\n      pop\n        /* \"#utility.yul\":12925:12934   */\n      dup2\n        /* \"#utility.yul\":12919:12923   */\n      dup2\n        /* \"#utility.yul\":12915:12935   */\n      sub\n        /* \"#utility.yul\":12911:12912   */\n      0x00\n        /* \"#utility.yul\":12900:12909   */\n      dup4\n        /* \"#utility.yul\":12896:12913   */\n      add\n        /* \"#utility.yul\":12889:12936   */\n      mstore\n        /* \"#utility.yul\":12953:13051   */\n      tag_616\n        /* \"#utility.yul\":13046:13050   */\n      dup2\n        /* \"#utility.yul\":13037:13043   */\n      dup5\n        /* \"#utility.yul\":12953:13051   */\n      tag_460\n      jump\t// in\n    tag_616:\n        /* \"#utility.yul\":12945:13051   */\n      swap1\n      pop\n        /* \"#utility.yul\":12705:13058   */\n      swap3\n      swap2\n      pop\n      pop\n      jump\t// out\n        /* \"#utility.yul\":13120:15313   */\n    tag_461:\n        /* \"#utility.yul\":13235:13238   */\n      0x00\n        /* \"#utility.yul\":13271:13277   */\n      0x0120\n        /* \"#utility.yul\":13266:13269   */\n      dup4\n        /* \"#utility.yul\":13262:13278   */\n      add\n        /* \"#utility.yul\":13358:13362   */\n      0x00\n        /* \"#utility.yul\":13351:13356   */\n      dup4\n        /* \"#utility.yul\":13347:13363   */\n      add\n        /* \"#utility.yul\":13341:13364   */\n      mload\n        /* \"#utility.yul\":13377:13440   */\n      tag_618\n        /* \"#utility.yul\":13434:13438   */\n      0x00\n        /* \"#utility.yul\":13429:13432   */\n      dup7\n        /* \"#utility.yul\":13425:13439   */\n      add\n        /* \"#utility.yul\":13411:13423   */\n      dup3\n        /* \"#utility.yul\":13377:13440   */\n      tag_428\n      jump\t// in\n    tag_618:\n        /* \"#utility.yul\":13288:13450   */\n      pop\n        /* \"#utility.yul\":13534:13538   */\n      0x20\n        /* \"#utility.yul\":13527:13532   */\n      dup4\n        /* \"#utility.yul\":13523:13539   */\n      add\n        /* \"#utility.yul\":13517:13540   */\n      mload\n        /* \"#utility.yul\":13587:13590   */\n      dup5\n        /* \"#utility.yul\":13581:13585   */\n      dup3\n        /* \"#utility.yul\":13577:13591   */\n      sub\n        /* \"#utility.yul\":13570:13574   */\n      0x20\n        /* \"#utility.yul\":13565:13568   */\n      dup7\n        /* \"#utility.yul\":13561:13575   */\n      add\n        /* \"#utility.yul\":13554:13592   */\n      mstore\n        /* \"#utility.yul\":13613:13686   */\n      tag_619\n        /* \"#utility.yul\":13681:13685   */\n      dup3\n        /* \"#utility.yul\":13667:13679   */\n      dup3\n        /* \"#utility.yul\":13613:13686   */\n      tag_451\n      jump\t// in\n    tag_619:\n        /* \"#utility.yul\":13605:13686   */\n      swap2\n      pop\n        /* \"#utility.yul\":13460:13697   */\n      pop\n        /* \"#utility.yul\":13778:13782   */\n      0x40\n        /* \"#utility.yul\":13771:13776   */\n      dup4\n        /* \"#utility.yul\":13767:13783   */\n      add\n        /* \"#utility.yul\":13761:13784   */\n      mload\n        /* \"#utility.yul\":13831:13834   */\n      dup5\n        /* \"#utility.yul\":13825:13829   */\n      dup3\n        /* \"#utility.yul\":13821:13835   */\n      sub\n        /* \"#utility.yul\":13814:13818   */\n      0x40\n        /* \"#utility.yul\":13809:13812   */\n      dup7\n        /* \"#utility.yul\":13805:13819   */\n      add\n        /* \"#utility.yul\":13798:13836   */\n      mstore\n        /* \"#utility.yul\":13857:13930   */\n      tag_620\n        /* \"#utility.yul\":13925:13929   */\n      dup3\n        /* \"#utility.yul\":13911:13923   */\n      dup3\n        /* \"#utility.yul\":13857:13930   */\n      tag_451\n      jump\t// in\n    tag_620:\n        /* \"#utility.yul\":13849:13930   */\n      swap2\n      pop\n        /* \"#utility.yul\":13707:13941   */\n      pop\n        /* \"#utility.yul\":14022:14026   */\n      0x60\n        /* \"#utility.yul\":14015:14020   */\n      dup4\n        /* \"#utility.yul\":14011:14027   */\n      add\n        /* \"#utility.yul\":14005:14028   */\n      mload\n        /* \"#utility.yul\":14075:14078   */\n      dup5\n        /* \"#utility.yul\":14069:14073   */\n      dup3\n        /* \"#utility.yul\":14065:14079   */\n      sub\n        /* \"#utility.yul\":14058:14062   */\n      0x60\n        /* \"#utility.yul\":14053:14056   */\n      dup7\n        /* \"#utility.yul\":14049:14063   */\n      add\n        /* \"#utility.yul\":14042:14080   */\n      mstore\n        /* \"#utility.yul\":14101:14174   */\n      tag_621\n        /* \"#utility.yul\":14169:14173   */\n      dup3\n        /* \"#utility.yul\":14155:14167   */\n      dup3\n        /* \"#utility.yul\":14101:14174   */\n      tag_451\n      jump\t// in\n    tag_621:\n        /* \"#utility.yul\":14093:14174   */\n      swap2\n      pop\n        /* \"#utility.yul\":13951:14185   */\n      pop\n        /* \"#utility.yul\":14267:14271   */\n      0x80\n        /* \"#utility.yul\":14260:14265   */\n      dup4\n        /* \"#utility.yul\":14256:14272   */\n      add\n        /* \"#utility.yul\":14250:14273   */\n      mload\n        /* \"#utility.yul\":14320:14323   */\n      dup5\n        /* \"#utility.yul\":14314:14318   */\n      dup3\n        /* \"#utility.yul\":14310:14324   */\n      sub\n        /* \"#utility.yul\":14303:14307   */\n      0x80\n        /* \"#utility.yul\":14298:14301   */\n      dup7\n        /* \"#utility.yul\":14294:14308   */\n      add\n        /* \"#utility.yul\":14287:14325   */\n      mstore\n        /* \"#utility.yul\":14346:14419   */\n      tag_622\n        /* \"#utility.yul\":14414:14418   */\n      dup3\n        /* \"#utility.yul\":14400:14412   */\n      dup3\n        /* \"#utility.yul\":14346:14419   */\n      tag_451\n      jump\t// in\n    tag_622:\n        /* \"#utility.yul\":14338:14419   */\n      swap2\n      pop\n        /* \"#utility.yul\":14195:14430   */\n      pop\n        /* \"#utility.yul\":14519:14523   */\n      0xa0\n        /* \"#utility.yul\":14512:14517   */\n      dup4\n        /* \"#utility.yul\":14508:14524   */\n      add\n        /* \"#utility.yul\":14502:14525   */\n      mload\n        /* \"#utility.yul\":14572:14575   */\n      dup5\n        /* \"#utility.yul\":14566:14570   */\n      dup3\n        /* \"#utility.yul\":14562:14576   */\n      sub\n        /* \"#utility.yul\":14555:14559   */\n      0xa0\n        /* \"#utility.yul\":14550:14553   */\n      dup7\n        /* \"#utility.yul\":14546:14560   */\n      add\n        /* \"#utility.yul\":14539:14577   */\n      mstore\n        /* \"#utility.yul\":14598:14671   */\n      tag_623\n        /* \"#utility.yul\":14666:14670   */\n      dup3\n        /* \"#utility.yul\":14652:14664   */\n      dup3\n        /* \"#utility.yul\":14598:14671   */\n      tag_451\n      jump\t// in\n    tag_623:\n        /* \"#utility.yul\":14590:14671   */\n      swap2\n      pop\n        /* \"#utility.yul\":14440:14682   */\n      pop\n        /* \"#utility.yul\":14769:14773   */\n      0xc0\n        /* \"#utility.yul\":14762:14767   */\n      dup4\n        /* \"#utility.yul\":14758:14774   */\n      add\n        /* \"#utility.yul\":14752:14775   */\n      mload\n        /* \"#utility.yul\":14788:14851   */\n      tag_624\n        /* \"#utility.yul\":14845:14849   */\n      0xc0\n        /* \"#utility.yul\":14840:14843   */\n      dup7\n        /* \"#utility.yul\":14836:14850   */\n      add\n        /* \"#utility.yul\":14822:14834   */\n      dup3\n        /* \"#utility.yul\":14788:14851   */\n      tag_428\n      jump\t// in\n    tag_624:\n        /* \"#utility.yul\":14692:14861   */\n      pop\n        /* \"#utility.yul\":14944:14948   */\n      0xe0\n        /* \"#utility.yul\":14937:14942   */\n      dup4\n        /* \"#utility.yul\":14933:14949   */\n      add\n        /* \"#utility.yul\":14927:14950   */\n      mload\n        /* \"#utility.yul\":14963:15026   */\n      tag_625\n        /* \"#utility.yul\":15020:15024   */\n      0xe0\n        /* \"#utility.yul\":15015:15018   */\n      dup7\n        /* \"#utility.yul\":15011:15025   */\n      add\n        /* \"#utility.yul\":14997:15009   */\n      dup3\n        /* \"#utility.yul\":14963:15026   */\n      tag_428\n      jump\t// in\n    tag_625:\n        /* \"#utility.yul\":14871:15036   */\n      pop\n        /* \"#utility.yul\":15119:15125   */\n      0x0100\n        /* \"#utility.yul\":15112:15117   */\n      dup4\n        /* \"#utility.yul\":15108:15126   */\n      add\n        /* \"#utility.yul\":15102:15127   */\n      mload\n        /* \"#utility.yul\":15176:15179   */\n      dup5\n        /* \"#utility.yul\":15170:15174   */\n      dup3\n        /* \"#utility.yul\":15166:15180   */\n      sub\n        /* \"#utility.yul\":15157:15163   */\n      0x0100\n        /* \"#utility.yul\":15152:15155   */\n      dup7\n        /* \"#utility.yul\":15148:15164   */\n      add\n        /* \"#utility.yul\":15141:15181   */\n      mstore\n        /* \"#utility.yul\":15202:15275   */\n      tag_626\n        /* \"#utility.yul\":15270:15274   */\n      dup3\n        /* \"#utility.yul\":15256:15268   */\n      dup3\n        /* \"#utility.yul\":15202:15275   */\n      tag_451\n      jump\t// in\n    tag_626:\n        /* \"#utility.yul\":15194:15275   */\n      swap2\n      pop\n        /* \"#utility.yul\":15046:15286   */\n      pop\n        /* \"#utility.yul\":15303:15307   */\n      dup1\n        /* \"#utility.yul\":15296:15307   */\n      swap2\n      pop\n        /* \"#utility.yul\":13240:15313   */\n      pop\n        /* \"#utility.yul\":13120:15313   */\n      swap3\n      swap2\n      pop\n      pop\n      jump\t// out\n        /* \"#utility.yul\":15319:15684   */\n    tag_51:\n        /* \"#utility.yul\":15458:15462   */\n      0x00\n        /* \"#utility.yul\":15496:15498   */\n      0x20\n        /* \"#utility.yul\":15485:15494   */\n      dup3\n        /* \"#utility.yul\":15481:15499   */\n      add\n        /* \"#utility.yul\":15473:15499   */\n      swap1\n      pop\n        /* \"#utility.yul\":15545:15554   */\n      dup2\n        /* \"#utility.yul\":15539:15543   */\n      dup2\n        /* \"#utility.yul\":15535:15555   */\n      sub\n        /* \"#utility.yul\":15531:15532   */\n      0x00\n        /* \"#utility.yul\":15520:15529   */\n      dup4\n        /* \"#utility.yul\":15516:15533   */\n      add\n        /* \"#utility.yul\":15509:15556   */\n      mstore\n        /* \"#utility.yul\":15573:15677   */\n      tag_628\n        /* \"#utility.yul\":15672:15676   */\n      dup2\n        /* \"#utility.yul\":15663:15669   */\n      dup5\n        /* \"#utility.yul\":15573:15677   */\n      tag_461\n      jump\t// in\n    tag_628:\n        /* \"#utility.yul\":15565:15677   */\n      swap1\n      pop\n        /* \"#utility.yul\":15319:15684   */\n      swap3\n      swap2\n      pop\n      pop\n      jump\t// out\n        /* \"#utility.yul\":15690:16011   */\n    tag_462:\n        /* \"#utility.yul\":15777:15781   */\n      0x00\n        /* \"#utility.yul\":15867:15885   */\n      0xffffffffffffffff\n        /* \"#utility.yul\":15859:15865   */\n      dup3\n        /* \"#utility.yul\":15856:15886   */\n      gt\n        /* \"#utility.yul\":15853:15909   */\n      iszero\n      tag_630\n      jumpi\n        /* \"#utility.yul\":15889:15907   */\n      tag_631\n      tag_441\n      jump\t// in\n    tag_631:\n        /* \"#utility.yul\":15853:15909   */\n    tag_630:\n        /* \"#utility.yul\":15939:15943   */\n      0x20\n        /* \"#utility.yul\":15931:15937   */\n      dup3\n        /* \"#utility.yul\":15927:15944   */\n      mul\n        /* \"#utility.yul\":15919:15944   */\n      swap1\n      pop\n        /* \"#utility.yul\":15999:16003   */\n      0x20\n        /* \"#utility.yul\":15993:15997   */\n      dup2\n        /* \"#utility.yul\":15989:16004   */\n      add\n        /* \"#utility.yul\":15981:16004   */\n      swap1\n      pop\n        /* \"#utility.yul\":15690:16011   */\n      swap2\n      swap1\n      pop\n      jump\t// out\n        /* \"#utility.yul\":16017:16134   */\n    tag_463:\n        /* \"#utility.yul\":16126:16127   */\n      0x00\n        /* \"#utility.yul\":16123:16124   */\n      dup1\n        /* \"#utility.yul\":16116:16128   */\n      revert\n        /* \"#utility.yul\":16156:17101   */\n    tag_464:\n        /* \"#utility.yul\":16262:16267   */\n      0x00\n        /* \"#utility.yul\":16287:16378   */\n      tag_634\n        /* \"#utility.yul\":16303:16377   */\n      tag_635\n        /* \"#utility.yul\":16370:16376   */\n      dup5\n        /* \"#utility.yul\":16303:16377   */\n      tag_462\n      jump\t// in\n    tag_635:\n        /* \"#utility.yul\":16287:16378   */\n      tag_443\n      jump\t// in\n    tag_634:\n        /* \"#utility.yul\":16278:16378   */\n      swap1\n      pop\n        /* \"#utility.yul\":16398:16403   */\n      dup1\n        /* \"#utility.yul\":16427:16433   */\n      dup4\n        /* \"#utility.yul\":16420:16425   */\n      dup3\n        /* \"#utility.yul\":16413:16434   */\n      mstore\n        /* \"#utility.yul\":16461:16465   */\n      0x20\n        /* \"#utility.yul\":16454:16459   */\n      dup3\n        /* \"#utility.yul\":16450:16466   */\n      add\n        /* \"#utility.yul\":16443:16466   */\n      swap1\n      pop\n        /* \"#utility.yul\":16514:16518   */\n      0x20\n        /* \"#utility.yul\":16506:16512   */\n      dup5\n        /* \"#utility.yul\":16502:16519   */\n      mul\n        /* \"#utility.yul\":16494:16500   */\n      dup4\n        /* \"#utility.yul\":16490:16520   */\n      add\n        /* \"#utility.yul\":16543:16546   */\n      dup6\n        /* \"#utility.yul\":16535:16541   */\n      dup2\n        /* \"#utility.yul\":16532:16547   */\n      gt\n        /* \"#utility.yul\":16529:16651   */\n      iszero\n      tag_636\n      jumpi\n        /* \"#utility.yul\":16562:16641   */\n      tag_637\n      tag_463\n      jump\t// in\n    tag_637:\n        /* \"#utility.yul\":16529:16651   */\n    tag_636:\n        /* \"#utility.yul\":16677:16683   */\n      dup4\n        /* \"#utility.yul\":16660:17095   */\n    tag_638:\n        /* \"#utility.yul\":16694:16700   */\n      dup2\n        /* \"#utility.yul\":16689:16692   */\n      dup2\n        /* \"#utility.yul\":16686:16701   */\n      lt\n        /* \"#utility.yul\":16660:17095   */\n      iszero\n      tag_640\n      jumpi\n        /* \"#utility.yul\":16783:16786   */\n      dup1\n        /* \"#utility.yul\":16770:16787   */\n      calldataload\n        /* \"#utility.yul\":16819:16837   */\n      0xffffffffffffffff\n        /* \"#utility.yul\":16806:16817   */\n      dup2\n        /* \"#utility.yul\":16803:16838   */\n      gt\n        /* \"#utility.yul\":16800:16922   */\n      iszero\n      tag_641\n      jumpi\n        /* \"#utility.yul\":16841:16920   */\n      tag_642\n      tag_438\n      jump\t// in\n    tag_642:\n        /* \"#utility.yul\":16800:16922   */\n    tag_641:\n        /* \"#utility.yul\":16965:16976   */\n      dup1\n        /* \"#utility.yul\":16957:16963   */\n      dup7\n        /* \"#utility.yul\":16953:16977   */\n      add\n        /* \"#utility.yul\":17003:17050   */\n      tag_643\n        /* \"#utility.yul\":17046:17049   */\n      dup10\n        /* \"#utility.yul\":17034:17044   */\n      dup3\n        /* \"#utility.yul\":17003:17050   */\n      tag_447\n      jump\t// in\n    tag_643:\n        /* \"#utility.yul\":16998:17001   */\n      dup6\n        /* \"#utility.yul\":16991:17051   */\n      mstore\n        /* \"#utility.yul\":17080:17084   */\n      0x20\n        /* \"#utility.yul\":17075:17078   */\n      dup6\n        /* \"#utility.yul\":17071:17085   */\n      add\n        /* \"#utility.yul\":17064:17085   */\n      swap5\n      pop\n        /* \"#utility.yul\":16736:17095   */\n      pop\n      pop\n        /* \"#utility.yul\":16720:16724   */\n      0x20\n        /* \"#utility.yul\":16715:16718   */\n      dup2\n        /* \"#utility.yul\":16711:16725   */\n      add\n        /* \"#utility.yul\":16704:16725   */\n      swap1\n      pop\n        /* \"#utility.yul\":16660:17095   */\n      jump(tag_638)\n    tag_640:\n        /* \"#utility.yul\":16664:16685   */\n      pop\n        /* \"#utility.yul\":16268:17101   */\n      pop\n      pop\n        /* \"#utility.yul\":16156:17101   */\n      swap4\n      swap3\n      pop\n      pop\n      pop\n      jump\t// out\n        /* \"#utility.yul\":17123:17513   */\n    tag_465:\n        /* \"#utility.yul\":17204:17209   */\n      0x00\n        /* \"#utility.yul\":17253:17256   */\n      dup3\n        /* \"#utility.yul\":17246:17250   */\n      0x1f\n        /* \"#utility.yul\":17238:17244   */\n      dup4\n        /* \"#utility.yul\":17234:17251   */\n      add\n        /* \"#utility.yul\":17230:17257   */\n      slt\n        /* \"#utility.yul\":17220:17342   */\n      tag_645\n      jumpi\n        /* \"#utility.yul\":17261:17340   */\n      tag_646\n      tag_438\n      jump\t// in\n    tag_646:\n        /* \"#utility.yul\":17220:17342   */\n    tag_645:\n        /* \"#utility.yul\":17378:17384   */\n      dup2\n        /* \"#utility.yul\":17365:17385   */\n      calldataload\n        /* \"#utility.yul\":17403:17507   */\n      tag_647\n        /* \"#utility.yul\":17503:17506   */\n      dup5\n        /* \"#utility.yul\":17495:17501   */\n      dup3\n        /* \"#utility.yul\":17488:17492   */\n      0x20\n        /* \"#utility.yul\":17480:17486   */\n      dup7\n        /* \"#utility.yul\":17476:17493   */\n      add\n        /* \"#utility.yul\":17403:17507   */\n      tag_464\n      jump\t// in\n    tag_647:\n        /* \"#utility.yul\":17394:17507   */\n      swap2\n      pop\n        /* \"#utility.yul\":17210:17513   */\n      pop\n        /* \"#utility.yul\":17123:17513   */\n      swap3\n      swap2\n      pop\n      pop\n      jump\t// out\n        /* \"#utility.yul\":17519:18403   */\n    tag_54:\n        /* \"#utility.yul\":17632:17638   */\n      0x00\n        /* \"#utility.yul\":17640:17646   */\n      dup1\n        /* \"#utility.yul\":17689:17691   */\n      0x40\n        /* \"#utility.yul\":17677:17686   */\n      dup4\n        /* \"#utility.yul\":17668:17675   */\n      dup6\n        /* \"#utility.yul\":17664:17687   */\n      sub\n        /* \"#utility.yul\":17660:17692   */\n      slt\n        /* \"#utility.yul\":17657:17776   */\n      iszero\n      tag_649\n      jumpi\n        /* \"#utility.yul\":17695:17774   */\n      tag_650\n      tag_433\n      jump\t// in\n    tag_650:\n        /* \"#utility.yul\":17657:17776   */\n    tag_649:\n        /* \"#utility.yul\":17843:17844   */\n      0x00\n        /* \"#utility.yul\":17832:17841   */\n      dup4\n        /* \"#utility.yul\":17828:17845   */\n      add\n        /* \"#utility.yul\":17815:17846   */\n      calldataload\n        /* \"#utility.yul\":17873:17891   */\n      0xffffffffffffffff\n        /* \"#utility.yul\":17865:17871   */\n      dup2\n        /* \"#utility.yul\":17862:17892   */\n      gt\n        /* \"#utility.yul\":17859:17976   */\n      iszero\n      tag_651\n      jumpi\n        /* \"#utility.yul\":17895:17974   */\n      tag_652\n      tag_434\n      jump\t// in\n    tag_652:\n        /* \"#utility.yul\":17859:17976   */\n    tag_651:\n        /* \"#utility.yul\":18000:18063   */\n      tag_653\n        /* \"#utility.yul\":18055:18062   */\n      dup6\n        /* \"#utility.yul\":18046:18052   */\n      dup3\n        /* \"#utility.yul\":18035:18044   */\n      dup7\n        /* \"#utility.yul\":18031:18053   */\n      add\n        /* \"#utility.yul\":18000:18063   */\n      tag_447\n      jump\t// in\n    tag_653:\n        /* \"#utility.yul\":17990:18063   */\n      swap3\n      pop\n        /* \"#utility.yul\":17786:18073   */\n      pop\n        /* \"#utility.yul\":18140:18142   */\n      0x20\n        /* \"#utility.yul\":18129:18138   */\n      dup4\n        /* \"#utility.yul\":18125:18143   */\n      add\n        /* \"#utility.yul\":18112:18144   */\n      calldataload\n        /* \"#utility.yul\":18171:18189   */\n      0xffffffffffffffff\n        /* \"#utility.yul\":18163:18169   */\n      dup2\n        /* \"#utility.yul\":18160:18190   */\n      gt\n        /* \"#utility.yul\":18157:18274   */\n      iszero\n      tag_654\n      jumpi\n        /* \"#utility.yul\":18193:18272   */\n      tag_655\n      tag_434\n      jump\t// in\n    tag_655:\n        /* \"#utility.yul\":18157:18274   */\n    tag_654:\n        /* \"#utility.yul\":18298:18386   */\n      tag_656\n        /* \"#utility.yul\":18378:18385   */\n      dup6\n        /* \"#utility.yul\":18369:18375   */\n      dup3\n        /* \"#utility.yul\":18358:18367   */\n      dup7\n        /* \"#utility.yul\":18354:18376   */\n      add\n        /* \"#utility.yul\":18298:18386   */\n      tag_465\n      jump\t// in\n    tag_656:\n        /* \"#utility.yul\":18288:18386   */\n      swap2\n      pop\n        /* \"#utility.yul\":18083:18396   */\n      pop\n        /* \"#utility.yul\":17519:18403   */\n      swap3\n      pop\n      swap3\n      swap1\n      pop\n      jump\t// out\n        /* \"#utility.yul\":18409:19293   */\n    tag_59:\n        /* \"#utility.yul\":18522:18528   */\n      0x00\n        /* \"#utility.yul\":18530:18536   */\n      dup1\n        /* \"#utility.yul\":18579:18581   */\n      0x40\n        /* \"#utility.yul\":18567:18576   */\n      dup4\n        /* \"#utility.yul\":18558:18565   */\n      dup6\n        /* \"#utility.yul\":18554:18577   */\n      sub\n        /* \"#utility.yul\":18550:18582   */\n      slt\n        /* \"#utility.yul\":18547:18666   */\n      iszero\n      tag_658\n      jumpi\n        /* \"#utility.yul\":18585:18664   */\n      tag_659\n      tag_433\n      jump\t// in\n    tag_659:\n        /* \"#utility.yul\":18547:18666   */\n    tag_658:\n        /* \"#utility.yul\":18733:18734   */\n      0x00\n        /* \"#utility.yul\":18722:18731   */\n      dup4\n        /* \"#utility.yul\":18718:18735   */\n      add\n        /* \"#utility.yul\":18705:18736   */\n      calldataload\n        /* \"#utility.yul\":18763:18781   */\n      0xffffffffffffffff\n        /* \"#utility.yul\":18755:18761   */\n      dup2\n        /* \"#utility.yul\":18752:18782   */\n      gt\n        /* \"#utility.yul\":18749:18866   */\n      iszero\n      tag_660\n      jumpi\n        /* \"#utility.yul\":18785:18864   */\n      tag_661\n      tag_434\n      jump\t// in\n    tag_661:\n        /* \"#utility.yul\":18749:18866   */\n    tag_660:\n        /* \"#utility.yul\":18890:18978   */\n      tag_662\n        /* \"#utility.yul\":18970:18977   */\n      dup6\n        /* \"#utility.yul\":18961:18967   */\n      dup3\n        /* \"#utility.yul\":18950:18959   */\n      dup7\n        /* \"#utility.yul\":18946:18968   */\n      add\n        /* \"#utility.yul\":18890:18978   */\n      tag_465\n      jump\t// in\n    tag_662:\n        /* \"#utility.yul\":18880:18978   */\n      swap3\n      pop\n        /* \"#utility.yul\":18676:18988   */\n      pop\n        /* \"#utility.yul\":19055:19057   */\n      0x20\n        /* \"#utility.yul\":19044:19053   */\n      dup4\n        /* \"#utility.yul\":19040:19058   */\n      add\n        /* \"#utility.yul\":19027:19059   */\n      calldataload\n        /* \"#utility.yul\":19086:19104   */\n      0xffffffffffffffff\n        /* \"#utility.yul\":19078:19084   */\n      dup2\n        /* \"#utility.yul\":19075:19105   */\n      gt\n        /* \"#utility.yul\":19072:19189   */\n      iszero\n      tag_663\n      jumpi\n        /* \"#utility.yul\":19108:19187   */\n      tag_664\n      tag_434\n      jump\t// in\n    tag_664:\n        /* \"#utility.yul\":19072:19189   */\n    tag_663:\n        /* \"#utility.yul\":19213:19276   */\n      tag_665\n        /* \"#utility.yul\":19268:19275   */\n      dup6\n        /* \"#utility.yul\":19259:19265   */\n      dup3\n        /* \"#utility.yul\":19248:19257   */\n      dup7\n        /* \"#utility.yul\":19244:19266   */\n      add\n        /* \"#utility.yul\":19213:19276   */\n      tag_447\n      jump\t// in\n    tag_665:\n        /* \"#utility.yul\":19203:19276   */\n      swap2\n      pop\n        /* \"#utility.yul\":18998:19286   */\n      pop\n        /* \"#utility.yul\":18409:19293   */\n      swap3\n      pop\n      swap3\n      swap1\n      pop\n      jump\t// out\n        /* \"#utility.yul\":19299:21728   */\n    tag_66:\n        /* \"#utility.yul\":19481:19487   */\n      0x00\n        /* \"#utility.yul\":19489:19495   */\n      dup1\n        /* \"#utility.yul\":19497:19503   */\n      0x00\n        /* \"#utility.yul\":19505:19511   */\n      dup1\n        /* \"#utility.yul\":19513:19519   */\n      0x00\n        /* \"#utility.yul\":19521:19527   */\n      dup1\n        /* \"#utility.yul\":19529:19535   */\n      0x00\n        /* \"#utility.yul\":19537:19543   */\n      dup1\n        /* \"#utility.yul\":19586:19589   */\n      0x0100\n        /* \"#utility.yul\":19574:19583   */\n      dup10\n        /* \"#utility.yul\":19565:19572   */\n      dup12\n        /* \"#utility.yul\":19561:19584   */\n      sub\n        /* \"#utility.yul\":19557:19590   */\n      slt\n        /* \"#utility.yul\":19554:19674   */\n      iszero\n      tag_667\n      jumpi\n        /* \"#utility.yul\":19593:19672   */\n      tag_668\n      tag_433\n      jump\t// in\n    tag_668:\n        /* \"#utility.yul\":19554:19674   */\n    tag_667:\n        /* \"#utility.yul\":19741:19742   */\n      0x00\n        /* \"#utility.yul\":19730:19739   */\n      dup10\n        /* \"#utility.yul\":19726:19743   */\n      add\n        /* \"#utility.yul\":19713:19744   */\n      calldataload\n        /* \"#utility.yul\":19771:19789   */\n      0xffffffffffffffff\n        /* \"#utility.yul\":19763:19769   */\n      dup2\n        /* \"#utility.yul\":19760:19790   */\n      gt\n        /* \"#utility.yul\":19757:19874   */\n      iszero\n      tag_669\n      jumpi\n        /* \"#utility.yul\":19793:19872   */\n      tag_670\n      tag_434\n      jump\t// in\n    tag_670:\n        /* \"#utility.yul\":19757:19874   */\n    tag_669:\n        /* \"#utility.yul\":19898:19961   */\n      tag_671\n        /* \"#utility.yul\":19953:19960   */\n      dup12\n        /* \"#utility.yul\":19944:19950   */\n      dup3\n        /* \"#utility.yul\":19933:19942   */\n      dup13\n        /* \"#utility.yul\":19929:19951   */\n      add\n        /* \"#utility.yul\":19898:19961   */\n      tag_447\n      jump\t// in\n    tag_671:\n        /* \"#utility.yul\":19888:19961   */\n      swap9\n      pop\n        /* \"#utility.yul\":19684:19971   */\n      pop\n        /* \"#utility.yul\":20038:20040   */\n      0x20\n        /* \"#utility.yul\":20027:20036   */\n      dup10\n        /* \"#utility.yul\":20023:20041   */\n      add\n        /* \"#utility.yul\":20010:20042   */\n      calldataload\n        /* \"#utility.yul\":20069:20087   */\n      0xffffffffffffffff\n        /* \"#utility.yul\":20061:20067   */\n      dup2\n        /* \"#utility.yul\":20058:20088   */\n      gt\n        /* \"#utility.yul\":20055:20172   */\n      iszero\n      tag_672\n      jumpi\n        /* \"#utility.yul\":20091:20170   */\n      tag_673\n      tag_434\n      jump\t// in\n    tag_673:\n        /* \"#utility.yul\":20055:20172   */\n    tag_672:\n        /* \"#utility.yul\":20196:20259   */\n      tag_674\n        /* \"#utility.yul\":20251:20258   */\n      dup12\n        /* \"#utility.yul\":20242:20248   */\n      dup3\n        /* \"#utility.yul\":20231:20240   */\n      dup13\n        /* \"#utility.yul\":20227:20249   */\n      add\n        /* \"#utility.yul\":20196:20259   */\n      tag_447\n      jump\t// in\n    tag_674:\n        /* \"#utility.yul\":20186:20259   */\n      swap8\n      pop\n        /* \"#utility.yul\":19981:20269   */\n      pop\n        /* \"#utility.yul\":20336:20338   */\n      0x40\n        /* \"#utility.yul\":20325:20334   */\n      dup10\n        /* \"#utility.yul\":20321:20339   */\n      add\n        /* \"#utility.yul\":20308:20340   */\n      calldataload\n        /* \"#utility.yul\":20367:20385   */\n      0xffffffffffffffff\n        /* \"#utility.yul\":20359:20365   */\n      dup2\n        /* \"#utility.yul\":20356:20386   */\n      gt\n        /* \"#utility.yul\":20353:20470   */\n      iszero\n      tag_675\n      jumpi\n        /* \"#utility.yul\":20389:20468   */\n      tag_676\n      tag_434\n      jump\t// in\n    tag_676:\n        /* \"#utility.yul\":20353:20470   */\n    tag_675:\n        /* \"#utility.yul\":20494:20557   */\n      tag_677\n        /* \"#utility.yul\":20549:20556   */\n      dup12\n        /* \"#utility.yul\":20540:20546   */\n      dup3\n        /* \"#utility.yul\":20529:20538   */\n      dup13\n        /* \"#utility.yul\":20525:20547   */\n      add\n        /* \"#utility.yul\":20494:20557   */\n      tag_447\n      jump\t// in\n    tag_677:\n        /* \"#utility.yul\":20484:20557   */\n      swap7\n      pop\n        /* \"#utility.yul\":20279:20567   */\n      pop\n        /* \"#utility.yul\":20634:20636   */\n      0x60\n        /* \"#utility.yul\":20623:20632   */\n      dup10\n        /* \"#utility.yul\":20619:20637   */\n      add\n        /* \"#utility.yul\":20606:20638   */\n      calldataload\n        /* \"#utility.yul\":20665:20683   */\n      0xffffffffffffffff\n        /* \"#utility.yul\":20657:20663   */\n      dup2\n        /* \"#utility.yul\":20654:20684   */\n      gt\n        /* \"#utility.yul\":20651:20768   */\n      iszero\n      tag_678\n      jumpi\n        /* \"#utility.yul\":20687:20766   */\n      tag_679\n      tag_434\n      jump\t// in\n    tag_679:\n        /* \"#utility.yul\":20651:20768   */\n    tag_678:\n        /* \"#utility.yul\":20792:20855   */\n      tag_680\n        /* \"#utility.yul\":20847:20854   */\n      dup12\n        /* \"#utility.yul\":20838:20844   */\n      dup3\n        /* \"#utility.yul\":20827:20836   */\n      dup13\n        /* \"#utility.yul\":20823:20845   */\n      add\n        /* \"#utility.yul\":20792:20855   */\n      tag_447\n      jump\t// in\n    tag_680:\n        /* \"#utility.yul\":20782:20855   */\n      swap6\n      pop\n        /* \"#utility.yul\":20577:20865   */\n      pop\n        /* \"#utility.yul\":20932:20935   */\n      0x80\n        /* \"#utility.yul\":20921:20930   */\n      dup10\n        /* \"#utility.yul\":20917:20936   */\n      add\n        /* \"#utility.yul\":20904:20937   */\n      calldataload\n        /* \"#utility.yul\":20964:20982   */\n      0xffffffffffffffff\n        /* \"#utility.yul\":20956:20962   */\n      dup2\n        /* \"#utility.yul\":20953:20983   */\n      gt\n        /* \"#utility.yul\":20950:21067   */\n      iszero\n      tag_681\n      jumpi\n        /* \"#utility.yul\":20986:21065   */\n      tag_682\n      tag_434\n      jump\t// in\n    tag_682:\n        /* \"#utility.yul\":20950:21067   */\n    tag_681:\n        /* \"#utility.yul\":21091:21154   */\n      tag_683\n        /* \"#utility.yul\":21146:21153   */\n      dup12\n        /* \"#utility.yul\":21137:21143   */\n      dup3\n        /* \"#utility.yul\":21126:21135   */\n      dup13\n        /* \"#utility.yul\":21122:21144   */\n      add\n        /* \"#utility.yul\":21091:21154   */\n      tag_447\n      jump\t// in\n    tag_683:\n        /* \"#utility.yul\":21081:21154   */\n      swap5\n      pop\n        /* \"#utility.yul\":20875:21164   */\n      pop\n        /* \"#utility.yul\":21203:21206   */\n      0xa0\n        /* \"#utility.yul\":21230:21283   */\n      tag_684\n        /* \"#utility.yul\":21275:21282   */\n      dup12\n        /* \"#utility.yul\":21266:21272   */\n      dup3\n        /* \"#utility.yul\":21255:21264   */\n      dup13\n        /* \"#utility.yul\":21251:21273   */\n      add\n        /* \"#utility.yul\":21230:21283   */\n      tag_436\n      jump\t// in\n    tag_684:\n        /* \"#utility.yul\":21220:21283   */\n      swap4\n      pop\n        /* \"#utility.yul\":21174:21293   */\n      pop\n        /* \"#utility.yul\":21332:21335   */\n      0xc0\n        /* \"#utility.yul\":21359:21412   */\n      tag_685\n        /* \"#utility.yul\":21404:21411   */\n      dup12\n        /* \"#utility.yul\":21395:21401   */\n      dup3\n        /* \"#utility.yul\":21384:21393   */\n      dup13\n        /* \"#utility.yul\":21380:21402   */\n      add\n        /* \"#utility.yul\":21359:21412   */\n      tag_436\n      jump\t// in\n    tag_685:\n        /* \"#utility.yul\":21349:21412   */\n      swap3\n      pop\n        /* \"#utility.yul\":21303:21422   */\n      pop\n        /* \"#utility.yul\":21489:21492   */\n      0xe0\n        /* \"#utility.yul\":21478:21487   */\n      dup10\n        /* \"#utility.yul\":21474:21493   */\n      add\n        /* \"#utility.yul\":21461:21494   */\n      calldataload\n        /* \"#utility.yul\":21521:21539   */\n      0xffffffffffffffff\n        /* \"#utility.yul\":21513:21519   */\n      dup2\n        /* \"#utility.yul\":21510:21540   */\n      gt\n        /* \"#utility.yul\":21507:21624   */\n      iszero\n      tag_686\n      jumpi\n        /* \"#utility.yul\":21543:21622   */\n      tag_687\n      tag_434\n      jump\t// in\n    tag_687:\n        /* \"#utility.yul\":21507:21624   */\n    tag_686:\n        /* \"#utility.yul\":21648:21711   */\n      tag_688\n        /* \"#utility.yul\":21703:21710   */\n      dup12\n        /* \"#utility.yul\":21694:21700   */\n      dup3\n        /* \"#utility.yul\":21683:21692   */\n      dup13\n        /* \"#utility.yul\":21679:21701   */\n      add\n        /* \"#utility.yul\":21648:21711   */\n      tag_447\n      jump\t// in\n    tag_688:\n        /* \"#utility.yul\":21638:21711   */\n      swap2\n      pop\n        /* \"#utility.yul\":21432:21721   */\n      pop\n        /* \"#utility.yul\":19299:21728   */\n      swap3\n      swap6\n      swap9\n      pop\n      swap3\n      swap6\n      swap9\n      swap1\n      swap4\n      swap7\n      pop\n      jump\t// out\n        /* \"#utility.yul\":21734:21860   */\n    tag_466:\n        /* \"#utility.yul\":21771:21778   */\n      0x00\n        /* \"#utility.yul\":21811:21853   */\n      0xffffffffffffffffffffffffffffffffffffffff\n        /* \"#utility.yul\":21804:21809   */\n      dup3\n        /* \"#utility.yul\":21800:21854   */\n      and\n        /* \"#utility.yul\":21789:21854   */\n      swap1\n      pop\n        /* \"#utility.yul\":21734:21860   */\n      swap2\n      swap1\n      pop\n      jump\t// out\n        /* \"#utility.yul\":21866:21962   */\n    tag_467:\n        /* \"#utility.yul\":21903:21910   */\n      0x00\n        /* \"#utility.yul\":21932:21956   */\n      tag_691\n        /* \"#utility.yul\":21950:21955   */\n      dup3\n        /* \"#utility.yul\":21932:21956   */\n      tag_466\n      jump\t// in\n    tag_691:\n        /* \"#utility.yul\":21921:21956   */\n      swap1\n      pop\n        /* \"#utility.yul\":21866:21962   */\n      swap2\n      swap1\n      pop\n      jump\t// out\n        /* \"#utility.yul\":21968:22086   */\n    tag_468:\n        /* \"#utility.yul\":22055:22079   */\n      tag_693\n        /* \"#utility.yul\":22073:22078   */\n      dup2\n        /* \"#utility.yul\":22055:22079   */\n      tag_467\n      jump\t// in\n    tag_693:\n        /* \"#utility.yul\":22050:22053   */\n      dup3\n        /* \"#utility.yul\":22043:22080   */\n      mstore\n        /* \"#utility.yul\":21968:22086   */\n      pop\n      pop\n      jump\t// out\n        /* \"#utility.yul\":22092:22314   */\n    tag_75:\n        /* \"#utility.yul\":22185:22189   */\n      0x00\n        /* \"#utility.yul\":22223:22225   */\n      0x20\n        /* \"#utility.yul\":22212:22221   */\n      dup3\n        /* \"#utility.yul\":22208:22226   */\n      add\n        /* \"#utility.yul\":22200:22226   */\n      swap1\n      pop\n        /* \"#utility.yul\":22236:22307   */\n      tag_695\n        /* \"#utility.yul\":22304:22305   */\n      0x00\n        /* \"#utility.yul\":22293:22302   */\n      dup4\n        /* \"#utility.yul\":22289:22306   */\n      add\n        /* \"#utility.yul\":22280:22286   */\n      dup5\n        /* \"#utility.yul\":22236:22307   */\n      tag_468\n      jump\t// in\n    tag_695:\n        /* \"#utility.yul\":22092:22314   */\n      swap3\n      swap2\n      pop\n      pop\n      jump\t// out\n        /* \"#utility.yul\":22320:22410   */\n    tag_469:\n        /* \"#utility.yul\":22354:22361   */\n      0x00\n        /* \"#utility.yul\":22397:22402   */\n      dup2\n        /* \"#utility.yul\":22390:22403   */\n      iszero\n        /* \"#utility.yul\":22383:22404   */\n      iszero\n        /* \"#utility.yul\":22372:22404   */\n      swap1\n      pop\n        /* \"#utility.yul\":22320:22410   */\n      swap2\n      swap1\n      pop\n      jump\t// out\n        /* \"#utility.yul\":22416:22525   */\n    tag_470:\n        /* \"#utility.yul\":22497:22518   */\n      tag_698\n        /* \"#utility.yul\":22512:22517   */\n      dup2\n        /* \"#utility.yul\":22497:22518   */\n      tag_469\n      jump\t// in\n    tag_698:\n        /* \"#utility.yul\":22492:22495   */\n      dup3\n        /* \"#utility.yul\":22485:22519   */\n      mstore\n        /* \"#utility.yul\":22416:22525   */\n      pop\n      pop\n      jump\t// out\n        /* \"#utility.yul\":22531:22741   */\n    tag_83:\n        /* \"#utility.yul\":22618:22622   */\n      0x00\n        /* \"#utility.yul\":22656:22658   */\n      0x20\n        /* \"#utility.yul\":22645:22654   */\n      dup3\n        /* \"#utility.yul\":22641:22659   */\n      add\n        /* \"#utility.yul\":22633:22659   */\n      swap1\n      pop\n        /* \"#utility.yul\":22669:22734   */\n      tag_700\n        /* \"#utility.yul\":22731:22732   */\n      0x00\n        /* \"#utility.yul\":22720:22729   */\n      dup4\n        /* \"#utility.yul\":22716:22733   */\n      add\n        /* \"#utility.yul\":22707:22713   */\n      dup5\n        /* \"#utility.yul\":22669:22734   */\n      tag_470\n      jump\t// in\n    tag_700:\n        /* \"#utility.yul\":22531:22741   */\n      swap3\n      swap2\n      pop\n      pop\n      jump\t// out\n        /* \"#utility.yul\":22747:22895   */\n    tag_471:\n        /* \"#utility.yul\":22849:22860   */\n      0x00\n        /* \"#utility.yul\":22886:22889   */\n      dup2\n        /* \"#utility.yul\":22871:22889   */\n      swap1\n      pop\n        /* \"#utility.yul\":22747:22895   */\n      swap3\n      swap2\n      pop\n      pop\n      jump\t// out\n        /* \"#utility.yul\":22901:23291   */\n    tag_472:\n        /* \"#utility.yul\":23007:23010   */\n      0x00\n        /* \"#utility.yul\":23035:23074   */\n      tag_703\n        /* \"#utility.yul\":23068:23073   */\n      dup3\n        /* \"#utility.yul\":23035:23074   */\n      tag_448\n      jump\t// in\n    tag_703:\n        /* \"#utility.yul\":23090:23179   */\n      tag_704\n        /* \"#utility.yul\":23172:23178   */\n      dup2\n        /* \"#utility.yul\":23167:23170   */\n      dup6\n        /* \"#utility.yul\":23090:23179   */\n      tag_471\n      jump\t// in\n    tag_704:\n        /* \"#utility.yul\":23083:23179   */\n      swap4\n      pop\n        /* \"#utility.yul\":23188:23253   */\n      tag_705\n        /* \"#utility.yul\":23246:23252   */\n      dup2\n        /* \"#utility.yul\":23241:23244   */\n      dup6\n        /* \"#utility.yul\":23234:23238   */\n      0x20\n        /* \"#utility.yul\":23227:23232   */\n      dup7\n        /* \"#utility.yul\":23223:23239   */\n      add\n        /* \"#utility.yul\":23188:23253   */\n      tag_450\n      jump\t// in\n    tag_705:\n        /* \"#utility.yul\":23278:23284   */\n      dup1\n        /* \"#utility.yul\":23273:23276   */\n      dup5\n        /* \"#utility.yul\":23269:23285   */\n      add\n        /* \"#utility.yul\":23262:23285   */\n      swap2\n      pop\n        /* \"#utility.yul\":23011:23291   */\n      pop\n        /* \"#utility.yul\":22901:23291   */\n      swap3\n      swap2\n      pop\n      pop\n      jump\t// out\n        /* \"#utility.yul\":23297:23572   */\n    tag_107:\n        /* \"#utility.yul\":23429:23432   */\n      0x00\n        /* \"#utility.yul\":23451:23546   */\n      tag_707\n        /* \"#utility.yul\":23542:23545   */\n      dup3\n        /* \"#utility.yul\":23533:23539   */\n      dup5\n        /* \"#utility.yul\":23451:23546   */\n      tag_472\n      jump\t// in\n    tag_707:\n        /* \"#utility.yul\":23444:23546   */\n      swap2\n      pop\n        /* \"#utility.yul\":23563:23566   */\n      dup2\n        /* \"#utility.yul\":23556:23566   */\n      swap1\n      pop\n        /* \"#utility.yul\":23297:23572   */\n      swap3\n      swap2\n      pop\n      pop\n      jump\t// out\n        /* \"#utility.yul\":23578:23758   */\n    tag_473:\n        /* \"#utility.yul\":23626:23703   */\n      0x4e487b7100000000000000000000000000000000000000000000000000000000\n        /* \"#utility.yul\":23623:23624   */\n      0x00\n        /* \"#utility.yul\":23616:23704   */\n      mstore\n        /* \"#utility.yul\":23723:23727   */\n      0x22\n        /* \"#utility.yul\":23720:23721   */\n      0x04\n        /* \"#utility.yul\":23713:23728   */\n      mstore\n        /* \"#utility.yul\":23747:23751   */\n      0x24\n        /* \"#utility.yul\":23744:23745   */\n      0x00\n        /* \"#utility.yul\":23737:23752   */\n      revert\n        /* \"#utility.yul\":23764:24084   */\n    tag_124:\n        /* \"#utility.yul\":23808:23814   */\n      0x00\n        /* \"#utility.yul\":23845:23846   */\n      0x02\n        /* \"#utility.yul\":23839:23843   */\n      dup3\n        /* \"#utility.yul\":23835:23847   */\n      div\n        /* \"#utility.yul\":23825:23847   */\n      swap1\n      pop\n        /* \"#utility.yul\":23892:23893   */\n      0x01\n        /* \"#utility.yul\":23886:23890   */\n      dup3\n        /* \"#utility.yul\":23882:23894   */\n      and\n        /* \"#utility.yul\":23913:23931   */\n      dup1\n        /* \"#utility.yul\":23903:23984   */\n      tag_710\n      jumpi\n        /* \"#utility.yul\":23969:23973   */\n      0x7f\n        /* \"#utility.yul\":23961:23967   */\n      dup3\n        /* \"#utility.yul\":23957:23974   */\n      and\n        /* \"#utility.yul\":23947:23974   */\n      swap2\n      pop\n        /* \"#utility.yul\":23903:23984   */\n    tag_710:\n        /* \"#utility.yul\":24031:24033   */\n      0x20\n        /* \"#utility.yul\":24023:24029   */\n      dup3\n        /* \"#utility.yul\":24020:24034   */\n      lt\n        /* \"#utility.yul\":24000:24018   */\n      dup2\n        /* \"#utility.yul\":23997:24035   */\n      sub\n        /* \"#utility.yul\":23994:24078   */\n      tag_711\n      jumpi\n        /* \"#utility.yul\":24050:24068   */\n      tag_712\n      tag_473\n      jump\t// in\n    tag_712:\n        /* \"#utility.yul\":23994:24078   */\n    tag_711:\n        /* \"#utility.yul\":23815:24084   */\n      pop\n        /* \"#utility.yul\":23764:24084   */\n      swap2\n      swap1\n      pop\n      jump\t// out\n        /* \"#utility.yul\":24090:24231   */\n    tag_474:\n        /* \"#utility.yul\":24139:24143   */\n      0x00\n        /* \"#utility.yul\":24162:24165   */\n      dup2\n        /* \"#utility.yul\":24154:24165   */\n      swap1\n      pop\n        /* \"#utility.yul\":24185:24188   */\n      dup2\n        /* \"#utility.yul\":24182:24183   */\n      0x00\n        /* \"#utility.yul\":24175:24189   */\n      mstore\n        /* \"#utility.yul\":24219:24223   */\n      0x20\n        /* \"#utility.yul\":24216:24217   */\n      0x00\n        /* \"#utility.yul\":24206:24224   */\n      keccak256\n        /* \"#utility.yul\":24198:24224   */\n      swap1\n      pop\n        /* \"#utility.yul\":24090:24231   */\n      swap2\n      swap1\n      pop\n      jump\t// out\n        /* \"#utility.yul\":24237:24330   */\n    tag_475:\n        /* \"#utility.yul\":24274:24280   */\n      0x00\n        /* \"#utility.yul\":24321:24323   */\n      0x20\n        /* \"#utility.yul\":24316:24318   */\n      0x1f\n        /* \"#utility.yul\":24309:24314   */\n      dup4\n        /* \"#utility.yul\":24305:24319   */\n      add\n        /* \"#utility.yul\":24301:24324   */\n      div\n        /* \"#utility.yul\":24291:24324   */\n      swap1\n      pop\n        /* \"#utility.yul\":24237:24330   */\n      swap2\n      swap1\n      pop\n      jump\t// out\n        /* \"#utility.yul\":24336:24443   */\n    tag_476:\n        /* \"#utility.yul\":24380:24388   */\n      0x00\n        /* \"#utility.yul\":24430:24435   */\n      dup3\n        /* \"#utility.yul\":24424:24428   */\n      dup3\n        /* \"#utility.yul\":24420:24436   */\n      shl\n        /* \"#utility.yul\":24399:24436   */\n      swap1\n      pop\n        /* \"#utility.yul\":24336:24443   */\n      swap3\n      swap2\n      pop\n      pop\n      jump\t// out\n        /* \"#utility.yul\":24449:24842   */\n    tag_477:\n        /* \"#utility.yul\":24518:24524   */\n      0x00\n        /* \"#utility.yul\":24568:24569   */\n      0x08\n        /* \"#utility.yul\":24556:24566   */\n      dup4\n        /* \"#utility.yul\":24552:24570   */\n      mul\n        /* \"#utility.yul\":24591:24688   */\n      tag_717\n        /* \"#utility.yul\":24621:24687   */\n      0xffffffffffffffffffffffffffffffffffffffffffffffffffffffffffffffff\n        /* \"#utility.yul\":24610:24619   */\n      dup3\n        /* \"#utility.yul\":24591:24688   */\n      tag_476\n      jump\t// in\n    tag_717:\n        /* \"#utility.yul\":24709:24748   */\n      tag_718\n        /* \"#utility.yul\":24739:24747   */\n      dup7\n        /* \"#utility.yul\":24728:24737   */\n      dup4\n        /* \"#utility.yul\":24709:24748   */\n      tag_476\n      jump\t// in\n    tag_718:\n        /* \"#utility.yul\":24697:24748   */\n      swap6\n      pop\n        /* \"#utility.yul\":24781:24785   */\n      dup1\n        /* \"#utility.yul\":24777:24786   */\n      not\n        /* \"#utility.yul\":24770:24775   */\n      dup5\n        /* \"#utility.yul\":24766:24787   */\n      and\n        /* \"#utility.yul\":24757:24787   */\n      swap4\n      pop\n        /* \"#utility.yul\":24830:24834   */\n      dup1\n        /* \"#utility.yul\":24820:24828   */\n      dup7\n        /* \"#utility.yul\":24816:24835   */\n      and\n        /* \"#utility.yul\":24809:24814   */\n      dup5\n        /* \"#utility.yul\":24806:24836   */\n      or\n        /* \"#utility.yul\":24796:24836   */\n      swap3\n      pop\n        /* \"#utility.yul\":24525:24842   */\n      pop\n      pop\n        /* \"#utility.yul\":24449:24842   */\n      swap4\n      swap3\n      pop\n      pop\n      pop\n      jump\t// out\n        /* \"#utility.yul\":24848:24908   */\n    tag_478:\n        /* \"#utility.yul\":24876:24879   */\n      0x00\n        /* \"#utility.yul\":24897:24902   */\n      dup2\n        /* \"#utility.yul\":24890:24902   */\n      swap1\n      pop\n        /* \"#utility.yul\":24848:24908   */\n      swap2\n      swap1\n      pop\n      jump\t// out\n        /* \"#utility.yul\":24914:25056   */\n    tag_479:\n        /* \"#utility.yul\":24964:24973   */\n      0x00\n        /* \"#utility.yul\":24997:25050   */\n      tag_721\n        /* \"#utility.yul\":25015:25049   */\n      tag_722\n        /* \"#utility.yul\":25024:25048   */\n      tag_723\n        /* \"#utility.yul\":25042:25047   */\n      dup5\n        /* \"#utility.yul\":25024:25048   */\n      tag_427\n      jump\t// in\n    tag_723:\n        /* \"#utility.yul\":25015:25049   */\n      tag_478\n      jump\t// in\n    tag_722:\n        /* \"#utility.yul\":24997:25050   */\n      tag_427\n      jump\t// in\n    tag_721:\n        /* \"#utility.yul\":24984:25050   */\n      swap1\n      pop\n        /* \"#utility.yul\":24914:25056   */\n      swap2\n      swap1\n      pop\n      jump\t// out\n        /* \"#utility.yul\":25062:25137   */\n    tag_480:\n        /* \"#utility.yul\":25105:25108   */\n      0x00\n        /* \"#utility.yul\":25126:25131   */\n      dup2\n        /* \"#utility.yul\":25119:25131   */\n      swap1\n      pop\n        /* \"#utility.yul\":25062:25137   */\n      swap2\n      swap1\n      pop\n      jump\t// out\n        /* \"#utility.yul\":25143:25412   */\n    tag_481:\n        /* \"#utility.yul\":25253:25292   */\n      tag_726\n        /* \"#utility.yul\":25284:25291   */\n      dup4\n        /* \"#utility.yul\":25253:25292   */\n      tag_479\n      jump\t// in\n    tag_726:\n        /* \"#utility.yul\":25314:25405   */\n      tag_727\n        /* \"#utility.yul\":25363:25404   */\n      tag_728\n        /* \"#utility.yul\":25387:25403   */\n      dup3\n        /* \"#utility.yul\":25363:25404   */\n      tag_480\n      jump\t// in\n    tag_728:\n        /* \"#utility.yul\":25355:25361   */\n      dup5\n        /* \"#utility.yul\":25348:25352   */\n      dup5\n        /* \"#utility.yul\":25342:25353   */\n      sload\n        /* \"#utility.yul\":25314:25405   */\n      tag_477\n      jump\t// in\n    tag_727:\n        /* \"#utility.yul\":25308:25312   */\n      dup3\n        /* \"#utility.yul\":25301:25406   */\n      sstore\n        /* \"#utility.yul\":25219:25412   */\n      pop\n        /* \"#utility.yul\":25143:25412   */\n      pop\n      pop\n      pop\n      jump\t// out\n        /* \"#utility.yul\":25418:25491   */\n    tag_482:\n        /* \"#utility.yul\":25463:25466   */\n      0x00\n        /* \"#utility.yul\":25418:25491   */\n      swap1\n      jump\t// out\n        /* \"#utility.yul\":25497:25686   */\n    tag_483:\n        /* \"#utility.yul\":25574:25606   */\n      tag_731\n      tag_482\n      jump\t// in\n    tag_731:\n        /* \"#utility.yul\":25615:25680   */\n      tag_732\n        /* \"#utility.yul\":25673:25679   */\n      dup2\n        /* \"#utility.yul\":25665:25671   */\n      dup5\n        /* \"#utility.yul\":25659:25663   */\n      dup5\n        /* \"#utility.yul\":25615:25680   */\n      tag_481\n      jump\t// in\n    tag_732:\n        /* \"#utility.yul\":25550:25686   */\n      pop\n        /* \"#utility.yul\":25497:25686   */\n      pop\n      pop\n      jump\t// out\n        /* \"#utility.yul\":25692:25878   */\n    tag_484:\n        /* \"#utility.yul\":25752:25872   */\n    tag_734:\n        /* \"#utility.yul\":25769:25772   */\n      dup2\n        /* \"#utility.yul\":25762:25767   */\n      dup2\n        /* \"#utility.yul\":25759:25773   */\n      lt\n        /* \"#utility.yul\":25752:25872   */\n      iszero\n      tag_736\n      jumpi\n        /* \"#utility.yul\":25823:25862   */\n      tag_737\n        /* \"#utility.yul\":25860:25861   */\n      0x00\n        /* \"#utility.yul\":25853:25858   */\n      dup3\n        /* \"#utility.yul\":25823:25862   */\n      tag_483\n      jump\t// in\n    tag_737:\n        /* \"#utility.yul\":25796:25797   */\n      0x01\n        /* \"#utility.yul\":25789:25794   */\n      dup2\n        /* \"#utility.yul\":25785:25798   */\n      add\n        /* \"#utility.yul\":25776:25798   */\n      swap1\n      pop\n        /* \"#utility.yul\":25752:25872   */\n      jump(tag_734)\n    tag_736:\n        /* \"#utility.yul\":25692:25878   */\n      pop\n      pop\n      jump\t// out\n        /* \"#utility.yul\":25884:26427   */\n    tag_485:\n        /* \"#utility.yul\":25985:25987   */\n      0x1f\n        /* \"#utility.yul\":25980:25983   */\n      dup3\n        /* \"#utility.yul\":25977:25988   */\n      gt\n        /* \"#utility.yul\":25974:26420   */\n      iszero\n      tag_739\n      jumpi\n        /* \"#utility.yul\":26019:26057   */\n      tag_740\n        /* \"#utility.yul\":26051:26056   */\n      dup2\n        /* \"#utility.yul\":26019:26057   */\n      tag_474\n      jump\t// in\n    tag_740:\n        /* \"#utility.yul\":26103:26132   */\n      tag_741\n        /* \"#utility.yul\":26121:26131   */\n      dup5\n        /* \"#utility.yul\":26103:26132   */\n      tag_475\n      jump\t// in\n    tag_741:\n        /* \"#utility.yul\":26093:26101   */\n      dup2\n        /* \"#utility.yul\":26089:26133   */\n      add\n        /* \"#utility.yul\":26286:26288   */\n      0x20\n        /* \"#utility.yul\":26274:26284   */\n      dup6\n        /* \"#utility.yul\":26271:26289   */\n      lt\n        /* \"#utility.yul\":26268:26317   */\n      iszero\n      tag_742\n      jumpi\n        /* \"#utility.yul\":26307:26315   */\n      dup2\n        /* \"#utility.yul\":26292:26315   */\n      swap1\n      pop\n        /* \"#utility.yul\":26268:26317   */\n    tag_742:\n        /* \"#utility.yul\":26330:26410   */\n      tag_743\n        /* \"#utility.yul\":26386:26408   */\n      tag_744\n        /* \"#utility.yul\":26404:26407   */\n      dup6\n        /* \"#utility.yul\":26386:26408   */\n      tag_475\n      jump\t// in\n    tag_744:\n        /* \"#utility.yul\":26376:26384   */\n      dup4\n        /* \"#utility.yul\":26372:26409   */\n      add\n        /* \"#utility.yul\":26359:26370   */\n      dup3\n        /* \"#utility.yul\":26330:26410   */\n      tag_484\n      jump\t// in\n    tag_743:\n        /* \"#utility.yul\":25989:26420   */\n      pop\n      pop\n        /* \"#utility.yul\":25974:26420   */\n    tag_739:\n        /* \"#utility.yul\":25884:26427   */\n      pop\n      pop\n      pop\n      jump\t// out\n        /* \"#utility.yul\":26433:26550   */\n    tag_486:\n        /* \"#utility.yul\":26487:26495   */\n      0x00\n        /* \"#utility.yul\":26537:26542   */\n      dup3\n        /* \"#utility.yul\":26531:26535   */\n      dup3\n        /* \"#utility.yul\":26527:26543   */\n      shr\n        /* \"#utility.yul\":26506:26543   */\n      swap1\n      pop\n        /* \"#utility.yul\":26433:26550   */\n      swap3\n      swap2\n      pop\n      pop\n      jump\t// out\n        /* \"#utility.yul\":26556:26725   */\n    tag_487:\n        /* \"#utility.yul\":26600:26606   */\n      0x00\n        /* \"#utility.yul\":26633:26684   */\n      tag_747\n        /* \"#utility.yul\":26681:26682   */\n      0x00\n        /* \"#utility.yul\":26677:26683   */\n      not\n        /* \"#utility.yul\":26669:26674   */\n      dup5\n        /* \"#utility.yul\":26666:26667   */\n      0x08\n        /* \"#utility.yul\":26662:26675   */\n      mul\n        /* \"#utility.yul\":26633:26684   */\n      tag_486\n      jump\t// in\n    tag_747:\n        /* \"#utility.yul\":26629:26685   */\n      not\n        /* \"#utility.yul\":26714:26718   */\n      dup1\n        /* \"#utility.yul\":26708:26712   */\n      dup4\n        /* \"#utility.yul\":26704:26719   */\n      and\n        /* \"#utility.yul\":26694:26719   */\n      swap2\n      pop\n        /* \"#utility.yul\":26607:26725   */\n      pop\n        /* \"#utility.yul\":26556:26725   */\n      swap3\n      swap2\n      pop\n      pop\n      jump\t// out\n        /* \"#utility.yul\":26730:27025   */\n    tag_488:\n        /* \"#utility.yul\":26806:26810   */\n      0x00\n        /* \"#utility.yul\":26952:26981   */\n      tag_749\n        /* \"#utility.yul\":26977:26980   */\n      dup4\n        /* \"#utility.yul\":26971:26975   */\n      dup4\n        /* \"#utility.yul\":26952:26981   */\n      tag_487\n      jump\t// in\n    tag_749:\n        /* \"#utility.yul\":26944:26981   */\n      swap2\n      pop\n        /* \"#utility.yul\":27014:27017   */\n      dup3\n        /* \"#utility.yul\":27011:27012   */\n      0x02\n        /* \"#utility.yul\":27007:27018   */\n      mul\n        /* \"#utility.yul\":27001:27005   */\n      dup3\n        /* \"#utility.yul\":26998:27019   */\n      or\n        /* \"#utility.yul\":26990:27019   */\n      swap1\n      pop\n        /* \"#utility.yul\":26730:27025   */\n      swap3\n      swap2\n      pop\n      pop\n      jump\t// out\n        /* \"#utility.yul\":27030:28425   */\n    tag_109:\n        /* \"#utility.yul\":27147:27184   */\n      tag_751\n        /* \"#utility.yul\":27180:27183   */\n      dup3\n        /* \"#utility.yul\":27147:27184   */\n      tag_448\n      jump\t// in\n    tag_751:\n        /* \"#utility.yul\":27249:27267   */\n      0xffffffffffffffff\n        /* \"#utility.yul\":27241:27247   */\n      dup2\n        /* \"#utility.yul\":27238:27268   */\n      gt\n        /* \"#utility.yul\":27235:27291   */\n      iszero\n      tag_752\n      jumpi\n        /* \"#utility.yul\":27271:27289   */\n      tag_753\n      tag_441\n      jump\t// in\n    tag_753:\n        /* \"#utility.yul\":27235:27291   */\n    tag_752:\n        /* \"#utility.yul\":27315:27353   */\n      tag_754\n        /* \"#utility.yul\":27347:27351   */\n      dup3\n        /* \"#utility.yul\":27341:27352   */\n      sload\n        /* \"#utility.yul\":27315:27353   */\n      tag_124\n      jump\t// in\n    tag_754:\n        /* \"#utility.yul\":27400:27467   */\n      tag_755\n        /* \"#utility.yul\":27460:27466   */\n      dup3\n        /* \"#utility.yul\":27452:27458   */\n      dup3\n        /* \"#utility.yul\":27446:27450   */\n      dup6\n        /* \"#utility.yul\":27400:27467   */\n      tag_485\n      jump\t// in\n    tag_755:\n        /* \"#utility.yul\":27494:27495   */\n      0x00\n        /* \"#utility.yul\":27518:27522   */\n      0x20\n        /* \"#utility.yul\":27505:27522   */\n      swap1\n      pop\n        /* \"#utility.yul\":27550:27552   */\n      0x1f\n        /* \"#utility.yul\":27542:27548   */\n      dup4\n        /* \"#utility.yul\":27539:27553   */\n      gt\n        /* \"#utility.yul\":27567:27568   */\n      0x01\n        /* \"#utility.yul\":27562:28180   */\n      dup2\n      eq\n      tag_757\n      jumpi\n        /* \"#utility.yul\":28224:28225   */\n      0x00\n        /* \"#utility.yul\":28241:28247   */\n      dup5\n        /* \"#utility.yul\":28238:28315   */\n      iszero\n      tag_758\n      jumpi\n        /* \"#utility.yul\":28290:28299   */\n      dup3\n        /* \"#utility.yul\":28285:28288   */\n      dup8\n        /* \"#utility.yul\":28281:28300   */\n      add\n        /* \"#utility.yul\":28275:28301   */\n      mload\n        /* \"#utility.yul\":28266:28301   */\n      swap1\n      pop\n        /* \"#utility.yul\":28238:28315   */\n    tag_758:\n        /* \"#utility.yul\":28341:28408   */\n      tag_759\n        /* \"#utility.yul\":28401:28407   */\n      dup6\n        /* \"#utility.yul\":28394:28399   */\n      dup3\n        /* \"#utility.yul\":28341:28408   */\n      tag_488\n      jump\t// in\n    tag_759:\n        /* \"#utility.yul\":28335:28339   */\n      dup7\n        /* \"#utility.yul\":28328:28409   */\n      sstore\n        /* \"#utility.yul\":28197:28419   */\n      pop\n        /* \"#utility.yul\":27532:28419   */\n      jump(tag_756)\n        /* \"#utility.yul\":27562:28180   */\n    tag_757:\n        /* \"#utility.yul\":27614:27618   */\n      0x1f\n        /* \"#utility.yul\":27610:27619   */\n      not\n        /* \"#utility.yul\":27602:27608   */\n      dup5\n        /* \"#utility.yul\":27598:27620   */\n      and\n        /* \"#utility.yul\":27648:27685   */\n      tag_760\n        /* \"#utility.yul\":27680:27684   */\n      dup7\n        /* \"#utility.yul\":27648:27685   */\n      tag_474\n      jump\t// in\n    tag_760:\n        /* \"#utility.yul\":27707:27708   */\n      0x00\n        /* \"#utility.yul\":27721:27929   */\n    tag_761:\n        /* \"#utility.yul\":27735:27742   */\n      dup3\n        /* \"#utility.yul\":27732:27733   */\n      dup2\n        /* \"#utility.yul\":27729:27743   */\n      lt\n        /* \"#utility.yul\":27721:27929   */\n      iszero\n      tag_763\n      jumpi\n        /* \"#utility.yul\":27814:27823   */\n      dup5\n        /* \"#utility.yul\":27809:27812   */\n      dup10\n        /* \"#utility.yul\":27805:27824   */\n      add\n        /* \"#utility.yul\":27799:27825   */\n      mload\n        /* \"#utility.yul\":27791:27797   */\n      dup3\n        /* \"#utility.yul\":27784:27826   */\n      sstore\n        /* \"#utility.yul\":27865:27866   */\n      0x01\n        /* \"#utility.yul\":27857:27863   */\n      dup3\n        /* \"#utility.yul\":27853:27867   */\n      add\n        /* \"#utility.yul\":27843:27867   */\n      swap2\n      pop\n        /* \"#utility.yul\":27912:27914   */\n      0x20\n        /* \"#utility.yul\":27901:27910   */\n      dup6\n        /* \"#utility.yul\":27897:27915   */\n      add\n        /* \"#utility.yul\":27884:27915   */\n      swap5\n      pop\n        /* \"#utility.yul\":27758:27762   */\n      0x20\n        /* \"#utility.yul\":27755:27756   */\n      dup2\n        /* \"#utility.yul\":27751:27763   */\n      add\n        /* \"#utility.yul\":27746:27763   */\n      swap1\n      pop\n        /* \"#utility.yul\":27721:27929   */\n      jump(tag_761)\n    tag_763:\n        /* \"#utility.yul\":27957:27963   */\n      dup7\n        /* \"#utility.yul\":27948:27955   */\n      dup4\n        /* \"#utility.yul\":27945:27964   */\n      lt\n        /* \"#utility.yul\":27942:28121   */\n      iszero\n      tag_764\n      jumpi\n        /* \"#utility.yul\":28015:28024   */\n      dup5\n        /* \"#utility.yul\":28010:28013   */\n      dup10\n        /* \"#utility.yul\":28006:28025   */\n      add\n        /* \"#utility.yul\":28000:28026   */\n      mload\n        /* \"#utility.yul\":28058:28106   */\n      tag_765\n        /* \"#utility.yul\":28100:28104   */\n      0x1f\n        /* \"#utility.yul\":28092:28098   */\n      dup10\n        /* \"#utility.yul\":28088:28105   */\n      and\n        /* \"#utility.yul\":28077:28086   */\n      dup3\n        /* \"#utility.yul\":28058:28106   */\n      tag_487\n      jump\t// in\n    tag_765:\n        /* \"#utility.yul\":28050:28056   */\n      dup4\n        /* \"#utility.yul\":28043:28107   */\n      sstore\n        /* \"#utility.yul\":27965:28121   */\n      pop\n        /* \"#utility.yul\":27942:28121   */\n    tag_764:\n        /* \"#utility.yul\":28167:28168   */\n      0x01\n        /* \"#utility.yul\":28163:28164   */\n      0x02\n        /* \"#utility.yul\":28155:28161   */\n      dup9\n        /* \"#utility.yul\":28151:28165   */\n      mul\n        /* \"#utility.yul\":28147:28169   */\n      add\n        /* \"#utility.yul\":28141:28145   */\n      dup9\n        /* \"#utility.yul\":28134:28170   */\n      sstore\n        /* \"#utility.yul\":27569:28180   */\n      pop\n      pop\n      pop\n        /* \"#utility.yul\":27532:28419   */\n    tag_756:\n      pop\n        /* \"#utility.yul\":27122:28425   */\n      pop\n      pop\n      pop\n        /* \"#utility.yul\":27030:28425   */\n      pop\n      pop\n      jump\t// out\n        /* \"#utility.yul\":28431:28611   */\n    tag_235:\n        /* \"#utility.yul\":28479:28556   */\n      0x4e487b7100000000000000000000000000000000000000000000000000000000\n        /* \"#utility.yul\":28476:28477   */\n      0x00\n        /* \"#utility.yul\":28469:28557   */\n      mstore\n        /* \"#utility.yul\":28576:28580   */\n      0x32\n        /* \"#utility.yul\":28573:28574   */\n      0x04\n        /* \"#utility.yul\":28566:28581   */\n      mstore\n        /* \"#utility.yul\":28600:28604   */\n      0x24\n        /* \"#utility.yul\":28597:28598   */\n      0x00\n        /* \"#utility.yul\":28590:28605   */\n      revert\n        /* \"#utility.yul\":28617:28797   */\n    tag_489:\n        /* \"#utility.yul\":28665:28742   */\n      0x4e487b7100000000000000000000000000000000000000000000000000000000\n        /* \"#utility.yul\":28662:28663   */\n      0x00\n        /* \"#utility.yul\":28655:28743   */\n      mstore\n        /* \"#utility.yul\":28762:28766   */\n      0x11\n        /* \"#utility.yul\":28759:28760   */\n      0x04\n        /* \"#utility.yul\":28752:28767   */\n      mstore\n        /* \"#utility.yul\":28786:28790   */\n      0x24\n        /* \"#utility.yul\":28783:28784   */\n      0x00\n        /* \"#utility.yul\":28776:28791   */\n      revert\n        /* \"#utility.yul\":28803:29036   */\n    tag_244:\n        /* \"#utility.yul\":28842:28845   */\n      0x00\n        /* \"#utility.yul\":28865:28889   */\n      tag_769\n        /* \"#utility.yul\":28883:28888   */\n      dup3\n        /* \"#utility.yul\":28865:28889   */\n      tag_427\n      jump\t// in\n    tag_769:\n        /* \"#utility.yul\":28856:28889   */\n      swap2\n      pop\n        /* \"#utility.yul\":28911:28977   */\n      0xffffffffffffffffffffffffffffffffffffffffffffffffffffffffffffffff\n        /* \"#utility.yul\":28904:28909   */\n      dup3\n        /* \"#utility.yul\":28901:28978   */\n      sub\n        /* \"#utility.yul\":28898:29001   */\n      tag_770\n      jumpi\n        /* \"#utility.yul\":28981:28999   */\n      tag_771\n      tag_489\n      jump\t// in\n    tag_771:\n        /* \"#utility.yul\":28898:29001   */\n    tag_770:\n        /* \"#utility.yul\":29028:29029   */\n      0x01\n        /* \"#utility.yul\":29021:29026   */\n      dup3\n        /* \"#utility.yul\":29017:29030   */\n      add\n        /* \"#utility.yul\":29010:29030   */\n      swap1\n      pop\n        /* \"#utility.yul\":28803:29036   */\n      swap2\n      swap1\n      pop\n      jump\t// out\n        /* \"#utility.yul\":29042:29156   */\n    tag_490:\n      pop\n      jump\t// out\n        /* \"#utility.yul\":29162:29562   */\n    tag_491:\n        /* \"#utility.yul\":29322:29325   */\n      0x00\n        /* \"#utility.yul\":29343:29427   */\n      tag_774\n        /* \"#utility.yul\":29425:29426   */\n      0x00\n        /* \"#utility.yul\":29420:29423   */\n      dup4\n        /* \"#utility.yul\":29343:29427   */\n      tag_471\n      jump\t// in\n    tag_774:\n        /* \"#utility.yul\":29336:29427   */\n      swap2\n      pop\n        /* \"#utility.yul\":29436:29529   */\n      tag_775\n        /* \"#utility.yul\":29525:29528   */\n      dup3\n        /* \"#utility.yul\":29436:29529   */\n      tag_490\n      jump\t// in\n    tag_775:\n        /* \"#utility.yul\":29554:29555   */\n      0x00\n        /* \"#utility.yul\":29549:29552   */\n      dup3\n        /* \"#utility.yul\":29545:29556   */\n      add\n        /* \"#utility.yul\":29538:29556   */\n      swap1\n      pop\n        /* \"#utility.yul\":29162:29562   */\n      swap2\n      swap1\n      pop\n      jump\t// out\n        /* \"#utility.yul\":29568:29949   */\n    tag_349:\n        /* \"#utility.yul\":29753:29756   */\n      0x00\n        /* \"#utility.yul\":29775:29923   */\n      tag_777\n        /* \"#utility.yul\":29919:29922   */\n      dup3\n        /* \"#utility.yul\":29775:29923   */\n      tag_491\n      jump\t// in\n    tag_777:\n        /* \"#utility.yul\":29768:29923   */\n      swap2\n      pop\n        /* \"#utility.yul\":29940:29943   */\n      dup2\n        /* \"#utility.yul\":29933:29943   */\n      swap1\n      pop\n        /* \"#utility.yul\":29568:29949   */\n      swap2\n      swap1\n      pop\n      jump\t// out\n        /* \"#utility.yul\":29979:30853   */\n    tag_492:\n        /* \"#utility.yul\":30082:30085   */\n      0x00\n        /* \"#utility.yul\":30119:30124   */\n      dup2\n        /* \"#utility.yul\":30113:30125   */\n      sload\n        /* \"#utility.yul\":30148:30184   */\n      tag_779\n        /* \"#utility.yul\":30174:30183   */\n      dup2\n        /* \"#utility.yul\":30148:30184   */\n      tag_124\n      jump\t// in\n    tag_779:\n        /* \"#utility.yul\":30200:30289   */\n      tag_780\n        /* \"#utility.yul\":30282:30288   */\n      dup2\n        /* \"#utility.yul\":30277:30280   */\n      dup7\n        /* \"#utility.yul\":30200:30289   */\n      tag_471\n      jump\t// in\n    tag_780:\n        /* \"#utility.yul\":30193:30289   */\n      swap5\n      pop\n        /* \"#utility.yul\":30320:30321   */\n      0x01\n        /* \"#utility.yul\":30309:30318   */\n      dup3\n        /* \"#utility.yul\":30305:30322   */\n      and\n        /* \"#utility.yul\":30336:30337   */\n      0x00\n        /* \"#utility.yul\":30331:30497   */\n      dup2\n      eq\n      tag_782\n      jumpi\n        /* \"#utility.yul\":30511:30512   */\n      0x01\n        /* \"#utility.yul\":30506:30847   */\n      dup2\n      eq\n      tag_783\n      jumpi\n        /* \"#utility.yul\":30298:30847   */\n      jump(tag_781)\n        /* \"#utility.yul\":30331:30497   */\n    tag_782:\n        /* \"#utility.yul\":30415:30419   */\n      0xff\n        /* \"#utility.yul\":30411:30420   */\n      not\n        /* \"#utility.yul\":30400:30409   */\n      dup4\n        /* \"#utility.yul\":30396:30421   */\n      and\n        /* \"#utility.yul\":30391:30394   */\n      dup7\n        /* \"#utility.yul\":30384:30422   */\n      mstore\n        /* \"#utility.yul\":30477:30483   */\n      dup2\n        /* \"#utility.yul\":30470:30484   */\n      iszero\n        /* \"#utility.yul\":30463:30485   */\n      iszero\n        /* \"#utility.yul\":30455:30461   */\n      dup3\n        /* \"#utility.yul\":30451:30486   */\n      mul\n        /* \"#utility.yul\":30446:30449   */\n      dup7\n        /* \"#utility.yul\":30442:30487   */\n      add\n        /* \"#utility.yul\":30435:30487   */\n      swap4\n      pop\n        /* \"#utility.yul\":30331:30497   */\n      jump(tag_781)\n        /* \"#utility.yul\":30506:30847   */\n    tag_783:\n        /* \"#utility.yul\":30573:30611   */\n      tag_784\n        /* \"#utility.yul\":30605:30610   */\n      dup6\n        /* \"#utility.yul\":30573:30611   */\n      tag_474\n      jump\t// in\n    tag_784:\n        /* \"#utility.yul\":30633:30634   */\n      0x00\n        /* \"#utility.yul\":30647:30801   */\n    tag_785:\n        /* \"#utility.yul\":30661:30667   */\n      dup4\n        /* \"#utility.yul\":30658:30659   */\n      dup2\n        /* \"#utility.yul\":30655:30668   */\n      lt\n        /* \"#utility.yul\":30647:30801   */\n      iszero\n      tag_787\n      jumpi\n        /* \"#utility.yul\":30735:30742   */\n      dup2\n        /* \"#utility.yul\":30729:30743   */\n      sload\n        /* \"#utility.yul\":30725:30726   */\n      dup2\n        /* \"#utility.yul\":30720:30723   */\n      dup10\n        /* \"#utility.yul\":30716:30727   */\n      add\n        /* \"#utility.yul\":30709:30744   */\n      mstore\n        /* \"#utility.yul\":30785:30786   */\n      0x01\n        /* \"#utility.yul\":30776:30783   */\n      dup3\n        /* \"#utility.yul\":30772:30787   */\n      add\n        /* \"#utility.yul\":30761:30787   */\n      swap2\n      pop\n        /* \"#utility.yul\":30683:30687   */\n      0x20\n        /* \"#utility.yul\":30680:30681   */\n      dup2\n        /* \"#utility.yul\":30676:30688   */\n      add\n        /* \"#utility.yul\":30671:30688   */\n      swap1\n      pop\n        /* \"#utility.yul\":30647:30801   */\n      jump(tag_785)\n    tag_787:\n        /* \"#utility.yul\":30830:30836   */\n      dup4\n        /* \"#utility.yul\":30825:30828   */\n      dup9\n        /* \"#utility.yul\":30821:30837   */\n      add\n        /* \"#utility.yul\":30814:30837   */\n      swap6\n      pop\n        /* \"#utility.yul\":30513:30847   */\n      pop\n      pop\n        /* \"#utility.yul\":30298:30847   */\n    tag_781:\n      pop\n        /* \"#utility.yul\":30086:30853   */\n      pop\n      pop\n        /* \"#utility.yul\":29979:30853   */\n      swap3\n      swap2\n      pop\n      pop\n      jump\t// out\n        /* \"#utility.yul\":30859:31128   */\n    tag_352:\n        /* \"#utility.yul\":30988:30991   */\n      0x00\n        /* \"#utility.yul\":31010:31102   */\n      tag_789\n        /* \"#utility.yul\":31098:31101   */\n      dup3\n        /* \"#utility.yul\":31089:31095   */\n      dup5\n        /* \"#utility.yul\":31010:31102   */\n      tag_492\n      jump\t// in\n    tag_789:\n        /* \"#utility.yul\":31003:31102   */\n      swap2\n      pop\n        /* \"#utility.yul\":31119:31122   */\n      dup2\n        /* \"#utility.yul\":31112:31122   */\n      swap1\n      pop\n        /* \"#utility.yul\":30859:31128   */\n      swap3\n      swap2\n      pop\n      pop\n      jump\t// out\n\n    auxdata: 0xa2646970667358221220a8acfb8b3336b91c8fb03869eba0154a651c7ff3404f1ce44c1c82110a21e5eb64736f6c63430008120033\n}\n",
				"bytecode": {
					"linkReferences": {},
					"object": "60806040526000600155600060025534801561001a57600080fd5b50336000806101000a81548173ffffffffffffffffffffffffffffffffffffffff021916908373ffffffffffffffffffffffffffffffffffffffff1602179055506136d48061006a6000396000f3fe608060405234801561001057600080fd5b50600436106101165760003560e01c80636bd562f3116100a2578063bed34bba11610071578063bed34bba146102f3578063c77cfeeb14610323578063d430e05a14610353578063f70e1c5e14610383578063fe1823af146103b357610116565b80636bd562f31461026b5780637198ed1a14610287578063893d20e8146102b7578063bb29e2a5146102d557610116565b8063379f8fc2116100e9578063379f8fc2146101a15780633f70c2b4146101d157806351f40dd61461020157806363c60bd51461023157806363fbe5b31461024d57610116565b806302ee3a521461011b578063067c2d6114610139578063081396eb1461016957806315c19c1d14610185575b600080fd5b6101236103e3565b60405161013091906127ca565b60405180910390f35b610153600480360381019061014e919061282c565b61043b565b6040516101609190612868565b60405180910390f35b610183600480360381019061017e91906129c9565b61045f565b005b61019f600480360381019061019a91906129c9565b6104be565b005b6101bb60048036038101906101b69190612a41565b610561565b6040516101c89190612d00565b60405180910390f35b6101eb60048036038101906101e6919061282c565b610930565b6040516101f89190612e0a565b60405180910390f35b61021b60048036038101906102169190612f12565b610ce8565b6040516102289190612d00565b60405180910390f35b61024b60048036038101906102469190612f8a565b6111ef565b005b6102556112f7565b6040516102629190612868565b60405180910390f35b61028560048036038101906102809190613002565b6112fd565b005b6102a1600480360381019061029c9190612a41565b611491565b6040516102ae9190612d00565b60405180910390f35b6102bf61190c565b6040516102cc91906131a1565b60405180910390f35b6102dd611935565b6040516102ea9190612868565b60405180910390f35b61030d600480360381019061030891906129c9565b61193b565b60405161031a91906131d7565b60405180910390f35b61033d60048036038101906103389190612a41565b611a09565b60405161034a9190612d00565b60405180910390f35b61036d600480360381019061036891906129c9565b611e84565b60405161037a91906131d7565b60405180910390f35b61039d60048036038101906103989190612a41565b6120b3565b6040516103aa9190612d00565b60405180910390f35b6103cd60048036038101906103c8919061282c565b61252e565b6040516103da9190612868565b60405180910390f35b6060600380548060200260200160405190810160405280929190818152602001828054801561043157602002820191906000526020600020905b81548152602001906001019080831161041d575b5050505050905090565b6004818154811061044b57600080fd5b906000526020600020016000915090505481565b80600c83604051610470919061322e565b9081526020016040518091039020908161048a9190613451565b508160068260405161049c919061322e565b908152602001604051809103902060020190816104b99190613451565b505050565b6104fd826040518060400160405280600881526020017f7573657257434944000000000000000000000000000000000000000000000000815250611e84565b61055d5780600a83604051610512919061322e565b9081526020016040518091039020908161052c9190613451565b508160068260405161053e919061322e565b9081526020016040518091039020600101908161055b9190613451565b505b5050565b610569612552565b600682604051610579919061322e565b90815260200160405180910390206040518060e00160405290816000820180546105a290613274565b80601f01602080910402602001604051908101604052809291908181526020018280546105ce90613274565b801561061b5780601f106105f05761010080835404028352916020019161061b565b820191906000526020600020905b8154815290600101906020018083116105fe57829003601f168201915b5050505050815260200160018201805461063490613274565b80601f016020809104026020016040519081016040528092919081815260200182805461066090613274565b80156106ad5780601f10610682576101008083540402835291602001916106ad565b820191906000526020600020905b81548152906001019060200180831161069057829003601f168201915b505050505081526020016002820180546106c690613274565b80601f01602080910402602001604051908101604052809291908181526020018280546106f290613274565b801561073f5780601f106107145761010080835404028352916020019161073f565b820191906000526020600020905b81548152906001019060200180831161072257829003601f168201915b5050505050815260200160038201805480602002602001604051908101604052809291908181526020016000905b8282101561081957838290600052602060002001805461078c90613274565b80601f01602080910402602001604051908101604052809291908181526020018280546107b890613274565b80156108055780601f106107da57610100808354040283529160200191610805565b820191906000526020600020905b8154815290600101906020018083116107e857829003601f168201915b50505050508152602001906001019061076d565b5050505081526020016004820180548060200260200160405190810160405280929190818152602001828054801561087057602002820191906000526020600020905b81548152602001906001019080831161085c575b50505050508152602001600582018054806020026020016040519081016040528092919081815260200182805480156108c857602002820191906000526020600020905b8154815260200190600101908083116108b4575b505050505081526020016006820180548060200260200160405190810160405280929190818152602001828054801561092057602002820191906000526020600020905b81548152602001906001019080831161090c575b5050505050815250509050919050565b61093861258f565b60056000838152602001908152602001600020604051806101200160405290816000820154815260200160018201805461097190613274565b80601f016020809104026020016040519081016040528092919081815260200182805461099d90613274565b80156109ea5780601f106109bf576101008083540402835291602001916109ea565b820191906000526020600020905b8154815290600101906020018083116109cd57829003601f168201915b50505050508152602001600282018054610a0390613274565b80601f0160208091040260200160405190810160405280929190818152602001828054610a2f90613274565b8015610a7c5780601f10610a5157610100808354040283529160200191610a7c565b820191906000526020600020905b815481529060010190602001808311610a5f57829003601f168201915b50505050508152602001600382018054610a9590613274565b80601f0160208091040260200160405190810160405280929190818152602001828054610ac190613274565b8015610b0e5780601f10610ae357610100808354040283529160200191610b0e565b820191906000526020600020905b815481529060010190602001808311610af157829003601f168201915b50505050508152602001600482018054610b2790613274565b80601f0160208091040260200160405190810160405280929190818152602001828054610b5390613274565b8015610ba05780601f10610b7557610100808354040283529160200191610ba0565b820191906000526020600020905b815481529060010190602001808311610b8357829003601f168201915b50505050508152602001600582018054610bb990613274565b80601f0160208091040260200160405190810160405280929190818152602001828054610be590613274565b8015610c325780601f10610c0757610100808354040283529160200191610c32565b820191906000526020600020905b815481529060010190602001808311610c1557829003601f168201915b505050505081526020016006820154815260200160078201548152602001600882018054610c5f90613274565b80601f0160208091040260200160405190810160405280929190818152602001828054610c8b90613274565b8015610cd85780601f10610cad57610100808354040283529160200191610cd8565b820191906000526020600020905b815481529060010190602001808311610cbb57829003601f168201915b5050505050815250509050919050565b610cf0612552565b6060806040518060e0016040528086815260200160405180602001604052806000815250815260200160405180602001604052806000815250815260200185815260200183815260200182815260200182815250600686604051610d54919061322e565b90815260200160405180910390206000820151816000019081610d779190613451565b506020820151816001019081610d8d9190613451565b506040820151816002019081610da39190613451565b506060820151816003019080519060200190610dc09291906125db565b506080820151816004019080519060200190610ddd929190612634565b5060a0820151816005019080519060200190610dfa929190612634565b5060c0820151816006019080519060200190610e17929190612634565b50905050610e2584866111ef565b600685604051610e35919061322e565b90815260200160405180910390206040518060e0016040529081600082018054610e5e90613274565b80601f0160208091040260200160405190810160405280929190818152602001828054610e8a90613274565b8015610ed75780601f10610eac57610100808354040283529160200191610ed7565b820191906000526020600020905b815481529060010190602001808311610eba57829003601f168201915b50505050508152602001600182018054610ef090613274565b80601f0160208091040260200160405190810160405280929190818152602001828054610f1c90613274565b8015610f695780601f10610f3e57610100808354040283529160200191610f69565b820191906000526020600020905b815481529060010190602001808311610f4c57829003601f168201915b50505050508152602001600282018054610f8290613274565b80601f0160208091040260200160405190810160405280929190818152602001828054610fae90613274565b8015610ffb5780601f10610fd057610100808354040283529160200191610ffb565b820191906000526020600020905b815481529060010190602001808311610fde57829003601f168201915b5050505050815260200160038201805480602002602001604051908101604052809291908181526020016000905b828210156110d557838290600052602060002001805461104890613274565b80601f016020809104026020016040519081016040528092919081815260200182805461107490613274565b80156110c15780601f10611096576101008083540402835291602001916110c1565b820191906000526020600020905b8154815290600101906020018083116110a457829003601f168201915b505050505081526020019060010190611029565b5050505081526020016004820180548060200260200160405190810160405280929190818152602001828054801561112c57602002820191906000526020600020905b815481526020019060010190808311611118575b505050505081526020016005820180548060200260200160405190810160405280929190818152602001828054801561118457602002820191906000526020600020905b815481526020019060010190808311611170575b50505050508152602001600682018054806020026020016040519081016040528092919081815260200182805480156111dc57602002820191906000526020600020905b8154815260200190600101908083116111c8575b5050505050815250509250505092915050565b60005b82518110156112f25760008382815181106112105761120f613523565b5b60200260200101519050611259816040518060400160405280600b81526020017f7573657257616c6c657473000000000000000000000000000000000000000000815250611e84565b6112de5782600b8260405161126e919061322e565b908152602001604051809103902090816112889190613451565b50600683604051611299919061322e565b9081526020016040518091039020600301819080600181540180825580915050600190039060005260206000200160009091909190915090816112dc9190613451565b505b5080806112ea90613581565b9150506111f2565b505050565b60015481565b6040518061012001604052806001548152602001898152602001888152602001878152602001868152602001858152602001848152602001838152602001828152506005600060015481526020019081526020016000206000820151816000015560208201518160010190816113739190613451565b5060408201518160020190816113899190613451565b50606082015181600301908161139f9190613451565b5060808201518160040190816113b59190613451565b5060a08201518160050190816113cb9190613451565b5060c0820151816006015560e082015181600701556101008201518160080190816113f69190613451565b5090505060068860405161140a919061322e565b90815260200160405180910390206004016001549080600181540180825580915050600190039060005260206000200160009091909190915055600360015490806001815401808255809150506001900390600052602060002001600090919091909150556001600081548092919061148290613581565b91905055505050505050505050565b611499612552565b6000600b836040516114ab919061322e565b908152602001604051809103902080546114c490613274565b80601f01602080910402602001604051908101604052809291908181526020018280546114f090613274565b801561153d5780601f106115125761010080835404028352916020019161153d565b820191906000526020600020905b81548152906001019060200180831161152057829003601f168201915b50505050509050600681604051611554919061322e565b90815260200160405180910390206040518060e001604052908160008201805461157d90613274565b80601f01602080910402602001604051908101604052809291908181526020018280546115a990613274565b80156115f65780601f106115cb576101008083540402835291602001916115f6565b820191906000526020600020905b8154815290600101906020018083116115d957829003601f168201915b5050505050815260200160018201805461160f90613274565b80601f016020809104026020016040519081016040528092919081815260200182805461163b90613274565b80156116885780601f1061165d57610100808354040283529160200191611688565b820191906000526020600020905b81548152906001019060200180831161166b57829003601f168201915b505050505081526020016002820180546116a190613274565b80601f01602080910402602001604051908101604052809291908181526020018280546116cd90613274565b801561171a5780601f106116ef5761010080835404028352916020019161171a565b820191906000526020600020905b8154815290600101906020018083116116fd57829003601f168201915b5050505050815260200160038201805480602002602001604051908101604052809291908181526020016000905b828210156117f457838290600052602060002001805461176790613274565b80601f016020809104026020016040519081016040528092919081815260200182805461179390613274565b80156117e05780601f106117b5576101008083540402835291602001916117e0565b820191906000526020600020905b8154815290600101906020018083116117c357829003601f168201915b505050505081526020019060010190611748565b5050505081526020016004820180548060200260200160405190810160405280929190818152602001828054801561184b57602002820191906000526020600020905b815481526020019060010190808311611837575b50505050508152602001600582018054806020026020016040519081016040528092919081815260200182805480156118a357602002820191906000526020600020905b81548152602001906001019080831161188f575b50505050508152602001600682018054806020026020016040519081016040528092919081815260200182805480156118fb57602002820191906000526020600020905b8154815260200190600101908083116118e7575b505050505081525050915050919050565b60008060009054906101000a900473ffffffffffffffffffffffffffffffffffffffff16905090565b60025481565b6000815183511461194f5760009050611a03565b60005b83518110156119fd5782818151811061196e5761196d613523565b5b602001015160f81c60f81b7effffffffffffffffffffffffffffffffffffffffffffffffffffffffffffff19168482815181106119ae576119ad613523565b5b602001015160f81c60f81b7effffffffffffffffffffffffffffffffffffffffffffffffffffffffffffff1916146119ea576000915050611a03565b80806119f590613581565b915050611952565b50600190505b92915050565b611a11612552565b6000600c83604051611a23919061322e565b90815260200160405180910390208054611a3c90613274565b80601f0160208091040260200160405190810160405280929190818152602001828054611a6890613274565b8015611ab55780601f10611a8a57610100808354040283529160200191611ab5565b820191906000526020600020905b815481529060010190602001808311611a9857829003601f168201915b50505050509050600681604051611acc919061322e565b90815260200160405180910390206040518060e0016040529081600082018054611af590613274565b80601f0160208091040260200160405190810160405280929190818152602001828054611b2190613274565b8015611b6e5780601f10611b4357610100808354040283529160200191611b6e565b820191906000526020600020905b815481529060010190602001808311611b5157829003601f168201915b50505050508152602001600182018054611b8790613274565b80601f0160208091040260200160405190810160405280929190818152602001828054611bb390613274565b8015611c005780601f10611bd557610100808354040283529160200191611c00565b820191906000526020600020905b815481529060010190602001808311611be357829003601f168201915b50505050508152602001600282018054611c1990613274565b80601f0160208091040260200160405190810160405280929190818152602001828054611c4590613274565b8015611c925780601f10611c6757610100808354040283529160200191611c92565b820191906000526020600020905b815481529060010190602001808311611c7557829003601f168201915b5050505050815260200160038201805480602002602001604051908101604052809291908181526020016000905b82821015611d6c578382906000526020600020018054611cdf90613274565b80601f0160208091040260200160405190810160405280929190818152602001828054611d0b90613274565b8015611d585780601f10611d2d57610100808354040283529160200191611d58565b820191906000526020600020905b815481529060010190602001808311611d3b57829003601f168201915b505050505081526020019060010190611cc0565b50505050815260200160048201805480602002602001604051908101604052809291908181526020018280548015611dc357602002820191906000526020600020905b815481526020019060010190808311611daf575b5050505050815260200160058201805480602002602001604051908101604052809291908181526020018280548015611e1b57602002820191906000526020600020905b815481526020019060010190808311611e07575b5050505050815260200160068201805480602002602001604051908101604052809291908181526020018280548015611e7357602002820191906000526020600020905b815481526020019060010190808311611e5f575b505050505081525050915050919050565b6000611ec5826040518060400160405280600b81526020017f7573657257616c6c65747300000000000000000000000000000000000000000081525061193b565b15611f3c57604051602001611ed9906135ef565b60405160208183030381529060405280519060200120600b84604051611eff919061322e565b9081526020016040518091039020604051602001611f1d9190613687565b60405160208183030381529060405280519060200120141590506120ad565b611f7b826040518060400160405280600881526020017f757365724c656e7300000000000000000000000000000000000000000000000081525061193b565b15611ff257604051602001611f8f906135ef565b60405160208183030381529060405280519060200120600c84604051611fb5919061322e565b9081526020016040518091039020604051602001611fd39190613687565b60405160208183030381529060405280519060200120141590506120ad565b612031826040518060400160405280600881526020017f757365725743494400000000000000000000000000000000000000000000000081525061193b565b156120a857604051602001612045906135ef565b60405160208183030381529060405280519060200120600a8460405161206b919061322e565b90815260200160405180910390206040516020016120899190613687565b60405160208183030381529060405280519060200120141590506120ad565b600090505b92915050565b6120bb612552565b6000600a836040516120cd919061322e565b908152602001604051809103902080546120e690613274565b80601f016020809104026020016040519081016040528092919081815260200182805461211290613274565b801561215f5780601f106121345761010080835404028352916020019161215f565b820191906000526020600020905b81548152906001019060200180831161214257829003601f168201915b50505050509050600681604051612176919061322e565b90815260200160405180910390206040518060e001604052908160008201805461219f90613274565b80601f01602080910402602001604051908101604052809291908181526020018280546121cb90613274565b80156122185780601f106121ed57610100808354040283529160200191612218565b820191906000526020600020905b8154815290600101906020018083116121fb57829003601f168201915b5050505050815260200160018201805461223190613274565b80601f016020809104026020016040519081016040528092919081815260200182805461225d90613274565b80156122aa5780601f1061227f576101008083540402835291602001916122aa565b820191906000526020600020905b81548152906001019060200180831161228d57829003601f168201915b505050505081526020016002820180546122c390613274565b80601f01602080910402602001604051908101604052809291908181526020018280546122ef90613274565b801561233c5780601f106123115761010080835404028352916020019161233c565b820191906000526020600020905b81548152906001019060200180831161231f57829003601f168201915b5050505050815260200160038201805480602002602001604051908101604052809291908181526020016000905b8282101561241657838290600052602060002001805461238990613274565b80601f01602080910402602001604051908101604052809291908181526020018280546123b590613274565b80156124025780601f106123d757610100808354040283529160200191612402565b820191906000526020600020905b8154815290600101906020018083116123e557829003601f168201915b50505050508152602001906001019061236a565b5050505081526020016004820180548060200260200160405190810160405280929190818152602001828054801561246d57602002820191906000526020600020905b815481526020019060010190808311612459575b50505050508152602001600582018054806020026020016040519081016040528092919081815260200182805480156124c557602002820191906000526020600020905b8154815260200190600101908083116124b1575b505050505081526020016006820180548060200260200160405190810160405280929190818152602001828054801561251d57602002820191906000526020600020905b815481526020019060010190808311612509575b505050505081525050915050919050565b6003818154811061253e57600080fd5b906000526020600020016000915090505481565b6040518060e00160405280606081526020016060815260200160608152602001606081526020016060815260200160608152602001606081525090565b6040518061012001604052806000815260200160608152602001606081526020016060815260200160608152602001606081526020016000815260200160008152602001606081525090565b828054828255906000526020600020908101928215612623579160200282015b828111156126225782518290816126129190613451565b50916020019190600101906125fb565b5b5090506126309190612681565b5090565b828054828255906000526020600020908101928215612670579160200282015b8281111561266f578251825591602001919060010190612654565b5b50905061267d91906126a5565b5090565b5b808211156126a1576000818161269891906126c2565b50600101612682565b5090565b5b808211156126be5760008160009055506001016126a6565b5090565b5080546126ce90613274565b6000825580601f106126e057506126ff565b601f0160209004906000526020600020908101906126fe91906126a5565b5b50565b600081519050919050565b600082825260208201905092915050565b6000819050602082019050919050565b6000819050919050565b6127418161272e565b82525050565b60006127538383612738565b60208301905092915050565b6000602082019050919050565b600061277782612702565b612781818561270d565b935061278c8361271e565b8060005b838110156127bd5781516127a48882612747565b97506127af8361275f565b925050600181019050612790565b5085935050505092915050565b600060208201905081810360008301526127e4818461276c565b905092915050565b6000604051905090565b600080fd5b600080fd5b6128098161272e565b811461281457600080fd5b50565b60008135905061282681612800565b92915050565b600060208284031215612842576128416127f6565b5b600061285084828501612817565b91505092915050565b6128628161272e565b82525050565b600060208201905061287d6000830184612859565b92915050565b600080fd5b600080fd5b6000601f19601f8301169050919050565b7f4e487b7100000000000000000000000000000000000000000000000000000000600052604160045260246000fd5b6128d68261288d565b810181811067ffffffffffffffff821117156128f5576128f461289e565b5b80604052505050565b60006129086127ec565b905061291482826128cd565b919050565b600067ffffffffffffffff8211156129345761293361289e565b5b61293d8261288d565b9050602081019050919050565b82818337600083830152505050565b600061296c61296784612919565b6128fe565b90508281526020810184848401111561298857612987612888565b5b61299384828561294a565b509392505050565b600082601f8301126129b0576129af612883565b5b81356129c0848260208601612959565b91505092915050565b600080604083850312156129e0576129df6127f6565b5b600083013567ffffffffffffffff8111156129fe576129fd6127fb565b5b612a0a8582860161299b565b925050602083013567ffffffffffffffff811115612a2b57612a2a6127fb565b5b612a378582860161299b565b9150509250929050565b600060208284031215612a5757612a566127f6565b5b600082013567ffffffffffffffff811115612a7557612a746127fb565b5b612a818482850161299b565b91505092915050565b600081519050919050565b600082825260208201905092915050565b60005b83811015612ac4578082015181840152602081019050612aa9565b60008484015250505050565b6000612adb82612a8a565b612ae58185612a95565b9350612af5818560208601612aa6565b612afe8161288d565b840191505092915050565b600081519050919050565b600082825260208201905092915050565b6000819050602082019050919050565b6000612b418383612ad0565b905092915050565b6000602082019050919050565b6000612b6182612b09565b612b6b8185612b14565b935083602082028501612b7d85612b25565b8060005b85811015612bb95784840389528151612b9a8582612b35565b9450612ba583612b49565b925060208a01995050600181019050612b81565b50829750879550505050505092915050565b600082825260208201905092915050565b6000612be782612702565b612bf18185612bcb565b9350612bfc8361271e565b8060005b83811015612c2d578151612c148882612747565b9750612c1f8361275f565b925050600181019050612c00565b5085935050505092915050565b600060e0830160008301518482036000860152612c578282612ad0565b91505060208301518482036020860152612c718282612ad0565b91505060408301518482036040860152612c8b8282612ad0565b91505060608301518482036060860152612ca58282612b56565b91505060808301518482036080860152612cbf8282612bdc565b91505060a083015184820360a0860152612cd98282612bdc565b91505060c083015184820360c0860152612cf38282612bdc565b9150508091505092915050565b60006020820190508181036000830152612d1a8184612c3a565b905092915050565b600061012083016000830151612d3b6000860182612738565b5060208301518482036020860152612d538282612ad0565b91505060408301518482036040860152612d6d8282612ad0565b91505060608301518482036060860152612d878282612ad0565b91505060808301518482036080860152612da18282612ad0565b91505060a083015184820360a0860152612dbb8282612ad0565b91505060c0830151612dd060c0860182612738565b5060e0830151612de360e0860182612738565b50610100830151848203610100860152612dfd8282612ad0565b9150508091505092915050565b60006020820190508181036000830152612e248184612d22565b905092915050565b600067ffffffffffffffff821115612e4757612e4661289e565b5b602082029050602081019050919050565b600080fd5b6000612e70612e6b84612e2c565b6128fe565b90508083825260208201905060208402830185811115612e9357612e92612e58565b5b835b81811015612eda57803567ffffffffffffffff811115612eb857612eb7612883565b5b808601612ec5898261299b565b85526020850194505050602081019050612e95565b5050509392505050565b600082601f830112612ef957612ef8612883565b5b8135612f09848260208601612e5d565b91505092915050565b60008060408385031215612f2957612f286127f6565b5b600083013567ffffffffffffffff811115612f4757612f466127fb565b5b612f538582860161299b565b925050602083013567ffffffffffffffff811115612f7457612f736127fb565b5b612f8085828601612ee4565b9150509250929050565b60008060408385031215612fa157612fa06127f6565b5b600083013567ffffffffffffffff811115612fbf57612fbe6127fb565b5b612fcb85828601612ee4565b925050602083013567ffffffffffffffff811115612fec57612feb6127fb565b5b612ff88582860161299b565b9150509250929050565b600080600080600080600080610100898b031215613023576130226127f6565b5b600089013567ffffffffffffffff811115613041576130406127fb565b5b61304d8b828c0161299b565b985050602089013567ffffffffffffffff81111561306e5761306d6127fb565b5b61307a8b828c0161299b565b975050604089013567ffffffffffffffff81111561309b5761309a6127fb565b5b6130a78b828c0161299b565b965050606089013567ffffffffffffffff8111156130c8576130c76127fb565b5b6130d48b828c0161299b565b955050608089013567ffffffffffffffff8111156130f5576130f46127fb565b5b6131018b828c0161299b565b94505060a06131128b828c01612817565b93505060c06131238b828c01612817565b92505060e089013567ffffffffffffffff811115613144576131436127fb565b5b6131508b828c0161299b565b9150509295985092959890939650565b600073ffffffffffffffffffffffffffffffffffffffff82169050919050565b600061318b82613160565b9050919050565b61319b81613180565b82525050565b60006020820190506131b66000830184613192565b92915050565b60008115159050919050565b6131d1816131bc565b82525050565b60006020820190506131ec60008301846131c8565b92915050565b600081905092915050565b600061320882612a8a565b61321281856131f2565b9350613222818560208601612aa6565b80840191505092915050565b600061323a82846131fd565b915081905092915050565b7f4e487b7100000000000000000000000000000000000000000000000000000000600052602260045260246000fd5b6000600282049050600182168061328c57607f821691505b60208210810361329f5761329e613245565b5b50919050565b60008190508160005260206000209050919050565b60006020601f8301049050919050565b600082821b905092915050565b6000600883026133077fffffffffffffffffffffffffffffffffffffffffffffffffffffffffffffffff826132ca565b61331186836132ca565b95508019841693508086168417925050509392505050565b6000819050919050565b600061334e6133496133448461272e565b613329565b61272e565b9050919050565b6000819050919050565b61336883613333565b61337c61337482613355565b8484546132d7565b825550505050565b600090565b613391613384565b61339c81848461335f565b505050565b5b818110156133c0576133b5600082613389565b6001810190506133a2565b5050565b601f821115613405576133d6816132a5565b6133df846132ba565b810160208510156133ee578190505b6134026133fa856132ba565b8301826133a1565b50505b505050565b600082821c905092915050565b60006134286000198460080261340a565b1980831691505092915050565b60006134418383613417565b9150826002028217905092915050565b61345a82612a8a565b67ffffffffffffffff8111156134735761347261289e565b5b61347d8254613274565b6134888282856133c4565b600060209050601f8311600181146134bb57600084156134a9578287015190505b6134b38582613435565b86555061351b565b601f1984166134c9866132a5565b60005b828110156134f1578489015182556001820191506020850194506020810190506134cc565b8683101561350e578489015161350a601f891682613417565b8355505b6001600288020188555050505b505050505050565b7f4e487b7100000000000000000000000000000000000000000000000000000000600052603260045260246000fd5b7f4e487b7100000000000000000000000000000000000000000000000000000000600052601160045260246000fd5b600061358c8261272e565b91507fffffffffffffffffffffffffffffffffffffffffffffffffffffffffffffffff82036135be576135bd613552565b5b600182019050919050565b50565b60006135d96000836131f2565b91506135e4826135c9565b600082019050919050565b60006135fa826135cc565b9150819050919050565b6000815461361181613274565b61361b81866131f2565b94506001821660008114613636576001811461364b5761367e565b60ff198316865281151582028601935061367e565b613654856132a5565b60005b8381101561367657815481890152600182019150602081019050613657565b838801955050505b50505092915050565b60006136938284613604565b91508190509291505056fea2646970667358221220a8acfb8b3336b91c8fb03869eba0154a651c7ff3404f1ce44c1c82110a21e5eb64736f6c63430008120033",
					"opcodes": "PUSH1 0x80 PUSH1 0x40 MSTORE PUSH1 0x0 PUSH1 0x1 SSTORE PUSH1 0x0 PUSH1 0x2 SSTORE CALLVALUE DUP1 ISZERO PUSH2 0x1A JUMPI PUSH1 0x0 DUP1 REVERT JUMPDEST POP CALLER PUSH1 0x0 DUP1 PUSH2 0x100 EXP DUP2 SLOAD DUP2 PUSH20 0xFFFFFFFFFFFFFFFFFFFFFFFFFFFFFFFFFFFFFFFF MUL NOT AND SWAP1 DUP4 PUSH20 0xFFFFFFFFFFFFFFFFFFFFFFFFFFFFFFFFFFFFFFFF AND MUL OR SWAP1 SSTORE POP PUSH2 0x36D4 DUP1 PUSH2 0x6A PUSH1 0x0 CODECOPY PUSH1 0x0 RETURN INVALID PUSH1 0x80 PUSH1 0x40 MSTORE CALLVALUE DUP1 ISZERO PUSH2 0x10 JUMPI PUSH1 0x0 DUP1 REVERT JUMPDEST POP PUSH1 0x4 CALLDATASIZE LT PUSH2 0x116 JUMPI PUSH1 0x0 CALLDATALOAD PUSH1 0xE0 SHR DUP1 PUSH4 0x6BD562F3 GT PUSH2 0xA2 JUMPI DUP1 PUSH4 0xBED34BBA GT PUSH2 0x71 JUMPI DUP1 PUSH4 0xBED34BBA EQ PUSH2 0x2F3 JUMPI DUP1 PUSH4 0xC77CFEEB EQ PUSH2 0x323 JUMPI DUP1 PUSH4 0xD430E05A EQ PUSH2 0x353 JUMPI DUP1 PUSH4 0xF70E1C5E EQ PUSH2 0x383 JUMPI DUP1 PUSH4 0xFE1823AF EQ PUSH2 0x3B3 JUMPI PUSH2 0x116 JUMP JUMPDEST DUP1 PUSH4 0x6BD562F3 EQ PUSH2 0x26B JUMPI DUP1 PUSH4 0x7198ED1A EQ PUSH2 0x287 JUMPI DUP1 PUSH4 0x893D20E8 EQ PUSH2 0x2B7 JUMPI DUP1 PUSH4 0xBB29E2A5 EQ PUSH2 0x2D5 JUMPI PUSH2 0x116 JUMP JUMPDEST DUP1 PUSH4 0x379F8FC2 GT PUSH2 0xE9 JUMPI DUP1 PUSH4 0x379F8FC2 EQ PUSH2 0x1A1 JUMPI DUP1 PUSH4 0x3F70C2B4 EQ PUSH2 0x1D1 JUMPI DUP1 PUSH4 0x51F40DD6 EQ PUSH2 0x201 JUMPI DUP1 PUSH4 0x63C60BD5 EQ PUSH2 0x231 JUMPI DUP1 PUSH4 0x63FBE5B3 EQ PUSH2 0x24D JUMPI PUSH2 0x116 JUMP JUMPDEST DUP1 PUSH4 0x2EE3A52 EQ PUSH2 0x11B JUMPI DUP1 PUSH4 0x67C2D61 EQ PUSH2 0x139 JUMPI DUP1 PUSH4 0x81396EB EQ PUSH2 0x169 JUMPI DUP1 PUSH4 0x15C19C1D EQ PUSH2 0x185 JUMPI JUMPDEST PUSH1 0x0 DUP1 REVERT JUMPDEST PUSH2 0x123 PUSH2 0x3E3 JUMP JUMPDEST PUSH1 0x40 MLOAD PUSH2 0x130 SWAP2 SWAP1 PUSH2 0x27CA JUMP JUMPDEST PUSH1 0x40 MLOAD DUP1 SWAP2 SUB SWAP1 RETURN JUMPDEST PUSH2 0x153 PUSH1 0x4 DUP1 CALLDATASIZE SUB DUP2 ADD SWAP1 PUSH2 0x14E SWAP2 SWAP1 PUSH2 0x282C JUMP JUMPDEST PUSH2 0x43B JUMP JUMPDEST PUSH1 0x40 MLOAD PUSH2 0x160 SWAP2 SWAP1 PUSH2 0x2868 JUMP JUMPDEST PUSH1 0x40 MLOAD DUP1 SWAP2 SUB SWAP1 RETURN JUMPDEST PUSH2 0x183 PUSH1 0x4 DUP1 CALLDATASIZE SUB DUP2 ADD SWAP1 PUSH2 0x17E SWAP2 SWAP1 PUSH2 0x29C9 JUMP JUMPDEST PUSH2 0x45F JUMP JUMPDEST STOP JUMPDEST PUSH2 0x19F PUSH1 0x4 DUP1 CALLDATASIZE SUB DUP2 ADD SWAP1 PUSH2 0x19A SWAP2 SWAP1 PUSH2 0x29C9 JUMP JUMPDEST PUSH2 0x4BE JUMP JUMPDEST STOP JUMPDEST PUSH2 0x1BB PUSH1 0x4 DUP1 CALLDATASIZE SUB DUP2 ADD SWAP1 PUSH2 0x1B6 SWAP2 SWAP1 PUSH2 0x2A41 JUMP JUMPDEST PUSH2 0x561 JUMP JUMPDEST PUSH1 0x40 MLOAD PUSH2 0x1C8 SWAP2 SWAP1 PUSH2 0x2D00 JUMP JUMPDEST PUSH1 0x40 MLOAD DUP1 SWAP2 SUB SWAP1 RETURN JUMPDEST PUSH2 0x1EB PUSH1 0x4 DUP1 CALLDATASIZE SUB DUP2 ADD SWAP1 PUSH2 0x1E6 SWAP2 SWAP1 PUSH2 0x282C JUMP JUMPDEST PUSH2 0x930 JUMP JUMPDEST PUSH1 0x40 MLOAD PUSH2 0x1F8 SWAP2 SWAP1 PUSH2 0x2E0A JUMP JUMPDEST PUSH1 0x40 MLOAD DUP1 SWAP2 SUB SWAP1 RETURN JUMPDEST PUSH2 0x21B PUSH1 0x4 DUP1 CALLDATASIZE SUB DUP2 ADD SWAP1 PUSH2 0x216 SWAP2 SWAP1 PUSH2 0x2F12 JUMP JUMPDEST PUSH2 0xCE8 JUMP JUMPDEST PUSH1 0x40 MLOAD PUSH2 0x228 SWAP2 SWAP1 PUSH2 0x2D00 JUMP JUMPDEST PUSH1 0x40 MLOAD DUP1 SWAP2 SUB SWAP1 RETURN JUMPDEST PUSH2 0x24B PUSH1 0x4 DUP1 CALLDATASIZE SUB DUP2 ADD SWAP1 PUSH2 0x246 SWAP2 SWAP1 PUSH2 0x2F8A JUMP JUMPDEST PUSH2 0x11EF JUMP JUMPDEST STOP JUMPDEST PUSH2 0x255 PUSH2 0x12F7 JUMP JUMPDEST PUSH1 0x40 MLOAD PUSH2 0x262 SWAP2 SWAP1 PUSH2 0x2868 JUMP JUMPDEST PUSH1 0x40 MLOAD DUP1 SWAP2 SUB SWAP1 RETURN JUMPDEST PUSH2 0x285 PUSH1 0x4 DUP1 CALLDATASIZE SUB DUP2 ADD SWAP1 PUSH2 0x280 SWAP2 SWAP1 PUSH2 0x3002 JUMP JUMPDEST PUSH2 0x12FD JUMP JUMPDEST STOP JUMPDEST PUSH2 0x2A1 PUSH1 0x4 DUP1 CALLDATASIZE SUB DUP2 ADD SWAP1 PUSH2 0x29C SWAP2 SWAP1 PUSH2 0x2A41 JUMP JUMPDEST PUSH2 0x1491 JUMP JUMPDEST PUSH1 0x40 MLOAD PUSH2 0x2AE SWAP2 SWAP1 PUSH2 0x2D00 JUMP JUMPDEST PUSH1 0x40 MLOAD DUP1 SWAP2 SUB SWAP1 RETURN JUMPDEST PUSH2 0x2BF PUSH2 0x190C JUMP JUMPDEST PUSH1 0x40 MLOAD PUSH2 0x2CC SWAP2 SWAP1 PUSH2 0x31A1 JUMP JUMPDEST PUSH1 0x40 MLOAD DUP1 SWAP2 SUB SWAP1 RETURN JUMPDEST PUSH2 0x2DD PUSH2 0x1935 JUMP JUMPDEST PUSH1 0x40 MLOAD PUSH2 0x2EA SWAP2 SWAP1 PUSH2 0x2868 JUMP JUMPDEST PUSH1 0x40 MLOAD DUP1 SWAP2 SUB SWAP1 RETURN JUMPDEST PUSH2 0x30D PUSH1 0x4 DUP1 CALLDATASIZE SUB DUP2 ADD SWAP1 PUSH2 0x308 SWAP2 SWAP1 PUSH2 0x29C9 JUMP JUMPDEST PUSH2 0x193B JUMP JUMPDEST PUSH1 0x40 MLOAD PUSH2 0x31A SWAP2 SWAP1 PUSH2 0x31D7 JUMP JUMPDEST PUSH1 0x40 MLOAD DUP1 SWAP2 SUB SWAP1 RETURN JUMPDEST PUSH2 0x33D PUSH1 0x4 DUP1 CALLDATASIZE SUB DUP2 ADD SWAP1 PUSH2 0x338 SWAP2 SWAP1 PUSH2 0x2A41 JUMP JUMPDEST PUSH2 0x1A09 JUMP JUMPDEST PUSH1 0x40 MLOAD PUSH2 0x34A SWAP2 SWAP1 PUSH2 0x2D00 JUMP JUMPDEST PUSH1 0x40 MLOAD DUP1 SWAP2 SUB SWAP1 RETURN JUMPDEST PUSH2 0x36D PUSH1 0x4 DUP1 CALLDATASIZE SUB DUP2 ADD SWAP1 PUSH2 0x368 SWAP2 SWAP1 PUSH2 0x29C9 JUMP JUMPDEST PUSH2 0x1E84 JUMP JUMPDEST PUSH1 0x40 MLOAD PUSH2 0x37A SWAP2 SWAP1 PUSH2 0x31D7 JUMP JUMPDEST PUSH1 0x40 MLOAD DUP1 SWAP2 SUB SWAP1 RETURN JUMPDEST PUSH2 0x39D PUSH1 0x4 DUP1 CALLDATASIZE SUB DUP2 ADD SWAP1 PUSH2 0x398 SWAP2 SWAP1 PUSH2 0x2A41 JUMP JUMPDEST PUSH2 0x20B3 JUMP JUMPDEST PUSH1 0x40 MLOAD PUSH2 0x3AA SWAP2 SWAP1 PUSH2 0x2D00 JUMP JUMPDEST PUSH1 0x40 MLOAD DUP1 SWAP2 SUB SWAP1 RETURN JUMPDEST PUSH2 0x3CD PUSH1 0x4 DUP1 CALLDATASIZE SUB DUP2 ADD SWAP1 PUSH2 0x3C8 SWAP2 SWAP1 PUSH2 0x282C JUMP JUMPDEST PUSH2 0x252E JUMP JUMPDEST PUSH1 0x40 MLOAD PUSH2 0x3DA SWAP2 SWAP1 PUSH2 0x2868 JUMP JUMPDEST PUSH1 0x40 MLOAD DUP1 SWAP2 SUB SWAP1 RETURN JUMPDEST PUSH1 0x60 PUSH1 0x3 DUP1 SLOAD DUP1 PUSH1 0x20 MUL PUSH1 0x20 ADD PUSH1 0x40 MLOAD SWAP1 DUP2 ADD PUSH1 0x40 MSTORE DUP1 SWAP3 SWAP2 SWAP1 DUP2 DUP2 MSTORE PUSH1 0x20 ADD DUP3 DUP1 SLOAD DUP1 ISZERO PUSH2 0x431 JUMPI PUSH1 0x20 MUL DUP3 ADD SWAP2 SWAP1 PUSH1 0x0 MSTORE PUSH1 0x20 PUSH1 0x0 KECCAK256 SWAP1 JUMPDEST DUP2 SLOAD DUP2 MSTORE PUSH1 0x20 ADD SWAP1 PUSH1 0x1 ADD SWAP1 DUP1 DUP4 GT PUSH2 0x41D JUMPI JUMPDEST POP POP POP POP POP SWAP1 POP SWAP1 JUMP JUMPDEST PUSH1 0x4 DUP2 DUP2 SLOAD DUP2 LT PUSH2 0x44B JUMPI PUSH1 0x0 DUP1 REVERT JUMPDEST SWAP1 PUSH1 0x0 MSTORE PUSH1 0x20 PUSH1 0x0 KECCAK256 ADD PUSH1 0x0 SWAP2 POP SWAP1 POP SLOAD DUP2 JUMP JUMPDEST DUP1 PUSH1 0xC DUP4 PUSH1 0x40 MLOAD PUSH2 0x470 SWAP2 SWAP1 PUSH2 0x322E JUMP JUMPDEST SWAP1 DUP2 MSTORE PUSH1 0x20 ADD PUSH1 0x40 MLOAD DUP1 SWAP2 SUB SWAP1 KECCAK256 SWAP1 DUP2 PUSH2 0x48A SWAP2 SWAP1 PUSH2 0x3451 JUMP JUMPDEST POP DUP2 PUSH1 0x6 DUP3 PUSH1 0x40 MLOAD PUSH2 0x49C SWAP2 SWAP1 PUSH2 0x322E JUMP JUMPDEST SWAP1 DUP2 MSTORE PUSH1 0x20 ADD PUSH1 0x40 MLOAD DUP1 SWAP2 SUB SWAP1 KECCAK256 PUSH1 0x2 ADD SWAP1 DUP2 PUSH2 0x4B9 SWAP2 SWAP1 PUSH2 0x3451 JUMP JUMPDEST POP POP POP JUMP JUMPDEST PUSH2 0x4FD DUP3 PUSH1 0x40 MLOAD DUP1 PUSH1 0x40 ADD PUSH1 0x40 MSTORE DUP1 PUSH1 0x8 DUP2 MSTORE PUSH1 0x20 ADD PUSH32 0x7573657257434944000000000000000000000000000000000000000000000000 DUP2 MSTORE POP PUSH2 0x1E84 JUMP JUMPDEST PUSH2 0x55D JUMPI DUP1 PUSH1 0xA DUP4 PUSH1 0x40 MLOAD PUSH2 0x512 SWAP2 SWAP1 PUSH2 0x322E JUMP JUMPDEST SWAP1 DUP2 MSTORE PUSH1 0x20 ADD PUSH1 0x40 MLOAD DUP1 SWAP2 SUB SWAP1 KECCAK256 SWAP1 DUP2 PUSH2 0x52C SWAP2 SWAP1 PUSH2 0x3451 JUMP JUMPDEST POP DUP2 PUSH1 0x6 DUP3 PUSH1 0x40 MLOAD PUSH2 0x53E SWAP2 SWAP1 PUSH2 0x322E JUMP JUMPDEST SWAP1 DUP2 MSTORE PUSH1 0x20 ADD PUSH1 0x40 MLOAD DUP1 SWAP2 SUB SWAP1 KECCAK256 PUSH1 0x1 ADD SWAP1 DUP2 PUSH2 0x55B SWAP2 SWAP1 PUSH2 0x3451 JUMP JUMPDEST POP JUMPDEST POP POP JUMP JUMPDEST PUSH2 0x569 PUSH2 0x2552 JUMP JUMPDEST PUSH1 0x6 DUP3 PUSH1 0x40 MLOAD PUSH2 0x579 SWAP2 SWAP1 PUSH2 0x322E JUMP JUMPDEST SWAP1 DUP2 MSTORE PUSH1 0x20 ADD PUSH1 0x40 MLOAD DUP1 SWAP2 SUB SWAP1 KECCAK256 PUSH1 0x40 MLOAD DUP1 PUSH1 0xE0 ADD PUSH1 0x40 MSTORE SWAP1 DUP2 PUSH1 0x0 DUP3 ADD DUP1 SLOAD PUSH2 0x5A2 SWAP1 PUSH2 0x3274 JUMP JUMPDEST DUP1 PUSH1 0x1F ADD PUSH1 0x20 DUP1 SWAP2 DIV MUL PUSH1 0x20 ADD PUSH1 0x40 MLOAD SWAP1 DUP2 ADD PUSH1 0x40 MSTORE DUP1 SWAP3 SWAP2 SWAP1 DUP2 DUP2 MSTORE PUSH1 0x20 ADD DUP3 DUP1 SLOAD PUSH2 0x5CE SWAP1 PUSH2 0x3274 JUMP JUMPDEST DUP1 ISZERO PUSH2 0x61B JUMPI DUP1 PUSH1 0x1F LT PUSH2 0x5F0 JUMPI PUSH2 0x100 DUP1 DUP4 SLOAD DIV MUL DUP4 MSTORE SWAP2 PUSH1 0x20 ADD SWAP2 PUSH2 0x61B JUMP JUMPDEST DUP3 ADD SWAP2 SWAP1 PUSH1 0x0 MSTORE PUSH1 0x20 PUSH1 0x0 KECCAK256 SWAP1 JUMPDEST DUP2 SLOAD DUP2 MSTORE SWAP1 PUSH1 0x1 ADD SWAP1 PUSH1 0x20 ADD DUP1 DUP4 GT PUSH2 0x5FE JUMPI DUP3 SWAP1 SUB PUSH1 0x1F AND DUP3 ADD SWAP2 JUMPDEST POP POP POP POP POP DUP2 MSTORE PUSH1 0x20 ADD PUSH1 0x1 DUP3 ADD DUP1 SLOAD PUSH2 0x634 SWAP1 PUSH2 0x3274 JUMP JUMPDEST DUP1 PUSH1 0x1F ADD PUSH1 0x20 DUP1 SWAP2 DIV MUL PUSH1 0x20 ADD PUSH1 0x40 MLOAD SWAP1 DUP2 ADD PUSH1 0x40 MSTORE DUP1 SWAP3 SWAP2 SWAP1 DUP2 DUP2 MSTORE PUSH1 0x20 ADD DUP3 DUP1 SLOAD PUSH2 0x660 SWAP1 PUSH2 0x3274 JUMP JUMPDEST DUP1 ISZERO PUSH2 0x6AD JUMPI DUP1 PUSH1 0x1F LT PUSH2 0x682 JUMPI PUSH2 0x100 DUP1 DUP4 SLOAD DIV MUL DUP4 MSTORE SWAP2 PUSH1 0x20 ADD SWAP2 PUSH2 0x6AD JUMP JUMPDEST DUP3 ADD SWAP2 SWAP1 PUSH1 0x0 MSTORE PUSH1 0x20 PUSH1 0x0 KECCAK256 SWAP1 JUMPDEST DUP2 SLOAD DUP2 MSTORE SWAP1 PUSH1 0x1 ADD SWAP1 PUSH1 0x20 ADD DUP1 DUP4 GT PUSH2 0x690 JUMPI DUP3 SWAP1 SUB PUSH1 0x1F AND DUP3 ADD SWAP2 JUMPDEST POP POP POP POP POP DUP2 MSTORE PUSH1 0x20 ADD PUSH1 0x2 DUP3 ADD DUP1 SLOAD PUSH2 0x6C6 SWAP1 PUSH2 0x3274 JUMP JUMPDEST DUP1 PUSH1 0x1F ADD PUSH1 0x20 DUP1 SWAP2 DIV MUL PUSH1 0x20 ADD PUSH1 0x40 MLOAD SWAP1 DUP2 ADD PUSH1 0x40 MSTORE DUP1 SWAP3 SWAP2 SWAP1 DUP2 DUP2 MSTORE PUSH1 0x20 ADD DUP3 DUP1 SLOAD PUSH2 0x6F2 SWAP1 PUSH2 0x3274 JUMP JUMPDEST DUP1 ISZERO PUSH2 0x73F JUMPI DUP1 PUSH1 0x1F LT PUSH2 0x714 JUMPI PUSH2 0x100 DUP1 DUP4 SLOAD DIV MUL DUP4 MSTORE SWAP2 PUSH1 0x20 ADD SWAP2 PUSH2 0x73F JUMP JUMPDEST DUP3 ADD SWAP2 SWAP1 PUSH1 0x0 MSTORE PUSH1 0x20 PUSH1 0x0 KECCAK256 SWAP1 JUMPDEST DUP2 SLOAD DUP2 MSTORE SWAP1 PUSH1 0x1 ADD SWAP1 PUSH1 0x20 ADD DUP1 DUP4 GT PUSH2 0x722 JUMPI DUP3 SWAP1 SUB PUSH1 0x1F AND DUP3 ADD SWAP2 JUMPDEST POP POP POP POP POP DUP2 MSTORE PUSH1 0x20 ADD PUSH1 0x3 DUP3 ADD DUP1 SLOAD DUP1 PUSH1 0x20 MUL PUSH1 0x20 ADD PUSH1 0x40 MLOAD SWAP1 DUP2 ADD PUSH1 0x40 MSTORE DUP1 SWAP3 SWAP2 SWAP1 DUP2 DUP2 MSTORE PUSH1 0x20 ADD PUSH1 0x0 SWAP1 JUMPDEST DUP3 DUP3 LT ISZERO PUSH2 0x819 JUMPI DUP4 DUP3 SWAP1 PUSH1 0x0 MSTORE PUSH1 0x20 PUSH1 0x0 KECCAK256 ADD DUP1 SLOAD PUSH2 0x78C SWAP1 PUSH2 0x3274 JUMP JUMPDEST DUP1 PUSH1 0x1F ADD PUSH1 0x20 DUP1 SWAP2 DIV MUL PUSH1 0x20 ADD PUSH1 0x40 MLOAD SWAP1 DUP2 ADD PUSH1 0x40 MSTORE DUP1 SWAP3 SWAP2 SWAP1 DUP2 DUP2 MSTORE PUSH1 0x20 ADD DUP3 DUP1 SLOAD PUSH2 0x7B8 SWAP1 PUSH2 0x3274 JUMP JUMPDEST DUP1 ISZERO PUSH2 0x805 JUMPI DUP1 PUSH1 0x1F LT PUSH2 0x7DA JUMPI PUSH2 0x100 DUP1 DUP4 SLOAD DIV MUL DUP4 MSTORE SWAP2 PUSH1 0x20 ADD SWAP2 PUSH2 0x805 JUMP JUMPDEST DUP3 ADD SWAP2 SWAP1 PUSH1 0x0 MSTORE PUSH1 0x20 PUSH1 0x0 KECCAK256 SWAP1 JUMPDEST DUP2 SLOAD DUP2 MSTORE SWAP1 PUSH1 0x1 ADD SWAP1 PUSH1 0x20 ADD DUP1 DUP4 GT PUSH2 0x7E8 JUMPI DUP3 SWAP1 SUB PUSH1 0x1F AND DUP3 ADD SWAP2 JUMPDEST POP POP POP POP POP DUP2 MSTORE PUSH1 0x20 ADD SWAP1 PUSH1 0x1 ADD SWAP1 PUSH2 0x76D JUMP JUMPDEST POP POP POP POP DUP2 MSTORE PUSH1 0x20 ADD PUSH1 0x4 DUP3 ADD DUP1 SLOAD DUP1 PUSH1 0x20 MUL PUSH1 0x20 ADD PUSH1 0x40 MLOAD SWAP1 DUP2 ADD PUSH1 0x40 MSTORE DUP1 SWAP3 SWAP2 SWAP1 DUP2 DUP2 MSTORE PUSH1 0x20 ADD DUP3 DUP1 SLOAD DUP1 ISZERO PUSH2 0x870 JUMPI PUSH1 0x20 MUL DUP3 ADD SWAP2 SWAP1 PUSH1 0x0 MSTORE PUSH1 0x20 PUSH1 0x0 KECCAK256 SWAP1 JUMPDEST DUP2 SLOAD DUP2 MSTORE PUSH1 0x20 ADD SWAP1 PUSH1 0x1 ADD SWAP1 DUP1 DUP4 GT PUSH2 0x85C JUMPI JUMPDEST POP POP POP POP POP DUP2 MSTORE PUSH1 0x20 ADD PUSH1 0x5 DUP3 ADD DUP1 SLOAD DUP1 PUSH1 0x20 MUL PUSH1 0x20 ADD PUSH1 0x40 MLOAD SWAP1 DUP2 ADD PUSH1 0x40 MSTORE DUP1 SWAP3 SWAP2 SWAP1 DUP2 DUP2 MSTORE PUSH1 0x20 ADD DUP3 DUP1 SLOAD DUP1 ISZERO PUSH2 0x8C8 JUMPI PUSH1 0x20 MUL DUP3 ADD SWAP2 SWAP1 PUSH1 0x0 MSTORE PUSH1 0x20 PUSH1 0x0 KECCAK256 SWAP1 JUMPDEST DUP2 SLOAD DUP2 MSTORE PUSH1 0x20 ADD SWAP1 PUSH1 0x1 ADD SWAP1 DUP1 DUP4 GT PUSH2 0x8B4 JUMPI JUMPDEST POP POP POP POP POP DUP2 MSTORE PUSH1 0x20 ADD PUSH1 0x6 DUP3 ADD DUP1 SLOAD DUP1 PUSH1 0x20 MUL PUSH1 0x20 ADD PUSH1 0x40 MLOAD SWAP1 DUP2 ADD PUSH1 0x40 MSTORE DUP1 SWAP3 SWAP2 SWAP1 DUP2 DUP2 MSTORE PUSH1 0x20 ADD DUP3 DUP1 SLOAD DUP1 ISZERO PUSH2 0x920 JUMPI PUSH1 0x20 MUL DUP3 ADD SWAP2 SWAP1 PUSH1 0x0 MSTORE PUSH1 0x20 PUSH1 0x0 KECCAK256 SWAP1 JUMPDEST DUP2 SLOAD DUP2 MSTORE PUSH1 0x20 ADD SWAP1 PUSH1 0x1 ADD SWAP1 DUP1 DUP4 GT PUSH2 0x90C JUMPI JUMPDEST POP POP POP POP POP DUP2 MSTORE POP POP SWAP1 POP SWAP2 SWAP1 POP JUMP JUMPDEST PUSH2 0x938 PUSH2 0x258F JUMP JUMPDEST PUSH1 0x5 PUSH1 0x0 DUP4 DUP2 MSTORE PUSH1 0x20 ADD SWAP1 DUP2 MSTORE PUSH1 0x20 ADD PUSH1 0x0 KECCAK256 PUSH1 0x40 MLOAD DUP1 PUSH2 0x120 ADD PUSH1 0x40 MSTORE SWAP1 DUP2 PUSH1 0x0 DUP3 ADD SLOAD DUP2 MSTORE PUSH1 0x20 ADD PUSH1 0x1 DUP3 ADD DUP1 SLOAD PUSH2 0x971 SWAP1 PUSH2 0x3274 JUMP JUMPDEST DUP1 PUSH1 0x1F ADD PUSH1 0x20 DUP1 SWAP2 DIV MUL PUSH1 0x20 ADD PUSH1 0x40 MLOAD SWAP1 DUP2 ADD PUSH1 0x40 MSTORE DUP1 SWAP3 SWAP2 SWAP1 DUP2 DUP2 MSTORE PUSH1 0x20 ADD DUP3 DUP1 SLOAD PUSH2 0x99D SWAP1 PUSH2 0x3274 JUMP JUMPDEST DUP1 ISZERO PUSH2 0x9EA JUMPI DUP1 PUSH1 0x1F LT PUSH2 0x9BF JUMPI PUSH2 0x100 DUP1 DUP4 SLOAD DIV MUL DUP4 MSTORE SWAP2 PUSH1 0x20 ADD SWAP2 PUSH2 0x9EA JUMP JUMPDEST DUP3 ADD SWAP2 SWAP1 PUSH1 0x0 MSTORE PUSH1 0x20 PUSH1 0x0 KECCAK256 SWAP1 JUMPDEST DUP2 SLOAD DUP2 MSTORE SWAP1 PUSH1 0x1 ADD SWAP1 PUSH1 0x20 ADD DUP1 DUP4 GT PUSH2 0x9CD JUMPI DUP3 SWAP1 SUB PUSH1 0x1F AND DUP3 ADD SWAP2 JUMPDEST POP POP POP POP POP DUP2 MSTORE PUSH1 0x20 ADD PUSH1 0x2 DUP3 ADD DUP1 SLOAD PUSH2 0xA03 SWAP1 PUSH2 0x3274 JUMP JUMPDEST DUP1 PUSH1 0x1F ADD PUSH1 0x20 DUP1 SWAP2 DIV MUL PUSH1 0x20 ADD PUSH1 0x40 MLOAD SWAP1 DUP2 ADD PUSH1 0x40 MSTORE DUP1 SWAP3 SWAP2 SWAP1 DUP2 DUP2 MSTORE PUSH1 0x20 ADD DUP3 DUP1 SLOAD PUSH2 0xA2F SWAP1 PUSH2 0x3274 JUMP JUMPDEST DUP1 ISZERO PUSH2 0xA7C JUMPI DUP1 PUSH1 0x1F LT PUSH2 0xA51 JUMPI PUSH2 0x100 DUP1 DUP4 SLOAD DIV MUL DUP4 MSTORE SWAP2 PUSH1 0x20 ADD SWAP2 PUSH2 0xA7C JUMP JUMPDEST DUP3 ADD SWAP2 SWAP1 PUSH1 0x0 MSTORE PUSH1 0x20 PUSH1 0x0 KECCAK256 SWAP1 JUMPDEST DUP2 SLOAD DUP2 MSTORE SWAP1 PUSH1 0x1 ADD SWAP1 PUSH1 0x20 ADD DUP1 DUP4 GT PUSH2 0xA5F JUMPI DUP3 SWAP1 SUB PUSH1 0x1F AND DUP3 ADD SWAP2 JUMPDEST POP POP POP POP POP DUP2 MSTORE PUSH1 0x20 ADD PUSH1 0x3 DUP3 ADD DUP1 SLOAD PUSH2 0xA95 SWAP1 PUSH2 0x3274 JUMP JUMPDEST DUP1 PUSH1 0x1F ADD PUSH1 0x20 DUP1 SWAP2 DIV MUL PUSH1 0x20 ADD PUSH1 0x40 MLOAD SWAP1 DUP2 ADD PUSH1 0x40 MSTORE DUP1 SWAP3 SWAP2 SWAP1 DUP2 DUP2 MSTORE PUSH1 0x20 ADD DUP3 DUP1 SLOAD PUSH2 0xAC1 SWAP1 PUSH2 0x3274 JUMP JUMPDEST DUP1 ISZERO PUSH2 0xB0E JUMPI DUP1 PUSH1 0x1F LT PUSH2 0xAE3 JUMPI PUSH2 0x100 DUP1 DUP4 SLOAD DIV MUL DUP4 MSTORE SWAP2 PUSH1 0x20 ADD SWAP2 PUSH2 0xB0E JUMP JUMPDEST DUP3 ADD SWAP2 SWAP1 PUSH1 0x0 MSTORE PUSH1 0x20 PUSH1 0x0 KECCAK256 SWAP1 JUMPDEST DUP2 SLOAD DUP2 MSTORE SWAP1 PUSH1 0x1 ADD SWAP1 PUSH1 0x20 ADD DUP1 DUP4 GT PUSH2 0xAF1 JUMPI DUP3 SWAP1 SUB PUSH1 0x1F AND DUP3 ADD SWAP2 JUMPDEST POP POP POP POP POP DUP2 MSTORE PUSH1 0x20 ADD PUSH1 0x4 DUP3 ADD DUP1 SLOAD PUSH2 0xB27 SWAP1 PUSH2 0x3274 JUMP JUMPDEST DUP1 PUSH1 0x1F ADD PUSH1 0x20 DUP1 SWAP2 DIV MUL PUSH1 0x20 ADD PUSH1 0x40 MLOAD SWAP1 DUP2 ADD PUSH1 0x40 MSTORE DUP1 SWAP3 SWAP2 SWAP1 DUP2 DUP2 MSTORE PUSH1 0x20 ADD DUP3 DUP1 SLOAD PUSH2 0xB53 SWAP1 PUSH2 0x3274 JUMP JUMPDEST DUP1 ISZERO PUSH2 0xBA0 JUMPI DUP1 PUSH1 0x1F LT PUSH2 0xB75 JUMPI PUSH2 0x100 DUP1 DUP4 SLOAD DIV MUL DUP4 MSTORE SWAP2 PUSH1 0x20 ADD SWAP2 PUSH2 0xBA0 JUMP JUMPDEST DUP3 ADD SWAP2 SWAP1 PUSH1 0x0 MSTORE PUSH1 0x20 PUSH1 0x0 KECCAK256 SWAP1 JUMPDEST DUP2 SLOAD DUP2 MSTORE SWAP1 PUSH1 0x1 ADD SWAP1 PUSH1 0x20 ADD DUP1 DUP4 GT PUSH2 0xB83 JUMPI DUP3 SWAP1 SUB PUSH1 0x1F AND DUP3 ADD SWAP2 JUMPDEST POP POP POP POP POP DUP2 MSTORE PUSH1 0x20 ADD PUSH1 0x5 DUP3 ADD DUP1 SLOAD PUSH2 0xBB9 SWAP1 PUSH2 0x3274 JUMP JUMPDEST DUP1 PUSH1 0x1F ADD PUSH1 0x20 DUP1 SWAP2 DIV MUL PUSH1 0x20 ADD PUSH1 0x40 MLOAD SWAP1 DUP2 ADD PUSH1 0x40 MSTORE DUP1 SWAP3 SWAP2 SWAP1 DUP2 DUP2 MSTORE PUSH1 0x20 ADD DUP3 DUP1 SLOAD PUSH2 0xBE5 SWAP1 PUSH2 0x3274 JUMP JUMPDEST DUP1 ISZERO PUSH2 0xC32 JUMPI DUP1 PUSH1 0x1F LT PUSH2 0xC07 JUMPI PUSH2 0x100 DUP1 DUP4 SLOAD DIV MUL DUP4 MSTORE SWAP2 PUSH1 0x20 ADD SWAP2 PUSH2 0xC32 JUMP JUMPDEST DUP3 ADD SWAP2 SWAP1 PUSH1 0x0 MSTORE PUSH1 0x20 PUSH1 0x0 KECCAK256 SWAP1 JUMPDEST DUP2 SLOAD DUP2 MSTORE SWAP1 PUSH1 0x1 ADD SWAP1 PUSH1 0x20 ADD DUP1 DUP4 GT PUSH2 0xC15 JUMPI DUP3 SWAP1 SUB PUSH1 0x1F AND DUP3 ADD SWAP2 JUMPDEST POP POP POP POP POP DUP2 MSTORE PUSH1 0x20 ADD PUSH1 0x6 DUP3 ADD SLOAD DUP2 MSTORE PUSH1 0x20 ADD PUSH1 0x7 DUP3 ADD SLOAD DUP2 MSTORE PUSH1 0x20 ADD PUSH1 0x8 DUP3 ADD DUP1 SLOAD PUSH2 0xC5F SWAP1 PUSH2 0x3274 JUMP JUMPDEST DUP1 PUSH1 0x1F ADD PUSH1 0x20 DUP1 SWAP2 DIV MUL PUSH1 0x20 ADD PUSH1 0x40 MLOAD SWAP1 DUP2 ADD PUSH1 0x40 MSTORE DUP1 SWAP3 SWAP2 SWAP1 DUP2 DUP2 MSTORE PUSH1 0x20 ADD DUP3 DUP1 SLOAD PUSH2 0xC8B SWAP1 PUSH2 0x3274 JUMP JUMPDEST DUP1 ISZERO PUSH2 0xCD8 JUMPI DUP1 PUSH1 0x1F LT PUSH2 0xCAD JUMPI PUSH2 0x100 DUP1 DUP4 SLOAD DIV MUL DUP4 MSTORE SWAP2 PUSH1 0x20 ADD SWAP2 PUSH2 0xCD8 JUMP JUMPDEST DUP3 ADD SWAP2 SWAP1 PUSH1 0x0 MSTORE PUSH1 0x20 PUSH1 0x0 KECCAK256 SWAP1 JUMPDEST DUP2 SLOAD DUP2 MSTORE SWAP1 PUSH1 0x1 ADD SWAP1 PUSH1 0x20 ADD DUP1 DUP4 GT PUSH2 0xCBB JUMPI DUP3 SWAP1 SUB PUSH1 0x1F AND DUP3 ADD SWAP2 JUMPDEST POP POP POP POP POP DUP2 MSTORE POP POP SWAP1 POP SWAP2 SWAP1 POP JUMP JUMPDEST PUSH2 0xCF0 PUSH2 0x2552 JUMP JUMPDEST PUSH1 0x60 DUP1 PUSH1 0x40 MLOAD DUP1 PUSH1 0xE0 ADD PUSH1 0x40 MSTORE DUP1 DUP7 DUP2 MSTORE PUSH1 0x20 ADD PUSH1 0x40 MLOAD DUP1 PUSH1 0x20 ADD PUSH1 0x40 MSTORE DUP1 PUSH1 0x0 DUP2 MSTORE POP DUP2 MSTORE PUSH1 0x20 ADD PUSH1 0x40 MLOAD DUP1 PUSH1 0x20 ADD PUSH1 0x40 MSTORE DUP1 PUSH1 0x0 DUP2 MSTORE POP DUP2 MSTORE PUSH1 0x20 ADD DUP6 DUP2 MSTORE PUSH1 0x20 ADD DUP4 DUP2 MSTORE PUSH1 0x20 ADD DUP3 DUP2 MSTORE PUSH1 0x20 ADD DUP3 DUP2 MSTORE POP PUSH1 0x6 DUP7 PUSH1 0x40 MLOAD PUSH2 0xD54 SWAP2 SWAP1 PUSH2 0x322E JUMP JUMPDEST SWAP1 DUP2 MSTORE PUSH1 0x20 ADD PUSH1 0x40 MLOAD DUP1 SWAP2 SUB SWAP1 KECCAK256 PUSH1 0x0 DUP3 ADD MLOAD DUP2 PUSH1 0x0 ADD SWAP1 DUP2 PUSH2 0xD77 SWAP2 SWAP1 PUSH2 0x3451 JUMP JUMPDEST POP PUSH1 0x20 DUP3 ADD MLOAD DUP2 PUSH1 0x1 ADD SWAP1 DUP2 PUSH2 0xD8D SWAP2 SWAP1 PUSH2 0x3451 JUMP JUMPDEST POP PUSH1 0x40 DUP3 ADD MLOAD DUP2 PUSH1 0x2 ADD SWAP1 DUP2 PUSH2 0xDA3 SWAP2 SWAP1 PUSH2 0x3451 JUMP JUMPDEST POP PUSH1 0x60 DUP3 ADD MLOAD DUP2 PUSH1 0x3 ADD SWAP1 DUP1 MLOAD SWAP1 PUSH1 0x20 ADD SWAP1 PUSH2 0xDC0 SWAP3 SWAP2 SWAP1 PUSH2 0x25DB JUMP JUMPDEST POP PUSH1 0x80 DUP3 ADD MLOAD DUP2 PUSH1 0x4 ADD SWAP1 DUP1 MLOAD SWAP1 PUSH1 0x20 ADD SWAP1 PUSH2 0xDDD SWAP3 SWAP2 SWAP1 PUSH2 0x2634 JUMP JUMPDEST POP PUSH1 0xA0 DUP3 ADD MLOAD DUP2 PUSH1 0x5 ADD SWAP1 DUP1 MLOAD SWAP1 PUSH1 0x20 ADD SWAP1 PUSH2 0xDFA SWAP3 SWAP2 SWAP1 PUSH2 0x2634 JUMP JUMPDEST POP PUSH1 0xC0 DUP3 ADD MLOAD DUP2 PUSH1 0x6 ADD SWAP1 DUP1 MLOAD SWAP1 PUSH1 0x20 ADD SWAP1 PUSH2 0xE17 SWAP3 SWAP2 SWAP1 PUSH2 0x2634 JUMP JUMPDEST POP SWAP1 POP POP PUSH2 0xE25 DUP5 DUP7 PUSH2 0x11EF JUMP JUMPDEST PUSH1 0x6 DUP6 PUSH1 0x40 MLOAD PUSH2 0xE35 SWAP2 SWAP1 PUSH2 0x322E JUMP JUMPDEST SWAP1 DUP2 MSTORE PUSH1 0x20 ADD PUSH1 0x40 MLOAD DUP1 SWAP2 SUB SWAP1 KECCAK256 PUSH1 0x40 MLOAD DUP1 PUSH1 0xE0 ADD PUSH1 0x40 MSTORE SWAP1 DUP2 PUSH1 0x0 DUP3 ADD DUP1 SLOAD PUSH2 0xE5E SWAP1 PUSH2 0x3274 JUMP JUMPDEST DUP1 PUSH1 0x1F ADD PUSH1 0x20 DUP1 SWAP2 DIV MUL PUSH1 0x20 ADD PUSH1 0x40 MLOAD SWAP1 DUP2 ADD PUSH1 0x40 MSTORE DUP1 SWAP3 SWAP2 SWAP1 DUP2 DUP2 MSTORE PUSH1 0x20 ADD DUP3 DUP1 SLOAD PUSH2 0xE8A SWAP1 PUSH2 0x3274 JUMP JUMPDEST DUP1 ISZERO PUSH2 0xED7 JUMPI DUP1 PUSH1 0x1F LT PUSH2 0xEAC JUMPI PUSH2 0x100 DUP1 DUP4 SLOAD DIV MUL DUP4 MSTORE SWAP2 PUSH1 0x20 ADD SWAP2 PUSH2 0xED7 JUMP JUMPDEST DUP3 ADD SWAP2 SWAP1 PUSH1 0x0 MSTORE PUSH1 0x20 PUSH1 0x0 KECCAK256 SWAP1 JUMPDEST DUP2 SLOAD DUP2 MSTORE SWAP1 PUSH1 0x1 ADD SWAP1 PUSH1 0x20 ADD DUP1 DUP4 GT PUSH2 0xEBA JUMPI DUP3 SWAP1 SUB PUSH1 0x1F AND DUP3 ADD SWAP2 JUMPDEST POP POP POP POP POP DUP2 MSTORE PUSH1 0x20 ADD PUSH1 0x1 DUP3 ADD DUP1 SLOAD PUSH2 0xEF0 SWAP1 PUSH2 0x3274 JUMP JUMPDEST DUP1 PUSH1 0x1F ADD PUSH1 0x20 DUP1 SWAP2 DIV MUL PUSH1 0x20 ADD PUSH1 0x40 MLOAD SWAP1 DUP2 ADD PUSH1 0x40 MSTORE DUP1 SWAP3 SWAP2 SWAP1 DUP2 DUP2 MSTORE PUSH1 0x20 ADD DUP3 DUP1 SLOAD PUSH2 0xF1C SWAP1 PUSH2 0x3274 JUMP JUMPDEST DUP1 ISZERO PUSH2 0xF69 JUMPI DUP1 PUSH1 0x1F LT PUSH2 0xF3E JUMPI PUSH2 0x100 DUP1 DUP4 SLOAD DIV MUL DUP4 MSTORE SWAP2 PUSH1 0x20 ADD SWAP2 PUSH2 0xF69 JUMP JUMPDEST DUP3 ADD SWAP2 SWAP1 PUSH1 0x0 MSTORE PUSH1 0x20 PUSH1 0x0 KECCAK256 SWAP1 JUMPDEST DUP2 SLOAD DUP2 MSTORE SWAP1 PUSH1 0x1 ADD SWAP1 PUSH1 0x20 ADD DUP1 DUP4 GT PUSH2 0xF4C JUMPI DUP3 SWAP1 SUB PUSH1 0x1F AND DUP3 ADD SWAP2 JUMPDEST POP POP POP POP POP DUP2 MSTORE PUSH1 0x20 ADD PUSH1 0x2 DUP3 ADD DUP1 SLOAD PUSH2 0xF82 SWAP1 PUSH2 0x3274 JUMP JUMPDEST DUP1 PUSH1 0x1F ADD PUSH1 0x20 DUP1 SWAP2 DIV MUL PUSH1 0x20 ADD PUSH1 0x40 MLOAD SWAP1 DUP2 ADD PUSH1 0x40 MSTORE DUP1 SWAP3 SWAP2 SWAP1 DUP2 DUP2 MSTORE PUSH1 0x20 ADD DUP3 DUP1 SLOAD PUSH2 0xFAE SWAP1 PUSH2 0x3274 JUMP JUMPDEST DUP1 ISZERO PUSH2 0xFFB JUMPI DUP1 PUSH1 0x1F LT PUSH2 0xFD0 JUMPI PUSH2 0x100 DUP1 DUP4 SLOAD DIV MUL DUP4 MSTORE SWAP2 PUSH1 0x20 ADD SWAP2 PUSH2 0xFFB JUMP JUMPDEST DUP3 ADD SWAP2 SWAP1 PUSH1 0x0 MSTORE PUSH1 0x20 PUSH1 0x0 KECCAK256 SWAP1 JUMPDEST DUP2 SLOAD DUP2 MSTORE SWAP1 PUSH1 0x1 ADD SWAP1 PUSH1 0x20 ADD DUP1 DUP4 GT PUSH2 0xFDE JUMPI DUP3 SWAP1 SUB PUSH1 0x1F AND DUP3 ADD SWAP2 JUMPDEST POP POP POP POP POP DUP2 MSTORE PUSH1 0x20 ADD PUSH1 0x3 DUP3 ADD DUP1 SLOAD DUP1 PUSH1 0x20 MUL PUSH1 0x20 ADD PUSH1 0x40 MLOAD SWAP1 DUP2 ADD PUSH1 0x40 MSTORE DUP1 SWAP3 SWAP2 SWAP1 DUP2 DUP2 MSTORE PUSH1 0x20 ADD PUSH1 0x0 SWAP1 JUMPDEST DUP3 DUP3 LT ISZERO PUSH2 0x10D5 JUMPI DUP4 DUP3 SWAP1 PUSH1 0x0 MSTORE PUSH1 0x20 PUSH1 0x0 KECCAK256 ADD DUP1 SLOAD PUSH2 0x1048 SWAP1 PUSH2 0x3274 JUMP JUMPDEST DUP1 PUSH1 0x1F ADD PUSH1 0x20 DUP1 SWAP2 DIV MUL PUSH1 0x20 ADD PUSH1 0x40 MLOAD SWAP1 DUP2 ADD PUSH1 0x40 MSTORE DUP1 SWAP3 SWAP2 SWAP1 DUP2 DUP2 MSTORE PUSH1 0x20 ADD DUP3 DUP1 SLOAD PUSH2 0x1074 SWAP1 PUSH2 0x3274 JUMP JUMPDEST DUP1 ISZERO PUSH2 0x10C1 JUMPI DUP1 PUSH1 0x1F LT PUSH2 0x1096 JUMPI PUSH2 0x100 DUP1 DUP4 SLOAD DIV MUL DUP4 MSTORE SWAP2 PUSH1 0x20 ADD SWAP2 PUSH2 0x10C1 JUMP JUMPDEST DUP3 ADD SWAP2 SWAP1 PUSH1 0x0 MSTORE PUSH1 0x20 PUSH1 0x0 KECCAK256 SWAP1 JUMPDEST DUP2 SLOAD DUP2 MSTORE SWAP1 PUSH1 0x1 ADD SWAP1 PUSH1 0x20 ADD DUP1 DUP4 GT PUSH2 0x10A4 JUMPI DUP3 SWAP1 SUB PUSH1 0x1F AND DUP3 ADD SWAP2 JUMPDEST POP POP POP POP POP DUP2 MSTORE PUSH1 0x20 ADD SWAP1 PUSH1 0x1 ADD SWAP1 PUSH2 0x1029 JUMP JUMPDEST POP POP POP POP DUP2 MSTORE PUSH1 0x20 ADD PUSH1 0x4 DUP3 ADD DUP1 SLOAD DUP1 PUSH1 0x20 MUL PUSH1 0x20 ADD PUSH1 0x40 MLOAD SWAP1 DUP2 ADD PUSH1 0x40 MSTORE DUP1 SWAP3 SWAP2 SWAP1 DUP2 DUP2 MSTORE PUSH1 0x20 ADD DUP3 DUP1 SLOAD DUP1 ISZERO PUSH2 0x112C JUMPI PUSH1 0x20 MUL DUP3 ADD SWAP2 SWAP1 PUSH1 0x0 MSTORE PUSH1 0x20 PUSH1 0x0 KECCAK256 SWAP1 JUMPDEST DUP2 SLOAD DUP2 MSTORE PUSH1 0x20 ADD SWAP1 PUSH1 0x1 ADD SWAP1 DUP1 DUP4 GT PUSH2 0x1118 JUMPI JUMPDEST POP POP POP POP POP DUP2 MSTORE PUSH1 0x20 ADD PUSH1 0x5 DUP3 ADD DUP1 SLOAD DUP1 PUSH1 0x20 MUL PUSH1 0x20 ADD PUSH1 0x40 MLOAD SWAP1 DUP2 ADD PUSH1 0x40 MSTORE DUP1 SWAP3 SWAP2 SWAP1 DUP2 DUP2 MSTORE PUSH1 0x20 ADD DUP3 DUP1 SLOAD DUP1 ISZERO PUSH2 0x1184 JUMPI PUSH1 0x20 MUL DUP3 ADD SWAP2 SWAP1 PUSH1 0x0 MSTORE PUSH1 0x20 PUSH1 0x0 KECCAK256 SWAP1 JUMPDEST DUP2 SLOAD DUP2 MSTORE PUSH1 0x20 ADD SWAP1 PUSH1 0x1 ADD SWAP1 DUP1 DUP4 GT PUSH2 0x1170 JUMPI JUMPDEST POP POP POP POP POP DUP2 MSTORE PUSH1 0x20 ADD PUSH1 0x6 DUP3 ADD DUP1 SLOAD DUP1 PUSH1 0x20 MUL PUSH1 0x20 ADD PUSH1 0x40 MLOAD SWAP1 DUP2 ADD PUSH1 0x40 MSTORE DUP1 SWAP3 SWAP2 SWAP1 DUP2 DUP2 MSTORE PUSH1 0x20 ADD DUP3 DUP1 SLOAD DUP1 ISZERO PUSH2 0x11DC JUMPI PUSH1 0x20 MUL DUP3 ADD SWAP2 SWAP1 PUSH1 0x0 MSTORE PUSH1 0x20 PUSH1 0x0 KECCAK256 SWAP1 JUMPDEST DUP2 SLOAD DUP2 MSTORE PUSH1 0x20 ADD SWAP1 PUSH1 0x1 ADD SWAP1 DUP1 DUP4 GT PUSH2 0x11C8 JUMPI JUMPDEST POP POP POP POP POP DUP2 MSTORE POP POP SWAP3 POP POP POP SWAP3 SWAP2 POP POP JUMP JUMPDEST PUSH1 0x0 JUMPDEST DUP3 MLOAD DUP2 LT ISZERO PUSH2 0x12F2 JUMPI PUSH1 0x0 DUP4 DUP3 DUP2 MLOAD DUP2 LT PUSH2 0x1210 JUMPI PUSH2 0x120F PUSH2 0x3523 JUMP JUMPDEST JUMPDEST PUSH1 0x20 MUL PUSH1 0x20 ADD ADD MLOAD SWAP1 POP PUSH2 0x1259 DUP2 PUSH1 0x40 MLOAD DUP1 PUSH1 0x40 ADD PUSH1 0x40 MSTORE DUP1 PUSH1 0xB DUP2 MSTORE PUSH1 0x20 ADD PUSH32 0x7573657257616C6C657473000000000000000000000000000000000000000000 DUP2 MSTORE POP PUSH2 0x1E84 JUMP JUMPDEST PUSH2 0x12DE JUMPI DUP3 PUSH1 0xB DUP3 PUSH1 0x40 MLOAD PUSH2 0x126E SWAP2 SWAP1 PUSH2 0x322E JUMP JUMPDEST SWAP1 DUP2 MSTORE PUSH1 0x20 ADD PUSH1 0x40 MLOAD DUP1 SWAP2 SUB SWAP1 KECCAK256 SWAP1 DUP2 PUSH2 0x1288 SWAP2 SWAP1 PUSH2 0x3451 JUMP JUMPDEST POP PUSH1 0x6 DUP4 PUSH1 0x40 MLOAD PUSH2 0x1299 SWAP2 SWAP1 PUSH2 0x322E JUMP JUMPDEST SWAP1 DUP2 MSTORE PUSH1 0x20 ADD PUSH1 0x40 MLOAD DUP1 SWAP2 SUB SWAP1 KECCAK256 PUSH1 0x3 ADD DUP2 SWAP1 DUP1 PUSH1 0x1 DUP2 SLOAD ADD DUP1 DUP3 SSTORE DUP1 SWAP2 POP POP PUSH1 0x1 SWAP1 SUB SWAP1 PUSH1 0x0 MSTORE PUSH1 0x20 PUSH1 0x0 KECCAK256 ADD PUSH1 0x0 SWAP1 SWAP2 SWAP1 SWAP2 SWAP1 SWAP2 POP SWAP1 DUP2 PUSH2 0x12DC SWAP2 SWAP1 PUSH2 0x3451 JUMP JUMPDEST POP JUMPDEST POP DUP1 DUP1 PUSH2 0x12EA SWAP1 PUSH2 0x3581 JUMP JUMPDEST SWAP2 POP POP PUSH2 0x11F2 JUMP JUMPDEST POP POP POP JUMP JUMPDEST PUSH1 0x1 SLOAD DUP2 JUMP JUMPDEST PUSH1 0x40 MLOAD DUP1 PUSH2 0x120 ADD PUSH1 0x40 MSTORE DUP1 PUSH1 0x1 SLOAD DUP2 MSTORE PUSH1 0x20 ADD DUP10 DUP2 MSTORE PUSH1 0x20 ADD DUP9 DUP2 MSTORE PUSH1 0x20 ADD DUP8 DUP2 MSTORE PUSH1 0x20 ADD DUP7 DUP2 MSTORE PUSH1 0x20 ADD DUP6 DUP2 MSTORE PUSH1 0x20 ADD DUP5 DUP2 MSTORE PUSH1 0x20 ADD DUP4 DUP2 MSTORE PUSH1 0x20 ADD DUP3 DUP2 MSTORE POP PUSH1 0x5 PUSH1 0x0 PUSH1 0x1 SLOAD DUP2 MSTORE PUSH1 0x20 ADD SWAP1 DUP2 MSTORE PUSH1 0x20 ADD PUSH1 0x0 KECCAK256 PUSH1 0x0 DUP3 ADD MLOAD DUP2 PUSH1 0x0 ADD SSTORE PUSH1 0x20 DUP3 ADD MLOAD DUP2 PUSH1 0x1 ADD SWAP1 DUP2 PUSH2 0x1373 SWAP2 SWAP1 PUSH2 0x3451 JUMP JUMPDEST POP PUSH1 0x40 DUP3 ADD MLOAD DUP2 PUSH1 0x2 ADD SWAP1 DUP2 PUSH2 0x1389 SWAP2 SWAP1 PUSH2 0x3451 JUMP JUMPDEST POP PUSH1 0x60 DUP3 ADD MLOAD DUP2 PUSH1 0x3 ADD SWAP1 DUP2 PUSH2 0x139F SWAP2 SWAP1 PUSH2 0x3451 JUMP JUMPDEST POP PUSH1 0x80 DUP3 ADD MLOAD DUP2 PUSH1 0x4 ADD SWAP1 DUP2 PUSH2 0x13B5 SWAP2 SWAP1 PUSH2 0x3451 JUMP JUMPDEST POP PUSH1 0xA0 DUP3 ADD MLOAD DUP2 PUSH1 0x5 ADD SWAP1 DUP2 PUSH2 0x13CB SWAP2 SWAP1 PUSH2 0x3451 JUMP JUMPDEST POP PUSH1 0xC0 DUP3 ADD MLOAD DUP2 PUSH1 0x6 ADD SSTORE PUSH1 0xE0 DUP3 ADD MLOAD DUP2 PUSH1 0x7 ADD SSTORE PUSH2 0x100 DUP3 ADD MLOAD DUP2 PUSH1 0x8 ADD SWAP1 DUP2 PUSH2 0x13F6 SWAP2 SWAP1 PUSH2 0x3451 JUMP JUMPDEST POP SWAP1 POP POP PUSH1 0x6 DUP9 PUSH1 0x40 MLOAD PUSH2 0x140A SWAP2 SWAP1 PUSH2 0x322E JUMP JUMPDEST SWAP1 DUP2 MSTORE PUSH1 0x20 ADD PUSH1 0x40 MLOAD DUP1 SWAP2 SUB SWAP1 KECCAK256 PUSH1 0x4 ADD PUSH1 0x1 SLOAD SWAP1 DUP1 PUSH1 0x1 DUP2 SLOAD ADD DUP1 DUP3 SSTORE DUP1 SWAP2 POP POP PUSH1 0x1 SWAP1 SUB SWAP1 PUSH1 0x0 MSTORE PUSH1 0x20 PUSH1 0x0 KECCAK256 ADD PUSH1 0x0 SWAP1 SWAP2 SWAP1 SWAP2 SWAP1 SWAP2 POP SSTORE PUSH1 0x3 PUSH1 0x1 SLOAD SWAP1 DUP1 PUSH1 0x1 DUP2 SLOAD ADD DUP1 DUP3 SSTORE DUP1 SWAP2 POP POP PUSH1 0x1 SWAP1 SUB SWAP1 PUSH1 0x0 MSTORE PUSH1 0x20 PUSH1 0x0 KECCAK256 ADD PUSH1 0x0 SWAP1 SWAP2 SWAP1 SWAP2 SWAP1 SWAP2 POP SSTORE PUSH1 0x1 PUSH1 0x0 DUP2 SLOAD DUP1 SWAP3 SWAP2 SWAP1 PUSH2 0x1482 SWAP1 PUSH2 0x3581 JUMP JUMPDEST SWAP2 SWAP1 POP SSTORE POP POP POP POP POP POP POP POP POP JUMP JUMPDEST PUSH2 0x1499 PUSH2 0x2552 JUMP JUMPDEST PUSH1 0x0 PUSH1 0xB DUP4 PUSH1 0x40 MLOAD PUSH2 0x14AB SWAP2 SWAP1 PUSH2 0x322E JUMP JUMPDEST SWAP1 DUP2 MSTORE PUSH1 0x20 ADD PUSH1 0x40 MLOAD DUP1 SWAP2 SUB SWAP1 KECCAK256 DUP1 SLOAD PUSH2 0x14C4 SWAP1 PUSH2 0x3274 JUMP JUMPDEST DUP1 PUSH1 0x1F ADD PUSH1 0x20 DUP1 SWAP2 DIV MUL PUSH1 0x20 ADD PUSH1 0x40 MLOAD SWAP1 DUP2 ADD PUSH1 0x40 MSTORE DUP1 SWAP3 SWAP2 SWAP1 DUP2 DUP2 MSTORE PUSH1 0x20 ADD DUP3 DUP1 SLOAD PUSH2 0x14F0 SWAP1 PUSH2 0x3274 JUMP JUMPDEST DUP1 ISZERO PUSH2 0x153D JUMPI DUP1 PUSH1 0x1F LT PUSH2 0x1512 JUMPI PUSH2 0x100 DUP1 DUP4 SLOAD DIV MUL DUP4 MSTORE SWAP2 PUSH1 0x20 ADD SWAP2 PUSH2 0x153D JUMP JUMPDEST DUP3 ADD SWAP2 SWAP1 PUSH1 0x0 MSTORE PUSH1 0x20 PUSH1 0x0 KECCAK256 SWAP1 JUMPDEST DUP2 SLOAD DUP2 MSTORE SWAP1 PUSH1 0x1 ADD SWAP1 PUSH1 0x20 ADD DUP1 DUP4 GT PUSH2 0x1520 JUMPI DUP3 SWAP1 SUB PUSH1 0x1F AND DUP3 ADD SWAP2 JUMPDEST POP POP POP POP POP SWAP1 POP PUSH1 0x6 DUP2 PUSH1 0x40 MLOAD PUSH2 0x1554 SWAP2 SWAP1 PUSH2 0x322E JUMP JUMPDEST SWAP1 DUP2 MSTORE PUSH1 0x20 ADD PUSH1 0x40 MLOAD DUP1 SWAP2 SUB SWAP1 KECCAK256 PUSH1 0x40 MLOAD DUP1 PUSH1 0xE0 ADD PUSH1 0x40 MSTORE SWAP1 DUP2 PUSH1 0x0 DUP3 ADD DUP1 SLOAD PUSH2 0x157D SWAP1 PUSH2 0x3274 JUMP JUMPDEST DUP1 PUSH1 0x1F ADD PUSH1 0x20 DUP1 SWAP2 DIV MUL PUSH1 0x20 ADD PUSH1 0x40 MLOAD SWAP1 DUP2 ADD PUSH1 0x40 MSTORE DUP1 SWAP3 SWAP2 SWAP1 DUP2 DUP2 MSTORE PUSH1 0x20 ADD DUP3 DUP1 SLOAD PUSH2 0x15A9 SWAP1 PUSH2 0x3274 JUMP JUMPDEST DUP1 ISZERO PUSH2 0x15F6 JUMPI DUP1 PUSH1 0x1F LT PUSH2 0x15CB JUMPI PUSH2 0x100 DUP1 DUP4 SLOAD DIV MUL DUP4 MSTORE SWAP2 PUSH1 0x20 ADD SWAP2 PUSH2 0x15F6 JUMP JUMPDEST DUP3 ADD SWAP2 SWAP1 PUSH1 0x0 MSTORE PUSH1 0x20 PUSH1 0x0 KECCAK256 SWAP1 JUMPDEST DUP2 SLOAD DUP2 MSTORE SWAP1 PUSH1 0x1 ADD SWAP1 PUSH1 0x20 ADD DUP1 DUP4 GT PUSH2 0x15D9 JUMPI DUP3 SWAP1 SUB PUSH1 0x1F AND DUP3 ADD SWAP2 JUMPDEST POP POP POP POP POP DUP2 MSTORE PUSH1 0x20 ADD PUSH1 0x1 DUP3 ADD DUP1 SLOAD PUSH2 0x160F SWAP1 PUSH2 0x3274 JUMP JUMPDEST DUP1 PUSH1 0x1F ADD PUSH1 0x20 DUP1 SWAP2 DIV MUL PUSH1 0x20 ADD PUSH1 0x40 MLOAD SWAP1 DUP2 ADD PUSH1 0x40 MSTORE DUP1 SWAP3 SWAP2 SWAP1 DUP2 DUP2 MSTORE PUSH1 0x20 ADD DUP3 DUP1 SLOAD PUSH2 0x163B SWAP1 PUSH2 0x3274 JUMP JUMPDEST DUP1 ISZERO PUSH2 0x1688 JUMPI DUP1 PUSH1 0x1F LT PUSH2 0x165D JUMPI PUSH2 0x100 DUP1 DUP4 SLOAD DIV MUL DUP4 MSTORE SWAP2 PUSH1 0x20 ADD SWAP2 PUSH2 0x1688 JUMP JUMPDEST DUP3 ADD SWAP2 SWAP1 PUSH1 0x0 MSTORE PUSH1 0x20 PUSH1 0x0 KECCAK256 SWAP1 JUMPDEST DUP2 SLOAD DUP2 MSTORE SWAP1 PUSH1 0x1 ADD SWAP1 PUSH1 0x20 ADD DUP1 DUP4 GT PUSH2 0x166B JUMPI DUP3 SWAP1 SUB PUSH1 0x1F AND DUP3 ADD SWAP2 JUMPDEST POP POP POP POP POP DUP2 MSTORE PUSH1 0x20 ADD PUSH1 0x2 DUP3 ADD DUP1 SLOAD PUSH2 0x16A1 SWAP1 PUSH2 0x3274 JUMP JUMPDEST DUP1 PUSH1 0x1F ADD PUSH1 0x20 DUP1 SWAP2 DIV MUL PUSH1 0x20 ADD PUSH1 0x40 MLOAD SWAP1 DUP2 ADD PUSH1 0x40 MSTORE DUP1 SWAP3 SWAP2 SWAP1 DUP2 DUP2 MSTORE PUSH1 0x20 ADD DUP3 DUP1 SLOAD PUSH2 0x16CD SWAP1 PUSH2 0x3274 JUMP JUMPDEST DUP1 ISZERO PUSH2 0x171A JUMPI DUP1 PUSH1 0x1F LT PUSH2 0x16EF JUMPI PUSH2 0x100 DUP1 DUP4 SLOAD DIV MUL DUP4 MSTORE SWAP2 PUSH1 0x20 ADD SWAP2 PUSH2 0x171A JUMP JUMPDEST DUP3 ADD SWAP2 SWAP1 PUSH1 0x0 MSTORE PUSH1 0x20 PUSH1 0x0 KECCAK256 SWAP1 JUMPDEST DUP2 SLOAD DUP2 MSTORE SWAP1 PUSH1 0x1 ADD SWAP1 PUSH1 0x20 ADD DUP1 DUP4 GT PUSH2 0x16FD JUMPI DUP3 SWAP1 SUB PUSH1 0x1F AND DUP3 ADD SWAP2 JUMPDEST POP POP POP POP POP DUP2 MSTORE PUSH1 0x20 ADD PUSH1 0x3 DUP3 ADD DUP1 SLOAD DUP1 PUSH1 0x20 MUL PUSH1 0x20 ADD PUSH1 0x40 MLOAD SWAP1 DUP2 ADD PUSH1 0x40 MSTORE DUP1 SWAP3 SWAP2 SWAP1 DUP2 DUP2 MSTORE PUSH1 0x20 ADD PUSH1 0x0 SWAP1 JUMPDEST DUP3 DUP3 LT ISZERO PUSH2 0x17F4 JUMPI DUP4 DUP3 SWAP1 PUSH1 0x0 MSTORE PUSH1 0x20 PUSH1 0x0 KECCAK256 ADD DUP1 SLOAD PUSH2 0x1767 SWAP1 PUSH2 0x3274 JUMP JUMPDEST DUP1 PUSH1 0x1F ADD PUSH1 0x20 DUP1 SWAP2 DIV MUL PUSH1 0x20 ADD PUSH1 0x40 MLOAD SWAP1 DUP2 ADD PUSH1 0x40 MSTORE DUP1 SWAP3 SWAP2 SWAP1 DUP2 DUP2 MSTORE PUSH1 0x20 ADD DUP3 DUP1 SLOAD PUSH2 0x1793 SWAP1 PUSH2 0x3274 JUMP JUMPDEST DUP1 ISZERO PUSH2 0x17E0 JUMPI DUP1 PUSH1 0x1F LT PUSH2 0x17B5 JUMPI PUSH2 0x100 DUP1 DUP4 SLOAD DIV MUL DUP4 MSTORE SWAP2 PUSH1 0x20 ADD SWAP2 PUSH2 0x17E0 JUMP JUMPDEST DUP3 ADD SWAP2 SWAP1 PUSH1 0x0 MSTORE PUSH1 0x20 PUSH1 0x0 KECCAK256 SWAP1 JUMPDEST DUP2 SLOAD DUP2 MSTORE SWAP1 PUSH1 0x1 ADD SWAP1 PUSH1 0x20 ADD DUP1 DUP4 GT PUSH2 0x17C3 JUMPI DUP3 SWAP1 SUB PUSH1 0x1F AND DUP3 ADD SWAP2 JUMPDEST POP POP POP POP POP DUP2 MSTORE PUSH1 0x20 ADD SWAP1 PUSH1 0x1 ADD SWAP1 PUSH2 0x1748 JUMP JUMPDEST POP POP POP POP DUP2 MSTORE PUSH1 0x20 ADD PUSH1 0x4 DUP3 ADD DUP1 SLOAD DUP1 PUSH1 0x20 MUL PUSH1 0x20 ADD PUSH1 0x40 MLOAD SWAP1 DUP2 ADD PUSH1 0x40 MSTORE DUP1 SWAP3 SWAP2 SWAP1 DUP2 DUP2 MSTORE PUSH1 0x20 ADD DUP3 DUP1 SLOAD DUP1 ISZERO PUSH2 0x184B JUMPI PUSH1 0x20 MUL DUP3 ADD SWAP2 SWAP1 PUSH1 0x0 MSTORE PUSH1 0x20 PUSH1 0x0 KECCAK256 SWAP1 JUMPDEST DUP2 SLOAD DUP2 MSTORE PUSH1 0x20 ADD SWAP1 PUSH1 0x1 ADD SWAP1 DUP1 DUP4 GT PUSH2 0x1837 JUMPI JUMPDEST POP POP POP POP POP DUP2 MSTORE PUSH1 0x20 ADD PUSH1 0x5 DUP3 ADD DUP1 SLOAD DUP1 PUSH1 0x20 MUL PUSH1 0x20 ADD PUSH1 0x40 MLOAD SWAP1 DUP2 ADD PUSH1 0x40 MSTORE DUP1 SWAP3 SWAP2 SWAP1 DUP2 DUP2 MSTORE PUSH1 0x20 ADD DUP3 DUP1 SLOAD DUP1 ISZERO PUSH2 0x18A3 JUMPI PUSH1 0x20 MUL DUP3 ADD SWAP2 SWAP1 PUSH1 0x0 MSTORE PUSH1 0x20 PUSH1 0x0 KECCAK256 SWAP1 JUMPDEST DUP2 SLOAD DUP2 MSTORE PUSH1 0x20 ADD SWAP1 PUSH1 0x1 ADD SWAP1 DUP1 DUP4 GT PUSH2 0x188F JUMPI JUMPDEST POP POP POP POP POP DUP2 MSTORE PUSH1 0x20 ADD PUSH1 0x6 DUP3 ADD DUP1 SLOAD DUP1 PUSH1 0x20 MUL PUSH1 0x20 ADD PUSH1 0x40 MLOAD SWAP1 DUP2 ADD PUSH1 0x40 MSTORE DUP1 SWAP3 SWAP2 SWAP1 DUP2 DUP2 MSTORE PUSH1 0x20 ADD DUP3 DUP1 SLOAD DUP1 ISZERO PUSH2 0x18FB JUMPI PUSH1 0x20 MUL DUP3 ADD SWAP2 SWAP1 PUSH1 0x0 MSTORE PUSH1 0x20 PUSH1 0x0 KECCAK256 SWAP1 JUMPDEST DUP2 SLOAD DUP2 MSTORE PUSH1 0x20 ADD SWAP1 PUSH1 0x1 ADD SWAP1 DUP1 DUP4 GT PUSH2 0x18E7 JUMPI JUMPDEST POP POP POP POP POP DUP2 MSTORE POP POP SWAP2 POP POP SWAP2 SWAP1 POP JUMP JUMPDEST PUSH1 0x0 DUP1 PUSH1 0x0 SWAP1 SLOAD SWAP1 PUSH2 0x100 EXP SWAP1 DIV PUSH20 0xFFFFFFFFFFFFFFFFFFFFFFFFFFFFFFFFFFFFFFFF AND SWAP1 POP SWAP1 JUMP JUMPDEST PUSH1 0x2 SLOAD DUP2 JUMP JUMPDEST PUSH1 0x0 DUP2 MLOAD DUP4 MLOAD EQ PUSH2 0x194F JUMPI PUSH1 0x0 SWAP1 POP PUSH2 0x1A03 JUMP JUMPDEST PUSH1 0x0 JUMPDEST DUP4 MLOAD DUP2 LT ISZERO PUSH2 0x19FD JUMPI DUP3 DUP2 DUP2 MLOAD DUP2 LT PUSH2 0x196E JUMPI PUSH2 0x196D PUSH2 0x3523 JUMP JUMPDEST JUMPDEST PUSH1 0x20 ADD ADD MLOAD PUSH1 0xF8 SHR PUSH1 0xF8 SHL PUSH31 0xFFFFFFFFFFFFFFFFFFFFFFFFFFFFFFFFFFFFFFFFFFFFFFFFFFFFFFFFFFFFFF NOT AND DUP5 DUP3 DUP2 MLOAD DUP2 LT PUSH2 0x19AE JUMPI PUSH2 0x19AD PUSH2 0x3523 JUMP JUMPDEST JUMPDEST PUSH1 0x20 ADD ADD MLOAD PUSH1 0xF8 SHR PUSH1 0xF8 SHL PUSH31 0xFFFFFFFFFFFFFFFFFFFFFFFFFFFFFFFFFFFFFFFFFFFFFFFFFFFFFFFFFFFFFF NOT AND EQ PUSH2 0x19EA JUMPI PUSH1 0x0 SWAP2 POP POP PUSH2 0x1A03 JUMP JUMPDEST DUP1 DUP1 PUSH2 0x19F5 SWAP1 PUSH2 0x3581 JUMP JUMPDEST SWAP2 POP POP PUSH2 0x1952 JUMP JUMPDEST POP PUSH1 0x1 SWAP1 POP JUMPDEST SWAP3 SWAP2 POP POP JUMP JUMPDEST PUSH2 0x1A11 PUSH2 0x2552 JUMP JUMPDEST PUSH1 0x0 PUSH1 0xC DUP4 PUSH1 0x40 MLOAD PUSH2 0x1A23 SWAP2 SWAP1 PUSH2 0x322E JUMP JUMPDEST SWAP1 DUP2 MSTORE PUSH1 0x20 ADD PUSH1 0x40 MLOAD DUP1 SWAP2 SUB SWAP1 KECCAK256 DUP1 SLOAD PUSH2 0x1A3C SWAP1 PUSH2 0x3274 JUMP JUMPDEST DUP1 PUSH1 0x1F ADD PUSH1 0x20 DUP1 SWAP2 DIV MUL PUSH1 0x20 ADD PUSH1 0x40 MLOAD SWAP1 DUP2 ADD PUSH1 0x40 MSTORE DUP1 SWAP3 SWAP2 SWAP1 DUP2 DUP2 MSTORE PUSH1 0x20 ADD DUP3 DUP1 SLOAD PUSH2 0x1A68 SWAP1 PUSH2 0x3274 JUMP JUMPDEST DUP1 ISZERO PUSH2 0x1AB5 JUMPI DUP1 PUSH1 0x1F LT PUSH2 0x1A8A JUMPI PUSH2 0x100 DUP1 DUP4 SLOAD DIV MUL DUP4 MSTORE SWAP2 PUSH1 0x20 ADD SWAP2 PUSH2 0x1AB5 JUMP JUMPDEST DUP3 ADD SWAP2 SWAP1 PUSH1 0x0 MSTORE PUSH1 0x20 PUSH1 0x0 KECCAK256 SWAP1 JUMPDEST DUP2 SLOAD DUP2 MSTORE SWAP1 PUSH1 0x1 ADD SWAP1 PUSH1 0x20 ADD DUP1 DUP4 GT PUSH2 0x1A98 JUMPI DUP3 SWAP1 SUB PUSH1 0x1F AND DUP3 ADD SWAP2 JUMPDEST POP POP POP POP POP SWAP1 POP PUSH1 0x6 DUP2 PUSH1 0x40 MLOAD PUSH2 0x1ACC SWAP2 SWAP1 PUSH2 0x322E JUMP JUMPDEST SWAP1 DUP2 MSTORE PUSH1 0x20 ADD PUSH1 0x40 MLOAD DUP1 SWAP2 SUB SWAP1 KECCAK256 PUSH1 0x40 MLOAD DUP1 PUSH1 0xE0 ADD PUSH1 0x40 MSTORE SWAP1 DUP2 PUSH1 0x0 DUP3 ADD DUP1 SLOAD PUSH2 0x1AF5 SWAP1 PUSH2 0x3274 JUMP JUMPDEST DUP1 PUSH1 0x1F ADD PUSH1 0x20 DUP1 SWAP2 DIV MUL PUSH1 0x20 ADD PUSH1 0x40 MLOAD SWAP1 DUP2 ADD PUSH1 0x40 MSTORE DUP1 SWAP3 SWAP2 SWAP1 DUP2 DUP2 MSTORE PUSH1 0x20 ADD DUP3 DUP1 SLOAD PUSH2 0x1B21 SWAP1 PUSH2 0x3274 JUMP JUMPDEST DUP1 ISZERO PUSH2 0x1B6E JUMPI DUP1 PUSH1 0x1F LT PUSH2 0x1B43 JUMPI PUSH2 0x100 DUP1 DUP4 SLOAD DIV MUL DUP4 MSTORE SWAP2 PUSH1 0x20 ADD SWAP2 PUSH2 0x1B6E JUMP JUMPDEST DUP3 ADD SWAP2 SWAP1 PUSH1 0x0 MSTORE PUSH1 0x20 PUSH1 0x0 KECCAK256 SWAP1 JUMPDEST DUP2 SLOAD DUP2 MSTORE SWAP1 PUSH1 0x1 ADD SWAP1 PUSH1 0x20 ADD DUP1 DUP4 GT PUSH2 0x1B51 JUMPI DUP3 SWAP1 SUB PUSH1 0x1F AND DUP3 ADD SWAP2 JUMPDEST POP POP POP POP POP DUP2 MSTORE PUSH1 0x20 ADD PUSH1 0x1 DUP3 ADD DUP1 SLOAD PUSH2 0x1B87 SWAP1 PUSH2 0x3274 JUMP JUMPDEST DUP1 PUSH1 0x1F ADD PUSH1 0x20 DUP1 SWAP2 DIV MUL PUSH1 0x20 ADD PUSH1 0x40 MLOAD SWAP1 DUP2 ADD PUSH1 0x40 MSTORE DUP1 SWAP3 SWAP2 SWAP1 DUP2 DUP2 MSTORE PUSH1 0x20 ADD DUP3 DUP1 SLOAD PUSH2 0x1BB3 SWAP1 PUSH2 0x3274 JUMP JUMPDEST DUP1 ISZERO PUSH2 0x1C00 JUMPI DUP1 PUSH1 0x1F LT PUSH2 0x1BD5 JUMPI PUSH2 0x100 DUP1 DUP4 SLOAD DIV MUL DUP4 MSTORE SWAP2 PUSH1 0x20 ADD SWAP2 PUSH2 0x1C00 JUMP JUMPDEST DUP3 ADD SWAP2 SWAP1 PUSH1 0x0 MSTORE PUSH1 0x20 PUSH1 0x0 KECCAK256 SWAP1 JUMPDEST DUP2 SLOAD DUP2 MSTORE SWAP1 PUSH1 0x1 ADD SWAP1 PUSH1 0x20 ADD DUP1 DUP4 GT PUSH2 0x1BE3 JUMPI DUP3 SWAP1 SUB PUSH1 0x1F AND DUP3 ADD SWAP2 JUMPDEST POP POP POP POP POP DUP2 MSTORE PUSH1 0x20 ADD PUSH1 0x2 DUP3 ADD DUP1 SLOAD PUSH2 0x1C19 SWAP1 PUSH2 0x3274 JUMP JUMPDEST DUP1 PUSH1 0x1F ADD PUSH1 0x20 DUP1 SWAP2 DIV MUL PUSH1 0x20 ADD PUSH1 0x40 MLOAD SWAP1 DUP2 ADD PUSH1 0x40 MSTORE DUP1 SWAP3 SWAP2 SWAP1 DUP2 DUP2 MSTORE PUSH1 0x20 ADD DUP3 DUP1 SLOAD PUSH2 0x1C45 SWAP1 PUSH2 0x3274 JUMP JUMPDEST DUP1 ISZERO PUSH2 0x1C92 JUMPI DUP1 PUSH1 0x1F LT PUSH2 0x1C67 JUMPI PUSH2 0x100 DUP1 DUP4 SLOAD DIV MUL DUP4 MSTORE SWAP2 PUSH1 0x20 ADD SWAP2 PUSH2 0x1C92 JUMP JUMPDEST DUP3 ADD SWAP2 SWAP1 PUSH1 0x0 MSTORE PUSH1 0x20 PUSH1 0x0 KECCAK256 SWAP1 JUMPDEST DUP2 SLOAD DUP2 MSTORE SWAP1 PUSH1 0x1 ADD SWAP1 PUSH1 0x20 ADD DUP1 DUP4 GT PUSH2 0x1C75 JUMPI DUP3 SWAP1 SUB PUSH1 0x1F AND DUP3 ADD SWAP2 JUMPDEST POP POP POP POP POP DUP2 MSTORE PUSH1 0x20 ADD PUSH1 0x3 DUP3 ADD DUP1 SLOAD DUP1 PUSH1 0x20 MUL PUSH1 0x20 ADD PUSH1 0x40 MLOAD SWAP1 DUP2 ADD PUSH1 0x40 MSTORE DUP1 SWAP3 SWAP2 SWAP1 DUP2 DUP2 MSTORE PUSH1 0x20 ADD PUSH1 0x0 SWAP1 JUMPDEST DUP3 DUP3 LT ISZERO PUSH2 0x1D6C JUMPI DUP4 DUP3 SWAP1 PUSH1 0x0 MSTORE PUSH1 0x20 PUSH1 0x0 KECCAK256 ADD DUP1 SLOAD PUSH2 0x1CDF SWAP1 PUSH2 0x3274 JUMP JUMPDEST DUP1 PUSH1 0x1F ADD PUSH1 0x20 DUP1 SWAP2 DIV MUL PUSH1 0x20 ADD PUSH1 0x40 MLOAD SWAP1 DUP2 ADD PUSH1 0x40 MSTORE DUP1 SWAP3 SWAP2 SWAP1 DUP2 DUP2 MSTORE PUSH1 0x20 ADD DUP3 DUP1 SLOAD PUSH2 0x1D0B SWAP1 PUSH2 0x3274 JUMP JUMPDEST DUP1 ISZERO PUSH2 0x1D58 JUMPI DUP1 PUSH1 0x1F LT PUSH2 0x1D2D JUMPI PUSH2 0x100 DUP1 DUP4 SLOAD DIV MUL DUP4 MSTORE SWAP2 PUSH1 0x20 ADD SWAP2 PUSH2 0x1D58 JUMP JUMPDEST DUP3 ADD SWAP2 SWAP1 PUSH1 0x0 MSTORE PUSH1 0x20 PUSH1 0x0 KECCAK256 SWAP1 JUMPDEST DUP2 SLOAD DUP2 MSTORE SWAP1 PUSH1 0x1 ADD SWAP1 PUSH1 0x20 ADD DUP1 DUP4 GT PUSH2 0x1D3B JUMPI DUP3 SWAP1 SUB PUSH1 0x1F AND DUP3 ADD SWAP2 JUMPDEST POP POP POP POP POP DUP2 MSTORE PUSH1 0x20 ADD SWAP1 PUSH1 0x1 ADD SWAP1 PUSH2 0x1CC0 JUMP JUMPDEST POP POP POP POP DUP2 MSTORE PUSH1 0x20 ADD PUSH1 0x4 DUP3 ADD DUP1 SLOAD DUP1 PUSH1 0x20 MUL PUSH1 0x20 ADD PUSH1 0x40 MLOAD SWAP1 DUP2 ADD PUSH1 0x40 MSTORE DUP1 SWAP3 SWAP2 SWAP1 DUP2 DUP2 MSTORE PUSH1 0x20 ADD DUP3 DUP1 SLOAD DUP1 ISZERO PUSH2 0x1DC3 JUMPI PUSH1 0x20 MUL DUP3 ADD SWAP2 SWAP1 PUSH1 0x0 MSTORE PUSH1 0x20 PUSH1 0x0 KECCAK256 SWAP1 JUMPDEST DUP2 SLOAD DUP2 MSTORE PUSH1 0x20 ADD SWAP1 PUSH1 0x1 ADD SWAP1 DUP1 DUP4 GT PUSH2 0x1DAF JUMPI JUMPDEST POP POP POP POP POP DUP2 MSTORE PUSH1 0x20 ADD PUSH1 0x5 DUP3 ADD DUP1 SLOAD DUP1 PUSH1 0x20 MUL PUSH1 0x20 ADD PUSH1 0x40 MLOAD SWAP1 DUP2 ADD PUSH1 0x40 MSTORE DUP1 SWAP3 SWAP2 SWAP1 DUP2 DUP2 MSTORE PUSH1 0x20 ADD DUP3 DUP1 SLOAD DUP1 ISZERO PUSH2 0x1E1B JUMPI PUSH1 0x20 MUL DUP3 ADD SWAP2 SWAP1 PUSH1 0x0 MSTORE PUSH1 0x20 PUSH1 0x0 KECCAK256 SWAP1 JUMPDEST DUP2 SLOAD DUP2 MSTORE PUSH1 0x20 ADD SWAP1 PUSH1 0x1 ADD SWAP1 DUP1 DUP4 GT PUSH2 0x1E07 JUMPI JUMPDEST POP POP POP POP POP DUP2 MSTORE PUSH1 0x20 ADD PUSH1 0x6 DUP3 ADD DUP1 SLOAD DUP1 PUSH1 0x20 MUL PUSH1 0x20 ADD PUSH1 0x40 MLOAD SWAP1 DUP2 ADD PUSH1 0x40 MSTORE DUP1 SWAP3 SWAP2 SWAP1 DUP2 DUP2 MSTORE PUSH1 0x20 ADD DUP3 DUP1 SLOAD DUP1 ISZERO PUSH2 0x1E73 JUMPI PUSH1 0x20 MUL DUP3 ADD SWAP2 SWAP1 PUSH1 0x0 MSTORE PUSH1 0x20 PUSH1 0x0 KECCAK256 SWAP1 JUMPDEST DUP2 SLOAD DUP2 MSTORE PUSH1 0x20 ADD SWAP1 PUSH1 0x1 ADD SWAP1 DUP1 DUP4 GT PUSH2 0x1E5F JUMPI JUMPDEST POP POP POP POP POP DUP2 MSTORE POP POP SWAP2 POP POP SWAP2 SWAP1 POP JUMP JUMPDEST PUSH1 0x0 PUSH2 0x1EC5 DUP3 PUSH1 0x40 MLOAD DUP1 PUSH1 0x40 ADD PUSH1 0x40 MSTORE DUP1 PUSH1 0xB DUP2 MSTORE PUSH1 0x20 ADD PUSH32 0x7573657257616C6C657473000000000000000000000000000000000000000000 DUP2 MSTORE POP PUSH2 0x193B JUMP JUMPDEST ISZERO PUSH2 0x1F3C JUMPI PUSH1 0x40 MLOAD PUSH1 0x20 ADD PUSH2 0x1ED9 SWAP1 PUSH2 0x35EF JUMP JUMPDEST PUSH1 0x40 MLOAD PUSH1 0x20 DUP2 DUP4 SUB SUB DUP2 MSTORE SWAP1 PUSH1 0x40 MSTORE DUP1 MLOAD SWAP1 PUSH1 0x20 ADD KECCAK256 PUSH1 0xB DUP5 PUSH1 0x40 MLOAD PUSH2 0x1EFF SWAP2 SWAP1 PUSH2 0x322E JUMP JUMPDEST SWAP1 DUP2 MSTORE PUSH1 0x20 ADD PUSH1 0x40 MLOAD DUP1 SWAP2 SUB SWAP1 KECCAK256 PUSH1 0x40 MLOAD PUSH1 0x20 ADD PUSH2 0x1F1D SWAP2 SWAP1 PUSH2 0x3687 JUMP JUMPDEST PUSH1 0x40 MLOAD PUSH1 0x20 DUP2 DUP4 SUB SUB DUP2 MSTORE SWAP1 PUSH1 0x40 MSTORE DUP1 MLOAD SWAP1 PUSH1 0x20 ADD KECCAK256 EQ ISZERO SWAP1 POP PUSH2 0x20AD JUMP JUMPDEST PUSH2 0x1F7B DUP3 PUSH1 0x40 MLOAD DUP1 PUSH1 0x40 ADD PUSH1 0x40 MSTORE DUP1 PUSH1 0x8 DUP2 MSTORE PUSH1 0x20 ADD PUSH32 0x757365724C656E73000000000000000000000000000000000000000000000000 DUP2 MSTORE POP PUSH2 0x193B JUMP JUMPDEST ISZERO PUSH2 0x1FF2 JUMPI PUSH1 0x40 MLOAD PUSH1 0x20 ADD PUSH2 0x1F8F SWAP1 PUSH2 0x35EF JUMP JUMPDEST PUSH1 0x40 MLOAD PUSH1 0x20 DUP2 DUP4 SUB SUB DUP2 MSTORE SWAP1 PUSH1 0x40 MSTORE DUP1 MLOAD SWAP1 PUSH1 0x20 ADD KECCAK256 PUSH1 0xC DUP5 PUSH1 0x40 MLOAD PUSH2 0x1FB5 SWAP2 SWAP1 PUSH2 0x322E JUMP JUMPDEST SWAP1 DUP2 MSTORE PUSH1 0x20 ADD PUSH1 0x40 MLOAD DUP1 SWAP2 SUB SWAP1 KECCAK256 PUSH1 0x40 MLOAD PUSH1 0x20 ADD PUSH2 0x1FD3 SWAP2 SWAP1 PUSH2 0x3687 JUMP JUMPDEST PUSH1 0x40 MLOAD PUSH1 0x20 DUP2 DUP4 SUB SUB DUP2 MSTORE SWAP1 PUSH1 0x40 MSTORE DUP1 MLOAD SWAP1 PUSH1 0x20 ADD KECCAK256 EQ ISZERO SWAP1 POP PUSH2 0x20AD JUMP JUMPDEST PUSH2 0x2031 DUP3 PUSH1 0x40 MLOAD DUP1 PUSH1 0x40 ADD PUSH1 0x40 MSTORE DUP1 PUSH1 0x8 DUP2 MSTORE PUSH1 0x20 ADD PUSH32 0x7573657257434944000000000000000000000000000000000000000000000000 DUP2 MSTORE POP PUSH2 0x193B JUMP JUMPDEST ISZERO PUSH2 0x20A8 JUMPI PUSH1 0x40 MLOAD PUSH1 0x20 ADD PUSH2 0x2045 SWAP1 PUSH2 0x35EF JUMP JUMPDEST PUSH1 0x40 MLOAD PUSH1 0x20 DUP2 DUP4 SUB SUB DUP2 MSTORE SWAP1 PUSH1 0x40 MSTORE DUP1 MLOAD SWAP1 PUSH1 0x20 ADD KECCAK256 PUSH1 0xA DUP5 PUSH1 0x40 MLOAD PUSH2 0x206B SWAP2 SWAP1 PUSH2 0x322E JUMP JUMPDEST SWAP1 DUP2 MSTORE PUSH1 0x20 ADD PUSH1 0x40 MLOAD DUP1 SWAP2 SUB SWAP1 KECCAK256 PUSH1 0x40 MLOAD PUSH1 0x20 ADD PUSH2 0x2089 SWAP2 SWAP1 PUSH2 0x3687 JUMP JUMPDEST PUSH1 0x40 MLOAD PUSH1 0x20 DUP2 DUP4 SUB SUB DUP2 MSTORE SWAP1 PUSH1 0x40 MSTORE DUP1 MLOAD SWAP1 PUSH1 0x20 ADD KECCAK256 EQ ISZERO SWAP1 POP PUSH2 0x20AD JUMP JUMPDEST PUSH1 0x0 SWAP1 POP JUMPDEST SWAP3 SWAP2 POP POP JUMP JUMPDEST PUSH2 0x20BB PUSH2 0x2552 JUMP JUMPDEST PUSH1 0x0 PUSH1 0xA DUP4 PUSH1 0x40 MLOAD PUSH2 0x20CD SWAP2 SWAP1 PUSH2 0x322E JUMP JUMPDEST SWAP1 DUP2 MSTORE PUSH1 0x20 ADD PUSH1 0x40 MLOAD DUP1 SWAP2 SUB SWAP1 KECCAK256 DUP1 SLOAD PUSH2 0x20E6 SWAP1 PUSH2 0x3274 JUMP JUMPDEST DUP1 PUSH1 0x1F ADD PUSH1 0x20 DUP1 SWAP2 DIV MUL PUSH1 0x20 ADD PUSH1 0x40 MLOAD SWAP1 DUP2 ADD PUSH1 0x40 MSTORE DUP1 SWAP3 SWAP2 SWAP1 DUP2 DUP2 MSTORE PUSH1 0x20 ADD DUP3 DUP1 SLOAD PUSH2 0x2112 SWAP1 PUSH2 0x3274 JUMP JUMPDEST DUP1 ISZERO PUSH2 0x215F JUMPI DUP1 PUSH1 0x1F LT PUSH2 0x2134 JUMPI PUSH2 0x100 DUP1 DUP4 SLOAD DIV MUL DUP4 MSTORE SWAP2 PUSH1 0x20 ADD SWAP2 PUSH2 0x215F JUMP JUMPDEST DUP3 ADD SWAP2 SWAP1 PUSH1 0x0 MSTORE PUSH1 0x20 PUSH1 0x0 KECCAK256 SWAP1 JUMPDEST DUP2 SLOAD DUP2 MSTORE SWAP1 PUSH1 0x1 ADD SWAP1 PUSH1 0x20 ADD DUP1 DUP4 GT PUSH2 0x2142 JUMPI DUP3 SWAP1 SUB PUSH1 0x1F AND DUP3 ADD SWAP2 JUMPDEST POP POP POP POP POP SWAP1 POP PUSH1 0x6 DUP2 PUSH1 0x40 MLOAD PUSH2 0x2176 SWAP2 SWAP1 PUSH2 0x322E JUMP JUMPDEST SWAP1 DUP2 MSTORE PUSH1 0x20 ADD PUSH1 0x40 MLOAD DUP1 SWAP2 SUB SWAP1 KECCAK256 PUSH1 0x40 MLOAD DUP1 PUSH1 0xE0 ADD PUSH1 0x40 MSTORE SWAP1 DUP2 PUSH1 0x0 DUP3 ADD DUP1 SLOAD PUSH2 0x219F SWAP1 PUSH2 0x3274 JUMP JUMPDEST DUP1 PUSH1 0x1F ADD PUSH1 0x20 DUP1 SWAP2 DIV MUL PUSH1 0x20 ADD PUSH1 0x40 MLOAD SWAP1 DUP2 ADD PUSH1 0x40 MSTORE DUP1 SWAP3 SWAP2 SWAP1 DUP2 DUP2 MSTORE PUSH1 0x20 ADD DUP3 DUP1 SLOAD PUSH2 0x21CB SWAP1 PUSH2 0x3274 JUMP JUMPDEST DUP1 ISZERO PUSH2 0x2218 JUMPI DUP1 PUSH1 0x1F LT PUSH2 0x21ED JUMPI PUSH2 0x100 DUP1 DUP4 SLOAD DIV MUL DUP4 MSTORE SWAP2 PUSH1 0x20 ADD SWAP2 PUSH2 0x2218 JUMP JUMPDEST DUP3 ADD SWAP2 SWAP1 PUSH1 0x0 MSTORE PUSH1 0x20 PUSH1 0x0 KECCAK256 SWAP1 JUMPDEST DUP2 SLOAD DUP2 MSTORE SWAP1 PUSH1 0x1 ADD SWAP1 PUSH1 0x20 ADD DUP1 DUP4 GT PUSH2 0x21FB JUMPI DUP3 SWAP1 SUB PUSH1 0x1F AND DUP3 ADD SWAP2 JUMPDEST POP POP POP POP POP DUP2 MSTORE PUSH1 0x20 ADD PUSH1 0x1 DUP3 ADD DUP1 SLOAD PUSH2 0x2231 SWAP1 PUSH2 0x3274 JUMP JUMPDEST DUP1 PUSH1 0x1F ADD PUSH1 0x20 DUP1 SWAP2 DIV MUL PUSH1 0x20 ADD PUSH1 0x40 MLOAD SWAP1 DUP2 ADD PUSH1 0x40 MSTORE DUP1 SWAP3 SWAP2 SWAP1 DUP2 DUP2 MSTORE PUSH1 0x20 ADD DUP3 DUP1 SLOAD PUSH2 0x225D SWAP1 PUSH2 0x3274 JUMP JUMPDEST DUP1 ISZERO PUSH2 0x22AA JUMPI DUP1 PUSH1 0x1F LT PUSH2 0x227F JUMPI PUSH2 0x100 DUP1 DUP4 SLOAD DIV MUL DUP4 MSTORE SWAP2 PUSH1 0x20 ADD SWAP2 PUSH2 0x22AA JUMP JUMPDEST DUP3 ADD SWAP2 SWAP1 PUSH1 0x0 MSTORE PUSH1 0x20 PUSH1 0x0 KECCAK256 SWAP1 JUMPDEST DUP2 SLOAD DUP2 MSTORE SWAP1 PUSH1 0x1 ADD SWAP1 PUSH1 0x20 ADD DUP1 DUP4 GT PUSH2 0x228D JUMPI DUP3 SWAP1 SUB PUSH1 0x1F AND DUP3 ADD SWAP2 JUMPDEST POP POP POP POP POP DUP2 MSTORE PUSH1 0x20 ADD PUSH1 0x2 DUP3 ADD DUP1 SLOAD PUSH2 0x22C3 SWAP1 PUSH2 0x3274 JUMP JUMPDEST DUP1 PUSH1 0x1F ADD PUSH1 0x20 DUP1 SWAP2 DIV MUL PUSH1 0x20 ADD PUSH1 0x40 MLOAD SWAP1 DUP2 ADD PUSH1 0x40 MSTORE DUP1 SWAP3 SWAP2 SWAP1 DUP2 DUP2 MSTORE PUSH1 0x20 ADD DUP3 DUP1 SLOAD PUSH2 0x22EF SWAP1 PUSH2 0x3274 JUMP JUMPDEST DUP1 ISZERO PUSH2 0x233C JUMPI DUP1 PUSH1 0x1F LT PUSH2 0x2311 JUMPI PUSH2 0x100 DUP1 DUP4 SLOAD DIV MUL DUP4 MSTORE SWAP2 PUSH1 0x20 ADD SWAP2 PUSH2 0x233C JUMP JUMPDEST DUP3 ADD SWAP2 SWAP1 PUSH1 0x0 MSTORE PUSH1 0x20 PUSH1 0x0 KECCAK256 SWAP1 JUMPDEST DUP2 SLOAD DUP2 MSTORE SWAP1 PUSH1 0x1 ADD SWAP1 PUSH1 0x20 ADD DUP1 DUP4 GT PUSH2 0x231F JUMPI DUP3 SWAP1 SUB PUSH1 0x1F AND DUP3 ADD SWAP2 JUMPDEST POP POP POP POP POP DUP2 MSTORE PUSH1 0x20 ADD PUSH1 0x3 DUP3 ADD DUP1 SLOAD DUP1 PUSH1 0x20 MUL PUSH1 0x20 ADD PUSH1 0x40 MLOAD SWAP1 DUP2 ADD PUSH1 0x40 MSTORE DUP1 SWAP3 SWAP2 SWAP1 DUP2 DUP2 MSTORE PUSH1 0x20 ADD PUSH1 0x0 SWAP1 JUMPDEST DUP3 DUP3 LT ISZERO PUSH2 0x2416 JUMPI DUP4 DUP3 SWAP1 PUSH1 0x0 MSTORE PUSH1 0x20 PUSH1 0x0 KECCAK256 ADD DUP1 SLOAD PUSH2 0x2389 SWAP1 PUSH2 0x3274 JUMP JUMPDEST DUP1 PUSH1 0x1F ADD PUSH1 0x20 DUP1 SWAP2 DIV MUL PUSH1 0x20 ADD PUSH1 0x40 MLOAD SWAP1 DUP2 ADD PUSH1 0x40 MSTORE DUP1 SWAP3 SWAP2 SWAP1 DUP2 DUP2 MSTORE PUSH1 0x20 ADD DUP3 DUP1 SLOAD PUSH2 0x23B5 SWAP1 PUSH2 0x3274 JUMP JUMPDEST DUP1 ISZERO PUSH2 0x2402 JUMPI DUP1 PUSH1 0x1F LT PUSH2 0x23D7 JUMPI PUSH2 0x100 DUP1 DUP4 SLOAD DIV MUL DUP4 MSTORE SWAP2 PUSH1 0x20 ADD SWAP2 PUSH2 0x2402 JUMP JUMPDEST DUP3 ADD SWAP2 SWAP1 PUSH1 0x0 MSTORE PUSH1 0x20 PUSH1 0x0 KECCAK256 SWAP1 JUMPDEST DUP2 SLOAD DUP2 MSTORE SWAP1 PUSH1 0x1 ADD SWAP1 PUSH1 0x20 ADD DUP1 DUP4 GT PUSH2 0x23E5 JUMPI DUP3 SWAP1 SUB PUSH1 0x1F AND DUP3 ADD SWAP2 JUMPDEST POP POP POP POP POP DUP2 MSTORE PUSH1 0x20 ADD SWAP1 PUSH1 0x1 ADD SWAP1 PUSH2 0x236A JUMP JUMPDEST POP POP POP POP DUP2 MSTORE PUSH1 0x20 ADD PUSH1 0x4 DUP3 ADD DUP1 SLOAD DUP1 PUSH1 0x20 MUL PUSH1 0x20 ADD PUSH1 0x40 MLOAD SWAP1 DUP2 ADD PUSH1 0x40 MSTORE DUP1 SWAP3 SWAP2 SWAP1 DUP2 DUP2 MSTORE PUSH1 0x20 ADD DUP3 DUP1 SLOAD DUP1 ISZERO PUSH2 0x246D JUMPI PUSH1 0x20 MUL DUP3 ADD SWAP2 SWAP1 PUSH1 0x0 MSTORE PUSH1 0x20 PUSH1 0x0 KECCAK256 SWAP1 JUMPDEST DUP2 SLOAD DUP2 MSTORE PUSH1 0x20 ADD SWAP1 PUSH1 0x1 ADD SWAP1 DUP1 DUP4 GT PUSH2 0x2459 JUMPI JUMPDEST POP POP POP POP POP DUP2 MSTORE PUSH1 0x20 ADD PUSH1 0x5 DUP3 ADD DUP1 SLOAD DUP1 PUSH1 0x20 MUL PUSH1 0x20 ADD PUSH1 0x40 MLOAD SWAP1 DUP2 ADD PUSH1 0x40 MSTORE DUP1 SWAP3 SWAP2 SWAP1 DUP2 DUP2 MSTORE PUSH1 0x20 ADD DUP3 DUP1 SLOAD DUP1 ISZERO PUSH2 0x24C5 JUMPI PUSH1 0x20 MUL DUP3 ADD SWAP2 SWAP1 PUSH1 0x0 MSTORE PUSH1 0x20 PUSH1 0x0 KECCAK256 SWAP1 JUMPDEST DUP2 SLOAD DUP2 MSTORE PUSH1 0x20 ADD SWAP1 PUSH1 0x1 ADD SWAP1 DUP1 DUP4 GT PUSH2 0x24B1 JUMPI JUMPDEST POP POP POP POP POP DUP2 MSTORE PUSH1 0x20 ADD PUSH1 0x6 DUP3 ADD DUP1 SLOAD DUP1 PUSH1 0x20 MUL PUSH1 0x20 ADD PUSH1 0x40 MLOAD SWAP1 DUP2 ADD PUSH1 0x40 MSTORE DUP1 SWAP3 SWAP2 SWAP1 DUP2 DUP2 MSTORE PUSH1 0x20 ADD DUP3 DUP1 SLOAD DUP1 ISZERO PUSH2 0x251D JUMPI PUSH1 0x20 MUL DUP3 ADD SWAP2 SWAP1 PUSH1 0x0 MSTORE PUSH1 0x20 PUSH1 0x0 KECCAK256 SWAP1 JUMPDEST DUP2 SLOAD DUP2 MSTORE PUSH1 0x20 ADD SWAP1 PUSH1 0x1 ADD SWAP1 DUP1 DUP4 GT PUSH2 0x2509 JUMPI JUMPDEST POP POP POP POP POP DUP2 MSTORE POP POP SWAP2 POP POP SWAP2 SWAP1 POP JUMP JUMPDEST PUSH1 0x3 DUP2 DUP2 SLOAD DUP2 LT PUSH2 0x253E JUMPI PUSH1 0x0 DUP1 REVERT JUMPDEST SWAP1 PUSH1 0x0 MSTORE PUSH1 0x20 PUSH1 0x0 KECCAK256 ADD PUSH1 0x0 SWAP2 POP SWAP1 POP SLOAD DUP2 JUMP JUMPDEST PUSH1 0x40 MLOAD DUP1 PUSH1 0xE0 ADD PUSH1 0x40 MSTORE DUP1 PUSH1 0x60 DUP2 MSTORE PUSH1 0x20 ADD PUSH1 0x60 DUP2 MSTORE PUSH1 0x20 ADD PUSH1 0x60 DUP2 MSTORE PUSH1 0x20 ADD PUSH1 0x60 DUP2 MSTORE PUSH1 0x20 ADD PUSH1 0x60 DUP2 MSTORE PUSH1 0x20 ADD PUSH1 0x60 DUP2 MSTORE PUSH1 0x20 ADD PUSH1 0x60 DUP2 MSTORE POP SWAP1 JUMP JUMPDEST PUSH1 0x40 MLOAD DUP1 PUSH2 0x120 ADD PUSH1 0x40 MSTORE DUP1 PUSH1 0x0 DUP2 MSTORE PUSH1 0x20 ADD PUSH1 0x60 DUP2 MSTORE PUSH1 0x20 ADD PUSH1 0x60 DUP2 MSTORE PUSH1 0x20 ADD PUSH1 0x60 DUP2 MSTORE PUSH1 0x20 ADD PUSH1 0x60 DUP2 MSTORE PUSH1 0x20 ADD PUSH1 0x60 DUP2 MSTORE PUSH1 0x20 ADD PUSH1 0x0 DUP2 MSTORE PUSH1 0x20 ADD PUSH1 0x0 DUP2 MSTORE PUSH1 0x20 ADD PUSH1 0x60 DUP2 MSTORE POP SWAP1 JUMP JUMPDEST DUP3 DUP1 SLOAD DUP3 DUP3 SSTORE SWAP1 PUSH1 0x0 MSTORE PUSH1 0x20 PUSH1 0x0 KECCAK256 SWAP1 DUP2 ADD SWAP3 DUP3 ISZERO PUSH2 0x2623 JUMPI SWAP2 PUSH1 0x20 MUL DUP3 ADD JUMPDEST DUP3 DUP2 GT ISZERO PUSH2 0x2622 JUMPI DUP3 MLOAD DUP3 SWAP1 DUP2 PUSH2 0x2612 SWAP2 SWAP1 PUSH2 0x3451 JUMP JUMPDEST POP SWAP2 PUSH1 0x20 ADD SWAP2 SWAP1 PUSH1 0x1 ADD SWAP1 PUSH2 0x25FB JUMP JUMPDEST JUMPDEST POP SWAP1 POP PUSH2 0x2630 SWAP2 SWAP1 PUSH2 0x2681 JUMP JUMPDEST POP SWAP1 JUMP JUMPDEST DUP3 DUP1 SLOAD DUP3 DUP3 SSTORE SWAP1 PUSH1 0x0 MSTORE PUSH1 0x20 PUSH1 0x0 KECCAK256 SWAP1 DUP2 ADD SWAP3 DUP3 ISZERO PUSH2 0x2670 JUMPI SWAP2 PUSH1 0x20 MUL DUP3 ADD JUMPDEST DUP3 DUP2 GT ISZERO PUSH2 0x266F JUMPI DUP3 MLOAD DUP3 SSTORE SWAP2 PUSH1 0x20 ADD SWAP2 SWAP1 PUSH1 0x1 ADD SWAP1 PUSH2 0x2654 JUMP JUMPDEST JUMPDEST POP SWAP1 POP PUSH2 0x267D SWAP2 SWAP1 PUSH2 0x26A5 JUMP JUMPDEST POP SWAP1 JUMP JUMPDEST JUMPDEST DUP1 DUP3 GT ISZERO PUSH2 0x26A1 JUMPI PUSH1 0x0 DUP2 DUP2 PUSH2 0x2698 SWAP2 SWAP1 PUSH2 0x26C2 JUMP JUMPDEST POP PUSH1 0x1 ADD PUSH2 0x2682 JUMP JUMPDEST POP SWAP1 JUMP JUMPDEST JUMPDEST DUP1 DUP3 GT ISZERO PUSH2 0x26BE JUMPI PUSH1 0x0 DUP2 PUSH1 0x0 SWAP1 SSTORE POP PUSH1 0x1 ADD PUSH2 0x26A6 JUMP JUMPDEST POP SWAP1 JUMP JUMPDEST POP DUP1 SLOAD PUSH2 0x26CE SWAP1 PUSH2 0x3274 JUMP JUMPDEST PUSH1 0x0 DUP3 SSTORE DUP1 PUSH1 0x1F LT PUSH2 0x26E0 JUMPI POP PUSH2 0x26FF JUMP JUMPDEST PUSH1 0x1F ADD PUSH1 0x20 SWAP1 DIV SWAP1 PUSH1 0x0 MSTORE PUSH1 0x20 PUSH1 0x0 KECCAK256 SWAP1 DUP2 ADD SWAP1 PUSH2 0x26FE SWAP2 SWAP1 PUSH2 0x26A5 JUMP JUMPDEST JUMPDEST POP JUMP JUMPDEST PUSH1 0x0 DUP2 MLOAD SWAP1 POP SWAP2 SWAP1 POP JUMP JUMPDEST PUSH1 0x0 DUP3 DUP3 MSTORE PUSH1 0x20 DUP3 ADD SWAP1 POP SWAP3 SWAP2 POP POP JUMP JUMPDEST PUSH1 0x0 DUP2 SWAP1 POP PUSH1 0x20 DUP3 ADD SWAP1 POP SWAP2 SWAP1 POP JUMP JUMPDEST PUSH1 0x0 DUP2 SWAP1 POP SWAP2 SWAP1 POP JUMP JUMPDEST PUSH2 0x2741 DUP2 PUSH2 0x272E JUMP JUMPDEST DUP3 MSTORE POP POP JUMP JUMPDEST PUSH1 0x0 PUSH2 0x2753 DUP4 DUP4 PUSH2 0x2738 JUMP JUMPDEST PUSH1 0x20 DUP4 ADD SWAP1 POP SWAP3 SWAP2 POP POP JUMP JUMPDEST PUSH1 0x0 PUSH1 0x20 DUP3 ADD SWAP1 POP SWAP2 SWAP1 POP JUMP JUMPDEST PUSH1 0x0 PUSH2 0x2777 DUP3 PUSH2 0x2702 JUMP JUMPDEST PUSH2 0x2781 DUP2 DUP6 PUSH2 0x270D JUMP JUMPDEST SWAP4 POP PUSH2 0x278C DUP4 PUSH2 0x271E JUMP JUMPDEST DUP1 PUSH1 0x0 JUMPDEST DUP4 DUP2 LT ISZERO PUSH2 0x27BD JUMPI DUP2 MLOAD PUSH2 0x27A4 DUP9 DUP3 PUSH2 0x2747 JUMP JUMPDEST SWAP8 POP PUSH2 0x27AF DUP4 PUSH2 0x275F JUMP JUMPDEST SWAP3 POP POP PUSH1 0x1 DUP2 ADD SWAP1 POP PUSH2 0x2790 JUMP JUMPDEST POP DUP6 SWAP4 POP POP POP POP SWAP3 SWAP2 POP POP JUMP JUMPDEST PUSH1 0x0 PUSH1 0x20 DUP3 ADD SWAP1 POP DUP2 DUP2 SUB PUSH1 0x0 DUP4 ADD MSTORE PUSH2 0x27E4 DUP2 DUP5 PUSH2 0x276C JUMP JUMPDEST SWAP1 POP SWAP3 SWAP2 POP POP JUMP JUMPDEST PUSH1 0x0 PUSH1 0x40 MLOAD SWAP1 POP SWAP1 JUMP JUMPDEST PUSH1 0x0 DUP1 REVERT JUMPDEST PUSH1 0x0 DUP1 REVERT JUMPDEST PUSH2 0x2809 DUP2 PUSH2 0x272E JUMP JUMPDEST DUP2 EQ PUSH2 0x2814 JUMPI PUSH1 0x0 DUP1 REVERT JUMPDEST POP JUMP JUMPDEST PUSH1 0x0 DUP2 CALLDATALOAD SWAP1 POP PUSH2 0x2826 DUP2 PUSH2 0x2800 JUMP JUMPDEST SWAP3 SWAP2 POP POP JUMP JUMPDEST PUSH1 0x0 PUSH1 0x20 DUP3 DUP5 SUB SLT ISZERO PUSH2 0x2842 JUMPI PUSH2 0x2841 PUSH2 0x27F6 JUMP JUMPDEST JUMPDEST PUSH1 0x0 PUSH2 0x2850 DUP5 DUP3 DUP6 ADD PUSH2 0x2817 JUMP JUMPDEST SWAP2 POP POP SWAP3 SWAP2 POP POP JUMP JUMPDEST PUSH2 0x2862 DUP2 PUSH2 0x272E JUMP JUMPDEST DUP3 MSTORE POP POP JUMP JUMPDEST PUSH1 0x0 PUSH1 0x20 DUP3 ADD SWAP1 POP PUSH2 0x287D PUSH1 0x0 DUP4 ADD DUP5 PUSH2 0x2859 JUMP JUMPDEST SWAP3 SWAP2 POP POP JUMP JUMPDEST PUSH1 0x0 DUP1 REVERT JUMPDEST PUSH1 0x0 DUP1 REVERT JUMPDEST PUSH1 0x0 PUSH1 0x1F NOT PUSH1 0x1F DUP4 ADD AND SWAP1 POP SWAP2 SWAP1 POP JUMP JUMPDEST PUSH32 0x4E487B7100000000000000000000000000000000000000000000000000000000 PUSH1 0x0 MSTORE PUSH1 0x41 PUSH1 0x4 MSTORE PUSH1 0x24 PUSH1 0x0 REVERT JUMPDEST PUSH2 0x28D6 DUP3 PUSH2 0x288D JUMP JUMPDEST DUP2 ADD DUP2 DUP2 LT PUSH8 0xFFFFFFFFFFFFFFFF DUP3 GT OR ISZERO PUSH2 0x28F5 JUMPI PUSH2 0x28F4 PUSH2 0x289E JUMP JUMPDEST JUMPDEST DUP1 PUSH1 0x40 MSTORE POP POP POP JUMP JUMPDEST PUSH1 0x0 PUSH2 0x2908 PUSH2 0x27EC JUMP JUMPDEST SWAP1 POP PUSH2 0x2914 DUP3 DUP3 PUSH2 0x28CD JUMP JUMPDEST SWAP2 SWAP1 POP JUMP JUMPDEST PUSH1 0x0 PUSH8 0xFFFFFFFFFFFFFFFF DUP3 GT ISZERO PUSH2 0x2934 JUMPI PUSH2 0x2933 PUSH2 0x289E JUMP JUMPDEST JUMPDEST PUSH2 0x293D DUP3 PUSH2 0x288D JUMP JUMPDEST SWAP1 POP PUSH1 0x20 DUP2 ADD SWAP1 POP SWAP2 SWAP1 POP JUMP JUMPDEST DUP3 DUP2 DUP4 CALLDATACOPY PUSH1 0x0 DUP4 DUP4 ADD MSTORE POP POP POP JUMP JUMPDEST PUSH1 0x0 PUSH2 0x296C PUSH2 0x2967 DUP5 PUSH2 0x2919 JUMP JUMPDEST PUSH2 0x28FE JUMP JUMPDEST SWAP1 POP DUP3 DUP2 MSTORE PUSH1 0x20 DUP2 ADD DUP5 DUP5 DUP5 ADD GT ISZERO PUSH2 0x2988 JUMPI PUSH2 0x2987 PUSH2 0x2888 JUMP JUMPDEST JUMPDEST PUSH2 0x2993 DUP5 DUP3 DUP6 PUSH2 0x294A JUMP JUMPDEST POP SWAP4 SWAP3 POP POP POP JUMP JUMPDEST PUSH1 0x0 DUP3 PUSH1 0x1F DUP4 ADD SLT PUSH2 0x29B0 JUMPI PUSH2 0x29AF PUSH2 0x2883 JUMP JUMPDEST JUMPDEST DUP2 CALLDATALOAD PUSH2 0x29C0 DUP5 DUP3 PUSH1 0x20 DUP7 ADD PUSH2 0x2959 JUMP JUMPDEST SWAP2 POP POP SWAP3 SWAP2 POP POP JUMP JUMPDEST PUSH1 0x0 DUP1 PUSH1 0x40 DUP4 DUP6 SUB SLT ISZERO PUSH2 0x29E0 JUMPI PUSH2 0x29DF PUSH2 0x27F6 JUMP JUMPDEST JUMPDEST PUSH1 0x0 DUP4 ADD CALLDATALOAD PUSH8 0xFFFFFFFFFFFFFFFF DUP2 GT ISZERO PUSH2 0x29FE JUMPI PUSH2 0x29FD PUSH2 0x27FB JUMP JUMPDEST JUMPDEST PUSH2 0x2A0A DUP6 DUP3 DUP7 ADD PUSH2 0x299B JUMP JUMPDEST SWAP3 POP POP PUSH1 0x20 DUP4 ADD CALLDATALOAD PUSH8 0xFFFFFFFFFFFFFFFF DUP2 GT ISZERO PUSH2 0x2A2B JUMPI PUSH2 0x2A2A PUSH2 0x27FB JUMP JUMPDEST JUMPDEST PUSH2 0x2A37 DUP6 DUP3 DUP7 ADD PUSH2 0x299B JUMP JUMPDEST SWAP2 POP POP SWAP3 POP SWAP3 SWAP1 POP JUMP JUMPDEST PUSH1 0x0 PUSH1 0x20 DUP3 DUP5 SUB SLT ISZERO PUSH2 0x2A57 JUMPI PUSH2 0x2A56 PUSH2 0x27F6 JUMP JUMPDEST JUMPDEST PUSH1 0x0 DUP3 ADD CALLDATALOAD PUSH8 0xFFFFFFFFFFFFFFFF DUP2 GT ISZERO PUSH2 0x2A75 JUMPI PUSH2 0x2A74 PUSH2 0x27FB JUMP JUMPDEST JUMPDEST PUSH2 0x2A81 DUP5 DUP3 DUP6 ADD PUSH2 0x299B JUMP JUMPDEST SWAP2 POP POP SWAP3 SWAP2 POP POP JUMP JUMPDEST PUSH1 0x0 DUP2 MLOAD SWAP1 POP SWAP2 SWAP1 POP JUMP JUMPDEST PUSH1 0x0 DUP3 DUP3 MSTORE PUSH1 0x20 DUP3 ADD SWAP1 POP SWAP3 SWAP2 POP POP JUMP JUMPDEST PUSH1 0x0 JUMPDEST DUP4 DUP2 LT ISZERO PUSH2 0x2AC4 JUMPI DUP1 DUP3 ADD MLOAD DUP2 DUP5 ADD MSTORE PUSH1 0x20 DUP2 ADD SWAP1 POP PUSH2 0x2AA9 JUMP JUMPDEST PUSH1 0x0 DUP5 DUP5 ADD MSTORE POP POP POP POP JUMP JUMPDEST PUSH1 0x0 PUSH2 0x2ADB DUP3 PUSH2 0x2A8A JUMP JUMPDEST PUSH2 0x2AE5 DUP2 DUP6 PUSH2 0x2A95 JUMP JUMPDEST SWAP4 POP PUSH2 0x2AF5 DUP2 DUP6 PUSH1 0x20 DUP7 ADD PUSH2 0x2AA6 JUMP JUMPDEST PUSH2 0x2AFE DUP2 PUSH2 0x288D JUMP JUMPDEST DUP5 ADD SWAP2 POP POP SWAP3 SWAP2 POP POP JUMP JUMPDEST PUSH1 0x0 DUP2 MLOAD SWAP1 POP SWAP2 SWAP1 POP JUMP JUMPDEST PUSH1 0x0 DUP3 DUP3 MSTORE PUSH1 0x20 DUP3 ADD SWAP1 POP SWAP3 SWAP2 POP POP JUMP JUMPDEST PUSH1 0x0 DUP2 SWAP1 POP PUSH1 0x20 DUP3 ADD SWAP1 POP SWAP2 SWAP1 POP JUMP JUMPDEST PUSH1 0x0 PUSH2 0x2B41 DUP4 DUP4 PUSH2 0x2AD0 JUMP JUMPDEST SWAP1 POP SWAP3 SWAP2 POP POP JUMP JUMPDEST PUSH1 0x0 PUSH1 0x20 DUP3 ADD SWAP1 POP SWAP2 SWAP1 POP JUMP JUMPDEST PUSH1 0x0 PUSH2 0x2B61 DUP3 PUSH2 0x2B09 JUMP JUMPDEST PUSH2 0x2B6B DUP2 DUP6 PUSH2 0x2B14 JUMP JUMPDEST SWAP4 POP DUP4 PUSH1 0x20 DUP3 MUL DUP6 ADD PUSH2 0x2B7D DUP6 PUSH2 0x2B25 JUMP JUMPDEST DUP1 PUSH1 0x0 JUMPDEST DUP6 DUP2 LT ISZERO PUSH2 0x2BB9 JUMPI DUP5 DUP5 SUB DUP10 MSTORE DUP2 MLOAD PUSH2 0x2B9A DUP6 DUP3 PUSH2 0x2B35 JUMP JUMPDEST SWAP5 POP PUSH2 0x2BA5 DUP4 PUSH2 0x2B49 JUMP JUMPDEST SWAP3 POP PUSH1 0x20 DUP11 ADD SWAP10 POP POP PUSH1 0x1 DUP2 ADD SWAP1 POP PUSH2 0x2B81 JUMP JUMPDEST POP DUP3 SWAP8 POP DUP8 SWAP6 POP POP POP POP POP POP SWAP3 SWAP2 POP POP JUMP JUMPDEST PUSH1 0x0 DUP3 DUP3 MSTORE PUSH1 0x20 DUP3 ADD SWAP1 POP SWAP3 SWAP2 POP POP JUMP JUMPDEST PUSH1 0x0 PUSH2 0x2BE7 DUP3 PUSH2 0x2702 JUMP JUMPDEST PUSH2 0x2BF1 DUP2 DUP6 PUSH2 0x2BCB JUMP JUMPDEST SWAP4 POP PUSH2 0x2BFC DUP4 PUSH2 0x271E JUMP JUMPDEST DUP1 PUSH1 0x0 JUMPDEST DUP4 DUP2 LT ISZERO PUSH2 0x2C2D JUMPI DUP2 MLOAD PUSH2 0x2C14 DUP9 DUP3 PUSH2 0x2747 JUMP JUMPDEST SWAP8 POP PUSH2 0x2C1F DUP4 PUSH2 0x275F JUMP JUMPDEST SWAP3 POP POP PUSH1 0x1 DUP2 ADD SWAP1 POP PUSH2 0x2C00 JUMP JUMPDEST POP DUP6 SWAP4 POP POP POP POP SWAP3 SWAP2 POP POP JUMP JUMPDEST PUSH1 0x0 PUSH1 0xE0 DUP4 ADD PUSH1 0x0 DUP4 ADD MLOAD DUP5 DUP3 SUB PUSH1 0x0 DUP7 ADD MSTORE PUSH2 0x2C57 DUP3 DUP3 PUSH2 0x2AD0 JUMP JUMPDEST SWAP2 POP POP PUSH1 0x20 DUP4 ADD MLOAD DUP5 DUP3 SUB PUSH1 0x20 DUP7 ADD MSTORE PUSH2 0x2C71 DUP3 DUP3 PUSH2 0x2AD0 JUMP JUMPDEST SWAP2 POP POP PUSH1 0x40 DUP4 ADD MLOAD DUP5 DUP3 SUB PUSH1 0x40 DUP7 ADD MSTORE PUSH2 0x2C8B DUP3 DUP3 PUSH2 0x2AD0 JUMP JUMPDEST SWAP2 POP POP PUSH1 0x60 DUP4 ADD MLOAD DUP5 DUP3 SUB PUSH1 0x60 DUP7 ADD MSTORE PUSH2 0x2CA5 DUP3 DUP3 PUSH2 0x2B56 JUMP JUMPDEST SWAP2 POP POP PUSH1 0x80 DUP4 ADD MLOAD DUP5 DUP3 SUB PUSH1 0x80 DUP7 ADD MSTORE PUSH2 0x2CBF DUP3 DUP3 PUSH2 0x2BDC JUMP JUMPDEST SWAP2 POP POP PUSH1 0xA0 DUP4 ADD MLOAD DUP5 DUP3 SUB PUSH1 0xA0 DUP7 ADD MSTORE PUSH2 0x2CD9 DUP3 DUP3 PUSH2 0x2BDC JUMP JUMPDEST SWAP2 POP POP PUSH1 0xC0 DUP4 ADD MLOAD DUP5 DUP3 SUB PUSH1 0xC0 DUP7 ADD MSTORE PUSH2 0x2CF3 DUP3 DUP3 PUSH2 0x2BDC JUMP JUMPDEST SWAP2 POP POP DUP1 SWAP2 POP POP SWAP3 SWAP2 POP POP JUMP JUMPDEST PUSH1 0x0 PUSH1 0x20 DUP3 ADD SWAP1 POP DUP2 DUP2 SUB PUSH1 0x0 DUP4 ADD MSTORE PUSH2 0x2D1A DUP2 DUP5 PUSH2 0x2C3A JUMP JUMPDEST SWAP1 POP SWAP3 SWAP2 POP POP JUMP JUMPDEST PUSH1 0x0 PUSH2 0x120 DUP4 ADD PUSH1 0x0 DUP4 ADD MLOAD PUSH2 0x2D3B PUSH1 0x0 DUP7 ADD DUP3 PUSH2 0x2738 JUMP JUMPDEST POP PUSH1 0x20 DUP4 ADD MLOAD DUP5 DUP3 SUB PUSH1 0x20 DUP7 ADD MSTORE PUSH2 0x2D53 DUP3 DUP3 PUSH2 0x2AD0 JUMP JUMPDEST SWAP2 POP POP PUSH1 0x40 DUP4 ADD MLOAD DUP5 DUP3 SUB PUSH1 0x40 DUP7 ADD MSTORE PUSH2 0x2D6D DUP3 DUP3 PUSH2 0x2AD0 JUMP JUMPDEST SWAP2 POP POP PUSH1 0x60 DUP4 ADD MLOAD DUP5 DUP3 SUB PUSH1 0x60 DUP7 ADD MSTORE PUSH2 0x2D87 DUP3 DUP3 PUSH2 0x2AD0 JUMP JUMPDEST SWAP2 POP POP PUSH1 0x80 DUP4 ADD MLOAD DUP5 DUP3 SUB PUSH1 0x80 DUP7 ADD MSTORE PUSH2 0x2DA1 DUP3 DUP3 PUSH2 0x2AD0 JUMP JUMPDEST SWAP2 POP POP PUSH1 0xA0 DUP4 ADD MLOAD DUP5 DUP3 SUB PUSH1 0xA0 DUP7 ADD MSTORE PUSH2 0x2DBB DUP3 DUP3 PUSH2 0x2AD0 JUMP JUMPDEST SWAP2 POP POP PUSH1 0xC0 DUP4 ADD MLOAD PUSH2 0x2DD0 PUSH1 0xC0 DUP7 ADD DUP3 PUSH2 0x2738 JUMP JUMPDEST POP PUSH1 0xE0 DUP4 ADD MLOAD PUSH2 0x2DE3 PUSH1 0xE0 DUP7 ADD DUP3 PUSH2 0x2738 JUMP JUMPDEST POP PUSH2 0x100 DUP4 ADD MLOAD DUP5 DUP3 SUB PUSH2 0x100 DUP7 ADD MSTORE PUSH2 0x2DFD DUP3 DUP3 PUSH2 0x2AD0 JUMP JUMPDEST SWAP2 POP POP DUP1 SWAP2 POP POP SWAP3 SWAP2 POP POP JUMP JUMPDEST PUSH1 0x0 PUSH1 0x20 DUP3 ADD SWAP1 POP DUP2 DUP2 SUB PUSH1 0x0 DUP4 ADD MSTORE PUSH2 0x2E24 DUP2 DUP5 PUSH2 0x2D22 JUMP JUMPDEST SWAP1 POP SWAP3 SWAP2 POP POP JUMP JUMPDEST PUSH1 0x0 PUSH8 0xFFFFFFFFFFFFFFFF DUP3 GT ISZERO PUSH2 0x2E47 JUMPI PUSH2 0x2E46 PUSH2 0x289E JUMP JUMPDEST JUMPDEST PUSH1 0x20 DUP3 MUL SWAP1 POP PUSH1 0x20 DUP2 ADD SWAP1 POP SWAP2 SWAP1 POP JUMP JUMPDEST PUSH1 0x0 DUP1 REVERT JUMPDEST PUSH1 0x0 PUSH2 0x2E70 PUSH2 0x2E6B DUP5 PUSH2 0x2E2C JUMP JUMPDEST PUSH2 0x28FE JUMP JUMPDEST SWAP1 POP DUP1 DUP4 DUP3 MSTORE PUSH1 0x20 DUP3 ADD SWAP1 POP PUSH1 0x20 DUP5 MUL DUP4 ADD DUP6 DUP2 GT ISZERO PUSH2 0x2E93 JUMPI PUSH2 0x2E92 PUSH2 0x2E58 JUMP JUMPDEST JUMPDEST DUP4 JUMPDEST DUP2 DUP2 LT ISZERO PUSH2 0x2EDA JUMPI DUP1 CALLDATALOAD PUSH8 0xFFFFFFFFFFFFFFFF DUP2 GT ISZERO PUSH2 0x2EB8 JUMPI PUSH2 0x2EB7 PUSH2 0x2883 JUMP JUMPDEST JUMPDEST DUP1 DUP7 ADD PUSH2 0x2EC5 DUP10 DUP3 PUSH2 0x299B JUMP JUMPDEST DUP6 MSTORE PUSH1 0x20 DUP6 ADD SWAP5 POP POP POP PUSH1 0x20 DUP2 ADD SWAP1 POP PUSH2 0x2E95 JUMP JUMPDEST POP POP POP SWAP4 SWAP3 POP POP POP JUMP JUMPDEST PUSH1 0x0 DUP3 PUSH1 0x1F DUP4 ADD SLT PUSH2 0x2EF9 JUMPI PUSH2 0x2EF8 PUSH2 0x2883 JUMP JUMPDEST JUMPDEST DUP2 CALLDATALOAD PUSH2 0x2F09 DUP5 DUP3 PUSH1 0x20 DUP7 ADD PUSH2 0x2E5D JUMP JUMPDEST SWAP2 POP POP SWAP3 SWAP2 POP POP JUMP JUMPDEST PUSH1 0x0 DUP1 PUSH1 0x40 DUP4 DUP6 SUB SLT ISZERO PUSH2 0x2F29 JUMPI PUSH2 0x2F28 PUSH2 0x27F6 JUMP JUMPDEST JUMPDEST PUSH1 0x0 DUP4 ADD CALLDATALOAD PUSH8 0xFFFFFFFFFFFFFFFF DUP2 GT ISZERO PUSH2 0x2F47 JUMPI PUSH2 0x2F46 PUSH2 0x27FB JUMP JUMPDEST JUMPDEST PUSH2 0x2F53 DUP6 DUP3 DUP7 ADD PUSH2 0x299B JUMP JUMPDEST SWAP3 POP POP PUSH1 0x20 DUP4 ADD CALLDATALOAD PUSH8 0xFFFFFFFFFFFFFFFF DUP2 GT ISZERO PUSH2 0x2F74 JUMPI PUSH2 0x2F73 PUSH2 0x27FB JUMP JUMPDEST JUMPDEST PUSH2 0x2F80 DUP6 DUP3 DUP7 ADD PUSH2 0x2EE4 JUMP JUMPDEST SWAP2 POP POP SWAP3 POP SWAP3 SWAP1 POP JUMP JUMPDEST PUSH1 0x0 DUP1 PUSH1 0x40 DUP4 DUP6 SUB SLT ISZERO PUSH2 0x2FA1 JUMPI PUSH2 0x2FA0 PUSH2 0x27F6 JUMP JUMPDEST JUMPDEST PUSH1 0x0 DUP4 ADD CALLDATALOAD PUSH8 0xFFFFFFFFFFFFFFFF DUP2 GT ISZERO PUSH2 0x2FBF JUMPI PUSH2 0x2FBE PUSH2 0x27FB JUMP JUMPDEST JUMPDEST PUSH2 0x2FCB DUP6 DUP3 DUP7 ADD PUSH2 0x2EE4 JUMP JUMPDEST SWAP3 POP POP PUSH1 0x20 DUP4 ADD CALLDATALOAD PUSH8 0xFFFFFFFFFFFFFFFF DUP2 GT ISZERO PUSH2 0x2FEC JUMPI PUSH2 0x2FEB PUSH2 0x27FB JUMP JUMPDEST JUMPDEST PUSH2 0x2FF8 DUP6 DUP3 DUP7 ADD PUSH2 0x299B JUMP JUMPDEST SWAP2 POP POP SWAP3 POP SWAP3 SWAP1 POP JUMP JUMPDEST PUSH1 0x0 DUP1 PUSH1 0x0 DUP1 PUSH1 0x0 DUP1 PUSH1 0x0 DUP1 PUSH2 0x100 DUP10 DUP12 SUB SLT ISZERO PUSH2 0x3023 JUMPI PUSH2 0x3022 PUSH2 0x27F6 JUMP JUMPDEST JUMPDEST PUSH1 0x0 DUP10 ADD CALLDATALOAD PUSH8 0xFFFFFFFFFFFFFFFF DUP2 GT ISZERO PUSH2 0x3041 JUMPI PUSH2 0x3040 PUSH2 0x27FB JUMP JUMPDEST JUMPDEST PUSH2 0x304D DUP12 DUP3 DUP13 ADD PUSH2 0x299B JUMP JUMPDEST SWAP9 POP POP PUSH1 0x20 DUP10 ADD CALLDATALOAD PUSH8 0xFFFFFFFFFFFFFFFF DUP2 GT ISZERO PUSH2 0x306E JUMPI PUSH2 0x306D PUSH2 0x27FB JUMP JUMPDEST JUMPDEST PUSH2 0x307A DUP12 DUP3 DUP13 ADD PUSH2 0x299B JUMP JUMPDEST SWAP8 POP POP PUSH1 0x40 DUP10 ADD CALLDATALOAD PUSH8 0xFFFFFFFFFFFFFFFF DUP2 GT ISZERO PUSH2 0x309B JUMPI PUSH2 0x309A PUSH2 0x27FB JUMP JUMPDEST JUMPDEST PUSH2 0x30A7 DUP12 DUP3 DUP13 ADD PUSH2 0x299B JUMP JUMPDEST SWAP7 POP POP PUSH1 0x60 DUP10 ADD CALLDATALOAD PUSH8 0xFFFFFFFFFFFFFFFF DUP2 GT ISZERO PUSH2 0x30C8 JUMPI PUSH2 0x30C7 PUSH2 0x27FB JUMP JUMPDEST JUMPDEST PUSH2 0x30D4 DUP12 DUP3 DUP13 ADD PUSH2 0x299B JUMP JUMPDEST SWAP6 POP POP PUSH1 0x80 DUP10 ADD CALLDATALOAD PUSH8 0xFFFFFFFFFFFFFFFF DUP2 GT ISZERO PUSH2 0x30F5 JUMPI PUSH2 0x30F4 PUSH2 0x27FB JUMP JUMPDEST JUMPDEST PUSH2 0x3101 DUP12 DUP3 DUP13 ADD PUSH2 0x299B JUMP JUMPDEST SWAP5 POP POP PUSH1 0xA0 PUSH2 0x3112 DUP12 DUP3 DUP13 ADD PUSH2 0x2817 JUMP JUMPDEST SWAP4 POP POP PUSH1 0xC0 PUSH2 0x3123 DUP12 DUP3 DUP13 ADD PUSH2 0x2817 JUMP JUMPDEST SWAP3 POP POP PUSH1 0xE0 DUP10 ADD CALLDATALOAD PUSH8 0xFFFFFFFFFFFFFFFF DUP2 GT ISZERO PUSH2 0x3144 JUMPI PUSH2 0x3143 PUSH2 0x27FB JUMP JUMPDEST JUMPDEST PUSH2 0x3150 DUP12 DUP3 DUP13 ADD PUSH2 0x299B JUMP JUMPDEST SWAP2 POP POP SWAP3 SWAP6 SWAP9 POP SWAP3 SWAP6 SWAP9 SWAP1 SWAP4 SWAP7 POP JUMP JUMPDEST PUSH1 0x0 PUSH20 0xFFFFFFFFFFFFFFFFFFFFFFFFFFFFFFFFFFFFFFFF DUP3 AND SWAP1 POP SWAP2 SWAP1 POP JUMP JUMPDEST PUSH1 0x0 PUSH2 0x318B DUP3 PUSH2 0x3160 JUMP JUMPDEST SWAP1 POP SWAP2 SWAP1 POP JUMP JUMPDEST PUSH2 0x319B DUP2 PUSH2 0x3180 JUMP JUMPDEST DUP3 MSTORE POP POP JUMP JUMPDEST PUSH1 0x0 PUSH1 0x20 DUP3 ADD SWAP1 POP PUSH2 0x31B6 PUSH1 0x0 DUP4 ADD DUP5 PUSH2 0x3192 JUMP JUMPDEST SWAP3 SWAP2 POP POP JUMP JUMPDEST PUSH1 0x0 DUP2 ISZERO ISZERO SWAP1 POP SWAP2 SWAP1 POP JUMP JUMPDEST PUSH2 0x31D1 DUP2 PUSH2 0x31BC JUMP JUMPDEST DUP3 MSTORE POP POP JUMP JUMPDEST PUSH1 0x0 PUSH1 0x20 DUP3 ADD SWAP1 POP PUSH2 0x31EC PUSH1 0x0 DUP4 ADD DUP5 PUSH2 0x31C8 JUMP JUMPDEST SWAP3 SWAP2 POP POP JUMP JUMPDEST PUSH1 0x0 DUP2 SWAP1 POP SWAP3 SWAP2 POP POP JUMP JUMPDEST PUSH1 0x0 PUSH2 0x3208 DUP3 PUSH2 0x2A8A JUMP JUMPDEST PUSH2 0x3212 DUP2 DUP6 PUSH2 0x31F2 JUMP JUMPDEST SWAP4 POP PUSH2 0x3222 DUP2 DUP6 PUSH1 0x20 DUP7 ADD PUSH2 0x2AA6 JUMP JUMPDEST DUP1 DUP5 ADD SWAP2 POP POP SWAP3 SWAP2 POP POP JUMP JUMPDEST PUSH1 0x0 PUSH2 0x323A DUP3 DUP5 PUSH2 0x31FD JUMP JUMPDEST SWAP2 POP DUP2 SWAP1 POP SWAP3 SWAP2 POP POP JUMP JUMPDEST PUSH32 0x4E487B7100000000000000000000000000000000000000000000000000000000 PUSH1 0x0 MSTORE PUSH1 0x22 PUSH1 0x4 MSTORE PUSH1 0x24 PUSH1 0x0 REVERT JUMPDEST PUSH1 0x0 PUSH1 0x2 DUP3 DIV SWAP1 POP PUSH1 0x1 DUP3 AND DUP1 PUSH2 0x328C JUMPI PUSH1 0x7F DUP3 AND SWAP2 POP JUMPDEST PUSH1 0x20 DUP3 LT DUP2 SUB PUSH2 0x329F JUMPI PUSH2 0x329E PUSH2 0x3245 JUMP JUMPDEST JUMPDEST POP SWAP2 SWAP1 POP JUMP JUMPDEST PUSH1 0x0 DUP2 SWAP1 POP DUP2 PUSH1 0x0 MSTORE PUSH1 0x20 PUSH1 0x0 KECCAK256 SWAP1 POP SWAP2 SWAP1 POP JUMP JUMPDEST PUSH1 0x0 PUSH1 0x20 PUSH1 0x1F DUP4 ADD DIV SWAP1 POP SWAP2 SWAP1 POP JUMP JUMPDEST PUSH1 0x0 DUP3 DUP3 SHL SWAP1 POP SWAP3 SWAP2 POP POP JUMP JUMPDEST PUSH1 0x0 PUSH1 0x8 DUP4 MUL PUSH2 0x3307 PUSH32 0xFFFFFFFFFFFFFFFFFFFFFFFFFFFFFFFFFFFFFFFFFFFFFFFFFFFFFFFFFFFFFFFF DUP3 PUSH2 0x32CA JUMP JUMPDEST PUSH2 0x3311 DUP7 DUP4 PUSH2 0x32CA JUMP JUMPDEST SWAP6 POP DUP1 NOT DUP5 AND SWAP4 POP DUP1 DUP7 AND DUP5 OR SWAP3 POP POP POP SWAP4 SWAP3 POP POP POP JUMP JUMPDEST PUSH1 0x0 DUP2 SWAP1 POP SWAP2 SWAP1 POP JUMP JUMPDEST PUSH1 0x0 PUSH2 0x334E PUSH2 0x3349 PUSH2 0x3344 DUP5 PUSH2 0x272E JUMP JUMPDEST PUSH2 0x3329 JUMP JUMPDEST PUSH2 0x272E JUMP JUMPDEST SWAP1 POP SWAP2 SWAP1 POP JUMP JUMPDEST PUSH1 0x0 DUP2 SWAP1 POP SWAP2 SWAP1 POP JUMP JUMPDEST PUSH2 0x3368 DUP4 PUSH2 0x3333 JUMP JUMPDEST PUSH2 0x337C PUSH2 0x3374 DUP3 PUSH2 0x3355 JUMP JUMPDEST DUP5 DUP5 SLOAD PUSH2 0x32D7 JUMP JUMPDEST DUP3 SSTORE POP POP POP POP JUMP JUMPDEST PUSH1 0x0 SWAP1 JUMP JUMPDEST PUSH2 0x3391 PUSH2 0x3384 JUMP JUMPDEST PUSH2 0x339C DUP2 DUP5 DUP5 PUSH2 0x335F JUMP JUMPDEST POP POP POP JUMP JUMPDEST JUMPDEST DUP2 DUP2 LT ISZERO PUSH2 0x33C0 JUMPI PUSH2 0x33B5 PUSH1 0x0 DUP3 PUSH2 0x3389 JUMP JUMPDEST PUSH1 0x1 DUP2 ADD SWAP1 POP PUSH2 0x33A2 JUMP JUMPDEST POP POP JUMP JUMPDEST PUSH1 0x1F DUP3 GT ISZERO PUSH2 0x3405 JUMPI PUSH2 0x33D6 DUP2 PUSH2 0x32A5 JUMP JUMPDEST PUSH2 0x33DF DUP5 PUSH2 0x32BA JUMP JUMPDEST DUP2 ADD PUSH1 0x20 DUP6 LT ISZERO PUSH2 0x33EE JUMPI DUP2 SWAP1 POP JUMPDEST PUSH2 0x3402 PUSH2 0x33FA DUP6 PUSH2 0x32BA JUMP JUMPDEST DUP4 ADD DUP3 PUSH2 0x33A1 JUMP JUMPDEST POP POP JUMPDEST POP POP POP JUMP JUMPDEST PUSH1 0x0 DUP3 DUP3 SHR SWAP1 POP SWAP3 SWAP2 POP POP JUMP JUMPDEST PUSH1 0x0 PUSH2 0x3428 PUSH1 0x0 NOT DUP5 PUSH1 0x8 MUL PUSH2 0x340A JUMP JUMPDEST NOT DUP1 DUP4 AND SWAP2 POP POP SWAP3 SWAP2 POP POP JUMP JUMPDEST PUSH1 0x0 PUSH2 0x3441 DUP4 DUP4 PUSH2 0x3417 JUMP JUMPDEST SWAP2 POP DUP3 PUSH1 0x2 MUL DUP3 OR SWAP1 POP SWAP3 SWAP2 POP POP JUMP JUMPDEST PUSH2 0x345A DUP3 PUSH2 0x2A8A JUMP JUMPDEST PUSH8 0xFFFFFFFFFFFFFFFF DUP2 GT ISZERO PUSH2 0x3473 JUMPI PUSH2 0x3472 PUSH2 0x289E JUMP JUMPDEST JUMPDEST PUSH2 0x347D DUP3 SLOAD PUSH2 0x3274 JUMP JUMPDEST PUSH2 0x3488 DUP3 DUP3 DUP6 PUSH2 0x33C4 JUMP JUMPDEST PUSH1 0x0 PUSH1 0x20 SWAP1 POP PUSH1 0x1F DUP4 GT PUSH1 0x1 DUP2 EQ PUSH2 0x34BB JUMPI PUSH1 0x0 DUP5 ISZERO PUSH2 0x34A9 JUMPI DUP3 DUP8 ADD MLOAD SWAP1 POP JUMPDEST PUSH2 0x34B3 DUP6 DUP3 PUSH2 0x3435 JUMP JUMPDEST DUP7 SSTORE POP PUSH2 0x351B JUMP JUMPDEST PUSH1 0x1F NOT DUP5 AND PUSH2 0x34C9 DUP7 PUSH2 0x32A5 JUMP JUMPDEST PUSH1 0x0 JUMPDEST DUP3 DUP2 LT ISZERO PUSH2 0x34F1 JUMPI DUP5 DUP10 ADD MLOAD DUP3 SSTORE PUSH1 0x1 DUP3 ADD SWAP2 POP PUSH1 0x20 DUP6 ADD SWAP5 POP PUSH1 0x20 DUP2 ADD SWAP1 POP PUSH2 0x34CC JUMP JUMPDEST DUP7 DUP4 LT ISZERO PUSH2 0x350E JUMPI DUP5 DUP10 ADD MLOAD PUSH2 0x350A PUSH1 0x1F DUP10 AND DUP3 PUSH2 0x3417 JUMP JUMPDEST DUP4 SSTORE POP JUMPDEST PUSH1 0x1 PUSH1 0x2 DUP9 MUL ADD DUP9 SSTORE POP POP POP JUMPDEST POP POP POP POP POP POP JUMP JUMPDEST PUSH32 0x4E487B7100000000000000000000000000000000000000000000000000000000 PUSH1 0x0 MSTORE PUSH1 0x32 PUSH1 0x4 MSTORE PUSH1 0x24 PUSH1 0x0 REVERT JUMPDEST PUSH32 0x4E487B7100000000000000000000000000000000000000000000000000000000 PUSH1 0x0 MSTORE PUSH1 0x11 PUSH1 0x4 MSTORE PUSH1 0x24 PUSH1 0x0 REVERT JUMPDEST PUSH1 0x0 PUSH2 0x358C DUP3 PUSH2 0x272E JUMP JUMPDEST SWAP2 POP PUSH32 0xFFFFFFFFFFFFFFFFFFFFFFFFFFFFFFFFFFFFFFFFFFFFFFFFFFFFFFFFFFFFFFFF DUP3 SUB PUSH2 0x35BE JUMPI PUSH2 0x35BD PUSH2 0x3552 JUMP JUMPDEST JUMPDEST PUSH1 0x1 DUP3 ADD SWAP1 POP SWAP2 SWAP1 POP JUMP JUMPDEST POP JUMP JUMPDEST PUSH1 0x0 PUSH2 0x35D9 PUSH1 0x0 DUP4 PUSH2 0x31F2 JUMP JUMPDEST SWAP2 POP PUSH2 0x35E4 DUP3 PUSH2 0x35C9 JUMP JUMPDEST PUSH1 0x0 DUP3 ADD SWAP1 POP SWAP2 SWAP1 POP JUMP JUMPDEST PUSH1 0x0 PUSH2 0x35FA DUP3 PUSH2 0x35CC JUMP JUMPDEST SWAP2 POP DUP2 SWAP1 POP SWAP2 SWAP1 POP JUMP JUMPDEST PUSH1 0x0 DUP2 SLOAD PUSH2 0x3611 DUP2 PUSH2 0x3274 JUMP JUMPDEST PUSH2 0x361B DUP2 DUP7 PUSH2 0x31F2 JUMP JUMPDEST SWAP5 POP PUSH1 0x1 DUP3 AND PUSH1 0x0 DUP2 EQ PUSH2 0x3636 JUMPI PUSH1 0x1 DUP2 EQ PUSH2 0x364B JUMPI PUSH2 0x367E JUMP JUMPDEST PUSH1 0xFF NOT DUP4 AND DUP7 MSTORE DUP2 ISZERO ISZERO DUP3 MUL DUP7 ADD SWAP4 POP PUSH2 0x367E JUMP JUMPDEST PUSH2 0x3654 DUP6 PUSH2 0x32A5 JUMP JUMPDEST PUSH1 0x0 JUMPDEST DUP4 DUP2 LT ISZERO PUSH2 0x3676 JUMPI DUP2 SLOAD DUP2 DUP10 ADD MSTORE PUSH1 0x1 DUP3 ADD SWAP2 POP PUSH1 0x20 DUP2 ADD SWAP1 POP PUSH2 0x3657 JUMP JUMPDEST DUP4 DUP9 ADD SWAP6 POP POP POP JUMPDEST POP POP POP SWAP3 SWAP2 POP POP JUMP JUMPDEST PUSH1 0x0 PUSH2 0x3693 DUP3 DUP5 PUSH2 0x3604 JUMP JUMPDEST SWAP2 POP DUP2 SWAP1 POP SWAP3 SWAP2 POP POP JUMP INVALID LOG2 PUSH5 0x6970667358 0x22 SLT KECCAK256 0xA8 0xAC 0xFB DUP12 CALLER CALLDATASIZE 0xB9 SHR DUP16 0xB0 CODESIZE PUSH10 0xEBA0154A651C7FF3404F SHR 0xE4 0x4C SHR DUP3 GT EXP 0x21 0xE5 0xEB PUSH5 0x736F6C6343 STOP ADDMOD SLT STOP CALLER "
				},
				"gasEstimates": {
					"creation": {
						"codeDepositCost": "2807200",
						"executionCost": "37339",
						"totalCost": "2844539"
					},
					"external": {
						"allProductsIds(uint256)": "infinite",
						"allRentsIds(uint256)": "infinite",
						"assignLensToUser(string,string)": "infinite",
						"assignWalletsToUser(string[],string)": "infinite",
						"assignWorldCoinIdToUser(string,string)": "infinite",
						"compareStrings(string,string)": "infinite",
						"createProduct(string,string,string,string,string,uint256,uint256,string)": "infinite",
						"createUserAccount(string,string[])": "infinite",
						"doesKeyExist(string,string)": "infinite",
						"getAllProducts()": "infinite",
						"getOwner()": "2589",
						"getProductById(uint256)": "infinite",
						"getUserById(string)": "infinite",
						"getUserByLens(string)": "infinite",
						"getUserByWallet(string)": "infinite",
						"getUserByWorldCoin(string)": "infinite",
						"lasProductId()": "2540",
						"lastRentId()": "2518"
					}
				},
				"methodIdentifiers": {
					"allProductsIds(uint256)": "fe1823af",
					"allRentsIds(uint256)": "067c2d61",
					"assignLensToUser(string,string)": "081396eb",
					"assignWalletsToUser(string[],string)": "63c60bd5",
					"assignWorldCoinIdToUser(string,string)": "15c19c1d",
					"compareStrings(string,string)": "bed34bba",
					"createProduct(string,string,string,string,string,uint256,uint256,string)": "6bd562f3",
					"createUserAccount(string,string[])": "51f40dd6",
					"doesKeyExist(string,string)": "d430e05a",
					"getAllProducts()": "02ee3a52",
					"getOwner()": "893d20e8",
					"getProductById(uint256)": "3f70c2b4",
					"getUserById(string)": "379f8fc2",
					"getUserByLens(string)": "c77cfeeb",
					"getUserByWallet(string)": "7198ed1a",
					"getUserByWorldCoin(string)": "f70e1c5e",
					"lasProductId()": "63fbe5b3",
					"lastRentId()": "bb29e2a5"
				}
			},
			"storageLayout": {
				"storage": [
					{
						"astId": 3,
						"contract": "Contracts/Lending.sol:Lending",
						"label": "owner",
						"offset": 0,
						"slot": "0",
						"type": "t_address"
					},
					{
						"astId": 6,
						"contract": "Contracts/Lending.sol:Lending",
						"label": "lasProductId",
						"offset": 0,
						"slot": "1",
						"type": "t_uint256"
					},
					{
						"astId": 9,
						"contract": "Contracts/Lending.sol:Lending",
						"label": "lastRentId",
						"offset": 0,
						"slot": "2",
						"type": "t_uint256"
					},
					{
						"astId": 12,
						"contract": "Contracts/Lending.sol:Lending",
						"label": "allProductsIds",
						"offset": 0,
						"slot": "3",
						"type": "t_array(t_uint256)dyn_storage"
					},
					{
						"astId": 15,
						"contract": "Contracts/Lending.sol:Lending",
						"label": "allRentsIds",
						"offset": 0,
						"slot": "4",
						"type": "t_array(t_uint256)dyn_storage"
					},
					{
						"astId": 71,
						"contract": "Contracts/Lending.sol:Lending",
						"label": "Products",
						"offset": 0,
						"slot": "5",
						"type": "t_mapping(t_uint256,t_struct(Product)53_storage)"
					},
					{
						"astId": 76,
						"contract": "Contracts/Lending.sol:Lending",
						"label": "Users",
						"offset": 0,
						"slot": "6",
						"type": "t_mapping(t_string_memory_ptr,t_struct(User)34_storage)"
					},
					{
						"astId": 81,
						"contract": "Contracts/Lending.sol:Lending",
						"label": "UserRatings",
						"offset": 0,
						"slot": "7",
						"type": "t_mapping(t_string_memory_ptr,t_array(t_uint256)dyn_storage)"
					},
					{
						"astId": 86,
						"contract": "Contracts/Lending.sol:Lending",
						"label": "TenantRatings",
						"offset": 0,
						"slot": "8",
						"type": "t_mapping(t_string_memory_ptr,t_array(t_uint256)dyn_storage)"
					},
					{
						"astId": 91,
						"contract": "Contracts/Lending.sol:Lending",
						"label": "UserProducts",
						"offset": 0,
						"slot": "9",
						"type": "t_mapping(t_uint256,t_array(t_uint256)dyn_storage)"
					},
					{
						"astId": 95,
						"contract": "Contracts/Lending.sol:Lending",
						"label": "UserWorldCoinIds",
						"offset": 0,
						"slot": "10",
						"type": "t_mapping(t_string_memory_ptr,t_string_storage)"
					},
					{
						"astId": 99,
						"contract": "Contracts/Lending.sol:Lending",
						"label": "UserWallets",
						"offset": 0,
						"slot": "11",
						"type": "t_mapping(t_string_memory_ptr,t_string_storage)"
					},
					{
						"astId": 103,
						"contract": "Contracts/Lending.sol:Lending",
						"label": "UserLensHandles",
						"offset": 0,
						"slot": "12",
						"type": "t_mapping(t_string_memory_ptr,t_string_storage)"
					}
				],
				"types": {
					"t_address": {
						"encoding": "inplace",
						"label": "address",
						"numberOfBytes": "20"
					},
					"t_array(t_string_storage)dyn_storage": {
						"base": "t_string_storage",
						"encoding": "dynamic_array",
						"label": "string[]",
						"numberOfBytes": "32"
					},
					"t_array(t_uint256)dyn_storage": {
						"base": "t_uint256",
						"encoding": "dynamic_array",
						"label": "uint256[]",
						"numberOfBytes": "32"
					},
					"t_mapping(t_string_memory_ptr,t_array(t_uint256)dyn_storage)": {
						"encoding": "mapping",
						"key": "t_string_memory_ptr",
						"label": "mapping(string => uint256[])",
						"numberOfBytes": "32",
						"value": "t_array(t_uint256)dyn_storage"
					},
					"t_mapping(t_string_memory_ptr,t_string_storage)": {
						"encoding": "mapping",
						"key": "t_string_memory_ptr",
						"label": "mapping(string => string)",
						"numberOfBytes": "32",
						"value": "t_string_storage"
					},
					"t_mapping(t_string_memory_ptr,t_struct(User)34_storage)": {
						"encoding": "mapping",
						"key": "t_string_memory_ptr",
						"label": "mapping(string => struct Lending.User)",
						"numberOfBytes": "32",
						"value": "t_struct(User)34_storage"
					},
					"t_mapping(t_uint256,t_array(t_uint256)dyn_storage)": {
						"encoding": "mapping",
						"key": "t_uint256",
						"label": "mapping(uint256 => uint256[])",
						"numberOfBytes": "32",
						"value": "t_array(t_uint256)dyn_storage"
					},
					"t_mapping(t_uint256,t_struct(Product)53_storage)": {
						"encoding": "mapping",
						"key": "t_uint256",
						"label": "mapping(uint256 => struct Lending.Product)",
						"numberOfBytes": "32",
						"value": "t_struct(Product)53_storage"
					},
					"t_string_memory_ptr": {
						"encoding": "bytes",
						"label": "string",
						"numberOfBytes": "32"
					},
					"t_string_storage": {
						"encoding": "bytes",
						"label": "string",
						"numberOfBytes": "32"
					},
					"t_struct(Product)53_storage": {
						"encoding": "inplace",
						"label": "struct Lending.Product",
						"members": [
							{
								"astId": 36,
								"contract": "Contracts/Lending.sol:Lending",
								"label": "id",
								"offset": 0,
								"slot": "0",
								"type": "t_uint256"
							},
							{
								"astId": 38,
								"contract": "Contracts/Lending.sol:Lending",
								"label": "userId",
								"offset": 0,
								"slot": "1",
								"type": "t_string_storage"
							},
							{
								"astId": 40,
								"contract": "Contracts/Lending.sol:Lending",
								"label": "lat",
								"offset": 0,
								"slot": "2",
								"type": "t_string_storage"
							},
							{
								"astId": 42,
								"contract": "Contracts/Lending.sol:Lending",
								"label": "lng",
								"offset": 0,
								"slot": "3",
								"type": "t_string_storage"
							},
							{
								"astId": 44,
								"contract": "Contracts/Lending.sol:Lending",
								"label": "name",
								"offset": 0,
								"slot": "4",
								"type": "t_string_storage"
							},
							{
								"astId": 46,
								"contract": "Contracts/Lending.sol:Lending",
								"label": "description",
								"offset": 0,
								"slot": "5",
								"type": "t_string_storage"
							},
							{
								"astId": 48,
								"contract": "Contracts/Lending.sol:Lending",
								"label": "prodValue",
								"offset": 0,
								"slot": "6",
								"type": "t_uint256"
							},
							{
								"astId": 50,
								"contract": "Contracts/Lending.sol:Lending",
								"label": "price",
								"offset": 0,
								"slot": "7",
								"type": "t_uint256"
							},
							{
								"astId": 52,
								"contract": "Contracts/Lending.sol:Lending",
								"label": "image",
								"offset": 0,
								"slot": "8",
								"type": "t_string_storage"
							}
						],
						"numberOfBytes": "288"
					},
					"t_struct(User)34_storage": {
						"encoding": "inplace",
						"label": "struct Lending.User",
						"members": [
							{
								"astId": 17,
								"contract": "Contracts/Lending.sol:Lending",
								"label": "userId",
								"offset": 0,
								"slot": "0",
								"type": "t_string_storage"
							},
							{
								"astId": 19,
								"contract": "Contracts/Lending.sol:Lending",
								"label": "worldCoinId",
								"offset": 0,
								"slot": "1",
								"type": "t_string_storage"
							},
							{
								"astId": 21,
								"contract": "Contracts/Lending.sol:Lending",
								"label": "lensHandle",
								"offset": 0,
								"slot": "2",
								"type": "t_string_storage"
							},
							{
								"astId": 24,
								"contract": "Contracts/Lending.sol:Lending",
								"label": "wallets",
								"offset": 0,
								"slot": "3",
								"type": "t_array(t_string_storage)dyn_storage"
							},
							{
								"astId": 27,
								"contract": "Contracts/Lending.sol:Lending",
								"label": "products",
								"offset": 0,
								"slot": "4",
								"type": "t_array(t_uint256)dyn_storage"
							},
							{
								"astId": 30,
								"contract": "Contracts/Lending.sol:Lending",
								"label": "myLendings",
								"offset": 0,
								"slot": "5",
								"type": "t_array(t_uint256)dyn_storage"
							},
							{
								"astId": 33,
								"contract": "Contracts/Lending.sol:Lending",
								"label": "myBorrowings",
								"offset": 0,
								"slot": "6",
								"type": "t_array(t_uint256)dyn_storage"
							}
						],
						"numberOfBytes": "224"
					},
					"t_uint256": {
						"encoding": "inplace",
						"label": "uint256",
						"numberOfBytes": "32"
					}
				}
			},
			"userdoc": {
				"kind": "user",
				"methods": {},
				"version": 1
			}
		}
	}
}