{
	"Contracts/Lending.sol": {
		"Lending": {
			"abi": [
				{
					"inputs": [],
					"stateMutability": "nonpayable",
					"type": "constructor"
				},
				{
					"inputs": [
						{
							"internalType": "uint256",
							"name": "",
							"type": "uint256"
						}
					],
					"name": "allProductsIds",
					"outputs": [
						{
							"internalType": "uint256",
							"name": "",
							"type": "uint256"
						}
					],
					"stateMutability": "view",
					"type": "function"
				},
				{
					"inputs": [
						{
							"internalType": "uint256",
							"name": "",
							"type": "uint256"
						}
					],
					"name": "allRentsIds",
					"outputs": [
						{
							"internalType": "uint256",
							"name": "",
							"type": "uint256"
						}
					],
					"stateMutability": "view",
					"type": "function"
				},
				{
					"inputs": [
						{
							"internalType": "bool",
							"name": "status",
							"type": "bool"
						},
						{
							"internalType": "uint256",
							"name": "rentId",
							"type": "uint256"
						}
					],
					"name": "approveRent",
					"outputs": [],
					"stateMutability": "nonpayable",
					"type": "function"
				},
				{
					"inputs": [
						{
							"internalType": "string",
							"name": "_lens",
							"type": "string"
						},
						{
							"internalType": "string",
							"name": "userId",
							"type": "string"
						}
					],
					"name": "assignLensToUser",
					"outputs": [],
					"stateMutability": "nonpayable",
					"type": "function"
				},
				{
					"inputs": [
						{
							"internalType": "string[]",
							"name": "_addresses",
							"type": "string[]"
						},
						{
							"internalType": "string",
							"name": "userId",
							"type": "string"
						}
					],
					"name": "assignWalletsToUser",
					"outputs": [],
					"stateMutability": "nonpayable",
					"type": "function"
				},
				{
					"inputs": [
						{
							"internalType": "string",
							"name": "WCID",
							"type": "string"
						},
						{
							"internalType": "string",
							"name": "userId",
							"type": "string"
						}
					],
					"name": "assignWorldCoinIdToUser",
					"outputs": [],
					"stateMutability": "nonpayable",
					"type": "function"
				},
				{
					"inputs": [
						{
							"internalType": "string",
							"name": "a",
							"type": "string"
						},
						{
							"internalType": "string",
							"name": "b",
							"type": "string"
						}
					],
					"name": "compareStrings",
					"outputs": [
						{
							"internalType": "bool",
							"name": "",
							"type": "bool"
						}
					],
					"stateMutability": "pure",
					"type": "function"
				},
				{
					"inputs": [
						{
							"internalType": "string",
							"name": "_userId",
							"type": "string"
						},
						{
							"internalType": "string",
							"name": "_lat",
							"type": "string"
						},
						{
							"internalType": "string",
							"name": "_lng",
							"type": "string"
						},
						{
							"internalType": "string",
							"name": "_name",
							"type": "string"
						},
						{
							"internalType": "string",
							"name": "_description",
							"type": "string"
						},
						{
							"internalType": "uint256",
							"name": "_productValue",
							"type": "uint256"
						},
						{
							"internalType": "uint256",
							"name": "_price",
							"type": "uint256"
						},
						{
							"internalType": "string",
							"name": "_image",
							"type": "string"
						}
					],
					"name": "createProduct",
					"outputs": [],
					"stateMutability": "nonpayable",
					"type": "function"
				},
				{
					"inputs": [
						{
							"internalType": "string",
							"name": "username",
							"type": "string"
						},
						{
							"internalType": "string[]",
							"name": "_addresses",
							"type": "string[]"
						}
					],
					"name": "createUserAccount",
					"outputs": [
						{
							"components": [
								{
									"internalType": "string",
									"name": "userId",
									"type": "string"
								},
								{
									"internalType": "string",
									"name": "worldCoinId",
									"type": "string"
								},
								{
									"internalType": "string",
									"name": "lensHandle",
									"type": "string"
								},
								{
									"internalType": "string[]",
									"name": "wallets",
									"type": "string[]"
								},
								{
									"internalType": "uint256[]",
									"name": "products",
									"type": "uint256[]"
								},
								{
									"internalType": "uint256[]",
									"name": "myLendings",
									"type": "uint256[]"
								},
								{
									"internalType": "uint256[]",
									"name": "myBorrowings",
									"type": "uint256[]"
								}
							],
							"internalType": "struct Lending.User",
							"name": "",
							"type": "tuple"
						}
					],
					"stateMutability": "nonpayable",
					"type": "function"
				},
				{
					"inputs": [
						{
							"internalType": "string",
							"name": "key",
							"type": "string"
						},
						{
							"internalType": "string",
							"name": "variable",
							"type": "string"
						}
					],
					"name": "doesKeyExist",
					"outputs": [
						{
							"internalType": "bool",
							"name": "",
							"type": "bool"
						}
					],
					"stateMutability": "view",
					"type": "function"
				},
				{
					"inputs": [],
					"name": "getAllProducts",
					"outputs": [
						{
							"internalType": "uint256[]",
							"name": "",
							"type": "uint256[]"
						}
					],
					"stateMutability": "view",
					"type": "function"
				},
				{
					"inputs": [],
					"name": "getAllRents",
					"outputs": [
						{
							"internalType": "uint256[]",
							"name": "",
							"type": "uint256[]"
						}
					],
					"stateMutability": "view",
					"type": "function"
				},
				{
					"inputs": [],
					"name": "getOwner",
					"outputs": [
						{
							"internalType": "address",
							"name": "",
							"type": "address"
						}
					],
					"stateMutability": "view",
					"type": "function"
				},
				{
					"inputs": [
						{
							"internalType": "uint256",
							"name": "productId",
							"type": "uint256"
						}
					],
					"name": "getProductById",
					"outputs": [
						{
							"components": [
								{
									"internalType": "uint256",
									"name": "id",
									"type": "uint256"
								},
								{
									"internalType": "string",
									"name": "userId",
									"type": "string"
								},
								{
									"internalType": "string",
									"name": "lat",
									"type": "string"
								},
								{
									"internalType": "string",
									"name": "lng",
									"type": "string"
								},
								{
									"internalType": "string",
									"name": "name",
									"type": "string"
								},
								{
									"internalType": "string",
									"name": "description",
									"type": "string"
								},
								{
									"internalType": "uint256",
									"name": "prodValue",
									"type": "uint256"
								},
								{
									"internalType": "uint256",
									"name": "price",
									"type": "uint256"
								},
								{
									"internalType": "string",
									"name": "image",
									"type": "string"
								}
							],
							"internalType": "struct Lending.Product",
							"name": "",
							"type": "tuple"
						}
					],
					"stateMutability": "view",
					"type": "function"
				},
				{
					"inputs": [
						{
							"internalType": "uint256",
							"name": "rentId",
							"type": "uint256"
						}
					],
					"name": "getRent",
					"outputs": [
						{
							"components": [
								{
									"internalType": "uint256",
									"name": "id",
									"type": "uint256"
								},
								{
									"internalType": "uint256",
									"name": "productId",
									"type": "uint256"
								},
								{
									"internalType": "string",
									"name": "owner",
									"type": "string"
								},
								{
									"internalType": "string",
									"name": "rentedBy",
									"type": "string"
								},
								{
									"internalType": "bool",
									"name": "isApproved",
									"type": "bool"
								},
								{
									"internalType": "bool",
									"name": "isReturned",
									"type": "bool"
								},
								{
									"internalType": "string",
									"name": "incidence",
									"type": "string"
								}
							],
							"internalType": "struct Lending.Rent",
							"name": "",
							"type": "tuple"
						}
					],
					"stateMutability": "view",
					"type": "function"
				},
				{
					"inputs": [
						{
							"internalType": "string",
							"name": "userId",
							"type": "string"
						}
					],
					"name": "getUserById",
					"outputs": [
						{
							"components": [
								{
									"internalType": "string",
									"name": "userId",
									"type": "string"
								},
								{
									"internalType": "string",
									"name": "worldCoinId",
									"type": "string"
								},
								{
									"internalType": "string",
									"name": "lensHandle",
									"type": "string"
								},
								{
									"internalType": "string[]",
									"name": "wallets",
									"type": "string[]"
								},
								{
									"internalType": "uint256[]",
									"name": "products",
									"type": "uint256[]"
								},
								{
									"internalType": "uint256[]",
									"name": "myLendings",
									"type": "uint256[]"
								},
								{
									"internalType": "uint256[]",
									"name": "myBorrowings",
									"type": "uint256[]"
								}
							],
							"internalType": "struct Lending.User",
							"name": "",
							"type": "tuple"
						}
					],
					"stateMutability": "view",
					"type": "function"
				},
				{
					"inputs": [
						{
							"internalType": "string",
							"name": "lens",
							"type": "string"
						}
					],
					"name": "getUserByLens",
					"outputs": [
						{
							"components": [
								{
									"internalType": "string",
									"name": "userId",
									"type": "string"
								},
								{
									"internalType": "string",
									"name": "worldCoinId",
									"type": "string"
								},
								{
									"internalType": "string",
									"name": "lensHandle",
									"type": "string"
								},
								{
									"internalType": "string[]",
									"name": "wallets",
									"type": "string[]"
								},
								{
									"internalType": "uint256[]",
									"name": "products",
									"type": "uint256[]"
								},
								{
									"internalType": "uint256[]",
									"name": "myLendings",
									"type": "uint256[]"
								},
								{
									"internalType": "uint256[]",
									"name": "myBorrowings",
									"type": "uint256[]"
								}
							],
							"internalType": "struct Lending.User",
							"name": "",
							"type": "tuple"
						}
					],
					"stateMutability": "view",
					"type": "function"
				},
				{
					"inputs": [
						{
							"internalType": "string",
							"name": "addr",
							"type": "string"
						}
					],
					"name": "getUserByWallet",
					"outputs": [
						{
							"components": [
								{
									"internalType": "string",
									"name": "userId",
									"type": "string"
								},
								{
									"internalType": "string",
									"name": "worldCoinId",
									"type": "string"
								},
								{
									"internalType": "string",
									"name": "lensHandle",
									"type": "string"
								},
								{
									"internalType": "string[]",
									"name": "wallets",
									"type": "string[]"
								},
								{
									"internalType": "uint256[]",
									"name": "products",
									"type": "uint256[]"
								},
								{
									"internalType": "uint256[]",
									"name": "myLendings",
									"type": "uint256[]"
								},
								{
									"internalType": "uint256[]",
									"name": "myBorrowings",
									"type": "uint256[]"
								}
							],
							"internalType": "struct Lending.User",
							"name": "",
							"type": "tuple"
						}
					],
					"stateMutability": "view",
					"type": "function"
				},
				{
					"inputs": [
						{
							"internalType": "string",
							"name": "WCID",
							"type": "string"
						}
					],
					"name": "getUserByWorldCoin",
					"outputs": [
						{
							"components": [
								{
									"internalType": "string",
									"name": "userId",
									"type": "string"
								},
								{
									"internalType": "string",
									"name": "worldCoinId",
									"type": "string"
								},
								{
									"internalType": "string",
									"name": "lensHandle",
									"type": "string"
								},
								{
									"internalType": "string[]",
									"name": "wallets",
									"type": "string[]"
								},
								{
									"internalType": "uint256[]",
									"name": "products",
									"type": "uint256[]"
								},
								{
									"internalType": "uint256[]",
									"name": "myLendings",
									"type": "uint256[]"
								},
								{
									"internalType": "uint256[]",
									"name": "myBorrowings",
									"type": "uint256[]"
								}
							],
							"internalType": "struct Lending.User",
							"name": "",
							"type": "tuple"
						}
					],
					"stateMutability": "view",
					"type": "function"
				},
				{
					"inputs": [],
					"name": "lasProductId",
					"outputs": [
						{
							"internalType": "uint256",
							"name": "",
							"type": "uint256"
						}
					],
					"stateMutability": "view",
					"type": "function"
				},
				{
					"inputs": [],
					"name": "lastRentId",
					"outputs": [
						{
							"internalType": "uint256",
							"name": "",
							"type": "uint256"
						}
					],
					"stateMutability": "view",
					"type": "function"
				},
				{
					"inputs": [
						{
							"internalType": "string",
							"name": "lending",
							"type": "string"
						},
						{
							"internalType": "string",
							"name": "borowing",
							"type": "string"
						},
						{
							"internalType": "uint256",
							"name": "productId",
							"type": "uint256"
						}
					],
					"name": "makeRentRequest",
					"outputs": [],
					"stateMutability": "nonpayable",
					"type": "function"
				},
				{
					"inputs": [
						{
							"internalType": "bool",
							"name": "status",
							"type": "bool"
						},
						{
							"internalType": "uint256",
							"name": "rentId",
							"type": "uint256"
						}
					],
					"name": "returnRent",
					"outputs": [],
					"stateMutability": "nonpayable",
					"type": "function"
				},
				{
					"inputs": [
						{
							"internalType": "string",
							"name": "_incidence",
							"type": "string"
						},
						{
							"internalType": "uint256",
							"name": "rentId",
							"type": "uint256"
						}
					],
					"name": "setIncidence",
					"outputs": [],
					"stateMutability": "nonpayable",
					"type": "function"
				}
			],
			"devdoc": {
				"kind": "dev",
				"methods": {},
				"version": 1
			},
			"evm": {
				"assembly": "    /* \"Contracts/Lending.sol\":70:7205  contract Lending {... */\n  mstore(0x40, 0x80)\n    /* \"Contracts/Lending.sol\":149:150  0 */\n  0x00\n    /* \"Contracts/Lending.sol\":122:150  uint public lasProductId = 0 */\n  0x01\n  sstore\n    /* \"Contracts/Lending.sol\":181:182  0 */\n  0x00\n    /* \"Contracts/Lending.sol\":156:182  uint public lastRentId = 0 */\n  0x02\n  sstore\n    /* \"Contracts/Lending.sol\":1822:1871  constructor() {... */\n  callvalue\n  dup1\n  iszero\n  tag_1\n  jumpi\n  0x00\n  dup1\n  revert\ntag_1:\n  pop\n    /* \"Contracts/Lending.sol\":1854:1864  msg.sender */\n  caller\n    /* \"Contracts/Lending.sol\":1846:1851  owner */\n  0x00\n  dup1\n    /* \"Contracts/Lending.sol\":1846:1864  owner = msg.sender */\n  0x0100\n  exp\n  dup2\n  sload\n  dup2\n  0xffffffffffffffffffffffffffffffffffffffff\n  mul\n  not\n  and\n  swap1\n  dup4\n  0xffffffffffffffffffffffffffffffffffffffff\n  and\n  mul\n  or\n  swap1\n  sstore\n  pop\n    /* \"Contracts/Lending.sol\":70:7205  contract Lending {... */\n  dataSize(sub_0)\n  dup1\n  dataOffset(sub_0)\n  0x00\n  codecopy\n  0x00\n  return\nstop\n\nsub_0: assembly {\n        /* \"Contracts/Lending.sol\":70:7205  contract Lending {... */\n      mstore(0x40, 0x80)\n      callvalue\n      dup1\n      iszero\n      tag_1\n      jumpi\n      0x00\n      dup1\n      revert\n    tag_1:\n      pop\n      jumpi(tag_2, lt(calldatasize, 0x04))\n      shr(0xe0, calldataload(0x00))\n      dup1\n      0x7198ed1a\n      gt\n      tag_27\n      jumpi\n      dup1\n      0xbb29e2a5\n      gt\n      tag_28\n      jumpi\n      dup1\n      0xbb29e2a5\n      eq\n      tag_21\n      jumpi\n      dup1\n      0xbed34bba\n      eq\n      tag_22\n      jumpi\n      dup1\n      0xc77cfeeb\n      eq\n      tag_23\n      jumpi\n      dup1\n      0xd430e05a\n      eq\n      tag_24\n      jumpi\n      dup1\n      0xf70e1c5e\n      eq\n      tag_25\n      jumpi\n      dup1\n      0xfe1823af\n      eq\n      tag_26\n      jumpi\n      jump(tag_2)\n    tag_28:\n      dup1\n      0x7198ed1a\n      eq\n      tag_15\n      jumpi\n      dup1\n      0x76414782\n      eq\n      tag_16\n      jumpi\n      dup1\n      0x7cb3b62d\n      eq\n      tag_17\n      jumpi\n      dup1\n      0x893d20e8\n      eq\n      tag_18\n      jumpi\n      dup1\n      0x8e7eb953\n      eq\n      tag_19\n      jumpi\n      dup1\n      0xa2e07c84\n      eq\n      tag_20\n      jumpi\n      jump(tag_2)\n    tag_27:\n      dup1\n      0x3f70c2b4\n      gt\n      tag_29\n      jumpi\n      dup1\n      0x3f70c2b4\n      eq\n      tag_9\n      jumpi\n      dup1\n      0x4af5809a\n      eq\n      tag_10\n      jumpi\n      dup1\n      0x51f40dd6\n      eq\n      tag_11\n      jumpi\n      dup1\n      0x63c60bd5\n      eq\n      tag_12\n      jumpi\n      dup1\n      0x63fbe5b3\n      eq\n      tag_13\n      jumpi\n      dup1\n      0x6bd562f3\n      eq\n      tag_14\n      jumpi\n      jump(tag_2)\n    tag_29:\n      dup1\n      0x02ee3a52\n      eq\n      tag_3\n      jumpi\n      dup1\n      0x037d9402\n      eq\n      tag_4\n      jumpi\n      dup1\n      0x067c2d61\n      eq\n      tag_5\n      jumpi\n      dup1\n      0x081396eb\n      eq\n      tag_6\n      jumpi\n      dup1\n      0x15c19c1d\n      eq\n      tag_7\n      jumpi\n      dup1\n      0x379f8fc2\n      eq\n      tag_8\n      jumpi\n    tag_2:\n      0x00\n      dup1\n      revert\n        /* \"Contracts/Lending.sol\":5196:5296  function getAllProducts() public view returns (uint[] memory) {... */\n    tag_3:\n      tag_30\n      tag_31\n      jump\t// in\n    tag_30:\n      mload(0x40)\n      tag_32\n      swap2\n      swap1\n      tag_33\n      jump\t// in\n    tag_32:\n      mload(0x40)\n      dup1\n      swap2\n      sub\n      swap1\n      return\n        /* \"Contracts/Lending.sol\":6270:6371  function getRent(uint rentId) public view returns (Rent memory) {... */\n    tag_4:\n      tag_34\n      0x04\n      dup1\n      calldatasize\n      sub\n      dup2\n      add\n      swap1\n      tag_35\n      swap2\n      swap1\n      tag_36\n      jump\t// in\n    tag_35:\n      tag_37\n      jump\t// in\n    tag_34:\n      mload(0x40)\n      tag_38\n      swap2\n      swap1\n      tag_39\n      jump\t// in\n    tag_38:\n      mload(0x40)\n      dup1\n      swap2\n      sub\n      swap1\n      return\n        /* \"Contracts/Lending.sol\":290:315  uint[] public allRentsIds */\n    tag_5:\n      tag_40\n      0x04\n      dup1\n      calldatasize\n      sub\n      dup2\n      add\n      swap1\n      tag_41\n      swap2\n      swap1\n      tag_36\n      jump\t// in\n    tag_41:\n      tag_42\n      jump\t// in\n    tag_40:\n      mload(0x40)\n      tag_43\n      swap2\n      swap1\n      tag_44\n      jump\t// in\n    tag_43:\n      mload(0x40)\n      dup1\n      swap2\n      sub\n      swap1\n      return\n        /* \"Contracts/Lending.sol\":3407:3573  function assignLensToUser(string memory _lens, string memory userId) public {... */\n    tag_6:\n      tag_45\n      0x04\n      dup1\n      calldatasize\n      sub\n      dup2\n      add\n      swap1\n      tag_46\n      swap2\n      swap1\n      tag_47\n      jump\t// in\n    tag_46:\n      tag_48\n      jump\t// in\n    tag_45:\n      stop\n        /* \"Contracts/Lending.sol\":3579:3816  function assignWorldCoinIdToUser(string memory WCID, string memory userId) public {... */\n    tag_7:\n      tag_49\n      0x04\n      dup1\n      calldatasize\n      sub\n      dup2\n      add\n      swap1\n      tag_50\n      swap2\n      swap1\n      tag_47\n      jump\t// in\n    tag_50:\n      tag_51\n      jump\t// in\n    tag_49:\n      stop\n        /* \"Contracts/Lending.sol\":4337:4451  function getUserById(string memory userId) public view returns (User memory) {... */\n    tag_8:\n      tag_52\n      0x04\n      dup1\n      calldatasize\n      sub\n      dup2\n      add\n      swap1\n      tag_53\n      swap2\n      swap1\n      tag_54\n      jump\t// in\n    tag_53:\n      tag_55\n      jump\t// in\n    tag_52:\n      mload(0x40)\n      tag_56\n      swap2\n      swap1\n      tag_57\n      jump\t// in\n    tag_56:\n      mload(0x40)\n      dup1\n      swap2\n      sub\n      swap1\n      return\n        /* \"Contracts/Lending.sol\":4457:4577  function getProductById(uint productId) public view returns (Product memory) {... */\n    tag_9:\n      tag_58\n      0x04\n      dup1\n      calldatasize\n      sub\n      dup2\n      add\n      swap1\n      tag_59\n      swap2\n      swap1\n      tag_36\n      jump\t// in\n    tag_59:\n      tag_60\n      jump\t// in\n    tag_58:\n      mload(0x40)\n      tag_61\n      swap2\n      swap1\n      tag_62\n      jump\t// in\n    tag_61:\n      mload(0x40)\n      dup1\n      swap2\n      sub\n      swap1\n      return\n        /* \"Contracts/Lending.sol\":5407:5918  function makeRentRequest(... */\n    tag_10:\n      tag_63\n      0x04\n      dup1\n      calldatasize\n      sub\n      dup2\n      add\n      swap1\n      tag_64\n      swap2\n      swap1\n      tag_65\n      jump\t// in\n    tag_64:\n      tag_66\n      jump\t// in\n    tag_63:\n      stop\n        /* \"Contracts/Lending.sol\":3822:4330  function createUserAccount(string memory username, string[] memory _addresses) public returns (User memory) {... */\n    tag_11:\n      tag_67\n      0x04\n      dup1\n      calldatasize\n      sub\n      dup2\n      add\n      swap1\n      tag_68\n      swap2\n      swap1\n      tag_69\n      jump\t// in\n    tag_68:\n      tag_70\n      jump\t// in\n    tag_67:\n      mload(0x40)\n      tag_71\n      swap2\n      swap1\n      tag_57\n      jump\t// in\n    tag_71:\n      mload(0x40)\n      dup1\n      swap2\n      sub\n      swap1\n      return\n        /* \"Contracts/Lending.sol\":3029:3401  function assignWalletsToUser(string[] memory _addresses, string memory userId) public {... */\n    tag_12:\n      tag_72\n      0x04\n      dup1\n      calldatasize\n      sub\n      dup2\n      add\n      swap1\n      tag_73\n      swap2\n      swap1\n      tag_74\n      jump\t// in\n    tag_73:\n      tag_75\n      jump\t// in\n    tag_72:\n      stop\n        /* \"Contracts/Lending.sol\":122:150  uint public lasProductId = 0 */\n    tag_13:\n      tag_76\n      tag_77\n      jump\t// in\n    tag_76:\n      mload(0x40)\n      tag_78\n      swap2\n      swap1\n      tag_44\n      jump\t// in\n    tag_78:\n      mload(0x40)\n      dup1\n      swap2\n      sub\n      swap1\n      return\n        /* \"Contracts/Lending.sol\":6377:7203  function createProduct(... */\n    tag_14:\n      tag_79\n      0x04\n      dup1\n      calldatasize\n      sub\n      dup2\n      add\n      swap1\n      tag_80\n      swap2\n      swap1\n      tag_81\n      jump\t// in\n    tag_80:\n      tag_82\n      jump\t// in\n    tag_79:\n      stop\n        /* \"Contracts/Lending.sol\":4937:5103  function getUserByWallet(string memory addr) public view returns (User memory) {... */\n    tag_15:\n      tag_83\n      0x04\n      dup1\n      calldatasize\n      sub\n      dup2\n      add\n      swap1\n      tag_84\n      swap2\n      swap1\n      tag_54\n      jump\t// in\n    tag_84:\n      tag_85\n      jump\t// in\n    tag_83:\n      mload(0x40)\n      tag_86\n      swap2\n      swap1\n      tag_57\n      jump\t// in\n    tag_86:\n      mload(0x40)\n      dup1\n      swap2\n      sub\n      swap1\n      return\n        /* \"Contracts/Lending.sol\":6034:6137  function returnRent(bool status, uint rentId) public {... */\n    tag_16:\n      tag_87\n      0x04\n      dup1\n      calldatasize\n      sub\n      dup2\n      add\n      swap1\n      tag_88\n      swap2\n      swap1\n      tag_89\n      jump\t// in\n    tag_88:\n      tag_90\n      jump\t// in\n    tag_87:\n      stop\n        /* \"Contracts/Lending.sol\":5924:6028  function approveRent(bool status, uint rentId) public {... */\n    tag_17:\n      tag_91\n      0x04\n      dup1\n      calldatasize\n      sub\n      dup2\n      add\n      swap1\n      tag_92\n      swap2\n      swap1\n      tag_89\n      jump\t// in\n    tag_92:\n      tag_93\n      jump\t// in\n    tag_91:\n      stop\n        /* \"Contracts/Lending.sol\":5109:5190  function getOwner() external view returns (address) {... */\n    tag_18:\n      tag_94\n      tag_95\n      jump\t// in\n    tag_94:\n      mload(0x40)\n      tag_96\n      swap2\n      swap1\n      tag_97\n      jump\t// in\n    tag_96:\n      mload(0x40)\n      dup1\n      swap2\n      sub\n      swap1\n      return\n        /* \"Contracts/Lending.sol\":5302:5396  function getAllRents() public view returns (uint[] memory) {... */\n    tag_19:\n      tag_98\n      tag_99\n      jump\t// in\n    tag_98:\n      mload(0x40)\n      tag_100\n      swap2\n      swap1\n      tag_33\n      jump\t// in\n    tag_100:\n      mload(0x40)\n      dup1\n      swap2\n      sub\n      swap1\n      return\n        /* \"Contracts/Lending.sol\":6143:6264  function setIncidence(string memory _incidence, uint rentId) public {... */\n    tag_20:\n      tag_101\n      0x04\n      dup1\n      calldatasize\n      sub\n      dup2\n      add\n      swap1\n      tag_102\n      swap2\n      swap1\n      tag_103\n      jump\t// in\n    tag_102:\n      tag_104\n      jump\t// in\n    tag_101:\n      stop\n        /* \"Contracts/Lending.sol\":156:182  uint public lastRentId = 0 */\n    tag_21:\n      tag_105\n      tag_106\n      jump\t// in\n    tag_105:\n      mload(0x40)\n      tag_107\n      swap2\n      swap1\n      tag_44\n      jump\t// in\n    tag_107:\n      mload(0x40)\n      dup1\n      swap2\n      sub\n      swap1\n      return\n        /* \"Contracts/Lending.sol\":1878:2271  function compareStrings(string memory a, string memory b) public pure returns (bool) {... */\n    tag_22:\n      tag_108\n      0x04\n      dup1\n      calldatasize\n      sub\n      dup2\n      add\n      swap1\n      tag_109\n      swap2\n      swap1\n      tag_47\n      jump\t// in\n    tag_109:\n      tag_110\n      jump\t// in\n    tag_108:\n      mload(0x40)\n      tag_111\n      swap2\n      swap1\n      tag_112\n      jump\t// in\n    tag_111:\n      mload(0x40)\n      dup1\n      swap2\n      sub\n      swap1\n      return\n        /* \"Contracts/Lending.sol\":4583:4751  function getUserByLens(string memory lens) public view returns (User memory) {... */\n    tag_23:\n      tag_113\n      0x04\n      dup1\n      calldatasize\n      sub\n      dup2\n      add\n      swap1\n      tag_114\n      swap2\n      swap1\n      tag_54\n      jump\t// in\n    tag_114:\n      tag_115\n      jump\t// in\n    tag_113:\n      mload(0x40)\n      tag_116\n      swap2\n      swap1\n      tag_57\n      jump\t// in\n    tag_116:\n      mload(0x40)\n      dup1\n      swap2\n      sub\n      swap1\n      return\n        /* \"Contracts/Lending.sol\":2333:2959  function doesKeyExist(string memory key, string memory variable) public view returns (bool) {... */\n    tag_24:\n      tag_117\n      0x04\n      dup1\n      calldatasize\n      sub\n      dup2\n      add\n      swap1\n      tag_118\n      swap2\n      swap1\n      tag_47\n      jump\t// in\n    tag_118:\n      tag_119\n      jump\t// in\n    tag_117:\n      mload(0x40)\n      tag_120\n      swap2\n      swap1\n      tag_112\n      jump\t// in\n    tag_120:\n      mload(0x40)\n      dup1\n      swap2\n      sub\n      swap1\n      return\n        /* \"Contracts/Lending.sol\":4757:4931  function getUserByWorldCoin(string memory WCID) public view returns (User memory) {... */\n    tag_25:\n      tag_121\n      0x04\n      dup1\n      calldatasize\n      sub\n      dup2\n      add\n      swap1\n      tag_122\n      swap2\n      swap1\n      tag_54\n      jump\t// in\n    tag_122:\n      tag_123\n      jump\t// in\n    tag_121:\n      mload(0x40)\n      tag_124\n      swap2\n      swap1\n      tag_57\n      jump\t// in\n    tag_124:\n      mload(0x40)\n      dup1\n      swap2\n      sub\n      swap1\n      return\n        /* \"Contracts/Lending.sol\":256:284  uint[] public allProductsIds */\n    tag_26:\n      tag_125\n      0x04\n      dup1\n      calldatasize\n      sub\n      dup2\n      add\n      swap1\n      tag_126\n      swap2\n      swap1\n      tag_36\n      jump\t// in\n    tag_126:\n      tag_127\n      jump\t// in\n    tag_125:\n      mload(0x40)\n      tag_128\n      swap2\n      swap1\n      tag_44\n      jump\t// in\n    tag_128:\n      mload(0x40)\n      dup1\n      swap2\n      sub\n      swap1\n      return\n        /* \"Contracts/Lending.sol\":5196:5296  function getAllProducts() public view returns (uint[] memory) {... */\n    tag_31:\n        /* \"Contracts/Lending.sol\":5243:5256  uint[] memory */\n      0x60\n        /* \"Contracts/Lending.sol\":5275:5289  allProductsIds */\n      0x03\n        /* \"Contracts/Lending.sol\":5268:5289  return allProductsIds */\n      dup1\n      sload\n      dup1\n      0x20\n      mul\n      0x20\n      add\n      mload(0x40)\n      swap1\n      dup2\n      add\n      0x40\n      mstore\n      dup1\n      swap3\n      swap2\n      swap1\n      dup2\n      dup2\n      mstore\n      0x20\n      add\n      dup3\n      dup1\n      sload\n      dup1\n      iszero\n      tag_130\n      jumpi\n      0x20\n      mul\n      dup3\n      add\n      swap2\n      swap1\n      0x00\n      mstore\n      keccak256(0x00, 0x20)\n      swap1\n    tag_131:\n      dup2\n      sload\n      dup2\n      mstore\n      0x20\n      add\n      swap1\n      0x01\n      add\n      swap1\n      dup1\n      dup4\n      gt\n      tag_131\n      jumpi\n    tag_130:\n      pop\n      pop\n      pop\n      pop\n      pop\n      swap1\n      pop\n        /* \"Contracts/Lending.sol\":5196:5296  function getAllProducts() public view returns (uint[] memory) {... */\n      swap1\n      jump\t// out\n        /* \"Contracts/Lending.sol\":6270:6371  function getRent(uint rentId) public view returns (Rent memory) {... */\n    tag_37:\n        /* \"Contracts/Lending.sol\":6321:6332  Rent memory */\n      tag_132\n      tag_133\n      jump\t// in\n    tag_132:\n        /* \"Contracts/Lending.sol\":6351:6356  Rents */\n      0x07\n        /* \"Contracts/Lending.sol\":6351:6364  Rents[rentId] */\n      0x00\n        /* \"Contracts/Lending.sol\":6357:6363  rentId */\n      dup4\n        /* \"Contracts/Lending.sol\":6351:6364  Rents[rentId] */\n      dup2\n      mstore\n      0x20\n      add\n      swap1\n      dup2\n      mstore\n      0x20\n      add\n      0x00\n      keccak256\n        /* \"Contracts/Lending.sol\":6344:6364  return Rents[rentId] */\n      mload(0x40)\n      dup1\n      0xe0\n      add\n      0x40\n      mstore\n      swap1\n      dup2\n      0x00\n      dup3\n      add\n      sload\n      dup2\n      mstore\n      0x20\n      add\n      0x01\n      dup3\n      add\n      sload\n      dup2\n      mstore\n      0x20\n      add\n      0x02\n      dup3\n      add\n      dup1\n      sload\n      tag_135\n      swap1\n      tag_136\n      jump\t// in\n    tag_135:\n      dup1\n      0x1f\n      add\n      0x20\n      dup1\n      swap2\n      div\n      mul\n      0x20\n      add\n      mload(0x40)\n      swap1\n      dup2\n      add\n      0x40\n      mstore\n      dup1\n      swap3\n      swap2\n      swap1\n      dup2\n      dup2\n      mstore\n      0x20\n      add\n      dup3\n      dup1\n      sload\n      tag_137\n      swap1\n      tag_136\n      jump\t// in\n    tag_137:\n      dup1\n      iszero\n      tag_138\n      jumpi\n      dup1\n      0x1f\n      lt\n      tag_139\n      jumpi\n      0x0100\n      dup1\n      dup4\n      sload\n      div\n      mul\n      dup4\n      mstore\n      swap2\n      0x20\n      add\n      swap2\n      jump(tag_138)\n    tag_139:\n      dup3\n      add\n      swap2\n      swap1\n      0x00\n      mstore\n      keccak256(0x00, 0x20)\n      swap1\n    tag_140:\n      dup2\n      sload\n      dup2\n      mstore\n      swap1\n      0x01\n      add\n      swap1\n      0x20\n      add\n      dup1\n      dup4\n      gt\n      tag_140\n      jumpi\n      dup3\n      swap1\n      sub\n      0x1f\n      and\n      dup3\n      add\n      swap2\n    tag_138:\n      pop\n      pop\n      pop\n      pop\n      pop\n      dup2\n      mstore\n      0x20\n      add\n      0x03\n      dup3\n      add\n      dup1\n      sload\n      tag_141\n      swap1\n      tag_136\n      jump\t// in\n    tag_141:\n      dup1\n      0x1f\n      add\n      0x20\n      dup1\n      swap2\n      div\n      mul\n      0x20\n      add\n      mload(0x40)\n      swap1\n      dup2\n      add\n      0x40\n      mstore\n      dup1\n      swap3\n      swap2\n      swap1\n      dup2\n      dup2\n      mstore\n      0x20\n      add\n      dup3\n      dup1\n      sload\n      tag_142\n      swap1\n      tag_136\n      jump\t// in\n    tag_142:\n      dup1\n      iszero\n      tag_143\n      jumpi\n      dup1\n      0x1f\n      lt\n      tag_144\n      jumpi\n      0x0100\n      dup1\n      dup4\n      sload\n      div\n      mul\n      dup4\n      mstore\n      swap2\n      0x20\n      add\n      swap2\n      jump(tag_143)\n    tag_144:\n      dup3\n      add\n      swap2\n      swap1\n      0x00\n      mstore\n      keccak256(0x00, 0x20)\n      swap1\n    tag_145:\n      dup2\n      sload\n      dup2\n      mstore\n      swap1\n      0x01\n      add\n      swap1\n      0x20\n      add\n      dup1\n      dup4\n      gt\n      tag_145\n      jumpi\n      dup3\n      swap1\n      sub\n      0x1f\n      and\n      dup3\n      add\n      swap2\n    tag_143:\n      pop\n      pop\n      pop\n      pop\n      pop\n      dup2\n      mstore\n      0x20\n      add\n      0x04\n      dup3\n      add\n      0x00\n      swap1\n      sload\n      swap1\n      0x0100\n      exp\n      swap1\n      div\n      0xff\n      and\n      iszero\n      iszero\n      iszero\n      iszero\n      dup2\n      mstore\n      0x20\n      add\n      0x04\n      dup3\n      add\n      0x01\n      swap1\n      sload\n      swap1\n      0x0100\n      exp\n      swap1\n      div\n      0xff\n      and\n      iszero\n      iszero\n      iszero\n      iszero\n      dup2\n      mstore\n      0x20\n      add\n      0x05\n      dup3\n      add\n      dup1\n      sload\n      tag_146\n      swap1\n      tag_136\n      jump\t// in\n    tag_146:\n      dup1\n      0x1f\n      add\n      0x20\n      dup1\n      swap2\n      div\n      mul\n      0x20\n      add\n      mload(0x40)\n      swap1\n      dup2\n      add\n      0x40\n      mstore\n      dup1\n      swap3\n      swap2\n      swap1\n      dup2\n      dup2\n      mstore\n      0x20\n      add\n      dup3\n      dup1\n      sload\n      tag_147\n      swap1\n      tag_136\n      jump\t// in\n    tag_147:\n      dup1\n      iszero\n      tag_148\n      jumpi\n      dup1\n      0x1f\n      lt\n      tag_149\n      jumpi\n      0x0100\n      dup1\n      dup4\n      sload\n      div\n      mul\n      dup4\n      mstore\n      swap2\n      0x20\n      add\n      swap2\n      jump(tag_148)\n    tag_149:\n      dup3\n      add\n      swap2\n      swap1\n      0x00\n      mstore\n      keccak256(0x00, 0x20)\n      swap1\n    tag_150:\n      dup2\n      sload\n      dup2\n      mstore\n      swap1\n      0x01\n      add\n      swap1\n      0x20\n      add\n      dup1\n      dup4\n      gt\n      tag_150\n      jumpi\n      dup3\n      swap1\n      sub\n      0x1f\n      and\n      dup3\n      add\n      swap2\n    tag_148:\n      pop\n      pop\n      pop\n      pop\n      pop\n      dup2\n      mstore\n      pop\n      pop\n      swap1\n      pop\n        /* \"Contracts/Lending.sol\":6270:6371  function getRent(uint rentId) public view returns (Rent memory) {... */\n      swap2\n      swap1\n      pop\n      jump\t// out\n        /* \"Contracts/Lending.sol\":290:315  uint[] public allRentsIds */\n    tag_42:\n      0x04\n      dup2\n      dup2\n      sload\n      dup2\n      lt\n      tag_151\n      jumpi\n      0x00\n      dup1\n      revert\n    tag_151:\n      swap1\n      0x00\n      mstore\n      keccak256(0x00, 0x20)\n      add\n      0x00\n      swap2\n      pop\n      swap1\n      pop\n      sload\n      dup2\n      jump\t// out\n        /* \"Contracts/Lending.sol\":3407:3573  function assignLensToUser(string memory _lens, string memory userId) public {... */\n    tag_48:\n        /* \"Contracts/Lending.sol\":3518:3524  userId */\n      dup1\n        /* \"Contracts/Lending.sol\":3493:3508  UserLensHandles */\n      0x0d\n        /* \"Contracts/Lending.sol\":3509:3514  _lens */\n      dup4\n        /* \"Contracts/Lending.sol\":3493:3515  UserLensHandles[_lens] */\n      mload(0x40)\n      tag_154\n      swap2\n      swap1\n      tag_155\n      jump\t// in\n    tag_154:\n      swap1\n      dup2\n      mstore\n      0x20\n      add\n      mload(0x40)\n      dup1\n      swap2\n      sub\n      swap1\n      keccak256\n        /* \"Contracts/Lending.sol\":3493:3524  UserLensHandles[_lens] = userId */\n      swap1\n      dup2\n      tag_156\n      swap2\n      swap1\n      tag_157\n      jump\t// in\n    tag_156:\n      pop\n        /* \"Contracts/Lending.sol\":3561:3566  _lens */\n      dup2\n        /* \"Contracts/Lending.sol\":3534:3539  Users */\n      0x06\n        /* \"Contracts/Lending.sol\":3540:3546  userId */\n      dup3\n        /* \"Contracts/Lending.sol\":3534:3547  Users[userId] */\n      mload(0x40)\n      tag_158\n      swap2\n      swap1\n      tag_155\n      jump\t// in\n    tag_158:\n      swap1\n      dup2\n      mstore\n      0x20\n      add\n      mload(0x40)\n      dup1\n      swap2\n      sub\n      swap1\n      keccak256\n        /* \"Contracts/Lending.sol\":3534:3558  Users[userId].lensHandle */\n      0x02\n      add\n        /* \"Contracts/Lending.sol\":3534:3566  Users[userId].lensHandle = _lens */\n      swap1\n      dup2\n      tag_159\n      swap2\n      swap1\n      tag_157\n      jump\t// in\n    tag_159:\n      pop\n        /* \"Contracts/Lending.sol\":3407:3573  function assignLensToUser(string memory _lens, string memory userId) public {... */\n      pop\n      pop\n      jump\t// out\n        /* \"Contracts/Lending.sol\":3579:3816  function assignWorldCoinIdToUser(string memory WCID, string memory userId) public {... */\n    tag_51:\n        /* \"Contracts/Lending.sol\":3676:3706  doesKeyExist(WCID, 'userWCID') */\n      tag_161\n        /* \"Contracts/Lending.sol\":3689:3693  WCID */\n      dup3\n        /* \"Contracts/Lending.sol\":3676:3706  doesKeyExist(WCID, 'userWCID') */\n      mload(0x40)\n      dup1\n      0x40\n      add\n      0x40\n      mstore\n      dup1\n      0x08\n      dup2\n      mstore\n      0x20\n      add\n      0x7573657257434944000000000000000000000000000000000000000000000000\n      dup2\n      mstore\n      pop\n        /* \"Contracts/Lending.sol\":3676:3688  doesKeyExist */\n      tag_119\n        /* \"Contracts/Lending.sol\":3676:3706  doesKeyExist(WCID, 'userWCID') */\n      jump\t// in\n    tag_161:\n        /* \"Contracts/Lending.sol\":3671:3810  if (!doesKeyExist(WCID, 'userWCID')) {... */\n      tag_162\n      jumpi\n        /* \"Contracts/Lending.sol\":3747:3753  userId */\n      dup1\n        /* \"Contracts/Lending.sol\":3722:3738  UserWorldCoinIds */\n      0x0b\n        /* \"Contracts/Lending.sol\":3739:3743  WCID */\n      dup4\n        /* \"Contracts/Lending.sol\":3722:3744  UserWorldCoinIds[WCID] */\n      mload(0x40)\n      tag_163\n      swap2\n      swap1\n      tag_155\n      jump\t// in\n    tag_163:\n      swap1\n      dup2\n      mstore\n      0x20\n      add\n      mload(0x40)\n      dup1\n      swap2\n      sub\n      swap1\n      keccak256\n        /* \"Contracts/Lending.sol\":3722:3753  UserWorldCoinIds[WCID] = userId */\n      swap1\n      dup2\n      tag_164\n      swap2\n      swap1\n      tag_157\n      jump\t// in\n    tag_164:\n      pop\n        /* \"Contracts/Lending.sol\":3795:3799  WCID */\n      dup2\n        /* \"Contracts/Lending.sol\":3767:3772  Users */\n      0x06\n        /* \"Contracts/Lending.sol\":3773:3779  userId */\n      dup3\n        /* \"Contracts/Lending.sol\":3767:3780  Users[userId] */\n      mload(0x40)\n      tag_165\n      swap2\n      swap1\n      tag_155\n      jump\t// in\n    tag_165:\n      swap1\n      dup2\n      mstore\n      0x20\n      add\n      mload(0x40)\n      dup1\n      swap2\n      sub\n      swap1\n      keccak256\n        /* \"Contracts/Lending.sol\":3767:3792  Users[userId].worldCoinId */\n      0x01\n      add\n        /* \"Contracts/Lending.sol\":3767:3799  Users[userId].worldCoinId = WCID */\n      swap1\n      dup2\n      tag_166\n      swap2\n      swap1\n      tag_157\n      jump\t// in\n    tag_166:\n      pop\n        /* \"Contracts/Lending.sol\":3671:3810  if (!doesKeyExist(WCID, 'userWCID')) {... */\n    tag_162:\n        /* \"Contracts/Lending.sol\":3579:3816  function assignWorldCoinIdToUser(string memory WCID, string memory userId) public {... */\n      pop\n      pop\n      jump\t// out\n        /* \"Contracts/Lending.sol\":4337:4451  function getUserById(string memory userId) public view returns (User memory) {... */\n    tag_55:\n        /* \"Contracts/Lending.sol\":4401:4412  User memory */\n      tag_167\n      tag_168\n      jump\t// in\n    tag_167:\n        /* \"Contracts/Lending.sol\":4431:4436  Users */\n      0x06\n        /* \"Contracts/Lending.sol\":4437:4443  userId */\n      dup3\n        /* \"Contracts/Lending.sol\":4431:4444  Users[userId] */\n      mload(0x40)\n      tag_170\n      swap2\n      swap1\n      tag_155\n      jump\t// in\n    tag_170:\n      swap1\n      dup2\n      mstore\n      0x20\n      add\n      mload(0x40)\n      dup1\n      swap2\n      sub\n      swap1\n      keccak256\n        /* \"Contracts/Lending.sol\":4424:4444  return Users[userId] */\n      mload(0x40)\n      dup1\n      0xe0\n      add\n      0x40\n      mstore\n      swap1\n      dup2\n      0x00\n      dup3\n      add\n      dup1\n      sload\n      tag_171\n      swap1\n      tag_136\n      jump\t// in\n    tag_171:\n      dup1\n      0x1f\n      add\n      0x20\n      dup1\n      swap2\n      div\n      mul\n      0x20\n      add\n      mload(0x40)\n      swap1\n      dup2\n      add\n      0x40\n      mstore\n      dup1\n      swap3\n      swap2\n      swap1\n      dup2\n      dup2\n      mstore\n      0x20\n      add\n      dup3\n      dup1\n      sload\n      tag_172\n      swap1\n      tag_136\n      jump\t// in\n    tag_172:\n      dup1\n      iszero\n      tag_173\n      jumpi\n      dup1\n      0x1f\n      lt\n      tag_174\n      jumpi\n      0x0100\n      dup1\n      dup4\n      sload\n      div\n      mul\n      dup4\n      mstore\n      swap2\n      0x20\n      add\n      swap2\n      jump(tag_173)\n    tag_174:\n      dup3\n      add\n      swap2\n      swap1\n      0x00\n      mstore\n      keccak256(0x00, 0x20)\n      swap1\n    tag_175:\n      dup2\n      sload\n      dup2\n      mstore\n      swap1\n      0x01\n      add\n      swap1\n      0x20\n      add\n      dup1\n      dup4\n      gt\n      tag_175\n      jumpi\n      dup3\n      swap1\n      sub\n      0x1f\n      and\n      dup3\n      add\n      swap2\n    tag_173:\n      pop\n      pop\n      pop\n      pop\n      pop\n      dup2\n      mstore\n      0x20\n      add\n      0x01\n      dup3\n      add\n      dup1\n      sload\n      tag_176\n      swap1\n      tag_136\n      jump\t// in\n    tag_176:\n      dup1\n      0x1f\n      add\n      0x20\n      dup1\n      swap2\n      div\n      mul\n      0x20\n      add\n      mload(0x40)\n      swap1\n      dup2\n      add\n      0x40\n      mstore\n      dup1\n      swap3\n      swap2\n      swap1\n      dup2\n      dup2\n      mstore\n      0x20\n      add\n      dup3\n      dup1\n      sload\n      tag_177\n      swap1\n      tag_136\n      jump\t// in\n    tag_177:\n      dup1\n      iszero\n      tag_178\n      jumpi\n      dup1\n      0x1f\n      lt\n      tag_179\n      jumpi\n      0x0100\n      dup1\n      dup4\n      sload\n      div\n      mul\n      dup4\n      mstore\n      swap2\n      0x20\n      add\n      swap2\n      jump(tag_178)\n    tag_179:\n      dup3\n      add\n      swap2\n      swap1\n      0x00\n      mstore\n      keccak256(0x00, 0x20)\n      swap1\n    tag_180:\n      dup2\n      sload\n      dup2\n      mstore\n      swap1\n      0x01\n      add\n      swap1\n      0x20\n      add\n      dup1\n      dup4\n      gt\n      tag_180\n      jumpi\n      dup3\n      swap1\n      sub\n      0x1f\n      and\n      dup3\n      add\n      swap2\n    tag_178:\n      pop\n      pop\n      pop\n      pop\n      pop\n      dup2\n      mstore\n      0x20\n      add\n      0x02\n      dup3\n      add\n      dup1\n      sload\n      tag_181\n      swap1\n      tag_136\n      jump\t// in\n    tag_181:\n      dup1\n      0x1f\n      add\n      0x20\n      dup1\n      swap2\n      div\n      mul\n      0x20\n      add\n      mload(0x40)\n      swap1\n      dup2\n      add\n      0x40\n      mstore\n      dup1\n      swap3\n      swap2\n      swap1\n      dup2\n      dup2\n      mstore\n      0x20\n      add\n      dup3\n      dup1\n      sload\n      tag_182\n      swap1\n      tag_136\n      jump\t// in\n    tag_182:\n      dup1\n      iszero\n      tag_183\n      jumpi\n      dup1\n      0x1f\n      lt\n      tag_184\n      jumpi\n      0x0100\n      dup1\n      dup4\n      sload\n      div\n      mul\n      dup4\n      mstore\n      swap2\n      0x20\n      add\n      swap2\n      jump(tag_183)\n    tag_184:\n      dup3\n      add\n      swap2\n      swap1\n      0x00\n      mstore\n      keccak256(0x00, 0x20)\n      swap1\n    tag_185:\n      dup2\n      sload\n      dup2\n      mstore\n      swap1\n      0x01\n      add\n      swap1\n      0x20\n      add\n      dup1\n      dup4\n      gt\n      tag_185\n      jumpi\n      dup3\n      swap1\n      sub\n      0x1f\n      and\n      dup3\n      add\n      swap2\n    tag_183:\n      pop\n      pop\n      pop\n      pop\n      pop\n      dup2\n      mstore\n      0x20\n      add\n      0x03\n      dup3\n      add\n      dup1\n      sload\n      dup1\n      0x20\n      mul\n      0x20\n      add\n      mload(0x40)\n      swap1\n      dup2\n      add\n      0x40\n      mstore\n      dup1\n      swap3\n      swap2\n      swap1\n      dup2\n      dup2\n      mstore\n      0x20\n      add\n      0x00\n      swap1\n    tag_186:\n      dup3\n      dup3\n      lt\n      iszero\n      tag_187\n      jumpi\n      dup4\n      dup3\n      swap1\n      0x00\n      mstore\n      keccak256(0x00, 0x20)\n      add\n      dup1\n      sload\n      tag_189\n      swap1\n      tag_136\n      jump\t// in\n    tag_189:\n      dup1\n      0x1f\n      add\n      0x20\n      dup1\n      swap2\n      div\n      mul\n      0x20\n      add\n      mload(0x40)\n      swap1\n      dup2\n      add\n      0x40\n      mstore\n      dup1\n      swap3\n      swap2\n      swap1\n      dup2\n      dup2\n      mstore\n      0x20\n      add\n      dup3\n      dup1\n      sload\n      tag_190\n      swap1\n      tag_136\n      jump\t// in\n    tag_190:\n      dup1\n      iszero\n      tag_191\n      jumpi\n      dup1\n      0x1f\n      lt\n      tag_192\n      jumpi\n      0x0100\n      dup1\n      dup4\n      sload\n      div\n      mul\n      dup4\n      mstore\n      swap2\n      0x20\n      add\n      swap2\n      jump(tag_191)\n    tag_192:\n      dup3\n      add\n      swap2\n      swap1\n      0x00\n      mstore\n      keccak256(0x00, 0x20)\n      swap1\n    tag_193:\n      dup2\n      sload\n      dup2\n      mstore\n      swap1\n      0x01\n      add\n      swap1\n      0x20\n      add\n      dup1\n      dup4\n      gt\n      tag_193\n      jumpi\n      dup3\n      swap1\n      sub\n      0x1f\n      and\n      dup3\n      add\n      swap2\n    tag_191:\n      pop\n      pop\n      pop\n      pop\n      pop\n      dup2\n      mstore\n      0x20\n      add\n      swap1\n      0x01\n      add\n      swap1\n      jump(tag_186)\n    tag_187:\n      pop\n      pop\n      pop\n      pop\n      dup2\n      mstore\n      0x20\n      add\n      0x04\n      dup3\n      add\n      dup1\n      sload\n      dup1\n      0x20\n      mul\n      0x20\n      add\n      mload(0x40)\n      swap1\n      dup2\n      add\n      0x40\n      mstore\n      dup1\n      swap3\n      swap2\n      swap1\n      dup2\n      dup2\n      mstore\n      0x20\n      add\n      dup3\n      dup1\n      sload\n      dup1\n      iszero\n      tag_194\n      jumpi\n      0x20\n      mul\n      dup3\n      add\n      swap2\n      swap1\n      0x00\n      mstore\n      keccak256(0x00, 0x20)\n      swap1\n    tag_195:\n      dup2\n      sload\n      dup2\n      mstore\n      0x20\n      add\n      swap1\n      0x01\n      add\n      swap1\n      dup1\n      dup4\n      gt\n      tag_195\n      jumpi\n    tag_194:\n      pop\n      pop\n      pop\n      pop\n      pop\n      dup2\n      mstore\n      0x20\n      add\n      0x05\n      dup3\n      add\n      dup1\n      sload\n      dup1\n      0x20\n      mul\n      0x20\n      add\n      mload(0x40)\n      swap1\n      dup2\n      add\n      0x40\n      mstore\n      dup1\n      swap3\n      swap2\n      swap1\n      dup2\n      dup2\n      mstore\n      0x20\n      add\n      dup3\n      dup1\n      sload\n      dup1\n      iszero\n      tag_196\n      jumpi\n      0x20\n      mul\n      dup3\n      add\n      swap2\n      swap1\n      0x00\n      mstore\n      keccak256(0x00, 0x20)\n      swap1\n    tag_197:\n      dup2\n      sload\n      dup2\n      mstore\n      0x20\n      add\n      swap1\n      0x01\n      add\n      swap1\n      dup1\n      dup4\n      gt\n      tag_197\n      jumpi\n    tag_196:\n      pop\n      pop\n      pop\n      pop\n      pop\n      dup2\n      mstore\n      0x20\n      add\n      0x06\n      dup3\n      add\n      dup1\n      sload\n      dup1\n      0x20\n      mul\n      0x20\n      add\n      mload(0x40)\n      swap1\n      dup2\n      add\n      0x40\n      mstore\n      dup1\n      swap3\n      swap2\n      swap1\n      dup2\n      dup2\n      mstore\n      0x20\n      add\n      dup3\n      dup1\n      sload\n      dup1\n      iszero\n      tag_198\n      jumpi\n      0x20\n      mul\n      dup3\n      add\n      swap2\n      swap1\n      0x00\n      mstore\n      keccak256(0x00, 0x20)\n      swap1\n    tag_199:\n      dup2\n      sload\n      dup2\n      mstore\n      0x20\n      add\n      swap1\n      0x01\n      add\n      swap1\n      dup1\n      dup4\n      gt\n      tag_199\n      jumpi\n    tag_198:\n      pop\n      pop\n      pop\n      pop\n      pop\n      dup2\n      mstore\n      pop\n      pop\n      swap1\n      pop\n        /* \"Contracts/Lending.sol\":4337:4451  function getUserById(string memory userId) public view returns (User memory) {... */\n      swap2\n      swap1\n      pop\n      jump\t// out\n        /* \"Contracts/Lending.sol\":4457:4577  function getProductById(uint productId) public view returns (Product memory) {... */\n    tag_60:\n        /* \"Contracts/Lending.sol\":4518:4532  Product memory */\n      tag_200\n      tag_201\n      jump\t// in\n    tag_200:\n        /* \"Contracts/Lending.sol\":4551:4559  Products */\n      0x05\n        /* \"Contracts/Lending.sol\":4551:4570  Products[productId] */\n      0x00\n        /* \"Contracts/Lending.sol\":4560:4569  productId */\n      dup4\n        /* \"Contracts/Lending.sol\":4551:4570  Products[productId] */\n      dup2\n      mstore\n      0x20\n      add\n      swap1\n      dup2\n      mstore\n      0x20\n      add\n      0x00\n      keccak256\n        /* \"Contracts/Lending.sol\":4544:4570  return Products[productId] */\n      mload(0x40)\n      dup1\n      0x0120\n      add\n      0x40\n      mstore\n      swap1\n      dup2\n      0x00\n      dup3\n      add\n      sload\n      dup2\n      mstore\n      0x20\n      add\n      0x01\n      dup3\n      add\n      dup1\n      sload\n      tag_203\n      swap1\n      tag_136\n      jump\t// in\n    tag_203:\n      dup1\n      0x1f\n      add\n      0x20\n      dup1\n      swap2\n      div\n      mul\n      0x20\n      add\n      mload(0x40)\n      swap1\n      dup2\n      add\n      0x40\n      mstore\n      dup1\n      swap3\n      swap2\n      swap1\n      dup2\n      dup2\n      mstore\n      0x20\n      add\n      dup3\n      dup1\n      sload\n      tag_204\n      swap1\n      tag_136\n      jump\t// in\n    tag_204:\n      dup1\n      iszero\n      tag_205\n      jumpi\n      dup1\n      0x1f\n      lt\n      tag_206\n      jumpi\n      0x0100\n      dup1\n      dup4\n      sload\n      div\n      mul\n      dup4\n      mstore\n      swap2\n      0x20\n      add\n      swap2\n      jump(tag_205)\n    tag_206:\n      dup3\n      add\n      swap2\n      swap1\n      0x00\n      mstore\n      keccak256(0x00, 0x20)\n      swap1\n    tag_207:\n      dup2\n      sload\n      dup2\n      mstore\n      swap1\n      0x01\n      add\n      swap1\n      0x20\n      add\n      dup1\n      dup4\n      gt\n      tag_207\n      jumpi\n      dup3\n      swap1\n      sub\n      0x1f\n      and\n      dup3\n      add\n      swap2\n    tag_205:\n      pop\n      pop\n      pop\n      pop\n      pop\n      dup2\n      mstore\n      0x20\n      add\n      0x02\n      dup3\n      add\n      dup1\n      sload\n      tag_208\n      swap1\n      tag_136\n      jump\t// in\n    tag_208:\n      dup1\n      0x1f\n      add\n      0x20\n      dup1\n      swap2\n      div\n      mul\n      0x20\n      add\n      mload(0x40)\n      swap1\n      dup2\n      add\n      0x40\n      mstore\n      dup1\n      swap3\n      swap2\n      swap1\n      dup2\n      dup2\n      mstore\n      0x20\n      add\n      dup3\n      dup1\n      sload\n      tag_209\n      swap1\n      tag_136\n      jump\t// in\n    tag_209:\n      dup1\n      iszero\n      tag_210\n      jumpi\n      dup1\n      0x1f\n      lt\n      tag_211\n      jumpi\n      0x0100\n      dup1\n      dup4\n      sload\n      div\n      mul\n      dup4\n      mstore\n      swap2\n      0x20\n      add\n      swap2\n      jump(tag_210)\n    tag_211:\n      dup3\n      add\n      swap2\n      swap1\n      0x00\n      mstore\n      keccak256(0x00, 0x20)\n      swap1\n    tag_212:\n      dup2\n      sload\n      dup2\n      mstore\n      swap1\n      0x01\n      add\n      swap1\n      0x20\n      add\n      dup1\n      dup4\n      gt\n      tag_212\n      jumpi\n      dup3\n      swap1\n      sub\n      0x1f\n      and\n      dup3\n      add\n      swap2\n    tag_210:\n      pop\n      pop\n      pop\n      pop\n      pop\n      dup2\n      mstore\n      0x20\n      add\n      0x03\n      dup3\n      add\n      dup1\n      sload\n      tag_213\n      swap1\n      tag_136\n      jump\t// in\n    tag_213:\n      dup1\n      0x1f\n      add\n      0x20\n      dup1\n      swap2\n      div\n      mul\n      0x20\n      add\n      mload(0x40)\n      swap1\n      dup2\n      add\n      0x40\n      mstore\n      dup1\n      swap3\n      swap2\n      swap1\n      dup2\n      dup2\n      mstore\n      0x20\n      add\n      dup3\n      dup1\n      sload\n      tag_214\n      swap1\n      tag_136\n      jump\t// in\n    tag_214:\n      dup1\n      iszero\n      tag_215\n      jumpi\n      dup1\n      0x1f\n      lt\n      tag_216\n      jumpi\n      0x0100\n      dup1\n      dup4\n      sload\n      div\n      mul\n      dup4\n      mstore\n      swap2\n      0x20\n      add\n      swap2\n      jump(tag_215)\n    tag_216:\n      dup3\n      add\n      swap2\n      swap1\n      0x00\n      mstore\n      keccak256(0x00, 0x20)\n      swap1\n    tag_217:\n      dup2\n      sload\n      dup2\n      mstore\n      swap1\n      0x01\n      add\n      swap1\n      0x20\n      add\n      dup1\n      dup4\n      gt\n      tag_217\n      jumpi\n      dup3\n      swap1\n      sub\n      0x1f\n      and\n      dup3\n      add\n      swap2\n    tag_215:\n      pop\n      pop\n      pop\n      pop\n      pop\n      dup2\n      mstore\n      0x20\n      add\n      0x04\n      dup3\n      add\n      dup1\n      sload\n      tag_218\n      swap1\n      tag_136\n      jump\t// in\n    tag_218:\n      dup1\n      0x1f\n      add\n      0x20\n      dup1\n      swap2\n      div\n      mul\n      0x20\n      add\n      mload(0x40)\n      swap1\n      dup2\n      add\n      0x40\n      mstore\n      dup1\n      swap3\n      swap2\n      swap1\n      dup2\n      dup2\n      mstore\n      0x20\n      add\n      dup3\n      dup1\n      sload\n      tag_219\n      swap1\n      tag_136\n      jump\t// in\n    tag_219:\n      dup1\n      iszero\n      tag_220\n      jumpi\n      dup1\n      0x1f\n      lt\n      tag_221\n      jumpi\n      0x0100\n      dup1\n      dup4\n      sload\n      div\n      mul\n      dup4\n      mstore\n      swap2\n      0x20\n      add\n      swap2\n      jump(tag_220)\n    tag_221:\n      dup3\n      add\n      swap2\n      swap1\n      0x00\n      mstore\n      keccak256(0x00, 0x20)\n      swap1\n    tag_222:\n      dup2\n      sload\n      dup2\n      mstore\n      swap1\n      0x01\n      add\n      swap1\n      0x20\n      add\n      dup1\n      dup4\n      gt\n      tag_222\n      jumpi\n      dup3\n      swap1\n      sub\n      0x1f\n      and\n      dup3\n      add\n      swap2\n    tag_220:\n      pop\n      pop\n      pop\n      pop\n      pop\n      dup2\n      mstore\n      0x20\n      add\n      0x05\n      dup3\n      add\n      dup1\n      sload\n      tag_223\n      swap1\n      tag_136\n      jump\t// in\n    tag_223:\n      dup1\n      0x1f\n      add\n      0x20\n      dup1\n      swap2\n      div\n      mul\n      0x20\n      add\n      mload(0x40)\n      swap1\n      dup2\n      add\n      0x40\n      mstore\n      dup1\n      swap3\n      swap2\n      swap1\n      dup2\n      dup2\n      mstore\n      0x20\n      add\n      dup3\n      dup1\n      sload\n      tag_224\n      swap1\n      tag_136\n      jump\t// in\n    tag_224:\n      dup1\n      iszero\n      tag_225\n      jumpi\n      dup1\n      0x1f\n      lt\n      tag_226\n      jumpi\n      0x0100\n      dup1\n      dup4\n      sload\n      div\n      mul\n      dup4\n      mstore\n      swap2\n      0x20\n      add\n      swap2\n      jump(tag_225)\n    tag_226:\n      dup3\n      add\n      swap2\n      swap1\n      0x00\n      mstore\n      keccak256(0x00, 0x20)\n      swap1\n    tag_227:\n      dup2\n      sload\n      dup2\n      mstore\n      swap1\n      0x01\n      add\n      swap1\n      0x20\n      add\n      dup1\n      dup4\n      gt\n      tag_227\n      jumpi\n      dup3\n      swap1\n      sub\n      0x1f\n      and\n      dup3\n      add\n      swap2\n    tag_225:\n      pop\n      pop\n      pop\n      pop\n      pop\n      dup2\n      mstore\n      0x20\n      add\n      0x06\n      dup3\n      add\n      sload\n      dup2\n      mstore\n      0x20\n      add\n      0x07\n      dup3\n      add\n      sload\n      dup2\n      mstore\n      0x20\n      add\n      0x08\n      dup3\n      add\n      dup1\n      sload\n      tag_228\n      swap1\n      tag_136\n      jump\t// in\n    tag_228:\n      dup1\n      0x1f\n      add\n      0x20\n      dup1\n      swap2\n      div\n      mul\n      0x20\n      add\n      mload(0x40)\n      swap1\n      dup2\n      add\n      0x40\n      mstore\n      dup1\n      swap3\n      swap2\n      swap1\n      dup2\n      dup2\n      mstore\n      0x20\n      add\n      dup3\n      dup1\n      sload\n      tag_229\n      swap1\n      tag_136\n      jump\t// in\n    tag_229:\n      dup1\n      iszero\n      tag_230\n      jumpi\n      dup1\n      0x1f\n      lt\n      tag_231\n      jumpi\n      0x0100\n      dup1\n      dup4\n      sload\n      div\n      mul\n      dup4\n      mstore\n      swap2\n      0x20\n      add\n      swap2\n      jump(tag_230)\n    tag_231:\n      dup3\n      add\n      swap2\n      swap1\n      0x00\n      mstore\n      keccak256(0x00, 0x20)\n      swap1\n    tag_232:\n      dup2\n      sload\n      dup2\n      mstore\n      swap1\n      0x01\n      add\n      swap1\n      0x20\n      add\n      dup1\n      dup4\n      gt\n      tag_232\n      jumpi\n      dup3\n      swap1\n      sub\n      0x1f\n      and\n      dup3\n      add\n      swap2\n    tag_230:\n      pop\n      pop\n      pop\n      pop\n      pop\n      dup2\n      mstore\n      pop\n      pop\n      swap1\n      pop\n        /* \"Contracts/Lending.sol\":4457:4577  function getProductById(uint productId) public view returns (Product memory) {... */\n      swap2\n      swap1\n      pop\n      jump\t// out\n        /* \"Contracts/Lending.sol\":5407:5918  function makeRentRequest(... */\n    tag_66:\n        /* \"Contracts/Lending.sol\":5563:5722  Rent(... */\n      mload(0x40)\n      dup1\n      0xe0\n      add\n      0x40\n      mstore\n      dup1\n        /* \"Contracts/Lending.sol\":5581:5591  lastRentId */\n      sload(0x02)\n        /* \"Contracts/Lending.sol\":5563:5722  Rent(... */\n      dup2\n      mstore\n      0x20\n      add\n        /* \"Contracts/Lending.sol\":5605:5614  productId */\n      dup3\n        /* \"Contracts/Lending.sol\":5563:5722  Rent(... */\n      dup2\n      mstore\n      0x20\n      add\n        /* \"Contracts/Lending.sol\":5628:5635  lending */\n      dup5\n        /* \"Contracts/Lending.sol\":5563:5722  Rent(... */\n      dup2\n      mstore\n      0x20\n      add\n        /* \"Contracts/Lending.sol\":5650:5658  borowing */\n      dup4\n        /* \"Contracts/Lending.sol\":5563:5722  Rent(... */\n      dup2\n      mstore\n      0x20\n      add\n        /* \"Contracts/Lending.sol\":5672:5677  false */\n      0x00\n        /* \"Contracts/Lending.sol\":5563:5722  Rent(... */\n      iszero\n      iszero\n      dup2\n      mstore\n      0x20\n      add\n        /* \"Contracts/Lending.sol\":5691:5696  false */\n      0x00\n        /* \"Contracts/Lending.sol\":5563:5722  Rent(... */\n      iszero\n      iszero\n      dup2\n      mstore\n      0x20\n      add\n      mload(0x40)\n      dup1\n      0x20\n      add\n      0x40\n      mstore\n      dup1\n      0x00\n      dup2\n      mstore\n      pop\n      dup2\n      mstore\n      pop\n        /* \"Contracts/Lending.sol\":5543:5548  Rents */\n      0x07\n        /* \"Contracts/Lending.sol\":5543:5560  Rents[lastRentId] */\n      0x00\n        /* \"Contracts/Lending.sol\":5549:5559  lastRentId */\n      sload(0x02)\n        /* \"Contracts/Lending.sol\":5543:5560  Rents[lastRentId] */\n      dup2\n      mstore\n      0x20\n      add\n      swap1\n      dup2\n      mstore\n      0x20\n      add\n      0x00\n      keccak256\n        /* \"Contracts/Lending.sol\":5543:5722  Rents[lastRentId] = Rent(... */\n      0x00\n      dup3\n      add\n      mload\n      dup2\n      0x00\n      add\n      sstore\n      0x20\n      dup3\n      add\n      mload\n      dup2\n      0x01\n      add\n      sstore\n      0x40\n      dup3\n      add\n      mload\n      dup2\n      0x02\n      add\n      swap1\n      dup2\n      tag_234\n      swap2\n      swap1\n      tag_157\n      jump\t// in\n    tag_234:\n      pop\n      0x60\n      dup3\n      add\n      mload\n      dup2\n      0x03\n      add\n      swap1\n      dup2\n      tag_235\n      swap2\n      swap1\n      tag_157\n      jump\t// in\n    tag_235:\n      pop\n      0x80\n      dup3\n      add\n      mload\n      dup2\n      0x04\n      add\n      exp(0x0100, 0x00)\n      dup2\n      sload\n      dup2\n      0xff\n      mul\n      not\n      and\n      swap1\n      dup4\n      iszero\n      iszero\n      mul\n      or\n      swap1\n      sstore\n      pop\n      0xa0\n      dup3\n      add\n      mload\n      dup2\n      0x04\n      add\n      exp(0x0100, 0x01)\n      dup2\n      sload\n      dup2\n      0xff\n      mul\n      not\n      and\n      swap1\n      dup4\n      iszero\n      iszero\n      mul\n      or\n      swap1\n      sstore\n      pop\n      0xc0\n      dup3\n      add\n      mload\n      dup2\n      0x05\n      add\n      swap1\n      dup2\n      tag_236\n      swap2\n      swap1\n      tag_157\n      jump\t// in\n    tag_236:\n      pop\n      swap1\n      pop\n      pop\n        /* \"Contracts/Lending.sol\":5733:5738  Users */\n      0x06\n        /* \"Contracts/Lending.sol\":5739:5746  lending */\n      dup4\n        /* \"Contracts/Lending.sol\":5733:5747  Users[lending] */\n      mload(0x40)\n      tag_237\n      swap2\n      swap1\n      tag_155\n      jump\t// in\n    tag_237:\n      swap1\n      dup2\n      mstore\n      0x20\n      add\n      mload(0x40)\n      dup1\n      swap2\n      sub\n      swap1\n      keccak256\n        /* \"Contracts/Lending.sol\":5733:5758  Users[lending].myLendings */\n      0x05\n      add\n        /* \"Contracts/Lending.sol\":5764:5769  Rents */\n      0x07\n        /* \"Contracts/Lending.sol\":5764:5781  Rents[lastRentId] */\n      0x00\n        /* \"Contracts/Lending.sol\":5770:5780  lastRentId */\n      sload(0x02)\n        /* \"Contracts/Lending.sol\":5764:5781  Rents[lastRentId] */\n      dup2\n      mstore\n      0x20\n      add\n      swap1\n      dup2\n      mstore\n      0x20\n      add\n      0x00\n      keccak256\n        /* \"Contracts/Lending.sol\":5764:5784  Rents[lastRentId].id */\n      0x00\n      add\n      sload\n        /* \"Contracts/Lending.sol\":5733:5785  Users[lending].myLendings.push(Rents[lastRentId].id) */\n      swap1\n      dup1\n      0x01\n      dup2\n      sload\n      add\n      dup1\n      dup3\n      sstore\n      dup1\n      swap2\n      pop\n      pop\n      0x01\n      swap1\n      sub\n      swap1\n      0x00\n      mstore\n      keccak256(0x00, 0x20)\n      add\n      0x00\n      swap1\n      swap2\n      swap1\n      swap2\n      swap1\n      swap2\n      pop\n      sstore\n        /* \"Contracts/Lending.sol\":5795:5800  Users */\n      0x06\n        /* \"Contracts/Lending.sol\":5801:5809  borowing */\n      dup3\n        /* \"Contracts/Lending.sol\":5795:5810  Users[borowing] */\n      mload(0x40)\n      tag_239\n      swap2\n      swap1\n      tag_155\n      jump\t// in\n    tag_239:\n      swap1\n      dup2\n      mstore\n      0x20\n      add\n      mload(0x40)\n      dup1\n      swap2\n      sub\n      swap1\n      keccak256\n        /* \"Contracts/Lending.sol\":5795:5823  Users[borowing].myBorrowings */\n      0x06\n      add\n        /* \"Contracts/Lending.sol\":5829:5834  Rents */\n      0x07\n        /* \"Contracts/Lending.sol\":5829:5846  Rents[lastRentId] */\n      0x00\n        /* \"Contracts/Lending.sol\":5835:5845  lastRentId */\n      sload(0x02)\n        /* \"Contracts/Lending.sol\":5829:5846  Rents[lastRentId] */\n      dup2\n      mstore\n      0x20\n      add\n      swap1\n      dup2\n      mstore\n      0x20\n      add\n      0x00\n      keccak256\n        /* \"Contracts/Lending.sol\":5829:5849  Rents[lastRentId].id */\n      0x00\n      add\n      sload\n        /* \"Contracts/Lending.sol\":5795:5850  Users[borowing].myBorrowings.push(Rents[lastRentId].id) */\n      swap1\n      dup1\n      0x01\n      dup2\n      sload\n      add\n      dup1\n      dup3\n      sstore\n      dup1\n      swap2\n      pop\n      pop\n      0x01\n      swap1\n      sub\n      swap1\n      0x00\n      mstore\n      keccak256(0x00, 0x20)\n      add\n      0x00\n      swap1\n      swap2\n      swap1\n      swap2\n      swap1\n      swap2\n      pop\n      sstore\n        /* \"Contracts/Lending.sol\":5860:5871  allRentsIds */\n      0x04\n        /* \"Contracts/Lending.sol\":5877:5887  lastRentId */\n      sload(0x02)\n        /* \"Contracts/Lending.sol\":5860:5888  allRentsIds.push(lastRentId) */\n      swap1\n      dup1\n      0x01\n      dup2\n      sload\n      add\n      dup1\n      dup3\n      sstore\n      dup1\n      swap2\n      pop\n      pop\n      0x01\n      swap1\n      sub\n      swap1\n      0x00\n      mstore\n      keccak256(0x00, 0x20)\n      add\n      0x00\n      swap1\n      swap2\n      swap1\n      swap2\n      swap1\n      swap2\n      pop\n      sstore\n        /* \"Contracts/Lending.sol\":5898:5908  lastRentId */\n      0x02\n      0x00\n        /* \"Contracts/Lending.sol\":5898:5911  lastRentId ++ */\n      dup2\n      sload\n      dup1\n      swap3\n      swap2\n      swap1\n      tag_242\n      swap1\n      tag_243\n      jump\t// in\n    tag_242:\n      swap2\n      swap1\n      pop\n      sstore\n      pop\n        /* \"Contracts/Lending.sol\":5407:5918  function makeRentRequest(... */\n      pop\n      pop\n      pop\n      jump\t// out\n        /* \"Contracts/Lending.sol\":3822:4330  function createUserAccount(string memory username, string[] memory _addresses) public returns (User memory) {... */\n    tag_70:\n        /* \"Contracts/Lending.sol\":3917:3928  User memory */\n      tag_244\n      tag_168\n      jump\t// in\n    tag_244:\n        /* \"Contracts/Lending.sol\":3940:3962  uint[] memory products */\n      0x60\n        /* \"Contracts/Lending.sol\":3972:3991  uint[] memory rents */\n      dup1\n        /* \"Contracts/Lending.sol\":4067:4124  User(username,'', '', _addresses, products, rents, rents) */\n      mload(0x40)\n      dup1\n      0xe0\n      add\n      0x40\n      mstore\n      dup1\n        /* \"Contracts/Lending.sol\":4072:4080  username */\n      dup7\n        /* \"Contracts/Lending.sol\":4067:4124  User(username,'', '', _addresses, products, rents, rents) */\n      dup2\n      mstore\n      0x20\n      add\n      mload(0x40)\n      dup1\n      0x20\n      add\n      0x40\n      mstore\n      dup1\n      0x00\n      dup2\n      mstore\n      pop\n      dup2\n      mstore\n      0x20\n      add\n      mload(0x40)\n      dup1\n      0x20\n      add\n      0x40\n      mstore\n      dup1\n      0x00\n      dup2\n      mstore\n      pop\n      dup2\n      mstore\n      0x20\n      add\n        /* \"Contracts/Lending.sol\":4089:4099  _addresses */\n      dup6\n        /* \"Contracts/Lending.sol\":4067:4124  User(username,'', '', _addresses, products, rents, rents) */\n      dup2\n      mstore\n      0x20\n      add\n        /* \"Contracts/Lending.sol\":4101:4109  products */\n      dup4\n        /* \"Contracts/Lending.sol\":4067:4124  User(username,'', '', _addresses, products, rents, rents) */\n      dup2\n      mstore\n      0x20\n      add\n        /* \"Contracts/Lending.sol\":4111:4116  rents */\n      dup3\n        /* \"Contracts/Lending.sol\":4067:4124  User(username,'', '', _addresses, products, rents, rents) */\n      dup2\n      mstore\n      0x20\n      add\n        /* \"Contracts/Lending.sol\":4118:4123  rents */\n      dup3\n        /* \"Contracts/Lending.sol\":4067:4124  User(username,'', '', _addresses, products, rents, rents) */\n      dup2\n      mstore\n      pop\n        /* \"Contracts/Lending.sol\":4049:4054  Users */\n      0x06\n        /* \"Contracts/Lending.sol\":4055:4063  username */\n      dup7\n        /* \"Contracts/Lending.sol\":4049:4064  Users[username] */\n      mload(0x40)\n      tag_246\n      swap2\n      swap1\n      tag_155\n      jump\t// in\n    tag_246:\n      swap1\n      dup2\n      mstore\n      0x20\n      add\n      mload(0x40)\n      dup1\n      swap2\n      sub\n      swap1\n      keccak256\n        /* \"Contracts/Lending.sol\":4049:4124  Users[username] = User(username,'', '', _addresses, products, rents, rents) */\n      0x00\n      dup3\n      add\n      mload\n      dup2\n      0x00\n      add\n      swap1\n      dup2\n      tag_247\n      swap2\n      swap1\n      tag_157\n      jump\t// in\n    tag_247:\n      pop\n      0x20\n      dup3\n      add\n      mload\n      dup2\n      0x01\n      add\n      swap1\n      dup2\n      tag_248\n      swap2\n      swap1\n      tag_157\n      jump\t// in\n    tag_248:\n      pop\n      0x40\n      dup3\n      add\n      mload\n      dup2\n      0x02\n      add\n      swap1\n      dup2\n      tag_249\n      swap2\n      swap1\n      tag_157\n      jump\t// in\n    tag_249:\n      pop\n      0x60\n      dup3\n      add\n      mload\n      dup2\n      0x03\n      add\n      swap1\n      dup1\n      mload\n      swap1\n      0x20\n      add\n      swap1\n      tag_250\n      swap3\n      swap2\n      swap1\n      tag_251\n      jump\t// in\n    tag_250:\n      pop\n      0x80\n      dup3\n      add\n      mload\n      dup2\n      0x04\n      add\n      swap1\n      dup1\n      mload\n      swap1\n      0x20\n      add\n      swap1\n      tag_252\n      swap3\n      swap2\n      swap1\n      tag_253\n      jump\t// in\n    tag_252:\n      pop\n      0xa0\n      dup3\n      add\n      mload\n      dup2\n      0x05\n      add\n      swap1\n      dup1\n      mload\n      swap1\n      0x20\n      add\n      swap1\n      tag_254\n      swap3\n      swap2\n      swap1\n      tag_253\n      jump\t// in\n    tag_254:\n      pop\n      0xc0\n      dup3\n      add\n      mload\n      dup2\n      0x06\n      add\n      swap1\n      dup1\n      mload\n      swap1\n      0x20\n      add\n      swap1\n      tag_255\n      swap3\n      swap2\n      swap1\n      tag_253\n      jump\t// in\n    tag_255:\n      pop\n      swap1\n      pop\n      pop\n        /* \"Contracts/Lending.sol\":4203:4244  assignWalletsToUser(_addresses, username) */\n      tag_256\n        /* \"Contracts/Lending.sol\":4223:4233  _addresses */\n      dup5\n        /* \"Contracts/Lending.sol\":4235:4243  username */\n      dup7\n        /* \"Contracts/Lending.sol\":4203:4222  assignWalletsToUser */\n      tag_75\n        /* \"Contracts/Lending.sol\":4203:4244  assignWalletsToUser(_addresses, username) */\n      jump\t// in\n    tag_256:\n        /* \"Contracts/Lending.sol\":4308:4313  Users */\n      0x06\n        /* \"Contracts/Lending.sol\":4314:4322  username */\n      dup6\n        /* \"Contracts/Lending.sol\":4308:4323  Users[username] */\n      mload(0x40)\n      tag_257\n      swap2\n      swap1\n      tag_155\n      jump\t// in\n    tag_257:\n      swap1\n      dup2\n      mstore\n      0x20\n      add\n      mload(0x40)\n      dup1\n      swap2\n      sub\n      swap1\n      keccak256\n        /* \"Contracts/Lending.sol\":4301:4323  return Users[username] */\n      mload(0x40)\n      dup1\n      0xe0\n      add\n      0x40\n      mstore\n      swap1\n      dup2\n      0x00\n      dup3\n      add\n      dup1\n      sload\n      tag_258\n      swap1\n      tag_136\n      jump\t// in\n    tag_258:\n      dup1\n      0x1f\n      add\n      0x20\n      dup1\n      swap2\n      div\n      mul\n      0x20\n      add\n      mload(0x40)\n      swap1\n      dup2\n      add\n      0x40\n      mstore\n      dup1\n      swap3\n      swap2\n      swap1\n      dup2\n      dup2\n      mstore\n      0x20\n      add\n      dup3\n      dup1\n      sload\n      tag_259\n      swap1\n      tag_136\n      jump\t// in\n    tag_259:\n      dup1\n      iszero\n      tag_260\n      jumpi\n      dup1\n      0x1f\n      lt\n      tag_261\n      jumpi\n      0x0100\n      dup1\n      dup4\n      sload\n      div\n      mul\n      dup4\n      mstore\n      swap2\n      0x20\n      add\n      swap2\n      jump(tag_260)\n    tag_261:\n      dup3\n      add\n      swap2\n      swap1\n      0x00\n      mstore\n      keccak256(0x00, 0x20)\n      swap1\n    tag_262:\n      dup2\n      sload\n      dup2\n      mstore\n      swap1\n      0x01\n      add\n      swap1\n      0x20\n      add\n      dup1\n      dup4\n      gt\n      tag_262\n      jumpi\n      dup3\n      swap1\n      sub\n      0x1f\n      and\n      dup3\n      add\n      swap2\n    tag_260:\n      pop\n      pop\n      pop\n      pop\n      pop\n      dup2\n      mstore\n      0x20\n      add\n      0x01\n      dup3\n      add\n      dup1\n      sload\n      tag_263\n      swap1\n      tag_136\n      jump\t// in\n    tag_263:\n      dup1\n      0x1f\n      add\n      0x20\n      dup1\n      swap2\n      div\n      mul\n      0x20\n      add\n      mload(0x40)\n      swap1\n      dup2\n      add\n      0x40\n      mstore\n      dup1\n      swap3\n      swap2\n      swap1\n      dup2\n      dup2\n      mstore\n      0x20\n      add\n      dup3\n      dup1\n      sload\n      tag_264\n      swap1\n      tag_136\n      jump\t// in\n    tag_264:\n      dup1\n      iszero\n      tag_265\n      jumpi\n      dup1\n      0x1f\n      lt\n      tag_266\n      jumpi\n      0x0100\n      dup1\n      dup4\n      sload\n      div\n      mul\n      dup4\n      mstore\n      swap2\n      0x20\n      add\n      swap2\n      jump(tag_265)\n    tag_266:\n      dup3\n      add\n      swap2\n      swap1\n      0x00\n      mstore\n      keccak256(0x00, 0x20)\n      swap1\n    tag_267:\n      dup2\n      sload\n      dup2\n      mstore\n      swap1\n      0x01\n      add\n      swap1\n      0x20\n      add\n      dup1\n      dup4\n      gt\n      tag_267\n      jumpi\n      dup3\n      swap1\n      sub\n      0x1f\n      and\n      dup3\n      add\n      swap2\n    tag_265:\n      pop\n      pop\n      pop\n      pop\n      pop\n      dup2\n      mstore\n      0x20\n      add\n      0x02\n      dup3\n      add\n      dup1\n      sload\n      tag_268\n      swap1\n      tag_136\n      jump\t// in\n    tag_268:\n      dup1\n      0x1f\n      add\n      0x20\n      dup1\n      swap2\n      div\n      mul\n      0x20\n      add\n      mload(0x40)\n      swap1\n      dup2\n      add\n      0x40\n      mstore\n      dup1\n      swap3\n      swap2\n      swap1\n      dup2\n      dup2\n      mstore\n      0x20\n      add\n      dup3\n      dup1\n      sload\n      tag_269\n      swap1\n      tag_136\n      jump\t// in\n    tag_269:\n      dup1\n      iszero\n      tag_270\n      jumpi\n      dup1\n      0x1f\n      lt\n      tag_271\n      jumpi\n      0x0100\n      dup1\n      dup4\n      sload\n      div\n      mul\n      dup4\n      mstore\n      swap2\n      0x20\n      add\n      swap2\n      jump(tag_270)\n    tag_271:\n      dup3\n      add\n      swap2\n      swap1\n      0x00\n      mstore\n      keccak256(0x00, 0x20)\n      swap1\n    tag_272:\n      dup2\n      sload\n      dup2\n      mstore\n      swap1\n      0x01\n      add\n      swap1\n      0x20\n      add\n      dup1\n      dup4\n      gt\n      tag_272\n      jumpi\n      dup3\n      swap1\n      sub\n      0x1f\n      and\n      dup3\n      add\n      swap2\n    tag_270:\n      pop\n      pop\n      pop\n      pop\n      pop\n      dup2\n      mstore\n      0x20\n      add\n      0x03\n      dup3\n      add\n      dup1\n      sload\n      dup1\n      0x20\n      mul\n      0x20\n      add\n      mload(0x40)\n      swap1\n      dup2\n      add\n      0x40\n      mstore\n      dup1\n      swap3\n      swap2\n      swap1\n      dup2\n      dup2\n      mstore\n      0x20\n      add\n      0x00\n      swap1\n    tag_273:\n      dup3\n      dup3\n      lt\n      iszero\n      tag_274\n      jumpi\n      dup4\n      dup3\n      swap1\n      0x00\n      mstore\n      keccak256(0x00, 0x20)\n      add\n      dup1\n      sload\n      tag_276\n      swap1\n      tag_136\n      jump\t// in\n    tag_276:\n      dup1\n      0x1f\n      add\n      0x20\n      dup1\n      swap2\n      div\n      mul\n      0x20\n      add\n      mload(0x40)\n      swap1\n      dup2\n      add\n      0x40\n      mstore\n      dup1\n      swap3\n      swap2\n      swap1\n      dup2\n      dup2\n      mstore\n      0x20\n      add\n      dup3\n      dup1\n      sload\n      tag_277\n      swap1\n      tag_136\n      jump\t// in\n    tag_277:\n      dup1\n      iszero\n      tag_278\n      jumpi\n      dup1\n      0x1f\n      lt\n      tag_279\n      jumpi\n      0x0100\n      dup1\n      dup4\n      sload\n      div\n      mul\n      dup4\n      mstore\n      swap2\n      0x20\n      add\n      swap2\n      jump(tag_278)\n    tag_279:\n      dup3\n      add\n      swap2\n      swap1\n      0x00\n      mstore\n      keccak256(0x00, 0x20)\n      swap1\n    tag_280:\n      dup2\n      sload\n      dup2\n      mstore\n      swap1\n      0x01\n      add\n      swap1\n      0x20\n      add\n      dup1\n      dup4\n      gt\n      tag_280\n      jumpi\n      dup3\n      swap1\n      sub\n      0x1f\n      and\n      dup3\n      add\n      swap2\n    tag_278:\n      pop\n      pop\n      pop\n      pop\n      pop\n      dup2\n      mstore\n      0x20\n      add\n      swap1\n      0x01\n      add\n      swap1\n      jump(tag_273)\n    tag_274:\n      pop\n      pop\n      pop\n      pop\n      dup2\n      mstore\n      0x20\n      add\n      0x04\n      dup3\n      add\n      dup1\n      sload\n      dup1\n      0x20\n      mul\n      0x20\n      add\n      mload(0x40)\n      swap1\n      dup2\n      add\n      0x40\n      mstore\n      dup1\n      swap3\n      swap2\n      swap1\n      dup2\n      dup2\n      mstore\n      0x20\n      add\n      dup3\n      dup1\n      sload\n      dup1\n      iszero\n      tag_281\n      jumpi\n      0x20\n      mul\n      dup3\n      add\n      swap2\n      swap1\n      0x00\n      mstore\n      keccak256(0x00, 0x20)\n      swap1\n    tag_282:\n      dup2\n      sload\n      dup2\n      mstore\n      0x20\n      add\n      swap1\n      0x01\n      add\n      swap1\n      dup1\n      dup4\n      gt\n      tag_282\n      jumpi\n    tag_281:\n      pop\n      pop\n      pop\n      pop\n      pop\n      dup2\n      mstore\n      0x20\n      add\n      0x05\n      dup3\n      add\n      dup1\n      sload\n      dup1\n      0x20\n      mul\n      0x20\n      add\n      mload(0x40)\n      swap1\n      dup2\n      add\n      0x40\n      mstore\n      dup1\n      swap3\n      swap2\n      swap1\n      dup2\n      dup2\n      mstore\n      0x20\n      add\n      dup3\n      dup1\n      sload\n      dup1\n      iszero\n      tag_283\n      jumpi\n      0x20\n      mul\n      dup3\n      add\n      swap2\n      swap1\n      0x00\n      mstore\n      keccak256(0x00, 0x20)\n      swap1\n    tag_284:\n      dup2\n      sload\n      dup2\n      mstore\n      0x20\n      add\n      swap1\n      0x01\n      add\n      swap1\n      dup1\n      dup4\n      gt\n      tag_284\n      jumpi\n    tag_283:\n      pop\n      pop\n      pop\n      pop\n      pop\n      dup2\n      mstore\n      0x20\n      add\n      0x06\n      dup3\n      add\n      dup1\n      sload\n      dup1\n      0x20\n      mul\n      0x20\n      add\n      mload(0x40)\n      swap1\n      dup2\n      add\n      0x40\n      mstore\n      dup1\n      swap3\n      swap2\n      swap1\n      dup2\n      dup2\n      mstore\n      0x20\n      add\n      dup3\n      dup1\n      sload\n      dup1\n      iszero\n      tag_285\n      jumpi\n      0x20\n      mul\n      dup3\n      add\n      swap2\n      swap1\n      0x00\n      mstore\n      keccak256(0x00, 0x20)\n      swap1\n    tag_286:\n      dup2\n      sload\n      dup2\n      mstore\n      0x20\n      add\n      swap1\n      0x01\n      add\n      swap1\n      dup1\n      dup4\n      gt\n      tag_286\n      jumpi\n    tag_285:\n      pop\n      pop\n      pop\n      pop\n      pop\n      dup2\n      mstore\n      pop\n      pop\n      swap3\n      pop\n      pop\n      pop\n        /* \"Contracts/Lending.sol\":3822:4330  function createUserAccount(string memory username, string[] memory _addresses) public returns (User memory) {... */\n      swap3\n      swap2\n      pop\n      pop\n      jump\t// out\n        /* \"Contracts/Lending.sol\":3029:3401  function assignWalletsToUser(string[] memory _addresses, string memory userId) public {... */\n    tag_75:\n        /* \"Contracts/Lending.sol\":3129:3135  uint i */\n      0x00\n        /* \"Contracts/Lending.sol\":3125:3395  for(uint i=0; i< _addresses.length; i++) {... */\n    tag_288:\n        /* \"Contracts/Lending.sol\":3142:3152  _addresses */\n      dup3\n        /* \"Contracts/Lending.sol\":3142:3159  _addresses.length */\n      mload\n        /* \"Contracts/Lending.sol\":3139:3140  i */\n      dup2\n        /* \"Contracts/Lending.sol\":3139:3159  i< _addresses.length */\n      lt\n        /* \"Contracts/Lending.sol\":3125:3395  for(uint i=0; i< _addresses.length; i++) {... */\n      iszero\n      tag_289\n      jumpi\n        /* \"Contracts/Lending.sol\":3180:3200  string memory wallet */\n      0x00\n        /* \"Contracts/Lending.sol\":3203:3213  _addresses */\n      dup4\n        /* \"Contracts/Lending.sol\":3214:3215  i */\n      dup3\n        /* \"Contracts/Lending.sol\":3203:3216  _addresses[i] */\n      dup2\n      mload\n      dup2\n      lt\n      tag_291\n      jumpi\n      tag_292\n      tag_293\n      jump\t// in\n    tag_292:\n    tag_291:\n      0x20\n      mul\n      0x20\n      add\n      add\n      mload\n        /* \"Contracts/Lending.sol\":3180:3216  string memory wallet = _addresses[i] */\n      swap1\n      pop\n        /* \"Contracts/Lending.sol\":3235:3270  doesKeyExist(wallet, 'userWallets') */\n      tag_294\n        /* \"Contracts/Lending.sol\":3248:3254  wallet */\n      dup2\n        /* \"Contracts/Lending.sol\":3235:3270  doesKeyExist(wallet, 'userWallets') */\n      mload(0x40)\n      dup1\n      0x40\n      add\n      0x40\n      mstore\n      dup1\n      0x0b\n      dup2\n      mstore\n      0x20\n      add\n      0x7573657257616c6c657473000000000000000000000000000000000000000000\n      dup2\n      mstore\n      pop\n        /* \"Contracts/Lending.sol\":3235:3247  doesKeyExist */\n      tag_119\n        /* \"Contracts/Lending.sol\":3235:3270  doesKeyExist(wallet, 'userWallets') */\n      jump\t// in\n    tag_294:\n        /* \"Contracts/Lending.sol\":3230:3385  if (!doesKeyExist(wallet, 'userWallets')) {... */\n      tag_295\n      jumpi\n        /* \"Contracts/Lending.sol\":3312:3318  userId */\n      dup3\n        /* \"Contracts/Lending.sol\":3290:3301  UserWallets */\n      0x0c\n        /* \"Contracts/Lending.sol\":3302:3308  wallet */\n      dup3\n        /* \"Contracts/Lending.sol\":3290:3309  UserWallets[wallet] */\n      mload(0x40)\n      tag_296\n      swap2\n      swap1\n      tag_155\n      jump\t// in\n    tag_296:\n      swap1\n      dup2\n      mstore\n      0x20\n      add\n      mload(0x40)\n      dup1\n      swap2\n      sub\n      swap1\n      keccak256\n        /* \"Contracts/Lending.sol\":3290:3318  UserWallets[wallet] = userId */\n      swap1\n      dup2\n      tag_297\n      swap2\n      swap1\n      tag_157\n      jump\t// in\n    tag_297:\n      pop\n        /* \"Contracts/Lending.sol\":3336:3341  Users */\n      0x06\n        /* \"Contracts/Lending.sol\":3342:3348  userId */\n      dup4\n        /* \"Contracts/Lending.sol\":3336:3349  Users[userId] */\n      mload(0x40)\n      tag_298\n      swap2\n      swap1\n      tag_155\n      jump\t// in\n    tag_298:\n      swap1\n      dup2\n      mstore\n      0x20\n      add\n      mload(0x40)\n      dup1\n      swap2\n      sub\n      swap1\n      keccak256\n        /* \"Contracts/Lending.sol\":3336:3357  Users[userId].wallets */\n      0x03\n      add\n        /* \"Contracts/Lending.sol\":3363:3369  wallet */\n      dup2\n        /* \"Contracts/Lending.sol\":3336:3370  Users[userId].wallets.push(wallet) */\n      swap1\n      dup1\n      0x01\n      dup2\n      sload\n      add\n      dup1\n      dup3\n      sstore\n      dup1\n      swap2\n      pop\n      pop\n      0x01\n      swap1\n      sub\n      swap1\n      0x00\n      mstore\n      keccak256(0x00, 0x20)\n      add\n      0x00\n      swap1\n      swap2\n      swap1\n      swap2\n      swap1\n      swap2\n      pop\n      swap1\n      dup2\n      tag_300\n      swap2\n      swap1\n      tag_157\n      jump\t// in\n    tag_300:\n      pop\n        /* \"Contracts/Lending.sol\":3230:3385  if (!doesKeyExist(wallet, 'userWallets')) {... */\n    tag_295:\n        /* \"Contracts/Lending.sol\":3166:3395  {... */\n      pop\n        /* \"Contracts/Lending.sol\":3161:3164  i++ */\n      dup1\n      dup1\n      tag_301\n      swap1\n      tag_243\n      jump\t// in\n    tag_301:\n      swap2\n      pop\n      pop\n        /* \"Contracts/Lending.sol\":3125:3395  for(uint i=0; i< _addresses.length; i++) {... */\n      jump(tag_288)\n    tag_289:\n      pop\n        /* \"Contracts/Lending.sol\":3029:3401  function assignWalletsToUser(string[] memory _addresses, string memory userId) public {... */\n      pop\n      pop\n      jump\t// out\n        /* \"Contracts/Lending.sol\":122:150  uint public lasProductId = 0 */\n    tag_77:\n      sload(0x01)\n      dup2\n      jump\t// out\n        /* \"Contracts/Lending.sol\":6377:7203  function createProduct(... */\n    tag_82:\n        /* \"Contracts/Lending.sol\":6863:7075  Product(... */\n      mload(0x40)\n      dup1\n      0x0120\n      add\n      0x40\n      mstore\n      dup1\n        /* \"Contracts/Lending.sol\":6884:6896  lasProductId */\n      sload(0x01)\n        /* \"Contracts/Lending.sol\":6863:7075  Product(... */\n      dup2\n      mstore\n      0x20\n      add\n        /* \"Contracts/Lending.sol\":6910:6917  _userId */\n      dup10\n        /* \"Contracts/Lending.sol\":6863:7075  Product(... */\n      dup2\n      mstore\n      0x20\n      add\n        /* \"Contracts/Lending.sol\":6931:6935  _lat */\n      dup9\n        /* \"Contracts/Lending.sol\":6863:7075  Product(... */\n      dup2\n      mstore\n      0x20\n      add\n        /* \"Contracts/Lending.sol\":6949:6953  _lng */\n      dup8\n        /* \"Contracts/Lending.sol\":6863:7075  Product(... */\n      dup2\n      mstore\n      0x20\n      add\n        /* \"Contracts/Lending.sol\":6967:6972  _name */\n      dup7\n        /* \"Contracts/Lending.sol\":6863:7075  Product(... */\n      dup2\n      mstore\n      0x20\n      add\n        /* \"Contracts/Lending.sol\":6986:6998  _description */\n      dup6\n        /* \"Contracts/Lending.sol\":6863:7075  Product(... */\n      dup2\n      mstore\n      0x20\n      add\n        /* \"Contracts/Lending.sol\":7012:7025  _productValue */\n      dup5\n        /* \"Contracts/Lending.sol\":6863:7075  Product(... */\n      dup2\n      mstore\n      0x20\n      add\n        /* \"Contracts/Lending.sol\":7039:7045  _price */\n      dup4\n        /* \"Contracts/Lending.sol\":6863:7075  Product(... */\n      dup2\n      mstore\n      0x20\n      add\n        /* \"Contracts/Lending.sol\":7059:7065  _image */\n      dup3\n        /* \"Contracts/Lending.sol\":6863:7075  Product(... */\n      dup2\n      mstore\n      pop\n        /* \"Contracts/Lending.sol\":6838:6846  Products */\n      0x05\n        /* \"Contracts/Lending.sol\":6838:6860  Products[lasProductId] */\n      0x00\n        /* \"Contracts/Lending.sol\":6847:6859  lasProductId */\n      sload(0x01)\n        /* \"Contracts/Lending.sol\":6838:6860  Products[lasProductId] */\n      dup2\n      mstore\n      0x20\n      add\n      swap1\n      dup2\n      mstore\n      0x20\n      add\n      0x00\n      keccak256\n        /* \"Contracts/Lending.sol\":6838:7075  Products[lasProductId] = Product(... */\n      0x00\n      dup3\n      add\n      mload\n      dup2\n      0x00\n      add\n      sstore\n      0x20\n      dup3\n      add\n      mload\n      dup2\n      0x01\n      add\n      swap1\n      dup2\n      tag_303\n      swap2\n      swap1\n      tag_157\n      jump\t// in\n    tag_303:\n      pop\n      0x40\n      dup3\n      add\n      mload\n      dup2\n      0x02\n      add\n      swap1\n      dup2\n      tag_304\n      swap2\n      swap1\n      tag_157\n      jump\t// in\n    tag_304:\n      pop\n      0x60\n      dup3\n      add\n      mload\n      dup2\n      0x03\n      add\n      swap1\n      dup2\n      tag_305\n      swap2\n      swap1\n      tag_157\n      jump\t// in\n    tag_305:\n      pop\n      0x80\n      dup3\n      add\n      mload\n      dup2\n      0x04\n      add\n      swap1\n      dup2\n      tag_306\n      swap2\n      swap1\n      tag_157\n      jump\t// in\n    tag_306:\n      pop\n      0xa0\n      dup3\n      add\n      mload\n      dup2\n      0x05\n      add\n      swap1\n      dup2\n      tag_307\n      swap2\n      swap1\n      tag_157\n      jump\t// in\n    tag_307:\n      pop\n      0xc0\n      dup3\n      add\n      mload\n      dup2\n      0x06\n      add\n      sstore\n      0xe0\n      dup3\n      add\n      mload\n      dup2\n      0x07\n      add\n      sstore\n      0x0100\n      dup3\n      add\n      mload\n      dup2\n      0x08\n      add\n      swap1\n      dup2\n      tag_308\n      swap2\n      swap1\n      tag_157\n      jump\t// in\n    tag_308:\n      pop\n      swap1\n      pop\n      pop\n        /* \"Contracts/Lending.sol\":7086:7091  Users */\n      0x06\n        /* \"Contracts/Lending.sol\":7092:7099  _userId */\n      dup9\n        /* \"Contracts/Lending.sol\":7086:7100  Users[_userId] */\n      mload(0x40)\n      tag_309\n      swap2\n      swap1\n      tag_155\n      jump\t// in\n    tag_309:\n      swap1\n      dup2\n      mstore\n      0x20\n      add\n      mload(0x40)\n      dup1\n      swap2\n      sub\n      swap1\n      keccak256\n        /* \"Contracts/Lending.sol\":7086:7109  Users[_userId].products */\n      0x04\n      add\n        /* \"Contracts/Lending.sol\":7115:7127  lasProductId */\n      sload(0x01)\n        /* \"Contracts/Lending.sol\":7086:7128  Users[_userId].products.push(lasProductId) */\n      swap1\n      dup1\n      0x01\n      dup2\n      sload\n      add\n      dup1\n      dup3\n      sstore\n      dup1\n      swap2\n      pop\n      pop\n      0x01\n      swap1\n      sub\n      swap1\n      0x00\n      mstore\n      keccak256(0x00, 0x20)\n      add\n      0x00\n      swap1\n      swap2\n      swap1\n      swap2\n      swap1\n      swap2\n      pop\n      sstore\n        /* \"Contracts/Lending.sol\":7138:7152  allProductsIds */\n      0x03\n        /* \"Contracts/Lending.sol\":7158:7170  lasProductId */\n      sload(0x01)\n        /* \"Contracts/Lending.sol\":7138:7171  allProductsIds.push(lasProductId) */\n      swap1\n      dup1\n      0x01\n      dup2\n      sload\n      add\n      dup1\n      dup3\n      sstore\n      dup1\n      swap2\n      pop\n      pop\n      0x01\n      swap1\n      sub\n      swap1\n      0x00\n      mstore\n      keccak256(0x00, 0x20)\n      add\n      0x00\n      swap1\n      swap2\n      swap1\n      swap2\n      swap1\n      swap2\n      pop\n      sstore\n        /* \"Contracts/Lending.sol\":7181:7193  lasProductId */\n      0x01\n      0x00\n        /* \"Contracts/Lending.sol\":7181:7196  lasProductId ++ */\n      dup2\n      sload\n      dup1\n      swap3\n      swap2\n      swap1\n      tag_312\n      swap1\n      tag_243\n      jump\t// in\n    tag_312:\n      swap2\n      swap1\n      pop\n      sstore\n      pop\n        /* \"Contracts/Lending.sol\":6377:7203  function createProduct(... */\n      pop\n      pop\n      pop\n      pop\n      pop\n      pop\n      pop\n      pop\n      jump\t// out\n        /* \"Contracts/Lending.sol\":4937:5103  function getUserByWallet(string memory addr) public view returns (User memory) {... */\n    tag_85:\n        /* \"Contracts/Lending.sol\":5003:5014  User memory */\n      tag_313\n      tag_168\n      jump\t// in\n    tag_313:\n        /* \"Contracts/Lending.sol\":5026:5046  string memory userId */\n      0x00\n        /* \"Contracts/Lending.sol\":5049:5060  UserWallets */\n      0x0c\n        /* \"Contracts/Lending.sol\":5061:5065  addr */\n      dup4\n        /* \"Contracts/Lending.sol\":5049:5066  UserWallets[addr] */\n      mload(0x40)\n      tag_315\n      swap2\n      swap1\n      tag_155\n      jump\t// in\n    tag_315:\n      swap1\n      dup2\n      mstore\n      0x20\n      add\n      mload(0x40)\n      dup1\n      swap2\n      sub\n      swap1\n      keccak256\n        /* \"Contracts/Lending.sol\":5026:5066  string memory userId = UserWallets[addr] */\n      dup1\n      sload\n      tag_316\n      swap1\n      tag_136\n      jump\t// in\n    tag_316:\n      dup1\n      0x1f\n      add\n      0x20\n      dup1\n      swap2\n      div\n      mul\n      0x20\n      add\n      mload(0x40)\n      swap1\n      dup2\n      add\n      0x40\n      mstore\n      dup1\n      swap3\n      swap2\n      swap1\n      dup2\n      dup2\n      mstore\n      0x20\n      add\n      dup3\n      dup1\n      sload\n      tag_317\n      swap1\n      tag_136\n      jump\t// in\n    tag_317:\n      dup1\n      iszero\n      tag_318\n      jumpi\n      dup1\n      0x1f\n      lt\n      tag_319\n      jumpi\n      0x0100\n      dup1\n      dup4\n      sload\n      div\n      mul\n      dup4\n      mstore\n      swap2\n      0x20\n      add\n      swap2\n      jump(tag_318)\n    tag_319:\n      dup3\n      add\n      swap2\n      swap1\n      0x00\n      mstore\n      keccak256(0x00, 0x20)\n      swap1\n    tag_320:\n      dup2\n      sload\n      dup2\n      mstore\n      swap1\n      0x01\n      add\n      swap1\n      0x20\n      add\n      dup1\n      dup4\n      gt\n      tag_320\n      jumpi\n      dup3\n      swap1\n      sub\n      0x1f\n      and\n      dup3\n      add\n      swap2\n    tag_318:\n      pop\n      pop\n      pop\n      pop\n      pop\n      swap1\n      pop\n        /* \"Contracts/Lending.sol\":5083:5088  Users */\n      0x06\n        /* \"Contracts/Lending.sol\":5089:5095  userId */\n      dup2\n        /* \"Contracts/Lending.sol\":5083:5096  Users[userId] */\n      mload(0x40)\n      tag_321\n      swap2\n      swap1\n      tag_155\n      jump\t// in\n    tag_321:\n      swap1\n      dup2\n      mstore\n      0x20\n      add\n      mload(0x40)\n      dup1\n      swap2\n      sub\n      swap1\n      keccak256\n        /* \"Contracts/Lending.sol\":5076:5096  return Users[userId] */\n      mload(0x40)\n      dup1\n      0xe0\n      add\n      0x40\n      mstore\n      swap1\n      dup2\n      0x00\n      dup3\n      add\n      dup1\n      sload\n      tag_322\n      swap1\n      tag_136\n      jump\t// in\n    tag_322:\n      dup1\n      0x1f\n      add\n      0x20\n      dup1\n      swap2\n      div\n      mul\n      0x20\n      add\n      mload(0x40)\n      swap1\n      dup2\n      add\n      0x40\n      mstore\n      dup1\n      swap3\n      swap2\n      swap1\n      dup2\n      dup2\n      mstore\n      0x20\n      add\n      dup3\n      dup1\n      sload\n      tag_323\n      swap1\n      tag_136\n      jump\t// in\n    tag_323:\n      dup1\n      iszero\n      tag_324\n      jumpi\n      dup1\n      0x1f\n      lt\n      tag_325\n      jumpi\n      0x0100\n      dup1\n      dup4\n      sload\n      div\n      mul\n      dup4\n      mstore\n      swap2\n      0x20\n      add\n      swap2\n      jump(tag_324)\n    tag_325:\n      dup3\n      add\n      swap2\n      swap1\n      0x00\n      mstore\n      keccak256(0x00, 0x20)\n      swap1\n    tag_326:\n      dup2\n      sload\n      dup2\n      mstore\n      swap1\n      0x01\n      add\n      swap1\n      0x20\n      add\n      dup1\n      dup4\n      gt\n      tag_326\n      jumpi\n      dup3\n      swap1\n      sub\n      0x1f\n      and\n      dup3\n      add\n      swap2\n    tag_324:\n      pop\n      pop\n      pop\n      pop\n      pop\n      dup2\n      mstore\n      0x20\n      add\n      0x01\n      dup3\n      add\n      dup1\n      sload\n      tag_327\n      swap1\n      tag_136\n      jump\t// in\n    tag_327:\n      dup1\n      0x1f\n      add\n      0x20\n      dup1\n      swap2\n      div\n      mul\n      0x20\n      add\n      mload(0x40)\n      swap1\n      dup2\n      add\n      0x40\n      mstore\n      dup1\n      swap3\n      swap2\n      swap1\n      dup2\n      dup2\n      mstore\n      0x20\n      add\n      dup3\n      dup1\n      sload\n      tag_328\n      swap1\n      tag_136\n      jump\t// in\n    tag_328:\n      dup1\n      iszero\n      tag_329\n      jumpi\n      dup1\n      0x1f\n      lt\n      tag_330\n      jumpi\n      0x0100\n      dup1\n      dup4\n      sload\n      div\n      mul\n      dup4\n      mstore\n      swap2\n      0x20\n      add\n      swap2\n      jump(tag_329)\n    tag_330:\n      dup3\n      add\n      swap2\n      swap1\n      0x00\n      mstore\n      keccak256(0x00, 0x20)\n      swap1\n    tag_331:\n      dup2\n      sload\n      dup2\n      mstore\n      swap1\n      0x01\n      add\n      swap1\n      0x20\n      add\n      dup1\n      dup4\n      gt\n      tag_331\n      jumpi\n      dup3\n      swap1\n      sub\n      0x1f\n      and\n      dup3\n      add\n      swap2\n    tag_329:\n      pop\n      pop\n      pop\n      pop\n      pop\n      dup2\n      mstore\n      0x20\n      add\n      0x02\n      dup3\n      add\n      dup1\n      sload\n      tag_332\n      swap1\n      tag_136\n      jump\t// in\n    tag_332:\n      dup1\n      0x1f\n      add\n      0x20\n      dup1\n      swap2\n      div\n      mul\n      0x20\n      add\n      mload(0x40)\n      swap1\n      dup2\n      add\n      0x40\n      mstore\n      dup1\n      swap3\n      swap2\n      swap1\n      dup2\n      dup2\n      mstore\n      0x20\n      add\n      dup3\n      dup1\n      sload\n      tag_333\n      swap1\n      tag_136\n      jump\t// in\n    tag_333:\n      dup1\n      iszero\n      tag_334\n      jumpi\n      dup1\n      0x1f\n      lt\n      tag_335\n      jumpi\n      0x0100\n      dup1\n      dup4\n      sload\n      div\n      mul\n      dup4\n      mstore\n      swap2\n      0x20\n      add\n      swap2\n      jump(tag_334)\n    tag_335:\n      dup3\n      add\n      swap2\n      swap1\n      0x00\n      mstore\n      keccak256(0x00, 0x20)\n      swap1\n    tag_336:\n      dup2\n      sload\n      dup2\n      mstore\n      swap1\n      0x01\n      add\n      swap1\n      0x20\n      add\n      dup1\n      dup4\n      gt\n      tag_336\n      jumpi\n      dup3\n      swap1\n      sub\n      0x1f\n      and\n      dup3\n      add\n      swap2\n    tag_334:\n      pop\n      pop\n      pop\n      pop\n      pop\n      dup2\n      mstore\n      0x20\n      add\n      0x03\n      dup3\n      add\n      dup1\n      sload\n      dup1\n      0x20\n      mul\n      0x20\n      add\n      mload(0x40)\n      swap1\n      dup2\n      add\n      0x40\n      mstore\n      dup1\n      swap3\n      swap2\n      swap1\n      dup2\n      dup2\n      mstore\n      0x20\n      add\n      0x00\n      swap1\n    tag_337:\n      dup3\n      dup3\n      lt\n      iszero\n      tag_338\n      jumpi\n      dup4\n      dup3\n      swap1\n      0x00\n      mstore\n      keccak256(0x00, 0x20)\n      add\n      dup1\n      sload\n      tag_340\n      swap1\n      tag_136\n      jump\t// in\n    tag_340:\n      dup1\n      0x1f\n      add\n      0x20\n      dup1\n      swap2\n      div\n      mul\n      0x20\n      add\n      mload(0x40)\n      swap1\n      dup2\n      add\n      0x40\n      mstore\n      dup1\n      swap3\n      swap2\n      swap1\n      dup2\n      dup2\n      mstore\n      0x20\n      add\n      dup3\n      dup1\n      sload\n      tag_341\n      swap1\n      tag_136\n      jump\t// in\n    tag_341:\n      dup1\n      iszero\n      tag_342\n      jumpi\n      dup1\n      0x1f\n      lt\n      tag_343\n      jumpi\n      0x0100\n      dup1\n      dup4\n      sload\n      div\n      mul\n      dup4\n      mstore\n      swap2\n      0x20\n      add\n      swap2\n      jump(tag_342)\n    tag_343:\n      dup3\n      add\n      swap2\n      swap1\n      0x00\n      mstore\n      keccak256(0x00, 0x20)\n      swap1\n    tag_344:\n      dup2\n      sload\n      dup2\n      mstore\n      swap1\n      0x01\n      add\n      swap1\n      0x20\n      add\n      dup1\n      dup4\n      gt\n      tag_344\n      jumpi\n      dup3\n      swap1\n      sub\n      0x1f\n      and\n      dup3\n      add\n      swap2\n    tag_342:\n      pop\n      pop\n      pop\n      pop\n      pop\n      dup2\n      mstore\n      0x20\n      add\n      swap1\n      0x01\n      add\n      swap1\n      jump(tag_337)\n    tag_338:\n      pop\n      pop\n      pop\n      pop\n      dup2\n      mstore\n      0x20\n      add\n      0x04\n      dup3\n      add\n      dup1\n      sload\n      dup1\n      0x20\n      mul\n      0x20\n      add\n      mload(0x40)\n      swap1\n      dup2\n      add\n      0x40\n      mstore\n      dup1\n      swap3\n      swap2\n      swap1\n      dup2\n      dup2\n      mstore\n      0x20\n      add\n      dup3\n      dup1\n      sload\n      dup1\n      iszero\n      tag_345\n      jumpi\n      0x20\n      mul\n      dup3\n      add\n      swap2\n      swap1\n      0x00\n      mstore\n      keccak256(0x00, 0x20)\n      swap1\n    tag_346:\n      dup2\n      sload\n      dup2\n      mstore\n      0x20\n      add\n      swap1\n      0x01\n      add\n      swap1\n      dup1\n      dup4\n      gt\n      tag_346\n      jumpi\n    tag_345:\n      pop\n      pop\n      pop\n      pop\n      pop\n      dup2\n      mstore\n      0x20\n      add\n      0x05\n      dup3\n      add\n      dup1\n      sload\n      dup1\n      0x20\n      mul\n      0x20\n      add\n      mload(0x40)\n      swap1\n      dup2\n      add\n      0x40\n      mstore\n      dup1\n      swap3\n      swap2\n      swap1\n      dup2\n      dup2\n      mstore\n      0x20\n      add\n      dup3\n      dup1\n      sload\n      dup1\n      iszero\n      tag_347\n      jumpi\n      0x20\n      mul\n      dup3\n      add\n      swap2\n      swap1\n      0x00\n      mstore\n      keccak256(0x00, 0x20)\n      swap1\n    tag_348:\n      dup2\n      sload\n      dup2\n      mstore\n      0x20\n      add\n      swap1\n      0x01\n      add\n      swap1\n      dup1\n      dup4\n      gt\n      tag_348\n      jumpi\n    tag_347:\n      pop\n      pop\n      pop\n      pop\n      pop\n      dup2\n      mstore\n      0x20\n      add\n      0x06\n      dup3\n      add\n      dup1\n      sload\n      dup1\n      0x20\n      mul\n      0x20\n      add\n      mload(0x40)\n      swap1\n      dup2\n      add\n      0x40\n      mstore\n      dup1\n      swap3\n      swap2\n      swap1\n      dup2\n      dup2\n      mstore\n      0x20\n      add\n      dup3\n      dup1\n      sload\n      dup1\n      iszero\n      tag_349\n      jumpi\n      0x20\n      mul\n      dup3\n      add\n      swap2\n      swap1\n      0x00\n      mstore\n      keccak256(0x00, 0x20)\n      swap1\n    tag_350:\n      dup2\n      sload\n      dup2\n      mstore\n      0x20\n      add\n      swap1\n      0x01\n      add\n      swap1\n      dup1\n      dup4\n      gt\n      tag_350\n      jumpi\n    tag_349:\n      pop\n      pop\n      pop\n      pop\n      pop\n      dup2\n      mstore\n      pop\n      pop\n      swap2\n      pop\n      pop\n        /* \"Contracts/Lending.sol\":4937:5103  function getUserByWallet(string memory addr) public view returns (User memory) {... */\n      swap2\n      swap1\n      pop\n      jump\t// out\n        /* \"Contracts/Lending.sol\":6034:6137  function returnRent(bool status, uint rentId) public {... */\n    tag_90:\n        /* \"Contracts/Lending.sol\":6124:6130  status */\n      dup2\n        /* \"Contracts/Lending.sol\":6097:6102  Rents */\n      0x07\n        /* \"Contracts/Lending.sol\":6097:6110  Rents[rentId] */\n      0x00\n        /* \"Contracts/Lending.sol\":6103:6109  rentId */\n      dup4\n        /* \"Contracts/Lending.sol\":6097:6110  Rents[rentId] */\n      dup2\n      mstore\n      0x20\n      add\n      swap1\n      dup2\n      mstore\n      0x20\n      add\n      0x00\n      keccak256\n        /* \"Contracts/Lending.sol\":6097:6121  Rents[rentId].isReturned */\n      0x04\n      add\n      0x01\n        /* \"Contracts/Lending.sol\":6097:6130  Rents[rentId].isReturned = status */\n      0x0100\n      exp\n      dup2\n      sload\n      dup2\n      0xff\n      mul\n      not\n      and\n      swap1\n      dup4\n      iszero\n      iszero\n      mul\n      or\n      swap1\n      sstore\n      pop\n        /* \"Contracts/Lending.sol\":6034:6137  function returnRent(bool status, uint rentId) public {... */\n      pop\n      pop\n      jump\t// out\n        /* \"Contracts/Lending.sol\":5924:6028  function approveRent(bool status, uint rentId) public {... */\n    tag_93:\n        /* \"Contracts/Lending.sol\":6015:6021  status */\n      dup2\n        /* \"Contracts/Lending.sol\":5988:5993  Rents */\n      0x07\n        /* \"Contracts/Lending.sol\":5988:6001  Rents[rentId] */\n      0x00\n        /* \"Contracts/Lending.sol\":5994:6000  rentId */\n      dup4\n        /* \"Contracts/Lending.sol\":5988:6001  Rents[rentId] */\n      dup2\n      mstore\n      0x20\n      add\n      swap1\n      dup2\n      mstore\n      0x20\n      add\n      0x00\n      keccak256\n        /* \"Contracts/Lending.sol\":5988:6012  Rents[rentId].isApproved */\n      0x04\n      add\n      0x00\n        /* \"Contracts/Lending.sol\":5988:6021  Rents[rentId].isApproved = status */\n      0x0100\n      exp\n      dup2\n      sload\n      dup2\n      0xff\n      mul\n      not\n      and\n      swap1\n      dup4\n      iszero\n      iszero\n      mul\n      or\n      swap1\n      sstore\n      pop\n        /* \"Contracts/Lending.sol\":5924:6028  function approveRent(bool status, uint rentId) public {... */\n      pop\n      pop\n      jump\t// out\n        /* \"Contracts/Lending.sol\":5109:5190  function getOwner() external view returns (address) {... */\n    tag_95:\n        /* \"Contracts/Lending.sol\":5152:5159  address */\n      0x00\n        /* \"Contracts/Lending.sol\":5178:5183  owner */\n      dup1\n      0x00\n      swap1\n      sload\n      swap1\n      0x0100\n      exp\n      swap1\n      div\n      0xffffffffffffffffffffffffffffffffffffffff\n      and\n        /* \"Contracts/Lending.sol\":5171:5183  return owner */\n      swap1\n      pop\n        /* \"Contracts/Lending.sol\":5109:5190  function getOwner() external view returns (address) {... */\n      swap1\n      jump\t// out\n        /* \"Contracts/Lending.sol\":5302:5396  function getAllRents() public view returns (uint[] memory) {... */\n    tag_99:\n        /* \"Contracts/Lending.sol\":5346:5359  uint[] memory */\n      0x60\n        /* \"Contracts/Lending.sol\":5378:5389  allRentsIds */\n      0x04\n        /* \"Contracts/Lending.sol\":5371:5389  return allRentsIds */\n      dup1\n      sload\n      dup1\n      0x20\n      mul\n      0x20\n      add\n      mload(0x40)\n      swap1\n      dup2\n      add\n      0x40\n      mstore\n      dup1\n      swap3\n      swap2\n      swap1\n      dup2\n      dup2\n      mstore\n      0x20\n      add\n      dup3\n      dup1\n      sload\n      dup1\n      iszero\n      tag_355\n      jumpi\n      0x20\n      mul\n      dup3\n      add\n      swap2\n      swap1\n      0x00\n      mstore\n      keccak256(0x00, 0x20)\n      swap1\n    tag_356:\n      dup2\n      sload\n      dup2\n      mstore\n      0x20\n      add\n      swap1\n      0x01\n      add\n      swap1\n      dup1\n      dup4\n      gt\n      tag_356\n      jumpi\n    tag_355:\n      pop\n      pop\n      pop\n      pop\n      pop\n      swap1\n      pop\n        /* \"Contracts/Lending.sol\":5302:5396  function getAllRents() public view returns (uint[] memory) {... */\n      swap1\n      jump\t// out\n        /* \"Contracts/Lending.sol\":6143:6264  function setIncidence(string memory _incidence, uint rentId) public {... */\n    tag_104:\n        /* \"Contracts/Lending.sol\":6247:6257  _incidence */\n      dup2\n        /* \"Contracts/Lending.sol\":6221:6226  Rents */\n      0x07\n        /* \"Contracts/Lending.sol\":6221:6234  Rents[rentId] */\n      0x00\n        /* \"Contracts/Lending.sol\":6227:6233  rentId */\n      dup4\n        /* \"Contracts/Lending.sol\":6221:6234  Rents[rentId] */\n      dup2\n      mstore\n      0x20\n      add\n      swap1\n      dup2\n      mstore\n      0x20\n      add\n      0x00\n      keccak256\n        /* \"Contracts/Lending.sol\":6221:6244  Rents[rentId].incidence */\n      0x05\n      add\n        /* \"Contracts/Lending.sol\":6221:6257  Rents[rentId].incidence = _incidence */\n      swap1\n      dup2\n      tag_358\n      swap2\n      swap1\n      tag_157\n      jump\t// in\n    tag_358:\n      pop\n        /* \"Contracts/Lending.sol\":6143:6264  function setIncidence(string memory _incidence, uint rentId) public {... */\n      pop\n      pop\n      jump\t// out\n        /* \"Contracts/Lending.sol\":156:182  uint public lastRentId = 0 */\n    tag_106:\n      sload(0x02)\n      dup2\n      jump\t// out\n        /* \"Contracts/Lending.sol\":1878:2271  function compareStrings(string memory a, string memory b) public pure returns (bool) {... */\n    tag_110:\n        /* \"Contracts/Lending.sol\":1957:1961  bool */\n      0x00\n        /* \"Contracts/Lending.sol\":2002:2003  b */\n      dup2\n        /* \"Contracts/Lending.sol\":1996:2011  bytes(b).length */\n      mload\n        /* \"Contracts/Lending.sol\":1983:1984  a */\n      dup4\n        /* \"Contracts/Lending.sol\":1977:1992  bytes(a).length */\n      mload\n        /* \"Contracts/Lending.sol\":1977:2011  bytes(a).length != bytes(b).length */\n      eq\n        /* \"Contracts/Lending.sol\":1973:2265  if (bytes(a).length != bytes(b).length) {... */\n      tag_360\n      jumpi\n        /* \"Contracts/Lending.sol\":2034:2039  false */\n      0x00\n        /* \"Contracts/Lending.sol\":2027:2039  return false */\n      swap1\n      pop\n      jump(tag_359)\n        /* \"Contracts/Lending.sol\":1973:2265  if (bytes(a).length != bytes(b).length) {... */\n    tag_360:\n        /* \"Contracts/Lending.sol\":2075:2081  uint i */\n      0x00\n        /* \"Contracts/Lending.sol\":2070:2230  for (uint i = 0; i < bytes(a).length; i++) {... */\n    tag_362:\n        /* \"Contracts/Lending.sol\":2097:2098  a */\n      dup4\n        /* \"Contracts/Lending.sol\":2091:2106  bytes(a).length */\n      mload\n        /* \"Contracts/Lending.sol\":2087:2088  i */\n      dup2\n        /* \"Contracts/Lending.sol\":2087:2106  i < bytes(a).length */\n      lt\n        /* \"Contracts/Lending.sol\":2070:2230  for (uint i = 0; i < bytes(a).length; i++) {... */\n      iszero\n      tag_363\n      jumpi\n        /* \"Contracts/Lending.sol\":2156:2157  b */\n      dup3\n        /* \"Contracts/Lending.sol\":2159:2160  i */\n      dup2\n        /* \"Contracts/Lending.sol\":2150:2161  bytes(b)[i] */\n      dup2\n      mload\n      dup2\n      lt\n      tag_365\n      jumpi\n      tag_366\n      tag_293\n      jump\t// in\n    tag_366:\n    tag_365:\n      0x20\n      add\n      add\n      mload\n      0xf8\n      shr\n      0xf8\n      shl\n        /* \"Contracts/Lending.sol\":2135:2161  bytes(a)[i] != bytes(b)[i] */\n      not(0xffffffffffffffffffffffffffffffffffffffffffffffffffffffffffffff)\n      and\n        /* \"Contracts/Lending.sol\":2141:2142  a */\n      dup5\n        /* \"Contracts/Lending.sol\":2144:2145  i */\n      dup3\n        /* \"Contracts/Lending.sol\":2135:2146  bytes(a)[i] */\n      dup2\n      mload\n      dup2\n      lt\n      tag_367\n      jumpi\n      tag_368\n      tag_293\n      jump\t// in\n    tag_368:\n    tag_367:\n      0x20\n      add\n      add\n      mload\n      0xf8\n      shr\n      0xf8\n      shl\n        /* \"Contracts/Lending.sol\":2135:2161  bytes(a)[i] != bytes(b)[i] */\n      not(0xffffffffffffffffffffffffffffffffffffffffffffffffffffffffffffff)\n      and\n      eq\n        /* \"Contracts/Lending.sol\":2131:2216  if (bytes(a)[i] != bytes(b)[i]) {... */\n      tag_369\n      jumpi\n        /* \"Contracts/Lending.sol\":2192:2197  false */\n      0x00\n        /* \"Contracts/Lending.sol\":2185:2197  return false */\n      swap2\n      pop\n      pop\n      jump(tag_359)\n        /* \"Contracts/Lending.sol\":2131:2216  if (bytes(a)[i] != bytes(b)[i]) {... */\n    tag_369:\n        /* \"Contracts/Lending.sol\":2108:2111  i++ */\n      dup1\n      dup1\n      tag_370\n      swap1\n      tag_243\n      jump\t// in\n    tag_370:\n      swap2\n      pop\n      pop\n        /* \"Contracts/Lending.sol\":2070:2230  for (uint i = 0; i < bytes(a).length; i++) {... */\n      jump(tag_362)\n    tag_363:\n      pop\n        /* \"Contracts/Lending.sol\":2250:2254  true */\n      0x01\n        /* \"Contracts/Lending.sol\":2243:2254  return true */\n      swap1\n      pop\n        /* \"Contracts/Lending.sol\":1878:2271  function compareStrings(string memory a, string memory b) public pure returns (bool) {... */\n    tag_359:\n      swap3\n      swap2\n      pop\n      pop\n      jump\t// out\n        /* \"Contracts/Lending.sol\":4583:4751  function getUserByLens(string memory lens) public view returns (User memory) {... */\n    tag_115:\n        /* \"Contracts/Lending.sol\":4647:4658  User memory */\n      tag_371\n      tag_168\n      jump\t// in\n    tag_371:\n        /* \"Contracts/Lending.sol\":4670:4690  string memory userId */\n      0x00\n        /* \"Contracts/Lending.sol\":4693:4708  UserLensHandles */\n      0x0d\n        /* \"Contracts/Lending.sol\":4709:4713  lens */\n      dup4\n        /* \"Contracts/Lending.sol\":4693:4714  UserLensHandles[lens] */\n      mload(0x40)\n      tag_373\n      swap2\n      swap1\n      tag_155\n      jump\t// in\n    tag_373:\n      swap1\n      dup2\n      mstore\n      0x20\n      add\n      mload(0x40)\n      dup1\n      swap2\n      sub\n      swap1\n      keccak256\n        /* \"Contracts/Lending.sol\":4670:4714  string memory userId = UserLensHandles[lens] */\n      dup1\n      sload\n      tag_374\n      swap1\n      tag_136\n      jump\t// in\n    tag_374:\n      dup1\n      0x1f\n      add\n      0x20\n      dup1\n      swap2\n      div\n      mul\n      0x20\n      add\n      mload(0x40)\n      swap1\n      dup2\n      add\n      0x40\n      mstore\n      dup1\n      swap3\n      swap2\n      swap1\n      dup2\n      dup2\n      mstore\n      0x20\n      add\n      dup3\n      dup1\n      sload\n      tag_375\n      swap1\n      tag_136\n      jump\t// in\n    tag_375:\n      dup1\n      iszero\n      tag_376\n      jumpi\n      dup1\n      0x1f\n      lt\n      tag_377\n      jumpi\n      0x0100\n      dup1\n      dup4\n      sload\n      div\n      mul\n      dup4\n      mstore\n      swap2\n      0x20\n      add\n      swap2\n      jump(tag_376)\n    tag_377:\n      dup3\n      add\n      swap2\n      swap1\n      0x00\n      mstore\n      keccak256(0x00, 0x20)\n      swap1\n    tag_378:\n      dup2\n      sload\n      dup2\n      mstore\n      swap1\n      0x01\n      add\n      swap1\n      0x20\n      add\n      dup1\n      dup4\n      gt\n      tag_378\n      jumpi\n      dup3\n      swap1\n      sub\n      0x1f\n      and\n      dup3\n      add\n      swap2\n    tag_376:\n      pop\n      pop\n      pop\n      pop\n      pop\n      swap1\n      pop\n        /* \"Contracts/Lending.sol\":4731:4736  Users */\n      0x06\n        /* \"Contracts/Lending.sol\":4737:4743  userId */\n      dup2\n        /* \"Contracts/Lending.sol\":4731:4744  Users[userId] */\n      mload(0x40)\n      tag_379\n      swap2\n      swap1\n      tag_155\n      jump\t// in\n    tag_379:\n      swap1\n      dup2\n      mstore\n      0x20\n      add\n      mload(0x40)\n      dup1\n      swap2\n      sub\n      swap1\n      keccak256\n        /* \"Contracts/Lending.sol\":4724:4744  return Users[userId] */\n      mload(0x40)\n      dup1\n      0xe0\n      add\n      0x40\n      mstore\n      swap1\n      dup2\n      0x00\n      dup3\n      add\n      dup1\n      sload\n      tag_380\n      swap1\n      tag_136\n      jump\t// in\n    tag_380:\n      dup1\n      0x1f\n      add\n      0x20\n      dup1\n      swap2\n      div\n      mul\n      0x20\n      add\n      mload(0x40)\n      swap1\n      dup2\n      add\n      0x40\n      mstore\n      dup1\n      swap3\n      swap2\n      swap1\n      dup2\n      dup2\n      mstore\n      0x20\n      add\n      dup3\n      dup1\n      sload\n      tag_381\n      swap1\n      tag_136\n      jump\t// in\n    tag_381:\n      dup1\n      iszero\n      tag_382\n      jumpi\n      dup1\n      0x1f\n      lt\n      tag_383\n      jumpi\n      0x0100\n      dup1\n      dup4\n      sload\n      div\n      mul\n      dup4\n      mstore\n      swap2\n      0x20\n      add\n      swap2\n      jump(tag_382)\n    tag_383:\n      dup3\n      add\n      swap2\n      swap1\n      0x00\n      mstore\n      keccak256(0x00, 0x20)\n      swap1\n    tag_384:\n      dup2\n      sload\n      dup2\n      mstore\n      swap1\n      0x01\n      add\n      swap1\n      0x20\n      add\n      dup1\n      dup4\n      gt\n      tag_384\n      jumpi\n      dup3\n      swap1\n      sub\n      0x1f\n      and\n      dup3\n      add\n      swap2\n    tag_382:\n      pop\n      pop\n      pop\n      pop\n      pop\n      dup2\n      mstore\n      0x20\n      add\n      0x01\n      dup3\n      add\n      dup1\n      sload\n      tag_385\n      swap1\n      tag_136\n      jump\t// in\n    tag_385:\n      dup1\n      0x1f\n      add\n      0x20\n      dup1\n      swap2\n      div\n      mul\n      0x20\n      add\n      mload(0x40)\n      swap1\n      dup2\n      add\n      0x40\n      mstore\n      dup1\n      swap3\n      swap2\n      swap1\n      dup2\n      dup2\n      mstore\n      0x20\n      add\n      dup3\n      dup1\n      sload\n      tag_386\n      swap1\n      tag_136\n      jump\t// in\n    tag_386:\n      dup1\n      iszero\n      tag_387\n      jumpi\n      dup1\n      0x1f\n      lt\n      tag_388\n      jumpi\n      0x0100\n      dup1\n      dup4\n      sload\n      div\n      mul\n      dup4\n      mstore\n      swap2\n      0x20\n      add\n      swap2\n      jump(tag_387)\n    tag_388:\n      dup3\n      add\n      swap2\n      swap1\n      0x00\n      mstore\n      keccak256(0x00, 0x20)\n      swap1\n    tag_389:\n      dup2\n      sload\n      dup2\n      mstore\n      swap1\n      0x01\n      add\n      swap1\n      0x20\n      add\n      dup1\n      dup4\n      gt\n      tag_389\n      jumpi\n      dup3\n      swap1\n      sub\n      0x1f\n      and\n      dup3\n      add\n      swap2\n    tag_387:\n      pop\n      pop\n      pop\n      pop\n      pop\n      dup2\n      mstore\n      0x20\n      add\n      0x02\n      dup3\n      add\n      dup1\n      sload\n      tag_390\n      swap1\n      tag_136\n      jump\t// in\n    tag_390:\n      dup1\n      0x1f\n      add\n      0x20\n      dup1\n      swap2\n      div\n      mul\n      0x20\n      add\n      mload(0x40)\n      swap1\n      dup2\n      add\n      0x40\n      mstore\n      dup1\n      swap3\n      swap2\n      swap1\n      dup2\n      dup2\n      mstore\n      0x20\n      add\n      dup3\n      dup1\n      sload\n      tag_391\n      swap1\n      tag_136\n      jump\t// in\n    tag_391:\n      dup1\n      iszero\n      tag_392\n      jumpi\n      dup1\n      0x1f\n      lt\n      tag_393\n      jumpi\n      0x0100\n      dup1\n      dup4\n      sload\n      div\n      mul\n      dup4\n      mstore\n      swap2\n      0x20\n      add\n      swap2\n      jump(tag_392)\n    tag_393:\n      dup3\n      add\n      swap2\n      swap1\n      0x00\n      mstore\n      keccak256(0x00, 0x20)\n      swap1\n    tag_394:\n      dup2\n      sload\n      dup2\n      mstore\n      swap1\n      0x01\n      add\n      swap1\n      0x20\n      add\n      dup1\n      dup4\n      gt\n      tag_394\n      jumpi\n      dup3\n      swap1\n      sub\n      0x1f\n      and\n      dup3\n      add\n      swap2\n    tag_392:\n      pop\n      pop\n      pop\n      pop\n      pop\n      dup2\n      mstore\n      0x20\n      add\n      0x03\n      dup3\n      add\n      dup1\n      sload\n      dup1\n      0x20\n      mul\n      0x20\n      add\n      mload(0x40)\n      swap1\n      dup2\n      add\n      0x40\n      mstore\n      dup1\n      swap3\n      swap2\n      swap1\n      dup2\n      dup2\n      mstore\n      0x20\n      add\n      0x00\n      swap1\n    tag_395:\n      dup3\n      dup3\n      lt\n      iszero\n      tag_396\n      jumpi\n      dup4\n      dup3\n      swap1\n      0x00\n      mstore\n      keccak256(0x00, 0x20)\n      add\n      dup1\n      sload\n      tag_398\n      swap1\n      tag_136\n      jump\t// in\n    tag_398:\n      dup1\n      0x1f\n      add\n      0x20\n      dup1\n      swap2\n      div\n      mul\n      0x20\n      add\n      mload(0x40)\n      swap1\n      dup2\n      add\n      0x40\n      mstore\n      dup1\n      swap3\n      swap2\n      swap1\n      dup2\n      dup2\n      mstore\n      0x20\n      add\n      dup3\n      dup1\n      sload\n      tag_399\n      swap1\n      tag_136\n      jump\t// in\n    tag_399:\n      dup1\n      iszero\n      tag_400\n      jumpi\n      dup1\n      0x1f\n      lt\n      tag_401\n      jumpi\n      0x0100\n      dup1\n      dup4\n      sload\n      div\n      mul\n      dup4\n      mstore\n      swap2\n      0x20\n      add\n      swap2\n      jump(tag_400)\n    tag_401:\n      dup3\n      add\n      swap2\n      swap1\n      0x00\n      mstore\n      keccak256(0x00, 0x20)\n      swap1\n    tag_402:\n      dup2\n      sload\n      dup2\n      mstore\n      swap1\n      0x01\n      add\n      swap1\n      0x20\n      add\n      dup1\n      dup4\n      gt\n      tag_402\n      jumpi\n      dup3\n      swap1\n      sub\n      0x1f\n      and\n      dup3\n      add\n      swap2\n    tag_400:\n      pop\n      pop\n      pop\n      pop\n      pop\n      dup2\n      mstore\n      0x20\n      add\n      swap1\n      0x01\n      add\n      swap1\n      jump(tag_395)\n    tag_396:\n      pop\n      pop\n      pop\n      pop\n      dup2\n      mstore\n      0x20\n      add\n      0x04\n      dup3\n      add\n      dup1\n      sload\n      dup1\n      0x20\n      mul\n      0x20\n      add\n      mload(0x40)\n      swap1\n      dup2\n      add\n      0x40\n      mstore\n      dup1\n      swap3\n      swap2\n      swap1\n      dup2\n      dup2\n      mstore\n      0x20\n      add\n      dup3\n      dup1\n      sload\n      dup1\n      iszero\n      tag_403\n      jumpi\n      0x20\n      mul\n      dup3\n      add\n      swap2\n      swap1\n      0x00\n      mstore\n      keccak256(0x00, 0x20)\n      swap1\n    tag_404:\n      dup2\n      sload\n      dup2\n      mstore\n      0x20\n      add\n      swap1\n      0x01\n      add\n      swap1\n      dup1\n      dup4\n      gt\n      tag_404\n      jumpi\n    tag_403:\n      pop\n      pop\n      pop\n      pop\n      pop\n      dup2\n      mstore\n      0x20\n      add\n      0x05\n      dup3\n      add\n      dup1\n      sload\n      dup1\n      0x20\n      mul\n      0x20\n      add\n      mload(0x40)\n      swap1\n      dup2\n      add\n      0x40\n      mstore\n      dup1\n      swap3\n      swap2\n      swap1\n      dup2\n      dup2\n      mstore\n      0x20\n      add\n      dup3\n      dup1\n      sload\n      dup1\n      iszero\n      tag_405\n      jumpi\n      0x20\n      mul\n      dup3\n      add\n      swap2\n      swap1\n      0x00\n      mstore\n      keccak256(0x00, 0x20)\n      swap1\n    tag_406:\n      dup2\n      sload\n      dup2\n      mstore\n      0x20\n      add\n      swap1\n      0x01\n      add\n      swap1\n      dup1\n      dup4\n      gt\n      tag_406\n      jumpi\n    tag_405:\n      pop\n      pop\n      pop\n      pop\n      pop\n      dup2\n      mstore\n      0x20\n      add\n      0x06\n      dup3\n      add\n      dup1\n      sload\n      dup1\n      0x20\n      mul\n      0x20\n      add\n      mload(0x40)\n      swap1\n      dup2\n      add\n      0x40\n      mstore\n      dup1\n      swap3\n      swap2\n      swap1\n      dup2\n      dup2\n      mstore\n      0x20\n      add\n      dup3\n      dup1\n      sload\n      dup1\n      iszero\n      tag_407\n      jumpi\n      0x20\n      mul\n      dup3\n      add\n      swap2\n      swap1\n      0x00\n      mstore\n      keccak256(0x00, 0x20)\n      swap1\n    tag_408:\n      dup2\n      sload\n      dup2\n      mstore\n      0x20\n      add\n      swap1\n      0x01\n      add\n      swap1\n      dup1\n      dup4\n      gt\n      tag_408\n      jumpi\n    tag_407:\n      pop\n      pop\n      pop\n      pop\n      pop\n      dup2\n      mstore\n      pop\n      pop\n      swap2\n      pop\n      pop\n        /* \"Contracts/Lending.sol\":4583:4751  function getUserByLens(string memory lens) public view returns (User memory) {... */\n      swap2\n      swap1\n      pop\n      jump\t// out\n        /* \"Contracts/Lending.sol\":2333:2959  function doesKeyExist(string memory key, string memory variable) public view returns (bool) {... */\n    tag_119:\n        /* \"Contracts/Lending.sol\":2419:2423  bool */\n      0x00\n        /* \"Contracts/Lending.sol\":2440:2479  compareStrings(variable, 'userWallets') */\n      tag_410\n        /* \"Contracts/Lending.sol\":2455:2463  variable */\n      dup3\n        /* \"Contracts/Lending.sol\":2440:2479  compareStrings(variable, 'userWallets') */\n      mload(0x40)\n      dup1\n      0x40\n      add\n      0x40\n      mstore\n      dup1\n      0x0b\n      dup2\n      mstore\n      0x20\n      add\n      0x7573657257616c6c657473000000000000000000000000000000000000000000\n      dup2\n      mstore\n      pop\n        /* \"Contracts/Lending.sol\":2440:2454  compareStrings */\n      tag_110\n        /* \"Contracts/Lending.sol\":2440:2479  compareStrings(variable, 'userWallets') */\n      jump\t// in\n    tag_410:\n        /* \"Contracts/Lending.sol\":2436:2593  if (compareStrings(variable, 'userWallets')) {... */\n      iszero\n      tag_411\n      jumpi\n        /* \"Contracts/Lending.sol\":2561:2581  abi.encodePacked(\"\") */\n      add(0x20, mload(0x40))\n      tag_412\n      swap1\n      tag_413\n      jump\t// in\n    tag_412:\n      mload(0x40)\n      0x20\n      dup2\n      dup4\n      sub\n      sub\n      dup2\n      mstore\n      swap1\n      0x40\n      mstore\n        /* \"Contracts/Lending.sol\":2551:2582  keccak256(abi.encodePacked(\"\")) */\n      dup1\n      mload\n      swap1\n      0x20\n      add\n      keccak256\n        /* \"Contracts/Lending.sol\":2529:2540  UserWallets */\n      0x0c\n        /* \"Contracts/Lending.sol\":2541:2544  key */\n      dup5\n        /* \"Contracts/Lending.sol\":2529:2545  UserWallets[key] */\n      mload(0x40)\n      tag_414\n      swap2\n      swap1\n      tag_155\n      jump\t// in\n    tag_414:\n      swap1\n      dup2\n      mstore\n      0x20\n      add\n      mload(0x40)\n      dup1\n      swap2\n      sub\n      swap1\n      keccak256\n        /* \"Contracts/Lending.sol\":2512:2546  abi.encodePacked(UserWallets[key]) */\n      add(0x20, mload(0x40))\n      tag_415\n      swap2\n      swap1\n      tag_416\n      jump\t// in\n    tag_415:\n      mload(0x40)\n      0x20\n      dup2\n      dup4\n      sub\n      sub\n      dup2\n      mstore\n      swap1\n      0x40\n      mstore\n        /* \"Contracts/Lending.sol\":2502:2547  keccak256(abi.encodePacked(UserWallets[key])) */\n      dup1\n      mload\n      swap1\n      0x20\n      add\n      keccak256\n        /* \"Contracts/Lending.sol\":2502:2582  keccak256(abi.encodePacked(UserWallets[key])) != keccak256(abi.encodePacked(\"\")) */\n      eq\n      iszero\n        /* \"Contracts/Lending.sol\":2495:2582  return keccak256(abi.encodePacked(UserWallets[key])) != keccak256(abi.encodePacked(\"\")) */\n      swap1\n      pop\n      jump(tag_409)\n        /* \"Contracts/Lending.sol\":2436:2593  if (compareStrings(variable, 'userWallets')) {... */\n    tag_411:\n        /* \"Contracts/Lending.sol\":2607:2643  compareStrings(variable, 'userLens') */\n      tag_417\n        /* \"Contracts/Lending.sol\":2622:2630  variable */\n      dup3\n        /* \"Contracts/Lending.sol\":2607:2643  compareStrings(variable, 'userLens') */\n      mload(0x40)\n      dup1\n      0x40\n      add\n      0x40\n      mstore\n      dup1\n      0x08\n      dup2\n      mstore\n      0x20\n      add\n      0x757365724c656e73000000000000000000000000000000000000000000000000\n      dup2\n      mstore\n      pop\n        /* \"Contracts/Lending.sol\":2607:2621  compareStrings */\n      tag_110\n        /* \"Contracts/Lending.sol\":2607:2643  compareStrings(variable, 'userLens') */\n      jump\t// in\n    tag_417:\n        /* \"Contracts/Lending.sol\":2603:2761  if (compareStrings(variable, 'userLens')) {... */\n      iszero\n      tag_418\n      jumpi\n        /* \"Contracts/Lending.sol\":2729:2749  abi.encodePacked(\"\") */\n      add(0x20, mload(0x40))\n      tag_419\n      swap1\n      tag_413\n      jump\t// in\n    tag_419:\n      mload(0x40)\n      0x20\n      dup2\n      dup4\n      sub\n      sub\n      dup2\n      mstore\n      swap1\n      0x40\n      mstore\n        /* \"Contracts/Lending.sol\":2719:2750  keccak256(abi.encodePacked(\"\")) */\n      dup1\n      mload\n      swap1\n      0x20\n      add\n      keccak256\n        /* \"Contracts/Lending.sol\":2693:2708  UserLensHandles */\n      0x0d\n        /* \"Contracts/Lending.sol\":2709:2712  key */\n      dup5\n        /* \"Contracts/Lending.sol\":2693:2713  UserLensHandles[key] */\n      mload(0x40)\n      tag_420\n      swap2\n      swap1\n      tag_155\n      jump\t// in\n    tag_420:\n      swap1\n      dup2\n      mstore\n      0x20\n      add\n      mload(0x40)\n      dup1\n      swap2\n      sub\n      swap1\n      keccak256\n        /* \"Contracts/Lending.sol\":2676:2714  abi.encodePacked(UserLensHandles[key]) */\n      add(0x20, mload(0x40))\n      tag_421\n      swap2\n      swap1\n      tag_416\n      jump\t// in\n    tag_421:\n      mload(0x40)\n      0x20\n      dup2\n      dup4\n      sub\n      sub\n      dup2\n      mstore\n      swap1\n      0x40\n      mstore\n        /* \"Contracts/Lending.sol\":2666:2715  keccak256(abi.encodePacked(UserLensHandles[key])) */\n      dup1\n      mload\n      swap1\n      0x20\n      add\n      keccak256\n        /* \"Contracts/Lending.sol\":2666:2750  keccak256(abi.encodePacked(UserLensHandles[key])) != keccak256(abi.encodePacked(\"\")) */\n      eq\n      iszero\n        /* \"Contracts/Lending.sol\":2659:2750  return keccak256(abi.encodePacked(UserLensHandles[key])) != keccak256(abi.encodePacked(\"\")) */\n      swap1\n      pop\n      jump(tag_409)\n        /* \"Contracts/Lending.sol\":2603:2761  if (compareStrings(variable, 'userLens')) {... */\n    tag_418:\n        /* \"Contracts/Lending.sol\":2775:2811  compareStrings(variable, 'userWCID') */\n      tag_422\n        /* \"Contracts/Lending.sol\":2790:2798  variable */\n      dup3\n        /* \"Contracts/Lending.sol\":2775:2811  compareStrings(variable, 'userWCID') */\n      mload(0x40)\n      dup1\n      0x40\n      add\n      0x40\n      mstore\n      dup1\n      0x08\n      dup2\n      mstore\n      0x20\n      add\n      0x7573657257434944000000000000000000000000000000000000000000000000\n      dup2\n      mstore\n      pop\n        /* \"Contracts/Lending.sol\":2775:2789  compareStrings */\n      tag_110\n        /* \"Contracts/Lending.sol\":2775:2811  compareStrings(variable, 'userWCID') */\n      jump\t// in\n    tag_422:\n        /* \"Contracts/Lending.sol\":2771:2930  if (compareStrings(variable, 'userWCID')) {... */\n      iszero\n      tag_423\n      jumpi\n        /* \"Contracts/Lending.sol\":2898:2918  abi.encodePacked(\"\") */\n      add(0x20, mload(0x40))\n      tag_424\n      swap1\n      tag_413\n      jump\t// in\n    tag_424:\n      mload(0x40)\n      0x20\n      dup2\n      dup4\n      sub\n      sub\n      dup2\n      mstore\n      swap1\n      0x40\n      mstore\n        /* \"Contracts/Lending.sol\":2888:2919  keccak256(abi.encodePacked(\"\")) */\n      dup1\n      mload\n      swap1\n      0x20\n      add\n      keccak256\n        /* \"Contracts/Lending.sol\":2861:2877  UserWorldCoinIds */\n      0x0b\n        /* \"Contracts/Lending.sol\":2878:2881  key */\n      dup5\n        /* \"Contracts/Lending.sol\":2861:2882  UserWorldCoinIds[key] */\n      mload(0x40)\n      tag_425\n      swap2\n      swap1\n      tag_155\n      jump\t// in\n    tag_425:\n      swap1\n      dup2\n      mstore\n      0x20\n      add\n      mload(0x40)\n      dup1\n      swap2\n      sub\n      swap1\n      keccak256\n        /* \"Contracts/Lending.sol\":2844:2883  abi.encodePacked(UserWorldCoinIds[key]) */\n      add(0x20, mload(0x40))\n      tag_426\n      swap2\n      swap1\n      tag_416\n      jump\t// in\n    tag_426:\n      mload(0x40)\n      0x20\n      dup2\n      dup4\n      sub\n      sub\n      dup2\n      mstore\n      swap1\n      0x40\n      mstore\n        /* \"Contracts/Lending.sol\":2834:2884  keccak256(abi.encodePacked(UserWorldCoinIds[key])) */\n      dup1\n      mload\n      swap1\n      0x20\n      add\n      keccak256\n        /* \"Contracts/Lending.sol\":2834:2919  keccak256(abi.encodePacked(UserWorldCoinIds[key])) != keccak256(abi.encodePacked(\"\")) */\n      eq\n      iszero\n        /* \"Contracts/Lending.sol\":2827:2919  return keccak256(abi.encodePacked(UserWorldCoinIds[key])) != keccak256(abi.encodePacked(\"\")) */\n      swap1\n      pop\n      jump(tag_409)\n        /* \"Contracts/Lending.sol\":2771:2930  if (compareStrings(variable, 'userWCID')) {... */\n    tag_423:\n        /* \"Contracts/Lending.sol\":2947:2952  false */\n      0x00\n        /* \"Contracts/Lending.sol\":2940:2952  return false */\n      swap1\n      pop\n        /* \"Contracts/Lending.sol\":2333:2959  function doesKeyExist(string memory key, string memory variable) public view returns (bool) {... */\n    tag_409:\n      swap3\n      swap2\n      pop\n      pop\n      jump\t// out\n        /* \"Contracts/Lending.sol\":4757:4931  function getUserByWorldCoin(string memory WCID) public view returns (User memory) {... */\n    tag_123:\n        /* \"Contracts/Lending.sol\":4826:4837  User memory */\n      tag_427\n      tag_168\n      jump\t// in\n    tag_427:\n        /* \"Contracts/Lending.sol\":4849:4869  string memory userId */\n      0x00\n        /* \"Contracts/Lending.sol\":4872:4888  UserWorldCoinIds */\n      0x0b\n        /* \"Contracts/Lending.sol\":4889:4893  WCID */\n      dup4\n        /* \"Contracts/Lending.sol\":4872:4894  UserWorldCoinIds[WCID] */\n      mload(0x40)\n      tag_429\n      swap2\n      swap1\n      tag_155\n      jump\t// in\n    tag_429:\n      swap1\n      dup2\n      mstore\n      0x20\n      add\n      mload(0x40)\n      dup1\n      swap2\n      sub\n      swap1\n      keccak256\n        /* \"Contracts/Lending.sol\":4849:4894  string memory userId = UserWorldCoinIds[WCID] */\n      dup1\n      sload\n      tag_430\n      swap1\n      tag_136\n      jump\t// in\n    tag_430:\n      dup1\n      0x1f\n      add\n      0x20\n      dup1\n      swap2\n      div\n      mul\n      0x20\n      add\n      mload(0x40)\n      swap1\n      dup2\n      add\n      0x40\n      mstore\n      dup1\n      swap3\n      swap2\n      swap1\n      dup2\n      dup2\n      mstore\n      0x20\n      add\n      dup3\n      dup1\n      sload\n      tag_431\n      swap1\n      tag_136\n      jump\t// in\n    tag_431:\n      dup1\n      iszero\n      tag_432\n      jumpi\n      dup1\n      0x1f\n      lt\n      tag_433\n      jumpi\n      0x0100\n      dup1\n      dup4\n      sload\n      div\n      mul\n      dup4\n      mstore\n      swap2\n      0x20\n      add\n      swap2\n      jump(tag_432)\n    tag_433:\n      dup3\n      add\n      swap2\n      swap1\n      0x00\n      mstore\n      keccak256(0x00, 0x20)\n      swap1\n    tag_434:\n      dup2\n      sload\n      dup2\n      mstore\n      swap1\n      0x01\n      add\n      swap1\n      0x20\n      add\n      dup1\n      dup4\n      gt\n      tag_434\n      jumpi\n      dup3\n      swap1\n      sub\n      0x1f\n      and\n      dup3\n      add\n      swap2\n    tag_432:\n      pop\n      pop\n      pop\n      pop\n      pop\n      swap1\n      pop\n        /* \"Contracts/Lending.sol\":4911:4916  Users */\n      0x06\n        /* \"Contracts/Lending.sol\":4917:4923  userId */\n      dup2\n        /* \"Contracts/Lending.sol\":4911:4924  Users[userId] */\n      mload(0x40)\n      tag_435\n      swap2\n      swap1\n      tag_155\n      jump\t// in\n    tag_435:\n      swap1\n      dup2\n      mstore\n      0x20\n      add\n      mload(0x40)\n      dup1\n      swap2\n      sub\n      swap1\n      keccak256\n        /* \"Contracts/Lending.sol\":4904:4924  return Users[userId] */\n      mload(0x40)\n      dup1\n      0xe0\n      add\n      0x40\n      mstore\n      swap1\n      dup2\n      0x00\n      dup3\n      add\n      dup1\n      sload\n      tag_436\n      swap1\n      tag_136\n      jump\t// in\n    tag_436:\n      dup1\n      0x1f\n      add\n      0x20\n      dup1\n      swap2\n      div\n      mul\n      0x20\n      add\n      mload(0x40)\n      swap1\n      dup2\n      add\n      0x40\n      mstore\n      dup1\n      swap3\n      swap2\n      swap1\n      dup2\n      dup2\n      mstore\n      0x20\n      add\n      dup3\n      dup1\n      sload\n      tag_437\n      swap1\n      tag_136\n      jump\t// in\n    tag_437:\n      dup1\n      iszero\n      tag_438\n      jumpi\n      dup1\n      0x1f\n      lt\n      tag_439\n      jumpi\n      0x0100\n      dup1\n      dup4\n      sload\n      div\n      mul\n      dup4\n      mstore\n      swap2\n      0x20\n      add\n      swap2\n      jump(tag_438)\n    tag_439:\n      dup3\n      add\n      swap2\n      swap1\n      0x00\n      mstore\n      keccak256(0x00, 0x20)\n      swap1\n    tag_440:\n      dup2\n      sload\n      dup2\n      mstore\n      swap1\n      0x01\n      add\n      swap1\n      0x20\n      add\n      dup1\n      dup4\n      gt\n      tag_440\n      jumpi\n      dup3\n      swap1\n      sub\n      0x1f\n      and\n      dup3\n      add\n      swap2\n    tag_438:\n      pop\n      pop\n      pop\n      pop\n      pop\n      dup2\n      mstore\n      0x20\n      add\n      0x01\n      dup3\n      add\n      dup1\n      sload\n      tag_441\n      swap1\n      tag_136\n      jump\t// in\n    tag_441:\n      dup1\n      0x1f\n      add\n      0x20\n      dup1\n      swap2\n      div\n      mul\n      0x20\n      add\n      mload(0x40)\n      swap1\n      dup2\n      add\n      0x40\n      mstore\n      dup1\n      swap3\n      swap2\n      swap1\n      dup2\n      dup2\n      mstore\n      0x20\n      add\n      dup3\n      dup1\n      sload\n      tag_442\n      swap1\n      tag_136\n      jump\t// in\n    tag_442:\n      dup1\n      iszero\n      tag_443\n      jumpi\n      dup1\n      0x1f\n      lt\n      tag_444\n      jumpi\n      0x0100\n      dup1\n      dup4\n      sload\n      div\n      mul\n      dup4\n      mstore\n      swap2\n      0x20\n      add\n      swap2\n      jump(tag_443)\n    tag_444:\n      dup3\n      add\n      swap2\n      swap1\n      0x00\n      mstore\n      keccak256(0x00, 0x20)\n      swap1\n    tag_445:\n      dup2\n      sload\n      dup2\n      mstore\n      swap1\n      0x01\n      add\n      swap1\n      0x20\n      add\n      dup1\n      dup4\n      gt\n      tag_445\n      jumpi\n      dup3\n      swap1\n      sub\n      0x1f\n      and\n      dup3\n      add\n      swap2\n    tag_443:\n      pop\n      pop\n      pop\n      pop\n      pop\n      dup2\n      mstore\n      0x20\n      add\n      0x02\n      dup3\n      add\n      dup1\n      sload\n      tag_446\n      swap1\n      tag_136\n      jump\t// in\n    tag_446:\n      dup1\n      0x1f\n      add\n      0x20\n      dup1\n      swap2\n      div\n      mul\n      0x20\n      add\n      mload(0x40)\n      swap1\n      dup2\n      add\n      0x40\n      mstore\n      dup1\n      swap3\n      swap2\n      swap1\n      dup2\n      dup2\n      mstore\n      0x20\n      add\n      dup3\n      dup1\n      sload\n      tag_447\n      swap1\n      tag_136\n      jump\t// in\n    tag_447:\n      dup1\n      iszero\n      tag_448\n      jumpi\n      dup1\n      0x1f\n      lt\n      tag_449\n      jumpi\n      0x0100\n      dup1\n      dup4\n      sload\n      div\n      mul\n      dup4\n      mstore\n      swap2\n      0x20\n      add\n      swap2\n      jump(tag_448)\n    tag_449:\n      dup3\n      add\n      swap2\n      swap1\n      0x00\n      mstore\n      keccak256(0x00, 0x20)\n      swap1\n    tag_450:\n      dup2\n      sload\n      dup2\n      mstore\n      swap1\n      0x01\n      add\n      swap1\n      0x20\n      add\n      dup1\n      dup4\n      gt\n      tag_450\n      jumpi\n      dup3\n      swap1\n      sub\n      0x1f\n      and\n      dup3\n      add\n      swap2\n    tag_448:\n      pop\n      pop\n      pop\n      pop\n      pop\n      dup2\n      mstore\n      0x20\n      add\n      0x03\n      dup3\n      add\n      dup1\n      sload\n      dup1\n      0x20\n      mul\n      0x20\n      add\n      mload(0x40)\n      swap1\n      dup2\n      add\n      0x40\n      mstore\n      dup1\n      swap3\n      swap2\n      swap1\n      dup2\n      dup2\n      mstore\n      0x20\n      add\n      0x00\n      swap1\n    tag_451:\n      dup3\n      dup3\n      lt\n      iszero\n      tag_452\n      jumpi\n      dup4\n      dup3\n      swap1\n      0x00\n      mstore\n      keccak256(0x00, 0x20)\n      add\n      dup1\n      sload\n      tag_454\n      swap1\n      tag_136\n      jump\t// in\n    tag_454:\n      dup1\n      0x1f\n      add\n      0x20\n      dup1\n      swap2\n      div\n      mul\n      0x20\n      add\n      mload(0x40)\n      swap1\n      dup2\n      add\n      0x40\n      mstore\n      dup1\n      swap3\n      swap2\n      swap1\n      dup2\n      dup2\n      mstore\n      0x20\n      add\n      dup3\n      dup1\n      sload\n      tag_455\n      swap1\n      tag_136\n      jump\t// in\n    tag_455:\n      dup1\n      iszero\n      tag_456\n      jumpi\n      dup1\n      0x1f\n      lt\n      tag_457\n      jumpi\n      0x0100\n      dup1\n      dup4\n      sload\n      div\n      mul\n      dup4\n      mstore\n      swap2\n      0x20\n      add\n      swap2\n      jump(tag_456)\n    tag_457:\n      dup3\n      add\n      swap2\n      swap1\n      0x00\n      mstore\n      keccak256(0x00, 0x20)\n      swap1\n    tag_458:\n      dup2\n      sload\n      dup2\n      mstore\n      swap1\n      0x01\n      add\n      swap1\n      0x20\n      add\n      dup1\n      dup4\n      gt\n      tag_458\n      jumpi\n      dup3\n      swap1\n      sub\n      0x1f\n      and\n      dup3\n      add\n      swap2\n    tag_456:\n      pop\n      pop\n      pop\n      pop\n      pop\n      dup2\n      mstore\n      0x20\n      add\n      swap1\n      0x01\n      add\n      swap1\n      jump(tag_451)\n    tag_452:\n      pop\n      pop\n      pop\n      pop\n      dup2\n      mstore\n      0x20\n      add\n      0x04\n      dup3\n      add\n      dup1\n      sload\n      dup1\n      0x20\n      mul\n      0x20\n      add\n      mload(0x40)\n      swap1\n      dup2\n      add\n      0x40\n      mstore\n      dup1\n      swap3\n      swap2\n      swap1\n      dup2\n      dup2\n      mstore\n      0x20\n      add\n      dup3\n      dup1\n      sload\n      dup1\n      iszero\n      tag_459\n      jumpi\n      0x20\n      mul\n      dup3\n      add\n      swap2\n      swap1\n      0x00\n      mstore\n      keccak256(0x00, 0x20)\n      swap1\n    tag_460:\n      dup2\n      sload\n      dup2\n      mstore\n      0x20\n      add\n      swap1\n      0x01\n      add\n      swap1\n      dup1\n      dup4\n      gt\n      tag_460\n      jumpi\n    tag_459:\n      pop\n      pop\n      pop\n      pop\n      pop\n      dup2\n      mstore\n      0x20\n      add\n      0x05\n      dup3\n      add\n      dup1\n      sload\n      dup1\n      0x20\n      mul\n      0x20\n      add\n      mload(0x40)\n      swap1\n      dup2\n      add\n      0x40\n      mstore\n      dup1\n      swap3\n      swap2\n      swap1\n      dup2\n      dup2\n      mstore\n      0x20\n      add\n      dup3\n      dup1\n      sload\n      dup1\n      iszero\n      tag_461\n      jumpi\n      0x20\n      mul\n      dup3\n      add\n      swap2\n      swap1\n      0x00\n      mstore\n      keccak256(0x00, 0x20)\n      swap1\n    tag_462:\n      dup2\n      sload\n      dup2\n      mstore\n      0x20\n      add\n      swap1\n      0x01\n      add\n      swap1\n      dup1\n      dup4\n      gt\n      tag_462\n      jumpi\n    tag_461:\n      pop\n      pop\n      pop\n      pop\n      pop\n      dup2\n      mstore\n      0x20\n      add\n      0x06\n      dup3\n      add\n      dup1\n      sload\n      dup1\n      0x20\n      mul\n      0x20\n      add\n      mload(0x40)\n      swap1\n      dup2\n      add\n      0x40\n      mstore\n      dup1\n      swap3\n      swap2\n      swap1\n      dup2\n      dup2\n      mstore\n      0x20\n      add\n      dup3\n      dup1\n      sload\n      dup1\n      iszero\n      tag_463\n      jumpi\n      0x20\n      mul\n      dup3\n      add\n      swap2\n      swap1\n      0x00\n      mstore\n      keccak256(0x00, 0x20)\n      swap1\n    tag_464:\n      dup2\n      sload\n      dup2\n      mstore\n      0x20\n      add\n      swap1\n      0x01\n      add\n      swap1\n      dup1\n      dup4\n      gt\n      tag_464\n      jumpi\n    tag_463:\n      pop\n      pop\n      pop\n      pop\n      pop\n      dup2\n      mstore\n      pop\n      pop\n      swap2\n      pop\n      pop\n        /* \"Contracts/Lending.sol\":4757:4931  function getUserByWorldCoin(string memory WCID) public view returns (User memory) {... */\n      swap2\n      swap1\n      pop\n      jump\t// out\n        /* \"Contracts/Lending.sol\":256:284  uint[] public allProductsIds */\n    tag_127:\n      0x03\n      dup2\n      dup2\n      sload\n      dup2\n      lt\n      tag_465\n      jumpi\n      0x00\n      dup1\n      revert\n    tag_465:\n      swap1\n      0x00\n      mstore\n      keccak256(0x00, 0x20)\n      add\n      0x00\n      swap2\n      pop\n      swap1\n      pop\n      sload\n      dup2\n      jump\t// out\n    tag_133:\n      mload(0x40)\n      dup1\n      0xe0\n      add\n      0x40\n      mstore\n      dup1\n      0x00\n      dup2\n      mstore\n      0x20\n      add\n      0x00\n      dup2\n      mstore\n      0x20\n      add\n      0x60\n      dup2\n      mstore\n      0x20\n      add\n      0x60\n      dup2\n      mstore\n      0x20\n      add\n      iszero(iszero(0x00))\n      dup2\n      mstore\n      0x20\n      add\n      iszero(iszero(0x00))\n      dup2\n      mstore\n      0x20\n      add\n      0x60\n      dup2\n      mstore\n      pop\n      swap1\n      jump\t// out\n    tag_168:\n      mload(0x40)\n      dup1\n      0xe0\n      add\n      0x40\n      mstore\n      dup1\n      0x60\n      dup2\n      mstore\n      0x20\n      add\n      0x60\n      dup2\n      mstore\n      0x20\n      add\n      0x60\n      dup2\n      mstore\n      0x20\n      add\n      0x60\n      dup2\n      mstore\n      0x20\n      add\n      0x60\n      dup2\n      mstore\n      0x20\n      add\n      0x60\n      dup2\n      mstore\n      0x20\n      add\n      0x60\n      dup2\n      mstore\n      pop\n      swap1\n      jump\t// out\n    tag_201:\n      mload(0x40)\n      dup1\n      0x0120\n      add\n      0x40\n      mstore\n      dup1\n      0x00\n      dup2\n      mstore\n      0x20\n      add\n      0x60\n      dup2\n      mstore\n      0x20\n      add\n      0x60\n      dup2\n      mstore\n      0x20\n      add\n      0x60\n      dup2\n      mstore\n      0x20\n      add\n      0x60\n      dup2\n      mstore\n      0x20\n      add\n      0x60\n      dup2\n      mstore\n      0x20\n      add\n      0x00\n      dup2\n      mstore\n      0x20\n      add\n      0x00\n      dup2\n      mstore\n      0x20\n      add\n      0x60\n      dup2\n      mstore\n      pop\n      swap1\n      jump\t// out\n    tag_251:\n      dup3\n      dup1\n      sload\n      dup3\n      dup3\n      sstore\n      swap1\n      0x00\n      mstore\n      keccak256(0x00, 0x20)\n      swap1\n      dup2\n      add\n      swap3\n      dup3\n      iszero\n      tag_467\n      jumpi\n      swap2\n      0x20\n      mul\n      dup3\n      add\n    tag_468:\n      dup3\n      dup2\n      gt\n      iszero\n      tag_469\n      jumpi\n      dup3\n      mload\n      dup3\n      swap1\n      dup2\n      tag_470\n      swap2\n      swap1\n      tag_157\n      jump\t// in\n    tag_470:\n      pop\n      swap2\n      0x20\n      add\n      swap2\n      swap1\n      0x01\n      add\n      swap1\n      jump(tag_468)\n    tag_469:\n    tag_467:\n      pop\n      swap1\n      pop\n      tag_471\n      swap2\n      swap1\n      tag_472\n      jump\t// in\n    tag_471:\n      pop\n      swap1\n      jump\t// out\n    tag_253:\n      dup3\n      dup1\n      sload\n      dup3\n      dup3\n      sstore\n      swap1\n      0x00\n      mstore\n      keccak256(0x00, 0x20)\n      swap1\n      dup2\n      add\n      swap3\n      dup3\n      iszero\n      tag_473\n      jumpi\n      swap2\n      0x20\n      mul\n      dup3\n      add\n    tag_474:\n      dup3\n      dup2\n      gt\n      iszero\n      tag_475\n      jumpi\n      dup3\n      mload\n      dup3\n      sstore\n      swap2\n      0x20\n      add\n      swap2\n      swap1\n      0x01\n      add\n      swap1\n      jump(tag_474)\n    tag_475:\n    tag_473:\n      pop\n      swap1\n      pop\n      tag_476\n      swap2\n      swap1\n      tag_477\n      jump\t// in\n    tag_476:\n      pop\n      swap1\n      jump\t// out\n    tag_472:\n    tag_478:\n      dup1\n      dup3\n      gt\n      iszero\n      tag_479\n      jumpi\n      0x00\n      dup2\n      dup2\n      tag_480\n      swap2\n      swap1\n      tag_481\n      jump\t// in\n    tag_480:\n      pop\n      0x01\n      add\n      jump(tag_478)\n    tag_479:\n      pop\n      swap1\n      jump\t// out\n    tag_477:\n    tag_482:\n      dup1\n      dup3\n      gt\n      iszero\n      tag_483\n      jumpi\n      0x00\n      dup2\n      0x00\n      swap1\n      sstore\n      pop\n      0x01\n      add\n      jump(tag_482)\n    tag_483:\n      pop\n      swap1\n      jump\t// out\n    tag_481:\n      pop\n      dup1\n      sload\n      tag_484\n      swap1\n      tag_136\n      jump\t// in\n    tag_484:\n      0x00\n      dup3\n      sstore\n      dup1\n      0x1f\n      lt\n      tag_486\n      jumpi\n      pop\n      jump(tag_485)\n    tag_486:\n      0x1f\n      add\n      0x20\n      swap1\n      div\n      swap1\n      0x00\n      mstore\n      keccak256(0x00, 0x20)\n      swap1\n      dup2\n      add\n      swap1\n      tag_487\n      swap2\n      swap1\n      tag_477\n      jump\t// in\n    tag_487:\n    tag_485:\n      pop\n      jump\t// out\n        /* \"#utility.yul\":7:121   */\n    tag_488:\n        /* \"#utility.yul\":74:80   */\n      0x00\n        /* \"#utility.yul\":108:113   */\n      dup2\n        /* \"#utility.yul\":102:114   */\n      mload\n        /* \"#utility.yul\":92:114   */\n      swap1\n      pop\n        /* \"#utility.yul\":7:121   */\n      swap2\n      swap1\n      pop\n      jump\t// out\n        /* \"#utility.yul\":127:311   */\n    tag_489:\n        /* \"#utility.yul\":226:237   */\n      0x00\n        /* \"#utility.yul\":260:266   */\n      dup3\n        /* \"#utility.yul\":255:258   */\n      dup3\n        /* \"#utility.yul\":248:267   */\n      mstore\n        /* \"#utility.yul\":300:304   */\n      0x20\n        /* \"#utility.yul\":295:298   */\n      dup3\n        /* \"#utility.yul\":291:305   */\n      add\n        /* \"#utility.yul\":276:305   */\n      swap1\n      pop\n        /* \"#utility.yul\":127:311   */\n      swap3\n      swap2\n      pop\n      pop\n      jump\t// out\n        /* \"#utility.yul\":317:449   */\n    tag_490:\n        /* \"#utility.yul\":384:388   */\n      0x00\n        /* \"#utility.yul\":407:410   */\n      dup2\n        /* \"#utility.yul\":399:410   */\n      swap1\n      pop\n        /* \"#utility.yul\":437:441   */\n      0x20\n        /* \"#utility.yul\":432:435   */\n      dup3\n        /* \"#utility.yul\":428:442   */\n      add\n        /* \"#utility.yul\":420:442   */\n      swap1\n      pop\n        /* \"#utility.yul\":317:449   */\n      swap2\n      swap1\n      pop\n      jump\t// out\n        /* \"#utility.yul\":455:532   */\n    tag_491:\n        /* \"#utility.yul\":492:499   */\n      0x00\n        /* \"#utility.yul\":521:526   */\n      dup2\n        /* \"#utility.yul\":510:526   */\n      swap1\n      pop\n        /* \"#utility.yul\":455:532   */\n      swap2\n      swap1\n      pop\n      jump\t// out\n        /* \"#utility.yul\":538:646   */\n    tag_492:\n        /* \"#utility.yul\":615:639   */\n      tag_567\n        /* \"#utility.yul\":633:638   */\n      dup2\n        /* \"#utility.yul\":615:639   */\n      tag_491\n      jump\t// in\n    tag_567:\n        /* \"#utility.yul\":610:613   */\n      dup3\n        /* \"#utility.yul\":603:640   */\n      mstore\n        /* \"#utility.yul\":538:646   */\n      pop\n      pop\n      jump\t// out\n        /* \"#utility.yul\":652:831   */\n    tag_493:\n        /* \"#utility.yul\":721:731   */\n      0x00\n        /* \"#utility.yul\":742:788   */\n      tag_569\n        /* \"#utility.yul\":784:787   */\n      dup4\n        /* \"#utility.yul\":776:782   */\n      dup4\n        /* \"#utility.yul\":742:788   */\n      tag_492\n      jump\t// in\n    tag_569:\n        /* \"#utility.yul\":820:824   */\n      0x20\n        /* \"#utility.yul\":815:818   */\n      dup4\n        /* \"#utility.yul\":811:825   */\n      add\n        /* \"#utility.yul\":797:825   */\n      swap1\n      pop\n        /* \"#utility.yul\":652:831   */\n      swap3\n      swap2\n      pop\n      pop\n      jump\t// out\n        /* \"#utility.yul\":837:950   */\n    tag_494:\n        /* \"#utility.yul\":907:911   */\n      0x00\n        /* \"#utility.yul\":939:943   */\n      0x20\n        /* \"#utility.yul\":934:937   */\n      dup3\n        /* \"#utility.yul\":930:944   */\n      add\n        /* \"#utility.yul\":922:944   */\n      swap1\n      pop\n        /* \"#utility.yul\":837:950   */\n      swap2\n      swap1\n      pop\n      jump\t// out\n        /* \"#utility.yul\":986:1718   */\n    tag_495:\n        /* \"#utility.yul\":1105:1108   */\n      0x00\n        /* \"#utility.yul\":1134:1188   */\n      tag_572\n        /* \"#utility.yul\":1182:1187   */\n      dup3\n        /* \"#utility.yul\":1134:1188   */\n      tag_488\n      jump\t// in\n    tag_572:\n        /* \"#utility.yul\":1204:1290   */\n      tag_573\n        /* \"#utility.yul\":1283:1289   */\n      dup2\n        /* \"#utility.yul\":1278:1281   */\n      dup6\n        /* \"#utility.yul\":1204:1290   */\n      tag_489\n      jump\t// in\n    tag_573:\n        /* \"#utility.yul\":1197:1290   */\n      swap4\n      pop\n        /* \"#utility.yul\":1314:1370   */\n      tag_574\n        /* \"#utility.yul\":1364:1369   */\n      dup4\n        /* \"#utility.yul\":1314:1370   */\n      tag_490\n      jump\t// in\n    tag_574:\n        /* \"#utility.yul\":1393:1400   */\n      dup1\n        /* \"#utility.yul\":1424:1425   */\n      0x00\n        /* \"#utility.yul\":1409:1693   */\n    tag_575:\n        /* \"#utility.yul\":1434:1440   */\n      dup4\n        /* \"#utility.yul\":1431:1432   */\n      dup2\n        /* \"#utility.yul\":1428:1441   */\n      lt\n        /* \"#utility.yul\":1409:1693   */\n      iszero\n      tag_577\n      jumpi\n        /* \"#utility.yul\":1510:1516   */\n      dup2\n        /* \"#utility.yul\":1504:1517   */\n      mload\n        /* \"#utility.yul\":1537:1600   */\n      tag_578\n        /* \"#utility.yul\":1596:1599   */\n      dup9\n        /* \"#utility.yul\":1581:1594   */\n      dup3\n        /* \"#utility.yul\":1537:1600   */\n      tag_493\n      jump\t// in\n    tag_578:\n        /* \"#utility.yul\":1530:1600   */\n      swap8\n      pop\n        /* \"#utility.yul\":1623:1683   */\n      tag_579\n        /* \"#utility.yul\":1676:1682   */\n      dup4\n        /* \"#utility.yul\":1623:1683   */\n      tag_494\n      jump\t// in\n    tag_579:\n        /* \"#utility.yul\":1613:1683   */\n      swap3\n      pop\n        /* \"#utility.yul\":1469:1693   */\n      pop\n        /* \"#utility.yul\":1456:1457   */\n      0x01\n        /* \"#utility.yul\":1453:1454   */\n      dup2\n        /* \"#utility.yul\":1449:1458   */\n      add\n        /* \"#utility.yul\":1444:1458   */\n      swap1\n      pop\n        /* \"#utility.yul\":1409:1693   */\n      jump(tag_575)\n    tag_577:\n        /* \"#utility.yul\":1413:1427   */\n      pop\n        /* \"#utility.yul\":1709:1712   */\n      dup6\n        /* \"#utility.yul\":1702:1712   */\n      swap4\n      pop\n        /* \"#utility.yul\":1110:1718   */\n      pop\n      pop\n      pop\n        /* \"#utility.yul\":986:1718   */\n      swap3\n      swap2\n      pop\n      pop\n      jump\t// out\n        /* \"#utility.yul\":1724:2097   */\n    tag_33:\n        /* \"#utility.yul\":1867:1871   */\n      0x00\n        /* \"#utility.yul\":1905:1907   */\n      0x20\n        /* \"#utility.yul\":1894:1903   */\n      dup3\n        /* \"#utility.yul\":1890:1908   */\n      add\n        /* \"#utility.yul\":1882:1908   */\n      swap1\n      pop\n        /* \"#utility.yul\":1954:1963   */\n      dup2\n        /* \"#utility.yul\":1948:1952   */\n      dup2\n        /* \"#utility.yul\":1944:1964   */\n      sub\n        /* \"#utility.yul\":1940:1941   */\n      0x00\n        /* \"#utility.yul\":1929:1938   */\n      dup4\n        /* \"#utility.yul\":1925:1942   */\n      add\n        /* \"#utility.yul\":1918:1965   */\n      mstore\n        /* \"#utility.yul\":1982:2090   */\n      tag_581\n        /* \"#utility.yul\":2085:2089   */\n      dup2\n        /* \"#utility.yul\":2076:2082   */\n      dup5\n        /* \"#utility.yul\":1982:2090   */\n      tag_495\n      jump\t// in\n    tag_581:\n        /* \"#utility.yul\":1974:2090   */\n      swap1\n      pop\n        /* \"#utility.yul\":1724:2097   */\n      swap3\n      swap2\n      pop\n      pop\n      jump\t// out\n        /* \"#utility.yul\":2103:2178   */\n    tag_496:\n        /* \"#utility.yul\":2136:2142   */\n      0x00\n        /* \"#utility.yul\":2169:2171   */\n      0x40\n        /* \"#utility.yul\":2163:2172   */\n      mload\n        /* \"#utility.yul\":2153:2172   */\n      swap1\n      pop\n        /* \"#utility.yul\":2103:2178   */\n      swap1\n      jump\t// out\n        /* \"#utility.yul\":2184:2301   */\n    tag_497:\n        /* \"#utility.yul\":2293:2294   */\n      0x00\n        /* \"#utility.yul\":2290:2291   */\n      dup1\n        /* \"#utility.yul\":2283:2295   */\n      revert\n        /* \"#utility.yul\":2307:2424   */\n    tag_498:\n        /* \"#utility.yul\":2416:2417   */\n      0x00\n        /* \"#utility.yul\":2413:2414   */\n      dup1\n        /* \"#utility.yul\":2406:2418   */\n      revert\n        /* \"#utility.yul\":2430:2552   */\n    tag_499:\n        /* \"#utility.yul\":2503:2527   */\n      tag_586\n        /* \"#utility.yul\":2521:2526   */\n      dup2\n        /* \"#utility.yul\":2503:2527   */\n      tag_491\n      jump\t// in\n    tag_586:\n        /* \"#utility.yul\":2496:2501   */\n      dup2\n        /* \"#utility.yul\":2493:2528   */\n      eq\n        /* \"#utility.yul\":2483:2546   */\n      tag_587\n      jumpi\n        /* \"#utility.yul\":2542:2543   */\n      0x00\n        /* \"#utility.yul\":2539:2540   */\n      dup1\n        /* \"#utility.yul\":2532:2544   */\n      revert\n        /* \"#utility.yul\":2483:2546   */\n    tag_587:\n        /* \"#utility.yul\":2430:2552   */\n      pop\n      jump\t// out\n        /* \"#utility.yul\":2558:2697   */\n    tag_500:\n        /* \"#utility.yul\":2604:2609   */\n      0x00\n        /* \"#utility.yul\":2642:2648   */\n      dup2\n        /* \"#utility.yul\":2629:2649   */\n      calldataload\n        /* \"#utility.yul\":2620:2649   */\n      swap1\n      pop\n        /* \"#utility.yul\":2658:2691   */\n      tag_589\n        /* \"#utility.yul\":2685:2690   */\n      dup2\n        /* \"#utility.yul\":2658:2691   */\n      tag_499\n      jump\t// in\n    tag_589:\n        /* \"#utility.yul\":2558:2697   */\n      swap3\n      swap2\n      pop\n      pop\n      jump\t// out\n        /* \"#utility.yul\":2703:3032   */\n    tag_36:\n        /* \"#utility.yul\":2762:2768   */\n      0x00\n        /* \"#utility.yul\":2811:2813   */\n      0x20\n        /* \"#utility.yul\":2799:2808   */\n      dup3\n        /* \"#utility.yul\":2790:2797   */\n      dup5\n        /* \"#utility.yul\":2786:2809   */\n      sub\n        /* \"#utility.yul\":2782:2814   */\n      slt\n        /* \"#utility.yul\":2779:2898   */\n      iszero\n      tag_591\n      jumpi\n        /* \"#utility.yul\":2817:2896   */\n      tag_592\n      tag_497\n      jump\t// in\n    tag_592:\n        /* \"#utility.yul\":2779:2898   */\n    tag_591:\n        /* \"#utility.yul\":2937:2938   */\n      0x00\n        /* \"#utility.yul\":2962:3015   */\n      tag_593\n        /* \"#utility.yul\":3007:3014   */\n      dup5\n        /* \"#utility.yul\":2998:3004   */\n      dup3\n        /* \"#utility.yul\":2987:2996   */\n      dup6\n        /* \"#utility.yul\":2983:3005   */\n      add\n        /* \"#utility.yul\":2962:3015   */\n      tag_500\n      jump\t// in\n    tag_593:\n        /* \"#utility.yul\":2952:3015   */\n      swap2\n      pop\n        /* \"#utility.yul\":2908:3025   */\n      pop\n        /* \"#utility.yul\":2703:3032   */\n      swap3\n      swap2\n      pop\n      pop\n      jump\t// out\n        /* \"#utility.yul\":3038:3137   */\n    tag_501:\n        /* \"#utility.yul\":3090:3096   */\n      0x00\n        /* \"#utility.yul\":3124:3129   */\n      dup2\n        /* \"#utility.yul\":3118:3130   */\n      mload\n        /* \"#utility.yul\":3108:3130   */\n      swap1\n      pop\n        /* \"#utility.yul\":3038:3137   */\n      swap2\n      swap1\n      pop\n      jump\t// out\n        /* \"#utility.yul\":3143:3302   */\n    tag_502:\n        /* \"#utility.yul\":3217:3228   */\n      0x00\n        /* \"#utility.yul\":3251:3257   */\n      dup3\n        /* \"#utility.yul\":3246:3249   */\n      dup3\n        /* \"#utility.yul\":3239:3258   */\n      mstore\n        /* \"#utility.yul\":3291:3295   */\n      0x20\n        /* \"#utility.yul\":3286:3289   */\n      dup3\n        /* \"#utility.yul\":3282:3296   */\n      add\n        /* \"#utility.yul\":3267:3296   */\n      swap1\n      pop\n        /* \"#utility.yul\":3143:3302   */\n      swap3\n      swap2\n      pop\n      pop\n      jump\t// out\n        /* \"#utility.yul\":3308:3554   */\n    tag_503:\n        /* \"#utility.yul\":3389:3390   */\n      0x00\n        /* \"#utility.yul\":3399:3512   */\n    tag_597:\n        /* \"#utility.yul\":3413:3419   */\n      dup4\n        /* \"#utility.yul\":3410:3411   */\n      dup2\n        /* \"#utility.yul\":3407:3420   */\n      lt\n        /* \"#utility.yul\":3399:3512   */\n      iszero\n      tag_599\n      jumpi\n        /* \"#utility.yul\":3498:3499   */\n      dup1\n        /* \"#utility.yul\":3493:3496   */\n      dup3\n        /* \"#utility.yul\":3489:3500   */\n      add\n        /* \"#utility.yul\":3483:3501   */\n      mload\n        /* \"#utility.yul\":3479:3480   */\n      dup2\n        /* \"#utility.yul\":3474:3477   */\n      dup5\n        /* \"#utility.yul\":3470:3481   */\n      add\n        /* \"#utility.yul\":3463:3502   */\n      mstore\n        /* \"#utility.yul\":3435:3437   */\n      0x20\n        /* \"#utility.yul\":3432:3433   */\n      dup2\n        /* \"#utility.yul\":3428:3438   */\n      add\n        /* \"#utility.yul\":3423:3438   */\n      swap1\n      pop\n        /* \"#utility.yul\":3399:3512   */\n      jump(tag_597)\n    tag_599:\n        /* \"#utility.yul\":3546:3547   */\n      0x00\n        /* \"#utility.yul\":3537:3543   */\n      dup5\n        /* \"#utility.yul\":3532:3535   */\n      dup5\n        /* \"#utility.yul\":3528:3544   */\n      add\n        /* \"#utility.yul\":3521:3548   */\n      mstore\n        /* \"#utility.yul\":3370:3554   */\n      pop\n        /* \"#utility.yul\":3308:3554   */\n      pop\n      pop\n      pop\n      jump\t// out\n        /* \"#utility.yul\":3560:3662   */\n    tag_504:\n        /* \"#utility.yul\":3601:3607   */\n      0x00\n        /* \"#utility.yul\":3652:3654   */\n      0x1f\n        /* \"#utility.yul\":3648:3655   */\n      not\n        /* \"#utility.yul\":3643:3645   */\n      0x1f\n        /* \"#utility.yul\":3636:3641   */\n      dup4\n        /* \"#utility.yul\":3632:3646   */\n      add\n        /* \"#utility.yul\":3628:3656   */\n      and\n        /* \"#utility.yul\":3618:3656   */\n      swap1\n      pop\n        /* \"#utility.yul\":3560:3662   */\n      swap2\n      swap1\n      pop\n      jump\t// out\n        /* \"#utility.yul\":3668:4025   */\n    tag_505:\n        /* \"#utility.yul\":3746:3749   */\n      0x00\n        /* \"#utility.yul\":3774:3813   */\n      tag_602\n        /* \"#utility.yul\":3807:3812   */\n      dup3\n        /* \"#utility.yul\":3774:3813   */\n      tag_501\n      jump\t// in\n    tag_602:\n        /* \"#utility.yul\":3829:3890   */\n      tag_603\n        /* \"#utility.yul\":3883:3889   */\n      dup2\n        /* \"#utility.yul\":3878:3881   */\n      dup6\n        /* \"#utility.yul\":3829:3890   */\n      tag_502\n      jump\t// in\n    tag_603:\n        /* \"#utility.yul\":3822:3890   */\n      swap4\n      pop\n        /* \"#utility.yul\":3899:3964   */\n      tag_604\n        /* \"#utility.yul\":3957:3963   */\n      dup2\n        /* \"#utility.yul\":3952:3955   */\n      dup6\n        /* \"#utility.yul\":3945:3949   */\n      0x20\n        /* \"#utility.yul\":3938:3943   */\n      dup7\n        /* \"#utility.yul\":3934:3950   */\n      add\n        /* \"#utility.yul\":3899:3964   */\n      tag_503\n      jump\t// in\n    tag_604:\n        /* \"#utility.yul\":3989:4018   */\n      tag_605\n        /* \"#utility.yul\":4011:4017   */\n      dup2\n        /* \"#utility.yul\":3989:4018   */\n      tag_504\n      jump\t// in\n    tag_605:\n        /* \"#utility.yul\":3984:3987   */\n      dup5\n        /* \"#utility.yul\":3980:4019   */\n      add\n        /* \"#utility.yul\":3973:4019   */\n      swap2\n      pop\n        /* \"#utility.yul\":3750:4025   */\n      pop\n        /* \"#utility.yul\":3668:4025   */\n      swap3\n      swap2\n      pop\n      pop\n      jump\t// out\n        /* \"#utility.yul\":4031:4121   */\n    tag_506:\n        /* \"#utility.yul\":4065:4072   */\n      0x00\n        /* \"#utility.yul\":4108:4113   */\n      dup2\n        /* \"#utility.yul\":4101:4114   */\n      iszero\n        /* \"#utility.yul\":4094:4115   */\n      iszero\n        /* \"#utility.yul\":4083:4115   */\n      swap1\n      pop\n        /* \"#utility.yul\":4031:4121   */\n      swap2\n      swap1\n      pop\n      jump\t// out\n        /* \"#utility.yul\":4127:4226   */\n    tag_507:\n        /* \"#utility.yul\":4198:4219   */\n      tag_608\n        /* \"#utility.yul\":4213:4218   */\n      dup2\n        /* \"#utility.yul\":4198:4219   */\n      tag_506\n      jump\t// in\n    tag_608:\n        /* \"#utility.yul\":4193:4196   */\n      dup3\n        /* \"#utility.yul\":4186:4220   */\n      mstore\n        /* \"#utility.yul\":4127:4226   */\n      pop\n      pop\n      jump\t// out\n        /* \"#utility.yul\":4282:5903   */\n    tag_508:\n        /* \"#utility.yul\":4391:4394   */\n      0x00\n        /* \"#utility.yul\":4427:4431   */\n      0xe0\n        /* \"#utility.yul\":4422:4425   */\n      dup4\n        /* \"#utility.yul\":4418:4432   */\n      add\n        /* \"#utility.yul\":4512:4516   */\n      0x00\n        /* \"#utility.yul\":4505:4510   */\n      dup4\n        /* \"#utility.yul\":4501:4517   */\n      add\n        /* \"#utility.yul\":4495:4518   */\n      mload\n        /* \"#utility.yul\":4531:4594   */\n      tag_610\n        /* \"#utility.yul\":4588:4592   */\n      0x00\n        /* \"#utility.yul\":4583:4586   */\n      dup7\n        /* \"#utility.yul\":4579:4593   */\n      add\n        /* \"#utility.yul\":4565:4577   */\n      dup3\n        /* \"#utility.yul\":4531:4594   */\n      tag_492\n      jump\t// in\n    tag_610:\n        /* \"#utility.yul\":4442:4604   */\n      pop\n        /* \"#utility.yul\":4691:4695   */\n      0x20\n        /* \"#utility.yul\":4684:4689   */\n      dup4\n        /* \"#utility.yul\":4680:4696   */\n      add\n        /* \"#utility.yul\":4674:4697   */\n      mload\n        /* \"#utility.yul\":4710:4773   */\n      tag_611\n        /* \"#utility.yul\":4767:4771   */\n      0x20\n        /* \"#utility.yul\":4762:4765   */\n      dup7\n        /* \"#utility.yul\":4758:4772   */\n      add\n        /* \"#utility.yul\":4744:4756   */\n      dup3\n        /* \"#utility.yul\":4710:4773   */\n      tag_492\n      jump\t// in\n    tag_611:\n        /* \"#utility.yul\":4614:4783   */\n      pop\n        /* \"#utility.yul\":4866:4870   */\n      0x40\n        /* \"#utility.yul\":4859:4864   */\n      dup4\n        /* \"#utility.yul\":4855:4871   */\n      add\n        /* \"#utility.yul\":4849:4872   */\n      mload\n        /* \"#utility.yul\":4919:4922   */\n      dup5\n        /* \"#utility.yul\":4913:4917   */\n      dup3\n        /* \"#utility.yul\":4909:4923   */\n      sub\n        /* \"#utility.yul\":4902:4906   */\n      0x40\n        /* \"#utility.yul\":4897:4900   */\n      dup7\n        /* \"#utility.yul\":4893:4907   */\n      add\n        /* \"#utility.yul\":4886:4924   */\n      mstore\n        /* \"#utility.yul\":4945:5018   */\n      tag_612\n        /* \"#utility.yul\":5013:5017   */\n      dup3\n        /* \"#utility.yul\":4999:5011   */\n      dup3\n        /* \"#utility.yul\":4945:5018   */\n      tag_505\n      jump\t// in\n    tag_612:\n        /* \"#utility.yul\":4937:5018   */\n      swap2\n      pop\n        /* \"#utility.yul\":4793:5029   */\n      pop\n        /* \"#utility.yul\":5115:5119   */\n      0x60\n        /* \"#utility.yul\":5108:5113   */\n      dup4\n        /* \"#utility.yul\":5104:5120   */\n      add\n        /* \"#utility.yul\":5098:5121   */\n      mload\n        /* \"#utility.yul\":5168:5171   */\n      dup5\n        /* \"#utility.yul\":5162:5166   */\n      dup3\n        /* \"#utility.yul\":5158:5172   */\n      sub\n        /* \"#utility.yul\":5151:5155   */\n      0x60\n        /* \"#utility.yul\":5146:5149   */\n      dup7\n        /* \"#utility.yul\":5142:5156   */\n      add\n        /* \"#utility.yul\":5135:5173   */\n      mstore\n        /* \"#utility.yul\":5194:5267   */\n      tag_613\n        /* \"#utility.yul\":5262:5266   */\n      dup3\n        /* \"#utility.yul\":5248:5260   */\n      dup3\n        /* \"#utility.yul\":5194:5267   */\n      tag_505\n      jump\t// in\n    tag_613:\n        /* \"#utility.yul\":5186:5267   */\n      swap2\n      pop\n        /* \"#utility.yul\":5039:5278   */\n      pop\n        /* \"#utility.yul\":5366:5370   */\n      0x80\n        /* \"#utility.yul\":5359:5364   */\n      dup4\n        /* \"#utility.yul\":5355:5371   */\n      add\n        /* \"#utility.yul\":5349:5372   */\n      mload\n        /* \"#utility.yul\":5385:5442   */\n      tag_614\n        /* \"#utility.yul\":5436:5440   */\n      0x80\n        /* \"#utility.yul\":5431:5434   */\n      dup7\n        /* \"#utility.yul\":5427:5441   */\n      add\n        /* \"#utility.yul\":5413:5425   */\n      dup3\n        /* \"#utility.yul\":5385:5442   */\n      tag_507\n      jump\t// in\n    tag_614:\n        /* \"#utility.yul\":5288:5452   */\n      pop\n        /* \"#utility.yul\":5540:5544   */\n      0xa0\n        /* \"#utility.yul\":5533:5538   */\n      dup4\n        /* \"#utility.yul\":5529:5545   */\n      add\n        /* \"#utility.yul\":5523:5546   */\n      mload\n        /* \"#utility.yul\":5559:5616   */\n      tag_615\n        /* \"#utility.yul\":5610:5614   */\n      0xa0\n        /* \"#utility.yul\":5605:5608   */\n      dup7\n        /* \"#utility.yul\":5601:5615   */\n      add\n        /* \"#utility.yul\":5587:5599   */\n      dup3\n        /* \"#utility.yul\":5559:5616   */\n      tag_507\n      jump\t// in\n    tag_615:\n        /* \"#utility.yul\":5462:5626   */\n      pop\n        /* \"#utility.yul\":5713:5717   */\n      0xc0\n        /* \"#utility.yul\":5706:5711   */\n      dup4\n        /* \"#utility.yul\":5702:5718   */\n      add\n        /* \"#utility.yul\":5696:5719   */\n      mload\n        /* \"#utility.yul\":5766:5769   */\n      dup5\n        /* \"#utility.yul\":5760:5764   */\n      dup3\n        /* \"#utility.yul\":5756:5770   */\n      sub\n        /* \"#utility.yul\":5749:5753   */\n      0xc0\n        /* \"#utility.yul\":5744:5747   */\n      dup7\n        /* \"#utility.yul\":5740:5754   */\n      add\n        /* \"#utility.yul\":5733:5771   */\n      mstore\n        /* \"#utility.yul\":5792:5865   */\n      tag_616\n        /* \"#utility.yul\":5860:5864   */\n      dup3\n        /* \"#utility.yul\":5846:5858   */\n      dup3\n        /* \"#utility.yul\":5792:5865   */\n      tag_505\n      jump\t// in\n    tag_616:\n        /* \"#utility.yul\":5784:5865   */\n      swap2\n      pop\n        /* \"#utility.yul\":5636:5876   */\n      pop\n        /* \"#utility.yul\":5893:5897   */\n      dup1\n        /* \"#utility.yul\":5886:5897   */\n      swap2\n      pop\n        /* \"#utility.yul\":4396:5903   */\n      pop\n        /* \"#utility.yul\":4282:5903   */\n      swap3\n      swap2\n      pop\n      pop\n      jump\t// out\n        /* \"#utility.yul\":5909:6262   */\n    tag_39:\n        /* \"#utility.yul\":6042:6046   */\n      0x00\n        /* \"#utility.yul\":6080:6082   */\n      0x20\n        /* \"#utility.yul\":6069:6078   */\n      dup3\n        /* \"#utility.yul\":6065:6083   */\n      add\n        /* \"#utility.yul\":6057:6083   */\n      swap1\n      pop\n        /* \"#utility.yul\":6129:6138   */\n      dup2\n        /* \"#utility.yul\":6123:6127   */\n      dup2\n        /* \"#utility.yul\":6119:6139   */\n      sub\n        /* \"#utility.yul\":6115:6116   */\n      0x00\n        /* \"#utility.yul\":6104:6113   */\n      dup4\n        /* \"#utility.yul\":6100:6117   */\n      add\n        /* \"#utility.yul\":6093:6140   */\n      mstore\n        /* \"#utility.yul\":6157:6255   */\n      tag_618\n        /* \"#utility.yul\":6250:6254   */\n      dup2\n        /* \"#utility.yul\":6241:6247   */\n      dup5\n        /* \"#utility.yul\":6157:6255   */\n      tag_508\n      jump\t// in\n    tag_618:\n        /* \"#utility.yul\":6149:6255   */\n      swap1\n      pop\n        /* \"#utility.yul\":5909:6262   */\n      swap3\n      swap2\n      pop\n      pop\n      jump\t// out\n        /* \"#utility.yul\":6268:6386   */\n    tag_509:\n        /* \"#utility.yul\":6355:6379   */\n      tag_620\n        /* \"#utility.yul\":6373:6378   */\n      dup2\n        /* \"#utility.yul\":6355:6379   */\n      tag_491\n      jump\t// in\n    tag_620:\n        /* \"#utility.yul\":6350:6353   */\n      dup3\n        /* \"#utility.yul\":6343:6380   */\n      mstore\n        /* \"#utility.yul\":6268:6386   */\n      pop\n      pop\n      jump\t// out\n        /* \"#utility.yul\":6392:6614   */\n    tag_44:\n        /* \"#utility.yul\":6485:6489   */\n      0x00\n        /* \"#utility.yul\":6523:6525   */\n      0x20\n        /* \"#utility.yul\":6512:6521   */\n      dup3\n        /* \"#utility.yul\":6508:6526   */\n      add\n        /* \"#utility.yul\":6500:6526   */\n      swap1\n      pop\n        /* \"#utility.yul\":6536:6607   */\n      tag_622\n        /* \"#utility.yul\":6604:6605   */\n      0x00\n        /* \"#utility.yul\":6593:6602   */\n      dup4\n        /* \"#utility.yul\":6589:6606   */\n      add\n        /* \"#utility.yul\":6580:6586   */\n      dup5\n        /* \"#utility.yul\":6536:6607   */\n      tag_509\n      jump\t// in\n    tag_622:\n        /* \"#utility.yul\":6392:6614   */\n      swap3\n      swap2\n      pop\n      pop\n      jump\t// out\n        /* \"#utility.yul\":6620:6737   */\n    tag_510:\n        /* \"#utility.yul\":6729:6730   */\n      0x00\n        /* \"#utility.yul\":6726:6727   */\n      dup1\n        /* \"#utility.yul\":6719:6731   */\n      revert\n        /* \"#utility.yul\":6743:6860   */\n    tag_511:\n        /* \"#utility.yul\":6852:6853   */\n      0x00\n        /* \"#utility.yul\":6849:6850   */\n      dup1\n        /* \"#utility.yul\":6842:6854   */\n      revert\n        /* \"#utility.yul\":6866:7046   */\n    tag_512:\n        /* \"#utility.yul\":6914:6991   */\n      0x4e487b7100000000000000000000000000000000000000000000000000000000\n        /* \"#utility.yul\":6911:6912   */\n      0x00\n        /* \"#utility.yul\":6904:6992   */\n      mstore\n        /* \"#utility.yul\":7011:7015   */\n      0x41\n        /* \"#utility.yul\":7008:7009   */\n      0x04\n        /* \"#utility.yul\":7001:7016   */\n      mstore\n        /* \"#utility.yul\":7035:7039   */\n      0x24\n        /* \"#utility.yul\":7032:7033   */\n      0x00\n        /* \"#utility.yul\":7025:7040   */\n      revert\n        /* \"#utility.yul\":7052:7333   */\n    tag_513:\n        /* \"#utility.yul\":7135:7162   */\n      tag_627\n        /* \"#utility.yul\":7157:7161   */\n      dup3\n        /* \"#utility.yul\":7135:7162   */\n      tag_504\n      jump\t// in\n    tag_627:\n        /* \"#utility.yul\":7127:7133   */\n      dup2\n        /* \"#utility.yul\":7123:7163   */\n      add\n        /* \"#utility.yul\":7265:7271   */\n      dup2\n        /* \"#utility.yul\":7253:7263   */\n      dup2\n        /* \"#utility.yul\":7250:7272   */\n      lt\n        /* \"#utility.yul\":7229:7247   */\n      0xffffffffffffffff\n        /* \"#utility.yul\":7217:7227   */\n      dup3\n        /* \"#utility.yul\":7214:7248   */\n      gt\n        /* \"#utility.yul\":7211:7273   */\n      or\n        /* \"#utility.yul\":7208:7296   */\n      iszero\n      tag_628\n      jumpi\n        /* \"#utility.yul\":7276:7294   */\n      tag_629\n      tag_512\n      jump\t// in\n    tag_629:\n        /* \"#utility.yul\":7208:7296   */\n    tag_628:\n        /* \"#utility.yul\":7316:7326   */\n      dup1\n        /* \"#utility.yul\":7312:7314   */\n      0x40\n        /* \"#utility.yul\":7305:7327   */\n      mstore\n        /* \"#utility.yul\":7095:7333   */\n      pop\n        /* \"#utility.yul\":7052:7333   */\n      pop\n      pop\n      jump\t// out\n        /* \"#utility.yul\":7339:7468   */\n    tag_514:\n        /* \"#utility.yul\":7373:7379   */\n      0x00\n        /* \"#utility.yul\":7400:7420   */\n      tag_631\n      tag_496\n      jump\t// in\n    tag_631:\n        /* \"#utility.yul\":7390:7420   */\n      swap1\n      pop\n        /* \"#utility.yul\":7429:7462   */\n      tag_632\n        /* \"#utility.yul\":7457:7461   */\n      dup3\n        /* \"#utility.yul\":7449:7455   */\n      dup3\n        /* \"#utility.yul\":7429:7462   */\n      tag_513\n      jump\t// in\n    tag_632:\n        /* \"#utility.yul\":7339:7468   */\n      swap2\n      swap1\n      pop\n      jump\t// out\n        /* \"#utility.yul\":7474:7782   */\n    tag_515:\n        /* \"#utility.yul\":7536:7540   */\n      0x00\n        /* \"#utility.yul\":7626:7644   */\n      0xffffffffffffffff\n        /* \"#utility.yul\":7618:7624   */\n      dup3\n        /* \"#utility.yul\":7615:7645   */\n      gt\n        /* \"#utility.yul\":7612:7668   */\n      iszero\n      tag_634\n      jumpi\n        /* \"#utility.yul\":7648:7666   */\n      tag_635\n      tag_512\n      jump\t// in\n    tag_635:\n        /* \"#utility.yul\":7612:7668   */\n    tag_634:\n        /* \"#utility.yul\":7686:7715   */\n      tag_636\n        /* \"#utility.yul\":7708:7714   */\n      dup3\n        /* \"#utility.yul\":7686:7715   */\n      tag_504\n      jump\t// in\n    tag_636:\n        /* \"#utility.yul\":7678:7715   */\n      swap1\n      pop\n        /* \"#utility.yul\":7770:7774   */\n      0x20\n        /* \"#utility.yul\":7764:7768   */\n      dup2\n        /* \"#utility.yul\":7760:7775   */\n      add\n        /* \"#utility.yul\":7752:7775   */\n      swap1\n      pop\n        /* \"#utility.yul\":7474:7782   */\n      swap2\n      swap1\n      pop\n      jump\t// out\n        /* \"#utility.yul\":7788:7934   */\n    tag_516:\n        /* \"#utility.yul\":7885:7891   */\n      dup3\n        /* \"#utility.yul\":7880:7883   */\n      dup2\n        /* \"#utility.yul\":7875:7878   */\n      dup4\n        /* \"#utility.yul\":7862:7892   */\n      calldatacopy\n        /* \"#utility.yul\":7926:7927   */\n      0x00\n        /* \"#utility.yul\":7917:7923   */\n      dup4\n        /* \"#utility.yul\":7912:7915   */\n      dup4\n        /* \"#utility.yul\":7908:7924   */\n      add\n        /* \"#utility.yul\":7901:7928   */\n      mstore\n        /* \"#utility.yul\":7788:7934   */\n      pop\n      pop\n      pop\n      jump\t// out\n        /* \"#utility.yul\":7940:8365   */\n    tag_517:\n        /* \"#utility.yul\":8018:8023   */\n      0x00\n        /* \"#utility.yul\":8043:8109   */\n      tag_639\n        /* \"#utility.yul\":8059:8108   */\n      tag_640\n        /* \"#utility.yul\":8101:8107   */\n      dup5\n        /* \"#utility.yul\":8059:8108   */\n      tag_515\n      jump\t// in\n    tag_640:\n        /* \"#utility.yul\":8043:8109   */\n      tag_514\n      jump\t// in\n    tag_639:\n        /* \"#utility.yul\":8034:8109   */\n      swap1\n      pop\n        /* \"#utility.yul\":8132:8138   */\n      dup3\n        /* \"#utility.yul\":8125:8130   */\n      dup2\n        /* \"#utility.yul\":8118:8139   */\n      mstore\n        /* \"#utility.yul\":8170:8174   */\n      0x20\n        /* \"#utility.yul\":8163:8168   */\n      dup2\n        /* \"#utility.yul\":8159:8175   */\n      add\n        /* \"#utility.yul\":8208:8211   */\n      dup5\n        /* \"#utility.yul\":8199:8205   */\n      dup5\n        /* \"#utility.yul\":8194:8197   */\n      dup5\n        /* \"#utility.yul\":8190:8206   */\n      add\n        /* \"#utility.yul\":8187:8212   */\n      gt\n        /* \"#utility.yul\":8184:8296   */\n      iszero\n      tag_641\n      jumpi\n        /* \"#utility.yul\":8215:8294   */\n      tag_642\n      tag_511\n      jump\t// in\n    tag_642:\n        /* \"#utility.yul\":8184:8296   */\n    tag_641:\n        /* \"#utility.yul\":8305:8359   */\n      tag_643\n        /* \"#utility.yul\":8352:8358   */\n      dup5\n        /* \"#utility.yul\":8347:8350   */\n      dup3\n        /* \"#utility.yul\":8342:8345   */\n      dup6\n        /* \"#utility.yul\":8305:8359   */\n      tag_516\n      jump\t// in\n    tag_643:\n        /* \"#utility.yul\":8024:8365   */\n      pop\n        /* \"#utility.yul\":7940:8365   */\n      swap4\n      swap3\n      pop\n      pop\n      pop\n      jump\t// out\n        /* \"#utility.yul\":8385:8725   */\n    tag_518:\n        /* \"#utility.yul\":8441:8446   */\n      0x00\n        /* \"#utility.yul\":8490:8493   */\n      dup3\n        /* \"#utility.yul\":8483:8487   */\n      0x1f\n        /* \"#utility.yul\":8475:8481   */\n      dup4\n        /* \"#utility.yul\":8471:8488   */\n      add\n        /* \"#utility.yul\":8467:8494   */\n      slt\n        /* \"#utility.yul\":8457:8579   */\n      tag_645\n      jumpi\n        /* \"#utility.yul\":8498:8577   */\n      tag_646\n      tag_510\n      jump\t// in\n    tag_646:\n        /* \"#utility.yul\":8457:8579   */\n    tag_645:\n        /* \"#utility.yul\":8615:8621   */\n      dup2\n        /* \"#utility.yul\":8602:8622   */\n      calldataload\n        /* \"#utility.yul\":8640:8719   */\n      tag_647\n        /* \"#utility.yul\":8715:8718   */\n      dup5\n        /* \"#utility.yul\":8707:8713   */\n      dup3\n        /* \"#utility.yul\":8700:8704   */\n      0x20\n        /* \"#utility.yul\":8692:8698   */\n      dup7\n        /* \"#utility.yul\":8688:8705   */\n      add\n        /* \"#utility.yul\":8640:8719   */\n      tag_517\n      jump\t// in\n    tag_647:\n        /* \"#utility.yul\":8631:8719   */\n      swap2\n      pop\n        /* \"#utility.yul\":8447:8725   */\n      pop\n        /* \"#utility.yul\":8385:8725   */\n      swap3\n      swap2\n      pop\n      pop\n      jump\t// out\n        /* \"#utility.yul\":8731:9565   */\n    tag_47:\n        /* \"#utility.yul\":8819:8825   */\n      0x00\n        /* \"#utility.yul\":8827:8833   */\n      dup1\n        /* \"#utility.yul\":8876:8878   */\n      0x40\n        /* \"#utility.yul\":8864:8873   */\n      dup4\n        /* \"#utility.yul\":8855:8862   */\n      dup6\n        /* \"#utility.yul\":8851:8874   */\n      sub\n        /* \"#utility.yul\":8847:8879   */\n      slt\n        /* \"#utility.yul\":8844:8963   */\n      iszero\n      tag_649\n      jumpi\n        /* \"#utility.yul\":8882:8961   */\n      tag_650\n      tag_497\n      jump\t// in\n    tag_650:\n        /* \"#utility.yul\":8844:8963   */\n    tag_649:\n        /* \"#utility.yul\":9030:9031   */\n      0x00\n        /* \"#utility.yul\":9019:9028   */\n      dup4\n        /* \"#utility.yul\":9015:9032   */\n      add\n        /* \"#utility.yul\":9002:9033   */\n      calldataload\n        /* \"#utility.yul\":9060:9078   */\n      0xffffffffffffffff\n        /* \"#utility.yul\":9052:9058   */\n      dup2\n        /* \"#utility.yul\":9049:9079   */\n      gt\n        /* \"#utility.yul\":9046:9163   */\n      iszero\n      tag_651\n      jumpi\n        /* \"#utility.yul\":9082:9161   */\n      tag_652\n      tag_498\n      jump\t// in\n    tag_652:\n        /* \"#utility.yul\":9046:9163   */\n    tag_651:\n        /* \"#utility.yul\":9187:9250   */\n      tag_653\n        /* \"#utility.yul\":9242:9249   */\n      dup6\n        /* \"#utility.yul\":9233:9239   */\n      dup3\n        /* \"#utility.yul\":9222:9231   */\n      dup7\n        /* \"#utility.yul\":9218:9240   */\n      add\n        /* \"#utility.yul\":9187:9250   */\n      tag_518\n      jump\t// in\n    tag_653:\n        /* \"#utility.yul\":9177:9250   */\n      swap3\n      pop\n        /* \"#utility.yul\":8973:9260   */\n      pop\n        /* \"#utility.yul\":9327:9329   */\n      0x20\n        /* \"#utility.yul\":9316:9325   */\n      dup4\n        /* \"#utility.yul\":9312:9330   */\n      add\n        /* \"#utility.yul\":9299:9331   */\n      calldataload\n        /* \"#utility.yul\":9358:9376   */\n      0xffffffffffffffff\n        /* \"#utility.yul\":9350:9356   */\n      dup2\n        /* \"#utility.yul\":9347:9377   */\n      gt\n        /* \"#utility.yul\":9344:9461   */\n      iszero\n      tag_654\n      jumpi\n        /* \"#utility.yul\":9380:9459   */\n      tag_655\n      tag_498\n      jump\t// in\n    tag_655:\n        /* \"#utility.yul\":9344:9461   */\n    tag_654:\n        /* \"#utility.yul\":9485:9548   */\n      tag_656\n        /* \"#utility.yul\":9540:9547   */\n      dup6\n        /* \"#utility.yul\":9531:9537   */\n      dup3\n        /* \"#utility.yul\":9520:9529   */\n      dup7\n        /* \"#utility.yul\":9516:9538   */\n      add\n        /* \"#utility.yul\":9485:9548   */\n      tag_518\n      jump\t// in\n    tag_656:\n        /* \"#utility.yul\":9475:9548   */\n      swap2\n      pop\n        /* \"#utility.yul\":9270:9558   */\n      pop\n        /* \"#utility.yul\":8731:9565   */\n      swap3\n      pop\n      swap3\n      swap1\n      pop\n      jump\t// out\n        /* \"#utility.yul\":9571:10080   */\n    tag_54:\n        /* \"#utility.yul\":9640:9646   */\n      0x00\n        /* \"#utility.yul\":9689:9691   */\n      0x20\n        /* \"#utility.yul\":9677:9686   */\n      dup3\n        /* \"#utility.yul\":9668:9675   */\n      dup5\n        /* \"#utility.yul\":9664:9687   */\n      sub\n        /* \"#utility.yul\":9660:9692   */\n      slt\n        /* \"#utility.yul\":9657:9776   */\n      iszero\n      tag_658\n      jumpi\n        /* \"#utility.yul\":9695:9774   */\n      tag_659\n      tag_497\n      jump\t// in\n    tag_659:\n        /* \"#utility.yul\":9657:9776   */\n    tag_658:\n        /* \"#utility.yul\":9843:9844   */\n      0x00\n        /* \"#utility.yul\":9832:9841   */\n      dup3\n        /* \"#utility.yul\":9828:9845   */\n      add\n        /* \"#utility.yul\":9815:9846   */\n      calldataload\n        /* \"#utility.yul\":9873:9891   */\n      0xffffffffffffffff\n        /* \"#utility.yul\":9865:9871   */\n      dup2\n        /* \"#utility.yul\":9862:9892   */\n      gt\n        /* \"#utility.yul\":9859:9976   */\n      iszero\n      tag_660\n      jumpi\n        /* \"#utility.yul\":9895:9974   */\n      tag_661\n      tag_498\n      jump\t// in\n    tag_661:\n        /* \"#utility.yul\":9859:9976   */\n    tag_660:\n        /* \"#utility.yul\":10000:10063   */\n      tag_662\n        /* \"#utility.yul\":10055:10062   */\n      dup5\n        /* \"#utility.yul\":10046:10052   */\n      dup3\n        /* \"#utility.yul\":10035:10044   */\n      dup6\n        /* \"#utility.yul\":10031:10053   */\n      add\n        /* \"#utility.yul\":10000:10063   */\n      tag_518\n      jump\t// in\n    tag_662:\n        /* \"#utility.yul\":9990:10063   */\n      swap2\n      pop\n        /* \"#utility.yul\":9786:10073   */\n      pop\n        /* \"#utility.yul\":9571:10080   */\n      swap3\n      swap2\n      pop\n      pop\n      jump\t// out\n        /* \"#utility.yul\":10086:10210   */\n    tag_519:\n        /* \"#utility.yul\":10163:10169   */\n      0x00\n        /* \"#utility.yul\":10197:10202   */\n      dup2\n        /* \"#utility.yul\":10191:10203   */\n      mload\n        /* \"#utility.yul\":10181:10203   */\n      swap1\n      pop\n        /* \"#utility.yul\":10086:10210   */\n      swap2\n      swap1\n      pop\n      jump\t// out\n        /* \"#utility.yul\":10216:10400   */\n    tag_520:\n        /* \"#utility.yul\":10315:10326   */\n      0x00\n        /* \"#utility.yul\":10349:10355   */\n      dup3\n        /* \"#utility.yul\":10344:10347   */\n      dup3\n        /* \"#utility.yul\":10337:10356   */\n      mstore\n        /* \"#utility.yul\":10389:10393   */\n      0x20\n        /* \"#utility.yul\":10384:10387   */\n      dup3\n        /* \"#utility.yul\":10380:10394   */\n      add\n        /* \"#utility.yul\":10365:10394   */\n      swap1\n      pop\n        /* \"#utility.yul\":10216:10400   */\n      swap3\n      swap2\n      pop\n      pop\n      jump\t// out\n        /* \"#utility.yul\":10406:10548   */\n    tag_521:\n        /* \"#utility.yul\":10483:10487   */\n      0x00\n        /* \"#utility.yul\":10506:10509   */\n      dup2\n        /* \"#utility.yul\":10498:10509   */\n      swap1\n      pop\n        /* \"#utility.yul\":10536:10540   */\n      0x20\n        /* \"#utility.yul\":10531:10534   */\n      dup3\n        /* \"#utility.yul\":10527:10541   */\n      add\n        /* \"#utility.yul\":10519:10541   */\n      swap1\n      pop\n        /* \"#utility.yul\":10406:10548   */\n      swap2\n      swap1\n      pop\n      jump\t// out\n        /* \"#utility.yul\":10554:10750   */\n    tag_522:\n        /* \"#utility.yul\":10643:10653   */\n      0x00\n        /* \"#utility.yul\":10678:10744   */\n      tag_667\n        /* \"#utility.yul\":10740:10743   */\n      dup4\n        /* \"#utility.yul\":10732:10738   */\n      dup4\n        /* \"#utility.yul\":10678:10744   */\n      tag_505\n      jump\t// in\n    tag_667:\n        /* \"#utility.yul\":10664:10744   */\n      swap1\n      pop\n        /* \"#utility.yul\":10554:10750   */\n      swap3\n      swap2\n      pop\n      pop\n      jump\t// out\n        /* \"#utility.yul\":10756:10879   */\n    tag_523:\n        /* \"#utility.yul\":10836:10840   */\n      0x00\n        /* \"#utility.yul\":10868:10872   */\n      0x20\n        /* \"#utility.yul\":10863:10866   */\n      dup3\n        /* \"#utility.yul\":10859:10873   */\n      add\n        /* \"#utility.yul\":10851:10873   */\n      swap1\n      pop\n        /* \"#utility.yul\":10756:10879   */\n      swap2\n      swap1\n      pop\n      jump\t// out\n        /* \"#utility.yul\":10913:11884   */\n    tag_524:\n        /* \"#utility.yul\":11042:11045   */\n      0x00\n        /* \"#utility.yul\":11071:11135   */\n      tag_670\n        /* \"#utility.yul\":11129:11134   */\n      dup3\n        /* \"#utility.yul\":11071:11135   */\n      tag_519\n      jump\t// in\n    tag_670:\n        /* \"#utility.yul\":11151:11237   */\n      tag_671\n        /* \"#utility.yul\":11230:11236   */\n      dup2\n        /* \"#utility.yul\":11225:11228   */\n      dup6\n        /* \"#utility.yul\":11151:11237   */\n      tag_520\n      jump\t// in\n    tag_671:\n        /* \"#utility.yul\":11144:11237   */\n      swap4\n      pop\n        /* \"#utility.yul\":11263:11266   */\n      dup4\n        /* \"#utility.yul\":11308:11312   */\n      0x20\n        /* \"#utility.yul\":11300:11306   */\n      dup3\n        /* \"#utility.yul\":11296:11313   */\n      mul\n        /* \"#utility.yul\":11291:11294   */\n      dup6\n        /* \"#utility.yul\":11287:11314   */\n      add\n        /* \"#utility.yul\":11338:11404   */\n      tag_672\n        /* \"#utility.yul\":11398:11403   */\n      dup6\n        /* \"#utility.yul\":11338:11404   */\n      tag_521\n      jump\t// in\n    tag_672:\n        /* \"#utility.yul\":11427:11434   */\n      dup1\n        /* \"#utility.yul\":11458:11459   */\n      0x00\n        /* \"#utility.yul\":11443:11839   */\n    tag_673:\n        /* \"#utility.yul\":11468:11474   */\n      dup6\n        /* \"#utility.yul\":11465:11466   */\n      dup2\n        /* \"#utility.yul\":11462:11475   */\n      lt\n        /* \"#utility.yul\":11443:11839   */\n      iszero\n      tag_675\n      jumpi\n        /* \"#utility.yul\":11539:11548   */\n      dup5\n        /* \"#utility.yul\":11533:11537   */\n      dup5\n        /* \"#utility.yul\":11529:11549   */\n      sub\n        /* \"#utility.yul\":11524:11527   */\n      dup10\n        /* \"#utility.yul\":11517:11550   */\n      mstore\n        /* \"#utility.yul\":11590:11596   */\n      dup2\n        /* \"#utility.yul\":11584:11597   */\n      mload\n        /* \"#utility.yul\":11618:11702   */\n      tag_676\n        /* \"#utility.yul\":11697:11701   */\n      dup6\n        /* \"#utility.yul\":11682:11695   */\n      dup3\n        /* \"#utility.yul\":11618:11702   */\n      tag_522\n      jump\t// in\n    tag_676:\n        /* \"#utility.yul\":11610:11702   */\n      swap5\n      pop\n        /* \"#utility.yul\":11725:11795   */\n      tag_677\n        /* \"#utility.yul\":11788:11794   */\n      dup4\n        /* \"#utility.yul\":11725:11795   */\n      tag_523\n      jump\t// in\n    tag_677:\n        /* \"#utility.yul\":11715:11795   */\n      swap3\n      pop\n        /* \"#utility.yul\":11824:11828   */\n      0x20\n        /* \"#utility.yul\":11819:11822   */\n      dup11\n        /* \"#utility.yul\":11815:11829   */\n      add\n        /* \"#utility.yul\":11808:11829   */\n      swap10\n      pop\n        /* \"#utility.yul\":11503:11839   */\n      pop\n        /* \"#utility.yul\":11490:11491   */\n      0x01\n        /* \"#utility.yul\":11487:11488   */\n      dup2\n        /* \"#utility.yul\":11483:11492   */\n      add\n        /* \"#utility.yul\":11478:11492   */\n      swap1\n      pop\n        /* \"#utility.yul\":11443:11839   */\n      jump(tag_673)\n    tag_675:\n        /* \"#utility.yul\":11447:11461   */\n      pop\n        /* \"#utility.yul\":11855:11859   */\n      dup3\n        /* \"#utility.yul\":11848:11859   */\n      swap8\n      pop\n        /* \"#utility.yul\":11875:11878   */\n      dup8\n        /* \"#utility.yul\":11868:11878   */\n      swap6\n      pop\n        /* \"#utility.yul\":11047:11884   */\n      pop\n      pop\n      pop\n      pop\n      pop\n        /* \"#utility.yul\":10913:11884   */\n      swap3\n      swap2\n      pop\n      pop\n      jump\t// out\n        /* \"#utility.yul\":11890:12064   */\n    tag_525:\n        /* \"#utility.yul\":11979:11990   */\n      0x00\n        /* \"#utility.yul\":12013:12019   */\n      dup3\n        /* \"#utility.yul\":12008:12011   */\n      dup3\n        /* \"#utility.yul\":12001:12020   */\n      mstore\n        /* \"#utility.yul\":12053:12057   */\n      0x20\n        /* \"#utility.yul\":12048:12051   */\n      dup3\n        /* \"#utility.yul\":12044:12058   */\n      add\n        /* \"#utility.yul\":12029:12058   */\n      swap1\n      pop\n        /* \"#utility.yul\":11890:12064   */\n      swap3\n      swap2\n      pop\n      pop\n      jump\t// out\n        /* \"#utility.yul\":12100:12812   */\n    tag_526:\n        /* \"#utility.yul\":12209:12212   */\n      0x00\n        /* \"#utility.yul\":12238:12292   */\n      tag_680\n        /* \"#utility.yul\":12286:12291   */\n      dup3\n        /* \"#utility.yul\":12238:12292   */\n      tag_488\n      jump\t// in\n    tag_680:\n        /* \"#utility.yul\":12308:12384   */\n      tag_681\n        /* \"#utility.yul\":12377:12383   */\n      dup2\n        /* \"#utility.yul\":12372:12375   */\n      dup6\n        /* \"#utility.yul\":12308:12384   */\n      tag_525\n      jump\t// in\n    tag_681:\n        /* \"#utility.yul\":12301:12384   */\n      swap4\n      pop\n        /* \"#utility.yul\":12408:12464   */\n      tag_682\n        /* \"#utility.yul\":12458:12463   */\n      dup4\n        /* \"#utility.yul\":12408:12464   */\n      tag_490\n      jump\t// in\n    tag_682:\n        /* \"#utility.yul\":12487:12494   */\n      dup1\n        /* \"#utility.yul\":12518:12519   */\n      0x00\n        /* \"#utility.yul\":12503:12787   */\n    tag_683:\n        /* \"#utility.yul\":12528:12534   */\n      dup4\n        /* \"#utility.yul\":12525:12526   */\n      dup2\n        /* \"#utility.yul\":12522:12535   */\n      lt\n        /* \"#utility.yul\":12503:12787   */\n      iszero\n      tag_685\n      jumpi\n        /* \"#utility.yul\":12604:12610   */\n      dup2\n        /* \"#utility.yul\":12598:12611   */\n      mload\n        /* \"#utility.yul\":12631:12694   */\n      tag_686\n        /* \"#utility.yul\":12690:12693   */\n      dup9\n        /* \"#utility.yul\":12675:12688   */\n      dup3\n        /* \"#utility.yul\":12631:12694   */\n      tag_493\n      jump\t// in\n    tag_686:\n        /* \"#utility.yul\":12624:12694   */\n      swap8\n      pop\n        /* \"#utility.yul\":12717:12777   */\n      tag_687\n        /* \"#utility.yul\":12770:12776   */\n      dup4\n        /* \"#utility.yul\":12717:12777   */\n      tag_494\n      jump\t// in\n    tag_687:\n        /* \"#utility.yul\":12707:12777   */\n      swap3\n      pop\n        /* \"#utility.yul\":12563:12787   */\n      pop\n        /* \"#utility.yul\":12550:12551   */\n      0x01\n        /* \"#utility.yul\":12547:12548   */\n      dup2\n        /* \"#utility.yul\":12543:12552   */\n      add\n        /* \"#utility.yul\":12538:12552   */\n      swap1\n      pop\n        /* \"#utility.yul\":12503:12787   */\n      jump(tag_683)\n    tag_685:\n        /* \"#utility.yul\":12507:12521   */\n      pop\n        /* \"#utility.yul\":12803:12806   */\n      dup6\n        /* \"#utility.yul\":12796:12806   */\n      swap4\n      pop\n        /* \"#utility.yul\":12214:12812   */\n      pop\n      pop\n      pop\n        /* \"#utility.yul\":12100:12812   */\n      swap3\n      swap2\n      pop\n      pop\n      jump\t// out\n        /* \"#utility.yul\":12868:14936   */\n    tag_527:\n        /* \"#utility.yul\":12977:12980   */\n      0x00\n        /* \"#utility.yul\":13013:13017   */\n      0xe0\n        /* \"#utility.yul\":13008:13011   */\n      dup4\n        /* \"#utility.yul\":13004:13018   */\n      add\n        /* \"#utility.yul\":13102:13106   */\n      0x00\n        /* \"#utility.yul\":13095:13100   */\n      dup4\n        /* \"#utility.yul\":13091:13107   */\n      add\n        /* \"#utility.yul\":13085:13108   */\n      mload\n        /* \"#utility.yul\":13155:13158   */\n      dup5\n        /* \"#utility.yul\":13149:13153   */\n      dup3\n        /* \"#utility.yul\":13145:13159   */\n      sub\n        /* \"#utility.yul\":13138:13142   */\n      0x00\n        /* \"#utility.yul\":13133:13136   */\n      dup7\n        /* \"#utility.yul\":13129:13143   */\n      add\n        /* \"#utility.yul\":13122:13160   */\n      mstore\n        /* \"#utility.yul\":13181:13254   */\n      tag_689\n        /* \"#utility.yul\":13249:13253   */\n      dup3\n        /* \"#utility.yul\":13235:13247   */\n      dup3\n        /* \"#utility.yul\":13181:13254   */\n      tag_505\n      jump\t// in\n    tag_689:\n        /* \"#utility.yul\":13173:13254   */\n      swap2\n      pop\n        /* \"#utility.yul\":13028:13265   */\n      pop\n        /* \"#utility.yul\":13354:13358   */\n      0x20\n        /* \"#utility.yul\":13347:13352   */\n      dup4\n        /* \"#utility.yul\":13343:13359   */\n      add\n        /* \"#utility.yul\":13337:13360   */\n      mload\n        /* \"#utility.yul\":13407:13410   */\n      dup5\n        /* \"#utility.yul\":13401:13405   */\n      dup3\n        /* \"#utility.yul\":13397:13411   */\n      sub\n        /* \"#utility.yul\":13390:13394   */\n      0x20\n        /* \"#utility.yul\":13385:13388   */\n      dup7\n        /* \"#utility.yul\":13381:13395   */\n      add\n        /* \"#utility.yul\":13374:13412   */\n      mstore\n        /* \"#utility.yul\":13433:13506   */\n      tag_690\n        /* \"#utility.yul\":13501:13505   */\n      dup3\n        /* \"#utility.yul\":13487:13499   */\n      dup3\n        /* \"#utility.yul\":13433:13506   */\n      tag_505\n      jump\t// in\n    tag_690:\n        /* \"#utility.yul\":13425:13506   */\n      swap2\n      pop\n        /* \"#utility.yul\":13275:13517   */\n      pop\n        /* \"#utility.yul\":13605:13609   */\n      0x40\n        /* \"#utility.yul\":13598:13603   */\n      dup4\n        /* \"#utility.yul\":13594:13610   */\n      add\n        /* \"#utility.yul\":13588:13611   */\n      mload\n        /* \"#utility.yul\":13658:13661   */\n      dup5\n        /* \"#utility.yul\":13652:13656   */\n      dup3\n        /* \"#utility.yul\":13648:13662   */\n      sub\n        /* \"#utility.yul\":13641:13645   */\n      0x40\n        /* \"#utility.yul\":13636:13639   */\n      dup7\n        /* \"#utility.yul\":13632:13646   */\n      add\n        /* \"#utility.yul\":13625:13663   */\n      mstore\n        /* \"#utility.yul\":13684:13757   */\n      tag_691\n        /* \"#utility.yul\":13752:13756   */\n      dup3\n        /* \"#utility.yul\":13738:13750   */\n      dup3\n        /* \"#utility.yul\":13684:13757   */\n      tag_505\n      jump\t// in\n    tag_691:\n        /* \"#utility.yul\":13676:13757   */\n      swap2\n      pop\n        /* \"#utility.yul\":13527:13768   */\n      pop\n        /* \"#utility.yul\":13853:13857   */\n      0x60\n        /* \"#utility.yul\":13846:13851   */\n      dup4\n        /* \"#utility.yul\":13842:13858   */\n      add\n        /* \"#utility.yul\":13836:13859   */\n      mload\n        /* \"#utility.yul\":13906:13909   */\n      dup5\n        /* \"#utility.yul\":13900:13904   */\n      dup3\n        /* \"#utility.yul\":13896:13910   */\n      sub\n        /* \"#utility.yul\":13889:13893   */\n      0x60\n        /* \"#utility.yul\":13884:13887   */\n      dup7\n        /* \"#utility.yul\":13880:13894   */\n      add\n        /* \"#utility.yul\":13873:13911   */\n      mstore\n        /* \"#utility.yul\":13932:14055   */\n      tag_692\n        /* \"#utility.yul\":14050:14054   */\n      dup3\n        /* \"#utility.yul\":14036:14048   */\n      dup3\n        /* \"#utility.yul\":13932:14055   */\n      tag_524\n      jump\t// in\n    tag_692:\n        /* \"#utility.yul\":13924:14055   */\n      swap2\n      pop\n        /* \"#utility.yul\":13778:14066   */\n      pop\n        /* \"#utility.yul\":14152:14156   */\n      0x80\n        /* \"#utility.yul\":14145:14150   */\n      dup4\n        /* \"#utility.yul\":14141:14157   */\n      add\n        /* \"#utility.yul\":14135:14158   */\n      mload\n        /* \"#utility.yul\":14205:14208   */\n      dup5\n        /* \"#utility.yul\":14199:14203   */\n      dup3\n        /* \"#utility.yul\":14195:14209   */\n      sub\n        /* \"#utility.yul\":14188:14192   */\n      0x80\n        /* \"#utility.yul\":14183:14186   */\n      dup7\n        /* \"#utility.yul\":14179:14193   */\n      add\n        /* \"#utility.yul\":14172:14210   */\n      mstore\n        /* \"#utility.yul\":14231:14334   */\n      tag_693\n        /* \"#utility.yul\":14329:14333   */\n      dup3\n        /* \"#utility.yul\":14315:14327   */\n      dup3\n        /* \"#utility.yul\":14231:14334   */\n      tag_526\n      jump\t// in\n    tag_693:\n        /* \"#utility.yul\":14223:14334   */\n      swap2\n      pop\n        /* \"#utility.yul\":14076:14345   */\n      pop\n        /* \"#utility.yul\":14433:14437   */\n      0xa0\n        /* \"#utility.yul\":14426:14431   */\n      dup4\n        /* \"#utility.yul\":14422:14438   */\n      add\n        /* \"#utility.yul\":14416:14439   */\n      mload\n        /* \"#utility.yul\":14486:14489   */\n      dup5\n        /* \"#utility.yul\":14480:14484   */\n      dup3\n        /* \"#utility.yul\":14476:14490   */\n      sub\n        /* \"#utility.yul\":14469:14473   */\n      0xa0\n        /* \"#utility.yul\":14464:14467   */\n      dup7\n        /* \"#utility.yul\":14460:14474   */\n      add\n        /* \"#utility.yul\":14453:14491   */\n      mstore\n        /* \"#utility.yul\":14512:14615   */\n      tag_694\n        /* \"#utility.yul\":14610:14614   */\n      dup3\n        /* \"#utility.yul\":14596:14608   */\n      dup3\n        /* \"#utility.yul\":14512:14615   */\n      tag_526\n      jump\t// in\n    tag_694:\n        /* \"#utility.yul\":14504:14615   */\n      swap2\n      pop\n        /* \"#utility.yul\":14355:14626   */\n      pop\n        /* \"#utility.yul\":14716:14720   */\n      0xc0\n        /* \"#utility.yul\":14709:14714   */\n      dup4\n        /* \"#utility.yul\":14705:14721   */\n      add\n        /* \"#utility.yul\":14699:14722   */\n      mload\n        /* \"#utility.yul\":14769:14772   */\n      dup5\n        /* \"#utility.yul\":14763:14767   */\n      dup3\n        /* \"#utility.yul\":14759:14773   */\n      sub\n        /* \"#utility.yul\":14752:14756   */\n      0xc0\n        /* \"#utility.yul\":14747:14750   */\n      dup7\n        /* \"#utility.yul\":14743:14757   */\n      add\n        /* \"#utility.yul\":14736:14774   */\n      mstore\n        /* \"#utility.yul\":14795:14898   */\n      tag_695\n        /* \"#utility.yul\":14893:14897   */\n      dup3\n        /* \"#utility.yul\":14879:14891   */\n      dup3\n        /* \"#utility.yul\":14795:14898   */\n      tag_526\n      jump\t// in\n    tag_695:\n        /* \"#utility.yul\":14787:14898   */\n      swap2\n      pop\n        /* \"#utility.yul\":14636:14909   */\n      pop\n        /* \"#utility.yul\":14926:14930   */\n      dup1\n        /* \"#utility.yul\":14919:14930   */\n      swap2\n      pop\n        /* \"#utility.yul\":12982:14936   */\n      pop\n        /* \"#utility.yul\":12868:14936   */\n      swap3\n      swap2\n      pop\n      pop\n      jump\t// out\n        /* \"#utility.yul\":14942:15295   */\n    tag_57:\n        /* \"#utility.yul\":15075:15079   */\n      0x00\n        /* \"#utility.yul\":15113:15115   */\n      0x20\n        /* \"#utility.yul\":15102:15111   */\n      dup3\n        /* \"#utility.yul\":15098:15116   */\n      add\n        /* \"#utility.yul\":15090:15116   */\n      swap1\n      pop\n        /* \"#utility.yul\":15162:15171   */\n      dup2\n        /* \"#utility.yul\":15156:15160   */\n      dup2\n        /* \"#utility.yul\":15152:15172   */\n      sub\n        /* \"#utility.yul\":15148:15149   */\n      0x00\n        /* \"#utility.yul\":15137:15146   */\n      dup4\n        /* \"#utility.yul\":15133:15150   */\n      add\n        /* \"#utility.yul\":15126:15173   */\n      mstore\n        /* \"#utility.yul\":15190:15288   */\n      tag_697\n        /* \"#utility.yul\":15283:15287   */\n      dup2\n        /* \"#utility.yul\":15274:15280   */\n      dup5\n        /* \"#utility.yul\":15190:15288   */\n      tag_527\n      jump\t// in\n    tag_697:\n        /* \"#utility.yul\":15182:15288   */\n      swap1\n      pop\n        /* \"#utility.yul\":14942:15295   */\n      swap3\n      swap2\n      pop\n      pop\n      jump\t// out\n        /* \"#utility.yul\":15357:17550   */\n    tag_528:\n        /* \"#utility.yul\":15472:15475   */\n      0x00\n        /* \"#utility.yul\":15508:15514   */\n      0x0120\n        /* \"#utility.yul\":15503:15506   */\n      dup4\n        /* \"#utility.yul\":15499:15515   */\n      add\n        /* \"#utility.yul\":15595:15599   */\n      0x00\n        /* \"#utility.yul\":15588:15593   */\n      dup4\n        /* \"#utility.yul\":15584:15600   */\n      add\n        /* \"#utility.yul\":15578:15601   */\n      mload\n        /* \"#utility.yul\":15614:15677   */\n      tag_699\n        /* \"#utility.yul\":15671:15675   */\n      0x00\n        /* \"#utility.yul\":15666:15669   */\n      dup7\n        /* \"#utility.yul\":15662:15676   */\n      add\n        /* \"#utility.yul\":15648:15660   */\n      dup3\n        /* \"#utility.yul\":15614:15677   */\n      tag_492\n      jump\t// in\n    tag_699:\n        /* \"#utility.yul\":15525:15687   */\n      pop\n        /* \"#utility.yul\":15771:15775   */\n      0x20\n        /* \"#utility.yul\":15764:15769   */\n      dup4\n        /* \"#utility.yul\":15760:15776   */\n      add\n        /* \"#utility.yul\":15754:15777   */\n      mload\n        /* \"#utility.yul\":15824:15827   */\n      dup5\n        /* \"#utility.yul\":15818:15822   */\n      dup3\n        /* \"#utility.yul\":15814:15828   */\n      sub\n        /* \"#utility.yul\":15807:15811   */\n      0x20\n        /* \"#utility.yul\":15802:15805   */\n      dup7\n        /* \"#utility.yul\":15798:15812   */\n      add\n        /* \"#utility.yul\":15791:15829   */\n      mstore\n        /* \"#utility.yul\":15850:15923   */\n      tag_700\n        /* \"#utility.yul\":15918:15922   */\n      dup3\n        /* \"#utility.yul\":15904:15916   */\n      dup3\n        /* \"#utility.yul\":15850:15923   */\n      tag_505\n      jump\t// in\n    tag_700:\n        /* \"#utility.yul\":15842:15923   */\n      swap2\n      pop\n        /* \"#utility.yul\":15697:15934   */\n      pop\n        /* \"#utility.yul\":16015:16019   */\n      0x40\n        /* \"#utility.yul\":16008:16013   */\n      dup4\n        /* \"#utility.yul\":16004:16020   */\n      add\n        /* \"#utility.yul\":15998:16021   */\n      mload\n        /* \"#utility.yul\":16068:16071   */\n      dup5\n        /* \"#utility.yul\":16062:16066   */\n      dup3\n        /* \"#utility.yul\":16058:16072   */\n      sub\n        /* \"#utility.yul\":16051:16055   */\n      0x40\n        /* \"#utility.yul\":16046:16049   */\n      dup7\n        /* \"#utility.yul\":16042:16056   */\n      add\n        /* \"#utility.yul\":16035:16073   */\n      mstore\n        /* \"#utility.yul\":16094:16167   */\n      tag_701\n        /* \"#utility.yul\":16162:16166   */\n      dup3\n        /* \"#utility.yul\":16148:16160   */\n      dup3\n        /* \"#utility.yul\":16094:16167   */\n      tag_505\n      jump\t// in\n    tag_701:\n        /* \"#utility.yul\":16086:16167   */\n      swap2\n      pop\n        /* \"#utility.yul\":15944:16178   */\n      pop\n        /* \"#utility.yul\":16259:16263   */\n      0x60\n        /* \"#utility.yul\":16252:16257   */\n      dup4\n        /* \"#utility.yul\":16248:16264   */\n      add\n        /* \"#utility.yul\":16242:16265   */\n      mload\n        /* \"#utility.yul\":16312:16315   */\n      dup5\n        /* \"#utility.yul\":16306:16310   */\n      dup3\n        /* \"#utility.yul\":16302:16316   */\n      sub\n        /* \"#utility.yul\":16295:16299   */\n      0x60\n        /* \"#utility.yul\":16290:16293   */\n      dup7\n        /* \"#utility.yul\":16286:16300   */\n      add\n        /* \"#utility.yul\":16279:16317   */\n      mstore\n        /* \"#utility.yul\":16338:16411   */\n      tag_702\n        /* \"#utility.yul\":16406:16410   */\n      dup3\n        /* \"#utility.yul\":16392:16404   */\n      dup3\n        /* \"#utility.yul\":16338:16411   */\n      tag_505\n      jump\t// in\n    tag_702:\n        /* \"#utility.yul\":16330:16411   */\n      swap2\n      pop\n        /* \"#utility.yul\":16188:16422   */\n      pop\n        /* \"#utility.yul\":16504:16508   */\n      0x80\n        /* \"#utility.yul\":16497:16502   */\n      dup4\n        /* \"#utility.yul\":16493:16509   */\n      add\n        /* \"#utility.yul\":16487:16510   */\n      mload\n        /* \"#utility.yul\":16557:16560   */\n      dup5\n        /* \"#utility.yul\":16551:16555   */\n      dup3\n        /* \"#utility.yul\":16547:16561   */\n      sub\n        /* \"#utility.yul\":16540:16544   */\n      0x80\n        /* \"#utility.yul\":16535:16538   */\n      dup7\n        /* \"#utility.yul\":16531:16545   */\n      add\n        /* \"#utility.yul\":16524:16562   */\n      mstore\n        /* \"#utility.yul\":16583:16656   */\n      tag_703\n        /* \"#utility.yul\":16651:16655   */\n      dup3\n        /* \"#utility.yul\":16637:16649   */\n      dup3\n        /* \"#utility.yul\":16583:16656   */\n      tag_505\n      jump\t// in\n    tag_703:\n        /* \"#utility.yul\":16575:16656   */\n      swap2\n      pop\n        /* \"#utility.yul\":16432:16667   */\n      pop\n        /* \"#utility.yul\":16756:16760   */\n      0xa0\n        /* \"#utility.yul\":16749:16754   */\n      dup4\n        /* \"#utility.yul\":16745:16761   */\n      add\n        /* \"#utility.yul\":16739:16762   */\n      mload\n        /* \"#utility.yul\":16809:16812   */\n      dup5\n        /* \"#utility.yul\":16803:16807   */\n      dup3\n        /* \"#utility.yul\":16799:16813   */\n      sub\n        /* \"#utility.yul\":16792:16796   */\n      0xa0\n        /* \"#utility.yul\":16787:16790   */\n      dup7\n        /* \"#utility.yul\":16783:16797   */\n      add\n        /* \"#utility.yul\":16776:16814   */\n      mstore\n        /* \"#utility.yul\":16835:16908   */\n      tag_704\n        /* \"#utility.yul\":16903:16907   */\n      dup3\n        /* \"#utility.yul\":16889:16901   */\n      dup3\n        /* \"#utility.yul\":16835:16908   */\n      tag_505\n      jump\t// in\n    tag_704:\n        /* \"#utility.yul\":16827:16908   */\n      swap2\n      pop\n        /* \"#utility.yul\":16677:16919   */\n      pop\n        /* \"#utility.yul\":17006:17010   */\n      0xc0\n        /* \"#utility.yul\":16999:17004   */\n      dup4\n        /* \"#utility.yul\":16995:17011   */\n      add\n        /* \"#utility.yul\":16989:17012   */\n      mload\n        /* \"#utility.yul\":17025:17088   */\n      tag_705\n        /* \"#utility.yul\":17082:17086   */\n      0xc0\n        /* \"#utility.yul\":17077:17080   */\n      dup7\n        /* \"#utility.yul\":17073:17087   */\n      add\n        /* \"#utility.yul\":17059:17071   */\n      dup3\n        /* \"#utility.yul\":17025:17088   */\n      tag_492\n      jump\t// in\n    tag_705:\n        /* \"#utility.yul\":16929:17098   */\n      pop\n        /* \"#utility.yul\":17181:17185   */\n      0xe0\n        /* \"#utility.yul\":17174:17179   */\n      dup4\n        /* \"#utility.yul\":17170:17186   */\n      add\n        /* \"#utility.yul\":17164:17187   */\n      mload\n        /* \"#utility.yul\":17200:17263   */\n      tag_706\n        /* \"#utility.yul\":17257:17261   */\n      0xe0\n        /* \"#utility.yul\":17252:17255   */\n      dup7\n        /* \"#utility.yul\":17248:17262   */\n      add\n        /* \"#utility.yul\":17234:17246   */\n      dup3\n        /* \"#utility.yul\":17200:17263   */\n      tag_492\n      jump\t// in\n    tag_706:\n        /* \"#utility.yul\":17108:17273   */\n      pop\n        /* \"#utility.yul\":17356:17362   */\n      0x0100\n        /* \"#utility.yul\":17349:17354   */\n      dup4\n        /* \"#utility.yul\":17345:17363   */\n      add\n        /* \"#utility.yul\":17339:17364   */\n      mload\n        /* \"#utility.yul\":17413:17416   */\n      dup5\n        /* \"#utility.yul\":17407:17411   */\n      dup3\n        /* \"#utility.yul\":17403:17417   */\n      sub\n        /* \"#utility.yul\":17394:17400   */\n      0x0100\n        /* \"#utility.yul\":17389:17392   */\n      dup7\n        /* \"#utility.yul\":17385:17401   */\n      add\n        /* \"#utility.yul\":17378:17418   */\n      mstore\n        /* \"#utility.yul\":17439:17512   */\n      tag_707\n        /* \"#utility.yul\":17507:17511   */\n      dup3\n        /* \"#utility.yul\":17493:17505   */\n      dup3\n        /* \"#utility.yul\":17439:17512   */\n      tag_505\n      jump\t// in\n    tag_707:\n        /* \"#utility.yul\":17431:17512   */\n      swap2\n      pop\n        /* \"#utility.yul\":17283:17523   */\n      pop\n        /* \"#utility.yul\":17540:17544   */\n      dup1\n        /* \"#utility.yul\":17533:17544   */\n      swap2\n      pop\n        /* \"#utility.yul\":15477:17550   */\n      pop\n        /* \"#utility.yul\":15357:17550   */\n      swap3\n      swap2\n      pop\n      pop\n      jump\t// out\n        /* \"#utility.yul\":17556:17921   */\n    tag_62:\n        /* \"#utility.yul\":17695:17699   */\n      0x00\n        /* \"#utility.yul\":17733:17735   */\n      0x20\n        /* \"#utility.yul\":17722:17731   */\n      dup3\n        /* \"#utility.yul\":17718:17736   */\n      add\n        /* \"#utility.yul\":17710:17736   */\n      swap1\n      pop\n        /* \"#utility.yul\":17782:17791   */\n      dup2\n        /* \"#utility.yul\":17776:17780   */\n      dup2\n        /* \"#utility.yul\":17772:17792   */\n      sub\n        /* \"#utility.yul\":17768:17769   */\n      0x00\n        /* \"#utility.yul\":17757:17766   */\n      dup4\n        /* \"#utility.yul\":17753:17770   */\n      add\n        /* \"#utility.yul\":17746:17793   */\n      mstore\n        /* \"#utility.yul\":17810:17914   */\n      tag_709\n        /* \"#utility.yul\":17909:17913   */\n      dup2\n        /* \"#utility.yul\":17900:17906   */\n      dup5\n        /* \"#utility.yul\":17810:17914   */\n      tag_528\n      jump\t// in\n    tag_709:\n        /* \"#utility.yul\":17802:17914   */\n      swap1\n      pop\n        /* \"#utility.yul\":17556:17921   */\n      swap3\n      swap2\n      pop\n      pop\n      jump\t// out\n        /* \"#utility.yul\":17927:18906   */\n    tag_65:\n        /* \"#utility.yul\":18024:18030   */\n      0x00\n        /* \"#utility.yul\":18032:18038   */\n      dup1\n        /* \"#utility.yul\":18040:18046   */\n      0x00\n        /* \"#utility.yul\":18089:18091   */\n      0x60\n        /* \"#utility.yul\":18077:18086   */\n      dup5\n        /* \"#utility.yul\":18068:18075   */\n      dup7\n        /* \"#utility.yul\":18064:18087   */\n      sub\n        /* \"#utility.yul\":18060:18092   */\n      slt\n        /* \"#utility.yul\":18057:18176   */\n      iszero\n      tag_711\n      jumpi\n        /* \"#utility.yul\":18095:18174   */\n      tag_712\n      tag_497\n      jump\t// in\n    tag_712:\n        /* \"#utility.yul\":18057:18176   */\n    tag_711:\n        /* \"#utility.yul\":18243:18244   */\n      0x00\n        /* \"#utility.yul\":18232:18241   */\n      dup5\n        /* \"#utility.yul\":18228:18245   */\n      add\n        /* \"#utility.yul\":18215:18246   */\n      calldataload\n        /* \"#utility.yul\":18273:18291   */\n      0xffffffffffffffff\n        /* \"#utility.yul\":18265:18271   */\n      dup2\n        /* \"#utility.yul\":18262:18292   */\n      gt\n        /* \"#utility.yul\":18259:18376   */\n      iszero\n      tag_713\n      jumpi\n        /* \"#utility.yul\":18295:18374   */\n      tag_714\n      tag_498\n      jump\t// in\n    tag_714:\n        /* \"#utility.yul\":18259:18376   */\n    tag_713:\n        /* \"#utility.yul\":18400:18463   */\n      tag_715\n        /* \"#utility.yul\":18455:18462   */\n      dup7\n        /* \"#utility.yul\":18446:18452   */\n      dup3\n        /* \"#utility.yul\":18435:18444   */\n      dup8\n        /* \"#utility.yul\":18431:18453   */\n      add\n        /* \"#utility.yul\":18400:18463   */\n      tag_518\n      jump\t// in\n    tag_715:\n        /* \"#utility.yul\":18390:18463   */\n      swap4\n      pop\n        /* \"#utility.yul\":18186:18473   */\n      pop\n        /* \"#utility.yul\":18540:18542   */\n      0x20\n        /* \"#utility.yul\":18529:18538   */\n      dup5\n        /* \"#utility.yul\":18525:18543   */\n      add\n        /* \"#utility.yul\":18512:18544   */\n      calldataload\n        /* \"#utility.yul\":18571:18589   */\n      0xffffffffffffffff\n        /* \"#utility.yul\":18563:18569   */\n      dup2\n        /* \"#utility.yul\":18560:18590   */\n      gt\n        /* \"#utility.yul\":18557:18674   */\n      iszero\n      tag_716\n      jumpi\n        /* \"#utility.yul\":18593:18672   */\n      tag_717\n      tag_498\n      jump\t// in\n    tag_717:\n        /* \"#utility.yul\":18557:18674   */\n    tag_716:\n        /* \"#utility.yul\":18698:18761   */\n      tag_718\n        /* \"#utility.yul\":18753:18760   */\n      dup7\n        /* \"#utility.yul\":18744:18750   */\n      dup3\n        /* \"#utility.yul\":18733:18742   */\n      dup8\n        /* \"#utility.yul\":18729:18751   */\n      add\n        /* \"#utility.yul\":18698:18761   */\n      tag_518\n      jump\t// in\n    tag_718:\n        /* \"#utility.yul\":18688:18761   */\n      swap3\n      pop\n        /* \"#utility.yul\":18483:18771   */\n      pop\n        /* \"#utility.yul\":18810:18812   */\n      0x40\n        /* \"#utility.yul\":18836:18889   */\n      tag_719\n        /* \"#utility.yul\":18881:18888   */\n      dup7\n        /* \"#utility.yul\":18872:18878   */\n      dup3\n        /* \"#utility.yul\":18861:18870   */\n      dup8\n        /* \"#utility.yul\":18857:18879   */\n      add\n        /* \"#utility.yul\":18836:18889   */\n      tag_500\n      jump\t// in\n    tag_719:\n        /* \"#utility.yul\":18826:18889   */\n      swap2\n      pop\n        /* \"#utility.yul\":18781:18899   */\n      pop\n        /* \"#utility.yul\":17927:18906   */\n      swap3\n      pop\n      swap3\n      pop\n      swap3\n      jump\t// out\n        /* \"#utility.yul\":18912:19233   */\n    tag_529:\n        /* \"#utility.yul\":18999:19003   */\n      0x00\n        /* \"#utility.yul\":19089:19107   */\n      0xffffffffffffffff\n        /* \"#utility.yul\":19081:19087   */\n      dup3\n        /* \"#utility.yul\":19078:19108   */\n      gt\n        /* \"#utility.yul\":19075:19131   */\n      iszero\n      tag_721\n      jumpi\n        /* \"#utility.yul\":19111:19129   */\n      tag_722\n      tag_512\n      jump\t// in\n    tag_722:\n        /* \"#utility.yul\":19075:19131   */\n    tag_721:\n        /* \"#utility.yul\":19161:19165   */\n      0x20\n        /* \"#utility.yul\":19153:19159   */\n      dup3\n        /* \"#utility.yul\":19149:19166   */\n      mul\n        /* \"#utility.yul\":19141:19166   */\n      swap1\n      pop\n        /* \"#utility.yul\":19221:19225   */\n      0x20\n        /* \"#utility.yul\":19215:19219   */\n      dup2\n        /* \"#utility.yul\":19211:19226   */\n      add\n        /* \"#utility.yul\":19203:19226   */\n      swap1\n      pop\n        /* \"#utility.yul\":18912:19233   */\n      swap2\n      swap1\n      pop\n      jump\t// out\n        /* \"#utility.yul\":19239:19356   */\n    tag_530:\n        /* \"#utility.yul\":19348:19349   */\n      0x00\n        /* \"#utility.yul\":19345:19346   */\n      dup1\n        /* \"#utility.yul\":19338:19350   */\n      revert\n        /* \"#utility.yul\":19378:20323   */\n    tag_531:\n        /* \"#utility.yul\":19484:19489   */\n      0x00\n        /* \"#utility.yul\":19509:19600   */\n      tag_725\n        /* \"#utility.yul\":19525:19599   */\n      tag_726\n        /* \"#utility.yul\":19592:19598   */\n      dup5\n        /* \"#utility.yul\":19525:19599   */\n      tag_529\n      jump\t// in\n    tag_726:\n        /* \"#utility.yul\":19509:19600   */\n      tag_514\n      jump\t// in\n    tag_725:\n        /* \"#utility.yul\":19500:19600   */\n      swap1\n      pop\n        /* \"#utility.yul\":19620:19625   */\n      dup1\n        /* \"#utility.yul\":19649:19655   */\n      dup4\n        /* \"#utility.yul\":19642:19647   */\n      dup3\n        /* \"#utility.yul\":19635:19656   */\n      mstore\n        /* \"#utility.yul\":19683:19687   */\n      0x20\n        /* \"#utility.yul\":19676:19681   */\n      dup3\n        /* \"#utility.yul\":19672:19688   */\n      add\n        /* \"#utility.yul\":19665:19688   */\n      swap1\n      pop\n        /* \"#utility.yul\":19736:19740   */\n      0x20\n        /* \"#utility.yul\":19728:19734   */\n      dup5\n        /* \"#utility.yul\":19724:19741   */\n      mul\n        /* \"#utility.yul\":19716:19722   */\n      dup4\n        /* \"#utility.yul\":19712:19742   */\n      add\n        /* \"#utility.yul\":19765:19768   */\n      dup6\n        /* \"#utility.yul\":19757:19763   */\n      dup2\n        /* \"#utility.yul\":19754:19769   */\n      gt\n        /* \"#utility.yul\":19751:19873   */\n      iszero\n      tag_727\n      jumpi\n        /* \"#utility.yul\":19784:19863   */\n      tag_728\n      tag_530\n      jump\t// in\n    tag_728:\n        /* \"#utility.yul\":19751:19873   */\n    tag_727:\n        /* \"#utility.yul\":19899:19905   */\n      dup4\n        /* \"#utility.yul\":19882:20317   */\n    tag_729:\n        /* \"#utility.yul\":19916:19922   */\n      dup2\n        /* \"#utility.yul\":19911:19914   */\n      dup2\n        /* \"#utility.yul\":19908:19923   */\n      lt\n        /* \"#utility.yul\":19882:20317   */\n      iszero\n      tag_731\n      jumpi\n        /* \"#utility.yul\":20005:20008   */\n      dup1\n        /* \"#utility.yul\":19992:20009   */\n      calldataload\n        /* \"#utility.yul\":20041:20059   */\n      0xffffffffffffffff\n        /* \"#utility.yul\":20028:20039   */\n      dup2\n        /* \"#utility.yul\":20025:20060   */\n      gt\n        /* \"#utility.yul\":20022:20144   */\n      iszero\n      tag_732\n      jumpi\n        /* \"#utility.yul\":20063:20142   */\n      tag_733\n      tag_510\n      jump\t// in\n    tag_733:\n        /* \"#utility.yul\":20022:20144   */\n    tag_732:\n        /* \"#utility.yul\":20187:20198   */\n      dup1\n        /* \"#utility.yul\":20179:20185   */\n      dup7\n        /* \"#utility.yul\":20175:20199   */\n      add\n        /* \"#utility.yul\":20225:20272   */\n      tag_734\n        /* \"#utility.yul\":20268:20271   */\n      dup10\n        /* \"#utility.yul\":20256:20266   */\n      dup3\n        /* \"#utility.yul\":20225:20272   */\n      tag_518\n      jump\t// in\n    tag_734:\n        /* \"#utility.yul\":20220:20223   */\n      dup6\n        /* \"#utility.yul\":20213:20273   */\n      mstore\n        /* \"#utility.yul\":20302:20306   */\n      0x20\n        /* \"#utility.yul\":20297:20300   */\n      dup6\n        /* \"#utility.yul\":20293:20307   */\n      add\n        /* \"#utility.yul\":20286:20307   */\n      swap5\n      pop\n        /* \"#utility.yul\":19958:20317   */\n      pop\n      pop\n        /* \"#utility.yul\":19942:19946   */\n      0x20\n        /* \"#utility.yul\":19937:19940   */\n      dup2\n        /* \"#utility.yul\":19933:19947   */\n      add\n        /* \"#utility.yul\":19926:19947   */\n      swap1\n      pop\n        /* \"#utility.yul\":19882:20317   */\n      jump(tag_729)\n    tag_731:\n        /* \"#utility.yul\":19886:19907   */\n      pop\n        /* \"#utility.yul\":19490:20323   */\n      pop\n      pop\n        /* \"#utility.yul\":19378:20323   */\n      swap4\n      swap3\n      pop\n      pop\n      pop\n      jump\t// out\n        /* \"#utility.yul\":20345:20735   */\n    tag_532:\n        /* \"#utility.yul\":20426:20431   */\n      0x00\n        /* \"#utility.yul\":20475:20478   */\n      dup3\n        /* \"#utility.yul\":20468:20472   */\n      0x1f\n        /* \"#utility.yul\":20460:20466   */\n      dup4\n        /* \"#utility.yul\":20456:20473   */\n      add\n        /* \"#utility.yul\":20452:20479   */\n      slt\n        /* \"#utility.yul\":20442:20564   */\n      tag_736\n      jumpi\n        /* \"#utility.yul\":20483:20562   */\n      tag_737\n      tag_510\n      jump\t// in\n    tag_737:\n        /* \"#utility.yul\":20442:20564   */\n    tag_736:\n        /* \"#utility.yul\":20600:20606   */\n      dup2\n        /* \"#utility.yul\":20587:20607   */\n      calldataload\n        /* \"#utility.yul\":20625:20729   */\n      tag_738\n        /* \"#utility.yul\":20725:20728   */\n      dup5\n        /* \"#utility.yul\":20717:20723   */\n      dup3\n        /* \"#utility.yul\":20710:20714   */\n      0x20\n        /* \"#utility.yul\":20702:20708   */\n      dup7\n        /* \"#utility.yul\":20698:20715   */\n      add\n        /* \"#utility.yul\":20625:20729   */\n      tag_531\n      jump\t// in\n    tag_738:\n        /* \"#utility.yul\":20616:20729   */\n      swap2\n      pop\n        /* \"#utility.yul\":20432:20735   */\n      pop\n        /* \"#utility.yul\":20345:20735   */\n      swap3\n      swap2\n      pop\n      pop\n      jump\t// out\n        /* \"#utility.yul\":20741:21625   */\n    tag_69:\n        /* \"#utility.yul\":20854:20860   */\n      0x00\n        /* \"#utility.yul\":20862:20868   */\n      dup1\n        /* \"#utility.yul\":20911:20913   */\n      0x40\n        /* \"#utility.yul\":20899:20908   */\n      dup4\n        /* \"#utility.yul\":20890:20897   */\n      dup6\n        /* \"#utility.yul\":20886:20909   */\n      sub\n        /* \"#utility.yul\":20882:20914   */\n      slt\n        /* \"#utility.yul\":20879:20998   */\n      iszero\n      tag_740\n      jumpi\n        /* \"#utility.yul\":20917:20996   */\n      tag_741\n      tag_497\n      jump\t// in\n    tag_741:\n        /* \"#utility.yul\":20879:20998   */\n    tag_740:\n        /* \"#utility.yul\":21065:21066   */\n      0x00\n        /* \"#utility.yul\":21054:21063   */\n      dup4\n        /* \"#utility.yul\":21050:21067   */\n      add\n        /* \"#utility.yul\":21037:21068   */\n      calldataload\n        /* \"#utility.yul\":21095:21113   */\n      0xffffffffffffffff\n        /* \"#utility.yul\":21087:21093   */\n      dup2\n        /* \"#utility.yul\":21084:21114   */\n      gt\n        /* \"#utility.yul\":21081:21198   */\n      iszero\n      tag_742\n      jumpi\n        /* \"#utility.yul\":21117:21196   */\n      tag_743\n      tag_498\n      jump\t// in\n    tag_743:\n        /* \"#utility.yul\":21081:21198   */\n    tag_742:\n        /* \"#utility.yul\":21222:21285   */\n      tag_744\n        /* \"#utility.yul\":21277:21284   */\n      dup6\n        /* \"#utility.yul\":21268:21274   */\n      dup3\n        /* \"#utility.yul\":21257:21266   */\n      dup7\n        /* \"#utility.yul\":21253:21275   */\n      add\n        /* \"#utility.yul\":21222:21285   */\n      tag_518\n      jump\t// in\n    tag_744:\n        /* \"#utility.yul\":21212:21285   */\n      swap3\n      pop\n        /* \"#utility.yul\":21008:21295   */\n      pop\n        /* \"#utility.yul\":21362:21364   */\n      0x20\n        /* \"#utility.yul\":21351:21360   */\n      dup4\n        /* \"#utility.yul\":21347:21365   */\n      add\n        /* \"#utility.yul\":21334:21366   */\n      calldataload\n        /* \"#utility.yul\":21393:21411   */\n      0xffffffffffffffff\n        /* \"#utility.yul\":21385:21391   */\n      dup2\n        /* \"#utility.yul\":21382:21412   */\n      gt\n        /* \"#utility.yul\":21379:21496   */\n      iszero\n      tag_745\n      jumpi\n        /* \"#utility.yul\":21415:21494   */\n      tag_746\n      tag_498\n      jump\t// in\n    tag_746:\n        /* \"#utility.yul\":21379:21496   */\n    tag_745:\n        /* \"#utility.yul\":21520:21608   */\n      tag_747\n        /* \"#utility.yul\":21600:21607   */\n      dup6\n        /* \"#utility.yul\":21591:21597   */\n      dup3\n        /* \"#utility.yul\":21580:21589   */\n      dup7\n        /* \"#utility.yul\":21576:21598   */\n      add\n        /* \"#utility.yul\":21520:21608   */\n      tag_532\n      jump\t// in\n    tag_747:\n        /* \"#utility.yul\":21510:21608   */\n      swap2\n      pop\n        /* \"#utility.yul\":21305:21618   */\n      pop\n        /* \"#utility.yul\":20741:21625   */\n      swap3\n      pop\n      swap3\n      swap1\n      pop\n      jump\t// out\n        /* \"#utility.yul\":21631:22515   */\n    tag_74:\n        /* \"#utility.yul\":21744:21750   */\n      0x00\n        /* \"#utility.yul\":21752:21758   */\n      dup1\n        /* \"#utility.yul\":21801:21803   */\n      0x40\n        /* \"#utility.yul\":21789:21798   */\n      dup4\n        /* \"#utility.yul\":21780:21787   */\n      dup6\n        /* \"#utility.yul\":21776:21799   */\n      sub\n        /* \"#utility.yul\":21772:21804   */\n      slt\n        /* \"#utility.yul\":21769:21888   */\n      iszero\n      tag_749\n      jumpi\n        /* \"#utility.yul\":21807:21886   */\n      tag_750\n      tag_497\n      jump\t// in\n    tag_750:\n        /* \"#utility.yul\":21769:21888   */\n    tag_749:\n        /* \"#utility.yul\":21955:21956   */\n      0x00\n        /* \"#utility.yul\":21944:21953   */\n      dup4\n        /* \"#utility.yul\":21940:21957   */\n      add\n        /* \"#utility.yul\":21927:21958   */\n      calldataload\n        /* \"#utility.yul\":21985:22003   */\n      0xffffffffffffffff\n        /* \"#utility.yul\":21977:21983   */\n      dup2\n        /* \"#utility.yul\":21974:22004   */\n      gt\n        /* \"#utility.yul\":21971:22088   */\n      iszero\n      tag_751\n      jumpi\n        /* \"#utility.yul\":22007:22086   */\n      tag_752\n      tag_498\n      jump\t// in\n    tag_752:\n        /* \"#utility.yul\":21971:22088   */\n    tag_751:\n        /* \"#utility.yul\":22112:22200   */\n      tag_753\n        /* \"#utility.yul\":22192:22199   */\n      dup6\n        /* \"#utility.yul\":22183:22189   */\n      dup3\n        /* \"#utility.yul\":22172:22181   */\n      dup7\n        /* \"#utility.yul\":22168:22190   */\n      add\n        /* \"#utility.yul\":22112:22200   */\n      tag_532\n      jump\t// in\n    tag_753:\n        /* \"#utility.yul\":22102:22200   */\n      swap3\n      pop\n        /* \"#utility.yul\":21898:22210   */\n      pop\n        /* \"#utility.yul\":22277:22279   */\n      0x20\n        /* \"#utility.yul\":22266:22275   */\n      dup4\n        /* \"#utility.yul\":22262:22280   */\n      add\n        /* \"#utility.yul\":22249:22281   */\n      calldataload\n        /* \"#utility.yul\":22308:22326   */\n      0xffffffffffffffff\n        /* \"#utility.yul\":22300:22306   */\n      dup2\n        /* \"#utility.yul\":22297:22327   */\n      gt\n        /* \"#utility.yul\":22294:22411   */\n      iszero\n      tag_754\n      jumpi\n        /* \"#utility.yul\":22330:22409   */\n      tag_755\n      tag_498\n      jump\t// in\n    tag_755:\n        /* \"#utility.yul\":22294:22411   */\n    tag_754:\n        /* \"#utility.yul\":22435:22498   */\n      tag_756\n        /* \"#utility.yul\":22490:22497   */\n      dup6\n        /* \"#utility.yul\":22481:22487   */\n      dup3\n        /* \"#utility.yul\":22470:22479   */\n      dup7\n        /* \"#utility.yul\":22466:22488   */\n      add\n        /* \"#utility.yul\":22435:22498   */\n      tag_518\n      jump\t// in\n    tag_756:\n        /* \"#utility.yul\":22425:22498   */\n      swap2\n      pop\n        /* \"#utility.yul\":22220:22508   */\n      pop\n        /* \"#utility.yul\":21631:22515   */\n      swap3\n      pop\n      swap3\n      swap1\n      pop\n      jump\t// out\n        /* \"#utility.yul\":22521:24950   */\n    tag_81:\n        /* \"#utility.yul\":22703:22709   */\n      0x00\n        /* \"#utility.yul\":22711:22717   */\n      dup1\n        /* \"#utility.yul\":22719:22725   */\n      0x00\n        /* \"#utility.yul\":22727:22733   */\n      dup1\n        /* \"#utility.yul\":22735:22741   */\n      0x00\n        /* \"#utility.yul\":22743:22749   */\n      dup1\n        /* \"#utility.yul\":22751:22757   */\n      0x00\n        /* \"#utility.yul\":22759:22765   */\n      dup1\n        /* \"#utility.yul\":22808:22811   */\n      0x0100\n        /* \"#utility.yul\":22796:22805   */\n      dup10\n        /* \"#utility.yul\":22787:22794   */\n      dup12\n        /* \"#utility.yul\":22783:22806   */\n      sub\n        /* \"#utility.yul\":22779:22812   */\n      slt\n        /* \"#utility.yul\":22776:22896   */\n      iszero\n      tag_758\n      jumpi\n        /* \"#utility.yul\":22815:22894   */\n      tag_759\n      tag_497\n      jump\t// in\n    tag_759:\n        /* \"#utility.yul\":22776:22896   */\n    tag_758:\n        /* \"#utility.yul\":22963:22964   */\n      0x00\n        /* \"#utility.yul\":22952:22961   */\n      dup10\n        /* \"#utility.yul\":22948:22965   */\n      add\n        /* \"#utility.yul\":22935:22966   */\n      calldataload\n        /* \"#utility.yul\":22993:23011   */\n      0xffffffffffffffff\n        /* \"#utility.yul\":22985:22991   */\n      dup2\n        /* \"#utility.yul\":22982:23012   */\n      gt\n        /* \"#utility.yul\":22979:23096   */\n      iszero\n      tag_760\n      jumpi\n        /* \"#utility.yul\":23015:23094   */\n      tag_761\n      tag_498\n      jump\t// in\n    tag_761:\n        /* \"#utility.yul\":22979:23096   */\n    tag_760:\n        /* \"#utility.yul\":23120:23183   */\n      tag_762\n        /* \"#utility.yul\":23175:23182   */\n      dup12\n        /* \"#utility.yul\":23166:23172   */\n      dup3\n        /* \"#utility.yul\":23155:23164   */\n      dup13\n        /* \"#utility.yul\":23151:23173   */\n      add\n        /* \"#utility.yul\":23120:23183   */\n      tag_518\n      jump\t// in\n    tag_762:\n        /* \"#utility.yul\":23110:23183   */\n      swap9\n      pop\n        /* \"#utility.yul\":22906:23193   */\n      pop\n        /* \"#utility.yul\":23260:23262   */\n      0x20\n        /* \"#utility.yul\":23249:23258   */\n      dup10\n        /* \"#utility.yul\":23245:23263   */\n      add\n        /* \"#utility.yul\":23232:23264   */\n      calldataload\n        /* \"#utility.yul\":23291:23309   */\n      0xffffffffffffffff\n        /* \"#utility.yul\":23283:23289   */\n      dup2\n        /* \"#utility.yul\":23280:23310   */\n      gt\n        /* \"#utility.yul\":23277:23394   */\n      iszero\n      tag_763\n      jumpi\n        /* \"#utility.yul\":23313:23392   */\n      tag_764\n      tag_498\n      jump\t// in\n    tag_764:\n        /* \"#utility.yul\":23277:23394   */\n    tag_763:\n        /* \"#utility.yul\":23418:23481   */\n      tag_765\n        /* \"#utility.yul\":23473:23480   */\n      dup12\n        /* \"#utility.yul\":23464:23470   */\n      dup3\n        /* \"#utility.yul\":23453:23462   */\n      dup13\n        /* \"#utility.yul\":23449:23471   */\n      add\n        /* \"#utility.yul\":23418:23481   */\n      tag_518\n      jump\t// in\n    tag_765:\n        /* \"#utility.yul\":23408:23481   */\n      swap8\n      pop\n        /* \"#utility.yul\":23203:23491   */\n      pop\n        /* \"#utility.yul\":23558:23560   */\n      0x40\n        /* \"#utility.yul\":23547:23556   */\n      dup10\n        /* \"#utility.yul\":23543:23561   */\n      add\n        /* \"#utility.yul\":23530:23562   */\n      calldataload\n        /* \"#utility.yul\":23589:23607   */\n      0xffffffffffffffff\n        /* \"#utility.yul\":23581:23587   */\n      dup2\n        /* \"#utility.yul\":23578:23608   */\n      gt\n        /* \"#utility.yul\":23575:23692   */\n      iszero\n      tag_766\n      jumpi\n        /* \"#utility.yul\":23611:23690   */\n      tag_767\n      tag_498\n      jump\t// in\n    tag_767:\n        /* \"#utility.yul\":23575:23692   */\n    tag_766:\n        /* \"#utility.yul\":23716:23779   */\n      tag_768\n        /* \"#utility.yul\":23771:23778   */\n      dup12\n        /* \"#utility.yul\":23762:23768   */\n      dup3\n        /* \"#utility.yul\":23751:23760   */\n      dup13\n        /* \"#utility.yul\":23747:23769   */\n      add\n        /* \"#utility.yul\":23716:23779   */\n      tag_518\n      jump\t// in\n    tag_768:\n        /* \"#utility.yul\":23706:23779   */\n      swap7\n      pop\n        /* \"#utility.yul\":23501:23789   */\n      pop\n        /* \"#utility.yul\":23856:23858   */\n      0x60\n        /* \"#utility.yul\":23845:23854   */\n      dup10\n        /* \"#utility.yul\":23841:23859   */\n      add\n        /* \"#utility.yul\":23828:23860   */\n      calldataload\n        /* \"#utility.yul\":23887:23905   */\n      0xffffffffffffffff\n        /* \"#utility.yul\":23879:23885   */\n      dup2\n        /* \"#utility.yul\":23876:23906   */\n      gt\n        /* \"#utility.yul\":23873:23990   */\n      iszero\n      tag_769\n      jumpi\n        /* \"#utility.yul\":23909:23988   */\n      tag_770\n      tag_498\n      jump\t// in\n    tag_770:\n        /* \"#utility.yul\":23873:23990   */\n    tag_769:\n        /* \"#utility.yul\":24014:24077   */\n      tag_771\n        /* \"#utility.yul\":24069:24076   */\n      dup12\n        /* \"#utility.yul\":24060:24066   */\n      dup3\n        /* \"#utility.yul\":24049:24058   */\n      dup13\n        /* \"#utility.yul\":24045:24067   */\n      add\n        /* \"#utility.yul\":24014:24077   */\n      tag_518\n      jump\t// in\n    tag_771:\n        /* \"#utility.yul\":24004:24077   */\n      swap6\n      pop\n        /* \"#utility.yul\":23799:24087   */\n      pop\n        /* \"#utility.yul\":24154:24157   */\n      0x80\n        /* \"#utility.yul\":24143:24152   */\n      dup10\n        /* \"#utility.yul\":24139:24158   */\n      add\n        /* \"#utility.yul\":24126:24159   */\n      calldataload\n        /* \"#utility.yul\":24186:24204   */\n      0xffffffffffffffff\n        /* \"#utility.yul\":24178:24184   */\n      dup2\n        /* \"#utility.yul\":24175:24205   */\n      gt\n        /* \"#utility.yul\":24172:24289   */\n      iszero\n      tag_772\n      jumpi\n        /* \"#utility.yul\":24208:24287   */\n      tag_773\n      tag_498\n      jump\t// in\n    tag_773:\n        /* \"#utility.yul\":24172:24289   */\n    tag_772:\n        /* \"#utility.yul\":24313:24376   */\n      tag_774\n        /* \"#utility.yul\":24368:24375   */\n      dup12\n        /* \"#utility.yul\":24359:24365   */\n      dup3\n        /* \"#utility.yul\":24348:24357   */\n      dup13\n        /* \"#utility.yul\":24344:24366   */\n      add\n        /* \"#utility.yul\":24313:24376   */\n      tag_518\n      jump\t// in\n    tag_774:\n        /* \"#utility.yul\":24303:24376   */\n      swap5\n      pop\n        /* \"#utility.yul\":24097:24386   */\n      pop\n        /* \"#utility.yul\":24425:24428   */\n      0xa0\n        /* \"#utility.yul\":24452:24505   */\n      tag_775\n        /* \"#utility.yul\":24497:24504   */\n      dup12\n        /* \"#utility.yul\":24488:24494   */\n      dup3\n        /* \"#utility.yul\":24477:24486   */\n      dup13\n        /* \"#utility.yul\":24473:24495   */\n      add\n        /* \"#utility.yul\":24452:24505   */\n      tag_500\n      jump\t// in\n    tag_775:\n        /* \"#utility.yul\":24442:24505   */\n      swap4\n      pop\n        /* \"#utility.yul\":24396:24515   */\n      pop\n        /* \"#utility.yul\":24554:24557   */\n      0xc0\n        /* \"#utility.yul\":24581:24634   */\n      tag_776\n        /* \"#utility.yul\":24626:24633   */\n      dup12\n        /* \"#utility.yul\":24617:24623   */\n      dup3\n        /* \"#utility.yul\":24606:24615   */\n      dup13\n        /* \"#utility.yul\":24602:24624   */\n      add\n        /* \"#utility.yul\":24581:24634   */\n      tag_500\n      jump\t// in\n    tag_776:\n        /* \"#utility.yul\":24571:24634   */\n      swap3\n      pop\n        /* \"#utility.yul\":24525:24644   */\n      pop\n        /* \"#utility.yul\":24711:24714   */\n      0xe0\n        /* \"#utility.yul\":24700:24709   */\n      dup10\n        /* \"#utility.yul\":24696:24715   */\n      add\n        /* \"#utility.yul\":24683:24716   */\n      calldataload\n        /* \"#utility.yul\":24743:24761   */\n      0xffffffffffffffff\n        /* \"#utility.yul\":24735:24741   */\n      dup2\n        /* \"#utility.yul\":24732:24762   */\n      gt\n        /* \"#utility.yul\":24729:24846   */\n      iszero\n      tag_777\n      jumpi\n        /* \"#utility.yul\":24765:24844   */\n      tag_778\n      tag_498\n      jump\t// in\n    tag_778:\n        /* \"#utility.yul\":24729:24846   */\n    tag_777:\n        /* \"#utility.yul\":24870:24933   */\n      tag_779\n        /* \"#utility.yul\":24925:24932   */\n      dup12\n        /* \"#utility.yul\":24916:24922   */\n      dup3\n        /* \"#utility.yul\":24905:24914   */\n      dup13\n        /* \"#utility.yul\":24901:24923   */\n      add\n        /* \"#utility.yul\":24870:24933   */\n      tag_518\n      jump\t// in\n    tag_779:\n        /* \"#utility.yul\":24860:24933   */\n      swap2\n      pop\n        /* \"#utility.yul\":24654:24943   */\n      pop\n        /* \"#utility.yul\":22521:24950   */\n      swap3\n      swap6\n      swap9\n      pop\n      swap3\n      swap6\n      swap9\n      swap1\n      swap4\n      swap7\n      pop\n      jump\t// out\n        /* \"#utility.yul\":24956:25072   */\n    tag_533:\n        /* \"#utility.yul\":25026:25047   */\n      tag_781\n        /* \"#utility.yul\":25041:25046   */\n      dup2\n        /* \"#utility.yul\":25026:25047   */\n      tag_506\n      jump\t// in\n    tag_781:\n        /* \"#utility.yul\":25019:25024   */\n      dup2\n        /* \"#utility.yul\":25016:25048   */\n      eq\n        /* \"#utility.yul\":25006:25066   */\n      tag_782\n      jumpi\n        /* \"#utility.yul\":25062:25063   */\n      0x00\n        /* \"#utility.yul\":25059:25060   */\n      dup1\n        /* \"#utility.yul\":25052:25064   */\n      revert\n        /* \"#utility.yul\":25006:25066   */\n    tag_782:\n        /* \"#utility.yul\":24956:25072   */\n      pop\n      jump\t// out\n        /* \"#utility.yul\":25078:25211   */\n    tag_534:\n        /* \"#utility.yul\":25121:25126   */\n      0x00\n        /* \"#utility.yul\":25159:25165   */\n      dup2\n        /* \"#utility.yul\":25146:25166   */\n      calldataload\n        /* \"#utility.yul\":25137:25166   */\n      swap1\n      pop\n        /* \"#utility.yul\":25175:25205   */\n      tag_784\n        /* \"#utility.yul\":25199:25204   */\n      dup2\n        /* \"#utility.yul\":25175:25205   */\n      tag_533\n      jump\t// in\n    tag_784:\n        /* \"#utility.yul\":25078:25211   */\n      swap3\n      swap2\n      pop\n      pop\n      jump\t// out\n        /* \"#utility.yul\":25217:25685   */\n    tag_89:\n        /* \"#utility.yul\":25282:25288   */\n      0x00\n        /* \"#utility.yul\":25290:25296   */\n      dup1\n        /* \"#utility.yul\":25339:25341   */\n      0x40\n        /* \"#utility.yul\":25327:25336   */\n      dup4\n        /* \"#utility.yul\":25318:25325   */\n      dup6\n        /* \"#utility.yul\":25314:25337   */\n      sub\n        /* \"#utility.yul\":25310:25342   */\n      slt\n        /* \"#utility.yul\":25307:25426   */\n      iszero\n      tag_786\n      jumpi\n        /* \"#utility.yul\":25345:25424   */\n      tag_787\n      tag_497\n      jump\t// in\n    tag_787:\n        /* \"#utility.yul\":25307:25426   */\n    tag_786:\n        /* \"#utility.yul\":25465:25466   */\n      0x00\n        /* \"#utility.yul\":25490:25540   */\n      tag_788\n        /* \"#utility.yul\":25532:25539   */\n      dup6\n        /* \"#utility.yul\":25523:25529   */\n      dup3\n        /* \"#utility.yul\":25512:25521   */\n      dup7\n        /* \"#utility.yul\":25508:25530   */\n      add\n        /* \"#utility.yul\":25490:25540   */\n      tag_534\n      jump\t// in\n    tag_788:\n        /* \"#utility.yul\":25480:25540   */\n      swap3\n      pop\n        /* \"#utility.yul\":25436:25550   */\n      pop\n        /* \"#utility.yul\":25589:25591   */\n      0x20\n        /* \"#utility.yul\":25615:25668   */\n      tag_789\n        /* \"#utility.yul\":25660:25667   */\n      dup6\n        /* \"#utility.yul\":25651:25657   */\n      dup3\n        /* \"#utility.yul\":25640:25649   */\n      dup7\n        /* \"#utility.yul\":25636:25658   */\n      add\n        /* \"#utility.yul\":25615:25668   */\n      tag_500\n      jump\t// in\n    tag_789:\n        /* \"#utility.yul\":25605:25668   */\n      swap2\n      pop\n        /* \"#utility.yul\":25560:25678   */\n      pop\n        /* \"#utility.yul\":25217:25685   */\n      swap3\n      pop\n      swap3\n      swap1\n      pop\n      jump\t// out\n        /* \"#utility.yul\":25691:25817   */\n    tag_535:\n        /* \"#utility.yul\":25728:25735   */\n      0x00\n        /* \"#utility.yul\":25768:25810   */\n      0xffffffffffffffffffffffffffffffffffffffff\n        /* \"#utility.yul\":25761:25766   */\n      dup3\n        /* \"#utility.yul\":25757:25811   */\n      and\n        /* \"#utility.yul\":25746:25811   */\n      swap1\n      pop\n        /* \"#utility.yul\":25691:25817   */\n      swap2\n      swap1\n      pop\n      jump\t// out\n        /* \"#utility.yul\":25823:25919   */\n    tag_536:\n        /* \"#utility.yul\":25860:25867   */\n      0x00\n        /* \"#utility.yul\":25889:25913   */\n      tag_792\n        /* \"#utility.yul\":25907:25912   */\n      dup3\n        /* \"#utility.yul\":25889:25913   */\n      tag_535\n      jump\t// in\n    tag_792:\n        /* \"#utility.yul\":25878:25913   */\n      swap1\n      pop\n        /* \"#utility.yul\":25823:25919   */\n      swap2\n      swap1\n      pop\n      jump\t// out\n        /* \"#utility.yul\":25925:26043   */\n    tag_537:\n        /* \"#utility.yul\":26012:26036   */\n      tag_794\n        /* \"#utility.yul\":26030:26035   */\n      dup2\n        /* \"#utility.yul\":26012:26036   */\n      tag_536\n      jump\t// in\n    tag_794:\n        /* \"#utility.yul\":26007:26010   */\n      dup3\n        /* \"#utility.yul\":26000:26037   */\n      mstore\n        /* \"#utility.yul\":25925:26043   */\n      pop\n      pop\n      jump\t// out\n        /* \"#utility.yul\":26049:26271   */\n    tag_97:\n        /* \"#utility.yul\":26142:26146   */\n      0x00\n        /* \"#utility.yul\":26180:26182   */\n      0x20\n        /* \"#utility.yul\":26169:26178   */\n      dup3\n        /* \"#utility.yul\":26165:26183   */\n      add\n        /* \"#utility.yul\":26157:26183   */\n      swap1\n      pop\n        /* \"#utility.yul\":26193:26264   */\n      tag_796\n        /* \"#utility.yul\":26261:26262   */\n      0x00\n        /* \"#utility.yul\":26250:26259   */\n      dup4\n        /* \"#utility.yul\":26246:26263   */\n      add\n        /* \"#utility.yul\":26237:26243   */\n      dup5\n        /* \"#utility.yul\":26193:26264   */\n      tag_537\n      jump\t// in\n    tag_796:\n        /* \"#utility.yul\":26049:26271   */\n      swap3\n      swap2\n      pop\n      pop\n      jump\t// out\n        /* \"#utility.yul\":26277:26931   */\n    tag_103:\n        /* \"#utility.yul\":26355:26361   */\n      0x00\n        /* \"#utility.yul\":26363:26369   */\n      dup1\n        /* \"#utility.yul\":26412:26414   */\n      0x40\n        /* \"#utility.yul\":26400:26409   */\n      dup4\n        /* \"#utility.yul\":26391:26398   */\n      dup6\n        /* \"#utility.yul\":26387:26410   */\n      sub\n        /* \"#utility.yul\":26383:26415   */\n      slt\n        /* \"#utility.yul\":26380:26499   */\n      iszero\n      tag_798\n      jumpi\n        /* \"#utility.yul\":26418:26497   */\n      tag_799\n      tag_497\n      jump\t// in\n    tag_799:\n        /* \"#utility.yul\":26380:26499   */\n    tag_798:\n        /* \"#utility.yul\":26566:26567   */\n      0x00\n        /* \"#utility.yul\":26555:26564   */\n      dup4\n        /* \"#utility.yul\":26551:26568   */\n      add\n        /* \"#utility.yul\":26538:26569   */\n      calldataload\n        /* \"#utility.yul\":26596:26614   */\n      0xffffffffffffffff\n        /* \"#utility.yul\":26588:26594   */\n      dup2\n        /* \"#utility.yul\":26585:26615   */\n      gt\n        /* \"#utility.yul\":26582:26699   */\n      iszero\n      tag_800\n      jumpi\n        /* \"#utility.yul\":26618:26697   */\n      tag_801\n      tag_498\n      jump\t// in\n    tag_801:\n        /* \"#utility.yul\":26582:26699   */\n    tag_800:\n        /* \"#utility.yul\":26723:26786   */\n      tag_802\n        /* \"#utility.yul\":26778:26785   */\n      dup6\n        /* \"#utility.yul\":26769:26775   */\n      dup3\n        /* \"#utility.yul\":26758:26767   */\n      dup7\n        /* \"#utility.yul\":26754:26776   */\n      add\n        /* \"#utility.yul\":26723:26786   */\n      tag_518\n      jump\t// in\n    tag_802:\n        /* \"#utility.yul\":26713:26786   */\n      swap3\n      pop\n        /* \"#utility.yul\":26509:26796   */\n      pop\n        /* \"#utility.yul\":26835:26837   */\n      0x20\n        /* \"#utility.yul\":26861:26914   */\n      tag_803\n        /* \"#utility.yul\":26906:26913   */\n      dup6\n        /* \"#utility.yul\":26897:26903   */\n      dup3\n        /* \"#utility.yul\":26886:26895   */\n      dup7\n        /* \"#utility.yul\":26882:26904   */\n      add\n        /* \"#utility.yul\":26861:26914   */\n      tag_500\n      jump\t// in\n    tag_803:\n        /* \"#utility.yul\":26851:26914   */\n      swap2\n      pop\n        /* \"#utility.yul\":26806:26924   */\n      pop\n        /* \"#utility.yul\":26277:26931   */\n      swap3\n      pop\n      swap3\n      swap1\n      pop\n      jump\t// out\n        /* \"#utility.yul\":26937:27046   */\n    tag_538:\n        /* \"#utility.yul\":27018:27039   */\n      tag_805\n        /* \"#utility.yul\":27033:27038   */\n      dup2\n        /* \"#utility.yul\":27018:27039   */\n      tag_506\n      jump\t// in\n    tag_805:\n        /* \"#utility.yul\":27013:27016   */\n      dup3\n        /* \"#utility.yul\":27006:27040   */\n      mstore\n        /* \"#utility.yul\":26937:27046   */\n      pop\n      pop\n      jump\t// out\n        /* \"#utility.yul\":27052:27262   */\n    tag_112:\n        /* \"#utility.yul\":27139:27143   */\n      0x00\n        /* \"#utility.yul\":27177:27179   */\n      0x20\n        /* \"#utility.yul\":27166:27175   */\n      dup3\n        /* \"#utility.yul\":27162:27180   */\n      add\n        /* \"#utility.yul\":27154:27180   */\n      swap1\n      pop\n        /* \"#utility.yul\":27190:27255   */\n      tag_807\n        /* \"#utility.yul\":27252:27253   */\n      0x00\n        /* \"#utility.yul\":27241:27250   */\n      dup4\n        /* \"#utility.yul\":27237:27254   */\n      add\n        /* \"#utility.yul\":27228:27234   */\n      dup5\n        /* \"#utility.yul\":27190:27255   */\n      tag_538\n      jump\t// in\n    tag_807:\n        /* \"#utility.yul\":27052:27262   */\n      swap3\n      swap2\n      pop\n      pop\n      jump\t// out\n        /* \"#utility.yul\":27268:27448   */\n    tag_539:\n        /* \"#utility.yul\":27316:27393   */\n      0x4e487b7100000000000000000000000000000000000000000000000000000000\n        /* \"#utility.yul\":27313:27314   */\n      0x00\n        /* \"#utility.yul\":27306:27394   */\n      mstore\n        /* \"#utility.yul\":27413:27417   */\n      0x22\n        /* \"#utility.yul\":27410:27411   */\n      0x04\n        /* \"#utility.yul\":27403:27418   */\n      mstore\n        /* \"#utility.yul\":27437:27441   */\n      0x24\n        /* \"#utility.yul\":27434:27435   */\n      0x00\n        /* \"#utility.yul\":27427:27442   */\n      revert\n        /* \"#utility.yul\":27454:27774   */\n    tag_136:\n        /* \"#utility.yul\":27498:27504   */\n      0x00\n        /* \"#utility.yul\":27535:27536   */\n      0x02\n        /* \"#utility.yul\":27529:27533   */\n      dup3\n        /* \"#utility.yul\":27525:27537   */\n      div\n        /* \"#utility.yul\":27515:27537   */\n      swap1\n      pop\n        /* \"#utility.yul\":27582:27583   */\n      0x01\n        /* \"#utility.yul\":27576:27580   */\n      dup3\n        /* \"#utility.yul\":27572:27584   */\n      and\n        /* \"#utility.yul\":27603:27621   */\n      dup1\n        /* \"#utility.yul\":27593:27674   */\n      tag_810\n      jumpi\n        /* \"#utility.yul\":27659:27663   */\n      0x7f\n        /* \"#utility.yul\":27651:27657   */\n      dup3\n        /* \"#utility.yul\":27647:27664   */\n      and\n        /* \"#utility.yul\":27637:27664   */\n      swap2\n      pop\n        /* \"#utility.yul\":27593:27674   */\n    tag_810:\n        /* \"#utility.yul\":27721:27723   */\n      0x20\n        /* \"#utility.yul\":27713:27719   */\n      dup3\n        /* \"#utility.yul\":27710:27724   */\n      lt\n        /* \"#utility.yul\":27690:27708   */\n      dup2\n        /* \"#utility.yul\":27687:27725   */\n      sub\n        /* \"#utility.yul\":27684:27768   */\n      tag_811\n      jumpi\n        /* \"#utility.yul\":27740:27758   */\n      tag_812\n      tag_539\n      jump\t// in\n    tag_812:\n        /* \"#utility.yul\":27684:27768   */\n    tag_811:\n        /* \"#utility.yul\":27505:27774   */\n      pop\n        /* \"#utility.yul\":27454:27774   */\n      swap2\n      swap1\n      pop\n      jump\t// out\n        /* \"#utility.yul\":27780:27928   */\n    tag_540:\n        /* \"#utility.yul\":27882:27893   */\n      0x00\n        /* \"#utility.yul\":27919:27922   */\n      dup2\n        /* \"#utility.yul\":27904:27922   */\n      swap1\n      pop\n        /* \"#utility.yul\":27780:27928   */\n      swap3\n      swap2\n      pop\n      pop\n      jump\t// out\n        /* \"#utility.yul\":27934:28324   */\n    tag_541:\n        /* \"#utility.yul\":28040:28043   */\n      0x00\n        /* \"#utility.yul\":28068:28107   */\n      tag_815\n        /* \"#utility.yul\":28101:28106   */\n      dup3\n        /* \"#utility.yul\":28068:28107   */\n      tag_501\n      jump\t// in\n    tag_815:\n        /* \"#utility.yul\":28123:28212   */\n      tag_816\n        /* \"#utility.yul\":28205:28211   */\n      dup2\n        /* \"#utility.yul\":28200:28203   */\n      dup6\n        /* \"#utility.yul\":28123:28212   */\n      tag_540\n      jump\t// in\n    tag_816:\n        /* \"#utility.yul\":28116:28212   */\n      swap4\n      pop\n        /* \"#utility.yul\":28221:28286   */\n      tag_817\n        /* \"#utility.yul\":28279:28285   */\n      dup2\n        /* \"#utility.yul\":28274:28277   */\n      dup6\n        /* \"#utility.yul\":28267:28271   */\n      0x20\n        /* \"#utility.yul\":28260:28265   */\n      dup7\n        /* \"#utility.yul\":28256:28272   */\n      add\n        /* \"#utility.yul\":28221:28286   */\n      tag_503\n      jump\t// in\n    tag_817:\n        /* \"#utility.yul\":28311:28317   */\n      dup1\n        /* \"#utility.yul\":28306:28309   */\n      dup5\n        /* \"#utility.yul\":28302:28318   */\n      add\n        /* \"#utility.yul\":28295:28318   */\n      swap2\n      pop\n        /* \"#utility.yul\":28044:28324   */\n      pop\n        /* \"#utility.yul\":27934:28324   */\n      swap3\n      swap2\n      pop\n      pop\n      jump\t// out\n        /* \"#utility.yul\":28330:28605   */\n    tag_155:\n        /* \"#utility.yul\":28462:28465   */\n      0x00\n        /* \"#utility.yul\":28484:28579   */\n      tag_819\n        /* \"#utility.yul\":28575:28578   */\n      dup3\n        /* \"#utility.yul\":28566:28572   */\n      dup5\n        /* \"#utility.yul\":28484:28579   */\n      tag_541\n      jump\t// in\n    tag_819:\n        /* \"#utility.yul\":28477:28579   */\n      swap2\n      pop\n        /* \"#utility.yul\":28596:28599   */\n      dup2\n        /* \"#utility.yul\":28589:28599   */\n      swap1\n      pop\n        /* \"#utility.yul\":28330:28605   */\n      swap3\n      swap2\n      pop\n      pop\n      jump\t// out\n        /* \"#utility.yul\":28611:28752   */\n    tag_542:\n        /* \"#utility.yul\":28660:28664   */\n      0x00\n        /* \"#utility.yul\":28683:28686   */\n      dup2\n        /* \"#utility.yul\":28675:28686   */\n      swap1\n      pop\n        /* \"#utility.yul\":28706:28709   */\n      dup2\n        /* \"#utility.yul\":28703:28704   */\n      0x00\n        /* \"#utility.yul\":28696:28710   */\n      mstore\n        /* \"#utility.yul\":28740:28744   */\n      0x20\n        /* \"#utility.yul\":28737:28738   */\n      0x00\n        /* \"#utility.yul\":28727:28745   */\n      keccak256\n        /* \"#utility.yul\":28719:28745   */\n      swap1\n      pop\n        /* \"#utility.yul\":28611:28752   */\n      swap2\n      swap1\n      pop\n      jump\t// out\n        /* \"#utility.yul\":28758:28851   */\n    tag_543:\n        /* \"#utility.yul\":28795:28801   */\n      0x00\n        /* \"#utility.yul\":28842:28844   */\n      0x20\n        /* \"#utility.yul\":28837:28839   */\n      0x1f\n        /* \"#utility.yul\":28830:28835   */\n      dup4\n        /* \"#utility.yul\":28826:28840   */\n      add\n        /* \"#utility.yul\":28822:28845   */\n      div\n        /* \"#utility.yul\":28812:28845   */\n      swap1\n      pop\n        /* \"#utility.yul\":28758:28851   */\n      swap2\n      swap1\n      pop\n      jump\t// out\n        /* \"#utility.yul\":28857:28964   */\n    tag_544:\n        /* \"#utility.yul\":28901:28909   */\n      0x00\n        /* \"#utility.yul\":28951:28956   */\n      dup3\n        /* \"#utility.yul\":28945:28949   */\n      dup3\n        /* \"#utility.yul\":28941:28957   */\n      shl\n        /* \"#utility.yul\":28920:28957   */\n      swap1\n      pop\n        /* \"#utility.yul\":28857:28964   */\n      swap3\n      swap2\n      pop\n      pop\n      jump\t// out\n        /* \"#utility.yul\":28970:29363   */\n    tag_545:\n        /* \"#utility.yul\":29039:29045   */\n      0x00\n        /* \"#utility.yul\":29089:29090   */\n      0x08\n        /* \"#utility.yul\":29077:29087   */\n      dup4\n        /* \"#utility.yul\":29073:29091   */\n      mul\n        /* \"#utility.yul\":29112:29209   */\n      tag_824\n        /* \"#utility.yul\":29142:29208   */\n      0xffffffffffffffffffffffffffffffffffffffffffffffffffffffffffffffff\n        /* \"#utility.yul\":29131:29140   */\n      dup3\n        /* \"#utility.yul\":29112:29209   */\n      tag_544\n      jump\t// in\n    tag_824:\n        /* \"#utility.yul\":29230:29269   */\n      tag_825\n        /* \"#utility.yul\":29260:29268   */\n      dup7\n        /* \"#utility.yul\":29249:29258   */\n      dup4\n        /* \"#utility.yul\":29230:29269   */\n      tag_544\n      jump\t// in\n    tag_825:\n        /* \"#utility.yul\":29218:29269   */\n      swap6\n      pop\n        /* \"#utility.yul\":29302:29306   */\n      dup1\n        /* \"#utility.yul\":29298:29307   */\n      not\n        /* \"#utility.yul\":29291:29296   */\n      dup5\n        /* \"#utility.yul\":29287:29308   */\n      and\n        /* \"#utility.yul\":29278:29308   */\n      swap4\n      pop\n        /* \"#utility.yul\":29351:29355   */\n      dup1\n        /* \"#utility.yul\":29341:29349   */\n      dup7\n        /* \"#utility.yul\":29337:29356   */\n      and\n        /* \"#utility.yul\":29330:29335   */\n      dup5\n        /* \"#utility.yul\":29327:29357   */\n      or\n        /* \"#utility.yul\":29317:29357   */\n      swap3\n      pop\n        /* \"#utility.yul\":29046:29363   */\n      pop\n      pop\n        /* \"#utility.yul\":28970:29363   */\n      swap4\n      swap3\n      pop\n      pop\n      pop\n      jump\t// out\n        /* \"#utility.yul\":29369:29429   */\n    tag_546:\n        /* \"#utility.yul\":29397:29400   */\n      0x00\n        /* \"#utility.yul\":29418:29423   */\n      dup2\n        /* \"#utility.yul\":29411:29423   */\n      swap1\n      pop\n        /* \"#utility.yul\":29369:29429   */\n      swap2\n      swap1\n      pop\n      jump\t// out\n        /* \"#utility.yul\":29435:29577   */\n    tag_547:\n        /* \"#utility.yul\":29485:29494   */\n      0x00\n        /* \"#utility.yul\":29518:29571   */\n      tag_828\n        /* \"#utility.yul\":29536:29570   */\n      tag_829\n        /* \"#utility.yul\":29545:29569   */\n      tag_830\n        /* \"#utility.yul\":29563:29568   */\n      dup5\n        /* \"#utility.yul\":29545:29569   */\n      tag_491\n      jump\t// in\n    tag_830:\n        /* \"#utility.yul\":29536:29570   */\n      tag_546\n      jump\t// in\n    tag_829:\n        /* \"#utility.yul\":29518:29571   */\n      tag_491\n      jump\t// in\n    tag_828:\n        /* \"#utility.yul\":29505:29571   */\n      swap1\n      pop\n        /* \"#utility.yul\":29435:29577   */\n      swap2\n      swap1\n      pop\n      jump\t// out\n        /* \"#utility.yul\":29583:29658   */\n    tag_548:\n        /* \"#utility.yul\":29626:29629   */\n      0x00\n        /* \"#utility.yul\":29647:29652   */\n      dup2\n        /* \"#utility.yul\":29640:29652   */\n      swap1\n      pop\n        /* \"#utility.yul\":29583:29658   */\n      swap2\n      swap1\n      pop\n      jump\t// out\n        /* \"#utility.yul\":29664:29933   */\n    tag_549:\n        /* \"#utility.yul\":29774:29813   */\n      tag_833\n        /* \"#utility.yul\":29805:29812   */\n      dup4\n        /* \"#utility.yul\":29774:29813   */\n      tag_547\n      jump\t// in\n    tag_833:\n        /* \"#utility.yul\":29835:29926   */\n      tag_834\n        /* \"#utility.yul\":29884:29925   */\n      tag_835\n        /* \"#utility.yul\":29908:29924   */\n      dup3\n        /* \"#utility.yul\":29884:29925   */\n      tag_548\n      jump\t// in\n    tag_835:\n        /* \"#utility.yul\":29876:29882   */\n      dup5\n        /* \"#utility.yul\":29869:29873   */\n      dup5\n        /* \"#utility.yul\":29863:29874   */\n      sload\n        /* \"#utility.yul\":29835:29926   */\n      tag_545\n      jump\t// in\n    tag_834:\n        /* \"#utility.yul\":29829:29833   */\n      dup3\n        /* \"#utility.yul\":29822:29927   */\n      sstore\n        /* \"#utility.yul\":29740:29933   */\n      pop\n        /* \"#utility.yul\":29664:29933   */\n      pop\n      pop\n      pop\n      jump\t// out\n        /* \"#utility.yul\":29939:30012   */\n    tag_550:\n        /* \"#utility.yul\":29984:29987   */\n      0x00\n        /* \"#utility.yul\":29939:30012   */\n      swap1\n      jump\t// out\n        /* \"#utility.yul\":30018:30207   */\n    tag_551:\n        /* \"#utility.yul\":30095:30127   */\n      tag_838\n      tag_550\n      jump\t// in\n    tag_838:\n        /* \"#utility.yul\":30136:30201   */\n      tag_839\n        /* \"#utility.yul\":30194:30200   */\n      dup2\n        /* \"#utility.yul\":30186:30192   */\n      dup5\n        /* \"#utility.yul\":30180:30184   */\n      dup5\n        /* \"#utility.yul\":30136:30201   */\n      tag_549\n      jump\t// in\n    tag_839:\n        /* \"#utility.yul\":30071:30207   */\n      pop\n        /* \"#utility.yul\":30018:30207   */\n      pop\n      pop\n      jump\t// out\n        /* \"#utility.yul\":30213:30399   */\n    tag_552:\n        /* \"#utility.yul\":30273:30393   */\n    tag_841:\n        /* \"#utility.yul\":30290:30293   */\n      dup2\n        /* \"#utility.yul\":30283:30288   */\n      dup2\n        /* \"#utility.yul\":30280:30294   */\n      lt\n        /* \"#utility.yul\":30273:30393   */\n      iszero\n      tag_843\n      jumpi\n        /* \"#utility.yul\":30344:30383   */\n      tag_844\n        /* \"#utility.yul\":30381:30382   */\n      0x00\n        /* \"#utility.yul\":30374:30379   */\n      dup3\n        /* \"#utility.yul\":30344:30383   */\n      tag_551\n      jump\t// in\n    tag_844:\n        /* \"#utility.yul\":30317:30318   */\n      0x01\n        /* \"#utility.yul\":30310:30315   */\n      dup2\n        /* \"#utility.yul\":30306:30319   */\n      add\n        /* \"#utility.yul\":30297:30319   */\n      swap1\n      pop\n        /* \"#utility.yul\":30273:30393   */\n      jump(tag_841)\n    tag_843:\n        /* \"#utility.yul\":30213:30399   */\n      pop\n      pop\n      jump\t// out\n        /* \"#utility.yul\":30405:30948   */\n    tag_553:\n        /* \"#utility.yul\":30506:30508   */\n      0x1f\n        /* \"#utility.yul\":30501:30504   */\n      dup3\n        /* \"#utility.yul\":30498:30509   */\n      gt\n        /* \"#utility.yul\":30495:30941   */\n      iszero\n      tag_846\n      jumpi\n        /* \"#utility.yul\":30540:30578   */\n      tag_847\n        /* \"#utility.yul\":30572:30577   */\n      dup2\n        /* \"#utility.yul\":30540:30578   */\n      tag_542\n      jump\t// in\n    tag_847:\n        /* \"#utility.yul\":30624:30653   */\n      tag_848\n        /* \"#utility.yul\":30642:30652   */\n      dup5\n        /* \"#utility.yul\":30624:30653   */\n      tag_543\n      jump\t// in\n    tag_848:\n        /* \"#utility.yul\":30614:30622   */\n      dup2\n        /* \"#utility.yul\":30610:30654   */\n      add\n        /* \"#utility.yul\":30807:30809   */\n      0x20\n        /* \"#utility.yul\":30795:30805   */\n      dup6\n        /* \"#utility.yul\":30792:30810   */\n      lt\n        /* \"#utility.yul\":30789:30838   */\n      iszero\n      tag_849\n      jumpi\n        /* \"#utility.yul\":30828:30836   */\n      dup2\n        /* \"#utility.yul\":30813:30836   */\n      swap1\n      pop\n        /* \"#utility.yul\":30789:30838   */\n    tag_849:\n        /* \"#utility.yul\":30851:30931   */\n      tag_850\n        /* \"#utility.yul\":30907:30929   */\n      tag_851\n        /* \"#utility.yul\":30925:30928   */\n      dup6\n        /* \"#utility.yul\":30907:30929   */\n      tag_543\n      jump\t// in\n    tag_851:\n        /* \"#utility.yul\":30897:30905   */\n      dup4\n        /* \"#utility.yul\":30893:30930   */\n      add\n        /* \"#utility.yul\":30880:30891   */\n      dup3\n        /* \"#utility.yul\":30851:30931   */\n      tag_552\n      jump\t// in\n    tag_850:\n        /* \"#utility.yul\":30510:30941   */\n      pop\n      pop\n        /* \"#utility.yul\":30495:30941   */\n    tag_846:\n        /* \"#utility.yul\":30405:30948   */\n      pop\n      pop\n      pop\n      jump\t// out\n        /* \"#utility.yul\":30954:31071   */\n    tag_554:\n        /* \"#utility.yul\":31008:31016   */\n      0x00\n        /* \"#utility.yul\":31058:31063   */\n      dup3\n        /* \"#utility.yul\":31052:31056   */\n      dup3\n        /* \"#utility.yul\":31048:31064   */\n      shr\n        /* \"#utility.yul\":31027:31064   */\n      swap1\n      pop\n        /* \"#utility.yul\":30954:31071   */\n      swap3\n      swap2\n      pop\n      pop\n      jump\t// out\n        /* \"#utility.yul\":31077:31246   */\n    tag_555:\n        /* \"#utility.yul\":31121:31127   */\n      0x00\n        /* \"#utility.yul\":31154:31205   */\n      tag_854\n        /* \"#utility.yul\":31202:31203   */\n      0x00\n        /* \"#utility.yul\":31198:31204   */\n      not\n        /* \"#utility.yul\":31190:31195   */\n      dup5\n        /* \"#utility.yul\":31187:31188   */\n      0x08\n        /* \"#utility.yul\":31183:31196   */\n      mul\n        /* \"#utility.yul\":31154:31205   */\n      tag_554\n      jump\t// in\n    tag_854:\n        /* \"#utility.yul\":31150:31206   */\n      not\n        /* \"#utility.yul\":31235:31239   */\n      dup1\n        /* \"#utility.yul\":31229:31233   */\n      dup4\n        /* \"#utility.yul\":31225:31240   */\n      and\n        /* \"#utility.yul\":31215:31240   */\n      swap2\n      pop\n        /* \"#utility.yul\":31128:31246   */\n      pop\n        /* \"#utility.yul\":31077:31246   */\n      swap3\n      swap2\n      pop\n      pop\n      jump\t// out\n        /* \"#utility.yul\":31251:31546   */\n    tag_556:\n        /* \"#utility.yul\":31327:31331   */\n      0x00\n        /* \"#utility.yul\":31473:31502   */\n      tag_856\n        /* \"#utility.yul\":31498:31501   */\n      dup4\n        /* \"#utility.yul\":31492:31496   */\n      dup4\n        /* \"#utility.yul\":31473:31502   */\n      tag_555\n      jump\t// in\n    tag_856:\n        /* \"#utility.yul\":31465:31502   */\n      swap2\n      pop\n        /* \"#utility.yul\":31535:31538   */\n      dup3\n        /* \"#utility.yul\":31532:31533   */\n      0x02\n        /* \"#utility.yul\":31528:31539   */\n      mul\n        /* \"#utility.yul\":31522:31526   */\n      dup3\n        /* \"#utility.yul\":31519:31540   */\n      or\n        /* \"#utility.yul\":31511:31540   */\n      swap1\n      pop\n        /* \"#utility.yul\":31251:31546   */\n      swap3\n      swap2\n      pop\n      pop\n      jump\t// out\n        /* \"#utility.yul\":31551:32946   */\n    tag_157:\n        /* \"#utility.yul\":31668:31705   */\n      tag_858\n        /* \"#utility.yul\":31701:31704   */\n      dup3\n        /* \"#utility.yul\":31668:31705   */\n      tag_501\n      jump\t// in\n    tag_858:\n        /* \"#utility.yul\":31770:31788   */\n      0xffffffffffffffff\n        /* \"#utility.yul\":31762:31768   */\n      dup2\n        /* \"#utility.yul\":31759:31789   */\n      gt\n        /* \"#utility.yul\":31756:31812   */\n      iszero\n      tag_859\n      jumpi\n        /* \"#utility.yul\":31792:31810   */\n      tag_860\n      tag_512\n      jump\t// in\n    tag_860:\n        /* \"#utility.yul\":31756:31812   */\n    tag_859:\n        /* \"#utility.yul\":31836:31874   */\n      tag_861\n        /* \"#utility.yul\":31868:31872   */\n      dup3\n        /* \"#utility.yul\":31862:31873   */\n      sload\n        /* \"#utility.yul\":31836:31874   */\n      tag_136\n      jump\t// in\n    tag_861:\n        /* \"#utility.yul\":31921:31988   */\n      tag_862\n        /* \"#utility.yul\":31981:31987   */\n      dup3\n        /* \"#utility.yul\":31973:31979   */\n      dup3\n        /* \"#utility.yul\":31967:31971   */\n      dup6\n        /* \"#utility.yul\":31921:31988   */\n      tag_553\n      jump\t// in\n    tag_862:\n        /* \"#utility.yul\":32015:32016   */\n      0x00\n        /* \"#utility.yul\":32039:32043   */\n      0x20\n        /* \"#utility.yul\":32026:32043   */\n      swap1\n      pop\n        /* \"#utility.yul\":32071:32073   */\n      0x1f\n        /* \"#utility.yul\":32063:32069   */\n      dup4\n        /* \"#utility.yul\":32060:32074   */\n      gt\n        /* \"#utility.yul\":32088:32089   */\n      0x01\n        /* \"#utility.yul\":32083:32701   */\n      dup2\n      eq\n      tag_864\n      jumpi\n        /* \"#utility.yul\":32745:32746   */\n      0x00\n        /* \"#utility.yul\":32762:32768   */\n      dup5\n        /* \"#utility.yul\":32759:32836   */\n      iszero\n      tag_865\n      jumpi\n        /* \"#utility.yul\":32811:32820   */\n      dup3\n        /* \"#utility.yul\":32806:32809   */\n      dup8\n        /* \"#utility.yul\":32802:32821   */\n      add\n        /* \"#utility.yul\":32796:32822   */\n      mload\n        /* \"#utility.yul\":32787:32822   */\n      swap1\n      pop\n        /* \"#utility.yul\":32759:32836   */\n    tag_865:\n        /* \"#utility.yul\":32862:32929   */\n      tag_866\n        /* \"#utility.yul\":32922:32928   */\n      dup6\n        /* \"#utility.yul\":32915:32920   */\n      dup3\n        /* \"#utility.yul\":32862:32929   */\n      tag_556\n      jump\t// in\n    tag_866:\n        /* \"#utility.yul\":32856:32860   */\n      dup7\n        /* \"#utility.yul\":32849:32930   */\n      sstore\n        /* \"#utility.yul\":32718:32940   */\n      pop\n        /* \"#utility.yul\":32053:32940   */\n      jump(tag_863)\n        /* \"#utility.yul\":32083:32701   */\n    tag_864:\n        /* \"#utility.yul\":32135:32139   */\n      0x1f\n        /* \"#utility.yul\":32131:32140   */\n      not\n        /* \"#utility.yul\":32123:32129   */\n      dup5\n        /* \"#utility.yul\":32119:32141   */\n      and\n        /* \"#utility.yul\":32169:32206   */\n      tag_867\n        /* \"#utility.yul\":32201:32205   */\n      dup7\n        /* \"#utility.yul\":32169:32206   */\n      tag_542\n      jump\t// in\n    tag_867:\n        /* \"#utility.yul\":32228:32229   */\n      0x00\n        /* \"#utility.yul\":32242:32450   */\n    tag_868:\n        /* \"#utility.yul\":32256:32263   */\n      dup3\n        /* \"#utility.yul\":32253:32254   */\n      dup2\n        /* \"#utility.yul\":32250:32264   */\n      lt\n        /* \"#utility.yul\":32242:32450   */\n      iszero\n      tag_870\n      jumpi\n        /* \"#utility.yul\":32335:32344   */\n      dup5\n        /* \"#utility.yul\":32330:32333   */\n      dup10\n        /* \"#utility.yul\":32326:32345   */\n      add\n        /* \"#utility.yul\":32320:32346   */\n      mload\n        /* \"#utility.yul\":32312:32318   */\n      dup3\n        /* \"#utility.yul\":32305:32347   */\n      sstore\n        /* \"#utility.yul\":32386:32387   */\n      0x01\n        /* \"#utility.yul\":32378:32384   */\n      dup3\n        /* \"#utility.yul\":32374:32388   */\n      add\n        /* \"#utility.yul\":32364:32388   */\n      swap2\n      pop\n        /* \"#utility.yul\":32433:32435   */\n      0x20\n        /* \"#utility.yul\":32422:32431   */\n      dup6\n        /* \"#utility.yul\":32418:32436   */\n      add\n        /* \"#utility.yul\":32405:32436   */\n      swap5\n      pop\n        /* \"#utility.yul\":32279:32283   */\n      0x20\n        /* \"#utility.yul\":32276:32277   */\n      dup2\n        /* \"#utility.yul\":32272:32284   */\n      add\n        /* \"#utility.yul\":32267:32284   */\n      swap1\n      pop\n        /* \"#utility.yul\":32242:32450   */\n      jump(tag_868)\n    tag_870:\n        /* \"#utility.yul\":32478:32484   */\n      dup7\n        /* \"#utility.yul\":32469:32476   */\n      dup4\n        /* \"#utility.yul\":32466:32485   */\n      lt\n        /* \"#utility.yul\":32463:32642   */\n      iszero\n      tag_871\n      jumpi\n        /* \"#utility.yul\":32536:32545   */\n      dup5\n        /* \"#utility.yul\":32531:32534   */\n      dup10\n        /* \"#utility.yul\":32527:32546   */\n      add\n        /* \"#utility.yul\":32521:32547   */\n      mload\n        /* \"#utility.yul\":32579:32627   */\n      tag_872\n        /* \"#utility.yul\":32621:32625   */\n      0x1f\n        /* \"#utility.yul\":32613:32619   */\n      dup10\n        /* \"#utility.yul\":32609:32626   */\n      and\n        /* \"#utility.yul\":32598:32607   */\n      dup3\n        /* \"#utility.yul\":32579:32627   */\n      tag_555\n      jump\t// in\n    tag_872:\n        /* \"#utility.yul\":32571:32577   */\n      dup4\n        /* \"#utility.yul\":32564:32628   */\n      sstore\n        /* \"#utility.yul\":32486:32642   */\n      pop\n        /* \"#utility.yul\":32463:32642   */\n    tag_871:\n        /* \"#utility.yul\":32688:32689   */\n      0x01\n        /* \"#utility.yul\":32684:32685   */\n      0x02\n        /* \"#utility.yul\":32676:32682   */\n      dup9\n        /* \"#utility.yul\":32672:32686   */\n      mul\n        /* \"#utility.yul\":32668:32690   */\n      add\n        /* \"#utility.yul\":32662:32666   */\n      dup9\n        /* \"#utility.yul\":32655:32691   */\n      sstore\n        /* \"#utility.yul\":32090:32701   */\n      pop\n      pop\n      pop\n        /* \"#utility.yul\":32053:32940   */\n    tag_863:\n      pop\n        /* \"#utility.yul\":31643:32946   */\n      pop\n      pop\n      pop\n        /* \"#utility.yul\":31551:32946   */\n      pop\n      pop\n      jump\t// out\n        /* \"#utility.yul\":32952:33132   */\n    tag_557:\n        /* \"#utility.yul\":33000:33077   */\n      0x4e487b7100000000000000000000000000000000000000000000000000000000\n        /* \"#utility.yul\":32997:32998   */\n      0x00\n        /* \"#utility.yul\":32990:33078   */\n      mstore\n        /* \"#utility.yul\":33097:33101   */\n      0x11\n        /* \"#utility.yul\":33094:33095   */\n      0x04\n        /* \"#utility.yul\":33087:33102   */\n      mstore\n        /* \"#utility.yul\":33121:33125   */\n      0x24\n        /* \"#utility.yul\":33118:33119   */\n      0x00\n        /* \"#utility.yul\":33111:33126   */\n      revert\n        /* \"#utility.yul\":33138:33371   */\n    tag_243:\n        /* \"#utility.yul\":33177:33180   */\n      0x00\n        /* \"#utility.yul\":33200:33224   */\n      tag_875\n        /* \"#utility.yul\":33218:33223   */\n      dup3\n        /* \"#utility.yul\":33200:33224   */\n      tag_491\n      jump\t// in\n    tag_875:\n        /* \"#utility.yul\":33191:33224   */\n      swap2\n      pop\n        /* \"#utility.yul\":33246:33312   */\n      0xffffffffffffffffffffffffffffffffffffffffffffffffffffffffffffffff\n        /* \"#utility.yul\":33239:33244   */\n      dup3\n        /* \"#utility.yul\":33236:33313   */\n      sub\n        /* \"#utility.yul\":33233:33336   */\n      tag_876\n      jumpi\n        /* \"#utility.yul\":33316:33334   */\n      tag_877\n      tag_557\n      jump\t// in\n    tag_877:\n        /* \"#utility.yul\":33233:33336   */\n    tag_876:\n        /* \"#utility.yul\":33363:33364   */\n      0x01\n        /* \"#utility.yul\":33356:33361   */\n      dup3\n        /* \"#utility.yul\":33352:33365   */\n      add\n        /* \"#utility.yul\":33345:33365   */\n      swap1\n      pop\n        /* \"#utility.yul\":33138:33371   */\n      swap2\n      swap1\n      pop\n      jump\t// out\n        /* \"#utility.yul\":33377:33557   */\n    tag_293:\n        /* \"#utility.yul\":33425:33502   */\n      0x4e487b7100000000000000000000000000000000000000000000000000000000\n        /* \"#utility.yul\":33422:33423   */\n      0x00\n        /* \"#utility.yul\":33415:33503   */\n      mstore\n        /* \"#utility.yul\":33522:33526   */\n      0x32\n        /* \"#utility.yul\":33519:33520   */\n      0x04\n        /* \"#utility.yul\":33512:33527   */\n      mstore\n        /* \"#utility.yul\":33546:33550   */\n      0x24\n        /* \"#utility.yul\":33543:33544   */\n      0x00\n        /* \"#utility.yul\":33536:33551   */\n      revert\n        /* \"#utility.yul\":33563:33677   */\n    tag_558:\n      pop\n      jump\t// out\n        /* \"#utility.yul\":33683:34083   */\n    tag_559:\n        /* \"#utility.yul\":33843:33846   */\n      0x00\n        /* \"#utility.yul\":33864:33948   */\n      tag_881\n        /* \"#utility.yul\":33946:33947   */\n      0x00\n        /* \"#utility.yul\":33941:33944   */\n      dup4\n        /* \"#utility.yul\":33864:33948   */\n      tag_540\n      jump\t// in\n    tag_881:\n        /* \"#utility.yul\":33857:33948   */\n      swap2\n      pop\n        /* \"#utility.yul\":33957:34050   */\n      tag_882\n        /* \"#utility.yul\":34046:34049   */\n      dup3\n        /* \"#utility.yul\":33957:34050   */\n      tag_558\n      jump\t// in\n    tag_882:\n        /* \"#utility.yul\":34075:34076   */\n      0x00\n        /* \"#utility.yul\":34070:34073   */\n      dup3\n        /* \"#utility.yul\":34066:34077   */\n      add\n        /* \"#utility.yul\":34059:34077   */\n      swap1\n      pop\n        /* \"#utility.yul\":33683:34083   */\n      swap2\n      swap1\n      pop\n      jump\t// out\n        /* \"#utility.yul\":34089:34470   */\n    tag_413:\n        /* \"#utility.yul\":34274:34277   */\n      0x00\n        /* \"#utility.yul\":34296:34444   */\n      tag_884\n        /* \"#utility.yul\":34440:34443   */\n      dup3\n        /* \"#utility.yul\":34296:34444   */\n      tag_559\n      jump\t// in\n    tag_884:\n        /* \"#utility.yul\":34289:34444   */\n      swap2\n      pop\n        /* \"#utility.yul\":34461:34464   */\n      dup2\n        /* \"#utility.yul\":34454:34464   */\n      swap1\n      pop\n        /* \"#utility.yul\":34089:34470   */\n      swap2\n      swap1\n      pop\n      jump\t// out\n        /* \"#utility.yul\":34500:35374   */\n    tag_560:\n        /* \"#utility.yul\":34603:34606   */\n      0x00\n        /* \"#utility.yul\":34640:34645   */\n      dup2\n        /* \"#utility.yul\":34634:34646   */\n      sload\n        /* \"#utility.yul\":34669:34705   */\n      tag_886\n        /* \"#utility.yul\":34695:34704   */\n      dup2\n        /* \"#utility.yul\":34669:34705   */\n      tag_136\n      jump\t// in\n    tag_886:\n        /* \"#utility.yul\":34721:34810   */\n      tag_887\n        /* \"#utility.yul\":34803:34809   */\n      dup2\n        /* \"#utility.yul\":34798:34801   */\n      dup7\n        /* \"#utility.yul\":34721:34810   */\n      tag_540\n      jump\t// in\n    tag_887:\n        /* \"#utility.yul\":34714:34810   */\n      swap5\n      pop\n        /* \"#utility.yul\":34841:34842   */\n      0x01\n        /* \"#utility.yul\":34830:34839   */\n      dup3\n        /* \"#utility.yul\":34826:34843   */\n      and\n        /* \"#utility.yul\":34857:34858   */\n      0x00\n        /* \"#utility.yul\":34852:35018   */\n      dup2\n      eq\n      tag_889\n      jumpi\n        /* \"#utility.yul\":35032:35033   */\n      0x01\n        /* \"#utility.yul\":35027:35368   */\n      dup2\n      eq\n      tag_890\n      jumpi\n        /* \"#utility.yul\":34819:35368   */\n      jump(tag_888)\n        /* \"#utility.yul\":34852:35018   */\n    tag_889:\n        /* \"#utility.yul\":34936:34940   */\n      0xff\n        /* \"#utility.yul\":34932:34941   */\n      not\n        /* \"#utility.yul\":34921:34930   */\n      dup4\n        /* \"#utility.yul\":34917:34942   */\n      and\n        /* \"#utility.yul\":34912:34915   */\n      dup7\n        /* \"#utility.yul\":34905:34943   */\n      mstore\n        /* \"#utility.yul\":34998:35004   */\n      dup2\n        /* \"#utility.yul\":34991:35005   */\n      iszero\n        /* \"#utility.yul\":34984:35006   */\n      iszero\n        /* \"#utility.yul\":34976:34982   */\n      dup3\n        /* \"#utility.yul\":34972:35007   */\n      mul\n        /* \"#utility.yul\":34967:34970   */\n      dup7\n        /* \"#utility.yul\":34963:35008   */\n      add\n        /* \"#utility.yul\":34956:35008   */\n      swap4\n      pop\n        /* \"#utility.yul\":34852:35018   */\n      jump(tag_888)\n        /* \"#utility.yul\":35027:35368   */\n    tag_890:\n        /* \"#utility.yul\":35094:35132   */\n      tag_891\n        /* \"#utility.yul\":35126:35131   */\n      dup6\n        /* \"#utility.yul\":35094:35132   */\n      tag_542\n      jump\t// in\n    tag_891:\n        /* \"#utility.yul\":35154:35155   */\n      0x00\n        /* \"#utility.yul\":35168:35322   */\n    tag_892:\n        /* \"#utility.yul\":35182:35188   */\n      dup4\n        /* \"#utility.yul\":35179:35180   */\n      dup2\n        /* \"#utility.yul\":35176:35189   */\n      lt\n        /* \"#utility.yul\":35168:35322   */\n      iszero\n      tag_894\n      jumpi\n        /* \"#utility.yul\":35256:35263   */\n      dup2\n        /* \"#utility.yul\":35250:35264   */\n      sload\n        /* \"#utility.yul\":35246:35247   */\n      dup2\n        /* \"#utility.yul\":35241:35244   */\n      dup10\n        /* \"#utility.yul\":35237:35248   */\n      add\n        /* \"#utility.yul\":35230:35265   */\n      mstore\n        /* \"#utility.yul\":35306:35307   */\n      0x01\n        /* \"#utility.yul\":35297:35304   */\n      dup3\n        /* \"#utility.yul\":35293:35308   */\n      add\n        /* \"#utility.yul\":35282:35308   */\n      swap2\n      pop\n        /* \"#utility.yul\":35204:35208   */\n      0x20\n        /* \"#utility.yul\":35201:35202   */\n      dup2\n        /* \"#utility.yul\":35197:35209   */\n      add\n        /* \"#utility.yul\":35192:35209   */\n      swap1\n      pop\n        /* \"#utility.yul\":35168:35322   */\n      jump(tag_892)\n    tag_894:\n        /* \"#utility.yul\":35351:35357   */\n      dup4\n        /* \"#utility.yul\":35346:35349   */\n      dup9\n        /* \"#utility.yul\":35342:35358   */\n      add\n        /* \"#utility.yul\":35335:35358   */\n      swap6\n      pop\n        /* \"#utility.yul\":35034:35368   */\n      pop\n      pop\n        /* \"#utility.yul\":34819:35368   */\n    tag_888:\n      pop\n        /* \"#utility.yul\":34607:35374   */\n      pop\n      pop\n        /* \"#utility.yul\":34500:35374   */\n      swap3\n      swap2\n      pop\n      pop\n      jump\t// out\n        /* \"#utility.yul\":35380:35649   */\n    tag_416:\n        /* \"#utility.yul\":35509:35512   */\n      0x00\n        /* \"#utility.yul\":35531:35623   */\n      tag_896\n        /* \"#utility.yul\":35619:35622   */\n      dup3\n        /* \"#utility.yul\":35610:35616   */\n      dup5\n        /* \"#utility.yul\":35531:35623   */\n      tag_560\n      jump\t// in\n    tag_896:\n        /* \"#utility.yul\":35524:35623   */\n      swap2\n      pop\n        /* \"#utility.yul\":35640:35643   */\n      dup2\n        /* \"#utility.yul\":35633:35643   */\n      swap1\n      pop\n        /* \"#utility.yul\":35380:35649   */\n      swap3\n      swap2\n      pop\n      pop\n      jump\t// out\n\n    auxdata: 0xa2646970667358221220fc364861041bb0c282ef25abc01bbf8ace7ac67833fe52af886421572200a99864736f6c63430008120033\n}\n",
				"bytecode": {
					"linkReferences": {},
					"object": "60806040526000600155600060025534801561001a57600080fd5b50336000806101000a81548173ffffffffffffffffffffffffffffffffffffffff021916908373ffffffffffffffffffffffffffffffffffffffff160217905550613f548061006a6000396000f3fe608060405234801561001057600080fd5b50600436106101585760003560e01c80637198ed1a116100c3578063bb29e2a51161007c578063bb29e2a5146103d5578063bed34bba146103f3578063c77cfeeb14610423578063d430e05a14610453578063f70e1c5e14610483578063fe1823af146104b357610158565b80637198ed1a1461031557806376414782146103455780637cb3b62d14610361578063893d20e81461037d5780638e7eb9531461039b578063a2e07c84146103b957610158565b80633f70c2b4116101155780633f70c2b4146102435780634af5809a1461027357806351f40dd61461028f57806363c60bd5146102bf57806363fbe5b3146102db5780636bd562f3146102f957610158565b806302ee3a521461015d578063037d94021461017b578063067c2d61146101ab578063081396eb146101db57806315c19c1d146101f7578063379f8fc214610213575b600080fd5b6101656104e3565b6040516101729190612e1c565b60405180910390f35b61019560048036038101906101909190612e7e565b61053b565b6040516101a29190613000565b60405180910390f35b6101c560048036038101906101c09190612e7e565b610768565b6040516101d29190613031565b60405180910390f35b6101f560048036038101906101f09190613181565b61078c565b005b610211600480360381019061020c9190613181565b6107eb565b005b61022d600480360381019061022891906131f9565b61088e565b60405161023a9190613439565b60405180910390f35b61025d60048036038101906102589190612e7e565b610c5d565b60405161026a9190613543565b60405180910390f35b61028d60048036038101906102889190613565565b611015565b005b6102a960048036038101906102a491906136d6565b611215565b6040516102b69190613439565b60405180910390f35b6102d960048036038101906102d4919061374e565b61171c565b005b6102e3611824565b6040516102f09190613031565b60405180910390f35b610313600480360381019061030e91906137c6565b61182a565b005b61032f600480360381019061032a91906131f9565b6119be565b60405161033c9190613439565b60405180910390f35b61035f600480360381019061035a9190613950565b611e39565b005b61037b60048036038101906103769190613950565b611e6b565b005b610385611e9d565b60405161039291906139d1565b60405180910390f35b6103a3611ec6565b6040516103b09190612e1c565b60405180910390f35b6103d360048036038101906103ce91906139ec565b611f1e565b005b6103dd611f46565b6040516103ea9190613031565b60405180910390f35b61040d60048036038101906104089190613181565b611f4c565b60405161041a9190613a57565b60405180910390f35b61043d600480360381019061043891906131f9565b61201a565b60405161044a9190613439565b60405180910390f35b61046d60048036038101906104689190613181565b612495565b60405161047a9190613a57565b60405180910390f35b61049d600480360381019061049891906131f9565b6126c4565b6040516104aa9190613439565b60405180910390f35b6104cd60048036038101906104c89190612e7e565b612b3f565b6040516104da9190613031565b60405180910390f35b6060600380548060200260200160405190810160405280929190818152602001828054801561053157602002820191906000526020600020905b81548152602001906001019080831161051d575b5050505050905090565b610543612b63565b600760008381526020019081526020016000206040518060e0016040529081600082015481526020016001820154815260200160028201805461058590613aa1565b80601f01602080910402602001604051908101604052809291908181526020018280546105b190613aa1565b80156105fe5780601f106105d3576101008083540402835291602001916105fe565b820191906000526020600020905b8154815290600101906020018083116105e157829003601f168201915b5050505050815260200160038201805461061790613aa1565b80601f016020809104026020016040519081016040528092919081815260200182805461064390613aa1565b80156106905780601f1061066557610100808354040283529160200191610690565b820191906000526020600020905b81548152906001019060200180831161067357829003601f168201915b505050505081526020016004820160009054906101000a900460ff161515151581526020016004820160019054906101000a900460ff161515151581526020016005820180546106df90613aa1565b80601f016020809104026020016040519081016040528092919081815260200182805461070b90613aa1565b80156107585780601f1061072d57610100808354040283529160200191610758565b820191906000526020600020905b81548152906001019060200180831161073b57829003601f168201915b5050505050815250509050919050565b6004818154811061077857600080fd5b906000526020600020016000915090505481565b80600d8360405161079d9190613b0e565b908152602001604051809103902090816107b79190613cd1565b50816006826040516107c99190613b0e565b908152602001604051809103902060020190816107e69190613cd1565b505050565b61082a826040518060400160405280600881526020017f7573657257434944000000000000000000000000000000000000000000000000815250612495565b61088a5780600b8360405161083f9190613b0e565b908152602001604051809103902090816108599190613cd1565b508160068260405161086b9190613b0e565b908152602001604051809103902060010190816108889190613cd1565b505b5050565b610896612ba4565b6006826040516108a69190613b0e565b90815260200160405180910390206040518060e00160405290816000820180546108cf90613aa1565b80601f01602080910402602001604051908101604052809291908181526020018280546108fb90613aa1565b80156109485780601f1061091d57610100808354040283529160200191610948565b820191906000526020600020905b81548152906001019060200180831161092b57829003601f168201915b5050505050815260200160018201805461096190613aa1565b80601f016020809104026020016040519081016040528092919081815260200182805461098d90613aa1565b80156109da5780601f106109af576101008083540402835291602001916109da565b820191906000526020600020905b8154815290600101906020018083116109bd57829003601f168201915b505050505081526020016002820180546109f390613aa1565b80601f0160208091040260200160405190810160405280929190818152602001828054610a1f90613aa1565b8015610a6c5780601f10610a4157610100808354040283529160200191610a6c565b820191906000526020600020905b815481529060010190602001808311610a4f57829003601f168201915b5050505050815260200160038201805480602002602001604051908101604052809291908181526020016000905b82821015610b46578382906000526020600020018054610ab990613aa1565b80601f0160208091040260200160405190810160405280929190818152602001828054610ae590613aa1565b8015610b325780601f10610b0757610100808354040283529160200191610b32565b820191906000526020600020905b815481529060010190602001808311610b1557829003601f168201915b505050505081526020019060010190610a9a565b50505050815260200160048201805480602002602001604051908101604052809291908181526020018280548015610b9d57602002820191906000526020600020905b815481526020019060010190808311610b89575b5050505050815260200160058201805480602002602001604051908101604052809291908181526020018280548015610bf557602002820191906000526020600020905b815481526020019060010190808311610be1575b5050505050815260200160068201805480602002602001604051908101604052809291908181526020018280548015610c4d57602002820191906000526020600020905b815481526020019060010190808311610c39575b5050505050815250509050919050565b610c65612be1565b600560008381526020019081526020016000206040518061012001604052908160008201548152602001600182018054610c9e90613aa1565b80601f0160208091040260200160405190810160405280929190818152602001828054610cca90613aa1565b8015610d175780601f10610cec57610100808354040283529160200191610d17565b820191906000526020600020905b815481529060010190602001808311610cfa57829003601f168201915b50505050508152602001600282018054610d3090613aa1565b80601f0160208091040260200160405190810160405280929190818152602001828054610d5c90613aa1565b8015610da95780601f10610d7e57610100808354040283529160200191610da9565b820191906000526020600020905b815481529060010190602001808311610d8c57829003601f168201915b50505050508152602001600382018054610dc290613aa1565b80601f0160208091040260200160405190810160405280929190818152602001828054610dee90613aa1565b8015610e3b5780601f10610e1057610100808354040283529160200191610e3b565b820191906000526020600020905b815481529060010190602001808311610e1e57829003601f168201915b50505050508152602001600482018054610e5490613aa1565b80601f0160208091040260200160405190810160405280929190818152602001828054610e8090613aa1565b8015610ecd5780601f10610ea257610100808354040283529160200191610ecd565b820191906000526020600020905b815481529060010190602001808311610eb057829003601f168201915b50505050508152602001600582018054610ee690613aa1565b80601f0160208091040260200160405190810160405280929190818152602001828054610f1290613aa1565b8015610f5f5780601f10610f3457610100808354040283529160200191610f5f565b820191906000526020600020905b815481529060010190602001808311610f4257829003601f168201915b505050505081526020016006820154815260200160078201548152602001600882018054610f8c90613aa1565b80601f0160208091040260200160405190810160405280929190818152602001828054610fb890613aa1565b80156110055780601f10610fda57610100808354040283529160200191611005565b820191906000526020600020905b815481529060010190602001808311610fe857829003601f168201915b5050505050815250509050919050565b6040518060e001604052806002548152602001828152602001848152602001838152602001600015158152602001600015158152602001604051806020016040528060008152508152506007600060025481526020019081526020016000206000820151816000015560208201518160010155604082015181600201908161109d9190613cd1565b5060608201518160030190816110b39190613cd1565b5060808201518160040160006101000a81548160ff02191690831515021790555060a08201518160040160016101000a81548160ff02191690831515021790555060c08201518160050190816111099190613cd1565b5090505060068360405161111d9190613b0e565b908152602001604051809103902060050160076000600254815260200190815260200160002060000154908060018154018082558091505060019003906000526020600020016000909190919091505560068260405161117d9190613b0e565b9081526020016040518091039020600601600760006002548152602001908152602001600020600001549080600181540180825580915050600190039060005260206000200160009091909190915055600460025490806001815401808255809150506001900390600052602060002001600090919091909150556002600081548092919061120b90613dd2565b9190505550505050565b61121d612ba4565b6060806040518060e00160405280868152602001604051806020016040528060008152508152602001604051806020016040528060008152508152602001858152602001838152602001828152602001828152506006866040516112819190613b0e565b908152602001604051809103902060008201518160000190816112a49190613cd1565b5060208201518160010190816112ba9190613cd1565b5060408201518160020190816112d09190613cd1565b5060608201518160030190805190602001906112ed929190612c2d565b50608082015181600401908051906020019061130a929190612c86565b5060a0820151816005019080519060200190611327929190612c86565b5060c0820151816006019080519060200190611344929190612c86565b50905050611352848661171c565b6006856040516113629190613b0e565b90815260200160405180910390206040518060e001604052908160008201805461138b90613aa1565b80601f01602080910402602001604051908101604052809291908181526020018280546113b790613aa1565b80156114045780601f106113d957610100808354040283529160200191611404565b820191906000526020600020905b8154815290600101906020018083116113e757829003601f168201915b5050505050815260200160018201805461141d90613aa1565b80601f016020809104026020016040519081016040528092919081815260200182805461144990613aa1565b80156114965780601f1061146b57610100808354040283529160200191611496565b820191906000526020600020905b81548152906001019060200180831161147957829003601f168201915b505050505081526020016002820180546114af90613aa1565b80601f01602080910402602001604051908101604052809291908181526020018280546114db90613aa1565b80156115285780601f106114fd57610100808354040283529160200191611528565b820191906000526020600020905b81548152906001019060200180831161150b57829003601f168201915b5050505050815260200160038201805480602002602001604051908101604052809291908181526020016000905b8282101561160257838290600052602060002001805461157590613aa1565b80601f01602080910402602001604051908101604052809291908181526020018280546115a190613aa1565b80156115ee5780601f106115c3576101008083540402835291602001916115ee565b820191906000526020600020905b8154815290600101906020018083116115d157829003601f168201915b505050505081526020019060010190611556565b5050505081526020016004820180548060200260200160405190810160405280929190818152602001828054801561165957602002820191906000526020600020905b815481526020019060010190808311611645575b50505050508152602001600582018054806020026020016040519081016040528092919081815260200182805480156116b157602002820191906000526020600020905b81548152602001906001019080831161169d575b505050505081526020016006820180548060200260200160405190810160405280929190818152602001828054801561170957602002820191906000526020600020905b8154815260200190600101908083116116f5575b5050505050815250509250505092915050565b60005b825181101561181f57600083828151811061173d5761173c613e1a565b5b60200260200101519050611786816040518060400160405280600b81526020017f7573657257616c6c657473000000000000000000000000000000000000000000815250612495565b61180b5782600c8260405161179b9190613b0e565b908152602001604051809103902090816117b59190613cd1565b506006836040516117c69190613b0e565b9081526020016040518091039020600301819080600181540180825580915050600190039060005260206000200160009091909190915090816118099190613cd1565b505b50808061181790613dd2565b91505061171f565b505050565b60015481565b6040518061012001604052806001548152602001898152602001888152602001878152602001868152602001858152602001848152602001838152602001828152506005600060015481526020019081526020016000206000820151816000015560208201518160010190816118a09190613cd1565b5060408201518160020190816118b69190613cd1565b5060608201518160030190816118cc9190613cd1565b5060808201518160040190816118e29190613cd1565b5060a08201518160050190816118f89190613cd1565b5060c0820151816006015560e082015181600701556101008201518160080190816119239190613cd1565b509050506006886040516119379190613b0e565b9081526020016040518091039020600401600154908060018154018082558091505060019003906000526020600020016000909190919091505560036001549080600181540180825580915050600190039060005260206000200160009091909190915055600160008154809291906119af90613dd2565b91905055505050505050505050565b6119c6612ba4565b6000600c836040516119d89190613b0e565b908152602001604051809103902080546119f190613aa1565b80601f0160208091040260200160405190810160405280929190818152602001828054611a1d90613aa1565b8015611a6a5780601f10611a3f57610100808354040283529160200191611a6a565b820191906000526020600020905b815481529060010190602001808311611a4d57829003601f168201915b50505050509050600681604051611a819190613b0e565b90815260200160405180910390206040518060e0016040529081600082018054611aaa90613aa1565b80601f0160208091040260200160405190810160405280929190818152602001828054611ad690613aa1565b8015611b235780601f10611af857610100808354040283529160200191611b23565b820191906000526020600020905b815481529060010190602001808311611b0657829003601f168201915b50505050508152602001600182018054611b3c90613aa1565b80601f0160208091040260200160405190810160405280929190818152602001828054611b6890613aa1565b8015611bb55780601f10611b8a57610100808354040283529160200191611bb5565b820191906000526020600020905b815481529060010190602001808311611b9857829003601f168201915b50505050508152602001600282018054611bce90613aa1565b80601f0160208091040260200160405190810160405280929190818152602001828054611bfa90613aa1565b8015611c475780601f10611c1c57610100808354040283529160200191611c47565b820191906000526020600020905b815481529060010190602001808311611c2a57829003601f168201915b5050505050815260200160038201805480602002602001604051908101604052809291908181526020016000905b82821015611d21578382906000526020600020018054611c9490613aa1565b80601f0160208091040260200160405190810160405280929190818152602001828054611cc090613aa1565b8015611d0d5780601f10611ce257610100808354040283529160200191611d0d565b820191906000526020600020905b815481529060010190602001808311611cf057829003601f168201915b505050505081526020019060010190611c75565b50505050815260200160048201805480602002602001604051908101604052809291908181526020018280548015611d7857602002820191906000526020600020905b815481526020019060010190808311611d64575b5050505050815260200160058201805480602002602001604051908101604052809291908181526020018280548015611dd057602002820191906000526020600020905b815481526020019060010190808311611dbc575b5050505050815260200160068201805480602002602001604051908101604052809291908181526020018280548015611e2857602002820191906000526020600020905b815481526020019060010190808311611e14575b505050505081525050915050919050565b816007600083815260200190815260200160002060040160016101000a81548160ff0219169083151502179055505050565b816007600083815260200190815260200160002060040160006101000a81548160ff0219169083151502179055505050565b60008060009054906101000a900473ffffffffffffffffffffffffffffffffffffffff16905090565b60606004805480602002602001604051908101604052809291908181526020018280548015611f1457602002820191906000526020600020905b815481526020019060010190808311611f00575b5050505050905090565b81600760008381526020019081526020016000206005019081611f419190613cd1565b505050565b60025481565b60008151835114611f605760009050612014565b60005b835181101561200e57828181518110611f7f57611f7e613e1a565b5b602001015160f81c60f81b7effffffffffffffffffffffffffffffffffffffffffffffffffffffffffffff1916848281518110611fbf57611fbe613e1a565b5b602001015160f81c60f81b7effffffffffffffffffffffffffffffffffffffffffffffffffffffffffffff191614611ffb576000915050612014565b808061200690613dd2565b915050611f63565b50600190505b92915050565b612022612ba4565b6000600d836040516120349190613b0e565b9081526020016040518091039020805461204d90613aa1565b80601f016020809104026020016040519081016040528092919081815260200182805461207990613aa1565b80156120c65780601f1061209b576101008083540402835291602001916120c6565b820191906000526020600020905b8154815290600101906020018083116120a957829003601f168201915b505050505090506006816040516120dd9190613b0e565b90815260200160405180910390206040518060e001604052908160008201805461210690613aa1565b80601f016020809104026020016040519081016040528092919081815260200182805461213290613aa1565b801561217f5780601f106121545761010080835404028352916020019161217f565b820191906000526020600020905b81548152906001019060200180831161216257829003601f168201915b5050505050815260200160018201805461219890613aa1565b80601f01602080910402602001604051908101604052809291908181526020018280546121c490613aa1565b80156122115780601f106121e657610100808354040283529160200191612211565b820191906000526020600020905b8154815290600101906020018083116121f457829003601f168201915b5050505050815260200160028201805461222a90613aa1565b80601f016020809104026020016040519081016040528092919081815260200182805461225690613aa1565b80156122a35780601f10612278576101008083540402835291602001916122a3565b820191906000526020600020905b81548152906001019060200180831161228657829003601f168201915b5050505050815260200160038201805480602002602001604051908101604052809291908181526020016000905b8282101561237d5783829060005260206000200180546122f090613aa1565b80601f016020809104026020016040519081016040528092919081815260200182805461231c90613aa1565b80156123695780601f1061233e57610100808354040283529160200191612369565b820191906000526020600020905b81548152906001019060200180831161234c57829003601f168201915b5050505050815260200190600101906122d1565b505050508152602001600482018054806020026020016040519081016040528092919081815260200182805480156123d457602002820191906000526020600020905b8154815260200190600101908083116123c0575b505050505081526020016005820180548060200260200160405190810160405280929190818152602001828054801561242c57602002820191906000526020600020905b815481526020019060010190808311612418575b505050505081526020016006820180548060200260200160405190810160405280929190818152602001828054801561248457602002820191906000526020600020905b815481526020019060010190808311612470575b505050505081525050915050919050565b60006124d6826040518060400160405280600b81526020017f7573657257616c6c657473000000000000000000000000000000000000000000815250611f4c565b1561254d576040516020016124ea90613e6f565b60405160208183030381529060405280519060200120600c846040516125109190613b0e565b908152602001604051809103902060405160200161252e9190613f07565b60405160208183030381529060405280519060200120141590506126be565b61258c826040518060400160405280600881526020017f757365724c656e73000000000000000000000000000000000000000000000000815250611f4c565b15612603576040516020016125a090613e6f565b60405160208183030381529060405280519060200120600d846040516125c69190613b0e565b90815260200160405180910390206040516020016125e49190613f07565b60405160208183030381529060405280519060200120141590506126be565b612642826040518060400160405280600881526020017f7573657257434944000000000000000000000000000000000000000000000000815250611f4c565b156126b95760405160200161265690613e6f565b60405160208183030381529060405280519060200120600b8460405161267c9190613b0e565b908152602001604051809103902060405160200161269a9190613f07565b60405160208183030381529060405280519060200120141590506126be565b600090505b92915050565b6126cc612ba4565b6000600b836040516126de9190613b0e565b908152602001604051809103902080546126f790613aa1565b80601f016020809104026020016040519081016040528092919081815260200182805461272390613aa1565b80156127705780601f1061274557610100808354040283529160200191612770565b820191906000526020600020905b81548152906001019060200180831161275357829003601f168201915b505050505090506006816040516127879190613b0e565b90815260200160405180910390206040518060e00160405290816000820180546127b090613aa1565b80601f01602080910402602001604051908101604052809291908181526020018280546127dc90613aa1565b80156128295780601f106127fe57610100808354040283529160200191612829565b820191906000526020600020905b81548152906001019060200180831161280c57829003601f168201915b5050505050815260200160018201805461284290613aa1565b80601f016020809104026020016040519081016040528092919081815260200182805461286e90613aa1565b80156128bb5780601f10612890576101008083540402835291602001916128bb565b820191906000526020600020905b81548152906001019060200180831161289e57829003601f168201915b505050505081526020016002820180546128d490613aa1565b80601f016020809104026020016040519081016040528092919081815260200182805461290090613aa1565b801561294d5780601f106129225761010080835404028352916020019161294d565b820191906000526020600020905b81548152906001019060200180831161293057829003601f168201915b5050505050815260200160038201805480602002602001604051908101604052809291908181526020016000905b82821015612a2757838290600052602060002001805461299a90613aa1565b80601f01602080910402602001604051908101604052809291908181526020018280546129c690613aa1565b8015612a135780601f106129e857610100808354040283529160200191612a13565b820191906000526020600020905b8154815290600101906020018083116129f657829003601f168201915b50505050508152602001906001019061297b565b50505050815260200160048201805480602002602001604051908101604052809291908181526020018280548015612a7e57602002820191906000526020600020905b815481526020019060010190808311612a6a575b5050505050815260200160058201805480602002602001604051908101604052809291908181526020018280548015612ad657602002820191906000526020600020905b815481526020019060010190808311612ac2575b5050505050815260200160068201805480602002602001604051908101604052809291908181526020018280548015612b2e57602002820191906000526020600020905b815481526020019060010190808311612b1a575b505050505081525050915050919050565b60038181548110612b4f57600080fd5b906000526020600020016000915090505481565b6040518060e0016040528060008152602001600081526020016060815260200160608152602001600015158152602001600015158152602001606081525090565b6040518060e00160405280606081526020016060815260200160608152602001606081526020016060815260200160608152602001606081525090565b6040518061012001604052806000815260200160608152602001606081526020016060815260200160608152602001606081526020016000815260200160008152602001606081525090565b828054828255906000526020600020908101928215612c75579160200282015b82811115612c74578251829081612c649190613cd1565b5091602001919060010190612c4d565b5b509050612c829190612cd3565b5090565b828054828255906000526020600020908101928215612cc2579160200282015b82811115612cc1578251825591602001919060010190612ca6565b5b509050612ccf9190612cf7565b5090565b5b80821115612cf35760008181612cea9190612d14565b50600101612cd4565b5090565b5b80821115612d10576000816000905550600101612cf8565b5090565b508054612d2090613aa1565b6000825580601f10612d325750612d51565b601f016020900490600052602060002090810190612d509190612cf7565b5b50565b600081519050919050565b600082825260208201905092915050565b6000819050602082019050919050565b6000819050919050565b612d9381612d80565b82525050565b6000612da58383612d8a565b60208301905092915050565b6000602082019050919050565b6000612dc982612d54565b612dd38185612d5f565b9350612dde83612d70565b8060005b83811015612e0f578151612df68882612d99565b9750612e0183612db1565b925050600181019050612de2565b5085935050505092915050565b60006020820190508181036000830152612e368184612dbe565b905092915050565b6000604051905090565b600080fd5b600080fd5b612e5b81612d80565b8114612e6657600080fd5b50565b600081359050612e7881612e52565b92915050565b600060208284031215612e9457612e93612e48565b5b6000612ea284828501612e69565b91505092915050565b600081519050919050565b600082825260208201905092915050565b60005b83811015612ee5578082015181840152602081019050612eca565b60008484015250505050565b6000601f19601f8301169050919050565b6000612f0d82612eab565b612f178185612eb6565b9350612f27818560208601612ec7565b612f3081612ef1565b840191505092915050565b60008115159050919050565b612f5081612f3b565b82525050565b600060e083016000830151612f6e6000860182612d8a565b506020830151612f816020860182612d8a565b5060408301518482036040860152612f998282612f02565b91505060608301518482036060860152612fb38282612f02565b9150506080830151612fc86080860182612f47565b5060a0830151612fdb60a0860182612f47565b5060c083015184820360c0860152612ff38282612f02565b9150508091505092915050565b6000602082019050818103600083015261301a8184612f56565b905092915050565b61302b81612d80565b82525050565b60006020820190506130466000830184613022565b92915050565b600080fd5b600080fd5b7f4e487b7100000000000000000000000000000000000000000000000000000000600052604160045260246000fd5b61308e82612ef1565b810181811067ffffffffffffffff821117156130ad576130ac613056565b5b80604052505050565b60006130c0612e3e565b90506130cc8282613085565b919050565b600067ffffffffffffffff8211156130ec576130eb613056565b5b6130f582612ef1565b9050602081019050919050565b82818337600083830152505050565b600061312461311f846130d1565b6130b6565b9050828152602081018484840111156131405761313f613051565b5b61314b848285613102565b509392505050565b600082601f8301126131685761316761304c565b5b8135613178848260208601613111565b91505092915050565b6000806040838503121561319857613197612e48565b5b600083013567ffffffffffffffff8111156131b6576131b5612e4d565b5b6131c285828601613153565b925050602083013567ffffffffffffffff8111156131e3576131e2612e4d565b5b6131ef85828601613153565b9150509250929050565b60006020828403121561320f5761320e612e48565b5b600082013567ffffffffffffffff81111561322d5761322c612e4d565b5b61323984828501613153565b91505092915050565b600081519050919050565b600082825260208201905092915050565b6000819050602082019050919050565b600061327a8383612f02565b905092915050565b6000602082019050919050565b600061329a82613242565b6132a4818561324d565b9350836020820285016132b68561325e565b8060005b858110156132f257848403895281516132d3858261326e565b94506132de83613282565b925060208a019950506001810190506132ba565b50829750879550505050505092915050565b600082825260208201905092915050565b600061332082612d54565b61332a8185613304565b935061333583612d70565b8060005b8381101561336657815161334d8882612d99565b975061335883612db1565b925050600181019050613339565b5085935050505092915050565b600060e08301600083015184820360008601526133908282612f02565b915050602083015184820360208601526133aa8282612f02565b915050604083015184820360408601526133c48282612f02565b915050606083015184820360608601526133de828261328f565b915050608083015184820360808601526133f88282613315565b91505060a083015184820360a08601526134128282613315565b91505060c083015184820360c086015261342c8282613315565b9150508091505092915050565b600060208201905081810360008301526134538184613373565b905092915050565b6000610120830160008301516134746000860182612d8a565b506020830151848203602086015261348c8282612f02565b915050604083015184820360408601526134a68282612f02565b915050606083015184820360608601526134c08282612f02565b915050608083015184820360808601526134da8282612f02565b91505060a083015184820360a08601526134f48282612f02565b91505060c083015161350960c0860182612d8a565b5060e083015161351c60e0860182612d8a565b506101008301518482036101008601526135368282612f02565b9150508091505092915050565b6000602082019050818103600083015261355d818461345b565b905092915050565b60008060006060848603121561357e5761357d612e48565b5b600084013567ffffffffffffffff81111561359c5761359b612e4d565b5b6135a886828701613153565b935050602084013567ffffffffffffffff8111156135c9576135c8612e4d565b5b6135d586828701613153565b92505060406135e686828701612e69565b9150509250925092565b600067ffffffffffffffff82111561360b5761360a613056565b5b602082029050602081019050919050565b600080fd5b600061363461362f846135f0565b6130b6565b905080838252602082019050602084028301858111156136575761365661361c565b5b835b8181101561369e57803567ffffffffffffffff81111561367c5761367b61304c565b5b8086016136898982613153565b85526020850194505050602081019050613659565b5050509392505050565b600082601f8301126136bd576136bc61304c565b5b81356136cd848260208601613621565b91505092915050565b600080604083850312156136ed576136ec612e48565b5b600083013567ffffffffffffffff81111561370b5761370a612e4d565b5b61371785828601613153565b925050602083013567ffffffffffffffff81111561373857613737612e4d565b5b613744858286016136a8565b9150509250929050565b6000806040838503121561376557613764612e48565b5b600083013567ffffffffffffffff81111561378357613782612e4d565b5b61378f858286016136a8565b925050602083013567ffffffffffffffff8111156137b0576137af612e4d565b5b6137bc85828601613153565b9150509250929050565b600080600080600080600080610100898b0312156137e7576137e6612e48565b5b600089013567ffffffffffffffff81111561380557613804612e4d565b5b6138118b828c01613153565b985050602089013567ffffffffffffffff81111561383257613831612e4d565b5b61383e8b828c01613153565b975050604089013567ffffffffffffffff81111561385f5761385e612e4d565b5b61386b8b828c01613153565b965050606089013567ffffffffffffffff81111561388c5761388b612e4d565b5b6138988b828c01613153565b955050608089013567ffffffffffffffff8111156138b9576138b8612e4d565b5b6138c58b828c01613153565b94505060a06138d68b828c01612e69565b93505060c06138e78b828c01612e69565b92505060e089013567ffffffffffffffff81111561390857613907612e4d565b5b6139148b828c01613153565b9150509295985092959890939650565b61392d81612f3b565b811461393857600080fd5b50565b60008135905061394a81613924565b92915050565b6000806040838503121561396757613966612e48565b5b60006139758582860161393b565b925050602061398685828601612e69565b9150509250929050565b600073ffffffffffffffffffffffffffffffffffffffff82169050919050565b60006139bb82613990565b9050919050565b6139cb816139b0565b82525050565b60006020820190506139e660008301846139c2565b92915050565b60008060408385031215613a0357613a02612e48565b5b600083013567ffffffffffffffff811115613a2157613a20612e4d565b5b613a2d85828601613153565b9250506020613a3e85828601612e69565b9150509250929050565b613a5181612f3b565b82525050565b6000602082019050613a6c6000830184613a48565b92915050565b7f4e487b7100000000000000000000000000000000000000000000000000000000600052602260045260246000fd5b60006002820490506001821680613ab957607f821691505b602082108103613acc57613acb613a72565b5b50919050565b600081905092915050565b6000613ae882612eab565b613af28185613ad2565b9350613b02818560208601612ec7565b80840191505092915050565b6000613b1a8284613add565b915081905092915050565b60008190508160005260206000209050919050565b60006020601f8301049050919050565b600082821b905092915050565b600060088302613b877fffffffffffffffffffffffffffffffffffffffffffffffffffffffffffffffff82613b4a565b613b918683613b4a565b95508019841693508086168417925050509392505050565b6000819050919050565b6000613bce613bc9613bc484612d80565b613ba9565b612d80565b9050919050565b6000819050919050565b613be883613bb3565b613bfc613bf482613bd5565b848454613b57565b825550505050565b600090565b613c11613c04565b613c1c818484613bdf565b505050565b5b81811015613c4057613c35600082613c09565b600181019050613c22565b5050565b601f821115613c8557613c5681613b25565b613c5f84613b3a565b81016020851015613c6e578190505b613c82613c7a85613b3a565b830182613c21565b50505b505050565b600082821c905092915050565b6000613ca860001984600802613c8a565b1980831691505092915050565b6000613cc18383613c97565b9150826002028217905092915050565b613cda82612eab565b67ffffffffffffffff811115613cf357613cf2613056565b5b613cfd8254613aa1565b613d08828285613c44565b600060209050601f831160018114613d3b5760008415613d29578287015190505b613d338582613cb5565b865550613d9b565b601f198416613d4986613b25565b60005b82811015613d7157848901518255600182019150602085019450602081019050613d4c565b86831015613d8e5784890151613d8a601f891682613c97565b8355505b6001600288020188555050505b505050505050565b7f4e487b7100000000000000000000000000000000000000000000000000000000600052601160045260246000fd5b6000613ddd82612d80565b91507fffffffffffffffffffffffffffffffffffffffffffffffffffffffffffffffff8203613e0f57613e0e613da3565b5b600182019050919050565b7f4e487b7100000000000000000000000000000000000000000000000000000000600052603260045260246000fd5b50565b6000613e59600083613ad2565b9150613e6482613e49565b600082019050919050565b6000613e7a82613e4c565b9150819050919050565b60008154613e9181613aa1565b613e9b8186613ad2565b94506001821660008114613eb65760018114613ecb57613efe565b60ff1983168652811515820286019350613efe565b613ed485613b25565b60005b83811015613ef657815481890152600182019150602081019050613ed7565b838801955050505b50505092915050565b6000613f138284613e84565b91508190509291505056fea2646970667358221220fc364861041bb0c282ef25abc01bbf8ace7ac67833fe52af886421572200a99864736f6c63430008120033",
					"opcodes": "PUSH1 0x80 PUSH1 0x40 MSTORE PUSH1 0x0 PUSH1 0x1 SSTORE PUSH1 0x0 PUSH1 0x2 SSTORE CALLVALUE DUP1 ISZERO PUSH2 0x1A JUMPI PUSH1 0x0 DUP1 REVERT JUMPDEST POP CALLER PUSH1 0x0 DUP1 PUSH2 0x100 EXP DUP2 SLOAD DUP2 PUSH20 0xFFFFFFFFFFFFFFFFFFFFFFFFFFFFFFFFFFFFFFFF MUL NOT AND SWAP1 DUP4 PUSH20 0xFFFFFFFFFFFFFFFFFFFFFFFFFFFFFFFFFFFFFFFF AND MUL OR SWAP1 SSTORE POP PUSH2 0x3F54 DUP1 PUSH2 0x6A PUSH1 0x0 CODECOPY PUSH1 0x0 RETURN INVALID PUSH1 0x80 PUSH1 0x40 MSTORE CALLVALUE DUP1 ISZERO PUSH2 0x10 JUMPI PUSH1 0x0 DUP1 REVERT JUMPDEST POP PUSH1 0x4 CALLDATASIZE LT PUSH2 0x158 JUMPI PUSH1 0x0 CALLDATALOAD PUSH1 0xE0 SHR DUP1 PUSH4 0x7198ED1A GT PUSH2 0xC3 JUMPI DUP1 PUSH4 0xBB29E2A5 GT PUSH2 0x7C JUMPI DUP1 PUSH4 0xBB29E2A5 EQ PUSH2 0x3D5 JUMPI DUP1 PUSH4 0xBED34BBA EQ PUSH2 0x3F3 JUMPI DUP1 PUSH4 0xC77CFEEB EQ PUSH2 0x423 JUMPI DUP1 PUSH4 0xD430E05A EQ PUSH2 0x453 JUMPI DUP1 PUSH4 0xF70E1C5E EQ PUSH2 0x483 JUMPI DUP1 PUSH4 0xFE1823AF EQ PUSH2 0x4B3 JUMPI PUSH2 0x158 JUMP JUMPDEST DUP1 PUSH4 0x7198ED1A EQ PUSH2 0x315 JUMPI DUP1 PUSH4 0x76414782 EQ PUSH2 0x345 JUMPI DUP1 PUSH4 0x7CB3B62D EQ PUSH2 0x361 JUMPI DUP1 PUSH4 0x893D20E8 EQ PUSH2 0x37D JUMPI DUP1 PUSH4 0x8E7EB953 EQ PUSH2 0x39B JUMPI DUP1 PUSH4 0xA2E07C84 EQ PUSH2 0x3B9 JUMPI PUSH2 0x158 JUMP JUMPDEST DUP1 PUSH4 0x3F70C2B4 GT PUSH2 0x115 JUMPI DUP1 PUSH4 0x3F70C2B4 EQ PUSH2 0x243 JUMPI DUP1 PUSH4 0x4AF5809A EQ PUSH2 0x273 JUMPI DUP1 PUSH4 0x51F40DD6 EQ PUSH2 0x28F JUMPI DUP1 PUSH4 0x63C60BD5 EQ PUSH2 0x2BF JUMPI DUP1 PUSH4 0x63FBE5B3 EQ PUSH2 0x2DB JUMPI DUP1 PUSH4 0x6BD562F3 EQ PUSH2 0x2F9 JUMPI PUSH2 0x158 JUMP JUMPDEST DUP1 PUSH4 0x2EE3A52 EQ PUSH2 0x15D JUMPI DUP1 PUSH4 0x37D9402 EQ PUSH2 0x17B JUMPI DUP1 PUSH4 0x67C2D61 EQ PUSH2 0x1AB JUMPI DUP1 PUSH4 0x81396EB EQ PUSH2 0x1DB JUMPI DUP1 PUSH4 0x15C19C1D EQ PUSH2 0x1F7 JUMPI DUP1 PUSH4 0x379F8FC2 EQ PUSH2 0x213 JUMPI JUMPDEST PUSH1 0x0 DUP1 REVERT JUMPDEST PUSH2 0x165 PUSH2 0x4E3 JUMP JUMPDEST PUSH1 0x40 MLOAD PUSH2 0x172 SWAP2 SWAP1 PUSH2 0x2E1C JUMP JUMPDEST PUSH1 0x40 MLOAD DUP1 SWAP2 SUB SWAP1 RETURN JUMPDEST PUSH2 0x195 PUSH1 0x4 DUP1 CALLDATASIZE SUB DUP2 ADD SWAP1 PUSH2 0x190 SWAP2 SWAP1 PUSH2 0x2E7E JUMP JUMPDEST PUSH2 0x53B JUMP JUMPDEST PUSH1 0x40 MLOAD PUSH2 0x1A2 SWAP2 SWAP1 PUSH2 0x3000 JUMP JUMPDEST PUSH1 0x40 MLOAD DUP1 SWAP2 SUB SWAP1 RETURN JUMPDEST PUSH2 0x1C5 PUSH1 0x4 DUP1 CALLDATASIZE SUB DUP2 ADD SWAP1 PUSH2 0x1C0 SWAP2 SWAP1 PUSH2 0x2E7E JUMP JUMPDEST PUSH2 0x768 JUMP JUMPDEST PUSH1 0x40 MLOAD PUSH2 0x1D2 SWAP2 SWAP1 PUSH2 0x3031 JUMP JUMPDEST PUSH1 0x40 MLOAD DUP1 SWAP2 SUB SWAP1 RETURN JUMPDEST PUSH2 0x1F5 PUSH1 0x4 DUP1 CALLDATASIZE SUB DUP2 ADD SWAP1 PUSH2 0x1F0 SWAP2 SWAP1 PUSH2 0x3181 JUMP JUMPDEST PUSH2 0x78C JUMP JUMPDEST STOP JUMPDEST PUSH2 0x211 PUSH1 0x4 DUP1 CALLDATASIZE SUB DUP2 ADD SWAP1 PUSH2 0x20C SWAP2 SWAP1 PUSH2 0x3181 JUMP JUMPDEST PUSH2 0x7EB JUMP JUMPDEST STOP JUMPDEST PUSH2 0x22D PUSH1 0x4 DUP1 CALLDATASIZE SUB DUP2 ADD SWAP1 PUSH2 0x228 SWAP2 SWAP1 PUSH2 0x31F9 JUMP JUMPDEST PUSH2 0x88E JUMP JUMPDEST PUSH1 0x40 MLOAD PUSH2 0x23A SWAP2 SWAP1 PUSH2 0x3439 JUMP JUMPDEST PUSH1 0x40 MLOAD DUP1 SWAP2 SUB SWAP1 RETURN JUMPDEST PUSH2 0x25D PUSH1 0x4 DUP1 CALLDATASIZE SUB DUP2 ADD SWAP1 PUSH2 0x258 SWAP2 SWAP1 PUSH2 0x2E7E JUMP JUMPDEST PUSH2 0xC5D JUMP JUMPDEST PUSH1 0x40 MLOAD PUSH2 0x26A SWAP2 SWAP1 PUSH2 0x3543 JUMP JUMPDEST PUSH1 0x40 MLOAD DUP1 SWAP2 SUB SWAP1 RETURN JUMPDEST PUSH2 0x28D PUSH1 0x4 DUP1 CALLDATASIZE SUB DUP2 ADD SWAP1 PUSH2 0x288 SWAP2 SWAP1 PUSH2 0x3565 JUMP JUMPDEST PUSH2 0x1015 JUMP JUMPDEST STOP JUMPDEST PUSH2 0x2A9 PUSH1 0x4 DUP1 CALLDATASIZE SUB DUP2 ADD SWAP1 PUSH2 0x2A4 SWAP2 SWAP1 PUSH2 0x36D6 JUMP JUMPDEST PUSH2 0x1215 JUMP JUMPDEST PUSH1 0x40 MLOAD PUSH2 0x2B6 SWAP2 SWAP1 PUSH2 0x3439 JUMP JUMPDEST PUSH1 0x40 MLOAD DUP1 SWAP2 SUB SWAP1 RETURN JUMPDEST PUSH2 0x2D9 PUSH1 0x4 DUP1 CALLDATASIZE SUB DUP2 ADD SWAP1 PUSH2 0x2D4 SWAP2 SWAP1 PUSH2 0x374E JUMP JUMPDEST PUSH2 0x171C JUMP JUMPDEST STOP JUMPDEST PUSH2 0x2E3 PUSH2 0x1824 JUMP JUMPDEST PUSH1 0x40 MLOAD PUSH2 0x2F0 SWAP2 SWAP1 PUSH2 0x3031 JUMP JUMPDEST PUSH1 0x40 MLOAD DUP1 SWAP2 SUB SWAP1 RETURN JUMPDEST PUSH2 0x313 PUSH1 0x4 DUP1 CALLDATASIZE SUB DUP2 ADD SWAP1 PUSH2 0x30E SWAP2 SWAP1 PUSH2 0x37C6 JUMP JUMPDEST PUSH2 0x182A JUMP JUMPDEST STOP JUMPDEST PUSH2 0x32F PUSH1 0x4 DUP1 CALLDATASIZE SUB DUP2 ADD SWAP1 PUSH2 0x32A SWAP2 SWAP1 PUSH2 0x31F9 JUMP JUMPDEST PUSH2 0x19BE JUMP JUMPDEST PUSH1 0x40 MLOAD PUSH2 0x33C SWAP2 SWAP1 PUSH2 0x3439 JUMP JUMPDEST PUSH1 0x40 MLOAD DUP1 SWAP2 SUB SWAP1 RETURN JUMPDEST PUSH2 0x35F PUSH1 0x4 DUP1 CALLDATASIZE SUB DUP2 ADD SWAP1 PUSH2 0x35A SWAP2 SWAP1 PUSH2 0x3950 JUMP JUMPDEST PUSH2 0x1E39 JUMP JUMPDEST STOP JUMPDEST PUSH2 0x37B PUSH1 0x4 DUP1 CALLDATASIZE SUB DUP2 ADD SWAP1 PUSH2 0x376 SWAP2 SWAP1 PUSH2 0x3950 JUMP JUMPDEST PUSH2 0x1E6B JUMP JUMPDEST STOP JUMPDEST PUSH2 0x385 PUSH2 0x1E9D JUMP JUMPDEST PUSH1 0x40 MLOAD PUSH2 0x392 SWAP2 SWAP1 PUSH2 0x39D1 JUMP JUMPDEST PUSH1 0x40 MLOAD DUP1 SWAP2 SUB SWAP1 RETURN JUMPDEST PUSH2 0x3A3 PUSH2 0x1EC6 JUMP JUMPDEST PUSH1 0x40 MLOAD PUSH2 0x3B0 SWAP2 SWAP1 PUSH2 0x2E1C JUMP JUMPDEST PUSH1 0x40 MLOAD DUP1 SWAP2 SUB SWAP1 RETURN JUMPDEST PUSH2 0x3D3 PUSH1 0x4 DUP1 CALLDATASIZE SUB DUP2 ADD SWAP1 PUSH2 0x3CE SWAP2 SWAP1 PUSH2 0x39EC JUMP JUMPDEST PUSH2 0x1F1E JUMP JUMPDEST STOP JUMPDEST PUSH2 0x3DD PUSH2 0x1F46 JUMP JUMPDEST PUSH1 0x40 MLOAD PUSH2 0x3EA SWAP2 SWAP1 PUSH2 0x3031 JUMP JUMPDEST PUSH1 0x40 MLOAD DUP1 SWAP2 SUB SWAP1 RETURN JUMPDEST PUSH2 0x40D PUSH1 0x4 DUP1 CALLDATASIZE SUB DUP2 ADD SWAP1 PUSH2 0x408 SWAP2 SWAP1 PUSH2 0x3181 JUMP JUMPDEST PUSH2 0x1F4C JUMP JUMPDEST PUSH1 0x40 MLOAD PUSH2 0x41A SWAP2 SWAP1 PUSH2 0x3A57 JUMP JUMPDEST PUSH1 0x40 MLOAD DUP1 SWAP2 SUB SWAP1 RETURN JUMPDEST PUSH2 0x43D PUSH1 0x4 DUP1 CALLDATASIZE SUB DUP2 ADD SWAP1 PUSH2 0x438 SWAP2 SWAP1 PUSH2 0x31F9 JUMP JUMPDEST PUSH2 0x201A JUMP JUMPDEST PUSH1 0x40 MLOAD PUSH2 0x44A SWAP2 SWAP1 PUSH2 0x3439 JUMP JUMPDEST PUSH1 0x40 MLOAD DUP1 SWAP2 SUB SWAP1 RETURN JUMPDEST PUSH2 0x46D PUSH1 0x4 DUP1 CALLDATASIZE SUB DUP2 ADD SWAP1 PUSH2 0x468 SWAP2 SWAP1 PUSH2 0x3181 JUMP JUMPDEST PUSH2 0x2495 JUMP JUMPDEST PUSH1 0x40 MLOAD PUSH2 0x47A SWAP2 SWAP1 PUSH2 0x3A57 JUMP JUMPDEST PUSH1 0x40 MLOAD DUP1 SWAP2 SUB SWAP1 RETURN JUMPDEST PUSH2 0x49D PUSH1 0x4 DUP1 CALLDATASIZE SUB DUP2 ADD SWAP1 PUSH2 0x498 SWAP2 SWAP1 PUSH2 0x31F9 JUMP JUMPDEST PUSH2 0x26C4 JUMP JUMPDEST PUSH1 0x40 MLOAD PUSH2 0x4AA SWAP2 SWAP1 PUSH2 0x3439 JUMP JUMPDEST PUSH1 0x40 MLOAD DUP1 SWAP2 SUB SWAP1 RETURN JUMPDEST PUSH2 0x4CD PUSH1 0x4 DUP1 CALLDATASIZE SUB DUP2 ADD SWAP1 PUSH2 0x4C8 SWAP2 SWAP1 PUSH2 0x2E7E JUMP JUMPDEST PUSH2 0x2B3F JUMP JUMPDEST PUSH1 0x40 MLOAD PUSH2 0x4DA SWAP2 SWAP1 PUSH2 0x3031 JUMP JUMPDEST PUSH1 0x40 MLOAD DUP1 SWAP2 SUB SWAP1 RETURN JUMPDEST PUSH1 0x60 PUSH1 0x3 DUP1 SLOAD DUP1 PUSH1 0x20 MUL PUSH1 0x20 ADD PUSH1 0x40 MLOAD SWAP1 DUP2 ADD PUSH1 0x40 MSTORE DUP1 SWAP3 SWAP2 SWAP1 DUP2 DUP2 MSTORE PUSH1 0x20 ADD DUP3 DUP1 SLOAD DUP1 ISZERO PUSH2 0x531 JUMPI PUSH1 0x20 MUL DUP3 ADD SWAP2 SWAP1 PUSH1 0x0 MSTORE PUSH1 0x20 PUSH1 0x0 KECCAK256 SWAP1 JUMPDEST DUP2 SLOAD DUP2 MSTORE PUSH1 0x20 ADD SWAP1 PUSH1 0x1 ADD SWAP1 DUP1 DUP4 GT PUSH2 0x51D JUMPI JUMPDEST POP POP POP POP POP SWAP1 POP SWAP1 JUMP JUMPDEST PUSH2 0x543 PUSH2 0x2B63 JUMP JUMPDEST PUSH1 0x7 PUSH1 0x0 DUP4 DUP2 MSTORE PUSH1 0x20 ADD SWAP1 DUP2 MSTORE PUSH1 0x20 ADD PUSH1 0x0 KECCAK256 PUSH1 0x40 MLOAD DUP1 PUSH1 0xE0 ADD PUSH1 0x40 MSTORE SWAP1 DUP2 PUSH1 0x0 DUP3 ADD SLOAD DUP2 MSTORE PUSH1 0x20 ADD PUSH1 0x1 DUP3 ADD SLOAD DUP2 MSTORE PUSH1 0x20 ADD PUSH1 0x2 DUP3 ADD DUP1 SLOAD PUSH2 0x585 SWAP1 PUSH2 0x3AA1 JUMP JUMPDEST DUP1 PUSH1 0x1F ADD PUSH1 0x20 DUP1 SWAP2 DIV MUL PUSH1 0x20 ADD PUSH1 0x40 MLOAD SWAP1 DUP2 ADD PUSH1 0x40 MSTORE DUP1 SWAP3 SWAP2 SWAP1 DUP2 DUP2 MSTORE PUSH1 0x20 ADD DUP3 DUP1 SLOAD PUSH2 0x5B1 SWAP1 PUSH2 0x3AA1 JUMP JUMPDEST DUP1 ISZERO PUSH2 0x5FE JUMPI DUP1 PUSH1 0x1F LT PUSH2 0x5D3 JUMPI PUSH2 0x100 DUP1 DUP4 SLOAD DIV MUL DUP4 MSTORE SWAP2 PUSH1 0x20 ADD SWAP2 PUSH2 0x5FE JUMP JUMPDEST DUP3 ADD SWAP2 SWAP1 PUSH1 0x0 MSTORE PUSH1 0x20 PUSH1 0x0 KECCAK256 SWAP1 JUMPDEST DUP2 SLOAD DUP2 MSTORE SWAP1 PUSH1 0x1 ADD SWAP1 PUSH1 0x20 ADD DUP1 DUP4 GT PUSH2 0x5E1 JUMPI DUP3 SWAP1 SUB PUSH1 0x1F AND DUP3 ADD SWAP2 JUMPDEST POP POP POP POP POP DUP2 MSTORE PUSH1 0x20 ADD PUSH1 0x3 DUP3 ADD DUP1 SLOAD PUSH2 0x617 SWAP1 PUSH2 0x3AA1 JUMP JUMPDEST DUP1 PUSH1 0x1F ADD PUSH1 0x20 DUP1 SWAP2 DIV MUL PUSH1 0x20 ADD PUSH1 0x40 MLOAD SWAP1 DUP2 ADD PUSH1 0x40 MSTORE DUP1 SWAP3 SWAP2 SWAP1 DUP2 DUP2 MSTORE PUSH1 0x20 ADD DUP3 DUP1 SLOAD PUSH2 0x643 SWAP1 PUSH2 0x3AA1 JUMP JUMPDEST DUP1 ISZERO PUSH2 0x690 JUMPI DUP1 PUSH1 0x1F LT PUSH2 0x665 JUMPI PUSH2 0x100 DUP1 DUP4 SLOAD DIV MUL DUP4 MSTORE SWAP2 PUSH1 0x20 ADD SWAP2 PUSH2 0x690 JUMP JUMPDEST DUP3 ADD SWAP2 SWAP1 PUSH1 0x0 MSTORE PUSH1 0x20 PUSH1 0x0 KECCAK256 SWAP1 JUMPDEST DUP2 SLOAD DUP2 MSTORE SWAP1 PUSH1 0x1 ADD SWAP1 PUSH1 0x20 ADD DUP1 DUP4 GT PUSH2 0x673 JUMPI DUP3 SWAP1 SUB PUSH1 0x1F AND DUP3 ADD SWAP2 JUMPDEST POP POP POP POP POP DUP2 MSTORE PUSH1 0x20 ADD PUSH1 0x4 DUP3 ADD PUSH1 0x0 SWAP1 SLOAD SWAP1 PUSH2 0x100 EXP SWAP1 DIV PUSH1 0xFF AND ISZERO ISZERO ISZERO ISZERO DUP2 MSTORE PUSH1 0x20 ADD PUSH1 0x4 DUP3 ADD PUSH1 0x1 SWAP1 SLOAD SWAP1 PUSH2 0x100 EXP SWAP1 DIV PUSH1 0xFF AND ISZERO ISZERO ISZERO ISZERO DUP2 MSTORE PUSH1 0x20 ADD PUSH1 0x5 DUP3 ADD DUP1 SLOAD PUSH2 0x6DF SWAP1 PUSH2 0x3AA1 JUMP JUMPDEST DUP1 PUSH1 0x1F ADD PUSH1 0x20 DUP1 SWAP2 DIV MUL PUSH1 0x20 ADD PUSH1 0x40 MLOAD SWAP1 DUP2 ADD PUSH1 0x40 MSTORE DUP1 SWAP3 SWAP2 SWAP1 DUP2 DUP2 MSTORE PUSH1 0x20 ADD DUP3 DUP1 SLOAD PUSH2 0x70B SWAP1 PUSH2 0x3AA1 JUMP JUMPDEST DUP1 ISZERO PUSH2 0x758 JUMPI DUP1 PUSH1 0x1F LT PUSH2 0x72D JUMPI PUSH2 0x100 DUP1 DUP4 SLOAD DIV MUL DUP4 MSTORE SWAP2 PUSH1 0x20 ADD SWAP2 PUSH2 0x758 JUMP JUMPDEST DUP3 ADD SWAP2 SWAP1 PUSH1 0x0 MSTORE PUSH1 0x20 PUSH1 0x0 KECCAK256 SWAP1 JUMPDEST DUP2 SLOAD DUP2 MSTORE SWAP1 PUSH1 0x1 ADD SWAP1 PUSH1 0x20 ADD DUP1 DUP4 GT PUSH2 0x73B JUMPI DUP3 SWAP1 SUB PUSH1 0x1F AND DUP3 ADD SWAP2 JUMPDEST POP POP POP POP POP DUP2 MSTORE POP POP SWAP1 POP SWAP2 SWAP1 POP JUMP JUMPDEST PUSH1 0x4 DUP2 DUP2 SLOAD DUP2 LT PUSH2 0x778 JUMPI PUSH1 0x0 DUP1 REVERT JUMPDEST SWAP1 PUSH1 0x0 MSTORE PUSH1 0x20 PUSH1 0x0 KECCAK256 ADD PUSH1 0x0 SWAP2 POP SWAP1 POP SLOAD DUP2 JUMP JUMPDEST DUP1 PUSH1 0xD DUP4 PUSH1 0x40 MLOAD PUSH2 0x79D SWAP2 SWAP1 PUSH2 0x3B0E JUMP JUMPDEST SWAP1 DUP2 MSTORE PUSH1 0x20 ADD PUSH1 0x40 MLOAD DUP1 SWAP2 SUB SWAP1 KECCAK256 SWAP1 DUP2 PUSH2 0x7B7 SWAP2 SWAP1 PUSH2 0x3CD1 JUMP JUMPDEST POP DUP2 PUSH1 0x6 DUP3 PUSH1 0x40 MLOAD PUSH2 0x7C9 SWAP2 SWAP1 PUSH2 0x3B0E JUMP JUMPDEST SWAP1 DUP2 MSTORE PUSH1 0x20 ADD PUSH1 0x40 MLOAD DUP1 SWAP2 SUB SWAP1 KECCAK256 PUSH1 0x2 ADD SWAP1 DUP2 PUSH2 0x7E6 SWAP2 SWAP1 PUSH2 0x3CD1 JUMP JUMPDEST POP POP POP JUMP JUMPDEST PUSH2 0x82A DUP3 PUSH1 0x40 MLOAD DUP1 PUSH1 0x40 ADD PUSH1 0x40 MSTORE DUP1 PUSH1 0x8 DUP2 MSTORE PUSH1 0x20 ADD PUSH32 0x7573657257434944000000000000000000000000000000000000000000000000 DUP2 MSTORE POP PUSH2 0x2495 JUMP JUMPDEST PUSH2 0x88A JUMPI DUP1 PUSH1 0xB DUP4 PUSH1 0x40 MLOAD PUSH2 0x83F SWAP2 SWAP1 PUSH2 0x3B0E JUMP JUMPDEST SWAP1 DUP2 MSTORE PUSH1 0x20 ADD PUSH1 0x40 MLOAD DUP1 SWAP2 SUB SWAP1 KECCAK256 SWAP1 DUP2 PUSH2 0x859 SWAP2 SWAP1 PUSH2 0x3CD1 JUMP JUMPDEST POP DUP2 PUSH1 0x6 DUP3 PUSH1 0x40 MLOAD PUSH2 0x86B SWAP2 SWAP1 PUSH2 0x3B0E JUMP JUMPDEST SWAP1 DUP2 MSTORE PUSH1 0x20 ADD PUSH1 0x40 MLOAD DUP1 SWAP2 SUB SWAP1 KECCAK256 PUSH1 0x1 ADD SWAP1 DUP2 PUSH2 0x888 SWAP2 SWAP1 PUSH2 0x3CD1 JUMP JUMPDEST POP JUMPDEST POP POP JUMP JUMPDEST PUSH2 0x896 PUSH2 0x2BA4 JUMP JUMPDEST PUSH1 0x6 DUP3 PUSH1 0x40 MLOAD PUSH2 0x8A6 SWAP2 SWAP1 PUSH2 0x3B0E JUMP JUMPDEST SWAP1 DUP2 MSTORE PUSH1 0x20 ADD PUSH1 0x40 MLOAD DUP1 SWAP2 SUB SWAP1 KECCAK256 PUSH1 0x40 MLOAD DUP1 PUSH1 0xE0 ADD PUSH1 0x40 MSTORE SWAP1 DUP2 PUSH1 0x0 DUP3 ADD DUP1 SLOAD PUSH2 0x8CF SWAP1 PUSH2 0x3AA1 JUMP JUMPDEST DUP1 PUSH1 0x1F ADD PUSH1 0x20 DUP1 SWAP2 DIV MUL PUSH1 0x20 ADD PUSH1 0x40 MLOAD SWAP1 DUP2 ADD PUSH1 0x40 MSTORE DUP1 SWAP3 SWAP2 SWAP1 DUP2 DUP2 MSTORE PUSH1 0x20 ADD DUP3 DUP1 SLOAD PUSH2 0x8FB SWAP1 PUSH2 0x3AA1 JUMP JUMPDEST DUP1 ISZERO PUSH2 0x948 JUMPI DUP1 PUSH1 0x1F LT PUSH2 0x91D JUMPI PUSH2 0x100 DUP1 DUP4 SLOAD DIV MUL DUP4 MSTORE SWAP2 PUSH1 0x20 ADD SWAP2 PUSH2 0x948 JUMP JUMPDEST DUP3 ADD SWAP2 SWAP1 PUSH1 0x0 MSTORE PUSH1 0x20 PUSH1 0x0 KECCAK256 SWAP1 JUMPDEST DUP2 SLOAD DUP2 MSTORE SWAP1 PUSH1 0x1 ADD SWAP1 PUSH1 0x20 ADD DUP1 DUP4 GT PUSH2 0x92B JUMPI DUP3 SWAP1 SUB PUSH1 0x1F AND DUP3 ADD SWAP2 JUMPDEST POP POP POP POP POP DUP2 MSTORE PUSH1 0x20 ADD PUSH1 0x1 DUP3 ADD DUP1 SLOAD PUSH2 0x961 SWAP1 PUSH2 0x3AA1 JUMP JUMPDEST DUP1 PUSH1 0x1F ADD PUSH1 0x20 DUP1 SWAP2 DIV MUL PUSH1 0x20 ADD PUSH1 0x40 MLOAD SWAP1 DUP2 ADD PUSH1 0x40 MSTORE DUP1 SWAP3 SWAP2 SWAP1 DUP2 DUP2 MSTORE PUSH1 0x20 ADD DUP3 DUP1 SLOAD PUSH2 0x98D SWAP1 PUSH2 0x3AA1 JUMP JUMPDEST DUP1 ISZERO PUSH2 0x9DA JUMPI DUP1 PUSH1 0x1F LT PUSH2 0x9AF JUMPI PUSH2 0x100 DUP1 DUP4 SLOAD DIV MUL DUP4 MSTORE SWAP2 PUSH1 0x20 ADD SWAP2 PUSH2 0x9DA JUMP JUMPDEST DUP3 ADD SWAP2 SWAP1 PUSH1 0x0 MSTORE PUSH1 0x20 PUSH1 0x0 KECCAK256 SWAP1 JUMPDEST DUP2 SLOAD DUP2 MSTORE SWAP1 PUSH1 0x1 ADD SWAP1 PUSH1 0x20 ADD DUP1 DUP4 GT PUSH2 0x9BD JUMPI DUP3 SWAP1 SUB PUSH1 0x1F AND DUP3 ADD SWAP2 JUMPDEST POP POP POP POP POP DUP2 MSTORE PUSH1 0x20 ADD PUSH1 0x2 DUP3 ADD DUP1 SLOAD PUSH2 0x9F3 SWAP1 PUSH2 0x3AA1 JUMP JUMPDEST DUP1 PUSH1 0x1F ADD PUSH1 0x20 DUP1 SWAP2 DIV MUL PUSH1 0x20 ADD PUSH1 0x40 MLOAD SWAP1 DUP2 ADD PUSH1 0x40 MSTORE DUP1 SWAP3 SWAP2 SWAP1 DUP2 DUP2 MSTORE PUSH1 0x20 ADD DUP3 DUP1 SLOAD PUSH2 0xA1F SWAP1 PUSH2 0x3AA1 JUMP JUMPDEST DUP1 ISZERO PUSH2 0xA6C JUMPI DUP1 PUSH1 0x1F LT PUSH2 0xA41 JUMPI PUSH2 0x100 DUP1 DUP4 SLOAD DIV MUL DUP4 MSTORE SWAP2 PUSH1 0x20 ADD SWAP2 PUSH2 0xA6C JUMP JUMPDEST DUP3 ADD SWAP2 SWAP1 PUSH1 0x0 MSTORE PUSH1 0x20 PUSH1 0x0 KECCAK256 SWAP1 JUMPDEST DUP2 SLOAD DUP2 MSTORE SWAP1 PUSH1 0x1 ADD SWAP1 PUSH1 0x20 ADD DUP1 DUP4 GT PUSH2 0xA4F JUMPI DUP3 SWAP1 SUB PUSH1 0x1F AND DUP3 ADD SWAP2 JUMPDEST POP POP POP POP POP DUP2 MSTORE PUSH1 0x20 ADD PUSH1 0x3 DUP3 ADD DUP1 SLOAD DUP1 PUSH1 0x20 MUL PUSH1 0x20 ADD PUSH1 0x40 MLOAD SWAP1 DUP2 ADD PUSH1 0x40 MSTORE DUP1 SWAP3 SWAP2 SWAP1 DUP2 DUP2 MSTORE PUSH1 0x20 ADD PUSH1 0x0 SWAP1 JUMPDEST DUP3 DUP3 LT ISZERO PUSH2 0xB46 JUMPI DUP4 DUP3 SWAP1 PUSH1 0x0 MSTORE PUSH1 0x20 PUSH1 0x0 KECCAK256 ADD DUP1 SLOAD PUSH2 0xAB9 SWAP1 PUSH2 0x3AA1 JUMP JUMPDEST DUP1 PUSH1 0x1F ADD PUSH1 0x20 DUP1 SWAP2 DIV MUL PUSH1 0x20 ADD PUSH1 0x40 MLOAD SWAP1 DUP2 ADD PUSH1 0x40 MSTORE DUP1 SWAP3 SWAP2 SWAP1 DUP2 DUP2 MSTORE PUSH1 0x20 ADD DUP3 DUP1 SLOAD PUSH2 0xAE5 SWAP1 PUSH2 0x3AA1 JUMP JUMPDEST DUP1 ISZERO PUSH2 0xB32 JUMPI DUP1 PUSH1 0x1F LT PUSH2 0xB07 JUMPI PUSH2 0x100 DUP1 DUP4 SLOAD DIV MUL DUP4 MSTORE SWAP2 PUSH1 0x20 ADD SWAP2 PUSH2 0xB32 JUMP JUMPDEST DUP3 ADD SWAP2 SWAP1 PUSH1 0x0 MSTORE PUSH1 0x20 PUSH1 0x0 KECCAK256 SWAP1 JUMPDEST DUP2 SLOAD DUP2 MSTORE SWAP1 PUSH1 0x1 ADD SWAP1 PUSH1 0x20 ADD DUP1 DUP4 GT PUSH2 0xB15 JUMPI DUP3 SWAP1 SUB PUSH1 0x1F AND DUP3 ADD SWAP2 JUMPDEST POP POP POP POP POP DUP2 MSTORE PUSH1 0x20 ADD SWAP1 PUSH1 0x1 ADD SWAP1 PUSH2 0xA9A JUMP JUMPDEST POP POP POP POP DUP2 MSTORE PUSH1 0x20 ADD PUSH1 0x4 DUP3 ADD DUP1 SLOAD DUP1 PUSH1 0x20 MUL PUSH1 0x20 ADD PUSH1 0x40 MLOAD SWAP1 DUP2 ADD PUSH1 0x40 MSTORE DUP1 SWAP3 SWAP2 SWAP1 DUP2 DUP2 MSTORE PUSH1 0x20 ADD DUP3 DUP1 SLOAD DUP1 ISZERO PUSH2 0xB9D JUMPI PUSH1 0x20 MUL DUP3 ADD SWAP2 SWAP1 PUSH1 0x0 MSTORE PUSH1 0x20 PUSH1 0x0 KECCAK256 SWAP1 JUMPDEST DUP2 SLOAD DUP2 MSTORE PUSH1 0x20 ADD SWAP1 PUSH1 0x1 ADD SWAP1 DUP1 DUP4 GT PUSH2 0xB89 JUMPI JUMPDEST POP POP POP POP POP DUP2 MSTORE PUSH1 0x20 ADD PUSH1 0x5 DUP3 ADD DUP1 SLOAD DUP1 PUSH1 0x20 MUL PUSH1 0x20 ADD PUSH1 0x40 MLOAD SWAP1 DUP2 ADD PUSH1 0x40 MSTORE DUP1 SWAP3 SWAP2 SWAP1 DUP2 DUP2 MSTORE PUSH1 0x20 ADD DUP3 DUP1 SLOAD DUP1 ISZERO PUSH2 0xBF5 JUMPI PUSH1 0x20 MUL DUP3 ADD SWAP2 SWAP1 PUSH1 0x0 MSTORE PUSH1 0x20 PUSH1 0x0 KECCAK256 SWAP1 JUMPDEST DUP2 SLOAD DUP2 MSTORE PUSH1 0x20 ADD SWAP1 PUSH1 0x1 ADD SWAP1 DUP1 DUP4 GT PUSH2 0xBE1 JUMPI JUMPDEST POP POP POP POP POP DUP2 MSTORE PUSH1 0x20 ADD PUSH1 0x6 DUP3 ADD DUP1 SLOAD DUP1 PUSH1 0x20 MUL PUSH1 0x20 ADD PUSH1 0x40 MLOAD SWAP1 DUP2 ADD PUSH1 0x40 MSTORE DUP1 SWAP3 SWAP2 SWAP1 DUP2 DUP2 MSTORE PUSH1 0x20 ADD DUP3 DUP1 SLOAD DUP1 ISZERO PUSH2 0xC4D JUMPI PUSH1 0x20 MUL DUP3 ADD SWAP2 SWAP1 PUSH1 0x0 MSTORE PUSH1 0x20 PUSH1 0x0 KECCAK256 SWAP1 JUMPDEST DUP2 SLOAD DUP2 MSTORE PUSH1 0x20 ADD SWAP1 PUSH1 0x1 ADD SWAP1 DUP1 DUP4 GT PUSH2 0xC39 JUMPI JUMPDEST POP POP POP POP POP DUP2 MSTORE POP POP SWAP1 POP SWAP2 SWAP1 POP JUMP JUMPDEST PUSH2 0xC65 PUSH2 0x2BE1 JUMP JUMPDEST PUSH1 0x5 PUSH1 0x0 DUP4 DUP2 MSTORE PUSH1 0x20 ADD SWAP1 DUP2 MSTORE PUSH1 0x20 ADD PUSH1 0x0 KECCAK256 PUSH1 0x40 MLOAD DUP1 PUSH2 0x120 ADD PUSH1 0x40 MSTORE SWAP1 DUP2 PUSH1 0x0 DUP3 ADD SLOAD DUP2 MSTORE PUSH1 0x20 ADD PUSH1 0x1 DUP3 ADD DUP1 SLOAD PUSH2 0xC9E SWAP1 PUSH2 0x3AA1 JUMP JUMPDEST DUP1 PUSH1 0x1F ADD PUSH1 0x20 DUP1 SWAP2 DIV MUL PUSH1 0x20 ADD PUSH1 0x40 MLOAD SWAP1 DUP2 ADD PUSH1 0x40 MSTORE DUP1 SWAP3 SWAP2 SWAP1 DUP2 DUP2 MSTORE PUSH1 0x20 ADD DUP3 DUP1 SLOAD PUSH2 0xCCA SWAP1 PUSH2 0x3AA1 JUMP JUMPDEST DUP1 ISZERO PUSH2 0xD17 JUMPI DUP1 PUSH1 0x1F LT PUSH2 0xCEC JUMPI PUSH2 0x100 DUP1 DUP4 SLOAD DIV MUL DUP4 MSTORE SWAP2 PUSH1 0x20 ADD SWAP2 PUSH2 0xD17 JUMP JUMPDEST DUP3 ADD SWAP2 SWAP1 PUSH1 0x0 MSTORE PUSH1 0x20 PUSH1 0x0 KECCAK256 SWAP1 JUMPDEST DUP2 SLOAD DUP2 MSTORE SWAP1 PUSH1 0x1 ADD SWAP1 PUSH1 0x20 ADD DUP1 DUP4 GT PUSH2 0xCFA JUMPI DUP3 SWAP1 SUB PUSH1 0x1F AND DUP3 ADD SWAP2 JUMPDEST POP POP POP POP POP DUP2 MSTORE PUSH1 0x20 ADD PUSH1 0x2 DUP3 ADD DUP1 SLOAD PUSH2 0xD30 SWAP1 PUSH2 0x3AA1 JUMP JUMPDEST DUP1 PUSH1 0x1F ADD PUSH1 0x20 DUP1 SWAP2 DIV MUL PUSH1 0x20 ADD PUSH1 0x40 MLOAD SWAP1 DUP2 ADD PUSH1 0x40 MSTORE DUP1 SWAP3 SWAP2 SWAP1 DUP2 DUP2 MSTORE PUSH1 0x20 ADD DUP3 DUP1 SLOAD PUSH2 0xD5C SWAP1 PUSH2 0x3AA1 JUMP JUMPDEST DUP1 ISZERO PUSH2 0xDA9 JUMPI DUP1 PUSH1 0x1F LT PUSH2 0xD7E JUMPI PUSH2 0x100 DUP1 DUP4 SLOAD DIV MUL DUP4 MSTORE SWAP2 PUSH1 0x20 ADD SWAP2 PUSH2 0xDA9 JUMP JUMPDEST DUP3 ADD SWAP2 SWAP1 PUSH1 0x0 MSTORE PUSH1 0x20 PUSH1 0x0 KECCAK256 SWAP1 JUMPDEST DUP2 SLOAD DUP2 MSTORE SWAP1 PUSH1 0x1 ADD SWAP1 PUSH1 0x20 ADD DUP1 DUP4 GT PUSH2 0xD8C JUMPI DUP3 SWAP1 SUB PUSH1 0x1F AND DUP3 ADD SWAP2 JUMPDEST POP POP POP POP POP DUP2 MSTORE PUSH1 0x20 ADD PUSH1 0x3 DUP3 ADD DUP1 SLOAD PUSH2 0xDC2 SWAP1 PUSH2 0x3AA1 JUMP JUMPDEST DUP1 PUSH1 0x1F ADD PUSH1 0x20 DUP1 SWAP2 DIV MUL PUSH1 0x20 ADD PUSH1 0x40 MLOAD SWAP1 DUP2 ADD PUSH1 0x40 MSTORE DUP1 SWAP3 SWAP2 SWAP1 DUP2 DUP2 MSTORE PUSH1 0x20 ADD DUP3 DUP1 SLOAD PUSH2 0xDEE SWAP1 PUSH2 0x3AA1 JUMP JUMPDEST DUP1 ISZERO PUSH2 0xE3B JUMPI DUP1 PUSH1 0x1F LT PUSH2 0xE10 JUMPI PUSH2 0x100 DUP1 DUP4 SLOAD DIV MUL DUP4 MSTORE SWAP2 PUSH1 0x20 ADD SWAP2 PUSH2 0xE3B JUMP JUMPDEST DUP3 ADD SWAP2 SWAP1 PUSH1 0x0 MSTORE PUSH1 0x20 PUSH1 0x0 KECCAK256 SWAP1 JUMPDEST DUP2 SLOAD DUP2 MSTORE SWAP1 PUSH1 0x1 ADD SWAP1 PUSH1 0x20 ADD DUP1 DUP4 GT PUSH2 0xE1E JUMPI DUP3 SWAP1 SUB PUSH1 0x1F AND DUP3 ADD SWAP2 JUMPDEST POP POP POP POP POP DUP2 MSTORE PUSH1 0x20 ADD PUSH1 0x4 DUP3 ADD DUP1 SLOAD PUSH2 0xE54 SWAP1 PUSH2 0x3AA1 JUMP JUMPDEST DUP1 PUSH1 0x1F ADD PUSH1 0x20 DUP1 SWAP2 DIV MUL PUSH1 0x20 ADD PUSH1 0x40 MLOAD SWAP1 DUP2 ADD PUSH1 0x40 MSTORE DUP1 SWAP3 SWAP2 SWAP1 DUP2 DUP2 MSTORE PUSH1 0x20 ADD DUP3 DUP1 SLOAD PUSH2 0xE80 SWAP1 PUSH2 0x3AA1 JUMP JUMPDEST DUP1 ISZERO PUSH2 0xECD JUMPI DUP1 PUSH1 0x1F LT PUSH2 0xEA2 JUMPI PUSH2 0x100 DUP1 DUP4 SLOAD DIV MUL DUP4 MSTORE SWAP2 PUSH1 0x20 ADD SWAP2 PUSH2 0xECD JUMP JUMPDEST DUP3 ADD SWAP2 SWAP1 PUSH1 0x0 MSTORE PUSH1 0x20 PUSH1 0x0 KECCAK256 SWAP1 JUMPDEST DUP2 SLOAD DUP2 MSTORE SWAP1 PUSH1 0x1 ADD SWAP1 PUSH1 0x20 ADD DUP1 DUP4 GT PUSH2 0xEB0 JUMPI DUP3 SWAP1 SUB PUSH1 0x1F AND DUP3 ADD SWAP2 JUMPDEST POP POP POP POP POP DUP2 MSTORE PUSH1 0x20 ADD PUSH1 0x5 DUP3 ADD DUP1 SLOAD PUSH2 0xEE6 SWAP1 PUSH2 0x3AA1 JUMP JUMPDEST DUP1 PUSH1 0x1F ADD PUSH1 0x20 DUP1 SWAP2 DIV MUL PUSH1 0x20 ADD PUSH1 0x40 MLOAD SWAP1 DUP2 ADD PUSH1 0x40 MSTORE DUP1 SWAP3 SWAP2 SWAP1 DUP2 DUP2 MSTORE PUSH1 0x20 ADD DUP3 DUP1 SLOAD PUSH2 0xF12 SWAP1 PUSH2 0x3AA1 JUMP JUMPDEST DUP1 ISZERO PUSH2 0xF5F JUMPI DUP1 PUSH1 0x1F LT PUSH2 0xF34 JUMPI PUSH2 0x100 DUP1 DUP4 SLOAD DIV MUL DUP4 MSTORE SWAP2 PUSH1 0x20 ADD SWAP2 PUSH2 0xF5F JUMP JUMPDEST DUP3 ADD SWAP2 SWAP1 PUSH1 0x0 MSTORE PUSH1 0x20 PUSH1 0x0 KECCAK256 SWAP1 JUMPDEST DUP2 SLOAD DUP2 MSTORE SWAP1 PUSH1 0x1 ADD SWAP1 PUSH1 0x20 ADD DUP1 DUP4 GT PUSH2 0xF42 JUMPI DUP3 SWAP1 SUB PUSH1 0x1F AND DUP3 ADD SWAP2 JUMPDEST POP POP POP POP POP DUP2 MSTORE PUSH1 0x20 ADD PUSH1 0x6 DUP3 ADD SLOAD DUP2 MSTORE PUSH1 0x20 ADD PUSH1 0x7 DUP3 ADD SLOAD DUP2 MSTORE PUSH1 0x20 ADD PUSH1 0x8 DUP3 ADD DUP1 SLOAD PUSH2 0xF8C SWAP1 PUSH2 0x3AA1 JUMP JUMPDEST DUP1 PUSH1 0x1F ADD PUSH1 0x20 DUP1 SWAP2 DIV MUL PUSH1 0x20 ADD PUSH1 0x40 MLOAD SWAP1 DUP2 ADD PUSH1 0x40 MSTORE DUP1 SWAP3 SWAP2 SWAP1 DUP2 DUP2 MSTORE PUSH1 0x20 ADD DUP3 DUP1 SLOAD PUSH2 0xFB8 SWAP1 PUSH2 0x3AA1 JUMP JUMPDEST DUP1 ISZERO PUSH2 0x1005 JUMPI DUP1 PUSH1 0x1F LT PUSH2 0xFDA JUMPI PUSH2 0x100 DUP1 DUP4 SLOAD DIV MUL DUP4 MSTORE SWAP2 PUSH1 0x20 ADD SWAP2 PUSH2 0x1005 JUMP JUMPDEST DUP3 ADD SWAP2 SWAP1 PUSH1 0x0 MSTORE PUSH1 0x20 PUSH1 0x0 KECCAK256 SWAP1 JUMPDEST DUP2 SLOAD DUP2 MSTORE SWAP1 PUSH1 0x1 ADD SWAP1 PUSH1 0x20 ADD DUP1 DUP4 GT PUSH2 0xFE8 JUMPI DUP3 SWAP1 SUB PUSH1 0x1F AND DUP3 ADD SWAP2 JUMPDEST POP POP POP POP POP DUP2 MSTORE POP POP SWAP1 POP SWAP2 SWAP1 POP JUMP JUMPDEST PUSH1 0x40 MLOAD DUP1 PUSH1 0xE0 ADD PUSH1 0x40 MSTORE DUP1 PUSH1 0x2 SLOAD DUP2 MSTORE PUSH1 0x20 ADD DUP3 DUP2 MSTORE PUSH1 0x20 ADD DUP5 DUP2 MSTORE PUSH1 0x20 ADD DUP4 DUP2 MSTORE PUSH1 0x20 ADD PUSH1 0x0 ISZERO ISZERO DUP2 MSTORE PUSH1 0x20 ADD PUSH1 0x0 ISZERO ISZERO DUP2 MSTORE PUSH1 0x20 ADD PUSH1 0x40 MLOAD DUP1 PUSH1 0x20 ADD PUSH1 0x40 MSTORE DUP1 PUSH1 0x0 DUP2 MSTORE POP DUP2 MSTORE POP PUSH1 0x7 PUSH1 0x0 PUSH1 0x2 SLOAD DUP2 MSTORE PUSH1 0x20 ADD SWAP1 DUP2 MSTORE PUSH1 0x20 ADD PUSH1 0x0 KECCAK256 PUSH1 0x0 DUP3 ADD MLOAD DUP2 PUSH1 0x0 ADD SSTORE PUSH1 0x20 DUP3 ADD MLOAD DUP2 PUSH1 0x1 ADD SSTORE PUSH1 0x40 DUP3 ADD MLOAD DUP2 PUSH1 0x2 ADD SWAP1 DUP2 PUSH2 0x109D SWAP2 SWAP1 PUSH2 0x3CD1 JUMP JUMPDEST POP PUSH1 0x60 DUP3 ADD MLOAD DUP2 PUSH1 0x3 ADD SWAP1 DUP2 PUSH2 0x10B3 SWAP2 SWAP1 PUSH2 0x3CD1 JUMP JUMPDEST POP PUSH1 0x80 DUP3 ADD MLOAD DUP2 PUSH1 0x4 ADD PUSH1 0x0 PUSH2 0x100 EXP DUP2 SLOAD DUP2 PUSH1 0xFF MUL NOT AND SWAP1 DUP4 ISZERO ISZERO MUL OR SWAP1 SSTORE POP PUSH1 0xA0 DUP3 ADD MLOAD DUP2 PUSH1 0x4 ADD PUSH1 0x1 PUSH2 0x100 EXP DUP2 SLOAD DUP2 PUSH1 0xFF MUL NOT AND SWAP1 DUP4 ISZERO ISZERO MUL OR SWAP1 SSTORE POP PUSH1 0xC0 DUP3 ADD MLOAD DUP2 PUSH1 0x5 ADD SWAP1 DUP2 PUSH2 0x1109 SWAP2 SWAP1 PUSH2 0x3CD1 JUMP JUMPDEST POP SWAP1 POP POP PUSH1 0x6 DUP4 PUSH1 0x40 MLOAD PUSH2 0x111D SWAP2 SWAP1 PUSH2 0x3B0E JUMP JUMPDEST SWAP1 DUP2 MSTORE PUSH1 0x20 ADD PUSH1 0x40 MLOAD DUP1 SWAP2 SUB SWAP1 KECCAK256 PUSH1 0x5 ADD PUSH1 0x7 PUSH1 0x0 PUSH1 0x2 SLOAD DUP2 MSTORE PUSH1 0x20 ADD SWAP1 DUP2 MSTORE PUSH1 0x20 ADD PUSH1 0x0 KECCAK256 PUSH1 0x0 ADD SLOAD SWAP1 DUP1 PUSH1 0x1 DUP2 SLOAD ADD DUP1 DUP3 SSTORE DUP1 SWAP2 POP POP PUSH1 0x1 SWAP1 SUB SWAP1 PUSH1 0x0 MSTORE PUSH1 0x20 PUSH1 0x0 KECCAK256 ADD PUSH1 0x0 SWAP1 SWAP2 SWAP1 SWAP2 SWAP1 SWAP2 POP SSTORE PUSH1 0x6 DUP3 PUSH1 0x40 MLOAD PUSH2 0x117D SWAP2 SWAP1 PUSH2 0x3B0E JUMP JUMPDEST SWAP1 DUP2 MSTORE PUSH1 0x20 ADD PUSH1 0x40 MLOAD DUP1 SWAP2 SUB SWAP1 KECCAK256 PUSH1 0x6 ADD PUSH1 0x7 PUSH1 0x0 PUSH1 0x2 SLOAD DUP2 MSTORE PUSH1 0x20 ADD SWAP1 DUP2 MSTORE PUSH1 0x20 ADD PUSH1 0x0 KECCAK256 PUSH1 0x0 ADD SLOAD SWAP1 DUP1 PUSH1 0x1 DUP2 SLOAD ADD DUP1 DUP3 SSTORE DUP1 SWAP2 POP POP PUSH1 0x1 SWAP1 SUB SWAP1 PUSH1 0x0 MSTORE PUSH1 0x20 PUSH1 0x0 KECCAK256 ADD PUSH1 0x0 SWAP1 SWAP2 SWAP1 SWAP2 SWAP1 SWAP2 POP SSTORE PUSH1 0x4 PUSH1 0x2 SLOAD SWAP1 DUP1 PUSH1 0x1 DUP2 SLOAD ADD DUP1 DUP3 SSTORE DUP1 SWAP2 POP POP PUSH1 0x1 SWAP1 SUB SWAP1 PUSH1 0x0 MSTORE PUSH1 0x20 PUSH1 0x0 KECCAK256 ADD PUSH1 0x0 SWAP1 SWAP2 SWAP1 SWAP2 SWAP1 SWAP2 POP SSTORE PUSH1 0x2 PUSH1 0x0 DUP2 SLOAD DUP1 SWAP3 SWAP2 SWAP1 PUSH2 0x120B SWAP1 PUSH2 0x3DD2 JUMP JUMPDEST SWAP2 SWAP1 POP SSTORE POP POP POP POP JUMP JUMPDEST PUSH2 0x121D PUSH2 0x2BA4 JUMP JUMPDEST PUSH1 0x60 DUP1 PUSH1 0x40 MLOAD DUP1 PUSH1 0xE0 ADD PUSH1 0x40 MSTORE DUP1 DUP7 DUP2 MSTORE PUSH1 0x20 ADD PUSH1 0x40 MLOAD DUP1 PUSH1 0x20 ADD PUSH1 0x40 MSTORE DUP1 PUSH1 0x0 DUP2 MSTORE POP DUP2 MSTORE PUSH1 0x20 ADD PUSH1 0x40 MLOAD DUP1 PUSH1 0x20 ADD PUSH1 0x40 MSTORE DUP1 PUSH1 0x0 DUP2 MSTORE POP DUP2 MSTORE PUSH1 0x20 ADD DUP6 DUP2 MSTORE PUSH1 0x20 ADD DUP4 DUP2 MSTORE PUSH1 0x20 ADD DUP3 DUP2 MSTORE PUSH1 0x20 ADD DUP3 DUP2 MSTORE POP PUSH1 0x6 DUP7 PUSH1 0x40 MLOAD PUSH2 0x1281 SWAP2 SWAP1 PUSH2 0x3B0E JUMP JUMPDEST SWAP1 DUP2 MSTORE PUSH1 0x20 ADD PUSH1 0x40 MLOAD DUP1 SWAP2 SUB SWAP1 KECCAK256 PUSH1 0x0 DUP3 ADD MLOAD DUP2 PUSH1 0x0 ADD SWAP1 DUP2 PUSH2 0x12A4 SWAP2 SWAP1 PUSH2 0x3CD1 JUMP JUMPDEST POP PUSH1 0x20 DUP3 ADD MLOAD DUP2 PUSH1 0x1 ADD SWAP1 DUP2 PUSH2 0x12BA SWAP2 SWAP1 PUSH2 0x3CD1 JUMP JUMPDEST POP PUSH1 0x40 DUP3 ADD MLOAD DUP2 PUSH1 0x2 ADD SWAP1 DUP2 PUSH2 0x12D0 SWAP2 SWAP1 PUSH2 0x3CD1 JUMP JUMPDEST POP PUSH1 0x60 DUP3 ADD MLOAD DUP2 PUSH1 0x3 ADD SWAP1 DUP1 MLOAD SWAP1 PUSH1 0x20 ADD SWAP1 PUSH2 0x12ED SWAP3 SWAP2 SWAP1 PUSH2 0x2C2D JUMP JUMPDEST POP PUSH1 0x80 DUP3 ADD MLOAD DUP2 PUSH1 0x4 ADD SWAP1 DUP1 MLOAD SWAP1 PUSH1 0x20 ADD SWAP1 PUSH2 0x130A SWAP3 SWAP2 SWAP1 PUSH2 0x2C86 JUMP JUMPDEST POP PUSH1 0xA0 DUP3 ADD MLOAD DUP2 PUSH1 0x5 ADD SWAP1 DUP1 MLOAD SWAP1 PUSH1 0x20 ADD SWAP1 PUSH2 0x1327 SWAP3 SWAP2 SWAP1 PUSH2 0x2C86 JUMP JUMPDEST POP PUSH1 0xC0 DUP3 ADD MLOAD DUP2 PUSH1 0x6 ADD SWAP1 DUP1 MLOAD SWAP1 PUSH1 0x20 ADD SWAP1 PUSH2 0x1344 SWAP3 SWAP2 SWAP1 PUSH2 0x2C86 JUMP JUMPDEST POP SWAP1 POP POP PUSH2 0x1352 DUP5 DUP7 PUSH2 0x171C JUMP JUMPDEST PUSH1 0x6 DUP6 PUSH1 0x40 MLOAD PUSH2 0x1362 SWAP2 SWAP1 PUSH2 0x3B0E JUMP JUMPDEST SWAP1 DUP2 MSTORE PUSH1 0x20 ADD PUSH1 0x40 MLOAD DUP1 SWAP2 SUB SWAP1 KECCAK256 PUSH1 0x40 MLOAD DUP1 PUSH1 0xE0 ADD PUSH1 0x40 MSTORE SWAP1 DUP2 PUSH1 0x0 DUP3 ADD DUP1 SLOAD PUSH2 0x138B SWAP1 PUSH2 0x3AA1 JUMP JUMPDEST DUP1 PUSH1 0x1F ADD PUSH1 0x20 DUP1 SWAP2 DIV MUL PUSH1 0x20 ADD PUSH1 0x40 MLOAD SWAP1 DUP2 ADD PUSH1 0x40 MSTORE DUP1 SWAP3 SWAP2 SWAP1 DUP2 DUP2 MSTORE PUSH1 0x20 ADD DUP3 DUP1 SLOAD PUSH2 0x13B7 SWAP1 PUSH2 0x3AA1 JUMP JUMPDEST DUP1 ISZERO PUSH2 0x1404 JUMPI DUP1 PUSH1 0x1F LT PUSH2 0x13D9 JUMPI PUSH2 0x100 DUP1 DUP4 SLOAD DIV MUL DUP4 MSTORE SWAP2 PUSH1 0x20 ADD SWAP2 PUSH2 0x1404 JUMP JUMPDEST DUP3 ADD SWAP2 SWAP1 PUSH1 0x0 MSTORE PUSH1 0x20 PUSH1 0x0 KECCAK256 SWAP1 JUMPDEST DUP2 SLOAD DUP2 MSTORE SWAP1 PUSH1 0x1 ADD SWAP1 PUSH1 0x20 ADD DUP1 DUP4 GT PUSH2 0x13E7 JUMPI DUP3 SWAP1 SUB PUSH1 0x1F AND DUP3 ADD SWAP2 JUMPDEST POP POP POP POP POP DUP2 MSTORE PUSH1 0x20 ADD PUSH1 0x1 DUP3 ADD DUP1 SLOAD PUSH2 0x141D SWAP1 PUSH2 0x3AA1 JUMP JUMPDEST DUP1 PUSH1 0x1F ADD PUSH1 0x20 DUP1 SWAP2 DIV MUL PUSH1 0x20 ADD PUSH1 0x40 MLOAD SWAP1 DUP2 ADD PUSH1 0x40 MSTORE DUP1 SWAP3 SWAP2 SWAP1 DUP2 DUP2 MSTORE PUSH1 0x20 ADD DUP3 DUP1 SLOAD PUSH2 0x1449 SWAP1 PUSH2 0x3AA1 JUMP JUMPDEST DUP1 ISZERO PUSH2 0x1496 JUMPI DUP1 PUSH1 0x1F LT PUSH2 0x146B JUMPI PUSH2 0x100 DUP1 DUP4 SLOAD DIV MUL DUP4 MSTORE SWAP2 PUSH1 0x20 ADD SWAP2 PUSH2 0x1496 JUMP JUMPDEST DUP3 ADD SWAP2 SWAP1 PUSH1 0x0 MSTORE PUSH1 0x20 PUSH1 0x0 KECCAK256 SWAP1 JUMPDEST DUP2 SLOAD DUP2 MSTORE SWAP1 PUSH1 0x1 ADD SWAP1 PUSH1 0x20 ADD DUP1 DUP4 GT PUSH2 0x1479 JUMPI DUP3 SWAP1 SUB PUSH1 0x1F AND DUP3 ADD SWAP2 JUMPDEST POP POP POP POP POP DUP2 MSTORE PUSH1 0x20 ADD PUSH1 0x2 DUP3 ADD DUP1 SLOAD PUSH2 0x14AF SWAP1 PUSH2 0x3AA1 JUMP JUMPDEST DUP1 PUSH1 0x1F ADD PUSH1 0x20 DUP1 SWAP2 DIV MUL PUSH1 0x20 ADD PUSH1 0x40 MLOAD SWAP1 DUP2 ADD PUSH1 0x40 MSTORE DUP1 SWAP3 SWAP2 SWAP1 DUP2 DUP2 MSTORE PUSH1 0x20 ADD DUP3 DUP1 SLOAD PUSH2 0x14DB SWAP1 PUSH2 0x3AA1 JUMP JUMPDEST DUP1 ISZERO PUSH2 0x1528 JUMPI DUP1 PUSH1 0x1F LT PUSH2 0x14FD JUMPI PUSH2 0x100 DUP1 DUP4 SLOAD DIV MUL DUP4 MSTORE SWAP2 PUSH1 0x20 ADD SWAP2 PUSH2 0x1528 JUMP JUMPDEST DUP3 ADD SWAP2 SWAP1 PUSH1 0x0 MSTORE PUSH1 0x20 PUSH1 0x0 KECCAK256 SWAP1 JUMPDEST DUP2 SLOAD DUP2 MSTORE SWAP1 PUSH1 0x1 ADD SWAP1 PUSH1 0x20 ADD DUP1 DUP4 GT PUSH2 0x150B JUMPI DUP3 SWAP1 SUB PUSH1 0x1F AND DUP3 ADD SWAP2 JUMPDEST POP POP POP POP POP DUP2 MSTORE PUSH1 0x20 ADD PUSH1 0x3 DUP3 ADD DUP1 SLOAD DUP1 PUSH1 0x20 MUL PUSH1 0x20 ADD PUSH1 0x40 MLOAD SWAP1 DUP2 ADD PUSH1 0x40 MSTORE DUP1 SWAP3 SWAP2 SWAP1 DUP2 DUP2 MSTORE PUSH1 0x20 ADD PUSH1 0x0 SWAP1 JUMPDEST DUP3 DUP3 LT ISZERO PUSH2 0x1602 JUMPI DUP4 DUP3 SWAP1 PUSH1 0x0 MSTORE PUSH1 0x20 PUSH1 0x0 KECCAK256 ADD DUP1 SLOAD PUSH2 0x1575 SWAP1 PUSH2 0x3AA1 JUMP JUMPDEST DUP1 PUSH1 0x1F ADD PUSH1 0x20 DUP1 SWAP2 DIV MUL PUSH1 0x20 ADD PUSH1 0x40 MLOAD SWAP1 DUP2 ADD PUSH1 0x40 MSTORE DUP1 SWAP3 SWAP2 SWAP1 DUP2 DUP2 MSTORE PUSH1 0x20 ADD DUP3 DUP1 SLOAD PUSH2 0x15A1 SWAP1 PUSH2 0x3AA1 JUMP JUMPDEST DUP1 ISZERO PUSH2 0x15EE JUMPI DUP1 PUSH1 0x1F LT PUSH2 0x15C3 JUMPI PUSH2 0x100 DUP1 DUP4 SLOAD DIV MUL DUP4 MSTORE SWAP2 PUSH1 0x20 ADD SWAP2 PUSH2 0x15EE JUMP JUMPDEST DUP3 ADD SWAP2 SWAP1 PUSH1 0x0 MSTORE PUSH1 0x20 PUSH1 0x0 KECCAK256 SWAP1 JUMPDEST DUP2 SLOAD DUP2 MSTORE SWAP1 PUSH1 0x1 ADD SWAP1 PUSH1 0x20 ADD DUP1 DUP4 GT PUSH2 0x15D1 JUMPI DUP3 SWAP1 SUB PUSH1 0x1F AND DUP3 ADD SWAP2 JUMPDEST POP POP POP POP POP DUP2 MSTORE PUSH1 0x20 ADD SWAP1 PUSH1 0x1 ADD SWAP1 PUSH2 0x1556 JUMP JUMPDEST POP POP POP POP DUP2 MSTORE PUSH1 0x20 ADD PUSH1 0x4 DUP3 ADD DUP1 SLOAD DUP1 PUSH1 0x20 MUL PUSH1 0x20 ADD PUSH1 0x40 MLOAD SWAP1 DUP2 ADD PUSH1 0x40 MSTORE DUP1 SWAP3 SWAP2 SWAP1 DUP2 DUP2 MSTORE PUSH1 0x20 ADD DUP3 DUP1 SLOAD DUP1 ISZERO PUSH2 0x1659 JUMPI PUSH1 0x20 MUL DUP3 ADD SWAP2 SWAP1 PUSH1 0x0 MSTORE PUSH1 0x20 PUSH1 0x0 KECCAK256 SWAP1 JUMPDEST DUP2 SLOAD DUP2 MSTORE PUSH1 0x20 ADD SWAP1 PUSH1 0x1 ADD SWAP1 DUP1 DUP4 GT PUSH2 0x1645 JUMPI JUMPDEST POP POP POP POP POP DUP2 MSTORE PUSH1 0x20 ADD PUSH1 0x5 DUP3 ADD DUP1 SLOAD DUP1 PUSH1 0x20 MUL PUSH1 0x20 ADD PUSH1 0x40 MLOAD SWAP1 DUP2 ADD PUSH1 0x40 MSTORE DUP1 SWAP3 SWAP2 SWAP1 DUP2 DUP2 MSTORE PUSH1 0x20 ADD DUP3 DUP1 SLOAD DUP1 ISZERO PUSH2 0x16B1 JUMPI PUSH1 0x20 MUL DUP3 ADD SWAP2 SWAP1 PUSH1 0x0 MSTORE PUSH1 0x20 PUSH1 0x0 KECCAK256 SWAP1 JUMPDEST DUP2 SLOAD DUP2 MSTORE PUSH1 0x20 ADD SWAP1 PUSH1 0x1 ADD SWAP1 DUP1 DUP4 GT PUSH2 0x169D JUMPI JUMPDEST POP POP POP POP POP DUP2 MSTORE PUSH1 0x20 ADD PUSH1 0x6 DUP3 ADD DUP1 SLOAD DUP1 PUSH1 0x20 MUL PUSH1 0x20 ADD PUSH1 0x40 MLOAD SWAP1 DUP2 ADD PUSH1 0x40 MSTORE DUP1 SWAP3 SWAP2 SWAP1 DUP2 DUP2 MSTORE PUSH1 0x20 ADD DUP3 DUP1 SLOAD DUP1 ISZERO PUSH2 0x1709 JUMPI PUSH1 0x20 MUL DUP3 ADD SWAP2 SWAP1 PUSH1 0x0 MSTORE PUSH1 0x20 PUSH1 0x0 KECCAK256 SWAP1 JUMPDEST DUP2 SLOAD DUP2 MSTORE PUSH1 0x20 ADD SWAP1 PUSH1 0x1 ADD SWAP1 DUP1 DUP4 GT PUSH2 0x16F5 JUMPI JUMPDEST POP POP POP POP POP DUP2 MSTORE POP POP SWAP3 POP POP POP SWAP3 SWAP2 POP POP JUMP JUMPDEST PUSH1 0x0 JUMPDEST DUP3 MLOAD DUP2 LT ISZERO PUSH2 0x181F JUMPI PUSH1 0x0 DUP4 DUP3 DUP2 MLOAD DUP2 LT PUSH2 0x173D JUMPI PUSH2 0x173C PUSH2 0x3E1A JUMP JUMPDEST JUMPDEST PUSH1 0x20 MUL PUSH1 0x20 ADD ADD MLOAD SWAP1 POP PUSH2 0x1786 DUP2 PUSH1 0x40 MLOAD DUP1 PUSH1 0x40 ADD PUSH1 0x40 MSTORE DUP1 PUSH1 0xB DUP2 MSTORE PUSH1 0x20 ADD PUSH32 0x7573657257616C6C657473000000000000000000000000000000000000000000 DUP2 MSTORE POP PUSH2 0x2495 JUMP JUMPDEST PUSH2 0x180B JUMPI DUP3 PUSH1 0xC DUP3 PUSH1 0x40 MLOAD PUSH2 0x179B SWAP2 SWAP1 PUSH2 0x3B0E JUMP JUMPDEST SWAP1 DUP2 MSTORE PUSH1 0x20 ADD PUSH1 0x40 MLOAD DUP1 SWAP2 SUB SWAP1 KECCAK256 SWAP1 DUP2 PUSH2 0x17B5 SWAP2 SWAP1 PUSH2 0x3CD1 JUMP JUMPDEST POP PUSH1 0x6 DUP4 PUSH1 0x40 MLOAD PUSH2 0x17C6 SWAP2 SWAP1 PUSH2 0x3B0E JUMP JUMPDEST SWAP1 DUP2 MSTORE PUSH1 0x20 ADD PUSH1 0x40 MLOAD DUP1 SWAP2 SUB SWAP1 KECCAK256 PUSH1 0x3 ADD DUP2 SWAP1 DUP1 PUSH1 0x1 DUP2 SLOAD ADD DUP1 DUP3 SSTORE DUP1 SWAP2 POP POP PUSH1 0x1 SWAP1 SUB SWAP1 PUSH1 0x0 MSTORE PUSH1 0x20 PUSH1 0x0 KECCAK256 ADD PUSH1 0x0 SWAP1 SWAP2 SWAP1 SWAP2 SWAP1 SWAP2 POP SWAP1 DUP2 PUSH2 0x1809 SWAP2 SWAP1 PUSH2 0x3CD1 JUMP JUMPDEST POP JUMPDEST POP DUP1 DUP1 PUSH2 0x1817 SWAP1 PUSH2 0x3DD2 JUMP JUMPDEST SWAP2 POP POP PUSH2 0x171F JUMP JUMPDEST POP POP POP JUMP JUMPDEST PUSH1 0x1 SLOAD DUP2 JUMP JUMPDEST PUSH1 0x40 MLOAD DUP1 PUSH2 0x120 ADD PUSH1 0x40 MSTORE DUP1 PUSH1 0x1 SLOAD DUP2 MSTORE PUSH1 0x20 ADD DUP10 DUP2 MSTORE PUSH1 0x20 ADD DUP9 DUP2 MSTORE PUSH1 0x20 ADD DUP8 DUP2 MSTORE PUSH1 0x20 ADD DUP7 DUP2 MSTORE PUSH1 0x20 ADD DUP6 DUP2 MSTORE PUSH1 0x20 ADD DUP5 DUP2 MSTORE PUSH1 0x20 ADD DUP4 DUP2 MSTORE PUSH1 0x20 ADD DUP3 DUP2 MSTORE POP PUSH1 0x5 PUSH1 0x0 PUSH1 0x1 SLOAD DUP2 MSTORE PUSH1 0x20 ADD SWAP1 DUP2 MSTORE PUSH1 0x20 ADD PUSH1 0x0 KECCAK256 PUSH1 0x0 DUP3 ADD MLOAD DUP2 PUSH1 0x0 ADD SSTORE PUSH1 0x20 DUP3 ADD MLOAD DUP2 PUSH1 0x1 ADD SWAP1 DUP2 PUSH2 0x18A0 SWAP2 SWAP1 PUSH2 0x3CD1 JUMP JUMPDEST POP PUSH1 0x40 DUP3 ADD MLOAD DUP2 PUSH1 0x2 ADD SWAP1 DUP2 PUSH2 0x18B6 SWAP2 SWAP1 PUSH2 0x3CD1 JUMP JUMPDEST POP PUSH1 0x60 DUP3 ADD MLOAD DUP2 PUSH1 0x3 ADD SWAP1 DUP2 PUSH2 0x18CC SWAP2 SWAP1 PUSH2 0x3CD1 JUMP JUMPDEST POP PUSH1 0x80 DUP3 ADD MLOAD DUP2 PUSH1 0x4 ADD SWAP1 DUP2 PUSH2 0x18E2 SWAP2 SWAP1 PUSH2 0x3CD1 JUMP JUMPDEST POP PUSH1 0xA0 DUP3 ADD MLOAD DUP2 PUSH1 0x5 ADD SWAP1 DUP2 PUSH2 0x18F8 SWAP2 SWAP1 PUSH2 0x3CD1 JUMP JUMPDEST POP PUSH1 0xC0 DUP3 ADD MLOAD DUP2 PUSH1 0x6 ADD SSTORE PUSH1 0xE0 DUP3 ADD MLOAD DUP2 PUSH1 0x7 ADD SSTORE PUSH2 0x100 DUP3 ADD MLOAD DUP2 PUSH1 0x8 ADD SWAP1 DUP2 PUSH2 0x1923 SWAP2 SWAP1 PUSH2 0x3CD1 JUMP JUMPDEST POP SWAP1 POP POP PUSH1 0x6 DUP9 PUSH1 0x40 MLOAD PUSH2 0x1937 SWAP2 SWAP1 PUSH2 0x3B0E JUMP JUMPDEST SWAP1 DUP2 MSTORE PUSH1 0x20 ADD PUSH1 0x40 MLOAD DUP1 SWAP2 SUB SWAP1 KECCAK256 PUSH1 0x4 ADD PUSH1 0x1 SLOAD SWAP1 DUP1 PUSH1 0x1 DUP2 SLOAD ADD DUP1 DUP3 SSTORE DUP1 SWAP2 POP POP PUSH1 0x1 SWAP1 SUB SWAP1 PUSH1 0x0 MSTORE PUSH1 0x20 PUSH1 0x0 KECCAK256 ADD PUSH1 0x0 SWAP1 SWAP2 SWAP1 SWAP2 SWAP1 SWAP2 POP SSTORE PUSH1 0x3 PUSH1 0x1 SLOAD SWAP1 DUP1 PUSH1 0x1 DUP2 SLOAD ADD DUP1 DUP3 SSTORE DUP1 SWAP2 POP POP PUSH1 0x1 SWAP1 SUB SWAP1 PUSH1 0x0 MSTORE PUSH1 0x20 PUSH1 0x0 KECCAK256 ADD PUSH1 0x0 SWAP1 SWAP2 SWAP1 SWAP2 SWAP1 SWAP2 POP SSTORE PUSH1 0x1 PUSH1 0x0 DUP2 SLOAD DUP1 SWAP3 SWAP2 SWAP1 PUSH2 0x19AF SWAP1 PUSH2 0x3DD2 JUMP JUMPDEST SWAP2 SWAP1 POP SSTORE POP POP POP POP POP POP POP POP POP JUMP JUMPDEST PUSH2 0x19C6 PUSH2 0x2BA4 JUMP JUMPDEST PUSH1 0x0 PUSH1 0xC DUP4 PUSH1 0x40 MLOAD PUSH2 0x19D8 SWAP2 SWAP1 PUSH2 0x3B0E JUMP JUMPDEST SWAP1 DUP2 MSTORE PUSH1 0x20 ADD PUSH1 0x40 MLOAD DUP1 SWAP2 SUB SWAP1 KECCAK256 DUP1 SLOAD PUSH2 0x19F1 SWAP1 PUSH2 0x3AA1 JUMP JUMPDEST DUP1 PUSH1 0x1F ADD PUSH1 0x20 DUP1 SWAP2 DIV MUL PUSH1 0x20 ADD PUSH1 0x40 MLOAD SWAP1 DUP2 ADD PUSH1 0x40 MSTORE DUP1 SWAP3 SWAP2 SWAP1 DUP2 DUP2 MSTORE PUSH1 0x20 ADD DUP3 DUP1 SLOAD PUSH2 0x1A1D SWAP1 PUSH2 0x3AA1 JUMP JUMPDEST DUP1 ISZERO PUSH2 0x1A6A JUMPI DUP1 PUSH1 0x1F LT PUSH2 0x1A3F JUMPI PUSH2 0x100 DUP1 DUP4 SLOAD DIV MUL DUP4 MSTORE SWAP2 PUSH1 0x20 ADD SWAP2 PUSH2 0x1A6A JUMP JUMPDEST DUP3 ADD SWAP2 SWAP1 PUSH1 0x0 MSTORE PUSH1 0x20 PUSH1 0x0 KECCAK256 SWAP1 JUMPDEST DUP2 SLOAD DUP2 MSTORE SWAP1 PUSH1 0x1 ADD SWAP1 PUSH1 0x20 ADD DUP1 DUP4 GT PUSH2 0x1A4D JUMPI DUP3 SWAP1 SUB PUSH1 0x1F AND DUP3 ADD SWAP2 JUMPDEST POP POP POP POP POP SWAP1 POP PUSH1 0x6 DUP2 PUSH1 0x40 MLOAD PUSH2 0x1A81 SWAP2 SWAP1 PUSH2 0x3B0E JUMP JUMPDEST SWAP1 DUP2 MSTORE PUSH1 0x20 ADD PUSH1 0x40 MLOAD DUP1 SWAP2 SUB SWAP1 KECCAK256 PUSH1 0x40 MLOAD DUP1 PUSH1 0xE0 ADD PUSH1 0x40 MSTORE SWAP1 DUP2 PUSH1 0x0 DUP3 ADD DUP1 SLOAD PUSH2 0x1AAA SWAP1 PUSH2 0x3AA1 JUMP JUMPDEST DUP1 PUSH1 0x1F ADD PUSH1 0x20 DUP1 SWAP2 DIV MUL PUSH1 0x20 ADD PUSH1 0x40 MLOAD SWAP1 DUP2 ADD PUSH1 0x40 MSTORE DUP1 SWAP3 SWAP2 SWAP1 DUP2 DUP2 MSTORE PUSH1 0x20 ADD DUP3 DUP1 SLOAD PUSH2 0x1AD6 SWAP1 PUSH2 0x3AA1 JUMP JUMPDEST DUP1 ISZERO PUSH2 0x1B23 JUMPI DUP1 PUSH1 0x1F LT PUSH2 0x1AF8 JUMPI PUSH2 0x100 DUP1 DUP4 SLOAD DIV MUL DUP4 MSTORE SWAP2 PUSH1 0x20 ADD SWAP2 PUSH2 0x1B23 JUMP JUMPDEST DUP3 ADD SWAP2 SWAP1 PUSH1 0x0 MSTORE PUSH1 0x20 PUSH1 0x0 KECCAK256 SWAP1 JUMPDEST DUP2 SLOAD DUP2 MSTORE SWAP1 PUSH1 0x1 ADD SWAP1 PUSH1 0x20 ADD DUP1 DUP4 GT PUSH2 0x1B06 JUMPI DUP3 SWAP1 SUB PUSH1 0x1F AND DUP3 ADD SWAP2 JUMPDEST POP POP POP POP POP DUP2 MSTORE PUSH1 0x20 ADD PUSH1 0x1 DUP3 ADD DUP1 SLOAD PUSH2 0x1B3C SWAP1 PUSH2 0x3AA1 JUMP JUMPDEST DUP1 PUSH1 0x1F ADD PUSH1 0x20 DUP1 SWAP2 DIV MUL PUSH1 0x20 ADD PUSH1 0x40 MLOAD SWAP1 DUP2 ADD PUSH1 0x40 MSTORE DUP1 SWAP3 SWAP2 SWAP1 DUP2 DUP2 MSTORE PUSH1 0x20 ADD DUP3 DUP1 SLOAD PUSH2 0x1B68 SWAP1 PUSH2 0x3AA1 JUMP JUMPDEST DUP1 ISZERO PUSH2 0x1BB5 JUMPI DUP1 PUSH1 0x1F LT PUSH2 0x1B8A JUMPI PUSH2 0x100 DUP1 DUP4 SLOAD DIV MUL DUP4 MSTORE SWAP2 PUSH1 0x20 ADD SWAP2 PUSH2 0x1BB5 JUMP JUMPDEST DUP3 ADD SWAP2 SWAP1 PUSH1 0x0 MSTORE PUSH1 0x20 PUSH1 0x0 KECCAK256 SWAP1 JUMPDEST DUP2 SLOAD DUP2 MSTORE SWAP1 PUSH1 0x1 ADD SWAP1 PUSH1 0x20 ADD DUP1 DUP4 GT PUSH2 0x1B98 JUMPI DUP3 SWAP1 SUB PUSH1 0x1F AND DUP3 ADD SWAP2 JUMPDEST POP POP POP POP POP DUP2 MSTORE PUSH1 0x20 ADD PUSH1 0x2 DUP3 ADD DUP1 SLOAD PUSH2 0x1BCE SWAP1 PUSH2 0x3AA1 JUMP JUMPDEST DUP1 PUSH1 0x1F ADD PUSH1 0x20 DUP1 SWAP2 DIV MUL PUSH1 0x20 ADD PUSH1 0x40 MLOAD SWAP1 DUP2 ADD PUSH1 0x40 MSTORE DUP1 SWAP3 SWAP2 SWAP1 DUP2 DUP2 MSTORE PUSH1 0x20 ADD DUP3 DUP1 SLOAD PUSH2 0x1BFA SWAP1 PUSH2 0x3AA1 JUMP JUMPDEST DUP1 ISZERO PUSH2 0x1C47 JUMPI DUP1 PUSH1 0x1F LT PUSH2 0x1C1C JUMPI PUSH2 0x100 DUP1 DUP4 SLOAD DIV MUL DUP4 MSTORE SWAP2 PUSH1 0x20 ADD SWAP2 PUSH2 0x1C47 JUMP JUMPDEST DUP3 ADD SWAP2 SWAP1 PUSH1 0x0 MSTORE PUSH1 0x20 PUSH1 0x0 KECCAK256 SWAP1 JUMPDEST DUP2 SLOAD DUP2 MSTORE SWAP1 PUSH1 0x1 ADD SWAP1 PUSH1 0x20 ADD DUP1 DUP4 GT PUSH2 0x1C2A JUMPI DUP3 SWAP1 SUB PUSH1 0x1F AND DUP3 ADD SWAP2 JUMPDEST POP POP POP POP POP DUP2 MSTORE PUSH1 0x20 ADD PUSH1 0x3 DUP3 ADD DUP1 SLOAD DUP1 PUSH1 0x20 MUL PUSH1 0x20 ADD PUSH1 0x40 MLOAD SWAP1 DUP2 ADD PUSH1 0x40 MSTORE DUP1 SWAP3 SWAP2 SWAP1 DUP2 DUP2 MSTORE PUSH1 0x20 ADD PUSH1 0x0 SWAP1 JUMPDEST DUP3 DUP3 LT ISZERO PUSH2 0x1D21 JUMPI DUP4 DUP3 SWAP1 PUSH1 0x0 MSTORE PUSH1 0x20 PUSH1 0x0 KECCAK256 ADD DUP1 SLOAD PUSH2 0x1C94 SWAP1 PUSH2 0x3AA1 JUMP JUMPDEST DUP1 PUSH1 0x1F ADD PUSH1 0x20 DUP1 SWAP2 DIV MUL PUSH1 0x20 ADD PUSH1 0x40 MLOAD SWAP1 DUP2 ADD PUSH1 0x40 MSTORE DUP1 SWAP3 SWAP2 SWAP1 DUP2 DUP2 MSTORE PUSH1 0x20 ADD DUP3 DUP1 SLOAD PUSH2 0x1CC0 SWAP1 PUSH2 0x3AA1 JUMP JUMPDEST DUP1 ISZERO PUSH2 0x1D0D JUMPI DUP1 PUSH1 0x1F LT PUSH2 0x1CE2 JUMPI PUSH2 0x100 DUP1 DUP4 SLOAD DIV MUL DUP4 MSTORE SWAP2 PUSH1 0x20 ADD SWAP2 PUSH2 0x1D0D JUMP JUMPDEST DUP3 ADD SWAP2 SWAP1 PUSH1 0x0 MSTORE PUSH1 0x20 PUSH1 0x0 KECCAK256 SWAP1 JUMPDEST DUP2 SLOAD DUP2 MSTORE SWAP1 PUSH1 0x1 ADD SWAP1 PUSH1 0x20 ADD DUP1 DUP4 GT PUSH2 0x1CF0 JUMPI DUP3 SWAP1 SUB PUSH1 0x1F AND DUP3 ADD SWAP2 JUMPDEST POP POP POP POP POP DUP2 MSTORE PUSH1 0x20 ADD SWAP1 PUSH1 0x1 ADD SWAP1 PUSH2 0x1C75 JUMP JUMPDEST POP POP POP POP DUP2 MSTORE PUSH1 0x20 ADD PUSH1 0x4 DUP3 ADD DUP1 SLOAD DUP1 PUSH1 0x20 MUL PUSH1 0x20 ADD PUSH1 0x40 MLOAD SWAP1 DUP2 ADD PUSH1 0x40 MSTORE DUP1 SWAP3 SWAP2 SWAP1 DUP2 DUP2 MSTORE PUSH1 0x20 ADD DUP3 DUP1 SLOAD DUP1 ISZERO PUSH2 0x1D78 JUMPI PUSH1 0x20 MUL DUP3 ADD SWAP2 SWAP1 PUSH1 0x0 MSTORE PUSH1 0x20 PUSH1 0x0 KECCAK256 SWAP1 JUMPDEST DUP2 SLOAD DUP2 MSTORE PUSH1 0x20 ADD SWAP1 PUSH1 0x1 ADD SWAP1 DUP1 DUP4 GT PUSH2 0x1D64 JUMPI JUMPDEST POP POP POP POP POP DUP2 MSTORE PUSH1 0x20 ADD PUSH1 0x5 DUP3 ADD DUP1 SLOAD DUP1 PUSH1 0x20 MUL PUSH1 0x20 ADD PUSH1 0x40 MLOAD SWAP1 DUP2 ADD PUSH1 0x40 MSTORE DUP1 SWAP3 SWAP2 SWAP1 DUP2 DUP2 MSTORE PUSH1 0x20 ADD DUP3 DUP1 SLOAD DUP1 ISZERO PUSH2 0x1DD0 JUMPI PUSH1 0x20 MUL DUP3 ADD SWAP2 SWAP1 PUSH1 0x0 MSTORE PUSH1 0x20 PUSH1 0x0 KECCAK256 SWAP1 JUMPDEST DUP2 SLOAD DUP2 MSTORE PUSH1 0x20 ADD SWAP1 PUSH1 0x1 ADD SWAP1 DUP1 DUP4 GT PUSH2 0x1DBC JUMPI JUMPDEST POP POP POP POP POP DUP2 MSTORE PUSH1 0x20 ADD PUSH1 0x6 DUP3 ADD DUP1 SLOAD DUP1 PUSH1 0x20 MUL PUSH1 0x20 ADD PUSH1 0x40 MLOAD SWAP1 DUP2 ADD PUSH1 0x40 MSTORE DUP1 SWAP3 SWAP2 SWAP1 DUP2 DUP2 MSTORE PUSH1 0x20 ADD DUP3 DUP1 SLOAD DUP1 ISZERO PUSH2 0x1E28 JUMPI PUSH1 0x20 MUL DUP3 ADD SWAP2 SWAP1 PUSH1 0x0 MSTORE PUSH1 0x20 PUSH1 0x0 KECCAK256 SWAP1 JUMPDEST DUP2 SLOAD DUP2 MSTORE PUSH1 0x20 ADD SWAP1 PUSH1 0x1 ADD SWAP1 DUP1 DUP4 GT PUSH2 0x1E14 JUMPI JUMPDEST POP POP POP POP POP DUP2 MSTORE POP POP SWAP2 POP POP SWAP2 SWAP1 POP JUMP JUMPDEST DUP2 PUSH1 0x7 PUSH1 0x0 DUP4 DUP2 MSTORE PUSH1 0x20 ADD SWAP1 DUP2 MSTORE PUSH1 0x20 ADD PUSH1 0x0 KECCAK256 PUSH1 0x4 ADD PUSH1 0x1 PUSH2 0x100 EXP DUP2 SLOAD DUP2 PUSH1 0xFF MUL NOT AND SWAP1 DUP4 ISZERO ISZERO MUL OR SWAP1 SSTORE POP POP POP JUMP JUMPDEST DUP2 PUSH1 0x7 PUSH1 0x0 DUP4 DUP2 MSTORE PUSH1 0x20 ADD SWAP1 DUP2 MSTORE PUSH1 0x20 ADD PUSH1 0x0 KECCAK256 PUSH1 0x4 ADD PUSH1 0x0 PUSH2 0x100 EXP DUP2 SLOAD DUP2 PUSH1 0xFF MUL NOT AND SWAP1 DUP4 ISZERO ISZERO MUL OR SWAP1 SSTORE POP POP POP JUMP JUMPDEST PUSH1 0x0 DUP1 PUSH1 0x0 SWAP1 SLOAD SWAP1 PUSH2 0x100 EXP SWAP1 DIV PUSH20 0xFFFFFFFFFFFFFFFFFFFFFFFFFFFFFFFFFFFFFFFF AND SWAP1 POP SWAP1 JUMP JUMPDEST PUSH1 0x60 PUSH1 0x4 DUP1 SLOAD DUP1 PUSH1 0x20 MUL PUSH1 0x20 ADD PUSH1 0x40 MLOAD SWAP1 DUP2 ADD PUSH1 0x40 MSTORE DUP1 SWAP3 SWAP2 SWAP1 DUP2 DUP2 MSTORE PUSH1 0x20 ADD DUP3 DUP1 SLOAD DUP1 ISZERO PUSH2 0x1F14 JUMPI PUSH1 0x20 MUL DUP3 ADD SWAP2 SWAP1 PUSH1 0x0 MSTORE PUSH1 0x20 PUSH1 0x0 KECCAK256 SWAP1 JUMPDEST DUP2 SLOAD DUP2 MSTORE PUSH1 0x20 ADD SWAP1 PUSH1 0x1 ADD SWAP1 DUP1 DUP4 GT PUSH2 0x1F00 JUMPI JUMPDEST POP POP POP POP POP SWAP1 POP SWAP1 JUMP JUMPDEST DUP2 PUSH1 0x7 PUSH1 0x0 DUP4 DUP2 MSTORE PUSH1 0x20 ADD SWAP1 DUP2 MSTORE PUSH1 0x20 ADD PUSH1 0x0 KECCAK256 PUSH1 0x5 ADD SWAP1 DUP2 PUSH2 0x1F41 SWAP2 SWAP1 PUSH2 0x3CD1 JUMP JUMPDEST POP POP POP JUMP JUMPDEST PUSH1 0x2 SLOAD DUP2 JUMP JUMPDEST PUSH1 0x0 DUP2 MLOAD DUP4 MLOAD EQ PUSH2 0x1F60 JUMPI PUSH1 0x0 SWAP1 POP PUSH2 0x2014 JUMP JUMPDEST PUSH1 0x0 JUMPDEST DUP4 MLOAD DUP2 LT ISZERO PUSH2 0x200E JUMPI DUP3 DUP2 DUP2 MLOAD DUP2 LT PUSH2 0x1F7F JUMPI PUSH2 0x1F7E PUSH2 0x3E1A JUMP JUMPDEST JUMPDEST PUSH1 0x20 ADD ADD MLOAD PUSH1 0xF8 SHR PUSH1 0xF8 SHL PUSH31 0xFFFFFFFFFFFFFFFFFFFFFFFFFFFFFFFFFFFFFFFFFFFFFFFFFFFFFFFFFFFFFF NOT AND DUP5 DUP3 DUP2 MLOAD DUP2 LT PUSH2 0x1FBF JUMPI PUSH2 0x1FBE PUSH2 0x3E1A JUMP JUMPDEST JUMPDEST PUSH1 0x20 ADD ADD MLOAD PUSH1 0xF8 SHR PUSH1 0xF8 SHL PUSH31 0xFFFFFFFFFFFFFFFFFFFFFFFFFFFFFFFFFFFFFFFFFFFFFFFFFFFFFFFFFFFFFF NOT AND EQ PUSH2 0x1FFB JUMPI PUSH1 0x0 SWAP2 POP POP PUSH2 0x2014 JUMP JUMPDEST DUP1 DUP1 PUSH2 0x2006 SWAP1 PUSH2 0x3DD2 JUMP JUMPDEST SWAP2 POP POP PUSH2 0x1F63 JUMP JUMPDEST POP PUSH1 0x1 SWAP1 POP JUMPDEST SWAP3 SWAP2 POP POP JUMP JUMPDEST PUSH2 0x2022 PUSH2 0x2BA4 JUMP JUMPDEST PUSH1 0x0 PUSH1 0xD DUP4 PUSH1 0x40 MLOAD PUSH2 0x2034 SWAP2 SWAP1 PUSH2 0x3B0E JUMP JUMPDEST SWAP1 DUP2 MSTORE PUSH1 0x20 ADD PUSH1 0x40 MLOAD DUP1 SWAP2 SUB SWAP1 KECCAK256 DUP1 SLOAD PUSH2 0x204D SWAP1 PUSH2 0x3AA1 JUMP JUMPDEST DUP1 PUSH1 0x1F ADD PUSH1 0x20 DUP1 SWAP2 DIV MUL PUSH1 0x20 ADD PUSH1 0x40 MLOAD SWAP1 DUP2 ADD PUSH1 0x40 MSTORE DUP1 SWAP3 SWAP2 SWAP1 DUP2 DUP2 MSTORE PUSH1 0x20 ADD DUP3 DUP1 SLOAD PUSH2 0x2079 SWAP1 PUSH2 0x3AA1 JUMP JUMPDEST DUP1 ISZERO PUSH2 0x20C6 JUMPI DUP1 PUSH1 0x1F LT PUSH2 0x209B JUMPI PUSH2 0x100 DUP1 DUP4 SLOAD DIV MUL DUP4 MSTORE SWAP2 PUSH1 0x20 ADD SWAP2 PUSH2 0x20C6 JUMP JUMPDEST DUP3 ADD SWAP2 SWAP1 PUSH1 0x0 MSTORE PUSH1 0x20 PUSH1 0x0 KECCAK256 SWAP1 JUMPDEST DUP2 SLOAD DUP2 MSTORE SWAP1 PUSH1 0x1 ADD SWAP1 PUSH1 0x20 ADD DUP1 DUP4 GT PUSH2 0x20A9 JUMPI DUP3 SWAP1 SUB PUSH1 0x1F AND DUP3 ADD SWAP2 JUMPDEST POP POP POP POP POP SWAP1 POP PUSH1 0x6 DUP2 PUSH1 0x40 MLOAD PUSH2 0x20DD SWAP2 SWAP1 PUSH2 0x3B0E JUMP JUMPDEST SWAP1 DUP2 MSTORE PUSH1 0x20 ADD PUSH1 0x40 MLOAD DUP1 SWAP2 SUB SWAP1 KECCAK256 PUSH1 0x40 MLOAD DUP1 PUSH1 0xE0 ADD PUSH1 0x40 MSTORE SWAP1 DUP2 PUSH1 0x0 DUP3 ADD DUP1 SLOAD PUSH2 0x2106 SWAP1 PUSH2 0x3AA1 JUMP JUMPDEST DUP1 PUSH1 0x1F ADD PUSH1 0x20 DUP1 SWAP2 DIV MUL PUSH1 0x20 ADD PUSH1 0x40 MLOAD SWAP1 DUP2 ADD PUSH1 0x40 MSTORE DUP1 SWAP3 SWAP2 SWAP1 DUP2 DUP2 MSTORE PUSH1 0x20 ADD DUP3 DUP1 SLOAD PUSH2 0x2132 SWAP1 PUSH2 0x3AA1 JUMP JUMPDEST DUP1 ISZERO PUSH2 0x217F JUMPI DUP1 PUSH1 0x1F LT PUSH2 0x2154 JUMPI PUSH2 0x100 DUP1 DUP4 SLOAD DIV MUL DUP4 MSTORE SWAP2 PUSH1 0x20 ADD SWAP2 PUSH2 0x217F JUMP JUMPDEST DUP3 ADD SWAP2 SWAP1 PUSH1 0x0 MSTORE PUSH1 0x20 PUSH1 0x0 KECCAK256 SWAP1 JUMPDEST DUP2 SLOAD DUP2 MSTORE SWAP1 PUSH1 0x1 ADD SWAP1 PUSH1 0x20 ADD DUP1 DUP4 GT PUSH2 0x2162 JUMPI DUP3 SWAP1 SUB PUSH1 0x1F AND DUP3 ADD SWAP2 JUMPDEST POP POP POP POP POP DUP2 MSTORE PUSH1 0x20 ADD PUSH1 0x1 DUP3 ADD DUP1 SLOAD PUSH2 0x2198 SWAP1 PUSH2 0x3AA1 JUMP JUMPDEST DUP1 PUSH1 0x1F ADD PUSH1 0x20 DUP1 SWAP2 DIV MUL PUSH1 0x20 ADD PUSH1 0x40 MLOAD SWAP1 DUP2 ADD PUSH1 0x40 MSTORE DUP1 SWAP3 SWAP2 SWAP1 DUP2 DUP2 MSTORE PUSH1 0x20 ADD DUP3 DUP1 SLOAD PUSH2 0x21C4 SWAP1 PUSH2 0x3AA1 JUMP JUMPDEST DUP1 ISZERO PUSH2 0x2211 JUMPI DUP1 PUSH1 0x1F LT PUSH2 0x21E6 JUMPI PUSH2 0x100 DUP1 DUP4 SLOAD DIV MUL DUP4 MSTORE SWAP2 PUSH1 0x20 ADD SWAP2 PUSH2 0x2211 JUMP JUMPDEST DUP3 ADD SWAP2 SWAP1 PUSH1 0x0 MSTORE PUSH1 0x20 PUSH1 0x0 KECCAK256 SWAP1 JUMPDEST DUP2 SLOAD DUP2 MSTORE SWAP1 PUSH1 0x1 ADD SWAP1 PUSH1 0x20 ADD DUP1 DUP4 GT PUSH2 0x21F4 JUMPI DUP3 SWAP1 SUB PUSH1 0x1F AND DUP3 ADD SWAP2 JUMPDEST POP POP POP POP POP DUP2 MSTORE PUSH1 0x20 ADD PUSH1 0x2 DUP3 ADD DUP1 SLOAD PUSH2 0x222A SWAP1 PUSH2 0x3AA1 JUMP JUMPDEST DUP1 PUSH1 0x1F ADD PUSH1 0x20 DUP1 SWAP2 DIV MUL PUSH1 0x20 ADD PUSH1 0x40 MLOAD SWAP1 DUP2 ADD PUSH1 0x40 MSTORE DUP1 SWAP3 SWAP2 SWAP1 DUP2 DUP2 MSTORE PUSH1 0x20 ADD DUP3 DUP1 SLOAD PUSH2 0x2256 SWAP1 PUSH2 0x3AA1 JUMP JUMPDEST DUP1 ISZERO PUSH2 0x22A3 JUMPI DUP1 PUSH1 0x1F LT PUSH2 0x2278 JUMPI PUSH2 0x100 DUP1 DUP4 SLOAD DIV MUL DUP4 MSTORE SWAP2 PUSH1 0x20 ADD SWAP2 PUSH2 0x22A3 JUMP JUMPDEST DUP3 ADD SWAP2 SWAP1 PUSH1 0x0 MSTORE PUSH1 0x20 PUSH1 0x0 KECCAK256 SWAP1 JUMPDEST DUP2 SLOAD DUP2 MSTORE SWAP1 PUSH1 0x1 ADD SWAP1 PUSH1 0x20 ADD DUP1 DUP4 GT PUSH2 0x2286 JUMPI DUP3 SWAP1 SUB PUSH1 0x1F AND DUP3 ADD SWAP2 JUMPDEST POP POP POP POP POP DUP2 MSTORE PUSH1 0x20 ADD PUSH1 0x3 DUP3 ADD DUP1 SLOAD DUP1 PUSH1 0x20 MUL PUSH1 0x20 ADD PUSH1 0x40 MLOAD SWAP1 DUP2 ADD PUSH1 0x40 MSTORE DUP1 SWAP3 SWAP2 SWAP1 DUP2 DUP2 MSTORE PUSH1 0x20 ADD PUSH1 0x0 SWAP1 JUMPDEST DUP3 DUP3 LT ISZERO PUSH2 0x237D JUMPI DUP4 DUP3 SWAP1 PUSH1 0x0 MSTORE PUSH1 0x20 PUSH1 0x0 KECCAK256 ADD DUP1 SLOAD PUSH2 0x22F0 SWAP1 PUSH2 0x3AA1 JUMP JUMPDEST DUP1 PUSH1 0x1F ADD PUSH1 0x20 DUP1 SWAP2 DIV MUL PUSH1 0x20 ADD PUSH1 0x40 MLOAD SWAP1 DUP2 ADD PUSH1 0x40 MSTORE DUP1 SWAP3 SWAP2 SWAP1 DUP2 DUP2 MSTORE PUSH1 0x20 ADD DUP3 DUP1 SLOAD PUSH2 0x231C SWAP1 PUSH2 0x3AA1 JUMP JUMPDEST DUP1 ISZERO PUSH2 0x2369 JUMPI DUP1 PUSH1 0x1F LT PUSH2 0x233E JUMPI PUSH2 0x100 DUP1 DUP4 SLOAD DIV MUL DUP4 MSTORE SWAP2 PUSH1 0x20 ADD SWAP2 PUSH2 0x2369 JUMP JUMPDEST DUP3 ADD SWAP2 SWAP1 PUSH1 0x0 MSTORE PUSH1 0x20 PUSH1 0x0 KECCAK256 SWAP1 JUMPDEST DUP2 SLOAD DUP2 MSTORE SWAP1 PUSH1 0x1 ADD SWAP1 PUSH1 0x20 ADD DUP1 DUP4 GT PUSH2 0x234C JUMPI DUP3 SWAP1 SUB PUSH1 0x1F AND DUP3 ADD SWAP2 JUMPDEST POP POP POP POP POP DUP2 MSTORE PUSH1 0x20 ADD SWAP1 PUSH1 0x1 ADD SWAP1 PUSH2 0x22D1 JUMP JUMPDEST POP POP POP POP DUP2 MSTORE PUSH1 0x20 ADD PUSH1 0x4 DUP3 ADD DUP1 SLOAD DUP1 PUSH1 0x20 MUL PUSH1 0x20 ADD PUSH1 0x40 MLOAD SWAP1 DUP2 ADD PUSH1 0x40 MSTORE DUP1 SWAP3 SWAP2 SWAP1 DUP2 DUP2 MSTORE PUSH1 0x20 ADD DUP3 DUP1 SLOAD DUP1 ISZERO PUSH2 0x23D4 JUMPI PUSH1 0x20 MUL DUP3 ADD SWAP2 SWAP1 PUSH1 0x0 MSTORE PUSH1 0x20 PUSH1 0x0 KECCAK256 SWAP1 JUMPDEST DUP2 SLOAD DUP2 MSTORE PUSH1 0x20 ADD SWAP1 PUSH1 0x1 ADD SWAP1 DUP1 DUP4 GT PUSH2 0x23C0 JUMPI JUMPDEST POP POP POP POP POP DUP2 MSTORE PUSH1 0x20 ADD PUSH1 0x5 DUP3 ADD DUP1 SLOAD DUP1 PUSH1 0x20 MUL PUSH1 0x20 ADD PUSH1 0x40 MLOAD SWAP1 DUP2 ADD PUSH1 0x40 MSTORE DUP1 SWAP3 SWAP2 SWAP1 DUP2 DUP2 MSTORE PUSH1 0x20 ADD DUP3 DUP1 SLOAD DUP1 ISZERO PUSH2 0x242C JUMPI PUSH1 0x20 MUL DUP3 ADD SWAP2 SWAP1 PUSH1 0x0 MSTORE PUSH1 0x20 PUSH1 0x0 KECCAK256 SWAP1 JUMPDEST DUP2 SLOAD DUP2 MSTORE PUSH1 0x20 ADD SWAP1 PUSH1 0x1 ADD SWAP1 DUP1 DUP4 GT PUSH2 0x2418 JUMPI JUMPDEST POP POP POP POP POP DUP2 MSTORE PUSH1 0x20 ADD PUSH1 0x6 DUP3 ADD DUP1 SLOAD DUP1 PUSH1 0x20 MUL PUSH1 0x20 ADD PUSH1 0x40 MLOAD SWAP1 DUP2 ADD PUSH1 0x40 MSTORE DUP1 SWAP3 SWAP2 SWAP1 DUP2 DUP2 MSTORE PUSH1 0x20 ADD DUP3 DUP1 SLOAD DUP1 ISZERO PUSH2 0x2484 JUMPI PUSH1 0x20 MUL DUP3 ADD SWAP2 SWAP1 PUSH1 0x0 MSTORE PUSH1 0x20 PUSH1 0x0 KECCAK256 SWAP1 JUMPDEST DUP2 SLOAD DUP2 MSTORE PUSH1 0x20 ADD SWAP1 PUSH1 0x1 ADD SWAP1 DUP1 DUP4 GT PUSH2 0x2470 JUMPI JUMPDEST POP POP POP POP POP DUP2 MSTORE POP POP SWAP2 POP POP SWAP2 SWAP1 POP JUMP JUMPDEST PUSH1 0x0 PUSH2 0x24D6 DUP3 PUSH1 0x40 MLOAD DUP1 PUSH1 0x40 ADD PUSH1 0x40 MSTORE DUP1 PUSH1 0xB DUP2 MSTORE PUSH1 0x20 ADD PUSH32 0x7573657257616C6C657473000000000000000000000000000000000000000000 DUP2 MSTORE POP PUSH2 0x1F4C JUMP JUMPDEST ISZERO PUSH2 0x254D JUMPI PUSH1 0x40 MLOAD PUSH1 0x20 ADD PUSH2 0x24EA SWAP1 PUSH2 0x3E6F JUMP JUMPDEST PUSH1 0x40 MLOAD PUSH1 0x20 DUP2 DUP4 SUB SUB DUP2 MSTORE SWAP1 PUSH1 0x40 MSTORE DUP1 MLOAD SWAP1 PUSH1 0x20 ADD KECCAK256 PUSH1 0xC DUP5 PUSH1 0x40 MLOAD PUSH2 0x2510 SWAP2 SWAP1 PUSH2 0x3B0E JUMP JUMPDEST SWAP1 DUP2 MSTORE PUSH1 0x20 ADD PUSH1 0x40 MLOAD DUP1 SWAP2 SUB SWAP1 KECCAK256 PUSH1 0x40 MLOAD PUSH1 0x20 ADD PUSH2 0x252E SWAP2 SWAP1 PUSH2 0x3F07 JUMP JUMPDEST PUSH1 0x40 MLOAD PUSH1 0x20 DUP2 DUP4 SUB SUB DUP2 MSTORE SWAP1 PUSH1 0x40 MSTORE DUP1 MLOAD SWAP1 PUSH1 0x20 ADD KECCAK256 EQ ISZERO SWAP1 POP PUSH2 0x26BE JUMP JUMPDEST PUSH2 0x258C DUP3 PUSH1 0x40 MLOAD DUP1 PUSH1 0x40 ADD PUSH1 0x40 MSTORE DUP1 PUSH1 0x8 DUP2 MSTORE PUSH1 0x20 ADD PUSH32 0x757365724C656E73000000000000000000000000000000000000000000000000 DUP2 MSTORE POP PUSH2 0x1F4C JUMP JUMPDEST ISZERO PUSH2 0x2603 JUMPI PUSH1 0x40 MLOAD PUSH1 0x20 ADD PUSH2 0x25A0 SWAP1 PUSH2 0x3E6F JUMP JUMPDEST PUSH1 0x40 MLOAD PUSH1 0x20 DUP2 DUP4 SUB SUB DUP2 MSTORE SWAP1 PUSH1 0x40 MSTORE DUP1 MLOAD SWAP1 PUSH1 0x20 ADD KECCAK256 PUSH1 0xD DUP5 PUSH1 0x40 MLOAD PUSH2 0x25C6 SWAP2 SWAP1 PUSH2 0x3B0E JUMP JUMPDEST SWAP1 DUP2 MSTORE PUSH1 0x20 ADD PUSH1 0x40 MLOAD DUP1 SWAP2 SUB SWAP1 KECCAK256 PUSH1 0x40 MLOAD PUSH1 0x20 ADD PUSH2 0x25E4 SWAP2 SWAP1 PUSH2 0x3F07 JUMP JUMPDEST PUSH1 0x40 MLOAD PUSH1 0x20 DUP2 DUP4 SUB SUB DUP2 MSTORE SWAP1 PUSH1 0x40 MSTORE DUP1 MLOAD SWAP1 PUSH1 0x20 ADD KECCAK256 EQ ISZERO SWAP1 POP PUSH2 0x26BE JUMP JUMPDEST PUSH2 0x2642 DUP3 PUSH1 0x40 MLOAD DUP1 PUSH1 0x40 ADD PUSH1 0x40 MSTORE DUP1 PUSH1 0x8 DUP2 MSTORE PUSH1 0x20 ADD PUSH32 0x7573657257434944000000000000000000000000000000000000000000000000 DUP2 MSTORE POP PUSH2 0x1F4C JUMP JUMPDEST ISZERO PUSH2 0x26B9 JUMPI PUSH1 0x40 MLOAD PUSH1 0x20 ADD PUSH2 0x2656 SWAP1 PUSH2 0x3E6F JUMP JUMPDEST PUSH1 0x40 MLOAD PUSH1 0x20 DUP2 DUP4 SUB SUB DUP2 MSTORE SWAP1 PUSH1 0x40 MSTORE DUP1 MLOAD SWAP1 PUSH1 0x20 ADD KECCAK256 PUSH1 0xB DUP5 PUSH1 0x40 MLOAD PUSH2 0x267C SWAP2 SWAP1 PUSH2 0x3B0E JUMP JUMPDEST SWAP1 DUP2 MSTORE PUSH1 0x20 ADD PUSH1 0x40 MLOAD DUP1 SWAP2 SUB SWAP1 KECCAK256 PUSH1 0x40 MLOAD PUSH1 0x20 ADD PUSH2 0x269A SWAP2 SWAP1 PUSH2 0x3F07 JUMP JUMPDEST PUSH1 0x40 MLOAD PUSH1 0x20 DUP2 DUP4 SUB SUB DUP2 MSTORE SWAP1 PUSH1 0x40 MSTORE DUP1 MLOAD SWAP1 PUSH1 0x20 ADD KECCAK256 EQ ISZERO SWAP1 POP PUSH2 0x26BE JUMP JUMPDEST PUSH1 0x0 SWAP1 POP JUMPDEST SWAP3 SWAP2 POP POP JUMP JUMPDEST PUSH2 0x26CC PUSH2 0x2BA4 JUMP JUMPDEST PUSH1 0x0 PUSH1 0xB DUP4 PUSH1 0x40 MLOAD PUSH2 0x26DE SWAP2 SWAP1 PUSH2 0x3B0E JUMP JUMPDEST SWAP1 DUP2 MSTORE PUSH1 0x20 ADD PUSH1 0x40 MLOAD DUP1 SWAP2 SUB SWAP1 KECCAK256 DUP1 SLOAD PUSH2 0x26F7 SWAP1 PUSH2 0x3AA1 JUMP JUMPDEST DUP1 PUSH1 0x1F ADD PUSH1 0x20 DUP1 SWAP2 DIV MUL PUSH1 0x20 ADD PUSH1 0x40 MLOAD SWAP1 DUP2 ADD PUSH1 0x40 MSTORE DUP1 SWAP3 SWAP2 SWAP1 DUP2 DUP2 MSTORE PUSH1 0x20 ADD DUP3 DUP1 SLOAD PUSH2 0x2723 SWAP1 PUSH2 0x3AA1 JUMP JUMPDEST DUP1 ISZERO PUSH2 0x2770 JUMPI DUP1 PUSH1 0x1F LT PUSH2 0x2745 JUMPI PUSH2 0x100 DUP1 DUP4 SLOAD DIV MUL DUP4 MSTORE SWAP2 PUSH1 0x20 ADD SWAP2 PUSH2 0x2770 JUMP JUMPDEST DUP3 ADD SWAP2 SWAP1 PUSH1 0x0 MSTORE PUSH1 0x20 PUSH1 0x0 KECCAK256 SWAP1 JUMPDEST DUP2 SLOAD DUP2 MSTORE SWAP1 PUSH1 0x1 ADD SWAP1 PUSH1 0x20 ADD DUP1 DUP4 GT PUSH2 0x2753 JUMPI DUP3 SWAP1 SUB PUSH1 0x1F AND DUP3 ADD SWAP2 JUMPDEST POP POP POP POP POP SWAP1 POP PUSH1 0x6 DUP2 PUSH1 0x40 MLOAD PUSH2 0x2787 SWAP2 SWAP1 PUSH2 0x3B0E JUMP JUMPDEST SWAP1 DUP2 MSTORE PUSH1 0x20 ADD PUSH1 0x40 MLOAD DUP1 SWAP2 SUB SWAP1 KECCAK256 PUSH1 0x40 MLOAD DUP1 PUSH1 0xE0 ADD PUSH1 0x40 MSTORE SWAP1 DUP2 PUSH1 0x0 DUP3 ADD DUP1 SLOAD PUSH2 0x27B0 SWAP1 PUSH2 0x3AA1 JUMP JUMPDEST DUP1 PUSH1 0x1F ADD PUSH1 0x20 DUP1 SWAP2 DIV MUL PUSH1 0x20 ADD PUSH1 0x40 MLOAD SWAP1 DUP2 ADD PUSH1 0x40 MSTORE DUP1 SWAP3 SWAP2 SWAP1 DUP2 DUP2 MSTORE PUSH1 0x20 ADD DUP3 DUP1 SLOAD PUSH2 0x27DC SWAP1 PUSH2 0x3AA1 JUMP JUMPDEST DUP1 ISZERO PUSH2 0x2829 JUMPI DUP1 PUSH1 0x1F LT PUSH2 0x27FE JUMPI PUSH2 0x100 DUP1 DUP4 SLOAD DIV MUL DUP4 MSTORE SWAP2 PUSH1 0x20 ADD SWAP2 PUSH2 0x2829 JUMP JUMPDEST DUP3 ADD SWAP2 SWAP1 PUSH1 0x0 MSTORE PUSH1 0x20 PUSH1 0x0 KECCAK256 SWAP1 JUMPDEST DUP2 SLOAD DUP2 MSTORE SWAP1 PUSH1 0x1 ADD SWAP1 PUSH1 0x20 ADD DUP1 DUP4 GT PUSH2 0x280C JUMPI DUP3 SWAP1 SUB PUSH1 0x1F AND DUP3 ADD SWAP2 JUMPDEST POP POP POP POP POP DUP2 MSTORE PUSH1 0x20 ADD PUSH1 0x1 DUP3 ADD DUP1 SLOAD PUSH2 0x2842 SWAP1 PUSH2 0x3AA1 JUMP JUMPDEST DUP1 PUSH1 0x1F ADD PUSH1 0x20 DUP1 SWAP2 DIV MUL PUSH1 0x20 ADD PUSH1 0x40 MLOAD SWAP1 DUP2 ADD PUSH1 0x40 MSTORE DUP1 SWAP3 SWAP2 SWAP1 DUP2 DUP2 MSTORE PUSH1 0x20 ADD DUP3 DUP1 SLOAD PUSH2 0x286E SWAP1 PUSH2 0x3AA1 JUMP JUMPDEST DUP1 ISZERO PUSH2 0x28BB JUMPI DUP1 PUSH1 0x1F LT PUSH2 0x2890 JUMPI PUSH2 0x100 DUP1 DUP4 SLOAD DIV MUL DUP4 MSTORE SWAP2 PUSH1 0x20 ADD SWAP2 PUSH2 0x28BB JUMP JUMPDEST DUP3 ADD SWAP2 SWAP1 PUSH1 0x0 MSTORE PUSH1 0x20 PUSH1 0x0 KECCAK256 SWAP1 JUMPDEST DUP2 SLOAD DUP2 MSTORE SWAP1 PUSH1 0x1 ADD SWAP1 PUSH1 0x20 ADD DUP1 DUP4 GT PUSH2 0x289E JUMPI DUP3 SWAP1 SUB PUSH1 0x1F AND DUP3 ADD SWAP2 JUMPDEST POP POP POP POP POP DUP2 MSTORE PUSH1 0x20 ADD PUSH1 0x2 DUP3 ADD DUP1 SLOAD PUSH2 0x28D4 SWAP1 PUSH2 0x3AA1 JUMP JUMPDEST DUP1 PUSH1 0x1F ADD PUSH1 0x20 DUP1 SWAP2 DIV MUL PUSH1 0x20 ADD PUSH1 0x40 MLOAD SWAP1 DUP2 ADD PUSH1 0x40 MSTORE DUP1 SWAP3 SWAP2 SWAP1 DUP2 DUP2 MSTORE PUSH1 0x20 ADD DUP3 DUP1 SLOAD PUSH2 0x2900 SWAP1 PUSH2 0x3AA1 JUMP JUMPDEST DUP1 ISZERO PUSH2 0x294D JUMPI DUP1 PUSH1 0x1F LT PUSH2 0x2922 JUMPI PUSH2 0x100 DUP1 DUP4 SLOAD DIV MUL DUP4 MSTORE SWAP2 PUSH1 0x20 ADD SWAP2 PUSH2 0x294D JUMP JUMPDEST DUP3 ADD SWAP2 SWAP1 PUSH1 0x0 MSTORE PUSH1 0x20 PUSH1 0x0 KECCAK256 SWAP1 JUMPDEST DUP2 SLOAD DUP2 MSTORE SWAP1 PUSH1 0x1 ADD SWAP1 PUSH1 0x20 ADD DUP1 DUP4 GT PUSH2 0x2930 JUMPI DUP3 SWAP1 SUB PUSH1 0x1F AND DUP3 ADD SWAP2 JUMPDEST POP POP POP POP POP DUP2 MSTORE PUSH1 0x20 ADD PUSH1 0x3 DUP3 ADD DUP1 SLOAD DUP1 PUSH1 0x20 MUL PUSH1 0x20 ADD PUSH1 0x40 MLOAD SWAP1 DUP2 ADD PUSH1 0x40 MSTORE DUP1 SWAP3 SWAP2 SWAP1 DUP2 DUP2 MSTORE PUSH1 0x20 ADD PUSH1 0x0 SWAP1 JUMPDEST DUP3 DUP3 LT ISZERO PUSH2 0x2A27 JUMPI DUP4 DUP3 SWAP1 PUSH1 0x0 MSTORE PUSH1 0x20 PUSH1 0x0 KECCAK256 ADD DUP1 SLOAD PUSH2 0x299A SWAP1 PUSH2 0x3AA1 JUMP JUMPDEST DUP1 PUSH1 0x1F ADD PUSH1 0x20 DUP1 SWAP2 DIV MUL PUSH1 0x20 ADD PUSH1 0x40 MLOAD SWAP1 DUP2 ADD PUSH1 0x40 MSTORE DUP1 SWAP3 SWAP2 SWAP1 DUP2 DUP2 MSTORE PUSH1 0x20 ADD DUP3 DUP1 SLOAD PUSH2 0x29C6 SWAP1 PUSH2 0x3AA1 JUMP JUMPDEST DUP1 ISZERO PUSH2 0x2A13 JUMPI DUP1 PUSH1 0x1F LT PUSH2 0x29E8 JUMPI PUSH2 0x100 DUP1 DUP4 SLOAD DIV MUL DUP4 MSTORE SWAP2 PUSH1 0x20 ADD SWAP2 PUSH2 0x2A13 JUMP JUMPDEST DUP3 ADD SWAP2 SWAP1 PUSH1 0x0 MSTORE PUSH1 0x20 PUSH1 0x0 KECCAK256 SWAP1 JUMPDEST DUP2 SLOAD DUP2 MSTORE SWAP1 PUSH1 0x1 ADD SWAP1 PUSH1 0x20 ADD DUP1 DUP4 GT PUSH2 0x29F6 JUMPI DUP3 SWAP1 SUB PUSH1 0x1F AND DUP3 ADD SWAP2 JUMPDEST POP POP POP POP POP DUP2 MSTORE PUSH1 0x20 ADD SWAP1 PUSH1 0x1 ADD SWAP1 PUSH2 0x297B JUMP JUMPDEST POP POP POP POP DUP2 MSTORE PUSH1 0x20 ADD PUSH1 0x4 DUP3 ADD DUP1 SLOAD DUP1 PUSH1 0x20 MUL PUSH1 0x20 ADD PUSH1 0x40 MLOAD SWAP1 DUP2 ADD PUSH1 0x40 MSTORE DUP1 SWAP3 SWAP2 SWAP1 DUP2 DUP2 MSTORE PUSH1 0x20 ADD DUP3 DUP1 SLOAD DUP1 ISZERO PUSH2 0x2A7E JUMPI PUSH1 0x20 MUL DUP3 ADD SWAP2 SWAP1 PUSH1 0x0 MSTORE PUSH1 0x20 PUSH1 0x0 KECCAK256 SWAP1 JUMPDEST DUP2 SLOAD DUP2 MSTORE PUSH1 0x20 ADD SWAP1 PUSH1 0x1 ADD SWAP1 DUP1 DUP4 GT PUSH2 0x2A6A JUMPI JUMPDEST POP POP POP POP POP DUP2 MSTORE PUSH1 0x20 ADD PUSH1 0x5 DUP3 ADD DUP1 SLOAD DUP1 PUSH1 0x20 MUL PUSH1 0x20 ADD PUSH1 0x40 MLOAD SWAP1 DUP2 ADD PUSH1 0x40 MSTORE DUP1 SWAP3 SWAP2 SWAP1 DUP2 DUP2 MSTORE PUSH1 0x20 ADD DUP3 DUP1 SLOAD DUP1 ISZERO PUSH2 0x2AD6 JUMPI PUSH1 0x20 MUL DUP3 ADD SWAP2 SWAP1 PUSH1 0x0 MSTORE PUSH1 0x20 PUSH1 0x0 KECCAK256 SWAP1 JUMPDEST DUP2 SLOAD DUP2 MSTORE PUSH1 0x20 ADD SWAP1 PUSH1 0x1 ADD SWAP1 DUP1 DUP4 GT PUSH2 0x2AC2 JUMPI JUMPDEST POP POP POP POP POP DUP2 MSTORE PUSH1 0x20 ADD PUSH1 0x6 DUP3 ADD DUP1 SLOAD DUP1 PUSH1 0x20 MUL PUSH1 0x20 ADD PUSH1 0x40 MLOAD SWAP1 DUP2 ADD PUSH1 0x40 MSTORE DUP1 SWAP3 SWAP2 SWAP1 DUP2 DUP2 MSTORE PUSH1 0x20 ADD DUP3 DUP1 SLOAD DUP1 ISZERO PUSH2 0x2B2E JUMPI PUSH1 0x20 MUL DUP3 ADD SWAP2 SWAP1 PUSH1 0x0 MSTORE PUSH1 0x20 PUSH1 0x0 KECCAK256 SWAP1 JUMPDEST DUP2 SLOAD DUP2 MSTORE PUSH1 0x20 ADD SWAP1 PUSH1 0x1 ADD SWAP1 DUP1 DUP4 GT PUSH2 0x2B1A JUMPI JUMPDEST POP POP POP POP POP DUP2 MSTORE POP POP SWAP2 POP POP SWAP2 SWAP1 POP JUMP JUMPDEST PUSH1 0x3 DUP2 DUP2 SLOAD DUP2 LT PUSH2 0x2B4F JUMPI PUSH1 0x0 DUP1 REVERT JUMPDEST SWAP1 PUSH1 0x0 MSTORE PUSH1 0x20 PUSH1 0x0 KECCAK256 ADD PUSH1 0x0 SWAP2 POP SWAP1 POP SLOAD DUP2 JUMP JUMPDEST PUSH1 0x40 MLOAD DUP1 PUSH1 0xE0 ADD PUSH1 0x40 MSTORE DUP1 PUSH1 0x0 DUP2 MSTORE PUSH1 0x20 ADD PUSH1 0x0 DUP2 MSTORE PUSH1 0x20 ADD PUSH1 0x60 DUP2 MSTORE PUSH1 0x20 ADD PUSH1 0x60 DUP2 MSTORE PUSH1 0x20 ADD PUSH1 0x0 ISZERO ISZERO DUP2 MSTORE PUSH1 0x20 ADD PUSH1 0x0 ISZERO ISZERO DUP2 MSTORE PUSH1 0x20 ADD PUSH1 0x60 DUP2 MSTORE POP SWAP1 JUMP JUMPDEST PUSH1 0x40 MLOAD DUP1 PUSH1 0xE0 ADD PUSH1 0x40 MSTORE DUP1 PUSH1 0x60 DUP2 MSTORE PUSH1 0x20 ADD PUSH1 0x60 DUP2 MSTORE PUSH1 0x20 ADD PUSH1 0x60 DUP2 MSTORE PUSH1 0x20 ADD PUSH1 0x60 DUP2 MSTORE PUSH1 0x20 ADD PUSH1 0x60 DUP2 MSTORE PUSH1 0x20 ADD PUSH1 0x60 DUP2 MSTORE PUSH1 0x20 ADD PUSH1 0x60 DUP2 MSTORE POP SWAP1 JUMP JUMPDEST PUSH1 0x40 MLOAD DUP1 PUSH2 0x120 ADD PUSH1 0x40 MSTORE DUP1 PUSH1 0x0 DUP2 MSTORE PUSH1 0x20 ADD PUSH1 0x60 DUP2 MSTORE PUSH1 0x20 ADD PUSH1 0x60 DUP2 MSTORE PUSH1 0x20 ADD PUSH1 0x60 DUP2 MSTORE PUSH1 0x20 ADD PUSH1 0x60 DUP2 MSTORE PUSH1 0x20 ADD PUSH1 0x60 DUP2 MSTORE PUSH1 0x20 ADD PUSH1 0x0 DUP2 MSTORE PUSH1 0x20 ADD PUSH1 0x0 DUP2 MSTORE PUSH1 0x20 ADD PUSH1 0x60 DUP2 MSTORE POP SWAP1 JUMP JUMPDEST DUP3 DUP1 SLOAD DUP3 DUP3 SSTORE SWAP1 PUSH1 0x0 MSTORE PUSH1 0x20 PUSH1 0x0 KECCAK256 SWAP1 DUP2 ADD SWAP3 DUP3 ISZERO PUSH2 0x2C75 JUMPI SWAP2 PUSH1 0x20 MUL DUP3 ADD JUMPDEST DUP3 DUP2 GT ISZERO PUSH2 0x2C74 JUMPI DUP3 MLOAD DUP3 SWAP1 DUP2 PUSH2 0x2C64 SWAP2 SWAP1 PUSH2 0x3CD1 JUMP JUMPDEST POP SWAP2 PUSH1 0x20 ADD SWAP2 SWAP1 PUSH1 0x1 ADD SWAP1 PUSH2 0x2C4D JUMP JUMPDEST JUMPDEST POP SWAP1 POP PUSH2 0x2C82 SWAP2 SWAP1 PUSH2 0x2CD3 JUMP JUMPDEST POP SWAP1 JUMP JUMPDEST DUP3 DUP1 SLOAD DUP3 DUP3 SSTORE SWAP1 PUSH1 0x0 MSTORE PUSH1 0x20 PUSH1 0x0 KECCAK256 SWAP1 DUP2 ADD SWAP3 DUP3 ISZERO PUSH2 0x2CC2 JUMPI SWAP2 PUSH1 0x20 MUL DUP3 ADD JUMPDEST DUP3 DUP2 GT ISZERO PUSH2 0x2CC1 JUMPI DUP3 MLOAD DUP3 SSTORE SWAP2 PUSH1 0x20 ADD SWAP2 SWAP1 PUSH1 0x1 ADD SWAP1 PUSH2 0x2CA6 JUMP JUMPDEST JUMPDEST POP SWAP1 POP PUSH2 0x2CCF SWAP2 SWAP1 PUSH2 0x2CF7 JUMP JUMPDEST POP SWAP1 JUMP JUMPDEST JUMPDEST DUP1 DUP3 GT ISZERO PUSH2 0x2CF3 JUMPI PUSH1 0x0 DUP2 DUP2 PUSH2 0x2CEA SWAP2 SWAP1 PUSH2 0x2D14 JUMP JUMPDEST POP PUSH1 0x1 ADD PUSH2 0x2CD4 JUMP JUMPDEST POP SWAP1 JUMP JUMPDEST JUMPDEST DUP1 DUP3 GT ISZERO PUSH2 0x2D10 JUMPI PUSH1 0x0 DUP2 PUSH1 0x0 SWAP1 SSTORE POP PUSH1 0x1 ADD PUSH2 0x2CF8 JUMP JUMPDEST POP SWAP1 JUMP JUMPDEST POP DUP1 SLOAD PUSH2 0x2D20 SWAP1 PUSH2 0x3AA1 JUMP JUMPDEST PUSH1 0x0 DUP3 SSTORE DUP1 PUSH1 0x1F LT PUSH2 0x2D32 JUMPI POP PUSH2 0x2D51 JUMP JUMPDEST PUSH1 0x1F ADD PUSH1 0x20 SWAP1 DIV SWAP1 PUSH1 0x0 MSTORE PUSH1 0x20 PUSH1 0x0 KECCAK256 SWAP1 DUP2 ADD SWAP1 PUSH2 0x2D50 SWAP2 SWAP1 PUSH2 0x2CF7 JUMP JUMPDEST JUMPDEST POP JUMP JUMPDEST PUSH1 0x0 DUP2 MLOAD SWAP1 POP SWAP2 SWAP1 POP JUMP JUMPDEST PUSH1 0x0 DUP3 DUP3 MSTORE PUSH1 0x20 DUP3 ADD SWAP1 POP SWAP3 SWAP2 POP POP JUMP JUMPDEST PUSH1 0x0 DUP2 SWAP1 POP PUSH1 0x20 DUP3 ADD SWAP1 POP SWAP2 SWAP1 POP JUMP JUMPDEST PUSH1 0x0 DUP2 SWAP1 POP SWAP2 SWAP1 POP JUMP JUMPDEST PUSH2 0x2D93 DUP2 PUSH2 0x2D80 JUMP JUMPDEST DUP3 MSTORE POP POP JUMP JUMPDEST PUSH1 0x0 PUSH2 0x2DA5 DUP4 DUP4 PUSH2 0x2D8A JUMP JUMPDEST PUSH1 0x20 DUP4 ADD SWAP1 POP SWAP3 SWAP2 POP POP JUMP JUMPDEST PUSH1 0x0 PUSH1 0x20 DUP3 ADD SWAP1 POP SWAP2 SWAP1 POP JUMP JUMPDEST PUSH1 0x0 PUSH2 0x2DC9 DUP3 PUSH2 0x2D54 JUMP JUMPDEST PUSH2 0x2DD3 DUP2 DUP6 PUSH2 0x2D5F JUMP JUMPDEST SWAP4 POP PUSH2 0x2DDE DUP4 PUSH2 0x2D70 JUMP JUMPDEST DUP1 PUSH1 0x0 JUMPDEST DUP4 DUP2 LT ISZERO PUSH2 0x2E0F JUMPI DUP2 MLOAD PUSH2 0x2DF6 DUP9 DUP3 PUSH2 0x2D99 JUMP JUMPDEST SWAP8 POP PUSH2 0x2E01 DUP4 PUSH2 0x2DB1 JUMP JUMPDEST SWAP3 POP POP PUSH1 0x1 DUP2 ADD SWAP1 POP PUSH2 0x2DE2 JUMP JUMPDEST POP DUP6 SWAP4 POP POP POP POP SWAP3 SWAP2 POP POP JUMP JUMPDEST PUSH1 0x0 PUSH1 0x20 DUP3 ADD SWAP1 POP DUP2 DUP2 SUB PUSH1 0x0 DUP4 ADD MSTORE PUSH2 0x2E36 DUP2 DUP5 PUSH2 0x2DBE JUMP JUMPDEST SWAP1 POP SWAP3 SWAP2 POP POP JUMP JUMPDEST PUSH1 0x0 PUSH1 0x40 MLOAD SWAP1 POP SWAP1 JUMP JUMPDEST PUSH1 0x0 DUP1 REVERT JUMPDEST PUSH1 0x0 DUP1 REVERT JUMPDEST PUSH2 0x2E5B DUP2 PUSH2 0x2D80 JUMP JUMPDEST DUP2 EQ PUSH2 0x2E66 JUMPI PUSH1 0x0 DUP1 REVERT JUMPDEST POP JUMP JUMPDEST PUSH1 0x0 DUP2 CALLDATALOAD SWAP1 POP PUSH2 0x2E78 DUP2 PUSH2 0x2E52 JUMP JUMPDEST SWAP3 SWAP2 POP POP JUMP JUMPDEST PUSH1 0x0 PUSH1 0x20 DUP3 DUP5 SUB SLT ISZERO PUSH2 0x2E94 JUMPI PUSH2 0x2E93 PUSH2 0x2E48 JUMP JUMPDEST JUMPDEST PUSH1 0x0 PUSH2 0x2EA2 DUP5 DUP3 DUP6 ADD PUSH2 0x2E69 JUMP JUMPDEST SWAP2 POP POP SWAP3 SWAP2 POP POP JUMP JUMPDEST PUSH1 0x0 DUP2 MLOAD SWAP1 POP SWAP2 SWAP1 POP JUMP JUMPDEST PUSH1 0x0 DUP3 DUP3 MSTORE PUSH1 0x20 DUP3 ADD SWAP1 POP SWAP3 SWAP2 POP POP JUMP JUMPDEST PUSH1 0x0 JUMPDEST DUP4 DUP2 LT ISZERO PUSH2 0x2EE5 JUMPI DUP1 DUP3 ADD MLOAD DUP2 DUP5 ADD MSTORE PUSH1 0x20 DUP2 ADD SWAP1 POP PUSH2 0x2ECA JUMP JUMPDEST PUSH1 0x0 DUP5 DUP5 ADD MSTORE POP POP POP POP JUMP JUMPDEST PUSH1 0x0 PUSH1 0x1F NOT PUSH1 0x1F DUP4 ADD AND SWAP1 POP SWAP2 SWAP1 POP JUMP JUMPDEST PUSH1 0x0 PUSH2 0x2F0D DUP3 PUSH2 0x2EAB JUMP JUMPDEST PUSH2 0x2F17 DUP2 DUP6 PUSH2 0x2EB6 JUMP JUMPDEST SWAP4 POP PUSH2 0x2F27 DUP2 DUP6 PUSH1 0x20 DUP7 ADD PUSH2 0x2EC7 JUMP JUMPDEST PUSH2 0x2F30 DUP2 PUSH2 0x2EF1 JUMP JUMPDEST DUP5 ADD SWAP2 POP POP SWAP3 SWAP2 POP POP JUMP JUMPDEST PUSH1 0x0 DUP2 ISZERO ISZERO SWAP1 POP SWAP2 SWAP1 POP JUMP JUMPDEST PUSH2 0x2F50 DUP2 PUSH2 0x2F3B JUMP JUMPDEST DUP3 MSTORE POP POP JUMP JUMPDEST PUSH1 0x0 PUSH1 0xE0 DUP4 ADD PUSH1 0x0 DUP4 ADD MLOAD PUSH2 0x2F6E PUSH1 0x0 DUP7 ADD DUP3 PUSH2 0x2D8A JUMP JUMPDEST POP PUSH1 0x20 DUP4 ADD MLOAD PUSH2 0x2F81 PUSH1 0x20 DUP7 ADD DUP3 PUSH2 0x2D8A JUMP JUMPDEST POP PUSH1 0x40 DUP4 ADD MLOAD DUP5 DUP3 SUB PUSH1 0x40 DUP7 ADD MSTORE PUSH2 0x2F99 DUP3 DUP3 PUSH2 0x2F02 JUMP JUMPDEST SWAP2 POP POP PUSH1 0x60 DUP4 ADD MLOAD DUP5 DUP3 SUB PUSH1 0x60 DUP7 ADD MSTORE PUSH2 0x2FB3 DUP3 DUP3 PUSH2 0x2F02 JUMP JUMPDEST SWAP2 POP POP PUSH1 0x80 DUP4 ADD MLOAD PUSH2 0x2FC8 PUSH1 0x80 DUP7 ADD DUP3 PUSH2 0x2F47 JUMP JUMPDEST POP PUSH1 0xA0 DUP4 ADD MLOAD PUSH2 0x2FDB PUSH1 0xA0 DUP7 ADD DUP3 PUSH2 0x2F47 JUMP JUMPDEST POP PUSH1 0xC0 DUP4 ADD MLOAD DUP5 DUP3 SUB PUSH1 0xC0 DUP7 ADD MSTORE PUSH2 0x2FF3 DUP3 DUP3 PUSH2 0x2F02 JUMP JUMPDEST SWAP2 POP POP DUP1 SWAP2 POP POP SWAP3 SWAP2 POP POP JUMP JUMPDEST PUSH1 0x0 PUSH1 0x20 DUP3 ADD SWAP1 POP DUP2 DUP2 SUB PUSH1 0x0 DUP4 ADD MSTORE PUSH2 0x301A DUP2 DUP5 PUSH2 0x2F56 JUMP JUMPDEST SWAP1 POP SWAP3 SWAP2 POP POP JUMP JUMPDEST PUSH2 0x302B DUP2 PUSH2 0x2D80 JUMP JUMPDEST DUP3 MSTORE POP POP JUMP JUMPDEST PUSH1 0x0 PUSH1 0x20 DUP3 ADD SWAP1 POP PUSH2 0x3046 PUSH1 0x0 DUP4 ADD DUP5 PUSH2 0x3022 JUMP JUMPDEST SWAP3 SWAP2 POP POP JUMP JUMPDEST PUSH1 0x0 DUP1 REVERT JUMPDEST PUSH1 0x0 DUP1 REVERT JUMPDEST PUSH32 0x4E487B7100000000000000000000000000000000000000000000000000000000 PUSH1 0x0 MSTORE PUSH1 0x41 PUSH1 0x4 MSTORE PUSH1 0x24 PUSH1 0x0 REVERT JUMPDEST PUSH2 0x308E DUP3 PUSH2 0x2EF1 JUMP JUMPDEST DUP2 ADD DUP2 DUP2 LT PUSH8 0xFFFFFFFFFFFFFFFF DUP3 GT OR ISZERO PUSH2 0x30AD JUMPI PUSH2 0x30AC PUSH2 0x3056 JUMP JUMPDEST JUMPDEST DUP1 PUSH1 0x40 MSTORE POP POP POP JUMP JUMPDEST PUSH1 0x0 PUSH2 0x30C0 PUSH2 0x2E3E JUMP JUMPDEST SWAP1 POP PUSH2 0x30CC DUP3 DUP3 PUSH2 0x3085 JUMP JUMPDEST SWAP2 SWAP1 POP JUMP JUMPDEST PUSH1 0x0 PUSH8 0xFFFFFFFFFFFFFFFF DUP3 GT ISZERO PUSH2 0x30EC JUMPI PUSH2 0x30EB PUSH2 0x3056 JUMP JUMPDEST JUMPDEST PUSH2 0x30F5 DUP3 PUSH2 0x2EF1 JUMP JUMPDEST SWAP1 POP PUSH1 0x20 DUP2 ADD SWAP1 POP SWAP2 SWAP1 POP JUMP JUMPDEST DUP3 DUP2 DUP4 CALLDATACOPY PUSH1 0x0 DUP4 DUP4 ADD MSTORE POP POP POP JUMP JUMPDEST PUSH1 0x0 PUSH2 0x3124 PUSH2 0x311F DUP5 PUSH2 0x30D1 JUMP JUMPDEST PUSH2 0x30B6 JUMP JUMPDEST SWAP1 POP DUP3 DUP2 MSTORE PUSH1 0x20 DUP2 ADD DUP5 DUP5 DUP5 ADD GT ISZERO PUSH2 0x3140 JUMPI PUSH2 0x313F PUSH2 0x3051 JUMP JUMPDEST JUMPDEST PUSH2 0x314B DUP5 DUP3 DUP6 PUSH2 0x3102 JUMP JUMPDEST POP SWAP4 SWAP3 POP POP POP JUMP JUMPDEST PUSH1 0x0 DUP3 PUSH1 0x1F DUP4 ADD SLT PUSH2 0x3168 JUMPI PUSH2 0x3167 PUSH2 0x304C JUMP JUMPDEST JUMPDEST DUP2 CALLDATALOAD PUSH2 0x3178 DUP5 DUP3 PUSH1 0x20 DUP7 ADD PUSH2 0x3111 JUMP JUMPDEST SWAP2 POP POP SWAP3 SWAP2 POP POP JUMP JUMPDEST PUSH1 0x0 DUP1 PUSH1 0x40 DUP4 DUP6 SUB SLT ISZERO PUSH2 0x3198 JUMPI PUSH2 0x3197 PUSH2 0x2E48 JUMP JUMPDEST JUMPDEST PUSH1 0x0 DUP4 ADD CALLDATALOAD PUSH8 0xFFFFFFFFFFFFFFFF DUP2 GT ISZERO PUSH2 0x31B6 JUMPI PUSH2 0x31B5 PUSH2 0x2E4D JUMP JUMPDEST JUMPDEST PUSH2 0x31C2 DUP6 DUP3 DUP7 ADD PUSH2 0x3153 JUMP JUMPDEST SWAP3 POP POP PUSH1 0x20 DUP4 ADD CALLDATALOAD PUSH8 0xFFFFFFFFFFFFFFFF DUP2 GT ISZERO PUSH2 0x31E3 JUMPI PUSH2 0x31E2 PUSH2 0x2E4D JUMP JUMPDEST JUMPDEST PUSH2 0x31EF DUP6 DUP3 DUP7 ADD PUSH2 0x3153 JUMP JUMPDEST SWAP2 POP POP SWAP3 POP SWAP3 SWAP1 POP JUMP JUMPDEST PUSH1 0x0 PUSH1 0x20 DUP3 DUP5 SUB SLT ISZERO PUSH2 0x320F JUMPI PUSH2 0x320E PUSH2 0x2E48 JUMP JUMPDEST JUMPDEST PUSH1 0x0 DUP3 ADD CALLDATALOAD PUSH8 0xFFFFFFFFFFFFFFFF DUP2 GT ISZERO PUSH2 0x322D JUMPI PUSH2 0x322C PUSH2 0x2E4D JUMP JUMPDEST JUMPDEST PUSH2 0x3239 DUP5 DUP3 DUP6 ADD PUSH2 0x3153 JUMP JUMPDEST SWAP2 POP POP SWAP3 SWAP2 POP POP JUMP JUMPDEST PUSH1 0x0 DUP2 MLOAD SWAP1 POP SWAP2 SWAP1 POP JUMP JUMPDEST PUSH1 0x0 DUP3 DUP3 MSTORE PUSH1 0x20 DUP3 ADD SWAP1 POP SWAP3 SWAP2 POP POP JUMP JUMPDEST PUSH1 0x0 DUP2 SWAP1 POP PUSH1 0x20 DUP3 ADD SWAP1 POP SWAP2 SWAP1 POP JUMP JUMPDEST PUSH1 0x0 PUSH2 0x327A DUP4 DUP4 PUSH2 0x2F02 JUMP JUMPDEST SWAP1 POP SWAP3 SWAP2 POP POP JUMP JUMPDEST PUSH1 0x0 PUSH1 0x20 DUP3 ADD SWAP1 POP SWAP2 SWAP1 POP JUMP JUMPDEST PUSH1 0x0 PUSH2 0x329A DUP3 PUSH2 0x3242 JUMP JUMPDEST PUSH2 0x32A4 DUP2 DUP6 PUSH2 0x324D JUMP JUMPDEST SWAP4 POP DUP4 PUSH1 0x20 DUP3 MUL DUP6 ADD PUSH2 0x32B6 DUP6 PUSH2 0x325E JUMP JUMPDEST DUP1 PUSH1 0x0 JUMPDEST DUP6 DUP2 LT ISZERO PUSH2 0x32F2 JUMPI DUP5 DUP5 SUB DUP10 MSTORE DUP2 MLOAD PUSH2 0x32D3 DUP6 DUP3 PUSH2 0x326E JUMP JUMPDEST SWAP5 POP PUSH2 0x32DE DUP4 PUSH2 0x3282 JUMP JUMPDEST SWAP3 POP PUSH1 0x20 DUP11 ADD SWAP10 POP POP PUSH1 0x1 DUP2 ADD SWAP1 POP PUSH2 0x32BA JUMP JUMPDEST POP DUP3 SWAP8 POP DUP8 SWAP6 POP POP POP POP POP POP SWAP3 SWAP2 POP POP JUMP JUMPDEST PUSH1 0x0 DUP3 DUP3 MSTORE PUSH1 0x20 DUP3 ADD SWAP1 POP SWAP3 SWAP2 POP POP JUMP JUMPDEST PUSH1 0x0 PUSH2 0x3320 DUP3 PUSH2 0x2D54 JUMP JUMPDEST PUSH2 0x332A DUP2 DUP6 PUSH2 0x3304 JUMP JUMPDEST SWAP4 POP PUSH2 0x3335 DUP4 PUSH2 0x2D70 JUMP JUMPDEST DUP1 PUSH1 0x0 JUMPDEST DUP4 DUP2 LT ISZERO PUSH2 0x3366 JUMPI DUP2 MLOAD PUSH2 0x334D DUP9 DUP3 PUSH2 0x2D99 JUMP JUMPDEST SWAP8 POP PUSH2 0x3358 DUP4 PUSH2 0x2DB1 JUMP JUMPDEST SWAP3 POP POP PUSH1 0x1 DUP2 ADD SWAP1 POP PUSH2 0x3339 JUMP JUMPDEST POP DUP6 SWAP4 POP POP POP POP SWAP3 SWAP2 POP POP JUMP JUMPDEST PUSH1 0x0 PUSH1 0xE0 DUP4 ADD PUSH1 0x0 DUP4 ADD MLOAD DUP5 DUP3 SUB PUSH1 0x0 DUP7 ADD MSTORE PUSH2 0x3390 DUP3 DUP3 PUSH2 0x2F02 JUMP JUMPDEST SWAP2 POP POP PUSH1 0x20 DUP4 ADD MLOAD DUP5 DUP3 SUB PUSH1 0x20 DUP7 ADD MSTORE PUSH2 0x33AA DUP3 DUP3 PUSH2 0x2F02 JUMP JUMPDEST SWAP2 POP POP PUSH1 0x40 DUP4 ADD MLOAD DUP5 DUP3 SUB PUSH1 0x40 DUP7 ADD MSTORE PUSH2 0x33C4 DUP3 DUP3 PUSH2 0x2F02 JUMP JUMPDEST SWAP2 POP POP PUSH1 0x60 DUP4 ADD MLOAD DUP5 DUP3 SUB PUSH1 0x60 DUP7 ADD MSTORE PUSH2 0x33DE DUP3 DUP3 PUSH2 0x328F JUMP JUMPDEST SWAP2 POP POP PUSH1 0x80 DUP4 ADD MLOAD DUP5 DUP3 SUB PUSH1 0x80 DUP7 ADD MSTORE PUSH2 0x33F8 DUP3 DUP3 PUSH2 0x3315 JUMP JUMPDEST SWAP2 POP POP PUSH1 0xA0 DUP4 ADD MLOAD DUP5 DUP3 SUB PUSH1 0xA0 DUP7 ADD MSTORE PUSH2 0x3412 DUP3 DUP3 PUSH2 0x3315 JUMP JUMPDEST SWAP2 POP POP PUSH1 0xC0 DUP4 ADD MLOAD DUP5 DUP3 SUB PUSH1 0xC0 DUP7 ADD MSTORE PUSH2 0x342C DUP3 DUP3 PUSH2 0x3315 JUMP JUMPDEST SWAP2 POP POP DUP1 SWAP2 POP POP SWAP3 SWAP2 POP POP JUMP JUMPDEST PUSH1 0x0 PUSH1 0x20 DUP3 ADD SWAP1 POP DUP2 DUP2 SUB PUSH1 0x0 DUP4 ADD MSTORE PUSH2 0x3453 DUP2 DUP5 PUSH2 0x3373 JUMP JUMPDEST SWAP1 POP SWAP3 SWAP2 POP POP JUMP JUMPDEST PUSH1 0x0 PUSH2 0x120 DUP4 ADD PUSH1 0x0 DUP4 ADD MLOAD PUSH2 0x3474 PUSH1 0x0 DUP7 ADD DUP3 PUSH2 0x2D8A JUMP JUMPDEST POP PUSH1 0x20 DUP4 ADD MLOAD DUP5 DUP3 SUB PUSH1 0x20 DUP7 ADD MSTORE PUSH2 0x348C DUP3 DUP3 PUSH2 0x2F02 JUMP JUMPDEST SWAP2 POP POP PUSH1 0x40 DUP4 ADD MLOAD DUP5 DUP3 SUB PUSH1 0x40 DUP7 ADD MSTORE PUSH2 0x34A6 DUP3 DUP3 PUSH2 0x2F02 JUMP JUMPDEST SWAP2 POP POP PUSH1 0x60 DUP4 ADD MLOAD DUP5 DUP3 SUB PUSH1 0x60 DUP7 ADD MSTORE PUSH2 0x34C0 DUP3 DUP3 PUSH2 0x2F02 JUMP JUMPDEST SWAP2 POP POP PUSH1 0x80 DUP4 ADD MLOAD DUP5 DUP3 SUB PUSH1 0x80 DUP7 ADD MSTORE PUSH2 0x34DA DUP3 DUP3 PUSH2 0x2F02 JUMP JUMPDEST SWAP2 POP POP PUSH1 0xA0 DUP4 ADD MLOAD DUP5 DUP3 SUB PUSH1 0xA0 DUP7 ADD MSTORE PUSH2 0x34F4 DUP3 DUP3 PUSH2 0x2F02 JUMP JUMPDEST SWAP2 POP POP PUSH1 0xC0 DUP4 ADD MLOAD PUSH2 0x3509 PUSH1 0xC0 DUP7 ADD DUP3 PUSH2 0x2D8A JUMP JUMPDEST POP PUSH1 0xE0 DUP4 ADD MLOAD PUSH2 0x351C PUSH1 0xE0 DUP7 ADD DUP3 PUSH2 0x2D8A JUMP JUMPDEST POP PUSH2 0x100 DUP4 ADD MLOAD DUP5 DUP3 SUB PUSH2 0x100 DUP7 ADD MSTORE PUSH2 0x3536 DUP3 DUP3 PUSH2 0x2F02 JUMP JUMPDEST SWAP2 POP POP DUP1 SWAP2 POP POP SWAP3 SWAP2 POP POP JUMP JUMPDEST PUSH1 0x0 PUSH1 0x20 DUP3 ADD SWAP1 POP DUP2 DUP2 SUB PUSH1 0x0 DUP4 ADD MSTORE PUSH2 0x355D DUP2 DUP5 PUSH2 0x345B JUMP JUMPDEST SWAP1 POP SWAP3 SWAP2 POP POP JUMP JUMPDEST PUSH1 0x0 DUP1 PUSH1 0x0 PUSH1 0x60 DUP5 DUP7 SUB SLT ISZERO PUSH2 0x357E JUMPI PUSH2 0x357D PUSH2 0x2E48 JUMP JUMPDEST JUMPDEST PUSH1 0x0 DUP5 ADD CALLDATALOAD PUSH8 0xFFFFFFFFFFFFFFFF DUP2 GT ISZERO PUSH2 0x359C JUMPI PUSH2 0x359B PUSH2 0x2E4D JUMP JUMPDEST JUMPDEST PUSH2 0x35A8 DUP7 DUP3 DUP8 ADD PUSH2 0x3153 JUMP JUMPDEST SWAP4 POP POP PUSH1 0x20 DUP5 ADD CALLDATALOAD PUSH8 0xFFFFFFFFFFFFFFFF DUP2 GT ISZERO PUSH2 0x35C9 JUMPI PUSH2 0x35C8 PUSH2 0x2E4D JUMP JUMPDEST JUMPDEST PUSH2 0x35D5 DUP7 DUP3 DUP8 ADD PUSH2 0x3153 JUMP JUMPDEST SWAP3 POP POP PUSH1 0x40 PUSH2 0x35E6 DUP7 DUP3 DUP8 ADD PUSH2 0x2E69 JUMP JUMPDEST SWAP2 POP POP SWAP3 POP SWAP3 POP SWAP3 JUMP JUMPDEST PUSH1 0x0 PUSH8 0xFFFFFFFFFFFFFFFF DUP3 GT ISZERO PUSH2 0x360B JUMPI PUSH2 0x360A PUSH2 0x3056 JUMP JUMPDEST JUMPDEST PUSH1 0x20 DUP3 MUL SWAP1 POP PUSH1 0x20 DUP2 ADD SWAP1 POP SWAP2 SWAP1 POP JUMP JUMPDEST PUSH1 0x0 DUP1 REVERT JUMPDEST PUSH1 0x0 PUSH2 0x3634 PUSH2 0x362F DUP5 PUSH2 0x35F0 JUMP JUMPDEST PUSH2 0x30B6 JUMP JUMPDEST SWAP1 POP DUP1 DUP4 DUP3 MSTORE PUSH1 0x20 DUP3 ADD SWAP1 POP PUSH1 0x20 DUP5 MUL DUP4 ADD DUP6 DUP2 GT ISZERO PUSH2 0x3657 JUMPI PUSH2 0x3656 PUSH2 0x361C JUMP JUMPDEST JUMPDEST DUP4 JUMPDEST DUP2 DUP2 LT ISZERO PUSH2 0x369E JUMPI DUP1 CALLDATALOAD PUSH8 0xFFFFFFFFFFFFFFFF DUP2 GT ISZERO PUSH2 0x367C JUMPI PUSH2 0x367B PUSH2 0x304C JUMP JUMPDEST JUMPDEST DUP1 DUP7 ADD PUSH2 0x3689 DUP10 DUP3 PUSH2 0x3153 JUMP JUMPDEST DUP6 MSTORE PUSH1 0x20 DUP6 ADD SWAP5 POP POP POP PUSH1 0x20 DUP2 ADD SWAP1 POP PUSH2 0x3659 JUMP JUMPDEST POP POP POP SWAP4 SWAP3 POP POP POP JUMP JUMPDEST PUSH1 0x0 DUP3 PUSH1 0x1F DUP4 ADD SLT PUSH2 0x36BD JUMPI PUSH2 0x36BC PUSH2 0x304C JUMP JUMPDEST JUMPDEST DUP2 CALLDATALOAD PUSH2 0x36CD DUP5 DUP3 PUSH1 0x20 DUP7 ADD PUSH2 0x3621 JUMP JUMPDEST SWAP2 POP POP SWAP3 SWAP2 POP POP JUMP JUMPDEST PUSH1 0x0 DUP1 PUSH1 0x40 DUP4 DUP6 SUB SLT ISZERO PUSH2 0x36ED JUMPI PUSH2 0x36EC PUSH2 0x2E48 JUMP JUMPDEST JUMPDEST PUSH1 0x0 DUP4 ADD CALLDATALOAD PUSH8 0xFFFFFFFFFFFFFFFF DUP2 GT ISZERO PUSH2 0x370B JUMPI PUSH2 0x370A PUSH2 0x2E4D JUMP JUMPDEST JUMPDEST PUSH2 0x3717 DUP6 DUP3 DUP7 ADD PUSH2 0x3153 JUMP JUMPDEST SWAP3 POP POP PUSH1 0x20 DUP4 ADD CALLDATALOAD PUSH8 0xFFFFFFFFFFFFFFFF DUP2 GT ISZERO PUSH2 0x3738 JUMPI PUSH2 0x3737 PUSH2 0x2E4D JUMP JUMPDEST JUMPDEST PUSH2 0x3744 DUP6 DUP3 DUP7 ADD PUSH2 0x36A8 JUMP JUMPDEST SWAP2 POP POP SWAP3 POP SWAP3 SWAP1 POP JUMP JUMPDEST PUSH1 0x0 DUP1 PUSH1 0x40 DUP4 DUP6 SUB SLT ISZERO PUSH2 0x3765 JUMPI PUSH2 0x3764 PUSH2 0x2E48 JUMP JUMPDEST JUMPDEST PUSH1 0x0 DUP4 ADD CALLDATALOAD PUSH8 0xFFFFFFFFFFFFFFFF DUP2 GT ISZERO PUSH2 0x3783 JUMPI PUSH2 0x3782 PUSH2 0x2E4D JUMP JUMPDEST JUMPDEST PUSH2 0x378F DUP6 DUP3 DUP7 ADD PUSH2 0x36A8 JUMP JUMPDEST SWAP3 POP POP PUSH1 0x20 DUP4 ADD CALLDATALOAD PUSH8 0xFFFFFFFFFFFFFFFF DUP2 GT ISZERO PUSH2 0x37B0 JUMPI PUSH2 0x37AF PUSH2 0x2E4D JUMP JUMPDEST JUMPDEST PUSH2 0x37BC DUP6 DUP3 DUP7 ADD PUSH2 0x3153 JUMP JUMPDEST SWAP2 POP POP SWAP3 POP SWAP3 SWAP1 POP JUMP JUMPDEST PUSH1 0x0 DUP1 PUSH1 0x0 DUP1 PUSH1 0x0 DUP1 PUSH1 0x0 DUP1 PUSH2 0x100 DUP10 DUP12 SUB SLT ISZERO PUSH2 0x37E7 JUMPI PUSH2 0x37E6 PUSH2 0x2E48 JUMP JUMPDEST JUMPDEST PUSH1 0x0 DUP10 ADD CALLDATALOAD PUSH8 0xFFFFFFFFFFFFFFFF DUP2 GT ISZERO PUSH2 0x3805 JUMPI PUSH2 0x3804 PUSH2 0x2E4D JUMP JUMPDEST JUMPDEST PUSH2 0x3811 DUP12 DUP3 DUP13 ADD PUSH2 0x3153 JUMP JUMPDEST SWAP9 POP POP PUSH1 0x20 DUP10 ADD CALLDATALOAD PUSH8 0xFFFFFFFFFFFFFFFF DUP2 GT ISZERO PUSH2 0x3832 JUMPI PUSH2 0x3831 PUSH2 0x2E4D JUMP JUMPDEST JUMPDEST PUSH2 0x383E DUP12 DUP3 DUP13 ADD PUSH2 0x3153 JUMP JUMPDEST SWAP8 POP POP PUSH1 0x40 DUP10 ADD CALLDATALOAD PUSH8 0xFFFFFFFFFFFFFFFF DUP2 GT ISZERO PUSH2 0x385F JUMPI PUSH2 0x385E PUSH2 0x2E4D JUMP JUMPDEST JUMPDEST PUSH2 0x386B DUP12 DUP3 DUP13 ADD PUSH2 0x3153 JUMP JUMPDEST SWAP7 POP POP PUSH1 0x60 DUP10 ADD CALLDATALOAD PUSH8 0xFFFFFFFFFFFFFFFF DUP2 GT ISZERO PUSH2 0x388C JUMPI PUSH2 0x388B PUSH2 0x2E4D JUMP JUMPDEST JUMPDEST PUSH2 0x3898 DUP12 DUP3 DUP13 ADD PUSH2 0x3153 JUMP JUMPDEST SWAP6 POP POP PUSH1 0x80 DUP10 ADD CALLDATALOAD PUSH8 0xFFFFFFFFFFFFFFFF DUP2 GT ISZERO PUSH2 0x38B9 JUMPI PUSH2 0x38B8 PUSH2 0x2E4D JUMP JUMPDEST JUMPDEST PUSH2 0x38C5 DUP12 DUP3 DUP13 ADD PUSH2 0x3153 JUMP JUMPDEST SWAP5 POP POP PUSH1 0xA0 PUSH2 0x38D6 DUP12 DUP3 DUP13 ADD PUSH2 0x2E69 JUMP JUMPDEST SWAP4 POP POP PUSH1 0xC0 PUSH2 0x38E7 DUP12 DUP3 DUP13 ADD PUSH2 0x2E69 JUMP JUMPDEST SWAP3 POP POP PUSH1 0xE0 DUP10 ADD CALLDATALOAD PUSH8 0xFFFFFFFFFFFFFFFF DUP2 GT ISZERO PUSH2 0x3908 JUMPI PUSH2 0x3907 PUSH2 0x2E4D JUMP JUMPDEST JUMPDEST PUSH2 0x3914 DUP12 DUP3 DUP13 ADD PUSH2 0x3153 JUMP JUMPDEST SWAP2 POP POP SWAP3 SWAP6 SWAP9 POP SWAP3 SWAP6 SWAP9 SWAP1 SWAP4 SWAP7 POP JUMP JUMPDEST PUSH2 0x392D DUP2 PUSH2 0x2F3B JUMP JUMPDEST DUP2 EQ PUSH2 0x3938 JUMPI PUSH1 0x0 DUP1 REVERT JUMPDEST POP JUMP JUMPDEST PUSH1 0x0 DUP2 CALLDATALOAD SWAP1 POP PUSH2 0x394A DUP2 PUSH2 0x3924 JUMP JUMPDEST SWAP3 SWAP2 POP POP JUMP JUMPDEST PUSH1 0x0 DUP1 PUSH1 0x40 DUP4 DUP6 SUB SLT ISZERO PUSH2 0x3967 JUMPI PUSH2 0x3966 PUSH2 0x2E48 JUMP JUMPDEST JUMPDEST PUSH1 0x0 PUSH2 0x3975 DUP6 DUP3 DUP7 ADD PUSH2 0x393B JUMP JUMPDEST SWAP3 POP POP PUSH1 0x20 PUSH2 0x3986 DUP6 DUP3 DUP7 ADD PUSH2 0x2E69 JUMP JUMPDEST SWAP2 POP POP SWAP3 POP SWAP3 SWAP1 POP JUMP JUMPDEST PUSH1 0x0 PUSH20 0xFFFFFFFFFFFFFFFFFFFFFFFFFFFFFFFFFFFFFFFF DUP3 AND SWAP1 POP SWAP2 SWAP1 POP JUMP JUMPDEST PUSH1 0x0 PUSH2 0x39BB DUP3 PUSH2 0x3990 JUMP JUMPDEST SWAP1 POP SWAP2 SWAP1 POP JUMP JUMPDEST PUSH2 0x39CB DUP2 PUSH2 0x39B0 JUMP JUMPDEST DUP3 MSTORE POP POP JUMP JUMPDEST PUSH1 0x0 PUSH1 0x20 DUP3 ADD SWAP1 POP PUSH2 0x39E6 PUSH1 0x0 DUP4 ADD DUP5 PUSH2 0x39C2 JUMP JUMPDEST SWAP3 SWAP2 POP POP JUMP JUMPDEST PUSH1 0x0 DUP1 PUSH1 0x40 DUP4 DUP6 SUB SLT ISZERO PUSH2 0x3A03 JUMPI PUSH2 0x3A02 PUSH2 0x2E48 JUMP JUMPDEST JUMPDEST PUSH1 0x0 DUP4 ADD CALLDATALOAD PUSH8 0xFFFFFFFFFFFFFFFF DUP2 GT ISZERO PUSH2 0x3A21 JUMPI PUSH2 0x3A20 PUSH2 0x2E4D JUMP JUMPDEST JUMPDEST PUSH2 0x3A2D DUP6 DUP3 DUP7 ADD PUSH2 0x3153 JUMP JUMPDEST SWAP3 POP POP PUSH1 0x20 PUSH2 0x3A3E DUP6 DUP3 DUP7 ADD PUSH2 0x2E69 JUMP JUMPDEST SWAP2 POP POP SWAP3 POP SWAP3 SWAP1 POP JUMP JUMPDEST PUSH2 0x3A51 DUP2 PUSH2 0x2F3B JUMP JUMPDEST DUP3 MSTORE POP POP JUMP JUMPDEST PUSH1 0x0 PUSH1 0x20 DUP3 ADD SWAP1 POP PUSH2 0x3A6C PUSH1 0x0 DUP4 ADD DUP5 PUSH2 0x3A48 JUMP JUMPDEST SWAP3 SWAP2 POP POP JUMP JUMPDEST PUSH32 0x4E487B7100000000000000000000000000000000000000000000000000000000 PUSH1 0x0 MSTORE PUSH1 0x22 PUSH1 0x4 MSTORE PUSH1 0x24 PUSH1 0x0 REVERT JUMPDEST PUSH1 0x0 PUSH1 0x2 DUP3 DIV SWAP1 POP PUSH1 0x1 DUP3 AND DUP1 PUSH2 0x3AB9 JUMPI PUSH1 0x7F DUP3 AND SWAP2 POP JUMPDEST PUSH1 0x20 DUP3 LT DUP2 SUB PUSH2 0x3ACC JUMPI PUSH2 0x3ACB PUSH2 0x3A72 JUMP JUMPDEST JUMPDEST POP SWAP2 SWAP1 POP JUMP JUMPDEST PUSH1 0x0 DUP2 SWAP1 POP SWAP3 SWAP2 POP POP JUMP JUMPDEST PUSH1 0x0 PUSH2 0x3AE8 DUP3 PUSH2 0x2EAB JUMP JUMPDEST PUSH2 0x3AF2 DUP2 DUP6 PUSH2 0x3AD2 JUMP JUMPDEST SWAP4 POP PUSH2 0x3B02 DUP2 DUP6 PUSH1 0x20 DUP7 ADD PUSH2 0x2EC7 JUMP JUMPDEST DUP1 DUP5 ADD SWAP2 POP POP SWAP3 SWAP2 POP POP JUMP JUMPDEST PUSH1 0x0 PUSH2 0x3B1A DUP3 DUP5 PUSH2 0x3ADD JUMP JUMPDEST SWAP2 POP DUP2 SWAP1 POP SWAP3 SWAP2 POP POP JUMP JUMPDEST PUSH1 0x0 DUP2 SWAP1 POP DUP2 PUSH1 0x0 MSTORE PUSH1 0x20 PUSH1 0x0 KECCAK256 SWAP1 POP SWAP2 SWAP1 POP JUMP JUMPDEST PUSH1 0x0 PUSH1 0x20 PUSH1 0x1F DUP4 ADD DIV SWAP1 POP SWAP2 SWAP1 POP JUMP JUMPDEST PUSH1 0x0 DUP3 DUP3 SHL SWAP1 POP SWAP3 SWAP2 POP POP JUMP JUMPDEST PUSH1 0x0 PUSH1 0x8 DUP4 MUL PUSH2 0x3B87 PUSH32 0xFFFFFFFFFFFFFFFFFFFFFFFFFFFFFFFFFFFFFFFFFFFFFFFFFFFFFFFFFFFFFFFF DUP3 PUSH2 0x3B4A JUMP JUMPDEST PUSH2 0x3B91 DUP7 DUP4 PUSH2 0x3B4A JUMP JUMPDEST SWAP6 POP DUP1 NOT DUP5 AND SWAP4 POP DUP1 DUP7 AND DUP5 OR SWAP3 POP POP POP SWAP4 SWAP3 POP POP POP JUMP JUMPDEST PUSH1 0x0 DUP2 SWAP1 POP SWAP2 SWAP1 POP JUMP JUMPDEST PUSH1 0x0 PUSH2 0x3BCE PUSH2 0x3BC9 PUSH2 0x3BC4 DUP5 PUSH2 0x2D80 JUMP JUMPDEST PUSH2 0x3BA9 JUMP JUMPDEST PUSH2 0x2D80 JUMP JUMPDEST SWAP1 POP SWAP2 SWAP1 POP JUMP JUMPDEST PUSH1 0x0 DUP2 SWAP1 POP SWAP2 SWAP1 POP JUMP JUMPDEST PUSH2 0x3BE8 DUP4 PUSH2 0x3BB3 JUMP JUMPDEST PUSH2 0x3BFC PUSH2 0x3BF4 DUP3 PUSH2 0x3BD5 JUMP JUMPDEST DUP5 DUP5 SLOAD PUSH2 0x3B57 JUMP JUMPDEST DUP3 SSTORE POP POP POP POP JUMP JUMPDEST PUSH1 0x0 SWAP1 JUMP JUMPDEST PUSH2 0x3C11 PUSH2 0x3C04 JUMP JUMPDEST PUSH2 0x3C1C DUP2 DUP5 DUP5 PUSH2 0x3BDF JUMP JUMPDEST POP POP POP JUMP JUMPDEST JUMPDEST DUP2 DUP2 LT ISZERO PUSH2 0x3C40 JUMPI PUSH2 0x3C35 PUSH1 0x0 DUP3 PUSH2 0x3C09 JUMP JUMPDEST PUSH1 0x1 DUP2 ADD SWAP1 POP PUSH2 0x3C22 JUMP JUMPDEST POP POP JUMP JUMPDEST PUSH1 0x1F DUP3 GT ISZERO PUSH2 0x3C85 JUMPI PUSH2 0x3C56 DUP2 PUSH2 0x3B25 JUMP JUMPDEST PUSH2 0x3C5F DUP5 PUSH2 0x3B3A JUMP JUMPDEST DUP2 ADD PUSH1 0x20 DUP6 LT ISZERO PUSH2 0x3C6E JUMPI DUP2 SWAP1 POP JUMPDEST PUSH2 0x3C82 PUSH2 0x3C7A DUP6 PUSH2 0x3B3A JUMP JUMPDEST DUP4 ADD DUP3 PUSH2 0x3C21 JUMP JUMPDEST POP POP JUMPDEST POP POP POP JUMP JUMPDEST PUSH1 0x0 DUP3 DUP3 SHR SWAP1 POP SWAP3 SWAP2 POP POP JUMP JUMPDEST PUSH1 0x0 PUSH2 0x3CA8 PUSH1 0x0 NOT DUP5 PUSH1 0x8 MUL PUSH2 0x3C8A JUMP JUMPDEST NOT DUP1 DUP4 AND SWAP2 POP POP SWAP3 SWAP2 POP POP JUMP JUMPDEST PUSH1 0x0 PUSH2 0x3CC1 DUP4 DUP4 PUSH2 0x3C97 JUMP JUMPDEST SWAP2 POP DUP3 PUSH1 0x2 MUL DUP3 OR SWAP1 POP SWAP3 SWAP2 POP POP JUMP JUMPDEST PUSH2 0x3CDA DUP3 PUSH2 0x2EAB JUMP JUMPDEST PUSH8 0xFFFFFFFFFFFFFFFF DUP2 GT ISZERO PUSH2 0x3CF3 JUMPI PUSH2 0x3CF2 PUSH2 0x3056 JUMP JUMPDEST JUMPDEST PUSH2 0x3CFD DUP3 SLOAD PUSH2 0x3AA1 JUMP JUMPDEST PUSH2 0x3D08 DUP3 DUP3 DUP6 PUSH2 0x3C44 JUMP JUMPDEST PUSH1 0x0 PUSH1 0x20 SWAP1 POP PUSH1 0x1F DUP4 GT PUSH1 0x1 DUP2 EQ PUSH2 0x3D3B JUMPI PUSH1 0x0 DUP5 ISZERO PUSH2 0x3D29 JUMPI DUP3 DUP8 ADD MLOAD SWAP1 POP JUMPDEST PUSH2 0x3D33 DUP6 DUP3 PUSH2 0x3CB5 JUMP JUMPDEST DUP7 SSTORE POP PUSH2 0x3D9B JUMP JUMPDEST PUSH1 0x1F NOT DUP5 AND PUSH2 0x3D49 DUP7 PUSH2 0x3B25 JUMP JUMPDEST PUSH1 0x0 JUMPDEST DUP3 DUP2 LT ISZERO PUSH2 0x3D71 JUMPI DUP5 DUP10 ADD MLOAD DUP3 SSTORE PUSH1 0x1 DUP3 ADD SWAP2 POP PUSH1 0x20 DUP6 ADD SWAP5 POP PUSH1 0x20 DUP2 ADD SWAP1 POP PUSH2 0x3D4C JUMP JUMPDEST DUP7 DUP4 LT ISZERO PUSH2 0x3D8E JUMPI DUP5 DUP10 ADD MLOAD PUSH2 0x3D8A PUSH1 0x1F DUP10 AND DUP3 PUSH2 0x3C97 JUMP JUMPDEST DUP4 SSTORE POP JUMPDEST PUSH1 0x1 PUSH1 0x2 DUP9 MUL ADD DUP9 SSTORE POP POP POP JUMPDEST POP POP POP POP POP POP JUMP JUMPDEST PUSH32 0x4E487B7100000000000000000000000000000000000000000000000000000000 PUSH1 0x0 MSTORE PUSH1 0x11 PUSH1 0x4 MSTORE PUSH1 0x24 PUSH1 0x0 REVERT JUMPDEST PUSH1 0x0 PUSH2 0x3DDD DUP3 PUSH2 0x2D80 JUMP JUMPDEST SWAP2 POP PUSH32 0xFFFFFFFFFFFFFFFFFFFFFFFFFFFFFFFFFFFFFFFFFFFFFFFFFFFFFFFFFFFFFFFF DUP3 SUB PUSH2 0x3E0F JUMPI PUSH2 0x3E0E PUSH2 0x3DA3 JUMP JUMPDEST JUMPDEST PUSH1 0x1 DUP3 ADD SWAP1 POP SWAP2 SWAP1 POP JUMP JUMPDEST PUSH32 0x4E487B7100000000000000000000000000000000000000000000000000000000 PUSH1 0x0 MSTORE PUSH1 0x32 PUSH1 0x4 MSTORE PUSH1 0x24 PUSH1 0x0 REVERT JUMPDEST POP JUMP JUMPDEST PUSH1 0x0 PUSH2 0x3E59 PUSH1 0x0 DUP4 PUSH2 0x3AD2 JUMP JUMPDEST SWAP2 POP PUSH2 0x3E64 DUP3 PUSH2 0x3E49 JUMP JUMPDEST PUSH1 0x0 DUP3 ADD SWAP1 POP SWAP2 SWAP1 POP JUMP JUMPDEST PUSH1 0x0 PUSH2 0x3E7A DUP3 PUSH2 0x3E4C JUMP JUMPDEST SWAP2 POP DUP2 SWAP1 POP SWAP2 SWAP1 POP JUMP JUMPDEST PUSH1 0x0 DUP2 SLOAD PUSH2 0x3E91 DUP2 PUSH2 0x3AA1 JUMP JUMPDEST PUSH2 0x3E9B DUP2 DUP7 PUSH2 0x3AD2 JUMP JUMPDEST SWAP5 POP PUSH1 0x1 DUP3 AND PUSH1 0x0 DUP2 EQ PUSH2 0x3EB6 JUMPI PUSH1 0x1 DUP2 EQ PUSH2 0x3ECB JUMPI PUSH2 0x3EFE JUMP JUMPDEST PUSH1 0xFF NOT DUP4 AND DUP7 MSTORE DUP2 ISZERO ISZERO DUP3 MUL DUP7 ADD SWAP4 POP PUSH2 0x3EFE JUMP JUMPDEST PUSH2 0x3ED4 DUP6 PUSH2 0x3B25 JUMP JUMPDEST PUSH1 0x0 JUMPDEST DUP4 DUP2 LT ISZERO PUSH2 0x3EF6 JUMPI DUP2 SLOAD DUP2 DUP10 ADD MSTORE PUSH1 0x1 DUP3 ADD SWAP2 POP PUSH1 0x20 DUP2 ADD SWAP1 POP PUSH2 0x3ED7 JUMP JUMPDEST DUP4 DUP9 ADD SWAP6 POP POP POP JUMPDEST POP POP POP SWAP3 SWAP2 POP POP JUMP JUMPDEST PUSH1 0x0 PUSH2 0x3F13 DUP3 DUP5 PUSH2 0x3E84 JUMP JUMPDEST SWAP2 POP DUP2 SWAP1 POP SWAP3 SWAP2 POP POP JUMP INVALID LOG2 PUSH5 0x6970667358 0x22 SLT KECCAK256 0xFC CALLDATASIZE BASEFEE PUSH2 0x41B 0xB0 0xC2 DUP3 0xEF 0x25 0xAB 0xC0 SHL 0xBF DUP11 0xCE PUSH27 0xC67833FE52AF886421572200A99864736F6C634300081200330000 "
				},
				"gasEstimates": {
					"creation": {
						"codeDepositCost": "3242400",
						"executionCost": "37873",
						"totalCost": "3280273"
					},
					"external": {
						"allProductsIds(uint256)": "infinite",
						"allRentsIds(uint256)": "infinite",
						"approveRent(bool,uint256)": "25003",
						"assignLensToUser(string,string)": "infinite",
						"assignWalletsToUser(string[],string)": "infinite",
						"assignWorldCoinIdToUser(string,string)": "infinite",
						"compareStrings(string,string)": "infinite",
						"createProduct(string,string,string,string,string,uint256,uint256,string)": "infinite",
						"createUserAccount(string,string[])": "infinite",
						"doesKeyExist(string,string)": "infinite",
						"getAllProducts()": "infinite",
						"getAllRents()": "infinite",
						"getOwner()": "2611",
						"getProductById(uint256)": "infinite",
						"getRent(uint256)": "infinite",
						"getUserById(string)": "infinite",
						"getUserByLens(string)": "infinite",
						"getUserByWallet(string)": "infinite",
						"getUserByWorldCoin(string)": "infinite",
						"lasProductId()": "2540",
						"lastRentId()": "2451",
						"makeRentRequest(string,string,uint256)": "infinite",
						"returnRent(bool,uint256)": "25031",
						"setIncidence(string,uint256)": "infinite"
					}
				},
				"methodIdentifiers": {
					"allProductsIds(uint256)": "fe1823af",
					"allRentsIds(uint256)": "067c2d61",
					"approveRent(bool,uint256)": "7cb3b62d",
					"assignLensToUser(string,string)": "081396eb",
					"assignWalletsToUser(string[],string)": "63c60bd5",
					"assignWorldCoinIdToUser(string,string)": "15c19c1d",
					"compareStrings(string,string)": "bed34bba",
					"createProduct(string,string,string,string,string,uint256,uint256,string)": "6bd562f3",
					"createUserAccount(string,string[])": "51f40dd6",
					"doesKeyExist(string,string)": "d430e05a",
					"getAllProducts()": "02ee3a52",
					"getAllRents()": "8e7eb953",
					"getOwner()": "893d20e8",
					"getProductById(uint256)": "3f70c2b4",
					"getRent(uint256)": "037d9402",
					"getUserById(string)": "379f8fc2",
					"getUserByLens(string)": "c77cfeeb",
					"getUserByWallet(string)": "7198ed1a",
					"getUserByWorldCoin(string)": "f70e1c5e",
					"lasProductId()": "63fbe5b3",
					"lastRentId()": "bb29e2a5",
					"makeRentRequest(string,string,uint256)": "4af5809a",
					"returnRent(bool,uint256)": "76414782",
					"setIncidence(string,uint256)": "a2e07c84"
				}
			},
			"storageLayout": {
				"storage": [
					{
						"astId": 3,
						"contract": "Contracts/Lending.sol:Lending",
						"label": "owner",
						"offset": 0,
						"slot": "0",
						"type": "t_address"
					},
					{
						"astId": 6,
						"contract": "Contracts/Lending.sol:Lending",
						"label": "lasProductId",
						"offset": 0,
						"slot": "1",
						"type": "t_uint256"
					},
					{
						"astId": 9,
						"contract": "Contracts/Lending.sol:Lending",
						"label": "lastRentId",
						"offset": 0,
						"slot": "2",
						"type": "t_uint256"
					},
					{
						"astId": 12,
						"contract": "Contracts/Lending.sol:Lending",
						"label": "allProductsIds",
						"offset": 0,
						"slot": "3",
						"type": "t_array(t_uint256)dyn_storage"
					},
					{
						"astId": 15,
						"contract": "Contracts/Lending.sol:Lending",
						"label": "allRentsIds",
						"offset": 0,
						"slot": "4",
						"type": "t_array(t_uint256)dyn_storage"
					},
					{
						"astId": 73,
						"contract": "Contracts/Lending.sol:Lending",
						"label": "Products",
						"offset": 0,
						"slot": "5",
						"type": "t_mapping(t_uint256,t_struct(Product)53_storage)"
					},
					{
						"astId": 78,
						"contract": "Contracts/Lending.sol:Lending",
						"label": "Users",
						"offset": 0,
						"slot": "6",
						"type": "t_mapping(t_string_memory_ptr,t_struct(User)34_storage)"
					},
					{
						"astId": 83,
						"contract": "Contracts/Lending.sol:Lending",
						"label": "Rents",
						"offset": 0,
						"slot": "7",
						"type": "t_mapping(t_uint256,t_struct(Rent)68_storage)"
					},
					{
						"astId": 88,
						"contract": "Contracts/Lending.sol:Lending",
						"label": "UserRatings",
						"offset": 0,
						"slot": "8",
						"type": "t_mapping(t_string_memory_ptr,t_array(t_uint256)dyn_storage)"
					},
					{
						"astId": 93,
						"contract": "Contracts/Lending.sol:Lending",
						"label": "TenantRatings",
						"offset": 0,
						"slot": "9",
						"type": "t_mapping(t_string_memory_ptr,t_array(t_uint256)dyn_storage)"
					},
					{
						"astId": 98,
						"contract": "Contracts/Lending.sol:Lending",
						"label": "UserProducts",
						"offset": 0,
						"slot": "10",
						"type": "t_mapping(t_uint256,t_array(t_uint256)dyn_storage)"
					},
					{
						"astId": 102,
						"contract": "Contracts/Lending.sol:Lending",
						"label": "UserWorldCoinIds",
						"offset": 0,
						"slot": "11",
						"type": "t_mapping(t_string_memory_ptr,t_string_storage)"
					},
					{
						"astId": 106,
						"contract": "Contracts/Lending.sol:Lending",
						"label": "UserWallets",
						"offset": 0,
						"slot": "12",
						"type": "t_mapping(t_string_memory_ptr,t_string_storage)"
					},
					{
						"astId": 110,
						"contract": "Contracts/Lending.sol:Lending",
						"label": "UserLensHandles",
						"offset": 0,
						"slot": "13",
						"type": "t_mapping(t_string_memory_ptr,t_string_storage)"
					}
				],
				"types": {
					"t_address": {
						"encoding": "inplace",
						"label": "address",
						"numberOfBytes": "20"
					},
					"t_array(t_string_storage)dyn_storage": {
						"base": "t_string_storage",
						"encoding": "dynamic_array",
						"label": "string[]",
						"numberOfBytes": "32"
					},
					"t_array(t_uint256)dyn_storage": {
						"base": "t_uint256",
						"encoding": "dynamic_array",
						"label": "uint256[]",
						"numberOfBytes": "32"
					},
					"t_bool": {
						"encoding": "inplace",
						"label": "bool",
						"numberOfBytes": "1"
					},
					"t_mapping(t_string_memory_ptr,t_array(t_uint256)dyn_storage)": {
						"encoding": "mapping",
						"key": "t_string_memory_ptr",
						"label": "mapping(string => uint256[])",
						"numberOfBytes": "32",
						"value": "t_array(t_uint256)dyn_storage"
					},
					"t_mapping(t_string_memory_ptr,t_string_storage)": {
						"encoding": "mapping",
						"key": "t_string_memory_ptr",
						"label": "mapping(string => string)",
						"numberOfBytes": "32",
						"value": "t_string_storage"
					},
					"t_mapping(t_string_memory_ptr,t_struct(User)34_storage)": {
						"encoding": "mapping",
						"key": "t_string_memory_ptr",
						"label": "mapping(string => struct Lending.User)",
						"numberOfBytes": "32",
						"value": "t_struct(User)34_storage"
					},
					"t_mapping(t_uint256,t_array(t_uint256)dyn_storage)": {
						"encoding": "mapping",
						"key": "t_uint256",
						"label": "mapping(uint256 => uint256[])",
						"numberOfBytes": "32",
						"value": "t_array(t_uint256)dyn_storage"
					},
					"t_mapping(t_uint256,t_struct(Product)53_storage)": {
						"encoding": "mapping",
						"key": "t_uint256",
						"label": "mapping(uint256 => struct Lending.Product)",
						"numberOfBytes": "32",
						"value": "t_struct(Product)53_storage"
					},
					"t_mapping(t_uint256,t_struct(Rent)68_storage)": {
						"encoding": "mapping",
						"key": "t_uint256",
						"label": "mapping(uint256 => struct Lending.Rent)",
						"numberOfBytes": "32",
						"value": "t_struct(Rent)68_storage"
					},
					"t_string_memory_ptr": {
						"encoding": "bytes",
						"label": "string",
						"numberOfBytes": "32"
					},
					"t_string_storage": {
						"encoding": "bytes",
						"label": "string",
						"numberOfBytes": "32"
					},
					"t_struct(Product)53_storage": {
						"encoding": "inplace",
						"label": "struct Lending.Product",
						"members": [
							{
								"astId": 36,
								"contract": "Contracts/Lending.sol:Lending",
								"label": "id",
								"offset": 0,
								"slot": "0",
								"type": "t_uint256"
							},
							{
								"astId": 38,
								"contract": "Contracts/Lending.sol:Lending",
								"label": "userId",
								"offset": 0,
								"slot": "1",
								"type": "t_string_storage"
							},
							{
								"astId": 40,
								"contract": "Contracts/Lending.sol:Lending",
								"label": "lat",
								"offset": 0,
								"slot": "2",
								"type": "t_string_storage"
							},
							{
								"astId": 42,
								"contract": "Contracts/Lending.sol:Lending",
								"label": "lng",
								"offset": 0,
								"slot": "3",
								"type": "t_string_storage"
							},
							{
								"astId": 44,
								"contract": "Contracts/Lending.sol:Lending",
								"label": "name",
								"offset": 0,
								"slot": "4",
								"type": "t_string_storage"
							},
							{
								"astId": 46,
								"contract": "Contracts/Lending.sol:Lending",
								"label": "description",
								"offset": 0,
								"slot": "5",
								"type": "t_string_storage"
							},
							{
								"astId": 48,
								"contract": "Contracts/Lending.sol:Lending",
								"label": "prodValue",
								"offset": 0,
								"slot": "6",
								"type": "t_uint256"
							},
							{
								"astId": 50,
								"contract": "Contracts/Lending.sol:Lending",
								"label": "price",
								"offset": 0,
								"slot": "7",
								"type": "t_uint256"
							},
							{
								"astId": 52,
								"contract": "Contracts/Lending.sol:Lending",
								"label": "image",
								"offset": 0,
								"slot": "8",
								"type": "t_string_storage"
							}
						],
						"numberOfBytes": "288"
					},
					"t_struct(Rent)68_storage": {
						"encoding": "inplace",
						"label": "struct Lending.Rent",
						"members": [
							{
								"astId": 55,
								"contract": "Contracts/Lending.sol:Lending",
								"label": "id",
								"offset": 0,
								"slot": "0",
								"type": "t_uint256"
							},
							{
								"astId": 57,
								"contract": "Contracts/Lending.sol:Lending",
								"label": "productId",
								"offset": 0,
								"slot": "1",
								"type": "t_uint256"
							},
							{
								"astId": 59,
								"contract": "Contracts/Lending.sol:Lending",
								"label": "owner",
								"offset": 0,
								"slot": "2",
								"type": "t_string_storage"
							},
							{
								"astId": 61,
								"contract": "Contracts/Lending.sol:Lending",
								"label": "rentedBy",
								"offset": 0,
								"slot": "3",
								"type": "t_string_storage"
							},
							{
								"astId": 63,
								"contract": "Contracts/Lending.sol:Lending",
								"label": "isApproved",
								"offset": 0,
								"slot": "4",
								"type": "t_bool"
							},
							{
								"astId": 65,
								"contract": "Contracts/Lending.sol:Lending",
								"label": "isReturned",
								"offset": 1,
								"slot": "4",
								"type": "t_bool"
							},
							{
								"astId": 67,
								"contract": "Contracts/Lending.sol:Lending",
								"label": "incidence",
								"offset": 0,
								"slot": "5",
								"type": "t_string_storage"
							}
						],
						"numberOfBytes": "192"
					},
					"t_struct(User)34_storage": {
						"encoding": "inplace",
						"label": "struct Lending.User",
						"members": [
							{
								"astId": 17,
								"contract": "Contracts/Lending.sol:Lending",
								"label": "userId",
								"offset": 0,
								"slot": "0",
								"type": "t_string_storage"
							},
							{
								"astId": 19,
								"contract": "Contracts/Lending.sol:Lending",
								"label": "worldCoinId",
								"offset": 0,
								"slot": "1",
								"type": "t_string_storage"
							},
							{
								"astId": 21,
								"contract": "Contracts/Lending.sol:Lending",
								"label": "lensHandle",
								"offset": 0,
								"slot": "2",
								"type": "t_string_storage"
							},
							{
								"astId": 24,
								"contract": "Contracts/Lending.sol:Lending",
								"label": "wallets",
								"offset": 0,
								"slot": "3",
								"type": "t_array(t_string_storage)dyn_storage"
							},
							{
								"astId": 27,
								"contract": "Contracts/Lending.sol:Lending",
								"label": "products",
								"offset": 0,
								"slot": "4",
								"type": "t_array(t_uint256)dyn_storage"
							},
							{
								"astId": 30,
								"contract": "Contracts/Lending.sol:Lending",
								"label": "myLendings",
								"offset": 0,
								"slot": "5",
								"type": "t_array(t_uint256)dyn_storage"
							},
							{
								"astId": 33,
								"contract": "Contracts/Lending.sol:Lending",
								"label": "myBorrowings",
								"offset": 0,
								"slot": "6",
								"type": "t_array(t_uint256)dyn_storage"
							}
						],
						"numberOfBytes": "224"
					},
					"t_uint256": {
						"encoding": "inplace",
						"label": "uint256",
						"numberOfBytes": "32"
					}
				}
			},
			"userdoc": {
				"kind": "user",
				"methods": {},
				"version": 1
			}
		}
	}
}