{
	"Contracts/Lending.sol": {
		"Lending": {
			"abi": [
				{
					"inputs": [],
					"stateMutability": "nonpayable",
					"type": "constructor"
				},
				{
					"inputs": [
						{
							"internalType": "string",
							"name": "_lens",
							"type": "string"
						},
						{
							"internalType": "string",
							"name": "userId",
							"type": "string"
						}
					],
					"name": "assignLensToUser",
					"outputs": [],
					"stateMutability": "nonpayable",
					"type": "function"
				},
				{
					"inputs": [
						{
							"internalType": "string[]",
							"name": "_addresses",
							"type": "string[]"
						},
						{
							"internalType": "string",
							"name": "userId",
							"type": "string"
						}
					],
					"name": "assignWalletsToUser",
					"outputs": [],
					"stateMutability": "nonpayable",
					"type": "function"
				},
				{
					"inputs": [
						{
							"internalType": "string",
							"name": "WCID",
							"type": "string"
						},
						{
							"internalType": "string",
							"name": "userId",
							"type": "string"
						}
					],
					"name": "assignWorldCoinIdToUser",
					"outputs": [],
					"stateMutability": "nonpayable",
					"type": "function"
				},
				{
					"inputs": [
						{
							"internalType": "string",
							"name": "a",
							"type": "string"
						},
						{
							"internalType": "string",
							"name": "b",
							"type": "string"
						}
					],
					"name": "compareStrings",
					"outputs": [
						{
							"internalType": "bool",
							"name": "",
							"type": "bool"
						}
					],
					"stateMutability": "pure",
					"type": "function"
				},
				{
					"inputs": [
						{
							"internalType": "string",
							"name": "username",
							"type": "string"
						},
						{
							"internalType": "string[]",
							"name": "_addresses",
							"type": "string[]"
						}
					],
					"name": "createUserAccount",
					"outputs": [
						{
							"components": [
								{
									"internalType": "string",
									"name": "worldCoinId",
									"type": "string"
								},
								{
									"internalType": "string",
									"name": "lensHandle",
									"type": "string"
								},
								{
									"internalType": "string[]",
									"name": "wallets",
									"type": "string[]"
								},
								{
									"internalType": "uint256[]",
									"name": "products",
									"type": "uint256[]"
								}
							],
							"internalType": "struct Lending.User",
							"name": "",
							"type": "tuple"
						}
					],
					"stateMutability": "nonpayable",
					"type": "function"
				},
				{
					"inputs": [
						{
							"internalType": "string",
							"name": "key",
							"type": "string"
						},
						{
							"internalType": "string",
							"name": "variable",
							"type": "string"
						}
					],
					"name": "doesKeyExist",
					"outputs": [
						{
							"internalType": "bool",
							"name": "",
							"type": "bool"
						}
					],
					"stateMutability": "view",
					"type": "function"
				},
				{
					"inputs": [],
					"name": "getOwner",
					"outputs": [
						{
							"internalType": "address",
							"name": "",
							"type": "address"
						}
					],
					"stateMutability": "view",
					"type": "function"
				},
				{
					"inputs": [
						{
							"internalType": "string",
							"name": "userId",
							"type": "string"
						}
					],
					"name": "getUserById",
					"outputs": [
						{
							"components": [
								{
									"internalType": "string",
									"name": "worldCoinId",
									"type": "string"
								},
								{
									"internalType": "string",
									"name": "lensHandle",
									"type": "string"
								},
								{
									"internalType": "string[]",
									"name": "wallets",
									"type": "string[]"
								},
								{
									"internalType": "uint256[]",
									"name": "products",
									"type": "uint256[]"
								}
							],
							"internalType": "struct Lending.User",
							"name": "",
							"type": "tuple"
						}
					],
					"stateMutability": "view",
					"type": "function"
				},
				{
					"inputs": [
						{
							"internalType": "string",
							"name": "lens",
							"type": "string"
						}
					],
					"name": "getUserByLens",
					"outputs": [
						{
							"components": [
								{
									"internalType": "string",
									"name": "worldCoinId",
									"type": "string"
								},
								{
									"internalType": "string",
									"name": "lensHandle",
									"type": "string"
								},
								{
									"internalType": "string[]",
									"name": "wallets",
									"type": "string[]"
								},
								{
									"internalType": "uint256[]",
									"name": "products",
									"type": "uint256[]"
								}
							],
							"internalType": "struct Lending.User",
							"name": "",
							"type": "tuple"
						}
					],
					"stateMutability": "view",
					"type": "function"
				},
				{
					"inputs": [
						{
							"internalType": "string",
							"name": "addr",
							"type": "string"
						}
					],
					"name": "getUserByWallet",
					"outputs": [
						{
							"components": [
								{
									"internalType": "string",
									"name": "worldCoinId",
									"type": "string"
								},
								{
									"internalType": "string",
									"name": "lensHandle",
									"type": "string"
								},
								{
									"internalType": "string[]",
									"name": "wallets",
									"type": "string[]"
								},
								{
									"internalType": "uint256[]",
									"name": "products",
									"type": "uint256[]"
								}
							],
							"internalType": "struct Lending.User",
							"name": "",
							"type": "tuple"
						}
					],
					"stateMutability": "view",
					"type": "function"
				},
				{
					"inputs": [
						{
							"internalType": "string",
							"name": "WCID",
							"type": "string"
						}
					],
					"name": "getUserByWorldCoin",
					"outputs": [
						{
							"components": [
								{
									"internalType": "string",
									"name": "worldCoinId",
									"type": "string"
								},
								{
									"internalType": "string",
									"name": "lensHandle",
									"type": "string"
								},
								{
									"internalType": "string[]",
									"name": "wallets",
									"type": "string[]"
								},
								{
									"internalType": "uint256[]",
									"name": "products",
									"type": "uint256[]"
								}
							],
							"internalType": "struct Lending.User",
							"name": "",
							"type": "tuple"
						}
					],
					"stateMutability": "view",
					"type": "function"
				},
				{
					"inputs": [],
					"name": "makeRentRequest",
					"outputs": [],
					"stateMutability": "nonpayable",
					"type": "function"
				}
			],
			"devdoc": {
				"kind": "dev",
				"methods": {},
				"version": 1
			},
			"evm": {
				"assembly": "    /* \"Contracts/Lending.sol\":70:4449  contract Lending {... */\n  mstore(0x40, 0x80)\n    /* \"Contracts/Lending.sol\":1140:1189  constructor() {... */\n  callvalue\n  dup1\n  iszero\n  tag_1\n  jumpi\n  0x00\n  dup1\n  revert\ntag_1:\n  pop\n    /* \"Contracts/Lending.sol\":1172:1182  msg.sender */\n  caller\n    /* \"Contracts/Lending.sol\":1164:1169  owner */\n  0x00\n  dup1\n    /* \"Contracts/Lending.sol\":1164:1182  owner = msg.sender */\n  0x0100\n  exp\n  dup2\n  sload\n  dup2\n  0xffffffffffffffffffffffffffffffffffffffff\n  mul\n  not\n  and\n  swap1\n  dup4\n  0xffffffffffffffffffffffffffffffffffffffff\n  and\n  mul\n  or\n  swap1\n  sstore\n  pop\n    /* \"Contracts/Lending.sol\":70:4449  contract Lending {... */\n  dataSize(sub_0)\n  dup1\n  dataOffset(sub_0)\n  0x00\n  codecopy\n  0x00\n  return\nstop\n\nsub_0: assembly {\n        /* \"Contracts/Lending.sol\":70:4449  contract Lending {... */\n      mstore(0x40, 0x80)\n      callvalue\n      dup1\n      iszero\n      tag_1\n      jumpi\n      0x00\n      dup1\n      revert\n    tag_1:\n      pop\n      jumpi(tag_2, lt(calldatasize, 0x04))\n      shr(0xe0, calldataload(0x00))\n      dup1\n      0x893d20e8\n      gt\n      tag_15\n      jumpi\n      dup1\n      0x893d20e8\n      eq\n      tag_9\n      jumpi\n      dup1\n      0x8d5fa841\n      eq\n      tag_10\n      jumpi\n      dup1\n      0xbed34bba\n      eq\n      tag_11\n      jumpi\n      dup1\n      0xc77cfeeb\n      eq\n      tag_12\n      jumpi\n      dup1\n      0xd430e05a\n      eq\n      tag_13\n      jumpi\n      dup1\n      0xf70e1c5e\n      eq\n      tag_14\n      jumpi\n      jump(tag_2)\n    tag_15:\n      dup1\n      0x081396eb\n      eq\n      tag_3\n      jumpi\n      dup1\n      0x15c19c1d\n      eq\n      tag_4\n      jumpi\n      dup1\n      0x379f8fc2\n      eq\n      tag_5\n      jumpi\n      dup1\n      0x51f40dd6\n      eq\n      tag_6\n      jumpi\n      dup1\n      0x63c60bd5\n      eq\n      tag_7\n      jumpi\n      dup1\n      0x7198ed1a\n      eq\n      tag_8\n      jumpi\n    tag_2:\n      0x00\n      dup1\n      revert\n        /* \"Contracts/Lending.sol\":2727:2959  function assignLensToUser(string memory _lens, string memory userId) public {... */\n    tag_3:\n      tag_16\n      0x04\n      dup1\n      calldatasize\n      sub\n      dup2\n      add\n      swap1\n      tag_17\n      swap2\n      swap1\n      tag_18\n      jump\t// in\n    tag_17:\n      tag_19\n      jump\t// in\n    tag_16:\n      stop\n        /* \"Contracts/Lending.sol\":2965:3202  function assignWorldCoinIdToUser(string memory WCID, string memory userId) public {... */\n    tag_4:\n      tag_20\n      0x04\n      dup1\n      calldatasize\n      sub\n      dup2\n      add\n      swap1\n      tag_21\n      swap2\n      swap1\n      tag_18\n      jump\t// in\n    tag_21:\n      tag_22\n      jump\t// in\n    tag_20:\n      stop\n        /* \"Contracts/Lending.sol\":3671:3785  function getUserById(string memory userId) public view returns (User memory) {... */\n    tag_5:\n      tag_23\n      0x04\n      dup1\n      calldatasize\n      sub\n      dup2\n      add\n      swap1\n      tag_24\n      swap2\n      swap1\n      tag_25\n      jump\t// in\n    tag_24:\n      tag_26\n      jump\t// in\n    tag_23:\n      mload(0x40)\n      tag_27\n      swap2\n      swap1\n      tag_28\n      jump\t// in\n    tag_27:\n      mload(0x40)\n      dup1\n      swap2\n      sub\n      swap1\n      return\n        /* \"Contracts/Lending.sol\":3208:3664  function createUserAccount(string memory username, string[] memory _addresses) public returns (User memory) {... */\n    tag_6:\n      tag_29\n      0x04\n      dup1\n      calldatasize\n      sub\n      dup2\n      add\n      swap1\n      tag_30\n      swap2\n      swap1\n      tag_31\n      jump\t// in\n    tag_30:\n      tag_32\n      jump\t// in\n    tag_29:\n      mload(0x40)\n      tag_33\n      swap2\n      swap1\n      tag_28\n      jump\t// in\n    tag_33:\n      mload(0x40)\n      dup1\n      swap2\n      sub\n      swap1\n      return\n        /* \"Contracts/Lending.sol\":2349:2721  function assignWalletsToUser(string[] memory _addresses, string memory userId) public {... */\n    tag_7:\n      tag_34\n      0x04\n      dup1\n      calldatasize\n      sub\n      dup2\n      add\n      swap1\n      tag_35\n      swap2\n      swap1\n      tag_36\n      jump\t// in\n    tag_35:\n      tag_37\n      jump\t// in\n    tag_34:\n      stop\n        /* \"Contracts/Lending.sol\":4145:4311  function getUserByWallet(string memory addr) public view returns (User memory) {... */\n    tag_8:\n      tag_38\n      0x04\n      dup1\n      calldatasize\n      sub\n      dup2\n      add\n      swap1\n      tag_39\n      swap2\n      swap1\n      tag_25\n      jump\t// in\n    tag_39:\n      tag_40\n      jump\t// in\n    tag_38:\n      mload(0x40)\n      tag_41\n      swap2\n      swap1\n      tag_28\n      jump\t// in\n    tag_41:\n      mload(0x40)\n      dup1\n      swap2\n      sub\n      swap1\n      return\n        /* \"Contracts/Lending.sol\":4317:4398  function getOwner() external view returns (address) {... */\n    tag_9:\n      tag_42\n      tag_43\n      jump\t// in\n    tag_42:\n      mload(0x40)\n      tag_44\n      swap2\n      swap1\n      tag_45\n      jump\t// in\n    tag_44:\n      mload(0x40)\n      dup1\n      swap2\n      sub\n      swap1\n      return\n        /* \"Contracts/Lending.sol\":4404:4446  function makeRentRequest() public {... */\n    tag_10:\n      tag_46\n      tag_47\n      jump\t// in\n    tag_46:\n      stop\n        /* \"Contracts/Lending.sol\":1195:1591  function compareStrings(string memory a, string memory b) public pure returns (bool) {... */\n    tag_11:\n      tag_48\n      0x04\n      dup1\n      calldatasize\n      sub\n      dup2\n      add\n      swap1\n      tag_49\n      swap2\n      swap1\n      tag_18\n      jump\t// in\n    tag_49:\n      tag_50\n      jump\t// in\n    tag_48:\n      mload(0x40)\n      tag_51\n      swap2\n      swap1\n      tag_52\n      jump\t// in\n    tag_51:\n      mload(0x40)\n      dup1\n      swap2\n      sub\n      swap1\n      return\n        /* \"Contracts/Lending.sol\":3791:3959  function getUserByLens(string memory lens) public view returns (User memory) {... */\n    tag_12:\n      tag_53\n      0x04\n      dup1\n      calldatasize\n      sub\n      dup2\n      add\n      swap1\n      tag_54\n      swap2\n      swap1\n      tag_25\n      jump\t// in\n    tag_54:\n      tag_55\n      jump\t// in\n    tag_53:\n      mload(0x40)\n      tag_56\n      swap2\n      swap1\n      tag_28\n      jump\t// in\n    tag_56:\n      mload(0x40)\n      dup1\n      swap2\n      sub\n      swap1\n      return\n        /* \"Contracts/Lending.sol\":1653:2279  function doesKeyExist(string memory key, string memory variable) public view returns (bool) {... */\n    tag_13:\n      tag_57\n      0x04\n      dup1\n      calldatasize\n      sub\n      dup2\n      add\n      swap1\n      tag_58\n      swap2\n      swap1\n      tag_18\n      jump\t// in\n    tag_58:\n      tag_59\n      jump\t// in\n    tag_57:\n      mload(0x40)\n      tag_60\n      swap2\n      swap1\n      tag_52\n      jump\t// in\n    tag_60:\n      mload(0x40)\n      dup1\n      swap2\n      sub\n      swap1\n      return\n        /* \"Contracts/Lending.sol\":3965:4139  function getUserByWorldCoin(string memory WCID) public view returns (User memory) {... */\n    tag_14:\n      tag_61\n      0x04\n      dup1\n      calldatasize\n      sub\n      dup2\n      add\n      swap1\n      tag_62\n      swap2\n      swap1\n      tag_25\n      jump\t// in\n    tag_62:\n      tag_63\n      jump\t// in\n    tag_61:\n      mload(0x40)\n      tag_64\n      swap2\n      swap1\n      tag_28\n      jump\t// in\n    tag_64:\n      mload(0x40)\n      dup1\n      swap2\n      sub\n      swap1\n      return\n        /* \"Contracts/Lending.sol\":2727:2959  function assignLensToUser(string memory _lens, string memory userId) public {... */\n    tag_19:\n        /* \"Contracts/Lending.sol\":2818:2849  doesKeyExist(_lens, 'userLens') */\n      tag_66\n        /* \"Contracts/Lending.sol\":2831:2836  _lens */\n      dup3\n        /* \"Contracts/Lending.sol\":2818:2849  doesKeyExist(_lens, 'userLens') */\n      mload(0x40)\n      dup1\n      0x40\n      add\n      0x40\n      mstore\n      dup1\n      0x08\n      dup2\n      mstore\n      0x20\n      add\n      0x757365724c656e73000000000000000000000000000000000000000000000000\n      dup2\n      mstore\n      pop\n        /* \"Contracts/Lending.sol\":2818:2830  doesKeyExist */\n      tag_59\n        /* \"Contracts/Lending.sol\":2818:2849  doesKeyExist(_lens, 'userLens') */\n      jump\t// in\n    tag_66:\n        /* \"Contracts/Lending.sol\":2813:2953  if (!doesKeyExist(_lens, 'userLens')) {... */\n      tag_67\n      jumpi\n        /* \"Contracts/Lending.sol\":2890:2896  userId */\n      dup1\n        /* \"Contracts/Lending.sol\":2865:2880  UserLensHandles */\n      0x06\n        /* \"Contracts/Lending.sol\":2881:2886  _lens */\n      dup4\n        /* \"Contracts/Lending.sol\":2865:2887  UserLensHandles[_lens] */\n      mload(0x40)\n      tag_68\n      swap2\n      swap1\n      tag_69\n      jump\t// in\n    tag_68:\n      swap1\n      dup2\n      mstore\n      0x20\n      add\n      mload(0x40)\n      dup1\n      swap2\n      sub\n      swap1\n      keccak256\n        /* \"Contracts/Lending.sol\":2865:2896  UserLensHandles[_lens] = userId */\n      swap1\n      dup2\n      tag_70\n      swap2\n      swap1\n      tag_71\n      jump\t// in\n    tag_70:\n      pop\n        /* \"Contracts/Lending.sol\":2937:2942  _lens */\n      dup2\n        /* \"Contracts/Lending.sol\":2910:2915  Users */\n      0x02\n        /* \"Contracts/Lending.sol\":2916:2922  userId */\n      dup3\n        /* \"Contracts/Lending.sol\":2910:2923  Users[userId] */\n      mload(0x40)\n      tag_72\n      swap2\n      swap1\n      tag_69\n      jump\t// in\n    tag_72:\n      swap1\n      dup2\n      mstore\n      0x20\n      add\n      mload(0x40)\n      dup1\n      swap2\n      sub\n      swap1\n      keccak256\n        /* \"Contracts/Lending.sol\":2910:2934  Users[userId].lensHandle */\n      0x01\n      add\n        /* \"Contracts/Lending.sol\":2910:2942  Users[userId].lensHandle = _lens */\n      swap1\n      dup2\n      tag_73\n      swap2\n      swap1\n      tag_71\n      jump\t// in\n    tag_73:\n      pop\n        /* \"Contracts/Lending.sol\":2813:2953  if (!doesKeyExist(_lens, 'userLens')) {... */\n    tag_67:\n        /* \"Contracts/Lending.sol\":2727:2959  function assignLensToUser(string memory _lens, string memory userId) public {... */\n      pop\n      pop\n      jump\t// out\n        /* \"Contracts/Lending.sol\":2965:3202  function assignWorldCoinIdToUser(string memory WCID, string memory userId) public {... */\n    tag_22:\n        /* \"Contracts/Lending.sol\":3062:3092  doesKeyExist(WCID, 'userWCID') */\n      tag_75\n        /* \"Contracts/Lending.sol\":3075:3079  WCID */\n      dup3\n        /* \"Contracts/Lending.sol\":3062:3092  doesKeyExist(WCID, 'userWCID') */\n      mload(0x40)\n      dup1\n      0x40\n      add\n      0x40\n      mstore\n      dup1\n      0x08\n      dup2\n      mstore\n      0x20\n      add\n      0x7573657257434944000000000000000000000000000000000000000000000000\n      dup2\n      mstore\n      pop\n        /* \"Contracts/Lending.sol\":3062:3074  doesKeyExist */\n      tag_59\n        /* \"Contracts/Lending.sol\":3062:3092  doesKeyExist(WCID, 'userWCID') */\n      jump\t// in\n    tag_75:\n        /* \"Contracts/Lending.sol\":3057:3196  if (!doesKeyExist(WCID, 'userWCID')) {... */\n      tag_76\n      jumpi\n        /* \"Contracts/Lending.sol\":3133:3139  userId */\n      dup1\n        /* \"Contracts/Lending.sol\":3108:3124  UserWorldCoinIds */\n      0x04\n        /* \"Contracts/Lending.sol\":3125:3129  WCID */\n      dup4\n        /* \"Contracts/Lending.sol\":3108:3130  UserWorldCoinIds[WCID] */\n      mload(0x40)\n      tag_77\n      swap2\n      swap1\n      tag_69\n      jump\t// in\n    tag_77:\n      swap1\n      dup2\n      mstore\n      0x20\n      add\n      mload(0x40)\n      dup1\n      swap2\n      sub\n      swap1\n      keccak256\n        /* \"Contracts/Lending.sol\":3108:3139  UserWorldCoinIds[WCID] = userId */\n      swap1\n      dup2\n      tag_78\n      swap2\n      swap1\n      tag_71\n      jump\t// in\n    tag_78:\n      pop\n        /* \"Contracts/Lending.sol\":3181:3185  WCID */\n      dup2\n        /* \"Contracts/Lending.sol\":3153:3158  Users */\n      0x02\n        /* \"Contracts/Lending.sol\":3159:3165  userId */\n      dup3\n        /* \"Contracts/Lending.sol\":3153:3166  Users[userId] */\n      mload(0x40)\n      tag_79\n      swap2\n      swap1\n      tag_69\n      jump\t// in\n    tag_79:\n      swap1\n      dup2\n      mstore\n      0x20\n      add\n      mload(0x40)\n      dup1\n      swap2\n      sub\n      swap1\n      keccak256\n        /* \"Contracts/Lending.sol\":3153:3178  Users[userId].worldCoinId */\n      0x00\n      add\n        /* \"Contracts/Lending.sol\":3153:3185  Users[userId].worldCoinId = WCID */\n      swap1\n      dup2\n      tag_80\n      swap2\n      swap1\n      tag_71\n      jump\t// in\n    tag_80:\n      pop\n        /* \"Contracts/Lending.sol\":3057:3196  if (!doesKeyExist(WCID, 'userWCID')) {... */\n    tag_76:\n        /* \"Contracts/Lending.sol\":2965:3202  function assignWorldCoinIdToUser(string memory WCID, string memory userId) public {... */\n      pop\n      pop\n      jump\t// out\n        /* \"Contracts/Lending.sol\":3671:3785  function getUserById(string memory userId) public view returns (User memory) {... */\n    tag_26:\n        /* \"Contracts/Lending.sol\":3735:3746  User memory */\n      tag_81\n      tag_82\n      jump\t// in\n    tag_81:\n        /* \"Contracts/Lending.sol\":3765:3770  Users */\n      0x02\n        /* \"Contracts/Lending.sol\":3771:3777  userId */\n      dup3\n        /* \"Contracts/Lending.sol\":3765:3778  Users[userId] */\n      mload(0x40)\n      tag_84\n      swap2\n      swap1\n      tag_69\n      jump\t// in\n    tag_84:\n      swap1\n      dup2\n      mstore\n      0x20\n      add\n      mload(0x40)\n      dup1\n      swap2\n      sub\n      swap1\n      keccak256\n        /* \"Contracts/Lending.sol\":3758:3778  return Users[userId] */\n      mload(0x40)\n      dup1\n      0x80\n      add\n      0x40\n      mstore\n      swap1\n      dup2\n      0x00\n      dup3\n      add\n      dup1\n      sload\n      tag_85\n      swap1\n      tag_86\n      jump\t// in\n    tag_85:\n      dup1\n      0x1f\n      add\n      0x20\n      dup1\n      swap2\n      div\n      mul\n      0x20\n      add\n      mload(0x40)\n      swap1\n      dup2\n      add\n      0x40\n      mstore\n      dup1\n      swap3\n      swap2\n      swap1\n      dup2\n      dup2\n      mstore\n      0x20\n      add\n      dup3\n      dup1\n      sload\n      tag_87\n      swap1\n      tag_86\n      jump\t// in\n    tag_87:\n      dup1\n      iszero\n      tag_88\n      jumpi\n      dup1\n      0x1f\n      lt\n      tag_89\n      jumpi\n      0x0100\n      dup1\n      dup4\n      sload\n      div\n      mul\n      dup4\n      mstore\n      swap2\n      0x20\n      add\n      swap2\n      jump(tag_88)\n    tag_89:\n      dup3\n      add\n      swap2\n      swap1\n      0x00\n      mstore\n      keccak256(0x00, 0x20)\n      swap1\n    tag_90:\n      dup2\n      sload\n      dup2\n      mstore\n      swap1\n      0x01\n      add\n      swap1\n      0x20\n      add\n      dup1\n      dup4\n      gt\n      tag_90\n      jumpi\n      dup3\n      swap1\n      sub\n      0x1f\n      and\n      dup3\n      add\n      swap2\n    tag_88:\n      pop\n      pop\n      pop\n      pop\n      pop\n      dup2\n      mstore\n      0x20\n      add\n      0x01\n      dup3\n      add\n      dup1\n      sload\n      tag_91\n      swap1\n      tag_86\n      jump\t// in\n    tag_91:\n      dup1\n      0x1f\n      add\n      0x20\n      dup1\n      swap2\n      div\n      mul\n      0x20\n      add\n      mload(0x40)\n      swap1\n      dup2\n      add\n      0x40\n      mstore\n      dup1\n      swap3\n      swap2\n      swap1\n      dup2\n      dup2\n      mstore\n      0x20\n      add\n      dup3\n      dup1\n      sload\n      tag_92\n      swap1\n      tag_86\n      jump\t// in\n    tag_92:\n      dup1\n      iszero\n      tag_93\n      jumpi\n      dup1\n      0x1f\n      lt\n      tag_94\n      jumpi\n      0x0100\n      dup1\n      dup4\n      sload\n      div\n      mul\n      dup4\n      mstore\n      swap2\n      0x20\n      add\n      swap2\n      jump(tag_93)\n    tag_94:\n      dup3\n      add\n      swap2\n      swap1\n      0x00\n      mstore\n      keccak256(0x00, 0x20)\n      swap1\n    tag_95:\n      dup2\n      sload\n      dup2\n      mstore\n      swap1\n      0x01\n      add\n      swap1\n      0x20\n      add\n      dup1\n      dup4\n      gt\n      tag_95\n      jumpi\n      dup3\n      swap1\n      sub\n      0x1f\n      and\n      dup3\n      add\n      swap2\n    tag_93:\n      pop\n      pop\n      pop\n      pop\n      pop\n      dup2\n      mstore\n      0x20\n      add\n      0x02\n      dup3\n      add\n      dup1\n      sload\n      dup1\n      0x20\n      mul\n      0x20\n      add\n      mload(0x40)\n      swap1\n      dup2\n      add\n      0x40\n      mstore\n      dup1\n      swap3\n      swap2\n      swap1\n      dup2\n      dup2\n      mstore\n      0x20\n      add\n      0x00\n      swap1\n    tag_96:\n      dup3\n      dup3\n      lt\n      iszero\n      tag_97\n      jumpi\n      dup4\n      dup3\n      swap1\n      0x00\n      mstore\n      keccak256(0x00, 0x20)\n      add\n      dup1\n      sload\n      tag_99\n      swap1\n      tag_86\n      jump\t// in\n    tag_99:\n      dup1\n      0x1f\n      add\n      0x20\n      dup1\n      swap2\n      div\n      mul\n      0x20\n      add\n      mload(0x40)\n      swap1\n      dup2\n      add\n      0x40\n      mstore\n      dup1\n      swap3\n      swap2\n      swap1\n      dup2\n      dup2\n      mstore\n      0x20\n      add\n      dup3\n      dup1\n      sload\n      tag_100\n      swap1\n      tag_86\n      jump\t// in\n    tag_100:\n      dup1\n      iszero\n      tag_101\n      jumpi\n      dup1\n      0x1f\n      lt\n      tag_102\n      jumpi\n      0x0100\n      dup1\n      dup4\n      sload\n      div\n      mul\n      dup4\n      mstore\n      swap2\n      0x20\n      add\n      swap2\n      jump(tag_101)\n    tag_102:\n      dup3\n      add\n      swap2\n      swap1\n      0x00\n      mstore\n      keccak256(0x00, 0x20)\n      swap1\n    tag_103:\n      dup2\n      sload\n      dup2\n      mstore\n      swap1\n      0x01\n      add\n      swap1\n      0x20\n      add\n      dup1\n      dup4\n      gt\n      tag_103\n      jumpi\n      dup3\n      swap1\n      sub\n      0x1f\n      and\n      dup3\n      add\n      swap2\n    tag_101:\n      pop\n      pop\n      pop\n      pop\n      pop\n      dup2\n      mstore\n      0x20\n      add\n      swap1\n      0x01\n      add\n      swap1\n      jump(tag_96)\n    tag_97:\n      pop\n      pop\n      pop\n      pop\n      dup2\n      mstore\n      0x20\n      add\n      0x03\n      dup3\n      add\n      dup1\n      sload\n      dup1\n      0x20\n      mul\n      0x20\n      add\n      mload(0x40)\n      swap1\n      dup2\n      add\n      0x40\n      mstore\n      dup1\n      swap3\n      swap2\n      swap1\n      dup2\n      dup2\n      mstore\n      0x20\n      add\n      dup3\n      dup1\n      sload\n      dup1\n      iszero\n      tag_104\n      jumpi\n      0x20\n      mul\n      dup3\n      add\n      swap2\n      swap1\n      0x00\n      mstore\n      keccak256(0x00, 0x20)\n      swap1\n    tag_105:\n      dup2\n      sload\n      dup2\n      mstore\n      0x20\n      add\n      swap1\n      0x01\n      add\n      swap1\n      dup1\n      dup4\n      gt\n      tag_105\n      jumpi\n    tag_104:\n      pop\n      pop\n      pop\n      pop\n      pop\n      dup2\n      mstore\n      pop\n      pop\n      swap1\n      pop\n        /* \"Contracts/Lending.sol\":3671:3785  function getUserById(string memory userId) public view returns (User memory) {... */\n      swap2\n      swap1\n      pop\n      jump\t// out\n        /* \"Contracts/Lending.sol\":3208:3664  function createUserAccount(string memory username, string[] memory _addresses) public returns (User memory) {... */\n    tag_32:\n        /* \"Contracts/Lending.sol\":3303:3314  User memory */\n      tag_106\n      tag_82\n      jump\t// in\n    tag_106:\n        /* \"Contracts/Lending.sol\":3326:3348  uint[] memory products */\n      0x60\n        /* \"Contracts/Lending.sol\":3424:3458  User('', '', _addresses, products) */\n      mload(0x40)\n      dup1\n      0x80\n      add\n      0x40\n      mstore\n      dup1\n      mload(0x40)\n      dup1\n      0x20\n      add\n      0x40\n      mstore\n      dup1\n      0x00\n      dup2\n      mstore\n      pop\n      dup2\n      mstore\n      0x20\n      add\n      mload(0x40)\n      dup1\n      0x20\n      add\n      0x40\n      mstore\n      dup1\n      0x00\n      dup2\n      mstore\n      pop\n      dup2\n      mstore\n      0x20\n      add\n        /* \"Contracts/Lending.sol\":3437:3447  _addresses */\n      dup5\n        /* \"Contracts/Lending.sol\":3424:3458  User('', '', _addresses, products) */\n      dup2\n      mstore\n      0x20\n      add\n        /* \"Contracts/Lending.sol\":3449:3457  products */\n      dup3\n        /* \"Contracts/Lending.sol\":3424:3458  User('', '', _addresses, products) */\n      dup2\n      mstore\n      pop\n        /* \"Contracts/Lending.sol\":3406:3411  Users */\n      0x02\n        /* \"Contracts/Lending.sol\":3412:3420  username */\n      dup6\n        /* \"Contracts/Lending.sol\":3406:3421  Users[username] */\n      mload(0x40)\n      tag_108\n      swap2\n      swap1\n      tag_69\n      jump\t// in\n    tag_108:\n      swap1\n      dup2\n      mstore\n      0x20\n      add\n      mload(0x40)\n      dup1\n      swap2\n      sub\n      swap1\n      keccak256\n        /* \"Contracts/Lending.sol\":3406:3458  Users[username] = User('', '', _addresses, products) */\n      0x00\n      dup3\n      add\n      mload\n      dup2\n      0x00\n      add\n      swap1\n      dup2\n      tag_109\n      swap2\n      swap1\n      tag_71\n      jump\t// in\n    tag_109:\n      pop\n      0x20\n      dup3\n      add\n      mload\n      dup2\n      0x01\n      add\n      swap1\n      dup2\n      tag_110\n      swap2\n      swap1\n      tag_71\n      jump\t// in\n    tag_110:\n      pop\n      0x40\n      dup3\n      add\n      mload\n      dup2\n      0x02\n      add\n      swap1\n      dup1\n      mload\n      swap1\n      0x20\n      add\n      swap1\n      tag_111\n      swap3\n      swap2\n      swap1\n      tag_112\n      jump\t// in\n    tag_111:\n      pop\n      0x60\n      dup3\n      add\n      mload\n      dup2\n      0x03\n      add\n      swap1\n      dup1\n      mload\n      swap1\n      0x20\n      add\n      swap1\n      tag_113\n      swap3\n      swap2\n      swap1\n      tag_114\n      jump\t// in\n    tag_113:\n      pop\n      swap1\n      pop\n      pop\n        /* \"Contracts/Lending.sol\":3537:3578  assignWalletsToUser(_addresses, username) */\n      tag_115\n        /* \"Contracts/Lending.sol\":3557:3567  _addresses */\n      dup4\n        /* \"Contracts/Lending.sol\":3569:3577  username */\n      dup6\n        /* \"Contracts/Lending.sol\":3537:3556  assignWalletsToUser */\n      tag_37\n        /* \"Contracts/Lending.sol\":3537:3578  assignWalletsToUser(_addresses, username) */\n      jump\t// in\n    tag_115:\n        /* \"Contracts/Lending.sol\":3642:3647  Users */\n      0x02\n        /* \"Contracts/Lending.sol\":3648:3656  username */\n      dup5\n        /* \"Contracts/Lending.sol\":3642:3657  Users[username] */\n      mload(0x40)\n      tag_116\n      swap2\n      swap1\n      tag_69\n      jump\t// in\n    tag_116:\n      swap1\n      dup2\n      mstore\n      0x20\n      add\n      mload(0x40)\n      dup1\n      swap2\n      sub\n      swap1\n      keccak256\n        /* \"Contracts/Lending.sol\":3635:3657  return Users[username] */\n      mload(0x40)\n      dup1\n      0x80\n      add\n      0x40\n      mstore\n      swap1\n      dup2\n      0x00\n      dup3\n      add\n      dup1\n      sload\n      tag_117\n      swap1\n      tag_86\n      jump\t// in\n    tag_117:\n      dup1\n      0x1f\n      add\n      0x20\n      dup1\n      swap2\n      div\n      mul\n      0x20\n      add\n      mload(0x40)\n      swap1\n      dup2\n      add\n      0x40\n      mstore\n      dup1\n      swap3\n      swap2\n      swap1\n      dup2\n      dup2\n      mstore\n      0x20\n      add\n      dup3\n      dup1\n      sload\n      tag_118\n      swap1\n      tag_86\n      jump\t// in\n    tag_118:\n      dup1\n      iszero\n      tag_119\n      jumpi\n      dup1\n      0x1f\n      lt\n      tag_120\n      jumpi\n      0x0100\n      dup1\n      dup4\n      sload\n      div\n      mul\n      dup4\n      mstore\n      swap2\n      0x20\n      add\n      swap2\n      jump(tag_119)\n    tag_120:\n      dup3\n      add\n      swap2\n      swap1\n      0x00\n      mstore\n      keccak256(0x00, 0x20)\n      swap1\n    tag_121:\n      dup2\n      sload\n      dup2\n      mstore\n      swap1\n      0x01\n      add\n      swap1\n      0x20\n      add\n      dup1\n      dup4\n      gt\n      tag_121\n      jumpi\n      dup3\n      swap1\n      sub\n      0x1f\n      and\n      dup3\n      add\n      swap2\n    tag_119:\n      pop\n      pop\n      pop\n      pop\n      pop\n      dup2\n      mstore\n      0x20\n      add\n      0x01\n      dup3\n      add\n      dup1\n      sload\n      tag_122\n      swap1\n      tag_86\n      jump\t// in\n    tag_122:\n      dup1\n      0x1f\n      add\n      0x20\n      dup1\n      swap2\n      div\n      mul\n      0x20\n      add\n      mload(0x40)\n      swap1\n      dup2\n      add\n      0x40\n      mstore\n      dup1\n      swap3\n      swap2\n      swap1\n      dup2\n      dup2\n      mstore\n      0x20\n      add\n      dup3\n      dup1\n      sload\n      tag_123\n      swap1\n      tag_86\n      jump\t// in\n    tag_123:\n      dup1\n      iszero\n      tag_124\n      jumpi\n      dup1\n      0x1f\n      lt\n      tag_125\n      jumpi\n      0x0100\n      dup1\n      dup4\n      sload\n      div\n      mul\n      dup4\n      mstore\n      swap2\n      0x20\n      add\n      swap2\n      jump(tag_124)\n    tag_125:\n      dup3\n      add\n      swap2\n      swap1\n      0x00\n      mstore\n      keccak256(0x00, 0x20)\n      swap1\n    tag_126:\n      dup2\n      sload\n      dup2\n      mstore\n      swap1\n      0x01\n      add\n      swap1\n      0x20\n      add\n      dup1\n      dup4\n      gt\n      tag_126\n      jumpi\n      dup3\n      swap1\n      sub\n      0x1f\n      and\n      dup3\n      add\n      swap2\n    tag_124:\n      pop\n      pop\n      pop\n      pop\n      pop\n      dup2\n      mstore\n      0x20\n      add\n      0x02\n      dup3\n      add\n      dup1\n      sload\n      dup1\n      0x20\n      mul\n      0x20\n      add\n      mload(0x40)\n      swap1\n      dup2\n      add\n      0x40\n      mstore\n      dup1\n      swap3\n      swap2\n      swap1\n      dup2\n      dup2\n      mstore\n      0x20\n      add\n      0x00\n      swap1\n    tag_127:\n      dup3\n      dup3\n      lt\n      iszero\n      tag_128\n      jumpi\n      dup4\n      dup3\n      swap1\n      0x00\n      mstore\n      keccak256(0x00, 0x20)\n      add\n      dup1\n      sload\n      tag_130\n      swap1\n      tag_86\n      jump\t// in\n    tag_130:\n      dup1\n      0x1f\n      add\n      0x20\n      dup1\n      swap2\n      div\n      mul\n      0x20\n      add\n      mload(0x40)\n      swap1\n      dup2\n      add\n      0x40\n      mstore\n      dup1\n      swap3\n      swap2\n      swap1\n      dup2\n      dup2\n      mstore\n      0x20\n      add\n      dup3\n      dup1\n      sload\n      tag_131\n      swap1\n      tag_86\n      jump\t// in\n    tag_131:\n      dup1\n      iszero\n      tag_132\n      jumpi\n      dup1\n      0x1f\n      lt\n      tag_133\n      jumpi\n      0x0100\n      dup1\n      dup4\n      sload\n      div\n      mul\n      dup4\n      mstore\n      swap2\n      0x20\n      add\n      swap2\n      jump(tag_132)\n    tag_133:\n      dup3\n      add\n      swap2\n      swap1\n      0x00\n      mstore\n      keccak256(0x00, 0x20)\n      swap1\n    tag_134:\n      dup2\n      sload\n      dup2\n      mstore\n      swap1\n      0x01\n      add\n      swap1\n      0x20\n      add\n      dup1\n      dup4\n      gt\n      tag_134\n      jumpi\n      dup3\n      swap1\n      sub\n      0x1f\n      and\n      dup3\n      add\n      swap2\n    tag_132:\n      pop\n      pop\n      pop\n      pop\n      pop\n      dup2\n      mstore\n      0x20\n      add\n      swap1\n      0x01\n      add\n      swap1\n      jump(tag_127)\n    tag_128:\n      pop\n      pop\n      pop\n      pop\n      dup2\n      mstore\n      0x20\n      add\n      0x03\n      dup3\n      add\n      dup1\n      sload\n      dup1\n      0x20\n      mul\n      0x20\n      add\n      mload(0x40)\n      swap1\n      dup2\n      add\n      0x40\n      mstore\n      dup1\n      swap3\n      swap2\n      swap1\n      dup2\n      dup2\n      mstore\n      0x20\n      add\n      dup3\n      dup1\n      sload\n      dup1\n      iszero\n      tag_135\n      jumpi\n      0x20\n      mul\n      dup3\n      add\n      swap2\n      swap1\n      0x00\n      mstore\n      keccak256(0x00, 0x20)\n      swap1\n    tag_136:\n      dup2\n      sload\n      dup2\n      mstore\n      0x20\n      add\n      swap1\n      0x01\n      add\n      swap1\n      dup1\n      dup4\n      gt\n      tag_136\n      jumpi\n    tag_135:\n      pop\n      pop\n      pop\n      pop\n      pop\n      dup2\n      mstore\n      pop\n      pop\n      swap2\n      pop\n      pop\n        /* \"Contracts/Lending.sol\":3208:3664  function createUserAccount(string memory username, string[] memory _addresses) public returns (User memory) {... */\n      swap3\n      swap2\n      pop\n      pop\n      jump\t// out\n        /* \"Contracts/Lending.sol\":2349:2721  function assignWalletsToUser(string[] memory _addresses, string memory userId) public {... */\n    tag_37:\n        /* \"Contracts/Lending.sol\":2449:2455  uint i */\n      0x00\n        /* \"Contracts/Lending.sol\":2445:2715  for(uint i=0; i< _addresses.length; i++) {... */\n    tag_138:\n        /* \"Contracts/Lending.sol\":2462:2472  _addresses */\n      dup3\n        /* \"Contracts/Lending.sol\":2462:2479  _addresses.length */\n      mload\n        /* \"Contracts/Lending.sol\":2459:2460  i */\n      dup2\n        /* \"Contracts/Lending.sol\":2459:2479  i< _addresses.length */\n      lt\n        /* \"Contracts/Lending.sol\":2445:2715  for(uint i=0; i< _addresses.length; i++) {... */\n      iszero\n      tag_139\n      jumpi\n        /* \"Contracts/Lending.sol\":2500:2520  string memory wallet */\n      0x00\n        /* \"Contracts/Lending.sol\":2523:2533  _addresses */\n      dup4\n        /* \"Contracts/Lending.sol\":2534:2535  i */\n      dup3\n        /* \"Contracts/Lending.sol\":2523:2536  _addresses[i] */\n      dup2\n      mload\n      dup2\n      lt\n      tag_141\n      jumpi\n      tag_142\n      tag_143\n      jump\t// in\n    tag_142:\n    tag_141:\n      0x20\n      mul\n      0x20\n      add\n      add\n      mload\n        /* \"Contracts/Lending.sol\":2500:2536  string memory wallet = _addresses[i] */\n      swap1\n      pop\n        /* \"Contracts/Lending.sol\":2555:2590  doesKeyExist(wallet, 'userWallets') */\n      tag_144\n        /* \"Contracts/Lending.sol\":2568:2574  wallet */\n      dup2\n        /* \"Contracts/Lending.sol\":2555:2590  doesKeyExist(wallet, 'userWallets') */\n      mload(0x40)\n      dup1\n      0x40\n      add\n      0x40\n      mstore\n      dup1\n      0x0b\n      dup2\n      mstore\n      0x20\n      add\n      0x7573657257616c6c657473000000000000000000000000000000000000000000\n      dup2\n      mstore\n      pop\n        /* \"Contracts/Lending.sol\":2555:2567  doesKeyExist */\n      tag_59\n        /* \"Contracts/Lending.sol\":2555:2590  doesKeyExist(wallet, 'userWallets') */\n      jump\t// in\n    tag_144:\n        /* \"Contracts/Lending.sol\":2550:2705  if (!doesKeyExist(wallet, 'userWallets')) {... */\n      tag_145\n      jumpi\n        /* \"Contracts/Lending.sol\":2632:2638  userId */\n      dup3\n        /* \"Contracts/Lending.sol\":2610:2621  UserWallets */\n      0x05\n        /* \"Contracts/Lending.sol\":2622:2628  wallet */\n      dup3\n        /* \"Contracts/Lending.sol\":2610:2629  UserWallets[wallet] */\n      mload(0x40)\n      tag_146\n      swap2\n      swap1\n      tag_69\n      jump\t// in\n    tag_146:\n      swap1\n      dup2\n      mstore\n      0x20\n      add\n      mload(0x40)\n      dup1\n      swap2\n      sub\n      swap1\n      keccak256\n        /* \"Contracts/Lending.sol\":2610:2638  UserWallets[wallet] = userId */\n      swap1\n      dup2\n      tag_147\n      swap2\n      swap1\n      tag_71\n      jump\t// in\n    tag_147:\n      pop\n        /* \"Contracts/Lending.sol\":2656:2661  Users */\n      0x02\n        /* \"Contracts/Lending.sol\":2662:2668  userId */\n      dup4\n        /* \"Contracts/Lending.sol\":2656:2669  Users[userId] */\n      mload(0x40)\n      tag_148\n      swap2\n      swap1\n      tag_69\n      jump\t// in\n    tag_148:\n      swap1\n      dup2\n      mstore\n      0x20\n      add\n      mload(0x40)\n      dup1\n      swap2\n      sub\n      swap1\n      keccak256\n        /* \"Contracts/Lending.sol\":2656:2677  Users[userId].wallets */\n      0x02\n      add\n        /* \"Contracts/Lending.sol\":2683:2689  wallet */\n      dup2\n        /* \"Contracts/Lending.sol\":2656:2690  Users[userId].wallets.push(wallet) */\n      swap1\n      dup1\n      0x01\n      dup2\n      sload\n      add\n      dup1\n      dup3\n      sstore\n      dup1\n      swap2\n      pop\n      pop\n      0x01\n      swap1\n      sub\n      swap1\n      0x00\n      mstore\n      keccak256(0x00, 0x20)\n      add\n      0x00\n      swap1\n      swap2\n      swap1\n      swap2\n      swap1\n      swap2\n      pop\n      swap1\n      dup2\n      tag_150\n      swap2\n      swap1\n      tag_71\n      jump\t// in\n    tag_150:\n      pop\n        /* \"Contracts/Lending.sol\":2550:2705  if (!doesKeyExist(wallet, 'userWallets')) {... */\n    tag_145:\n        /* \"Contracts/Lending.sol\":2486:2715  {... */\n      pop\n        /* \"Contracts/Lending.sol\":2481:2484  i++ */\n      dup1\n      dup1\n      tag_151\n      swap1\n      tag_152\n      jump\t// in\n    tag_151:\n      swap2\n      pop\n      pop\n        /* \"Contracts/Lending.sol\":2445:2715  for(uint i=0; i< _addresses.length; i++) {... */\n      jump(tag_138)\n    tag_139:\n      pop\n        /* \"Contracts/Lending.sol\":2349:2721  function assignWalletsToUser(string[] memory _addresses, string memory userId) public {... */\n      pop\n      pop\n      jump\t// out\n        /* \"Contracts/Lending.sol\":4145:4311  function getUserByWallet(string memory addr) public view returns (User memory) {... */\n    tag_40:\n        /* \"Contracts/Lending.sol\":4211:4222  User memory */\n      tag_153\n      tag_82\n      jump\t// in\n    tag_153:\n        /* \"Contracts/Lending.sol\":4234:4254  string memory userId */\n      0x00\n        /* \"Contracts/Lending.sol\":4257:4268  UserWallets */\n      0x05\n        /* \"Contracts/Lending.sol\":4269:4273  addr */\n      dup4\n        /* \"Contracts/Lending.sol\":4257:4274  UserWallets[addr] */\n      mload(0x40)\n      tag_155\n      swap2\n      swap1\n      tag_69\n      jump\t// in\n    tag_155:\n      swap1\n      dup2\n      mstore\n      0x20\n      add\n      mload(0x40)\n      dup1\n      swap2\n      sub\n      swap1\n      keccak256\n        /* \"Contracts/Lending.sol\":4234:4274  string memory userId = UserWallets[addr] */\n      dup1\n      sload\n      tag_156\n      swap1\n      tag_86\n      jump\t// in\n    tag_156:\n      dup1\n      0x1f\n      add\n      0x20\n      dup1\n      swap2\n      div\n      mul\n      0x20\n      add\n      mload(0x40)\n      swap1\n      dup2\n      add\n      0x40\n      mstore\n      dup1\n      swap3\n      swap2\n      swap1\n      dup2\n      dup2\n      mstore\n      0x20\n      add\n      dup3\n      dup1\n      sload\n      tag_157\n      swap1\n      tag_86\n      jump\t// in\n    tag_157:\n      dup1\n      iszero\n      tag_158\n      jumpi\n      dup1\n      0x1f\n      lt\n      tag_159\n      jumpi\n      0x0100\n      dup1\n      dup4\n      sload\n      div\n      mul\n      dup4\n      mstore\n      swap2\n      0x20\n      add\n      swap2\n      jump(tag_158)\n    tag_159:\n      dup3\n      add\n      swap2\n      swap1\n      0x00\n      mstore\n      keccak256(0x00, 0x20)\n      swap1\n    tag_160:\n      dup2\n      sload\n      dup2\n      mstore\n      swap1\n      0x01\n      add\n      swap1\n      0x20\n      add\n      dup1\n      dup4\n      gt\n      tag_160\n      jumpi\n      dup3\n      swap1\n      sub\n      0x1f\n      and\n      dup3\n      add\n      swap2\n    tag_158:\n      pop\n      pop\n      pop\n      pop\n      pop\n      swap1\n      pop\n        /* \"Contracts/Lending.sol\":4291:4296  Users */\n      0x02\n        /* \"Contracts/Lending.sol\":4297:4303  userId */\n      dup2\n        /* \"Contracts/Lending.sol\":4291:4304  Users[userId] */\n      mload(0x40)\n      tag_161\n      swap2\n      swap1\n      tag_69\n      jump\t// in\n    tag_161:\n      swap1\n      dup2\n      mstore\n      0x20\n      add\n      mload(0x40)\n      dup1\n      swap2\n      sub\n      swap1\n      keccak256\n        /* \"Contracts/Lending.sol\":4284:4304  return Users[userId] */\n      mload(0x40)\n      dup1\n      0x80\n      add\n      0x40\n      mstore\n      swap1\n      dup2\n      0x00\n      dup3\n      add\n      dup1\n      sload\n      tag_162\n      swap1\n      tag_86\n      jump\t// in\n    tag_162:\n      dup1\n      0x1f\n      add\n      0x20\n      dup1\n      swap2\n      div\n      mul\n      0x20\n      add\n      mload(0x40)\n      swap1\n      dup2\n      add\n      0x40\n      mstore\n      dup1\n      swap3\n      swap2\n      swap1\n      dup2\n      dup2\n      mstore\n      0x20\n      add\n      dup3\n      dup1\n      sload\n      tag_163\n      swap1\n      tag_86\n      jump\t// in\n    tag_163:\n      dup1\n      iszero\n      tag_164\n      jumpi\n      dup1\n      0x1f\n      lt\n      tag_165\n      jumpi\n      0x0100\n      dup1\n      dup4\n      sload\n      div\n      mul\n      dup4\n      mstore\n      swap2\n      0x20\n      add\n      swap2\n      jump(tag_164)\n    tag_165:\n      dup3\n      add\n      swap2\n      swap1\n      0x00\n      mstore\n      keccak256(0x00, 0x20)\n      swap1\n    tag_166:\n      dup2\n      sload\n      dup2\n      mstore\n      swap1\n      0x01\n      add\n      swap1\n      0x20\n      add\n      dup1\n      dup4\n      gt\n      tag_166\n      jumpi\n      dup3\n      swap1\n      sub\n      0x1f\n      and\n      dup3\n      add\n      swap2\n    tag_164:\n      pop\n      pop\n      pop\n      pop\n      pop\n      dup2\n      mstore\n      0x20\n      add\n      0x01\n      dup3\n      add\n      dup1\n      sload\n      tag_167\n      swap1\n      tag_86\n      jump\t// in\n    tag_167:\n      dup1\n      0x1f\n      add\n      0x20\n      dup1\n      swap2\n      div\n      mul\n      0x20\n      add\n      mload(0x40)\n      swap1\n      dup2\n      add\n      0x40\n      mstore\n      dup1\n      swap3\n      swap2\n      swap1\n      dup2\n      dup2\n      mstore\n      0x20\n      add\n      dup3\n      dup1\n      sload\n      tag_168\n      swap1\n      tag_86\n      jump\t// in\n    tag_168:\n      dup1\n      iszero\n      tag_169\n      jumpi\n      dup1\n      0x1f\n      lt\n      tag_170\n      jumpi\n      0x0100\n      dup1\n      dup4\n      sload\n      div\n      mul\n      dup4\n      mstore\n      swap2\n      0x20\n      add\n      swap2\n      jump(tag_169)\n    tag_170:\n      dup3\n      add\n      swap2\n      swap1\n      0x00\n      mstore\n      keccak256(0x00, 0x20)\n      swap1\n    tag_171:\n      dup2\n      sload\n      dup2\n      mstore\n      swap1\n      0x01\n      add\n      swap1\n      0x20\n      add\n      dup1\n      dup4\n      gt\n      tag_171\n      jumpi\n      dup3\n      swap1\n      sub\n      0x1f\n      and\n      dup3\n      add\n      swap2\n    tag_169:\n      pop\n      pop\n      pop\n      pop\n      pop\n      dup2\n      mstore\n      0x20\n      add\n      0x02\n      dup3\n      add\n      dup1\n      sload\n      dup1\n      0x20\n      mul\n      0x20\n      add\n      mload(0x40)\n      swap1\n      dup2\n      add\n      0x40\n      mstore\n      dup1\n      swap3\n      swap2\n      swap1\n      dup2\n      dup2\n      mstore\n      0x20\n      add\n      0x00\n      swap1\n    tag_172:\n      dup3\n      dup3\n      lt\n      iszero\n      tag_173\n      jumpi\n      dup4\n      dup3\n      swap1\n      0x00\n      mstore\n      keccak256(0x00, 0x20)\n      add\n      dup1\n      sload\n      tag_175\n      swap1\n      tag_86\n      jump\t// in\n    tag_175:\n      dup1\n      0x1f\n      add\n      0x20\n      dup1\n      swap2\n      div\n      mul\n      0x20\n      add\n      mload(0x40)\n      swap1\n      dup2\n      add\n      0x40\n      mstore\n      dup1\n      swap3\n      swap2\n      swap1\n      dup2\n      dup2\n      mstore\n      0x20\n      add\n      dup3\n      dup1\n      sload\n      tag_176\n      swap1\n      tag_86\n      jump\t// in\n    tag_176:\n      dup1\n      iszero\n      tag_177\n      jumpi\n      dup1\n      0x1f\n      lt\n      tag_178\n      jumpi\n      0x0100\n      dup1\n      dup4\n      sload\n      div\n      mul\n      dup4\n      mstore\n      swap2\n      0x20\n      add\n      swap2\n      jump(tag_177)\n    tag_178:\n      dup3\n      add\n      swap2\n      swap1\n      0x00\n      mstore\n      keccak256(0x00, 0x20)\n      swap1\n    tag_179:\n      dup2\n      sload\n      dup2\n      mstore\n      swap1\n      0x01\n      add\n      swap1\n      0x20\n      add\n      dup1\n      dup4\n      gt\n      tag_179\n      jumpi\n      dup3\n      swap1\n      sub\n      0x1f\n      and\n      dup3\n      add\n      swap2\n    tag_177:\n      pop\n      pop\n      pop\n      pop\n      pop\n      dup2\n      mstore\n      0x20\n      add\n      swap1\n      0x01\n      add\n      swap1\n      jump(tag_172)\n    tag_173:\n      pop\n      pop\n      pop\n      pop\n      dup2\n      mstore\n      0x20\n      add\n      0x03\n      dup3\n      add\n      dup1\n      sload\n      dup1\n      0x20\n      mul\n      0x20\n      add\n      mload(0x40)\n      swap1\n      dup2\n      add\n      0x40\n      mstore\n      dup1\n      swap3\n      swap2\n      swap1\n      dup2\n      dup2\n      mstore\n      0x20\n      add\n      dup3\n      dup1\n      sload\n      dup1\n      iszero\n      tag_180\n      jumpi\n      0x20\n      mul\n      dup3\n      add\n      swap2\n      swap1\n      0x00\n      mstore\n      keccak256(0x00, 0x20)\n      swap1\n    tag_181:\n      dup2\n      sload\n      dup2\n      mstore\n      0x20\n      add\n      swap1\n      0x01\n      add\n      swap1\n      dup1\n      dup4\n      gt\n      tag_181\n      jumpi\n    tag_180:\n      pop\n      pop\n      pop\n      pop\n      pop\n      dup2\n      mstore\n      pop\n      pop\n      swap2\n      pop\n      pop\n        /* \"Contracts/Lending.sol\":4145:4311  function getUserByWallet(string memory addr) public view returns (User memory) {... */\n      swap2\n      swap1\n      pop\n      jump\t// out\n        /* \"Contracts/Lending.sol\":4317:4398  function getOwner() external view returns (address) {... */\n    tag_43:\n        /* \"Contracts/Lending.sol\":4360:4367  address */\n      0x00\n        /* \"Contracts/Lending.sol\":4386:4391  owner */\n      dup1\n      0x00\n      swap1\n      sload\n      swap1\n      0x0100\n      exp\n      swap1\n      div\n      0xffffffffffffffffffffffffffffffffffffffff\n      and\n        /* \"Contracts/Lending.sol\":4379:4391  return owner */\n      swap1\n      pop\n        /* \"Contracts/Lending.sol\":4317:4398  function getOwner() external view returns (address) {... */\n      swap1\n      jump\t// out\n        /* \"Contracts/Lending.sol\":4404:4446  function makeRentRequest() public {... */\n    tag_47:\n      jump\t// out\n        /* \"Contracts/Lending.sol\":1195:1591  function compareStrings(string memory a, string memory b) public pure returns (bool) {... */\n    tag_50:\n        /* \"Contracts/Lending.sol\":1274:1278  bool */\n      0x00\n        /* \"Contracts/Lending.sol\":1319:1320  b */\n      dup2\n        /* \"Contracts/Lending.sol\":1313:1328  bytes(b).length */\n      mload\n        /* \"Contracts/Lending.sol\":1300:1301  a */\n      dup4\n        /* \"Contracts/Lending.sol\":1294:1309  bytes(a).length */\n      mload\n        /* \"Contracts/Lending.sol\":1294:1328  bytes(a).length != bytes(b).length */\n      eq\n        /* \"Contracts/Lending.sol\":1290:1585  if (bytes(a).length != bytes(b).length) {... */\n      tag_185\n      jumpi\n        /* \"Contracts/Lending.sol\":1351:1356  false */\n      0x00\n        /* \"Contracts/Lending.sol\":1344:1356  return false */\n      swap1\n      pop\n      jump(tag_184)\n        /* \"Contracts/Lending.sol\":1290:1585  if (bytes(a).length != bytes(b).length) {... */\n    tag_185:\n        /* \"Contracts/Lending.sol\":1392:1401  uint256 i */\n      0x00\n        /* \"Contracts/Lending.sol\":1387:1550  for (uint256 i = 0; i < bytes(a).length; i++) {... */\n    tag_187:\n        /* \"Contracts/Lending.sol\":1417:1418  a */\n      dup4\n        /* \"Contracts/Lending.sol\":1411:1426  bytes(a).length */\n      mload\n        /* \"Contracts/Lending.sol\":1407:1408  i */\n      dup2\n        /* \"Contracts/Lending.sol\":1407:1426  i < bytes(a).length */\n      lt\n        /* \"Contracts/Lending.sol\":1387:1550  for (uint256 i = 0; i < bytes(a).length; i++) {... */\n      iszero\n      tag_188\n      jumpi\n        /* \"Contracts/Lending.sol\":1476:1477  b */\n      dup3\n        /* \"Contracts/Lending.sol\":1479:1480  i */\n      dup2\n        /* \"Contracts/Lending.sol\":1470:1481  bytes(b)[i] */\n      dup2\n      mload\n      dup2\n      lt\n      tag_190\n      jumpi\n      tag_191\n      tag_143\n      jump\t// in\n    tag_191:\n    tag_190:\n      0x20\n      add\n      add\n      mload\n      0xf8\n      shr\n      0xf8\n      shl\n        /* \"Contracts/Lending.sol\":1455:1481  bytes(a)[i] != bytes(b)[i] */\n      not(0xffffffffffffffffffffffffffffffffffffffffffffffffffffffffffffff)\n      and\n        /* \"Contracts/Lending.sol\":1461:1462  a */\n      dup5\n        /* \"Contracts/Lending.sol\":1464:1465  i */\n      dup3\n        /* \"Contracts/Lending.sol\":1455:1466  bytes(a)[i] */\n      dup2\n      mload\n      dup2\n      lt\n      tag_192\n      jumpi\n      tag_193\n      tag_143\n      jump\t// in\n    tag_193:\n    tag_192:\n      0x20\n      add\n      add\n      mload\n      0xf8\n      shr\n      0xf8\n      shl\n        /* \"Contracts/Lending.sol\":1455:1481  bytes(a)[i] != bytes(b)[i] */\n      not(0xffffffffffffffffffffffffffffffffffffffffffffffffffffffffffffff)\n      and\n      eq\n        /* \"Contracts/Lending.sol\":1451:1536  if (bytes(a)[i] != bytes(b)[i]) {... */\n      tag_194\n      jumpi\n        /* \"Contracts/Lending.sol\":1512:1517  false */\n      0x00\n        /* \"Contracts/Lending.sol\":1505:1517  return false */\n      swap2\n      pop\n      pop\n      jump(tag_184)\n        /* \"Contracts/Lending.sol\":1451:1536  if (bytes(a)[i] != bytes(b)[i]) {... */\n    tag_194:\n        /* \"Contracts/Lending.sol\":1428:1431  i++ */\n      dup1\n      dup1\n      tag_195\n      swap1\n      tag_152\n      jump\t// in\n    tag_195:\n      swap2\n      pop\n      pop\n        /* \"Contracts/Lending.sol\":1387:1550  for (uint256 i = 0; i < bytes(a).length; i++) {... */\n      jump(tag_187)\n    tag_188:\n      pop\n        /* \"Contracts/Lending.sol\":1570:1574  true */\n      0x01\n        /* \"Contracts/Lending.sol\":1563:1574  return true */\n      swap1\n      pop\n        /* \"Contracts/Lending.sol\":1195:1591  function compareStrings(string memory a, string memory b) public pure returns (bool) {... */\n    tag_184:\n      swap3\n      swap2\n      pop\n      pop\n      jump\t// out\n        /* \"Contracts/Lending.sol\":3791:3959  function getUserByLens(string memory lens) public view returns (User memory) {... */\n    tag_55:\n        /* \"Contracts/Lending.sol\":3855:3866  User memory */\n      tag_196\n      tag_82\n      jump\t// in\n    tag_196:\n        /* \"Contracts/Lending.sol\":3878:3898  string memory userId */\n      0x00\n        /* \"Contracts/Lending.sol\":3901:3916  UserLensHandles */\n      0x06\n        /* \"Contracts/Lending.sol\":3917:3921  lens */\n      dup4\n        /* \"Contracts/Lending.sol\":3901:3922  UserLensHandles[lens] */\n      mload(0x40)\n      tag_198\n      swap2\n      swap1\n      tag_69\n      jump\t// in\n    tag_198:\n      swap1\n      dup2\n      mstore\n      0x20\n      add\n      mload(0x40)\n      dup1\n      swap2\n      sub\n      swap1\n      keccak256\n        /* \"Contracts/Lending.sol\":3878:3922  string memory userId = UserLensHandles[lens] */\n      dup1\n      sload\n      tag_199\n      swap1\n      tag_86\n      jump\t// in\n    tag_199:\n      dup1\n      0x1f\n      add\n      0x20\n      dup1\n      swap2\n      div\n      mul\n      0x20\n      add\n      mload(0x40)\n      swap1\n      dup2\n      add\n      0x40\n      mstore\n      dup1\n      swap3\n      swap2\n      swap1\n      dup2\n      dup2\n      mstore\n      0x20\n      add\n      dup3\n      dup1\n      sload\n      tag_200\n      swap1\n      tag_86\n      jump\t// in\n    tag_200:\n      dup1\n      iszero\n      tag_201\n      jumpi\n      dup1\n      0x1f\n      lt\n      tag_202\n      jumpi\n      0x0100\n      dup1\n      dup4\n      sload\n      div\n      mul\n      dup4\n      mstore\n      swap2\n      0x20\n      add\n      swap2\n      jump(tag_201)\n    tag_202:\n      dup3\n      add\n      swap2\n      swap1\n      0x00\n      mstore\n      keccak256(0x00, 0x20)\n      swap1\n    tag_203:\n      dup2\n      sload\n      dup2\n      mstore\n      swap1\n      0x01\n      add\n      swap1\n      0x20\n      add\n      dup1\n      dup4\n      gt\n      tag_203\n      jumpi\n      dup3\n      swap1\n      sub\n      0x1f\n      and\n      dup3\n      add\n      swap2\n    tag_201:\n      pop\n      pop\n      pop\n      pop\n      pop\n      swap1\n      pop\n        /* \"Contracts/Lending.sol\":3939:3944  Users */\n      0x02\n        /* \"Contracts/Lending.sol\":3945:3951  userId */\n      dup2\n        /* \"Contracts/Lending.sol\":3939:3952  Users[userId] */\n      mload(0x40)\n      tag_204\n      swap2\n      swap1\n      tag_69\n      jump\t// in\n    tag_204:\n      swap1\n      dup2\n      mstore\n      0x20\n      add\n      mload(0x40)\n      dup1\n      swap2\n      sub\n      swap1\n      keccak256\n        /* \"Contracts/Lending.sol\":3932:3952  return Users[userId] */\n      mload(0x40)\n      dup1\n      0x80\n      add\n      0x40\n      mstore\n      swap1\n      dup2\n      0x00\n      dup3\n      add\n      dup1\n      sload\n      tag_205\n      swap1\n      tag_86\n      jump\t// in\n    tag_205:\n      dup1\n      0x1f\n      add\n      0x20\n      dup1\n      swap2\n      div\n      mul\n      0x20\n      add\n      mload(0x40)\n      swap1\n      dup2\n      add\n      0x40\n      mstore\n      dup1\n      swap3\n      swap2\n      swap1\n      dup2\n      dup2\n      mstore\n      0x20\n      add\n      dup3\n      dup1\n      sload\n      tag_206\n      swap1\n      tag_86\n      jump\t// in\n    tag_206:\n      dup1\n      iszero\n      tag_207\n      jumpi\n      dup1\n      0x1f\n      lt\n      tag_208\n      jumpi\n      0x0100\n      dup1\n      dup4\n      sload\n      div\n      mul\n      dup4\n      mstore\n      swap2\n      0x20\n      add\n      swap2\n      jump(tag_207)\n    tag_208:\n      dup3\n      add\n      swap2\n      swap1\n      0x00\n      mstore\n      keccak256(0x00, 0x20)\n      swap1\n    tag_209:\n      dup2\n      sload\n      dup2\n      mstore\n      swap1\n      0x01\n      add\n      swap1\n      0x20\n      add\n      dup1\n      dup4\n      gt\n      tag_209\n      jumpi\n      dup3\n      swap1\n      sub\n      0x1f\n      and\n      dup3\n      add\n      swap2\n    tag_207:\n      pop\n      pop\n      pop\n      pop\n      pop\n      dup2\n      mstore\n      0x20\n      add\n      0x01\n      dup3\n      add\n      dup1\n      sload\n      tag_210\n      swap1\n      tag_86\n      jump\t// in\n    tag_210:\n      dup1\n      0x1f\n      add\n      0x20\n      dup1\n      swap2\n      div\n      mul\n      0x20\n      add\n      mload(0x40)\n      swap1\n      dup2\n      add\n      0x40\n      mstore\n      dup1\n      swap3\n      swap2\n      swap1\n      dup2\n      dup2\n      mstore\n      0x20\n      add\n      dup3\n      dup1\n      sload\n      tag_211\n      swap1\n      tag_86\n      jump\t// in\n    tag_211:\n      dup1\n      iszero\n      tag_212\n      jumpi\n      dup1\n      0x1f\n      lt\n      tag_213\n      jumpi\n      0x0100\n      dup1\n      dup4\n      sload\n      div\n      mul\n      dup4\n      mstore\n      swap2\n      0x20\n      add\n      swap2\n      jump(tag_212)\n    tag_213:\n      dup3\n      add\n      swap2\n      swap1\n      0x00\n      mstore\n      keccak256(0x00, 0x20)\n      swap1\n    tag_214:\n      dup2\n      sload\n      dup2\n      mstore\n      swap1\n      0x01\n      add\n      swap1\n      0x20\n      add\n      dup1\n      dup4\n      gt\n      tag_214\n      jumpi\n      dup3\n      swap1\n      sub\n      0x1f\n      and\n      dup3\n      add\n      swap2\n    tag_212:\n      pop\n      pop\n      pop\n      pop\n      pop\n      dup2\n      mstore\n      0x20\n      add\n      0x02\n      dup3\n      add\n      dup1\n      sload\n      dup1\n      0x20\n      mul\n      0x20\n      add\n      mload(0x40)\n      swap1\n      dup2\n      add\n      0x40\n      mstore\n      dup1\n      swap3\n      swap2\n      swap1\n      dup2\n      dup2\n      mstore\n      0x20\n      add\n      0x00\n      swap1\n    tag_215:\n      dup3\n      dup3\n      lt\n      iszero\n      tag_216\n      jumpi\n      dup4\n      dup3\n      swap1\n      0x00\n      mstore\n      keccak256(0x00, 0x20)\n      add\n      dup1\n      sload\n      tag_218\n      swap1\n      tag_86\n      jump\t// in\n    tag_218:\n      dup1\n      0x1f\n      add\n      0x20\n      dup1\n      swap2\n      div\n      mul\n      0x20\n      add\n      mload(0x40)\n      swap1\n      dup2\n      add\n      0x40\n      mstore\n      dup1\n      swap3\n      swap2\n      swap1\n      dup2\n      dup2\n      mstore\n      0x20\n      add\n      dup3\n      dup1\n      sload\n      tag_219\n      swap1\n      tag_86\n      jump\t// in\n    tag_219:\n      dup1\n      iszero\n      tag_220\n      jumpi\n      dup1\n      0x1f\n      lt\n      tag_221\n      jumpi\n      0x0100\n      dup1\n      dup4\n      sload\n      div\n      mul\n      dup4\n      mstore\n      swap2\n      0x20\n      add\n      swap2\n      jump(tag_220)\n    tag_221:\n      dup3\n      add\n      swap2\n      swap1\n      0x00\n      mstore\n      keccak256(0x00, 0x20)\n      swap1\n    tag_222:\n      dup2\n      sload\n      dup2\n      mstore\n      swap1\n      0x01\n      add\n      swap1\n      0x20\n      add\n      dup1\n      dup4\n      gt\n      tag_222\n      jumpi\n      dup3\n      swap1\n      sub\n      0x1f\n      and\n      dup3\n      add\n      swap2\n    tag_220:\n      pop\n      pop\n      pop\n      pop\n      pop\n      dup2\n      mstore\n      0x20\n      add\n      swap1\n      0x01\n      add\n      swap1\n      jump(tag_215)\n    tag_216:\n      pop\n      pop\n      pop\n      pop\n      dup2\n      mstore\n      0x20\n      add\n      0x03\n      dup3\n      add\n      dup1\n      sload\n      dup1\n      0x20\n      mul\n      0x20\n      add\n      mload(0x40)\n      swap1\n      dup2\n      add\n      0x40\n      mstore\n      dup1\n      swap3\n      swap2\n      swap1\n      dup2\n      dup2\n      mstore\n      0x20\n      add\n      dup3\n      dup1\n      sload\n      dup1\n      iszero\n      tag_223\n      jumpi\n      0x20\n      mul\n      dup3\n      add\n      swap2\n      swap1\n      0x00\n      mstore\n      keccak256(0x00, 0x20)\n      swap1\n    tag_224:\n      dup2\n      sload\n      dup2\n      mstore\n      0x20\n      add\n      swap1\n      0x01\n      add\n      swap1\n      dup1\n      dup4\n      gt\n      tag_224\n      jumpi\n    tag_223:\n      pop\n      pop\n      pop\n      pop\n      pop\n      dup2\n      mstore\n      pop\n      pop\n      swap2\n      pop\n      pop\n        /* \"Contracts/Lending.sol\":3791:3959  function getUserByLens(string memory lens) public view returns (User memory) {... */\n      swap2\n      swap1\n      pop\n      jump\t// out\n        /* \"Contracts/Lending.sol\":1653:2279  function doesKeyExist(string memory key, string memory variable) public view returns (bool) {... */\n    tag_59:\n        /* \"Contracts/Lending.sol\":1739:1743  bool */\n      0x00\n        /* \"Contracts/Lending.sol\":1760:1799  compareStrings(variable, 'userWallets') */\n      tag_226\n        /* \"Contracts/Lending.sol\":1775:1783  variable */\n      dup3\n        /* \"Contracts/Lending.sol\":1760:1799  compareStrings(variable, 'userWallets') */\n      mload(0x40)\n      dup1\n      0x40\n      add\n      0x40\n      mstore\n      dup1\n      0x0b\n      dup2\n      mstore\n      0x20\n      add\n      0x7573657257616c6c657473000000000000000000000000000000000000000000\n      dup2\n      mstore\n      pop\n        /* \"Contracts/Lending.sol\":1760:1774  compareStrings */\n      tag_50\n        /* \"Contracts/Lending.sol\":1760:1799  compareStrings(variable, 'userWallets') */\n      jump\t// in\n    tag_226:\n        /* \"Contracts/Lending.sol\":1756:1913  if (compareStrings(variable, 'userWallets')) {... */\n      iszero\n      tag_227\n      jumpi\n        /* \"Contracts/Lending.sol\":1881:1901  abi.encodePacked(\"\") */\n      add(0x20, mload(0x40))\n      tag_228\n      swap1\n      tag_229\n      jump\t// in\n    tag_228:\n      mload(0x40)\n      0x20\n      dup2\n      dup4\n      sub\n      sub\n      dup2\n      mstore\n      swap1\n      0x40\n      mstore\n        /* \"Contracts/Lending.sol\":1871:1902  keccak256(abi.encodePacked(\"\")) */\n      dup1\n      mload\n      swap1\n      0x20\n      add\n      keccak256\n        /* \"Contracts/Lending.sol\":1849:1860  UserWallets */\n      0x05\n        /* \"Contracts/Lending.sol\":1861:1864  key */\n      dup5\n        /* \"Contracts/Lending.sol\":1849:1865  UserWallets[key] */\n      mload(0x40)\n      tag_230\n      swap2\n      swap1\n      tag_69\n      jump\t// in\n    tag_230:\n      swap1\n      dup2\n      mstore\n      0x20\n      add\n      mload(0x40)\n      dup1\n      swap2\n      sub\n      swap1\n      keccak256\n        /* \"Contracts/Lending.sol\":1832:1866  abi.encodePacked(UserWallets[key]) */\n      add(0x20, mload(0x40))\n      tag_231\n      swap2\n      swap1\n      tag_232\n      jump\t// in\n    tag_231:\n      mload(0x40)\n      0x20\n      dup2\n      dup4\n      sub\n      sub\n      dup2\n      mstore\n      swap1\n      0x40\n      mstore\n        /* \"Contracts/Lending.sol\":1822:1867  keccak256(abi.encodePacked(UserWallets[key])) */\n      dup1\n      mload\n      swap1\n      0x20\n      add\n      keccak256\n        /* \"Contracts/Lending.sol\":1822:1902  keccak256(abi.encodePacked(UserWallets[key])) != keccak256(abi.encodePacked(\"\")) */\n      eq\n      iszero\n        /* \"Contracts/Lending.sol\":1815:1902  return keccak256(abi.encodePacked(UserWallets[key])) != keccak256(abi.encodePacked(\"\")) */\n      swap1\n      pop\n      jump(tag_225)\n        /* \"Contracts/Lending.sol\":1756:1913  if (compareStrings(variable, 'userWallets')) {... */\n    tag_227:\n        /* \"Contracts/Lending.sol\":1927:1963  compareStrings(variable, 'userLens') */\n      tag_233\n        /* \"Contracts/Lending.sol\":1942:1950  variable */\n      dup3\n        /* \"Contracts/Lending.sol\":1927:1963  compareStrings(variable, 'userLens') */\n      mload(0x40)\n      dup1\n      0x40\n      add\n      0x40\n      mstore\n      dup1\n      0x08\n      dup2\n      mstore\n      0x20\n      add\n      0x757365724c656e73000000000000000000000000000000000000000000000000\n      dup2\n      mstore\n      pop\n        /* \"Contracts/Lending.sol\":1927:1941  compareStrings */\n      tag_50\n        /* \"Contracts/Lending.sol\":1927:1963  compareStrings(variable, 'userLens') */\n      jump\t// in\n    tag_233:\n        /* \"Contracts/Lending.sol\":1923:2081  if (compareStrings(variable, 'userLens')) {... */\n      iszero\n      tag_234\n      jumpi\n        /* \"Contracts/Lending.sol\":2049:2069  abi.encodePacked(\"\") */\n      add(0x20, mload(0x40))\n      tag_235\n      swap1\n      tag_229\n      jump\t// in\n    tag_235:\n      mload(0x40)\n      0x20\n      dup2\n      dup4\n      sub\n      sub\n      dup2\n      mstore\n      swap1\n      0x40\n      mstore\n        /* \"Contracts/Lending.sol\":2039:2070  keccak256(abi.encodePacked(\"\")) */\n      dup1\n      mload\n      swap1\n      0x20\n      add\n      keccak256\n        /* \"Contracts/Lending.sol\":2013:2028  UserLensHandles */\n      0x06\n        /* \"Contracts/Lending.sol\":2029:2032  key */\n      dup5\n        /* \"Contracts/Lending.sol\":2013:2033  UserLensHandles[key] */\n      mload(0x40)\n      tag_236\n      swap2\n      swap1\n      tag_69\n      jump\t// in\n    tag_236:\n      swap1\n      dup2\n      mstore\n      0x20\n      add\n      mload(0x40)\n      dup1\n      swap2\n      sub\n      swap1\n      keccak256\n        /* \"Contracts/Lending.sol\":1996:2034  abi.encodePacked(UserLensHandles[key]) */\n      add(0x20, mload(0x40))\n      tag_237\n      swap2\n      swap1\n      tag_232\n      jump\t// in\n    tag_237:\n      mload(0x40)\n      0x20\n      dup2\n      dup4\n      sub\n      sub\n      dup2\n      mstore\n      swap1\n      0x40\n      mstore\n        /* \"Contracts/Lending.sol\":1986:2035  keccak256(abi.encodePacked(UserLensHandles[key])) */\n      dup1\n      mload\n      swap1\n      0x20\n      add\n      keccak256\n        /* \"Contracts/Lending.sol\":1986:2070  keccak256(abi.encodePacked(UserLensHandles[key])) != keccak256(abi.encodePacked(\"\")) */\n      eq\n      iszero\n        /* \"Contracts/Lending.sol\":1979:2070  return keccak256(abi.encodePacked(UserLensHandles[key])) != keccak256(abi.encodePacked(\"\")) */\n      swap1\n      pop\n      jump(tag_225)\n        /* \"Contracts/Lending.sol\":1923:2081  if (compareStrings(variable, 'userLens')) {... */\n    tag_234:\n        /* \"Contracts/Lending.sol\":2095:2131  compareStrings(variable, 'userWCID') */\n      tag_238\n        /* \"Contracts/Lending.sol\":2110:2118  variable */\n      dup3\n        /* \"Contracts/Lending.sol\":2095:2131  compareStrings(variable, 'userWCID') */\n      mload(0x40)\n      dup1\n      0x40\n      add\n      0x40\n      mstore\n      dup1\n      0x08\n      dup2\n      mstore\n      0x20\n      add\n      0x7573657257434944000000000000000000000000000000000000000000000000\n      dup2\n      mstore\n      pop\n        /* \"Contracts/Lending.sol\":2095:2109  compareStrings */\n      tag_50\n        /* \"Contracts/Lending.sol\":2095:2131  compareStrings(variable, 'userWCID') */\n      jump\t// in\n    tag_238:\n        /* \"Contracts/Lending.sol\":2091:2250  if (compareStrings(variable, 'userWCID')) {... */\n      iszero\n      tag_239\n      jumpi\n        /* \"Contracts/Lending.sol\":2218:2238  abi.encodePacked(\"\") */\n      add(0x20, mload(0x40))\n      tag_240\n      swap1\n      tag_229\n      jump\t// in\n    tag_240:\n      mload(0x40)\n      0x20\n      dup2\n      dup4\n      sub\n      sub\n      dup2\n      mstore\n      swap1\n      0x40\n      mstore\n        /* \"Contracts/Lending.sol\":2208:2239  keccak256(abi.encodePacked(\"\")) */\n      dup1\n      mload\n      swap1\n      0x20\n      add\n      keccak256\n        /* \"Contracts/Lending.sol\":2181:2197  UserWorldCoinIds */\n      0x04\n        /* \"Contracts/Lending.sol\":2198:2201  key */\n      dup5\n        /* \"Contracts/Lending.sol\":2181:2202  UserWorldCoinIds[key] */\n      mload(0x40)\n      tag_241\n      swap2\n      swap1\n      tag_69\n      jump\t// in\n    tag_241:\n      swap1\n      dup2\n      mstore\n      0x20\n      add\n      mload(0x40)\n      dup1\n      swap2\n      sub\n      swap1\n      keccak256\n        /* \"Contracts/Lending.sol\":2164:2203  abi.encodePacked(UserWorldCoinIds[key]) */\n      add(0x20, mload(0x40))\n      tag_242\n      swap2\n      swap1\n      tag_232\n      jump\t// in\n    tag_242:\n      mload(0x40)\n      0x20\n      dup2\n      dup4\n      sub\n      sub\n      dup2\n      mstore\n      swap1\n      0x40\n      mstore\n        /* \"Contracts/Lending.sol\":2154:2204  keccak256(abi.encodePacked(UserWorldCoinIds[key])) */\n      dup1\n      mload\n      swap1\n      0x20\n      add\n      keccak256\n        /* \"Contracts/Lending.sol\":2154:2239  keccak256(abi.encodePacked(UserWorldCoinIds[key])) != keccak256(abi.encodePacked(\"\")) */\n      eq\n      iszero\n        /* \"Contracts/Lending.sol\":2147:2239  return keccak256(abi.encodePacked(UserWorldCoinIds[key])) != keccak256(abi.encodePacked(\"\")) */\n      swap1\n      pop\n      jump(tag_225)\n        /* \"Contracts/Lending.sol\":2091:2250  if (compareStrings(variable, 'userWCID')) {... */\n    tag_239:\n        /* \"Contracts/Lending.sol\":2267:2272  false */\n      0x00\n        /* \"Contracts/Lending.sol\":2260:2272  return false */\n      swap1\n      pop\n        /* \"Contracts/Lending.sol\":1653:2279  function doesKeyExist(string memory key, string memory variable) public view returns (bool) {... */\n    tag_225:\n      swap3\n      swap2\n      pop\n      pop\n      jump\t// out\n        /* \"Contracts/Lending.sol\":3965:4139  function getUserByWorldCoin(string memory WCID) public view returns (User memory) {... */\n    tag_63:\n        /* \"Contracts/Lending.sol\":4034:4045  User memory */\n      tag_243\n      tag_82\n      jump\t// in\n    tag_243:\n        /* \"Contracts/Lending.sol\":4057:4077  string memory userId */\n      0x00\n        /* \"Contracts/Lending.sol\":4080:4096  UserWorldCoinIds */\n      0x04\n        /* \"Contracts/Lending.sol\":4097:4101  WCID */\n      dup4\n        /* \"Contracts/Lending.sol\":4080:4102  UserWorldCoinIds[WCID] */\n      mload(0x40)\n      tag_245\n      swap2\n      swap1\n      tag_69\n      jump\t// in\n    tag_245:\n      swap1\n      dup2\n      mstore\n      0x20\n      add\n      mload(0x40)\n      dup1\n      swap2\n      sub\n      swap1\n      keccak256\n        /* \"Contracts/Lending.sol\":4057:4102  string memory userId = UserWorldCoinIds[WCID] */\n      dup1\n      sload\n      tag_246\n      swap1\n      tag_86\n      jump\t// in\n    tag_246:\n      dup1\n      0x1f\n      add\n      0x20\n      dup1\n      swap2\n      div\n      mul\n      0x20\n      add\n      mload(0x40)\n      swap1\n      dup2\n      add\n      0x40\n      mstore\n      dup1\n      swap3\n      swap2\n      swap1\n      dup2\n      dup2\n      mstore\n      0x20\n      add\n      dup3\n      dup1\n      sload\n      tag_247\n      swap1\n      tag_86\n      jump\t// in\n    tag_247:\n      dup1\n      iszero\n      tag_248\n      jumpi\n      dup1\n      0x1f\n      lt\n      tag_249\n      jumpi\n      0x0100\n      dup1\n      dup4\n      sload\n      div\n      mul\n      dup4\n      mstore\n      swap2\n      0x20\n      add\n      swap2\n      jump(tag_248)\n    tag_249:\n      dup3\n      add\n      swap2\n      swap1\n      0x00\n      mstore\n      keccak256(0x00, 0x20)\n      swap1\n    tag_250:\n      dup2\n      sload\n      dup2\n      mstore\n      swap1\n      0x01\n      add\n      swap1\n      0x20\n      add\n      dup1\n      dup4\n      gt\n      tag_250\n      jumpi\n      dup3\n      swap1\n      sub\n      0x1f\n      and\n      dup3\n      add\n      swap2\n    tag_248:\n      pop\n      pop\n      pop\n      pop\n      pop\n      swap1\n      pop\n        /* \"Contracts/Lending.sol\":4119:4124  Users */\n      0x02\n        /* \"Contracts/Lending.sol\":4125:4131  userId */\n      dup2\n        /* \"Contracts/Lending.sol\":4119:4132  Users[userId] */\n      mload(0x40)\n      tag_251\n      swap2\n      swap1\n      tag_69\n      jump\t// in\n    tag_251:\n      swap1\n      dup2\n      mstore\n      0x20\n      add\n      mload(0x40)\n      dup1\n      swap2\n      sub\n      swap1\n      keccak256\n        /* \"Contracts/Lending.sol\":4112:4132  return Users[userId] */\n      mload(0x40)\n      dup1\n      0x80\n      add\n      0x40\n      mstore\n      swap1\n      dup2\n      0x00\n      dup3\n      add\n      dup1\n      sload\n      tag_252\n      swap1\n      tag_86\n      jump\t// in\n    tag_252:\n      dup1\n      0x1f\n      add\n      0x20\n      dup1\n      swap2\n      div\n      mul\n      0x20\n      add\n      mload(0x40)\n      swap1\n      dup2\n      add\n      0x40\n      mstore\n      dup1\n      swap3\n      swap2\n      swap1\n      dup2\n      dup2\n      mstore\n      0x20\n      add\n      dup3\n      dup1\n      sload\n      tag_253\n      swap1\n      tag_86\n      jump\t// in\n    tag_253:\n      dup1\n      iszero\n      tag_254\n      jumpi\n      dup1\n      0x1f\n      lt\n      tag_255\n      jumpi\n      0x0100\n      dup1\n      dup4\n      sload\n      div\n      mul\n      dup4\n      mstore\n      swap2\n      0x20\n      add\n      swap2\n      jump(tag_254)\n    tag_255:\n      dup3\n      add\n      swap2\n      swap1\n      0x00\n      mstore\n      keccak256(0x00, 0x20)\n      swap1\n    tag_256:\n      dup2\n      sload\n      dup2\n      mstore\n      swap1\n      0x01\n      add\n      swap1\n      0x20\n      add\n      dup1\n      dup4\n      gt\n      tag_256\n      jumpi\n      dup3\n      swap1\n      sub\n      0x1f\n      and\n      dup3\n      add\n      swap2\n    tag_254:\n      pop\n      pop\n      pop\n      pop\n      pop\n      dup2\n      mstore\n      0x20\n      add\n      0x01\n      dup3\n      add\n      dup1\n      sload\n      tag_257\n      swap1\n      tag_86\n      jump\t// in\n    tag_257:\n      dup1\n      0x1f\n      add\n      0x20\n      dup1\n      swap2\n      div\n      mul\n      0x20\n      add\n      mload(0x40)\n      swap1\n      dup2\n      add\n      0x40\n      mstore\n      dup1\n      swap3\n      swap2\n      swap1\n      dup2\n      dup2\n      mstore\n      0x20\n      add\n      dup3\n      dup1\n      sload\n      tag_258\n      swap1\n      tag_86\n      jump\t// in\n    tag_258:\n      dup1\n      iszero\n      tag_259\n      jumpi\n      dup1\n      0x1f\n      lt\n      tag_260\n      jumpi\n      0x0100\n      dup1\n      dup4\n      sload\n      div\n      mul\n      dup4\n      mstore\n      swap2\n      0x20\n      add\n      swap2\n      jump(tag_259)\n    tag_260:\n      dup3\n      add\n      swap2\n      swap1\n      0x00\n      mstore\n      keccak256(0x00, 0x20)\n      swap1\n    tag_261:\n      dup2\n      sload\n      dup2\n      mstore\n      swap1\n      0x01\n      add\n      swap1\n      0x20\n      add\n      dup1\n      dup4\n      gt\n      tag_261\n      jumpi\n      dup3\n      swap1\n      sub\n      0x1f\n      and\n      dup3\n      add\n      swap2\n    tag_259:\n      pop\n      pop\n      pop\n      pop\n      pop\n      dup2\n      mstore\n      0x20\n      add\n      0x02\n      dup3\n      add\n      dup1\n      sload\n      dup1\n      0x20\n      mul\n      0x20\n      add\n      mload(0x40)\n      swap1\n      dup2\n      add\n      0x40\n      mstore\n      dup1\n      swap3\n      swap2\n      swap1\n      dup2\n      dup2\n      mstore\n      0x20\n      add\n      0x00\n      swap1\n    tag_262:\n      dup3\n      dup3\n      lt\n      iszero\n      tag_263\n      jumpi\n      dup4\n      dup3\n      swap1\n      0x00\n      mstore\n      keccak256(0x00, 0x20)\n      add\n      dup1\n      sload\n      tag_265\n      swap1\n      tag_86\n      jump\t// in\n    tag_265:\n      dup1\n      0x1f\n      add\n      0x20\n      dup1\n      swap2\n      div\n      mul\n      0x20\n      add\n      mload(0x40)\n      swap1\n      dup2\n      add\n      0x40\n      mstore\n      dup1\n      swap3\n      swap2\n      swap1\n      dup2\n      dup2\n      mstore\n      0x20\n      add\n      dup3\n      dup1\n      sload\n      tag_266\n      swap1\n      tag_86\n      jump\t// in\n    tag_266:\n      dup1\n      iszero\n      tag_267\n      jumpi\n      dup1\n      0x1f\n      lt\n      tag_268\n      jumpi\n      0x0100\n      dup1\n      dup4\n      sload\n      div\n      mul\n      dup4\n      mstore\n      swap2\n      0x20\n      add\n      swap2\n      jump(tag_267)\n    tag_268:\n      dup3\n      add\n      swap2\n      swap1\n      0x00\n      mstore\n      keccak256(0x00, 0x20)\n      swap1\n    tag_269:\n      dup2\n      sload\n      dup2\n      mstore\n      swap1\n      0x01\n      add\n      swap1\n      0x20\n      add\n      dup1\n      dup4\n      gt\n      tag_269\n      jumpi\n      dup3\n      swap1\n      sub\n      0x1f\n      and\n      dup3\n      add\n      swap2\n    tag_267:\n      pop\n      pop\n      pop\n      pop\n      pop\n      dup2\n      mstore\n      0x20\n      add\n      swap1\n      0x01\n      add\n      swap1\n      jump(tag_262)\n    tag_263:\n      pop\n      pop\n      pop\n      pop\n      dup2\n      mstore\n      0x20\n      add\n      0x03\n      dup3\n      add\n      dup1\n      sload\n      dup1\n      0x20\n      mul\n      0x20\n      add\n      mload(0x40)\n      swap1\n      dup2\n      add\n      0x40\n      mstore\n      dup1\n      swap3\n      swap2\n      swap1\n      dup2\n      dup2\n      mstore\n      0x20\n      add\n      dup3\n      dup1\n      sload\n      dup1\n      iszero\n      tag_270\n      jumpi\n      0x20\n      mul\n      dup3\n      add\n      swap2\n      swap1\n      0x00\n      mstore\n      keccak256(0x00, 0x20)\n      swap1\n    tag_271:\n      dup2\n      sload\n      dup2\n      mstore\n      0x20\n      add\n      swap1\n      0x01\n      add\n      swap1\n      dup1\n      dup4\n      gt\n      tag_271\n      jumpi\n    tag_270:\n      pop\n      pop\n      pop\n      pop\n      pop\n      dup2\n      mstore\n      pop\n      pop\n      swap2\n      pop\n      pop\n        /* \"Contracts/Lending.sol\":3965:4139  function getUserByWorldCoin(string memory WCID) public view returns (User memory) {... */\n      swap2\n      swap1\n      pop\n      jump\t// out\n    tag_82:\n      mload(0x40)\n      dup1\n      0x80\n      add\n      0x40\n      mstore\n      dup1\n      0x60\n      dup2\n      mstore\n      0x20\n      add\n      0x60\n      dup2\n      mstore\n      0x20\n      add\n      0x60\n      dup2\n      mstore\n      0x20\n      add\n      0x60\n      dup2\n      mstore\n      pop\n      swap1\n      jump\t// out\n    tag_112:\n      dup3\n      dup1\n      sload\n      dup3\n      dup3\n      sstore\n      swap1\n      0x00\n      mstore\n      keccak256(0x00, 0x20)\n      swap1\n      dup2\n      add\n      swap3\n      dup3\n      iszero\n      tag_272\n      jumpi\n      swap2\n      0x20\n      mul\n      dup3\n      add\n    tag_273:\n      dup3\n      dup2\n      gt\n      iszero\n      tag_274\n      jumpi\n      dup3\n      mload\n      dup3\n      swap1\n      dup2\n      tag_275\n      swap2\n      swap1\n      tag_71\n      jump\t// in\n    tag_275:\n      pop\n      swap2\n      0x20\n      add\n      swap2\n      swap1\n      0x01\n      add\n      swap1\n      jump(tag_273)\n    tag_274:\n    tag_272:\n      pop\n      swap1\n      pop\n      tag_276\n      swap2\n      swap1\n      tag_277\n      jump\t// in\n    tag_276:\n      pop\n      swap1\n      jump\t// out\n    tag_114:\n      dup3\n      dup1\n      sload\n      dup3\n      dup3\n      sstore\n      swap1\n      0x00\n      mstore\n      keccak256(0x00, 0x20)\n      swap1\n      dup2\n      add\n      swap3\n      dup3\n      iszero\n      tag_278\n      jumpi\n      swap2\n      0x20\n      mul\n      dup3\n      add\n    tag_279:\n      dup3\n      dup2\n      gt\n      iszero\n      tag_280\n      jumpi\n      dup3\n      mload\n      dup3\n      sstore\n      swap2\n      0x20\n      add\n      swap2\n      swap1\n      0x01\n      add\n      swap1\n      jump(tag_279)\n    tag_280:\n    tag_278:\n      pop\n      swap1\n      pop\n      tag_281\n      swap2\n      swap1\n      tag_282\n      jump\t// in\n    tag_281:\n      pop\n      swap1\n      jump\t// out\n    tag_277:\n    tag_283:\n      dup1\n      dup3\n      gt\n      iszero\n      tag_284\n      jumpi\n      0x00\n      dup2\n      dup2\n      tag_285\n      swap2\n      swap1\n      tag_286\n      jump\t// in\n    tag_285:\n      pop\n      0x01\n      add\n      jump(tag_283)\n    tag_284:\n      pop\n      swap1\n      jump\t// out\n    tag_282:\n    tag_287:\n      dup1\n      dup3\n      gt\n      iszero\n      tag_288\n      jumpi\n      0x00\n      dup2\n      0x00\n      swap1\n      sstore\n      pop\n      0x01\n      add\n      jump(tag_287)\n    tag_288:\n      pop\n      swap1\n      jump\t// out\n    tag_286:\n      pop\n      dup1\n      sload\n      tag_289\n      swap1\n      tag_86\n      jump\t// in\n    tag_289:\n      0x00\n      dup3\n      sstore\n      dup1\n      0x1f\n      lt\n      tag_291\n      jumpi\n      pop\n      jump(tag_290)\n    tag_291:\n      0x1f\n      add\n      0x20\n      swap1\n      div\n      swap1\n      0x00\n      mstore\n      keccak256(0x00, 0x20)\n      swap1\n      dup2\n      add\n      swap1\n      tag_292\n      swap2\n      swap1\n      tag_282\n      jump\t// in\n    tag_292:\n    tag_290:\n      pop\n      jump\t// out\n        /* \"#utility.yul\":7:82   */\n    tag_293:\n        /* \"#utility.yul\":40:46   */\n      0x00\n        /* \"#utility.yul\":73:75   */\n      0x40\n        /* \"#utility.yul\":67:76   */\n      mload\n        /* \"#utility.yul\":57:76   */\n      swap1\n      pop\n        /* \"#utility.yul\":7:82   */\n      swap1\n      jump\t// out\n        /* \"#utility.yul\":88:205   */\n    tag_294:\n        /* \"#utility.yul\":197:198   */\n      0x00\n        /* \"#utility.yul\":194:195   */\n      dup1\n        /* \"#utility.yul\":187:199   */\n      revert\n        /* \"#utility.yul\":211:328   */\n    tag_295:\n        /* \"#utility.yul\":320:321   */\n      0x00\n        /* \"#utility.yul\":317:318   */\n      dup1\n        /* \"#utility.yul\":310:322   */\n      revert\n        /* \"#utility.yul\":334:451   */\n    tag_296:\n        /* \"#utility.yul\":443:444   */\n      0x00\n        /* \"#utility.yul\":440:441   */\n      dup1\n        /* \"#utility.yul\":433:445   */\n      revert\n        /* \"#utility.yul\":457:574   */\n    tag_297:\n        /* \"#utility.yul\":566:567   */\n      0x00\n        /* \"#utility.yul\":563:564   */\n      dup1\n        /* \"#utility.yul\":556:568   */\n      revert\n        /* \"#utility.yul\":580:682   */\n    tag_298:\n        /* \"#utility.yul\":621:627   */\n      0x00\n        /* \"#utility.yul\":672:674   */\n      0x1f\n        /* \"#utility.yul\":668:675   */\n      not\n        /* \"#utility.yul\":663:665   */\n      0x1f\n        /* \"#utility.yul\":656:661   */\n      dup4\n        /* \"#utility.yul\":652:666   */\n      add\n        /* \"#utility.yul\":648:676   */\n      and\n        /* \"#utility.yul\":638:676   */\n      swap1\n      pop\n        /* \"#utility.yul\":580:682   */\n      swap2\n      swap1\n      pop\n      jump\t// out\n        /* \"#utility.yul\":688:868   */\n    tag_299:\n        /* \"#utility.yul\":736:813   */\n      0x4e487b7100000000000000000000000000000000000000000000000000000000\n        /* \"#utility.yul\":733:734   */\n      0x00\n        /* \"#utility.yul\":726:814   */\n      mstore\n        /* \"#utility.yul\":833:837   */\n      0x41\n        /* \"#utility.yul\":830:831   */\n      0x04\n        /* \"#utility.yul\":823:838   */\n      mstore\n        /* \"#utility.yul\":857:861   */\n      0x24\n        /* \"#utility.yul\":854:855   */\n      0x00\n        /* \"#utility.yul\":847:862   */\n      revert\n        /* \"#utility.yul\":874:1155   */\n    tag_300:\n        /* \"#utility.yul\":957:984   */\n      tag_365\n        /* \"#utility.yul\":979:983   */\n      dup3\n        /* \"#utility.yul\":957:984   */\n      tag_298\n      jump\t// in\n    tag_365:\n        /* \"#utility.yul\":949:955   */\n      dup2\n        /* \"#utility.yul\":945:985   */\n      add\n        /* \"#utility.yul\":1087:1093   */\n      dup2\n        /* \"#utility.yul\":1075:1085   */\n      dup2\n        /* \"#utility.yul\":1072:1094   */\n      lt\n        /* \"#utility.yul\":1051:1069   */\n      0xffffffffffffffff\n        /* \"#utility.yul\":1039:1049   */\n      dup3\n        /* \"#utility.yul\":1036:1070   */\n      gt\n        /* \"#utility.yul\":1033:1095   */\n      or\n        /* \"#utility.yul\":1030:1118   */\n      iszero\n      tag_366\n      jumpi\n        /* \"#utility.yul\":1098:1116   */\n      tag_367\n      tag_299\n      jump\t// in\n    tag_367:\n        /* \"#utility.yul\":1030:1118   */\n    tag_366:\n        /* \"#utility.yul\":1138:1148   */\n      dup1\n        /* \"#utility.yul\":1134:1136   */\n      0x40\n        /* \"#utility.yul\":1127:1149   */\n      mstore\n        /* \"#utility.yul\":917:1155   */\n      pop\n        /* \"#utility.yul\":874:1155   */\n      pop\n      pop\n      jump\t// out\n        /* \"#utility.yul\":1161:1290   */\n    tag_301:\n        /* \"#utility.yul\":1195:1201   */\n      0x00\n        /* \"#utility.yul\":1222:1242   */\n      tag_369\n      tag_293\n      jump\t// in\n    tag_369:\n        /* \"#utility.yul\":1212:1242   */\n      swap1\n      pop\n        /* \"#utility.yul\":1251:1284   */\n      tag_370\n        /* \"#utility.yul\":1279:1283   */\n      dup3\n        /* \"#utility.yul\":1271:1277   */\n      dup3\n        /* \"#utility.yul\":1251:1284   */\n      tag_300\n      jump\t// in\n    tag_370:\n        /* \"#utility.yul\":1161:1290   */\n      swap2\n      swap1\n      pop\n      jump\t// out\n        /* \"#utility.yul\":1296:1604   */\n    tag_302:\n        /* \"#utility.yul\":1358:1362   */\n      0x00\n        /* \"#utility.yul\":1448:1466   */\n      0xffffffffffffffff\n        /* \"#utility.yul\":1440:1446   */\n      dup3\n        /* \"#utility.yul\":1437:1467   */\n      gt\n        /* \"#utility.yul\":1434:1490   */\n      iszero\n      tag_372\n      jumpi\n        /* \"#utility.yul\":1470:1488   */\n      tag_373\n      tag_299\n      jump\t// in\n    tag_373:\n        /* \"#utility.yul\":1434:1490   */\n    tag_372:\n        /* \"#utility.yul\":1508:1537   */\n      tag_374\n        /* \"#utility.yul\":1530:1536   */\n      dup3\n        /* \"#utility.yul\":1508:1537   */\n      tag_298\n      jump\t// in\n    tag_374:\n        /* \"#utility.yul\":1500:1537   */\n      swap1\n      pop\n        /* \"#utility.yul\":1592:1596   */\n      0x20\n        /* \"#utility.yul\":1586:1590   */\n      dup2\n        /* \"#utility.yul\":1582:1597   */\n      add\n        /* \"#utility.yul\":1574:1597   */\n      swap1\n      pop\n        /* \"#utility.yul\":1296:1604   */\n      swap2\n      swap1\n      pop\n      jump\t// out\n        /* \"#utility.yul\":1610:1756   */\n    tag_303:\n        /* \"#utility.yul\":1707:1713   */\n      dup3\n        /* \"#utility.yul\":1702:1705   */\n      dup2\n        /* \"#utility.yul\":1697:1700   */\n      dup4\n        /* \"#utility.yul\":1684:1714   */\n      calldatacopy\n        /* \"#utility.yul\":1748:1749   */\n      0x00\n        /* \"#utility.yul\":1739:1745   */\n      dup4\n        /* \"#utility.yul\":1734:1737   */\n      dup4\n        /* \"#utility.yul\":1730:1746   */\n      add\n        /* \"#utility.yul\":1723:1750   */\n      mstore\n        /* \"#utility.yul\":1610:1756   */\n      pop\n      pop\n      pop\n      jump\t// out\n        /* \"#utility.yul\":1762:2187   */\n    tag_304:\n        /* \"#utility.yul\":1840:1845   */\n      0x00\n        /* \"#utility.yul\":1865:1931   */\n      tag_377\n        /* \"#utility.yul\":1881:1930   */\n      tag_378\n        /* \"#utility.yul\":1923:1929   */\n      dup5\n        /* \"#utility.yul\":1881:1930   */\n      tag_302\n      jump\t// in\n    tag_378:\n        /* \"#utility.yul\":1865:1931   */\n      tag_301\n      jump\t// in\n    tag_377:\n        /* \"#utility.yul\":1856:1931   */\n      swap1\n      pop\n        /* \"#utility.yul\":1954:1960   */\n      dup3\n        /* \"#utility.yul\":1947:1952   */\n      dup2\n        /* \"#utility.yul\":1940:1961   */\n      mstore\n        /* \"#utility.yul\":1992:1996   */\n      0x20\n        /* \"#utility.yul\":1985:1990   */\n      dup2\n        /* \"#utility.yul\":1981:1997   */\n      add\n        /* \"#utility.yul\":2030:2033   */\n      dup5\n        /* \"#utility.yul\":2021:2027   */\n      dup5\n        /* \"#utility.yul\":2016:2019   */\n      dup5\n        /* \"#utility.yul\":2012:2028   */\n      add\n        /* \"#utility.yul\":2009:2034   */\n      gt\n        /* \"#utility.yul\":2006:2118   */\n      iszero\n      tag_379\n      jumpi\n        /* \"#utility.yul\":2037:2116   */\n      tag_380\n      tag_297\n      jump\t// in\n    tag_380:\n        /* \"#utility.yul\":2006:2118   */\n    tag_379:\n        /* \"#utility.yul\":2127:2181   */\n      tag_381\n        /* \"#utility.yul\":2174:2180   */\n      dup5\n        /* \"#utility.yul\":2169:2172   */\n      dup3\n        /* \"#utility.yul\":2164:2167   */\n      dup6\n        /* \"#utility.yul\":2127:2181   */\n      tag_303\n      jump\t// in\n    tag_381:\n        /* \"#utility.yul\":1846:2187   */\n      pop\n        /* \"#utility.yul\":1762:2187   */\n      swap4\n      swap3\n      pop\n      pop\n      pop\n      jump\t// out\n        /* \"#utility.yul\":2207:2547   */\n    tag_305:\n        /* \"#utility.yul\":2263:2268   */\n      0x00\n        /* \"#utility.yul\":2312:2315   */\n      dup3\n        /* \"#utility.yul\":2305:2309   */\n      0x1f\n        /* \"#utility.yul\":2297:2303   */\n      dup4\n        /* \"#utility.yul\":2293:2310   */\n      add\n        /* \"#utility.yul\":2289:2316   */\n      slt\n        /* \"#utility.yul\":2279:2401   */\n      tag_383\n      jumpi\n        /* \"#utility.yul\":2320:2399   */\n      tag_384\n      tag_296\n      jump\t// in\n    tag_384:\n        /* \"#utility.yul\":2279:2401   */\n    tag_383:\n        /* \"#utility.yul\":2437:2443   */\n      dup2\n        /* \"#utility.yul\":2424:2444   */\n      calldataload\n        /* \"#utility.yul\":2462:2541   */\n      tag_385\n        /* \"#utility.yul\":2537:2540   */\n      dup5\n        /* \"#utility.yul\":2529:2535   */\n      dup3\n        /* \"#utility.yul\":2522:2526   */\n      0x20\n        /* \"#utility.yul\":2514:2520   */\n      dup7\n        /* \"#utility.yul\":2510:2527   */\n      add\n        /* \"#utility.yul\":2462:2541   */\n      tag_304\n      jump\t// in\n    tag_385:\n        /* \"#utility.yul\":2453:2541   */\n      swap2\n      pop\n        /* \"#utility.yul\":2269:2547   */\n      pop\n        /* \"#utility.yul\":2207:2547   */\n      swap3\n      swap2\n      pop\n      pop\n      jump\t// out\n        /* \"#utility.yul\":2553:3387   */\n    tag_18:\n        /* \"#utility.yul\":2641:2647   */\n      0x00\n        /* \"#utility.yul\":2649:2655   */\n      dup1\n        /* \"#utility.yul\":2698:2700   */\n      0x40\n        /* \"#utility.yul\":2686:2695   */\n      dup4\n        /* \"#utility.yul\":2677:2684   */\n      dup6\n        /* \"#utility.yul\":2673:2696   */\n      sub\n        /* \"#utility.yul\":2669:2701   */\n      slt\n        /* \"#utility.yul\":2666:2785   */\n      iszero\n      tag_387\n      jumpi\n        /* \"#utility.yul\":2704:2783   */\n      tag_388\n      tag_294\n      jump\t// in\n    tag_388:\n        /* \"#utility.yul\":2666:2785   */\n    tag_387:\n        /* \"#utility.yul\":2852:2853   */\n      0x00\n        /* \"#utility.yul\":2841:2850   */\n      dup4\n        /* \"#utility.yul\":2837:2854   */\n      add\n        /* \"#utility.yul\":2824:2855   */\n      calldataload\n        /* \"#utility.yul\":2882:2900   */\n      0xffffffffffffffff\n        /* \"#utility.yul\":2874:2880   */\n      dup2\n        /* \"#utility.yul\":2871:2901   */\n      gt\n        /* \"#utility.yul\":2868:2985   */\n      iszero\n      tag_389\n      jumpi\n        /* \"#utility.yul\":2904:2983   */\n      tag_390\n      tag_295\n      jump\t// in\n    tag_390:\n        /* \"#utility.yul\":2868:2985   */\n    tag_389:\n        /* \"#utility.yul\":3009:3072   */\n      tag_391\n        /* \"#utility.yul\":3064:3071   */\n      dup6\n        /* \"#utility.yul\":3055:3061   */\n      dup3\n        /* \"#utility.yul\":3044:3053   */\n      dup7\n        /* \"#utility.yul\":3040:3062   */\n      add\n        /* \"#utility.yul\":3009:3072   */\n      tag_305\n      jump\t// in\n    tag_391:\n        /* \"#utility.yul\":2999:3072   */\n      swap3\n      pop\n        /* \"#utility.yul\":2795:3082   */\n      pop\n        /* \"#utility.yul\":3149:3151   */\n      0x20\n        /* \"#utility.yul\":3138:3147   */\n      dup4\n        /* \"#utility.yul\":3134:3152   */\n      add\n        /* \"#utility.yul\":3121:3153   */\n      calldataload\n        /* \"#utility.yul\":3180:3198   */\n      0xffffffffffffffff\n        /* \"#utility.yul\":3172:3178   */\n      dup2\n        /* \"#utility.yul\":3169:3199   */\n      gt\n        /* \"#utility.yul\":3166:3283   */\n      iszero\n      tag_392\n      jumpi\n        /* \"#utility.yul\":3202:3281   */\n      tag_393\n      tag_295\n      jump\t// in\n    tag_393:\n        /* \"#utility.yul\":3166:3283   */\n    tag_392:\n        /* \"#utility.yul\":3307:3370   */\n      tag_394\n        /* \"#utility.yul\":3362:3369   */\n      dup6\n        /* \"#utility.yul\":3353:3359   */\n      dup3\n        /* \"#utility.yul\":3342:3351   */\n      dup7\n        /* \"#utility.yul\":3338:3360   */\n      add\n        /* \"#utility.yul\":3307:3370   */\n      tag_305\n      jump\t// in\n    tag_394:\n        /* \"#utility.yul\":3297:3370   */\n      swap2\n      pop\n        /* \"#utility.yul\":3092:3380   */\n      pop\n        /* \"#utility.yul\":2553:3387   */\n      swap3\n      pop\n      swap3\n      swap1\n      pop\n      jump\t// out\n        /* \"#utility.yul\":3393:3902   */\n    tag_25:\n        /* \"#utility.yul\":3462:3468   */\n      0x00\n        /* \"#utility.yul\":3511:3513   */\n      0x20\n        /* \"#utility.yul\":3499:3508   */\n      dup3\n        /* \"#utility.yul\":3490:3497   */\n      dup5\n        /* \"#utility.yul\":3486:3509   */\n      sub\n        /* \"#utility.yul\":3482:3514   */\n      slt\n        /* \"#utility.yul\":3479:3598   */\n      iszero\n      tag_396\n      jumpi\n        /* \"#utility.yul\":3517:3596   */\n      tag_397\n      tag_294\n      jump\t// in\n    tag_397:\n        /* \"#utility.yul\":3479:3598   */\n    tag_396:\n        /* \"#utility.yul\":3665:3666   */\n      0x00\n        /* \"#utility.yul\":3654:3663   */\n      dup3\n        /* \"#utility.yul\":3650:3667   */\n      add\n        /* \"#utility.yul\":3637:3668   */\n      calldataload\n        /* \"#utility.yul\":3695:3713   */\n      0xffffffffffffffff\n        /* \"#utility.yul\":3687:3693   */\n      dup2\n        /* \"#utility.yul\":3684:3714   */\n      gt\n        /* \"#utility.yul\":3681:3798   */\n      iszero\n      tag_398\n      jumpi\n        /* \"#utility.yul\":3717:3796   */\n      tag_399\n      tag_295\n      jump\t// in\n    tag_399:\n        /* \"#utility.yul\":3681:3798   */\n    tag_398:\n        /* \"#utility.yul\":3822:3885   */\n      tag_400\n        /* \"#utility.yul\":3877:3884   */\n      dup5\n        /* \"#utility.yul\":3868:3874   */\n      dup3\n        /* \"#utility.yul\":3857:3866   */\n      dup6\n        /* \"#utility.yul\":3853:3875   */\n      add\n        /* \"#utility.yul\":3822:3885   */\n      tag_305\n      jump\t// in\n    tag_400:\n        /* \"#utility.yul\":3812:3885   */\n      swap2\n      pop\n        /* \"#utility.yul\":3608:3895   */\n      pop\n        /* \"#utility.yul\":3393:3902   */\n      swap3\n      swap2\n      pop\n      pop\n      jump\t// out\n        /* \"#utility.yul\":3908:4007   */\n    tag_306:\n        /* \"#utility.yul\":3960:3966   */\n      0x00\n        /* \"#utility.yul\":3994:3999   */\n      dup2\n        /* \"#utility.yul\":3988:4000   */\n      mload\n        /* \"#utility.yul\":3978:4000   */\n      swap1\n      pop\n        /* \"#utility.yul\":3908:4007   */\n      swap2\n      swap1\n      pop\n      jump\t// out\n        /* \"#utility.yul\":4013:4172   */\n    tag_307:\n        /* \"#utility.yul\":4087:4098   */\n      0x00\n        /* \"#utility.yul\":4121:4127   */\n      dup3\n        /* \"#utility.yul\":4116:4119   */\n      dup3\n        /* \"#utility.yul\":4109:4128   */\n      mstore\n        /* \"#utility.yul\":4161:4165   */\n      0x20\n        /* \"#utility.yul\":4156:4159   */\n      dup3\n        /* \"#utility.yul\":4152:4166   */\n      add\n        /* \"#utility.yul\":4137:4166   */\n      swap1\n      pop\n        /* \"#utility.yul\":4013:4172   */\n      swap3\n      swap2\n      pop\n      pop\n      jump\t// out\n        /* \"#utility.yul\":4178:4424   */\n    tag_308:\n        /* \"#utility.yul\":4259:4260   */\n      0x00\n        /* \"#utility.yul\":4269:4382   */\n    tag_404:\n        /* \"#utility.yul\":4283:4289   */\n      dup4\n        /* \"#utility.yul\":4280:4281   */\n      dup2\n        /* \"#utility.yul\":4277:4290   */\n      lt\n        /* \"#utility.yul\":4269:4382   */\n      iszero\n      tag_406\n      jumpi\n        /* \"#utility.yul\":4368:4369   */\n      dup1\n        /* \"#utility.yul\":4363:4366   */\n      dup3\n        /* \"#utility.yul\":4359:4370   */\n      add\n        /* \"#utility.yul\":4353:4371   */\n      mload\n        /* \"#utility.yul\":4349:4350   */\n      dup2\n        /* \"#utility.yul\":4344:4347   */\n      dup5\n        /* \"#utility.yul\":4340:4351   */\n      add\n        /* \"#utility.yul\":4333:4372   */\n      mstore\n        /* \"#utility.yul\":4305:4307   */\n      0x20\n        /* \"#utility.yul\":4302:4303   */\n      dup2\n        /* \"#utility.yul\":4298:4308   */\n      add\n        /* \"#utility.yul\":4293:4308   */\n      swap1\n      pop\n        /* \"#utility.yul\":4269:4382   */\n      jump(tag_404)\n    tag_406:\n        /* \"#utility.yul\":4416:4417   */\n      0x00\n        /* \"#utility.yul\":4407:4413   */\n      dup5\n        /* \"#utility.yul\":4402:4405   */\n      dup5\n        /* \"#utility.yul\":4398:4414   */\n      add\n        /* \"#utility.yul\":4391:4418   */\n      mstore\n        /* \"#utility.yul\":4240:4424   */\n      pop\n        /* \"#utility.yul\":4178:4424   */\n      pop\n      pop\n      pop\n      jump\t// out\n        /* \"#utility.yul\":4430:4787   */\n    tag_309:\n        /* \"#utility.yul\":4508:4511   */\n      0x00\n        /* \"#utility.yul\":4536:4575   */\n      tag_408\n        /* \"#utility.yul\":4569:4574   */\n      dup3\n        /* \"#utility.yul\":4536:4575   */\n      tag_306\n      jump\t// in\n    tag_408:\n        /* \"#utility.yul\":4591:4652   */\n      tag_409\n        /* \"#utility.yul\":4645:4651   */\n      dup2\n        /* \"#utility.yul\":4640:4643   */\n      dup6\n        /* \"#utility.yul\":4591:4652   */\n      tag_307\n      jump\t// in\n    tag_409:\n        /* \"#utility.yul\":4584:4652   */\n      swap4\n      pop\n        /* \"#utility.yul\":4661:4726   */\n      tag_410\n        /* \"#utility.yul\":4719:4725   */\n      dup2\n        /* \"#utility.yul\":4714:4717   */\n      dup6\n        /* \"#utility.yul\":4707:4711   */\n      0x20\n        /* \"#utility.yul\":4700:4705   */\n      dup7\n        /* \"#utility.yul\":4696:4712   */\n      add\n        /* \"#utility.yul\":4661:4726   */\n      tag_308\n      jump\t// in\n    tag_410:\n        /* \"#utility.yul\":4751:4780   */\n      tag_411\n        /* \"#utility.yul\":4773:4779   */\n      dup2\n        /* \"#utility.yul\":4751:4780   */\n      tag_298\n      jump\t// in\n    tag_411:\n        /* \"#utility.yul\":4746:4749   */\n      dup5\n        /* \"#utility.yul\":4742:4781   */\n      add\n        /* \"#utility.yul\":4735:4781   */\n      swap2\n      pop\n        /* \"#utility.yul\":4512:4787   */\n      pop\n        /* \"#utility.yul\":4430:4787   */\n      swap3\n      swap2\n      pop\n      pop\n      jump\t// out\n        /* \"#utility.yul\":4793:4917   */\n    tag_310:\n        /* \"#utility.yul\":4870:4876   */\n      0x00\n        /* \"#utility.yul\":4904:4909   */\n      dup2\n        /* \"#utility.yul\":4898:4910   */\n      mload\n        /* \"#utility.yul\":4888:4910   */\n      swap1\n      pop\n        /* \"#utility.yul\":4793:4917   */\n      swap2\n      swap1\n      pop\n      jump\t// out\n        /* \"#utility.yul\":4923:5107   */\n    tag_311:\n        /* \"#utility.yul\":5022:5033   */\n      0x00\n        /* \"#utility.yul\":5056:5062   */\n      dup3\n        /* \"#utility.yul\":5051:5054   */\n      dup3\n        /* \"#utility.yul\":5044:5063   */\n      mstore\n        /* \"#utility.yul\":5096:5100   */\n      0x20\n        /* \"#utility.yul\":5091:5094   */\n      dup3\n        /* \"#utility.yul\":5087:5101   */\n      add\n        /* \"#utility.yul\":5072:5101   */\n      swap1\n      pop\n        /* \"#utility.yul\":4923:5107   */\n      swap3\n      swap2\n      pop\n      pop\n      jump\t// out\n        /* \"#utility.yul\":5113:5255   */\n    tag_312:\n        /* \"#utility.yul\":5190:5194   */\n      0x00\n        /* \"#utility.yul\":5213:5216   */\n      dup2\n        /* \"#utility.yul\":5205:5216   */\n      swap1\n      pop\n        /* \"#utility.yul\":5243:5247   */\n      0x20\n        /* \"#utility.yul\":5238:5241   */\n      dup3\n        /* \"#utility.yul\":5234:5248   */\n      add\n        /* \"#utility.yul\":5226:5248   */\n      swap1\n      pop\n        /* \"#utility.yul\":5113:5255   */\n      swap2\n      swap1\n      pop\n      jump\t// out\n        /* \"#utility.yul\":5261:5457   */\n    tag_313:\n        /* \"#utility.yul\":5350:5360   */\n      0x00\n        /* \"#utility.yul\":5385:5451   */\n      tag_416\n        /* \"#utility.yul\":5447:5450   */\n      dup4\n        /* \"#utility.yul\":5439:5445   */\n      dup4\n        /* \"#utility.yul\":5385:5451   */\n      tag_309\n      jump\t// in\n    tag_416:\n        /* \"#utility.yul\":5371:5451   */\n      swap1\n      pop\n        /* \"#utility.yul\":5261:5457   */\n      swap3\n      swap2\n      pop\n      pop\n      jump\t// out\n        /* \"#utility.yul\":5463:5586   */\n    tag_314:\n        /* \"#utility.yul\":5543:5547   */\n      0x00\n        /* \"#utility.yul\":5575:5579   */\n      0x20\n        /* \"#utility.yul\":5570:5573   */\n      dup3\n        /* \"#utility.yul\":5566:5580   */\n      add\n        /* \"#utility.yul\":5558:5580   */\n      swap1\n      pop\n        /* \"#utility.yul\":5463:5586   */\n      swap2\n      swap1\n      pop\n      jump\t// out\n        /* \"#utility.yul\":5620:6591   */\n    tag_315:\n        /* \"#utility.yul\":5749:5752   */\n      0x00\n        /* \"#utility.yul\":5778:5842   */\n      tag_419\n        /* \"#utility.yul\":5836:5841   */\n      dup3\n        /* \"#utility.yul\":5778:5842   */\n      tag_310\n      jump\t// in\n    tag_419:\n        /* \"#utility.yul\":5858:5944   */\n      tag_420\n        /* \"#utility.yul\":5937:5943   */\n      dup2\n        /* \"#utility.yul\":5932:5935   */\n      dup6\n        /* \"#utility.yul\":5858:5944   */\n      tag_311\n      jump\t// in\n    tag_420:\n        /* \"#utility.yul\":5851:5944   */\n      swap4\n      pop\n        /* \"#utility.yul\":5970:5973   */\n      dup4\n        /* \"#utility.yul\":6015:6019   */\n      0x20\n        /* \"#utility.yul\":6007:6013   */\n      dup3\n        /* \"#utility.yul\":6003:6020   */\n      mul\n        /* \"#utility.yul\":5998:6001   */\n      dup6\n        /* \"#utility.yul\":5994:6021   */\n      add\n        /* \"#utility.yul\":6045:6111   */\n      tag_421\n        /* \"#utility.yul\":6105:6110   */\n      dup6\n        /* \"#utility.yul\":6045:6111   */\n      tag_312\n      jump\t// in\n    tag_421:\n        /* \"#utility.yul\":6134:6141   */\n      dup1\n        /* \"#utility.yul\":6165:6166   */\n      0x00\n        /* \"#utility.yul\":6150:6546   */\n    tag_422:\n        /* \"#utility.yul\":6175:6181   */\n      dup6\n        /* \"#utility.yul\":6172:6173   */\n      dup2\n        /* \"#utility.yul\":6169:6182   */\n      lt\n        /* \"#utility.yul\":6150:6546   */\n      iszero\n      tag_424\n      jumpi\n        /* \"#utility.yul\":6246:6255   */\n      dup5\n        /* \"#utility.yul\":6240:6244   */\n      dup5\n        /* \"#utility.yul\":6236:6256   */\n      sub\n        /* \"#utility.yul\":6231:6234   */\n      dup10\n        /* \"#utility.yul\":6224:6257   */\n      mstore\n        /* \"#utility.yul\":6297:6303   */\n      dup2\n        /* \"#utility.yul\":6291:6304   */\n      mload\n        /* \"#utility.yul\":6325:6409   */\n      tag_425\n        /* \"#utility.yul\":6404:6408   */\n      dup6\n        /* \"#utility.yul\":6389:6402   */\n      dup3\n        /* \"#utility.yul\":6325:6409   */\n      tag_313\n      jump\t// in\n    tag_425:\n        /* \"#utility.yul\":6317:6409   */\n      swap5\n      pop\n        /* \"#utility.yul\":6432:6502   */\n      tag_426\n        /* \"#utility.yul\":6495:6501   */\n      dup4\n        /* \"#utility.yul\":6432:6502   */\n      tag_314\n      jump\t// in\n    tag_426:\n        /* \"#utility.yul\":6422:6502   */\n      swap3\n      pop\n        /* \"#utility.yul\":6531:6535   */\n      0x20\n        /* \"#utility.yul\":6526:6529   */\n      dup11\n        /* \"#utility.yul\":6522:6536   */\n      add\n        /* \"#utility.yul\":6515:6536   */\n      swap10\n      pop\n        /* \"#utility.yul\":6210:6546   */\n      pop\n        /* \"#utility.yul\":6197:6198   */\n      0x01\n        /* \"#utility.yul\":6194:6195   */\n      dup2\n        /* \"#utility.yul\":6190:6199   */\n      add\n        /* \"#utility.yul\":6185:6199   */\n      swap1\n      pop\n        /* \"#utility.yul\":6150:6546   */\n      jump(tag_422)\n    tag_424:\n        /* \"#utility.yul\":6154:6168   */\n      pop\n        /* \"#utility.yul\":6562:6566   */\n      dup3\n        /* \"#utility.yul\":6555:6566   */\n      swap8\n      pop\n        /* \"#utility.yul\":6582:6585   */\n      dup8\n        /* \"#utility.yul\":6575:6585   */\n      swap6\n      pop\n        /* \"#utility.yul\":5754:6591   */\n      pop\n      pop\n      pop\n      pop\n      pop\n        /* \"#utility.yul\":5620:6591   */\n      swap3\n      swap2\n      pop\n      pop\n      jump\t// out\n        /* \"#utility.yul\":6597:6711   */\n    tag_316:\n        /* \"#utility.yul\":6664:6670   */\n      0x00\n        /* \"#utility.yul\":6698:6703   */\n      dup2\n        /* \"#utility.yul\":6692:6704   */\n      mload\n        /* \"#utility.yul\":6682:6704   */\n      swap1\n      pop\n        /* \"#utility.yul\":6597:6711   */\n      swap2\n      swap1\n      pop\n      jump\t// out\n        /* \"#utility.yul\":6717:6891   */\n    tag_317:\n        /* \"#utility.yul\":6806:6817   */\n      0x00\n        /* \"#utility.yul\":6840:6846   */\n      dup3\n        /* \"#utility.yul\":6835:6838   */\n      dup3\n        /* \"#utility.yul\":6828:6847   */\n      mstore\n        /* \"#utility.yul\":6880:6884   */\n      0x20\n        /* \"#utility.yul\":6875:6878   */\n      dup3\n        /* \"#utility.yul\":6871:6885   */\n      add\n        /* \"#utility.yul\":6856:6885   */\n      swap1\n      pop\n        /* \"#utility.yul\":6717:6891   */\n      swap3\n      swap2\n      pop\n      pop\n      jump\t// out\n        /* \"#utility.yul\":6897:7029   */\n    tag_318:\n        /* \"#utility.yul\":6964:6968   */\n      0x00\n        /* \"#utility.yul\":6987:6990   */\n      dup2\n        /* \"#utility.yul\":6979:6990   */\n      swap1\n      pop\n        /* \"#utility.yul\":7017:7021   */\n      0x20\n        /* \"#utility.yul\":7012:7015   */\n      dup3\n        /* \"#utility.yul\":7008:7022   */\n      add\n        /* \"#utility.yul\":7000:7022   */\n      swap1\n      pop\n        /* \"#utility.yul\":6897:7029   */\n      swap2\n      swap1\n      pop\n      jump\t// out\n        /* \"#utility.yul\":7035:7112   */\n    tag_319:\n        /* \"#utility.yul\":7072:7079   */\n      0x00\n        /* \"#utility.yul\":7101:7106   */\n      dup2\n        /* \"#utility.yul\":7090:7106   */\n      swap1\n      pop\n        /* \"#utility.yul\":7035:7112   */\n      swap2\n      swap1\n      pop\n      jump\t// out\n        /* \"#utility.yul\":7118:7226   */\n    tag_320:\n        /* \"#utility.yul\":7195:7219   */\n      tag_432\n        /* \"#utility.yul\":7213:7218   */\n      dup2\n        /* \"#utility.yul\":7195:7219   */\n      tag_319\n      jump\t// in\n    tag_432:\n        /* \"#utility.yul\":7190:7193   */\n      dup3\n        /* \"#utility.yul\":7183:7220   */\n      mstore\n        /* \"#utility.yul\":7118:7226   */\n      pop\n      pop\n      jump\t// out\n        /* \"#utility.yul\":7232:7411   */\n    tag_321:\n        /* \"#utility.yul\":7301:7311   */\n      0x00\n        /* \"#utility.yul\":7322:7368   */\n      tag_434\n        /* \"#utility.yul\":7364:7367   */\n      dup4\n        /* \"#utility.yul\":7356:7362   */\n      dup4\n        /* \"#utility.yul\":7322:7368   */\n      tag_320\n      jump\t// in\n    tag_434:\n        /* \"#utility.yul\":7400:7404   */\n      0x20\n        /* \"#utility.yul\":7395:7398   */\n      dup4\n        /* \"#utility.yul\":7391:7405   */\n      add\n        /* \"#utility.yul\":7377:7405   */\n      swap1\n      pop\n        /* \"#utility.yul\":7232:7411   */\n      swap3\n      swap2\n      pop\n      pop\n      jump\t// out\n        /* \"#utility.yul\":7417:7530   */\n    tag_322:\n        /* \"#utility.yul\":7487:7491   */\n      0x00\n        /* \"#utility.yul\":7519:7523   */\n      0x20\n        /* \"#utility.yul\":7514:7517   */\n      dup3\n        /* \"#utility.yul\":7510:7524   */\n      add\n        /* \"#utility.yul\":7502:7524   */\n      swap1\n      pop\n        /* \"#utility.yul\":7417:7530   */\n      swap2\n      swap1\n      pop\n      jump\t// out\n        /* \"#utility.yul\":7566:8278   */\n    tag_323:\n        /* \"#utility.yul\":7675:7678   */\n      0x00\n        /* \"#utility.yul\":7704:7758   */\n      tag_437\n        /* \"#utility.yul\":7752:7757   */\n      dup3\n        /* \"#utility.yul\":7704:7758   */\n      tag_316\n      jump\t// in\n    tag_437:\n        /* \"#utility.yul\":7774:7850   */\n      tag_438\n        /* \"#utility.yul\":7843:7849   */\n      dup2\n        /* \"#utility.yul\":7838:7841   */\n      dup6\n        /* \"#utility.yul\":7774:7850   */\n      tag_317\n      jump\t// in\n    tag_438:\n        /* \"#utility.yul\":7767:7850   */\n      swap4\n      pop\n        /* \"#utility.yul\":7874:7930   */\n      tag_439\n        /* \"#utility.yul\":7924:7929   */\n      dup4\n        /* \"#utility.yul\":7874:7930   */\n      tag_318\n      jump\t// in\n    tag_439:\n        /* \"#utility.yul\":7953:7960   */\n      dup1\n        /* \"#utility.yul\":7984:7985   */\n      0x00\n        /* \"#utility.yul\":7969:8253   */\n    tag_440:\n        /* \"#utility.yul\":7994:8000   */\n      dup4\n        /* \"#utility.yul\":7991:7992   */\n      dup2\n        /* \"#utility.yul\":7988:8001   */\n      lt\n        /* \"#utility.yul\":7969:8253   */\n      iszero\n      tag_442\n      jumpi\n        /* \"#utility.yul\":8070:8076   */\n      dup2\n        /* \"#utility.yul\":8064:8077   */\n      mload\n        /* \"#utility.yul\":8097:8160   */\n      tag_443\n        /* \"#utility.yul\":8156:8159   */\n      dup9\n        /* \"#utility.yul\":8141:8154   */\n      dup3\n        /* \"#utility.yul\":8097:8160   */\n      tag_321\n      jump\t// in\n    tag_443:\n        /* \"#utility.yul\":8090:8160   */\n      swap8\n      pop\n        /* \"#utility.yul\":8183:8243   */\n      tag_444\n        /* \"#utility.yul\":8236:8242   */\n      dup4\n        /* \"#utility.yul\":8183:8243   */\n      tag_322\n      jump\t// in\n    tag_444:\n        /* \"#utility.yul\":8173:8243   */\n      swap3\n      pop\n        /* \"#utility.yul\":8029:8253   */\n      pop\n        /* \"#utility.yul\":8016:8017   */\n      0x01\n        /* \"#utility.yul\":8013:8014   */\n      dup2\n        /* \"#utility.yul\":8009:8018   */\n      add\n        /* \"#utility.yul\":8004:8018   */\n      swap1\n      pop\n        /* \"#utility.yul\":7969:8253   */\n      jump(tag_440)\n    tag_442:\n        /* \"#utility.yul\":7973:7987   */\n      pop\n        /* \"#utility.yul\":8269:8272   */\n      dup6\n        /* \"#utility.yul\":8262:8272   */\n      swap4\n      pop\n        /* \"#utility.yul\":7680:8278   */\n      pop\n      pop\n      pop\n        /* \"#utility.yul\":7566:8278   */\n      swap3\n      swap2\n      pop\n      pop\n      jump\t// out\n        /* \"#utility.yul\":8334:9591   */\n    tag_324:\n        /* \"#utility.yul\":8443:8446   */\n      0x00\n        /* \"#utility.yul\":8479:8483   */\n      0x80\n        /* \"#utility.yul\":8474:8477   */\n      dup4\n        /* \"#utility.yul\":8470:8484   */\n      add\n        /* \"#utility.yul\":8573:8577   */\n      0x00\n        /* \"#utility.yul\":8566:8571   */\n      dup4\n        /* \"#utility.yul\":8562:8578   */\n      add\n        /* \"#utility.yul\":8556:8579   */\n      mload\n        /* \"#utility.yul\":8626:8629   */\n      dup5\n        /* \"#utility.yul\":8620:8624   */\n      dup3\n        /* \"#utility.yul\":8616:8630   */\n      sub\n        /* \"#utility.yul\":8609:8613   */\n      0x00\n        /* \"#utility.yul\":8604:8607   */\n      dup7\n        /* \"#utility.yul\":8600:8614   */\n      add\n        /* \"#utility.yul\":8593:8631   */\n      mstore\n        /* \"#utility.yul\":8652:8725   */\n      tag_446\n        /* \"#utility.yul\":8720:8724   */\n      dup3\n        /* \"#utility.yul\":8706:8718   */\n      dup3\n        /* \"#utility.yul\":8652:8725   */\n      tag_309\n      jump\t// in\n    tag_446:\n        /* \"#utility.yul\":8644:8725   */\n      swap2\n      pop\n        /* \"#utility.yul\":8494:8736   */\n      pop\n        /* \"#utility.yul\":8824:8828   */\n      0x20\n        /* \"#utility.yul\":8817:8822   */\n      dup4\n        /* \"#utility.yul\":8813:8829   */\n      add\n        /* \"#utility.yul\":8807:8830   */\n      mload\n        /* \"#utility.yul\":8877:8880   */\n      dup5\n        /* \"#utility.yul\":8871:8875   */\n      dup3\n        /* \"#utility.yul\":8867:8881   */\n      sub\n        /* \"#utility.yul\":8860:8864   */\n      0x20\n        /* \"#utility.yul\":8855:8858   */\n      dup7\n        /* \"#utility.yul\":8851:8865   */\n      add\n        /* \"#utility.yul\":8844:8882   */\n      mstore\n        /* \"#utility.yul\":8903:8976   */\n      tag_447\n        /* \"#utility.yul\":8971:8975   */\n      dup3\n        /* \"#utility.yul\":8957:8969   */\n      dup3\n        /* \"#utility.yul\":8903:8976   */\n      tag_309\n      jump\t// in\n    tag_447:\n        /* \"#utility.yul\":8895:8976   */\n      swap2\n      pop\n        /* \"#utility.yul\":8746:8987   */\n      pop\n        /* \"#utility.yul\":9072:9076   */\n      0x40\n        /* \"#utility.yul\":9065:9070   */\n      dup4\n        /* \"#utility.yul\":9061:9077   */\n      add\n        /* \"#utility.yul\":9055:9078   */\n      mload\n        /* \"#utility.yul\":9125:9128   */\n      dup5\n        /* \"#utility.yul\":9119:9123   */\n      dup3\n        /* \"#utility.yul\":9115:9129   */\n      sub\n        /* \"#utility.yul\":9108:9112   */\n      0x40\n        /* \"#utility.yul\":9103:9106   */\n      dup7\n        /* \"#utility.yul\":9099:9113   */\n      add\n        /* \"#utility.yul\":9092:9130   */\n      mstore\n        /* \"#utility.yul\":9151:9274   */\n      tag_448\n        /* \"#utility.yul\":9269:9273   */\n      dup3\n        /* \"#utility.yul\":9255:9267   */\n      dup3\n        /* \"#utility.yul\":9151:9274   */\n      tag_315\n      jump\t// in\n    tag_448:\n        /* \"#utility.yul\":9143:9274   */\n      swap2\n      pop\n        /* \"#utility.yul\":8997:9285   */\n      pop\n        /* \"#utility.yul\":9371:9375   */\n      0x60\n        /* \"#utility.yul\":9364:9369   */\n      dup4\n        /* \"#utility.yul\":9360:9376   */\n      add\n        /* \"#utility.yul\":9354:9377   */\n      mload\n        /* \"#utility.yul\":9424:9427   */\n      dup5\n        /* \"#utility.yul\":9418:9422   */\n      dup3\n        /* \"#utility.yul\":9414:9428   */\n      sub\n        /* \"#utility.yul\":9407:9411   */\n      0x60\n        /* \"#utility.yul\":9402:9405   */\n      dup7\n        /* \"#utility.yul\":9398:9412   */\n      add\n        /* \"#utility.yul\":9391:9429   */\n      mstore\n        /* \"#utility.yul\":9450:9553   */\n      tag_449\n        /* \"#utility.yul\":9548:9552   */\n      dup3\n        /* \"#utility.yul\":9534:9546   */\n      dup3\n        /* \"#utility.yul\":9450:9553   */\n      tag_323\n      jump\t// in\n    tag_449:\n        /* \"#utility.yul\":9442:9553   */\n      swap2\n      pop\n        /* \"#utility.yul\":9295:9564   */\n      pop\n        /* \"#utility.yul\":9581:9585   */\n      dup1\n        /* \"#utility.yul\":9574:9585   */\n      swap2\n      pop\n        /* \"#utility.yul\":8448:9591   */\n      pop\n        /* \"#utility.yul\":8334:9591   */\n      swap3\n      swap2\n      pop\n      pop\n      jump\t// out\n        /* \"#utility.yul\":9597:9950   */\n    tag_28:\n        /* \"#utility.yul\":9730:9734   */\n      0x00\n        /* \"#utility.yul\":9768:9770   */\n      0x20\n        /* \"#utility.yul\":9757:9766   */\n      dup3\n        /* \"#utility.yul\":9753:9771   */\n      add\n        /* \"#utility.yul\":9745:9771   */\n      swap1\n      pop\n        /* \"#utility.yul\":9817:9826   */\n      dup2\n        /* \"#utility.yul\":9811:9815   */\n      dup2\n        /* \"#utility.yul\":9807:9827   */\n      sub\n        /* \"#utility.yul\":9803:9804   */\n      0x00\n        /* \"#utility.yul\":9792:9801   */\n      dup4\n        /* \"#utility.yul\":9788:9805   */\n      add\n        /* \"#utility.yul\":9781:9828   */\n      mstore\n        /* \"#utility.yul\":9845:9943   */\n      tag_451\n        /* \"#utility.yul\":9938:9942   */\n      dup2\n        /* \"#utility.yul\":9929:9935   */\n      dup5\n        /* \"#utility.yul\":9845:9943   */\n      tag_324\n      jump\t// in\n    tag_451:\n        /* \"#utility.yul\":9837:9943   */\n      swap1\n      pop\n        /* \"#utility.yul\":9597:9950   */\n      swap3\n      swap2\n      pop\n      pop\n      jump\t// out\n        /* \"#utility.yul\":9956:10277   */\n    tag_325:\n        /* \"#utility.yul\":10043:10047   */\n      0x00\n        /* \"#utility.yul\":10133:10151   */\n      0xffffffffffffffff\n        /* \"#utility.yul\":10125:10131   */\n      dup3\n        /* \"#utility.yul\":10122:10152   */\n      gt\n        /* \"#utility.yul\":10119:10175   */\n      iszero\n      tag_453\n      jumpi\n        /* \"#utility.yul\":10155:10173   */\n      tag_454\n      tag_299\n      jump\t// in\n    tag_454:\n        /* \"#utility.yul\":10119:10175   */\n    tag_453:\n        /* \"#utility.yul\":10205:10209   */\n      0x20\n        /* \"#utility.yul\":10197:10203   */\n      dup3\n        /* \"#utility.yul\":10193:10210   */\n      mul\n        /* \"#utility.yul\":10185:10210   */\n      swap1\n      pop\n        /* \"#utility.yul\":10265:10269   */\n      0x20\n        /* \"#utility.yul\":10259:10263   */\n      dup2\n        /* \"#utility.yul\":10255:10270   */\n      add\n        /* \"#utility.yul\":10247:10270   */\n      swap1\n      pop\n        /* \"#utility.yul\":9956:10277   */\n      swap2\n      swap1\n      pop\n      jump\t// out\n        /* \"#utility.yul\":10283:10400   */\n    tag_326:\n        /* \"#utility.yul\":10392:10393   */\n      0x00\n        /* \"#utility.yul\":10389:10390   */\n      dup1\n        /* \"#utility.yul\":10382:10394   */\n      revert\n        /* \"#utility.yul\":10422:11367   */\n    tag_327:\n        /* \"#utility.yul\":10528:10533   */\n      0x00\n        /* \"#utility.yul\":10553:10644   */\n      tag_457\n        /* \"#utility.yul\":10569:10643   */\n      tag_458\n        /* \"#utility.yul\":10636:10642   */\n      dup5\n        /* \"#utility.yul\":10569:10643   */\n      tag_325\n      jump\t// in\n    tag_458:\n        /* \"#utility.yul\":10553:10644   */\n      tag_301\n      jump\t// in\n    tag_457:\n        /* \"#utility.yul\":10544:10644   */\n      swap1\n      pop\n        /* \"#utility.yul\":10664:10669   */\n      dup1\n        /* \"#utility.yul\":10693:10699   */\n      dup4\n        /* \"#utility.yul\":10686:10691   */\n      dup3\n        /* \"#utility.yul\":10679:10700   */\n      mstore\n        /* \"#utility.yul\":10727:10731   */\n      0x20\n        /* \"#utility.yul\":10720:10725   */\n      dup3\n        /* \"#utility.yul\":10716:10732   */\n      add\n        /* \"#utility.yul\":10709:10732   */\n      swap1\n      pop\n        /* \"#utility.yul\":10780:10784   */\n      0x20\n        /* \"#utility.yul\":10772:10778   */\n      dup5\n        /* \"#utility.yul\":10768:10785   */\n      mul\n        /* \"#utility.yul\":10760:10766   */\n      dup4\n        /* \"#utility.yul\":10756:10786   */\n      add\n        /* \"#utility.yul\":10809:10812   */\n      dup6\n        /* \"#utility.yul\":10801:10807   */\n      dup2\n        /* \"#utility.yul\":10798:10813   */\n      gt\n        /* \"#utility.yul\":10795:10917   */\n      iszero\n      tag_459\n      jumpi\n        /* \"#utility.yul\":10828:10907   */\n      tag_460\n      tag_326\n      jump\t// in\n    tag_460:\n        /* \"#utility.yul\":10795:10917   */\n    tag_459:\n        /* \"#utility.yul\":10943:10949   */\n      dup4\n        /* \"#utility.yul\":10926:11361   */\n    tag_461:\n        /* \"#utility.yul\":10960:10966   */\n      dup2\n        /* \"#utility.yul\":10955:10958   */\n      dup2\n        /* \"#utility.yul\":10952:10967   */\n      lt\n        /* \"#utility.yul\":10926:11361   */\n      iszero\n      tag_463\n      jumpi\n        /* \"#utility.yul\":11049:11052   */\n      dup1\n        /* \"#utility.yul\":11036:11053   */\n      calldataload\n        /* \"#utility.yul\":11085:11103   */\n      0xffffffffffffffff\n        /* \"#utility.yul\":11072:11083   */\n      dup2\n        /* \"#utility.yul\":11069:11104   */\n      gt\n        /* \"#utility.yul\":11066:11188   */\n      iszero\n      tag_464\n      jumpi\n        /* \"#utility.yul\":11107:11186   */\n      tag_465\n      tag_296\n      jump\t// in\n    tag_465:\n        /* \"#utility.yul\":11066:11188   */\n    tag_464:\n        /* \"#utility.yul\":11231:11242   */\n      dup1\n        /* \"#utility.yul\":11223:11229   */\n      dup7\n        /* \"#utility.yul\":11219:11243   */\n      add\n        /* \"#utility.yul\":11269:11316   */\n      tag_466\n        /* \"#utility.yul\":11312:11315   */\n      dup10\n        /* \"#utility.yul\":11300:11310   */\n      dup3\n        /* \"#utility.yul\":11269:11316   */\n      tag_305\n      jump\t// in\n    tag_466:\n        /* \"#utility.yul\":11264:11267   */\n      dup6\n        /* \"#utility.yul\":11257:11317   */\n      mstore\n        /* \"#utility.yul\":11346:11350   */\n      0x20\n        /* \"#utility.yul\":11341:11344   */\n      dup6\n        /* \"#utility.yul\":11337:11351   */\n      add\n        /* \"#utility.yul\":11330:11351   */\n      swap5\n      pop\n        /* \"#utility.yul\":11002:11361   */\n      pop\n      pop\n        /* \"#utility.yul\":10986:10990   */\n      0x20\n        /* \"#utility.yul\":10981:10984   */\n      dup2\n        /* \"#utility.yul\":10977:10991   */\n      add\n        /* \"#utility.yul\":10970:10991   */\n      swap1\n      pop\n        /* \"#utility.yul\":10926:11361   */\n      jump(tag_461)\n    tag_463:\n        /* \"#utility.yul\":10930:10951   */\n      pop\n        /* \"#utility.yul\":10534:11367   */\n      pop\n      pop\n        /* \"#utility.yul\":10422:11367   */\n      swap4\n      swap3\n      pop\n      pop\n      pop\n      jump\t// out\n        /* \"#utility.yul\":11389:11779   */\n    tag_328:\n        /* \"#utility.yul\":11470:11475   */\n      0x00\n        /* \"#utility.yul\":11519:11522   */\n      dup3\n        /* \"#utility.yul\":11512:11516   */\n      0x1f\n        /* \"#utility.yul\":11504:11510   */\n      dup4\n        /* \"#utility.yul\":11500:11517   */\n      add\n        /* \"#utility.yul\":11496:11523   */\n      slt\n        /* \"#utility.yul\":11486:11608   */\n      tag_468\n      jumpi\n        /* \"#utility.yul\":11527:11606   */\n      tag_469\n      tag_296\n      jump\t// in\n    tag_469:\n        /* \"#utility.yul\":11486:11608   */\n    tag_468:\n        /* \"#utility.yul\":11644:11650   */\n      dup2\n        /* \"#utility.yul\":11631:11651   */\n      calldataload\n        /* \"#utility.yul\":11669:11773   */\n      tag_470\n        /* \"#utility.yul\":11769:11772   */\n      dup5\n        /* \"#utility.yul\":11761:11767   */\n      dup3\n        /* \"#utility.yul\":11754:11758   */\n      0x20\n        /* \"#utility.yul\":11746:11752   */\n      dup7\n        /* \"#utility.yul\":11742:11759   */\n      add\n        /* \"#utility.yul\":11669:11773   */\n      tag_327\n      jump\t// in\n    tag_470:\n        /* \"#utility.yul\":11660:11773   */\n      swap2\n      pop\n        /* \"#utility.yul\":11476:11779   */\n      pop\n        /* \"#utility.yul\":11389:11779   */\n      swap3\n      swap2\n      pop\n      pop\n      jump\t// out\n        /* \"#utility.yul\":11785:12669   */\n    tag_31:\n        /* \"#utility.yul\":11898:11904   */\n      0x00\n        /* \"#utility.yul\":11906:11912   */\n      dup1\n        /* \"#utility.yul\":11955:11957   */\n      0x40\n        /* \"#utility.yul\":11943:11952   */\n      dup4\n        /* \"#utility.yul\":11934:11941   */\n      dup6\n        /* \"#utility.yul\":11930:11953   */\n      sub\n        /* \"#utility.yul\":11926:11958   */\n      slt\n        /* \"#utility.yul\":11923:12042   */\n      iszero\n      tag_472\n      jumpi\n        /* \"#utility.yul\":11961:12040   */\n      tag_473\n      tag_294\n      jump\t// in\n    tag_473:\n        /* \"#utility.yul\":11923:12042   */\n    tag_472:\n        /* \"#utility.yul\":12109:12110   */\n      0x00\n        /* \"#utility.yul\":12098:12107   */\n      dup4\n        /* \"#utility.yul\":12094:12111   */\n      add\n        /* \"#utility.yul\":12081:12112   */\n      calldataload\n        /* \"#utility.yul\":12139:12157   */\n      0xffffffffffffffff\n        /* \"#utility.yul\":12131:12137   */\n      dup2\n        /* \"#utility.yul\":12128:12158   */\n      gt\n        /* \"#utility.yul\":12125:12242   */\n      iszero\n      tag_474\n      jumpi\n        /* \"#utility.yul\":12161:12240   */\n      tag_475\n      tag_295\n      jump\t// in\n    tag_475:\n        /* \"#utility.yul\":12125:12242   */\n    tag_474:\n        /* \"#utility.yul\":12266:12329   */\n      tag_476\n        /* \"#utility.yul\":12321:12328   */\n      dup6\n        /* \"#utility.yul\":12312:12318   */\n      dup3\n        /* \"#utility.yul\":12301:12310   */\n      dup7\n        /* \"#utility.yul\":12297:12319   */\n      add\n        /* \"#utility.yul\":12266:12329   */\n      tag_305\n      jump\t// in\n    tag_476:\n        /* \"#utility.yul\":12256:12329   */\n      swap3\n      pop\n        /* \"#utility.yul\":12052:12339   */\n      pop\n        /* \"#utility.yul\":12406:12408   */\n      0x20\n        /* \"#utility.yul\":12395:12404   */\n      dup4\n        /* \"#utility.yul\":12391:12409   */\n      add\n        /* \"#utility.yul\":12378:12410   */\n      calldataload\n        /* \"#utility.yul\":12437:12455   */\n      0xffffffffffffffff\n        /* \"#utility.yul\":12429:12435   */\n      dup2\n        /* \"#utility.yul\":12426:12456   */\n      gt\n        /* \"#utility.yul\":12423:12540   */\n      iszero\n      tag_477\n      jumpi\n        /* \"#utility.yul\":12459:12538   */\n      tag_478\n      tag_295\n      jump\t// in\n    tag_478:\n        /* \"#utility.yul\":12423:12540   */\n    tag_477:\n        /* \"#utility.yul\":12564:12652   */\n      tag_479\n        /* \"#utility.yul\":12644:12651   */\n      dup6\n        /* \"#utility.yul\":12635:12641   */\n      dup3\n        /* \"#utility.yul\":12624:12633   */\n      dup7\n        /* \"#utility.yul\":12620:12642   */\n      add\n        /* \"#utility.yul\":12564:12652   */\n      tag_328\n      jump\t// in\n    tag_479:\n        /* \"#utility.yul\":12554:12652   */\n      swap2\n      pop\n        /* \"#utility.yul\":12349:12662   */\n      pop\n        /* \"#utility.yul\":11785:12669   */\n      swap3\n      pop\n      swap3\n      swap1\n      pop\n      jump\t// out\n        /* \"#utility.yul\":12675:13559   */\n    tag_36:\n        /* \"#utility.yul\":12788:12794   */\n      0x00\n        /* \"#utility.yul\":12796:12802   */\n      dup1\n        /* \"#utility.yul\":12845:12847   */\n      0x40\n        /* \"#utility.yul\":12833:12842   */\n      dup4\n        /* \"#utility.yul\":12824:12831   */\n      dup6\n        /* \"#utility.yul\":12820:12843   */\n      sub\n        /* \"#utility.yul\":12816:12848   */\n      slt\n        /* \"#utility.yul\":12813:12932   */\n      iszero\n      tag_481\n      jumpi\n        /* \"#utility.yul\":12851:12930   */\n      tag_482\n      tag_294\n      jump\t// in\n    tag_482:\n        /* \"#utility.yul\":12813:12932   */\n    tag_481:\n        /* \"#utility.yul\":12999:13000   */\n      0x00\n        /* \"#utility.yul\":12988:12997   */\n      dup4\n        /* \"#utility.yul\":12984:13001   */\n      add\n        /* \"#utility.yul\":12971:13002   */\n      calldataload\n        /* \"#utility.yul\":13029:13047   */\n      0xffffffffffffffff\n        /* \"#utility.yul\":13021:13027   */\n      dup2\n        /* \"#utility.yul\":13018:13048   */\n      gt\n        /* \"#utility.yul\":13015:13132   */\n      iszero\n      tag_483\n      jumpi\n        /* \"#utility.yul\":13051:13130   */\n      tag_484\n      tag_295\n      jump\t// in\n    tag_484:\n        /* \"#utility.yul\":13015:13132   */\n    tag_483:\n        /* \"#utility.yul\":13156:13244   */\n      tag_485\n        /* \"#utility.yul\":13236:13243   */\n      dup6\n        /* \"#utility.yul\":13227:13233   */\n      dup3\n        /* \"#utility.yul\":13216:13225   */\n      dup7\n        /* \"#utility.yul\":13212:13234   */\n      add\n        /* \"#utility.yul\":13156:13244   */\n      tag_328\n      jump\t// in\n    tag_485:\n        /* \"#utility.yul\":13146:13244   */\n      swap3\n      pop\n        /* \"#utility.yul\":12942:13254   */\n      pop\n        /* \"#utility.yul\":13321:13323   */\n      0x20\n        /* \"#utility.yul\":13310:13319   */\n      dup4\n        /* \"#utility.yul\":13306:13324   */\n      add\n        /* \"#utility.yul\":13293:13325   */\n      calldataload\n        /* \"#utility.yul\":13352:13370   */\n      0xffffffffffffffff\n        /* \"#utility.yul\":13344:13350   */\n      dup2\n        /* \"#utility.yul\":13341:13371   */\n      gt\n        /* \"#utility.yul\":13338:13455   */\n      iszero\n      tag_486\n      jumpi\n        /* \"#utility.yul\":13374:13453   */\n      tag_487\n      tag_295\n      jump\t// in\n    tag_487:\n        /* \"#utility.yul\":13338:13455   */\n    tag_486:\n        /* \"#utility.yul\":13479:13542   */\n      tag_488\n        /* \"#utility.yul\":13534:13541   */\n      dup6\n        /* \"#utility.yul\":13525:13531   */\n      dup3\n        /* \"#utility.yul\":13514:13523   */\n      dup7\n        /* \"#utility.yul\":13510:13532   */\n      add\n        /* \"#utility.yul\":13479:13542   */\n      tag_305\n      jump\t// in\n    tag_488:\n        /* \"#utility.yul\":13469:13542   */\n      swap2\n      pop\n        /* \"#utility.yul\":13264:13552   */\n      pop\n        /* \"#utility.yul\":12675:13559   */\n      swap3\n      pop\n      swap3\n      swap1\n      pop\n      jump\t// out\n        /* \"#utility.yul\":13565:13691   */\n    tag_329:\n        /* \"#utility.yul\":13602:13609   */\n      0x00\n        /* \"#utility.yul\":13642:13684   */\n      0xffffffffffffffffffffffffffffffffffffffff\n        /* \"#utility.yul\":13635:13640   */\n      dup3\n        /* \"#utility.yul\":13631:13685   */\n      and\n        /* \"#utility.yul\":13620:13685   */\n      swap1\n      pop\n        /* \"#utility.yul\":13565:13691   */\n      swap2\n      swap1\n      pop\n      jump\t// out\n        /* \"#utility.yul\":13697:13793   */\n    tag_330:\n        /* \"#utility.yul\":13734:13741   */\n      0x00\n        /* \"#utility.yul\":13763:13787   */\n      tag_491\n        /* \"#utility.yul\":13781:13786   */\n      dup3\n        /* \"#utility.yul\":13763:13787   */\n      tag_329\n      jump\t// in\n    tag_491:\n        /* \"#utility.yul\":13752:13787   */\n      swap1\n      pop\n        /* \"#utility.yul\":13697:13793   */\n      swap2\n      swap1\n      pop\n      jump\t// out\n        /* \"#utility.yul\":13799:13917   */\n    tag_331:\n        /* \"#utility.yul\":13886:13910   */\n      tag_493\n        /* \"#utility.yul\":13904:13909   */\n      dup2\n        /* \"#utility.yul\":13886:13910   */\n      tag_330\n      jump\t// in\n    tag_493:\n        /* \"#utility.yul\":13881:13884   */\n      dup3\n        /* \"#utility.yul\":13874:13911   */\n      mstore\n        /* \"#utility.yul\":13799:13917   */\n      pop\n      pop\n      jump\t// out\n        /* \"#utility.yul\":13923:14145   */\n    tag_45:\n        /* \"#utility.yul\":14016:14020   */\n      0x00\n        /* \"#utility.yul\":14054:14056   */\n      0x20\n        /* \"#utility.yul\":14043:14052   */\n      dup3\n        /* \"#utility.yul\":14039:14057   */\n      add\n        /* \"#utility.yul\":14031:14057   */\n      swap1\n      pop\n        /* \"#utility.yul\":14067:14138   */\n      tag_495\n        /* \"#utility.yul\":14135:14136   */\n      0x00\n        /* \"#utility.yul\":14124:14133   */\n      dup4\n        /* \"#utility.yul\":14120:14137   */\n      add\n        /* \"#utility.yul\":14111:14117   */\n      dup5\n        /* \"#utility.yul\":14067:14138   */\n      tag_331\n      jump\t// in\n    tag_495:\n        /* \"#utility.yul\":13923:14145   */\n      swap3\n      swap2\n      pop\n      pop\n      jump\t// out\n        /* \"#utility.yul\":14151:14241   */\n    tag_332:\n        /* \"#utility.yul\":14185:14192   */\n      0x00\n        /* \"#utility.yul\":14228:14233   */\n      dup2\n        /* \"#utility.yul\":14221:14234   */\n      iszero\n        /* \"#utility.yul\":14214:14235   */\n      iszero\n        /* \"#utility.yul\":14203:14235   */\n      swap1\n      pop\n        /* \"#utility.yul\":14151:14241   */\n      swap2\n      swap1\n      pop\n      jump\t// out\n        /* \"#utility.yul\":14247:14356   */\n    tag_333:\n        /* \"#utility.yul\":14328:14349   */\n      tag_498\n        /* \"#utility.yul\":14343:14348   */\n      dup2\n        /* \"#utility.yul\":14328:14349   */\n      tag_332\n      jump\t// in\n    tag_498:\n        /* \"#utility.yul\":14323:14326   */\n      dup3\n        /* \"#utility.yul\":14316:14350   */\n      mstore\n        /* \"#utility.yul\":14247:14356   */\n      pop\n      pop\n      jump\t// out\n        /* \"#utility.yul\":14362:14572   */\n    tag_52:\n        /* \"#utility.yul\":14449:14453   */\n      0x00\n        /* \"#utility.yul\":14487:14489   */\n      0x20\n        /* \"#utility.yul\":14476:14485   */\n      dup3\n        /* \"#utility.yul\":14472:14490   */\n      add\n        /* \"#utility.yul\":14464:14490   */\n      swap1\n      pop\n        /* \"#utility.yul\":14500:14565   */\n      tag_500\n        /* \"#utility.yul\":14562:14563   */\n      0x00\n        /* \"#utility.yul\":14551:14560   */\n      dup4\n        /* \"#utility.yul\":14547:14564   */\n      add\n        /* \"#utility.yul\":14538:14544   */\n      dup5\n        /* \"#utility.yul\":14500:14565   */\n      tag_333\n      jump\t// in\n    tag_500:\n        /* \"#utility.yul\":14362:14572   */\n      swap3\n      swap2\n      pop\n      pop\n      jump\t// out\n        /* \"#utility.yul\":14578:14726   */\n    tag_334:\n        /* \"#utility.yul\":14680:14691   */\n      0x00\n        /* \"#utility.yul\":14717:14720   */\n      dup2\n        /* \"#utility.yul\":14702:14720   */\n      swap1\n      pop\n        /* \"#utility.yul\":14578:14726   */\n      swap3\n      swap2\n      pop\n      pop\n      jump\t// out\n        /* \"#utility.yul\":14732:15122   */\n    tag_335:\n        /* \"#utility.yul\":14838:14841   */\n      0x00\n        /* \"#utility.yul\":14866:14905   */\n      tag_503\n        /* \"#utility.yul\":14899:14904   */\n      dup3\n        /* \"#utility.yul\":14866:14905   */\n      tag_306\n      jump\t// in\n    tag_503:\n        /* \"#utility.yul\":14921:15010   */\n      tag_504\n        /* \"#utility.yul\":15003:15009   */\n      dup2\n        /* \"#utility.yul\":14998:15001   */\n      dup6\n        /* \"#utility.yul\":14921:15010   */\n      tag_334\n      jump\t// in\n    tag_504:\n        /* \"#utility.yul\":14914:15010   */\n      swap4\n      pop\n        /* \"#utility.yul\":15019:15084   */\n      tag_505\n        /* \"#utility.yul\":15077:15083   */\n      dup2\n        /* \"#utility.yul\":15072:15075   */\n      dup6\n        /* \"#utility.yul\":15065:15069   */\n      0x20\n        /* \"#utility.yul\":15058:15063   */\n      dup7\n        /* \"#utility.yul\":15054:15070   */\n      add\n        /* \"#utility.yul\":15019:15084   */\n      tag_308\n      jump\t// in\n    tag_505:\n        /* \"#utility.yul\":15109:15115   */\n      dup1\n        /* \"#utility.yul\":15104:15107   */\n      dup5\n        /* \"#utility.yul\":15100:15116   */\n      add\n        /* \"#utility.yul\":15093:15116   */\n      swap2\n      pop\n        /* \"#utility.yul\":14842:15122   */\n      pop\n        /* \"#utility.yul\":14732:15122   */\n      swap3\n      swap2\n      pop\n      pop\n      jump\t// out\n        /* \"#utility.yul\":15128:15403   */\n    tag_69:\n        /* \"#utility.yul\":15260:15263   */\n      0x00\n        /* \"#utility.yul\":15282:15377   */\n      tag_507\n        /* \"#utility.yul\":15373:15376   */\n      dup3\n        /* \"#utility.yul\":15364:15370   */\n      dup5\n        /* \"#utility.yul\":15282:15377   */\n      tag_335\n      jump\t// in\n    tag_507:\n        /* \"#utility.yul\":15275:15377   */\n      swap2\n      pop\n        /* \"#utility.yul\":15394:15397   */\n      dup2\n        /* \"#utility.yul\":15387:15397   */\n      swap1\n      pop\n        /* \"#utility.yul\":15128:15403   */\n      swap3\n      swap2\n      pop\n      pop\n      jump\t// out\n        /* \"#utility.yul\":15409:15589   */\n    tag_336:\n        /* \"#utility.yul\":15457:15534   */\n      0x4e487b7100000000000000000000000000000000000000000000000000000000\n        /* \"#utility.yul\":15454:15455   */\n      0x00\n        /* \"#utility.yul\":15447:15535   */\n      mstore\n        /* \"#utility.yul\":15554:15558   */\n      0x22\n        /* \"#utility.yul\":15551:15552   */\n      0x04\n        /* \"#utility.yul\":15544:15559   */\n      mstore\n        /* \"#utility.yul\":15578:15582   */\n      0x24\n        /* \"#utility.yul\":15575:15576   */\n      0x00\n        /* \"#utility.yul\":15568:15583   */\n      revert\n        /* \"#utility.yul\":15595:15915   */\n    tag_86:\n        /* \"#utility.yul\":15639:15645   */\n      0x00\n        /* \"#utility.yul\":15676:15677   */\n      0x02\n        /* \"#utility.yul\":15670:15674   */\n      dup3\n        /* \"#utility.yul\":15666:15678   */\n      div\n        /* \"#utility.yul\":15656:15678   */\n      swap1\n      pop\n        /* \"#utility.yul\":15723:15724   */\n      0x01\n        /* \"#utility.yul\":15717:15721   */\n      dup3\n        /* \"#utility.yul\":15713:15725   */\n      and\n        /* \"#utility.yul\":15744:15762   */\n      dup1\n        /* \"#utility.yul\":15734:15815   */\n      tag_510\n      jumpi\n        /* \"#utility.yul\":15800:15804   */\n      0x7f\n        /* \"#utility.yul\":15792:15798   */\n      dup3\n        /* \"#utility.yul\":15788:15805   */\n      and\n        /* \"#utility.yul\":15778:15805   */\n      swap2\n      pop\n        /* \"#utility.yul\":15734:15815   */\n    tag_510:\n        /* \"#utility.yul\":15862:15864   */\n      0x20\n        /* \"#utility.yul\":15854:15860   */\n      dup3\n        /* \"#utility.yul\":15851:15865   */\n      lt\n        /* \"#utility.yul\":15831:15849   */\n      dup2\n        /* \"#utility.yul\":15828:15866   */\n      sub\n        /* \"#utility.yul\":15825:15909   */\n      tag_511\n      jumpi\n        /* \"#utility.yul\":15881:15899   */\n      tag_512\n      tag_336\n      jump\t// in\n    tag_512:\n        /* \"#utility.yul\":15825:15909   */\n    tag_511:\n        /* \"#utility.yul\":15646:15915   */\n      pop\n        /* \"#utility.yul\":15595:15915   */\n      swap2\n      swap1\n      pop\n      jump\t// out\n        /* \"#utility.yul\":15921:16062   */\n    tag_337:\n        /* \"#utility.yul\":15970:15974   */\n      0x00\n        /* \"#utility.yul\":15993:15996   */\n      dup2\n        /* \"#utility.yul\":15985:15996   */\n      swap1\n      pop\n        /* \"#utility.yul\":16016:16019   */\n      dup2\n        /* \"#utility.yul\":16013:16014   */\n      0x00\n        /* \"#utility.yul\":16006:16020   */\n      mstore\n        /* \"#utility.yul\":16050:16054   */\n      0x20\n        /* \"#utility.yul\":16047:16048   */\n      0x00\n        /* \"#utility.yul\":16037:16055   */\n      keccak256\n        /* \"#utility.yul\":16029:16055   */\n      swap1\n      pop\n        /* \"#utility.yul\":15921:16062   */\n      swap2\n      swap1\n      pop\n      jump\t// out\n        /* \"#utility.yul\":16068:16161   */\n    tag_338:\n        /* \"#utility.yul\":16105:16111   */\n      0x00\n        /* \"#utility.yul\":16152:16154   */\n      0x20\n        /* \"#utility.yul\":16147:16149   */\n      0x1f\n        /* \"#utility.yul\":16140:16145   */\n      dup4\n        /* \"#utility.yul\":16136:16150   */\n      add\n        /* \"#utility.yul\":16132:16155   */\n      div\n        /* \"#utility.yul\":16122:16155   */\n      swap1\n      pop\n        /* \"#utility.yul\":16068:16161   */\n      swap2\n      swap1\n      pop\n      jump\t// out\n        /* \"#utility.yul\":16167:16274   */\n    tag_339:\n        /* \"#utility.yul\":16211:16219   */\n      0x00\n        /* \"#utility.yul\":16261:16266   */\n      dup3\n        /* \"#utility.yul\":16255:16259   */\n      dup3\n        /* \"#utility.yul\":16251:16267   */\n      shl\n        /* \"#utility.yul\":16230:16267   */\n      swap1\n      pop\n        /* \"#utility.yul\":16167:16274   */\n      swap3\n      swap2\n      pop\n      pop\n      jump\t// out\n        /* \"#utility.yul\":16280:16673   */\n    tag_340:\n        /* \"#utility.yul\":16349:16355   */\n      0x00\n        /* \"#utility.yul\":16399:16400   */\n      0x08\n        /* \"#utility.yul\":16387:16397   */\n      dup4\n        /* \"#utility.yul\":16383:16401   */\n      mul\n        /* \"#utility.yul\":16422:16519   */\n      tag_517\n        /* \"#utility.yul\":16452:16518   */\n      0xffffffffffffffffffffffffffffffffffffffffffffffffffffffffffffffff\n        /* \"#utility.yul\":16441:16450   */\n      dup3\n        /* \"#utility.yul\":16422:16519   */\n      tag_339\n      jump\t// in\n    tag_517:\n        /* \"#utility.yul\":16540:16579   */\n      tag_518\n        /* \"#utility.yul\":16570:16578   */\n      dup7\n        /* \"#utility.yul\":16559:16568   */\n      dup4\n        /* \"#utility.yul\":16540:16579   */\n      tag_339\n      jump\t// in\n    tag_518:\n        /* \"#utility.yul\":16528:16579   */\n      swap6\n      pop\n        /* \"#utility.yul\":16612:16616   */\n      dup1\n        /* \"#utility.yul\":16608:16617   */\n      not\n        /* \"#utility.yul\":16601:16606   */\n      dup5\n        /* \"#utility.yul\":16597:16618   */\n      and\n        /* \"#utility.yul\":16588:16618   */\n      swap4\n      pop\n        /* \"#utility.yul\":16661:16665   */\n      dup1\n        /* \"#utility.yul\":16651:16659   */\n      dup7\n        /* \"#utility.yul\":16647:16666   */\n      and\n        /* \"#utility.yul\":16640:16645   */\n      dup5\n        /* \"#utility.yul\":16637:16667   */\n      or\n        /* \"#utility.yul\":16627:16667   */\n      swap3\n      pop\n        /* \"#utility.yul\":16356:16673   */\n      pop\n      pop\n        /* \"#utility.yul\":16280:16673   */\n      swap4\n      swap3\n      pop\n      pop\n      pop\n      jump\t// out\n        /* \"#utility.yul\":16679:16739   */\n    tag_341:\n        /* \"#utility.yul\":16707:16710   */\n      0x00\n        /* \"#utility.yul\":16728:16733   */\n      dup2\n        /* \"#utility.yul\":16721:16733   */\n      swap1\n      pop\n        /* \"#utility.yul\":16679:16739   */\n      swap2\n      swap1\n      pop\n      jump\t// out\n        /* \"#utility.yul\":16745:16887   */\n    tag_342:\n        /* \"#utility.yul\":16795:16804   */\n      0x00\n        /* \"#utility.yul\":16828:16881   */\n      tag_521\n        /* \"#utility.yul\":16846:16880   */\n      tag_522\n        /* \"#utility.yul\":16855:16879   */\n      tag_523\n        /* \"#utility.yul\":16873:16878   */\n      dup5\n        /* \"#utility.yul\":16855:16879   */\n      tag_319\n      jump\t// in\n    tag_523:\n        /* \"#utility.yul\":16846:16880   */\n      tag_341\n      jump\t// in\n    tag_522:\n        /* \"#utility.yul\":16828:16881   */\n      tag_319\n      jump\t// in\n    tag_521:\n        /* \"#utility.yul\":16815:16881   */\n      swap1\n      pop\n        /* \"#utility.yul\":16745:16887   */\n      swap2\n      swap1\n      pop\n      jump\t// out\n        /* \"#utility.yul\":16893:16968   */\n    tag_343:\n        /* \"#utility.yul\":16936:16939   */\n      0x00\n        /* \"#utility.yul\":16957:16962   */\n      dup2\n        /* \"#utility.yul\":16950:16962   */\n      swap1\n      pop\n        /* \"#utility.yul\":16893:16968   */\n      swap2\n      swap1\n      pop\n      jump\t// out\n        /* \"#utility.yul\":16974:17243   */\n    tag_344:\n        /* \"#utility.yul\":17084:17123   */\n      tag_526\n        /* \"#utility.yul\":17115:17122   */\n      dup4\n        /* \"#utility.yul\":17084:17123   */\n      tag_342\n      jump\t// in\n    tag_526:\n        /* \"#utility.yul\":17145:17236   */\n      tag_527\n        /* \"#utility.yul\":17194:17235   */\n      tag_528\n        /* \"#utility.yul\":17218:17234   */\n      dup3\n        /* \"#utility.yul\":17194:17235   */\n      tag_343\n      jump\t// in\n    tag_528:\n        /* \"#utility.yul\":17186:17192   */\n      dup5\n        /* \"#utility.yul\":17179:17183   */\n      dup5\n        /* \"#utility.yul\":17173:17184   */\n      sload\n        /* \"#utility.yul\":17145:17236   */\n      tag_340\n      jump\t// in\n    tag_527:\n        /* \"#utility.yul\":17139:17143   */\n      dup3\n        /* \"#utility.yul\":17132:17237   */\n      sstore\n        /* \"#utility.yul\":17050:17243   */\n      pop\n        /* \"#utility.yul\":16974:17243   */\n      pop\n      pop\n      pop\n      jump\t// out\n        /* \"#utility.yul\":17249:17322   */\n    tag_345:\n        /* \"#utility.yul\":17294:17297   */\n      0x00\n        /* \"#utility.yul\":17249:17322   */\n      swap1\n      jump\t// out\n        /* \"#utility.yul\":17328:17517   */\n    tag_346:\n        /* \"#utility.yul\":17405:17437   */\n      tag_531\n      tag_345\n      jump\t// in\n    tag_531:\n        /* \"#utility.yul\":17446:17511   */\n      tag_532\n        /* \"#utility.yul\":17504:17510   */\n      dup2\n        /* \"#utility.yul\":17496:17502   */\n      dup5\n        /* \"#utility.yul\":17490:17494   */\n      dup5\n        /* \"#utility.yul\":17446:17511   */\n      tag_344\n      jump\t// in\n    tag_532:\n        /* \"#utility.yul\":17381:17517   */\n      pop\n        /* \"#utility.yul\":17328:17517   */\n      pop\n      pop\n      jump\t// out\n        /* \"#utility.yul\":17523:17709   */\n    tag_347:\n        /* \"#utility.yul\":17583:17703   */\n    tag_534:\n        /* \"#utility.yul\":17600:17603   */\n      dup2\n        /* \"#utility.yul\":17593:17598   */\n      dup2\n        /* \"#utility.yul\":17590:17604   */\n      lt\n        /* \"#utility.yul\":17583:17703   */\n      iszero\n      tag_536\n      jumpi\n        /* \"#utility.yul\":17654:17693   */\n      tag_537\n        /* \"#utility.yul\":17691:17692   */\n      0x00\n        /* \"#utility.yul\":17684:17689   */\n      dup3\n        /* \"#utility.yul\":17654:17693   */\n      tag_346\n      jump\t// in\n    tag_537:\n        /* \"#utility.yul\":17627:17628   */\n      0x01\n        /* \"#utility.yul\":17620:17625   */\n      dup2\n        /* \"#utility.yul\":17616:17629   */\n      add\n        /* \"#utility.yul\":17607:17629   */\n      swap1\n      pop\n        /* \"#utility.yul\":17583:17703   */\n      jump(tag_534)\n    tag_536:\n        /* \"#utility.yul\":17523:17709   */\n      pop\n      pop\n      jump\t// out\n        /* \"#utility.yul\":17715:18258   */\n    tag_348:\n        /* \"#utility.yul\":17816:17818   */\n      0x1f\n        /* \"#utility.yul\":17811:17814   */\n      dup3\n        /* \"#utility.yul\":17808:17819   */\n      gt\n        /* \"#utility.yul\":17805:18251   */\n      iszero\n      tag_539\n      jumpi\n        /* \"#utility.yul\":17850:17888   */\n      tag_540\n        /* \"#utility.yul\":17882:17887   */\n      dup2\n        /* \"#utility.yul\":17850:17888   */\n      tag_337\n      jump\t// in\n    tag_540:\n        /* \"#utility.yul\":17934:17963   */\n      tag_541\n        /* \"#utility.yul\":17952:17962   */\n      dup5\n        /* \"#utility.yul\":17934:17963   */\n      tag_338\n      jump\t// in\n    tag_541:\n        /* \"#utility.yul\":17924:17932   */\n      dup2\n        /* \"#utility.yul\":17920:17964   */\n      add\n        /* \"#utility.yul\":18117:18119   */\n      0x20\n        /* \"#utility.yul\":18105:18115   */\n      dup6\n        /* \"#utility.yul\":18102:18120   */\n      lt\n        /* \"#utility.yul\":18099:18148   */\n      iszero\n      tag_542\n      jumpi\n        /* \"#utility.yul\":18138:18146   */\n      dup2\n        /* \"#utility.yul\":18123:18146   */\n      swap1\n      pop\n        /* \"#utility.yul\":18099:18148   */\n    tag_542:\n        /* \"#utility.yul\":18161:18241   */\n      tag_543\n        /* \"#utility.yul\":18217:18239   */\n      tag_544\n        /* \"#utility.yul\":18235:18238   */\n      dup6\n        /* \"#utility.yul\":18217:18239   */\n      tag_338\n      jump\t// in\n    tag_544:\n        /* \"#utility.yul\":18207:18215   */\n      dup4\n        /* \"#utility.yul\":18203:18240   */\n      add\n        /* \"#utility.yul\":18190:18201   */\n      dup3\n        /* \"#utility.yul\":18161:18241   */\n      tag_347\n      jump\t// in\n    tag_543:\n        /* \"#utility.yul\":17820:18251   */\n      pop\n      pop\n        /* \"#utility.yul\":17805:18251   */\n    tag_539:\n        /* \"#utility.yul\":17715:18258   */\n      pop\n      pop\n      pop\n      jump\t// out\n        /* \"#utility.yul\":18264:18381   */\n    tag_349:\n        /* \"#utility.yul\":18318:18326   */\n      0x00\n        /* \"#utility.yul\":18368:18373   */\n      dup3\n        /* \"#utility.yul\":18362:18366   */\n      dup3\n        /* \"#utility.yul\":18358:18374   */\n      shr\n        /* \"#utility.yul\":18337:18374   */\n      swap1\n      pop\n        /* \"#utility.yul\":18264:18381   */\n      swap3\n      swap2\n      pop\n      pop\n      jump\t// out\n        /* \"#utility.yul\":18387:18556   */\n    tag_350:\n        /* \"#utility.yul\":18431:18437   */\n      0x00\n        /* \"#utility.yul\":18464:18515   */\n      tag_547\n        /* \"#utility.yul\":18512:18513   */\n      0x00\n        /* \"#utility.yul\":18508:18514   */\n      not\n        /* \"#utility.yul\":18500:18505   */\n      dup5\n        /* \"#utility.yul\":18497:18498   */\n      0x08\n        /* \"#utility.yul\":18493:18506   */\n      mul\n        /* \"#utility.yul\":18464:18515   */\n      tag_349\n      jump\t// in\n    tag_547:\n        /* \"#utility.yul\":18460:18516   */\n      not\n        /* \"#utility.yul\":18545:18549   */\n      dup1\n        /* \"#utility.yul\":18539:18543   */\n      dup4\n        /* \"#utility.yul\":18535:18550   */\n      and\n        /* \"#utility.yul\":18525:18550   */\n      swap2\n      pop\n        /* \"#utility.yul\":18438:18556   */\n      pop\n        /* \"#utility.yul\":18387:18556   */\n      swap3\n      swap2\n      pop\n      pop\n      jump\t// out\n        /* \"#utility.yul\":18561:18856   */\n    tag_351:\n        /* \"#utility.yul\":18637:18641   */\n      0x00\n        /* \"#utility.yul\":18783:18812   */\n      tag_549\n        /* \"#utility.yul\":18808:18811   */\n      dup4\n        /* \"#utility.yul\":18802:18806   */\n      dup4\n        /* \"#utility.yul\":18783:18812   */\n      tag_350\n      jump\t// in\n    tag_549:\n        /* \"#utility.yul\":18775:18812   */\n      swap2\n      pop\n        /* \"#utility.yul\":18845:18848   */\n      dup3\n        /* \"#utility.yul\":18842:18843   */\n      0x02\n        /* \"#utility.yul\":18838:18849   */\n      mul\n        /* \"#utility.yul\":18832:18836   */\n      dup3\n        /* \"#utility.yul\":18829:18850   */\n      or\n        /* \"#utility.yul\":18821:18850   */\n      swap1\n      pop\n        /* \"#utility.yul\":18561:18856   */\n      swap3\n      swap2\n      pop\n      pop\n      jump\t// out\n        /* \"#utility.yul\":18861:20256   */\n    tag_71:\n        /* \"#utility.yul\":18978:19015   */\n      tag_551\n        /* \"#utility.yul\":19011:19014   */\n      dup3\n        /* \"#utility.yul\":18978:19015   */\n      tag_306\n      jump\t// in\n    tag_551:\n        /* \"#utility.yul\":19080:19098   */\n      0xffffffffffffffff\n        /* \"#utility.yul\":19072:19078   */\n      dup2\n        /* \"#utility.yul\":19069:19099   */\n      gt\n        /* \"#utility.yul\":19066:19122   */\n      iszero\n      tag_552\n      jumpi\n        /* \"#utility.yul\":19102:19120   */\n      tag_553\n      tag_299\n      jump\t// in\n    tag_553:\n        /* \"#utility.yul\":19066:19122   */\n    tag_552:\n        /* \"#utility.yul\":19146:19184   */\n      tag_554\n        /* \"#utility.yul\":19178:19182   */\n      dup3\n        /* \"#utility.yul\":19172:19183   */\n      sload\n        /* \"#utility.yul\":19146:19184   */\n      tag_86\n      jump\t// in\n    tag_554:\n        /* \"#utility.yul\":19231:19298   */\n      tag_555\n        /* \"#utility.yul\":19291:19297   */\n      dup3\n        /* \"#utility.yul\":19283:19289   */\n      dup3\n        /* \"#utility.yul\":19277:19281   */\n      dup6\n        /* \"#utility.yul\":19231:19298   */\n      tag_348\n      jump\t// in\n    tag_555:\n        /* \"#utility.yul\":19325:19326   */\n      0x00\n        /* \"#utility.yul\":19349:19353   */\n      0x20\n        /* \"#utility.yul\":19336:19353   */\n      swap1\n      pop\n        /* \"#utility.yul\":19381:19383   */\n      0x1f\n        /* \"#utility.yul\":19373:19379   */\n      dup4\n        /* \"#utility.yul\":19370:19384   */\n      gt\n        /* \"#utility.yul\":19398:19399   */\n      0x01\n        /* \"#utility.yul\":19393:20011   */\n      dup2\n      eq\n      tag_557\n      jumpi\n        /* \"#utility.yul\":20055:20056   */\n      0x00\n        /* \"#utility.yul\":20072:20078   */\n      dup5\n        /* \"#utility.yul\":20069:20146   */\n      iszero\n      tag_558\n      jumpi\n        /* \"#utility.yul\":20121:20130   */\n      dup3\n        /* \"#utility.yul\":20116:20119   */\n      dup8\n        /* \"#utility.yul\":20112:20131   */\n      add\n        /* \"#utility.yul\":20106:20132   */\n      mload\n        /* \"#utility.yul\":20097:20132   */\n      swap1\n      pop\n        /* \"#utility.yul\":20069:20146   */\n    tag_558:\n        /* \"#utility.yul\":20172:20239   */\n      tag_559\n        /* \"#utility.yul\":20232:20238   */\n      dup6\n        /* \"#utility.yul\":20225:20230   */\n      dup3\n        /* \"#utility.yul\":20172:20239   */\n      tag_351\n      jump\t// in\n    tag_559:\n        /* \"#utility.yul\":20166:20170   */\n      dup7\n        /* \"#utility.yul\":20159:20240   */\n      sstore\n        /* \"#utility.yul\":20028:20250   */\n      pop\n        /* \"#utility.yul\":19363:20250   */\n      jump(tag_556)\n        /* \"#utility.yul\":19393:20011   */\n    tag_557:\n        /* \"#utility.yul\":19445:19449   */\n      0x1f\n        /* \"#utility.yul\":19441:19450   */\n      not\n        /* \"#utility.yul\":19433:19439   */\n      dup5\n        /* \"#utility.yul\":19429:19451   */\n      and\n        /* \"#utility.yul\":19479:19516   */\n      tag_560\n        /* \"#utility.yul\":19511:19515   */\n      dup7\n        /* \"#utility.yul\":19479:19516   */\n      tag_337\n      jump\t// in\n    tag_560:\n        /* \"#utility.yul\":19538:19539   */\n      0x00\n        /* \"#utility.yul\":19552:19760   */\n    tag_561:\n        /* \"#utility.yul\":19566:19573   */\n      dup3\n        /* \"#utility.yul\":19563:19564   */\n      dup2\n        /* \"#utility.yul\":19560:19574   */\n      lt\n        /* \"#utility.yul\":19552:19760   */\n      iszero\n      tag_563\n      jumpi\n        /* \"#utility.yul\":19645:19654   */\n      dup5\n        /* \"#utility.yul\":19640:19643   */\n      dup10\n        /* \"#utility.yul\":19636:19655   */\n      add\n        /* \"#utility.yul\":19630:19656   */\n      mload\n        /* \"#utility.yul\":19622:19628   */\n      dup3\n        /* \"#utility.yul\":19615:19657   */\n      sstore\n        /* \"#utility.yul\":19696:19697   */\n      0x01\n        /* \"#utility.yul\":19688:19694   */\n      dup3\n        /* \"#utility.yul\":19684:19698   */\n      add\n        /* \"#utility.yul\":19674:19698   */\n      swap2\n      pop\n        /* \"#utility.yul\":19743:19745   */\n      0x20\n        /* \"#utility.yul\":19732:19741   */\n      dup6\n        /* \"#utility.yul\":19728:19746   */\n      add\n        /* \"#utility.yul\":19715:19746   */\n      swap5\n      pop\n        /* \"#utility.yul\":19589:19593   */\n      0x20\n        /* \"#utility.yul\":19586:19587   */\n      dup2\n        /* \"#utility.yul\":19582:19594   */\n      add\n        /* \"#utility.yul\":19577:19594   */\n      swap1\n      pop\n        /* \"#utility.yul\":19552:19760   */\n      jump(tag_561)\n    tag_563:\n        /* \"#utility.yul\":19788:19794   */\n      dup7\n        /* \"#utility.yul\":19779:19786   */\n      dup4\n        /* \"#utility.yul\":19776:19795   */\n      lt\n        /* \"#utility.yul\":19773:19952   */\n      iszero\n      tag_564\n      jumpi\n        /* \"#utility.yul\":19846:19855   */\n      dup5\n        /* \"#utility.yul\":19841:19844   */\n      dup10\n        /* \"#utility.yul\":19837:19856   */\n      add\n        /* \"#utility.yul\":19831:19857   */\n      mload\n        /* \"#utility.yul\":19889:19937   */\n      tag_565\n        /* \"#utility.yul\":19931:19935   */\n      0x1f\n        /* \"#utility.yul\":19923:19929   */\n      dup10\n        /* \"#utility.yul\":19919:19936   */\n      and\n        /* \"#utility.yul\":19908:19917   */\n      dup3\n        /* \"#utility.yul\":19889:19937   */\n      tag_350\n      jump\t// in\n    tag_565:\n        /* \"#utility.yul\":19881:19887   */\n      dup4\n        /* \"#utility.yul\":19874:19938   */\n      sstore\n        /* \"#utility.yul\":19796:19952   */\n      pop\n        /* \"#utility.yul\":19773:19952   */\n    tag_564:\n        /* \"#utility.yul\":19998:19999   */\n      0x01\n        /* \"#utility.yul\":19994:19995   */\n      0x02\n        /* \"#utility.yul\":19986:19992   */\n      dup9\n        /* \"#utility.yul\":19982:19996   */\n      mul\n        /* \"#utility.yul\":19978:20000   */\n      add\n        /* \"#utility.yul\":19972:19976   */\n      dup9\n        /* \"#utility.yul\":19965:20001   */\n      sstore\n        /* \"#utility.yul\":19400:20011   */\n      pop\n      pop\n      pop\n        /* \"#utility.yul\":19363:20250   */\n    tag_556:\n      pop\n        /* \"#utility.yul\":18953:20256   */\n      pop\n      pop\n      pop\n        /* \"#utility.yul\":18861:20256   */\n      pop\n      pop\n      jump\t// out\n        /* \"#utility.yul\":20262:20442   */\n    tag_143:\n        /* \"#utility.yul\":20310:20387   */\n      0x4e487b7100000000000000000000000000000000000000000000000000000000\n        /* \"#utility.yul\":20307:20308   */\n      0x00\n        /* \"#utility.yul\":20300:20388   */\n      mstore\n        /* \"#utility.yul\":20407:20411   */\n      0x32\n        /* \"#utility.yul\":20404:20405   */\n      0x04\n        /* \"#utility.yul\":20397:20412   */\n      mstore\n        /* \"#utility.yul\":20431:20435   */\n      0x24\n        /* \"#utility.yul\":20428:20429   */\n      0x00\n        /* \"#utility.yul\":20421:20436   */\n      revert\n        /* \"#utility.yul\":20448:20628   */\n    tag_352:\n        /* \"#utility.yul\":20496:20573   */\n      0x4e487b7100000000000000000000000000000000000000000000000000000000\n        /* \"#utility.yul\":20493:20494   */\n      0x00\n        /* \"#utility.yul\":20486:20574   */\n      mstore\n        /* \"#utility.yul\":20593:20597   */\n      0x11\n        /* \"#utility.yul\":20590:20591   */\n      0x04\n        /* \"#utility.yul\":20583:20598   */\n      mstore\n        /* \"#utility.yul\":20617:20621   */\n      0x24\n        /* \"#utility.yul\":20614:20615   */\n      0x00\n        /* \"#utility.yul\":20607:20622   */\n      revert\n        /* \"#utility.yul\":20634:20867   */\n    tag_152:\n        /* \"#utility.yul\":20673:20676   */\n      0x00\n        /* \"#utility.yul\":20696:20720   */\n      tag_569\n        /* \"#utility.yul\":20714:20719   */\n      dup3\n        /* \"#utility.yul\":20696:20720   */\n      tag_319\n      jump\t// in\n    tag_569:\n        /* \"#utility.yul\":20687:20720   */\n      swap2\n      pop\n        /* \"#utility.yul\":20742:20808   */\n      0xffffffffffffffffffffffffffffffffffffffffffffffffffffffffffffffff\n        /* \"#utility.yul\":20735:20740   */\n      dup3\n        /* \"#utility.yul\":20732:20809   */\n      sub\n        /* \"#utility.yul\":20729:20832   */\n      tag_570\n      jumpi\n        /* \"#utility.yul\":20812:20830   */\n      tag_571\n      tag_352\n      jump\t// in\n    tag_571:\n        /* \"#utility.yul\":20729:20832   */\n    tag_570:\n        /* \"#utility.yul\":20859:20860   */\n      0x01\n        /* \"#utility.yul\":20852:20857   */\n      dup3\n        /* \"#utility.yul\":20848:20861   */\n      add\n        /* \"#utility.yul\":20841:20861   */\n      swap1\n      pop\n        /* \"#utility.yul\":20634:20867   */\n      swap2\n      swap1\n      pop\n      jump\t// out\n        /* \"#utility.yul\":20873:20987   */\n    tag_353:\n      pop\n      jump\t// out\n        /* \"#utility.yul\":20993:21393   */\n    tag_354:\n        /* \"#utility.yul\":21153:21156   */\n      0x00\n        /* \"#utility.yul\":21174:21258   */\n      tag_574\n        /* \"#utility.yul\":21256:21257   */\n      0x00\n        /* \"#utility.yul\":21251:21254   */\n      dup4\n        /* \"#utility.yul\":21174:21258   */\n      tag_334\n      jump\t// in\n    tag_574:\n        /* \"#utility.yul\":21167:21258   */\n      swap2\n      pop\n        /* \"#utility.yul\":21267:21360   */\n      tag_575\n        /* \"#utility.yul\":21356:21359   */\n      dup3\n        /* \"#utility.yul\":21267:21360   */\n      tag_353\n      jump\t// in\n    tag_575:\n        /* \"#utility.yul\":21385:21386   */\n      0x00\n        /* \"#utility.yul\":21380:21383   */\n      dup3\n        /* \"#utility.yul\":21376:21387   */\n      add\n        /* \"#utility.yul\":21369:21387   */\n      swap1\n      pop\n        /* \"#utility.yul\":20993:21393   */\n      swap2\n      swap1\n      pop\n      jump\t// out\n        /* \"#utility.yul\":21399:21780   */\n    tag_229:\n        /* \"#utility.yul\":21584:21587   */\n      0x00\n        /* \"#utility.yul\":21606:21754   */\n      tag_577\n        /* \"#utility.yul\":21750:21753   */\n      dup3\n        /* \"#utility.yul\":21606:21754   */\n      tag_354\n      jump\t// in\n    tag_577:\n        /* \"#utility.yul\":21599:21754   */\n      swap2\n      pop\n        /* \"#utility.yul\":21771:21774   */\n      dup2\n        /* \"#utility.yul\":21764:21774   */\n      swap1\n      pop\n        /* \"#utility.yul\":21399:21780   */\n      swap2\n      swap1\n      pop\n      jump\t// out\n        /* \"#utility.yul\":21810:22684   */\n    tag_355:\n        /* \"#utility.yul\":21913:21916   */\n      0x00\n        /* \"#utility.yul\":21950:21955   */\n      dup2\n        /* \"#utility.yul\":21944:21956   */\n      sload\n        /* \"#utility.yul\":21979:22015   */\n      tag_579\n        /* \"#utility.yul\":22005:22014   */\n      dup2\n        /* \"#utility.yul\":21979:22015   */\n      tag_86\n      jump\t// in\n    tag_579:\n        /* \"#utility.yul\":22031:22120   */\n      tag_580\n        /* \"#utility.yul\":22113:22119   */\n      dup2\n        /* \"#utility.yul\":22108:22111   */\n      dup7\n        /* \"#utility.yul\":22031:22120   */\n      tag_334\n      jump\t// in\n    tag_580:\n        /* \"#utility.yul\":22024:22120   */\n      swap5\n      pop\n        /* \"#utility.yul\":22151:22152   */\n      0x01\n        /* \"#utility.yul\":22140:22149   */\n      dup3\n        /* \"#utility.yul\":22136:22153   */\n      and\n        /* \"#utility.yul\":22167:22168   */\n      0x00\n        /* \"#utility.yul\":22162:22328   */\n      dup2\n      eq\n      tag_582\n      jumpi\n        /* \"#utility.yul\":22342:22343   */\n      0x01\n        /* \"#utility.yul\":22337:22678   */\n      dup2\n      eq\n      tag_583\n      jumpi\n        /* \"#utility.yul\":22129:22678   */\n      jump(tag_581)\n        /* \"#utility.yul\":22162:22328   */\n    tag_582:\n        /* \"#utility.yul\":22246:22250   */\n      0xff\n        /* \"#utility.yul\":22242:22251   */\n      not\n        /* \"#utility.yul\":22231:22240   */\n      dup4\n        /* \"#utility.yul\":22227:22252   */\n      and\n        /* \"#utility.yul\":22222:22225   */\n      dup7\n        /* \"#utility.yul\":22215:22253   */\n      mstore\n        /* \"#utility.yul\":22308:22314   */\n      dup2\n        /* \"#utility.yul\":22301:22315   */\n      iszero\n        /* \"#utility.yul\":22294:22316   */\n      iszero\n        /* \"#utility.yul\":22286:22292   */\n      dup3\n        /* \"#utility.yul\":22282:22317   */\n      mul\n        /* \"#utility.yul\":22277:22280   */\n      dup7\n        /* \"#utility.yul\":22273:22318   */\n      add\n        /* \"#utility.yul\":22266:22318   */\n      swap4\n      pop\n        /* \"#utility.yul\":22162:22328   */\n      jump(tag_581)\n        /* \"#utility.yul\":22337:22678   */\n    tag_583:\n        /* \"#utility.yul\":22404:22442   */\n      tag_584\n        /* \"#utility.yul\":22436:22441   */\n      dup6\n        /* \"#utility.yul\":22404:22442   */\n      tag_337\n      jump\t// in\n    tag_584:\n        /* \"#utility.yul\":22464:22465   */\n      0x00\n        /* \"#utility.yul\":22478:22632   */\n    tag_585:\n        /* \"#utility.yul\":22492:22498   */\n      dup4\n        /* \"#utility.yul\":22489:22490   */\n      dup2\n        /* \"#utility.yul\":22486:22499   */\n      lt\n        /* \"#utility.yul\":22478:22632   */\n      iszero\n      tag_587\n      jumpi\n        /* \"#utility.yul\":22566:22573   */\n      dup2\n        /* \"#utility.yul\":22560:22574   */\n      sload\n        /* \"#utility.yul\":22556:22557   */\n      dup2\n        /* \"#utility.yul\":22551:22554   */\n      dup10\n        /* \"#utility.yul\":22547:22558   */\n      add\n        /* \"#utility.yul\":22540:22575   */\n      mstore\n        /* \"#utility.yul\":22616:22617   */\n      0x01\n        /* \"#utility.yul\":22607:22614   */\n      dup3\n        /* \"#utility.yul\":22603:22618   */\n      add\n        /* \"#utility.yul\":22592:22618   */\n      swap2\n      pop\n        /* \"#utility.yul\":22514:22518   */\n      0x20\n        /* \"#utility.yul\":22511:22512   */\n      dup2\n        /* \"#utility.yul\":22507:22519   */\n      add\n        /* \"#utility.yul\":22502:22519   */\n      swap1\n      pop\n        /* \"#utility.yul\":22478:22632   */\n      jump(tag_585)\n    tag_587:\n        /* \"#utility.yul\":22661:22667   */\n      dup4\n        /* \"#utility.yul\":22656:22659   */\n      dup9\n        /* \"#utility.yul\":22652:22668   */\n      add\n        /* \"#utility.yul\":22645:22668   */\n      swap6\n      pop\n        /* \"#utility.yul\":22344:22678   */\n      pop\n      pop\n        /* \"#utility.yul\":22129:22678   */\n    tag_581:\n      pop\n        /* \"#utility.yul\":21917:22684   */\n      pop\n      pop\n        /* \"#utility.yul\":21810:22684   */\n      swap3\n      swap2\n      pop\n      pop\n      jump\t// out\n        /* \"#utility.yul\":22690:22959   */\n    tag_232:\n        /* \"#utility.yul\":22819:22822   */\n      0x00\n        /* \"#utility.yul\":22841:22933   */\n      tag_589\n        /* \"#utility.yul\":22929:22932   */\n      dup3\n        /* \"#utility.yul\":22920:22926   */\n      dup5\n        /* \"#utility.yul\":22841:22933   */\n      tag_355\n      jump\t// in\n    tag_589:\n        /* \"#utility.yul\":22834:22933   */\n      swap2\n      pop\n        /* \"#utility.yul\":22950:22953   */\n      dup2\n        /* \"#utility.yul\":22943:22953   */\n      swap1\n      pop\n        /* \"#utility.yul\":22690:22959   */\n      swap3\n      swap2\n      pop\n      pop\n      jump\t// out\n\n    auxdata: 0xa26469706673582212206a2724a3af1accd87060cd60547e35e4634ab52925098035384f1237f94913c664736f6c63430008120033\n}\n",
				"bytecode": {
					"linkReferences": {},
					"object": "608060405234801561001057600080fd5b50336000806101000a81548173ffffffffffffffffffffffffffffffffffffffff021916908373ffffffffffffffffffffffffffffffffffffffff1602179055506124eb806100606000396000f3fe608060405234801561001057600080fd5b50600436106100b45760003560e01c8063893d20e811610071578063893d20e81461019d5780638d5fa841146101bb578063bed34bba146101c5578063c77cfeeb146101f5578063d430e05a14610225578063f70e1c5e14610255576100b4565b8063081396eb146100b957806315c19c1d146100d5578063379f8fc2146100f157806351f40dd61461012157806363c60bd5146101515780637198ed1a1461016d575b600080fd5b6100d360048036038101906100ce9190611a3d565b610285565b005b6100ef60048036038101906100ea9190611a3d565b610328565b005b61010b60048036038101906101069190611ab5565b6103cb565b6040516101189190611d7f565b60405180910390f35b61013b60048036038101906101369190611e87565b610658565b6040516101489190611d7f565b60405180910390f35b61016b60048036038101906101669190611eff565b6109b9565b005b61018760048036038101906101829190611ab5565b610ac1565b6040516101949190611d7f565b60405180910390f35b6101a5610dfa565b6040516101b29190611fb8565b60405180910390f35b6101c3610e23565b005b6101df60048036038101906101da9190611a3d565b610e25565b6040516101ec9190611fee565b60405180910390f35b61020f600480360381019061020a9190611ab5565b610ef3565b60405161021c9190611d7f565b60405180910390f35b61023f600480360381019061023a9190611a3d565b61122c565b60405161024c9190611fee565b60405180910390f35b61026f600480360381019061026a9190611ab5565b61145b565b60405161027c9190611d7f565b60405180910390f35b6102c4826040518060400160405280600881526020017f757365724c656e7300000000000000000000000000000000000000000000000081525061122c565b61032457806006836040516102d99190612045565b908152602001604051809103902090816102f39190612268565b50816002826040516103059190612045565b908152602001604051809103902060010190816103229190612268565b505b5050565b610367826040518060400160405280600881526020017f757365725743494400000000000000000000000000000000000000000000000081525061122c565b6103c7578060048360405161037c9190612045565b908152602001604051809103902090816103969190612268565b50816002826040516103a89190612045565b908152602001604051809103902060000190816103c59190612268565b505b5050565b6103d3611794565b6002826040516103e39190612045565b908152602001604051809103902060405180608001604052908160008201805461040c9061208b565b80601f01602080910402602001604051908101604052809291908181526020018280546104389061208b565b80156104855780601f1061045a57610100808354040283529160200191610485565b820191906000526020600020905b81548152906001019060200180831161046857829003601f168201915b5050505050815260200160018201805461049e9061208b565b80601f01602080910402602001604051908101604052809291908181526020018280546104ca9061208b565b80156105175780601f106104ec57610100808354040283529160200191610517565b820191906000526020600020905b8154815290600101906020018083116104fa57829003601f168201915b5050505050815260200160028201805480602002602001604051908101604052809291908181526020016000905b828210156105f15783829060005260206000200180546105649061208b565b80601f01602080910402602001604051908101604052809291908181526020018280546105909061208b565b80156105dd5780601f106105b2576101008083540402835291602001916105dd565b820191906000526020600020905b8154815290600101906020018083116105c057829003601f168201915b505050505081526020019060010190610545565b5050505081526020016003820180548060200260200160405190810160405280929190818152602001828054801561064857602002820191906000526020600020905b815481526020019060010190808311610634575b5050505050815250509050919050565b610660611794565b60606040518060800160405280604051806020016040528060008152508152602001604051806020016040528060008152508152602001848152602001828152506002856040516106b19190612045565b908152602001604051809103902060008201518160000190816106d49190612268565b5060208201518160010190816106ea9190612268565b5060408201518160020190805190602001906107079291906117bc565b506060820151816003019080519060200190610724929190611815565b5090505061073283856109b9565b6002846040516107429190612045565b908152602001604051809103902060405180608001604052908160008201805461076b9061208b565b80601f01602080910402602001604051908101604052809291908181526020018280546107979061208b565b80156107e45780601f106107b9576101008083540402835291602001916107e4565b820191906000526020600020905b8154815290600101906020018083116107c757829003601f168201915b505050505081526020016001820180546107fd9061208b565b80601f01602080910402602001604051908101604052809291908181526020018280546108299061208b565b80156108765780601f1061084b57610100808354040283529160200191610876565b820191906000526020600020905b81548152906001019060200180831161085957829003601f168201915b5050505050815260200160028201805480602002602001604051908101604052809291908181526020016000905b828210156109505783829060005260206000200180546108c39061208b565b80601f01602080910402602001604051908101604052809291908181526020018280546108ef9061208b565b801561093c5780601f106109115761010080835404028352916020019161093c565b820191906000526020600020905b81548152906001019060200180831161091f57829003601f168201915b5050505050815260200190600101906108a4565b505050508152602001600382018054806020026020016040519081016040528092919081815260200182805480156109a757602002820191906000526020600020905b815481526020019060010190808311610993575b50505050508152505091505092915050565b60005b8251811015610abc5760008382815181106109da576109d961233a565b5b60200260200101519050610a23816040518060400160405280600b81526020017f7573657257616c6c65747300000000000000000000000000000000000000000081525061122c565b610aa85782600582604051610a389190612045565b90815260200160405180910390209081610a529190612268565b50600283604051610a639190612045565b908152602001604051809103902060020181908060018154018082558091505060019003906000526020600020016000909190919091509081610aa69190612268565b505b508080610ab490612398565b9150506109bc565b505050565b610ac9611794565b6000600583604051610adb9190612045565b90815260200160405180910390208054610af49061208b565b80601f0160208091040260200160405190810160405280929190818152602001828054610b209061208b565b8015610b6d5780601f10610b4257610100808354040283529160200191610b6d565b820191906000526020600020905b815481529060010190602001808311610b5057829003601f168201915b50505050509050600281604051610b849190612045565b9081526020016040518091039020604051806080016040529081600082018054610bad9061208b565b80601f0160208091040260200160405190810160405280929190818152602001828054610bd99061208b565b8015610c265780601f10610bfb57610100808354040283529160200191610c26565b820191906000526020600020905b815481529060010190602001808311610c0957829003601f168201915b50505050508152602001600182018054610c3f9061208b565b80601f0160208091040260200160405190810160405280929190818152602001828054610c6b9061208b565b8015610cb85780601f10610c8d57610100808354040283529160200191610cb8565b820191906000526020600020905b815481529060010190602001808311610c9b57829003601f168201915b5050505050815260200160028201805480602002602001604051908101604052809291908181526020016000905b82821015610d92578382906000526020600020018054610d059061208b565b80601f0160208091040260200160405190810160405280929190818152602001828054610d319061208b565b8015610d7e5780601f10610d5357610100808354040283529160200191610d7e565b820191906000526020600020905b815481529060010190602001808311610d6157829003601f168201915b505050505081526020019060010190610ce6565b50505050815260200160038201805480602002602001604051908101604052809291908181526020018280548015610de957602002820191906000526020600020905b815481526020019060010190808311610dd5575b505050505081525050915050919050565b60008060009054906101000a900473ffffffffffffffffffffffffffffffffffffffff16905090565b565b60008151835114610e395760009050610eed565b60005b8351811015610ee757828181518110610e5857610e5761233a565b5b602001015160f81c60f81b7effffffffffffffffffffffffffffffffffffffffffffffffffffffffffffff1916848281518110610e9857610e9761233a565b5b602001015160f81c60f81b7effffffffffffffffffffffffffffffffffffffffffffffffffffffffffffff191614610ed4576000915050610eed565b8080610edf90612398565b915050610e3c565b50600190505b92915050565b610efb611794565b6000600683604051610f0d9190612045565b90815260200160405180910390208054610f269061208b565b80601f0160208091040260200160405190810160405280929190818152602001828054610f529061208b565b8015610f9f5780601f10610f7457610100808354040283529160200191610f9f565b820191906000526020600020905b815481529060010190602001808311610f8257829003601f168201915b50505050509050600281604051610fb69190612045565b9081526020016040518091039020604051806080016040529081600082018054610fdf9061208b565b80601f016020809104026020016040519081016040528092919081815260200182805461100b9061208b565b80156110585780601f1061102d57610100808354040283529160200191611058565b820191906000526020600020905b81548152906001019060200180831161103b57829003601f168201915b505050505081526020016001820180546110719061208b565b80601f016020809104026020016040519081016040528092919081815260200182805461109d9061208b565b80156110ea5780601f106110bf576101008083540402835291602001916110ea565b820191906000526020600020905b8154815290600101906020018083116110cd57829003601f168201915b5050505050815260200160028201805480602002602001604051908101604052809291908181526020016000905b828210156111c45783829060005260206000200180546111379061208b565b80601f01602080910402602001604051908101604052809291908181526020018280546111639061208b565b80156111b05780601f10611185576101008083540402835291602001916111b0565b820191906000526020600020905b81548152906001019060200180831161119357829003601f168201915b505050505081526020019060010190611118565b5050505081526020016003820180548060200260200160405190810160405280929190818152602001828054801561121b57602002820191906000526020600020905b815481526020019060010190808311611207575b505050505081525050915050919050565b600061126d826040518060400160405280600b81526020017f7573657257616c6c657473000000000000000000000000000000000000000000815250610e25565b156112e45760405160200161128190612406565b604051602081830303815290604052805190602001206005846040516112a79190612045565b90815260200160405180910390206040516020016112c5919061249e565b6040516020818303038152906040528051906020012014159050611455565b611323826040518060400160405280600881526020017f757365724c656e73000000000000000000000000000000000000000000000000815250610e25565b1561139a5760405160200161133790612406565b6040516020818303038152906040528051906020012060068460405161135d9190612045565b908152602001604051809103902060405160200161137b919061249e565b6040516020818303038152906040528051906020012014159050611455565b6113d9826040518060400160405280600881526020017f7573657257434944000000000000000000000000000000000000000000000000815250610e25565b15611450576040516020016113ed90612406565b604051602081830303815290604052805190602001206004846040516114139190612045565b9081526020016040518091039020604051602001611431919061249e565b6040516020818303038152906040528051906020012014159050611455565b600090505b92915050565b611463611794565b60006004836040516114759190612045565b9081526020016040518091039020805461148e9061208b565b80601f01602080910402602001604051908101604052809291908181526020018280546114ba9061208b565b80156115075780601f106114dc57610100808354040283529160200191611507565b820191906000526020600020905b8154815290600101906020018083116114ea57829003601f168201915b5050505050905060028160405161151e9190612045565b90815260200160405180910390206040518060800160405290816000820180546115479061208b565b80601f01602080910402602001604051908101604052809291908181526020018280546115739061208b565b80156115c05780601f10611595576101008083540402835291602001916115c0565b820191906000526020600020905b8154815290600101906020018083116115a357829003601f168201915b505050505081526020016001820180546115d99061208b565b80601f01602080910402602001604051908101604052809291908181526020018280546116059061208b565b80156116525780601f1061162757610100808354040283529160200191611652565b820191906000526020600020905b81548152906001019060200180831161163557829003601f168201915b5050505050815260200160028201805480602002602001604051908101604052809291908181526020016000905b8282101561172c57838290600052602060002001805461169f9061208b565b80601f01602080910402602001604051908101604052809291908181526020018280546116cb9061208b565b80156117185780601f106116ed57610100808354040283529160200191611718565b820191906000526020600020905b8154815290600101906020018083116116fb57829003601f168201915b505050505081526020019060010190611680565b5050505081526020016003820180548060200260200160405190810160405280929190818152602001828054801561178357602002820191906000526020600020905b81548152602001906001019080831161176f575b505050505081525050915050919050565b6040518060800160405280606081526020016060815260200160608152602001606081525090565b828054828255906000526020600020908101928215611804579160200282015b828111156118035782518290816117f39190612268565b50916020019190600101906117dc565b5b5090506118119190611862565b5090565b828054828255906000526020600020908101928215611851579160200282015b82811115611850578251825591602001919060010190611835565b5b50905061185e9190611886565b5090565b5b80821115611882576000818161187991906118a3565b50600101611863565b5090565b5b8082111561189f576000816000905550600101611887565b5090565b5080546118af9061208b565b6000825580601f106118c157506118e0565b601f0160209004906000526020600020908101906118df9190611886565b5b50565b6000604051905090565b600080fd5b600080fd5b600080fd5b600080fd5b6000601f19601f8301169050919050565b7f4e487b7100000000000000000000000000000000000000000000000000000000600052604160045260246000fd5b61194a82611901565b810181811067ffffffffffffffff8211171561196957611968611912565b5b80604052505050565b600061197c6118e3565b90506119888282611941565b919050565b600067ffffffffffffffff8211156119a8576119a7611912565b5b6119b182611901565b9050602081019050919050565b82818337600083830152505050565b60006119e06119db8461198d565b611972565b9050828152602081018484840111156119fc576119fb6118fc565b5b611a078482856119be565b509392505050565b600082601f830112611a2457611a236118f7565b5b8135611a348482602086016119cd565b91505092915050565b60008060408385031215611a5457611a536118ed565b5b600083013567ffffffffffffffff811115611a7257611a716118f2565b5b611a7e85828601611a0f565b925050602083013567ffffffffffffffff811115611a9f57611a9e6118f2565b5b611aab85828601611a0f565b9150509250929050565b600060208284031215611acb57611aca6118ed565b5b600082013567ffffffffffffffff811115611ae957611ae86118f2565b5b611af584828501611a0f565b91505092915050565b600081519050919050565b600082825260208201905092915050565b60005b83811015611b38578082015181840152602081019050611b1d565b60008484015250505050565b6000611b4f82611afe565b611b598185611b09565b9350611b69818560208601611b1a565b611b7281611901565b840191505092915050565b600081519050919050565b600082825260208201905092915050565b6000819050602082019050919050565b6000611bb58383611b44565b905092915050565b6000602082019050919050565b6000611bd582611b7d565b611bdf8185611b88565b935083602082028501611bf185611b99565b8060005b85811015611c2d5784840389528151611c0e8582611ba9565b9450611c1983611bbd565b925060208a01995050600181019050611bf5565b50829750879550505050505092915050565b600081519050919050565b600082825260208201905092915050565b6000819050602082019050919050565b6000819050919050565b611c7e81611c6b565b82525050565b6000611c908383611c75565b60208301905092915050565b6000602082019050919050565b6000611cb482611c3f565b611cbe8185611c4a565b9350611cc983611c5b565b8060005b83811015611cfa578151611ce18882611c84565b9750611cec83611c9c565b925050600181019050611ccd565b5085935050505092915050565b60006080830160008301518482036000860152611d248282611b44565b91505060208301518482036020860152611d3e8282611b44565b91505060408301518482036040860152611d588282611bca565b91505060608301518482036060860152611d728282611ca9565b9150508091505092915050565b60006020820190508181036000830152611d998184611d07565b905092915050565b600067ffffffffffffffff821115611dbc57611dbb611912565b5b602082029050602081019050919050565b600080fd5b6000611de5611de084611da1565b611972565b90508083825260208201905060208402830185811115611e0857611e07611dcd565b5b835b81811015611e4f57803567ffffffffffffffff811115611e2d57611e2c6118f7565b5b808601611e3a8982611a0f565b85526020850194505050602081019050611e0a565b5050509392505050565b600082601f830112611e6e57611e6d6118f7565b5b8135611e7e848260208601611dd2565b91505092915050565b60008060408385031215611e9e57611e9d6118ed565b5b600083013567ffffffffffffffff811115611ebc57611ebb6118f2565b5b611ec885828601611a0f565b925050602083013567ffffffffffffffff811115611ee957611ee86118f2565b5b611ef585828601611e59565b9150509250929050565b60008060408385031215611f1657611f156118ed565b5b600083013567ffffffffffffffff811115611f3457611f336118f2565b5b611f4085828601611e59565b925050602083013567ffffffffffffffff811115611f6157611f606118f2565b5b611f6d85828601611a0f565b9150509250929050565b600073ffffffffffffffffffffffffffffffffffffffff82169050919050565b6000611fa282611f77565b9050919050565b611fb281611f97565b82525050565b6000602082019050611fcd6000830184611fa9565b92915050565b60008115159050919050565b611fe881611fd3565b82525050565b60006020820190506120036000830184611fdf565b92915050565b600081905092915050565b600061201f82611afe565b6120298185612009565b9350612039818560208601611b1a565b80840191505092915050565b60006120518284612014565b915081905092915050565b7f4e487b7100000000000000000000000000000000000000000000000000000000600052602260045260246000fd5b600060028204905060018216806120a357607f821691505b6020821081036120b6576120b561205c565b5b50919050565b60008190508160005260206000209050919050565b60006020601f8301049050919050565b600082821b905092915050565b60006008830261211e7fffffffffffffffffffffffffffffffffffffffffffffffffffffffffffffffff826120e1565b61212886836120e1565b95508019841693508086168417925050509392505050565b6000819050919050565b600061216561216061215b84611c6b565b612140565b611c6b565b9050919050565b6000819050919050565b61217f8361214a565b61219361218b8261216c565b8484546120ee565b825550505050565b600090565b6121a861219b565b6121b3818484612176565b505050565b5b818110156121d7576121cc6000826121a0565b6001810190506121b9565b5050565b601f82111561221c576121ed816120bc565b6121f6846120d1565b81016020851015612205578190505b612219612211856120d1565b8301826121b8565b50505b505050565b600082821c905092915050565b600061223f60001984600802612221565b1980831691505092915050565b6000612258838361222e565b9150826002028217905092915050565b61227182611afe565b67ffffffffffffffff81111561228a57612289611912565b5b612294825461208b565b61229f8282856121db565b600060209050601f8311600181146122d257600084156122c0578287015190505b6122ca858261224c565b865550612332565b601f1984166122e0866120bc565b60005b82811015612308578489015182556001820191506020850194506020810190506122e3565b868310156123255784890151612321601f89168261222e565b8355505b6001600288020188555050505b505050505050565b7f4e487b7100000000000000000000000000000000000000000000000000000000600052603260045260246000fd5b7f4e487b7100000000000000000000000000000000000000000000000000000000600052601160045260246000fd5b60006123a382611c6b565b91507fffffffffffffffffffffffffffffffffffffffffffffffffffffffffffffffff82036123d5576123d4612369565b5b600182019050919050565b50565b60006123f0600083612009565b91506123fb826123e0565b600082019050919050565b6000612411826123e3565b9150819050919050565b600081546124288161208b565b6124328186612009565b9450600182166000811461244d576001811461246257612495565b60ff1983168652811515820286019350612495565b61246b856120bc565b60005b8381101561248d5781548189015260018201915060208101905061246e565b838801955050505b50505092915050565b60006124aa828461241b565b91508190509291505056fea26469706673582212206a2724a3af1accd87060cd60547e35e4634ab52925098035384f1237f94913c664736f6c63430008120033",
					"opcodes": "PUSH1 0x80 PUSH1 0x40 MSTORE CALLVALUE DUP1 ISZERO PUSH2 0x10 JUMPI PUSH1 0x0 DUP1 REVERT JUMPDEST POP CALLER PUSH1 0x0 DUP1 PUSH2 0x100 EXP DUP2 SLOAD DUP2 PUSH20 0xFFFFFFFFFFFFFFFFFFFFFFFFFFFFFFFFFFFFFFFF MUL NOT AND SWAP1 DUP4 PUSH20 0xFFFFFFFFFFFFFFFFFFFFFFFFFFFFFFFFFFFFFFFF AND MUL OR SWAP1 SSTORE POP PUSH2 0x24EB DUP1 PUSH2 0x60 PUSH1 0x0 CODECOPY PUSH1 0x0 RETURN INVALID PUSH1 0x80 PUSH1 0x40 MSTORE CALLVALUE DUP1 ISZERO PUSH2 0x10 JUMPI PUSH1 0x0 DUP1 REVERT JUMPDEST POP PUSH1 0x4 CALLDATASIZE LT PUSH2 0xB4 JUMPI PUSH1 0x0 CALLDATALOAD PUSH1 0xE0 SHR DUP1 PUSH4 0x893D20E8 GT PUSH2 0x71 JUMPI DUP1 PUSH4 0x893D20E8 EQ PUSH2 0x19D JUMPI DUP1 PUSH4 0x8D5FA841 EQ PUSH2 0x1BB JUMPI DUP1 PUSH4 0xBED34BBA EQ PUSH2 0x1C5 JUMPI DUP1 PUSH4 0xC77CFEEB EQ PUSH2 0x1F5 JUMPI DUP1 PUSH4 0xD430E05A EQ PUSH2 0x225 JUMPI DUP1 PUSH4 0xF70E1C5E EQ PUSH2 0x255 JUMPI PUSH2 0xB4 JUMP JUMPDEST DUP1 PUSH4 0x81396EB EQ PUSH2 0xB9 JUMPI DUP1 PUSH4 0x15C19C1D EQ PUSH2 0xD5 JUMPI DUP1 PUSH4 0x379F8FC2 EQ PUSH2 0xF1 JUMPI DUP1 PUSH4 0x51F40DD6 EQ PUSH2 0x121 JUMPI DUP1 PUSH4 0x63C60BD5 EQ PUSH2 0x151 JUMPI DUP1 PUSH4 0x7198ED1A EQ PUSH2 0x16D JUMPI JUMPDEST PUSH1 0x0 DUP1 REVERT JUMPDEST PUSH2 0xD3 PUSH1 0x4 DUP1 CALLDATASIZE SUB DUP2 ADD SWAP1 PUSH2 0xCE SWAP2 SWAP1 PUSH2 0x1A3D JUMP JUMPDEST PUSH2 0x285 JUMP JUMPDEST STOP JUMPDEST PUSH2 0xEF PUSH1 0x4 DUP1 CALLDATASIZE SUB DUP2 ADD SWAP1 PUSH2 0xEA SWAP2 SWAP1 PUSH2 0x1A3D JUMP JUMPDEST PUSH2 0x328 JUMP JUMPDEST STOP JUMPDEST PUSH2 0x10B PUSH1 0x4 DUP1 CALLDATASIZE SUB DUP2 ADD SWAP1 PUSH2 0x106 SWAP2 SWAP1 PUSH2 0x1AB5 JUMP JUMPDEST PUSH2 0x3CB JUMP JUMPDEST PUSH1 0x40 MLOAD PUSH2 0x118 SWAP2 SWAP1 PUSH2 0x1D7F JUMP JUMPDEST PUSH1 0x40 MLOAD DUP1 SWAP2 SUB SWAP1 RETURN JUMPDEST PUSH2 0x13B PUSH1 0x4 DUP1 CALLDATASIZE SUB DUP2 ADD SWAP1 PUSH2 0x136 SWAP2 SWAP1 PUSH2 0x1E87 JUMP JUMPDEST PUSH2 0x658 JUMP JUMPDEST PUSH1 0x40 MLOAD PUSH2 0x148 SWAP2 SWAP1 PUSH2 0x1D7F JUMP JUMPDEST PUSH1 0x40 MLOAD DUP1 SWAP2 SUB SWAP1 RETURN JUMPDEST PUSH2 0x16B PUSH1 0x4 DUP1 CALLDATASIZE SUB DUP2 ADD SWAP1 PUSH2 0x166 SWAP2 SWAP1 PUSH2 0x1EFF JUMP JUMPDEST PUSH2 0x9B9 JUMP JUMPDEST STOP JUMPDEST PUSH2 0x187 PUSH1 0x4 DUP1 CALLDATASIZE SUB DUP2 ADD SWAP1 PUSH2 0x182 SWAP2 SWAP1 PUSH2 0x1AB5 JUMP JUMPDEST PUSH2 0xAC1 JUMP JUMPDEST PUSH1 0x40 MLOAD PUSH2 0x194 SWAP2 SWAP1 PUSH2 0x1D7F JUMP JUMPDEST PUSH1 0x40 MLOAD DUP1 SWAP2 SUB SWAP1 RETURN JUMPDEST PUSH2 0x1A5 PUSH2 0xDFA JUMP JUMPDEST PUSH1 0x40 MLOAD PUSH2 0x1B2 SWAP2 SWAP1 PUSH2 0x1FB8 JUMP JUMPDEST PUSH1 0x40 MLOAD DUP1 SWAP2 SUB SWAP1 RETURN JUMPDEST PUSH2 0x1C3 PUSH2 0xE23 JUMP JUMPDEST STOP JUMPDEST PUSH2 0x1DF PUSH1 0x4 DUP1 CALLDATASIZE SUB DUP2 ADD SWAP1 PUSH2 0x1DA SWAP2 SWAP1 PUSH2 0x1A3D JUMP JUMPDEST PUSH2 0xE25 JUMP JUMPDEST PUSH1 0x40 MLOAD PUSH2 0x1EC SWAP2 SWAP1 PUSH2 0x1FEE JUMP JUMPDEST PUSH1 0x40 MLOAD DUP1 SWAP2 SUB SWAP1 RETURN JUMPDEST PUSH2 0x20F PUSH1 0x4 DUP1 CALLDATASIZE SUB DUP2 ADD SWAP1 PUSH2 0x20A SWAP2 SWAP1 PUSH2 0x1AB5 JUMP JUMPDEST PUSH2 0xEF3 JUMP JUMPDEST PUSH1 0x40 MLOAD PUSH2 0x21C SWAP2 SWAP1 PUSH2 0x1D7F JUMP JUMPDEST PUSH1 0x40 MLOAD DUP1 SWAP2 SUB SWAP1 RETURN JUMPDEST PUSH2 0x23F PUSH1 0x4 DUP1 CALLDATASIZE SUB DUP2 ADD SWAP1 PUSH2 0x23A SWAP2 SWAP1 PUSH2 0x1A3D JUMP JUMPDEST PUSH2 0x122C JUMP JUMPDEST PUSH1 0x40 MLOAD PUSH2 0x24C SWAP2 SWAP1 PUSH2 0x1FEE JUMP JUMPDEST PUSH1 0x40 MLOAD DUP1 SWAP2 SUB SWAP1 RETURN JUMPDEST PUSH2 0x26F PUSH1 0x4 DUP1 CALLDATASIZE SUB DUP2 ADD SWAP1 PUSH2 0x26A SWAP2 SWAP1 PUSH2 0x1AB5 JUMP JUMPDEST PUSH2 0x145B JUMP JUMPDEST PUSH1 0x40 MLOAD PUSH2 0x27C SWAP2 SWAP1 PUSH2 0x1D7F JUMP JUMPDEST PUSH1 0x40 MLOAD DUP1 SWAP2 SUB SWAP1 RETURN JUMPDEST PUSH2 0x2C4 DUP3 PUSH1 0x40 MLOAD DUP1 PUSH1 0x40 ADD PUSH1 0x40 MSTORE DUP1 PUSH1 0x8 DUP2 MSTORE PUSH1 0x20 ADD PUSH32 0x757365724C656E73000000000000000000000000000000000000000000000000 DUP2 MSTORE POP PUSH2 0x122C JUMP JUMPDEST PUSH2 0x324 JUMPI DUP1 PUSH1 0x6 DUP4 PUSH1 0x40 MLOAD PUSH2 0x2D9 SWAP2 SWAP1 PUSH2 0x2045 JUMP JUMPDEST SWAP1 DUP2 MSTORE PUSH1 0x20 ADD PUSH1 0x40 MLOAD DUP1 SWAP2 SUB SWAP1 KECCAK256 SWAP1 DUP2 PUSH2 0x2F3 SWAP2 SWAP1 PUSH2 0x2268 JUMP JUMPDEST POP DUP2 PUSH1 0x2 DUP3 PUSH1 0x40 MLOAD PUSH2 0x305 SWAP2 SWAP1 PUSH2 0x2045 JUMP JUMPDEST SWAP1 DUP2 MSTORE PUSH1 0x20 ADD PUSH1 0x40 MLOAD DUP1 SWAP2 SUB SWAP1 KECCAK256 PUSH1 0x1 ADD SWAP1 DUP2 PUSH2 0x322 SWAP2 SWAP1 PUSH2 0x2268 JUMP JUMPDEST POP JUMPDEST POP POP JUMP JUMPDEST PUSH2 0x367 DUP3 PUSH1 0x40 MLOAD DUP1 PUSH1 0x40 ADD PUSH1 0x40 MSTORE DUP1 PUSH1 0x8 DUP2 MSTORE PUSH1 0x20 ADD PUSH32 0x7573657257434944000000000000000000000000000000000000000000000000 DUP2 MSTORE POP PUSH2 0x122C JUMP JUMPDEST PUSH2 0x3C7 JUMPI DUP1 PUSH1 0x4 DUP4 PUSH1 0x40 MLOAD PUSH2 0x37C SWAP2 SWAP1 PUSH2 0x2045 JUMP JUMPDEST SWAP1 DUP2 MSTORE PUSH1 0x20 ADD PUSH1 0x40 MLOAD DUP1 SWAP2 SUB SWAP1 KECCAK256 SWAP1 DUP2 PUSH2 0x396 SWAP2 SWAP1 PUSH2 0x2268 JUMP JUMPDEST POP DUP2 PUSH1 0x2 DUP3 PUSH1 0x40 MLOAD PUSH2 0x3A8 SWAP2 SWAP1 PUSH2 0x2045 JUMP JUMPDEST SWAP1 DUP2 MSTORE PUSH1 0x20 ADD PUSH1 0x40 MLOAD DUP1 SWAP2 SUB SWAP1 KECCAK256 PUSH1 0x0 ADD SWAP1 DUP2 PUSH2 0x3C5 SWAP2 SWAP1 PUSH2 0x2268 JUMP JUMPDEST POP JUMPDEST POP POP JUMP JUMPDEST PUSH2 0x3D3 PUSH2 0x1794 JUMP JUMPDEST PUSH1 0x2 DUP3 PUSH1 0x40 MLOAD PUSH2 0x3E3 SWAP2 SWAP1 PUSH2 0x2045 JUMP JUMPDEST SWAP1 DUP2 MSTORE PUSH1 0x20 ADD PUSH1 0x40 MLOAD DUP1 SWAP2 SUB SWAP1 KECCAK256 PUSH1 0x40 MLOAD DUP1 PUSH1 0x80 ADD PUSH1 0x40 MSTORE SWAP1 DUP2 PUSH1 0x0 DUP3 ADD DUP1 SLOAD PUSH2 0x40C SWAP1 PUSH2 0x208B JUMP JUMPDEST DUP1 PUSH1 0x1F ADD PUSH1 0x20 DUP1 SWAP2 DIV MUL PUSH1 0x20 ADD PUSH1 0x40 MLOAD SWAP1 DUP2 ADD PUSH1 0x40 MSTORE DUP1 SWAP3 SWAP2 SWAP1 DUP2 DUP2 MSTORE PUSH1 0x20 ADD DUP3 DUP1 SLOAD PUSH2 0x438 SWAP1 PUSH2 0x208B JUMP JUMPDEST DUP1 ISZERO PUSH2 0x485 JUMPI DUP1 PUSH1 0x1F LT PUSH2 0x45A JUMPI PUSH2 0x100 DUP1 DUP4 SLOAD DIV MUL DUP4 MSTORE SWAP2 PUSH1 0x20 ADD SWAP2 PUSH2 0x485 JUMP JUMPDEST DUP3 ADD SWAP2 SWAP1 PUSH1 0x0 MSTORE PUSH1 0x20 PUSH1 0x0 KECCAK256 SWAP1 JUMPDEST DUP2 SLOAD DUP2 MSTORE SWAP1 PUSH1 0x1 ADD SWAP1 PUSH1 0x20 ADD DUP1 DUP4 GT PUSH2 0x468 JUMPI DUP3 SWAP1 SUB PUSH1 0x1F AND DUP3 ADD SWAP2 JUMPDEST POP POP POP POP POP DUP2 MSTORE PUSH1 0x20 ADD PUSH1 0x1 DUP3 ADD DUP1 SLOAD PUSH2 0x49E SWAP1 PUSH2 0x208B JUMP JUMPDEST DUP1 PUSH1 0x1F ADD PUSH1 0x20 DUP1 SWAP2 DIV MUL PUSH1 0x20 ADD PUSH1 0x40 MLOAD SWAP1 DUP2 ADD PUSH1 0x40 MSTORE DUP1 SWAP3 SWAP2 SWAP1 DUP2 DUP2 MSTORE PUSH1 0x20 ADD DUP3 DUP1 SLOAD PUSH2 0x4CA SWAP1 PUSH2 0x208B JUMP JUMPDEST DUP1 ISZERO PUSH2 0x517 JUMPI DUP1 PUSH1 0x1F LT PUSH2 0x4EC JUMPI PUSH2 0x100 DUP1 DUP4 SLOAD DIV MUL DUP4 MSTORE SWAP2 PUSH1 0x20 ADD SWAP2 PUSH2 0x517 JUMP JUMPDEST DUP3 ADD SWAP2 SWAP1 PUSH1 0x0 MSTORE PUSH1 0x20 PUSH1 0x0 KECCAK256 SWAP1 JUMPDEST DUP2 SLOAD DUP2 MSTORE SWAP1 PUSH1 0x1 ADD SWAP1 PUSH1 0x20 ADD DUP1 DUP4 GT PUSH2 0x4FA JUMPI DUP3 SWAP1 SUB PUSH1 0x1F AND DUP3 ADD SWAP2 JUMPDEST POP POP POP POP POP DUP2 MSTORE PUSH1 0x20 ADD PUSH1 0x2 DUP3 ADD DUP1 SLOAD DUP1 PUSH1 0x20 MUL PUSH1 0x20 ADD PUSH1 0x40 MLOAD SWAP1 DUP2 ADD PUSH1 0x40 MSTORE DUP1 SWAP3 SWAP2 SWAP1 DUP2 DUP2 MSTORE PUSH1 0x20 ADD PUSH1 0x0 SWAP1 JUMPDEST DUP3 DUP3 LT ISZERO PUSH2 0x5F1 JUMPI DUP4 DUP3 SWAP1 PUSH1 0x0 MSTORE PUSH1 0x20 PUSH1 0x0 KECCAK256 ADD DUP1 SLOAD PUSH2 0x564 SWAP1 PUSH2 0x208B JUMP JUMPDEST DUP1 PUSH1 0x1F ADD PUSH1 0x20 DUP1 SWAP2 DIV MUL PUSH1 0x20 ADD PUSH1 0x40 MLOAD SWAP1 DUP2 ADD PUSH1 0x40 MSTORE DUP1 SWAP3 SWAP2 SWAP1 DUP2 DUP2 MSTORE PUSH1 0x20 ADD DUP3 DUP1 SLOAD PUSH2 0x590 SWAP1 PUSH2 0x208B JUMP JUMPDEST DUP1 ISZERO PUSH2 0x5DD JUMPI DUP1 PUSH1 0x1F LT PUSH2 0x5B2 JUMPI PUSH2 0x100 DUP1 DUP4 SLOAD DIV MUL DUP4 MSTORE SWAP2 PUSH1 0x20 ADD SWAP2 PUSH2 0x5DD JUMP JUMPDEST DUP3 ADD SWAP2 SWAP1 PUSH1 0x0 MSTORE PUSH1 0x20 PUSH1 0x0 KECCAK256 SWAP1 JUMPDEST DUP2 SLOAD DUP2 MSTORE SWAP1 PUSH1 0x1 ADD SWAP1 PUSH1 0x20 ADD DUP1 DUP4 GT PUSH2 0x5C0 JUMPI DUP3 SWAP1 SUB PUSH1 0x1F AND DUP3 ADD SWAP2 JUMPDEST POP POP POP POP POP DUP2 MSTORE PUSH1 0x20 ADD SWAP1 PUSH1 0x1 ADD SWAP1 PUSH2 0x545 JUMP JUMPDEST POP POP POP POP DUP2 MSTORE PUSH1 0x20 ADD PUSH1 0x3 DUP3 ADD DUP1 SLOAD DUP1 PUSH1 0x20 MUL PUSH1 0x20 ADD PUSH1 0x40 MLOAD SWAP1 DUP2 ADD PUSH1 0x40 MSTORE DUP1 SWAP3 SWAP2 SWAP1 DUP2 DUP2 MSTORE PUSH1 0x20 ADD DUP3 DUP1 SLOAD DUP1 ISZERO PUSH2 0x648 JUMPI PUSH1 0x20 MUL DUP3 ADD SWAP2 SWAP1 PUSH1 0x0 MSTORE PUSH1 0x20 PUSH1 0x0 KECCAK256 SWAP1 JUMPDEST DUP2 SLOAD DUP2 MSTORE PUSH1 0x20 ADD SWAP1 PUSH1 0x1 ADD SWAP1 DUP1 DUP4 GT PUSH2 0x634 JUMPI JUMPDEST POP POP POP POP POP DUP2 MSTORE POP POP SWAP1 POP SWAP2 SWAP1 POP JUMP JUMPDEST PUSH2 0x660 PUSH2 0x1794 JUMP JUMPDEST PUSH1 0x60 PUSH1 0x40 MLOAD DUP1 PUSH1 0x80 ADD PUSH1 0x40 MSTORE DUP1 PUSH1 0x40 MLOAD DUP1 PUSH1 0x20 ADD PUSH1 0x40 MSTORE DUP1 PUSH1 0x0 DUP2 MSTORE POP DUP2 MSTORE PUSH1 0x20 ADD PUSH1 0x40 MLOAD DUP1 PUSH1 0x20 ADD PUSH1 0x40 MSTORE DUP1 PUSH1 0x0 DUP2 MSTORE POP DUP2 MSTORE PUSH1 0x20 ADD DUP5 DUP2 MSTORE PUSH1 0x20 ADD DUP3 DUP2 MSTORE POP PUSH1 0x2 DUP6 PUSH1 0x40 MLOAD PUSH2 0x6B1 SWAP2 SWAP1 PUSH2 0x2045 JUMP JUMPDEST SWAP1 DUP2 MSTORE PUSH1 0x20 ADD PUSH1 0x40 MLOAD DUP1 SWAP2 SUB SWAP1 KECCAK256 PUSH1 0x0 DUP3 ADD MLOAD DUP2 PUSH1 0x0 ADD SWAP1 DUP2 PUSH2 0x6D4 SWAP2 SWAP1 PUSH2 0x2268 JUMP JUMPDEST POP PUSH1 0x20 DUP3 ADD MLOAD DUP2 PUSH1 0x1 ADD SWAP1 DUP2 PUSH2 0x6EA SWAP2 SWAP1 PUSH2 0x2268 JUMP JUMPDEST POP PUSH1 0x40 DUP3 ADD MLOAD DUP2 PUSH1 0x2 ADD SWAP1 DUP1 MLOAD SWAP1 PUSH1 0x20 ADD SWAP1 PUSH2 0x707 SWAP3 SWAP2 SWAP1 PUSH2 0x17BC JUMP JUMPDEST POP PUSH1 0x60 DUP3 ADD MLOAD DUP2 PUSH1 0x3 ADD SWAP1 DUP1 MLOAD SWAP1 PUSH1 0x20 ADD SWAP1 PUSH2 0x724 SWAP3 SWAP2 SWAP1 PUSH2 0x1815 JUMP JUMPDEST POP SWAP1 POP POP PUSH2 0x732 DUP4 DUP6 PUSH2 0x9B9 JUMP JUMPDEST PUSH1 0x2 DUP5 PUSH1 0x40 MLOAD PUSH2 0x742 SWAP2 SWAP1 PUSH2 0x2045 JUMP JUMPDEST SWAP1 DUP2 MSTORE PUSH1 0x20 ADD PUSH1 0x40 MLOAD DUP1 SWAP2 SUB SWAP1 KECCAK256 PUSH1 0x40 MLOAD DUP1 PUSH1 0x80 ADD PUSH1 0x40 MSTORE SWAP1 DUP2 PUSH1 0x0 DUP3 ADD DUP1 SLOAD PUSH2 0x76B SWAP1 PUSH2 0x208B JUMP JUMPDEST DUP1 PUSH1 0x1F ADD PUSH1 0x20 DUP1 SWAP2 DIV MUL PUSH1 0x20 ADD PUSH1 0x40 MLOAD SWAP1 DUP2 ADD PUSH1 0x40 MSTORE DUP1 SWAP3 SWAP2 SWAP1 DUP2 DUP2 MSTORE PUSH1 0x20 ADD DUP3 DUP1 SLOAD PUSH2 0x797 SWAP1 PUSH2 0x208B JUMP JUMPDEST DUP1 ISZERO PUSH2 0x7E4 JUMPI DUP1 PUSH1 0x1F LT PUSH2 0x7B9 JUMPI PUSH2 0x100 DUP1 DUP4 SLOAD DIV MUL DUP4 MSTORE SWAP2 PUSH1 0x20 ADD SWAP2 PUSH2 0x7E4 JUMP JUMPDEST DUP3 ADD SWAP2 SWAP1 PUSH1 0x0 MSTORE PUSH1 0x20 PUSH1 0x0 KECCAK256 SWAP1 JUMPDEST DUP2 SLOAD DUP2 MSTORE SWAP1 PUSH1 0x1 ADD SWAP1 PUSH1 0x20 ADD DUP1 DUP4 GT PUSH2 0x7C7 JUMPI DUP3 SWAP1 SUB PUSH1 0x1F AND DUP3 ADD SWAP2 JUMPDEST POP POP POP POP POP DUP2 MSTORE PUSH1 0x20 ADD PUSH1 0x1 DUP3 ADD DUP1 SLOAD PUSH2 0x7FD SWAP1 PUSH2 0x208B JUMP JUMPDEST DUP1 PUSH1 0x1F ADD PUSH1 0x20 DUP1 SWAP2 DIV MUL PUSH1 0x20 ADD PUSH1 0x40 MLOAD SWAP1 DUP2 ADD PUSH1 0x40 MSTORE DUP1 SWAP3 SWAP2 SWAP1 DUP2 DUP2 MSTORE PUSH1 0x20 ADD DUP3 DUP1 SLOAD PUSH2 0x829 SWAP1 PUSH2 0x208B JUMP JUMPDEST DUP1 ISZERO PUSH2 0x876 JUMPI DUP1 PUSH1 0x1F LT PUSH2 0x84B JUMPI PUSH2 0x100 DUP1 DUP4 SLOAD DIV MUL DUP4 MSTORE SWAP2 PUSH1 0x20 ADD SWAP2 PUSH2 0x876 JUMP JUMPDEST DUP3 ADD SWAP2 SWAP1 PUSH1 0x0 MSTORE PUSH1 0x20 PUSH1 0x0 KECCAK256 SWAP1 JUMPDEST DUP2 SLOAD DUP2 MSTORE SWAP1 PUSH1 0x1 ADD SWAP1 PUSH1 0x20 ADD DUP1 DUP4 GT PUSH2 0x859 JUMPI DUP3 SWAP1 SUB PUSH1 0x1F AND DUP3 ADD SWAP2 JUMPDEST POP POP POP POP POP DUP2 MSTORE PUSH1 0x20 ADD PUSH1 0x2 DUP3 ADD DUP1 SLOAD DUP1 PUSH1 0x20 MUL PUSH1 0x20 ADD PUSH1 0x40 MLOAD SWAP1 DUP2 ADD PUSH1 0x40 MSTORE DUP1 SWAP3 SWAP2 SWAP1 DUP2 DUP2 MSTORE PUSH1 0x20 ADD PUSH1 0x0 SWAP1 JUMPDEST DUP3 DUP3 LT ISZERO PUSH2 0x950 JUMPI DUP4 DUP3 SWAP1 PUSH1 0x0 MSTORE PUSH1 0x20 PUSH1 0x0 KECCAK256 ADD DUP1 SLOAD PUSH2 0x8C3 SWAP1 PUSH2 0x208B JUMP JUMPDEST DUP1 PUSH1 0x1F ADD PUSH1 0x20 DUP1 SWAP2 DIV MUL PUSH1 0x20 ADD PUSH1 0x40 MLOAD SWAP1 DUP2 ADD PUSH1 0x40 MSTORE DUP1 SWAP3 SWAP2 SWAP1 DUP2 DUP2 MSTORE PUSH1 0x20 ADD DUP3 DUP1 SLOAD PUSH2 0x8EF SWAP1 PUSH2 0x208B JUMP JUMPDEST DUP1 ISZERO PUSH2 0x93C JUMPI DUP1 PUSH1 0x1F LT PUSH2 0x911 JUMPI PUSH2 0x100 DUP1 DUP4 SLOAD DIV MUL DUP4 MSTORE SWAP2 PUSH1 0x20 ADD SWAP2 PUSH2 0x93C JUMP JUMPDEST DUP3 ADD SWAP2 SWAP1 PUSH1 0x0 MSTORE PUSH1 0x20 PUSH1 0x0 KECCAK256 SWAP1 JUMPDEST DUP2 SLOAD DUP2 MSTORE SWAP1 PUSH1 0x1 ADD SWAP1 PUSH1 0x20 ADD DUP1 DUP4 GT PUSH2 0x91F JUMPI DUP3 SWAP1 SUB PUSH1 0x1F AND DUP3 ADD SWAP2 JUMPDEST POP POP POP POP POP DUP2 MSTORE PUSH1 0x20 ADD SWAP1 PUSH1 0x1 ADD SWAP1 PUSH2 0x8A4 JUMP JUMPDEST POP POP POP POP DUP2 MSTORE PUSH1 0x20 ADD PUSH1 0x3 DUP3 ADD DUP1 SLOAD DUP1 PUSH1 0x20 MUL PUSH1 0x20 ADD PUSH1 0x40 MLOAD SWAP1 DUP2 ADD PUSH1 0x40 MSTORE DUP1 SWAP3 SWAP2 SWAP1 DUP2 DUP2 MSTORE PUSH1 0x20 ADD DUP3 DUP1 SLOAD DUP1 ISZERO PUSH2 0x9A7 JUMPI PUSH1 0x20 MUL DUP3 ADD SWAP2 SWAP1 PUSH1 0x0 MSTORE PUSH1 0x20 PUSH1 0x0 KECCAK256 SWAP1 JUMPDEST DUP2 SLOAD DUP2 MSTORE PUSH1 0x20 ADD SWAP1 PUSH1 0x1 ADD SWAP1 DUP1 DUP4 GT PUSH2 0x993 JUMPI JUMPDEST POP POP POP POP POP DUP2 MSTORE POP POP SWAP2 POP POP SWAP3 SWAP2 POP POP JUMP JUMPDEST PUSH1 0x0 JUMPDEST DUP3 MLOAD DUP2 LT ISZERO PUSH2 0xABC JUMPI PUSH1 0x0 DUP4 DUP3 DUP2 MLOAD DUP2 LT PUSH2 0x9DA JUMPI PUSH2 0x9D9 PUSH2 0x233A JUMP JUMPDEST JUMPDEST PUSH1 0x20 MUL PUSH1 0x20 ADD ADD MLOAD SWAP1 POP PUSH2 0xA23 DUP2 PUSH1 0x40 MLOAD DUP1 PUSH1 0x40 ADD PUSH1 0x40 MSTORE DUP1 PUSH1 0xB DUP2 MSTORE PUSH1 0x20 ADD PUSH32 0x7573657257616C6C657473000000000000000000000000000000000000000000 DUP2 MSTORE POP PUSH2 0x122C JUMP JUMPDEST PUSH2 0xAA8 JUMPI DUP3 PUSH1 0x5 DUP3 PUSH1 0x40 MLOAD PUSH2 0xA38 SWAP2 SWAP1 PUSH2 0x2045 JUMP JUMPDEST SWAP1 DUP2 MSTORE PUSH1 0x20 ADD PUSH1 0x40 MLOAD DUP1 SWAP2 SUB SWAP1 KECCAK256 SWAP1 DUP2 PUSH2 0xA52 SWAP2 SWAP1 PUSH2 0x2268 JUMP JUMPDEST POP PUSH1 0x2 DUP4 PUSH1 0x40 MLOAD PUSH2 0xA63 SWAP2 SWAP1 PUSH2 0x2045 JUMP JUMPDEST SWAP1 DUP2 MSTORE PUSH1 0x20 ADD PUSH1 0x40 MLOAD DUP1 SWAP2 SUB SWAP1 KECCAK256 PUSH1 0x2 ADD DUP2 SWAP1 DUP1 PUSH1 0x1 DUP2 SLOAD ADD DUP1 DUP3 SSTORE DUP1 SWAP2 POP POP PUSH1 0x1 SWAP1 SUB SWAP1 PUSH1 0x0 MSTORE PUSH1 0x20 PUSH1 0x0 KECCAK256 ADD PUSH1 0x0 SWAP1 SWAP2 SWAP1 SWAP2 SWAP1 SWAP2 POP SWAP1 DUP2 PUSH2 0xAA6 SWAP2 SWAP1 PUSH2 0x2268 JUMP JUMPDEST POP JUMPDEST POP DUP1 DUP1 PUSH2 0xAB4 SWAP1 PUSH2 0x2398 JUMP JUMPDEST SWAP2 POP POP PUSH2 0x9BC JUMP JUMPDEST POP POP POP JUMP JUMPDEST PUSH2 0xAC9 PUSH2 0x1794 JUMP JUMPDEST PUSH1 0x0 PUSH1 0x5 DUP4 PUSH1 0x40 MLOAD PUSH2 0xADB SWAP2 SWAP1 PUSH2 0x2045 JUMP JUMPDEST SWAP1 DUP2 MSTORE PUSH1 0x20 ADD PUSH1 0x40 MLOAD DUP1 SWAP2 SUB SWAP1 KECCAK256 DUP1 SLOAD PUSH2 0xAF4 SWAP1 PUSH2 0x208B JUMP JUMPDEST DUP1 PUSH1 0x1F ADD PUSH1 0x20 DUP1 SWAP2 DIV MUL PUSH1 0x20 ADD PUSH1 0x40 MLOAD SWAP1 DUP2 ADD PUSH1 0x40 MSTORE DUP1 SWAP3 SWAP2 SWAP1 DUP2 DUP2 MSTORE PUSH1 0x20 ADD DUP3 DUP1 SLOAD PUSH2 0xB20 SWAP1 PUSH2 0x208B JUMP JUMPDEST DUP1 ISZERO PUSH2 0xB6D JUMPI DUP1 PUSH1 0x1F LT PUSH2 0xB42 JUMPI PUSH2 0x100 DUP1 DUP4 SLOAD DIV MUL DUP4 MSTORE SWAP2 PUSH1 0x20 ADD SWAP2 PUSH2 0xB6D JUMP JUMPDEST DUP3 ADD SWAP2 SWAP1 PUSH1 0x0 MSTORE PUSH1 0x20 PUSH1 0x0 KECCAK256 SWAP1 JUMPDEST DUP2 SLOAD DUP2 MSTORE SWAP1 PUSH1 0x1 ADD SWAP1 PUSH1 0x20 ADD DUP1 DUP4 GT PUSH2 0xB50 JUMPI DUP3 SWAP1 SUB PUSH1 0x1F AND DUP3 ADD SWAP2 JUMPDEST POP POP POP POP POP SWAP1 POP PUSH1 0x2 DUP2 PUSH1 0x40 MLOAD PUSH2 0xB84 SWAP2 SWAP1 PUSH2 0x2045 JUMP JUMPDEST SWAP1 DUP2 MSTORE PUSH1 0x20 ADD PUSH1 0x40 MLOAD DUP1 SWAP2 SUB SWAP1 KECCAK256 PUSH1 0x40 MLOAD DUP1 PUSH1 0x80 ADD PUSH1 0x40 MSTORE SWAP1 DUP2 PUSH1 0x0 DUP3 ADD DUP1 SLOAD PUSH2 0xBAD SWAP1 PUSH2 0x208B JUMP JUMPDEST DUP1 PUSH1 0x1F ADD PUSH1 0x20 DUP1 SWAP2 DIV MUL PUSH1 0x20 ADD PUSH1 0x40 MLOAD SWAP1 DUP2 ADD PUSH1 0x40 MSTORE DUP1 SWAP3 SWAP2 SWAP1 DUP2 DUP2 MSTORE PUSH1 0x20 ADD DUP3 DUP1 SLOAD PUSH2 0xBD9 SWAP1 PUSH2 0x208B JUMP JUMPDEST DUP1 ISZERO PUSH2 0xC26 JUMPI DUP1 PUSH1 0x1F LT PUSH2 0xBFB JUMPI PUSH2 0x100 DUP1 DUP4 SLOAD DIV MUL DUP4 MSTORE SWAP2 PUSH1 0x20 ADD SWAP2 PUSH2 0xC26 JUMP JUMPDEST DUP3 ADD SWAP2 SWAP1 PUSH1 0x0 MSTORE PUSH1 0x20 PUSH1 0x0 KECCAK256 SWAP1 JUMPDEST DUP2 SLOAD DUP2 MSTORE SWAP1 PUSH1 0x1 ADD SWAP1 PUSH1 0x20 ADD DUP1 DUP4 GT PUSH2 0xC09 JUMPI DUP3 SWAP1 SUB PUSH1 0x1F AND DUP3 ADD SWAP2 JUMPDEST POP POP POP POP POP DUP2 MSTORE PUSH1 0x20 ADD PUSH1 0x1 DUP3 ADD DUP1 SLOAD PUSH2 0xC3F SWAP1 PUSH2 0x208B JUMP JUMPDEST DUP1 PUSH1 0x1F ADD PUSH1 0x20 DUP1 SWAP2 DIV MUL PUSH1 0x20 ADD PUSH1 0x40 MLOAD SWAP1 DUP2 ADD PUSH1 0x40 MSTORE DUP1 SWAP3 SWAP2 SWAP1 DUP2 DUP2 MSTORE PUSH1 0x20 ADD DUP3 DUP1 SLOAD PUSH2 0xC6B SWAP1 PUSH2 0x208B JUMP JUMPDEST DUP1 ISZERO PUSH2 0xCB8 JUMPI DUP1 PUSH1 0x1F LT PUSH2 0xC8D JUMPI PUSH2 0x100 DUP1 DUP4 SLOAD DIV MUL DUP4 MSTORE SWAP2 PUSH1 0x20 ADD SWAP2 PUSH2 0xCB8 JUMP JUMPDEST DUP3 ADD SWAP2 SWAP1 PUSH1 0x0 MSTORE PUSH1 0x20 PUSH1 0x0 KECCAK256 SWAP1 JUMPDEST DUP2 SLOAD DUP2 MSTORE SWAP1 PUSH1 0x1 ADD SWAP1 PUSH1 0x20 ADD DUP1 DUP4 GT PUSH2 0xC9B JUMPI DUP3 SWAP1 SUB PUSH1 0x1F AND DUP3 ADD SWAP2 JUMPDEST POP POP POP POP POP DUP2 MSTORE PUSH1 0x20 ADD PUSH1 0x2 DUP3 ADD DUP1 SLOAD DUP1 PUSH1 0x20 MUL PUSH1 0x20 ADD PUSH1 0x40 MLOAD SWAP1 DUP2 ADD PUSH1 0x40 MSTORE DUP1 SWAP3 SWAP2 SWAP1 DUP2 DUP2 MSTORE PUSH1 0x20 ADD PUSH1 0x0 SWAP1 JUMPDEST DUP3 DUP3 LT ISZERO PUSH2 0xD92 JUMPI DUP4 DUP3 SWAP1 PUSH1 0x0 MSTORE PUSH1 0x20 PUSH1 0x0 KECCAK256 ADD DUP1 SLOAD PUSH2 0xD05 SWAP1 PUSH2 0x208B JUMP JUMPDEST DUP1 PUSH1 0x1F ADD PUSH1 0x20 DUP1 SWAP2 DIV MUL PUSH1 0x20 ADD PUSH1 0x40 MLOAD SWAP1 DUP2 ADD PUSH1 0x40 MSTORE DUP1 SWAP3 SWAP2 SWAP1 DUP2 DUP2 MSTORE PUSH1 0x20 ADD DUP3 DUP1 SLOAD PUSH2 0xD31 SWAP1 PUSH2 0x208B JUMP JUMPDEST DUP1 ISZERO PUSH2 0xD7E JUMPI DUP1 PUSH1 0x1F LT PUSH2 0xD53 JUMPI PUSH2 0x100 DUP1 DUP4 SLOAD DIV MUL DUP4 MSTORE SWAP2 PUSH1 0x20 ADD SWAP2 PUSH2 0xD7E JUMP JUMPDEST DUP3 ADD SWAP2 SWAP1 PUSH1 0x0 MSTORE PUSH1 0x20 PUSH1 0x0 KECCAK256 SWAP1 JUMPDEST DUP2 SLOAD DUP2 MSTORE SWAP1 PUSH1 0x1 ADD SWAP1 PUSH1 0x20 ADD DUP1 DUP4 GT PUSH2 0xD61 JUMPI DUP3 SWAP1 SUB PUSH1 0x1F AND DUP3 ADD SWAP2 JUMPDEST POP POP POP POP POP DUP2 MSTORE PUSH1 0x20 ADD SWAP1 PUSH1 0x1 ADD SWAP1 PUSH2 0xCE6 JUMP JUMPDEST POP POP POP POP DUP2 MSTORE PUSH1 0x20 ADD PUSH1 0x3 DUP3 ADD DUP1 SLOAD DUP1 PUSH1 0x20 MUL PUSH1 0x20 ADD PUSH1 0x40 MLOAD SWAP1 DUP2 ADD PUSH1 0x40 MSTORE DUP1 SWAP3 SWAP2 SWAP1 DUP2 DUP2 MSTORE PUSH1 0x20 ADD DUP3 DUP1 SLOAD DUP1 ISZERO PUSH2 0xDE9 JUMPI PUSH1 0x20 MUL DUP3 ADD SWAP2 SWAP1 PUSH1 0x0 MSTORE PUSH1 0x20 PUSH1 0x0 KECCAK256 SWAP1 JUMPDEST DUP2 SLOAD DUP2 MSTORE PUSH1 0x20 ADD SWAP1 PUSH1 0x1 ADD SWAP1 DUP1 DUP4 GT PUSH2 0xDD5 JUMPI JUMPDEST POP POP POP POP POP DUP2 MSTORE POP POP SWAP2 POP POP SWAP2 SWAP1 POP JUMP JUMPDEST PUSH1 0x0 DUP1 PUSH1 0x0 SWAP1 SLOAD SWAP1 PUSH2 0x100 EXP SWAP1 DIV PUSH20 0xFFFFFFFFFFFFFFFFFFFFFFFFFFFFFFFFFFFFFFFF AND SWAP1 POP SWAP1 JUMP JUMPDEST JUMP JUMPDEST PUSH1 0x0 DUP2 MLOAD DUP4 MLOAD EQ PUSH2 0xE39 JUMPI PUSH1 0x0 SWAP1 POP PUSH2 0xEED JUMP JUMPDEST PUSH1 0x0 JUMPDEST DUP4 MLOAD DUP2 LT ISZERO PUSH2 0xEE7 JUMPI DUP3 DUP2 DUP2 MLOAD DUP2 LT PUSH2 0xE58 JUMPI PUSH2 0xE57 PUSH2 0x233A JUMP JUMPDEST JUMPDEST PUSH1 0x20 ADD ADD MLOAD PUSH1 0xF8 SHR PUSH1 0xF8 SHL PUSH31 0xFFFFFFFFFFFFFFFFFFFFFFFFFFFFFFFFFFFFFFFFFFFFFFFFFFFFFFFFFFFFFF NOT AND DUP5 DUP3 DUP2 MLOAD DUP2 LT PUSH2 0xE98 JUMPI PUSH2 0xE97 PUSH2 0x233A JUMP JUMPDEST JUMPDEST PUSH1 0x20 ADD ADD MLOAD PUSH1 0xF8 SHR PUSH1 0xF8 SHL PUSH31 0xFFFFFFFFFFFFFFFFFFFFFFFFFFFFFFFFFFFFFFFFFFFFFFFFFFFFFFFFFFFFFF NOT AND EQ PUSH2 0xED4 JUMPI PUSH1 0x0 SWAP2 POP POP PUSH2 0xEED JUMP JUMPDEST DUP1 DUP1 PUSH2 0xEDF SWAP1 PUSH2 0x2398 JUMP JUMPDEST SWAP2 POP POP PUSH2 0xE3C JUMP JUMPDEST POP PUSH1 0x1 SWAP1 POP JUMPDEST SWAP3 SWAP2 POP POP JUMP JUMPDEST PUSH2 0xEFB PUSH2 0x1794 JUMP JUMPDEST PUSH1 0x0 PUSH1 0x6 DUP4 PUSH1 0x40 MLOAD PUSH2 0xF0D SWAP2 SWAP1 PUSH2 0x2045 JUMP JUMPDEST SWAP1 DUP2 MSTORE PUSH1 0x20 ADD PUSH1 0x40 MLOAD DUP1 SWAP2 SUB SWAP1 KECCAK256 DUP1 SLOAD PUSH2 0xF26 SWAP1 PUSH2 0x208B JUMP JUMPDEST DUP1 PUSH1 0x1F ADD PUSH1 0x20 DUP1 SWAP2 DIV MUL PUSH1 0x20 ADD PUSH1 0x40 MLOAD SWAP1 DUP2 ADD PUSH1 0x40 MSTORE DUP1 SWAP3 SWAP2 SWAP1 DUP2 DUP2 MSTORE PUSH1 0x20 ADD DUP3 DUP1 SLOAD PUSH2 0xF52 SWAP1 PUSH2 0x208B JUMP JUMPDEST DUP1 ISZERO PUSH2 0xF9F JUMPI DUP1 PUSH1 0x1F LT PUSH2 0xF74 JUMPI PUSH2 0x100 DUP1 DUP4 SLOAD DIV MUL DUP4 MSTORE SWAP2 PUSH1 0x20 ADD SWAP2 PUSH2 0xF9F JUMP JUMPDEST DUP3 ADD SWAP2 SWAP1 PUSH1 0x0 MSTORE PUSH1 0x20 PUSH1 0x0 KECCAK256 SWAP1 JUMPDEST DUP2 SLOAD DUP2 MSTORE SWAP1 PUSH1 0x1 ADD SWAP1 PUSH1 0x20 ADD DUP1 DUP4 GT PUSH2 0xF82 JUMPI DUP3 SWAP1 SUB PUSH1 0x1F AND DUP3 ADD SWAP2 JUMPDEST POP POP POP POP POP SWAP1 POP PUSH1 0x2 DUP2 PUSH1 0x40 MLOAD PUSH2 0xFB6 SWAP2 SWAP1 PUSH2 0x2045 JUMP JUMPDEST SWAP1 DUP2 MSTORE PUSH1 0x20 ADD PUSH1 0x40 MLOAD DUP1 SWAP2 SUB SWAP1 KECCAK256 PUSH1 0x40 MLOAD DUP1 PUSH1 0x80 ADD PUSH1 0x40 MSTORE SWAP1 DUP2 PUSH1 0x0 DUP3 ADD DUP1 SLOAD PUSH2 0xFDF SWAP1 PUSH2 0x208B JUMP JUMPDEST DUP1 PUSH1 0x1F ADD PUSH1 0x20 DUP1 SWAP2 DIV MUL PUSH1 0x20 ADD PUSH1 0x40 MLOAD SWAP1 DUP2 ADD PUSH1 0x40 MSTORE DUP1 SWAP3 SWAP2 SWAP1 DUP2 DUP2 MSTORE PUSH1 0x20 ADD DUP3 DUP1 SLOAD PUSH2 0x100B SWAP1 PUSH2 0x208B JUMP JUMPDEST DUP1 ISZERO PUSH2 0x1058 JUMPI DUP1 PUSH1 0x1F LT PUSH2 0x102D JUMPI PUSH2 0x100 DUP1 DUP4 SLOAD DIV MUL DUP4 MSTORE SWAP2 PUSH1 0x20 ADD SWAP2 PUSH2 0x1058 JUMP JUMPDEST DUP3 ADD SWAP2 SWAP1 PUSH1 0x0 MSTORE PUSH1 0x20 PUSH1 0x0 KECCAK256 SWAP1 JUMPDEST DUP2 SLOAD DUP2 MSTORE SWAP1 PUSH1 0x1 ADD SWAP1 PUSH1 0x20 ADD DUP1 DUP4 GT PUSH2 0x103B JUMPI DUP3 SWAP1 SUB PUSH1 0x1F AND DUP3 ADD SWAP2 JUMPDEST POP POP POP POP POP DUP2 MSTORE PUSH1 0x20 ADD PUSH1 0x1 DUP3 ADD DUP1 SLOAD PUSH2 0x1071 SWAP1 PUSH2 0x208B JUMP JUMPDEST DUP1 PUSH1 0x1F ADD PUSH1 0x20 DUP1 SWAP2 DIV MUL PUSH1 0x20 ADD PUSH1 0x40 MLOAD SWAP1 DUP2 ADD PUSH1 0x40 MSTORE DUP1 SWAP3 SWAP2 SWAP1 DUP2 DUP2 MSTORE PUSH1 0x20 ADD DUP3 DUP1 SLOAD PUSH2 0x109D SWAP1 PUSH2 0x208B JUMP JUMPDEST DUP1 ISZERO PUSH2 0x10EA JUMPI DUP1 PUSH1 0x1F LT PUSH2 0x10BF JUMPI PUSH2 0x100 DUP1 DUP4 SLOAD DIV MUL DUP4 MSTORE SWAP2 PUSH1 0x20 ADD SWAP2 PUSH2 0x10EA JUMP JUMPDEST DUP3 ADD SWAP2 SWAP1 PUSH1 0x0 MSTORE PUSH1 0x20 PUSH1 0x0 KECCAK256 SWAP1 JUMPDEST DUP2 SLOAD DUP2 MSTORE SWAP1 PUSH1 0x1 ADD SWAP1 PUSH1 0x20 ADD DUP1 DUP4 GT PUSH2 0x10CD JUMPI DUP3 SWAP1 SUB PUSH1 0x1F AND DUP3 ADD SWAP2 JUMPDEST POP POP POP POP POP DUP2 MSTORE PUSH1 0x20 ADD PUSH1 0x2 DUP3 ADD DUP1 SLOAD DUP1 PUSH1 0x20 MUL PUSH1 0x20 ADD PUSH1 0x40 MLOAD SWAP1 DUP2 ADD PUSH1 0x40 MSTORE DUP1 SWAP3 SWAP2 SWAP1 DUP2 DUP2 MSTORE PUSH1 0x20 ADD PUSH1 0x0 SWAP1 JUMPDEST DUP3 DUP3 LT ISZERO PUSH2 0x11C4 JUMPI DUP4 DUP3 SWAP1 PUSH1 0x0 MSTORE PUSH1 0x20 PUSH1 0x0 KECCAK256 ADD DUP1 SLOAD PUSH2 0x1137 SWAP1 PUSH2 0x208B JUMP JUMPDEST DUP1 PUSH1 0x1F ADD PUSH1 0x20 DUP1 SWAP2 DIV MUL PUSH1 0x20 ADD PUSH1 0x40 MLOAD SWAP1 DUP2 ADD PUSH1 0x40 MSTORE DUP1 SWAP3 SWAP2 SWAP1 DUP2 DUP2 MSTORE PUSH1 0x20 ADD DUP3 DUP1 SLOAD PUSH2 0x1163 SWAP1 PUSH2 0x208B JUMP JUMPDEST DUP1 ISZERO PUSH2 0x11B0 JUMPI DUP1 PUSH1 0x1F LT PUSH2 0x1185 JUMPI PUSH2 0x100 DUP1 DUP4 SLOAD DIV MUL DUP4 MSTORE SWAP2 PUSH1 0x20 ADD SWAP2 PUSH2 0x11B0 JUMP JUMPDEST DUP3 ADD SWAP2 SWAP1 PUSH1 0x0 MSTORE PUSH1 0x20 PUSH1 0x0 KECCAK256 SWAP1 JUMPDEST DUP2 SLOAD DUP2 MSTORE SWAP1 PUSH1 0x1 ADD SWAP1 PUSH1 0x20 ADD DUP1 DUP4 GT PUSH2 0x1193 JUMPI DUP3 SWAP1 SUB PUSH1 0x1F AND DUP3 ADD SWAP2 JUMPDEST POP POP POP POP POP DUP2 MSTORE PUSH1 0x20 ADD SWAP1 PUSH1 0x1 ADD SWAP1 PUSH2 0x1118 JUMP JUMPDEST POP POP POP POP DUP2 MSTORE PUSH1 0x20 ADD PUSH1 0x3 DUP3 ADD DUP1 SLOAD DUP1 PUSH1 0x20 MUL PUSH1 0x20 ADD PUSH1 0x40 MLOAD SWAP1 DUP2 ADD PUSH1 0x40 MSTORE DUP1 SWAP3 SWAP2 SWAP1 DUP2 DUP2 MSTORE PUSH1 0x20 ADD DUP3 DUP1 SLOAD DUP1 ISZERO PUSH2 0x121B JUMPI PUSH1 0x20 MUL DUP3 ADD SWAP2 SWAP1 PUSH1 0x0 MSTORE PUSH1 0x20 PUSH1 0x0 KECCAK256 SWAP1 JUMPDEST DUP2 SLOAD DUP2 MSTORE PUSH1 0x20 ADD SWAP1 PUSH1 0x1 ADD SWAP1 DUP1 DUP4 GT PUSH2 0x1207 JUMPI JUMPDEST POP POP POP POP POP DUP2 MSTORE POP POP SWAP2 POP POP SWAP2 SWAP1 POP JUMP JUMPDEST PUSH1 0x0 PUSH2 0x126D DUP3 PUSH1 0x40 MLOAD DUP1 PUSH1 0x40 ADD PUSH1 0x40 MSTORE DUP1 PUSH1 0xB DUP2 MSTORE PUSH1 0x20 ADD PUSH32 0x7573657257616C6C657473000000000000000000000000000000000000000000 DUP2 MSTORE POP PUSH2 0xE25 JUMP JUMPDEST ISZERO PUSH2 0x12E4 JUMPI PUSH1 0x40 MLOAD PUSH1 0x20 ADD PUSH2 0x1281 SWAP1 PUSH2 0x2406 JUMP JUMPDEST PUSH1 0x40 MLOAD PUSH1 0x20 DUP2 DUP4 SUB SUB DUP2 MSTORE SWAP1 PUSH1 0x40 MSTORE DUP1 MLOAD SWAP1 PUSH1 0x20 ADD KECCAK256 PUSH1 0x5 DUP5 PUSH1 0x40 MLOAD PUSH2 0x12A7 SWAP2 SWAP1 PUSH2 0x2045 JUMP JUMPDEST SWAP1 DUP2 MSTORE PUSH1 0x20 ADD PUSH1 0x40 MLOAD DUP1 SWAP2 SUB SWAP1 KECCAK256 PUSH1 0x40 MLOAD PUSH1 0x20 ADD PUSH2 0x12C5 SWAP2 SWAP1 PUSH2 0x249E JUMP JUMPDEST PUSH1 0x40 MLOAD PUSH1 0x20 DUP2 DUP4 SUB SUB DUP2 MSTORE SWAP1 PUSH1 0x40 MSTORE DUP1 MLOAD SWAP1 PUSH1 0x20 ADD KECCAK256 EQ ISZERO SWAP1 POP PUSH2 0x1455 JUMP JUMPDEST PUSH2 0x1323 DUP3 PUSH1 0x40 MLOAD DUP1 PUSH1 0x40 ADD PUSH1 0x40 MSTORE DUP1 PUSH1 0x8 DUP2 MSTORE PUSH1 0x20 ADD PUSH32 0x757365724C656E73000000000000000000000000000000000000000000000000 DUP2 MSTORE POP PUSH2 0xE25 JUMP JUMPDEST ISZERO PUSH2 0x139A JUMPI PUSH1 0x40 MLOAD PUSH1 0x20 ADD PUSH2 0x1337 SWAP1 PUSH2 0x2406 JUMP JUMPDEST PUSH1 0x40 MLOAD PUSH1 0x20 DUP2 DUP4 SUB SUB DUP2 MSTORE SWAP1 PUSH1 0x40 MSTORE DUP1 MLOAD SWAP1 PUSH1 0x20 ADD KECCAK256 PUSH1 0x6 DUP5 PUSH1 0x40 MLOAD PUSH2 0x135D SWAP2 SWAP1 PUSH2 0x2045 JUMP JUMPDEST SWAP1 DUP2 MSTORE PUSH1 0x20 ADD PUSH1 0x40 MLOAD DUP1 SWAP2 SUB SWAP1 KECCAK256 PUSH1 0x40 MLOAD PUSH1 0x20 ADD PUSH2 0x137B SWAP2 SWAP1 PUSH2 0x249E JUMP JUMPDEST PUSH1 0x40 MLOAD PUSH1 0x20 DUP2 DUP4 SUB SUB DUP2 MSTORE SWAP1 PUSH1 0x40 MSTORE DUP1 MLOAD SWAP1 PUSH1 0x20 ADD KECCAK256 EQ ISZERO SWAP1 POP PUSH2 0x1455 JUMP JUMPDEST PUSH2 0x13D9 DUP3 PUSH1 0x40 MLOAD DUP1 PUSH1 0x40 ADD PUSH1 0x40 MSTORE DUP1 PUSH1 0x8 DUP2 MSTORE PUSH1 0x20 ADD PUSH32 0x7573657257434944000000000000000000000000000000000000000000000000 DUP2 MSTORE POP PUSH2 0xE25 JUMP JUMPDEST ISZERO PUSH2 0x1450 JUMPI PUSH1 0x40 MLOAD PUSH1 0x20 ADD PUSH2 0x13ED SWAP1 PUSH2 0x2406 JUMP JUMPDEST PUSH1 0x40 MLOAD PUSH1 0x20 DUP2 DUP4 SUB SUB DUP2 MSTORE SWAP1 PUSH1 0x40 MSTORE DUP1 MLOAD SWAP1 PUSH1 0x20 ADD KECCAK256 PUSH1 0x4 DUP5 PUSH1 0x40 MLOAD PUSH2 0x1413 SWAP2 SWAP1 PUSH2 0x2045 JUMP JUMPDEST SWAP1 DUP2 MSTORE PUSH1 0x20 ADD PUSH1 0x40 MLOAD DUP1 SWAP2 SUB SWAP1 KECCAK256 PUSH1 0x40 MLOAD PUSH1 0x20 ADD PUSH2 0x1431 SWAP2 SWAP1 PUSH2 0x249E JUMP JUMPDEST PUSH1 0x40 MLOAD PUSH1 0x20 DUP2 DUP4 SUB SUB DUP2 MSTORE SWAP1 PUSH1 0x40 MSTORE DUP1 MLOAD SWAP1 PUSH1 0x20 ADD KECCAK256 EQ ISZERO SWAP1 POP PUSH2 0x1455 JUMP JUMPDEST PUSH1 0x0 SWAP1 POP JUMPDEST SWAP3 SWAP2 POP POP JUMP JUMPDEST PUSH2 0x1463 PUSH2 0x1794 JUMP JUMPDEST PUSH1 0x0 PUSH1 0x4 DUP4 PUSH1 0x40 MLOAD PUSH2 0x1475 SWAP2 SWAP1 PUSH2 0x2045 JUMP JUMPDEST SWAP1 DUP2 MSTORE PUSH1 0x20 ADD PUSH1 0x40 MLOAD DUP1 SWAP2 SUB SWAP1 KECCAK256 DUP1 SLOAD PUSH2 0x148E SWAP1 PUSH2 0x208B JUMP JUMPDEST DUP1 PUSH1 0x1F ADD PUSH1 0x20 DUP1 SWAP2 DIV MUL PUSH1 0x20 ADD PUSH1 0x40 MLOAD SWAP1 DUP2 ADD PUSH1 0x40 MSTORE DUP1 SWAP3 SWAP2 SWAP1 DUP2 DUP2 MSTORE PUSH1 0x20 ADD DUP3 DUP1 SLOAD PUSH2 0x14BA SWAP1 PUSH2 0x208B JUMP JUMPDEST DUP1 ISZERO PUSH2 0x1507 JUMPI DUP1 PUSH1 0x1F LT PUSH2 0x14DC JUMPI PUSH2 0x100 DUP1 DUP4 SLOAD DIV MUL DUP4 MSTORE SWAP2 PUSH1 0x20 ADD SWAP2 PUSH2 0x1507 JUMP JUMPDEST DUP3 ADD SWAP2 SWAP1 PUSH1 0x0 MSTORE PUSH1 0x20 PUSH1 0x0 KECCAK256 SWAP1 JUMPDEST DUP2 SLOAD DUP2 MSTORE SWAP1 PUSH1 0x1 ADD SWAP1 PUSH1 0x20 ADD DUP1 DUP4 GT PUSH2 0x14EA JUMPI DUP3 SWAP1 SUB PUSH1 0x1F AND DUP3 ADD SWAP2 JUMPDEST POP POP POP POP POP SWAP1 POP PUSH1 0x2 DUP2 PUSH1 0x40 MLOAD PUSH2 0x151E SWAP2 SWAP1 PUSH2 0x2045 JUMP JUMPDEST SWAP1 DUP2 MSTORE PUSH1 0x20 ADD PUSH1 0x40 MLOAD DUP1 SWAP2 SUB SWAP1 KECCAK256 PUSH1 0x40 MLOAD DUP1 PUSH1 0x80 ADD PUSH1 0x40 MSTORE SWAP1 DUP2 PUSH1 0x0 DUP3 ADD DUP1 SLOAD PUSH2 0x1547 SWAP1 PUSH2 0x208B JUMP JUMPDEST DUP1 PUSH1 0x1F ADD PUSH1 0x20 DUP1 SWAP2 DIV MUL PUSH1 0x20 ADD PUSH1 0x40 MLOAD SWAP1 DUP2 ADD PUSH1 0x40 MSTORE DUP1 SWAP3 SWAP2 SWAP1 DUP2 DUP2 MSTORE PUSH1 0x20 ADD DUP3 DUP1 SLOAD PUSH2 0x1573 SWAP1 PUSH2 0x208B JUMP JUMPDEST DUP1 ISZERO PUSH2 0x15C0 JUMPI DUP1 PUSH1 0x1F LT PUSH2 0x1595 JUMPI PUSH2 0x100 DUP1 DUP4 SLOAD DIV MUL DUP4 MSTORE SWAP2 PUSH1 0x20 ADD SWAP2 PUSH2 0x15C0 JUMP JUMPDEST DUP3 ADD SWAP2 SWAP1 PUSH1 0x0 MSTORE PUSH1 0x20 PUSH1 0x0 KECCAK256 SWAP1 JUMPDEST DUP2 SLOAD DUP2 MSTORE SWAP1 PUSH1 0x1 ADD SWAP1 PUSH1 0x20 ADD DUP1 DUP4 GT PUSH2 0x15A3 JUMPI DUP3 SWAP1 SUB PUSH1 0x1F AND DUP3 ADD SWAP2 JUMPDEST POP POP POP POP POP DUP2 MSTORE PUSH1 0x20 ADD PUSH1 0x1 DUP3 ADD DUP1 SLOAD PUSH2 0x15D9 SWAP1 PUSH2 0x208B JUMP JUMPDEST DUP1 PUSH1 0x1F ADD PUSH1 0x20 DUP1 SWAP2 DIV MUL PUSH1 0x20 ADD PUSH1 0x40 MLOAD SWAP1 DUP2 ADD PUSH1 0x40 MSTORE DUP1 SWAP3 SWAP2 SWAP1 DUP2 DUP2 MSTORE PUSH1 0x20 ADD DUP3 DUP1 SLOAD PUSH2 0x1605 SWAP1 PUSH2 0x208B JUMP JUMPDEST DUP1 ISZERO PUSH2 0x1652 JUMPI DUP1 PUSH1 0x1F LT PUSH2 0x1627 JUMPI PUSH2 0x100 DUP1 DUP4 SLOAD DIV MUL DUP4 MSTORE SWAP2 PUSH1 0x20 ADD SWAP2 PUSH2 0x1652 JUMP JUMPDEST DUP3 ADD SWAP2 SWAP1 PUSH1 0x0 MSTORE PUSH1 0x20 PUSH1 0x0 KECCAK256 SWAP1 JUMPDEST DUP2 SLOAD DUP2 MSTORE SWAP1 PUSH1 0x1 ADD SWAP1 PUSH1 0x20 ADD DUP1 DUP4 GT PUSH2 0x1635 JUMPI DUP3 SWAP1 SUB PUSH1 0x1F AND DUP3 ADD SWAP2 JUMPDEST POP POP POP POP POP DUP2 MSTORE PUSH1 0x20 ADD PUSH1 0x2 DUP3 ADD DUP1 SLOAD DUP1 PUSH1 0x20 MUL PUSH1 0x20 ADD PUSH1 0x40 MLOAD SWAP1 DUP2 ADD PUSH1 0x40 MSTORE DUP1 SWAP3 SWAP2 SWAP1 DUP2 DUP2 MSTORE PUSH1 0x20 ADD PUSH1 0x0 SWAP1 JUMPDEST DUP3 DUP3 LT ISZERO PUSH2 0x172C JUMPI DUP4 DUP3 SWAP1 PUSH1 0x0 MSTORE PUSH1 0x20 PUSH1 0x0 KECCAK256 ADD DUP1 SLOAD PUSH2 0x169F SWAP1 PUSH2 0x208B JUMP JUMPDEST DUP1 PUSH1 0x1F ADD PUSH1 0x20 DUP1 SWAP2 DIV MUL PUSH1 0x20 ADD PUSH1 0x40 MLOAD SWAP1 DUP2 ADD PUSH1 0x40 MSTORE DUP1 SWAP3 SWAP2 SWAP1 DUP2 DUP2 MSTORE PUSH1 0x20 ADD DUP3 DUP1 SLOAD PUSH2 0x16CB SWAP1 PUSH2 0x208B JUMP JUMPDEST DUP1 ISZERO PUSH2 0x1718 JUMPI DUP1 PUSH1 0x1F LT PUSH2 0x16ED JUMPI PUSH2 0x100 DUP1 DUP4 SLOAD DIV MUL DUP4 MSTORE SWAP2 PUSH1 0x20 ADD SWAP2 PUSH2 0x1718 JUMP JUMPDEST DUP3 ADD SWAP2 SWAP1 PUSH1 0x0 MSTORE PUSH1 0x20 PUSH1 0x0 KECCAK256 SWAP1 JUMPDEST DUP2 SLOAD DUP2 MSTORE SWAP1 PUSH1 0x1 ADD SWAP1 PUSH1 0x20 ADD DUP1 DUP4 GT PUSH2 0x16FB JUMPI DUP3 SWAP1 SUB PUSH1 0x1F AND DUP3 ADD SWAP2 JUMPDEST POP POP POP POP POP DUP2 MSTORE PUSH1 0x20 ADD SWAP1 PUSH1 0x1 ADD SWAP1 PUSH2 0x1680 JUMP JUMPDEST POP POP POP POP DUP2 MSTORE PUSH1 0x20 ADD PUSH1 0x3 DUP3 ADD DUP1 SLOAD DUP1 PUSH1 0x20 MUL PUSH1 0x20 ADD PUSH1 0x40 MLOAD SWAP1 DUP2 ADD PUSH1 0x40 MSTORE DUP1 SWAP3 SWAP2 SWAP1 DUP2 DUP2 MSTORE PUSH1 0x20 ADD DUP3 DUP1 SLOAD DUP1 ISZERO PUSH2 0x1783 JUMPI PUSH1 0x20 MUL DUP3 ADD SWAP2 SWAP1 PUSH1 0x0 MSTORE PUSH1 0x20 PUSH1 0x0 KECCAK256 SWAP1 JUMPDEST DUP2 SLOAD DUP2 MSTORE PUSH1 0x20 ADD SWAP1 PUSH1 0x1 ADD SWAP1 DUP1 DUP4 GT PUSH2 0x176F JUMPI JUMPDEST POP POP POP POP POP DUP2 MSTORE POP POP SWAP2 POP POP SWAP2 SWAP1 POP JUMP JUMPDEST PUSH1 0x40 MLOAD DUP1 PUSH1 0x80 ADD PUSH1 0x40 MSTORE DUP1 PUSH1 0x60 DUP2 MSTORE PUSH1 0x20 ADD PUSH1 0x60 DUP2 MSTORE PUSH1 0x20 ADD PUSH1 0x60 DUP2 MSTORE PUSH1 0x20 ADD PUSH1 0x60 DUP2 MSTORE POP SWAP1 JUMP JUMPDEST DUP3 DUP1 SLOAD DUP3 DUP3 SSTORE SWAP1 PUSH1 0x0 MSTORE PUSH1 0x20 PUSH1 0x0 KECCAK256 SWAP1 DUP2 ADD SWAP3 DUP3 ISZERO PUSH2 0x1804 JUMPI SWAP2 PUSH1 0x20 MUL DUP3 ADD JUMPDEST DUP3 DUP2 GT ISZERO PUSH2 0x1803 JUMPI DUP3 MLOAD DUP3 SWAP1 DUP2 PUSH2 0x17F3 SWAP2 SWAP1 PUSH2 0x2268 JUMP JUMPDEST POP SWAP2 PUSH1 0x20 ADD SWAP2 SWAP1 PUSH1 0x1 ADD SWAP1 PUSH2 0x17DC JUMP JUMPDEST JUMPDEST POP SWAP1 POP PUSH2 0x1811 SWAP2 SWAP1 PUSH2 0x1862 JUMP JUMPDEST POP SWAP1 JUMP JUMPDEST DUP3 DUP1 SLOAD DUP3 DUP3 SSTORE SWAP1 PUSH1 0x0 MSTORE PUSH1 0x20 PUSH1 0x0 KECCAK256 SWAP1 DUP2 ADD SWAP3 DUP3 ISZERO PUSH2 0x1851 JUMPI SWAP2 PUSH1 0x20 MUL DUP3 ADD JUMPDEST DUP3 DUP2 GT ISZERO PUSH2 0x1850 JUMPI DUP3 MLOAD DUP3 SSTORE SWAP2 PUSH1 0x20 ADD SWAP2 SWAP1 PUSH1 0x1 ADD SWAP1 PUSH2 0x1835 JUMP JUMPDEST JUMPDEST POP SWAP1 POP PUSH2 0x185E SWAP2 SWAP1 PUSH2 0x1886 JUMP JUMPDEST POP SWAP1 JUMP JUMPDEST JUMPDEST DUP1 DUP3 GT ISZERO PUSH2 0x1882 JUMPI PUSH1 0x0 DUP2 DUP2 PUSH2 0x1879 SWAP2 SWAP1 PUSH2 0x18A3 JUMP JUMPDEST POP PUSH1 0x1 ADD PUSH2 0x1863 JUMP JUMPDEST POP SWAP1 JUMP JUMPDEST JUMPDEST DUP1 DUP3 GT ISZERO PUSH2 0x189F JUMPI PUSH1 0x0 DUP2 PUSH1 0x0 SWAP1 SSTORE POP PUSH1 0x1 ADD PUSH2 0x1887 JUMP JUMPDEST POP SWAP1 JUMP JUMPDEST POP DUP1 SLOAD PUSH2 0x18AF SWAP1 PUSH2 0x208B JUMP JUMPDEST PUSH1 0x0 DUP3 SSTORE DUP1 PUSH1 0x1F LT PUSH2 0x18C1 JUMPI POP PUSH2 0x18E0 JUMP JUMPDEST PUSH1 0x1F ADD PUSH1 0x20 SWAP1 DIV SWAP1 PUSH1 0x0 MSTORE PUSH1 0x20 PUSH1 0x0 KECCAK256 SWAP1 DUP2 ADD SWAP1 PUSH2 0x18DF SWAP2 SWAP1 PUSH2 0x1886 JUMP JUMPDEST JUMPDEST POP JUMP JUMPDEST PUSH1 0x0 PUSH1 0x40 MLOAD SWAP1 POP SWAP1 JUMP JUMPDEST PUSH1 0x0 DUP1 REVERT JUMPDEST PUSH1 0x0 DUP1 REVERT JUMPDEST PUSH1 0x0 DUP1 REVERT JUMPDEST PUSH1 0x0 DUP1 REVERT JUMPDEST PUSH1 0x0 PUSH1 0x1F NOT PUSH1 0x1F DUP4 ADD AND SWAP1 POP SWAP2 SWAP1 POP JUMP JUMPDEST PUSH32 0x4E487B7100000000000000000000000000000000000000000000000000000000 PUSH1 0x0 MSTORE PUSH1 0x41 PUSH1 0x4 MSTORE PUSH1 0x24 PUSH1 0x0 REVERT JUMPDEST PUSH2 0x194A DUP3 PUSH2 0x1901 JUMP JUMPDEST DUP2 ADD DUP2 DUP2 LT PUSH8 0xFFFFFFFFFFFFFFFF DUP3 GT OR ISZERO PUSH2 0x1969 JUMPI PUSH2 0x1968 PUSH2 0x1912 JUMP JUMPDEST JUMPDEST DUP1 PUSH1 0x40 MSTORE POP POP POP JUMP JUMPDEST PUSH1 0x0 PUSH2 0x197C PUSH2 0x18E3 JUMP JUMPDEST SWAP1 POP PUSH2 0x1988 DUP3 DUP3 PUSH2 0x1941 JUMP JUMPDEST SWAP2 SWAP1 POP JUMP JUMPDEST PUSH1 0x0 PUSH8 0xFFFFFFFFFFFFFFFF DUP3 GT ISZERO PUSH2 0x19A8 JUMPI PUSH2 0x19A7 PUSH2 0x1912 JUMP JUMPDEST JUMPDEST PUSH2 0x19B1 DUP3 PUSH2 0x1901 JUMP JUMPDEST SWAP1 POP PUSH1 0x20 DUP2 ADD SWAP1 POP SWAP2 SWAP1 POP JUMP JUMPDEST DUP3 DUP2 DUP4 CALLDATACOPY PUSH1 0x0 DUP4 DUP4 ADD MSTORE POP POP POP JUMP JUMPDEST PUSH1 0x0 PUSH2 0x19E0 PUSH2 0x19DB DUP5 PUSH2 0x198D JUMP JUMPDEST PUSH2 0x1972 JUMP JUMPDEST SWAP1 POP DUP3 DUP2 MSTORE PUSH1 0x20 DUP2 ADD DUP5 DUP5 DUP5 ADD GT ISZERO PUSH2 0x19FC JUMPI PUSH2 0x19FB PUSH2 0x18FC JUMP JUMPDEST JUMPDEST PUSH2 0x1A07 DUP5 DUP3 DUP6 PUSH2 0x19BE JUMP JUMPDEST POP SWAP4 SWAP3 POP POP POP JUMP JUMPDEST PUSH1 0x0 DUP3 PUSH1 0x1F DUP4 ADD SLT PUSH2 0x1A24 JUMPI PUSH2 0x1A23 PUSH2 0x18F7 JUMP JUMPDEST JUMPDEST DUP2 CALLDATALOAD PUSH2 0x1A34 DUP5 DUP3 PUSH1 0x20 DUP7 ADD PUSH2 0x19CD JUMP JUMPDEST SWAP2 POP POP SWAP3 SWAP2 POP POP JUMP JUMPDEST PUSH1 0x0 DUP1 PUSH1 0x40 DUP4 DUP6 SUB SLT ISZERO PUSH2 0x1A54 JUMPI PUSH2 0x1A53 PUSH2 0x18ED JUMP JUMPDEST JUMPDEST PUSH1 0x0 DUP4 ADD CALLDATALOAD PUSH8 0xFFFFFFFFFFFFFFFF DUP2 GT ISZERO PUSH2 0x1A72 JUMPI PUSH2 0x1A71 PUSH2 0x18F2 JUMP JUMPDEST JUMPDEST PUSH2 0x1A7E DUP6 DUP3 DUP7 ADD PUSH2 0x1A0F JUMP JUMPDEST SWAP3 POP POP PUSH1 0x20 DUP4 ADD CALLDATALOAD PUSH8 0xFFFFFFFFFFFFFFFF DUP2 GT ISZERO PUSH2 0x1A9F JUMPI PUSH2 0x1A9E PUSH2 0x18F2 JUMP JUMPDEST JUMPDEST PUSH2 0x1AAB DUP6 DUP3 DUP7 ADD PUSH2 0x1A0F JUMP JUMPDEST SWAP2 POP POP SWAP3 POP SWAP3 SWAP1 POP JUMP JUMPDEST PUSH1 0x0 PUSH1 0x20 DUP3 DUP5 SUB SLT ISZERO PUSH2 0x1ACB JUMPI PUSH2 0x1ACA PUSH2 0x18ED JUMP JUMPDEST JUMPDEST PUSH1 0x0 DUP3 ADD CALLDATALOAD PUSH8 0xFFFFFFFFFFFFFFFF DUP2 GT ISZERO PUSH2 0x1AE9 JUMPI PUSH2 0x1AE8 PUSH2 0x18F2 JUMP JUMPDEST JUMPDEST PUSH2 0x1AF5 DUP5 DUP3 DUP6 ADD PUSH2 0x1A0F JUMP JUMPDEST SWAP2 POP POP SWAP3 SWAP2 POP POP JUMP JUMPDEST PUSH1 0x0 DUP2 MLOAD SWAP1 POP SWAP2 SWAP1 POP JUMP JUMPDEST PUSH1 0x0 DUP3 DUP3 MSTORE PUSH1 0x20 DUP3 ADD SWAP1 POP SWAP3 SWAP2 POP POP JUMP JUMPDEST PUSH1 0x0 JUMPDEST DUP4 DUP2 LT ISZERO PUSH2 0x1B38 JUMPI DUP1 DUP3 ADD MLOAD DUP2 DUP5 ADD MSTORE PUSH1 0x20 DUP2 ADD SWAP1 POP PUSH2 0x1B1D JUMP JUMPDEST PUSH1 0x0 DUP5 DUP5 ADD MSTORE POP POP POP POP JUMP JUMPDEST PUSH1 0x0 PUSH2 0x1B4F DUP3 PUSH2 0x1AFE JUMP JUMPDEST PUSH2 0x1B59 DUP2 DUP6 PUSH2 0x1B09 JUMP JUMPDEST SWAP4 POP PUSH2 0x1B69 DUP2 DUP6 PUSH1 0x20 DUP7 ADD PUSH2 0x1B1A JUMP JUMPDEST PUSH2 0x1B72 DUP2 PUSH2 0x1901 JUMP JUMPDEST DUP5 ADD SWAP2 POP POP SWAP3 SWAP2 POP POP JUMP JUMPDEST PUSH1 0x0 DUP2 MLOAD SWAP1 POP SWAP2 SWAP1 POP JUMP JUMPDEST PUSH1 0x0 DUP3 DUP3 MSTORE PUSH1 0x20 DUP3 ADD SWAP1 POP SWAP3 SWAP2 POP POP JUMP JUMPDEST PUSH1 0x0 DUP2 SWAP1 POP PUSH1 0x20 DUP3 ADD SWAP1 POP SWAP2 SWAP1 POP JUMP JUMPDEST PUSH1 0x0 PUSH2 0x1BB5 DUP4 DUP4 PUSH2 0x1B44 JUMP JUMPDEST SWAP1 POP SWAP3 SWAP2 POP POP JUMP JUMPDEST PUSH1 0x0 PUSH1 0x20 DUP3 ADD SWAP1 POP SWAP2 SWAP1 POP JUMP JUMPDEST PUSH1 0x0 PUSH2 0x1BD5 DUP3 PUSH2 0x1B7D JUMP JUMPDEST PUSH2 0x1BDF DUP2 DUP6 PUSH2 0x1B88 JUMP JUMPDEST SWAP4 POP DUP4 PUSH1 0x20 DUP3 MUL DUP6 ADD PUSH2 0x1BF1 DUP6 PUSH2 0x1B99 JUMP JUMPDEST DUP1 PUSH1 0x0 JUMPDEST DUP6 DUP2 LT ISZERO PUSH2 0x1C2D JUMPI DUP5 DUP5 SUB DUP10 MSTORE DUP2 MLOAD PUSH2 0x1C0E DUP6 DUP3 PUSH2 0x1BA9 JUMP JUMPDEST SWAP5 POP PUSH2 0x1C19 DUP4 PUSH2 0x1BBD JUMP JUMPDEST SWAP3 POP PUSH1 0x20 DUP11 ADD SWAP10 POP POP PUSH1 0x1 DUP2 ADD SWAP1 POP PUSH2 0x1BF5 JUMP JUMPDEST POP DUP3 SWAP8 POP DUP8 SWAP6 POP POP POP POP POP POP SWAP3 SWAP2 POP POP JUMP JUMPDEST PUSH1 0x0 DUP2 MLOAD SWAP1 POP SWAP2 SWAP1 POP JUMP JUMPDEST PUSH1 0x0 DUP3 DUP3 MSTORE PUSH1 0x20 DUP3 ADD SWAP1 POP SWAP3 SWAP2 POP POP JUMP JUMPDEST PUSH1 0x0 DUP2 SWAP1 POP PUSH1 0x20 DUP3 ADD SWAP1 POP SWAP2 SWAP1 POP JUMP JUMPDEST PUSH1 0x0 DUP2 SWAP1 POP SWAP2 SWAP1 POP JUMP JUMPDEST PUSH2 0x1C7E DUP2 PUSH2 0x1C6B JUMP JUMPDEST DUP3 MSTORE POP POP JUMP JUMPDEST PUSH1 0x0 PUSH2 0x1C90 DUP4 DUP4 PUSH2 0x1C75 JUMP JUMPDEST PUSH1 0x20 DUP4 ADD SWAP1 POP SWAP3 SWAP2 POP POP JUMP JUMPDEST PUSH1 0x0 PUSH1 0x20 DUP3 ADD SWAP1 POP SWAP2 SWAP1 POP JUMP JUMPDEST PUSH1 0x0 PUSH2 0x1CB4 DUP3 PUSH2 0x1C3F JUMP JUMPDEST PUSH2 0x1CBE DUP2 DUP6 PUSH2 0x1C4A JUMP JUMPDEST SWAP4 POP PUSH2 0x1CC9 DUP4 PUSH2 0x1C5B JUMP JUMPDEST DUP1 PUSH1 0x0 JUMPDEST DUP4 DUP2 LT ISZERO PUSH2 0x1CFA JUMPI DUP2 MLOAD PUSH2 0x1CE1 DUP9 DUP3 PUSH2 0x1C84 JUMP JUMPDEST SWAP8 POP PUSH2 0x1CEC DUP4 PUSH2 0x1C9C JUMP JUMPDEST SWAP3 POP POP PUSH1 0x1 DUP2 ADD SWAP1 POP PUSH2 0x1CCD JUMP JUMPDEST POP DUP6 SWAP4 POP POP POP POP SWAP3 SWAP2 POP POP JUMP JUMPDEST PUSH1 0x0 PUSH1 0x80 DUP4 ADD PUSH1 0x0 DUP4 ADD MLOAD DUP5 DUP3 SUB PUSH1 0x0 DUP7 ADD MSTORE PUSH2 0x1D24 DUP3 DUP3 PUSH2 0x1B44 JUMP JUMPDEST SWAP2 POP POP PUSH1 0x20 DUP4 ADD MLOAD DUP5 DUP3 SUB PUSH1 0x20 DUP7 ADD MSTORE PUSH2 0x1D3E DUP3 DUP3 PUSH2 0x1B44 JUMP JUMPDEST SWAP2 POP POP PUSH1 0x40 DUP4 ADD MLOAD DUP5 DUP3 SUB PUSH1 0x40 DUP7 ADD MSTORE PUSH2 0x1D58 DUP3 DUP3 PUSH2 0x1BCA JUMP JUMPDEST SWAP2 POP POP PUSH1 0x60 DUP4 ADD MLOAD DUP5 DUP3 SUB PUSH1 0x60 DUP7 ADD MSTORE PUSH2 0x1D72 DUP3 DUP3 PUSH2 0x1CA9 JUMP JUMPDEST SWAP2 POP POP DUP1 SWAP2 POP POP SWAP3 SWAP2 POP POP JUMP JUMPDEST PUSH1 0x0 PUSH1 0x20 DUP3 ADD SWAP1 POP DUP2 DUP2 SUB PUSH1 0x0 DUP4 ADD MSTORE PUSH2 0x1D99 DUP2 DUP5 PUSH2 0x1D07 JUMP JUMPDEST SWAP1 POP SWAP3 SWAP2 POP POP JUMP JUMPDEST PUSH1 0x0 PUSH8 0xFFFFFFFFFFFFFFFF DUP3 GT ISZERO PUSH2 0x1DBC JUMPI PUSH2 0x1DBB PUSH2 0x1912 JUMP JUMPDEST JUMPDEST PUSH1 0x20 DUP3 MUL SWAP1 POP PUSH1 0x20 DUP2 ADD SWAP1 POP SWAP2 SWAP1 POP JUMP JUMPDEST PUSH1 0x0 DUP1 REVERT JUMPDEST PUSH1 0x0 PUSH2 0x1DE5 PUSH2 0x1DE0 DUP5 PUSH2 0x1DA1 JUMP JUMPDEST PUSH2 0x1972 JUMP JUMPDEST SWAP1 POP DUP1 DUP4 DUP3 MSTORE PUSH1 0x20 DUP3 ADD SWAP1 POP PUSH1 0x20 DUP5 MUL DUP4 ADD DUP6 DUP2 GT ISZERO PUSH2 0x1E08 JUMPI PUSH2 0x1E07 PUSH2 0x1DCD JUMP JUMPDEST JUMPDEST DUP4 JUMPDEST DUP2 DUP2 LT ISZERO PUSH2 0x1E4F JUMPI DUP1 CALLDATALOAD PUSH8 0xFFFFFFFFFFFFFFFF DUP2 GT ISZERO PUSH2 0x1E2D JUMPI PUSH2 0x1E2C PUSH2 0x18F7 JUMP JUMPDEST JUMPDEST DUP1 DUP7 ADD PUSH2 0x1E3A DUP10 DUP3 PUSH2 0x1A0F JUMP JUMPDEST DUP6 MSTORE PUSH1 0x20 DUP6 ADD SWAP5 POP POP POP PUSH1 0x20 DUP2 ADD SWAP1 POP PUSH2 0x1E0A JUMP JUMPDEST POP POP POP SWAP4 SWAP3 POP POP POP JUMP JUMPDEST PUSH1 0x0 DUP3 PUSH1 0x1F DUP4 ADD SLT PUSH2 0x1E6E JUMPI PUSH2 0x1E6D PUSH2 0x18F7 JUMP JUMPDEST JUMPDEST DUP2 CALLDATALOAD PUSH2 0x1E7E DUP5 DUP3 PUSH1 0x20 DUP7 ADD PUSH2 0x1DD2 JUMP JUMPDEST SWAP2 POP POP SWAP3 SWAP2 POP POP JUMP JUMPDEST PUSH1 0x0 DUP1 PUSH1 0x40 DUP4 DUP6 SUB SLT ISZERO PUSH2 0x1E9E JUMPI PUSH2 0x1E9D PUSH2 0x18ED JUMP JUMPDEST JUMPDEST PUSH1 0x0 DUP4 ADD CALLDATALOAD PUSH8 0xFFFFFFFFFFFFFFFF DUP2 GT ISZERO PUSH2 0x1EBC JUMPI PUSH2 0x1EBB PUSH2 0x18F2 JUMP JUMPDEST JUMPDEST PUSH2 0x1EC8 DUP6 DUP3 DUP7 ADD PUSH2 0x1A0F JUMP JUMPDEST SWAP3 POP POP PUSH1 0x20 DUP4 ADD CALLDATALOAD PUSH8 0xFFFFFFFFFFFFFFFF DUP2 GT ISZERO PUSH2 0x1EE9 JUMPI PUSH2 0x1EE8 PUSH2 0x18F2 JUMP JUMPDEST JUMPDEST PUSH2 0x1EF5 DUP6 DUP3 DUP7 ADD PUSH2 0x1E59 JUMP JUMPDEST SWAP2 POP POP SWAP3 POP SWAP3 SWAP1 POP JUMP JUMPDEST PUSH1 0x0 DUP1 PUSH1 0x40 DUP4 DUP6 SUB SLT ISZERO PUSH2 0x1F16 JUMPI PUSH2 0x1F15 PUSH2 0x18ED JUMP JUMPDEST JUMPDEST PUSH1 0x0 DUP4 ADD CALLDATALOAD PUSH8 0xFFFFFFFFFFFFFFFF DUP2 GT ISZERO PUSH2 0x1F34 JUMPI PUSH2 0x1F33 PUSH2 0x18F2 JUMP JUMPDEST JUMPDEST PUSH2 0x1F40 DUP6 DUP3 DUP7 ADD PUSH2 0x1E59 JUMP JUMPDEST SWAP3 POP POP PUSH1 0x20 DUP4 ADD CALLDATALOAD PUSH8 0xFFFFFFFFFFFFFFFF DUP2 GT ISZERO PUSH2 0x1F61 JUMPI PUSH2 0x1F60 PUSH2 0x18F2 JUMP JUMPDEST JUMPDEST PUSH2 0x1F6D DUP6 DUP3 DUP7 ADD PUSH2 0x1A0F JUMP JUMPDEST SWAP2 POP POP SWAP3 POP SWAP3 SWAP1 POP JUMP JUMPDEST PUSH1 0x0 PUSH20 0xFFFFFFFFFFFFFFFFFFFFFFFFFFFFFFFFFFFFFFFF DUP3 AND SWAP1 POP SWAP2 SWAP1 POP JUMP JUMPDEST PUSH1 0x0 PUSH2 0x1FA2 DUP3 PUSH2 0x1F77 JUMP JUMPDEST SWAP1 POP SWAP2 SWAP1 POP JUMP JUMPDEST PUSH2 0x1FB2 DUP2 PUSH2 0x1F97 JUMP JUMPDEST DUP3 MSTORE POP POP JUMP JUMPDEST PUSH1 0x0 PUSH1 0x20 DUP3 ADD SWAP1 POP PUSH2 0x1FCD PUSH1 0x0 DUP4 ADD DUP5 PUSH2 0x1FA9 JUMP JUMPDEST SWAP3 SWAP2 POP POP JUMP JUMPDEST PUSH1 0x0 DUP2 ISZERO ISZERO SWAP1 POP SWAP2 SWAP1 POP JUMP JUMPDEST PUSH2 0x1FE8 DUP2 PUSH2 0x1FD3 JUMP JUMPDEST DUP3 MSTORE POP POP JUMP JUMPDEST PUSH1 0x0 PUSH1 0x20 DUP3 ADD SWAP1 POP PUSH2 0x2003 PUSH1 0x0 DUP4 ADD DUP5 PUSH2 0x1FDF JUMP JUMPDEST SWAP3 SWAP2 POP POP JUMP JUMPDEST PUSH1 0x0 DUP2 SWAP1 POP SWAP3 SWAP2 POP POP JUMP JUMPDEST PUSH1 0x0 PUSH2 0x201F DUP3 PUSH2 0x1AFE JUMP JUMPDEST PUSH2 0x2029 DUP2 DUP6 PUSH2 0x2009 JUMP JUMPDEST SWAP4 POP PUSH2 0x2039 DUP2 DUP6 PUSH1 0x20 DUP7 ADD PUSH2 0x1B1A JUMP JUMPDEST DUP1 DUP5 ADD SWAP2 POP POP SWAP3 SWAP2 POP POP JUMP JUMPDEST PUSH1 0x0 PUSH2 0x2051 DUP3 DUP5 PUSH2 0x2014 JUMP JUMPDEST SWAP2 POP DUP2 SWAP1 POP SWAP3 SWAP2 POP POP JUMP JUMPDEST PUSH32 0x4E487B7100000000000000000000000000000000000000000000000000000000 PUSH1 0x0 MSTORE PUSH1 0x22 PUSH1 0x4 MSTORE PUSH1 0x24 PUSH1 0x0 REVERT JUMPDEST PUSH1 0x0 PUSH1 0x2 DUP3 DIV SWAP1 POP PUSH1 0x1 DUP3 AND DUP1 PUSH2 0x20A3 JUMPI PUSH1 0x7F DUP3 AND SWAP2 POP JUMPDEST PUSH1 0x20 DUP3 LT DUP2 SUB PUSH2 0x20B6 JUMPI PUSH2 0x20B5 PUSH2 0x205C JUMP JUMPDEST JUMPDEST POP SWAP2 SWAP1 POP JUMP JUMPDEST PUSH1 0x0 DUP2 SWAP1 POP DUP2 PUSH1 0x0 MSTORE PUSH1 0x20 PUSH1 0x0 KECCAK256 SWAP1 POP SWAP2 SWAP1 POP JUMP JUMPDEST PUSH1 0x0 PUSH1 0x20 PUSH1 0x1F DUP4 ADD DIV SWAP1 POP SWAP2 SWAP1 POP JUMP JUMPDEST PUSH1 0x0 DUP3 DUP3 SHL SWAP1 POP SWAP3 SWAP2 POP POP JUMP JUMPDEST PUSH1 0x0 PUSH1 0x8 DUP4 MUL PUSH2 0x211E PUSH32 0xFFFFFFFFFFFFFFFFFFFFFFFFFFFFFFFFFFFFFFFFFFFFFFFFFFFFFFFFFFFFFFFF DUP3 PUSH2 0x20E1 JUMP JUMPDEST PUSH2 0x2128 DUP7 DUP4 PUSH2 0x20E1 JUMP JUMPDEST SWAP6 POP DUP1 NOT DUP5 AND SWAP4 POP DUP1 DUP7 AND DUP5 OR SWAP3 POP POP POP SWAP4 SWAP3 POP POP POP JUMP JUMPDEST PUSH1 0x0 DUP2 SWAP1 POP SWAP2 SWAP1 POP JUMP JUMPDEST PUSH1 0x0 PUSH2 0x2165 PUSH2 0x2160 PUSH2 0x215B DUP5 PUSH2 0x1C6B JUMP JUMPDEST PUSH2 0x2140 JUMP JUMPDEST PUSH2 0x1C6B JUMP JUMPDEST SWAP1 POP SWAP2 SWAP1 POP JUMP JUMPDEST PUSH1 0x0 DUP2 SWAP1 POP SWAP2 SWAP1 POP JUMP JUMPDEST PUSH2 0x217F DUP4 PUSH2 0x214A JUMP JUMPDEST PUSH2 0x2193 PUSH2 0x218B DUP3 PUSH2 0x216C JUMP JUMPDEST DUP5 DUP5 SLOAD PUSH2 0x20EE JUMP JUMPDEST DUP3 SSTORE POP POP POP POP JUMP JUMPDEST PUSH1 0x0 SWAP1 JUMP JUMPDEST PUSH2 0x21A8 PUSH2 0x219B JUMP JUMPDEST PUSH2 0x21B3 DUP2 DUP5 DUP5 PUSH2 0x2176 JUMP JUMPDEST POP POP POP JUMP JUMPDEST JUMPDEST DUP2 DUP2 LT ISZERO PUSH2 0x21D7 JUMPI PUSH2 0x21CC PUSH1 0x0 DUP3 PUSH2 0x21A0 JUMP JUMPDEST PUSH1 0x1 DUP2 ADD SWAP1 POP PUSH2 0x21B9 JUMP JUMPDEST POP POP JUMP JUMPDEST PUSH1 0x1F DUP3 GT ISZERO PUSH2 0x221C JUMPI PUSH2 0x21ED DUP2 PUSH2 0x20BC JUMP JUMPDEST PUSH2 0x21F6 DUP5 PUSH2 0x20D1 JUMP JUMPDEST DUP2 ADD PUSH1 0x20 DUP6 LT ISZERO PUSH2 0x2205 JUMPI DUP2 SWAP1 POP JUMPDEST PUSH2 0x2219 PUSH2 0x2211 DUP6 PUSH2 0x20D1 JUMP JUMPDEST DUP4 ADD DUP3 PUSH2 0x21B8 JUMP JUMPDEST POP POP JUMPDEST POP POP POP JUMP JUMPDEST PUSH1 0x0 DUP3 DUP3 SHR SWAP1 POP SWAP3 SWAP2 POP POP JUMP JUMPDEST PUSH1 0x0 PUSH2 0x223F PUSH1 0x0 NOT DUP5 PUSH1 0x8 MUL PUSH2 0x2221 JUMP JUMPDEST NOT DUP1 DUP4 AND SWAP2 POP POP SWAP3 SWAP2 POP POP JUMP JUMPDEST PUSH1 0x0 PUSH2 0x2258 DUP4 DUP4 PUSH2 0x222E JUMP JUMPDEST SWAP2 POP DUP3 PUSH1 0x2 MUL DUP3 OR SWAP1 POP SWAP3 SWAP2 POP POP JUMP JUMPDEST PUSH2 0x2271 DUP3 PUSH2 0x1AFE JUMP JUMPDEST PUSH8 0xFFFFFFFFFFFFFFFF DUP2 GT ISZERO PUSH2 0x228A JUMPI PUSH2 0x2289 PUSH2 0x1912 JUMP JUMPDEST JUMPDEST PUSH2 0x2294 DUP3 SLOAD PUSH2 0x208B JUMP JUMPDEST PUSH2 0x229F DUP3 DUP3 DUP6 PUSH2 0x21DB JUMP JUMPDEST PUSH1 0x0 PUSH1 0x20 SWAP1 POP PUSH1 0x1F DUP4 GT PUSH1 0x1 DUP2 EQ PUSH2 0x22D2 JUMPI PUSH1 0x0 DUP5 ISZERO PUSH2 0x22C0 JUMPI DUP3 DUP8 ADD MLOAD SWAP1 POP JUMPDEST PUSH2 0x22CA DUP6 DUP3 PUSH2 0x224C JUMP JUMPDEST DUP7 SSTORE POP PUSH2 0x2332 JUMP JUMPDEST PUSH1 0x1F NOT DUP5 AND PUSH2 0x22E0 DUP7 PUSH2 0x20BC JUMP JUMPDEST PUSH1 0x0 JUMPDEST DUP3 DUP2 LT ISZERO PUSH2 0x2308 JUMPI DUP5 DUP10 ADD MLOAD DUP3 SSTORE PUSH1 0x1 DUP3 ADD SWAP2 POP PUSH1 0x20 DUP6 ADD SWAP5 POP PUSH1 0x20 DUP2 ADD SWAP1 POP PUSH2 0x22E3 JUMP JUMPDEST DUP7 DUP4 LT ISZERO PUSH2 0x2325 JUMPI DUP5 DUP10 ADD MLOAD PUSH2 0x2321 PUSH1 0x1F DUP10 AND DUP3 PUSH2 0x222E JUMP JUMPDEST DUP4 SSTORE POP JUMPDEST PUSH1 0x1 PUSH1 0x2 DUP9 MUL ADD DUP9 SSTORE POP POP POP JUMPDEST POP POP POP POP POP POP JUMP JUMPDEST PUSH32 0x4E487B7100000000000000000000000000000000000000000000000000000000 PUSH1 0x0 MSTORE PUSH1 0x32 PUSH1 0x4 MSTORE PUSH1 0x24 PUSH1 0x0 REVERT JUMPDEST PUSH32 0x4E487B7100000000000000000000000000000000000000000000000000000000 PUSH1 0x0 MSTORE PUSH1 0x11 PUSH1 0x4 MSTORE PUSH1 0x24 PUSH1 0x0 REVERT JUMPDEST PUSH1 0x0 PUSH2 0x23A3 DUP3 PUSH2 0x1C6B JUMP JUMPDEST SWAP2 POP PUSH32 0xFFFFFFFFFFFFFFFFFFFFFFFFFFFFFFFFFFFFFFFFFFFFFFFFFFFFFFFFFFFFFFFF DUP3 SUB PUSH2 0x23D5 JUMPI PUSH2 0x23D4 PUSH2 0x2369 JUMP JUMPDEST JUMPDEST PUSH1 0x1 DUP3 ADD SWAP1 POP SWAP2 SWAP1 POP JUMP JUMPDEST POP JUMP JUMPDEST PUSH1 0x0 PUSH2 0x23F0 PUSH1 0x0 DUP4 PUSH2 0x2009 JUMP JUMPDEST SWAP2 POP PUSH2 0x23FB DUP3 PUSH2 0x23E0 JUMP JUMPDEST PUSH1 0x0 DUP3 ADD SWAP1 POP SWAP2 SWAP1 POP JUMP JUMPDEST PUSH1 0x0 PUSH2 0x2411 DUP3 PUSH2 0x23E3 JUMP JUMPDEST SWAP2 POP DUP2 SWAP1 POP SWAP2 SWAP1 POP JUMP JUMPDEST PUSH1 0x0 DUP2 SLOAD PUSH2 0x2428 DUP2 PUSH2 0x208B JUMP JUMPDEST PUSH2 0x2432 DUP2 DUP7 PUSH2 0x2009 JUMP JUMPDEST SWAP5 POP PUSH1 0x1 DUP3 AND PUSH1 0x0 DUP2 EQ PUSH2 0x244D JUMPI PUSH1 0x1 DUP2 EQ PUSH2 0x2462 JUMPI PUSH2 0x2495 JUMP JUMPDEST PUSH1 0xFF NOT DUP4 AND DUP7 MSTORE DUP2 ISZERO ISZERO DUP3 MUL DUP7 ADD SWAP4 POP PUSH2 0x2495 JUMP JUMPDEST PUSH2 0x246B DUP6 PUSH2 0x20BC JUMP JUMPDEST PUSH1 0x0 JUMPDEST DUP4 DUP2 LT ISZERO PUSH2 0x248D JUMPI DUP2 SLOAD DUP2 DUP10 ADD MSTORE PUSH1 0x1 DUP3 ADD SWAP2 POP PUSH1 0x20 DUP2 ADD SWAP1 POP PUSH2 0x246E JUMP JUMPDEST DUP4 DUP9 ADD SWAP6 POP POP POP JUMPDEST POP POP POP SWAP3 SWAP2 POP POP JUMP JUMPDEST PUSH1 0x0 PUSH2 0x24AA DUP3 DUP5 PUSH2 0x241B JUMP JUMPDEST SWAP2 POP DUP2 SWAP1 POP SWAP3 SWAP2 POP POP JUMP INVALID LOG2 PUSH5 0x6970667358 0x22 SLT KECCAK256 PUSH11 0x2724A3AF1ACCD87060CD60 SLOAD PUSH31 0x35E4634AB52925098035384F1237F94913C664736F6C634300081200330000 "
				},
				"gasEstimates": {
					"creation": {
						"codeDepositCost": "1890200",
						"executionCost": "26264",
						"totalCost": "1916464"
					},
					"external": {
						"assignLensToUser(string,string)": "infinite",
						"assignWalletsToUser(string[],string)": "infinite",
						"assignWorldCoinIdToUser(string,string)": "infinite",
						"compareStrings(string,string)": "infinite",
						"createUserAccount(string,string[])": "infinite",
						"doesKeyExist(string,string)": "infinite",
						"getOwner()": "2522",
						"getUserById(string)": "infinite",
						"getUserByLens(string)": "infinite",
						"getUserByWallet(string)": "infinite",
						"getUserByWorldCoin(string)": "infinite",
						"makeRentRequest()": "166"
					}
				},
				"methodIdentifiers": {
					"assignLensToUser(string,string)": "081396eb",
					"assignWalletsToUser(string[],string)": "63c60bd5",
					"assignWorldCoinIdToUser(string,string)": "15c19c1d",
					"compareStrings(string,string)": "bed34bba",
					"createUserAccount(string,string[])": "51f40dd6",
					"doesKeyExist(string,string)": "d430e05a",
					"getOwner()": "893d20e8",
					"getUserById(string)": "379f8fc2",
					"getUserByLens(string)": "c77cfeeb",
					"getUserByWallet(string)": "7198ed1a",
					"getUserByWorldCoin(string)": "f70e1c5e",
					"makeRentRequest()": "8d5fa841"
				}
			},
			"storageLayout": {
				"storage": [
					{
						"astId": 3,
						"contract": "Contracts/Lending.sol:Lending",
						"label": "owner",
						"offset": 0,
						"slot": "0",
						"type": "t_address"
					},
					{
						"astId": 41,
						"contract": "Contracts/Lending.sol:Lending",
						"label": "Products",
						"offset": 0,
						"slot": "1",
						"type": "t_mapping(t_uint256,t_struct(Product)29_storage)"
					},
					{
						"astId": 46,
						"contract": "Contracts/Lending.sol:Lending",
						"label": "Users",
						"offset": 0,
						"slot": "2",
						"type": "t_mapping(t_string_memory_ptr,t_struct(User)14_storage)"
					},
					{
						"astId": 51,
						"contract": "Contracts/Lending.sol:Lending",
						"label": "UserProducts",
						"offset": 0,
						"slot": "3",
						"type": "t_mapping(t_uint256,t_array(t_uint256)dyn_storage)"
					},
					{
						"astId": 55,
						"contract": "Contracts/Lending.sol:Lending",
						"label": "UserWorldCoinIds",
						"offset": 0,
						"slot": "4",
						"type": "t_mapping(t_string_memory_ptr,t_string_storage)"
					},
					{
						"astId": 59,
						"contract": "Contracts/Lending.sol:Lending",
						"label": "UserWallets",
						"offset": 0,
						"slot": "5",
						"type": "t_mapping(t_string_memory_ptr,t_string_storage)"
					},
					{
						"astId": 63,
						"contract": "Contracts/Lending.sol:Lending",
						"label": "UserLensHandles",
						"offset": 0,
						"slot": "6",
						"type": "t_mapping(t_string_memory_ptr,t_string_storage)"
					}
				],
				"types": {
					"t_address": {
						"encoding": "inplace",
						"label": "address",
						"numberOfBytes": "20"
					},
					"t_array(t_string_storage)dyn_storage": {
						"base": "t_string_storage",
						"encoding": "dynamic_array",
						"label": "string[]",
						"numberOfBytes": "32"
					},
					"t_array(t_uint256)dyn_storage": {
						"base": "t_uint256",
						"encoding": "dynamic_array",
						"label": "uint256[]",
						"numberOfBytes": "32"
					},
					"t_mapping(t_string_memory_ptr,t_string_storage)": {
						"encoding": "mapping",
						"key": "t_string_memory_ptr",
						"label": "mapping(string => string)",
						"numberOfBytes": "32",
						"value": "t_string_storage"
					},
					"t_mapping(t_string_memory_ptr,t_struct(User)14_storage)": {
						"encoding": "mapping",
						"key": "t_string_memory_ptr",
						"label": "mapping(string => struct Lending.User)",
						"numberOfBytes": "32",
						"value": "t_struct(User)14_storage"
					},
					"t_mapping(t_uint256,t_array(t_uint256)dyn_storage)": {
						"encoding": "mapping",
						"key": "t_uint256",
						"label": "mapping(uint256 => uint256[])",
						"numberOfBytes": "32",
						"value": "t_array(t_uint256)dyn_storage"
					},
					"t_mapping(t_uint256,t_struct(Product)29_storage)": {
						"encoding": "mapping",
						"key": "t_uint256",
						"label": "mapping(uint256 => struct Lending.Product)",
						"numberOfBytes": "32",
						"value": "t_struct(Product)29_storage"
					},
					"t_string_memory_ptr": {
						"encoding": "bytes",
						"label": "string",
						"numberOfBytes": "32"
					},
					"t_string_storage": {
						"encoding": "bytes",
						"label": "string",
						"numberOfBytes": "32"
					},
					"t_struct(Product)29_storage": {
						"encoding": "inplace",
						"label": "struct Lending.Product",
						"members": [
							{
								"astId": 16,
								"contract": "Contracts/Lending.sol:Lending",
								"label": "owner",
								"offset": 0,
								"slot": "0",
								"type": "t_string_storage"
							},
							{
								"astId": 18,
								"contract": "Contracts/Lending.sol:Lending",
								"label": "lat",
								"offset": 0,
								"slot": "1",
								"type": "t_string_storage"
							},
							{
								"astId": 20,
								"contract": "Contracts/Lending.sol:Lending",
								"label": "lng",
								"offset": 0,
								"slot": "2",
								"type": "t_string_storage"
							},
							{
								"astId": 22,
								"contract": "Contracts/Lending.sol:Lending",
								"label": "description",
								"offset": 0,
								"slot": "3",
								"type": "t_string_storage"
							},
							{
								"astId": 24,
								"contract": "Contracts/Lending.sol:Lending",
								"label": "value",
								"offset": 0,
								"slot": "4",
								"type": "t_uint256"
							},
							{
								"astId": 26,
								"contract": "Contracts/Lending.sol:Lending",
								"label": "price",
								"offset": 0,
								"slot": "5",
								"type": "t_uint256"
							},
							{
								"astId": 28,
								"contract": "Contracts/Lending.sol:Lending",
								"label": "image",
								"offset": 0,
								"slot": "6",
								"type": "t_string_storage"
							}
						],
						"numberOfBytes": "224"
					},
					"t_struct(User)14_storage": {
						"encoding": "inplace",
						"label": "struct Lending.User",
						"members": [
							{
								"astId": 5,
								"contract": "Contracts/Lending.sol:Lending",
								"label": "worldCoinId",
								"offset": 0,
								"slot": "0",
								"type": "t_string_storage"
							},
							{
								"astId": 7,
								"contract": "Contracts/Lending.sol:Lending",
								"label": "lensHandle",
								"offset": 0,
								"slot": "1",
								"type": "t_string_storage"
							},
							{
								"astId": 10,
								"contract": "Contracts/Lending.sol:Lending",
								"label": "wallets",
								"offset": 0,
								"slot": "2",
								"type": "t_array(t_string_storage)dyn_storage"
							},
							{
								"astId": 13,
								"contract": "Contracts/Lending.sol:Lending",
								"label": "products",
								"offset": 0,
								"slot": "3",
								"type": "t_array(t_uint256)dyn_storage"
							}
						],
						"numberOfBytes": "128"
					},
					"t_uint256": {
						"encoding": "inplace",
						"label": "uint256",
						"numberOfBytes": "32"
					}
				}
			},
			"userdoc": {
				"kind": "user",
				"methods": {},
				"version": 1
			}
		}
	}
}