{
	"Contracts/Lending.sol": {
		"Lending": {
			"abi": [
				{
					"inputs": [],
					"stateMutability": "nonpayable",
					"type": "constructor"
				},
				{
					"inputs": [
						{
							"internalType": "string[]",
							"name": "_addresses",
							"type": "string[]"
						},
						{
							"internalType": "string",
							"name": "userId",
							"type": "string"
						}
					],
					"name": "assignWalletsToUser",
					"outputs": [],
					"stateMutability": "nonpayable",
					"type": "function"
				},
				{
					"inputs": [
						{
							"internalType": "string",
							"name": "a",
							"type": "string"
						},
						{
							"internalType": "string",
							"name": "b",
							"type": "string"
						}
					],
					"name": "compareStrings",
					"outputs": [
						{
							"internalType": "bool",
							"name": "",
							"type": "bool"
						}
					],
					"stateMutability": "pure",
					"type": "function"
				},
				{
					"inputs": [
						{
							"internalType": "string",
							"name": "username",
							"type": "string"
						},
						{
							"internalType": "string[]",
							"name": "_addresses",
							"type": "string[]"
						}
					],
					"name": "createUserAccount",
					"outputs": [
						{
							"components": [
								{
									"internalType": "string",
									"name": "worldCoinId",
									"type": "string"
								},
								{
									"internalType": "string",
									"name": "lensHandle",
									"type": "string"
								},
								{
									"internalType": "string[]",
									"name": "wallets",
									"type": "string[]"
								}
							],
							"internalType": "struct Lending.User",
							"name": "",
							"type": "tuple"
						}
					],
					"stateMutability": "nonpayable",
					"type": "function"
				},
				{
					"inputs": [
						{
							"internalType": "string",
							"name": "key",
							"type": "string"
						}
					],
					"name": "doesKeyExist",
					"outputs": [
						{
							"internalType": "bool",
							"name": "",
							"type": "bool"
						}
					],
					"stateMutability": "view",
					"type": "function"
				},
				{
					"inputs": [],
					"name": "getOwner",
					"outputs": [
						{
							"internalType": "address",
							"name": "",
							"type": "address"
						}
					],
					"stateMutability": "view",
					"type": "function"
				}
			],
			"devdoc": {
				"kind": "dev",
				"methods": {},
				"version": 1
			},
			"evm": {
				"assembly": "    /* \"Contracts/Lending.sol\":70:2719  contract Lending {... */\n  mstore(0x40, 0x80)\n    /* \"Contracts/Lending.sol\":895:944  constructor() {... */\n  callvalue\n  dup1\n  iszero\n  tag_1\n  jumpi\n  0x00\n  dup1\n  revert\ntag_1:\n  pop\n    /* \"Contracts/Lending.sol\":927:937  msg.sender */\n  caller\n    /* \"Contracts/Lending.sol\":919:924  owner */\n  0x00\n  dup1\n    /* \"Contracts/Lending.sol\":919:937  owner = msg.sender */\n  0x0100\n  exp\n  dup2\n  sload\n  dup2\n  0xffffffffffffffffffffffffffffffffffffffff\n  mul\n  not\n  and\n  swap1\n  dup4\n  0xffffffffffffffffffffffffffffffffffffffff\n  and\n  mul\n  or\n  swap1\n  sstore\n  pop\n    /* \"Contracts/Lending.sol\":70:2719  contract Lending {... */\n  dataSize(sub_0)\n  dup1\n  dataOffset(sub_0)\n  0x00\n  codecopy\n  0x00\n  return\nstop\n\nsub_0: assembly {\n        /* \"Contracts/Lending.sol\":70:2719  contract Lending {... */\n      mstore(0x40, 0x80)\n      callvalue\n      dup1\n      iszero\n      tag_1\n      jumpi\n      0x00\n      dup1\n      revert\n    tag_1:\n      pop\n      jumpi(tag_2, lt(calldatasize, 0x04))\n      shr(0xe0, calldataload(0x00))\n      dup1\n      0x51f40dd6\n      eq\n      tag_3\n      jumpi\n      dup1\n      0x63c60bd5\n      eq\n      tag_4\n      jumpi\n      dup1\n      0x893d20e8\n      eq\n      tag_5\n      jumpi\n      dup1\n      0xbed34bba\n      eq\n      tag_6\n      jumpi\n      dup1\n      0xfcf84582\n      eq\n      tag_7\n      jumpi\n    tag_2:\n      0x00\n      dup1\n      revert\n        /* \"Contracts/Lending.sol\":2050:2628  function createUserAccount(string memory username, string[] memory _addresses) public returns (User memory) {... */\n    tag_3:\n      tag_8\n      0x04\n      dup1\n      calldatasize\n      sub\n      dup2\n      add\n      swap1\n      tag_9\n      swap2\n      swap1\n      tag_10\n      jump\t// in\n    tag_9:\n      tag_11\n      jump\t// in\n    tag_8:\n      mload(0x40)\n      tag_12\n      swap2\n      swap1\n      tag_13\n      jump\t// in\n    tag_12:\n      mload(0x40)\n      dup1\n      swap2\n      sub\n      swap1\n      return\n        /* \"Contracts/Lending.sol\":1739:2044  function assignWalletsToUser(string[] memory _addresses, string memory userId) public {... */\n    tag_4:\n      tag_14\n      0x04\n      dup1\n      calldatasize\n      sub\n      dup2\n      add\n      swap1\n      tag_15\n      swap2\n      swap1\n      tag_16\n      jump\t// in\n    tag_15:\n      tag_17\n      jump\t// in\n    tag_14:\n      stop\n        /* \"Contracts/Lending.sol\":2635:2716  function getOwner() external view returns (address) {... */\n    tag_5:\n      tag_18\n      tag_19\n      jump\t// in\n    tag_18:\n      mload(0x40)\n      tag_20\n      swap2\n      swap1\n      tag_21\n      jump\t// in\n    tag_20:\n      mload(0x40)\n      dup1\n      swap2\n      sub\n      swap1\n      return\n        /* \"Contracts/Lending.sol\":950:1346  function compareStrings(string memory a, string memory b) public pure returns (bool) {... */\n    tag_6:\n      tag_22\n      0x04\n      dup1\n      calldatasize\n      sub\n      dup2\n      add\n      swap1\n      tag_23\n      swap2\n      swap1\n      tag_24\n      jump\t// in\n    tag_23:\n      tag_25\n      jump\t// in\n    tag_22:\n      mload(0x40)\n      tag_26\n      swap2\n      swap1\n      tag_27\n      jump\t// in\n    tag_26:\n      mload(0x40)\n      dup1\n      swap2\n      sub\n      swap1\n      return\n        /* \"Contracts/Lending.sol\":1408:1669  function doesKeyExist(string memory key) public view returns (bool) {... */\n    tag_7:\n      tag_28\n      0x04\n      dup1\n      calldatasize\n      sub\n      dup2\n      add\n      swap1\n      tag_29\n      swap2\n      swap1\n      tag_30\n      jump\t// in\n    tag_29:\n      tag_31\n      jump\t// in\n    tag_28:\n      mload(0x40)\n      tag_32\n      swap2\n      swap1\n      tag_27\n      jump\t// in\n    tag_32:\n      mload(0x40)\n      dup1\n      swap2\n      sub\n      swap1\n      return\n        /* \"Contracts/Lending.sol\":2050:2628  function createUserAccount(string memory username, string[] memory _addresses) public returns (User memory) {... */\n    tag_11:\n        /* \"Contracts/Lending.sol\":2145:2156  User memory */\n      tag_33\n      tag_34\n      jump\t// in\n    tag_33:\n        /* \"Contracts/Lending.sol\":2168:2187  User memory oldUser */\n      0x00\n        /* \"Contracts/Lending.sol\":2190:2195  Users */\n      0x02\n        /* \"Contracts/Lending.sol\":2196:2204  username */\n      dup5\n        /* \"Contracts/Lending.sol\":2190:2205  Users[username] */\n      mload(0x40)\n      tag_36\n      swap2\n      swap1\n      tag_37\n      jump\t// in\n    tag_36:\n      swap1\n      dup2\n      mstore\n      0x20\n      add\n      mload(0x40)\n      dup1\n      swap2\n      sub\n      swap1\n      keccak256\n        /* \"Contracts/Lending.sol\":2168:2205  User memory oldUser = Users[username] */\n      mload(0x40)\n      dup1\n      0x60\n      add\n      0x40\n      mstore\n      swap1\n      dup2\n      0x00\n      dup3\n      add\n      dup1\n      sload\n      tag_38\n      swap1\n      tag_39\n      jump\t// in\n    tag_38:\n      dup1\n      0x1f\n      add\n      0x20\n      dup1\n      swap2\n      div\n      mul\n      0x20\n      add\n      mload(0x40)\n      swap1\n      dup2\n      add\n      0x40\n      mstore\n      dup1\n      swap3\n      swap2\n      swap1\n      dup2\n      dup2\n      mstore\n      0x20\n      add\n      dup3\n      dup1\n      sload\n      tag_40\n      swap1\n      tag_39\n      jump\t// in\n    tag_40:\n      dup1\n      iszero\n      tag_41\n      jumpi\n      dup1\n      0x1f\n      lt\n      tag_42\n      jumpi\n      0x0100\n      dup1\n      dup4\n      sload\n      div\n      mul\n      dup4\n      mstore\n      swap2\n      0x20\n      add\n      swap2\n      jump(tag_41)\n    tag_42:\n      dup3\n      add\n      swap2\n      swap1\n      0x00\n      mstore\n      keccak256(0x00, 0x20)\n      swap1\n    tag_43:\n      dup2\n      sload\n      dup2\n      mstore\n      swap1\n      0x01\n      add\n      swap1\n      0x20\n      add\n      dup1\n      dup4\n      gt\n      tag_43\n      jumpi\n      dup3\n      swap1\n      sub\n      0x1f\n      and\n      dup3\n      add\n      swap2\n    tag_41:\n      pop\n      pop\n      pop\n      pop\n      pop\n      dup2\n      mstore\n      0x20\n      add\n      0x01\n      dup3\n      add\n      dup1\n      sload\n      tag_44\n      swap1\n      tag_39\n      jump\t// in\n    tag_44:\n      dup1\n      0x1f\n      add\n      0x20\n      dup1\n      swap2\n      div\n      mul\n      0x20\n      add\n      mload(0x40)\n      swap1\n      dup2\n      add\n      0x40\n      mstore\n      dup1\n      swap3\n      swap2\n      swap1\n      dup2\n      dup2\n      mstore\n      0x20\n      add\n      dup3\n      dup1\n      sload\n      tag_45\n      swap1\n      tag_39\n      jump\t// in\n    tag_45:\n      dup1\n      iszero\n      tag_46\n      jumpi\n      dup1\n      0x1f\n      lt\n      tag_47\n      jumpi\n      0x0100\n      dup1\n      dup4\n      sload\n      div\n      mul\n      dup4\n      mstore\n      swap2\n      0x20\n      add\n      swap2\n      jump(tag_46)\n    tag_47:\n      dup3\n      add\n      swap2\n      swap1\n      0x00\n      mstore\n      keccak256(0x00, 0x20)\n      swap1\n    tag_48:\n      dup2\n      sload\n      dup2\n      mstore\n      swap1\n      0x01\n      add\n      swap1\n      0x20\n      add\n      dup1\n      dup4\n      gt\n      tag_48\n      jumpi\n      dup3\n      swap1\n      sub\n      0x1f\n      and\n      dup3\n      add\n      swap2\n    tag_46:\n      pop\n      pop\n      pop\n      pop\n      pop\n      dup2\n      mstore\n      0x20\n      add\n      0x02\n      dup3\n      add\n      dup1\n      sload\n      dup1\n      0x20\n      mul\n      0x20\n      add\n      mload(0x40)\n      swap1\n      dup2\n      add\n      0x40\n      mstore\n      dup1\n      swap3\n      swap2\n      swap1\n      dup2\n      dup2\n      mstore\n      0x20\n      add\n      0x00\n      swap1\n    tag_49:\n      dup3\n      dup3\n      lt\n      iszero\n      tag_50\n      jumpi\n      dup4\n      dup3\n      swap1\n      0x00\n      mstore\n      keccak256(0x00, 0x20)\n      add\n      dup1\n      sload\n      tag_52\n      swap1\n      tag_39\n      jump\t// in\n    tag_52:\n      dup1\n      0x1f\n      add\n      0x20\n      dup1\n      swap2\n      div\n      mul\n      0x20\n      add\n      mload(0x40)\n      swap1\n      dup2\n      add\n      0x40\n      mstore\n      dup1\n      swap3\n      swap2\n      swap1\n      dup2\n      dup2\n      mstore\n      0x20\n      add\n      dup3\n      dup1\n      sload\n      tag_53\n      swap1\n      tag_39\n      jump\t// in\n    tag_53:\n      dup1\n      iszero\n      tag_54\n      jumpi\n      dup1\n      0x1f\n      lt\n      tag_55\n      jumpi\n      0x0100\n      dup1\n      dup4\n      sload\n      div\n      mul\n      dup4\n      mstore\n      swap2\n      0x20\n      add\n      swap2\n      jump(tag_54)\n    tag_55:\n      dup3\n      add\n      swap2\n      swap1\n      0x00\n      mstore\n      keccak256(0x00, 0x20)\n      swap1\n    tag_56:\n      dup2\n      sload\n      dup2\n      mstore\n      swap1\n      0x01\n      add\n      swap1\n      0x20\n      add\n      dup1\n      dup4\n      gt\n      tag_56\n      jumpi\n      dup3\n      swap1\n      sub\n      0x1f\n      and\n      dup3\n      add\n      swap2\n    tag_54:\n      pop\n      pop\n      pop\n      pop\n      pop\n      dup2\n      mstore\n      0x20\n      add\n      swap1\n      0x01\n      add\n      swap1\n      jump(tag_49)\n    tag_50:\n      pop\n      pop\n      pop\n      pop\n      dup2\n      mstore\n      pop\n      pop\n      swap1\n      pop\n        /* \"Contracts/Lending.sol\":2281:2282  0 */\n      0x00\n        /* \"Contracts/Lending.sol\":2255:2262  oldUser */\n      dup2\n        /* \"Contracts/Lending.sol\":2255:2270  oldUser.wallets */\n      0x40\n      add\n      mload\n        /* \"Contracts/Lending.sol\":2255:2277  oldUser.wallets.length */\n      mload\n        /* \"Contracts/Lending.sol\":2255:2282  oldUser.wallets.length != 0 */\n      eq\n        /* \"Contracts/Lending.sol\":2251:2323  if (oldUser.wallets.length != 0) {... */\n      tag_57\n      jumpi\n        /* \"Contracts/Lending.sol\":2305:2312  oldUser */\n      dup1\n        /* \"Contracts/Lending.sol\":2298:2312  return oldUser */\n      swap2\n      pop\n      pop\n      jump(tag_35)\n        /* \"Contracts/Lending.sol\":2251:2323  if (oldUser.wallets.length != 0) {... */\n    tag_57:\n        /* \"Contracts/Lending.sol\":2398:2422  User('', '', _addresses) */\n      mload(0x40)\n      dup1\n      0x60\n      add\n      0x40\n      mstore\n      dup1\n      mload(0x40)\n      dup1\n      0x20\n      add\n      0x40\n      mstore\n      dup1\n      0x00\n      dup2\n      mstore\n      pop\n      dup2\n      mstore\n      0x20\n      add\n      mload(0x40)\n      dup1\n      0x20\n      add\n      0x40\n      mstore\n      dup1\n      0x00\n      dup2\n      mstore\n      pop\n      dup2\n      mstore\n      0x20\n      add\n        /* \"Contracts/Lending.sol\":2411:2421  _addresses */\n      dup5\n        /* \"Contracts/Lending.sol\":2398:2422  User('', '', _addresses) */\n      dup2\n      mstore\n      pop\n        /* \"Contracts/Lending.sol\":2380:2385  Users */\n      0x02\n        /* \"Contracts/Lending.sol\":2386:2394  username */\n      dup6\n        /* \"Contracts/Lending.sol\":2380:2395  Users[username] */\n      mload(0x40)\n      tag_58\n      swap2\n      swap1\n      tag_37\n      jump\t// in\n    tag_58:\n      swap1\n      dup2\n      mstore\n      0x20\n      add\n      mload(0x40)\n      dup1\n      swap2\n      sub\n      swap1\n      keccak256\n        /* \"Contracts/Lending.sol\":2380:2422  Users[username] = User('', '', _addresses) */\n      0x00\n      dup3\n      add\n      mload\n      dup2\n      0x00\n      add\n      swap1\n      dup2\n      tag_59\n      swap2\n      swap1\n      tag_60\n      jump\t// in\n    tag_59:\n      pop\n      0x20\n      dup3\n      add\n      mload\n      dup2\n      0x01\n      add\n      swap1\n      dup2\n      tag_61\n      swap2\n      swap1\n      tag_60\n      jump\t// in\n    tag_61:\n      pop\n      0x40\n      dup3\n      add\n      mload\n      dup2\n      0x02\n      add\n      swap1\n      dup1\n      mload\n      swap1\n      0x20\n      add\n      swap1\n      tag_62\n      swap3\n      swap2\n      swap1\n      tag_63\n      jump\t// in\n    tag_62:\n      pop\n      swap1\n      pop\n      pop\n        /* \"Contracts/Lending.sol\":2501:2542  assignWalletsToUser(_addresses, username) */\n      tag_64\n        /* \"Contracts/Lending.sol\":2521:2531  _addresses */\n      dup4\n        /* \"Contracts/Lending.sol\":2533:2541  username */\n      dup6\n        /* \"Contracts/Lending.sol\":2501:2520  assignWalletsToUser */\n      tag_17\n        /* \"Contracts/Lending.sol\":2501:2542  assignWalletsToUser(_addresses, username) */\n      jump\t// in\n    tag_64:\n        /* \"Contracts/Lending.sol\":2606:2611  Users */\n      0x02\n        /* \"Contracts/Lending.sol\":2612:2620  username */\n      dup5\n        /* \"Contracts/Lending.sol\":2606:2621  Users[username] */\n      mload(0x40)\n      tag_65\n      swap2\n      swap1\n      tag_37\n      jump\t// in\n    tag_65:\n      swap1\n      dup2\n      mstore\n      0x20\n      add\n      mload(0x40)\n      dup1\n      swap2\n      sub\n      swap1\n      keccak256\n        /* \"Contracts/Lending.sol\":2599:2621  return Users[username] */\n      mload(0x40)\n      dup1\n      0x60\n      add\n      0x40\n      mstore\n      swap1\n      dup2\n      0x00\n      dup3\n      add\n      dup1\n      sload\n      tag_66\n      swap1\n      tag_39\n      jump\t// in\n    tag_66:\n      dup1\n      0x1f\n      add\n      0x20\n      dup1\n      swap2\n      div\n      mul\n      0x20\n      add\n      mload(0x40)\n      swap1\n      dup2\n      add\n      0x40\n      mstore\n      dup1\n      swap3\n      swap2\n      swap1\n      dup2\n      dup2\n      mstore\n      0x20\n      add\n      dup3\n      dup1\n      sload\n      tag_67\n      swap1\n      tag_39\n      jump\t// in\n    tag_67:\n      dup1\n      iszero\n      tag_68\n      jumpi\n      dup1\n      0x1f\n      lt\n      tag_69\n      jumpi\n      0x0100\n      dup1\n      dup4\n      sload\n      div\n      mul\n      dup4\n      mstore\n      swap2\n      0x20\n      add\n      swap2\n      jump(tag_68)\n    tag_69:\n      dup3\n      add\n      swap2\n      swap1\n      0x00\n      mstore\n      keccak256(0x00, 0x20)\n      swap1\n    tag_70:\n      dup2\n      sload\n      dup2\n      mstore\n      swap1\n      0x01\n      add\n      swap1\n      0x20\n      add\n      dup1\n      dup4\n      gt\n      tag_70\n      jumpi\n      dup3\n      swap1\n      sub\n      0x1f\n      and\n      dup3\n      add\n      swap2\n    tag_68:\n      pop\n      pop\n      pop\n      pop\n      pop\n      dup2\n      mstore\n      0x20\n      add\n      0x01\n      dup3\n      add\n      dup1\n      sload\n      tag_71\n      swap1\n      tag_39\n      jump\t// in\n    tag_71:\n      dup1\n      0x1f\n      add\n      0x20\n      dup1\n      swap2\n      div\n      mul\n      0x20\n      add\n      mload(0x40)\n      swap1\n      dup2\n      add\n      0x40\n      mstore\n      dup1\n      swap3\n      swap2\n      swap1\n      dup2\n      dup2\n      mstore\n      0x20\n      add\n      dup3\n      dup1\n      sload\n      tag_72\n      swap1\n      tag_39\n      jump\t// in\n    tag_72:\n      dup1\n      iszero\n      tag_73\n      jumpi\n      dup1\n      0x1f\n      lt\n      tag_74\n      jumpi\n      0x0100\n      dup1\n      dup4\n      sload\n      div\n      mul\n      dup4\n      mstore\n      swap2\n      0x20\n      add\n      swap2\n      jump(tag_73)\n    tag_74:\n      dup3\n      add\n      swap2\n      swap1\n      0x00\n      mstore\n      keccak256(0x00, 0x20)\n      swap1\n    tag_75:\n      dup2\n      sload\n      dup2\n      mstore\n      swap1\n      0x01\n      add\n      swap1\n      0x20\n      add\n      dup1\n      dup4\n      gt\n      tag_75\n      jumpi\n      dup3\n      swap1\n      sub\n      0x1f\n      and\n      dup3\n      add\n      swap2\n    tag_73:\n      pop\n      pop\n      pop\n      pop\n      pop\n      dup2\n      mstore\n      0x20\n      add\n      0x02\n      dup3\n      add\n      dup1\n      sload\n      dup1\n      0x20\n      mul\n      0x20\n      add\n      mload(0x40)\n      swap1\n      dup2\n      add\n      0x40\n      mstore\n      dup1\n      swap3\n      swap2\n      swap1\n      dup2\n      dup2\n      mstore\n      0x20\n      add\n      0x00\n      swap1\n    tag_76:\n      dup3\n      dup3\n      lt\n      iszero\n      tag_77\n      jumpi\n      dup4\n      dup3\n      swap1\n      0x00\n      mstore\n      keccak256(0x00, 0x20)\n      add\n      dup1\n      sload\n      tag_79\n      swap1\n      tag_39\n      jump\t// in\n    tag_79:\n      dup1\n      0x1f\n      add\n      0x20\n      dup1\n      swap2\n      div\n      mul\n      0x20\n      add\n      mload(0x40)\n      swap1\n      dup2\n      add\n      0x40\n      mstore\n      dup1\n      swap3\n      swap2\n      swap1\n      dup2\n      dup2\n      mstore\n      0x20\n      add\n      dup3\n      dup1\n      sload\n      tag_80\n      swap1\n      tag_39\n      jump\t// in\n    tag_80:\n      dup1\n      iszero\n      tag_81\n      jumpi\n      dup1\n      0x1f\n      lt\n      tag_82\n      jumpi\n      0x0100\n      dup1\n      dup4\n      sload\n      div\n      mul\n      dup4\n      mstore\n      swap2\n      0x20\n      add\n      swap2\n      jump(tag_81)\n    tag_82:\n      dup3\n      add\n      swap2\n      swap1\n      0x00\n      mstore\n      keccak256(0x00, 0x20)\n      swap1\n    tag_83:\n      dup2\n      sload\n      dup2\n      mstore\n      swap1\n      0x01\n      add\n      swap1\n      0x20\n      add\n      dup1\n      dup4\n      gt\n      tag_83\n      jumpi\n      dup3\n      swap1\n      sub\n      0x1f\n      and\n      dup3\n      add\n      swap2\n    tag_81:\n      pop\n      pop\n      pop\n      pop\n      pop\n      dup2\n      mstore\n      0x20\n      add\n      swap1\n      0x01\n      add\n      swap1\n      jump(tag_76)\n    tag_77:\n      pop\n      pop\n      pop\n      pop\n      dup2\n      mstore\n      pop\n      pop\n      swap2\n      pop\n      pop\n        /* \"Contracts/Lending.sol\":2050:2628  function createUserAccount(string memory username, string[] memory _addresses) public returns (User memory) {... */\n    tag_35:\n      swap3\n      swap2\n      pop\n      pop\n      jump\t// out\n        /* \"Contracts/Lending.sol\":1739:2044  function assignWalletsToUser(string[] memory _addresses, string memory userId) public {... */\n    tag_17:\n        /* \"Contracts/Lending.sol\":1839:1845  uint i */\n      0x00\n        /* \"Contracts/Lending.sol\":1835:2038  for(uint i=0; i< _addresses.length; i++) {... */\n    tag_85:\n        /* \"Contracts/Lending.sol\":1852:1862  _addresses */\n      dup3\n        /* \"Contracts/Lending.sol\":1852:1869  _addresses.length */\n      mload\n        /* \"Contracts/Lending.sol\":1849:1850  i */\n      dup2\n        /* \"Contracts/Lending.sol\":1849:1869  i< _addresses.length */\n      lt\n        /* \"Contracts/Lending.sol\":1835:2038  for(uint i=0; i< _addresses.length; i++) {... */\n      iszero\n      tag_86\n      jumpi\n        /* \"Contracts/Lending.sol\":1890:1910  string memory wallet */\n      0x00\n        /* \"Contracts/Lending.sol\":1913:1923  _addresses */\n      dup4\n        /* \"Contracts/Lending.sol\":1924:1925  i */\n      dup3\n        /* \"Contracts/Lending.sol\":1913:1926  _addresses[i] */\n      dup2\n      mload\n      dup2\n      lt\n      tag_88\n      jumpi\n      tag_89\n      tag_90\n      jump\t// in\n    tag_89:\n    tag_88:\n      0x20\n      mul\n      0x20\n      add\n      add\n      mload\n        /* \"Contracts/Lending.sol\":1890:1926  string memory wallet = _addresses[i] */\n      swap1\n      pop\n        /* \"Contracts/Lending.sol\":1945:1965  doesKeyExist(wallet) */\n      tag_91\n        /* \"Contracts/Lending.sol\":1958:1964  wallet */\n      dup2\n        /* \"Contracts/Lending.sol\":1945:1957  doesKeyExist */\n      tag_31\n        /* \"Contracts/Lending.sol\":1945:1965  doesKeyExist(wallet) */\n      jump\t// in\n    tag_91:\n        /* \"Contracts/Lending.sol\":1940:2028  if (!doesKeyExist(wallet)) {... */\n      tag_92\n      jumpi\n        /* \"Contracts/Lending.sol\":2007:2013  userId */\n      dup3\n        /* \"Contracts/Lending.sol\":1985:1996  UserWallets */\n      0x05\n        /* \"Contracts/Lending.sol\":1997:2003  wallet */\n      dup3\n        /* \"Contracts/Lending.sol\":1985:2004  UserWallets[wallet] */\n      mload(0x40)\n      tag_93\n      swap2\n      swap1\n      tag_37\n      jump\t// in\n    tag_93:\n      swap1\n      dup2\n      mstore\n      0x20\n      add\n      mload(0x40)\n      dup1\n      swap2\n      sub\n      swap1\n      keccak256\n        /* \"Contracts/Lending.sol\":1985:2013  UserWallets[wallet] = userId */\n      swap1\n      dup2\n      tag_94\n      swap2\n      swap1\n      tag_60\n      jump\t// in\n    tag_94:\n      pop\n        /* \"Contracts/Lending.sol\":1940:2028  if (!doesKeyExist(wallet)) {... */\n    tag_92:\n        /* \"Contracts/Lending.sol\":1876:2038  {... */\n      pop\n        /* \"Contracts/Lending.sol\":1871:1874  i++ */\n      dup1\n      dup1\n      tag_95\n      swap1\n      tag_96\n      jump\t// in\n    tag_95:\n      swap2\n      pop\n      pop\n        /* \"Contracts/Lending.sol\":1835:2038  for(uint i=0; i< _addresses.length; i++) {... */\n      jump(tag_85)\n    tag_86:\n      pop\n        /* \"Contracts/Lending.sol\":1739:2044  function assignWalletsToUser(string[] memory _addresses, string memory userId) public {... */\n      pop\n      pop\n      jump\t// out\n        /* \"Contracts/Lending.sol\":2635:2716  function getOwner() external view returns (address) {... */\n    tag_19:\n        /* \"Contracts/Lending.sol\":2678:2685  address */\n      0x00\n        /* \"Contracts/Lending.sol\":2704:2709  owner */\n      dup1\n      0x00\n      swap1\n      sload\n      swap1\n      0x0100\n      exp\n      swap1\n      div\n      0xffffffffffffffffffffffffffffffffffffffff\n      and\n        /* \"Contracts/Lending.sol\":2697:2709  return owner */\n      swap1\n      pop\n        /* \"Contracts/Lending.sol\":2635:2716  function getOwner() external view returns (address) {... */\n      swap1\n      jump\t// out\n        /* \"Contracts/Lending.sol\":950:1346  function compareStrings(string memory a, string memory b) public pure returns (bool) {... */\n    tag_25:\n        /* \"Contracts/Lending.sol\":1029:1033  bool */\n      0x00\n        /* \"Contracts/Lending.sol\":1074:1075  b */\n      dup2\n        /* \"Contracts/Lending.sol\":1068:1083  bytes(b).length */\n      mload\n        /* \"Contracts/Lending.sol\":1055:1056  a */\n      dup4\n        /* \"Contracts/Lending.sol\":1049:1064  bytes(a).length */\n      mload\n        /* \"Contracts/Lending.sol\":1049:1083  bytes(a).length != bytes(b).length */\n      eq\n        /* \"Contracts/Lending.sol\":1045:1340  if (bytes(a).length != bytes(b).length) {... */\n      tag_99\n      jumpi\n        /* \"Contracts/Lending.sol\":1106:1111  false */\n      0x00\n        /* \"Contracts/Lending.sol\":1099:1111  return false */\n      swap1\n      pop\n      jump(tag_98)\n        /* \"Contracts/Lending.sol\":1045:1340  if (bytes(a).length != bytes(b).length) {... */\n    tag_99:\n        /* \"Contracts/Lending.sol\":1147:1156  uint256 i */\n      0x00\n        /* \"Contracts/Lending.sol\":1142:1305  for (uint256 i = 0; i < bytes(a).length; i++) {... */\n    tag_101:\n        /* \"Contracts/Lending.sol\":1172:1173  a */\n      dup4\n        /* \"Contracts/Lending.sol\":1166:1181  bytes(a).length */\n      mload\n        /* \"Contracts/Lending.sol\":1162:1163  i */\n      dup2\n        /* \"Contracts/Lending.sol\":1162:1181  i < bytes(a).length */\n      lt\n        /* \"Contracts/Lending.sol\":1142:1305  for (uint256 i = 0; i < bytes(a).length; i++) {... */\n      iszero\n      tag_102\n      jumpi\n        /* \"Contracts/Lending.sol\":1231:1232  b */\n      dup3\n        /* \"Contracts/Lending.sol\":1234:1235  i */\n      dup2\n        /* \"Contracts/Lending.sol\":1225:1236  bytes(b)[i] */\n      dup2\n      mload\n      dup2\n      lt\n      tag_104\n      jumpi\n      tag_105\n      tag_90\n      jump\t// in\n    tag_105:\n    tag_104:\n      0x20\n      add\n      add\n      mload\n      0xf8\n      shr\n      0xf8\n      shl\n        /* \"Contracts/Lending.sol\":1210:1236  bytes(a)[i] != bytes(b)[i] */\n      not(0xffffffffffffffffffffffffffffffffffffffffffffffffffffffffffffff)\n      and\n        /* \"Contracts/Lending.sol\":1216:1217  a */\n      dup5\n        /* \"Contracts/Lending.sol\":1219:1220  i */\n      dup3\n        /* \"Contracts/Lending.sol\":1210:1221  bytes(a)[i] */\n      dup2\n      mload\n      dup2\n      lt\n      tag_106\n      jumpi\n      tag_107\n      tag_90\n      jump\t// in\n    tag_107:\n    tag_106:\n      0x20\n      add\n      add\n      mload\n      0xf8\n      shr\n      0xf8\n      shl\n        /* \"Contracts/Lending.sol\":1210:1236  bytes(a)[i] != bytes(b)[i] */\n      not(0xffffffffffffffffffffffffffffffffffffffffffffffffffffffffffffff)\n      and\n      eq\n        /* \"Contracts/Lending.sol\":1206:1291  if (bytes(a)[i] != bytes(b)[i]) {... */\n      tag_108\n      jumpi\n        /* \"Contracts/Lending.sol\":1267:1272  false */\n      0x00\n        /* \"Contracts/Lending.sol\":1260:1272  return false */\n      swap2\n      pop\n      pop\n      jump(tag_98)\n        /* \"Contracts/Lending.sol\":1206:1291  if (bytes(a)[i] != bytes(b)[i]) {... */\n    tag_108:\n        /* \"Contracts/Lending.sol\":1183:1186  i++ */\n      dup1\n      dup1\n      tag_109\n      swap1\n      tag_96\n      jump\t// in\n    tag_109:\n      swap2\n      pop\n      pop\n        /* \"Contracts/Lending.sol\":1142:1305  for (uint256 i = 0; i < bytes(a).length; i++) {... */\n      jump(tag_101)\n    tag_102:\n      pop\n        /* \"Contracts/Lending.sol\":1325:1329  true */\n      0x01\n        /* \"Contracts/Lending.sol\":1318:1329  return true */\n      swap1\n      pop\n        /* \"Contracts/Lending.sol\":950:1346  function compareStrings(string memory a, string memory b) public pure returns (bool) {... */\n    tag_98:\n      swap3\n      swap2\n      pop\n      pop\n      jump\t// out\n        /* \"Contracts/Lending.sol\":1408:1669  function doesKeyExist(string memory key) public view returns (bool) {... */\n    tag_31:\n        /* \"Contracts/Lending.sol\":1470:1474  bool */\n      0x00\n        /* \"Contracts/Lending.sol\":1641:1661  abi.encodePacked(\"\") */\n      add(0x20, mload(0x40))\n      tag_111\n      swap1\n      tag_112\n      jump\t// in\n    tag_111:\n      mload(0x40)\n      0x20\n      dup2\n      dup4\n      sub\n      sub\n      dup2\n      mstore\n      swap1\n      0x40\n      mstore\n        /* \"Contracts/Lending.sol\":1631:1662  keccak256(abi.encodePacked(\"\")) */\n      dup1\n      mload\n      swap1\n      0x20\n      add\n      keccak256\n        /* \"Contracts/Lending.sol\":1609:1620  UserWallets */\n      0x05\n        /* \"Contracts/Lending.sol\":1621:1624  key */\n      dup4\n        /* \"Contracts/Lending.sol\":1609:1625  UserWallets[key] */\n      mload(0x40)\n      tag_113\n      swap2\n      swap1\n      tag_37\n      jump\t// in\n    tag_113:\n      swap1\n      dup2\n      mstore\n      0x20\n      add\n      mload(0x40)\n      dup1\n      swap2\n      sub\n      swap1\n      keccak256\n        /* \"Contracts/Lending.sol\":1592:1626  abi.encodePacked(UserWallets[key]) */\n      add(0x20, mload(0x40))\n      tag_114\n      swap2\n      swap1\n      tag_115\n      jump\t// in\n    tag_114:\n      mload(0x40)\n      0x20\n      dup2\n      dup4\n      sub\n      sub\n      dup2\n      mstore\n      swap1\n      0x40\n      mstore\n        /* \"Contracts/Lending.sol\":1582:1627  keccak256(abi.encodePacked(UserWallets[key])) */\n      dup1\n      mload\n      swap1\n      0x20\n      add\n      keccak256\n        /* \"Contracts/Lending.sol\":1582:1662  keccak256(abi.encodePacked(UserWallets[key])) != keccak256(abi.encodePacked(\"\")) */\n      eq\n      iszero\n        /* \"Contracts/Lending.sol\":1575:1662  return keccak256(abi.encodePacked(UserWallets[key])) != keccak256(abi.encodePacked(\"\")) */\n      swap1\n      pop\n        /* \"Contracts/Lending.sol\":1408:1669  function doesKeyExist(string memory key) public view returns (bool) {... */\n      swap2\n      swap1\n      pop\n      jump\t// out\n    tag_34:\n      mload(0x40)\n      dup1\n      0x60\n      add\n      0x40\n      mstore\n      dup1\n      0x60\n      dup2\n      mstore\n      0x20\n      add\n      0x60\n      dup2\n      mstore\n      0x20\n      add\n      0x60\n      dup2\n      mstore\n      pop\n      swap1\n      jump\t// out\n    tag_63:\n      dup3\n      dup1\n      sload\n      dup3\n      dup3\n      sstore\n      swap1\n      0x00\n      mstore\n      keccak256(0x00, 0x20)\n      swap1\n      dup2\n      add\n      swap3\n      dup3\n      iszero\n      tag_116\n      jumpi\n      swap2\n      0x20\n      mul\n      dup3\n      add\n    tag_117:\n      dup3\n      dup2\n      gt\n      iszero\n      tag_118\n      jumpi\n      dup3\n      mload\n      dup3\n      swap1\n      dup2\n      tag_119\n      swap2\n      swap1\n      tag_60\n      jump\t// in\n    tag_119:\n      pop\n      swap2\n      0x20\n      add\n      swap2\n      swap1\n      0x01\n      add\n      swap1\n      jump(tag_117)\n    tag_118:\n    tag_116:\n      pop\n      swap1\n      pop\n      tag_120\n      swap2\n      swap1\n      tag_121\n      jump\t// in\n    tag_120:\n      pop\n      swap1\n      jump\t// out\n    tag_121:\n    tag_122:\n      dup1\n      dup3\n      gt\n      iszero\n      tag_123\n      jumpi\n      0x00\n      dup2\n      dup2\n      tag_124\n      swap2\n      swap1\n      tag_125\n      jump\t// in\n    tag_124:\n      pop\n      0x01\n      add\n      jump(tag_122)\n    tag_123:\n      pop\n      swap1\n      jump\t// out\n    tag_125:\n      pop\n      dup1\n      sload\n      tag_126\n      swap1\n      tag_39\n      jump\t// in\n    tag_126:\n      0x00\n      dup3\n      sstore\n      dup1\n      0x1f\n      lt\n      tag_128\n      jumpi\n      pop\n      jump(tag_127)\n    tag_128:\n      0x1f\n      add\n      0x20\n      swap1\n      div\n      swap1\n      0x00\n      mstore\n      keccak256(0x00, 0x20)\n      swap1\n      dup2\n      add\n      swap1\n      tag_129\n      swap2\n      swap1\n      tag_130\n      jump\t// in\n    tag_129:\n    tag_127:\n      pop\n      jump\t// out\n    tag_130:\n    tag_131:\n      dup1\n      dup3\n      gt\n      iszero\n      tag_132\n      jumpi\n      0x00\n      dup2\n      0x00\n      swap1\n      sstore\n      pop\n      0x01\n      add\n      jump(tag_131)\n    tag_132:\n      pop\n      swap1\n      jump\t// out\n        /* \"#utility.yul\":7:82   */\n    tag_133:\n        /* \"#utility.yul\":40:46   */\n      0x00\n        /* \"#utility.yul\":73:75   */\n      0x40\n        /* \"#utility.yul\":67:76   */\n      mload\n        /* \"#utility.yul\":57:76   */\n      swap1\n      pop\n        /* \"#utility.yul\":7:82   */\n      swap1\n      jump\t// out\n        /* \"#utility.yul\":88:205   */\n    tag_134:\n        /* \"#utility.yul\":197:198   */\n      0x00\n        /* \"#utility.yul\":194:195   */\n      dup1\n        /* \"#utility.yul\":187:199   */\n      revert\n        /* \"#utility.yul\":211:328   */\n    tag_135:\n        /* \"#utility.yul\":320:321   */\n      0x00\n        /* \"#utility.yul\":317:318   */\n      dup1\n        /* \"#utility.yul\":310:322   */\n      revert\n        /* \"#utility.yul\":334:451   */\n    tag_136:\n        /* \"#utility.yul\":443:444   */\n      0x00\n        /* \"#utility.yul\":440:441   */\n      dup1\n        /* \"#utility.yul\":433:445   */\n      revert\n        /* \"#utility.yul\":457:574   */\n    tag_137:\n        /* \"#utility.yul\":566:567   */\n      0x00\n        /* \"#utility.yul\":563:564   */\n      dup1\n        /* \"#utility.yul\":556:568   */\n      revert\n        /* \"#utility.yul\":580:682   */\n    tag_138:\n        /* \"#utility.yul\":621:627   */\n      0x00\n        /* \"#utility.yul\":672:674   */\n      0x1f\n        /* \"#utility.yul\":668:675   */\n      not\n        /* \"#utility.yul\":663:665   */\n      0x1f\n        /* \"#utility.yul\":656:661   */\n      dup4\n        /* \"#utility.yul\":652:666   */\n      add\n        /* \"#utility.yul\":648:676   */\n      and\n        /* \"#utility.yul\":638:676   */\n      swap1\n      pop\n        /* \"#utility.yul\":580:682   */\n      swap2\n      swap1\n      pop\n      jump\t// out\n        /* \"#utility.yul\":688:868   */\n    tag_139:\n        /* \"#utility.yul\":736:813   */\n      0x4e487b7100000000000000000000000000000000000000000000000000000000\n        /* \"#utility.yul\":733:734   */\n      0x00\n        /* \"#utility.yul\":726:814   */\n      mstore\n        /* \"#utility.yul\":833:837   */\n      0x41\n        /* \"#utility.yul\":830:831   */\n      0x04\n        /* \"#utility.yul\":823:838   */\n      mstore\n        /* \"#utility.yul\":857:861   */\n      0x24\n        /* \"#utility.yul\":854:855   */\n      0x00\n        /* \"#utility.yul\":847:862   */\n      revert\n        /* \"#utility.yul\":874:1155   */\n    tag_140:\n        /* \"#utility.yul\":957:984   */\n      tag_198\n        /* \"#utility.yul\":979:983   */\n      dup3\n        /* \"#utility.yul\":957:984   */\n      tag_138\n      jump\t// in\n    tag_198:\n        /* \"#utility.yul\":949:955   */\n      dup2\n        /* \"#utility.yul\":945:985   */\n      add\n        /* \"#utility.yul\":1087:1093   */\n      dup2\n        /* \"#utility.yul\":1075:1085   */\n      dup2\n        /* \"#utility.yul\":1072:1094   */\n      lt\n        /* \"#utility.yul\":1051:1069   */\n      0xffffffffffffffff\n        /* \"#utility.yul\":1039:1049   */\n      dup3\n        /* \"#utility.yul\":1036:1070   */\n      gt\n        /* \"#utility.yul\":1033:1095   */\n      or\n        /* \"#utility.yul\":1030:1118   */\n      iszero\n      tag_199\n      jumpi\n        /* \"#utility.yul\":1098:1116   */\n      tag_200\n      tag_139\n      jump\t// in\n    tag_200:\n        /* \"#utility.yul\":1030:1118   */\n    tag_199:\n        /* \"#utility.yul\":1138:1148   */\n      dup1\n        /* \"#utility.yul\":1134:1136   */\n      0x40\n        /* \"#utility.yul\":1127:1149   */\n      mstore\n        /* \"#utility.yul\":917:1155   */\n      pop\n        /* \"#utility.yul\":874:1155   */\n      pop\n      pop\n      jump\t// out\n        /* \"#utility.yul\":1161:1290   */\n    tag_141:\n        /* \"#utility.yul\":1195:1201   */\n      0x00\n        /* \"#utility.yul\":1222:1242   */\n      tag_202\n      tag_133\n      jump\t// in\n    tag_202:\n        /* \"#utility.yul\":1212:1242   */\n      swap1\n      pop\n        /* \"#utility.yul\":1251:1284   */\n      tag_203\n        /* \"#utility.yul\":1279:1283   */\n      dup3\n        /* \"#utility.yul\":1271:1277   */\n      dup3\n        /* \"#utility.yul\":1251:1284   */\n      tag_140\n      jump\t// in\n    tag_203:\n        /* \"#utility.yul\":1161:1290   */\n      swap2\n      swap1\n      pop\n      jump\t// out\n        /* \"#utility.yul\":1296:1604   */\n    tag_142:\n        /* \"#utility.yul\":1358:1362   */\n      0x00\n        /* \"#utility.yul\":1448:1466   */\n      0xffffffffffffffff\n        /* \"#utility.yul\":1440:1446   */\n      dup3\n        /* \"#utility.yul\":1437:1467   */\n      gt\n        /* \"#utility.yul\":1434:1490   */\n      iszero\n      tag_205\n      jumpi\n        /* \"#utility.yul\":1470:1488   */\n      tag_206\n      tag_139\n      jump\t// in\n    tag_206:\n        /* \"#utility.yul\":1434:1490   */\n    tag_205:\n        /* \"#utility.yul\":1508:1537   */\n      tag_207\n        /* \"#utility.yul\":1530:1536   */\n      dup3\n        /* \"#utility.yul\":1508:1537   */\n      tag_138\n      jump\t// in\n    tag_207:\n        /* \"#utility.yul\":1500:1537   */\n      swap1\n      pop\n        /* \"#utility.yul\":1592:1596   */\n      0x20\n        /* \"#utility.yul\":1586:1590   */\n      dup2\n        /* \"#utility.yul\":1582:1597   */\n      add\n        /* \"#utility.yul\":1574:1597   */\n      swap1\n      pop\n        /* \"#utility.yul\":1296:1604   */\n      swap2\n      swap1\n      pop\n      jump\t// out\n        /* \"#utility.yul\":1610:1756   */\n    tag_143:\n        /* \"#utility.yul\":1707:1713   */\n      dup3\n        /* \"#utility.yul\":1702:1705   */\n      dup2\n        /* \"#utility.yul\":1697:1700   */\n      dup4\n        /* \"#utility.yul\":1684:1714   */\n      calldatacopy\n        /* \"#utility.yul\":1748:1749   */\n      0x00\n        /* \"#utility.yul\":1739:1745   */\n      dup4\n        /* \"#utility.yul\":1734:1737   */\n      dup4\n        /* \"#utility.yul\":1730:1746   */\n      add\n        /* \"#utility.yul\":1723:1750   */\n      mstore\n        /* \"#utility.yul\":1610:1756   */\n      pop\n      pop\n      pop\n      jump\t// out\n        /* \"#utility.yul\":1762:2187   */\n    tag_144:\n        /* \"#utility.yul\":1840:1845   */\n      0x00\n        /* \"#utility.yul\":1865:1931   */\n      tag_210\n        /* \"#utility.yul\":1881:1930   */\n      tag_211\n        /* \"#utility.yul\":1923:1929   */\n      dup5\n        /* \"#utility.yul\":1881:1930   */\n      tag_142\n      jump\t// in\n    tag_211:\n        /* \"#utility.yul\":1865:1931   */\n      tag_141\n      jump\t// in\n    tag_210:\n        /* \"#utility.yul\":1856:1931   */\n      swap1\n      pop\n        /* \"#utility.yul\":1954:1960   */\n      dup3\n        /* \"#utility.yul\":1947:1952   */\n      dup2\n        /* \"#utility.yul\":1940:1961   */\n      mstore\n        /* \"#utility.yul\":1992:1996   */\n      0x20\n        /* \"#utility.yul\":1985:1990   */\n      dup2\n        /* \"#utility.yul\":1981:1997   */\n      add\n        /* \"#utility.yul\":2030:2033   */\n      dup5\n        /* \"#utility.yul\":2021:2027   */\n      dup5\n        /* \"#utility.yul\":2016:2019   */\n      dup5\n        /* \"#utility.yul\":2012:2028   */\n      add\n        /* \"#utility.yul\":2009:2034   */\n      gt\n        /* \"#utility.yul\":2006:2118   */\n      iszero\n      tag_212\n      jumpi\n        /* \"#utility.yul\":2037:2116   */\n      tag_213\n      tag_137\n      jump\t// in\n    tag_213:\n        /* \"#utility.yul\":2006:2118   */\n    tag_212:\n        /* \"#utility.yul\":2127:2181   */\n      tag_214\n        /* \"#utility.yul\":2174:2180   */\n      dup5\n        /* \"#utility.yul\":2169:2172   */\n      dup3\n        /* \"#utility.yul\":2164:2167   */\n      dup6\n        /* \"#utility.yul\":2127:2181   */\n      tag_143\n      jump\t// in\n    tag_214:\n        /* \"#utility.yul\":1846:2187   */\n      pop\n        /* \"#utility.yul\":1762:2187   */\n      swap4\n      swap3\n      pop\n      pop\n      pop\n      jump\t// out\n        /* \"#utility.yul\":2207:2547   */\n    tag_145:\n        /* \"#utility.yul\":2263:2268   */\n      0x00\n        /* \"#utility.yul\":2312:2315   */\n      dup3\n        /* \"#utility.yul\":2305:2309   */\n      0x1f\n        /* \"#utility.yul\":2297:2303   */\n      dup4\n        /* \"#utility.yul\":2293:2310   */\n      add\n        /* \"#utility.yul\":2289:2316   */\n      slt\n        /* \"#utility.yul\":2279:2401   */\n      tag_216\n      jumpi\n        /* \"#utility.yul\":2320:2399   */\n      tag_217\n      tag_136\n      jump\t// in\n    tag_217:\n        /* \"#utility.yul\":2279:2401   */\n    tag_216:\n        /* \"#utility.yul\":2437:2443   */\n      dup2\n        /* \"#utility.yul\":2424:2444   */\n      calldataload\n        /* \"#utility.yul\":2462:2541   */\n      tag_218\n        /* \"#utility.yul\":2537:2540   */\n      dup5\n        /* \"#utility.yul\":2529:2535   */\n      dup3\n        /* \"#utility.yul\":2522:2526   */\n      0x20\n        /* \"#utility.yul\":2514:2520   */\n      dup7\n        /* \"#utility.yul\":2510:2527   */\n      add\n        /* \"#utility.yul\":2462:2541   */\n      tag_144\n      jump\t// in\n    tag_218:\n        /* \"#utility.yul\":2453:2541   */\n      swap2\n      pop\n        /* \"#utility.yul\":2269:2547   */\n      pop\n        /* \"#utility.yul\":2207:2547   */\n      swap3\n      swap2\n      pop\n      pop\n      jump\t// out\n        /* \"#utility.yul\":2553:2874   */\n    tag_146:\n        /* \"#utility.yul\":2640:2644   */\n      0x00\n        /* \"#utility.yul\":2730:2748   */\n      0xffffffffffffffff\n        /* \"#utility.yul\":2722:2728   */\n      dup3\n        /* \"#utility.yul\":2719:2749   */\n      gt\n        /* \"#utility.yul\":2716:2772   */\n      iszero\n      tag_220\n      jumpi\n        /* \"#utility.yul\":2752:2770   */\n      tag_221\n      tag_139\n      jump\t// in\n    tag_221:\n        /* \"#utility.yul\":2716:2772   */\n    tag_220:\n        /* \"#utility.yul\":2802:2806   */\n      0x20\n        /* \"#utility.yul\":2794:2800   */\n      dup3\n        /* \"#utility.yul\":2790:2807   */\n      mul\n        /* \"#utility.yul\":2782:2807   */\n      swap1\n      pop\n        /* \"#utility.yul\":2862:2866   */\n      0x20\n        /* \"#utility.yul\":2856:2860   */\n      dup2\n        /* \"#utility.yul\":2852:2867   */\n      add\n        /* \"#utility.yul\":2844:2867   */\n      swap1\n      pop\n        /* \"#utility.yul\":2553:2874   */\n      swap2\n      swap1\n      pop\n      jump\t// out\n        /* \"#utility.yul\":2880:2997   */\n    tag_147:\n        /* \"#utility.yul\":2989:2990   */\n      0x00\n        /* \"#utility.yul\":2986:2987   */\n      dup1\n        /* \"#utility.yul\":2979:2991   */\n      revert\n        /* \"#utility.yul\":3019:3964   */\n    tag_148:\n        /* \"#utility.yul\":3125:3130   */\n      0x00\n        /* \"#utility.yul\":3150:3241   */\n      tag_224\n        /* \"#utility.yul\":3166:3240   */\n      tag_225\n        /* \"#utility.yul\":3233:3239   */\n      dup5\n        /* \"#utility.yul\":3166:3240   */\n      tag_146\n      jump\t// in\n    tag_225:\n        /* \"#utility.yul\":3150:3241   */\n      tag_141\n      jump\t// in\n    tag_224:\n        /* \"#utility.yul\":3141:3241   */\n      swap1\n      pop\n        /* \"#utility.yul\":3261:3266   */\n      dup1\n        /* \"#utility.yul\":3290:3296   */\n      dup4\n        /* \"#utility.yul\":3283:3288   */\n      dup3\n        /* \"#utility.yul\":3276:3297   */\n      mstore\n        /* \"#utility.yul\":3324:3328   */\n      0x20\n        /* \"#utility.yul\":3317:3322   */\n      dup3\n        /* \"#utility.yul\":3313:3329   */\n      add\n        /* \"#utility.yul\":3306:3329   */\n      swap1\n      pop\n        /* \"#utility.yul\":3377:3381   */\n      0x20\n        /* \"#utility.yul\":3369:3375   */\n      dup5\n        /* \"#utility.yul\":3365:3382   */\n      mul\n        /* \"#utility.yul\":3357:3363   */\n      dup4\n        /* \"#utility.yul\":3353:3383   */\n      add\n        /* \"#utility.yul\":3406:3409   */\n      dup6\n        /* \"#utility.yul\":3398:3404   */\n      dup2\n        /* \"#utility.yul\":3395:3410   */\n      gt\n        /* \"#utility.yul\":3392:3514   */\n      iszero\n      tag_226\n      jumpi\n        /* \"#utility.yul\":3425:3504   */\n      tag_227\n      tag_147\n      jump\t// in\n    tag_227:\n        /* \"#utility.yul\":3392:3514   */\n    tag_226:\n        /* \"#utility.yul\":3540:3546   */\n      dup4\n        /* \"#utility.yul\":3523:3958   */\n    tag_228:\n        /* \"#utility.yul\":3557:3563   */\n      dup2\n        /* \"#utility.yul\":3552:3555   */\n      dup2\n        /* \"#utility.yul\":3549:3564   */\n      lt\n        /* \"#utility.yul\":3523:3958   */\n      iszero\n      tag_230\n      jumpi\n        /* \"#utility.yul\":3646:3649   */\n      dup1\n        /* \"#utility.yul\":3633:3650   */\n      calldataload\n        /* \"#utility.yul\":3682:3700   */\n      0xffffffffffffffff\n        /* \"#utility.yul\":3669:3680   */\n      dup2\n        /* \"#utility.yul\":3666:3701   */\n      gt\n        /* \"#utility.yul\":3663:3785   */\n      iszero\n      tag_231\n      jumpi\n        /* \"#utility.yul\":3704:3783   */\n      tag_232\n      tag_136\n      jump\t// in\n    tag_232:\n        /* \"#utility.yul\":3663:3785   */\n    tag_231:\n        /* \"#utility.yul\":3828:3839   */\n      dup1\n        /* \"#utility.yul\":3820:3826   */\n      dup7\n        /* \"#utility.yul\":3816:3840   */\n      add\n        /* \"#utility.yul\":3866:3913   */\n      tag_233\n        /* \"#utility.yul\":3909:3912   */\n      dup10\n        /* \"#utility.yul\":3897:3907   */\n      dup3\n        /* \"#utility.yul\":3866:3913   */\n      tag_145\n      jump\t// in\n    tag_233:\n        /* \"#utility.yul\":3861:3864   */\n      dup6\n        /* \"#utility.yul\":3854:3914   */\n      mstore\n        /* \"#utility.yul\":3943:3947   */\n      0x20\n        /* \"#utility.yul\":3938:3941   */\n      dup6\n        /* \"#utility.yul\":3934:3948   */\n      add\n        /* \"#utility.yul\":3927:3948   */\n      swap5\n      pop\n        /* \"#utility.yul\":3599:3958   */\n      pop\n      pop\n        /* \"#utility.yul\":3583:3587   */\n      0x20\n        /* \"#utility.yul\":3578:3581   */\n      dup2\n        /* \"#utility.yul\":3574:3588   */\n      add\n        /* \"#utility.yul\":3567:3588   */\n      swap1\n      pop\n        /* \"#utility.yul\":3523:3958   */\n      jump(tag_228)\n    tag_230:\n        /* \"#utility.yul\":3527:3548   */\n      pop\n        /* \"#utility.yul\":3131:3964   */\n      pop\n      pop\n        /* \"#utility.yul\":3019:3964   */\n      swap4\n      swap3\n      pop\n      pop\n      pop\n      jump\t// out\n        /* \"#utility.yul\":3986:4376   */\n    tag_149:\n        /* \"#utility.yul\":4067:4072   */\n      0x00\n        /* \"#utility.yul\":4116:4119   */\n      dup3\n        /* \"#utility.yul\":4109:4113   */\n      0x1f\n        /* \"#utility.yul\":4101:4107   */\n      dup4\n        /* \"#utility.yul\":4097:4114   */\n      add\n        /* \"#utility.yul\":4093:4120   */\n      slt\n        /* \"#utility.yul\":4083:4205   */\n      tag_235\n      jumpi\n        /* \"#utility.yul\":4124:4203   */\n      tag_236\n      tag_136\n      jump\t// in\n    tag_236:\n        /* \"#utility.yul\":4083:4205   */\n    tag_235:\n        /* \"#utility.yul\":4241:4247   */\n      dup2\n        /* \"#utility.yul\":4228:4248   */\n      calldataload\n        /* \"#utility.yul\":4266:4370   */\n      tag_237\n        /* \"#utility.yul\":4366:4369   */\n      dup5\n        /* \"#utility.yul\":4358:4364   */\n      dup3\n        /* \"#utility.yul\":4351:4355   */\n      0x20\n        /* \"#utility.yul\":4343:4349   */\n      dup7\n        /* \"#utility.yul\":4339:4356   */\n      add\n        /* \"#utility.yul\":4266:4370   */\n      tag_148\n      jump\t// in\n    tag_237:\n        /* \"#utility.yul\":4257:4370   */\n      swap2\n      pop\n        /* \"#utility.yul\":4073:4376   */\n      pop\n        /* \"#utility.yul\":3986:4376   */\n      swap3\n      swap2\n      pop\n      pop\n      jump\t// out\n        /* \"#utility.yul\":4382:5266   */\n    tag_10:\n        /* \"#utility.yul\":4495:4501   */\n      0x00\n        /* \"#utility.yul\":4503:4509   */\n      dup1\n        /* \"#utility.yul\":4552:4554   */\n      0x40\n        /* \"#utility.yul\":4540:4549   */\n      dup4\n        /* \"#utility.yul\":4531:4538   */\n      dup6\n        /* \"#utility.yul\":4527:4550   */\n      sub\n        /* \"#utility.yul\":4523:4555   */\n      slt\n        /* \"#utility.yul\":4520:4639   */\n      iszero\n      tag_239\n      jumpi\n        /* \"#utility.yul\":4558:4637   */\n      tag_240\n      tag_134\n      jump\t// in\n    tag_240:\n        /* \"#utility.yul\":4520:4639   */\n    tag_239:\n        /* \"#utility.yul\":4706:4707   */\n      0x00\n        /* \"#utility.yul\":4695:4704   */\n      dup4\n        /* \"#utility.yul\":4691:4708   */\n      add\n        /* \"#utility.yul\":4678:4709   */\n      calldataload\n        /* \"#utility.yul\":4736:4754   */\n      0xffffffffffffffff\n        /* \"#utility.yul\":4728:4734   */\n      dup2\n        /* \"#utility.yul\":4725:4755   */\n      gt\n        /* \"#utility.yul\":4722:4839   */\n      iszero\n      tag_241\n      jumpi\n        /* \"#utility.yul\":4758:4837   */\n      tag_242\n      tag_135\n      jump\t// in\n    tag_242:\n        /* \"#utility.yul\":4722:4839   */\n    tag_241:\n        /* \"#utility.yul\":4863:4926   */\n      tag_243\n        /* \"#utility.yul\":4918:4925   */\n      dup6\n        /* \"#utility.yul\":4909:4915   */\n      dup3\n        /* \"#utility.yul\":4898:4907   */\n      dup7\n        /* \"#utility.yul\":4894:4916   */\n      add\n        /* \"#utility.yul\":4863:4926   */\n      tag_145\n      jump\t// in\n    tag_243:\n        /* \"#utility.yul\":4853:4926   */\n      swap3\n      pop\n        /* \"#utility.yul\":4649:4936   */\n      pop\n        /* \"#utility.yul\":5003:5005   */\n      0x20\n        /* \"#utility.yul\":4992:5001   */\n      dup4\n        /* \"#utility.yul\":4988:5006   */\n      add\n        /* \"#utility.yul\":4975:5007   */\n      calldataload\n        /* \"#utility.yul\":5034:5052   */\n      0xffffffffffffffff\n        /* \"#utility.yul\":5026:5032   */\n      dup2\n        /* \"#utility.yul\":5023:5053   */\n      gt\n        /* \"#utility.yul\":5020:5137   */\n      iszero\n      tag_244\n      jumpi\n        /* \"#utility.yul\":5056:5135   */\n      tag_245\n      tag_135\n      jump\t// in\n    tag_245:\n        /* \"#utility.yul\":5020:5137   */\n    tag_244:\n        /* \"#utility.yul\":5161:5249   */\n      tag_246\n        /* \"#utility.yul\":5241:5248   */\n      dup6\n        /* \"#utility.yul\":5232:5238   */\n      dup3\n        /* \"#utility.yul\":5221:5230   */\n      dup7\n        /* \"#utility.yul\":5217:5239   */\n      add\n        /* \"#utility.yul\":5161:5249   */\n      tag_149\n      jump\t// in\n    tag_246:\n        /* \"#utility.yul\":5151:5249   */\n      swap2\n      pop\n        /* \"#utility.yul\":4946:5259   */\n      pop\n        /* \"#utility.yul\":4382:5266   */\n      swap3\n      pop\n      swap3\n      swap1\n      pop\n      jump\t// out\n        /* \"#utility.yul\":5272:5371   */\n    tag_150:\n        /* \"#utility.yul\":5324:5330   */\n      0x00\n        /* \"#utility.yul\":5358:5363   */\n      dup2\n        /* \"#utility.yul\":5352:5364   */\n      mload\n        /* \"#utility.yul\":5342:5364   */\n      swap1\n      pop\n        /* \"#utility.yul\":5272:5371   */\n      swap2\n      swap1\n      pop\n      jump\t// out\n        /* \"#utility.yul\":5377:5536   */\n    tag_151:\n        /* \"#utility.yul\":5451:5462   */\n      0x00\n        /* \"#utility.yul\":5485:5491   */\n      dup3\n        /* \"#utility.yul\":5480:5483   */\n      dup3\n        /* \"#utility.yul\":5473:5492   */\n      mstore\n        /* \"#utility.yul\":5525:5529   */\n      0x20\n        /* \"#utility.yul\":5520:5523   */\n      dup3\n        /* \"#utility.yul\":5516:5530   */\n      add\n        /* \"#utility.yul\":5501:5530   */\n      swap1\n      pop\n        /* \"#utility.yul\":5377:5536   */\n      swap3\n      swap2\n      pop\n      pop\n      jump\t// out\n        /* \"#utility.yul\":5542:5788   */\n    tag_152:\n        /* \"#utility.yul\":5623:5624   */\n      0x00\n        /* \"#utility.yul\":5633:5746   */\n    tag_250:\n        /* \"#utility.yul\":5647:5653   */\n      dup4\n        /* \"#utility.yul\":5644:5645   */\n      dup2\n        /* \"#utility.yul\":5641:5654   */\n      lt\n        /* \"#utility.yul\":5633:5746   */\n      iszero\n      tag_252\n      jumpi\n        /* \"#utility.yul\":5732:5733   */\n      dup1\n        /* \"#utility.yul\":5727:5730   */\n      dup3\n        /* \"#utility.yul\":5723:5734   */\n      add\n        /* \"#utility.yul\":5717:5735   */\n      mload\n        /* \"#utility.yul\":5713:5714   */\n      dup2\n        /* \"#utility.yul\":5708:5711   */\n      dup5\n        /* \"#utility.yul\":5704:5715   */\n      add\n        /* \"#utility.yul\":5697:5736   */\n      mstore\n        /* \"#utility.yul\":5669:5671   */\n      0x20\n        /* \"#utility.yul\":5666:5667   */\n      dup2\n        /* \"#utility.yul\":5662:5672   */\n      add\n        /* \"#utility.yul\":5657:5672   */\n      swap1\n      pop\n        /* \"#utility.yul\":5633:5746   */\n      jump(tag_250)\n    tag_252:\n        /* \"#utility.yul\":5780:5781   */\n      0x00\n        /* \"#utility.yul\":5771:5777   */\n      dup5\n        /* \"#utility.yul\":5766:5769   */\n      dup5\n        /* \"#utility.yul\":5762:5778   */\n      add\n        /* \"#utility.yul\":5755:5782   */\n      mstore\n        /* \"#utility.yul\":5604:5788   */\n      pop\n        /* \"#utility.yul\":5542:5788   */\n      pop\n      pop\n      pop\n      jump\t// out\n        /* \"#utility.yul\":5794:6151   */\n    tag_153:\n        /* \"#utility.yul\":5872:5875   */\n      0x00\n        /* \"#utility.yul\":5900:5939   */\n      tag_254\n        /* \"#utility.yul\":5933:5938   */\n      dup3\n        /* \"#utility.yul\":5900:5939   */\n      tag_150\n      jump\t// in\n    tag_254:\n        /* \"#utility.yul\":5955:6016   */\n      tag_255\n        /* \"#utility.yul\":6009:6015   */\n      dup2\n        /* \"#utility.yul\":6004:6007   */\n      dup6\n        /* \"#utility.yul\":5955:6016   */\n      tag_151\n      jump\t// in\n    tag_255:\n        /* \"#utility.yul\":5948:6016   */\n      swap4\n      pop\n        /* \"#utility.yul\":6025:6090   */\n      tag_256\n        /* \"#utility.yul\":6083:6089   */\n      dup2\n        /* \"#utility.yul\":6078:6081   */\n      dup6\n        /* \"#utility.yul\":6071:6075   */\n      0x20\n        /* \"#utility.yul\":6064:6069   */\n      dup7\n        /* \"#utility.yul\":6060:6076   */\n      add\n        /* \"#utility.yul\":6025:6090   */\n      tag_152\n      jump\t// in\n    tag_256:\n        /* \"#utility.yul\":6115:6144   */\n      tag_257\n        /* \"#utility.yul\":6137:6143   */\n      dup2\n        /* \"#utility.yul\":6115:6144   */\n      tag_138\n      jump\t// in\n    tag_257:\n        /* \"#utility.yul\":6110:6113   */\n      dup5\n        /* \"#utility.yul\":6106:6145   */\n      add\n        /* \"#utility.yul\":6099:6145   */\n      swap2\n      pop\n        /* \"#utility.yul\":5876:6151   */\n      pop\n        /* \"#utility.yul\":5794:6151   */\n      swap3\n      swap2\n      pop\n      pop\n      jump\t// out\n        /* \"#utility.yul\":6157:6281   */\n    tag_154:\n        /* \"#utility.yul\":6234:6240   */\n      0x00\n        /* \"#utility.yul\":6268:6273   */\n      dup2\n        /* \"#utility.yul\":6262:6274   */\n      mload\n        /* \"#utility.yul\":6252:6274   */\n      swap1\n      pop\n        /* \"#utility.yul\":6157:6281   */\n      swap2\n      swap1\n      pop\n      jump\t// out\n        /* \"#utility.yul\":6287:6471   */\n    tag_155:\n        /* \"#utility.yul\":6386:6397   */\n      0x00\n        /* \"#utility.yul\":6420:6426   */\n      dup3\n        /* \"#utility.yul\":6415:6418   */\n      dup3\n        /* \"#utility.yul\":6408:6427   */\n      mstore\n        /* \"#utility.yul\":6460:6464   */\n      0x20\n        /* \"#utility.yul\":6455:6458   */\n      dup3\n        /* \"#utility.yul\":6451:6465   */\n      add\n        /* \"#utility.yul\":6436:6465   */\n      swap1\n      pop\n        /* \"#utility.yul\":6287:6471   */\n      swap3\n      swap2\n      pop\n      pop\n      jump\t// out\n        /* \"#utility.yul\":6477:6619   */\n    tag_156:\n        /* \"#utility.yul\":6554:6558   */\n      0x00\n        /* \"#utility.yul\":6577:6580   */\n      dup2\n        /* \"#utility.yul\":6569:6580   */\n      swap1\n      pop\n        /* \"#utility.yul\":6607:6611   */\n      0x20\n        /* \"#utility.yul\":6602:6605   */\n      dup3\n        /* \"#utility.yul\":6598:6612   */\n      add\n        /* \"#utility.yul\":6590:6612   */\n      swap1\n      pop\n        /* \"#utility.yul\":6477:6619   */\n      swap2\n      swap1\n      pop\n      jump\t// out\n        /* \"#utility.yul\":6625:6821   */\n    tag_157:\n        /* \"#utility.yul\":6714:6724   */\n      0x00\n        /* \"#utility.yul\":6749:6815   */\n      tag_262\n        /* \"#utility.yul\":6811:6814   */\n      dup4\n        /* \"#utility.yul\":6803:6809   */\n      dup4\n        /* \"#utility.yul\":6749:6815   */\n      tag_153\n      jump\t// in\n    tag_262:\n        /* \"#utility.yul\":6735:6815   */\n      swap1\n      pop\n        /* \"#utility.yul\":6625:6821   */\n      swap3\n      swap2\n      pop\n      pop\n      jump\t// out\n        /* \"#utility.yul\":6827:6950   */\n    tag_158:\n        /* \"#utility.yul\":6907:6911   */\n      0x00\n        /* \"#utility.yul\":6939:6943   */\n      0x20\n        /* \"#utility.yul\":6934:6937   */\n      dup3\n        /* \"#utility.yul\":6930:6944   */\n      add\n        /* \"#utility.yul\":6922:6944   */\n      swap1\n      pop\n        /* \"#utility.yul\":6827:6950   */\n      swap2\n      swap1\n      pop\n      jump\t// out\n        /* \"#utility.yul\":6984:7955   */\n    tag_159:\n        /* \"#utility.yul\":7113:7116   */\n      0x00\n        /* \"#utility.yul\":7142:7206   */\n      tag_265\n        /* \"#utility.yul\":7200:7205   */\n      dup3\n        /* \"#utility.yul\":7142:7206   */\n      tag_154\n      jump\t// in\n    tag_265:\n        /* \"#utility.yul\":7222:7308   */\n      tag_266\n        /* \"#utility.yul\":7301:7307   */\n      dup2\n        /* \"#utility.yul\":7296:7299   */\n      dup6\n        /* \"#utility.yul\":7222:7308   */\n      tag_155\n      jump\t// in\n    tag_266:\n        /* \"#utility.yul\":7215:7308   */\n      swap4\n      pop\n        /* \"#utility.yul\":7334:7337   */\n      dup4\n        /* \"#utility.yul\":7379:7383   */\n      0x20\n        /* \"#utility.yul\":7371:7377   */\n      dup3\n        /* \"#utility.yul\":7367:7384   */\n      mul\n        /* \"#utility.yul\":7362:7365   */\n      dup6\n        /* \"#utility.yul\":7358:7385   */\n      add\n        /* \"#utility.yul\":7409:7475   */\n      tag_267\n        /* \"#utility.yul\":7469:7474   */\n      dup6\n        /* \"#utility.yul\":7409:7475   */\n      tag_156\n      jump\t// in\n    tag_267:\n        /* \"#utility.yul\":7498:7505   */\n      dup1\n        /* \"#utility.yul\":7529:7530   */\n      0x00\n        /* \"#utility.yul\":7514:7910   */\n    tag_268:\n        /* \"#utility.yul\":7539:7545   */\n      dup6\n        /* \"#utility.yul\":7536:7537   */\n      dup2\n        /* \"#utility.yul\":7533:7546   */\n      lt\n        /* \"#utility.yul\":7514:7910   */\n      iszero\n      tag_270\n      jumpi\n        /* \"#utility.yul\":7610:7619   */\n      dup5\n        /* \"#utility.yul\":7604:7608   */\n      dup5\n        /* \"#utility.yul\":7600:7620   */\n      sub\n        /* \"#utility.yul\":7595:7598   */\n      dup10\n        /* \"#utility.yul\":7588:7621   */\n      mstore\n        /* \"#utility.yul\":7661:7667   */\n      dup2\n        /* \"#utility.yul\":7655:7668   */\n      mload\n        /* \"#utility.yul\":7689:7773   */\n      tag_271\n        /* \"#utility.yul\":7768:7772   */\n      dup6\n        /* \"#utility.yul\":7753:7766   */\n      dup3\n        /* \"#utility.yul\":7689:7773   */\n      tag_157\n      jump\t// in\n    tag_271:\n        /* \"#utility.yul\":7681:7773   */\n      swap5\n      pop\n        /* \"#utility.yul\":7796:7866   */\n      tag_272\n        /* \"#utility.yul\":7859:7865   */\n      dup4\n        /* \"#utility.yul\":7796:7866   */\n      tag_158\n      jump\t// in\n    tag_272:\n        /* \"#utility.yul\":7786:7866   */\n      swap3\n      pop\n        /* \"#utility.yul\":7895:7899   */\n      0x20\n        /* \"#utility.yul\":7890:7893   */\n      dup11\n        /* \"#utility.yul\":7886:7900   */\n      add\n        /* \"#utility.yul\":7879:7900   */\n      swap10\n      pop\n        /* \"#utility.yul\":7574:7910   */\n      pop\n        /* \"#utility.yul\":7561:7562   */\n      0x01\n        /* \"#utility.yul\":7558:7559   */\n      dup2\n        /* \"#utility.yul\":7554:7563   */\n      add\n        /* \"#utility.yul\":7549:7563   */\n      swap1\n      pop\n        /* \"#utility.yul\":7514:7910   */\n      jump(tag_268)\n    tag_270:\n        /* \"#utility.yul\":7518:7532   */\n      pop\n        /* \"#utility.yul\":7926:7930   */\n      dup3\n        /* \"#utility.yul\":7919:7930   */\n      swap8\n      pop\n        /* \"#utility.yul\":7946:7949   */\n      dup8\n        /* \"#utility.yul\":7939:7949   */\n      swap6\n      pop\n        /* \"#utility.yul\":7118:7955   */\n      pop\n      pop\n      pop\n      pop\n      pop\n        /* \"#utility.yul\":6984:7955   */\n      swap3\n      swap2\n      pop\n      pop\n      jump\t// out\n        /* \"#utility.yul\":8011:8989   */\n    tag_160:\n        /* \"#utility.yul\":8120:8123   */\n      0x00\n        /* \"#utility.yul\":8156:8160   */\n      0x60\n        /* \"#utility.yul\":8151:8154   */\n      dup4\n        /* \"#utility.yul\":8147:8161   */\n      add\n        /* \"#utility.yul\":8250:8254   */\n      0x00\n        /* \"#utility.yul\":8243:8248   */\n      dup4\n        /* \"#utility.yul\":8239:8255   */\n      add\n        /* \"#utility.yul\":8233:8256   */\n      mload\n        /* \"#utility.yul\":8303:8306   */\n      dup5\n        /* \"#utility.yul\":8297:8301   */\n      dup3\n        /* \"#utility.yul\":8293:8307   */\n      sub\n        /* \"#utility.yul\":8286:8290   */\n      0x00\n        /* \"#utility.yul\":8281:8284   */\n      dup7\n        /* \"#utility.yul\":8277:8291   */\n      add\n        /* \"#utility.yul\":8270:8308   */\n      mstore\n        /* \"#utility.yul\":8329:8402   */\n      tag_274\n        /* \"#utility.yul\":8397:8401   */\n      dup3\n        /* \"#utility.yul\":8383:8395   */\n      dup3\n        /* \"#utility.yul\":8329:8402   */\n      tag_153\n      jump\t// in\n    tag_274:\n        /* \"#utility.yul\":8321:8402   */\n      swap2\n      pop\n        /* \"#utility.yul\":8171:8413   */\n      pop\n        /* \"#utility.yul\":8501:8505   */\n      0x20\n        /* \"#utility.yul\":8494:8499   */\n      dup4\n        /* \"#utility.yul\":8490:8506   */\n      add\n        /* \"#utility.yul\":8484:8507   */\n      mload\n        /* \"#utility.yul\":8554:8557   */\n      dup5\n        /* \"#utility.yul\":8548:8552   */\n      dup3\n        /* \"#utility.yul\":8544:8558   */\n      sub\n        /* \"#utility.yul\":8537:8541   */\n      0x20\n        /* \"#utility.yul\":8532:8535   */\n      dup7\n        /* \"#utility.yul\":8528:8542   */\n      add\n        /* \"#utility.yul\":8521:8559   */\n      mstore\n        /* \"#utility.yul\":8580:8653   */\n      tag_275\n        /* \"#utility.yul\":8648:8652   */\n      dup3\n        /* \"#utility.yul\":8634:8646   */\n      dup3\n        /* \"#utility.yul\":8580:8653   */\n      tag_153\n      jump\t// in\n    tag_275:\n        /* \"#utility.yul\":8572:8653   */\n      swap2\n      pop\n        /* \"#utility.yul\":8423:8664   */\n      pop\n        /* \"#utility.yul\":8749:8753   */\n      0x40\n        /* \"#utility.yul\":8742:8747   */\n      dup4\n        /* \"#utility.yul\":8738:8754   */\n      add\n        /* \"#utility.yul\":8732:8755   */\n      mload\n        /* \"#utility.yul\":8802:8805   */\n      dup5\n        /* \"#utility.yul\":8796:8800   */\n      dup3\n        /* \"#utility.yul\":8792:8806   */\n      sub\n        /* \"#utility.yul\":8785:8789   */\n      0x40\n        /* \"#utility.yul\":8780:8783   */\n      dup7\n        /* \"#utility.yul\":8776:8790   */\n      add\n        /* \"#utility.yul\":8769:8807   */\n      mstore\n        /* \"#utility.yul\":8828:8951   */\n      tag_276\n        /* \"#utility.yul\":8946:8950   */\n      dup3\n        /* \"#utility.yul\":8932:8944   */\n      dup3\n        /* \"#utility.yul\":8828:8951   */\n      tag_159\n      jump\t// in\n    tag_276:\n        /* \"#utility.yul\":8820:8951   */\n      swap2\n      pop\n        /* \"#utility.yul\":8674:8962   */\n      pop\n        /* \"#utility.yul\":8979:8983   */\n      dup1\n        /* \"#utility.yul\":8972:8983   */\n      swap2\n      pop\n        /* \"#utility.yul\":8125:8989   */\n      pop\n        /* \"#utility.yul\":8011:8989   */\n      swap3\n      swap2\n      pop\n      pop\n      jump\t// out\n        /* \"#utility.yul\":8995:9348   */\n    tag_13:\n        /* \"#utility.yul\":9128:9132   */\n      0x00\n        /* \"#utility.yul\":9166:9168   */\n      0x20\n        /* \"#utility.yul\":9155:9164   */\n      dup3\n        /* \"#utility.yul\":9151:9169   */\n      add\n        /* \"#utility.yul\":9143:9169   */\n      swap1\n      pop\n        /* \"#utility.yul\":9215:9224   */\n      dup2\n        /* \"#utility.yul\":9209:9213   */\n      dup2\n        /* \"#utility.yul\":9205:9225   */\n      sub\n        /* \"#utility.yul\":9201:9202   */\n      0x00\n        /* \"#utility.yul\":9190:9199   */\n      dup4\n        /* \"#utility.yul\":9186:9203   */\n      add\n        /* \"#utility.yul\":9179:9226   */\n      mstore\n        /* \"#utility.yul\":9243:9341   */\n      tag_278\n        /* \"#utility.yul\":9336:9340   */\n      dup2\n        /* \"#utility.yul\":9327:9333   */\n      dup5\n        /* \"#utility.yul\":9243:9341   */\n      tag_160\n      jump\t// in\n    tag_278:\n        /* \"#utility.yul\":9235:9341   */\n      swap1\n      pop\n        /* \"#utility.yul\":8995:9348   */\n      swap3\n      swap2\n      pop\n      pop\n      jump\t// out\n        /* \"#utility.yul\":9354:10238   */\n    tag_16:\n        /* \"#utility.yul\":9467:9473   */\n      0x00\n        /* \"#utility.yul\":9475:9481   */\n      dup1\n        /* \"#utility.yul\":9524:9526   */\n      0x40\n        /* \"#utility.yul\":9512:9521   */\n      dup4\n        /* \"#utility.yul\":9503:9510   */\n      dup6\n        /* \"#utility.yul\":9499:9522   */\n      sub\n        /* \"#utility.yul\":9495:9527   */\n      slt\n        /* \"#utility.yul\":9492:9611   */\n      iszero\n      tag_280\n      jumpi\n        /* \"#utility.yul\":9530:9609   */\n      tag_281\n      tag_134\n      jump\t// in\n    tag_281:\n        /* \"#utility.yul\":9492:9611   */\n    tag_280:\n        /* \"#utility.yul\":9678:9679   */\n      0x00\n        /* \"#utility.yul\":9667:9676   */\n      dup4\n        /* \"#utility.yul\":9663:9680   */\n      add\n        /* \"#utility.yul\":9650:9681   */\n      calldataload\n        /* \"#utility.yul\":9708:9726   */\n      0xffffffffffffffff\n        /* \"#utility.yul\":9700:9706   */\n      dup2\n        /* \"#utility.yul\":9697:9727   */\n      gt\n        /* \"#utility.yul\":9694:9811   */\n      iszero\n      tag_282\n      jumpi\n        /* \"#utility.yul\":9730:9809   */\n      tag_283\n      tag_135\n      jump\t// in\n    tag_283:\n        /* \"#utility.yul\":9694:9811   */\n    tag_282:\n        /* \"#utility.yul\":9835:9923   */\n      tag_284\n        /* \"#utility.yul\":9915:9922   */\n      dup6\n        /* \"#utility.yul\":9906:9912   */\n      dup3\n        /* \"#utility.yul\":9895:9904   */\n      dup7\n        /* \"#utility.yul\":9891:9913   */\n      add\n        /* \"#utility.yul\":9835:9923   */\n      tag_149\n      jump\t// in\n    tag_284:\n        /* \"#utility.yul\":9825:9923   */\n      swap3\n      pop\n        /* \"#utility.yul\":9621:9933   */\n      pop\n        /* \"#utility.yul\":10000:10002   */\n      0x20\n        /* \"#utility.yul\":9989:9998   */\n      dup4\n        /* \"#utility.yul\":9985:10003   */\n      add\n        /* \"#utility.yul\":9972:10004   */\n      calldataload\n        /* \"#utility.yul\":10031:10049   */\n      0xffffffffffffffff\n        /* \"#utility.yul\":10023:10029   */\n      dup2\n        /* \"#utility.yul\":10020:10050   */\n      gt\n        /* \"#utility.yul\":10017:10134   */\n      iszero\n      tag_285\n      jumpi\n        /* \"#utility.yul\":10053:10132   */\n      tag_286\n      tag_135\n      jump\t// in\n    tag_286:\n        /* \"#utility.yul\":10017:10134   */\n    tag_285:\n        /* \"#utility.yul\":10158:10221   */\n      tag_287\n        /* \"#utility.yul\":10213:10220   */\n      dup6\n        /* \"#utility.yul\":10204:10210   */\n      dup3\n        /* \"#utility.yul\":10193:10202   */\n      dup7\n        /* \"#utility.yul\":10189:10211   */\n      add\n        /* \"#utility.yul\":10158:10221   */\n      tag_145\n      jump\t// in\n    tag_287:\n        /* \"#utility.yul\":10148:10221   */\n      swap2\n      pop\n        /* \"#utility.yul\":9943:10231   */\n      pop\n        /* \"#utility.yul\":9354:10238   */\n      swap3\n      pop\n      swap3\n      swap1\n      pop\n      jump\t// out\n        /* \"#utility.yul\":10244:10370   */\n    tag_161:\n        /* \"#utility.yul\":10281:10288   */\n      0x00\n        /* \"#utility.yul\":10321:10363   */\n      0xffffffffffffffffffffffffffffffffffffffff\n        /* \"#utility.yul\":10314:10319   */\n      dup3\n        /* \"#utility.yul\":10310:10364   */\n      and\n        /* \"#utility.yul\":10299:10364   */\n      swap1\n      pop\n        /* \"#utility.yul\":10244:10370   */\n      swap2\n      swap1\n      pop\n      jump\t// out\n        /* \"#utility.yul\":10376:10472   */\n    tag_162:\n        /* \"#utility.yul\":10413:10420   */\n      0x00\n        /* \"#utility.yul\":10442:10466   */\n      tag_290\n        /* \"#utility.yul\":10460:10465   */\n      dup3\n        /* \"#utility.yul\":10442:10466   */\n      tag_161\n      jump\t// in\n    tag_290:\n        /* \"#utility.yul\":10431:10466   */\n      swap1\n      pop\n        /* \"#utility.yul\":10376:10472   */\n      swap2\n      swap1\n      pop\n      jump\t// out\n        /* \"#utility.yul\":10478:10596   */\n    tag_163:\n        /* \"#utility.yul\":10565:10589   */\n      tag_292\n        /* \"#utility.yul\":10583:10588   */\n      dup2\n        /* \"#utility.yul\":10565:10589   */\n      tag_162\n      jump\t// in\n    tag_292:\n        /* \"#utility.yul\":10560:10563   */\n      dup3\n        /* \"#utility.yul\":10553:10590   */\n      mstore\n        /* \"#utility.yul\":10478:10596   */\n      pop\n      pop\n      jump\t// out\n        /* \"#utility.yul\":10602:10824   */\n    tag_21:\n        /* \"#utility.yul\":10695:10699   */\n      0x00\n        /* \"#utility.yul\":10733:10735   */\n      0x20\n        /* \"#utility.yul\":10722:10731   */\n      dup3\n        /* \"#utility.yul\":10718:10736   */\n      add\n        /* \"#utility.yul\":10710:10736   */\n      swap1\n      pop\n        /* \"#utility.yul\":10746:10817   */\n      tag_294\n        /* \"#utility.yul\":10814:10815   */\n      0x00\n        /* \"#utility.yul\":10803:10812   */\n      dup4\n        /* \"#utility.yul\":10799:10816   */\n      add\n        /* \"#utility.yul\":10790:10796   */\n      dup5\n        /* \"#utility.yul\":10746:10817   */\n      tag_163\n      jump\t// in\n    tag_294:\n        /* \"#utility.yul\":10602:10824   */\n      swap3\n      swap2\n      pop\n      pop\n      jump\t// out\n        /* \"#utility.yul\":10830:11664   */\n    tag_24:\n        /* \"#utility.yul\":10918:10924   */\n      0x00\n        /* \"#utility.yul\":10926:10932   */\n      dup1\n        /* \"#utility.yul\":10975:10977   */\n      0x40\n        /* \"#utility.yul\":10963:10972   */\n      dup4\n        /* \"#utility.yul\":10954:10961   */\n      dup6\n        /* \"#utility.yul\":10950:10973   */\n      sub\n        /* \"#utility.yul\":10946:10978   */\n      slt\n        /* \"#utility.yul\":10943:11062   */\n      iszero\n      tag_296\n      jumpi\n        /* \"#utility.yul\":10981:11060   */\n      tag_297\n      tag_134\n      jump\t// in\n    tag_297:\n        /* \"#utility.yul\":10943:11062   */\n    tag_296:\n        /* \"#utility.yul\":11129:11130   */\n      0x00\n        /* \"#utility.yul\":11118:11127   */\n      dup4\n        /* \"#utility.yul\":11114:11131   */\n      add\n        /* \"#utility.yul\":11101:11132   */\n      calldataload\n        /* \"#utility.yul\":11159:11177   */\n      0xffffffffffffffff\n        /* \"#utility.yul\":11151:11157   */\n      dup2\n        /* \"#utility.yul\":11148:11178   */\n      gt\n        /* \"#utility.yul\":11145:11262   */\n      iszero\n      tag_298\n      jumpi\n        /* \"#utility.yul\":11181:11260   */\n      tag_299\n      tag_135\n      jump\t// in\n    tag_299:\n        /* \"#utility.yul\":11145:11262   */\n    tag_298:\n        /* \"#utility.yul\":11286:11349   */\n      tag_300\n        /* \"#utility.yul\":11341:11348   */\n      dup6\n        /* \"#utility.yul\":11332:11338   */\n      dup3\n        /* \"#utility.yul\":11321:11330   */\n      dup7\n        /* \"#utility.yul\":11317:11339   */\n      add\n        /* \"#utility.yul\":11286:11349   */\n      tag_145\n      jump\t// in\n    tag_300:\n        /* \"#utility.yul\":11276:11349   */\n      swap3\n      pop\n        /* \"#utility.yul\":11072:11359   */\n      pop\n        /* \"#utility.yul\":11426:11428   */\n      0x20\n        /* \"#utility.yul\":11415:11424   */\n      dup4\n        /* \"#utility.yul\":11411:11429   */\n      add\n        /* \"#utility.yul\":11398:11430   */\n      calldataload\n        /* \"#utility.yul\":11457:11475   */\n      0xffffffffffffffff\n        /* \"#utility.yul\":11449:11455   */\n      dup2\n        /* \"#utility.yul\":11446:11476   */\n      gt\n        /* \"#utility.yul\":11443:11560   */\n      iszero\n      tag_301\n      jumpi\n        /* \"#utility.yul\":11479:11558   */\n      tag_302\n      tag_135\n      jump\t// in\n    tag_302:\n        /* \"#utility.yul\":11443:11560   */\n    tag_301:\n        /* \"#utility.yul\":11584:11647   */\n      tag_303\n        /* \"#utility.yul\":11639:11646   */\n      dup6\n        /* \"#utility.yul\":11630:11636   */\n      dup3\n        /* \"#utility.yul\":11619:11628   */\n      dup7\n        /* \"#utility.yul\":11615:11637   */\n      add\n        /* \"#utility.yul\":11584:11647   */\n      tag_145\n      jump\t// in\n    tag_303:\n        /* \"#utility.yul\":11574:11647   */\n      swap2\n      pop\n        /* \"#utility.yul\":11369:11657   */\n      pop\n        /* \"#utility.yul\":10830:11664   */\n      swap3\n      pop\n      swap3\n      swap1\n      pop\n      jump\t// out\n        /* \"#utility.yul\":11670:11760   */\n    tag_164:\n        /* \"#utility.yul\":11704:11711   */\n      0x00\n        /* \"#utility.yul\":11747:11752   */\n      dup2\n        /* \"#utility.yul\":11740:11753   */\n      iszero\n        /* \"#utility.yul\":11733:11754   */\n      iszero\n        /* \"#utility.yul\":11722:11754   */\n      swap1\n      pop\n        /* \"#utility.yul\":11670:11760   */\n      swap2\n      swap1\n      pop\n      jump\t// out\n        /* \"#utility.yul\":11766:11875   */\n    tag_165:\n        /* \"#utility.yul\":11847:11868   */\n      tag_306\n        /* \"#utility.yul\":11862:11867   */\n      dup2\n        /* \"#utility.yul\":11847:11868   */\n      tag_164\n      jump\t// in\n    tag_306:\n        /* \"#utility.yul\":11842:11845   */\n      dup3\n        /* \"#utility.yul\":11835:11869   */\n      mstore\n        /* \"#utility.yul\":11766:11875   */\n      pop\n      pop\n      jump\t// out\n        /* \"#utility.yul\":11881:12091   */\n    tag_27:\n        /* \"#utility.yul\":11968:11972   */\n      0x00\n        /* \"#utility.yul\":12006:12008   */\n      0x20\n        /* \"#utility.yul\":11995:12004   */\n      dup3\n        /* \"#utility.yul\":11991:12009   */\n      add\n        /* \"#utility.yul\":11983:12009   */\n      swap1\n      pop\n        /* \"#utility.yul\":12019:12084   */\n      tag_308\n        /* \"#utility.yul\":12081:12082   */\n      0x00\n        /* \"#utility.yul\":12070:12079   */\n      dup4\n        /* \"#utility.yul\":12066:12083   */\n      add\n        /* \"#utility.yul\":12057:12063   */\n      dup5\n        /* \"#utility.yul\":12019:12084   */\n      tag_165\n      jump\t// in\n    tag_308:\n        /* \"#utility.yul\":11881:12091   */\n      swap3\n      swap2\n      pop\n      pop\n      jump\t// out\n        /* \"#utility.yul\":12097:12606   */\n    tag_30:\n        /* \"#utility.yul\":12166:12172   */\n      0x00\n        /* \"#utility.yul\":12215:12217   */\n      0x20\n        /* \"#utility.yul\":12203:12212   */\n      dup3\n        /* \"#utility.yul\":12194:12201   */\n      dup5\n        /* \"#utility.yul\":12190:12213   */\n      sub\n        /* \"#utility.yul\":12186:12218   */\n      slt\n        /* \"#utility.yul\":12183:12302   */\n      iszero\n      tag_310\n      jumpi\n        /* \"#utility.yul\":12221:12300   */\n      tag_311\n      tag_134\n      jump\t// in\n    tag_311:\n        /* \"#utility.yul\":12183:12302   */\n    tag_310:\n        /* \"#utility.yul\":12369:12370   */\n      0x00\n        /* \"#utility.yul\":12358:12367   */\n      dup3\n        /* \"#utility.yul\":12354:12371   */\n      add\n        /* \"#utility.yul\":12341:12372   */\n      calldataload\n        /* \"#utility.yul\":12399:12417   */\n      0xffffffffffffffff\n        /* \"#utility.yul\":12391:12397   */\n      dup2\n        /* \"#utility.yul\":12388:12418   */\n      gt\n        /* \"#utility.yul\":12385:12502   */\n      iszero\n      tag_312\n      jumpi\n        /* \"#utility.yul\":12421:12500   */\n      tag_313\n      tag_135\n      jump\t// in\n    tag_313:\n        /* \"#utility.yul\":12385:12502   */\n    tag_312:\n        /* \"#utility.yul\":12526:12589   */\n      tag_314\n        /* \"#utility.yul\":12581:12588   */\n      dup5\n        /* \"#utility.yul\":12572:12578   */\n      dup3\n        /* \"#utility.yul\":12561:12570   */\n      dup6\n        /* \"#utility.yul\":12557:12579   */\n      add\n        /* \"#utility.yul\":12526:12589   */\n      tag_145\n      jump\t// in\n    tag_314:\n        /* \"#utility.yul\":12516:12589   */\n      swap2\n      pop\n        /* \"#utility.yul\":12312:12599   */\n      pop\n        /* \"#utility.yul\":12097:12606   */\n      swap3\n      swap2\n      pop\n      pop\n      jump\t// out\n        /* \"#utility.yul\":12612:12760   */\n    tag_166:\n        /* \"#utility.yul\":12714:12725   */\n      0x00\n        /* \"#utility.yul\":12751:12754   */\n      dup2\n        /* \"#utility.yul\":12736:12754   */\n      swap1\n      pop\n        /* \"#utility.yul\":12612:12760   */\n      swap3\n      swap2\n      pop\n      pop\n      jump\t// out\n        /* \"#utility.yul\":12766:13156   */\n    tag_167:\n        /* \"#utility.yul\":12872:12875   */\n      0x00\n        /* \"#utility.yul\":12900:12939   */\n      tag_317\n        /* \"#utility.yul\":12933:12938   */\n      dup3\n        /* \"#utility.yul\":12900:12939   */\n      tag_150\n      jump\t// in\n    tag_317:\n        /* \"#utility.yul\":12955:13044   */\n      tag_318\n        /* \"#utility.yul\":13037:13043   */\n      dup2\n        /* \"#utility.yul\":13032:13035   */\n      dup6\n        /* \"#utility.yul\":12955:13044   */\n      tag_166\n      jump\t// in\n    tag_318:\n        /* \"#utility.yul\":12948:13044   */\n      swap4\n      pop\n        /* \"#utility.yul\":13053:13118   */\n      tag_319\n        /* \"#utility.yul\":13111:13117   */\n      dup2\n        /* \"#utility.yul\":13106:13109   */\n      dup6\n        /* \"#utility.yul\":13099:13103   */\n      0x20\n        /* \"#utility.yul\":13092:13097   */\n      dup7\n        /* \"#utility.yul\":13088:13104   */\n      add\n        /* \"#utility.yul\":13053:13118   */\n      tag_152\n      jump\t// in\n    tag_319:\n        /* \"#utility.yul\":13143:13149   */\n      dup1\n        /* \"#utility.yul\":13138:13141   */\n      dup5\n        /* \"#utility.yul\":13134:13150   */\n      add\n        /* \"#utility.yul\":13127:13150   */\n      swap2\n      pop\n        /* \"#utility.yul\":12876:13156   */\n      pop\n        /* \"#utility.yul\":12766:13156   */\n      swap3\n      swap2\n      pop\n      pop\n      jump\t// out\n        /* \"#utility.yul\":13162:13437   */\n    tag_37:\n        /* \"#utility.yul\":13294:13297   */\n      0x00\n        /* \"#utility.yul\":13316:13411   */\n      tag_321\n        /* \"#utility.yul\":13407:13410   */\n      dup3\n        /* \"#utility.yul\":13398:13404   */\n      dup5\n        /* \"#utility.yul\":13316:13411   */\n      tag_167\n      jump\t// in\n    tag_321:\n        /* \"#utility.yul\":13309:13411   */\n      swap2\n      pop\n        /* \"#utility.yul\":13428:13431   */\n      dup2\n        /* \"#utility.yul\":13421:13431   */\n      swap1\n      pop\n        /* \"#utility.yul\":13162:13437   */\n      swap3\n      swap2\n      pop\n      pop\n      jump\t// out\n        /* \"#utility.yul\":13443:13623   */\n    tag_168:\n        /* \"#utility.yul\":13491:13568   */\n      0x4e487b7100000000000000000000000000000000000000000000000000000000\n        /* \"#utility.yul\":13488:13489   */\n      0x00\n        /* \"#utility.yul\":13481:13569   */\n      mstore\n        /* \"#utility.yul\":13588:13592   */\n      0x22\n        /* \"#utility.yul\":13585:13586   */\n      0x04\n        /* \"#utility.yul\":13578:13593   */\n      mstore\n        /* \"#utility.yul\":13612:13616   */\n      0x24\n        /* \"#utility.yul\":13609:13610   */\n      0x00\n        /* \"#utility.yul\":13602:13617   */\n      revert\n        /* \"#utility.yul\":13629:13949   */\n    tag_39:\n        /* \"#utility.yul\":13673:13679   */\n      0x00\n        /* \"#utility.yul\":13710:13711   */\n      0x02\n        /* \"#utility.yul\":13704:13708   */\n      dup3\n        /* \"#utility.yul\":13700:13712   */\n      div\n        /* \"#utility.yul\":13690:13712   */\n      swap1\n      pop\n        /* \"#utility.yul\":13757:13758   */\n      0x01\n        /* \"#utility.yul\":13751:13755   */\n      dup3\n        /* \"#utility.yul\":13747:13759   */\n      and\n        /* \"#utility.yul\":13778:13796   */\n      dup1\n        /* \"#utility.yul\":13768:13849   */\n      tag_324\n      jumpi\n        /* \"#utility.yul\":13834:13838   */\n      0x7f\n        /* \"#utility.yul\":13826:13832   */\n      dup3\n        /* \"#utility.yul\":13822:13839   */\n      and\n        /* \"#utility.yul\":13812:13839   */\n      swap2\n      pop\n        /* \"#utility.yul\":13768:13849   */\n    tag_324:\n        /* \"#utility.yul\":13896:13898   */\n      0x20\n        /* \"#utility.yul\":13888:13894   */\n      dup3\n        /* \"#utility.yul\":13885:13899   */\n      lt\n        /* \"#utility.yul\":13865:13883   */\n      dup2\n        /* \"#utility.yul\":13862:13900   */\n      sub\n        /* \"#utility.yul\":13859:13943   */\n      tag_325\n      jumpi\n        /* \"#utility.yul\":13915:13933   */\n      tag_326\n      tag_168\n      jump\t// in\n    tag_326:\n        /* \"#utility.yul\":13859:13943   */\n    tag_325:\n        /* \"#utility.yul\":13680:13949   */\n      pop\n        /* \"#utility.yul\":13629:13949   */\n      swap2\n      swap1\n      pop\n      jump\t// out\n        /* \"#utility.yul\":13955:14096   */\n    tag_169:\n        /* \"#utility.yul\":14004:14008   */\n      0x00\n        /* \"#utility.yul\":14027:14030   */\n      dup2\n        /* \"#utility.yul\":14019:14030   */\n      swap1\n      pop\n        /* \"#utility.yul\":14050:14053   */\n      dup2\n        /* \"#utility.yul\":14047:14048   */\n      0x00\n        /* \"#utility.yul\":14040:14054   */\n      mstore\n        /* \"#utility.yul\":14084:14088   */\n      0x20\n        /* \"#utility.yul\":14081:14082   */\n      0x00\n        /* \"#utility.yul\":14071:14089   */\n      keccak256\n        /* \"#utility.yul\":14063:14089   */\n      swap1\n      pop\n        /* \"#utility.yul\":13955:14096   */\n      swap2\n      swap1\n      pop\n      jump\t// out\n        /* \"#utility.yul\":14102:14195   */\n    tag_170:\n        /* \"#utility.yul\":14139:14145   */\n      0x00\n        /* \"#utility.yul\":14186:14188   */\n      0x20\n        /* \"#utility.yul\":14181:14183   */\n      0x1f\n        /* \"#utility.yul\":14174:14179   */\n      dup4\n        /* \"#utility.yul\":14170:14184   */\n      add\n        /* \"#utility.yul\":14166:14189   */\n      div\n        /* \"#utility.yul\":14156:14189   */\n      swap1\n      pop\n        /* \"#utility.yul\":14102:14195   */\n      swap2\n      swap1\n      pop\n      jump\t// out\n        /* \"#utility.yul\":14201:14308   */\n    tag_171:\n        /* \"#utility.yul\":14245:14253   */\n      0x00\n        /* \"#utility.yul\":14295:14300   */\n      dup3\n        /* \"#utility.yul\":14289:14293   */\n      dup3\n        /* \"#utility.yul\":14285:14301   */\n      shl\n        /* \"#utility.yul\":14264:14301   */\n      swap1\n      pop\n        /* \"#utility.yul\":14201:14308   */\n      swap3\n      swap2\n      pop\n      pop\n      jump\t// out\n        /* \"#utility.yul\":14314:14707   */\n    tag_172:\n        /* \"#utility.yul\":14383:14389   */\n      0x00\n        /* \"#utility.yul\":14433:14434   */\n      0x08\n        /* \"#utility.yul\":14421:14431   */\n      dup4\n        /* \"#utility.yul\":14417:14435   */\n      mul\n        /* \"#utility.yul\":14456:14553   */\n      tag_331\n        /* \"#utility.yul\":14486:14552   */\n      0xffffffffffffffffffffffffffffffffffffffffffffffffffffffffffffffff\n        /* \"#utility.yul\":14475:14484   */\n      dup3\n        /* \"#utility.yul\":14456:14553   */\n      tag_171\n      jump\t// in\n    tag_331:\n        /* \"#utility.yul\":14574:14613   */\n      tag_332\n        /* \"#utility.yul\":14604:14612   */\n      dup7\n        /* \"#utility.yul\":14593:14602   */\n      dup4\n        /* \"#utility.yul\":14574:14613   */\n      tag_171\n      jump\t// in\n    tag_332:\n        /* \"#utility.yul\":14562:14613   */\n      swap6\n      pop\n        /* \"#utility.yul\":14646:14650   */\n      dup1\n        /* \"#utility.yul\":14642:14651   */\n      not\n        /* \"#utility.yul\":14635:14640   */\n      dup5\n        /* \"#utility.yul\":14631:14652   */\n      and\n        /* \"#utility.yul\":14622:14652   */\n      swap4\n      pop\n        /* \"#utility.yul\":14695:14699   */\n      dup1\n        /* \"#utility.yul\":14685:14693   */\n      dup7\n        /* \"#utility.yul\":14681:14700   */\n      and\n        /* \"#utility.yul\":14674:14679   */\n      dup5\n        /* \"#utility.yul\":14671:14701   */\n      or\n        /* \"#utility.yul\":14661:14701   */\n      swap3\n      pop\n        /* \"#utility.yul\":14390:14707   */\n      pop\n      pop\n        /* \"#utility.yul\":14314:14707   */\n      swap4\n      swap3\n      pop\n      pop\n      pop\n      jump\t// out\n        /* \"#utility.yul\":14713:14790   */\n    tag_173:\n        /* \"#utility.yul\":14750:14757   */\n      0x00\n        /* \"#utility.yul\":14779:14784   */\n      dup2\n        /* \"#utility.yul\":14768:14784   */\n      swap1\n      pop\n        /* \"#utility.yul\":14713:14790   */\n      swap2\n      swap1\n      pop\n      jump\t// out\n        /* \"#utility.yul\":14796:14856   */\n    tag_174:\n        /* \"#utility.yul\":14824:14827   */\n      0x00\n        /* \"#utility.yul\":14845:14850   */\n      dup2\n        /* \"#utility.yul\":14838:14850   */\n      swap1\n      pop\n        /* \"#utility.yul\":14796:14856   */\n      swap2\n      swap1\n      pop\n      jump\t// out\n        /* \"#utility.yul\":14862:15004   */\n    tag_175:\n        /* \"#utility.yul\":14912:14921   */\n      0x00\n        /* \"#utility.yul\":14945:14998   */\n      tag_336\n        /* \"#utility.yul\":14963:14997   */\n      tag_337\n        /* \"#utility.yul\":14972:14996   */\n      tag_338\n        /* \"#utility.yul\":14990:14995   */\n      dup5\n        /* \"#utility.yul\":14972:14996   */\n      tag_173\n      jump\t// in\n    tag_338:\n        /* \"#utility.yul\":14963:14997   */\n      tag_174\n      jump\t// in\n    tag_337:\n        /* \"#utility.yul\":14945:14998   */\n      tag_173\n      jump\t// in\n    tag_336:\n        /* \"#utility.yul\":14932:14998   */\n      swap1\n      pop\n        /* \"#utility.yul\":14862:15004   */\n      swap2\n      swap1\n      pop\n      jump\t// out\n        /* \"#utility.yul\":15010:15085   */\n    tag_176:\n        /* \"#utility.yul\":15053:15056   */\n      0x00\n        /* \"#utility.yul\":15074:15079   */\n      dup2\n        /* \"#utility.yul\":15067:15079   */\n      swap1\n      pop\n        /* \"#utility.yul\":15010:15085   */\n      swap2\n      swap1\n      pop\n      jump\t// out\n        /* \"#utility.yul\":15091:15360   */\n    tag_177:\n        /* \"#utility.yul\":15201:15240   */\n      tag_341\n        /* \"#utility.yul\":15232:15239   */\n      dup4\n        /* \"#utility.yul\":15201:15240   */\n      tag_175\n      jump\t// in\n    tag_341:\n        /* \"#utility.yul\":15262:15353   */\n      tag_342\n        /* \"#utility.yul\":15311:15352   */\n      tag_343\n        /* \"#utility.yul\":15335:15351   */\n      dup3\n        /* \"#utility.yul\":15311:15352   */\n      tag_176\n      jump\t// in\n    tag_343:\n        /* \"#utility.yul\":15303:15309   */\n      dup5\n        /* \"#utility.yul\":15296:15300   */\n      dup5\n        /* \"#utility.yul\":15290:15301   */\n      sload\n        /* \"#utility.yul\":15262:15353   */\n      tag_172\n      jump\t// in\n    tag_342:\n        /* \"#utility.yul\":15256:15260   */\n      dup3\n        /* \"#utility.yul\":15249:15354   */\n      sstore\n        /* \"#utility.yul\":15167:15360   */\n      pop\n        /* \"#utility.yul\":15091:15360   */\n      pop\n      pop\n      pop\n      jump\t// out\n        /* \"#utility.yul\":15366:15439   */\n    tag_178:\n        /* \"#utility.yul\":15411:15414   */\n      0x00\n        /* \"#utility.yul\":15366:15439   */\n      swap1\n      jump\t// out\n        /* \"#utility.yul\":15445:15634   */\n    tag_179:\n        /* \"#utility.yul\":15522:15554   */\n      tag_346\n      tag_178\n      jump\t// in\n    tag_346:\n        /* \"#utility.yul\":15563:15628   */\n      tag_347\n        /* \"#utility.yul\":15621:15627   */\n      dup2\n        /* \"#utility.yul\":15613:15619   */\n      dup5\n        /* \"#utility.yul\":15607:15611   */\n      dup5\n        /* \"#utility.yul\":15563:15628   */\n      tag_177\n      jump\t// in\n    tag_347:\n        /* \"#utility.yul\":15498:15634   */\n      pop\n        /* \"#utility.yul\":15445:15634   */\n      pop\n      pop\n      jump\t// out\n        /* \"#utility.yul\":15640:15826   */\n    tag_180:\n        /* \"#utility.yul\":15700:15820   */\n    tag_349:\n        /* \"#utility.yul\":15717:15720   */\n      dup2\n        /* \"#utility.yul\":15710:15715   */\n      dup2\n        /* \"#utility.yul\":15707:15721   */\n      lt\n        /* \"#utility.yul\":15700:15820   */\n      iszero\n      tag_351\n      jumpi\n        /* \"#utility.yul\":15771:15810   */\n      tag_352\n        /* \"#utility.yul\":15808:15809   */\n      0x00\n        /* \"#utility.yul\":15801:15806   */\n      dup3\n        /* \"#utility.yul\":15771:15810   */\n      tag_179\n      jump\t// in\n    tag_352:\n        /* \"#utility.yul\":15744:15745   */\n      0x01\n        /* \"#utility.yul\":15737:15742   */\n      dup2\n        /* \"#utility.yul\":15733:15746   */\n      add\n        /* \"#utility.yul\":15724:15746   */\n      swap1\n      pop\n        /* \"#utility.yul\":15700:15820   */\n      jump(tag_349)\n    tag_351:\n        /* \"#utility.yul\":15640:15826   */\n      pop\n      pop\n      jump\t// out\n        /* \"#utility.yul\":15832:16375   */\n    tag_181:\n        /* \"#utility.yul\":15933:15935   */\n      0x1f\n        /* \"#utility.yul\":15928:15931   */\n      dup3\n        /* \"#utility.yul\":15925:15936   */\n      gt\n        /* \"#utility.yul\":15922:16368   */\n      iszero\n      tag_354\n      jumpi\n        /* \"#utility.yul\":15967:16005   */\n      tag_355\n        /* \"#utility.yul\":15999:16004   */\n      dup2\n        /* \"#utility.yul\":15967:16005   */\n      tag_169\n      jump\t// in\n    tag_355:\n        /* \"#utility.yul\":16051:16080   */\n      tag_356\n        /* \"#utility.yul\":16069:16079   */\n      dup5\n        /* \"#utility.yul\":16051:16080   */\n      tag_170\n      jump\t// in\n    tag_356:\n        /* \"#utility.yul\":16041:16049   */\n      dup2\n        /* \"#utility.yul\":16037:16081   */\n      add\n        /* \"#utility.yul\":16234:16236   */\n      0x20\n        /* \"#utility.yul\":16222:16232   */\n      dup6\n        /* \"#utility.yul\":16219:16237   */\n      lt\n        /* \"#utility.yul\":16216:16265   */\n      iszero\n      tag_357\n      jumpi\n        /* \"#utility.yul\":16255:16263   */\n      dup2\n        /* \"#utility.yul\":16240:16263   */\n      swap1\n      pop\n        /* \"#utility.yul\":16216:16265   */\n    tag_357:\n        /* \"#utility.yul\":16278:16358   */\n      tag_358\n        /* \"#utility.yul\":16334:16356   */\n      tag_359\n        /* \"#utility.yul\":16352:16355   */\n      dup6\n        /* \"#utility.yul\":16334:16356   */\n      tag_170\n      jump\t// in\n    tag_359:\n        /* \"#utility.yul\":16324:16332   */\n      dup4\n        /* \"#utility.yul\":16320:16357   */\n      add\n        /* \"#utility.yul\":16307:16318   */\n      dup3\n        /* \"#utility.yul\":16278:16358   */\n      tag_180\n      jump\t// in\n    tag_358:\n        /* \"#utility.yul\":15937:16368   */\n      pop\n      pop\n        /* \"#utility.yul\":15922:16368   */\n    tag_354:\n        /* \"#utility.yul\":15832:16375   */\n      pop\n      pop\n      pop\n      jump\t// out\n        /* \"#utility.yul\":16381:16498   */\n    tag_182:\n        /* \"#utility.yul\":16435:16443   */\n      0x00\n        /* \"#utility.yul\":16485:16490   */\n      dup3\n        /* \"#utility.yul\":16479:16483   */\n      dup3\n        /* \"#utility.yul\":16475:16491   */\n      shr\n        /* \"#utility.yul\":16454:16491   */\n      swap1\n      pop\n        /* \"#utility.yul\":16381:16498   */\n      swap3\n      swap2\n      pop\n      pop\n      jump\t// out\n        /* \"#utility.yul\":16504:16673   */\n    tag_183:\n        /* \"#utility.yul\":16548:16554   */\n      0x00\n        /* \"#utility.yul\":16581:16632   */\n      tag_362\n        /* \"#utility.yul\":16629:16630   */\n      0x00\n        /* \"#utility.yul\":16625:16631   */\n      not\n        /* \"#utility.yul\":16617:16622   */\n      dup5\n        /* \"#utility.yul\":16614:16615   */\n      0x08\n        /* \"#utility.yul\":16610:16623   */\n      mul\n        /* \"#utility.yul\":16581:16632   */\n      tag_182\n      jump\t// in\n    tag_362:\n        /* \"#utility.yul\":16577:16633   */\n      not\n        /* \"#utility.yul\":16662:16666   */\n      dup1\n        /* \"#utility.yul\":16656:16660   */\n      dup4\n        /* \"#utility.yul\":16652:16667   */\n      and\n        /* \"#utility.yul\":16642:16667   */\n      swap2\n      pop\n        /* \"#utility.yul\":16555:16673   */\n      pop\n        /* \"#utility.yul\":16504:16673   */\n      swap3\n      swap2\n      pop\n      pop\n      jump\t// out\n        /* \"#utility.yul\":16678:16973   */\n    tag_184:\n        /* \"#utility.yul\":16754:16758   */\n      0x00\n        /* \"#utility.yul\":16900:16929   */\n      tag_364\n        /* \"#utility.yul\":16925:16928   */\n      dup4\n        /* \"#utility.yul\":16919:16923   */\n      dup4\n        /* \"#utility.yul\":16900:16929   */\n      tag_183\n      jump\t// in\n    tag_364:\n        /* \"#utility.yul\":16892:16929   */\n      swap2\n      pop\n        /* \"#utility.yul\":16962:16965   */\n      dup3\n        /* \"#utility.yul\":16959:16960   */\n      0x02\n        /* \"#utility.yul\":16955:16966   */\n      mul\n        /* \"#utility.yul\":16949:16953   */\n      dup3\n        /* \"#utility.yul\":16946:16967   */\n      or\n        /* \"#utility.yul\":16938:16967   */\n      swap1\n      pop\n        /* \"#utility.yul\":16678:16973   */\n      swap3\n      swap2\n      pop\n      pop\n      jump\t// out\n        /* \"#utility.yul\":16978:18373   */\n    tag_60:\n        /* \"#utility.yul\":17095:17132   */\n      tag_366\n        /* \"#utility.yul\":17128:17131   */\n      dup3\n        /* \"#utility.yul\":17095:17132   */\n      tag_150\n      jump\t// in\n    tag_366:\n        /* \"#utility.yul\":17197:17215   */\n      0xffffffffffffffff\n        /* \"#utility.yul\":17189:17195   */\n      dup2\n        /* \"#utility.yul\":17186:17216   */\n      gt\n        /* \"#utility.yul\":17183:17239   */\n      iszero\n      tag_367\n      jumpi\n        /* \"#utility.yul\":17219:17237   */\n      tag_368\n      tag_139\n      jump\t// in\n    tag_368:\n        /* \"#utility.yul\":17183:17239   */\n    tag_367:\n        /* \"#utility.yul\":17263:17301   */\n      tag_369\n        /* \"#utility.yul\":17295:17299   */\n      dup3\n        /* \"#utility.yul\":17289:17300   */\n      sload\n        /* \"#utility.yul\":17263:17301   */\n      tag_39\n      jump\t// in\n    tag_369:\n        /* \"#utility.yul\":17348:17415   */\n      tag_370\n        /* \"#utility.yul\":17408:17414   */\n      dup3\n        /* \"#utility.yul\":17400:17406   */\n      dup3\n        /* \"#utility.yul\":17394:17398   */\n      dup6\n        /* \"#utility.yul\":17348:17415   */\n      tag_181\n      jump\t// in\n    tag_370:\n        /* \"#utility.yul\":17442:17443   */\n      0x00\n        /* \"#utility.yul\":17466:17470   */\n      0x20\n        /* \"#utility.yul\":17453:17470   */\n      swap1\n      pop\n        /* \"#utility.yul\":17498:17500   */\n      0x1f\n        /* \"#utility.yul\":17490:17496   */\n      dup4\n        /* \"#utility.yul\":17487:17501   */\n      gt\n        /* \"#utility.yul\":17515:17516   */\n      0x01\n        /* \"#utility.yul\":17510:18128   */\n      dup2\n      eq\n      tag_372\n      jumpi\n        /* \"#utility.yul\":18172:18173   */\n      0x00\n        /* \"#utility.yul\":18189:18195   */\n      dup5\n        /* \"#utility.yul\":18186:18263   */\n      iszero\n      tag_373\n      jumpi\n        /* \"#utility.yul\":18238:18247   */\n      dup3\n        /* \"#utility.yul\":18233:18236   */\n      dup8\n        /* \"#utility.yul\":18229:18248   */\n      add\n        /* \"#utility.yul\":18223:18249   */\n      mload\n        /* \"#utility.yul\":18214:18249   */\n      swap1\n      pop\n        /* \"#utility.yul\":18186:18263   */\n    tag_373:\n        /* \"#utility.yul\":18289:18356   */\n      tag_374\n        /* \"#utility.yul\":18349:18355   */\n      dup6\n        /* \"#utility.yul\":18342:18347   */\n      dup3\n        /* \"#utility.yul\":18289:18356   */\n      tag_184\n      jump\t// in\n    tag_374:\n        /* \"#utility.yul\":18283:18287   */\n      dup7\n        /* \"#utility.yul\":18276:18357   */\n      sstore\n        /* \"#utility.yul\":18145:18367   */\n      pop\n        /* \"#utility.yul\":17480:18367   */\n      jump(tag_371)\n        /* \"#utility.yul\":17510:18128   */\n    tag_372:\n        /* \"#utility.yul\":17562:17566   */\n      0x1f\n        /* \"#utility.yul\":17558:17567   */\n      not\n        /* \"#utility.yul\":17550:17556   */\n      dup5\n        /* \"#utility.yul\":17546:17568   */\n      and\n        /* \"#utility.yul\":17596:17633   */\n      tag_375\n        /* \"#utility.yul\":17628:17632   */\n      dup7\n        /* \"#utility.yul\":17596:17633   */\n      tag_169\n      jump\t// in\n    tag_375:\n        /* \"#utility.yul\":17655:17656   */\n      0x00\n        /* \"#utility.yul\":17669:17877   */\n    tag_376:\n        /* \"#utility.yul\":17683:17690   */\n      dup3\n        /* \"#utility.yul\":17680:17681   */\n      dup2\n        /* \"#utility.yul\":17677:17691   */\n      lt\n        /* \"#utility.yul\":17669:17877   */\n      iszero\n      tag_378\n      jumpi\n        /* \"#utility.yul\":17762:17771   */\n      dup5\n        /* \"#utility.yul\":17757:17760   */\n      dup10\n        /* \"#utility.yul\":17753:17772   */\n      add\n        /* \"#utility.yul\":17747:17773   */\n      mload\n        /* \"#utility.yul\":17739:17745   */\n      dup3\n        /* \"#utility.yul\":17732:17774   */\n      sstore\n        /* \"#utility.yul\":17813:17814   */\n      0x01\n        /* \"#utility.yul\":17805:17811   */\n      dup3\n        /* \"#utility.yul\":17801:17815   */\n      add\n        /* \"#utility.yul\":17791:17815   */\n      swap2\n      pop\n        /* \"#utility.yul\":17860:17862   */\n      0x20\n        /* \"#utility.yul\":17849:17858   */\n      dup6\n        /* \"#utility.yul\":17845:17863   */\n      add\n        /* \"#utility.yul\":17832:17863   */\n      swap5\n      pop\n        /* \"#utility.yul\":17706:17710   */\n      0x20\n        /* \"#utility.yul\":17703:17704   */\n      dup2\n        /* \"#utility.yul\":17699:17711   */\n      add\n        /* \"#utility.yul\":17694:17711   */\n      swap1\n      pop\n        /* \"#utility.yul\":17669:17877   */\n      jump(tag_376)\n    tag_378:\n        /* \"#utility.yul\":17905:17911   */\n      dup7\n        /* \"#utility.yul\":17896:17903   */\n      dup4\n        /* \"#utility.yul\":17893:17912   */\n      lt\n        /* \"#utility.yul\":17890:18069   */\n      iszero\n      tag_379\n      jumpi\n        /* \"#utility.yul\":17963:17972   */\n      dup5\n        /* \"#utility.yul\":17958:17961   */\n      dup10\n        /* \"#utility.yul\":17954:17973   */\n      add\n        /* \"#utility.yul\":17948:17974   */\n      mload\n        /* \"#utility.yul\":18006:18054   */\n      tag_380\n        /* \"#utility.yul\":18048:18052   */\n      0x1f\n        /* \"#utility.yul\":18040:18046   */\n      dup10\n        /* \"#utility.yul\":18036:18053   */\n      and\n        /* \"#utility.yul\":18025:18034   */\n      dup3\n        /* \"#utility.yul\":18006:18054   */\n      tag_183\n      jump\t// in\n    tag_380:\n        /* \"#utility.yul\":17998:18004   */\n      dup4\n        /* \"#utility.yul\":17991:18055   */\n      sstore\n        /* \"#utility.yul\":17913:18069   */\n      pop\n        /* \"#utility.yul\":17890:18069   */\n    tag_379:\n        /* \"#utility.yul\":18115:18116   */\n      0x01\n        /* \"#utility.yul\":18111:18112   */\n      0x02\n        /* \"#utility.yul\":18103:18109   */\n      dup9\n        /* \"#utility.yul\":18099:18113   */\n      mul\n        /* \"#utility.yul\":18095:18117   */\n      add\n        /* \"#utility.yul\":18089:18093   */\n      dup9\n        /* \"#utility.yul\":18082:18118   */\n      sstore\n        /* \"#utility.yul\":17517:18128   */\n      pop\n      pop\n      pop\n        /* \"#utility.yul\":17480:18367   */\n    tag_371:\n      pop\n        /* \"#utility.yul\":17070:18373   */\n      pop\n      pop\n      pop\n        /* \"#utility.yul\":16978:18373   */\n      pop\n      pop\n      jump\t// out\n        /* \"#utility.yul\":18379:18559   */\n    tag_90:\n        /* \"#utility.yul\":18427:18504   */\n      0x4e487b7100000000000000000000000000000000000000000000000000000000\n        /* \"#utility.yul\":18424:18425   */\n      0x00\n        /* \"#utility.yul\":18417:18505   */\n      mstore\n        /* \"#utility.yul\":18524:18528   */\n      0x32\n        /* \"#utility.yul\":18521:18522   */\n      0x04\n        /* \"#utility.yul\":18514:18529   */\n      mstore\n        /* \"#utility.yul\":18548:18552   */\n      0x24\n        /* \"#utility.yul\":18545:18546   */\n      0x00\n        /* \"#utility.yul\":18538:18553   */\n      revert\n        /* \"#utility.yul\":18565:18745   */\n    tag_185:\n        /* \"#utility.yul\":18613:18690   */\n      0x4e487b7100000000000000000000000000000000000000000000000000000000\n        /* \"#utility.yul\":18610:18611   */\n      0x00\n        /* \"#utility.yul\":18603:18691   */\n      mstore\n        /* \"#utility.yul\":18710:18714   */\n      0x11\n        /* \"#utility.yul\":18707:18708   */\n      0x04\n        /* \"#utility.yul\":18700:18715   */\n      mstore\n        /* \"#utility.yul\":18734:18738   */\n      0x24\n        /* \"#utility.yul\":18731:18732   */\n      0x00\n        /* \"#utility.yul\":18724:18739   */\n      revert\n        /* \"#utility.yul\":18751:18984   */\n    tag_96:\n        /* \"#utility.yul\":18790:18793   */\n      0x00\n        /* \"#utility.yul\":18813:18837   */\n      tag_384\n        /* \"#utility.yul\":18831:18836   */\n      dup3\n        /* \"#utility.yul\":18813:18837   */\n      tag_173\n      jump\t// in\n    tag_384:\n        /* \"#utility.yul\":18804:18837   */\n      swap2\n      pop\n        /* \"#utility.yul\":18859:18925   */\n      0xffffffffffffffffffffffffffffffffffffffffffffffffffffffffffffffff\n        /* \"#utility.yul\":18852:18857   */\n      dup3\n        /* \"#utility.yul\":18849:18926   */\n      sub\n        /* \"#utility.yul\":18846:18949   */\n      tag_385\n      jumpi\n        /* \"#utility.yul\":18929:18947   */\n      tag_386\n      tag_185\n      jump\t// in\n    tag_386:\n        /* \"#utility.yul\":18846:18949   */\n    tag_385:\n        /* \"#utility.yul\":18976:18977   */\n      0x01\n        /* \"#utility.yul\":18969:18974   */\n      dup3\n        /* \"#utility.yul\":18965:18978   */\n      add\n        /* \"#utility.yul\":18958:18978   */\n      swap1\n      pop\n        /* \"#utility.yul\":18751:18984   */\n      swap2\n      swap1\n      pop\n      jump\t// out\n        /* \"#utility.yul\":18990:19104   */\n    tag_186:\n      pop\n      jump\t// out\n        /* \"#utility.yul\":19110:19510   */\n    tag_187:\n        /* \"#utility.yul\":19270:19273   */\n      0x00\n        /* \"#utility.yul\":19291:19375   */\n      tag_389\n        /* \"#utility.yul\":19373:19374   */\n      0x00\n        /* \"#utility.yul\":19368:19371   */\n      dup4\n        /* \"#utility.yul\":19291:19375   */\n      tag_166\n      jump\t// in\n    tag_389:\n        /* \"#utility.yul\":19284:19375   */\n      swap2\n      pop\n        /* \"#utility.yul\":19384:19477   */\n      tag_390\n        /* \"#utility.yul\":19473:19476   */\n      dup3\n        /* \"#utility.yul\":19384:19477   */\n      tag_186\n      jump\t// in\n    tag_390:\n        /* \"#utility.yul\":19502:19503   */\n      0x00\n        /* \"#utility.yul\":19497:19500   */\n      dup3\n        /* \"#utility.yul\":19493:19504   */\n      add\n        /* \"#utility.yul\":19486:19504   */\n      swap1\n      pop\n        /* \"#utility.yul\":19110:19510   */\n      swap2\n      swap1\n      pop\n      jump\t// out\n        /* \"#utility.yul\":19516:19897   */\n    tag_112:\n        /* \"#utility.yul\":19701:19704   */\n      0x00\n        /* \"#utility.yul\":19723:19871   */\n      tag_392\n        /* \"#utility.yul\":19867:19870   */\n      dup3\n        /* \"#utility.yul\":19723:19871   */\n      tag_187\n      jump\t// in\n    tag_392:\n        /* \"#utility.yul\":19716:19871   */\n      swap2\n      pop\n        /* \"#utility.yul\":19888:19891   */\n      dup2\n        /* \"#utility.yul\":19881:19891   */\n      swap1\n      pop\n        /* \"#utility.yul\":19516:19897   */\n      swap2\n      swap1\n      pop\n      jump\t// out\n        /* \"#utility.yul\":19927:20801   */\n    tag_188:\n        /* \"#utility.yul\":20030:20033   */\n      0x00\n        /* \"#utility.yul\":20067:20072   */\n      dup2\n        /* \"#utility.yul\":20061:20073   */\n      sload\n        /* \"#utility.yul\":20096:20132   */\n      tag_394\n        /* \"#utility.yul\":20122:20131   */\n      dup2\n        /* \"#utility.yul\":20096:20132   */\n      tag_39\n      jump\t// in\n    tag_394:\n        /* \"#utility.yul\":20148:20237   */\n      tag_395\n        /* \"#utility.yul\":20230:20236   */\n      dup2\n        /* \"#utility.yul\":20225:20228   */\n      dup7\n        /* \"#utility.yul\":20148:20237   */\n      tag_166\n      jump\t// in\n    tag_395:\n        /* \"#utility.yul\":20141:20237   */\n      swap5\n      pop\n        /* \"#utility.yul\":20268:20269   */\n      0x01\n        /* \"#utility.yul\":20257:20266   */\n      dup3\n        /* \"#utility.yul\":20253:20270   */\n      and\n        /* \"#utility.yul\":20284:20285   */\n      0x00\n        /* \"#utility.yul\":20279:20445   */\n      dup2\n      eq\n      tag_397\n      jumpi\n        /* \"#utility.yul\":20459:20460   */\n      0x01\n        /* \"#utility.yul\":20454:20795   */\n      dup2\n      eq\n      tag_398\n      jumpi\n        /* \"#utility.yul\":20246:20795   */\n      jump(tag_396)\n        /* \"#utility.yul\":20279:20445   */\n    tag_397:\n        /* \"#utility.yul\":20363:20367   */\n      0xff\n        /* \"#utility.yul\":20359:20368   */\n      not\n        /* \"#utility.yul\":20348:20357   */\n      dup4\n        /* \"#utility.yul\":20344:20369   */\n      and\n        /* \"#utility.yul\":20339:20342   */\n      dup7\n        /* \"#utility.yul\":20332:20370   */\n      mstore\n        /* \"#utility.yul\":20425:20431   */\n      dup2\n        /* \"#utility.yul\":20418:20432   */\n      iszero\n        /* \"#utility.yul\":20411:20433   */\n      iszero\n        /* \"#utility.yul\":20403:20409   */\n      dup3\n        /* \"#utility.yul\":20399:20434   */\n      mul\n        /* \"#utility.yul\":20394:20397   */\n      dup7\n        /* \"#utility.yul\":20390:20435   */\n      add\n        /* \"#utility.yul\":20383:20435   */\n      swap4\n      pop\n        /* \"#utility.yul\":20279:20445   */\n      jump(tag_396)\n        /* \"#utility.yul\":20454:20795   */\n    tag_398:\n        /* \"#utility.yul\":20521:20559   */\n      tag_399\n        /* \"#utility.yul\":20553:20558   */\n      dup6\n        /* \"#utility.yul\":20521:20559   */\n      tag_169\n      jump\t// in\n    tag_399:\n        /* \"#utility.yul\":20581:20582   */\n      0x00\n        /* \"#utility.yul\":20595:20749   */\n    tag_400:\n        /* \"#utility.yul\":20609:20615   */\n      dup4\n        /* \"#utility.yul\":20606:20607   */\n      dup2\n        /* \"#utility.yul\":20603:20616   */\n      lt\n        /* \"#utility.yul\":20595:20749   */\n      iszero\n      tag_402\n      jumpi\n        /* \"#utility.yul\":20683:20690   */\n      dup2\n        /* \"#utility.yul\":20677:20691   */\n      sload\n        /* \"#utility.yul\":20673:20674   */\n      dup2\n        /* \"#utility.yul\":20668:20671   */\n      dup10\n        /* \"#utility.yul\":20664:20675   */\n      add\n        /* \"#utility.yul\":20657:20692   */\n      mstore\n        /* \"#utility.yul\":20733:20734   */\n      0x01\n        /* \"#utility.yul\":20724:20731   */\n      dup3\n        /* \"#utility.yul\":20720:20735   */\n      add\n        /* \"#utility.yul\":20709:20735   */\n      swap2\n      pop\n        /* \"#utility.yul\":20631:20635   */\n      0x20\n        /* \"#utility.yul\":20628:20629   */\n      dup2\n        /* \"#utility.yul\":20624:20636   */\n      add\n        /* \"#utility.yul\":20619:20636   */\n      swap1\n      pop\n        /* \"#utility.yul\":20595:20749   */\n      jump(tag_400)\n    tag_402:\n        /* \"#utility.yul\":20778:20784   */\n      dup4\n        /* \"#utility.yul\":20773:20776   */\n      dup9\n        /* \"#utility.yul\":20769:20785   */\n      add\n        /* \"#utility.yul\":20762:20785   */\n      swap6\n      pop\n        /* \"#utility.yul\":20461:20795   */\n      pop\n      pop\n        /* \"#utility.yul\":20246:20795   */\n    tag_396:\n      pop\n        /* \"#utility.yul\":20034:20801   */\n      pop\n      pop\n        /* \"#utility.yul\":19927:20801   */\n      swap3\n      swap2\n      pop\n      pop\n      jump\t// out\n        /* \"#utility.yul\":20807:21076   */\n    tag_115:\n        /* \"#utility.yul\":20936:20939   */\n      0x00\n        /* \"#utility.yul\":20958:21050   */\n      tag_404\n        /* \"#utility.yul\":21046:21049   */\n      dup3\n        /* \"#utility.yul\":21037:21043   */\n      dup5\n        /* \"#utility.yul\":20958:21050   */\n      tag_188\n      jump\t// in\n    tag_404:\n        /* \"#utility.yul\":20951:21050   */\n      swap2\n      pop\n        /* \"#utility.yul\":21067:21070   */\n      dup2\n        /* \"#utility.yul\":21060:21070   */\n      swap1\n      pop\n        /* \"#utility.yul\":20807:21076   */\n      swap3\n      swap2\n      pop\n      pop\n      jump\t// out\n\n    auxdata: 0xa264697066735822122078b4537e7ef997a3b0e5998577869cc806b347bdf05ed8763b3dee6235a52e2364736f6c63430008120033\n}\n",
				"bytecode": {
					"linkReferences": {},
					"object": "608060405234801561001057600080fd5b50336000806101000a81548173ffffffffffffffffffffffffffffffffffffffff021916908373ffffffffffffffffffffffffffffffffffffffff16021790555061145f806100606000396000f3fe608060405234801561001057600080fd5b50600436106100575760003560e01c806351f40dd61461005c57806363c60bd51461008c578063893d20e8146100a8578063bed34bba146100c6578063fcf84582146100f6575b600080fd5b61007660048036038101906100719190610b6f565b610126565b6040516100839190610d86565b60405180910390f35b6100a660048036038101906100a19190610da8565b61064b565b005b6100b06106c9565b6040516100bd9190610e61565b60405180910390f35b6100e060048036038101906100db9190610e7c565b6106f2565b6040516100ed9190610f0f565b60405180910390f35b610110600480360381019061010b9190610f2a565b6107c0565b60405161011d9190610f0f565b60405180910390f35b61012e610834565b60006002846040516101409190610faf565b908152602001604051809103902060405180606001604052908160008201805461016990610ff5565b80601f016020809104026020016040519081016040528092919081815260200182805461019590610ff5565b80156101e25780601f106101b7576101008083540402835291602001916101e2565b820191906000526020600020905b8154815290600101906020018083116101c557829003601f168201915b505050505081526020016001820180546101fb90610ff5565b80601f016020809104026020016040519081016040528092919081815260200182805461022790610ff5565b80156102745780601f1061024957610100808354040283529160200191610274565b820191906000526020600020905b81548152906001019060200180831161025757829003601f168201915b5050505050815260200160028201805480602002602001604051908101604052809291908181526020016000905b8282101561034e5783829060005260206000200180546102c190610ff5565b80601f01602080910402602001604051908101604052809291908181526020018280546102ed90610ff5565b801561033a5780601f1061030f5761010080835404028352916020019161033a565b820191906000526020600020905b81548152906001019060200180831161031d57829003601f168201915b5050505050815260200190600101906102a2565b5050505081525050905060008160400151511461036e5780915050610645565b6040518060600160405280604051806020016040528060008152508152602001604051806020016040528060008152508152602001848152506002856040516103b79190610faf565b908152602001604051809103902060008201518160000190816103da91906111dc565b5060208201518160010190816103f091906111dc565b50604082015181600201908051906020019061040d929190610855565b5090505061041b838561064b565b60028460405161042b9190610faf565b908152602001604051809103902060405180606001604052908160008201805461045490610ff5565b80601f016020809104026020016040519081016040528092919081815260200182805461048090610ff5565b80156104cd5780601f106104a2576101008083540402835291602001916104cd565b820191906000526020600020905b8154815290600101906020018083116104b057829003601f168201915b505050505081526020016001820180546104e690610ff5565b80601f016020809104026020016040519081016040528092919081815260200182805461051290610ff5565b801561055f5780601f106105345761010080835404028352916020019161055f565b820191906000526020600020905b81548152906001019060200180831161054257829003601f168201915b5050505050815260200160028201805480602002602001604051908101604052809291908181526020016000905b828210156106395783829060005260206000200180546105ac90610ff5565b80601f01602080910402602001604051908101604052809291908181526020018280546105d890610ff5565b80156106255780601f106105fa57610100808354040283529160200191610625565b820191906000526020600020905b81548152906001019060200180831161060857829003601f168201915b50505050508152602001906001019061058d565b50505050815250509150505b92915050565b60005b82518110156106c457600083828151811061066c5761066b6112ae565b5b6020026020010151905061067f816107c0565b6106b057826005826040516106949190610faf565b908152602001604051809103902090816106ae91906111dc565b505b5080806106bc9061130c565b91505061064e565b505050565b60008060009054906101000a900473ffffffffffffffffffffffffffffffffffffffff16905090565b6000815183511461070657600090506107ba565b60005b83518110156107b457828181518110610725576107246112ae565b5b602001015160f81c60f81b7effffffffffffffffffffffffffffffffffffffffffffffffffffffffffffff1916848281518110610765576107646112ae565b5b602001015160f81c60f81b7effffffffffffffffffffffffffffffffffffffffffffffffffffffffffffff1916146107a15760009150506107ba565b80806107ac9061130c565b915050610709565b50600190505b92915050565b60006040516020016107d19061137a565b604051602081830303815290604052805190602001206005836040516107f79190610faf565b90815260200160405180910390206040516020016108159190611412565b6040516020818303038152906040528051906020012014159050919050565b60405180606001604052806060815260200160608152602001606081525090565b82805482825590600052602060002090810192821561089d579160200282015b8281111561089c57825182908161088c91906111dc565b5091602001919060010190610875565b5b5090506108aa91906108ae565b5090565b5b808211156108ce57600081816108c591906108d2565b506001016108af565b5090565b5080546108de90610ff5565b6000825580601f106108f0575061090f565b601f01602090049060005260206000209081019061090e9190610912565b5b50565b5b8082111561092b576000816000905550600101610913565b5090565b6000604051905090565b600080fd5b600080fd5b600080fd5b600080fd5b6000601f19601f8301169050919050565b7f4e487b7100000000000000000000000000000000000000000000000000000000600052604160045260246000fd5b6109968261094d565b810181811067ffffffffffffffff821117156109b5576109b461095e565b5b80604052505050565b60006109c861092f565b90506109d4828261098d565b919050565b600067ffffffffffffffff8211156109f4576109f361095e565b5b6109fd8261094d565b9050602081019050919050565b82818337600083830152505050565b6000610a2c610a27846109d9565b6109be565b905082815260208101848484011115610a4857610a47610948565b5b610a53848285610a0a565b509392505050565b600082601f830112610a7057610a6f610943565b5b8135610a80848260208601610a19565b91505092915050565b600067ffffffffffffffff821115610aa457610aa361095e565b5b602082029050602081019050919050565b600080fd5b6000610acd610ac884610a89565b6109be565b90508083825260208201905060208402830185811115610af057610aef610ab5565b5b835b81811015610b3757803567ffffffffffffffff811115610b1557610b14610943565b5b808601610b228982610a5b565b85526020850194505050602081019050610af2565b5050509392505050565b600082601f830112610b5657610b55610943565b5b8135610b66848260208601610aba565b91505092915050565b60008060408385031215610b8657610b85610939565b5b600083013567ffffffffffffffff811115610ba457610ba361093e565b5b610bb085828601610a5b565b925050602083013567ffffffffffffffff811115610bd157610bd061093e565b5b610bdd85828601610b41565b9150509250929050565b600081519050919050565b600082825260208201905092915050565b60005b83811015610c21578082015181840152602081019050610c06565b60008484015250505050565b6000610c3882610be7565b610c428185610bf2565b9350610c52818560208601610c03565b610c5b8161094d565b840191505092915050565b600081519050919050565b600082825260208201905092915050565b6000819050602082019050919050565b6000610c9e8383610c2d565b905092915050565b6000602082019050919050565b6000610cbe82610c66565b610cc88185610c71565b935083602082028501610cda85610c82565b8060005b85811015610d165784840389528151610cf78582610c92565b9450610d0283610ca6565b925060208a01995050600181019050610cde565b50829750879550505050505092915050565b60006060830160008301518482036000860152610d458282610c2d565b91505060208301518482036020860152610d5f8282610c2d565b91505060408301518482036040860152610d798282610cb3565b9150508091505092915050565b60006020820190508181036000830152610da08184610d28565b905092915050565b60008060408385031215610dbf57610dbe610939565b5b600083013567ffffffffffffffff811115610ddd57610ddc61093e565b5b610de985828601610b41565b925050602083013567ffffffffffffffff811115610e0a57610e0961093e565b5b610e1685828601610a5b565b9150509250929050565b600073ffffffffffffffffffffffffffffffffffffffff82169050919050565b6000610e4b82610e20565b9050919050565b610e5b81610e40565b82525050565b6000602082019050610e766000830184610e52565b92915050565b60008060408385031215610e9357610e92610939565b5b600083013567ffffffffffffffff811115610eb157610eb061093e565b5b610ebd85828601610a5b565b925050602083013567ffffffffffffffff811115610ede57610edd61093e565b5b610eea85828601610a5b565b9150509250929050565b60008115159050919050565b610f0981610ef4565b82525050565b6000602082019050610f246000830184610f00565b92915050565b600060208284031215610f4057610f3f610939565b5b600082013567ffffffffffffffff811115610f5e57610f5d61093e565b5b610f6a84828501610a5b565b91505092915050565b600081905092915050565b6000610f8982610be7565b610f938185610f73565b9350610fa3818560208601610c03565b80840191505092915050565b6000610fbb8284610f7e565b915081905092915050565b7f4e487b7100000000000000000000000000000000000000000000000000000000600052602260045260246000fd5b6000600282049050600182168061100d57607f821691505b6020821081036110205761101f610fc6565b5b50919050565b60008190508160005260206000209050919050565b60006020601f8301049050919050565b600082821b905092915050565b6000600883026110887fffffffffffffffffffffffffffffffffffffffffffffffffffffffffffffffff8261104b565b611092868361104b565b95508019841693508086168417925050509392505050565b6000819050919050565b6000819050919050565b60006110d96110d46110cf846110aa565b6110b4565b6110aa565b9050919050565b6000819050919050565b6110f3836110be565b6111076110ff826110e0565b848454611058565b825550505050565b600090565b61111c61110f565b6111278184846110ea565b505050565b5b8181101561114b57611140600082611114565b60018101905061112d565b5050565b601f8211156111905761116181611026565b61116a8461103b565b81016020851015611179578190505b61118d6111858561103b565b83018261112c565b50505b505050565b600082821c905092915050565b60006111b360001984600802611195565b1980831691505092915050565b60006111cc83836111a2565b9150826002028217905092915050565b6111e582610be7565b67ffffffffffffffff8111156111fe576111fd61095e565b5b6112088254610ff5565b61121382828561114f565b600060209050601f8311600181146112465760008415611234578287015190505b61123e85826111c0565b8655506112a6565b601f19841661125486611026565b60005b8281101561127c57848901518255600182019150602085019450602081019050611257565b868310156112995784890151611295601f8916826111a2565b8355505b6001600288020188555050505b505050505050565b7f4e487b7100000000000000000000000000000000000000000000000000000000600052603260045260246000fd5b7f4e487b7100000000000000000000000000000000000000000000000000000000600052601160045260246000fd5b6000611317826110aa565b91507fffffffffffffffffffffffffffffffffffffffffffffffffffffffffffffffff8203611349576113486112dd565b5b600182019050919050565b50565b6000611364600083610f73565b915061136f82611354565b600082019050919050565b600061138582611357565b9150819050919050565b6000815461139c81610ff5565b6113a68186610f73565b945060018216600081146113c157600181146113d657611409565b60ff1983168652811515820286019350611409565b6113df85611026565b60005b83811015611401578154818901526001820191506020810190506113e2565b838801955050505b50505092915050565b600061141e828461138f565b91508190509291505056fea264697066735822122078b4537e7ef997a3b0e5998577869cc806b347bdf05ed8763b3dee6235a52e2364736f6c63430008120033",
					"opcodes": "PUSH1 0x80 PUSH1 0x40 MSTORE CALLVALUE DUP1 ISZERO PUSH2 0x10 JUMPI PUSH1 0x0 DUP1 REVERT JUMPDEST POP CALLER PUSH1 0x0 DUP1 PUSH2 0x100 EXP DUP2 SLOAD DUP2 PUSH20 0xFFFFFFFFFFFFFFFFFFFFFFFFFFFFFFFFFFFFFFFF MUL NOT AND SWAP1 DUP4 PUSH20 0xFFFFFFFFFFFFFFFFFFFFFFFFFFFFFFFFFFFFFFFF AND MUL OR SWAP1 SSTORE POP PUSH2 0x145F DUP1 PUSH2 0x60 PUSH1 0x0 CODECOPY PUSH1 0x0 RETURN INVALID PUSH1 0x80 PUSH1 0x40 MSTORE CALLVALUE DUP1 ISZERO PUSH2 0x10 JUMPI PUSH1 0x0 DUP1 REVERT JUMPDEST POP PUSH1 0x4 CALLDATASIZE LT PUSH2 0x57 JUMPI PUSH1 0x0 CALLDATALOAD PUSH1 0xE0 SHR DUP1 PUSH4 0x51F40DD6 EQ PUSH2 0x5C JUMPI DUP1 PUSH4 0x63C60BD5 EQ PUSH2 0x8C JUMPI DUP1 PUSH4 0x893D20E8 EQ PUSH2 0xA8 JUMPI DUP1 PUSH4 0xBED34BBA EQ PUSH2 0xC6 JUMPI DUP1 PUSH4 0xFCF84582 EQ PUSH2 0xF6 JUMPI JUMPDEST PUSH1 0x0 DUP1 REVERT JUMPDEST PUSH2 0x76 PUSH1 0x4 DUP1 CALLDATASIZE SUB DUP2 ADD SWAP1 PUSH2 0x71 SWAP2 SWAP1 PUSH2 0xB6F JUMP JUMPDEST PUSH2 0x126 JUMP JUMPDEST PUSH1 0x40 MLOAD PUSH2 0x83 SWAP2 SWAP1 PUSH2 0xD86 JUMP JUMPDEST PUSH1 0x40 MLOAD DUP1 SWAP2 SUB SWAP1 RETURN JUMPDEST PUSH2 0xA6 PUSH1 0x4 DUP1 CALLDATASIZE SUB DUP2 ADD SWAP1 PUSH2 0xA1 SWAP2 SWAP1 PUSH2 0xDA8 JUMP JUMPDEST PUSH2 0x64B JUMP JUMPDEST STOP JUMPDEST PUSH2 0xB0 PUSH2 0x6C9 JUMP JUMPDEST PUSH1 0x40 MLOAD PUSH2 0xBD SWAP2 SWAP1 PUSH2 0xE61 JUMP JUMPDEST PUSH1 0x40 MLOAD DUP1 SWAP2 SUB SWAP1 RETURN JUMPDEST PUSH2 0xE0 PUSH1 0x4 DUP1 CALLDATASIZE SUB DUP2 ADD SWAP1 PUSH2 0xDB SWAP2 SWAP1 PUSH2 0xE7C JUMP JUMPDEST PUSH2 0x6F2 JUMP JUMPDEST PUSH1 0x40 MLOAD PUSH2 0xED SWAP2 SWAP1 PUSH2 0xF0F JUMP JUMPDEST PUSH1 0x40 MLOAD DUP1 SWAP2 SUB SWAP1 RETURN JUMPDEST PUSH2 0x110 PUSH1 0x4 DUP1 CALLDATASIZE SUB DUP2 ADD SWAP1 PUSH2 0x10B SWAP2 SWAP1 PUSH2 0xF2A JUMP JUMPDEST PUSH2 0x7C0 JUMP JUMPDEST PUSH1 0x40 MLOAD PUSH2 0x11D SWAP2 SWAP1 PUSH2 0xF0F JUMP JUMPDEST PUSH1 0x40 MLOAD DUP1 SWAP2 SUB SWAP1 RETURN JUMPDEST PUSH2 0x12E PUSH2 0x834 JUMP JUMPDEST PUSH1 0x0 PUSH1 0x2 DUP5 PUSH1 0x40 MLOAD PUSH2 0x140 SWAP2 SWAP1 PUSH2 0xFAF JUMP JUMPDEST SWAP1 DUP2 MSTORE PUSH1 0x20 ADD PUSH1 0x40 MLOAD DUP1 SWAP2 SUB SWAP1 KECCAK256 PUSH1 0x40 MLOAD DUP1 PUSH1 0x60 ADD PUSH1 0x40 MSTORE SWAP1 DUP2 PUSH1 0x0 DUP3 ADD DUP1 SLOAD PUSH2 0x169 SWAP1 PUSH2 0xFF5 JUMP JUMPDEST DUP1 PUSH1 0x1F ADD PUSH1 0x20 DUP1 SWAP2 DIV MUL PUSH1 0x20 ADD PUSH1 0x40 MLOAD SWAP1 DUP2 ADD PUSH1 0x40 MSTORE DUP1 SWAP3 SWAP2 SWAP1 DUP2 DUP2 MSTORE PUSH1 0x20 ADD DUP3 DUP1 SLOAD PUSH2 0x195 SWAP1 PUSH2 0xFF5 JUMP JUMPDEST DUP1 ISZERO PUSH2 0x1E2 JUMPI DUP1 PUSH1 0x1F LT PUSH2 0x1B7 JUMPI PUSH2 0x100 DUP1 DUP4 SLOAD DIV MUL DUP4 MSTORE SWAP2 PUSH1 0x20 ADD SWAP2 PUSH2 0x1E2 JUMP JUMPDEST DUP3 ADD SWAP2 SWAP1 PUSH1 0x0 MSTORE PUSH1 0x20 PUSH1 0x0 KECCAK256 SWAP1 JUMPDEST DUP2 SLOAD DUP2 MSTORE SWAP1 PUSH1 0x1 ADD SWAP1 PUSH1 0x20 ADD DUP1 DUP4 GT PUSH2 0x1C5 JUMPI DUP3 SWAP1 SUB PUSH1 0x1F AND DUP3 ADD SWAP2 JUMPDEST POP POP POP POP POP DUP2 MSTORE PUSH1 0x20 ADD PUSH1 0x1 DUP3 ADD DUP1 SLOAD PUSH2 0x1FB SWAP1 PUSH2 0xFF5 JUMP JUMPDEST DUP1 PUSH1 0x1F ADD PUSH1 0x20 DUP1 SWAP2 DIV MUL PUSH1 0x20 ADD PUSH1 0x40 MLOAD SWAP1 DUP2 ADD PUSH1 0x40 MSTORE DUP1 SWAP3 SWAP2 SWAP1 DUP2 DUP2 MSTORE PUSH1 0x20 ADD DUP3 DUP1 SLOAD PUSH2 0x227 SWAP1 PUSH2 0xFF5 JUMP JUMPDEST DUP1 ISZERO PUSH2 0x274 JUMPI DUP1 PUSH1 0x1F LT PUSH2 0x249 JUMPI PUSH2 0x100 DUP1 DUP4 SLOAD DIV MUL DUP4 MSTORE SWAP2 PUSH1 0x20 ADD SWAP2 PUSH2 0x274 JUMP JUMPDEST DUP3 ADD SWAP2 SWAP1 PUSH1 0x0 MSTORE PUSH1 0x20 PUSH1 0x0 KECCAK256 SWAP1 JUMPDEST DUP2 SLOAD DUP2 MSTORE SWAP1 PUSH1 0x1 ADD SWAP1 PUSH1 0x20 ADD DUP1 DUP4 GT PUSH2 0x257 JUMPI DUP3 SWAP1 SUB PUSH1 0x1F AND DUP3 ADD SWAP2 JUMPDEST POP POP POP POP POP DUP2 MSTORE PUSH1 0x20 ADD PUSH1 0x2 DUP3 ADD DUP1 SLOAD DUP1 PUSH1 0x20 MUL PUSH1 0x20 ADD PUSH1 0x40 MLOAD SWAP1 DUP2 ADD PUSH1 0x40 MSTORE DUP1 SWAP3 SWAP2 SWAP1 DUP2 DUP2 MSTORE PUSH1 0x20 ADD PUSH1 0x0 SWAP1 JUMPDEST DUP3 DUP3 LT ISZERO PUSH2 0x34E JUMPI DUP4 DUP3 SWAP1 PUSH1 0x0 MSTORE PUSH1 0x20 PUSH1 0x0 KECCAK256 ADD DUP1 SLOAD PUSH2 0x2C1 SWAP1 PUSH2 0xFF5 JUMP JUMPDEST DUP1 PUSH1 0x1F ADD PUSH1 0x20 DUP1 SWAP2 DIV MUL PUSH1 0x20 ADD PUSH1 0x40 MLOAD SWAP1 DUP2 ADD PUSH1 0x40 MSTORE DUP1 SWAP3 SWAP2 SWAP1 DUP2 DUP2 MSTORE PUSH1 0x20 ADD DUP3 DUP1 SLOAD PUSH2 0x2ED SWAP1 PUSH2 0xFF5 JUMP JUMPDEST DUP1 ISZERO PUSH2 0x33A JUMPI DUP1 PUSH1 0x1F LT PUSH2 0x30F JUMPI PUSH2 0x100 DUP1 DUP4 SLOAD DIV MUL DUP4 MSTORE SWAP2 PUSH1 0x20 ADD SWAP2 PUSH2 0x33A JUMP JUMPDEST DUP3 ADD SWAP2 SWAP1 PUSH1 0x0 MSTORE PUSH1 0x20 PUSH1 0x0 KECCAK256 SWAP1 JUMPDEST DUP2 SLOAD DUP2 MSTORE SWAP1 PUSH1 0x1 ADD SWAP1 PUSH1 0x20 ADD DUP1 DUP4 GT PUSH2 0x31D JUMPI DUP3 SWAP1 SUB PUSH1 0x1F AND DUP3 ADD SWAP2 JUMPDEST POP POP POP POP POP DUP2 MSTORE PUSH1 0x20 ADD SWAP1 PUSH1 0x1 ADD SWAP1 PUSH2 0x2A2 JUMP JUMPDEST POP POP POP POP DUP2 MSTORE POP POP SWAP1 POP PUSH1 0x0 DUP2 PUSH1 0x40 ADD MLOAD MLOAD EQ PUSH2 0x36E JUMPI DUP1 SWAP2 POP POP PUSH2 0x645 JUMP JUMPDEST PUSH1 0x40 MLOAD DUP1 PUSH1 0x60 ADD PUSH1 0x40 MSTORE DUP1 PUSH1 0x40 MLOAD DUP1 PUSH1 0x20 ADD PUSH1 0x40 MSTORE DUP1 PUSH1 0x0 DUP2 MSTORE POP DUP2 MSTORE PUSH1 0x20 ADD PUSH1 0x40 MLOAD DUP1 PUSH1 0x20 ADD PUSH1 0x40 MSTORE DUP1 PUSH1 0x0 DUP2 MSTORE POP DUP2 MSTORE PUSH1 0x20 ADD DUP5 DUP2 MSTORE POP PUSH1 0x2 DUP6 PUSH1 0x40 MLOAD PUSH2 0x3B7 SWAP2 SWAP1 PUSH2 0xFAF JUMP JUMPDEST SWAP1 DUP2 MSTORE PUSH1 0x20 ADD PUSH1 0x40 MLOAD DUP1 SWAP2 SUB SWAP1 KECCAK256 PUSH1 0x0 DUP3 ADD MLOAD DUP2 PUSH1 0x0 ADD SWAP1 DUP2 PUSH2 0x3DA SWAP2 SWAP1 PUSH2 0x11DC JUMP JUMPDEST POP PUSH1 0x20 DUP3 ADD MLOAD DUP2 PUSH1 0x1 ADD SWAP1 DUP2 PUSH2 0x3F0 SWAP2 SWAP1 PUSH2 0x11DC JUMP JUMPDEST POP PUSH1 0x40 DUP3 ADD MLOAD DUP2 PUSH1 0x2 ADD SWAP1 DUP1 MLOAD SWAP1 PUSH1 0x20 ADD SWAP1 PUSH2 0x40D SWAP3 SWAP2 SWAP1 PUSH2 0x855 JUMP JUMPDEST POP SWAP1 POP POP PUSH2 0x41B DUP4 DUP6 PUSH2 0x64B JUMP JUMPDEST PUSH1 0x2 DUP5 PUSH1 0x40 MLOAD PUSH2 0x42B SWAP2 SWAP1 PUSH2 0xFAF JUMP JUMPDEST SWAP1 DUP2 MSTORE PUSH1 0x20 ADD PUSH1 0x40 MLOAD DUP1 SWAP2 SUB SWAP1 KECCAK256 PUSH1 0x40 MLOAD DUP1 PUSH1 0x60 ADD PUSH1 0x40 MSTORE SWAP1 DUP2 PUSH1 0x0 DUP3 ADD DUP1 SLOAD PUSH2 0x454 SWAP1 PUSH2 0xFF5 JUMP JUMPDEST DUP1 PUSH1 0x1F ADD PUSH1 0x20 DUP1 SWAP2 DIV MUL PUSH1 0x20 ADD PUSH1 0x40 MLOAD SWAP1 DUP2 ADD PUSH1 0x40 MSTORE DUP1 SWAP3 SWAP2 SWAP1 DUP2 DUP2 MSTORE PUSH1 0x20 ADD DUP3 DUP1 SLOAD PUSH2 0x480 SWAP1 PUSH2 0xFF5 JUMP JUMPDEST DUP1 ISZERO PUSH2 0x4CD JUMPI DUP1 PUSH1 0x1F LT PUSH2 0x4A2 JUMPI PUSH2 0x100 DUP1 DUP4 SLOAD DIV MUL DUP4 MSTORE SWAP2 PUSH1 0x20 ADD SWAP2 PUSH2 0x4CD JUMP JUMPDEST DUP3 ADD SWAP2 SWAP1 PUSH1 0x0 MSTORE PUSH1 0x20 PUSH1 0x0 KECCAK256 SWAP1 JUMPDEST DUP2 SLOAD DUP2 MSTORE SWAP1 PUSH1 0x1 ADD SWAP1 PUSH1 0x20 ADD DUP1 DUP4 GT PUSH2 0x4B0 JUMPI DUP3 SWAP1 SUB PUSH1 0x1F AND DUP3 ADD SWAP2 JUMPDEST POP POP POP POP POP DUP2 MSTORE PUSH1 0x20 ADD PUSH1 0x1 DUP3 ADD DUP1 SLOAD PUSH2 0x4E6 SWAP1 PUSH2 0xFF5 JUMP JUMPDEST DUP1 PUSH1 0x1F ADD PUSH1 0x20 DUP1 SWAP2 DIV MUL PUSH1 0x20 ADD PUSH1 0x40 MLOAD SWAP1 DUP2 ADD PUSH1 0x40 MSTORE DUP1 SWAP3 SWAP2 SWAP1 DUP2 DUP2 MSTORE PUSH1 0x20 ADD DUP3 DUP1 SLOAD PUSH2 0x512 SWAP1 PUSH2 0xFF5 JUMP JUMPDEST DUP1 ISZERO PUSH2 0x55F JUMPI DUP1 PUSH1 0x1F LT PUSH2 0x534 JUMPI PUSH2 0x100 DUP1 DUP4 SLOAD DIV MUL DUP4 MSTORE SWAP2 PUSH1 0x20 ADD SWAP2 PUSH2 0x55F JUMP JUMPDEST DUP3 ADD SWAP2 SWAP1 PUSH1 0x0 MSTORE PUSH1 0x20 PUSH1 0x0 KECCAK256 SWAP1 JUMPDEST DUP2 SLOAD DUP2 MSTORE SWAP1 PUSH1 0x1 ADD SWAP1 PUSH1 0x20 ADD DUP1 DUP4 GT PUSH2 0x542 JUMPI DUP3 SWAP1 SUB PUSH1 0x1F AND DUP3 ADD SWAP2 JUMPDEST POP POP POP POP POP DUP2 MSTORE PUSH1 0x20 ADD PUSH1 0x2 DUP3 ADD DUP1 SLOAD DUP1 PUSH1 0x20 MUL PUSH1 0x20 ADD PUSH1 0x40 MLOAD SWAP1 DUP2 ADD PUSH1 0x40 MSTORE DUP1 SWAP3 SWAP2 SWAP1 DUP2 DUP2 MSTORE PUSH1 0x20 ADD PUSH1 0x0 SWAP1 JUMPDEST DUP3 DUP3 LT ISZERO PUSH2 0x639 JUMPI DUP4 DUP3 SWAP1 PUSH1 0x0 MSTORE PUSH1 0x20 PUSH1 0x0 KECCAK256 ADD DUP1 SLOAD PUSH2 0x5AC SWAP1 PUSH2 0xFF5 JUMP JUMPDEST DUP1 PUSH1 0x1F ADD PUSH1 0x20 DUP1 SWAP2 DIV MUL PUSH1 0x20 ADD PUSH1 0x40 MLOAD SWAP1 DUP2 ADD PUSH1 0x40 MSTORE DUP1 SWAP3 SWAP2 SWAP1 DUP2 DUP2 MSTORE PUSH1 0x20 ADD DUP3 DUP1 SLOAD PUSH2 0x5D8 SWAP1 PUSH2 0xFF5 JUMP JUMPDEST DUP1 ISZERO PUSH2 0x625 JUMPI DUP1 PUSH1 0x1F LT PUSH2 0x5FA JUMPI PUSH2 0x100 DUP1 DUP4 SLOAD DIV MUL DUP4 MSTORE SWAP2 PUSH1 0x20 ADD SWAP2 PUSH2 0x625 JUMP JUMPDEST DUP3 ADD SWAP2 SWAP1 PUSH1 0x0 MSTORE PUSH1 0x20 PUSH1 0x0 KECCAK256 SWAP1 JUMPDEST DUP2 SLOAD DUP2 MSTORE SWAP1 PUSH1 0x1 ADD SWAP1 PUSH1 0x20 ADD DUP1 DUP4 GT PUSH2 0x608 JUMPI DUP3 SWAP1 SUB PUSH1 0x1F AND DUP3 ADD SWAP2 JUMPDEST POP POP POP POP POP DUP2 MSTORE PUSH1 0x20 ADD SWAP1 PUSH1 0x1 ADD SWAP1 PUSH2 0x58D JUMP JUMPDEST POP POP POP POP DUP2 MSTORE POP POP SWAP2 POP POP JUMPDEST SWAP3 SWAP2 POP POP JUMP JUMPDEST PUSH1 0x0 JUMPDEST DUP3 MLOAD DUP2 LT ISZERO PUSH2 0x6C4 JUMPI PUSH1 0x0 DUP4 DUP3 DUP2 MLOAD DUP2 LT PUSH2 0x66C JUMPI PUSH2 0x66B PUSH2 0x12AE JUMP JUMPDEST JUMPDEST PUSH1 0x20 MUL PUSH1 0x20 ADD ADD MLOAD SWAP1 POP PUSH2 0x67F DUP2 PUSH2 0x7C0 JUMP JUMPDEST PUSH2 0x6B0 JUMPI DUP3 PUSH1 0x5 DUP3 PUSH1 0x40 MLOAD PUSH2 0x694 SWAP2 SWAP1 PUSH2 0xFAF JUMP JUMPDEST SWAP1 DUP2 MSTORE PUSH1 0x20 ADD PUSH1 0x40 MLOAD DUP1 SWAP2 SUB SWAP1 KECCAK256 SWAP1 DUP2 PUSH2 0x6AE SWAP2 SWAP1 PUSH2 0x11DC JUMP JUMPDEST POP JUMPDEST POP DUP1 DUP1 PUSH2 0x6BC SWAP1 PUSH2 0x130C JUMP JUMPDEST SWAP2 POP POP PUSH2 0x64E JUMP JUMPDEST POP POP POP JUMP JUMPDEST PUSH1 0x0 DUP1 PUSH1 0x0 SWAP1 SLOAD SWAP1 PUSH2 0x100 EXP SWAP1 DIV PUSH20 0xFFFFFFFFFFFFFFFFFFFFFFFFFFFFFFFFFFFFFFFF AND SWAP1 POP SWAP1 JUMP JUMPDEST PUSH1 0x0 DUP2 MLOAD DUP4 MLOAD EQ PUSH2 0x706 JUMPI PUSH1 0x0 SWAP1 POP PUSH2 0x7BA JUMP JUMPDEST PUSH1 0x0 JUMPDEST DUP4 MLOAD DUP2 LT ISZERO PUSH2 0x7B4 JUMPI DUP3 DUP2 DUP2 MLOAD DUP2 LT PUSH2 0x725 JUMPI PUSH2 0x724 PUSH2 0x12AE JUMP JUMPDEST JUMPDEST PUSH1 0x20 ADD ADD MLOAD PUSH1 0xF8 SHR PUSH1 0xF8 SHL PUSH31 0xFFFFFFFFFFFFFFFFFFFFFFFFFFFFFFFFFFFFFFFFFFFFFFFFFFFFFFFFFFFFFF NOT AND DUP5 DUP3 DUP2 MLOAD DUP2 LT PUSH2 0x765 JUMPI PUSH2 0x764 PUSH2 0x12AE JUMP JUMPDEST JUMPDEST PUSH1 0x20 ADD ADD MLOAD PUSH1 0xF8 SHR PUSH1 0xF8 SHL PUSH31 0xFFFFFFFFFFFFFFFFFFFFFFFFFFFFFFFFFFFFFFFFFFFFFFFFFFFFFFFFFFFFFF NOT AND EQ PUSH2 0x7A1 JUMPI PUSH1 0x0 SWAP2 POP POP PUSH2 0x7BA JUMP JUMPDEST DUP1 DUP1 PUSH2 0x7AC SWAP1 PUSH2 0x130C JUMP JUMPDEST SWAP2 POP POP PUSH2 0x709 JUMP JUMPDEST POP PUSH1 0x1 SWAP1 POP JUMPDEST SWAP3 SWAP2 POP POP JUMP JUMPDEST PUSH1 0x0 PUSH1 0x40 MLOAD PUSH1 0x20 ADD PUSH2 0x7D1 SWAP1 PUSH2 0x137A JUMP JUMPDEST PUSH1 0x40 MLOAD PUSH1 0x20 DUP2 DUP4 SUB SUB DUP2 MSTORE SWAP1 PUSH1 0x40 MSTORE DUP1 MLOAD SWAP1 PUSH1 0x20 ADD KECCAK256 PUSH1 0x5 DUP4 PUSH1 0x40 MLOAD PUSH2 0x7F7 SWAP2 SWAP1 PUSH2 0xFAF JUMP JUMPDEST SWAP1 DUP2 MSTORE PUSH1 0x20 ADD PUSH1 0x40 MLOAD DUP1 SWAP2 SUB SWAP1 KECCAK256 PUSH1 0x40 MLOAD PUSH1 0x20 ADD PUSH2 0x815 SWAP2 SWAP1 PUSH2 0x1412 JUMP JUMPDEST PUSH1 0x40 MLOAD PUSH1 0x20 DUP2 DUP4 SUB SUB DUP2 MSTORE SWAP1 PUSH1 0x40 MSTORE DUP1 MLOAD SWAP1 PUSH1 0x20 ADD KECCAK256 EQ ISZERO SWAP1 POP SWAP2 SWAP1 POP JUMP JUMPDEST PUSH1 0x40 MLOAD DUP1 PUSH1 0x60 ADD PUSH1 0x40 MSTORE DUP1 PUSH1 0x60 DUP2 MSTORE PUSH1 0x20 ADD PUSH1 0x60 DUP2 MSTORE PUSH1 0x20 ADD PUSH1 0x60 DUP2 MSTORE POP SWAP1 JUMP JUMPDEST DUP3 DUP1 SLOAD DUP3 DUP3 SSTORE SWAP1 PUSH1 0x0 MSTORE PUSH1 0x20 PUSH1 0x0 KECCAK256 SWAP1 DUP2 ADD SWAP3 DUP3 ISZERO PUSH2 0x89D JUMPI SWAP2 PUSH1 0x20 MUL DUP3 ADD JUMPDEST DUP3 DUP2 GT ISZERO PUSH2 0x89C JUMPI DUP3 MLOAD DUP3 SWAP1 DUP2 PUSH2 0x88C SWAP2 SWAP1 PUSH2 0x11DC JUMP JUMPDEST POP SWAP2 PUSH1 0x20 ADD SWAP2 SWAP1 PUSH1 0x1 ADD SWAP1 PUSH2 0x875 JUMP JUMPDEST JUMPDEST POP SWAP1 POP PUSH2 0x8AA SWAP2 SWAP1 PUSH2 0x8AE JUMP JUMPDEST POP SWAP1 JUMP JUMPDEST JUMPDEST DUP1 DUP3 GT ISZERO PUSH2 0x8CE JUMPI PUSH1 0x0 DUP2 DUP2 PUSH2 0x8C5 SWAP2 SWAP1 PUSH2 0x8D2 JUMP JUMPDEST POP PUSH1 0x1 ADD PUSH2 0x8AF JUMP JUMPDEST POP SWAP1 JUMP JUMPDEST POP DUP1 SLOAD PUSH2 0x8DE SWAP1 PUSH2 0xFF5 JUMP JUMPDEST PUSH1 0x0 DUP3 SSTORE DUP1 PUSH1 0x1F LT PUSH2 0x8F0 JUMPI POP PUSH2 0x90F JUMP JUMPDEST PUSH1 0x1F ADD PUSH1 0x20 SWAP1 DIV SWAP1 PUSH1 0x0 MSTORE PUSH1 0x20 PUSH1 0x0 KECCAK256 SWAP1 DUP2 ADD SWAP1 PUSH2 0x90E SWAP2 SWAP1 PUSH2 0x912 JUMP JUMPDEST JUMPDEST POP JUMP JUMPDEST JUMPDEST DUP1 DUP3 GT ISZERO PUSH2 0x92B JUMPI PUSH1 0x0 DUP2 PUSH1 0x0 SWAP1 SSTORE POP PUSH1 0x1 ADD PUSH2 0x913 JUMP JUMPDEST POP SWAP1 JUMP JUMPDEST PUSH1 0x0 PUSH1 0x40 MLOAD SWAP1 POP SWAP1 JUMP JUMPDEST PUSH1 0x0 DUP1 REVERT JUMPDEST PUSH1 0x0 DUP1 REVERT JUMPDEST PUSH1 0x0 DUP1 REVERT JUMPDEST PUSH1 0x0 DUP1 REVERT JUMPDEST PUSH1 0x0 PUSH1 0x1F NOT PUSH1 0x1F DUP4 ADD AND SWAP1 POP SWAP2 SWAP1 POP JUMP JUMPDEST PUSH32 0x4E487B7100000000000000000000000000000000000000000000000000000000 PUSH1 0x0 MSTORE PUSH1 0x41 PUSH1 0x4 MSTORE PUSH1 0x24 PUSH1 0x0 REVERT JUMPDEST PUSH2 0x996 DUP3 PUSH2 0x94D JUMP JUMPDEST DUP2 ADD DUP2 DUP2 LT PUSH8 0xFFFFFFFFFFFFFFFF DUP3 GT OR ISZERO PUSH2 0x9B5 JUMPI PUSH2 0x9B4 PUSH2 0x95E JUMP JUMPDEST JUMPDEST DUP1 PUSH1 0x40 MSTORE POP POP POP JUMP JUMPDEST PUSH1 0x0 PUSH2 0x9C8 PUSH2 0x92F JUMP JUMPDEST SWAP1 POP PUSH2 0x9D4 DUP3 DUP3 PUSH2 0x98D JUMP JUMPDEST SWAP2 SWAP1 POP JUMP JUMPDEST PUSH1 0x0 PUSH8 0xFFFFFFFFFFFFFFFF DUP3 GT ISZERO PUSH2 0x9F4 JUMPI PUSH2 0x9F3 PUSH2 0x95E JUMP JUMPDEST JUMPDEST PUSH2 0x9FD DUP3 PUSH2 0x94D JUMP JUMPDEST SWAP1 POP PUSH1 0x20 DUP2 ADD SWAP1 POP SWAP2 SWAP1 POP JUMP JUMPDEST DUP3 DUP2 DUP4 CALLDATACOPY PUSH1 0x0 DUP4 DUP4 ADD MSTORE POP POP POP JUMP JUMPDEST PUSH1 0x0 PUSH2 0xA2C PUSH2 0xA27 DUP5 PUSH2 0x9D9 JUMP JUMPDEST PUSH2 0x9BE JUMP JUMPDEST SWAP1 POP DUP3 DUP2 MSTORE PUSH1 0x20 DUP2 ADD DUP5 DUP5 DUP5 ADD GT ISZERO PUSH2 0xA48 JUMPI PUSH2 0xA47 PUSH2 0x948 JUMP JUMPDEST JUMPDEST PUSH2 0xA53 DUP5 DUP3 DUP6 PUSH2 0xA0A JUMP JUMPDEST POP SWAP4 SWAP3 POP POP POP JUMP JUMPDEST PUSH1 0x0 DUP3 PUSH1 0x1F DUP4 ADD SLT PUSH2 0xA70 JUMPI PUSH2 0xA6F PUSH2 0x943 JUMP JUMPDEST JUMPDEST DUP2 CALLDATALOAD PUSH2 0xA80 DUP5 DUP3 PUSH1 0x20 DUP7 ADD PUSH2 0xA19 JUMP JUMPDEST SWAP2 POP POP SWAP3 SWAP2 POP POP JUMP JUMPDEST PUSH1 0x0 PUSH8 0xFFFFFFFFFFFFFFFF DUP3 GT ISZERO PUSH2 0xAA4 JUMPI PUSH2 0xAA3 PUSH2 0x95E JUMP JUMPDEST JUMPDEST PUSH1 0x20 DUP3 MUL SWAP1 POP PUSH1 0x20 DUP2 ADD SWAP1 POP SWAP2 SWAP1 POP JUMP JUMPDEST PUSH1 0x0 DUP1 REVERT JUMPDEST PUSH1 0x0 PUSH2 0xACD PUSH2 0xAC8 DUP5 PUSH2 0xA89 JUMP JUMPDEST PUSH2 0x9BE JUMP JUMPDEST SWAP1 POP DUP1 DUP4 DUP3 MSTORE PUSH1 0x20 DUP3 ADD SWAP1 POP PUSH1 0x20 DUP5 MUL DUP4 ADD DUP6 DUP2 GT ISZERO PUSH2 0xAF0 JUMPI PUSH2 0xAEF PUSH2 0xAB5 JUMP JUMPDEST JUMPDEST DUP4 JUMPDEST DUP2 DUP2 LT ISZERO PUSH2 0xB37 JUMPI DUP1 CALLDATALOAD PUSH8 0xFFFFFFFFFFFFFFFF DUP2 GT ISZERO PUSH2 0xB15 JUMPI PUSH2 0xB14 PUSH2 0x943 JUMP JUMPDEST JUMPDEST DUP1 DUP7 ADD PUSH2 0xB22 DUP10 DUP3 PUSH2 0xA5B JUMP JUMPDEST DUP6 MSTORE PUSH1 0x20 DUP6 ADD SWAP5 POP POP POP PUSH1 0x20 DUP2 ADD SWAP1 POP PUSH2 0xAF2 JUMP JUMPDEST POP POP POP SWAP4 SWAP3 POP POP POP JUMP JUMPDEST PUSH1 0x0 DUP3 PUSH1 0x1F DUP4 ADD SLT PUSH2 0xB56 JUMPI PUSH2 0xB55 PUSH2 0x943 JUMP JUMPDEST JUMPDEST DUP2 CALLDATALOAD PUSH2 0xB66 DUP5 DUP3 PUSH1 0x20 DUP7 ADD PUSH2 0xABA JUMP JUMPDEST SWAP2 POP POP SWAP3 SWAP2 POP POP JUMP JUMPDEST PUSH1 0x0 DUP1 PUSH1 0x40 DUP4 DUP6 SUB SLT ISZERO PUSH2 0xB86 JUMPI PUSH2 0xB85 PUSH2 0x939 JUMP JUMPDEST JUMPDEST PUSH1 0x0 DUP4 ADD CALLDATALOAD PUSH8 0xFFFFFFFFFFFFFFFF DUP2 GT ISZERO PUSH2 0xBA4 JUMPI PUSH2 0xBA3 PUSH2 0x93E JUMP JUMPDEST JUMPDEST PUSH2 0xBB0 DUP6 DUP3 DUP7 ADD PUSH2 0xA5B JUMP JUMPDEST SWAP3 POP POP PUSH1 0x20 DUP4 ADD CALLDATALOAD PUSH8 0xFFFFFFFFFFFFFFFF DUP2 GT ISZERO PUSH2 0xBD1 JUMPI PUSH2 0xBD0 PUSH2 0x93E JUMP JUMPDEST JUMPDEST PUSH2 0xBDD DUP6 DUP3 DUP7 ADD PUSH2 0xB41 JUMP JUMPDEST SWAP2 POP POP SWAP3 POP SWAP3 SWAP1 POP JUMP JUMPDEST PUSH1 0x0 DUP2 MLOAD SWAP1 POP SWAP2 SWAP1 POP JUMP JUMPDEST PUSH1 0x0 DUP3 DUP3 MSTORE PUSH1 0x20 DUP3 ADD SWAP1 POP SWAP3 SWAP2 POP POP JUMP JUMPDEST PUSH1 0x0 JUMPDEST DUP4 DUP2 LT ISZERO PUSH2 0xC21 JUMPI DUP1 DUP3 ADD MLOAD DUP2 DUP5 ADD MSTORE PUSH1 0x20 DUP2 ADD SWAP1 POP PUSH2 0xC06 JUMP JUMPDEST PUSH1 0x0 DUP5 DUP5 ADD MSTORE POP POP POP POP JUMP JUMPDEST PUSH1 0x0 PUSH2 0xC38 DUP3 PUSH2 0xBE7 JUMP JUMPDEST PUSH2 0xC42 DUP2 DUP6 PUSH2 0xBF2 JUMP JUMPDEST SWAP4 POP PUSH2 0xC52 DUP2 DUP6 PUSH1 0x20 DUP7 ADD PUSH2 0xC03 JUMP JUMPDEST PUSH2 0xC5B DUP2 PUSH2 0x94D JUMP JUMPDEST DUP5 ADD SWAP2 POP POP SWAP3 SWAP2 POP POP JUMP JUMPDEST PUSH1 0x0 DUP2 MLOAD SWAP1 POP SWAP2 SWAP1 POP JUMP JUMPDEST PUSH1 0x0 DUP3 DUP3 MSTORE PUSH1 0x20 DUP3 ADD SWAP1 POP SWAP3 SWAP2 POP POP JUMP JUMPDEST PUSH1 0x0 DUP2 SWAP1 POP PUSH1 0x20 DUP3 ADD SWAP1 POP SWAP2 SWAP1 POP JUMP JUMPDEST PUSH1 0x0 PUSH2 0xC9E DUP4 DUP4 PUSH2 0xC2D JUMP JUMPDEST SWAP1 POP SWAP3 SWAP2 POP POP JUMP JUMPDEST PUSH1 0x0 PUSH1 0x20 DUP3 ADD SWAP1 POP SWAP2 SWAP1 POP JUMP JUMPDEST PUSH1 0x0 PUSH2 0xCBE DUP3 PUSH2 0xC66 JUMP JUMPDEST PUSH2 0xCC8 DUP2 DUP6 PUSH2 0xC71 JUMP JUMPDEST SWAP4 POP DUP4 PUSH1 0x20 DUP3 MUL DUP6 ADD PUSH2 0xCDA DUP6 PUSH2 0xC82 JUMP JUMPDEST DUP1 PUSH1 0x0 JUMPDEST DUP6 DUP2 LT ISZERO PUSH2 0xD16 JUMPI DUP5 DUP5 SUB DUP10 MSTORE DUP2 MLOAD PUSH2 0xCF7 DUP6 DUP3 PUSH2 0xC92 JUMP JUMPDEST SWAP5 POP PUSH2 0xD02 DUP4 PUSH2 0xCA6 JUMP JUMPDEST SWAP3 POP PUSH1 0x20 DUP11 ADD SWAP10 POP POP PUSH1 0x1 DUP2 ADD SWAP1 POP PUSH2 0xCDE JUMP JUMPDEST POP DUP3 SWAP8 POP DUP8 SWAP6 POP POP POP POP POP POP SWAP3 SWAP2 POP POP JUMP JUMPDEST PUSH1 0x0 PUSH1 0x60 DUP4 ADD PUSH1 0x0 DUP4 ADD MLOAD DUP5 DUP3 SUB PUSH1 0x0 DUP7 ADD MSTORE PUSH2 0xD45 DUP3 DUP3 PUSH2 0xC2D JUMP JUMPDEST SWAP2 POP POP PUSH1 0x20 DUP4 ADD MLOAD DUP5 DUP3 SUB PUSH1 0x20 DUP7 ADD MSTORE PUSH2 0xD5F DUP3 DUP3 PUSH2 0xC2D JUMP JUMPDEST SWAP2 POP POP PUSH1 0x40 DUP4 ADD MLOAD DUP5 DUP3 SUB PUSH1 0x40 DUP7 ADD MSTORE PUSH2 0xD79 DUP3 DUP3 PUSH2 0xCB3 JUMP JUMPDEST SWAP2 POP POP DUP1 SWAP2 POP POP SWAP3 SWAP2 POP POP JUMP JUMPDEST PUSH1 0x0 PUSH1 0x20 DUP3 ADD SWAP1 POP DUP2 DUP2 SUB PUSH1 0x0 DUP4 ADD MSTORE PUSH2 0xDA0 DUP2 DUP5 PUSH2 0xD28 JUMP JUMPDEST SWAP1 POP SWAP3 SWAP2 POP POP JUMP JUMPDEST PUSH1 0x0 DUP1 PUSH1 0x40 DUP4 DUP6 SUB SLT ISZERO PUSH2 0xDBF JUMPI PUSH2 0xDBE PUSH2 0x939 JUMP JUMPDEST JUMPDEST PUSH1 0x0 DUP4 ADD CALLDATALOAD PUSH8 0xFFFFFFFFFFFFFFFF DUP2 GT ISZERO PUSH2 0xDDD JUMPI PUSH2 0xDDC PUSH2 0x93E JUMP JUMPDEST JUMPDEST PUSH2 0xDE9 DUP6 DUP3 DUP7 ADD PUSH2 0xB41 JUMP JUMPDEST SWAP3 POP POP PUSH1 0x20 DUP4 ADD CALLDATALOAD PUSH8 0xFFFFFFFFFFFFFFFF DUP2 GT ISZERO PUSH2 0xE0A JUMPI PUSH2 0xE09 PUSH2 0x93E JUMP JUMPDEST JUMPDEST PUSH2 0xE16 DUP6 DUP3 DUP7 ADD PUSH2 0xA5B JUMP JUMPDEST SWAP2 POP POP SWAP3 POP SWAP3 SWAP1 POP JUMP JUMPDEST PUSH1 0x0 PUSH20 0xFFFFFFFFFFFFFFFFFFFFFFFFFFFFFFFFFFFFFFFF DUP3 AND SWAP1 POP SWAP2 SWAP1 POP JUMP JUMPDEST PUSH1 0x0 PUSH2 0xE4B DUP3 PUSH2 0xE20 JUMP JUMPDEST SWAP1 POP SWAP2 SWAP1 POP JUMP JUMPDEST PUSH2 0xE5B DUP2 PUSH2 0xE40 JUMP JUMPDEST DUP3 MSTORE POP POP JUMP JUMPDEST PUSH1 0x0 PUSH1 0x20 DUP3 ADD SWAP1 POP PUSH2 0xE76 PUSH1 0x0 DUP4 ADD DUP5 PUSH2 0xE52 JUMP JUMPDEST SWAP3 SWAP2 POP POP JUMP JUMPDEST PUSH1 0x0 DUP1 PUSH1 0x40 DUP4 DUP6 SUB SLT ISZERO PUSH2 0xE93 JUMPI PUSH2 0xE92 PUSH2 0x939 JUMP JUMPDEST JUMPDEST PUSH1 0x0 DUP4 ADD CALLDATALOAD PUSH8 0xFFFFFFFFFFFFFFFF DUP2 GT ISZERO PUSH2 0xEB1 JUMPI PUSH2 0xEB0 PUSH2 0x93E JUMP JUMPDEST JUMPDEST PUSH2 0xEBD DUP6 DUP3 DUP7 ADD PUSH2 0xA5B JUMP JUMPDEST SWAP3 POP POP PUSH1 0x20 DUP4 ADD CALLDATALOAD PUSH8 0xFFFFFFFFFFFFFFFF DUP2 GT ISZERO PUSH2 0xEDE JUMPI PUSH2 0xEDD PUSH2 0x93E JUMP JUMPDEST JUMPDEST PUSH2 0xEEA DUP6 DUP3 DUP7 ADD PUSH2 0xA5B JUMP JUMPDEST SWAP2 POP POP SWAP3 POP SWAP3 SWAP1 POP JUMP JUMPDEST PUSH1 0x0 DUP2 ISZERO ISZERO SWAP1 POP SWAP2 SWAP1 POP JUMP JUMPDEST PUSH2 0xF09 DUP2 PUSH2 0xEF4 JUMP JUMPDEST DUP3 MSTORE POP POP JUMP JUMPDEST PUSH1 0x0 PUSH1 0x20 DUP3 ADD SWAP1 POP PUSH2 0xF24 PUSH1 0x0 DUP4 ADD DUP5 PUSH2 0xF00 JUMP JUMPDEST SWAP3 SWAP2 POP POP JUMP JUMPDEST PUSH1 0x0 PUSH1 0x20 DUP3 DUP5 SUB SLT ISZERO PUSH2 0xF40 JUMPI PUSH2 0xF3F PUSH2 0x939 JUMP JUMPDEST JUMPDEST PUSH1 0x0 DUP3 ADD CALLDATALOAD PUSH8 0xFFFFFFFFFFFFFFFF DUP2 GT ISZERO PUSH2 0xF5E JUMPI PUSH2 0xF5D PUSH2 0x93E JUMP JUMPDEST JUMPDEST PUSH2 0xF6A DUP5 DUP3 DUP6 ADD PUSH2 0xA5B JUMP JUMPDEST SWAP2 POP POP SWAP3 SWAP2 POP POP JUMP JUMPDEST PUSH1 0x0 DUP2 SWAP1 POP SWAP3 SWAP2 POP POP JUMP JUMPDEST PUSH1 0x0 PUSH2 0xF89 DUP3 PUSH2 0xBE7 JUMP JUMPDEST PUSH2 0xF93 DUP2 DUP6 PUSH2 0xF73 JUMP JUMPDEST SWAP4 POP PUSH2 0xFA3 DUP2 DUP6 PUSH1 0x20 DUP7 ADD PUSH2 0xC03 JUMP JUMPDEST DUP1 DUP5 ADD SWAP2 POP POP SWAP3 SWAP2 POP POP JUMP JUMPDEST PUSH1 0x0 PUSH2 0xFBB DUP3 DUP5 PUSH2 0xF7E JUMP JUMPDEST SWAP2 POP DUP2 SWAP1 POP SWAP3 SWAP2 POP POP JUMP JUMPDEST PUSH32 0x4E487B7100000000000000000000000000000000000000000000000000000000 PUSH1 0x0 MSTORE PUSH1 0x22 PUSH1 0x4 MSTORE PUSH1 0x24 PUSH1 0x0 REVERT JUMPDEST PUSH1 0x0 PUSH1 0x2 DUP3 DIV SWAP1 POP PUSH1 0x1 DUP3 AND DUP1 PUSH2 0x100D JUMPI PUSH1 0x7F DUP3 AND SWAP2 POP JUMPDEST PUSH1 0x20 DUP3 LT DUP2 SUB PUSH2 0x1020 JUMPI PUSH2 0x101F PUSH2 0xFC6 JUMP JUMPDEST JUMPDEST POP SWAP2 SWAP1 POP JUMP JUMPDEST PUSH1 0x0 DUP2 SWAP1 POP DUP2 PUSH1 0x0 MSTORE PUSH1 0x20 PUSH1 0x0 KECCAK256 SWAP1 POP SWAP2 SWAP1 POP JUMP JUMPDEST PUSH1 0x0 PUSH1 0x20 PUSH1 0x1F DUP4 ADD DIV SWAP1 POP SWAP2 SWAP1 POP JUMP JUMPDEST PUSH1 0x0 DUP3 DUP3 SHL SWAP1 POP SWAP3 SWAP2 POP POP JUMP JUMPDEST PUSH1 0x0 PUSH1 0x8 DUP4 MUL PUSH2 0x1088 PUSH32 0xFFFFFFFFFFFFFFFFFFFFFFFFFFFFFFFFFFFFFFFFFFFFFFFFFFFFFFFFFFFFFFFF DUP3 PUSH2 0x104B JUMP JUMPDEST PUSH2 0x1092 DUP7 DUP4 PUSH2 0x104B JUMP JUMPDEST SWAP6 POP DUP1 NOT DUP5 AND SWAP4 POP DUP1 DUP7 AND DUP5 OR SWAP3 POP POP POP SWAP4 SWAP3 POP POP POP JUMP JUMPDEST PUSH1 0x0 DUP2 SWAP1 POP SWAP2 SWAP1 POP JUMP JUMPDEST PUSH1 0x0 DUP2 SWAP1 POP SWAP2 SWAP1 POP JUMP JUMPDEST PUSH1 0x0 PUSH2 0x10D9 PUSH2 0x10D4 PUSH2 0x10CF DUP5 PUSH2 0x10AA JUMP JUMPDEST PUSH2 0x10B4 JUMP JUMPDEST PUSH2 0x10AA JUMP JUMPDEST SWAP1 POP SWAP2 SWAP1 POP JUMP JUMPDEST PUSH1 0x0 DUP2 SWAP1 POP SWAP2 SWAP1 POP JUMP JUMPDEST PUSH2 0x10F3 DUP4 PUSH2 0x10BE JUMP JUMPDEST PUSH2 0x1107 PUSH2 0x10FF DUP3 PUSH2 0x10E0 JUMP JUMPDEST DUP5 DUP5 SLOAD PUSH2 0x1058 JUMP JUMPDEST DUP3 SSTORE POP POP POP POP JUMP JUMPDEST PUSH1 0x0 SWAP1 JUMP JUMPDEST PUSH2 0x111C PUSH2 0x110F JUMP JUMPDEST PUSH2 0x1127 DUP2 DUP5 DUP5 PUSH2 0x10EA JUMP JUMPDEST POP POP POP JUMP JUMPDEST JUMPDEST DUP2 DUP2 LT ISZERO PUSH2 0x114B JUMPI PUSH2 0x1140 PUSH1 0x0 DUP3 PUSH2 0x1114 JUMP JUMPDEST PUSH1 0x1 DUP2 ADD SWAP1 POP PUSH2 0x112D JUMP JUMPDEST POP POP JUMP JUMPDEST PUSH1 0x1F DUP3 GT ISZERO PUSH2 0x1190 JUMPI PUSH2 0x1161 DUP2 PUSH2 0x1026 JUMP JUMPDEST PUSH2 0x116A DUP5 PUSH2 0x103B JUMP JUMPDEST DUP2 ADD PUSH1 0x20 DUP6 LT ISZERO PUSH2 0x1179 JUMPI DUP2 SWAP1 POP JUMPDEST PUSH2 0x118D PUSH2 0x1185 DUP6 PUSH2 0x103B JUMP JUMPDEST DUP4 ADD DUP3 PUSH2 0x112C JUMP JUMPDEST POP POP JUMPDEST POP POP POP JUMP JUMPDEST PUSH1 0x0 DUP3 DUP3 SHR SWAP1 POP SWAP3 SWAP2 POP POP JUMP JUMPDEST PUSH1 0x0 PUSH2 0x11B3 PUSH1 0x0 NOT DUP5 PUSH1 0x8 MUL PUSH2 0x1195 JUMP JUMPDEST NOT DUP1 DUP4 AND SWAP2 POP POP SWAP3 SWAP2 POP POP JUMP JUMPDEST PUSH1 0x0 PUSH2 0x11CC DUP4 DUP4 PUSH2 0x11A2 JUMP JUMPDEST SWAP2 POP DUP3 PUSH1 0x2 MUL DUP3 OR SWAP1 POP SWAP3 SWAP2 POP POP JUMP JUMPDEST PUSH2 0x11E5 DUP3 PUSH2 0xBE7 JUMP JUMPDEST PUSH8 0xFFFFFFFFFFFFFFFF DUP2 GT ISZERO PUSH2 0x11FE JUMPI PUSH2 0x11FD PUSH2 0x95E JUMP JUMPDEST JUMPDEST PUSH2 0x1208 DUP3 SLOAD PUSH2 0xFF5 JUMP JUMPDEST PUSH2 0x1213 DUP3 DUP3 DUP6 PUSH2 0x114F JUMP JUMPDEST PUSH1 0x0 PUSH1 0x20 SWAP1 POP PUSH1 0x1F DUP4 GT PUSH1 0x1 DUP2 EQ PUSH2 0x1246 JUMPI PUSH1 0x0 DUP5 ISZERO PUSH2 0x1234 JUMPI DUP3 DUP8 ADD MLOAD SWAP1 POP JUMPDEST PUSH2 0x123E DUP6 DUP3 PUSH2 0x11C0 JUMP JUMPDEST DUP7 SSTORE POP PUSH2 0x12A6 JUMP JUMPDEST PUSH1 0x1F NOT DUP5 AND PUSH2 0x1254 DUP7 PUSH2 0x1026 JUMP JUMPDEST PUSH1 0x0 JUMPDEST DUP3 DUP2 LT ISZERO PUSH2 0x127C JUMPI DUP5 DUP10 ADD MLOAD DUP3 SSTORE PUSH1 0x1 DUP3 ADD SWAP2 POP PUSH1 0x20 DUP6 ADD SWAP5 POP PUSH1 0x20 DUP2 ADD SWAP1 POP PUSH2 0x1257 JUMP JUMPDEST DUP7 DUP4 LT ISZERO PUSH2 0x1299 JUMPI DUP5 DUP10 ADD MLOAD PUSH2 0x1295 PUSH1 0x1F DUP10 AND DUP3 PUSH2 0x11A2 JUMP JUMPDEST DUP4 SSTORE POP JUMPDEST PUSH1 0x1 PUSH1 0x2 DUP9 MUL ADD DUP9 SSTORE POP POP POP JUMPDEST POP POP POP POP POP POP JUMP JUMPDEST PUSH32 0x4E487B7100000000000000000000000000000000000000000000000000000000 PUSH1 0x0 MSTORE PUSH1 0x32 PUSH1 0x4 MSTORE PUSH1 0x24 PUSH1 0x0 REVERT JUMPDEST PUSH32 0x4E487B7100000000000000000000000000000000000000000000000000000000 PUSH1 0x0 MSTORE PUSH1 0x11 PUSH1 0x4 MSTORE PUSH1 0x24 PUSH1 0x0 REVERT JUMPDEST PUSH1 0x0 PUSH2 0x1317 DUP3 PUSH2 0x10AA JUMP JUMPDEST SWAP2 POP PUSH32 0xFFFFFFFFFFFFFFFFFFFFFFFFFFFFFFFFFFFFFFFFFFFFFFFFFFFFFFFFFFFFFFFF DUP3 SUB PUSH2 0x1349 JUMPI PUSH2 0x1348 PUSH2 0x12DD JUMP JUMPDEST JUMPDEST PUSH1 0x1 DUP3 ADD SWAP1 POP SWAP2 SWAP1 POP JUMP JUMPDEST POP JUMP JUMPDEST PUSH1 0x0 PUSH2 0x1364 PUSH1 0x0 DUP4 PUSH2 0xF73 JUMP JUMPDEST SWAP2 POP PUSH2 0x136F DUP3 PUSH2 0x1354 JUMP JUMPDEST PUSH1 0x0 DUP3 ADD SWAP1 POP SWAP2 SWAP1 POP JUMP JUMPDEST PUSH1 0x0 PUSH2 0x1385 DUP3 PUSH2 0x1357 JUMP JUMPDEST SWAP2 POP DUP2 SWAP1 POP SWAP2 SWAP1 POP JUMP JUMPDEST PUSH1 0x0 DUP2 SLOAD PUSH2 0x139C DUP2 PUSH2 0xFF5 JUMP JUMPDEST PUSH2 0x13A6 DUP2 DUP7 PUSH2 0xF73 JUMP JUMPDEST SWAP5 POP PUSH1 0x1 DUP3 AND PUSH1 0x0 DUP2 EQ PUSH2 0x13C1 JUMPI PUSH1 0x1 DUP2 EQ PUSH2 0x13D6 JUMPI PUSH2 0x1409 JUMP JUMPDEST PUSH1 0xFF NOT DUP4 AND DUP7 MSTORE DUP2 ISZERO ISZERO DUP3 MUL DUP7 ADD SWAP4 POP PUSH2 0x1409 JUMP JUMPDEST PUSH2 0x13DF DUP6 PUSH2 0x1026 JUMP JUMPDEST PUSH1 0x0 JUMPDEST DUP4 DUP2 LT ISZERO PUSH2 0x1401 JUMPI DUP2 SLOAD DUP2 DUP10 ADD MSTORE PUSH1 0x1 DUP3 ADD SWAP2 POP PUSH1 0x20 DUP2 ADD SWAP1 POP PUSH2 0x13E2 JUMP JUMPDEST DUP4 DUP9 ADD SWAP6 POP POP POP JUMPDEST POP POP POP SWAP3 SWAP2 POP POP JUMP JUMPDEST PUSH1 0x0 PUSH2 0x141E DUP3 DUP5 PUSH2 0x138F JUMP JUMPDEST SWAP2 POP DUP2 SWAP1 POP SWAP3 SWAP2 POP POP JUMP INVALID LOG2 PUSH5 0x6970667358 0x22 SLT KECCAK256 PUSH25 0xB4537E7EF997A3B0E5998577869CC806B347BDF05ED8763B3D 0xEE PUSH3 0x35A52E 0x23 PUSH5 0x736F6C6343 STOP ADDMOD SLT STOP CALLER "
				},
				"gasEstimates": {
					"creation": {
						"codeDepositCost": "1043000",
						"executionCost": "25346",
						"totalCost": "1068346"
					},
					"external": {
						"assignWalletsToUser(string[],string)": "infinite",
						"compareStrings(string,string)": "infinite",
						"createUserAccount(string,string[])": "infinite",
						"doesKeyExist(string)": "infinite",
						"getOwner()": "2544"
					}
				},
				"methodIdentifiers": {
					"assignWalletsToUser(string[],string)": "63c60bd5",
					"compareStrings(string,string)": "bed34bba",
					"createUserAccount(string,string[])": "51f40dd6",
					"doesKeyExist(string)": "fcf84582",
					"getOwner()": "893d20e8"
				}
			},
			"storageLayout": {
				"storage": [
					{
						"astId": 3,
						"contract": "Contracts/Lending.sol:Lending",
						"label": "owner",
						"offset": 0,
						"slot": "0",
						"type": "t_address"
					},
					{
						"astId": 29,
						"contract": "Contracts/Lending.sol:Lending",
						"label": "Products",
						"offset": 0,
						"slot": "1",
						"type": "t_mapping(t_uint256,t_struct(Product)24_storage)"
					},
					{
						"astId": 34,
						"contract": "Contracts/Lending.sol:Lending",
						"label": "Users",
						"offset": 0,
						"slot": "2",
						"type": "t_mapping(t_string_memory_ptr,t_struct(User)11_storage)"
					},
					{
						"astId": 39,
						"contract": "Contracts/Lending.sol:Lending",
						"label": "UserProducts",
						"offset": 0,
						"slot": "3",
						"type": "t_mapping(t_uint256,t_array(t_uint256)dyn_storage)"
					},
					{
						"astId": 43,
						"contract": "Contracts/Lending.sol:Lending",
						"label": "WorldCoinId",
						"offset": 0,
						"slot": "4",
						"type": "t_mapping(t_string_memory_ptr,t_uint256)"
					},
					{
						"astId": 47,
						"contract": "Contracts/Lending.sol:Lending",
						"label": "UserWallets",
						"offset": 0,
						"slot": "5",
						"type": "t_mapping(t_string_memory_ptr,t_string_storage)"
					}
				],
				"types": {
					"t_address": {
						"encoding": "inplace",
						"label": "address",
						"numberOfBytes": "20"
					},
					"t_array(t_string_storage)dyn_storage": {
						"base": "t_string_storage",
						"encoding": "dynamic_array",
						"label": "string[]",
						"numberOfBytes": "32"
					},
					"t_array(t_uint256)dyn_storage": {
						"base": "t_uint256",
						"encoding": "dynamic_array",
						"label": "uint256[]",
						"numberOfBytes": "32"
					},
					"t_mapping(t_string_memory_ptr,t_string_storage)": {
						"encoding": "mapping",
						"key": "t_string_memory_ptr",
						"label": "mapping(string => string)",
						"numberOfBytes": "32",
						"value": "t_string_storage"
					},
					"t_mapping(t_string_memory_ptr,t_struct(User)11_storage)": {
						"encoding": "mapping",
						"key": "t_string_memory_ptr",
						"label": "mapping(string => struct Lending.User)",
						"numberOfBytes": "32",
						"value": "t_struct(User)11_storage"
					},
					"t_mapping(t_string_memory_ptr,t_uint256)": {
						"encoding": "mapping",
						"key": "t_string_memory_ptr",
						"label": "mapping(string => uint256)",
						"numberOfBytes": "32",
						"value": "t_uint256"
					},
					"t_mapping(t_uint256,t_array(t_uint256)dyn_storage)": {
						"encoding": "mapping",
						"key": "t_uint256",
						"label": "mapping(uint256 => uint256[])",
						"numberOfBytes": "32",
						"value": "t_array(t_uint256)dyn_storage"
					},
					"t_mapping(t_uint256,t_struct(Product)24_storage)": {
						"encoding": "mapping",
						"key": "t_uint256",
						"label": "mapping(uint256 => struct Lending.Product)",
						"numberOfBytes": "32",
						"value": "t_struct(Product)24_storage"
					},
					"t_string_memory_ptr": {
						"encoding": "bytes",
						"label": "string",
						"numberOfBytes": "32"
					},
					"t_string_storage": {
						"encoding": "bytes",
						"label": "string",
						"numberOfBytes": "32"
					},
					"t_struct(Product)24_storage": {
						"encoding": "inplace",
						"label": "struct Lending.Product",
						"members": [
							{
								"astId": 13,
								"contract": "Contracts/Lending.sol:Lending",
								"label": "lat",
								"offset": 0,
								"slot": "0",
								"type": "t_string_storage"
							},
							{
								"astId": 15,
								"contract": "Contracts/Lending.sol:Lending",
								"label": "lng",
								"offset": 0,
								"slot": "1",
								"type": "t_string_storage"
							},
							{
								"astId": 17,
								"contract": "Contracts/Lending.sol:Lending",
								"label": "description",
								"offset": 0,
								"slot": "2",
								"type": "t_string_storage"
							},
							{
								"astId": 19,
								"contract": "Contracts/Lending.sol:Lending",
								"label": "value",
								"offset": 0,
								"slot": "3",
								"type": "t_uint256"
							},
							{
								"astId": 21,
								"contract": "Contracts/Lending.sol:Lending",
								"label": "price",
								"offset": 0,
								"slot": "4",
								"type": "t_uint256"
							},
							{
								"astId": 23,
								"contract": "Contracts/Lending.sol:Lending",
								"label": "image",
								"offset": 0,
								"slot": "5",
								"type": "t_string_storage"
							}
						],
						"numberOfBytes": "192"
					},
					"t_struct(User)11_storage": {
						"encoding": "inplace",
						"label": "struct Lending.User",
						"members": [
							{
								"astId": 5,
								"contract": "Contracts/Lending.sol:Lending",
								"label": "worldCoinId",
								"offset": 0,
								"slot": "0",
								"type": "t_string_storage"
							},
							{
								"astId": 7,
								"contract": "Contracts/Lending.sol:Lending",
								"label": "lensHandle",
								"offset": 0,
								"slot": "1",
								"type": "t_string_storage"
							},
							{
								"astId": 10,
								"contract": "Contracts/Lending.sol:Lending",
								"label": "wallets",
								"offset": 0,
								"slot": "2",
								"type": "t_array(t_string_storage)dyn_storage"
							}
						],
						"numberOfBytes": "96"
					},
					"t_uint256": {
						"encoding": "inplace",
						"label": "uint256",
						"numberOfBytes": "32"
					}
				}
			},
			"userdoc": {
				"kind": "user",
				"methods": {},
				"version": 1
			}
		}
	}
}